{
	"contracts/SimpleVoting.sol": {
		"SimpleVoting": {
			"abi": [
				{
					"inputs": [
						{
							"internalType": "string[]",
							"name": "proposalNames",
							"type": "string[]"
						}
					],
					"stateMutability": "nonpayable",
					"type": "constructor"
				},
				{
					"anonymous": false,
					"inputs": [
						{
							"indexed": true,
							"internalType": "address",
							"name": "_from",
							"type": "address"
						},
						{
							"indexed": true,
							"internalType": "address",
							"name": "_to",
							"type": "address"
						}
					],
					"name": "DelegationSuccessful",
					"type": "event"
				},
				{
					"anonymous": false,
					"inputs": [
						{
							"indexed": true,
							"internalType": "uint256",
							"name": "_proposal",
							"type": "uint256"
						},
						{
							"indexed": true,
							"internalType": "address",
							"name": "_voter",
							"type": "address"
						},
						{
							"indexed": false,
							"internalType": "uint256",
							"name": "_votesAdded",
							"type": "uint256"
						}
					],
					"name": "VoteCasted",
					"type": "event"
				},
				{
					"anonymous": false,
					"inputs": [
						{
							"indexed": false,
							"internalType": "address",
							"name": "_chairPerson",
							"type": "address"
						},
						{
							"indexed": false,
							"internalType": "uint256",
							"name": "_proposalCount",
							"type": "uint256"
						}
					],
					"name": "VotingStarted",
					"type": "event"
				},
				{
					"inputs": [],
					"name": "chairPerson",
					"outputs": [
						{
							"internalType": "address",
							"name": "",
							"type": "address"
						}
					],
					"stateMutability": "view",
					"type": "function"
				},
				{
					"inputs": [
						{
							"internalType": "address",
							"name": "_to",
							"type": "address"
						}
					],
					"name": "delegate",
					"outputs": [],
					"stateMutability": "nonpayable",
					"type": "function"
				},
				{
					"inputs": [
						{
							"internalType": "address",
							"name": "_voter",
							"type": "address"
						}
					],
					"name": "giveRightToVote",
					"outputs": [],
					"stateMutability": "nonpayable",
					"type": "function"
				},
				{
					"inputs": [],
					"name": "proposalCount",
					"outputs": [
						{
							"internalType": "uint256",
							"name": "",
							"type": "uint256"
						}
					],
					"stateMutability": "view",
					"type": "function"
				},
				{
					"inputs": [
						{
							"internalType": "uint256",
							"name": "proposal",
							"type": "uint256"
						}
					],
					"name": "vote",
					"outputs": [],
					"stateMutability": "nonpayable",
					"type": "function"
				},
				{
					"inputs": [
						{
							"internalType": "address",
							"name": "",
							"type": "address"
						}
					],
					"name": "voters",
					"outputs": [
						{
							"internalType": "uint256",
							"name": "weight",
							"type": "uint256"
						},
						{
							"internalType": "bool",
							"name": "voted",
							"type": "bool"
						},
						{
							"internalType": "address",
							"name": "delegate",
							"type": "address"
						},
						{
							"internalType": "uint256",
							"name": "vote",
							"type": "uint256"
						}
					],
					"stateMutability": "view",
					"type": "function"
				},
				{
					"inputs": [],
					"name": "winnerName",
					"outputs": [
						{
							"internalType": "string",
							"name": "",
							"type": "string"
						}
					],
					"stateMutability": "view",
					"type": "function"
				},
				{
					"inputs": [],
					"name": "winningProposal",
					"outputs": [
						{
							"internalType": "uint256",
							"name": "winningProposal_",
							"type": "uint256"
						}
					],
					"stateMutability": "view",
					"type": "function"
				}
			],
			"devdoc": {
				"details": "Implements voting process along with vote delegation",
				"kind": "dev",
				"methods": {
					"constructor": {
						"details": "Create a new ballot to choose one of 'proposalNames'.",
						"params": {
							"proposalNames": "names of proposals"
						}
					},
					"delegate(address)": {
						"details": "Delegate your vote to the voter 'to'.",
						"params": {
							"_to": "address to which vote is delegated"
						}
					},
					"giveRightToVote(address)": {
						"details": "Give 'voter' the right to vote on this ballot. May only be called by 'chairPerson'.",
						"params": {
							"_voter": "address of voter"
						}
					},
					"vote(uint256)": {
						"details": "Give your vote (including votes delegated to you) to proposal 'proposals[proposal].name'.",
						"params": {
							"proposal": "index of proposal in the proposals array"
						}
					},
					"winnerName()": {
						"details": "Calls winningProposal() function to get the index of the winner contained in the proposals array and then",
						"returns": {
							"_0": "winnerName_ the name of the winner"
						}
					},
					"winningProposal()": {
						"details": "Computes the winning proposal taking all previous votes into account.",
						"returns": {
							"winningProposal_": "index of winning proposal in the proposals array"
						}
					}
				},
				"title": "Ballot",
				"version": 1
			},
			"evm": {
				"assembly": "    /* \"contracts/SimpleVoting.sol\":371:6703  contract SimpleVoting is Context {\r... */\n  mstore(0x40, 0x80)\n    /* \"contracts/SimpleVoting.sol\":1930:2533  constructor(string[] memory proposalNames) {\r... */\n  callvalue\n  dup1\n  iszero\n  tag_1\n  jumpi\n  0x00\n  dup1\n  revert\ntag_1:\n  pop\n  mload(0x40)\n  sub(codesize, bytecodeSize)\n  dup1\n  bytecodeSize\n  dup4\n  codecopy\n  dup2\n  dup2\n  add\n  0x40\n  mstore\n  dup2\n  add\n  swap1\n  tag_2\n  swap2\n  swap1\n  tag_3\n  jump\t// in\ntag_2:\n    /* \"contracts/SimpleVoting.sol\":1998:2010  _msgSender() */\n  tag_6\n    /* \"contracts/SimpleVoting.sol\":1998:2008  _msgSender */\n  shl(0x20, tag_7)\n    /* \"contracts/SimpleVoting.sol\":1998:2010  _msgSender() */\n  0x20\n  shr\n  jump\t// in\ntag_6:\n    /* \"contracts/SimpleVoting.sol\":1984:1995  chairPerson */\n  0x01\n  0x00\n    /* \"contracts/SimpleVoting.sol\":1984:2010  chairPerson = _msgSender() */\n  0x0100\n  exp\n  dup2\n  sload\n  dup2\n  0xffffffffffffffffffffffffffffffffffffffff\n  mul\n  not\n  and\n  swap1\n  dup4\n  0xffffffffffffffffffffffffffffffffffffffff\n  and\n  mul\n  or\n  swap1\n  sstore\n  pop\n    /* \"contracts/SimpleVoting.sol\":2050:2051  1 */\n  0x01\n    /* \"contracts/SimpleVoting.sol\":2021:2027  voters */\n  0x02\n    /* \"contracts/SimpleVoting.sol\":2021:2040  voters[chairPerson] */\n  0x00\n    /* \"contracts/SimpleVoting.sol\":2028:2039  chairPerson */\n  0x01\n  0x00\n  swap1\n  sload\n  swap1\n  0x0100\n  exp\n  swap1\n  div\n  0xffffffffffffffffffffffffffffffffffffffff\n  and\n    /* \"contracts/SimpleVoting.sol\":2021:2040  voters[chairPerson] */\n  0xffffffffffffffffffffffffffffffffffffffff\n  and\n  0xffffffffffffffffffffffffffffffffffffffff\n  and\n  dup2\n  mstore\n  0x20\n  add\n  swap1\n  dup2\n  mstore\n  0x20\n  add\n  0x00\n  keccak256\n    /* \"contracts/SimpleVoting.sol\":2021:2047  voters[chairPerson].weight */\n  0x00\n  add\n    /* \"contracts/SimpleVoting.sol\":2021:2051  voters[chairPerson].weight = 1 */\n  dup2\n  swap1\n  sstore\n  pop\n    /* \"contracts/SimpleVoting.sol\":2078:2091  proposalNames */\n  dup1\n    /* \"contracts/SimpleVoting.sol\":2078:2098  proposalNames.length */\n  mload\n    /* \"contracts/SimpleVoting.sol\":2062:2075  proposalCount */\n  0x00\n    /* \"contracts/SimpleVoting.sol\":2062:2098  proposalCount = proposalNames.length */\n  dup2\n  swap1\n  sstore\n  pop\n    /* \"contracts/SimpleVoting.sol\":2114:2120  uint i */\n  0x00\n    /* \"contracts/SimpleVoting.sol\":2109:2466  for (uint i = 0; i < proposalCount; i = i. add(1)) {\r... */\ntag_8:\n    /* \"contracts/SimpleVoting.sol\":2130:2143  proposalCount */\n  sload(0x00)\n    /* \"contracts/SimpleVoting.sol\":2126:2127  i */\n  dup2\n    /* \"contracts/SimpleVoting.sol\":2126:2143  i < proposalCount */\n  lt\n    /* \"contracts/SimpleVoting.sol\":2109:2466  for (uint i = 0; i < proposalCount; i = i. add(1)) {\r... */\n  iszero\n  tag_9\n  jumpi\n    /* \"contracts/SimpleVoting.sol\":2341:2365  Proposal memory proposal */\n  0x00\n    /* \"contracts/SimpleVoting.sol\":2368:2415  Proposal (stringToBytes32(proposalNames[i]), 0) */\n  mload(0x40)\n  dup1\n  0x40\n  add\n  0x40\n  mstore\n  dup1\n    /* \"contracts/SimpleVoting.sol\":2378:2411  stringToBytes32(proposalNames[i]) */\n  tag_11\n    /* \"contracts/SimpleVoting.sol\":2394:2407  proposalNames */\n  dup6\n    /* \"contracts/SimpleVoting.sol\":2408:2409  i */\n  dup6\n    /* \"contracts/SimpleVoting.sol\":2394:2410  proposalNames[i] */\n  dup2\n  mload\n  dup2\n  lt\n  tag_12\n  jumpi\n  tag_13\n  tag_14\n  jump\t// in\ntag_13:\ntag_12:\n  0x20\n  mul\n  0x20\n  add\n  add\n  mload\n    /* \"contracts/SimpleVoting.sol\":2378:2393  stringToBytes32 */\n  shl(0x20, tag_15)\n    /* \"contracts/SimpleVoting.sol\":2378:2411  stringToBytes32(proposalNames[i]) */\n  0x20\n  shr\n  jump\t// in\ntag_11:\n    /* \"contracts/SimpleVoting.sol\":2368:2415  Proposal (stringToBytes32(proposalNames[i]), 0) */\n  dup2\n  mstore\n  0x20\n  add\n    /* \"contracts/SimpleVoting.sol\":2413:2414  0 */\n  0x00\n    /* \"contracts/SimpleVoting.sol\":2368:2415  Proposal (stringToBytes32(proposalNames[i]), 0) */\n  dup2\n  mstore\n  pop\n    /* \"contracts/SimpleVoting.sol\":2341:2415  Proposal memory proposal = Proposal (stringToBytes32(proposalNames[i]), 0) */\n  swap1\n  pop\n    /* \"contracts/SimpleVoting.sol\":2430:2439  proposals */\n  0x03\n    /* \"contracts/SimpleVoting.sol\":2445:2453  proposal */\n  dup2\n    /* \"contracts/SimpleVoting.sol\":2430:2454  proposals.push(proposal) */\n  swap1\n  dup1\n  0x01\n  dup2\n  sload\n  add\n  dup1\n  dup3\n  sstore\n  dup1\n  swap2\n  pop\n  pop\n  0x01\n  swap1\n  sub\n  swap1\n  0x00\n  mstore\n  keccak256(0x00, 0x20)\n  swap1\n  0x02\n  mul\n  add\n  0x00\n  swap1\n  swap2\n  swap1\n  swap2\n  swap1\n  swap2\n  pop\n  0x00\n  dup3\n  add\n  mload\n  dup2\n  0x00\n  add\n  sstore\n  0x20\n  dup3\n  add\n  mload\n  dup2\n  0x01\n  add\n  sstore\n  pop\n  pop\n    /* \"contracts/SimpleVoting.sol\":2160:2466  {\r... */\n  pop\n    /* \"contracts/SimpleVoting.sol\":2149:2158  i. add(1) */\n  tag_17\n    /* \"contracts/SimpleVoting.sol\":2156:2157  1 */\n  0x01\n    /* \"contracts/SimpleVoting.sol\":2149:2150  i */\n  dup3\n    /* \"contracts/SimpleVoting.sol\":2149:2155  i. add */\n  or(tag_0_43, shl(0x20, tag_18))\n  swap1\n    /* \"contracts/SimpleVoting.sol\":2149:2158  i. add(1) */\n  swap2\n  swap1\n  0x20\n  shr\n  jump\t// in\ntag_17:\n    /* \"contracts/SimpleVoting.sol\":2145:2158  i = i. add(1) */\n  swap1\n  pop\n    /* \"contracts/SimpleVoting.sol\":2109:2466  for (uint i = 0; i < proposalCount; i = i. add(1)) {\r... */\n  jump(tag_8)\ntag_9:\n  pop\n    /* \"contracts/SimpleVoting.sol\":1930:2533  constructor(string[] memory proposalNames) {\r... */\n  pop\n    /* \"contracts/SimpleVoting.sol\":371:6703  contract SimpleVoting is Context {\r... */\n  jump(tag_19)\n    /* \"https://github.com/OpenZeppelin/openzeppelin-contracts/blob/master/contracts/utils/Context.sol\":640:736  function _msgSender() internal view virtual returns (address) {... */\ntag_7:\n    /* \"https://github.com/OpenZeppelin/openzeppelin-contracts/blob/master/contracts/utils/Context.sol\":693:700  address */\n  0x00\n    /* \"https://github.com/OpenZeppelin/openzeppelin-contracts/blob/master/contracts/utils/Context.sol\":719:729  msg.sender */\n  caller\n    /* \"https://github.com/OpenZeppelin/openzeppelin-contracts/blob/master/contracts/utils/Context.sol\":712:729  return msg.sender */\n  swap1\n  pop\n    /* \"https://github.com/OpenZeppelin/openzeppelin-contracts/blob/master/contracts/utils/Context.sol\":640:736  function _msgSender() internal view virtual returns (address) {... */\n  swap1\n  jump\t// out\n    /* \"contracts/SimpleVoting.sol\":6386:6542  function stringToBytes32 (string memory str) \r... */\ntag_15:\n    /* \"contracts/SimpleVoting.sol\":6471:6478  bytes32 */\n  0x00\n    /* \"contracts/SimpleVoting.sol\":6529:6532  str */\n  dup2\n    /* \"contracts/SimpleVoting.sol\":6512:6533  abi.encodePacked(str) */\n  add(0x20, mload(0x40))\n  tag_22\n  swap2\n  swap1\n  tag_23\n  jump\t// in\ntag_22:\n  mload(0x40)\n  0x20\n  dup2\n  dup4\n  sub\n  sub\n  dup2\n  mstore\n  swap1\n  0x40\n  mstore\n    /* \"contracts/SimpleVoting.sol\":6504:6534  bytes32(abi.encodePacked(str)) */\n  tag_24\n  swap1\n  tag_25\n  jump\t// in\ntag_24:\n    /* \"contracts/SimpleVoting.sol\":6497:6534  return bytes32(abi.encodePacked(str)) */\n  swap1\n  pop\n    /* \"contracts/SimpleVoting.sol\":6386:6542  function stringToBytes32 (string memory str) \r... */\n  swap2\n  swap1\n  pop\n  jump\t// out\n    /* \"https://github.com/OpenZeppelin/openzeppelin-contracts/blob/master/contracts/utils/math/SafeMath.sol\":2755:2851  function add(uint256 a, uint256 b) internal pure returns (uint256) {... */\ntag_18:\n    /* \"https://github.com/OpenZeppelin/openzeppelin-contracts/blob/master/contracts/utils/math/SafeMath.sol\":2813:2820  uint256 */\n  0x00\n    /* \"https://github.com/OpenZeppelin/openzeppelin-contracts/blob/master/contracts/utils/math/SafeMath.sol\":2843:2844  b */\n  dup2\n    /* \"https://github.com/OpenZeppelin/openzeppelin-contracts/blob/master/contracts/utils/math/SafeMath.sol\":2839:2840  a */\n  dup4\n    /* \"https://github.com/OpenZeppelin/openzeppelin-contracts/blob/master/contracts/utils/math/SafeMath.sol\":2839:2844  a + b */\n  tag_27\n  swap2\n  swap1\n  tag_28\n  jump\t// in\ntag_27:\n    /* \"https://github.com/OpenZeppelin/openzeppelin-contracts/blob/master/contracts/utils/math/SafeMath.sol\":2832:2844  return a + b */\n  swap1\n  pop\n    /* \"https://github.com/OpenZeppelin/openzeppelin-contracts/blob/master/contracts/utils/math/SafeMath.sol\":2755:2851  function add(uint256 a, uint256 b) internal pure returns (uint256) {... */\n  swap3\n  swap2\n  pop\n  pop\n  jump\t// out\n    /* \"#utility.yul\":23:995   */\ntag_30:\n    /* \"#utility.yul\":140:145   */\n  0x00\n    /* \"#utility.yul\":165:256   */\n  tag_32\n    /* \"#utility.yul\":181:255   */\n  tag_33\n    /* \"#utility.yul\":248:254   */\n  dup5\n    /* \"#utility.yul\":181:255   */\n  tag_34\n  jump\t// in\ntag_33:\n    /* \"#utility.yul\":165:256   */\n  tag_35\n  jump\t// in\ntag_32:\n    /* \"#utility.yul\":156:256   */\n  swap1\n  pop\n    /* \"#utility.yul\":276:281   */\n  dup1\n    /* \"#utility.yul\":305:311   */\n  dup4\n    /* \"#utility.yul\":298:303   */\n  dup3\n    /* \"#utility.yul\":291:312   */\n  mstore\n    /* \"#utility.yul\":339:343   */\n  0x20\n    /* \"#utility.yul\":332:337   */\n  dup3\n    /* \"#utility.yul\":328:344   */\n  add\n    /* \"#utility.yul\":321:344   */\n  swap1\n  pop\n    /* \"#utility.yul\":365:371   */\n  dup3\n    /* \"#utility.yul\":415:418   */\n  dup6\n    /* \"#utility.yul\":407:411   */\n  0x20\n    /* \"#utility.yul\":399:405   */\n  dup7\n    /* \"#utility.yul\":395:412   */\n  mul\n    /* \"#utility.yul\":390:393   */\n  dup3\n    /* \"#utility.yul\":386:413   */\n  add\n    /* \"#utility.yul\":383:419   */\n  gt\n    /* \"#utility.yul\":380:523   */\n  iszero\n  tag_36\n  jumpi\n    /* \"#utility.yul\":434:513   */\n  tag_37\n  tag_38\n  jump\t// in\ntag_37:\n    /* \"#utility.yul\":380:523   */\ntag_36:\n    /* \"#utility.yul\":547:548   */\n  0x00\n    /* \"#utility.yul\":532:989   */\ntag_39:\n    /* \"#utility.yul\":557:563   */\n  dup6\n    /* \"#utility.yul\":554:555   */\n  dup2\n    /* \"#utility.yul\":551:564   */\n  lt\n    /* \"#utility.yul\":532:989   */\n  iszero\n  tag_41\n  jumpi\n    /* \"#utility.yul\":632:635   */\n  dup2\n    /* \"#utility.yul\":626:636   */\n  mload\n    /* \"#utility.yul\":668:686   */\n  0xffffffffffffffff\n    /* \"#utility.yul\":655:666   */\n  dup2\n    /* \"#utility.yul\":652:687   */\n  gt\n    /* \"#utility.yul\":649:771   */\n  iszero\n  tag_42\n  jumpi\n    /* \"#utility.yul\":690:769   */\n  tag_43\n  tag_44\n  jump\t// in\ntag_43:\n    /* \"#utility.yul\":649:771   */\ntag_42:\n    /* \"#utility.yul\":814:825   */\n  dup1\n    /* \"#utility.yul\":806:812   */\n  dup7\n    /* \"#utility.yul\":802:826   */\n  add\n    /* \"#utility.yul\":852:910   */\n  tag_45\n    /* \"#utility.yul\":906:909   */\n  dup10\n    /* \"#utility.yul\":894:904   */\n  dup3\n    /* \"#utility.yul\":852:910   */\n  tag_46\n  jump\t// in\ntag_45:\n    /* \"#utility.yul\":847:850   */\n  dup6\n    /* \"#utility.yul\":840:911   */\n  mstore\n    /* \"#utility.yul\":940:944   */\n  0x20\n    /* \"#utility.yul\":935:938   */\n  dup6\n    /* \"#utility.yul\":931:945   */\n  add\n    /* \"#utility.yul\":924:945   */\n  swap5\n  pop\n    /* \"#utility.yul\":974:978   */\n  0x20\n    /* \"#utility.yul\":969:972   */\n  dup5\n    /* \"#utility.yul\":965:979   */\n  add\n    /* \"#utility.yul\":958:979   */\n  swap4\n  pop\n    /* \"#utility.yul\":592:989   */\n  pop\n  pop\n    /* \"#utility.yul\":579:580   */\n  0x01\n    /* \"#utility.yul\":576:577   */\n  dup2\n    /* \"#utility.yul\":572:581   */\n  add\n    /* \"#utility.yul\":567:581   */\n  swap1\n  pop\n    /* \"#utility.yul\":532:989   */\n  jump(tag_39)\ntag_41:\n    /* \"#utility.yul\":536:550   */\n  pop\n    /* \"#utility.yul\":146:995   */\n  pop\n  pop\n    /* \"#utility.yul\":23:995   */\n  swap4\n  swap3\n  pop\n  pop\n  pop\n  jump\t// out\n    /* \"#utility.yul\":1001:1422   */\ntag_47:\n    /* \"#utility.yul\":1090:1095   */\n  0x00\n    /* \"#utility.yul\":1115:1181   */\n  tag_49\n    /* \"#utility.yul\":1131:1180   */\n  tag_50\n    /* \"#utility.yul\":1173:1179   */\n  dup5\n    /* \"#utility.yul\":1131:1180   */\n  tag_51\n  jump\t// in\ntag_50:\n    /* \"#utility.yul\":1115:1181   */\n  tag_35\n  jump\t// in\ntag_49:\n    /* \"#utility.yul\":1106:1181   */\n  swap1\n  pop\n    /* \"#utility.yul\":1204:1210   */\n  dup3\n    /* \"#utility.yul\":1197:1202   */\n  dup2\n    /* \"#utility.yul\":1190:1211   */\n  mstore\n    /* \"#utility.yul\":1242:1246   */\n  0x20\n    /* \"#utility.yul\":1235:1240   */\n  dup2\n    /* \"#utility.yul\":1231:1247   */\n  add\n    /* \"#utility.yul\":1280:1283   */\n  dup5\n    /* \"#utility.yul\":1271:1277   */\n  dup5\n    /* \"#utility.yul\":1266:1269   */\n  dup5\n    /* \"#utility.yul\":1262:1278   */\n  add\n    /* \"#utility.yul\":1259:1284   */\n  gt\n    /* \"#utility.yul\":1256:1368   */\n  iszero\n  tag_52\n  jumpi\n    /* \"#utility.yul\":1287:1366   */\n  tag_53\n  tag_54\n  jump\t// in\ntag_53:\n    /* \"#utility.yul\":1256:1368   */\ntag_52:\n    /* \"#utility.yul\":1377:1416   */\n  tag_55\n    /* \"#utility.yul\":1409:1415   */\n  dup5\n    /* \"#utility.yul\":1404:1407   */\n  dup3\n    /* \"#utility.yul\":1399:1402   */\n  dup6\n    /* \"#utility.yul\":1377:1416   */\n  tag_56\n  jump\t// in\ntag_55:\n    /* \"#utility.yul\":1096:1422   */\n  pop\n    /* \"#utility.yul\":1001:1422   */\n  swap4\n  swap3\n  pop\n  pop\n  pop\n  jump\t// out\n    /* \"#utility.yul\":1444:1849   */\ntag_57:\n    /* \"#utility.yul\":1536:1541   */\n  0x00\n    /* \"#utility.yul\":1585:1588   */\n  dup3\n    /* \"#utility.yul\":1578:1582   */\n  0x1f\n    /* \"#utility.yul\":1570:1576   */\n  dup4\n    /* \"#utility.yul\":1566:1583   */\n  add\n    /* \"#utility.yul\":1562:1589   */\n  slt\n    /* \"#utility.yul\":1552:1674   */\n  tag_59\n  jumpi\n    /* \"#utility.yul\":1593:1672   */\n  tag_60\n  tag_44\n  jump\t// in\ntag_60:\n    /* \"#utility.yul\":1552:1674   */\ntag_59:\n    /* \"#utility.yul\":1703:1709   */\n  dup2\n    /* \"#utility.yul\":1697:1710   */\n  mload\n    /* \"#utility.yul\":1728:1843   */\n  tag_61\n    /* \"#utility.yul\":1839:1842   */\n  dup5\n    /* \"#utility.yul\":1831:1837   */\n  dup3\n    /* \"#utility.yul\":1824:1828   */\n  0x20\n    /* \"#utility.yul\":1816:1822   */\n  dup7\n    /* \"#utility.yul\":1812:1829   */\n  add\n    /* \"#utility.yul\":1728:1843   */\n  tag_30\n  jump\t// in\ntag_61:\n    /* \"#utility.yul\":1719:1843   */\n  swap2\n  pop\n    /* \"#utility.yul\":1542:1849   */\n  pop\n    /* \"#utility.yul\":1444:1849   */\n  swap3\n  swap2\n  pop\n  pop\n  jump\t// out\n    /* \"#utility.yul\":1869:2224   */\ntag_46:\n    /* \"#utility.yul\":1936:1941   */\n  0x00\n    /* \"#utility.yul\":1985:1988   */\n  dup3\n    /* \"#utility.yul\":1978:1982   */\n  0x1f\n    /* \"#utility.yul\":1970:1976   */\n  dup4\n    /* \"#utility.yul\":1966:1983   */\n  add\n    /* \"#utility.yul\":1962:1989   */\n  slt\n    /* \"#utility.yul\":1952:2074   */\n  tag_63\n  jumpi\n    /* \"#utility.yul\":1993:2072   */\n  tag_64\n  tag_44\n  jump\t// in\ntag_64:\n    /* \"#utility.yul\":1952:2074   */\ntag_63:\n    /* \"#utility.yul\":2103:2109   */\n  dup2\n    /* \"#utility.yul\":2097:2110   */\n  mload\n    /* \"#utility.yul\":2128:2218   */\n  tag_65\n    /* \"#utility.yul\":2214:2217   */\n  dup5\n    /* \"#utility.yul\":2206:2212   */\n  dup3\n    /* \"#utility.yul\":2199:2203   */\n  0x20\n    /* \"#utility.yul\":2191:2197   */\n  dup7\n    /* \"#utility.yul\":2187:2204   */\n  add\n    /* \"#utility.yul\":2128:2218   */\n  tag_47\n  jump\t// in\ntag_65:\n    /* \"#utility.yul\":2119:2218   */\n  swap2\n  pop\n    /* \"#utility.yul\":1942:2224   */\n  pop\n    /* \"#utility.yul\":1869:2224   */\n  swap3\n  swap2\n  pop\n  pop\n  jump\t// out\n    /* \"#utility.yul\":2230:2804   */\ntag_3:\n    /* \"#utility.yul\":2335:2341   */\n  0x00\n    /* \"#utility.yul\":2384:2386   */\n  0x20\n    /* \"#utility.yul\":2372:2381   */\n  dup3\n    /* \"#utility.yul\":2363:2370   */\n  dup5\n    /* \"#utility.yul\":2359:2382   */\n  sub\n    /* \"#utility.yul\":2355:2387   */\n  slt\n    /* \"#utility.yul\":2352:2471   */\n  iszero\n  tag_67\n  jumpi\n    /* \"#utility.yul\":2390:2469   */\n  tag_68\n  tag_69\n  jump\t// in\ntag_68:\n    /* \"#utility.yul\":2352:2471   */\ntag_67:\n    /* \"#utility.yul\":2531:2532   */\n  0x00\n    /* \"#utility.yul\":2520:2529   */\n  dup3\n    /* \"#utility.yul\":2516:2533   */\n  add\n    /* \"#utility.yul\":2510:2534   */\n  mload\n    /* \"#utility.yul\":2561:2579   */\n  0xffffffffffffffff\n    /* \"#utility.yul\":2553:2559   */\n  dup2\n    /* \"#utility.yul\":2550:2580   */\n  gt\n    /* \"#utility.yul\":2547:2664   */\n  iszero\n  tag_70\n  jumpi\n    /* \"#utility.yul\":2583:2662   */\n  tag_71\n  tag_72\n  jump\t// in\ntag_71:\n    /* \"#utility.yul\":2547:2664   */\ntag_70:\n    /* \"#utility.yul\":2688:2787   */\n  tag_73\n    /* \"#utility.yul\":2779:2786   */\n  dup5\n    /* \"#utility.yul\":2770:2776   */\n  dup3\n    /* \"#utility.yul\":2759:2768   */\n  dup6\n    /* \"#utility.yul\":2755:2777   */\n  add\n    /* \"#utility.yul\":2688:2787   */\n  tag_57\n  jump\t// in\ntag_73:\n    /* \"#utility.yul\":2678:2787   */\n  swap2\n  pop\n    /* \"#utility.yul\":2481:2797   */\n  pop\n    /* \"#utility.yul\":2230:2804   */\n  swap3\n  swap2\n  pop\n  pop\n  jump\t// out\n    /* \"#utility.yul\":2810:3187   */\ntag_74:\n    /* \"#utility.yul\":2916:2919   */\n  0x00\n    /* \"#utility.yul\":2944:2983   */\n  tag_76\n    /* \"#utility.yul\":2977:2982   */\n  dup3\n    /* \"#utility.yul\":2944:2983   */\n  tag_77\n  jump\t// in\ntag_76:\n    /* \"#utility.yul\":2999:3088   */\n  tag_78\n    /* \"#utility.yul\":3081:3087   */\n  dup2\n    /* \"#utility.yul\":3076:3079   */\n  dup6\n    /* \"#utility.yul\":2999:3088   */\n  tag_79\n  jump\t// in\ntag_78:\n    /* \"#utility.yul\":2992:3088   */\n  swap4\n  pop\n    /* \"#utility.yul\":3097:3149   */\n  tag_80\n    /* \"#utility.yul\":3142:3148   */\n  dup2\n    /* \"#utility.yul\":3137:3140   */\n  dup6\n    /* \"#utility.yul\":3130:3134   */\n  0x20\n    /* \"#utility.yul\":3123:3128   */\n  dup7\n    /* \"#utility.yul\":3119:3135   */\n  add\n    /* \"#utility.yul\":3097:3149   */\n  tag_56\n  jump\t// in\ntag_80:\n    /* \"#utility.yul\":3174:3180   */\n  dup1\n    /* \"#utility.yul\":3169:3172   */\n  dup5\n    /* \"#utility.yul\":3165:3181   */\n  add\n    /* \"#utility.yul\":3158:3181   */\n  swap2\n  pop\n    /* \"#utility.yul\":2920:3187   */\n  pop\n    /* \"#utility.yul\":2810:3187   */\n  swap3\n  swap2\n  pop\n  pop\n  jump\t// out\n    /* \"#utility.yul\":3193:3468   */\ntag_23:\n    /* \"#utility.yul\":3325:3328   */\n  0x00\n    /* \"#utility.yul\":3347:3442   */\n  tag_82\n    /* \"#utility.yul\":3438:3441   */\n  dup3\n    /* \"#utility.yul\":3429:3435   */\n  dup5\n    /* \"#utility.yul\":3347:3442   */\n  tag_74\n  jump\t// in\ntag_82:\n    /* \"#utility.yul\":3340:3442   */\n  swap2\n  pop\n    /* \"#utility.yul\":3459:3462   */\n  dup2\n    /* \"#utility.yul\":3452:3462   */\n  swap1\n  pop\n    /* \"#utility.yul\":3193:3468   */\n  swap3\n  swap2\n  pop\n  pop\n  jump\t// out\n    /* \"#utility.yul\":3474:3603   */\ntag_35:\n    /* \"#utility.yul\":3508:3514   */\n  0x00\n    /* \"#utility.yul\":3535:3555   */\n  tag_84\n  tag_85\n  jump\t// in\ntag_84:\n    /* \"#utility.yul\":3525:3555   */\n  swap1\n  pop\n    /* \"#utility.yul\":3564:3597   */\n  tag_86\n    /* \"#utility.yul\":3592:3596   */\n  dup3\n    /* \"#utility.yul\":3584:3590   */\n  dup3\n    /* \"#utility.yul\":3564:3597   */\n  tag_87\n  jump\t// in\ntag_86:\n    /* \"#utility.yul\":3474:3603   */\n  swap2\n  swap1\n  pop\n  jump\t// out\n    /* \"#utility.yul\":3609:3684   */\ntag_85:\n    /* \"#utility.yul\":3642:3648   */\n  0x00\n    /* \"#utility.yul\":3675:3677   */\n  0x40\n    /* \"#utility.yul\":3669:3678   */\n  mload\n    /* \"#utility.yul\":3659:3678   */\n  swap1\n  pop\n    /* \"#utility.yul\":3609:3684   */\n  swap1\n  jump\t// out\n    /* \"#utility.yul\":3690:4011   */\ntag_34:\n    /* \"#utility.yul\":3777:3781   */\n  0x00\n    /* \"#utility.yul\":3867:3885   */\n  0xffffffffffffffff\n    /* \"#utility.yul\":3859:3865   */\n  dup3\n    /* \"#utility.yul\":3856:3886   */\n  gt\n    /* \"#utility.yul\":3853:3909   */\n  iszero\n  tag_90\n  jumpi\n    /* \"#utility.yul\":3889:3907   */\n  tag_91\n  tag_92\n  jump\t// in\ntag_91:\n    /* \"#utility.yul\":3853:3909   */\ntag_90:\n    /* \"#utility.yul\":3939:3943   */\n  0x20\n    /* \"#utility.yul\":3931:3937   */\n  dup3\n    /* \"#utility.yul\":3927:3944   */\n  mul\n    /* \"#utility.yul\":3919:3944   */\n  swap1\n  pop\n    /* \"#utility.yul\":3999:4003   */\n  0x20\n    /* \"#utility.yul\":3993:3997   */\n  dup2\n    /* \"#utility.yul\":3989:4004   */\n  add\n    /* \"#utility.yul\":3981:4004   */\n  swap1\n  pop\n    /* \"#utility.yul\":3690:4011   */\n  swap2\n  swap1\n  pop\n  jump\t// out\n    /* \"#utility.yul\":4017:4325   */\ntag_51:\n    /* \"#utility.yul\":4079:4083   */\n  0x00\n    /* \"#utility.yul\":4169:4187   */\n  0xffffffffffffffff\n    /* \"#utility.yul\":4161:4167   */\n  dup3\n    /* \"#utility.yul\":4158:4188   */\n  gt\n    /* \"#utility.yul\":4155:4211   */\n  iszero\n  tag_94\n  jumpi\n    /* \"#utility.yul\":4191:4209   */\n  tag_95\n  tag_92\n  jump\t// in\ntag_95:\n    /* \"#utility.yul\":4155:4211   */\ntag_94:\n    /* \"#utility.yul\":4229:4258   */\n  tag_96\n    /* \"#utility.yul\":4251:4257   */\n  dup3\n    /* \"#utility.yul\":4229:4258   */\n  tag_97\n  jump\t// in\ntag_96:\n    /* \"#utility.yul\":4221:4258   */\n  swap1\n  pop\n    /* \"#utility.yul\":4313:4317   */\n  0x20\n    /* \"#utility.yul\":4307:4311   */\n  dup2\n    /* \"#utility.yul\":4303:4318   */\n  add\n    /* \"#utility.yul\":4295:4318   */\n  swap1\n  pop\n    /* \"#utility.yul\":4017:4325   */\n  swap2\n  swap1\n  pop\n  jump\t// out\n    /* \"#utility.yul\":4331:4447   */\ntag_98:\n    /* \"#utility.yul\":4382:4386   */\n  0x00\n    /* \"#utility.yul\":4405:4408   */\n  dup2\n    /* \"#utility.yul\":4397:4408   */\n  swap1\n  pop\n    /* \"#utility.yul\":4435:4439   */\n  0x20\n    /* \"#utility.yul\":4430:4433   */\n  dup3\n    /* \"#utility.yul\":4426:4440   */\n  add\n    /* \"#utility.yul\":4418:4440   */\n  swap1\n  pop\n    /* \"#utility.yul\":4331:4447   */\n  swap2\n  swap1\n  pop\n  jump\t// out\n    /* \"#utility.yul\":4453:4551   */\ntag_100:\n    /* \"#utility.yul\":4504:4510   */\n  0x00\n    /* \"#utility.yul\":4538:4543   */\n  dup2\n    /* \"#utility.yul\":4532:4544   */\n  mload\n    /* \"#utility.yul\":4522:4544   */\n  swap1\n  pop\n    /* \"#utility.yul\":4453:4551   */\n  swap2\n  swap1\n  pop\n  jump\t// out\n    /* \"#utility.yul\":4557:4656   */\ntag_77:\n    /* \"#utility.yul\":4609:4615   */\n  0x00\n    /* \"#utility.yul\":4643:4648   */\n  dup2\n    /* \"#utility.yul\":4637:4649   */\n  mload\n    /* \"#utility.yul\":4627:4649   */\n  swap1\n  pop\n    /* \"#utility.yul\":4557:4656   */\n  swap2\n  swap1\n  pop\n  jump\t// out\n    /* \"#utility.yul\":4662:4810   */\ntag_79:\n    /* \"#utility.yul\":4764:4775   */\n  0x00\n    /* \"#utility.yul\":4801:4804   */\n  dup2\n    /* \"#utility.yul\":4786:4804   */\n  swap1\n  pop\n    /* \"#utility.yul\":4662:4810   */\n  swap3\n  swap2\n  pop\n  pop\n  jump\t// out\n    /* \"#utility.yul\":4816:5121   */\ntag_28:\n    /* \"#utility.yul\":4856:4859   */\n  0x00\n    /* \"#utility.yul\":4875:4895   */\n  tag_105\n    /* \"#utility.yul\":4893:4894   */\n  dup3\n    /* \"#utility.yul\":4875:4895   */\n  tag_106\n  jump\t// in\ntag_105:\n    /* \"#utility.yul\":4870:4895   */\n  swap2\n  pop\n    /* \"#utility.yul\":4909:4929   */\n  tag_107\n    /* \"#utility.yul\":4927:4928   */\n  dup4\n    /* \"#utility.yul\":4909:4929   */\n  tag_106\n  jump\t// in\ntag_107:\n    /* \"#utility.yul\":4904:4929   */\n  swap3\n  pop\n    /* \"#utility.yul\":5063:5064   */\n  dup3\n    /* \"#utility.yul\":4995:5061   */\n  0xffffffffffffffffffffffffffffffffffffffffffffffffffffffffffffffff\n    /* \"#utility.yul\":4991:5065   */\n  sub\n    /* \"#utility.yul\":4988:4989   */\n  dup3\n    /* \"#utility.yul\":4985:5066   */\n  gt\n    /* \"#utility.yul\":4982:5089   */\n  iszero\n  tag_108\n  jumpi\n    /* \"#utility.yul\":5069:5087   */\n  tag_109\n  tag_110\n  jump\t// in\ntag_109:\n    /* \"#utility.yul\":4982:5089   */\ntag_108:\n    /* \"#utility.yul\":5113:5114   */\n  dup3\n    /* \"#utility.yul\":5110:5111   */\n  dup3\n    /* \"#utility.yul\":5106:5115   */\n  add\n    /* \"#utility.yul\":5099:5115   */\n  swap1\n  pop\n    /* \"#utility.yul\":4816:5121   */\n  swap3\n  swap2\n  pop\n  pop\n  jump\t// out\n    /* \"#utility.yul\":5127:5204   */\ntag_111:\n    /* \"#utility.yul\":5164:5171   */\n  0x00\n    /* \"#utility.yul\":5193:5198   */\n  dup2\n    /* \"#utility.yul\":5182:5198   */\n  swap1\n  pop\n    /* \"#utility.yul\":5127:5204   */\n  swap2\n  swap1\n  pop\n  jump\t// out\n    /* \"#utility.yul\":5210:5287   */\ntag_106:\n    /* \"#utility.yul\":5247:5254   */\n  0x00\n    /* \"#utility.yul\":5276:5281   */\n  dup2\n    /* \"#utility.yul\":5265:5281   */\n  swap1\n  pop\n    /* \"#utility.yul\":5210:5287   */\n  swap2\n  swap1\n  pop\n  jump\t// out\n    /* \"#utility.yul\":5293:5887   */\ntag_25:\n    /* \"#utility.yul\":5377:5382   */\n  0x00\n    /* \"#utility.yul\":5408:5446   */\n  tag_115\n    /* \"#utility.yul\":5440:5445   */\n  dup3\n    /* \"#utility.yul\":5408:5446   */\n  tag_100\n  jump\t// in\ntag_115:\n    /* \"#utility.yul\":5471:5476   */\n  dup3\n    /* \"#utility.yul\":5498:5538   */\n  tag_116\n    /* \"#utility.yul\":5532:5537   */\n  dup5\n    /* \"#utility.yul\":5498:5538   */\n  tag_98\n  jump\t// in\ntag_116:\n    /* \"#utility.yul\":5486:5538   */\n  swap1\n  pop\n    /* \"#utility.yul\":5557:5592   */\n  tag_117\n    /* \"#utility.yul\":5583:5591   */\n  dup2\n    /* \"#utility.yul\":5557:5592   */\n  tag_118\n  jump\t// in\ntag_117:\n    /* \"#utility.yul\":5548:5592   */\n  swap3\n  pop\n    /* \"#utility.yul\":5616:5618   */\n  0x20\n    /* \"#utility.yul\":5608:5614   */\n  dup3\n    /* \"#utility.yul\":5605:5619   */\n  lt\n    /* \"#utility.yul\":5602:5880   */\n  iszero\n  tag_119\n  jumpi\n    /* \"#utility.yul\":5687:5856   */\n  tag_120\n    /* \"#utility.yul\":5772:5838   */\n  0xffffffffffffffffffffffffffffffffffffffffffffffffffffffffffffffff\n    /* \"#utility.yul\":5742:5748   */\n  dup4\n    /* \"#utility.yul\":5738:5740   */\n  0x20\n    /* \"#utility.yul\":5734:5749   */\n  sub\n    /* \"#utility.yul\":5731:5732   */\n  0x08\n    /* \"#utility.yul\":5727:5750   */\n  mul\n    /* \"#utility.yul\":5687:5856   */\n  tag_121\n  jump\t// in\ntag_120:\n    /* \"#utility.yul\":5664:5669   */\n  dup4\n    /* \"#utility.yul\":5643:5870   */\n  and\n    /* \"#utility.yul\":5634:5870   */\n  swap3\n  pop\n    /* \"#utility.yul\":5602:5880   */\ntag_119:\n    /* \"#utility.yul\":5383:5887   */\n  pop\n  pop\n    /* \"#utility.yul\":5293:5887   */\n  swap2\n  swap1\n  pop\n  jump\t// out\n    /* \"#utility.yul\":5893:6200   */\ntag_56:\n    /* \"#utility.yul\":5961:5962   */\n  0x00\n    /* \"#utility.yul\":5971:6084   */\ntag_123:\n    /* \"#utility.yul\":5985:5991   */\n  dup4\n    /* \"#utility.yul\":5982:5983   */\n  dup2\n    /* \"#utility.yul\":5979:5992   */\n  lt\n    /* \"#utility.yul\":5971:6084   */\n  iszero\n  tag_125\n  jumpi\n    /* \"#utility.yul\":6070:6071   */\n  dup1\n    /* \"#utility.yul\":6065:6068   */\n  dup3\n    /* \"#utility.yul\":6061:6072   */\n  add\n    /* \"#utility.yul\":6055:6073   */\n  mload\n    /* \"#utility.yul\":6051:6052   */\n  dup2\n    /* \"#utility.yul\":6046:6049   */\n  dup5\n    /* \"#utility.yul\":6042:6053   */\n  add\n    /* \"#utility.yul\":6035:6074   */\n  mstore\n    /* \"#utility.yul\":6007:6009   */\n  0x20\n    /* \"#utility.yul\":6004:6005   */\n  dup2\n    /* \"#utility.yul\":6000:6010   */\n  add\n    /* \"#utility.yul\":5995:6010   */\n  swap1\n  pop\n    /* \"#utility.yul\":5971:6084   */\n  jump(tag_123)\ntag_125:\n    /* \"#utility.yul\":6102:6108   */\n  dup4\n    /* \"#utility.yul\":6099:6100   */\n  dup2\n    /* \"#utility.yul\":6096:6109   */\n  gt\n    /* \"#utility.yul\":6093:6194   */\n  iszero\n  tag_126\n  jumpi\n    /* \"#utility.yul\":6182:6183   */\n  0x00\n    /* \"#utility.yul\":6173:6179   */\n  dup5\n    /* \"#utility.yul\":6168:6171   */\n  dup5\n    /* \"#utility.yul\":6164:6180   */\n  add\n    /* \"#utility.yul\":6157:6184   */\n  mstore\n    /* \"#utility.yul\":6093:6194   */\ntag_126:\n    /* \"#utility.yul\":5942:6200   */\n  pop\n    /* \"#utility.yul\":5893:6200   */\n  pop\n  pop\n  pop\n  jump\t// out\n    /* \"#utility.yul\":6206:6487   */\ntag_87:\n    /* \"#utility.yul\":6289:6316   */\n  tag_128\n    /* \"#utility.yul\":6311:6315   */\n  dup3\n    /* \"#utility.yul\":6289:6316   */\n  tag_97\n  jump\t// in\ntag_128:\n    /* \"#utility.yul\":6281:6287   */\n  dup2\n    /* \"#utility.yul\":6277:6317   */\n  add\n    /* \"#utility.yul\":6419:6425   */\n  dup2\n    /* \"#utility.yul\":6407:6417   */\n  dup2\n    /* \"#utility.yul\":6404:6426   */\n  lt\n    /* \"#utility.yul\":6383:6401   */\n  0xffffffffffffffff\n    /* \"#utility.yul\":6371:6381   */\n  dup3\n    /* \"#utility.yul\":6368:6402   */\n  gt\n    /* \"#utility.yul\":6365:6427   */\n  or\n    /* \"#utility.yul\":6362:6450   */\n  iszero\n  tag_129\n  jumpi\n    /* \"#utility.yul\":6430:6448   */\n  tag_130\n  tag_92\n  jump\t// in\ntag_130:\n    /* \"#utility.yul\":6362:6450   */\ntag_129:\n    /* \"#utility.yul\":6470:6480   */\n  dup1\n    /* \"#utility.yul\":6466:6468   */\n  0x40\n    /* \"#utility.yul\":6459:6481   */\n  mstore\n    /* \"#utility.yul\":6249:6487   */\n  pop\n    /* \"#utility.yul\":6206:6487   */\n  pop\n  pop\n  jump\t// out\n    /* \"#utility.yul\":6493:6673   */\ntag_110:\n    /* \"#utility.yul\":6541:6618   */\n  0x4e487b7100000000000000000000000000000000000000000000000000000000\n    /* \"#utility.yul\":6538:6539   */\n  0x00\n    /* \"#utility.yul\":6531:6619   */\n  mstore\n    /* \"#utility.yul\":6638:6642   */\n  0x11\n    /* \"#utility.yul\":6635:6636   */\n  0x04\n    /* \"#utility.yul\":6628:6643   */\n  mstore\n    /* \"#utility.yul\":6662:6666   */\n  0x24\n    /* \"#utility.yul\":6659:6660   */\n  0x00\n    /* \"#utility.yul\":6652:6667   */\n  revert\n    /* \"#utility.yul\":6679:6859   */\ntag_14:\n    /* \"#utility.yul\":6727:6804   */\n  0x4e487b7100000000000000000000000000000000000000000000000000000000\n    /* \"#utility.yul\":6724:6725   */\n  0x00\n    /* \"#utility.yul\":6717:6805   */\n  mstore\n    /* \"#utility.yul\":6824:6828   */\n  0x32\n    /* \"#utility.yul\":6821:6822   */\n  0x04\n    /* \"#utility.yul\":6814:6829   */\n  mstore\n    /* \"#utility.yul\":6848:6852   */\n  0x24\n    /* \"#utility.yul\":6845:6846   */\n  0x00\n    /* \"#utility.yul\":6838:6853   */\n  revert\n    /* \"#utility.yul\":6865:7045   */\ntag_92:\n    /* \"#utility.yul\":6913:6990   */\n  0x4e487b7100000000000000000000000000000000000000000000000000000000\n    /* \"#utility.yul\":6910:6911   */\n  0x00\n    /* \"#utility.yul\":6903:6991   */\n  mstore\n    /* \"#utility.yul\":7010:7014   */\n  0x41\n    /* \"#utility.yul\":7007:7008   */\n  0x04\n    /* \"#utility.yul\":7000:7015   */\n  mstore\n    /* \"#utility.yul\":7034:7038   */\n  0x24\n    /* \"#utility.yul\":7031:7032   */\n  0x00\n    /* \"#utility.yul\":7024:7039   */\n  revert\n    /* \"#utility.yul\":7051:7205   */\ntag_118:\n    /* \"#utility.yul\":7094:7105   */\n  0x00\n    /* \"#utility.yul\":7130:7159   */\n  tag_135\n    /* \"#utility.yul\":7154:7157   */\n  dup3\n    /* \"#utility.yul\":7148:7158   */\n  mload\n    /* \"#utility.yul\":7130:7159   */\n  tag_111\n  jump\t// in\ntag_135:\n    /* \"#utility.yul\":7193:7198   */\n  dup1\n    /* \"#utility.yul\":7169:7198   */\n  swap2\n  pop\n    /* \"#utility.yul\":7106:7205   */\n  pop\n    /* \"#utility.yul\":7051:7205   */\n  swap2\n  swap1\n  pop\n  jump\t// out\n    /* \"#utility.yul\":7211:7328   */\ntag_44:\n    /* \"#utility.yul\":7320:7321   */\n  0x00\n    /* \"#utility.yul\":7317:7318   */\n  dup1\n    /* \"#utility.yul\":7310:7322   */\n  revert\n    /* \"#utility.yul\":7334:7451   */\ntag_38:\n    /* \"#utility.yul\":7443:7444   */\n  0x00\n    /* \"#utility.yul\":7440:7441   */\n  dup1\n    /* \"#utility.yul\":7433:7445   */\n  revert\n    /* \"#utility.yul\":7457:7574   */\ntag_54:\n    /* \"#utility.yul\":7566:7567   */\n  0x00\n    /* \"#utility.yul\":7563:7564   */\n  dup1\n    /* \"#utility.yul\":7556:7568   */\n  revert\n    /* \"#utility.yul\":7580:7697   */\ntag_72:\n    /* \"#utility.yul\":7689:7690   */\n  0x00\n    /* \"#utility.yul\":7686:7687   */\n  dup1\n    /* \"#utility.yul\":7679:7691   */\n  revert\n    /* \"#utility.yul\":7703:7820   */\ntag_69:\n    /* \"#utility.yul\":7812:7813   */\n  0x00\n    /* \"#utility.yul\":7809:7810   */\n  dup1\n    /* \"#utility.yul\":7802:7814   */\n  revert\n    /* \"#utility.yul\":7826:7928   */\ntag_97:\n    /* \"#utility.yul\":7867:7873   */\n  0x00\n    /* \"#utility.yul\":7918:7920   */\n  0x1f\n    /* \"#utility.yul\":7914:7921   */\n  not\n    /* \"#utility.yul\":7909:7911   */\n  0x1f\n    /* \"#utility.yul\":7902:7907   */\n  dup4\n    /* \"#utility.yul\":7898:7912   */\n  add\n    /* \"#utility.yul\":7894:7922   */\n  and\n    /* \"#utility.yul\":7884:7922   */\n  swap1\n  pop\n    /* \"#utility.yul\":7826:7928   */\n  swap2\n  swap1\n  pop\n  jump\t// out\n    /* \"#utility.yul\":7934:8041   */\ntag_121:\n    /* \"#utility.yul\":7978:7986   */\n  0x00\n    /* \"#utility.yul\":8028:8033   */\n  dup3\n    /* \"#utility.yul\":8022:8026   */\n  dup3\n    /* \"#utility.yul\":8018:8034   */\n  shl\n    /* \"#utility.yul\":7997:8034   */\n  swap1\n  pop\n    /* \"#utility.yul\":7934:8041   */\n  swap3\n  swap2\n  pop\n  pop\n  jump\t// out\n    /* \"contracts/SimpleVoting.sol\":371:6703  contract SimpleVoting is Context {\r... */\ntag_19:\n  dataSize(sub_0)\n  dup1\n  dataOffset(sub_0)\n  0x00\n  codecopy\n  0x00\n  return\nstop\n\nsub_0: assembly {\n        /* \"contracts/SimpleVoting.sol\":371:6703  contract SimpleVoting is Context {\r... */\n      mstore(0x40, 0x80)\n      callvalue\n      dup1\n      iszero\n      tag_1\n      jumpi\n      0x00\n      dup1\n      revert\n    tag_1:\n      pop\n      jumpi(tag_2, lt(calldatasize, 0x04))\n      shr(0xe0, calldataload(0x00))\n      dup1\n      0xa3ec138d\n      gt\n      tag_11\n      jumpi\n      dup1\n      0xa3ec138d\n      eq\n      tag_7\n      jumpi\n      dup1\n      0xd4d4b5ac\n      eq\n      tag_8\n      jumpi\n      dup1\n      0xda35c664\n      eq\n      tag_9\n      jumpi\n      dup1\n      0xe2ba53f0\n      eq\n      tag_10\n      jumpi\n      jump(tag_2)\n    tag_11:\n      dup1\n      0x0121b93f\n      eq\n      tag_3\n      jumpi\n      dup1\n      0x5c19a95c\n      eq\n      tag_4\n      jumpi\n      dup1\n      0x609ff1bd\n      eq\n      tag_5\n      jumpi\n      dup1\n      0x9e7b8d61\n      eq\n      tag_6\n      jumpi\n    tag_2:\n      0x00\n      dup1\n      revert\n        /* \"contracts/SimpleVoting.sol\":4750:5437  function vote(uint proposal) public {\r... */\n    tag_3:\n      tag_12\n      0x04\n      dup1\n      calldatasize\n      sub\n      dup2\n      add\n      swap1\n      tag_13\n      swap2\n      swap1\n      tag_14\n      jump\t// in\n    tag_13:\n      tag_15\n      jump\t// in\n    tag_12:\n      stop\n        /* \"contracts/SimpleVoting.sol\":3319:4556  function delegate(address _to) public notYetVoted (_msgSender()) {\r... */\n    tag_4:\n      tag_16\n      0x04\n      dup1\n      calldatasize\n      sub\n      dup2\n      add\n      swap1\n      tag_17\n      swap2\n      swap1\n      tag_18\n      jump\t// in\n    tag_17:\n      tag_19\n      jump\t// in\n    tag_16:\n      stop\n        /* \"contracts/SimpleVoting.sol\":5629:6014  function winningProposal() public view\r... */\n    tag_5:\n      tag_20\n      tag_21\n      jump\t// in\n    tag_20:\n      mload(0x40)\n      tag_22\n      swap2\n      swap1\n      tag_23\n      jump\t// in\n    tag_22:\n      mload(0x40)\n      dup1\n      swap2\n      sub\n      swap1\n      return\n        /* \"contracts/SimpleVoting.sol\":2700:3188  function giveRightToVote(address _voter) public onlyChairPerson () notYetVoted (_voter) {\r... */\n    tag_6:\n      tag_24\n      0x04\n      dup1\n      calldatasize\n      sub\n      dup2\n      add\n      swap1\n      tag_25\n      swap2\n      swap1\n      tag_18\n      jump\t// in\n    tag_25:\n      tag_26\n      jump\t// in\n    tag_24:\n      stop\n        /* \"contracts/SimpleVoting.sol\":1067:1106  mapping(address => Voter) public voters */\n    tag_7:\n      tag_27\n      0x04\n      dup1\n      calldatasize\n      sub\n      dup2\n      add\n      swap1\n      tag_28\n      swap2\n      swap1\n      tag_18\n      jump\t// in\n    tag_28:\n      tag_29\n      jump\t// in\n    tag_27:\n      mload(0x40)\n      tag_30\n      swap5\n      swap4\n      swap3\n      swap2\n      swap1\n      tag_31\n      jump\t// in\n    tag_30:\n      mload(0x40)\n      dup1\n      swap2\n      sub\n      swap1\n      return\n        /* \"contracts/SimpleVoting.sol\":1032:1058  address public chairPerson */\n    tag_8:\n      tag_32\n      tag_33\n      jump\t// in\n    tag_32:\n      mload(0x40)\n      tag_34\n      swap2\n      swap1\n      tag_35\n      jump\t// in\n    tag_34:\n      mload(0x40)\n      dup1\n      swap2\n      sub\n      swap1\n      return\n        /* \"contracts/SimpleVoting.sol\":995:1023  uint256 public proposalCount */\n    tag_9:\n      tag_36\n      tag_37\n      jump\t// in\n    tag_36:\n      mload(0x40)\n      tag_38\n      swap2\n      swap1\n      tag_23\n      jump\t// in\n    tag_38:\n      mload(0x40)\n      dup1\n      swap2\n      sub\n      swap1\n      return\n        /* \"contracts/SimpleVoting.sol\":6211:6378  function winnerName() \r... */\n    tag_10:\n      tag_39\n      tag_40\n      jump\t// in\n    tag_39:\n      mload(0x40)\n      tag_41\n      swap2\n      swap1\n      tag_42\n      jump\t// in\n    tag_41:\n      mload(0x40)\n      dup1\n      swap2\n      sub\n      swap1\n      return\n        /* \"contracts/SimpleVoting.sol\":4750:5437  function vote(uint proposal) public {\r... */\n    tag_15:\n        /* \"contracts/SimpleVoting.sol\":4797:4817  Voter storage sender */\n      0x00\n        /* \"contracts/SimpleVoting.sol\":4820:4826  voters */\n      0x02\n        /* \"contracts/SimpleVoting.sol\":4820:4840  voters[_msgSender()] */\n      0x00\n        /* \"contracts/SimpleVoting.sol\":4827:4839  _msgSender() */\n      tag_45\n        /* \"contracts/SimpleVoting.sol\":4827:4837  _msgSender */\n      tag_46\n        /* \"contracts/SimpleVoting.sol\":4827:4839  _msgSender() */\n      jump\t// in\n    tag_45:\n        /* \"contracts/SimpleVoting.sol\":4820:4840  voters[_msgSender()] */\n      0xffffffffffffffffffffffffffffffffffffffff\n      and\n      0xffffffffffffffffffffffffffffffffffffffff\n      and\n      dup2\n      mstore\n      0x20\n      add\n      swap1\n      dup2\n      mstore\n      0x20\n      add\n      0x00\n      keccak256\n        /* \"contracts/SimpleVoting.sol\":4797:4840  Voter storage sender = voters[_msgSender()] */\n      swap1\n      pop\n        /* \"contracts/SimpleVoting.sol\":4876:4877  0 */\n      0x00\n        /* \"contracts/SimpleVoting.sol\":4859:4865  sender */\n      dup2\n        /* \"contracts/SimpleVoting.sol\":4859:4872  sender.weight */\n      0x00\n      add\n      sload\n        /* \"contracts/SimpleVoting.sol\":4859:4877  sender.weight != 0 */\n      eq\n      iszero\n        /* \"contracts/SimpleVoting.sol\":4851:4923  require(sender.weight != 0, \"SimpleVoting: Caller has no right to vote\") */\n      tag_47\n      jumpi\n      mload(0x40)\n      0x08c379a000000000000000000000000000000000000000000000000000000000\n      dup2\n      mstore\n      0x04\n      add\n      tag_48\n      swap1\n      tag_49\n      jump\t// in\n    tag_48:\n      mload(0x40)\n      dup1\n      swap2\n      sub\n      swap1\n      revert\n    tag_47:\n        /* \"contracts/SimpleVoting.sol\":4943:4949  sender */\n      dup1\n        /* \"contracts/SimpleVoting.sol\":4943:4955  sender.voted */\n      0x01\n      add\n      0x00\n      swap1\n      sload\n      swap1\n      0x0100\n      exp\n      swap1\n      div\n      0xff\n      and\n        /* \"contracts/SimpleVoting.sol\":4942:4955  !sender.voted */\n      iszero\n        /* \"contracts/SimpleVoting.sol\":4934:4974  require(!sender.voted, \"Already voted.\") */\n      tag_50\n      jumpi\n      mload(0x40)\n      0x08c379a000000000000000000000000000000000000000000000000000000000\n      dup2\n      mstore\n      0x04\n      add\n      tag_51\n      swap1\n      tag_52\n      jump\t// in\n    tag_51:\n      mload(0x40)\n      dup1\n      swap2\n      sub\n      swap1\n      revert\n    tag_50:\n        /* \"contracts/SimpleVoting.sol\":5005:5018  proposalCount */\n      sload(0x00)\n        /* \"contracts/SimpleVoting.sol\":4994:5002  proposal */\n      dup3\n        /* \"contracts/SimpleVoting.sol\":4994:5018  proposal < proposalCount */\n      lt\n        /* \"contracts/SimpleVoting.sol\":4985:5066  require (proposal < proposalCount, \"SimpleVoting: Proposal index out of bounds.\") */\n      tag_53\n      jumpi\n      mload(0x40)\n      0x08c379a000000000000000000000000000000000000000000000000000000000\n      dup2\n      mstore\n      0x04\n      add\n      tag_54\n      swap1\n      tag_55\n      jump\t// in\n    tag_54:\n      mload(0x40)\n      dup1\n      swap2\n      sub\n      swap1\n      revert\n    tag_53:\n        /* \"contracts/SimpleVoting.sol\":5092:5096  true */\n      0x01\n        /* \"contracts/SimpleVoting.sol\":5077:5083  sender */\n      dup2\n        /* \"contracts/SimpleVoting.sol\":5077:5089  sender.voted */\n      0x01\n      add\n      0x00\n        /* \"contracts/SimpleVoting.sol\":5077:5096  sender.voted = true */\n      0x0100\n      exp\n      dup2\n      sload\n      dup2\n      0xff\n      mul\n      not\n      and\n      swap1\n      dup4\n      iszero\n      iszero\n      mul\n      or\n      swap1\n      sstore\n      pop\n        /* \"contracts/SimpleVoting.sol\":5121:5129  proposal */\n      dup2\n        /* \"contracts/SimpleVoting.sol\":5107:5113  sender */\n      dup2\n        /* \"contracts/SimpleVoting.sol\":5107:5118  sender.vote */\n      0x02\n      add\n        /* \"contracts/SimpleVoting.sol\":5107:5129  sender.vote = proposal */\n      dup2\n      swap1\n      sstore\n      pop\n        /* \"contracts/SimpleVoting.sol\":5312:5361  proposals[proposal].voteCount. add(sender.weight) */\n      tag_56\n        /* \"contracts/SimpleVoting.sol\":5347:5353  sender */\n      dup2\n        /* \"contracts/SimpleVoting.sol\":5347:5360  sender.weight */\n      0x00\n      add\n      sload\n        /* \"contracts/SimpleVoting.sol\":5312:5321  proposals */\n      0x03\n        /* \"contracts/SimpleVoting.sol\":5322:5330  proposal */\n      dup5\n        /* \"contracts/SimpleVoting.sol\":5312:5331  proposals[proposal] */\n      dup2\n      sload\n      dup2\n      lt\n      tag_57\n      jumpi\n      tag_58\n      tag_59\n      jump\t// in\n    tag_58:\n    tag_57:\n      swap1\n      0x00\n      mstore\n      keccak256(0x00, 0x20)\n      swap1\n      0x02\n      mul\n      add\n        /* \"contracts/SimpleVoting.sol\":5312:5341  proposals[proposal].voteCount */\n      0x01\n      add\n      sload\n        /* \"contracts/SimpleVoting.sol\":5312:5346  proposals[proposal].voteCount. add */\n      tag_43\n      swap1\n        /* \"contracts/SimpleVoting.sol\":5312:5361  proposals[proposal].voteCount. add(sender.weight) */\n      swap2\n      swap1\n      0xffffffff\n      and\n      jump\t// in\n    tag_56:\n        /* \"contracts/SimpleVoting.sol\":5280:5289  proposals */\n      0x03\n        /* \"contracts/SimpleVoting.sol\":5290:5298  proposal */\n      dup4\n        /* \"contracts/SimpleVoting.sol\":5280:5299  proposals[proposal] */\n      dup2\n      sload\n      dup2\n      lt\n      tag_61\n      jumpi\n      tag_62\n      tag_59\n      jump\t// in\n    tag_62:\n    tag_61:\n      swap1\n      0x00\n      mstore\n      keccak256(0x00, 0x20)\n      swap1\n      0x02\n      mul\n      add\n        /* \"contracts/SimpleVoting.sol\":5280:5309  proposals[proposal].voteCount */\n      0x01\n      add\n        /* \"contracts/SimpleVoting.sol\":5280:5361  proposals[proposal].voteCount = proposals[proposal].voteCount. add(sender.weight) */\n      dup2\n      swap1\n      sstore\n      pop\n        /* \"contracts/SimpleVoting.sol\":5401:5413  _msgSender() */\n      tag_64\n        /* \"contracts/SimpleVoting.sol\":5401:5411  _msgSender */\n      tag_46\n        /* \"contracts/SimpleVoting.sol\":5401:5413  _msgSender() */\n      jump\t// in\n    tag_64:\n        /* \"contracts/SimpleVoting.sol\":5379:5429  VoteCasted (proposal, _msgSender(), sender.weight) */\n      0xffffffffffffffffffffffffffffffffffffffff\n      and\n        /* \"contracts/SimpleVoting.sol\":5391:5399  proposal */\n      dup3\n        /* \"contracts/SimpleVoting.sol\":5379:5429  VoteCasted (proposal, _msgSender(), sender.weight) */\n      0xe7ee74ca1f4bb1b82b14f87794c45b3e59c39e372b862fb97a6316b43355b69e\n        /* \"contracts/SimpleVoting.sol\":5415:5421  sender */\n      dup4\n        /* \"contracts/SimpleVoting.sol\":5415:5428  sender.weight */\n      0x00\n      add\n      sload\n        /* \"contracts/SimpleVoting.sol\":5379:5429  VoteCasted (proposal, _msgSender(), sender.weight) */\n      mload(0x40)\n      tag_65\n      swap2\n      swap1\n      tag_23\n      jump\t// in\n    tag_65:\n      mload(0x40)\n      dup1\n      swap2\n      sub\n      swap1\n      log3\n        /* \"contracts/SimpleVoting.sol\":4786:5437  {\r... */\n      pop\n        /* \"contracts/SimpleVoting.sol\":4750:5437  function vote(uint proposal) public {\r... */\n      pop\n      jump\t// out\n        /* \"contracts/SimpleVoting.sol\":3319:4556  function delegate(address _to) public notYetVoted (_msgSender()) {\r... */\n    tag_19:\n        /* \"contracts/SimpleVoting.sol\":3370:3382  _msgSender() */\n      tag_66\n        /* \"contracts/SimpleVoting.sol\":3370:3380  _msgSender */\n      tag_46\n        /* \"contracts/SimpleVoting.sol\":3370:3382  _msgSender() */\n      jump\t// in\n    tag_66:\n        /* \"contracts/SimpleVoting.sol\":1670:1676  voters */\n      0x02\n        /* \"contracts/SimpleVoting.sol\":1670:1684  voters[_voter] */\n      0x00\n        /* \"contracts/SimpleVoting.sol\":1677:1683  _voter */\n      dup3\n        /* \"contracts/SimpleVoting.sol\":1670:1684  voters[_voter] */\n      0xffffffffffffffffffffffffffffffffffffffff\n      and\n      0xffffffffffffffffffffffffffffffffffffffff\n      and\n      dup2\n      mstore\n      0x20\n      add\n      swap1\n      dup2\n      mstore\n      0x20\n      add\n      0x00\n      keccak256\n        /* \"contracts/SimpleVoting.sol\":1670:1690  voters[_voter].voted */\n      0x01\n      add\n      0x00\n      swap1\n      sload\n      swap1\n      0x0100\n      exp\n      swap1\n      div\n      0xff\n      and\n        /* \"contracts/SimpleVoting.sol\":1669:1690  !voters[_voter].voted */\n      iszero\n        /* \"contracts/SimpleVoting.sol\":1647:1760  require(\r... */\n      tag_68\n      jumpi\n      mload(0x40)\n      0x08c379a000000000000000000000000000000000000000000000000000000000\n      dup2\n      mstore\n      0x04\n      add\n      tag_69\n      swap1\n      tag_70\n      jump\t// in\n    tag_69:\n      mload(0x40)\n      dup1\n      swap2\n      sub\n      swap1\n      revert\n    tag_68:\n        /* \"contracts/SimpleVoting.sol\":3434:3435  0 */\n      0x00\n        /* \"contracts/SimpleVoting.sol\":3404:3410  voters */\n      0x02\n        /* \"contracts/SimpleVoting.sol\":3404:3424  voters[_msgSender()] */\n      0x00\n        /* \"contracts/SimpleVoting.sol\":3411:3423  _msgSender() */\n      tag_72\n        /* \"contracts/SimpleVoting.sol\":3411:3421  _msgSender */\n      tag_46\n        /* \"contracts/SimpleVoting.sol\":3411:3423  _msgSender() */\n      jump\t// in\n    tag_72:\n        /* \"contracts/SimpleVoting.sol\":3404:3424  voters[_msgSender()] */\n      0xffffffffffffffffffffffffffffffffffffffff\n      and\n      0xffffffffffffffffffffffffffffffffffffffff\n      and\n      dup2\n      mstore\n      0x20\n      add\n      swap1\n      dup2\n      mstore\n      0x20\n      add\n      0x00\n      keccak256\n        /* \"contracts/SimpleVoting.sol\":3404:3431  voters[_msgSender()].weight */\n      0x00\n      add\n      sload\n        /* \"contracts/SimpleVoting.sol\":3404:3435  voters[_msgSender()].weight > 0 */\n      gt\n        /* \"contracts/SimpleVoting.sol\":3395:3489  require (voters[_msgSender()].weight > 0, \"SimpleVoting: Caller does not have right to vote.\") */\n      tag_73\n      jumpi\n      mload(0x40)\n      0x08c379a000000000000000000000000000000000000000000000000000000000\n      dup2\n      mstore\n      0x04\n      add\n      tag_74\n      swap1\n      tag_75\n      jump\t// in\n    tag_74:\n      mload(0x40)\n      dup1\n      swap2\n      sub\n      swap1\n      revert\n    tag_73:\n        /* \"contracts/SimpleVoting.sol\":3500:3520  Voter storage sender */\n      0x00\n        /* \"contracts/SimpleVoting.sol\":3523:3529  voters */\n      0x02\n        /* \"contracts/SimpleVoting.sol\":3523:3543  voters[_msgSender()] */\n      0x00\n        /* \"contracts/SimpleVoting.sol\":3530:3542  _msgSender() */\n      tag_76\n        /* \"contracts/SimpleVoting.sol\":3530:3540  _msgSender */\n      tag_46\n        /* \"contracts/SimpleVoting.sol\":3530:3542  _msgSender() */\n      jump\t// in\n    tag_76:\n        /* \"contracts/SimpleVoting.sol\":3523:3543  voters[_msgSender()] */\n      0xffffffffffffffffffffffffffffffffffffffff\n      and\n      0xffffffffffffffffffffffffffffffffffffffff\n      and\n      dup2\n      mstore\n      0x20\n      add\n      swap1\n      dup2\n      mstore\n      0x20\n      add\n      0x00\n      keccak256\n        /* \"contracts/SimpleVoting.sol\":3500:3543  Voter storage sender = voters[_msgSender()] */\n      swap1\n      pop\n        /* \"contracts/SimpleVoting.sol\":3627:3639  _msgSender() */\n      tag_77\n        /* \"contracts/SimpleVoting.sol\":3627:3637  _msgSender */\n      tag_46\n        /* \"contracts/SimpleVoting.sol\":3627:3639  _msgSender() */\n      jump\t// in\n    tag_77:\n        /* \"contracts/SimpleVoting.sol\":3620:3639  _to != _msgSender() */\n      0xffffffffffffffffffffffffffffffffffffffff\n      and\n        /* \"contracts/SimpleVoting.sol\":3620:3623  _to */\n      dup4\n        /* \"contracts/SimpleVoting.sol\":3620:3639  _to != _msgSender() */\n      0xffffffffffffffffffffffffffffffffffffffff\n      and\n      eq\n      iszero\n        /* \"contracts/SimpleVoting.sol\":3611:3689  require (_to != _msgSender(), \"SimpleVoting: Self-delegation is not allowed.\") */\n      tag_78\n      jumpi\n      mload(0x40)\n      0x08c379a000000000000000000000000000000000000000000000000000000000\n      dup2\n      mstore\n      0x04\n      add\n      tag_79\n      swap1\n      tag_80\n      jump\t// in\n    tag_79:\n      mload(0x40)\n      dup1\n      swap2\n      sub\n      swap1\n      revert\n    tag_78:\n        /* \"contracts/SimpleVoting.sol\":3702:3958  while (voters[_to].delegate != address(0)) {\r... */\n    tag_81:\n        /* \"contracts/SimpleVoting.sol\":3741:3742  0 */\n      0x00\n        /* \"contracts/SimpleVoting.sol\":3709:3743  voters[_to].delegate != address(0) */\n      0xffffffffffffffffffffffffffffffffffffffff\n      and\n        /* \"contracts/SimpleVoting.sol\":3709:3715  voters */\n      0x02\n        /* \"contracts/SimpleVoting.sol\":3709:3720  voters[_to] */\n      0x00\n        /* \"contracts/SimpleVoting.sol\":3716:3719  _to */\n      dup6\n        /* \"contracts/SimpleVoting.sol\":3709:3720  voters[_to] */\n      0xffffffffffffffffffffffffffffffffffffffff\n      and\n      0xffffffffffffffffffffffffffffffffffffffff\n      and\n      dup2\n      mstore\n      0x20\n      add\n      swap1\n      dup2\n      mstore\n      0x20\n      add\n      0x00\n      keccak256\n        /* \"contracts/SimpleVoting.sol\":3709:3729  voters[_to].delegate */\n      0x01\n      add\n      0x01\n      swap1\n      sload\n      swap1\n      0x0100\n      exp\n      swap1\n      div\n      0xffffffffffffffffffffffffffffffffffffffff\n      and\n        /* \"contracts/SimpleVoting.sol\":3709:3743  voters[_to].delegate != address(0) */\n      0xffffffffffffffffffffffffffffffffffffffff\n      and\n      eq\n        /* \"contracts/SimpleVoting.sol\":3702:3958  while (voters[_to].delegate != address(0)) {\r... */\n      tag_82\n      jumpi\n        /* \"contracts/SimpleVoting.sol\":3766:3772  voters */\n      0x02\n        /* \"contracts/SimpleVoting.sol\":3766:3777  voters[_to] */\n      0x00\n        /* \"contracts/SimpleVoting.sol\":3773:3776  _to */\n      dup5\n        /* \"contracts/SimpleVoting.sol\":3766:3777  voters[_to] */\n      0xffffffffffffffffffffffffffffffffffffffff\n      and\n      0xffffffffffffffffffffffffffffffffffffffff\n      and\n      dup2\n      mstore\n      0x20\n      add\n      swap1\n      dup2\n      mstore\n      0x20\n      add\n      0x00\n      keccak256\n        /* \"contracts/SimpleVoting.sol\":3766:3786  voters[_to].delegate */\n      0x01\n      add\n      0x01\n      swap1\n      sload\n      swap1\n      0x0100\n      exp\n      swap1\n      div\n      0xffffffffffffffffffffffffffffffffffffffff\n      and\n        /* \"contracts/SimpleVoting.sol\":3760:3786  _to = voters[_to].delegate */\n      swap3\n      pop\n        /* \"contracts/SimpleVoting.sol\":3882:3894  _msgSender() */\n      tag_83\n        /* \"contracts/SimpleVoting.sol\":3882:3892  _msgSender */\n      tag_46\n        /* \"contracts/SimpleVoting.sol\":3882:3894  _msgSender() */\n      jump\t// in\n    tag_83:\n        /* \"contracts/SimpleVoting.sol\":3875:3894  _to != _msgSender() */\n      0xffffffffffffffffffffffffffffffffffffffff\n      and\n        /* \"contracts/SimpleVoting.sol\":3875:3878  _to */\n      dup4\n        /* \"contracts/SimpleVoting.sol\":3875:3894  _to != _msgSender() */\n      0xffffffffffffffffffffffffffffffffffffffff\n      and\n      eq\n      iszero\n        /* \"contracts/SimpleVoting.sol\":3867:3946  require(_to != _msgSender(), \"SimpleVoting: Delegation traces back to caller.\") */\n      tag_84\n      jumpi\n      mload(0x40)\n      0x08c379a000000000000000000000000000000000000000000000000000000000\n      dup2\n      mstore\n      0x04\n      add\n      tag_85\n      swap1\n      tag_86\n      jump\t// in\n    tag_85:\n      mload(0x40)\n      dup1\n      swap2\n      sub\n      swap1\n      revert\n    tag_84:\n        /* \"contracts/SimpleVoting.sol\":3702:3958  while (voters[_to].delegate != address(0)) {\r... */\n      jump(tag_81)\n    tag_82:\n        /* \"contracts/SimpleVoting.sol\":3983:3987  true */\n      0x01\n        /* \"contracts/SimpleVoting.sol\":3968:3974  sender */\n      dup2\n        /* \"contracts/SimpleVoting.sol\":3968:3980  sender.voted */\n      0x01\n      add\n      0x00\n        /* \"contracts/SimpleVoting.sol\":3968:3987  sender.voted = true */\n      0x0100\n      exp\n      dup2\n      sload\n      dup2\n      0xff\n      mul\n      not\n      and\n      swap1\n      dup4\n      iszero\n      iszero\n      mul\n      or\n      swap1\n      sstore\n      pop\n        /* \"contracts/SimpleVoting.sol\":4016:4019  _to */\n      dup3\n        /* \"contracts/SimpleVoting.sol\":3998:4004  sender */\n      dup2\n        /* \"contracts/SimpleVoting.sol\":3998:4013  sender.delegate */\n      0x01\n      add\n      0x01\n        /* \"contracts/SimpleVoting.sol\":3998:4019  sender.delegate = _to */\n      0x0100\n      exp\n      dup2\n      sload\n      dup2\n      0xffffffffffffffffffffffffffffffffffffffff\n      mul\n      not\n      and\n      swap1\n      dup4\n      0xffffffffffffffffffffffffffffffffffffffff\n      and\n      mul\n      or\n      swap1\n      sstore\n      pop\n        /* \"contracts/SimpleVoting.sol\":4030:4053  Voter storage delegate_ */\n      0x00\n        /* \"contracts/SimpleVoting.sol\":4056:4062  voters */\n      0x02\n        /* \"contracts/SimpleVoting.sol\":4056:4067  voters[_to] */\n      0x00\n        /* \"contracts/SimpleVoting.sol\":4063:4066  _to */\n      dup6\n        /* \"contracts/SimpleVoting.sol\":4056:4067  voters[_to] */\n      0xffffffffffffffffffffffffffffffffffffffff\n      and\n      0xffffffffffffffffffffffffffffffffffffffff\n      and\n      dup2\n      mstore\n      0x20\n      add\n      swap1\n      dup2\n      mstore\n      0x20\n      add\n      0x00\n      keccak256\n        /* \"contracts/SimpleVoting.sol\":4030:4067  Voter storage delegate_ = voters[_to] */\n      swap1\n      pop\n        /* \"contracts/SimpleVoting.sol\":4082:4091  delegate_ */\n      dup1\n        /* \"contracts/SimpleVoting.sol\":4082:4097  delegate_.voted */\n      0x01\n      add\n      0x00\n      swap1\n      sload\n      swap1\n      0x0100\n      exp\n      swap1\n      div\n      0xff\n      and\n        /* \"contracts/SimpleVoting.sol\":4078:4491  if (delegate_.voted) {\r... */\n      iszero\n      tag_87\n      jumpi\n        /* \"contracts/SimpleVoting.sol\":4251:4306  proposals[delegate_.vote].voteCount. add(sender.weight) */\n      tag_88\n        /* \"contracts/SimpleVoting.sol\":4292:4298  sender */\n      dup3\n        /* \"contracts/SimpleVoting.sol\":4292:4305  sender.weight */\n      0x00\n      add\n      sload\n        /* \"contracts/SimpleVoting.sol\":4251:4260  proposals */\n      0x03\n        /* \"contracts/SimpleVoting.sol\":4261:4270  delegate_ */\n      dup4\n        /* \"contracts/SimpleVoting.sol\":4261:4275  delegate_.vote */\n      0x02\n      add\n      sload\n        /* \"contracts/SimpleVoting.sol\":4251:4276  proposals[delegate_.vote] */\n      dup2\n      sload\n      dup2\n      lt\n      tag_89\n      jumpi\n      tag_90\n      tag_59\n      jump\t// in\n    tag_90:\n    tag_89:\n      swap1\n      0x00\n      mstore\n      keccak256(0x00, 0x20)\n      swap1\n      0x02\n      mul\n      add\n        /* \"contracts/SimpleVoting.sol\":4251:4286  proposals[delegate_.vote].voteCount */\n      0x01\n      add\n      sload\n        /* \"contracts/SimpleVoting.sol\":4251:4291  proposals[delegate_.vote].voteCount. add */\n      tag_43\n      swap1\n        /* \"contracts/SimpleVoting.sol\":4251:4306  proposals[delegate_.vote].voteCount. add(sender.weight) */\n      swap2\n      swap1\n      0xffffffff\n      and\n      jump\t// in\n    tag_88:\n        /* \"contracts/SimpleVoting.sol\":4213:4222  proposals */\n      0x03\n        /* \"contracts/SimpleVoting.sol\":4223:4232  delegate_ */\n      dup3\n        /* \"contracts/SimpleVoting.sol\":4223:4237  delegate_.vote */\n      0x02\n      add\n      sload\n        /* \"contracts/SimpleVoting.sol\":4213:4238  proposals[delegate_.vote] */\n      dup2\n      sload\n      dup2\n      lt\n      tag_92\n      jumpi\n      tag_93\n      tag_59\n      jump\t// in\n    tag_93:\n    tag_92:\n      swap1\n      0x00\n      mstore\n      keccak256(0x00, 0x20)\n      swap1\n      0x02\n      mul\n      add\n        /* \"contracts/SimpleVoting.sol\":4213:4248  proposals[delegate_.vote].voteCount */\n      0x01\n      add\n        /* \"contracts/SimpleVoting.sol\":4213:4306  proposals[delegate_.vote].voteCount = proposals[delegate_.vote].voteCount. add(sender.weight) */\n      dup2\n      swap1\n      sstore\n      pop\n        /* \"contracts/SimpleVoting.sol\":4078:4491  if (delegate_.voted) {\r... */\n      jump(tag_95)\n    tag_87:\n        /* \"contracts/SimpleVoting.sol\":4443:4479  delegate_.weight. add(sender.weight) */\n      tag_96\n        /* \"contracts/SimpleVoting.sol\":4465:4471  sender */\n      dup3\n        /* \"contracts/SimpleVoting.sol\":4465:4478  sender.weight */\n      0x00\n      add\n      sload\n        /* \"contracts/SimpleVoting.sol\":4443:4452  delegate_ */\n      dup3\n        /* \"contracts/SimpleVoting.sol\":4443:4459  delegate_.weight */\n      0x00\n      add\n      sload\n        /* \"contracts/SimpleVoting.sol\":4443:4464  delegate_.weight. add */\n      tag_43\n      swap1\n        /* \"contracts/SimpleVoting.sol\":4443:4479  delegate_.weight. add(sender.weight) */\n      swap2\n      swap1\n      0xffffffff\n      and\n      jump\t// in\n    tag_96:\n        /* \"contracts/SimpleVoting.sol\":4424:4433  delegate_ */\n      dup2\n        /* \"contracts/SimpleVoting.sol\":4424:4440  delegate_.weight */\n      0x00\n      add\n        /* \"contracts/SimpleVoting.sol\":4424:4479  delegate_.weight = delegate_.weight. add(sender.weight) */\n      dup2\n      swap1\n      sstore\n      pop\n        /* \"contracts/SimpleVoting.sol\":4078:4491  if (delegate_.voted) {\r... */\n    tag_95:\n        /* \"contracts/SimpleVoting.sol\":4544:4547  _to */\n      dup4\n        /* \"contracts/SimpleVoting.sol\":4508:4548  DelegationSuccessful (_msgSender(), _to) */\n      0xffffffffffffffffffffffffffffffffffffffff\n      and\n        /* \"contracts/SimpleVoting.sol\":4530:4542  _msgSender() */\n      tag_97\n        /* \"contracts/SimpleVoting.sol\":4530:4540  _msgSender */\n      tag_46\n        /* \"contracts/SimpleVoting.sol\":4530:4542  _msgSender() */\n      jump\t// in\n    tag_97:\n        /* \"contracts/SimpleVoting.sol\":4508:4548  DelegationSuccessful (_msgSender(), _to) */\n      0xffffffffffffffffffffffffffffffffffffffff\n      and\n      0x4ce9ef2c99d761d69230b0e3381f4c6016333b2e27d32b3e379a96b5d2c69232\n      mload(0x40)\n      mload(0x40)\n      dup1\n      swap2\n      sub\n      swap1\n      log3\n        /* \"contracts/SimpleVoting.sol\":3384:4556  {\r... */\n      pop\n      pop\n        /* \"contracts/SimpleVoting.sol\":3319:4556  function delegate(address _to) public notYetVoted (_msgSender()) {\r... */\n      pop\n      pop\n      jump\t// out\n        /* \"contracts/SimpleVoting.sol\":5629:6014  function winningProposal() public view\r... */\n    tag_21:\n        /* \"contracts/SimpleVoting.sol\":5690:5714  uint256 winningProposal_ */\n      0x00\n        /* \"contracts/SimpleVoting.sol\":5732:5753  uint winningVoteCount */\n      dup1\n        /* \"contracts/SimpleVoting.sol\":5756:5757  0 */\n      0x00\n        /* \"contracts/SimpleVoting.sol\":5732:5757  uint winningVoteCount = 0 */\n      swap1\n      pop\n        /* \"contracts/SimpleVoting.sol\":5773:5779  uint p */\n      0x00\n        /* \"contracts/SimpleVoting.sol\":5768:6007  for (uint p = 0; p < proposalCount; p = p. add(1)) {\r... */\n    tag_99:\n        /* \"contracts/SimpleVoting.sol\":5789:5802  proposalCount */\n      sload(0x00)\n        /* \"contracts/SimpleVoting.sol\":5785:5786  p */\n      dup2\n        /* \"contracts/SimpleVoting.sol\":5785:5802  p < proposalCount */\n      lt\n        /* \"contracts/SimpleVoting.sol\":5768:6007  for (uint p = 0; p < proposalCount; p = p. add(1)) {\r... */\n      iszero\n      tag_100\n      jumpi\n        /* \"contracts/SimpleVoting.sol\":5863:5879  winningVoteCount */\n      dup2\n        /* \"contracts/SimpleVoting.sol\":5838:5847  proposals */\n      0x03\n        /* \"contracts/SimpleVoting.sol\":5848:5849  p */\n      dup3\n        /* \"contracts/SimpleVoting.sol\":5838:5850  proposals[p] */\n      dup2\n      sload\n      dup2\n      lt\n      tag_102\n      jumpi\n      tag_103\n      tag_59\n      jump\t// in\n    tag_103:\n    tag_102:\n      swap1\n      0x00\n      mstore\n      keccak256(0x00, 0x20)\n      swap1\n      0x02\n      mul\n      add\n        /* \"contracts/SimpleVoting.sol\":5838:5860  proposals[p].voteCount */\n      0x01\n      add\n      sload\n        /* \"contracts/SimpleVoting.sol\":5838:5879  proposals[p].voteCount > winningVoteCount */\n      gt\n        /* \"contracts/SimpleVoting.sol\":5834:5996  if (proposals[p].voteCount > winningVoteCount) {\r... */\n      iszero\n      tag_105\n      jumpi\n        /* \"contracts/SimpleVoting.sol\":5919:5928  proposals */\n      0x03\n        /* \"contracts/SimpleVoting.sol\":5929:5930  p */\n      dup2\n        /* \"contracts/SimpleVoting.sol\":5919:5931  proposals[p] */\n      dup2\n      sload\n      dup2\n      lt\n      tag_106\n      jumpi\n      tag_107\n      tag_59\n      jump\t// in\n    tag_107:\n    tag_106:\n      swap1\n      0x00\n      mstore\n      keccak256(0x00, 0x20)\n      swap1\n      0x02\n      mul\n      add\n        /* \"contracts/SimpleVoting.sol\":5919:5941  proposals[p].voteCount */\n      0x01\n      add\n      sload\n        /* \"contracts/SimpleVoting.sol\":5900:5941  winningVoteCount = proposals[p].voteCount */\n      swap2\n      pop\n        /* \"contracts/SimpleVoting.sol\":5979:5980  p */\n      dup1\n        /* \"contracts/SimpleVoting.sol\":5960:5980  winningProposal_ = p */\n      swap3\n      pop\n        /* \"contracts/SimpleVoting.sol\":5834:5996  if (proposals[p].voteCount > winningVoteCount) {\r... */\n    tag_105:\n        /* \"contracts/SimpleVoting.sol\":5808:5817  p. add(1) */\n      tag_109\n        /* \"contracts/SimpleVoting.sol\":5815:5816  1 */\n      0x01\n        /* \"contracts/SimpleVoting.sol\":5808:5809  p */\n      dup3\n        /* \"contracts/SimpleVoting.sol\":5808:5814  p. add */\n      tag_43\n      swap1\n        /* \"contracts/SimpleVoting.sol\":5808:5817  p. add(1) */\n      swap2\n      swap1\n      0xffffffff\n      and\n      jump\t// in\n    tag_109:\n        /* \"contracts/SimpleVoting.sol\":5804:5817  p = p. add(1) */\n      swap1\n      pop\n        /* \"contracts/SimpleVoting.sol\":5768:6007  for (uint p = 0; p < proposalCount; p = p. add(1)) {\r... */\n      jump(tag_99)\n    tag_100:\n      pop\n        /* \"contracts/SimpleVoting.sol\":5721:6014  {\r... */\n      pop\n        /* \"contracts/SimpleVoting.sol\":5629:6014  function winningProposal() public view\r... */\n      swap1\n      jump\t// out\n        /* \"contracts/SimpleVoting.sol\":2700:3188  function giveRightToVote(address _voter) public onlyChairPerson () notYetVoted (_voter) {\r... */\n    tag_26:\n        /* \"contracts/SimpleVoting.sol\":1475:1486  chairPerson */\n      0x01\n      0x00\n      swap1\n      sload\n      swap1\n      0x0100\n      exp\n      swap1\n      div\n      0xffffffffffffffffffffffffffffffffffffffff\n      and\n        /* \"contracts/SimpleVoting.sol\":1459:1486  _msgSender() == chairPerson */\n      0xffffffffffffffffffffffffffffffffffffffff\n      and\n        /* \"contracts/SimpleVoting.sol\":1459:1471  _msgSender() */\n      tag_111\n        /* \"contracts/SimpleVoting.sol\":1459:1469  _msgSender */\n      tag_46\n        /* \"contracts/SimpleVoting.sol\":1459:1471  _msgSender() */\n      jump\t// in\n    tag_111:\n        /* \"contracts/SimpleVoting.sol\":1459:1486  _msgSender() == chairPerson */\n      0xffffffffffffffffffffffffffffffffffffffff\n      and\n      eq\n        /* \"contracts/SimpleVoting.sol\":1437:1568  require(\r... */\n      tag_112\n      jumpi\n      mload(0x40)\n      0x08c379a000000000000000000000000000000000000000000000000000000000\n      dup2\n      mstore\n      0x04\n      add\n      tag_113\n      swap1\n      tag_114\n      jump\t// in\n    tag_113:\n      mload(0x40)\n      dup1\n      swap2\n      sub\n      swap1\n      revert\n    tag_112:\n        /* \"contracts/SimpleVoting.sol\":2780:2786  _voter */\n      dup1\n        /* \"contracts/SimpleVoting.sol\":1670:1676  voters */\n      0x02\n        /* \"contracts/SimpleVoting.sol\":1670:1684  voters[_voter] */\n      0x00\n        /* \"contracts/SimpleVoting.sol\":1677:1683  _voter */\n      dup3\n        /* \"contracts/SimpleVoting.sol\":1670:1684  voters[_voter] */\n      0xffffffffffffffffffffffffffffffffffffffff\n      and\n      0xffffffffffffffffffffffffffffffffffffffff\n      and\n      dup2\n      mstore\n      0x20\n      add\n      swap1\n      dup2\n      mstore\n      0x20\n      add\n      0x00\n      keccak256\n        /* \"contracts/SimpleVoting.sol\":1670:1690  voters[_voter].voted */\n      0x01\n      add\n      0x00\n      swap1\n      sload\n      swap1\n      0x0100\n      exp\n      swap1\n      div\n      0xff\n      and\n        /* \"contracts/SimpleVoting.sol\":1669:1690  !voters[_voter].voted */\n      iszero\n        /* \"contracts/SimpleVoting.sol\":1647:1760  require(\r... */\n      tag_116\n      jumpi\n      mload(0x40)\n      0x08c379a000000000000000000000000000000000000000000000000000000000\n      dup2\n      mstore\n      0x04\n      add\n      tag_117\n      swap1\n      tag_70\n      jump\t// in\n    tag_117:\n      mload(0x40)\n      dup1\n      swap2\n      sub\n      swap1\n      revert\n    tag_116:\n        /* \"contracts/SimpleVoting.sol\":3090:3091  0 */\n      0x00\n        /* \"contracts/SimpleVoting.sol\":3065:3071  voters */\n      0x02\n        /* \"contracts/SimpleVoting.sol\":3065:3079  voters[_voter] */\n      0x00\n        /* \"contracts/SimpleVoting.sol\":3072:3078  _voter */\n      dup5\n        /* \"contracts/SimpleVoting.sol\":3065:3079  voters[_voter] */\n      0xffffffffffffffffffffffffffffffffffffffff\n      and\n      0xffffffffffffffffffffffffffffffffffffffff\n      and\n      dup2\n      mstore\n      0x20\n      add\n      swap1\n      dup2\n      mstore\n      0x20\n      add\n      0x00\n      keccak256\n        /* \"contracts/SimpleVoting.sol\":3065:3086  voters[_voter].weight */\n      0x00\n      add\n      sload\n        /* \"contracts/SimpleVoting.sol\":3065:3091  voters[_voter].weight == 0 */\n      eq\n        /* \"contracts/SimpleVoting.sol\":3057:3144  require(voters[_voter].weight == 0, \"SimpleVoting: Address already has right to vote.\") */\n      tag_119\n      jumpi\n      mload(0x40)\n      0x08c379a000000000000000000000000000000000000000000000000000000000\n      dup2\n      mstore\n      0x04\n      add\n      tag_120\n      swap1\n      tag_121\n      jump\t// in\n    tag_120:\n      mload(0x40)\n      dup1\n      swap2\n      sub\n      swap1\n      revert\n    tag_119:\n        /* \"contracts/SimpleVoting.sol\":3179:3180  1 */\n      0x01\n        /* \"contracts/SimpleVoting.sol\":3155:3161  voters */\n      0x02\n        /* \"contracts/SimpleVoting.sol\":3155:3169  voters[_voter] */\n      0x00\n        /* \"contracts/SimpleVoting.sol\":3162:3168  _voter */\n      dup5\n        /* \"contracts/SimpleVoting.sol\":3155:3169  voters[_voter] */\n      0xffffffffffffffffffffffffffffffffffffffff\n      and\n      0xffffffffffffffffffffffffffffffffffffffff\n      and\n      dup2\n      mstore\n      0x20\n      add\n      swap1\n      dup2\n      mstore\n      0x20\n      add\n      0x00\n      keccak256\n        /* \"contracts/SimpleVoting.sol\":3155:3176  voters[_voter].weight */\n      0x00\n      add\n        /* \"contracts/SimpleVoting.sol\":3155:3180  voters[_voter].weight = 1 */\n      dup2\n      swap1\n      sstore\n      pop\n        /* \"contracts/SimpleVoting.sol\":1579:1580  _ */\n      pop\n        /* \"contracts/SimpleVoting.sol\":2700:3188  function giveRightToVote(address _voter) public onlyChairPerson () notYetVoted (_voter) {\r... */\n      pop\n      jump\t// out\n        /* \"contracts/SimpleVoting.sol\":1067:1106  mapping(address => Voter) public voters */\n    tag_29:\n      mstore(0x20, 0x02)\n      dup1\n      0x00\n      mstore\n      keccak256(0x00, 0x40)\n      0x00\n      swap2\n      pop\n      swap1\n      pop\n      dup1\n      0x00\n      add\n      sload\n      swap1\n      dup1\n      0x01\n      add\n      0x00\n      swap1\n      sload\n      swap1\n      0x0100\n      exp\n      swap1\n      div\n      0xff\n      and\n      swap1\n      dup1\n      0x01\n      add\n      0x01\n      swap1\n      sload\n      swap1\n      0x0100\n      exp\n      swap1\n      div\n      0xffffffffffffffffffffffffffffffffffffffff\n      and\n      swap1\n      dup1\n      0x02\n      add\n      sload\n      swap1\n      pop\n      dup5\n      jump\t// out\n        /* \"contracts/SimpleVoting.sol\":1032:1058  address public chairPerson */\n    tag_33:\n      0x01\n      0x00\n      swap1\n      sload\n      swap1\n      0x0100\n      exp\n      swap1\n      div\n      0xffffffffffffffffffffffffffffffffffffffff\n      and\n      dup2\n      jump\t// out\n        /* \"contracts/SimpleVoting.sol\":995:1023  uint256 public proposalCount */\n    tag_37:\n      sload(0x00)\n      dup2\n      jump\t// out\n        /* \"contracts/SimpleVoting.sol\":6211:6378  function winnerName() \r... */\n    tag_40:\n        /* \"contracts/SimpleVoting.sol\":6283:6296  string memory */\n      0x60\n        /* \"contracts/SimpleVoting.sol\":6320:6370  bytes32ToString(proposals[winningProposal()].name) */\n      tag_123\n        /* \"contracts/SimpleVoting.sol\":6336:6345  proposals */\n      0x03\n        /* \"contracts/SimpleVoting.sol\":6346:6363  winningProposal() */\n      tag_124\n        /* \"contracts/SimpleVoting.sol\":6346:6361  winningProposal */\n      tag_21\n        /* \"contracts/SimpleVoting.sol\":6346:6363  winningProposal() */\n      jump\t// in\n    tag_124:\n        /* \"contracts/SimpleVoting.sol\":6336:6364  proposals[winningProposal()] */\n      dup2\n      sload\n      dup2\n      lt\n      tag_125\n      jumpi\n      tag_126\n      tag_59\n      jump\t// in\n    tag_126:\n    tag_125:\n      swap1\n      0x00\n      mstore\n      keccak256(0x00, 0x20)\n      swap1\n      0x02\n      mul\n      add\n        /* \"contracts/SimpleVoting.sol\":6336:6369  proposals[winningProposal()].name */\n      0x00\n      add\n      sload\n        /* \"contracts/SimpleVoting.sol\":6320:6335  bytes32ToString */\n      tag_128\n        /* \"contracts/SimpleVoting.sol\":6320:6370  bytes32ToString(proposals[winningProposal()].name) */\n      jump\t// in\n    tag_123:\n        /* \"contracts/SimpleVoting.sol\":6313:6370  return bytes32ToString(proposals[winningProposal()].name) */\n      swap1\n      pop\n        /* \"contracts/SimpleVoting.sol\":6211:6378  function winnerName() \r... */\n      swap1\n      jump\t// out\n        /* \"https://github.com/OpenZeppelin/openzeppelin-contracts/blob/master/contracts/utils/math/SafeMath.sol\":2755:2851  function add(uint256 a, uint256 b) internal pure returns (uint256) {... */\n    tag_43:\n        /* \"https://github.com/OpenZeppelin/openzeppelin-contracts/blob/master/contracts/utils/math/SafeMath.sol\":2813:2820  uint256 */\n      0x00\n        /* \"https://github.com/OpenZeppelin/openzeppelin-contracts/blob/master/contracts/utils/math/SafeMath.sol\":2843:2844  b */\n      dup2\n        /* \"https://github.com/OpenZeppelin/openzeppelin-contracts/blob/master/contracts/utils/math/SafeMath.sol\":2839:2840  a */\n      dup4\n        /* \"https://github.com/OpenZeppelin/openzeppelin-contracts/blob/master/contracts/utils/math/SafeMath.sol\":2839:2844  a + b */\n      tag_130\n      swap2\n      swap1\n      tag_131\n      jump\t// in\n    tag_130:\n        /* \"https://github.com/OpenZeppelin/openzeppelin-contracts/blob/master/contracts/utils/math/SafeMath.sol\":2832:2844  return a + b */\n      swap1\n      pop\n        /* \"https://github.com/OpenZeppelin/openzeppelin-contracts/blob/master/contracts/utils/math/SafeMath.sol\":2755:2851  function add(uint256 a, uint256 b) internal pure returns (uint256) {... */\n      swap3\n      swap2\n      pop\n      pop\n      jump\t// out\n        /* \"https://github.com/OpenZeppelin/openzeppelin-contracts/blob/master/contracts/utils/Context.sol\":640:736  function _msgSender() internal view virtual returns (address) {... */\n    tag_46:\n        /* \"https://github.com/OpenZeppelin/openzeppelin-contracts/blob/master/contracts/utils/Context.sol\":693:700  address */\n      0x00\n        /* \"https://github.com/OpenZeppelin/openzeppelin-contracts/blob/master/contracts/utils/Context.sol\":719:729  msg.sender */\n      caller\n        /* \"https://github.com/OpenZeppelin/openzeppelin-contracts/blob/master/contracts/utils/Context.sol\":712:729  return msg.sender */\n      swap1\n      pop\n        /* \"https://github.com/OpenZeppelin/openzeppelin-contracts/blob/master/contracts/utils/Context.sol\":640:736  function _msgSender() internal view virtual returns (address) {... */\n      swap1\n      jump\t// out\n        /* \"contracts/SimpleVoting.sol\":6550:6700  function bytes32ToString(bytes32 byt) \r... */\n    tag_128:\n        /* \"contracts/SimpleVoting.sol\":6628:6641  string memory */\n      0x60\n        /* \"contracts/SimpleVoting.sol\":6687:6690  byt */\n      dup2\n        /* \"contracts/SimpleVoting.sol\":6669:6691  abi.encodePacked (byt) */\n      add(0x20, mload(0x40))\n      tag_134\n      swap2\n      swap1\n      tag_135\n      jump\t// in\n    tag_134:\n      mload(0x40)\n      0x20\n      dup2\n      dup4\n      sub\n      sub\n      dup2\n      mstore\n      swap1\n      0x40\n      mstore\n        /* \"contracts/SimpleVoting.sol\":6654:6692  return string (abi.encodePacked (byt)) */\n      swap1\n      pop\n        /* \"contracts/SimpleVoting.sol\":6550:6700  function bytes32ToString(bytes32 byt) \r... */\n      swap2\n      swap1\n      pop\n      jump\t// out\n        /* \"#utility.yul\":7:146   */\n    tag_137:\n        /* \"#utility.yul\":53:58   */\n      0x00\n        /* \"#utility.yul\":91:97   */\n      dup2\n        /* \"#utility.yul\":78:98   */\n      calldataload\n        /* \"#utility.yul\":69:98   */\n      swap1\n      pop\n        /* \"#utility.yul\":107:140   */\n      tag_139\n        /* \"#utility.yul\":134:139   */\n      dup2\n        /* \"#utility.yul\":107:140   */\n      tag_140\n      jump\t// in\n    tag_139:\n        /* \"#utility.yul\":7:146   */\n      swap3\n      swap2\n      pop\n      pop\n      jump\t// out\n        /* \"#utility.yul\":152:291   */\n    tag_141:\n        /* \"#utility.yul\":198:203   */\n      0x00\n        /* \"#utility.yul\":236:242   */\n      dup2\n        /* \"#utility.yul\":223:243   */\n      calldataload\n        /* \"#utility.yul\":214:243   */\n      swap1\n      pop\n        /* \"#utility.yul\":252:285   */\n      tag_143\n        /* \"#utility.yul\":279:284   */\n      dup2\n        /* \"#utility.yul\":252:285   */\n      tag_144\n      jump\t// in\n    tag_143:\n        /* \"#utility.yul\":152:291   */\n      swap3\n      swap2\n      pop\n      pop\n      jump\t// out\n        /* \"#utility.yul\":297:626   */\n    tag_18:\n        /* \"#utility.yul\":356:362   */\n      0x00\n        /* \"#utility.yul\":405:407   */\n      0x20\n        /* \"#utility.yul\":393:402   */\n      dup3\n        /* \"#utility.yul\":384:391   */\n      dup5\n        /* \"#utility.yul\":380:403   */\n      sub\n        /* \"#utility.yul\":376:408   */\n      slt\n        /* \"#utility.yul\":373:492   */\n      iszero\n      tag_146\n      jumpi\n        /* \"#utility.yul\":411:490   */\n      tag_147\n      tag_148\n      jump\t// in\n    tag_147:\n        /* \"#utility.yul\":373:492   */\n    tag_146:\n        /* \"#utility.yul\":531:532   */\n      0x00\n        /* \"#utility.yul\":556:609   */\n      tag_149\n        /* \"#utility.yul\":601:608   */\n      dup5\n        /* \"#utility.yul\":592:598   */\n      dup3\n        /* \"#utility.yul\":581:590   */\n      dup6\n        /* \"#utility.yul\":577:599   */\n      add\n        /* \"#utility.yul\":556:609   */\n      tag_137\n      jump\t// in\n    tag_149:\n        /* \"#utility.yul\":546:609   */\n      swap2\n      pop\n        /* \"#utility.yul\":502:619   */\n      pop\n        /* \"#utility.yul\":297:626   */\n      swap3\n      swap2\n      pop\n      pop\n      jump\t// out\n        /* \"#utility.yul\":632:961   */\n    tag_14:\n        /* \"#utility.yul\":691:697   */\n      0x00\n        /* \"#utility.yul\":740:742   */\n      0x20\n        /* \"#utility.yul\":728:737   */\n      dup3\n        /* \"#utility.yul\":719:726   */\n      dup5\n        /* \"#utility.yul\":715:738   */\n      sub\n        /* \"#utility.yul\":711:743   */\n      slt\n        /* \"#utility.yul\":708:827   */\n      iszero\n      tag_151\n      jumpi\n        /* \"#utility.yul\":746:825   */\n      tag_152\n      tag_148\n      jump\t// in\n    tag_152:\n        /* \"#utility.yul\":708:827   */\n    tag_151:\n        /* \"#utility.yul\":866:867   */\n      0x00\n        /* \"#utility.yul\":891:944   */\n      tag_153\n        /* \"#utility.yul\":936:943   */\n      dup5\n        /* \"#utility.yul\":927:933   */\n      dup3\n        /* \"#utility.yul\":916:925   */\n      dup6\n        /* \"#utility.yul\":912:934   */\n      add\n        /* \"#utility.yul\":891:944   */\n      tag_141\n      jump\t// in\n    tag_153:\n        /* \"#utility.yul\":881:944   */\n      swap2\n      pop\n        /* \"#utility.yul\":837:954   */\n      pop\n        /* \"#utility.yul\":632:961   */\n      swap3\n      swap2\n      pop\n      pop\n      jump\t// out\n        /* \"#utility.yul\":967:1085   */\n    tag_154:\n        /* \"#utility.yul\":1054:1078   */\n      tag_156\n        /* \"#utility.yul\":1072:1077   */\n      dup2\n        /* \"#utility.yul\":1054:1078   */\n      tag_157\n      jump\t// in\n    tag_156:\n        /* \"#utility.yul\":1049:1052   */\n      dup3\n        /* \"#utility.yul\":1042:1079   */\n      mstore\n        /* \"#utility.yul\":967:1085   */\n      pop\n      pop\n      jump\t// out\n        /* \"#utility.yul\":1091:1200   */\n    tag_158:\n        /* \"#utility.yul\":1172:1193   */\n      tag_160\n        /* \"#utility.yul\":1187:1192   */\n      dup2\n        /* \"#utility.yul\":1172:1193   */\n      tag_161\n      jump\t// in\n    tag_160:\n        /* \"#utility.yul\":1167:1170   */\n      dup3\n        /* \"#utility.yul\":1160:1194   */\n      mstore\n        /* \"#utility.yul\":1091:1200   */\n      pop\n      pop\n      jump\t// out\n        /* \"#utility.yul\":1206:1363   */\n    tag_162:\n        /* \"#utility.yul\":1311:1356   */\n      tag_164\n        /* \"#utility.yul\":1331:1355   */\n      tag_165\n        /* \"#utility.yul\":1349:1354   */\n      dup3\n        /* \"#utility.yul\":1331:1355   */\n      tag_166\n      jump\t// in\n    tag_165:\n        /* \"#utility.yul\":1311:1356   */\n      tag_167\n      jump\t// in\n    tag_164:\n        /* \"#utility.yul\":1306:1309   */\n      dup3\n        /* \"#utility.yul\":1299:1357   */\n      mstore\n        /* \"#utility.yul\":1206:1363   */\n      pop\n      pop\n      jump\t// out\n        /* \"#utility.yul\":1369:1733   */\n    tag_168:\n        /* \"#utility.yul\":1457:1460   */\n      0x00\n        /* \"#utility.yul\":1485:1524   */\n      tag_170\n        /* \"#utility.yul\":1518:1523   */\n      dup3\n        /* \"#utility.yul\":1485:1524   */\n      tag_171\n      jump\t// in\n    tag_170:\n        /* \"#utility.yul\":1540:1611   */\n      tag_172\n        /* \"#utility.yul\":1604:1610   */\n      dup2\n        /* \"#utility.yul\":1599:1602   */\n      dup6\n        /* \"#utility.yul\":1540:1611   */\n      tag_173\n      jump\t// in\n    tag_172:\n        /* \"#utility.yul\":1533:1611   */\n      swap4\n      pop\n        /* \"#utility.yul\":1620:1672   */\n      tag_174\n        /* \"#utility.yul\":1665:1671   */\n      dup2\n        /* \"#utility.yul\":1660:1663   */\n      dup6\n        /* \"#utility.yul\":1653:1657   */\n      0x20\n        /* \"#utility.yul\":1646:1651   */\n      dup7\n        /* \"#utility.yul\":1642:1658   */\n      add\n        /* \"#utility.yul\":1620:1672   */\n      tag_175\n      jump\t// in\n    tag_174:\n        /* \"#utility.yul\":1697:1726   */\n      tag_176\n        /* \"#utility.yul\":1719:1725   */\n      dup2\n        /* \"#utility.yul\":1697:1726   */\n      tag_177\n      jump\t// in\n    tag_176:\n        /* \"#utility.yul\":1692:1695   */\n      dup5\n        /* \"#utility.yul\":1688:1727   */\n      add\n        /* \"#utility.yul\":1681:1727   */\n      swap2\n      pop\n        /* \"#utility.yul\":1461:1733   */\n      pop\n        /* \"#utility.yul\":1369:1733   */\n      swap3\n      swap2\n      pop\n      pop\n      jump\t// out\n        /* \"#utility.yul\":1739:2105   */\n    tag_178:\n        /* \"#utility.yul\":1881:1884   */\n      0x00\n        /* \"#utility.yul\":1902:1969   */\n      tag_180\n        /* \"#utility.yul\":1966:1968   */\n      0x29\n        /* \"#utility.yul\":1961:1964   */\n      dup4\n        /* \"#utility.yul\":1902:1969   */\n      tag_173\n      jump\t// in\n    tag_180:\n        /* \"#utility.yul\":1895:1969   */\n      swap2\n      pop\n        /* \"#utility.yul\":1978:2071   */\n      tag_181\n        /* \"#utility.yul\":2067:2070   */\n      dup3\n        /* \"#utility.yul\":1978:2071   */\n      tag_182\n      jump\t// in\n    tag_181:\n        /* \"#utility.yul\":2096:2098   */\n      0x40\n        /* \"#utility.yul\":2091:2094   */\n      dup3\n        /* \"#utility.yul\":2087:2099   */\n      add\n        /* \"#utility.yul\":2080:2099   */\n      swap1\n      pop\n        /* \"#utility.yul\":1739:2105   */\n      swap2\n      swap1\n      pop\n      jump\t// out\n        /* \"#utility.yul\":2111:2477   */\n    tag_183:\n        /* \"#utility.yul\":2253:2256   */\n      0x00\n        /* \"#utility.yul\":2274:2341   */\n      tag_185\n        /* \"#utility.yul\":2338:2340   */\n      0x2a\n        /* \"#utility.yul\":2333:2336   */\n      dup4\n        /* \"#utility.yul\":2274:2341   */\n      tag_173\n      jump\t// in\n    tag_185:\n        /* \"#utility.yul\":2267:2341   */\n      swap2\n      pop\n        /* \"#utility.yul\":2350:2443   */\n      tag_186\n        /* \"#utility.yul\":2439:2442   */\n      dup3\n        /* \"#utility.yul\":2350:2443   */\n      tag_187\n      jump\t// in\n    tag_186:\n        /* \"#utility.yul\":2468:2470   */\n      0x40\n        /* \"#utility.yul\":2463:2466   */\n      dup3\n        /* \"#utility.yul\":2459:2471   */\n      add\n        /* \"#utility.yul\":2452:2471   */\n      swap1\n      pop\n        /* \"#utility.yul\":2111:2477   */\n      swap2\n      swap1\n      pop\n      jump\t// out\n        /* \"#utility.yul\":2483:2849   */\n    tag_188:\n        /* \"#utility.yul\":2625:2628   */\n      0x00\n        /* \"#utility.yul\":2646:2713   */\n      tag_190\n        /* \"#utility.yul\":2710:2712   */\n      0x0e\n        /* \"#utility.yul\":2705:2708   */\n      dup4\n        /* \"#utility.yul\":2646:2713   */\n      tag_173\n      jump\t// in\n    tag_190:\n        /* \"#utility.yul\":2639:2713   */\n      swap2\n      pop\n        /* \"#utility.yul\":2722:2815   */\n      tag_191\n        /* \"#utility.yul\":2811:2814   */\n      dup3\n        /* \"#utility.yul\":2722:2815   */\n      tag_192\n      jump\t// in\n    tag_191:\n        /* \"#utility.yul\":2840:2842   */\n      0x20\n        /* \"#utility.yul\":2835:2838   */\n      dup3\n        /* \"#utility.yul\":2831:2843   */\n      add\n        /* \"#utility.yul\":2824:2843   */\n      swap1\n      pop\n        /* \"#utility.yul\":2483:2849   */\n      swap2\n      swap1\n      pop\n      jump\t// out\n        /* \"#utility.yul\":2855:3221   */\n    tag_193:\n        /* \"#utility.yul\":2997:3000   */\n      0x00\n        /* \"#utility.yul\":3018:3085   */\n      tag_195\n        /* \"#utility.yul\":3082:3084   */\n      0x36\n        /* \"#utility.yul\":3077:3080   */\n      dup4\n        /* \"#utility.yul\":3018:3085   */\n      tag_173\n      jump\t// in\n    tag_195:\n        /* \"#utility.yul\":3011:3085   */\n      swap2\n      pop\n        /* \"#utility.yul\":3094:3187   */\n      tag_196\n        /* \"#utility.yul\":3183:3186   */\n      dup3\n        /* \"#utility.yul\":3094:3187   */\n      tag_197\n      jump\t// in\n    tag_196:\n        /* \"#utility.yul\":3212:3214   */\n      0x40\n        /* \"#utility.yul\":3207:3210   */\n      dup3\n        /* \"#utility.yul\":3203:3215   */\n      add\n        /* \"#utility.yul\":3196:3215   */\n      swap1\n      pop\n        /* \"#utility.yul\":2855:3221   */\n      swap2\n      swap1\n      pop\n      jump\t// out\n        /* \"#utility.yul\":3227:3593   */\n    tag_198:\n        /* \"#utility.yul\":3369:3372   */\n      0x00\n        /* \"#utility.yul\":3390:3457   */\n      tag_200\n        /* \"#utility.yul\":3454:3456   */\n      0x31\n        /* \"#utility.yul\":3449:3452   */\n      dup4\n        /* \"#utility.yul\":3390:3457   */\n      tag_173\n      jump\t// in\n    tag_200:\n        /* \"#utility.yul\":3383:3457   */\n      swap2\n      pop\n        /* \"#utility.yul\":3466:3559   */\n      tag_201\n        /* \"#utility.yul\":3555:3558   */\n      dup3\n        /* \"#utility.yul\":3466:3559   */\n      tag_202\n      jump\t// in\n    tag_201:\n        /* \"#utility.yul\":3584:3586   */\n      0x40\n        /* \"#utility.yul\":3579:3582   */\n      dup3\n        /* \"#utility.yul\":3575:3587   */\n      add\n        /* \"#utility.yul\":3568:3587   */\n      swap1\n      pop\n        /* \"#utility.yul\":3227:3593   */\n      swap2\n      swap1\n      pop\n      jump\t// out\n        /* \"#utility.yul\":3599:3965   */\n    tag_203:\n        /* \"#utility.yul\":3741:3744   */\n      0x00\n        /* \"#utility.yul\":3762:3829   */\n      tag_205\n        /* \"#utility.yul\":3826:3828   */\n      0x2d\n        /* \"#utility.yul\":3821:3824   */\n      dup4\n        /* \"#utility.yul\":3762:3829   */\n      tag_173\n      jump\t// in\n    tag_205:\n        /* \"#utility.yul\":3755:3829   */\n      swap2\n      pop\n        /* \"#utility.yul\":3838:3931   */\n      tag_206\n        /* \"#utility.yul\":3927:3930   */\n      dup3\n        /* \"#utility.yul\":3838:3931   */\n      tag_207\n      jump\t// in\n    tag_206:\n        /* \"#utility.yul\":3956:3958   */\n      0x40\n        /* \"#utility.yul\":3951:3954   */\n      dup3\n        /* \"#utility.yul\":3947:3959   */\n      add\n        /* \"#utility.yul\":3940:3959   */\n      swap1\n      pop\n        /* \"#utility.yul\":3599:3965   */\n      swap2\n      swap1\n      pop\n      jump\t// out\n        /* \"#utility.yul\":3971:4337   */\n    tag_208:\n        /* \"#utility.yul\":4113:4116   */\n      0x00\n        /* \"#utility.yul\":4134:4201   */\n      tag_210\n        /* \"#utility.yul\":4198:4200   */\n      0x30\n        /* \"#utility.yul\":4193:4196   */\n      dup4\n        /* \"#utility.yul\":4134:4201   */\n      tag_173\n      jump\t// in\n    tag_210:\n        /* \"#utility.yul\":4127:4201   */\n      swap2\n      pop\n        /* \"#utility.yul\":4210:4303   */\n      tag_211\n        /* \"#utility.yul\":4299:4302   */\n      dup3\n        /* \"#utility.yul\":4210:4303   */\n      tag_212\n      jump\t// in\n    tag_211:\n        /* \"#utility.yul\":4328:4330   */\n      0x40\n        /* \"#utility.yul\":4323:4326   */\n      dup3\n        /* \"#utility.yul\":4319:4331   */\n      add\n        /* \"#utility.yul\":4312:4331   */\n      swap1\n      pop\n        /* \"#utility.yul\":3971:4337   */\n      swap2\n      swap1\n      pop\n      jump\t// out\n        /* \"#utility.yul\":4343:4709   */\n    tag_213:\n        /* \"#utility.yul\":4485:4488   */\n      0x00\n        /* \"#utility.yul\":4506:4573   */\n      tag_215\n        /* \"#utility.yul\":4570:4572   */\n      0x2b\n        /* \"#utility.yul\":4565:4568   */\n      dup4\n        /* \"#utility.yul\":4506:4573   */\n      tag_173\n      jump\t// in\n    tag_215:\n        /* \"#utility.yul\":4499:4573   */\n      swap2\n      pop\n        /* \"#utility.yul\":4582:4675   */\n      tag_216\n        /* \"#utility.yul\":4671:4674   */\n      dup3\n        /* \"#utility.yul\":4582:4675   */\n      tag_217\n      jump\t// in\n    tag_216:\n        /* \"#utility.yul\":4700:4702   */\n      0x40\n        /* \"#utility.yul\":4695:4698   */\n      dup3\n        /* \"#utility.yul\":4691:4703   */\n      add\n        /* \"#utility.yul\":4684:4703   */\n      swap1\n      pop\n        /* \"#utility.yul\":4343:4709   */\n      swap2\n      swap1\n      pop\n      jump\t// out\n        /* \"#utility.yul\":4715:5081   */\n    tag_218:\n        /* \"#utility.yul\":4857:4860   */\n      0x00\n        /* \"#utility.yul\":4878:4945   */\n      tag_220\n        /* \"#utility.yul\":4942:4944   */\n      0x2f\n        /* \"#utility.yul\":4937:4940   */\n      dup4\n        /* \"#utility.yul\":4878:4945   */\n      tag_173\n      jump\t// in\n    tag_220:\n        /* \"#utility.yul\":4871:4945   */\n      swap2\n      pop\n        /* \"#utility.yul\":4954:5047   */\n      tag_221\n        /* \"#utility.yul\":5043:5046   */\n      dup3\n        /* \"#utility.yul\":4954:5047   */\n      tag_222\n      jump\t// in\n    tag_221:\n        /* \"#utility.yul\":5072:5074   */\n      0x40\n        /* \"#utility.yul\":5067:5070   */\n      dup3\n        /* \"#utility.yul\":5063:5075   */\n      add\n        /* \"#utility.yul\":5056:5075   */\n      swap1\n      pop\n        /* \"#utility.yul\":4715:5081   */\n      swap2\n      swap1\n      pop\n      jump\t// out\n        /* \"#utility.yul\":5087:5205   */\n    tag_223:\n        /* \"#utility.yul\":5174:5198   */\n      tag_225\n        /* \"#utility.yul\":5192:5197   */\n      dup2\n        /* \"#utility.yul\":5174:5198   */\n      tag_226\n      jump\t// in\n    tag_225:\n        /* \"#utility.yul\":5169:5172   */\n      dup3\n        /* \"#utility.yul\":5162:5199   */\n      mstore\n        /* \"#utility.yul\":5087:5205   */\n      pop\n      pop\n      jump\t// out\n        /* \"#utility.yul\":5211:5467   */\n    tag_135:\n        /* \"#utility.yul\":5323:5326   */\n      0x00\n        /* \"#utility.yul\":5338:5413   */\n      tag_228\n        /* \"#utility.yul\":5409:5412   */\n      dup3\n        /* \"#utility.yul\":5400:5406   */\n      dup5\n        /* \"#utility.yul\":5338:5413   */\n      tag_162\n      jump\t// in\n    tag_228:\n        /* \"#utility.yul\":5438:5440   */\n      0x20\n        /* \"#utility.yul\":5433:5436   */\n      dup3\n        /* \"#utility.yul\":5429:5441   */\n      add\n        /* \"#utility.yul\":5422:5441   */\n      swap2\n      pop\n        /* \"#utility.yul\":5458:5461   */\n      dup2\n        /* \"#utility.yul\":5451:5461   */\n      swap1\n      pop\n        /* \"#utility.yul\":5211:5467   */\n      swap3\n      swap2\n      pop\n      pop\n      jump\t// out\n        /* \"#utility.yul\":5473:5695   */\n    tag_35:\n        /* \"#utility.yul\":5566:5570   */\n      0x00\n        /* \"#utility.yul\":5604:5606   */\n      0x20\n        /* \"#utility.yul\":5593:5602   */\n      dup3\n        /* \"#utility.yul\":5589:5607   */\n      add\n        /* \"#utility.yul\":5581:5607   */\n      swap1\n      pop\n        /* \"#utility.yul\":5617:5688   */\n      tag_230\n        /* \"#utility.yul\":5685:5686   */\n      0x00\n        /* \"#utility.yul\":5674:5683   */\n      dup4\n        /* \"#utility.yul\":5670:5687   */\n      add\n        /* \"#utility.yul\":5661:5667   */\n      dup5\n        /* \"#utility.yul\":5617:5688   */\n      tag_154\n      jump\t// in\n    tag_230:\n        /* \"#utility.yul\":5473:5695   */\n      swap3\n      swap2\n      pop\n      pop\n      jump\t// out\n        /* \"#utility.yul\":5701:6014   */\n    tag_42:\n        /* \"#utility.yul\":5814:5818   */\n      0x00\n        /* \"#utility.yul\":5852:5854   */\n      0x20\n        /* \"#utility.yul\":5841:5850   */\n      dup3\n        /* \"#utility.yul\":5837:5855   */\n      add\n        /* \"#utility.yul\":5829:5855   */\n      swap1\n      pop\n        /* \"#utility.yul\":5901:5910   */\n      dup2\n        /* \"#utility.yul\":5895:5899   */\n      dup2\n        /* \"#utility.yul\":5891:5911   */\n      sub\n        /* \"#utility.yul\":5887:5888   */\n      0x00\n        /* \"#utility.yul\":5876:5885   */\n      dup4\n        /* \"#utility.yul\":5872:5889   */\n      add\n        /* \"#utility.yul\":5865:5912   */\n      mstore\n        /* \"#utility.yul\":5929:6007   */\n      tag_232\n        /* \"#utility.yul\":6002:6006   */\n      dup2\n        /* \"#utility.yul\":5993:5999   */\n      dup5\n        /* \"#utility.yul\":5929:6007   */\n      tag_168\n      jump\t// in\n    tag_232:\n        /* \"#utility.yul\":5921:6007   */\n      swap1\n      pop\n        /* \"#utility.yul\":5701:6014   */\n      swap3\n      swap2\n      pop\n      pop\n      jump\t// out\n        /* \"#utility.yul\":6020:6439   */\n    tag_49:\n        /* \"#utility.yul\":6186:6190   */\n      0x00\n        /* \"#utility.yul\":6224:6226   */\n      0x20\n        /* \"#utility.yul\":6213:6222   */\n      dup3\n        /* \"#utility.yul\":6209:6227   */\n      add\n        /* \"#utility.yul\":6201:6227   */\n      swap1\n      pop\n        /* \"#utility.yul\":6273:6282   */\n      dup2\n        /* \"#utility.yul\":6267:6271   */\n      dup2\n        /* \"#utility.yul\":6263:6283   */\n      sub\n        /* \"#utility.yul\":6259:6260   */\n      0x00\n        /* \"#utility.yul\":6248:6257   */\n      dup4\n        /* \"#utility.yul\":6244:6261   */\n      add\n        /* \"#utility.yul\":6237:6284   */\n      mstore\n        /* \"#utility.yul\":6301:6432   */\n      tag_234\n        /* \"#utility.yul\":6427:6431   */\n      dup2\n        /* \"#utility.yul\":6301:6432   */\n      tag_178\n      jump\t// in\n    tag_234:\n        /* \"#utility.yul\":6293:6432   */\n      swap1\n      pop\n        /* \"#utility.yul\":6020:6439   */\n      swap2\n      swap1\n      pop\n      jump\t// out\n        /* \"#utility.yul\":6445:6864   */\n    tag_70:\n        /* \"#utility.yul\":6611:6615   */\n      0x00\n        /* \"#utility.yul\":6649:6651   */\n      0x20\n        /* \"#utility.yul\":6638:6647   */\n      dup3\n        /* \"#utility.yul\":6634:6652   */\n      add\n        /* \"#utility.yul\":6626:6652   */\n      swap1\n      pop\n        /* \"#utility.yul\":6698:6707   */\n      dup2\n        /* \"#utility.yul\":6692:6696   */\n      dup2\n        /* \"#utility.yul\":6688:6708   */\n      sub\n        /* \"#utility.yul\":6684:6685   */\n      0x00\n        /* \"#utility.yul\":6673:6682   */\n      dup4\n        /* \"#utility.yul\":6669:6686   */\n      add\n        /* \"#utility.yul\":6662:6709   */\n      mstore\n        /* \"#utility.yul\":6726:6857   */\n      tag_236\n        /* \"#utility.yul\":6852:6856   */\n      dup2\n        /* \"#utility.yul\":6726:6857   */\n      tag_183\n      jump\t// in\n    tag_236:\n        /* \"#utility.yul\":6718:6857   */\n      swap1\n      pop\n        /* \"#utility.yul\":6445:6864   */\n      swap2\n      swap1\n      pop\n      jump\t// out\n        /* \"#utility.yul\":6870:7289   */\n    tag_52:\n        /* \"#utility.yul\":7036:7040   */\n      0x00\n        /* \"#utility.yul\":7074:7076   */\n      0x20\n        /* \"#utility.yul\":7063:7072   */\n      dup3\n        /* \"#utility.yul\":7059:7077   */\n      add\n        /* \"#utility.yul\":7051:7077   */\n      swap1\n      pop\n        /* \"#utility.yul\":7123:7132   */\n      dup2\n        /* \"#utility.yul\":7117:7121   */\n      dup2\n        /* \"#utility.yul\":7113:7133   */\n      sub\n        /* \"#utility.yul\":7109:7110   */\n      0x00\n        /* \"#utility.yul\":7098:7107   */\n      dup4\n        /* \"#utility.yul\":7094:7111   */\n      add\n        /* \"#utility.yul\":7087:7134   */\n      mstore\n        /* \"#utility.yul\":7151:7282   */\n      tag_238\n        /* \"#utility.yul\":7277:7281   */\n      dup2\n        /* \"#utility.yul\":7151:7282   */\n      tag_188\n      jump\t// in\n    tag_238:\n        /* \"#utility.yul\":7143:7282   */\n      swap1\n      pop\n        /* \"#utility.yul\":6870:7289   */\n      swap2\n      swap1\n      pop\n      jump\t// out\n        /* \"#utility.yul\":7295:7714   */\n    tag_114:\n        /* \"#utility.yul\":7461:7465   */\n      0x00\n        /* \"#utility.yul\":7499:7501   */\n      0x20\n        /* \"#utility.yul\":7488:7497   */\n      dup3\n        /* \"#utility.yul\":7484:7502   */\n      add\n        /* \"#utility.yul\":7476:7502   */\n      swap1\n      pop\n        /* \"#utility.yul\":7548:7557   */\n      dup2\n        /* \"#utility.yul\":7542:7546   */\n      dup2\n        /* \"#utility.yul\":7538:7558   */\n      sub\n        /* \"#utility.yul\":7534:7535   */\n      0x00\n        /* \"#utility.yul\":7523:7532   */\n      dup4\n        /* \"#utility.yul\":7519:7536   */\n      add\n        /* \"#utility.yul\":7512:7559   */\n      mstore\n        /* \"#utility.yul\":7576:7707   */\n      tag_240\n        /* \"#utility.yul\":7702:7706   */\n      dup2\n        /* \"#utility.yul\":7576:7707   */\n      tag_193\n      jump\t// in\n    tag_240:\n        /* \"#utility.yul\":7568:7707   */\n      swap1\n      pop\n        /* \"#utility.yul\":7295:7714   */\n      swap2\n      swap1\n      pop\n      jump\t// out\n        /* \"#utility.yul\":7720:8139   */\n    tag_75:\n        /* \"#utility.yul\":7886:7890   */\n      0x00\n        /* \"#utility.yul\":7924:7926   */\n      0x20\n        /* \"#utility.yul\":7913:7922   */\n      dup3\n        /* \"#utility.yul\":7909:7927   */\n      add\n        /* \"#utility.yul\":7901:7927   */\n      swap1\n      pop\n        /* \"#utility.yul\":7973:7982   */\n      dup2\n        /* \"#utility.yul\":7967:7971   */\n      dup2\n        /* \"#utility.yul\":7963:7983   */\n      sub\n        /* \"#utility.yul\":7959:7960   */\n      0x00\n        /* \"#utility.yul\":7948:7957   */\n      dup4\n        /* \"#utility.yul\":7944:7961   */\n      add\n        /* \"#utility.yul\":7937:7984   */\n      mstore\n        /* \"#utility.yul\":8001:8132   */\n      tag_242\n        /* \"#utility.yul\":8127:8131   */\n      dup2\n        /* \"#utility.yul\":8001:8132   */\n      tag_198\n      jump\t// in\n    tag_242:\n        /* \"#utility.yul\":7993:8132   */\n      swap1\n      pop\n        /* \"#utility.yul\":7720:8139   */\n      swap2\n      swap1\n      pop\n      jump\t// out\n        /* \"#utility.yul\":8145:8564   */\n    tag_80:\n        /* \"#utility.yul\":8311:8315   */\n      0x00\n        /* \"#utility.yul\":8349:8351   */\n      0x20\n        /* \"#utility.yul\":8338:8347   */\n      dup3\n        /* \"#utility.yul\":8334:8352   */\n      add\n        /* \"#utility.yul\":8326:8352   */\n      swap1\n      pop\n        /* \"#utility.yul\":8398:8407   */\n      dup2\n        /* \"#utility.yul\":8392:8396   */\n      dup2\n        /* \"#utility.yul\":8388:8408   */\n      sub\n        /* \"#utility.yul\":8384:8385   */\n      0x00\n        /* \"#utility.yul\":8373:8382   */\n      dup4\n        /* \"#utility.yul\":8369:8386   */\n      add\n        /* \"#utility.yul\":8362:8409   */\n      mstore\n        /* \"#utility.yul\":8426:8557   */\n      tag_244\n        /* \"#utility.yul\":8552:8556   */\n      dup2\n        /* \"#utility.yul\":8426:8557   */\n      tag_203\n      jump\t// in\n    tag_244:\n        /* \"#utility.yul\":8418:8557   */\n      swap1\n      pop\n        /* \"#utility.yul\":8145:8564   */\n      swap2\n      swap1\n      pop\n      jump\t// out\n        /* \"#utility.yul\":8570:8989   */\n    tag_121:\n        /* \"#utility.yul\":8736:8740   */\n      0x00\n        /* \"#utility.yul\":8774:8776   */\n      0x20\n        /* \"#utility.yul\":8763:8772   */\n      dup3\n        /* \"#utility.yul\":8759:8777   */\n      add\n        /* \"#utility.yul\":8751:8777   */\n      swap1\n      pop\n        /* \"#utility.yul\":8823:8832   */\n      dup2\n        /* \"#utility.yul\":8817:8821   */\n      dup2\n        /* \"#utility.yul\":8813:8833   */\n      sub\n        /* \"#utility.yul\":8809:8810   */\n      0x00\n        /* \"#utility.yul\":8798:8807   */\n      dup4\n        /* \"#utility.yul\":8794:8811   */\n      add\n        /* \"#utility.yul\":8787:8834   */\n      mstore\n        /* \"#utility.yul\":8851:8982   */\n      tag_246\n        /* \"#utility.yul\":8977:8981   */\n      dup2\n        /* \"#utility.yul\":8851:8982   */\n      tag_208\n      jump\t// in\n    tag_246:\n        /* \"#utility.yul\":8843:8982   */\n      swap1\n      pop\n        /* \"#utility.yul\":8570:8989   */\n      swap2\n      swap1\n      pop\n      jump\t// out\n        /* \"#utility.yul\":8995:9414   */\n    tag_55:\n        /* \"#utility.yul\":9161:9165   */\n      0x00\n        /* \"#utility.yul\":9199:9201   */\n      0x20\n        /* \"#utility.yul\":9188:9197   */\n      dup3\n        /* \"#utility.yul\":9184:9202   */\n      add\n        /* \"#utility.yul\":9176:9202   */\n      swap1\n      pop\n        /* \"#utility.yul\":9248:9257   */\n      dup2\n        /* \"#utility.yul\":9242:9246   */\n      dup2\n        /* \"#utility.yul\":9238:9258   */\n      sub\n        /* \"#utility.yul\":9234:9235   */\n      0x00\n        /* \"#utility.yul\":9223:9232   */\n      dup4\n        /* \"#utility.yul\":9219:9236   */\n      add\n        /* \"#utility.yul\":9212:9259   */\n      mstore\n        /* \"#utility.yul\":9276:9407   */\n      tag_248\n        /* \"#utility.yul\":9402:9406   */\n      dup2\n        /* \"#utility.yul\":9276:9407   */\n      tag_213\n      jump\t// in\n    tag_248:\n        /* \"#utility.yul\":9268:9407   */\n      swap1\n      pop\n        /* \"#utility.yul\":8995:9414   */\n      swap2\n      swap1\n      pop\n      jump\t// out\n        /* \"#utility.yul\":9420:9839   */\n    tag_86:\n        /* \"#utility.yul\":9586:9590   */\n      0x00\n        /* \"#utility.yul\":9624:9626   */\n      0x20\n        /* \"#utility.yul\":9613:9622   */\n      dup3\n        /* \"#utility.yul\":9609:9627   */\n      add\n        /* \"#utility.yul\":9601:9627   */\n      swap1\n      pop\n        /* \"#utility.yul\":9673:9682   */\n      dup2\n        /* \"#utility.yul\":9667:9671   */\n      dup2\n        /* \"#utility.yul\":9663:9683   */\n      sub\n        /* \"#utility.yul\":9659:9660   */\n      0x00\n        /* \"#utility.yul\":9648:9657   */\n      dup4\n        /* \"#utility.yul\":9644:9661   */\n      add\n        /* \"#utility.yul\":9637:9684   */\n      mstore\n        /* \"#utility.yul\":9701:9832   */\n      tag_250\n        /* \"#utility.yul\":9827:9831   */\n      dup2\n        /* \"#utility.yul\":9701:9832   */\n      tag_218\n      jump\t// in\n    tag_250:\n        /* \"#utility.yul\":9693:9832   */\n      swap1\n      pop\n        /* \"#utility.yul\":9420:9839   */\n      swap2\n      swap1\n      pop\n      jump\t// out\n        /* \"#utility.yul\":9845:10067   */\n    tag_23:\n        /* \"#utility.yul\":9938:9942   */\n      0x00\n        /* \"#utility.yul\":9976:9978   */\n      0x20\n        /* \"#utility.yul\":9965:9974   */\n      dup3\n        /* \"#utility.yul\":9961:9979   */\n      add\n        /* \"#utility.yul\":9953:9979   */\n      swap1\n      pop\n        /* \"#utility.yul\":9989:10060   */\n      tag_252\n        /* \"#utility.yul\":10057:10058   */\n      0x00\n        /* \"#utility.yul\":10046:10055   */\n      dup4\n        /* \"#utility.yul\":10042:10059   */\n      add\n        /* \"#utility.yul\":10033:10039   */\n      dup5\n        /* \"#utility.yul\":9989:10060   */\n      tag_223\n      jump\t// in\n    tag_252:\n        /* \"#utility.yul\":9845:10067   */\n      swap3\n      swap2\n      pop\n      pop\n      jump\t// out\n        /* \"#utility.yul\":10073:10614   */\n    tag_31:\n        /* \"#utility.yul\":10244:10248   */\n      0x00\n        /* \"#utility.yul\":10282:10285   */\n      0x80\n        /* \"#utility.yul\":10271:10280   */\n      dup3\n        /* \"#utility.yul\":10267:10286   */\n      add\n        /* \"#utility.yul\":10259:10286   */\n      swap1\n      pop\n        /* \"#utility.yul\":10296:10367   */\n      tag_254\n        /* \"#utility.yul\":10364:10365   */\n      0x00\n        /* \"#utility.yul\":10353:10362   */\n      dup4\n        /* \"#utility.yul\":10349:10366   */\n      add\n        /* \"#utility.yul\":10340:10346   */\n      dup8\n        /* \"#utility.yul\":10296:10367   */\n      tag_223\n      jump\t// in\n    tag_254:\n        /* \"#utility.yul\":10377:10443   */\n      tag_255\n        /* \"#utility.yul\":10439:10441   */\n      0x20\n        /* \"#utility.yul\":10428:10437   */\n      dup4\n        /* \"#utility.yul\":10424:10442   */\n      add\n        /* \"#utility.yul\":10415:10421   */\n      dup7\n        /* \"#utility.yul\":10377:10443   */\n      tag_158\n      jump\t// in\n    tag_255:\n        /* \"#utility.yul\":10453:10525   */\n      tag_256\n        /* \"#utility.yul\":10521:10523   */\n      0x40\n        /* \"#utility.yul\":10510:10519   */\n      dup4\n        /* \"#utility.yul\":10506:10524   */\n      add\n        /* \"#utility.yul\":10497:10503   */\n      dup6\n        /* \"#utility.yul\":10453:10525   */\n      tag_154\n      jump\t// in\n    tag_256:\n        /* \"#utility.yul\":10535:10607   */\n      tag_257\n        /* \"#utility.yul\":10603:10605   */\n      0x60\n        /* \"#utility.yul\":10592:10601   */\n      dup4\n        /* \"#utility.yul\":10588:10606   */\n      add\n        /* \"#utility.yul\":10579:10585   */\n      dup5\n        /* \"#utility.yul\":10535:10607   */\n      tag_223\n      jump\t// in\n    tag_257:\n        /* \"#utility.yul\":10073:10614   */\n      swap6\n      swap5\n      pop\n      pop\n      pop\n      pop\n      pop\n      jump\t// out\n        /* \"#utility.yul\":10701:10800   */\n    tag_171:\n        /* \"#utility.yul\":10753:10759   */\n      0x00\n        /* \"#utility.yul\":10787:10792   */\n      dup2\n        /* \"#utility.yul\":10781:10793   */\n      mload\n        /* \"#utility.yul\":10771:10793   */\n      swap1\n      pop\n        /* \"#utility.yul\":10701:10800   */\n      swap2\n      swap1\n      pop\n      jump\t// out\n        /* \"#utility.yul\":10806:10975   */\n    tag_173:\n        /* \"#utility.yul\":10890:10901   */\n      0x00\n        /* \"#utility.yul\":10924:10930   */\n      dup3\n        /* \"#utility.yul\":10919:10922   */\n      dup3\n        /* \"#utility.yul\":10912:10931   */\n      mstore\n        /* \"#utility.yul\":10964:10968   */\n      0x20\n        /* \"#utility.yul\":10959:10962   */\n      dup3\n        /* \"#utility.yul\":10955:10969   */\n      add\n        /* \"#utility.yul\":10940:10969   */\n      swap1\n      pop\n        /* \"#utility.yul\":10806:10975   */\n      swap3\n      swap2\n      pop\n      pop\n      jump\t// out\n        /* \"#utility.yul\":10981:11286   */\n    tag_131:\n        /* \"#utility.yul\":11021:11024   */\n      0x00\n        /* \"#utility.yul\":11040:11060   */\n      tag_263\n        /* \"#utility.yul\":11058:11059   */\n      dup3\n        /* \"#utility.yul\":11040:11060   */\n      tag_226\n      jump\t// in\n    tag_263:\n        /* \"#utility.yul\":11035:11060   */\n      swap2\n      pop\n        /* \"#utility.yul\":11074:11094   */\n      tag_264\n        /* \"#utility.yul\":11092:11093   */\n      dup4\n        /* \"#utility.yul\":11074:11094   */\n      tag_226\n      jump\t// in\n    tag_264:\n        /* \"#utility.yul\":11069:11094   */\n      swap3\n      pop\n        /* \"#utility.yul\":11228:11229   */\n      dup3\n        /* \"#utility.yul\":11160:11226   */\n      0xffffffffffffffffffffffffffffffffffffffffffffffffffffffffffffffff\n        /* \"#utility.yul\":11156:11230   */\n      sub\n        /* \"#utility.yul\":11153:11154   */\n      dup3\n        /* \"#utility.yul\":11150:11231   */\n      gt\n        /* \"#utility.yul\":11147:11254   */\n      iszero\n      tag_265\n      jumpi\n        /* \"#utility.yul\":11234:11252   */\n      tag_266\n      tag_267\n      jump\t// in\n    tag_266:\n        /* \"#utility.yul\":11147:11254   */\n    tag_265:\n        /* \"#utility.yul\":11278:11279   */\n      dup3\n        /* \"#utility.yul\":11275:11276   */\n      dup3\n        /* \"#utility.yul\":11271:11280   */\n      add\n        /* \"#utility.yul\":11264:11280   */\n      swap1\n      pop\n        /* \"#utility.yul\":10981:11286   */\n      swap3\n      swap2\n      pop\n      pop\n      jump\t// out\n        /* \"#utility.yul\":11292:11388   */\n    tag_157:\n        /* \"#utility.yul\":11329:11336   */\n      0x00\n        /* \"#utility.yul\":11358:11382   */\n      tag_269\n        /* \"#utility.yul\":11376:11381   */\n      dup3\n        /* \"#utility.yul\":11358:11382   */\n      tag_270\n      jump\t// in\n    tag_269:\n        /* \"#utility.yul\":11347:11382   */\n      swap1\n      pop\n        /* \"#utility.yul\":11292:11388   */\n      swap2\n      swap1\n      pop\n      jump\t// out\n        /* \"#utility.yul\":11394:11484   */\n    tag_161:\n        /* \"#utility.yul\":11428:11435   */\n      0x00\n        /* \"#utility.yul\":11471:11476   */\n      dup2\n        /* \"#utility.yul\":11464:11477   */\n      iszero\n        /* \"#utility.yul\":11457:11478   */\n      iszero\n        /* \"#utility.yul\":11446:11478   */\n      swap1\n      pop\n        /* \"#utility.yul\":11394:11484   */\n      swap2\n      swap1\n      pop\n      jump\t// out\n        /* \"#utility.yul\":11490:11567   */\n    tag_166:\n        /* \"#utility.yul\":11527:11534   */\n      0x00\n        /* \"#utility.yul\":11556:11561   */\n      dup2\n        /* \"#utility.yul\":11545:11561   */\n      swap1\n      pop\n        /* \"#utility.yul\":11490:11567   */\n      swap2\n      swap1\n      pop\n      jump\t// out\n        /* \"#utility.yul\":11573:11699   */\n    tag_270:\n        /* \"#utility.yul\":11610:11617   */\n      0x00\n        /* \"#utility.yul\":11650:11692   */\n      0xffffffffffffffffffffffffffffffffffffffff\n        /* \"#utility.yul\":11643:11648   */\n      dup3\n        /* \"#utility.yul\":11639:11693   */\n      and\n        /* \"#utility.yul\":11628:11693   */\n      swap1\n      pop\n        /* \"#utility.yul\":11573:11699   */\n      swap2\n      swap1\n      pop\n      jump\t// out\n        /* \"#utility.yul\":11705:11782   */\n    tag_226:\n        /* \"#utility.yul\":11742:11749   */\n      0x00\n        /* \"#utility.yul\":11771:11776   */\n      dup2\n        /* \"#utility.yul\":11760:11776   */\n      swap1\n      pop\n        /* \"#utility.yul\":11705:11782   */\n      swap2\n      swap1\n      pop\n      jump\t// out\n        /* \"#utility.yul\":11788:12095   */\n    tag_175:\n        /* \"#utility.yul\":11856:11857   */\n      0x00\n        /* \"#utility.yul\":11866:11979   */\n    tag_276:\n        /* \"#utility.yul\":11880:11886   */\n      dup4\n        /* \"#utility.yul\":11877:11878   */\n      dup2\n        /* \"#utility.yul\":11874:11887   */\n      lt\n        /* \"#utility.yul\":11866:11979   */\n      iszero\n      tag_278\n      jumpi\n        /* \"#utility.yul\":11965:11966   */\n      dup1\n        /* \"#utility.yul\":11960:11963   */\n      dup3\n        /* \"#utility.yul\":11956:11967   */\n      add\n        /* \"#utility.yul\":11950:11968   */\n      mload\n        /* \"#utility.yul\":11946:11947   */\n      dup2\n        /* \"#utility.yul\":11941:11944   */\n      dup5\n        /* \"#utility.yul\":11937:11948   */\n      add\n        /* \"#utility.yul\":11930:11969   */\n      mstore\n        /* \"#utility.yul\":11902:11904   */\n      0x20\n        /* \"#utility.yul\":11899:11900   */\n      dup2\n        /* \"#utility.yul\":11895:11905   */\n      add\n        /* \"#utility.yul\":11890:11905   */\n      swap1\n      pop\n        /* \"#utility.yul\":11866:11979   */\n      jump(tag_276)\n    tag_278:\n        /* \"#utility.yul\":11997:12003   */\n      dup4\n        /* \"#utility.yul\":11994:11995   */\n      dup2\n        /* \"#utility.yul\":11991:12004   */\n      gt\n        /* \"#utility.yul\":11988:12089   */\n      iszero\n      tag_279\n      jumpi\n        /* \"#utility.yul\":12077:12078   */\n      0x00\n        /* \"#utility.yul\":12068:12074   */\n      dup5\n        /* \"#utility.yul\":12063:12066   */\n      dup5\n        /* \"#utility.yul\":12059:12075   */\n      add\n        /* \"#utility.yul\":12052:12079   */\n      mstore\n        /* \"#utility.yul\":11988:12089   */\n    tag_279:\n        /* \"#utility.yul\":11837:12095   */\n      pop\n        /* \"#utility.yul\":11788:12095   */\n      pop\n      pop\n      pop\n      jump\t// out\n        /* \"#utility.yul\":12101:12180   */\n    tag_167:\n        /* \"#utility.yul\":12140:12147   */\n      0x00\n        /* \"#utility.yul\":12169:12174   */\n      dup2\n        /* \"#utility.yul\":12158:12174   */\n      swap1\n      pop\n        /* \"#utility.yul\":12101:12180   */\n      swap2\n      swap1\n      pop\n      jump\t// out\n        /* \"#utility.yul\":12186:12366   */\n    tag_267:\n        /* \"#utility.yul\":12234:12311   */\n      0x4e487b7100000000000000000000000000000000000000000000000000000000\n        /* \"#utility.yul\":12231:12232   */\n      0x00\n        /* \"#utility.yul\":12224:12312   */\n      mstore\n        /* \"#utility.yul\":12331:12335   */\n      0x11\n        /* \"#utility.yul\":12328:12329   */\n      0x04\n        /* \"#utility.yul\":12321:12336   */\n      mstore\n        /* \"#utility.yul\":12355:12359   */\n      0x24\n        /* \"#utility.yul\":12352:12353   */\n      0x00\n        /* \"#utility.yul\":12345:12360   */\n      revert\n        /* \"#utility.yul\":12372:12552   */\n    tag_59:\n        /* \"#utility.yul\":12420:12497   */\n      0x4e487b7100000000000000000000000000000000000000000000000000000000\n        /* \"#utility.yul\":12417:12418   */\n      0x00\n        /* \"#utility.yul\":12410:12498   */\n      mstore\n        /* \"#utility.yul\":12517:12521   */\n      0x32\n        /* \"#utility.yul\":12514:12515   */\n      0x04\n        /* \"#utility.yul\":12507:12522   */\n      mstore\n        /* \"#utility.yul\":12541:12545   */\n      0x24\n        /* \"#utility.yul\":12538:12539   */\n      0x00\n        /* \"#utility.yul\":12531:12546   */\n      revert\n        /* \"#utility.yul\":12681:12798   */\n    tag_148:\n        /* \"#utility.yul\":12790:12791   */\n      0x00\n        /* \"#utility.yul\":12787:12788   */\n      dup1\n        /* \"#utility.yul\":12780:12792   */\n      revert\n        /* \"#utility.yul\":12804:12906   */\n    tag_177:\n        /* \"#utility.yul\":12845:12851   */\n      0x00\n        /* \"#utility.yul\":12896:12898   */\n      0x1f\n        /* \"#utility.yul\":12892:12899   */\n      not\n        /* \"#utility.yul\":12887:12889   */\n      0x1f\n        /* \"#utility.yul\":12880:12885   */\n      dup4\n        /* \"#utility.yul\":12876:12890   */\n      add\n        /* \"#utility.yul\":12872:12900   */\n      and\n        /* \"#utility.yul\":12862:12900   */\n      swap1\n      pop\n        /* \"#utility.yul\":12804:12906   */\n      swap2\n      swap1\n      pop\n      jump\t// out\n        /* \"#utility.yul\":12912:13140   */\n    tag_182:\n        /* \"#utility.yul\":13052:13086   */\n      0x53696d706c65566f74696e673a2043616c6c657220686173206e6f2072696768\n        /* \"#utility.yul\":13048:13049   */\n      0x00\n        /* \"#utility.yul\":13040:13046   */\n      dup3\n        /* \"#utility.yul\":13036:13050   */\n      add\n        /* \"#utility.yul\":13029:13087   */\n      mstore\n        /* \"#utility.yul\":13121:13132   */\n      0x7420746f20766f74650000000000000000000000000000000000000000000000\n        /* \"#utility.yul\":13116:13118   */\n      0x20\n        /* \"#utility.yul\":13108:13114   */\n      dup3\n        /* \"#utility.yul\":13104:13119   */\n      add\n        /* \"#utility.yul\":13097:13133   */\n      mstore\n        /* \"#utility.yul\":12912:13140   */\n      pop\n      jump\t// out\n        /* \"#utility.yul\":13146:13375   */\n    tag_187:\n        /* \"#utility.yul\":13286:13320   */\n      0x53696d706c65566f74696e673a2054686520766f7465722068617320616c7265\n        /* \"#utility.yul\":13282:13283   */\n      0x00\n        /* \"#utility.yul\":13274:13280   */\n      dup3\n        /* \"#utility.yul\":13270:13284   */\n      add\n        /* \"#utility.yul\":13263:13321   */\n      mstore\n        /* \"#utility.yul\":13355:13367   */\n      0x61647920766f7465642e00000000000000000000000000000000000000000000\n        /* \"#utility.yul\":13350:13352   */\n      0x20\n        /* \"#utility.yul\":13342:13348   */\n      dup3\n        /* \"#utility.yul\":13338:13353   */\n      add\n        /* \"#utility.yul\":13331:13368   */\n      mstore\n        /* \"#utility.yul\":13146:13375   */\n      pop\n      jump\t// out\n        /* \"#utility.yul\":13381:13545   */\n    tag_192:\n        /* \"#utility.yul\":13521:13537   */\n      0x416c726561647920766f7465642e000000000000000000000000000000000000\n        /* \"#utility.yul\":13517:13518   */\n      0x00\n        /* \"#utility.yul\":13509:13515   */\n      dup3\n        /* \"#utility.yul\":13505:13519   */\n      add\n        /* \"#utility.yul\":13498:13538   */\n      mstore\n        /* \"#utility.yul\":13381:13545   */\n      pop\n      jump\t// out\n        /* \"#utility.yul\":13551:13792   */\n    tag_197:\n        /* \"#utility.yul\":13691:13725   */\n      0x53696d706c65566f74696e673a204f6e6c79206368616972506572736f6e2063\n        /* \"#utility.yul\":13687:13688   */\n      0x00\n        /* \"#utility.yul\":13679:13685   */\n      dup3\n        /* \"#utility.yul\":13675:13689   */\n      add\n        /* \"#utility.yul\":13668:13726   */\n      mstore\n        /* \"#utility.yul\":13760:13784   */\n      0x616e206769766520726967687420746f20766f74652e00000000000000000000\n        /* \"#utility.yul\":13755:13757   */\n      0x20\n        /* \"#utility.yul\":13747:13753   */\n      dup3\n        /* \"#utility.yul\":13743:13758   */\n      add\n        /* \"#utility.yul\":13736:13785   */\n      mstore\n        /* \"#utility.yul\":13551:13792   */\n      pop\n      jump\t// out\n        /* \"#utility.yul\":13798:14034   */\n    tag_202:\n        /* \"#utility.yul\":13938:13972   */\n      0x53696d706c65566f74696e673a2043616c6c657220646f6573206e6f74206861\n        /* \"#utility.yul\":13934:13935   */\n      0x00\n        /* \"#utility.yul\":13926:13932   */\n      dup3\n        /* \"#utility.yul\":13922:13936   */\n      add\n        /* \"#utility.yul\":13915:13973   */\n      mstore\n        /* \"#utility.yul\":14007:14026   */\n      0x766520726967687420746f20766f74652e000000000000000000000000000000\n        /* \"#utility.yul\":14002:14004   */\n      0x20\n        /* \"#utility.yul\":13994:14000   */\n      dup3\n        /* \"#utility.yul\":13990:14005   */\n      add\n        /* \"#utility.yul\":13983:14027   */\n      mstore\n        /* \"#utility.yul\":13798:14034   */\n      pop\n      jump\t// out\n        /* \"#utility.yul\":14040:14272   */\n    tag_207:\n        /* \"#utility.yul\":14180:14214   */\n      0x53696d706c65566f74696e673a2053656c662d64656c65676174696f6e206973\n        /* \"#utility.yul\":14176:14177   */\n      0x00\n        /* \"#utility.yul\":14168:14174   */\n      dup3\n        /* \"#utility.yul\":14164:14178   */\n      add\n        /* \"#utility.yul\":14157:14215   */\n      mstore\n        /* \"#utility.yul\":14249:14264   */\n      0x206e6f7420616c6c6f7765642e00000000000000000000000000000000000000\n        /* \"#utility.yul\":14244:14246   */\n      0x20\n        /* \"#utility.yul\":14236:14242   */\n      dup3\n        /* \"#utility.yul\":14232:14247   */\n      add\n        /* \"#utility.yul\":14225:14265   */\n      mstore\n        /* \"#utility.yul\":14040:14272   */\n      pop\n      jump\t// out\n        /* \"#utility.yul\":14278:14513   */\n    tag_212:\n        /* \"#utility.yul\":14418:14452   */\n      0x53696d706c65566f74696e673a204164647265737320616c7265616479206861\n        /* \"#utility.yul\":14414:14415   */\n      0x00\n        /* \"#utility.yul\":14406:14412   */\n      dup3\n        /* \"#utility.yul\":14402:14416   */\n      add\n        /* \"#utility.yul\":14395:14453   */\n      mstore\n        /* \"#utility.yul\":14487:14505   */\n      0x7320726967687420746f20766f74652e00000000000000000000000000000000\n        /* \"#utility.yul\":14482:14484   */\n      0x20\n        /* \"#utility.yul\":14474:14480   */\n      dup3\n        /* \"#utility.yul\":14470:14485   */\n      add\n        /* \"#utility.yul\":14463:14506   */\n      mstore\n        /* \"#utility.yul\":14278:14513   */\n      pop\n      jump\t// out\n        /* \"#utility.yul\":14519:14749   */\n    tag_217:\n        /* \"#utility.yul\":14659:14693   */\n      0x53696d706c65566f74696e673a2050726f706f73616c20696e646578206f7574\n        /* \"#utility.yul\":14655:14656   */\n      0x00\n        /* \"#utility.yul\":14647:14653   */\n      dup3\n        /* \"#utility.yul\":14643:14657   */\n      add\n        /* \"#utility.yul\":14636:14694   */\n      mstore\n        /* \"#utility.yul\":14728:14741   */\n      0x206f6620626f756e64732e000000000000000000000000000000000000000000\n        /* \"#utility.yul\":14723:14725   */\n      0x20\n        /* \"#utility.yul\":14715:14721   */\n      dup3\n        /* \"#utility.yul\":14711:14726   */\n      add\n        /* \"#utility.yul\":14704:14742   */\n      mstore\n        /* \"#utility.yul\":14519:14749   */\n      pop\n      jump\t// out\n        /* \"#utility.yul\":14755:14989   */\n    tag_222:\n        /* \"#utility.yul\":14895:14929   */\n      0x53696d706c65566f74696e673a2044656c65676174696f6e2074726163657320\n        /* \"#utility.yul\":14891:14892   */\n      0x00\n        /* \"#utility.yul\":14883:14889   */\n      dup3\n        /* \"#utility.yul\":14879:14893   */\n      add\n        /* \"#utility.yul\":14872:14930   */\n      mstore\n        /* \"#utility.yul\":14964:14981   */\n      0x6261636b20746f2063616c6c65722e0000000000000000000000000000000000\n        /* \"#utility.yul\":14959:14961   */\n      0x20\n        /* \"#utility.yul\":14951:14957   */\n      dup3\n        /* \"#utility.yul\":14947:14962   */\n      add\n        /* \"#utility.yul\":14940:14982   */\n      mstore\n        /* \"#utility.yul\":14755:14989   */\n      pop\n      jump\t// out\n        /* \"#utility.yul\":14995:15117   */\n    tag_140:\n        /* \"#utility.yul\":15068:15092   */\n      tag_297\n        /* \"#utility.yul\":15086:15091   */\n      dup2\n        /* \"#utility.yul\":15068:15092   */\n      tag_157\n      jump\t// in\n    tag_297:\n        /* \"#utility.yul\":15061:15066   */\n      dup2\n        /* \"#utility.yul\":15058:15093   */\n      eq\n        /* \"#utility.yul\":15048:15111   */\n      tag_298\n      jumpi\n        /* \"#utility.yul\":15107:15108   */\n      0x00\n        /* \"#utility.yul\":15104:15105   */\n      dup1\n        /* \"#utility.yul\":15097:15109   */\n      revert\n        /* \"#utility.yul\":15048:15111   */\n    tag_298:\n        /* \"#utility.yul\":14995:15117   */\n      pop\n      jump\t// out\n        /* \"#utility.yul\":15123:15245   */\n    tag_144:\n        /* \"#utility.yul\":15196:15220   */\n      tag_300\n        /* \"#utility.yul\":15214:15219   */\n      dup2\n        /* \"#utility.yul\":15196:15220   */\n      tag_226\n      jump\t// in\n    tag_300:\n        /* \"#utility.yul\":15189:15194   */\n      dup2\n        /* \"#utility.yul\":15186:15221   */\n      eq\n        /* \"#utility.yul\":15176:15239   */\n      tag_301\n      jumpi\n        /* \"#utility.yul\":15235:15236   */\n      0x00\n        /* \"#utility.yul\":15232:15233   */\n      dup1\n        /* \"#utility.yul\":15225:15237   */\n      revert\n        /* \"#utility.yul\":15176:15239   */\n    tag_301:\n        /* \"#utility.yul\":15123:15245   */\n      pop\n      jump\t// out\n\n    auxdata: 0xa2646970667358221220feff49551cf4f5d7f88806994d13344de178c6fd075ae170fc559b96b2cba52b64736f6c63430008070033\n}\n",
				"bytecode": {
					"linkReferences": {},
					"object": "60806040523480156200001157600080fd5b5060405162001bc638038062001bc683398181016040528101906200003791906200035f565b62000047620001bc60201b60201c565b600160006101000a81548173ffffffffffffffffffffffffffffffffffffffff021916908373ffffffffffffffffffffffffffffffffffffffff160217905550600160026000600160009054906101000a900473ffffffffffffffffffffffffffffffffffffffff1673ffffffffffffffffffffffffffffffffffffffff1673ffffffffffffffffffffffffffffffffffffffff16815260200190815260200160002060000181905550805160008190555060005b600054811015620001b45760006040518060400160405280620001428585815181106200012e576200012d6200063b565b5b6020026020010151620001c460201b60201c565b81526020016000815250905060038190806001815401808255809150506001900390600052602060002090600202016000909190919091506000820151816000015560208201518160010155505050620001ac600182620001fa60201b62000bfa1790919060201c565b9050620000fc565b5050620006e7565b600033905090565b600081604051602001620001d99190620003e7565b604051602081830303815290604052620001f39062000530565b9050919050565b600081836200020a9190620004bf565b905092915050565b600062000229620002238462000429565b62000400565b905080838252602082019050828560208602820111156200024f576200024e620006b5565b5b60005b85811015620002a457815167ffffffffffffffff811115620002795762000278620006b0565b5b8086016200028889826200032c565b8552602085019450602084019350505060018101905062000252565b5050509392505050565b6000620002c5620002bf8462000458565b62000400565b905082815260208101848484011115620002e457620002e3620006ba565b5b620002f1848285620005a0565b509392505050565b600082601f830112620003115762000310620006b0565b5b81516200032384826020860162000212565b91505092915050565b600082601f830112620003445762000343620006b0565b5b815162000356848260208601620002ae565b91505092915050565b600060208284031215620003785762000377620006c4565b5b600082015167ffffffffffffffff811115620003995762000398620006bf565b5b620003a784828501620002f9565b91505092915050565b6000620003bd82620004a9565b620003c98185620004b4565b9350620003db818560208601620005a0565b80840191505092915050565b6000620003f58284620003b0565b915081905092915050565b60006200040c6200041f565b90506200041a8282620005d6565b919050565b6000604051905090565b600067ffffffffffffffff8211156200044757620004466200066a565b5b602082029050602081019050919050565b600067ffffffffffffffff8211156200047657620004756200066a565b5b6200048182620006c9565b9050602081019050919050565b6000819050602082019050919050565b600081519050919050565b600081519050919050565b600081905092915050565b6000620004cc8262000526565b9150620004d98362000526565b9250827fffffffffffffffffffffffffffffffffffffffffffffffffffffffffffffffff038211156200051157620005106200060c565b5b828201905092915050565b6000819050919050565b6000819050919050565b60006200053d826200049e565b8262000549846200048e565b9050620005568162000699565b925060208210156200059957620005947fffffffffffffffffffffffffffffffffffffffffffffffffffffffffffffffff83602003600802620006da565b831692505b5050919050565b60005b83811015620005c0578082015181840152602081019050620005a3565b83811115620005d0576000848401525b50505050565b620005e182620006c9565b810181811067ffffffffffffffff821117156200060357620006026200066a565b5b80604052505050565b7f4e487b7100000000000000000000000000000000000000000000000000000000600052601160045260246000fd5b7f4e487b7100000000000000000000000000000000000000000000000000000000600052603260045260246000fd5b7f4e487b7100000000000000000000000000000000000000000000000000000000600052604160045260246000fd5b6000620006a782516200051c565b80915050919050565b600080fd5b600080fd5b600080fd5b600080fd5b600080fd5b6000601f19601f8301169050919050565b600082821b905092915050565b6114cf80620006f76000396000f3fe608060405234801561001057600080fd5b50600436106100885760003560e01c8063a3ec138d1161005b578063a3ec138d146100ff578063d4d4b5ac14610132578063da35c66414610150578063e2ba53f01461016e57610088565b80630121b93f1461008d5780635c19a95c146100a9578063609ff1bd146100c55780639e7b8d61146100e3575b600080fd5b6100a760048036038101906100a29190610c98565b61018c565b005b6100c360048036038101906100be9190610c6b565b61039d565b005b6100cd6108af565b6040516100da9190610ff5565b60405180910390f35b6100fd60048036038101906100f89190610c6b565b61093c565b005b61011960048036038101906101149190610c6b565b610b35565b6040516101299493929190611010565b60405180910390f35b61013a610b92565b6040516101479190610e98565b60405180910390f35b610158610bb8565b6040516101659190610ff5565b60405180910390f35b610176610bbe565b6040516101839190610eb3565b60405180910390f35b60006002600061019a610c10565b73ffffffffffffffffffffffffffffffffffffffff1673ffffffffffffffffffffffffffffffffffffffff168152602001908152602001600020905060008160000154141561021e576040517f08c379a000000000000000000000000000000000000000000000000000000000815260040161021590610ed5565b60405180910390fd5b8060010160009054906101000a900460ff1615610270576040517f08c379a000000000000000000000000000000000000000000000000000000000815260040161026790610f15565b60405180910390fd5b60005482106102b4576040517f08c379a00000000000000000000000000000000000000000000000000000000081526004016102ab90610fb5565b60405180910390fd5b60018160010160006101000a81548160ff0219169083151502179055508181600201819055506103168160000154600384815481106102f6576102f5611185565b5b906000526020600020906002020160010154610bfa90919063ffffffff16565b6003838154811061032a57610329611185565b5b906000526020600020906002020160010181905550610347610c10565b73ffffffffffffffffffffffffffffffffffffffff16827fe7ee74ca1f4bb1b82b14f87794c45b3e59c39e372b862fb97a6316b43355b69e83600001546040516103919190610ff5565b60405180910390a35050565b6103a5610c10565b600260008273ffffffffffffffffffffffffffffffffffffffff1673ffffffffffffffffffffffffffffffffffffffff16815260200190815260200160002060010160009054906101000a900460ff1615610435576040517f08c379a000000000000000000000000000000000000000000000000000000000815260040161042c90610ef5565b60405180910390fd5b600060026000610443610c10565b73ffffffffffffffffffffffffffffffffffffffff1673ffffffffffffffffffffffffffffffffffffffff16815260200190815260200160002060000154116104c1576040517f08c379a00000000000000000000000000000000000000000000000000000000081526004016104b890610f55565b60405180910390fd5b6000600260006104cf610c10565b73ffffffffffffffffffffffffffffffffffffffff1673ffffffffffffffffffffffffffffffffffffffff1681526020019081526020016000209050610513610c10565b73ffffffffffffffffffffffffffffffffffffffff168373ffffffffffffffffffffffffffffffffffffffff161415610581576040517f08c379a000000000000000000000000000000000000000000000000000000000815260040161057890610f75565b60405180910390fd5b5b600073ffffffffffffffffffffffffffffffffffffffff16600260008573ffffffffffffffffffffffffffffffffffffffff1673ffffffffffffffffffffffffffffffffffffffff16815260200190815260200160002060010160019054906101000a900473ffffffffffffffffffffffffffffffffffffffff1673ffffffffffffffffffffffffffffffffffffffff16146106f857600260008473ffffffffffffffffffffffffffffffffffffffff1673ffffffffffffffffffffffffffffffffffffffff16815260200190815260200160002060010160019054906101000a900473ffffffffffffffffffffffffffffffffffffffff169250610685610c10565b73ffffffffffffffffffffffffffffffffffffffff168373ffffffffffffffffffffffffffffffffffffffff1614156106f3576040517f08c379a00000000000000000000000000000000000000000000000000000000081526004016106ea90610fd5565b60405180910390fd5b610582565b60018160010160006101000a81548160ff021916908315150217905550828160010160016101000a81548173ffffffffffffffffffffffffffffffffffffffff021916908373ffffffffffffffffffffffffffffffffffffffff1602179055506000600260008573ffffffffffffffffffffffffffffffffffffffff1673ffffffffffffffffffffffffffffffffffffffff16815260200190815260200160002090508060010160009054906101000a900460ff1615610824576107f2826000015460038360020154815481106107d2576107d1611185565b5b906000526020600020906002020160010154610bfa90919063ffffffff16565b600382600201548154811061080a57610809611185565b5b906000526020600020906002020160010181905550610848565b61083f82600001548260000154610bfa90919063ffffffff16565b81600001819055505b8373ffffffffffffffffffffffffffffffffffffffff16610867610c10565b73ffffffffffffffffffffffffffffffffffffffff167f4ce9ef2c99d761d69230b0e3381f4c6016333b2e27d32b3e379a96b5d2c6923260405160405180910390a350505050565b6000806000905060005b6000548110156109375781600382815481106108d8576108d7611185565b5b906000526020600020906002020160010154111561091c576003818154811061090457610903611185565b5b90600052602060002090600202016001015491508092505b610930600182610bfa90919063ffffffff16565b90506108b9565b505090565b600160009054906101000a900473ffffffffffffffffffffffffffffffffffffffff1673ffffffffffffffffffffffffffffffffffffffff1661097d610c10565b73ffffffffffffffffffffffffffffffffffffffff16146109d3576040517f08c379a00000000000000000000000000000000000000000000000000000000081526004016109ca90610f35565b60405180910390fd5b80600260008273ffffffffffffffffffffffffffffffffffffffff1673ffffffffffffffffffffffffffffffffffffffff16815260200190815260200160002060010160009054906101000a900460ff1615610a64576040517f08c379a0000000000000000000000000000000000000000000000000000000008152600401610a5b90610ef5565b60405180910390fd5b6000600260008473ffffffffffffffffffffffffffffffffffffffff1673ffffffffffffffffffffffffffffffffffffffff1681526020019081526020016000206000015414610ae9576040517f08c379a0000000000000000000000000000000000000000000000000000000008152600401610ae090610f95565b60405180910390fd5b6001600260008473ffffffffffffffffffffffffffffffffffffffff1673ffffffffffffffffffffffffffffffffffffffff168152602001908152602001600020600001819055505050565b60026020528060005260406000206000915090508060000154908060010160009054906101000a900460ff16908060010160019054906101000a900473ffffffffffffffffffffffffffffffffffffffff16908060020154905084565b600160009054906101000a900473ffffffffffffffffffffffffffffffffffffffff1681565b60005481565b6060610bf56003610bcd6108af565b81548110610bde57610bdd611185565b5b906000526020600020906002020160000154610c18565b905090565b60008183610c089190611071565b905092915050565b600033905090565b606081604051602001610c2b9190610e7d565b6040516020818303038152906040529050919050565b600081359050610c508161146b565b92915050565b600081359050610c6581611482565b92915050565b600060208284031215610c8157610c806111b4565b5b6000610c8f84828501610c41565b91505092915050565b600060208284031215610cae57610cad6111b4565b5b6000610cbc84828501610c56565b91505092915050565b610cce816110c7565b82525050565b610cdd816110d9565b82525050565b610cf4610cef826110e5565b61114c565b82525050565b6000610d0582611055565b610d0f8185611060565b9350610d1f818560208601611119565b610d28816111b9565b840191505092915050565b6000610d40602983611060565b9150610d4b826111ca565b604082019050919050565b6000610d63602a83611060565b9150610d6e82611219565b604082019050919050565b6000610d86600e83611060565b9150610d9182611268565b602082019050919050565b6000610da9603683611060565b9150610db482611291565b604082019050919050565b6000610dcc603183611060565b9150610dd7826112e0565b604082019050919050565b6000610def602d83611060565b9150610dfa8261132f565b604082019050919050565b6000610e12603083611060565b9150610e1d8261137e565b604082019050919050565b6000610e35602b83611060565b9150610e40826113cd565b604082019050919050565b6000610e58602f83611060565b9150610e638261141c565b604082019050919050565b610e778161110f565b82525050565b6000610e898284610ce3565b60208201915081905092915050565b6000602082019050610ead6000830184610cc5565b92915050565b60006020820190508181036000830152610ecd8184610cfa565b905092915050565b60006020820190508181036000830152610eee81610d33565b9050919050565b60006020820190508181036000830152610f0e81610d56565b9050919050565b60006020820190508181036000830152610f2e81610d79565b9050919050565b60006020820190508181036000830152610f4e81610d9c565b9050919050565b60006020820190508181036000830152610f6e81610dbf565b9050919050565b60006020820190508181036000830152610f8e81610de2565b9050919050565b60006020820190508181036000830152610fae81610e05565b9050919050565b60006020820190508181036000830152610fce81610e28565b9050919050565b60006020820190508181036000830152610fee81610e4b565b9050919050565b600060208201905061100a6000830184610e6e565b92915050565b60006080820190506110256000830187610e6e565b6110326020830186610cd4565b61103f6040830185610cc5565b61104c6060830184610e6e565b95945050505050565b600081519050919050565b600082825260208201905092915050565b600061107c8261110f565b91506110878361110f565b9250827fffffffffffffffffffffffffffffffffffffffffffffffffffffffffffffffff038211156110bc576110bb611156565b5b828201905092915050565b60006110d2826110ef565b9050919050565b60008115159050919050565b6000819050919050565b600073ffffffffffffffffffffffffffffffffffffffff82169050919050565b6000819050919050565b60005b8381101561113757808201518184015260208101905061111c565b83811115611146576000848401525b50505050565b6000819050919050565b7f4e487b7100000000000000000000000000000000000000000000000000000000600052601160045260246000fd5b7f4e487b7100000000000000000000000000000000000000000000000000000000600052603260045260246000fd5b600080fd5b6000601f19601f8301169050919050565b7f53696d706c65566f74696e673a2043616c6c657220686173206e6f207269676860008201527f7420746f20766f74650000000000000000000000000000000000000000000000602082015250565b7f53696d706c65566f74696e673a2054686520766f7465722068617320616c726560008201527f61647920766f7465642e00000000000000000000000000000000000000000000602082015250565b7f416c726561647920766f7465642e000000000000000000000000000000000000600082015250565b7f53696d706c65566f74696e673a204f6e6c79206368616972506572736f6e206360008201527f616e206769766520726967687420746f20766f74652e00000000000000000000602082015250565b7f53696d706c65566f74696e673a2043616c6c657220646f6573206e6f7420686160008201527f766520726967687420746f20766f74652e000000000000000000000000000000602082015250565b7f53696d706c65566f74696e673a2053656c662d64656c65676174696f6e20697360008201527f206e6f7420616c6c6f7765642e00000000000000000000000000000000000000602082015250565b7f53696d706c65566f74696e673a204164647265737320616c726561647920686160008201527f7320726967687420746f20766f74652e00000000000000000000000000000000602082015250565b7f53696d706c65566f74696e673a2050726f706f73616c20696e646578206f757460008201527f206f6620626f756e64732e000000000000000000000000000000000000000000602082015250565b7f53696d706c65566f74696e673a2044656c65676174696f6e207472616365732060008201527f6261636b20746f2063616c6c65722e0000000000000000000000000000000000602082015250565b611474816110c7565b811461147f57600080fd5b50565b61148b8161110f565b811461149657600080fd5b5056fea2646970667358221220feff49551cf4f5d7f88806994d13344de178c6fd075ae170fc559b96b2cba52b64736f6c63430008070033",
					"opcodes": "PUSH1 0x80 PUSH1 0x40 MSTORE CALLVALUE DUP1 ISZERO PUSH3 0x11 JUMPI PUSH1 0x0 DUP1 REVERT JUMPDEST POP PUSH1 0x40 MLOAD PUSH3 0x1BC6 CODESIZE SUB DUP1 PUSH3 0x1BC6 DUP4 CODECOPY DUP2 DUP2 ADD PUSH1 0x40 MSTORE DUP2 ADD SWAP1 PUSH3 0x37 SWAP2 SWAP1 PUSH3 0x35F JUMP JUMPDEST PUSH3 0x47 PUSH3 0x1BC PUSH1 0x20 SHL PUSH1 0x20 SHR JUMP JUMPDEST PUSH1 0x1 PUSH1 0x0 PUSH2 0x100 EXP DUP2 SLOAD DUP2 PUSH20 0xFFFFFFFFFFFFFFFFFFFFFFFFFFFFFFFFFFFFFFFF MUL NOT AND SWAP1 DUP4 PUSH20 0xFFFFFFFFFFFFFFFFFFFFFFFFFFFFFFFFFFFFFFFF AND MUL OR SWAP1 SSTORE POP PUSH1 0x1 PUSH1 0x2 PUSH1 0x0 PUSH1 0x1 PUSH1 0x0 SWAP1 SLOAD SWAP1 PUSH2 0x100 EXP SWAP1 DIV PUSH20 0xFFFFFFFFFFFFFFFFFFFFFFFFFFFFFFFFFFFFFFFF AND PUSH20 0xFFFFFFFFFFFFFFFFFFFFFFFFFFFFFFFFFFFFFFFF AND PUSH20 0xFFFFFFFFFFFFFFFFFFFFFFFFFFFFFFFFFFFFFFFF AND DUP2 MSTORE PUSH1 0x20 ADD SWAP1 DUP2 MSTORE PUSH1 0x20 ADD PUSH1 0x0 KECCAK256 PUSH1 0x0 ADD DUP2 SWAP1 SSTORE POP DUP1 MLOAD PUSH1 0x0 DUP2 SWAP1 SSTORE POP PUSH1 0x0 JUMPDEST PUSH1 0x0 SLOAD DUP2 LT ISZERO PUSH3 0x1B4 JUMPI PUSH1 0x0 PUSH1 0x40 MLOAD DUP1 PUSH1 0x40 ADD PUSH1 0x40 MSTORE DUP1 PUSH3 0x142 DUP6 DUP6 DUP2 MLOAD DUP2 LT PUSH3 0x12E JUMPI PUSH3 0x12D PUSH3 0x63B JUMP JUMPDEST JUMPDEST PUSH1 0x20 MUL PUSH1 0x20 ADD ADD MLOAD PUSH3 0x1C4 PUSH1 0x20 SHL PUSH1 0x20 SHR JUMP JUMPDEST DUP2 MSTORE PUSH1 0x20 ADD PUSH1 0x0 DUP2 MSTORE POP SWAP1 POP PUSH1 0x3 DUP2 SWAP1 DUP1 PUSH1 0x1 DUP2 SLOAD ADD DUP1 DUP3 SSTORE DUP1 SWAP2 POP POP PUSH1 0x1 SWAP1 SUB SWAP1 PUSH1 0x0 MSTORE PUSH1 0x20 PUSH1 0x0 KECCAK256 SWAP1 PUSH1 0x2 MUL ADD PUSH1 0x0 SWAP1 SWAP2 SWAP1 SWAP2 SWAP1 SWAP2 POP PUSH1 0x0 DUP3 ADD MLOAD DUP2 PUSH1 0x0 ADD SSTORE PUSH1 0x20 DUP3 ADD MLOAD DUP2 PUSH1 0x1 ADD SSTORE POP POP POP PUSH3 0x1AC PUSH1 0x1 DUP3 PUSH3 0x1FA PUSH1 0x20 SHL PUSH3 0xBFA OR SWAP1 SWAP2 SWAP1 PUSH1 0x20 SHR JUMP JUMPDEST SWAP1 POP PUSH3 0xFC JUMP JUMPDEST POP POP PUSH3 0x6E7 JUMP JUMPDEST PUSH1 0x0 CALLER SWAP1 POP SWAP1 JUMP JUMPDEST PUSH1 0x0 DUP2 PUSH1 0x40 MLOAD PUSH1 0x20 ADD PUSH3 0x1D9 SWAP2 SWAP1 PUSH3 0x3E7 JUMP JUMPDEST PUSH1 0x40 MLOAD PUSH1 0x20 DUP2 DUP4 SUB SUB DUP2 MSTORE SWAP1 PUSH1 0x40 MSTORE PUSH3 0x1F3 SWAP1 PUSH3 0x530 JUMP JUMPDEST SWAP1 POP SWAP2 SWAP1 POP JUMP JUMPDEST PUSH1 0x0 DUP2 DUP4 PUSH3 0x20A SWAP2 SWAP1 PUSH3 0x4BF JUMP JUMPDEST SWAP1 POP SWAP3 SWAP2 POP POP JUMP JUMPDEST PUSH1 0x0 PUSH3 0x229 PUSH3 0x223 DUP5 PUSH3 0x429 JUMP JUMPDEST PUSH3 0x400 JUMP JUMPDEST SWAP1 POP DUP1 DUP4 DUP3 MSTORE PUSH1 0x20 DUP3 ADD SWAP1 POP DUP3 DUP6 PUSH1 0x20 DUP7 MUL DUP3 ADD GT ISZERO PUSH3 0x24F JUMPI PUSH3 0x24E PUSH3 0x6B5 JUMP JUMPDEST JUMPDEST PUSH1 0x0 JUMPDEST DUP6 DUP2 LT ISZERO PUSH3 0x2A4 JUMPI DUP2 MLOAD PUSH8 0xFFFFFFFFFFFFFFFF DUP2 GT ISZERO PUSH3 0x279 JUMPI PUSH3 0x278 PUSH3 0x6B0 JUMP JUMPDEST JUMPDEST DUP1 DUP7 ADD PUSH3 0x288 DUP10 DUP3 PUSH3 0x32C JUMP JUMPDEST DUP6 MSTORE PUSH1 0x20 DUP6 ADD SWAP5 POP PUSH1 0x20 DUP5 ADD SWAP4 POP POP POP PUSH1 0x1 DUP2 ADD SWAP1 POP PUSH3 0x252 JUMP JUMPDEST POP POP POP SWAP4 SWAP3 POP POP POP JUMP JUMPDEST PUSH1 0x0 PUSH3 0x2C5 PUSH3 0x2BF DUP5 PUSH3 0x458 JUMP JUMPDEST PUSH3 0x400 JUMP JUMPDEST SWAP1 POP DUP3 DUP2 MSTORE PUSH1 0x20 DUP2 ADD DUP5 DUP5 DUP5 ADD GT ISZERO PUSH3 0x2E4 JUMPI PUSH3 0x2E3 PUSH3 0x6BA JUMP JUMPDEST JUMPDEST PUSH3 0x2F1 DUP5 DUP3 DUP6 PUSH3 0x5A0 JUMP JUMPDEST POP SWAP4 SWAP3 POP POP POP JUMP JUMPDEST PUSH1 0x0 DUP3 PUSH1 0x1F DUP4 ADD SLT PUSH3 0x311 JUMPI PUSH3 0x310 PUSH3 0x6B0 JUMP JUMPDEST JUMPDEST DUP2 MLOAD PUSH3 0x323 DUP5 DUP3 PUSH1 0x20 DUP7 ADD PUSH3 0x212 JUMP JUMPDEST SWAP2 POP POP SWAP3 SWAP2 POP POP JUMP JUMPDEST PUSH1 0x0 DUP3 PUSH1 0x1F DUP4 ADD SLT PUSH3 0x344 JUMPI PUSH3 0x343 PUSH3 0x6B0 JUMP JUMPDEST JUMPDEST DUP2 MLOAD PUSH3 0x356 DUP5 DUP3 PUSH1 0x20 DUP7 ADD PUSH3 0x2AE JUMP JUMPDEST SWAP2 POP POP SWAP3 SWAP2 POP POP JUMP JUMPDEST PUSH1 0x0 PUSH1 0x20 DUP3 DUP5 SUB SLT ISZERO PUSH3 0x378 JUMPI PUSH3 0x377 PUSH3 0x6C4 JUMP JUMPDEST JUMPDEST PUSH1 0x0 DUP3 ADD MLOAD PUSH8 0xFFFFFFFFFFFFFFFF DUP2 GT ISZERO PUSH3 0x399 JUMPI PUSH3 0x398 PUSH3 0x6BF JUMP JUMPDEST JUMPDEST PUSH3 0x3A7 DUP5 DUP3 DUP6 ADD PUSH3 0x2F9 JUMP JUMPDEST SWAP2 POP POP SWAP3 SWAP2 POP POP JUMP JUMPDEST PUSH1 0x0 PUSH3 0x3BD DUP3 PUSH3 0x4A9 JUMP JUMPDEST PUSH3 0x3C9 DUP2 DUP6 PUSH3 0x4B4 JUMP JUMPDEST SWAP4 POP PUSH3 0x3DB DUP2 DUP6 PUSH1 0x20 DUP7 ADD PUSH3 0x5A0 JUMP JUMPDEST DUP1 DUP5 ADD SWAP2 POP POP SWAP3 SWAP2 POP POP JUMP JUMPDEST PUSH1 0x0 PUSH3 0x3F5 DUP3 DUP5 PUSH3 0x3B0 JUMP JUMPDEST SWAP2 POP DUP2 SWAP1 POP SWAP3 SWAP2 POP POP JUMP JUMPDEST PUSH1 0x0 PUSH3 0x40C PUSH3 0x41F JUMP JUMPDEST SWAP1 POP PUSH3 0x41A DUP3 DUP3 PUSH3 0x5D6 JUMP JUMPDEST SWAP2 SWAP1 POP JUMP JUMPDEST PUSH1 0x0 PUSH1 0x40 MLOAD SWAP1 POP SWAP1 JUMP JUMPDEST PUSH1 0x0 PUSH8 0xFFFFFFFFFFFFFFFF DUP3 GT ISZERO PUSH3 0x447 JUMPI PUSH3 0x446 PUSH3 0x66A JUMP JUMPDEST JUMPDEST PUSH1 0x20 DUP3 MUL SWAP1 POP PUSH1 0x20 DUP2 ADD SWAP1 POP SWAP2 SWAP1 POP JUMP JUMPDEST PUSH1 0x0 PUSH8 0xFFFFFFFFFFFFFFFF DUP3 GT ISZERO PUSH3 0x476 JUMPI PUSH3 0x475 PUSH3 0x66A JUMP JUMPDEST JUMPDEST PUSH3 0x481 DUP3 PUSH3 0x6C9 JUMP JUMPDEST SWAP1 POP PUSH1 0x20 DUP2 ADD SWAP1 POP SWAP2 SWAP1 POP JUMP JUMPDEST PUSH1 0x0 DUP2 SWAP1 POP PUSH1 0x20 DUP3 ADD SWAP1 POP SWAP2 SWAP1 POP JUMP JUMPDEST PUSH1 0x0 DUP2 MLOAD SWAP1 POP SWAP2 SWAP1 POP JUMP JUMPDEST PUSH1 0x0 DUP2 MLOAD SWAP1 POP SWAP2 SWAP1 POP JUMP JUMPDEST PUSH1 0x0 DUP2 SWAP1 POP SWAP3 SWAP2 POP POP JUMP JUMPDEST PUSH1 0x0 PUSH3 0x4CC DUP3 PUSH3 0x526 JUMP JUMPDEST SWAP2 POP PUSH3 0x4D9 DUP4 PUSH3 0x526 JUMP JUMPDEST SWAP3 POP DUP3 PUSH32 0xFFFFFFFFFFFFFFFFFFFFFFFFFFFFFFFFFFFFFFFFFFFFFFFFFFFFFFFFFFFFFFFF SUB DUP3 GT ISZERO PUSH3 0x511 JUMPI PUSH3 0x510 PUSH3 0x60C JUMP JUMPDEST JUMPDEST DUP3 DUP3 ADD SWAP1 POP SWAP3 SWAP2 POP POP JUMP JUMPDEST PUSH1 0x0 DUP2 SWAP1 POP SWAP2 SWAP1 POP JUMP JUMPDEST PUSH1 0x0 DUP2 SWAP1 POP SWAP2 SWAP1 POP JUMP JUMPDEST PUSH1 0x0 PUSH3 0x53D DUP3 PUSH3 0x49E JUMP JUMPDEST DUP3 PUSH3 0x549 DUP5 PUSH3 0x48E JUMP JUMPDEST SWAP1 POP PUSH3 0x556 DUP2 PUSH3 0x699 JUMP JUMPDEST SWAP3 POP PUSH1 0x20 DUP3 LT ISZERO PUSH3 0x599 JUMPI PUSH3 0x594 PUSH32 0xFFFFFFFFFFFFFFFFFFFFFFFFFFFFFFFFFFFFFFFFFFFFFFFFFFFFFFFFFFFFFFFF DUP4 PUSH1 0x20 SUB PUSH1 0x8 MUL PUSH3 0x6DA JUMP JUMPDEST DUP4 AND SWAP3 POP JUMPDEST POP POP SWAP2 SWAP1 POP JUMP JUMPDEST PUSH1 0x0 JUMPDEST DUP4 DUP2 LT ISZERO PUSH3 0x5C0 JUMPI DUP1 DUP3 ADD MLOAD DUP2 DUP5 ADD MSTORE PUSH1 0x20 DUP2 ADD SWAP1 POP PUSH3 0x5A3 JUMP JUMPDEST DUP4 DUP2 GT ISZERO PUSH3 0x5D0 JUMPI PUSH1 0x0 DUP5 DUP5 ADD MSTORE JUMPDEST POP POP POP POP JUMP JUMPDEST PUSH3 0x5E1 DUP3 PUSH3 0x6C9 JUMP JUMPDEST DUP2 ADD DUP2 DUP2 LT PUSH8 0xFFFFFFFFFFFFFFFF DUP3 GT OR ISZERO PUSH3 0x603 JUMPI PUSH3 0x602 PUSH3 0x66A JUMP JUMPDEST JUMPDEST DUP1 PUSH1 0x40 MSTORE POP POP POP JUMP JUMPDEST PUSH32 0x4E487B7100000000000000000000000000000000000000000000000000000000 PUSH1 0x0 MSTORE PUSH1 0x11 PUSH1 0x4 MSTORE PUSH1 0x24 PUSH1 0x0 REVERT JUMPDEST PUSH32 0x4E487B7100000000000000000000000000000000000000000000000000000000 PUSH1 0x0 MSTORE PUSH1 0x32 PUSH1 0x4 MSTORE PUSH1 0x24 PUSH1 0x0 REVERT JUMPDEST PUSH32 0x4E487B7100000000000000000000000000000000000000000000000000000000 PUSH1 0x0 MSTORE PUSH1 0x41 PUSH1 0x4 MSTORE PUSH1 0x24 PUSH1 0x0 REVERT JUMPDEST PUSH1 0x0 PUSH3 0x6A7 DUP3 MLOAD PUSH3 0x51C JUMP JUMPDEST DUP1 SWAP2 POP POP SWAP2 SWAP1 POP JUMP JUMPDEST PUSH1 0x0 DUP1 REVERT JUMPDEST PUSH1 0x0 DUP1 REVERT JUMPDEST PUSH1 0x0 DUP1 REVERT JUMPDEST PUSH1 0x0 DUP1 REVERT JUMPDEST PUSH1 0x0 DUP1 REVERT JUMPDEST PUSH1 0x0 PUSH1 0x1F NOT PUSH1 0x1F DUP4 ADD AND SWAP1 POP SWAP2 SWAP1 POP JUMP JUMPDEST PUSH1 0x0 DUP3 DUP3 SHL SWAP1 POP SWAP3 SWAP2 POP POP JUMP JUMPDEST PUSH2 0x14CF DUP1 PUSH3 0x6F7 PUSH1 0x0 CODECOPY PUSH1 0x0 RETURN INVALID PUSH1 0x80 PUSH1 0x40 MSTORE CALLVALUE DUP1 ISZERO PUSH2 0x10 JUMPI PUSH1 0x0 DUP1 REVERT JUMPDEST POP PUSH1 0x4 CALLDATASIZE LT PUSH2 0x88 JUMPI PUSH1 0x0 CALLDATALOAD PUSH1 0xE0 SHR DUP1 PUSH4 0xA3EC138D GT PUSH2 0x5B JUMPI DUP1 PUSH4 0xA3EC138D EQ PUSH2 0xFF JUMPI DUP1 PUSH4 0xD4D4B5AC EQ PUSH2 0x132 JUMPI DUP1 PUSH4 0xDA35C664 EQ PUSH2 0x150 JUMPI DUP1 PUSH4 0xE2BA53F0 EQ PUSH2 0x16E JUMPI PUSH2 0x88 JUMP JUMPDEST DUP1 PUSH4 0x121B93F EQ PUSH2 0x8D JUMPI DUP1 PUSH4 0x5C19A95C EQ PUSH2 0xA9 JUMPI DUP1 PUSH4 0x609FF1BD EQ PUSH2 0xC5 JUMPI DUP1 PUSH4 0x9E7B8D61 EQ PUSH2 0xE3 JUMPI JUMPDEST PUSH1 0x0 DUP1 REVERT JUMPDEST PUSH2 0xA7 PUSH1 0x4 DUP1 CALLDATASIZE SUB DUP2 ADD SWAP1 PUSH2 0xA2 SWAP2 SWAP1 PUSH2 0xC98 JUMP JUMPDEST PUSH2 0x18C JUMP JUMPDEST STOP JUMPDEST PUSH2 0xC3 PUSH1 0x4 DUP1 CALLDATASIZE SUB DUP2 ADD SWAP1 PUSH2 0xBE SWAP2 SWAP1 PUSH2 0xC6B JUMP JUMPDEST PUSH2 0x39D JUMP JUMPDEST STOP JUMPDEST PUSH2 0xCD PUSH2 0x8AF JUMP JUMPDEST PUSH1 0x40 MLOAD PUSH2 0xDA SWAP2 SWAP1 PUSH2 0xFF5 JUMP JUMPDEST PUSH1 0x40 MLOAD DUP1 SWAP2 SUB SWAP1 RETURN JUMPDEST PUSH2 0xFD PUSH1 0x4 DUP1 CALLDATASIZE SUB DUP2 ADD SWAP1 PUSH2 0xF8 SWAP2 SWAP1 PUSH2 0xC6B JUMP JUMPDEST PUSH2 0x93C JUMP JUMPDEST STOP JUMPDEST PUSH2 0x119 PUSH1 0x4 DUP1 CALLDATASIZE SUB DUP2 ADD SWAP1 PUSH2 0x114 SWAP2 SWAP1 PUSH2 0xC6B JUMP JUMPDEST PUSH2 0xB35 JUMP JUMPDEST PUSH1 0x40 MLOAD PUSH2 0x129 SWAP5 SWAP4 SWAP3 SWAP2 SWAP1 PUSH2 0x1010 JUMP JUMPDEST PUSH1 0x40 MLOAD DUP1 SWAP2 SUB SWAP1 RETURN JUMPDEST PUSH2 0x13A PUSH2 0xB92 JUMP JUMPDEST PUSH1 0x40 MLOAD PUSH2 0x147 SWAP2 SWAP1 PUSH2 0xE98 JUMP JUMPDEST PUSH1 0x40 MLOAD DUP1 SWAP2 SUB SWAP1 RETURN JUMPDEST PUSH2 0x158 PUSH2 0xBB8 JUMP JUMPDEST PUSH1 0x40 MLOAD PUSH2 0x165 SWAP2 SWAP1 PUSH2 0xFF5 JUMP JUMPDEST PUSH1 0x40 MLOAD DUP1 SWAP2 SUB SWAP1 RETURN JUMPDEST PUSH2 0x176 PUSH2 0xBBE JUMP JUMPDEST PUSH1 0x40 MLOAD PUSH2 0x183 SWAP2 SWAP1 PUSH2 0xEB3 JUMP JUMPDEST PUSH1 0x40 MLOAD DUP1 SWAP2 SUB SWAP1 RETURN JUMPDEST PUSH1 0x0 PUSH1 0x2 PUSH1 0x0 PUSH2 0x19A PUSH2 0xC10 JUMP JUMPDEST PUSH20 0xFFFFFFFFFFFFFFFFFFFFFFFFFFFFFFFFFFFFFFFF AND PUSH20 0xFFFFFFFFFFFFFFFFFFFFFFFFFFFFFFFFFFFFFFFF AND DUP2 MSTORE PUSH1 0x20 ADD SWAP1 DUP2 MSTORE PUSH1 0x20 ADD PUSH1 0x0 KECCAK256 SWAP1 POP PUSH1 0x0 DUP2 PUSH1 0x0 ADD SLOAD EQ ISZERO PUSH2 0x21E JUMPI PUSH1 0x40 MLOAD PUSH32 0x8C379A000000000000000000000000000000000000000000000000000000000 DUP2 MSTORE PUSH1 0x4 ADD PUSH2 0x215 SWAP1 PUSH2 0xED5 JUMP JUMPDEST PUSH1 0x40 MLOAD DUP1 SWAP2 SUB SWAP1 REVERT JUMPDEST DUP1 PUSH1 0x1 ADD PUSH1 0x0 SWAP1 SLOAD SWAP1 PUSH2 0x100 EXP SWAP1 DIV PUSH1 0xFF AND ISZERO PUSH2 0x270 JUMPI PUSH1 0x40 MLOAD PUSH32 0x8C379A000000000000000000000000000000000000000000000000000000000 DUP2 MSTORE PUSH1 0x4 ADD PUSH2 0x267 SWAP1 PUSH2 0xF15 JUMP JUMPDEST PUSH1 0x40 MLOAD DUP1 SWAP2 SUB SWAP1 REVERT JUMPDEST PUSH1 0x0 SLOAD DUP3 LT PUSH2 0x2B4 JUMPI PUSH1 0x40 MLOAD PUSH32 0x8C379A000000000000000000000000000000000000000000000000000000000 DUP2 MSTORE PUSH1 0x4 ADD PUSH2 0x2AB SWAP1 PUSH2 0xFB5 JUMP JUMPDEST PUSH1 0x40 MLOAD DUP1 SWAP2 SUB SWAP1 REVERT JUMPDEST PUSH1 0x1 DUP2 PUSH1 0x1 ADD PUSH1 0x0 PUSH2 0x100 EXP DUP2 SLOAD DUP2 PUSH1 0xFF MUL NOT AND SWAP1 DUP4 ISZERO ISZERO MUL OR SWAP1 SSTORE POP DUP2 DUP2 PUSH1 0x2 ADD DUP2 SWAP1 SSTORE POP PUSH2 0x316 DUP2 PUSH1 0x0 ADD SLOAD PUSH1 0x3 DUP5 DUP2 SLOAD DUP2 LT PUSH2 0x2F6 JUMPI PUSH2 0x2F5 PUSH2 0x1185 JUMP JUMPDEST JUMPDEST SWAP1 PUSH1 0x0 MSTORE PUSH1 0x20 PUSH1 0x0 KECCAK256 SWAP1 PUSH1 0x2 MUL ADD PUSH1 0x1 ADD SLOAD PUSH2 0xBFA SWAP1 SWAP2 SWAP1 PUSH4 0xFFFFFFFF AND JUMP JUMPDEST PUSH1 0x3 DUP4 DUP2 SLOAD DUP2 LT PUSH2 0x32A JUMPI PUSH2 0x329 PUSH2 0x1185 JUMP JUMPDEST JUMPDEST SWAP1 PUSH1 0x0 MSTORE PUSH1 0x20 PUSH1 0x0 KECCAK256 SWAP1 PUSH1 0x2 MUL ADD PUSH1 0x1 ADD DUP2 SWAP1 SSTORE POP PUSH2 0x347 PUSH2 0xC10 JUMP JUMPDEST PUSH20 0xFFFFFFFFFFFFFFFFFFFFFFFFFFFFFFFFFFFFFFFF AND DUP3 PUSH32 0xE7EE74CA1F4BB1B82B14F87794C45B3E59C39E372B862FB97A6316B43355B69E DUP4 PUSH1 0x0 ADD SLOAD PUSH1 0x40 MLOAD PUSH2 0x391 SWAP2 SWAP1 PUSH2 0xFF5 JUMP JUMPDEST PUSH1 0x40 MLOAD DUP1 SWAP2 SUB SWAP1 LOG3 POP POP JUMP JUMPDEST PUSH2 0x3A5 PUSH2 0xC10 JUMP JUMPDEST PUSH1 0x2 PUSH1 0x0 DUP3 PUSH20 0xFFFFFFFFFFFFFFFFFFFFFFFFFFFFFFFFFFFFFFFF AND PUSH20 0xFFFFFFFFFFFFFFFFFFFFFFFFFFFFFFFFFFFFFFFF AND DUP2 MSTORE PUSH1 0x20 ADD SWAP1 DUP2 MSTORE PUSH1 0x20 ADD PUSH1 0x0 KECCAK256 PUSH1 0x1 ADD PUSH1 0x0 SWAP1 SLOAD SWAP1 PUSH2 0x100 EXP SWAP1 DIV PUSH1 0xFF AND ISZERO PUSH2 0x435 JUMPI PUSH1 0x40 MLOAD PUSH32 0x8C379A000000000000000000000000000000000000000000000000000000000 DUP2 MSTORE PUSH1 0x4 ADD PUSH2 0x42C SWAP1 PUSH2 0xEF5 JUMP JUMPDEST PUSH1 0x40 MLOAD DUP1 SWAP2 SUB SWAP1 REVERT JUMPDEST PUSH1 0x0 PUSH1 0x2 PUSH1 0x0 PUSH2 0x443 PUSH2 0xC10 JUMP JUMPDEST PUSH20 0xFFFFFFFFFFFFFFFFFFFFFFFFFFFFFFFFFFFFFFFF AND PUSH20 0xFFFFFFFFFFFFFFFFFFFFFFFFFFFFFFFFFFFFFFFF AND DUP2 MSTORE PUSH1 0x20 ADD SWAP1 DUP2 MSTORE PUSH1 0x20 ADD PUSH1 0x0 KECCAK256 PUSH1 0x0 ADD SLOAD GT PUSH2 0x4C1 JUMPI PUSH1 0x40 MLOAD PUSH32 0x8C379A000000000000000000000000000000000000000000000000000000000 DUP2 MSTORE PUSH1 0x4 ADD PUSH2 0x4B8 SWAP1 PUSH2 0xF55 JUMP JUMPDEST PUSH1 0x40 MLOAD DUP1 SWAP2 SUB SWAP1 REVERT JUMPDEST PUSH1 0x0 PUSH1 0x2 PUSH1 0x0 PUSH2 0x4CF PUSH2 0xC10 JUMP JUMPDEST PUSH20 0xFFFFFFFFFFFFFFFFFFFFFFFFFFFFFFFFFFFFFFFF AND PUSH20 0xFFFFFFFFFFFFFFFFFFFFFFFFFFFFFFFFFFFFFFFF AND DUP2 MSTORE PUSH1 0x20 ADD SWAP1 DUP2 MSTORE PUSH1 0x20 ADD PUSH1 0x0 KECCAK256 SWAP1 POP PUSH2 0x513 PUSH2 0xC10 JUMP JUMPDEST PUSH20 0xFFFFFFFFFFFFFFFFFFFFFFFFFFFFFFFFFFFFFFFF AND DUP4 PUSH20 0xFFFFFFFFFFFFFFFFFFFFFFFFFFFFFFFFFFFFFFFF AND EQ ISZERO PUSH2 0x581 JUMPI PUSH1 0x40 MLOAD PUSH32 0x8C379A000000000000000000000000000000000000000000000000000000000 DUP2 MSTORE PUSH1 0x4 ADD PUSH2 0x578 SWAP1 PUSH2 0xF75 JUMP JUMPDEST PUSH1 0x40 MLOAD DUP1 SWAP2 SUB SWAP1 REVERT JUMPDEST JUMPDEST PUSH1 0x0 PUSH20 0xFFFFFFFFFFFFFFFFFFFFFFFFFFFFFFFFFFFFFFFF AND PUSH1 0x2 PUSH1 0x0 DUP6 PUSH20 0xFFFFFFFFFFFFFFFFFFFFFFFFFFFFFFFFFFFFFFFF AND PUSH20 0xFFFFFFFFFFFFFFFFFFFFFFFFFFFFFFFFFFFFFFFF AND DUP2 MSTORE PUSH1 0x20 ADD SWAP1 DUP2 MSTORE PUSH1 0x20 ADD PUSH1 0x0 KECCAK256 PUSH1 0x1 ADD PUSH1 0x1 SWAP1 SLOAD SWAP1 PUSH2 0x100 EXP SWAP1 DIV PUSH20 0xFFFFFFFFFFFFFFFFFFFFFFFFFFFFFFFFFFFFFFFF AND PUSH20 0xFFFFFFFFFFFFFFFFFFFFFFFFFFFFFFFFFFFFFFFF AND EQ PUSH2 0x6F8 JUMPI PUSH1 0x2 PUSH1 0x0 DUP5 PUSH20 0xFFFFFFFFFFFFFFFFFFFFFFFFFFFFFFFFFFFFFFFF AND PUSH20 0xFFFFFFFFFFFFFFFFFFFFFFFFFFFFFFFFFFFFFFFF AND DUP2 MSTORE PUSH1 0x20 ADD SWAP1 DUP2 MSTORE PUSH1 0x20 ADD PUSH1 0x0 KECCAK256 PUSH1 0x1 ADD PUSH1 0x1 SWAP1 SLOAD SWAP1 PUSH2 0x100 EXP SWAP1 DIV PUSH20 0xFFFFFFFFFFFFFFFFFFFFFFFFFFFFFFFFFFFFFFFF AND SWAP3 POP PUSH2 0x685 PUSH2 0xC10 JUMP JUMPDEST PUSH20 0xFFFFFFFFFFFFFFFFFFFFFFFFFFFFFFFFFFFFFFFF AND DUP4 PUSH20 0xFFFFFFFFFFFFFFFFFFFFFFFFFFFFFFFFFFFFFFFF AND EQ ISZERO PUSH2 0x6F3 JUMPI PUSH1 0x40 MLOAD PUSH32 0x8C379A000000000000000000000000000000000000000000000000000000000 DUP2 MSTORE PUSH1 0x4 ADD PUSH2 0x6EA SWAP1 PUSH2 0xFD5 JUMP JUMPDEST PUSH1 0x40 MLOAD DUP1 SWAP2 SUB SWAP1 REVERT JUMPDEST PUSH2 0x582 JUMP JUMPDEST PUSH1 0x1 DUP2 PUSH1 0x1 ADD PUSH1 0x0 PUSH2 0x100 EXP DUP2 SLOAD DUP2 PUSH1 0xFF MUL NOT AND SWAP1 DUP4 ISZERO ISZERO MUL OR SWAP1 SSTORE POP DUP3 DUP2 PUSH1 0x1 ADD PUSH1 0x1 PUSH2 0x100 EXP DUP2 SLOAD DUP2 PUSH20 0xFFFFFFFFFFFFFFFFFFFFFFFFFFFFFFFFFFFFFFFF MUL NOT AND SWAP1 DUP4 PUSH20 0xFFFFFFFFFFFFFFFFFFFFFFFFFFFFFFFFFFFFFFFF AND MUL OR SWAP1 SSTORE POP PUSH1 0x0 PUSH1 0x2 PUSH1 0x0 DUP6 PUSH20 0xFFFFFFFFFFFFFFFFFFFFFFFFFFFFFFFFFFFFFFFF AND PUSH20 0xFFFFFFFFFFFFFFFFFFFFFFFFFFFFFFFFFFFFFFFF AND DUP2 MSTORE PUSH1 0x20 ADD SWAP1 DUP2 MSTORE PUSH1 0x20 ADD PUSH1 0x0 KECCAK256 SWAP1 POP DUP1 PUSH1 0x1 ADD PUSH1 0x0 SWAP1 SLOAD SWAP1 PUSH2 0x100 EXP SWAP1 DIV PUSH1 0xFF AND ISZERO PUSH2 0x824 JUMPI PUSH2 0x7F2 DUP3 PUSH1 0x0 ADD SLOAD PUSH1 0x3 DUP4 PUSH1 0x2 ADD SLOAD DUP2 SLOAD DUP2 LT PUSH2 0x7D2 JUMPI PUSH2 0x7D1 PUSH2 0x1185 JUMP JUMPDEST JUMPDEST SWAP1 PUSH1 0x0 MSTORE PUSH1 0x20 PUSH1 0x0 KECCAK256 SWAP1 PUSH1 0x2 MUL ADD PUSH1 0x1 ADD SLOAD PUSH2 0xBFA SWAP1 SWAP2 SWAP1 PUSH4 0xFFFFFFFF AND JUMP JUMPDEST PUSH1 0x3 DUP3 PUSH1 0x2 ADD SLOAD DUP2 SLOAD DUP2 LT PUSH2 0x80A JUMPI PUSH2 0x809 PUSH2 0x1185 JUMP JUMPDEST JUMPDEST SWAP1 PUSH1 0x0 MSTORE PUSH1 0x20 PUSH1 0x0 KECCAK256 SWAP1 PUSH1 0x2 MUL ADD PUSH1 0x1 ADD DUP2 SWAP1 SSTORE POP PUSH2 0x848 JUMP JUMPDEST PUSH2 0x83F DUP3 PUSH1 0x0 ADD SLOAD DUP3 PUSH1 0x0 ADD SLOAD PUSH2 0xBFA SWAP1 SWAP2 SWAP1 PUSH4 0xFFFFFFFF AND JUMP JUMPDEST DUP2 PUSH1 0x0 ADD DUP2 SWAP1 SSTORE POP JUMPDEST DUP4 PUSH20 0xFFFFFFFFFFFFFFFFFFFFFFFFFFFFFFFFFFFFFFFF AND PUSH2 0x867 PUSH2 0xC10 JUMP JUMPDEST PUSH20 0xFFFFFFFFFFFFFFFFFFFFFFFFFFFFFFFFFFFFFFFF AND PUSH32 0x4CE9EF2C99D761D69230B0E3381F4C6016333B2E27D32B3E379A96B5D2C69232 PUSH1 0x40 MLOAD PUSH1 0x40 MLOAD DUP1 SWAP2 SUB SWAP1 LOG3 POP POP POP POP JUMP JUMPDEST PUSH1 0x0 DUP1 PUSH1 0x0 SWAP1 POP PUSH1 0x0 JUMPDEST PUSH1 0x0 SLOAD DUP2 LT ISZERO PUSH2 0x937 JUMPI DUP2 PUSH1 0x3 DUP3 DUP2 SLOAD DUP2 LT PUSH2 0x8D8 JUMPI PUSH2 0x8D7 PUSH2 0x1185 JUMP JUMPDEST JUMPDEST SWAP1 PUSH1 0x0 MSTORE PUSH1 0x20 PUSH1 0x0 KECCAK256 SWAP1 PUSH1 0x2 MUL ADD PUSH1 0x1 ADD SLOAD GT ISZERO PUSH2 0x91C JUMPI PUSH1 0x3 DUP2 DUP2 SLOAD DUP2 LT PUSH2 0x904 JUMPI PUSH2 0x903 PUSH2 0x1185 JUMP JUMPDEST JUMPDEST SWAP1 PUSH1 0x0 MSTORE PUSH1 0x20 PUSH1 0x0 KECCAK256 SWAP1 PUSH1 0x2 MUL ADD PUSH1 0x1 ADD SLOAD SWAP2 POP DUP1 SWAP3 POP JUMPDEST PUSH2 0x930 PUSH1 0x1 DUP3 PUSH2 0xBFA SWAP1 SWAP2 SWAP1 PUSH4 0xFFFFFFFF AND JUMP JUMPDEST SWAP1 POP PUSH2 0x8B9 JUMP JUMPDEST POP POP SWAP1 JUMP JUMPDEST PUSH1 0x1 PUSH1 0x0 SWAP1 SLOAD SWAP1 PUSH2 0x100 EXP SWAP1 DIV PUSH20 0xFFFFFFFFFFFFFFFFFFFFFFFFFFFFFFFFFFFFFFFF AND PUSH20 0xFFFFFFFFFFFFFFFFFFFFFFFFFFFFFFFFFFFFFFFF AND PUSH2 0x97D PUSH2 0xC10 JUMP JUMPDEST PUSH20 0xFFFFFFFFFFFFFFFFFFFFFFFFFFFFFFFFFFFFFFFF AND EQ PUSH2 0x9D3 JUMPI PUSH1 0x40 MLOAD PUSH32 0x8C379A000000000000000000000000000000000000000000000000000000000 DUP2 MSTORE PUSH1 0x4 ADD PUSH2 0x9CA SWAP1 PUSH2 0xF35 JUMP JUMPDEST PUSH1 0x40 MLOAD DUP1 SWAP2 SUB SWAP1 REVERT JUMPDEST DUP1 PUSH1 0x2 PUSH1 0x0 DUP3 PUSH20 0xFFFFFFFFFFFFFFFFFFFFFFFFFFFFFFFFFFFFFFFF AND PUSH20 0xFFFFFFFFFFFFFFFFFFFFFFFFFFFFFFFFFFFFFFFF AND DUP2 MSTORE PUSH1 0x20 ADD SWAP1 DUP2 MSTORE PUSH1 0x20 ADD PUSH1 0x0 KECCAK256 PUSH1 0x1 ADD PUSH1 0x0 SWAP1 SLOAD SWAP1 PUSH2 0x100 EXP SWAP1 DIV PUSH1 0xFF AND ISZERO PUSH2 0xA64 JUMPI PUSH1 0x40 MLOAD PUSH32 0x8C379A000000000000000000000000000000000000000000000000000000000 DUP2 MSTORE PUSH1 0x4 ADD PUSH2 0xA5B SWAP1 PUSH2 0xEF5 JUMP JUMPDEST PUSH1 0x40 MLOAD DUP1 SWAP2 SUB SWAP1 REVERT JUMPDEST PUSH1 0x0 PUSH1 0x2 PUSH1 0x0 DUP5 PUSH20 0xFFFFFFFFFFFFFFFFFFFFFFFFFFFFFFFFFFFFFFFF AND PUSH20 0xFFFFFFFFFFFFFFFFFFFFFFFFFFFFFFFFFFFFFFFF AND DUP2 MSTORE PUSH1 0x20 ADD SWAP1 DUP2 MSTORE PUSH1 0x20 ADD PUSH1 0x0 KECCAK256 PUSH1 0x0 ADD SLOAD EQ PUSH2 0xAE9 JUMPI PUSH1 0x40 MLOAD PUSH32 0x8C379A000000000000000000000000000000000000000000000000000000000 DUP2 MSTORE PUSH1 0x4 ADD PUSH2 0xAE0 SWAP1 PUSH2 0xF95 JUMP JUMPDEST PUSH1 0x40 MLOAD DUP1 SWAP2 SUB SWAP1 REVERT JUMPDEST PUSH1 0x1 PUSH1 0x2 PUSH1 0x0 DUP5 PUSH20 0xFFFFFFFFFFFFFFFFFFFFFFFFFFFFFFFFFFFFFFFF AND PUSH20 0xFFFFFFFFFFFFFFFFFFFFFFFFFFFFFFFFFFFFFFFF AND DUP2 MSTORE PUSH1 0x20 ADD SWAP1 DUP2 MSTORE PUSH1 0x20 ADD PUSH1 0x0 KECCAK256 PUSH1 0x0 ADD DUP2 SWAP1 SSTORE POP POP POP JUMP JUMPDEST PUSH1 0x2 PUSH1 0x20 MSTORE DUP1 PUSH1 0x0 MSTORE PUSH1 0x40 PUSH1 0x0 KECCAK256 PUSH1 0x0 SWAP2 POP SWAP1 POP DUP1 PUSH1 0x0 ADD SLOAD SWAP1 DUP1 PUSH1 0x1 ADD PUSH1 0x0 SWAP1 SLOAD SWAP1 PUSH2 0x100 EXP SWAP1 DIV PUSH1 0xFF AND SWAP1 DUP1 PUSH1 0x1 ADD PUSH1 0x1 SWAP1 SLOAD SWAP1 PUSH2 0x100 EXP SWAP1 DIV PUSH20 0xFFFFFFFFFFFFFFFFFFFFFFFFFFFFFFFFFFFFFFFF AND SWAP1 DUP1 PUSH1 0x2 ADD SLOAD SWAP1 POP DUP5 JUMP JUMPDEST PUSH1 0x1 PUSH1 0x0 SWAP1 SLOAD SWAP1 PUSH2 0x100 EXP SWAP1 DIV PUSH20 0xFFFFFFFFFFFFFFFFFFFFFFFFFFFFFFFFFFFFFFFF AND DUP2 JUMP JUMPDEST PUSH1 0x0 SLOAD DUP2 JUMP JUMPDEST PUSH1 0x60 PUSH2 0xBF5 PUSH1 0x3 PUSH2 0xBCD PUSH2 0x8AF JUMP JUMPDEST DUP2 SLOAD DUP2 LT PUSH2 0xBDE JUMPI PUSH2 0xBDD PUSH2 0x1185 JUMP JUMPDEST JUMPDEST SWAP1 PUSH1 0x0 MSTORE PUSH1 0x20 PUSH1 0x0 KECCAK256 SWAP1 PUSH1 0x2 MUL ADD PUSH1 0x0 ADD SLOAD PUSH2 0xC18 JUMP JUMPDEST SWAP1 POP SWAP1 JUMP JUMPDEST PUSH1 0x0 DUP2 DUP4 PUSH2 0xC08 SWAP2 SWAP1 PUSH2 0x1071 JUMP JUMPDEST SWAP1 POP SWAP3 SWAP2 POP POP JUMP JUMPDEST PUSH1 0x0 CALLER SWAP1 POP SWAP1 JUMP JUMPDEST PUSH1 0x60 DUP2 PUSH1 0x40 MLOAD PUSH1 0x20 ADD PUSH2 0xC2B SWAP2 SWAP1 PUSH2 0xE7D JUMP JUMPDEST PUSH1 0x40 MLOAD PUSH1 0x20 DUP2 DUP4 SUB SUB DUP2 MSTORE SWAP1 PUSH1 0x40 MSTORE SWAP1 POP SWAP2 SWAP1 POP JUMP JUMPDEST PUSH1 0x0 DUP2 CALLDATALOAD SWAP1 POP PUSH2 0xC50 DUP2 PUSH2 0x146B JUMP JUMPDEST SWAP3 SWAP2 POP POP JUMP JUMPDEST PUSH1 0x0 DUP2 CALLDATALOAD SWAP1 POP PUSH2 0xC65 DUP2 PUSH2 0x1482 JUMP JUMPDEST SWAP3 SWAP2 POP POP JUMP JUMPDEST PUSH1 0x0 PUSH1 0x20 DUP3 DUP5 SUB SLT ISZERO PUSH2 0xC81 JUMPI PUSH2 0xC80 PUSH2 0x11B4 JUMP JUMPDEST JUMPDEST PUSH1 0x0 PUSH2 0xC8F DUP5 DUP3 DUP6 ADD PUSH2 0xC41 JUMP JUMPDEST SWAP2 POP POP SWAP3 SWAP2 POP POP JUMP JUMPDEST PUSH1 0x0 PUSH1 0x20 DUP3 DUP5 SUB SLT ISZERO PUSH2 0xCAE JUMPI PUSH2 0xCAD PUSH2 0x11B4 JUMP JUMPDEST JUMPDEST PUSH1 0x0 PUSH2 0xCBC DUP5 DUP3 DUP6 ADD PUSH2 0xC56 JUMP JUMPDEST SWAP2 POP POP SWAP3 SWAP2 POP POP JUMP JUMPDEST PUSH2 0xCCE DUP2 PUSH2 0x10C7 JUMP JUMPDEST DUP3 MSTORE POP POP JUMP JUMPDEST PUSH2 0xCDD DUP2 PUSH2 0x10D9 JUMP JUMPDEST DUP3 MSTORE POP POP JUMP JUMPDEST PUSH2 0xCF4 PUSH2 0xCEF DUP3 PUSH2 0x10E5 JUMP JUMPDEST PUSH2 0x114C JUMP JUMPDEST DUP3 MSTORE POP POP JUMP JUMPDEST PUSH1 0x0 PUSH2 0xD05 DUP3 PUSH2 0x1055 JUMP JUMPDEST PUSH2 0xD0F DUP2 DUP6 PUSH2 0x1060 JUMP JUMPDEST SWAP4 POP PUSH2 0xD1F DUP2 DUP6 PUSH1 0x20 DUP7 ADD PUSH2 0x1119 JUMP JUMPDEST PUSH2 0xD28 DUP2 PUSH2 0x11B9 JUMP JUMPDEST DUP5 ADD SWAP2 POP POP SWAP3 SWAP2 POP POP JUMP JUMPDEST PUSH1 0x0 PUSH2 0xD40 PUSH1 0x29 DUP4 PUSH2 0x1060 JUMP JUMPDEST SWAP2 POP PUSH2 0xD4B DUP3 PUSH2 0x11CA JUMP JUMPDEST PUSH1 0x40 DUP3 ADD SWAP1 POP SWAP2 SWAP1 POP JUMP JUMPDEST PUSH1 0x0 PUSH2 0xD63 PUSH1 0x2A DUP4 PUSH2 0x1060 JUMP JUMPDEST SWAP2 POP PUSH2 0xD6E DUP3 PUSH2 0x1219 JUMP JUMPDEST PUSH1 0x40 DUP3 ADD SWAP1 POP SWAP2 SWAP1 POP JUMP JUMPDEST PUSH1 0x0 PUSH2 0xD86 PUSH1 0xE DUP4 PUSH2 0x1060 JUMP JUMPDEST SWAP2 POP PUSH2 0xD91 DUP3 PUSH2 0x1268 JUMP JUMPDEST PUSH1 0x20 DUP3 ADD SWAP1 POP SWAP2 SWAP1 POP JUMP JUMPDEST PUSH1 0x0 PUSH2 0xDA9 PUSH1 0x36 DUP4 PUSH2 0x1060 JUMP JUMPDEST SWAP2 POP PUSH2 0xDB4 DUP3 PUSH2 0x1291 JUMP JUMPDEST PUSH1 0x40 DUP3 ADD SWAP1 POP SWAP2 SWAP1 POP JUMP JUMPDEST PUSH1 0x0 PUSH2 0xDCC PUSH1 0x31 DUP4 PUSH2 0x1060 JUMP JUMPDEST SWAP2 POP PUSH2 0xDD7 DUP3 PUSH2 0x12E0 JUMP JUMPDEST PUSH1 0x40 DUP3 ADD SWAP1 POP SWAP2 SWAP1 POP JUMP JUMPDEST PUSH1 0x0 PUSH2 0xDEF PUSH1 0x2D DUP4 PUSH2 0x1060 JUMP JUMPDEST SWAP2 POP PUSH2 0xDFA DUP3 PUSH2 0x132F JUMP JUMPDEST PUSH1 0x40 DUP3 ADD SWAP1 POP SWAP2 SWAP1 POP JUMP JUMPDEST PUSH1 0x0 PUSH2 0xE12 PUSH1 0x30 DUP4 PUSH2 0x1060 JUMP JUMPDEST SWAP2 POP PUSH2 0xE1D DUP3 PUSH2 0x137E JUMP JUMPDEST PUSH1 0x40 DUP3 ADD SWAP1 POP SWAP2 SWAP1 POP JUMP JUMPDEST PUSH1 0x0 PUSH2 0xE35 PUSH1 0x2B DUP4 PUSH2 0x1060 JUMP JUMPDEST SWAP2 POP PUSH2 0xE40 DUP3 PUSH2 0x13CD JUMP JUMPDEST PUSH1 0x40 DUP3 ADD SWAP1 POP SWAP2 SWAP1 POP JUMP JUMPDEST PUSH1 0x0 PUSH2 0xE58 PUSH1 0x2F DUP4 PUSH2 0x1060 JUMP JUMPDEST SWAP2 POP PUSH2 0xE63 DUP3 PUSH2 0x141C JUMP JUMPDEST PUSH1 0x40 DUP3 ADD SWAP1 POP SWAP2 SWAP1 POP JUMP JUMPDEST PUSH2 0xE77 DUP2 PUSH2 0x110F JUMP JUMPDEST DUP3 MSTORE POP POP JUMP JUMPDEST PUSH1 0x0 PUSH2 0xE89 DUP3 DUP5 PUSH2 0xCE3 JUMP JUMPDEST PUSH1 0x20 DUP3 ADD SWAP2 POP DUP2 SWAP1 POP SWAP3 SWAP2 POP POP JUMP JUMPDEST PUSH1 0x0 PUSH1 0x20 DUP3 ADD SWAP1 POP PUSH2 0xEAD PUSH1 0x0 DUP4 ADD DUP5 PUSH2 0xCC5 JUMP JUMPDEST SWAP3 SWAP2 POP POP JUMP JUMPDEST PUSH1 0x0 PUSH1 0x20 DUP3 ADD SWAP1 POP DUP2 DUP2 SUB PUSH1 0x0 DUP4 ADD MSTORE PUSH2 0xECD DUP2 DUP5 PUSH2 0xCFA JUMP JUMPDEST SWAP1 POP SWAP3 SWAP2 POP POP JUMP JUMPDEST PUSH1 0x0 PUSH1 0x20 DUP3 ADD SWAP1 POP DUP2 DUP2 SUB PUSH1 0x0 DUP4 ADD MSTORE PUSH2 0xEEE DUP2 PUSH2 0xD33 JUMP JUMPDEST SWAP1 POP SWAP2 SWAP1 POP JUMP JUMPDEST PUSH1 0x0 PUSH1 0x20 DUP3 ADD SWAP1 POP DUP2 DUP2 SUB PUSH1 0x0 DUP4 ADD MSTORE PUSH2 0xF0E DUP2 PUSH2 0xD56 JUMP JUMPDEST SWAP1 POP SWAP2 SWAP1 POP JUMP JUMPDEST PUSH1 0x0 PUSH1 0x20 DUP3 ADD SWAP1 POP DUP2 DUP2 SUB PUSH1 0x0 DUP4 ADD MSTORE PUSH2 0xF2E DUP2 PUSH2 0xD79 JUMP JUMPDEST SWAP1 POP SWAP2 SWAP1 POP JUMP JUMPDEST PUSH1 0x0 PUSH1 0x20 DUP3 ADD SWAP1 POP DUP2 DUP2 SUB PUSH1 0x0 DUP4 ADD MSTORE PUSH2 0xF4E DUP2 PUSH2 0xD9C JUMP JUMPDEST SWAP1 POP SWAP2 SWAP1 POP JUMP JUMPDEST PUSH1 0x0 PUSH1 0x20 DUP3 ADD SWAP1 POP DUP2 DUP2 SUB PUSH1 0x0 DUP4 ADD MSTORE PUSH2 0xF6E DUP2 PUSH2 0xDBF JUMP JUMPDEST SWAP1 POP SWAP2 SWAP1 POP JUMP JUMPDEST PUSH1 0x0 PUSH1 0x20 DUP3 ADD SWAP1 POP DUP2 DUP2 SUB PUSH1 0x0 DUP4 ADD MSTORE PUSH2 0xF8E DUP2 PUSH2 0xDE2 JUMP JUMPDEST SWAP1 POP SWAP2 SWAP1 POP JUMP JUMPDEST PUSH1 0x0 PUSH1 0x20 DUP3 ADD SWAP1 POP DUP2 DUP2 SUB PUSH1 0x0 DUP4 ADD MSTORE PUSH2 0xFAE DUP2 PUSH2 0xE05 JUMP JUMPDEST SWAP1 POP SWAP2 SWAP1 POP JUMP JUMPDEST PUSH1 0x0 PUSH1 0x20 DUP3 ADD SWAP1 POP DUP2 DUP2 SUB PUSH1 0x0 DUP4 ADD MSTORE PUSH2 0xFCE DUP2 PUSH2 0xE28 JUMP JUMPDEST SWAP1 POP SWAP2 SWAP1 POP JUMP JUMPDEST PUSH1 0x0 PUSH1 0x20 DUP3 ADD SWAP1 POP DUP2 DUP2 SUB PUSH1 0x0 DUP4 ADD MSTORE PUSH2 0xFEE DUP2 PUSH2 0xE4B JUMP JUMPDEST SWAP1 POP SWAP2 SWAP1 POP JUMP JUMPDEST PUSH1 0x0 PUSH1 0x20 DUP3 ADD SWAP1 POP PUSH2 0x100A PUSH1 0x0 DUP4 ADD DUP5 PUSH2 0xE6E JUMP JUMPDEST SWAP3 SWAP2 POP POP JUMP JUMPDEST PUSH1 0x0 PUSH1 0x80 DUP3 ADD SWAP1 POP PUSH2 0x1025 PUSH1 0x0 DUP4 ADD DUP8 PUSH2 0xE6E JUMP JUMPDEST PUSH2 0x1032 PUSH1 0x20 DUP4 ADD DUP7 PUSH2 0xCD4 JUMP JUMPDEST PUSH2 0x103F PUSH1 0x40 DUP4 ADD DUP6 PUSH2 0xCC5 JUMP JUMPDEST PUSH2 0x104C PUSH1 0x60 DUP4 ADD DUP5 PUSH2 0xE6E JUMP JUMPDEST SWAP6 SWAP5 POP POP POP POP POP JUMP JUMPDEST PUSH1 0x0 DUP2 MLOAD SWAP1 POP SWAP2 SWAP1 POP JUMP JUMPDEST PUSH1 0x0 DUP3 DUP3 MSTORE PUSH1 0x20 DUP3 ADD SWAP1 POP SWAP3 SWAP2 POP POP JUMP JUMPDEST PUSH1 0x0 PUSH2 0x107C DUP3 PUSH2 0x110F JUMP JUMPDEST SWAP2 POP PUSH2 0x1087 DUP4 PUSH2 0x110F JUMP JUMPDEST SWAP3 POP DUP3 PUSH32 0xFFFFFFFFFFFFFFFFFFFFFFFFFFFFFFFFFFFFFFFFFFFFFFFFFFFFFFFFFFFFFFFF SUB DUP3 GT ISZERO PUSH2 0x10BC JUMPI PUSH2 0x10BB PUSH2 0x1156 JUMP JUMPDEST JUMPDEST DUP3 DUP3 ADD SWAP1 POP SWAP3 SWAP2 POP POP JUMP JUMPDEST PUSH1 0x0 PUSH2 0x10D2 DUP3 PUSH2 0x10EF JUMP JUMPDEST SWAP1 POP SWAP2 SWAP1 POP JUMP JUMPDEST PUSH1 0x0 DUP2 ISZERO ISZERO SWAP1 POP SWAP2 SWAP1 POP JUMP JUMPDEST PUSH1 0x0 DUP2 SWAP1 POP SWAP2 SWAP1 POP JUMP JUMPDEST PUSH1 0x0 PUSH20 0xFFFFFFFFFFFFFFFFFFFFFFFFFFFFFFFFFFFFFFFF DUP3 AND SWAP1 POP SWAP2 SWAP1 POP JUMP JUMPDEST PUSH1 0x0 DUP2 SWAP1 POP SWAP2 SWAP1 POP JUMP JUMPDEST PUSH1 0x0 JUMPDEST DUP4 DUP2 LT ISZERO PUSH2 0x1137 JUMPI DUP1 DUP3 ADD MLOAD DUP2 DUP5 ADD MSTORE PUSH1 0x20 DUP2 ADD SWAP1 POP PUSH2 0x111C JUMP JUMPDEST DUP4 DUP2 GT ISZERO PUSH2 0x1146 JUMPI PUSH1 0x0 DUP5 DUP5 ADD MSTORE JUMPDEST POP POP POP POP JUMP JUMPDEST PUSH1 0x0 DUP2 SWAP1 POP SWAP2 SWAP1 POP JUMP JUMPDEST PUSH32 0x4E487B7100000000000000000000000000000000000000000000000000000000 PUSH1 0x0 MSTORE PUSH1 0x11 PUSH1 0x4 MSTORE PUSH1 0x24 PUSH1 0x0 REVERT JUMPDEST PUSH32 0x4E487B7100000000000000000000000000000000000000000000000000000000 PUSH1 0x0 MSTORE PUSH1 0x32 PUSH1 0x4 MSTORE PUSH1 0x24 PUSH1 0x0 REVERT JUMPDEST PUSH1 0x0 DUP1 REVERT JUMPDEST PUSH1 0x0 PUSH1 0x1F NOT PUSH1 0x1F DUP4 ADD AND SWAP1 POP SWAP2 SWAP1 POP JUMP JUMPDEST PUSH32 0x53696D706C65566F74696E673A2043616C6C657220686173206E6F2072696768 PUSH1 0x0 DUP3 ADD MSTORE PUSH32 0x7420746F20766F74650000000000000000000000000000000000000000000000 PUSH1 0x20 DUP3 ADD MSTORE POP JUMP JUMPDEST PUSH32 0x53696D706C65566F74696E673A2054686520766F7465722068617320616C7265 PUSH1 0x0 DUP3 ADD MSTORE PUSH32 0x61647920766F7465642E00000000000000000000000000000000000000000000 PUSH1 0x20 DUP3 ADD MSTORE POP JUMP JUMPDEST PUSH32 0x416C726561647920766F7465642E000000000000000000000000000000000000 PUSH1 0x0 DUP3 ADD MSTORE POP JUMP JUMPDEST PUSH32 0x53696D706C65566F74696E673A204F6E6C79206368616972506572736F6E2063 PUSH1 0x0 DUP3 ADD MSTORE PUSH32 0x616E206769766520726967687420746F20766F74652E00000000000000000000 PUSH1 0x20 DUP3 ADD MSTORE POP JUMP JUMPDEST PUSH32 0x53696D706C65566F74696E673A2043616C6C657220646F6573206E6F74206861 PUSH1 0x0 DUP3 ADD MSTORE PUSH32 0x766520726967687420746F20766F74652E000000000000000000000000000000 PUSH1 0x20 DUP3 ADD MSTORE POP JUMP JUMPDEST PUSH32 0x53696D706C65566F74696E673A2053656C662D64656C65676174696F6E206973 PUSH1 0x0 DUP3 ADD MSTORE PUSH32 0x206E6F7420616C6C6F7765642E00000000000000000000000000000000000000 PUSH1 0x20 DUP3 ADD MSTORE POP JUMP JUMPDEST PUSH32 0x53696D706C65566F74696E673A204164647265737320616C7265616479206861 PUSH1 0x0 DUP3 ADD MSTORE PUSH32 0x7320726967687420746F20766F74652E00000000000000000000000000000000 PUSH1 0x20 DUP3 ADD MSTORE POP JUMP JUMPDEST PUSH32 0x53696D706C65566F74696E673A2050726F706F73616C20696E646578206F7574 PUSH1 0x0 DUP3 ADD MSTORE PUSH32 0x206F6620626F756E64732E000000000000000000000000000000000000000000 PUSH1 0x20 DUP3 ADD MSTORE POP JUMP JUMPDEST PUSH32 0x53696D706C65566F74696E673A2044656C65676174696F6E2074726163657320 PUSH1 0x0 DUP3 ADD MSTORE PUSH32 0x6261636B20746F2063616C6C65722E0000000000000000000000000000000000 PUSH1 0x20 DUP3 ADD MSTORE POP JUMP JUMPDEST PUSH2 0x1474 DUP2 PUSH2 0x10C7 JUMP JUMPDEST DUP2 EQ PUSH2 0x147F JUMPI PUSH1 0x0 DUP1 REVERT JUMPDEST POP JUMP JUMPDEST PUSH2 0x148B DUP2 PUSH2 0x110F JUMP JUMPDEST DUP2 EQ PUSH2 0x1496 JUMPI PUSH1 0x0 DUP1 REVERT JUMPDEST POP JUMP INVALID LOG2 PUSH5 0x6970667358 0x22 SLT KECCAK256 INVALID SELFDESTRUCT 0x49 SSTORE SHR DELEGATECALL CREATE2 0xD7 0xF8 DUP9 MOD SWAP10 0x4D SGT CALLVALUE 0x4D 0xE1 PUSH25 0xC6FD075AE170FC559B96B2CBA52B64736F6C63430008070033 "
				},
				"gasEstimates": {
					"creation": {
						"codeDepositCost": "1065400",
						"executionCost": "infinite",
						"totalCost": "infinite"
					},
					"external": {
						"chairPerson()": "2536",
						"delegate(address)": "infinite",
						"giveRightToVote(address)": "29413",
						"proposalCount()": "2473",
						"vote(uint256)": "infinite",
						"voters(address)": "infinite",
						"winnerName()": "infinite",
						"winningProposal()": "infinite"
					},
					"internal": {
						"bytes32ToString(bytes32)": "infinite",
						"stringToBytes32(string memory)": "infinite"
					}
				},
				"methodIdentifiers": {
					"chairPerson()": "d4d4b5ac",
					"delegate(address)": "5c19a95c",
					"giveRightToVote(address)": "9e7b8d61",
					"proposalCount()": "da35c664",
					"vote(uint256)": "0121b93f",
					"voters(address)": "a3ec138d",
					"winnerName()": "e2ba53f0",
					"winningProposal()": "609ff1bd"
				}
			},
			"storageLayout": {
				"storage": [
					{
						"astId": 25,
						"contract": "contracts/SimpleVoting.sol:SimpleVoting",
						"label": "proposalCount",
						"offset": 0,
						"slot": "0",
						"type": "t_uint256"
					},
					{
						"astId": 27,
						"contract": "contracts/SimpleVoting.sol:SimpleVoting",
						"label": "chairPerson",
						"offset": 0,
						"slot": "1",
						"type": "t_address"
					},
					{
						"astId": 32,
						"contract": "contracts/SimpleVoting.sol:SimpleVoting",
						"label": "voters",
						"offset": 0,
						"slot": "2",
						"type": "t_mapping(t_address,t_struct(Voter)18_storage)"
					},
					{
						"astId": 36,
						"contract": "contracts/SimpleVoting.sol:SimpleVoting",
						"label": "proposals",
						"offset": 0,
						"slot": "3",
						"type": "t_array(t_struct(Proposal)23_storage)dyn_storage"
					}
				],
				"types": {
					"t_address": {
						"encoding": "inplace",
						"label": "address",
						"numberOfBytes": "20"
					},
					"t_array(t_struct(Proposal)23_storage)dyn_storage": {
						"base": "t_struct(Proposal)23_storage",
						"encoding": "dynamic_array",
						"label": "struct SimpleVoting.Proposal[]",
						"numberOfBytes": "32"
					},
					"t_bool": {
						"encoding": "inplace",
						"label": "bool",
						"numberOfBytes": "1"
					},
					"t_bytes32": {
						"encoding": "inplace",
						"label": "bytes32",
						"numberOfBytes": "32"
					},
					"t_mapping(t_address,t_struct(Voter)18_storage)": {
						"encoding": "mapping",
						"key": "t_address",
						"label": "mapping(address => struct SimpleVoting.Voter)",
						"numberOfBytes": "32",
						"value": "t_struct(Voter)18_storage"
					},
					"t_struct(Proposal)23_storage": {
						"encoding": "inplace",
						"label": "struct SimpleVoting.Proposal",
						"members": [
							{
								"astId": 20,
								"contract": "contracts/SimpleVoting.sol:SimpleVoting",
								"label": "name",
								"offset": 0,
								"slot": "0",
								"type": "t_bytes32"
							},
							{
								"astId": 22,
								"contract": "contracts/SimpleVoting.sol:SimpleVoting",
								"label": "voteCount",
								"offset": 0,
								"slot": "1",
								"type": "t_uint256"
							}
						],
						"numberOfBytes": "64"
					},
					"t_struct(Voter)18_storage": {
						"encoding": "inplace",
						"label": "struct SimpleVoting.Voter",
						"members": [
							{
								"astId": 11,
								"contract": "contracts/SimpleVoting.sol:SimpleVoting",
								"label": "weight",
								"offset": 0,
								"slot": "0",
								"type": "t_uint256"
							},
							{
								"astId": 13,
								"contract": "contracts/SimpleVoting.sol:SimpleVoting",
								"label": "voted",
								"offset": 0,
								"slot": "1",
								"type": "t_bool"
							},
							{
								"astId": 15,
								"contract": "contracts/SimpleVoting.sol:SimpleVoting",
								"label": "delegate",
								"offset": 1,
								"slot": "1",
								"type": "t_address"
							},
							{
								"astId": 17,
								"contract": "contracts/SimpleVoting.sol:SimpleVoting",
								"label": "vote",
								"offset": 0,
								"slot": "2",
								"type": "t_uint256"
							}
						],
						"numberOfBytes": "96"
					},
					"t_uint256": {
						"encoding": "inplace",
						"label": "uint256",
						"numberOfBytes": "32"
					}
				}
			},
			"userdoc": {
				"kind": "user",
				"methods": {},
				"version": 1
			}
		}
	}
}