{
	"contracts/SimpleVoting.sol": {
		"SimpleVoting": {
			"abi": [
				{
					"inputs": [
						{
							"internalType": "string[]",
							"name": "proposalNames",
							"type": "string[]"
						}
					],
					"stateMutability": "nonpayable",
					"type": "constructor"
				},
				{
					"anonymous": false,
					"inputs": [
						{
							"indexed": true,
							"internalType": "address",
							"name": "_from",
							"type": "address"
						},
						{
							"indexed": true,
							"internalType": "address",
							"name": "_to",
							"type": "address"
						}
					],
					"name": "DelegationSuccessful",
					"type": "event"
				},
				{
					"anonymous": false,
					"inputs": [
						{
							"indexed": true,
							"internalType": "uint256",
							"name": "_proposal",
							"type": "uint256"
						},
						{
							"indexed": true,
							"internalType": "address",
							"name": "_voter",
							"type": "address"
						},
						{
							"indexed": false,
							"internalType": "uint256",
							"name": "_votesAdded",
							"type": "uint256"
						}
					],
					"name": "VoteCasted",
					"type": "event"
				},
				{
					"anonymous": false,
					"inputs": [
						{
							"indexed": false,
							"internalType": "address",
							"name": "_chairPerson",
							"type": "address"
						},
						{
							"indexed": false,
							"internalType": "uint256",
							"name": "_proposalCount",
							"type": "uint256"
						}
					],
					"name": "VotingStarted",
					"type": "event"
				},
				{
					"inputs": [],
					"name": "chairPerson",
					"outputs": [
						{
							"internalType": "address",
							"name": "",
							"type": "address"
						}
					],
					"stateMutability": "view",
					"type": "function"
				},
				{
					"inputs": [
						{
							"internalType": "address",
							"name": "_to",
							"type": "address"
						}
					],
					"name": "delegate",
					"outputs": [],
					"stateMutability": "nonpayable",
					"type": "function"
				},
				{
					"inputs": [
						{
							"internalType": "uint256",
							"name": "_proposalIndex",
							"type": "uint256"
						}
					],
					"name": "getProposal",
					"outputs": [
						{
							"internalType": "string",
							"name": "proposalName_",
							"type": "string"
						},
						{
							"internalType": "uint256",
							"name": "voteCount_",
							"type": "uint256"
						}
					],
					"stateMutability": "view",
					"type": "function"
				},
				{
					"inputs": [
						{
							"internalType": "address",
							"name": "_voter",
							"type": "address"
						}
					],
					"name": "giveRightToVote",
					"outputs": [],
					"stateMutability": "nonpayable",
					"type": "function"
				},
				{
					"inputs": [],
					"name": "proposalCount",
					"outputs": [
						{
							"internalType": "uint256",
							"name": "",
							"type": "uint256"
						}
					],
					"stateMutability": "view",
					"type": "function"
				},
				{
					"inputs": [
						{
							"internalType": "uint256",
							"name": "proposal",
							"type": "uint256"
						}
					],
					"name": "vote",
					"outputs": [],
					"stateMutability": "nonpayable",
					"type": "function"
				},
				{
					"inputs": [
						{
							"internalType": "address",
							"name": "",
							"type": "address"
						}
					],
					"name": "voters",
					"outputs": [
						{
							"internalType": "uint256",
							"name": "weight",
							"type": "uint256"
						},
						{
							"internalType": "bool",
							"name": "voted",
							"type": "bool"
						},
						{
							"internalType": "address",
							"name": "delegate",
							"type": "address"
						},
						{
							"internalType": "uint256",
							"name": "vote",
							"type": "uint256"
						}
					],
					"stateMutability": "view",
					"type": "function"
				}
			],
			"devdoc": {
				"details": "Implements voting process along with vote delegation",
				"kind": "dev",
				"methods": {
					"constructor": {
						"details": "Create a new ballot to choose one of 'proposalNames'.",
						"params": {
							"proposalNames": "names of proposals"
						}
					},
					"delegate(address)": {
						"details": "Delegate your vote to the voter 'to'.",
						"params": {
							"_to": "address to which vote is delegated"
						}
					},
					"giveRightToVote(address)": {
						"details": "Give 'voter' the right to vote on this ballot. May only be called by 'chairPerson'.",
						"params": {
							"_voter": "address of voter"
						}
					},
					"vote(uint256)": {
						"details": "Give your vote (including votes delegated to you) to proposal 'proposals[proposal].name'.",
						"params": {
							"proposal": "index of proposal in the proposals array"
						}
					}
				},
				"title": "Ballot",
				"version": 1
			},
			"evm": {
				"assembly": "    /* \"contracts/SimpleVoting.sol\":371:6733  contract SimpleVoting is Context {\r... */\n  mstore(0x40, 0x80)\n    /* \"contracts/SimpleVoting.sol\":2348:2949  constructor(string[] memory proposalNames) {\r... */\n  callvalue\n  dup1\n  iszero\n  tag_1\n  jumpi\n  0x00\n  dup1\n  revert\ntag_1:\n  pop\n  mload(0x40)\n  sub(codesize, bytecodeSize)\n  dup1\n  bytecodeSize\n  dup4\n  codecopy\n  dup2\n  dup2\n  add\n  0x40\n  mstore\n  dup2\n  add\n  swap1\n  tag_2\n  swap2\n  swap1\n  tag_3\n  jump\t// in\ntag_2:\n    /* \"contracts/SimpleVoting.sol\":2416:2428  _msgSender() */\n  tag_6\n    /* \"contracts/SimpleVoting.sol\":2416:2426  _msgSender */\n  shl(0x20, tag_7)\n    /* \"contracts/SimpleVoting.sol\":2416:2428  _msgSender() */\n  0x20\n  shr\n  jump\t// in\ntag_6:\n    /* \"contracts/SimpleVoting.sol\":2402:2413  chairPerson */\n  0x01\n  0x00\n    /* \"contracts/SimpleVoting.sol\":2402:2428  chairPerson = _msgSender() */\n  0x0100\n  exp\n  dup2\n  sload\n  dup2\n  0xffffffffffffffffffffffffffffffffffffffff\n  mul\n  not\n  and\n  swap1\n  dup4\n  0xffffffffffffffffffffffffffffffffffffffff\n  and\n  mul\n  or\n  swap1\n  sstore\n  pop\n    /* \"contracts/SimpleVoting.sol\":2468:2469  1 */\n  0x01\n    /* \"contracts/SimpleVoting.sol\":2439:2445  voters */\n  0x02\n    /* \"contracts/SimpleVoting.sol\":2439:2458  voters[chairPerson] */\n  0x00\n    /* \"contracts/SimpleVoting.sol\":2446:2457  chairPerson */\n  0x01\n  0x00\n  swap1\n  sload\n  swap1\n  0x0100\n  exp\n  swap1\n  div\n  0xffffffffffffffffffffffffffffffffffffffff\n  and\n    /* \"contracts/SimpleVoting.sol\":2439:2458  voters[chairPerson] */\n  0xffffffffffffffffffffffffffffffffffffffff\n  and\n  0xffffffffffffffffffffffffffffffffffffffff\n  and\n  dup2\n  mstore\n  0x20\n  add\n  swap1\n  dup2\n  mstore\n  0x20\n  add\n  0x00\n  keccak256\n    /* \"contracts/SimpleVoting.sol\":2439:2465  voters[chairPerson].weight */\n  0x00\n  add\n    /* \"contracts/SimpleVoting.sol\":2439:2469  voters[chairPerson].weight = 1 */\n  dup2\n  swap1\n  sstore\n  pop\n    /* \"contracts/SimpleVoting.sol\":2496:2509  proposalNames */\n  dup1\n    /* \"contracts/SimpleVoting.sol\":2496:2516  proposalNames.length */\n  mload\n    /* \"contracts/SimpleVoting.sol\":2480:2493  proposalCount */\n  0x00\n    /* \"contracts/SimpleVoting.sol\":2480:2516  proposalCount = proposalNames.length */\n  dup2\n  swap1\n  sstore\n  pop\n    /* \"contracts/SimpleVoting.sol\":2532:2538  uint i */\n  0x00\n    /* \"contracts/SimpleVoting.sol\":2527:2884  for (uint i = 0; i < proposalCount; i = i. add(1)) {\r... */\ntag_8:\n    /* \"contracts/SimpleVoting.sol\":2548:2561  proposalCount */\n  sload(0x00)\n    /* \"contracts/SimpleVoting.sol\":2544:2545  i */\n  dup2\n    /* \"contracts/SimpleVoting.sol\":2544:2561  i < proposalCount */\n  lt\n    /* \"contracts/SimpleVoting.sol\":2527:2884  for (uint i = 0; i < proposalCount; i = i. add(1)) {\r... */\n  iszero\n  tag_9\n  jumpi\n    /* \"contracts/SimpleVoting.sol\":2759:2783  Proposal memory proposal */\n  0x00\n    /* \"contracts/SimpleVoting.sol\":2786:2833  Proposal (stringToBytes32(proposalNames[i]), 0) */\n  mload(0x40)\n  dup1\n  0x40\n  add\n  0x40\n  mstore\n  dup1\n    /* \"contracts/SimpleVoting.sol\":2796:2829  stringToBytes32(proposalNames[i]) */\n  tag_11\n    /* \"contracts/SimpleVoting.sol\":2812:2825  proposalNames */\n  dup6\n    /* \"contracts/SimpleVoting.sol\":2826:2827  i */\n  dup6\n    /* \"contracts/SimpleVoting.sol\":2812:2828  proposalNames[i] */\n  dup2\n  mload\n  dup2\n  lt\n  tag_12\n  jumpi\n  tag_13\n  tag_14\n  jump\t// in\ntag_13:\ntag_12:\n  0x20\n  mul\n  0x20\n  add\n  add\n  mload\n    /* \"contracts/SimpleVoting.sol\":2796:2811  stringToBytes32 */\n  shl(0x20, tag_15)\n    /* \"contracts/SimpleVoting.sol\":2796:2829  stringToBytes32(proposalNames[i]) */\n  0x20\n  shr\n  jump\t// in\ntag_11:\n    /* \"contracts/SimpleVoting.sol\":2786:2833  Proposal (stringToBytes32(proposalNames[i]), 0) */\n  dup2\n  mstore\n  0x20\n  add\n    /* \"contracts/SimpleVoting.sol\":2831:2832  0 */\n  0x00\n    /* \"contracts/SimpleVoting.sol\":2786:2833  Proposal (stringToBytes32(proposalNames[i]), 0) */\n  dup2\n  mstore\n  pop\n    /* \"contracts/SimpleVoting.sol\":2759:2833  Proposal memory proposal = Proposal (stringToBytes32(proposalNames[i]), 0) */\n  swap1\n  pop\n    /* \"contracts/SimpleVoting.sol\":2848:2857  proposals */\n  0x03\n    /* \"contracts/SimpleVoting.sol\":2863:2871  proposal */\n  dup2\n    /* \"contracts/SimpleVoting.sol\":2848:2872  proposals.push(proposal) */\n  swap1\n  dup1\n  0x01\n  dup2\n  sload\n  add\n  dup1\n  dup3\n  sstore\n  dup1\n  swap2\n  pop\n  pop\n  0x01\n  swap1\n  sub\n  swap1\n  0x00\n  mstore\n  keccak256(0x00, 0x20)\n  swap1\n  0x02\n  mul\n  add\n  0x00\n  swap1\n  swap2\n  swap1\n  swap2\n  swap1\n  swap2\n  pop\n  0x00\n  dup3\n  add\n  mload\n  dup2\n  0x00\n  add\n  sstore\n  0x20\n  dup3\n  add\n  mload\n  dup2\n  0x01\n  add\n  sstore\n  pop\n  pop\n    /* \"contracts/SimpleVoting.sol\":2578:2884  {\r... */\n  pop\n    /* \"contracts/SimpleVoting.sol\":2567:2576  i. add(1) */\n  tag_17\n    /* \"contracts/SimpleVoting.sol\":2574:2575  1 */\n  0x01\n    /* \"contracts/SimpleVoting.sol\":2567:2568  i */\n  dup3\n    /* \"contracts/SimpleVoting.sol\":2567:2573  i. add */\n  or(tag_0_40, shl(0x20, tag_18))\n  swap1\n    /* \"contracts/SimpleVoting.sol\":2567:2576  i. add(1) */\n  swap2\n  swap1\n  0x20\n  shr\n  jump\t// in\ntag_17:\n    /* \"contracts/SimpleVoting.sol\":2563:2576  i = i. add(1) */\n  swap1\n  pop\n    /* \"contracts/SimpleVoting.sol\":2527:2884  for (uint i = 0; i < proposalCount; i = i. add(1)) {\r... */\n  jump(tag_8)\ntag_9:\n  pop\n    /* \"contracts/SimpleVoting.sol\":2899:2941  VotingStarted (chairPerson, proposalCount) */\n  0xf318b16025413645144ed83c64d2d30f089c10bc263cab68a036c00f011827be\n    /* \"contracts/SimpleVoting.sol\":2914:2925  chairPerson */\n  0x01\n  0x00\n  swap1\n  sload\n  swap1\n  0x0100\n  exp\n  swap1\n  div\n  0xffffffffffffffffffffffffffffffffffffffff\n  and\n    /* \"contracts/SimpleVoting.sol\":2927:2940  proposalCount */\n  sload(0x00)\n    /* \"contracts/SimpleVoting.sol\":2899:2941  VotingStarted (chairPerson, proposalCount) */\n  mload(0x40)\n  tag_19\n  swap3\n  swap2\n  swap1\n  tag_20\n  jump\t// in\ntag_19:\n  mload(0x40)\n  dup1\n  swap2\n  sub\n  swap1\n  log1\n    /* \"contracts/SimpleVoting.sol\":2348:2949  constructor(string[] memory proposalNames) {\r... */\n  pop\n    /* \"contracts/SimpleVoting.sol\":371:6733  contract SimpleVoting is Context {\r... */\n  jump(tag_21)\n    /* \"https://github.com/OpenZeppelin/openzeppelin-contracts/blob/master/contracts/utils/Context.sol\":640:736  function _msgSender() internal view virtual returns (address) {... */\ntag_7:\n    /* \"https://github.com/OpenZeppelin/openzeppelin-contracts/blob/master/contracts/utils/Context.sol\":693:700  address */\n  0x00\n    /* \"https://github.com/OpenZeppelin/openzeppelin-contracts/blob/master/contracts/utils/Context.sol\":719:729  msg.sender */\n  caller\n    /* \"https://github.com/OpenZeppelin/openzeppelin-contracts/blob/master/contracts/utils/Context.sol\":712:729  return msg.sender */\n  swap1\n  pop\n    /* \"https://github.com/OpenZeppelin/openzeppelin-contracts/blob/master/contracts/utils/Context.sol\":640:736  function _msgSender() internal view virtual returns (address) {... */\n  swap1\n  jump\t// out\n    /* \"contracts/SimpleVoting.sol\":6416:6572  function stringToBytes32 (string memory str) \r... */\ntag_15:\n    /* \"contracts/SimpleVoting.sol\":6501:6508  bytes32 */\n  0x00\n    /* \"contracts/SimpleVoting.sol\":6559:6562  str */\n  dup2\n    /* \"contracts/SimpleVoting.sol\":6542:6563  abi.encodePacked(str) */\n  add(0x20, mload(0x40))\n  tag_24\n  swap2\n  swap1\n  tag_25\n  jump\t// in\ntag_24:\n  mload(0x40)\n  0x20\n  dup2\n  dup4\n  sub\n  sub\n  dup2\n  mstore\n  swap1\n  0x40\n  mstore\n    /* \"contracts/SimpleVoting.sol\":6534:6564  bytes32(abi.encodePacked(str)) */\n  tag_26\n  swap1\n  tag_27\n  jump\t// in\ntag_26:\n    /* \"contracts/SimpleVoting.sol\":6527:6564  return bytes32(abi.encodePacked(str)) */\n  swap1\n  pop\n    /* \"contracts/SimpleVoting.sol\":6416:6572  function stringToBytes32 (string memory str) \r... */\n  swap2\n  swap1\n  pop\n  jump\t// out\n    /* \"https://github.com/OpenZeppelin/openzeppelin-contracts/blob/master/contracts/utils/math/SafeMath.sol\":2755:2851  function add(uint256 a, uint256 b) internal pure returns (uint256) {... */\ntag_18:\n    /* \"https://github.com/OpenZeppelin/openzeppelin-contracts/blob/master/contracts/utils/math/SafeMath.sol\":2813:2820  uint256 */\n  0x00\n    /* \"https://github.com/OpenZeppelin/openzeppelin-contracts/blob/master/contracts/utils/math/SafeMath.sol\":2843:2844  b */\n  dup2\n    /* \"https://github.com/OpenZeppelin/openzeppelin-contracts/blob/master/contracts/utils/math/SafeMath.sol\":2839:2840  a */\n  dup4\n    /* \"https://github.com/OpenZeppelin/openzeppelin-contracts/blob/master/contracts/utils/math/SafeMath.sol\":2839:2844  a + b */\n  tag_29\n  swap2\n  swap1\n  tag_30\n  jump\t// in\ntag_29:\n    /* \"https://github.com/OpenZeppelin/openzeppelin-contracts/blob/master/contracts/utils/math/SafeMath.sol\":2832:2844  return a + b */\n  swap1\n  pop\n    /* \"https://github.com/OpenZeppelin/openzeppelin-contracts/blob/master/contracts/utils/math/SafeMath.sol\":2755:2851  function add(uint256 a, uint256 b) internal pure returns (uint256) {... */\n  swap3\n  swap2\n  pop\n  pop\n  jump\t// out\n    /* \"#utility.yul\":23:995   */\ntag_32:\n    /* \"#utility.yul\":140:145   */\n  0x00\n    /* \"#utility.yul\":165:256   */\n  tag_34\n    /* \"#utility.yul\":181:255   */\n  tag_35\n    /* \"#utility.yul\":248:254   */\n  dup5\n    /* \"#utility.yul\":181:255   */\n  tag_36\n  jump\t// in\ntag_35:\n    /* \"#utility.yul\":165:256   */\n  tag_37\n  jump\t// in\ntag_34:\n    /* \"#utility.yul\":156:256   */\n  swap1\n  pop\n    /* \"#utility.yul\":276:281   */\n  dup1\n    /* \"#utility.yul\":305:311   */\n  dup4\n    /* \"#utility.yul\":298:303   */\n  dup3\n    /* \"#utility.yul\":291:312   */\n  mstore\n    /* \"#utility.yul\":339:343   */\n  0x20\n    /* \"#utility.yul\":332:337   */\n  dup3\n    /* \"#utility.yul\":328:344   */\n  add\n    /* \"#utility.yul\":321:344   */\n  swap1\n  pop\n    /* \"#utility.yul\":365:371   */\n  dup3\n    /* \"#utility.yul\":415:418   */\n  dup6\n    /* \"#utility.yul\":407:411   */\n  0x20\n    /* \"#utility.yul\":399:405   */\n  dup7\n    /* \"#utility.yul\":395:412   */\n  mul\n    /* \"#utility.yul\":390:393   */\n  dup3\n    /* \"#utility.yul\":386:413   */\n  add\n    /* \"#utility.yul\":383:419   */\n  gt\n    /* \"#utility.yul\":380:523   */\n  iszero\n  tag_38\n  jumpi\n    /* \"#utility.yul\":434:513   */\n  tag_39\n  tag_40\n  jump\t// in\ntag_39:\n    /* \"#utility.yul\":380:523   */\ntag_38:\n    /* \"#utility.yul\":547:548   */\n  0x00\n    /* \"#utility.yul\":532:989   */\ntag_41:\n    /* \"#utility.yul\":557:563   */\n  dup6\n    /* \"#utility.yul\":554:555   */\n  dup2\n    /* \"#utility.yul\":551:564   */\n  lt\n    /* \"#utility.yul\":532:989   */\n  iszero\n  tag_43\n  jumpi\n    /* \"#utility.yul\":632:635   */\n  dup2\n    /* \"#utility.yul\":626:636   */\n  mload\n    /* \"#utility.yul\":668:686   */\n  0xffffffffffffffff\n    /* \"#utility.yul\":655:666   */\n  dup2\n    /* \"#utility.yul\":652:687   */\n  gt\n    /* \"#utility.yul\":649:771   */\n  iszero\n  tag_44\n  jumpi\n    /* \"#utility.yul\":690:769   */\n  tag_45\n  tag_46\n  jump\t// in\ntag_45:\n    /* \"#utility.yul\":649:771   */\ntag_44:\n    /* \"#utility.yul\":814:825   */\n  dup1\n    /* \"#utility.yul\":806:812   */\n  dup7\n    /* \"#utility.yul\":802:826   */\n  add\n    /* \"#utility.yul\":852:910   */\n  tag_47\n    /* \"#utility.yul\":906:909   */\n  dup10\n    /* \"#utility.yul\":894:904   */\n  dup3\n    /* \"#utility.yul\":852:910   */\n  tag_48\n  jump\t// in\ntag_47:\n    /* \"#utility.yul\":847:850   */\n  dup6\n    /* \"#utility.yul\":840:911   */\n  mstore\n    /* \"#utility.yul\":940:944   */\n  0x20\n    /* \"#utility.yul\":935:938   */\n  dup6\n    /* \"#utility.yul\":931:945   */\n  add\n    /* \"#utility.yul\":924:945   */\n  swap5\n  pop\n    /* \"#utility.yul\":974:978   */\n  0x20\n    /* \"#utility.yul\":969:972   */\n  dup5\n    /* \"#utility.yul\":965:979   */\n  add\n    /* \"#utility.yul\":958:979   */\n  swap4\n  pop\n    /* \"#utility.yul\":592:989   */\n  pop\n  pop\n    /* \"#utility.yul\":579:580   */\n  0x01\n    /* \"#utility.yul\":576:577   */\n  dup2\n    /* \"#utility.yul\":572:581   */\n  add\n    /* \"#utility.yul\":567:581   */\n  swap1\n  pop\n    /* \"#utility.yul\":532:989   */\n  jump(tag_41)\ntag_43:\n    /* \"#utility.yul\":536:550   */\n  pop\n    /* \"#utility.yul\":146:995   */\n  pop\n  pop\n    /* \"#utility.yul\":23:995   */\n  swap4\n  swap3\n  pop\n  pop\n  pop\n  jump\t// out\n    /* \"#utility.yul\":1001:1422   */\ntag_49:\n    /* \"#utility.yul\":1090:1095   */\n  0x00\n    /* \"#utility.yul\":1115:1181   */\n  tag_51\n    /* \"#utility.yul\":1131:1180   */\n  tag_52\n    /* \"#utility.yul\":1173:1179   */\n  dup5\n    /* \"#utility.yul\":1131:1180   */\n  tag_53\n  jump\t// in\ntag_52:\n    /* \"#utility.yul\":1115:1181   */\n  tag_37\n  jump\t// in\ntag_51:\n    /* \"#utility.yul\":1106:1181   */\n  swap1\n  pop\n    /* \"#utility.yul\":1204:1210   */\n  dup3\n    /* \"#utility.yul\":1197:1202   */\n  dup2\n    /* \"#utility.yul\":1190:1211   */\n  mstore\n    /* \"#utility.yul\":1242:1246   */\n  0x20\n    /* \"#utility.yul\":1235:1240   */\n  dup2\n    /* \"#utility.yul\":1231:1247   */\n  add\n    /* \"#utility.yul\":1280:1283   */\n  dup5\n    /* \"#utility.yul\":1271:1277   */\n  dup5\n    /* \"#utility.yul\":1266:1269   */\n  dup5\n    /* \"#utility.yul\":1262:1278   */\n  add\n    /* \"#utility.yul\":1259:1284   */\n  gt\n    /* \"#utility.yul\":1256:1368   */\n  iszero\n  tag_54\n  jumpi\n    /* \"#utility.yul\":1287:1366   */\n  tag_55\n  tag_56\n  jump\t// in\ntag_55:\n    /* \"#utility.yul\":1256:1368   */\ntag_54:\n    /* \"#utility.yul\":1377:1416   */\n  tag_57\n    /* \"#utility.yul\":1409:1415   */\n  dup5\n    /* \"#utility.yul\":1404:1407   */\n  dup3\n    /* \"#utility.yul\":1399:1402   */\n  dup6\n    /* \"#utility.yul\":1377:1416   */\n  tag_58\n  jump\t// in\ntag_57:\n    /* \"#utility.yul\":1096:1422   */\n  pop\n    /* \"#utility.yul\":1001:1422   */\n  swap4\n  swap3\n  pop\n  pop\n  pop\n  jump\t// out\n    /* \"#utility.yul\":1444:1849   */\ntag_59:\n    /* \"#utility.yul\":1536:1541   */\n  0x00\n    /* \"#utility.yul\":1585:1588   */\n  dup3\n    /* \"#utility.yul\":1578:1582   */\n  0x1f\n    /* \"#utility.yul\":1570:1576   */\n  dup4\n    /* \"#utility.yul\":1566:1583   */\n  add\n    /* \"#utility.yul\":1562:1589   */\n  slt\n    /* \"#utility.yul\":1552:1674   */\n  tag_61\n  jumpi\n    /* \"#utility.yul\":1593:1672   */\n  tag_62\n  tag_46\n  jump\t// in\ntag_62:\n    /* \"#utility.yul\":1552:1674   */\ntag_61:\n    /* \"#utility.yul\":1703:1709   */\n  dup2\n    /* \"#utility.yul\":1697:1710   */\n  mload\n    /* \"#utility.yul\":1728:1843   */\n  tag_63\n    /* \"#utility.yul\":1839:1842   */\n  dup5\n    /* \"#utility.yul\":1831:1837   */\n  dup3\n    /* \"#utility.yul\":1824:1828   */\n  0x20\n    /* \"#utility.yul\":1816:1822   */\n  dup7\n    /* \"#utility.yul\":1812:1829   */\n  add\n    /* \"#utility.yul\":1728:1843   */\n  tag_32\n  jump\t// in\ntag_63:\n    /* \"#utility.yul\":1719:1843   */\n  swap2\n  pop\n    /* \"#utility.yul\":1542:1849   */\n  pop\n    /* \"#utility.yul\":1444:1849   */\n  swap3\n  swap2\n  pop\n  pop\n  jump\t// out\n    /* \"#utility.yul\":1869:2224   */\ntag_48:\n    /* \"#utility.yul\":1936:1941   */\n  0x00\n    /* \"#utility.yul\":1985:1988   */\n  dup3\n    /* \"#utility.yul\":1978:1982   */\n  0x1f\n    /* \"#utility.yul\":1970:1976   */\n  dup4\n    /* \"#utility.yul\":1966:1983   */\n  add\n    /* \"#utility.yul\":1962:1989   */\n  slt\n    /* \"#utility.yul\":1952:2074   */\n  tag_65\n  jumpi\n    /* \"#utility.yul\":1993:2072   */\n  tag_66\n  tag_46\n  jump\t// in\ntag_66:\n    /* \"#utility.yul\":1952:2074   */\ntag_65:\n    /* \"#utility.yul\":2103:2109   */\n  dup2\n    /* \"#utility.yul\":2097:2110   */\n  mload\n    /* \"#utility.yul\":2128:2218   */\n  tag_67\n    /* \"#utility.yul\":2214:2217   */\n  dup5\n    /* \"#utility.yul\":2206:2212   */\n  dup3\n    /* \"#utility.yul\":2199:2203   */\n  0x20\n    /* \"#utility.yul\":2191:2197   */\n  dup7\n    /* \"#utility.yul\":2187:2204   */\n  add\n    /* \"#utility.yul\":2128:2218   */\n  tag_49\n  jump\t// in\ntag_67:\n    /* \"#utility.yul\":2119:2218   */\n  swap2\n  pop\n    /* \"#utility.yul\":1942:2224   */\n  pop\n    /* \"#utility.yul\":1869:2224   */\n  swap3\n  swap2\n  pop\n  pop\n  jump\t// out\n    /* \"#utility.yul\":2230:2804   */\ntag_3:\n    /* \"#utility.yul\":2335:2341   */\n  0x00\n    /* \"#utility.yul\":2384:2386   */\n  0x20\n    /* \"#utility.yul\":2372:2381   */\n  dup3\n    /* \"#utility.yul\":2363:2370   */\n  dup5\n    /* \"#utility.yul\":2359:2382   */\n  sub\n    /* \"#utility.yul\":2355:2387   */\n  slt\n    /* \"#utility.yul\":2352:2471   */\n  iszero\n  tag_69\n  jumpi\n    /* \"#utility.yul\":2390:2469   */\n  tag_70\n  tag_71\n  jump\t// in\ntag_70:\n    /* \"#utility.yul\":2352:2471   */\ntag_69:\n    /* \"#utility.yul\":2531:2532   */\n  0x00\n    /* \"#utility.yul\":2520:2529   */\n  dup3\n    /* \"#utility.yul\":2516:2533   */\n  add\n    /* \"#utility.yul\":2510:2534   */\n  mload\n    /* \"#utility.yul\":2561:2579   */\n  0xffffffffffffffff\n    /* \"#utility.yul\":2553:2559   */\n  dup2\n    /* \"#utility.yul\":2550:2580   */\n  gt\n    /* \"#utility.yul\":2547:2664   */\n  iszero\n  tag_72\n  jumpi\n    /* \"#utility.yul\":2583:2662   */\n  tag_73\n  tag_74\n  jump\t// in\ntag_73:\n    /* \"#utility.yul\":2547:2664   */\ntag_72:\n    /* \"#utility.yul\":2688:2787   */\n  tag_75\n    /* \"#utility.yul\":2779:2786   */\n  dup5\n    /* \"#utility.yul\":2770:2776   */\n  dup3\n    /* \"#utility.yul\":2759:2768   */\n  dup6\n    /* \"#utility.yul\":2755:2777   */\n  add\n    /* \"#utility.yul\":2688:2787   */\n  tag_59\n  jump\t// in\ntag_75:\n    /* \"#utility.yul\":2678:2787   */\n  swap2\n  pop\n    /* \"#utility.yul\":2481:2797   */\n  pop\n    /* \"#utility.yul\":2230:2804   */\n  swap3\n  swap2\n  pop\n  pop\n  jump\t// out\n    /* \"#utility.yul\":2810:2928   */\ntag_76:\n    /* \"#utility.yul\":2897:2921   */\n  tag_78\n    /* \"#utility.yul\":2915:2920   */\n  dup2\n    /* \"#utility.yul\":2897:2921   */\n  tag_79\n  jump\t// in\ntag_78:\n    /* \"#utility.yul\":2892:2895   */\n  dup3\n    /* \"#utility.yul\":2885:2922   */\n  mstore\n    /* \"#utility.yul\":2810:2928   */\n  pop\n  pop\n  jump\t// out\n    /* \"#utility.yul\":2934:3311   */\ntag_80:\n    /* \"#utility.yul\":3040:3043   */\n  0x00\n    /* \"#utility.yul\":3068:3107   */\n  tag_82\n    /* \"#utility.yul\":3101:3106   */\n  dup3\n    /* \"#utility.yul\":3068:3107   */\n  tag_83\n  jump\t// in\ntag_82:\n    /* \"#utility.yul\":3123:3212   */\n  tag_84\n    /* \"#utility.yul\":3205:3211   */\n  dup2\n    /* \"#utility.yul\":3200:3203   */\n  dup6\n    /* \"#utility.yul\":3123:3212   */\n  tag_85\n  jump\t// in\ntag_84:\n    /* \"#utility.yul\":3116:3212   */\n  swap4\n  pop\n    /* \"#utility.yul\":3221:3273   */\n  tag_86\n    /* \"#utility.yul\":3266:3272   */\n  dup2\n    /* \"#utility.yul\":3261:3264   */\n  dup6\n    /* \"#utility.yul\":3254:3258   */\n  0x20\n    /* \"#utility.yul\":3247:3252   */\n  dup7\n    /* \"#utility.yul\":3243:3259   */\n  add\n    /* \"#utility.yul\":3221:3273   */\n  tag_58\n  jump\t// in\ntag_86:\n    /* \"#utility.yul\":3298:3304   */\n  dup1\n    /* \"#utility.yul\":3293:3296   */\n  dup5\n    /* \"#utility.yul\":3289:3305   */\n  add\n    /* \"#utility.yul\":3282:3305   */\n  swap2\n  pop\n    /* \"#utility.yul\":3044:3311   */\n  pop\n    /* \"#utility.yul\":2934:3311   */\n  swap3\n  swap2\n  pop\n  pop\n  jump\t// out\n    /* \"#utility.yul\":3317:3435   */\ntag_87:\n    /* \"#utility.yul\":3404:3428   */\n  tag_89\n    /* \"#utility.yul\":3422:3427   */\n  dup2\n    /* \"#utility.yul\":3404:3428   */\n  tag_90\n  jump\t// in\ntag_89:\n    /* \"#utility.yul\":3399:3402   */\n  dup3\n    /* \"#utility.yul\":3392:3429   */\n  mstore\n    /* \"#utility.yul\":3317:3435   */\n  pop\n  pop\n  jump\t// out\n    /* \"#utility.yul\":3441:3716   */\ntag_25:\n    /* \"#utility.yul\":3573:3576   */\n  0x00\n    /* \"#utility.yul\":3595:3690   */\n  tag_92\n    /* \"#utility.yul\":3686:3689   */\n  dup3\n    /* \"#utility.yul\":3677:3683   */\n  dup5\n    /* \"#utility.yul\":3595:3690   */\n  tag_80\n  jump\t// in\ntag_92:\n    /* \"#utility.yul\":3588:3690   */\n  swap2\n  pop\n    /* \"#utility.yul\":3707:3710   */\n  dup2\n    /* \"#utility.yul\":3700:3710   */\n  swap1\n  pop\n    /* \"#utility.yul\":3441:3716   */\n  swap3\n  swap2\n  pop\n  pop\n  jump\t// out\n    /* \"#utility.yul\":3722:4054   */\ntag_20:\n    /* \"#utility.yul\":3843:3847   */\n  0x00\n    /* \"#utility.yul\":3881:3883   */\n  0x40\n    /* \"#utility.yul\":3870:3879   */\n  dup3\n    /* \"#utility.yul\":3866:3884   */\n  add\n    /* \"#utility.yul\":3858:3884   */\n  swap1\n  pop\n    /* \"#utility.yul\":3894:3965   */\n  tag_94\n    /* \"#utility.yul\":3962:3963   */\n  0x00\n    /* \"#utility.yul\":3951:3960   */\n  dup4\n    /* \"#utility.yul\":3947:3964   */\n  add\n    /* \"#utility.yul\":3938:3944   */\n  dup6\n    /* \"#utility.yul\":3894:3965   */\n  tag_76\n  jump\t// in\ntag_94:\n    /* \"#utility.yul\":3975:4047   */\n  tag_95\n    /* \"#utility.yul\":4043:4045   */\n  0x20\n    /* \"#utility.yul\":4032:4041   */\n  dup4\n    /* \"#utility.yul\":4028:4046   */\n  add\n    /* \"#utility.yul\":4019:4025   */\n  dup5\n    /* \"#utility.yul\":3975:4047   */\n  tag_87\n  jump\t// in\ntag_95:\n    /* \"#utility.yul\":3722:4054   */\n  swap4\n  swap3\n  pop\n  pop\n  pop\n  jump\t// out\n    /* \"#utility.yul\":4060:4189   */\ntag_37:\n    /* \"#utility.yul\":4094:4100   */\n  0x00\n    /* \"#utility.yul\":4121:4141   */\n  tag_97\n  tag_98\n  jump\t// in\ntag_97:\n    /* \"#utility.yul\":4111:4141   */\n  swap1\n  pop\n    /* \"#utility.yul\":4150:4183   */\n  tag_99\n    /* \"#utility.yul\":4178:4182   */\n  dup3\n    /* \"#utility.yul\":4170:4176   */\n  dup3\n    /* \"#utility.yul\":4150:4183   */\n  tag_100\n  jump\t// in\ntag_99:\n    /* \"#utility.yul\":4060:4189   */\n  swap2\n  swap1\n  pop\n  jump\t// out\n    /* \"#utility.yul\":4195:4270   */\ntag_98:\n    /* \"#utility.yul\":4228:4234   */\n  0x00\n    /* \"#utility.yul\":4261:4263   */\n  0x40\n    /* \"#utility.yul\":4255:4264   */\n  mload\n    /* \"#utility.yul\":4245:4264   */\n  swap1\n  pop\n    /* \"#utility.yul\":4195:4270   */\n  swap1\n  jump\t// out\n    /* \"#utility.yul\":4276:4597   */\ntag_36:\n    /* \"#utility.yul\":4363:4367   */\n  0x00\n    /* \"#utility.yul\":4453:4471   */\n  0xffffffffffffffff\n    /* \"#utility.yul\":4445:4451   */\n  dup3\n    /* \"#utility.yul\":4442:4472   */\n  gt\n    /* \"#utility.yul\":4439:4495   */\n  iszero\n  tag_103\n  jumpi\n    /* \"#utility.yul\":4475:4493   */\n  tag_104\n  tag_105\n  jump\t// in\ntag_104:\n    /* \"#utility.yul\":4439:4495   */\ntag_103:\n    /* \"#utility.yul\":4525:4529   */\n  0x20\n    /* \"#utility.yul\":4517:4523   */\n  dup3\n    /* \"#utility.yul\":4513:4530   */\n  mul\n    /* \"#utility.yul\":4505:4530   */\n  swap1\n  pop\n    /* \"#utility.yul\":4585:4589   */\n  0x20\n    /* \"#utility.yul\":4579:4583   */\n  dup2\n    /* \"#utility.yul\":4575:4590   */\n  add\n    /* \"#utility.yul\":4567:4590   */\n  swap1\n  pop\n    /* \"#utility.yul\":4276:4597   */\n  swap2\n  swap1\n  pop\n  jump\t// out\n    /* \"#utility.yul\":4603:4911   */\ntag_53:\n    /* \"#utility.yul\":4665:4669   */\n  0x00\n    /* \"#utility.yul\":4755:4773   */\n  0xffffffffffffffff\n    /* \"#utility.yul\":4747:4753   */\n  dup3\n    /* \"#utility.yul\":4744:4774   */\n  gt\n    /* \"#utility.yul\":4741:4797   */\n  iszero\n  tag_107\n  jumpi\n    /* \"#utility.yul\":4777:4795   */\n  tag_108\n  tag_105\n  jump\t// in\ntag_108:\n    /* \"#utility.yul\":4741:4797   */\ntag_107:\n    /* \"#utility.yul\":4815:4844   */\n  tag_109\n    /* \"#utility.yul\":4837:4843   */\n  dup3\n    /* \"#utility.yul\":4815:4844   */\n  tag_110\n  jump\t// in\ntag_109:\n    /* \"#utility.yul\":4807:4844   */\n  swap1\n  pop\n    /* \"#utility.yul\":4899:4903   */\n  0x20\n    /* \"#utility.yul\":4893:4897   */\n  dup2\n    /* \"#utility.yul\":4889:4904   */\n  add\n    /* \"#utility.yul\":4881:4904   */\n  swap1\n  pop\n    /* \"#utility.yul\":4603:4911   */\n  swap2\n  swap1\n  pop\n  jump\t// out\n    /* \"#utility.yul\":4917:5033   */\ntag_111:\n    /* \"#utility.yul\":4968:4972   */\n  0x00\n    /* \"#utility.yul\":4991:4994   */\n  dup2\n    /* \"#utility.yul\":4983:4994   */\n  swap1\n  pop\n    /* \"#utility.yul\":5021:5025   */\n  0x20\n    /* \"#utility.yul\":5016:5019   */\n  dup3\n    /* \"#utility.yul\":5012:5026   */\n  add\n    /* \"#utility.yul\":5004:5026   */\n  swap1\n  pop\n    /* \"#utility.yul\":4917:5033   */\n  swap2\n  swap1\n  pop\n  jump\t// out\n    /* \"#utility.yul\":5039:5137   */\ntag_113:\n    /* \"#utility.yul\":5090:5096   */\n  0x00\n    /* \"#utility.yul\":5124:5129   */\n  dup2\n    /* \"#utility.yul\":5118:5130   */\n  mload\n    /* \"#utility.yul\":5108:5130   */\n  swap1\n  pop\n    /* \"#utility.yul\":5039:5137   */\n  swap2\n  swap1\n  pop\n  jump\t// out\n    /* \"#utility.yul\":5143:5242   */\ntag_83:\n    /* \"#utility.yul\":5195:5201   */\n  0x00\n    /* \"#utility.yul\":5229:5234   */\n  dup2\n    /* \"#utility.yul\":5223:5235   */\n  mload\n    /* \"#utility.yul\":5213:5235   */\n  swap1\n  pop\n    /* \"#utility.yul\":5143:5242   */\n  swap2\n  swap1\n  pop\n  jump\t// out\n    /* \"#utility.yul\":5248:5396   */\ntag_85:\n    /* \"#utility.yul\":5350:5361   */\n  0x00\n    /* \"#utility.yul\":5387:5390   */\n  dup2\n    /* \"#utility.yul\":5372:5390   */\n  swap1\n  pop\n    /* \"#utility.yul\":5248:5396   */\n  swap3\n  swap2\n  pop\n  pop\n  jump\t// out\n    /* \"#utility.yul\":5402:5707   */\ntag_30:\n    /* \"#utility.yul\":5442:5445   */\n  0x00\n    /* \"#utility.yul\":5461:5481   */\n  tag_118\n    /* \"#utility.yul\":5479:5480   */\n  dup3\n    /* \"#utility.yul\":5461:5481   */\n  tag_90\n  jump\t// in\ntag_118:\n    /* \"#utility.yul\":5456:5481   */\n  swap2\n  pop\n    /* \"#utility.yul\":5495:5515   */\n  tag_119\n    /* \"#utility.yul\":5513:5514   */\n  dup4\n    /* \"#utility.yul\":5495:5515   */\n  tag_90\n  jump\t// in\ntag_119:\n    /* \"#utility.yul\":5490:5515   */\n  swap3\n  pop\n    /* \"#utility.yul\":5649:5650   */\n  dup3\n    /* \"#utility.yul\":5581:5647   */\n  0xffffffffffffffffffffffffffffffffffffffffffffffffffffffffffffffff\n    /* \"#utility.yul\":5577:5651   */\n  sub\n    /* \"#utility.yul\":5574:5575   */\n  dup3\n    /* \"#utility.yul\":5571:5652   */\n  gt\n    /* \"#utility.yul\":5568:5675   */\n  iszero\n  tag_120\n  jumpi\n    /* \"#utility.yul\":5655:5673   */\n  tag_121\n  tag_122\n  jump\t// in\ntag_121:\n    /* \"#utility.yul\":5568:5675   */\ntag_120:\n    /* \"#utility.yul\":5699:5700   */\n  dup3\n    /* \"#utility.yul\":5696:5697   */\n  dup3\n    /* \"#utility.yul\":5692:5701   */\n  add\n    /* \"#utility.yul\":5685:5701   */\n  swap1\n  pop\n    /* \"#utility.yul\":5402:5707   */\n  swap3\n  swap2\n  pop\n  pop\n  jump\t// out\n    /* \"#utility.yul\":5713:5809   */\ntag_79:\n    /* \"#utility.yul\":5750:5757   */\n  0x00\n    /* \"#utility.yul\":5779:5803   */\n  tag_124\n    /* \"#utility.yul\":5797:5802   */\n  dup3\n    /* \"#utility.yul\":5779:5803   */\n  tag_125\n  jump\t// in\ntag_124:\n    /* \"#utility.yul\":5768:5803   */\n  swap1\n  pop\n    /* \"#utility.yul\":5713:5809   */\n  swap2\n  swap1\n  pop\n  jump\t// out\n    /* \"#utility.yul\":5815:5892   */\ntag_126:\n    /* \"#utility.yul\":5852:5859   */\n  0x00\n    /* \"#utility.yul\":5881:5886   */\n  dup2\n    /* \"#utility.yul\":5870:5886   */\n  swap1\n  pop\n    /* \"#utility.yul\":5815:5892   */\n  swap2\n  swap1\n  pop\n  jump\t// out\n    /* \"#utility.yul\":5898:6024   */\ntag_125:\n    /* \"#utility.yul\":5935:5942   */\n  0x00\n    /* \"#utility.yul\":5975:6017   */\n  0xffffffffffffffffffffffffffffffffffffffff\n    /* \"#utility.yul\":5968:5973   */\n  dup3\n    /* \"#utility.yul\":5964:6018   */\n  and\n    /* \"#utility.yul\":5953:6018   */\n  swap1\n  pop\n    /* \"#utility.yul\":5898:6024   */\n  swap2\n  swap1\n  pop\n  jump\t// out\n    /* \"#utility.yul\":6030:6107   */\ntag_90:\n    /* \"#utility.yul\":6067:6074   */\n  0x00\n    /* \"#utility.yul\":6096:6101   */\n  dup2\n    /* \"#utility.yul\":6085:6101   */\n  swap1\n  pop\n    /* \"#utility.yul\":6030:6107   */\n  swap2\n  swap1\n  pop\n  jump\t// out\n    /* \"#utility.yul\":6113:6707   */\ntag_27:\n    /* \"#utility.yul\":6197:6202   */\n  0x00\n    /* \"#utility.yul\":6228:6266   */\n  tag_131\n    /* \"#utility.yul\":6260:6265   */\n  dup3\n    /* \"#utility.yul\":6228:6266   */\n  tag_113\n  jump\t// in\ntag_131:\n    /* \"#utility.yul\":6291:6296   */\n  dup3\n    /* \"#utility.yul\":6318:6358   */\n  tag_132\n    /* \"#utility.yul\":6352:6357   */\n  dup5\n    /* \"#utility.yul\":6318:6358   */\n  tag_111\n  jump\t// in\ntag_132:\n    /* \"#utility.yul\":6306:6358   */\n  swap1\n  pop\n    /* \"#utility.yul\":6377:6412   */\n  tag_133\n    /* \"#utility.yul\":6403:6411   */\n  dup2\n    /* \"#utility.yul\":6377:6412   */\n  tag_134\n  jump\t// in\ntag_133:\n    /* \"#utility.yul\":6368:6412   */\n  swap3\n  pop\n    /* \"#utility.yul\":6436:6438   */\n  0x20\n    /* \"#utility.yul\":6428:6434   */\n  dup3\n    /* \"#utility.yul\":6425:6439   */\n  lt\n    /* \"#utility.yul\":6422:6700   */\n  iszero\n  tag_135\n  jumpi\n    /* \"#utility.yul\":6507:6676   */\n  tag_136\n    /* \"#utility.yul\":6592:6658   */\n  0xffffffffffffffffffffffffffffffffffffffffffffffffffffffffffffffff\n    /* \"#utility.yul\":6562:6568   */\n  dup4\n    /* \"#utility.yul\":6558:6560   */\n  0x20\n    /* \"#utility.yul\":6554:6569   */\n  sub\n    /* \"#utility.yul\":6551:6552   */\n  0x08\n    /* \"#utility.yul\":6547:6570   */\n  mul\n    /* \"#utility.yul\":6507:6676   */\n  tag_137\n  jump\t// in\ntag_136:\n    /* \"#utility.yul\":6484:6489   */\n  dup4\n    /* \"#utility.yul\":6463:6690   */\n  and\n    /* \"#utility.yul\":6454:6690   */\n  swap3\n  pop\n    /* \"#utility.yul\":6422:6700   */\ntag_135:\n    /* \"#utility.yul\":6203:6707   */\n  pop\n  pop\n    /* \"#utility.yul\":6113:6707   */\n  swap2\n  swap1\n  pop\n  jump\t// out\n    /* \"#utility.yul\":6713:7020   */\ntag_58:\n    /* \"#utility.yul\":6781:6782   */\n  0x00\n    /* \"#utility.yul\":6791:6904   */\ntag_139:\n    /* \"#utility.yul\":6805:6811   */\n  dup4\n    /* \"#utility.yul\":6802:6803   */\n  dup2\n    /* \"#utility.yul\":6799:6812   */\n  lt\n    /* \"#utility.yul\":6791:6904   */\n  iszero\n  tag_141\n  jumpi\n    /* \"#utility.yul\":6890:6891   */\n  dup1\n    /* \"#utility.yul\":6885:6888   */\n  dup3\n    /* \"#utility.yul\":6881:6892   */\n  add\n    /* \"#utility.yul\":6875:6893   */\n  mload\n    /* \"#utility.yul\":6871:6872   */\n  dup2\n    /* \"#utility.yul\":6866:6869   */\n  dup5\n    /* \"#utility.yul\":6862:6873   */\n  add\n    /* \"#utility.yul\":6855:6894   */\n  mstore\n    /* \"#utility.yul\":6827:6829   */\n  0x20\n    /* \"#utility.yul\":6824:6825   */\n  dup2\n    /* \"#utility.yul\":6820:6830   */\n  add\n    /* \"#utility.yul\":6815:6830   */\n  swap1\n  pop\n    /* \"#utility.yul\":6791:6904   */\n  jump(tag_139)\ntag_141:\n    /* \"#utility.yul\":6922:6928   */\n  dup4\n    /* \"#utility.yul\":6919:6920   */\n  dup2\n    /* \"#utility.yul\":6916:6929   */\n  gt\n    /* \"#utility.yul\":6913:7014   */\n  iszero\n  tag_142\n  jumpi\n    /* \"#utility.yul\":7002:7003   */\n  0x00\n    /* \"#utility.yul\":6993:6999   */\n  dup5\n    /* \"#utility.yul\":6988:6991   */\n  dup5\n    /* \"#utility.yul\":6984:7000   */\n  add\n    /* \"#utility.yul\":6977:7004   */\n  mstore\n    /* \"#utility.yul\":6913:7014   */\ntag_142:\n    /* \"#utility.yul\":6762:7020   */\n  pop\n    /* \"#utility.yul\":6713:7020   */\n  pop\n  pop\n  pop\n  jump\t// out\n    /* \"#utility.yul\":7026:7307   */\ntag_100:\n    /* \"#utility.yul\":7109:7136   */\n  tag_144\n    /* \"#utility.yul\":7131:7135   */\n  dup3\n    /* \"#utility.yul\":7109:7136   */\n  tag_110\n  jump\t// in\ntag_144:\n    /* \"#utility.yul\":7101:7107   */\n  dup2\n    /* \"#utility.yul\":7097:7137   */\n  add\n    /* \"#utility.yul\":7239:7245   */\n  dup2\n    /* \"#utility.yul\":7227:7237   */\n  dup2\n    /* \"#utility.yul\":7224:7246   */\n  lt\n    /* \"#utility.yul\":7203:7221   */\n  0xffffffffffffffff\n    /* \"#utility.yul\":7191:7201   */\n  dup3\n    /* \"#utility.yul\":7188:7222   */\n  gt\n    /* \"#utility.yul\":7185:7247   */\n  or\n    /* \"#utility.yul\":7182:7270   */\n  iszero\n  tag_145\n  jumpi\n    /* \"#utility.yul\":7250:7268   */\n  tag_146\n  tag_105\n  jump\t// in\ntag_146:\n    /* \"#utility.yul\":7182:7270   */\ntag_145:\n    /* \"#utility.yul\":7290:7300   */\n  dup1\n    /* \"#utility.yul\":7286:7288   */\n  0x40\n    /* \"#utility.yul\":7279:7301   */\n  mstore\n    /* \"#utility.yul\":7069:7307   */\n  pop\n    /* \"#utility.yul\":7026:7307   */\n  pop\n  pop\n  jump\t// out\n    /* \"#utility.yul\":7313:7493   */\ntag_122:\n    /* \"#utility.yul\":7361:7438   */\n  0x4e487b7100000000000000000000000000000000000000000000000000000000\n    /* \"#utility.yul\":7358:7359   */\n  0x00\n    /* \"#utility.yul\":7351:7439   */\n  mstore\n    /* \"#utility.yul\":7458:7462   */\n  0x11\n    /* \"#utility.yul\":7455:7456   */\n  0x04\n    /* \"#utility.yul\":7448:7463   */\n  mstore\n    /* \"#utility.yul\":7482:7486   */\n  0x24\n    /* \"#utility.yul\":7479:7480   */\n  0x00\n    /* \"#utility.yul\":7472:7487   */\n  revert\n    /* \"#utility.yul\":7499:7679   */\ntag_14:\n    /* \"#utility.yul\":7547:7624   */\n  0x4e487b7100000000000000000000000000000000000000000000000000000000\n    /* \"#utility.yul\":7544:7545   */\n  0x00\n    /* \"#utility.yul\":7537:7625   */\n  mstore\n    /* \"#utility.yul\":7644:7648   */\n  0x32\n    /* \"#utility.yul\":7641:7642   */\n  0x04\n    /* \"#utility.yul\":7634:7649   */\n  mstore\n    /* \"#utility.yul\":7668:7672   */\n  0x24\n    /* \"#utility.yul\":7665:7666   */\n  0x00\n    /* \"#utility.yul\":7658:7673   */\n  revert\n    /* \"#utility.yul\":7685:7865   */\ntag_105:\n    /* \"#utility.yul\":7733:7810   */\n  0x4e487b7100000000000000000000000000000000000000000000000000000000\n    /* \"#utility.yul\":7730:7731   */\n  0x00\n    /* \"#utility.yul\":7723:7811   */\n  mstore\n    /* \"#utility.yul\":7830:7834   */\n  0x41\n    /* \"#utility.yul\":7827:7828   */\n  0x04\n    /* \"#utility.yul\":7820:7835   */\n  mstore\n    /* \"#utility.yul\":7854:7858   */\n  0x24\n    /* \"#utility.yul\":7851:7852   */\n  0x00\n    /* \"#utility.yul\":7844:7859   */\n  revert\n    /* \"#utility.yul\":7871:8025   */\ntag_134:\n    /* \"#utility.yul\":7914:7925   */\n  0x00\n    /* \"#utility.yul\":7950:7979   */\n  tag_151\n    /* \"#utility.yul\":7974:7977   */\n  dup3\n    /* \"#utility.yul\":7968:7978   */\n  mload\n    /* \"#utility.yul\":7950:7979   */\n  tag_126\n  jump\t// in\ntag_151:\n    /* \"#utility.yul\":8013:8018   */\n  dup1\n    /* \"#utility.yul\":7989:8018   */\n  swap2\n  pop\n    /* \"#utility.yul\":7926:8025   */\n  pop\n    /* \"#utility.yul\":7871:8025   */\n  swap2\n  swap1\n  pop\n  jump\t// out\n    /* \"#utility.yul\":8031:8148   */\ntag_46:\n    /* \"#utility.yul\":8140:8141   */\n  0x00\n    /* \"#utility.yul\":8137:8138   */\n  dup1\n    /* \"#utility.yul\":8130:8142   */\n  revert\n    /* \"#utility.yul\":8154:8271   */\ntag_40:\n    /* \"#utility.yul\":8263:8264   */\n  0x00\n    /* \"#utility.yul\":8260:8261   */\n  dup1\n    /* \"#utility.yul\":8253:8265   */\n  revert\n    /* \"#utility.yul\":8277:8394   */\ntag_56:\n    /* \"#utility.yul\":8386:8387   */\n  0x00\n    /* \"#utility.yul\":8383:8384   */\n  dup1\n    /* \"#utility.yul\":8376:8388   */\n  revert\n    /* \"#utility.yul\":8400:8517   */\ntag_74:\n    /* \"#utility.yul\":8509:8510   */\n  0x00\n    /* \"#utility.yul\":8506:8507   */\n  dup1\n    /* \"#utility.yul\":8499:8511   */\n  revert\n    /* \"#utility.yul\":8523:8640   */\ntag_71:\n    /* \"#utility.yul\":8632:8633   */\n  0x00\n    /* \"#utility.yul\":8629:8630   */\n  dup1\n    /* \"#utility.yul\":8622:8634   */\n  revert\n    /* \"#utility.yul\":8646:8748   */\ntag_110:\n    /* \"#utility.yul\":8687:8693   */\n  0x00\n    /* \"#utility.yul\":8738:8740   */\n  0x1f\n    /* \"#utility.yul\":8734:8741   */\n  not\n    /* \"#utility.yul\":8729:8731   */\n  0x1f\n    /* \"#utility.yul\":8722:8727   */\n  dup4\n    /* \"#utility.yul\":8718:8732   */\n  add\n    /* \"#utility.yul\":8714:8742   */\n  and\n    /* \"#utility.yul\":8704:8742   */\n  swap1\n  pop\n    /* \"#utility.yul\":8646:8748   */\n  swap2\n  swap1\n  pop\n  jump\t// out\n    /* \"#utility.yul\":8754:8861   */\ntag_137:\n    /* \"#utility.yul\":8798:8806   */\n  0x00\n    /* \"#utility.yul\":8848:8853   */\n  dup3\n    /* \"#utility.yul\":8842:8846   */\n  dup3\n    /* \"#utility.yul\":8838:8854   */\n  shl\n    /* \"#utility.yul\":8817:8854   */\n  swap1\n  pop\n    /* \"#utility.yul\":8754:8861   */\n  swap3\n  swap2\n  pop\n  pop\n  jump\t// out\n    /* \"contracts/SimpleVoting.sol\":371:6733  contract SimpleVoting is Context {\r... */\ntag_21:\n  dataSize(sub_0)\n  dup1\n  dataOffset(sub_0)\n  0x00\n  codecopy\n  0x00\n  return\nstop\n\nsub_0: assembly {\n        /* \"contracts/SimpleVoting.sol\":371:6733  contract SimpleVoting is Context {\r... */\n      mstore(0x40, 0x80)\n      callvalue\n      dup1\n      iszero\n      tag_1\n      jumpi\n      0x00\n      dup1\n      revert\n    tag_1:\n      pop\n      jumpi(tag_2, lt(calldatasize, 0x04))\n      shr(0xe0, calldataload(0x00))\n      dup1\n      0xa3ec138d\n      gt\n      tag_10\n      jumpi\n      dup1\n      0xa3ec138d\n      eq\n      tag_6\n      jumpi\n      dup1\n      0xc7f758a8\n      eq\n      tag_7\n      jumpi\n      dup1\n      0xd4d4b5ac\n      eq\n      tag_8\n      jumpi\n      dup1\n      0xda35c664\n      eq\n      tag_9\n      jumpi\n      jump(tag_2)\n    tag_10:\n      dup1\n      0x0121b93f\n      eq\n      tag_3\n      jumpi\n      dup1\n      0x5c19a95c\n      eq\n      tag_4\n      jumpi\n      dup1\n      0x9e7b8d61\n      eq\n      tag_5\n      jumpi\n    tag_2:\n      0x00\n      dup1\n      revert\n        /* \"contracts/SimpleVoting.sol\":5498:6215  function vote(uint proposal) public proposalExists(proposal) notYetVoted(_msgSender()) hasRightToVote(_msgSender()) {\r... */\n    tag_3:\n      tag_11\n      0x04\n      dup1\n      calldatasize\n      sub\n      dup2\n      add\n      swap1\n      tag_12\n      swap2\n      swap1\n      tag_13\n      jump\t// in\n    tag_12:\n      tag_14\n      jump\t// in\n    tag_11:\n      stop\n        /* \"contracts/SimpleVoting.sol\":4034:5304  function delegate(address _to) public notYetVoted (_msgSender()) hasRightToVote (_msgSender()) {\r... */\n    tag_4:\n      tag_15\n      0x04\n      dup1\n      calldatasize\n      sub\n      dup2\n      add\n      swap1\n      tag_16\n      swap2\n      swap1\n      tag_17\n      jump\t// in\n    tag_16:\n      tag_18\n      jump\t// in\n    tag_15:\n      stop\n        /* \"contracts/SimpleVoting.sol\":3417:3903  function giveRightToVote(address _voter) public onlyChairPerson() notYetVoted(_voter) {\r... */\n    tag_5:\n      tag_19\n      0x04\n      dup1\n      calldatasize\n      sub\n      dup2\n      add\n      swap1\n      tag_20\n      swap2\n      swap1\n      tag_17\n      jump\t// in\n    tag_20:\n      tag_21\n      jump\t// in\n    tag_19:\n      stop\n        /* \"contracts/SimpleVoting.sol\":1067:1106  mapping(address => Voter) public voters */\n    tag_6:\n      tag_22\n      0x04\n      dup1\n      calldatasize\n      sub\n      dup2\n      add\n      swap1\n      tag_23\n      swap2\n      swap1\n      tag_17\n      jump\t// in\n    tag_23:\n      tag_24\n      jump\t// in\n    tag_22:\n      mload(0x40)\n      tag_25\n      swap5\n      swap4\n      swap3\n      swap2\n      swap1\n      tag_26\n      jump\t// in\n    tag_25:\n      mload(0x40)\n      dup1\n      swap2\n      sub\n      swap1\n      return\n        /* \"contracts/SimpleVoting.sol\":2957:3250  function getProposal (uint256 _proposalIndex) public view proposalExists(_proposalIndex) returns (string memory proposalName_, uint256 voteCount_) {\r... */\n    tag_7:\n      tag_27\n      0x04\n      dup1\n      calldatasize\n      sub\n      dup2\n      add\n      swap1\n      tag_28\n      swap2\n      swap1\n      tag_13\n      jump\t// in\n    tag_28:\n      tag_29\n      jump\t// in\n    tag_27:\n      mload(0x40)\n      tag_30\n      swap3\n      swap2\n      swap1\n      tag_31\n      jump\t// in\n    tag_30:\n      mload(0x40)\n      dup1\n      swap2\n      sub\n      swap1\n      return\n        /* \"contracts/SimpleVoting.sol\":1032:1058  address public chairPerson */\n    tag_8:\n      tag_32\n      tag_33\n      jump\t// in\n    tag_32:\n      mload(0x40)\n      tag_34\n      swap2\n      swap1\n      tag_35\n      jump\t// in\n    tag_34:\n      mload(0x40)\n      dup1\n      swap2\n      sub\n      swap1\n      return\n        /* \"contracts/SimpleVoting.sol\":995:1023  uint256 public proposalCount */\n    tag_9:\n      tag_36\n      tag_37\n      jump\t// in\n    tag_36:\n      mload(0x40)\n      tag_38\n      swap2\n      swap1\n      tag_39\n      jump\t// in\n    tag_38:\n      mload(0x40)\n      dup1\n      swap2\n      sub\n      swap1\n      return\n        /* \"contracts/SimpleVoting.sol\":5498:6215  function vote(uint proposal) public proposalExists(proposal) notYetVoted(_msgSender()) hasRightToVote(_msgSender()) {\r... */\n    tag_14:\n        /* \"contracts/SimpleVoting.sol\":5549:5557  proposal */\n      dup1\n        /* \"contracts/SimpleVoting.sol\":1888:1901  proposalCount */\n      sload(0x00)\n        /* \"contracts/SimpleVoting.sol\":1871:1885  _proposalIndex */\n      dup2\n        /* \"contracts/SimpleVoting.sol\":1871:1901  _proposalIndex < proposalCount */\n      lt\n        /* \"contracts/SimpleVoting.sol\":1848:1973  require (\r... */\n      tag_42\n      jumpi\n      mload(0x40)\n      0x08c379a000000000000000000000000000000000000000000000000000000000\n      dup2\n      mstore\n      0x04\n      add\n      tag_43\n      swap1\n      tag_44\n      jump\t// in\n    tag_43:\n      mload(0x40)\n      dup1\n      swap2\n      sub\n      swap1\n      revert\n    tag_42:\n        /* \"contracts/SimpleVoting.sol\":5571:5583  _msgSender() */\n      tag_45\n        /* \"contracts/SimpleVoting.sol\":5571:5581  _msgSender */\n      tag_46\n        /* \"contracts/SimpleVoting.sol\":5571:5583  _msgSender() */\n      jump\t// in\n    tag_45:\n        /* \"contracts/SimpleVoting.sol\":1670:1676  voters */\n      0x02\n        /* \"contracts/SimpleVoting.sol\":1670:1684  voters[_voter] */\n      0x00\n        /* \"contracts/SimpleVoting.sol\":1677:1683  _voter */\n      dup3\n        /* \"contracts/SimpleVoting.sol\":1670:1684  voters[_voter] */\n      0xffffffffffffffffffffffffffffffffffffffff\n      and\n      0xffffffffffffffffffffffffffffffffffffffff\n      and\n      dup2\n      mstore\n      0x20\n      add\n      swap1\n      dup2\n      mstore\n      0x20\n      add\n      0x00\n      keccak256\n        /* \"contracts/SimpleVoting.sol\":1670:1690  voters[_voter].voted */\n      0x01\n      add\n      0x00\n      swap1\n      sload\n      swap1\n      0x0100\n      exp\n      swap1\n      div\n      0xff\n      and\n        /* \"contracts/SimpleVoting.sol\":1669:1690  !voters[_voter].voted */\n      iszero\n        /* \"contracts/SimpleVoting.sol\":1647:1760  require(\r... */\n      tag_48\n      jumpi\n      mload(0x40)\n      0x08c379a000000000000000000000000000000000000000000000000000000000\n      dup2\n      mstore\n      0x04\n      add\n      tag_49\n      swap1\n      tag_50\n      jump\t// in\n    tag_49:\n      mload(0x40)\n      dup1\n      swap2\n      sub\n      swap1\n      revert\n    tag_48:\n        /* \"contracts/SimpleVoting.sol\":5600:5612  _msgSender() */\n      tag_51\n        /* \"contracts/SimpleVoting.sol\":5600:5610  _msgSender */\n      tag_46\n        /* \"contracts/SimpleVoting.sol\":5600:5612  _msgSender() */\n      jump\t// in\n    tag_51:\n        /* \"contracts/SimpleVoting.sol\":2100:2101  0 */\n      0x00\n        /* \"contracts/SimpleVoting.sol\":2076:2082  voters */\n      0x02\n        /* \"contracts/SimpleVoting.sol\":2076:2090  voters[_voter] */\n      0x00\n        /* \"contracts/SimpleVoting.sol\":2083:2089  _voter */\n      dup4\n        /* \"contracts/SimpleVoting.sol\":2076:2090  voters[_voter] */\n      0xffffffffffffffffffffffffffffffffffffffff\n      and\n      0xffffffffffffffffffffffffffffffffffffffff\n      and\n      dup2\n      mstore\n      0x20\n      add\n      swap1\n      dup2\n      mstore\n      0x20\n      add\n      0x00\n      keccak256\n        /* \"contracts/SimpleVoting.sol\":2076:2097  voters[_voter].weight */\n      0x00\n      add\n      sload\n        /* \"contracts/SimpleVoting.sol\":2076:2101  voters[_voter].weight > 0 */\n      gt\n        /* \"contracts/SimpleVoting.sol\":2053:2178  require (\r... */\n      tag_53\n      jumpi\n      mload(0x40)\n      0x08c379a000000000000000000000000000000000000000000000000000000000\n      dup2\n      mstore\n      0x04\n      add\n      tag_54\n      swap1\n      tag_55\n      jump\t// in\n    tag_54:\n      mload(0x40)\n      dup1\n      swap2\n      sub\n      swap1\n      revert\n    tag_53:\n        /* \"contracts/SimpleVoting.sol\":5625:5645  Voter storage sender */\n      0x00\n        /* \"contracts/SimpleVoting.sol\":5648:5654  voters */\n      0x02\n        /* \"contracts/SimpleVoting.sol\":5648:5668  voters[_msgSender()] */\n      0x00\n        /* \"contracts/SimpleVoting.sol\":5655:5667  _msgSender() */\n      tag_57\n        /* \"contracts/SimpleVoting.sol\":5655:5665  _msgSender */\n      tag_46\n        /* \"contracts/SimpleVoting.sol\":5655:5667  _msgSender() */\n      jump\t// in\n    tag_57:\n        /* \"contracts/SimpleVoting.sol\":5648:5668  voters[_msgSender()] */\n      0xffffffffffffffffffffffffffffffffffffffff\n      and\n      0xffffffffffffffffffffffffffffffffffffffff\n      and\n      dup2\n      mstore\n      0x20\n      add\n      swap1\n      dup2\n      mstore\n      0x20\n      add\n      0x00\n      keccak256\n        /* \"contracts/SimpleVoting.sol\":5625:5668  Voter storage sender = voters[_msgSender()] */\n      swap1\n      pop\n        /* \"contracts/SimpleVoting.sol\":5870:5874  true */\n      0x01\n        /* \"contracts/SimpleVoting.sol\":5855:5861  sender */\n      dup2\n        /* \"contracts/SimpleVoting.sol\":5855:5867  sender.voted */\n      0x01\n      add\n      0x00\n        /* \"contracts/SimpleVoting.sol\":5855:5874  sender.voted = true */\n      0x0100\n      exp\n      dup2\n      sload\n      dup2\n      0xff\n      mul\n      not\n      and\n      swap1\n      dup4\n      iszero\n      iszero\n      mul\n      or\n      swap1\n      sstore\n      pop\n        /* \"contracts/SimpleVoting.sol\":5899:5907  proposal */\n      dup5\n        /* \"contracts/SimpleVoting.sol\":5885:5891  sender */\n      dup2\n        /* \"contracts/SimpleVoting.sol\":5885:5896  sender.vote */\n      0x02\n      add\n        /* \"contracts/SimpleVoting.sol\":5885:5907  sender.vote = proposal */\n      dup2\n      swap1\n      sstore\n      pop\n        /* \"contracts/SimpleVoting.sol\":6090:6139  proposals[proposal].voteCount. add(sender.weight) */\n      tag_58\n        /* \"contracts/SimpleVoting.sol\":6125:6131  sender */\n      dup2\n        /* \"contracts/SimpleVoting.sol\":6125:6138  sender.weight */\n      0x00\n      add\n      sload\n        /* \"contracts/SimpleVoting.sol\":6090:6099  proposals */\n      0x03\n        /* \"contracts/SimpleVoting.sol\":6100:6108  proposal */\n      dup8\n        /* \"contracts/SimpleVoting.sol\":6090:6109  proposals[proposal] */\n      dup2\n      sload\n      dup2\n      lt\n      tag_59\n      jumpi\n      tag_60\n      tag_61\n      jump\t// in\n    tag_60:\n    tag_59:\n      swap1\n      0x00\n      mstore\n      keccak256(0x00, 0x20)\n      swap1\n      0x02\n      mul\n      add\n        /* \"contracts/SimpleVoting.sol\":6090:6119  proposals[proposal].voteCount */\n      0x01\n      add\n      sload\n        /* \"contracts/SimpleVoting.sol\":6090:6124  proposals[proposal].voteCount. add */\n      tag_40\n      swap1\n        /* \"contracts/SimpleVoting.sol\":6090:6139  proposals[proposal].voteCount. add(sender.weight) */\n      swap2\n      swap1\n      0xffffffff\n      and\n      jump\t// in\n    tag_58:\n        /* \"contracts/SimpleVoting.sol\":6058:6067  proposals */\n      0x03\n        /* \"contracts/SimpleVoting.sol\":6068:6076  proposal */\n      dup7\n        /* \"contracts/SimpleVoting.sol\":6058:6077  proposals[proposal] */\n      dup2\n      sload\n      dup2\n      lt\n      tag_63\n      jumpi\n      tag_64\n      tag_61\n      jump\t// in\n    tag_64:\n    tag_63:\n      swap1\n      0x00\n      mstore\n      keccak256(0x00, 0x20)\n      swap1\n      0x02\n      mul\n      add\n        /* \"contracts/SimpleVoting.sol\":6058:6087  proposals[proposal].voteCount */\n      0x01\n      add\n        /* \"contracts/SimpleVoting.sol\":6058:6139  proposals[proposal].voteCount = proposals[proposal].voteCount. add(sender.weight) */\n      dup2\n      swap1\n      sstore\n      pop\n        /* \"contracts/SimpleVoting.sol\":6179:6191  _msgSender() */\n      tag_66\n        /* \"contracts/SimpleVoting.sol\":6179:6189  _msgSender */\n      tag_46\n        /* \"contracts/SimpleVoting.sol\":6179:6191  _msgSender() */\n      jump\t// in\n    tag_66:\n        /* \"contracts/SimpleVoting.sol\":6157:6207  VoteCasted (proposal, _msgSender(), sender.weight) */\n      0xffffffffffffffffffffffffffffffffffffffff\n      and\n        /* \"contracts/SimpleVoting.sol\":6169:6177  proposal */\n      dup6\n        /* \"contracts/SimpleVoting.sol\":6157:6207  VoteCasted (proposal, _msgSender(), sender.weight) */\n      0xe7ee74ca1f4bb1b82b14f87794c45b3e59c39e372b862fb97a6316b43355b69e\n        /* \"contracts/SimpleVoting.sol\":6193:6199  sender */\n      dup4\n        /* \"contracts/SimpleVoting.sol\":6193:6206  sender.weight */\n      0x00\n      add\n      sload\n        /* \"contracts/SimpleVoting.sol\":6157:6207  VoteCasted (proposal, _msgSender(), sender.weight) */\n      mload(0x40)\n      tag_67\n      swap2\n      swap1\n      tag_39\n      jump\t// in\n    tag_67:\n      mload(0x40)\n      dup1\n      swap2\n      sub\n      swap1\n      log3\n        /* \"contracts/SimpleVoting.sol\":5614:6215  {\r... */\n      pop\n        /* \"contracts/SimpleVoting.sol\":1771:1772  _ */\n      pop\n        /* \"contracts/SimpleVoting.sol\":1984:1985  _ */\n      pop\n        /* \"contracts/SimpleVoting.sol\":5498:6215  function vote(uint proposal) public proposalExists(proposal) notYetVoted(_msgSender()) hasRightToVote(_msgSender()) {\r... */\n      pop\n      pop\n      jump\t// out\n        /* \"contracts/SimpleVoting.sol\":4034:5304  function delegate(address _to) public notYetVoted (_msgSender()) hasRightToVote (_msgSender()) {\r... */\n    tag_18:\n        /* \"contracts/SimpleVoting.sol\":4085:4097  _msgSender() */\n      tag_68\n        /* \"contracts/SimpleVoting.sol\":4085:4095  _msgSender */\n      tag_46\n        /* \"contracts/SimpleVoting.sol\":4085:4097  _msgSender() */\n      jump\t// in\n    tag_68:\n        /* \"contracts/SimpleVoting.sol\":1670:1676  voters */\n      0x02\n        /* \"contracts/SimpleVoting.sol\":1670:1684  voters[_voter] */\n      0x00\n        /* \"contracts/SimpleVoting.sol\":1677:1683  _voter */\n      dup3\n        /* \"contracts/SimpleVoting.sol\":1670:1684  voters[_voter] */\n      0xffffffffffffffffffffffffffffffffffffffff\n      and\n      0xffffffffffffffffffffffffffffffffffffffff\n      and\n      dup2\n      mstore\n      0x20\n      add\n      swap1\n      dup2\n      mstore\n      0x20\n      add\n      0x00\n      keccak256\n        /* \"contracts/SimpleVoting.sol\":1670:1690  voters[_voter].voted */\n      0x01\n      add\n      0x00\n      swap1\n      sload\n      swap1\n      0x0100\n      exp\n      swap1\n      div\n      0xff\n      and\n        /* \"contracts/SimpleVoting.sol\":1669:1690  !voters[_voter].voted */\n      iszero\n        /* \"contracts/SimpleVoting.sol\":1647:1760  require(\r... */\n      tag_70\n      jumpi\n      mload(0x40)\n      0x08c379a000000000000000000000000000000000000000000000000000000000\n      dup2\n      mstore\n      0x04\n      add\n      tag_71\n      swap1\n      tag_50\n      jump\t// in\n    tag_71:\n      mload(0x40)\n      dup1\n      swap2\n      sub\n      swap1\n      revert\n    tag_70:\n        /* \"contracts/SimpleVoting.sol\":4115:4127  _msgSender() */\n      tag_72\n        /* \"contracts/SimpleVoting.sol\":4115:4125  _msgSender */\n      tag_46\n        /* \"contracts/SimpleVoting.sol\":4115:4127  _msgSender() */\n      jump\t// in\n    tag_72:\n        /* \"contracts/SimpleVoting.sol\":2100:2101  0 */\n      0x00\n        /* \"contracts/SimpleVoting.sol\":2076:2082  voters */\n      0x02\n        /* \"contracts/SimpleVoting.sol\":2076:2090  voters[_voter] */\n      0x00\n        /* \"contracts/SimpleVoting.sol\":2083:2089  _voter */\n      dup4\n        /* \"contracts/SimpleVoting.sol\":2076:2090  voters[_voter] */\n      0xffffffffffffffffffffffffffffffffffffffff\n      and\n      0xffffffffffffffffffffffffffffffffffffffff\n      and\n      dup2\n      mstore\n      0x20\n      add\n      swap1\n      dup2\n      mstore\n      0x20\n      add\n      0x00\n      keccak256\n        /* \"contracts/SimpleVoting.sol\":2076:2097  voters[_voter].weight */\n      0x00\n      add\n      sload\n        /* \"contracts/SimpleVoting.sol\":2076:2101  voters[_voter].weight > 0 */\n      gt\n        /* \"contracts/SimpleVoting.sol\":2053:2178  require (\r... */\n      tag_74\n      jumpi\n      mload(0x40)\n      0x08c379a000000000000000000000000000000000000000000000000000000000\n      dup2\n      mstore\n      0x04\n      add\n      tag_75\n      swap1\n      tag_55\n      jump\t// in\n    tag_75:\n      mload(0x40)\n      dup1\n      swap2\n      sub\n      swap1\n      revert\n    tag_74:\n        /* \"contracts/SimpleVoting.sol\":4248:4268  Voter storage sender */\n      0x00\n        /* \"contracts/SimpleVoting.sol\":4271:4277  voters */\n      0x02\n        /* \"contracts/SimpleVoting.sol\":4271:4291  voters[_msgSender()] */\n      0x00\n        /* \"contracts/SimpleVoting.sol\":4278:4290  _msgSender() */\n      tag_77\n        /* \"contracts/SimpleVoting.sol\":4278:4288  _msgSender */\n      tag_46\n        /* \"contracts/SimpleVoting.sol\":4278:4290  _msgSender() */\n      jump\t// in\n    tag_77:\n        /* \"contracts/SimpleVoting.sol\":4271:4291  voters[_msgSender()] */\n      0xffffffffffffffffffffffffffffffffffffffff\n      and\n      0xffffffffffffffffffffffffffffffffffffffff\n      and\n      dup2\n      mstore\n      0x20\n      add\n      swap1\n      dup2\n      mstore\n      0x20\n      add\n      0x00\n      keccak256\n        /* \"contracts/SimpleVoting.sol\":4248:4291  Voter storage sender = voters[_msgSender()] */\n      swap1\n      pop\n        /* \"contracts/SimpleVoting.sol\":4375:4387  _msgSender() */\n      tag_78\n        /* \"contracts/SimpleVoting.sol\":4375:4385  _msgSender */\n      tag_46\n        /* \"contracts/SimpleVoting.sol\":4375:4387  _msgSender() */\n      jump\t// in\n    tag_78:\n        /* \"contracts/SimpleVoting.sol\":4368:4387  _to != _msgSender() */\n      0xffffffffffffffffffffffffffffffffffffffff\n      and\n        /* \"contracts/SimpleVoting.sol\":4368:4371  _to */\n      dup5\n        /* \"contracts/SimpleVoting.sol\":4368:4387  _to != _msgSender() */\n      0xffffffffffffffffffffffffffffffffffffffff\n      and\n      eq\n      iszero\n        /* \"contracts/SimpleVoting.sol\":4359:4437  require (_to != _msgSender(), \"SimpleVoting: Self-delegation is not allowed.\") */\n      tag_79\n      jumpi\n      mload(0x40)\n      0x08c379a000000000000000000000000000000000000000000000000000000000\n      dup2\n      mstore\n      0x04\n      add\n      tag_80\n      swap1\n      tag_81\n      jump\t// in\n    tag_80:\n      mload(0x40)\n      dup1\n      swap2\n      sub\n      swap1\n      revert\n    tag_79:\n        /* \"contracts/SimpleVoting.sol\":4450:4706  while (voters[_to].delegate != address(0)) {\r... */\n    tag_82:\n        /* \"contracts/SimpleVoting.sol\":4489:4490  0 */\n      0x00\n        /* \"contracts/SimpleVoting.sol\":4457:4491  voters[_to].delegate != address(0) */\n      0xffffffffffffffffffffffffffffffffffffffff\n      and\n        /* \"contracts/SimpleVoting.sol\":4457:4463  voters */\n      0x02\n        /* \"contracts/SimpleVoting.sol\":4457:4468  voters[_to] */\n      0x00\n        /* \"contracts/SimpleVoting.sol\":4464:4467  _to */\n      dup7\n        /* \"contracts/SimpleVoting.sol\":4457:4468  voters[_to] */\n      0xffffffffffffffffffffffffffffffffffffffff\n      and\n      0xffffffffffffffffffffffffffffffffffffffff\n      and\n      dup2\n      mstore\n      0x20\n      add\n      swap1\n      dup2\n      mstore\n      0x20\n      add\n      0x00\n      keccak256\n        /* \"contracts/SimpleVoting.sol\":4457:4477  voters[_to].delegate */\n      0x01\n      add\n      0x01\n      swap1\n      sload\n      swap1\n      0x0100\n      exp\n      swap1\n      div\n      0xffffffffffffffffffffffffffffffffffffffff\n      and\n        /* \"contracts/SimpleVoting.sol\":4457:4491  voters[_to].delegate != address(0) */\n      0xffffffffffffffffffffffffffffffffffffffff\n      and\n      eq\n        /* \"contracts/SimpleVoting.sol\":4450:4706  while (voters[_to].delegate != address(0)) {\r... */\n      tag_83\n      jumpi\n        /* \"contracts/SimpleVoting.sol\":4514:4520  voters */\n      0x02\n        /* \"contracts/SimpleVoting.sol\":4514:4525  voters[_to] */\n      0x00\n        /* \"contracts/SimpleVoting.sol\":4521:4524  _to */\n      dup6\n        /* \"contracts/SimpleVoting.sol\":4514:4525  voters[_to] */\n      0xffffffffffffffffffffffffffffffffffffffff\n      and\n      0xffffffffffffffffffffffffffffffffffffffff\n      and\n      dup2\n      mstore\n      0x20\n      add\n      swap1\n      dup2\n      mstore\n      0x20\n      add\n      0x00\n      keccak256\n        /* \"contracts/SimpleVoting.sol\":4514:4534  voters[_to].delegate */\n      0x01\n      add\n      0x01\n      swap1\n      sload\n      swap1\n      0x0100\n      exp\n      swap1\n      div\n      0xffffffffffffffffffffffffffffffffffffffff\n      and\n        /* \"contracts/SimpleVoting.sol\":4508:4534  _to = voters[_to].delegate */\n      swap4\n      pop\n        /* \"contracts/SimpleVoting.sol\":4630:4642  _msgSender() */\n      tag_84\n        /* \"contracts/SimpleVoting.sol\":4630:4640  _msgSender */\n      tag_46\n        /* \"contracts/SimpleVoting.sol\":4630:4642  _msgSender() */\n      jump\t// in\n    tag_84:\n        /* \"contracts/SimpleVoting.sol\":4623:4642  _to != _msgSender() */\n      0xffffffffffffffffffffffffffffffffffffffff\n      and\n        /* \"contracts/SimpleVoting.sol\":4623:4626  _to */\n      dup5\n        /* \"contracts/SimpleVoting.sol\":4623:4642  _to != _msgSender() */\n      0xffffffffffffffffffffffffffffffffffffffff\n      and\n      eq\n      iszero\n        /* \"contracts/SimpleVoting.sol\":4615:4694  require(_to != _msgSender(), \"SimpleVoting: Delegation traces back to caller.\") */\n      tag_85\n      jumpi\n      mload(0x40)\n      0x08c379a000000000000000000000000000000000000000000000000000000000\n      dup2\n      mstore\n      0x04\n      add\n      tag_86\n      swap1\n      tag_87\n      jump\t// in\n    tag_86:\n      mload(0x40)\n      dup1\n      swap2\n      sub\n      swap1\n      revert\n    tag_85:\n        /* \"contracts/SimpleVoting.sol\":4450:4706  while (voters[_to].delegate != address(0)) {\r... */\n      jump(tag_82)\n    tag_83:\n        /* \"contracts/SimpleVoting.sol\":4731:4735  true */\n      0x01\n        /* \"contracts/SimpleVoting.sol\":4716:4722  sender */\n      dup2\n        /* \"contracts/SimpleVoting.sol\":4716:4728  sender.voted */\n      0x01\n      add\n      0x00\n        /* \"contracts/SimpleVoting.sol\":4716:4735  sender.voted = true */\n      0x0100\n      exp\n      dup2\n      sload\n      dup2\n      0xff\n      mul\n      not\n      and\n      swap1\n      dup4\n      iszero\n      iszero\n      mul\n      or\n      swap1\n      sstore\n      pop\n        /* \"contracts/SimpleVoting.sol\":4764:4767  _to */\n      dup4\n        /* \"contracts/SimpleVoting.sol\":4746:4752  sender */\n      dup2\n        /* \"contracts/SimpleVoting.sol\":4746:4761  sender.delegate */\n      0x01\n      add\n      0x01\n        /* \"contracts/SimpleVoting.sol\":4746:4767  sender.delegate = _to */\n      0x0100\n      exp\n      dup2\n      sload\n      dup2\n      0xffffffffffffffffffffffffffffffffffffffff\n      mul\n      not\n      and\n      swap1\n      dup4\n      0xffffffffffffffffffffffffffffffffffffffff\n      and\n      mul\n      or\n      swap1\n      sstore\n      pop\n        /* \"contracts/SimpleVoting.sol\":4778:4801  Voter storage delegate_ */\n      0x00\n        /* \"contracts/SimpleVoting.sol\":4804:4810  voters */\n      0x02\n        /* \"contracts/SimpleVoting.sol\":4804:4815  voters[_to] */\n      0x00\n        /* \"contracts/SimpleVoting.sol\":4811:4814  _to */\n      dup7\n        /* \"contracts/SimpleVoting.sol\":4804:4815  voters[_to] */\n      0xffffffffffffffffffffffffffffffffffffffff\n      and\n      0xffffffffffffffffffffffffffffffffffffffff\n      and\n      dup2\n      mstore\n      0x20\n      add\n      swap1\n      dup2\n      mstore\n      0x20\n      add\n      0x00\n      keccak256\n        /* \"contracts/SimpleVoting.sol\":4778:4815  Voter storage delegate_ = voters[_to] */\n      swap1\n      pop\n        /* \"contracts/SimpleVoting.sol\":4830:4839  delegate_ */\n      dup1\n        /* \"contracts/SimpleVoting.sol\":4830:4845  delegate_.voted */\n      0x01\n      add\n      0x00\n      swap1\n      sload\n      swap1\n      0x0100\n      exp\n      swap1\n      div\n      0xff\n      and\n        /* \"contracts/SimpleVoting.sol\":4826:5239  if (delegate_.voted) {\r... */\n      iszero\n      tag_88\n      jumpi\n        /* \"contracts/SimpleVoting.sol\":4999:5054  proposals[delegate_.vote].voteCount. add(sender.weight) */\n      tag_89\n        /* \"contracts/SimpleVoting.sol\":5040:5046  sender */\n      dup3\n        /* \"contracts/SimpleVoting.sol\":5040:5053  sender.weight */\n      0x00\n      add\n      sload\n        /* \"contracts/SimpleVoting.sol\":4999:5008  proposals */\n      0x03\n        /* \"contracts/SimpleVoting.sol\":5009:5018  delegate_ */\n      dup4\n        /* \"contracts/SimpleVoting.sol\":5009:5023  delegate_.vote */\n      0x02\n      add\n      sload\n        /* \"contracts/SimpleVoting.sol\":4999:5024  proposals[delegate_.vote] */\n      dup2\n      sload\n      dup2\n      lt\n      tag_90\n      jumpi\n      tag_91\n      tag_61\n      jump\t// in\n    tag_91:\n    tag_90:\n      swap1\n      0x00\n      mstore\n      keccak256(0x00, 0x20)\n      swap1\n      0x02\n      mul\n      add\n        /* \"contracts/SimpleVoting.sol\":4999:5034  proposals[delegate_.vote].voteCount */\n      0x01\n      add\n      sload\n        /* \"contracts/SimpleVoting.sol\":4999:5039  proposals[delegate_.vote].voteCount. add */\n      tag_40\n      swap1\n        /* \"contracts/SimpleVoting.sol\":4999:5054  proposals[delegate_.vote].voteCount. add(sender.weight) */\n      swap2\n      swap1\n      0xffffffff\n      and\n      jump\t// in\n    tag_89:\n        /* \"contracts/SimpleVoting.sol\":4961:4970  proposals */\n      0x03\n        /* \"contracts/SimpleVoting.sol\":4971:4980  delegate_ */\n      dup3\n        /* \"contracts/SimpleVoting.sol\":4971:4985  delegate_.vote */\n      0x02\n      add\n      sload\n        /* \"contracts/SimpleVoting.sol\":4961:4986  proposals[delegate_.vote] */\n      dup2\n      sload\n      dup2\n      lt\n      tag_93\n      jumpi\n      tag_94\n      tag_61\n      jump\t// in\n    tag_94:\n    tag_93:\n      swap1\n      0x00\n      mstore\n      keccak256(0x00, 0x20)\n      swap1\n      0x02\n      mul\n      add\n        /* \"contracts/SimpleVoting.sol\":4961:4996  proposals[delegate_.vote].voteCount */\n      0x01\n      add\n        /* \"contracts/SimpleVoting.sol\":4961:5054  proposals[delegate_.vote].voteCount = proposals[delegate_.vote].voteCount. add(sender.weight) */\n      dup2\n      swap1\n      sstore\n      pop\n        /* \"contracts/SimpleVoting.sol\":4826:5239  if (delegate_.voted) {\r... */\n      jump(tag_96)\n    tag_88:\n        /* \"contracts/SimpleVoting.sol\":5191:5227  delegate_.weight. add(sender.weight) */\n      tag_97\n        /* \"contracts/SimpleVoting.sol\":5213:5219  sender */\n      dup3\n        /* \"contracts/SimpleVoting.sol\":5213:5226  sender.weight */\n      0x00\n      add\n      sload\n        /* \"contracts/SimpleVoting.sol\":5191:5200  delegate_ */\n      dup3\n        /* \"contracts/SimpleVoting.sol\":5191:5207  delegate_.weight */\n      0x00\n      add\n      sload\n        /* \"contracts/SimpleVoting.sol\":5191:5212  delegate_.weight. add */\n      tag_40\n      swap1\n        /* \"contracts/SimpleVoting.sol\":5191:5227  delegate_.weight. add(sender.weight) */\n      swap2\n      swap1\n      0xffffffff\n      and\n      jump\t// in\n    tag_97:\n        /* \"contracts/SimpleVoting.sol\":5172:5181  delegate_ */\n      dup2\n        /* \"contracts/SimpleVoting.sol\":5172:5188  delegate_.weight */\n      0x00\n      add\n        /* \"contracts/SimpleVoting.sol\":5172:5227  delegate_.weight = delegate_.weight. add(sender.weight) */\n      dup2\n      swap1\n      sstore\n      pop\n        /* \"contracts/SimpleVoting.sol\":4826:5239  if (delegate_.voted) {\r... */\n    tag_96:\n        /* \"contracts/SimpleVoting.sol\":5292:5295  _to */\n      dup5\n        /* \"contracts/SimpleVoting.sol\":5256:5296  DelegationSuccessful (_msgSender(), _to) */\n      0xffffffffffffffffffffffffffffffffffffffff\n      and\n        /* \"contracts/SimpleVoting.sol\":5278:5290  _msgSender() */\n      tag_98\n        /* \"contracts/SimpleVoting.sol\":5278:5288  _msgSender */\n      tag_46\n        /* \"contracts/SimpleVoting.sol\":5278:5290  _msgSender() */\n      jump\t// in\n    tag_98:\n        /* \"contracts/SimpleVoting.sol\":5256:5296  DelegationSuccessful (_msgSender(), _to) */\n      0xffffffffffffffffffffffffffffffffffffffff\n      and\n      0x4ce9ef2c99d761d69230b0e3381f4c6016333b2e27d32b3e379a96b5d2c69232\n      mload(0x40)\n      mload(0x40)\n      dup1\n      swap2\n      sub\n      swap1\n      log3\n        /* \"contracts/SimpleVoting.sol\":4129:5304  {\r... */\n      pop\n      pop\n        /* \"contracts/SimpleVoting.sol\":1771:1772  _ */\n      pop\n        /* \"contracts/SimpleVoting.sol\":4034:5304  function delegate(address _to) public notYetVoted (_msgSender()) hasRightToVote (_msgSender()) {\r... */\n      pop\n      pop\n      jump\t// out\n        /* \"contracts/SimpleVoting.sol\":3417:3903  function giveRightToVote(address _voter) public onlyChairPerson() notYetVoted(_voter) {\r... */\n    tag_21:\n        /* \"contracts/SimpleVoting.sol\":1475:1486  chairPerson */\n      0x01\n      0x00\n      swap1\n      sload\n      swap1\n      0x0100\n      exp\n      swap1\n      div\n      0xffffffffffffffffffffffffffffffffffffffff\n      and\n        /* \"contracts/SimpleVoting.sol\":1459:1486  _msgSender() == chairPerson */\n      0xffffffffffffffffffffffffffffffffffffffff\n      and\n        /* \"contracts/SimpleVoting.sol\":1459:1471  _msgSender() */\n      tag_100\n        /* \"contracts/SimpleVoting.sol\":1459:1469  _msgSender */\n      tag_46\n        /* \"contracts/SimpleVoting.sol\":1459:1471  _msgSender() */\n      jump\t// in\n    tag_100:\n        /* \"contracts/SimpleVoting.sol\":1459:1486  _msgSender() == chairPerson */\n      0xffffffffffffffffffffffffffffffffffffffff\n      and\n      eq\n        /* \"contracts/SimpleVoting.sol\":1437:1568  require(\r... */\n      tag_101\n      jumpi\n      mload(0x40)\n      0x08c379a000000000000000000000000000000000000000000000000000000000\n      dup2\n      mstore\n      0x04\n      add\n      tag_102\n      swap1\n      tag_103\n      jump\t// in\n    tag_102:\n      mload(0x40)\n      dup1\n      swap2\n      sub\n      swap1\n      revert\n    tag_101:\n        /* \"contracts/SimpleVoting.sol\":3495:3501  _voter */\n      dup1\n        /* \"contracts/SimpleVoting.sol\":1670:1676  voters */\n      0x02\n        /* \"contracts/SimpleVoting.sol\":1670:1684  voters[_voter] */\n      0x00\n        /* \"contracts/SimpleVoting.sol\":1677:1683  _voter */\n      dup3\n        /* \"contracts/SimpleVoting.sol\":1670:1684  voters[_voter] */\n      0xffffffffffffffffffffffffffffffffffffffff\n      and\n      0xffffffffffffffffffffffffffffffffffffffff\n      and\n      dup2\n      mstore\n      0x20\n      add\n      swap1\n      dup2\n      mstore\n      0x20\n      add\n      0x00\n      keccak256\n        /* \"contracts/SimpleVoting.sol\":1670:1690  voters[_voter].voted */\n      0x01\n      add\n      0x00\n      swap1\n      sload\n      swap1\n      0x0100\n      exp\n      swap1\n      div\n      0xff\n      and\n        /* \"contracts/SimpleVoting.sol\":1669:1690  !voters[_voter].voted */\n      iszero\n        /* \"contracts/SimpleVoting.sol\":1647:1760  require(\r... */\n      tag_105\n      jumpi\n      mload(0x40)\n      0x08c379a000000000000000000000000000000000000000000000000000000000\n      dup2\n      mstore\n      0x04\n      add\n      tag_106\n      swap1\n      tag_50\n      jump\t// in\n    tag_106:\n      mload(0x40)\n      dup1\n      swap2\n      sub\n      swap1\n      revert\n    tag_105:\n        /* \"contracts/SimpleVoting.sol\":3805:3806  0 */\n      0x00\n        /* \"contracts/SimpleVoting.sol\":3780:3786  voters */\n      0x02\n        /* \"contracts/SimpleVoting.sol\":3780:3794  voters[_voter] */\n      0x00\n        /* \"contracts/SimpleVoting.sol\":3787:3793  _voter */\n      dup5\n        /* \"contracts/SimpleVoting.sol\":3780:3794  voters[_voter] */\n      0xffffffffffffffffffffffffffffffffffffffff\n      and\n      0xffffffffffffffffffffffffffffffffffffffff\n      and\n      dup2\n      mstore\n      0x20\n      add\n      swap1\n      dup2\n      mstore\n      0x20\n      add\n      0x00\n      keccak256\n        /* \"contracts/SimpleVoting.sol\":3780:3801  voters[_voter].weight */\n      0x00\n      add\n      sload\n        /* \"contracts/SimpleVoting.sol\":3780:3806  voters[_voter].weight == 0 */\n      eq\n        /* \"contracts/SimpleVoting.sol\":3772:3859  require(voters[_voter].weight == 0, \"SimpleVoting: Address already has right to vote.\") */\n      tag_108\n      jumpi\n      mload(0x40)\n      0x08c379a000000000000000000000000000000000000000000000000000000000\n      dup2\n      mstore\n      0x04\n      add\n      tag_109\n      swap1\n      tag_110\n      jump\t// in\n    tag_109:\n      mload(0x40)\n      dup1\n      swap2\n      sub\n      swap1\n      revert\n    tag_108:\n        /* \"contracts/SimpleVoting.sol\":3894:3895  1 */\n      0x01\n        /* \"contracts/SimpleVoting.sol\":3870:3876  voters */\n      0x02\n        /* \"contracts/SimpleVoting.sol\":3870:3884  voters[_voter] */\n      0x00\n        /* \"contracts/SimpleVoting.sol\":3877:3883  _voter */\n      dup5\n        /* \"contracts/SimpleVoting.sol\":3870:3884  voters[_voter] */\n      0xffffffffffffffffffffffffffffffffffffffff\n      and\n      0xffffffffffffffffffffffffffffffffffffffff\n      and\n      dup2\n      mstore\n      0x20\n      add\n      swap1\n      dup2\n      mstore\n      0x20\n      add\n      0x00\n      keccak256\n        /* \"contracts/SimpleVoting.sol\":3870:3891  voters[_voter].weight */\n      0x00\n      add\n        /* \"contracts/SimpleVoting.sol\":3870:3895  voters[_voter].weight = 1 */\n      dup2\n      swap1\n      sstore\n      pop\n        /* \"contracts/SimpleVoting.sol\":1579:1580  _ */\n      pop\n        /* \"contracts/SimpleVoting.sol\":3417:3903  function giveRightToVote(address _voter) public onlyChairPerson() notYetVoted(_voter) {\r... */\n      pop\n      jump\t// out\n        /* \"contracts/SimpleVoting.sol\":1067:1106  mapping(address => Voter) public voters */\n    tag_24:\n      mstore(0x20, 0x02)\n      dup1\n      0x00\n      mstore\n      keccak256(0x00, 0x40)\n      0x00\n      swap2\n      pop\n      swap1\n      pop\n      dup1\n      0x00\n      add\n      sload\n      swap1\n      dup1\n      0x01\n      add\n      0x00\n      swap1\n      sload\n      swap1\n      0x0100\n      exp\n      swap1\n      div\n      0xff\n      and\n      swap1\n      dup1\n      0x01\n      add\n      0x01\n      swap1\n      sload\n      swap1\n      0x0100\n      exp\n      swap1\n      div\n      0xffffffffffffffffffffffffffffffffffffffff\n      and\n      swap1\n      dup1\n      0x02\n      add\n      sload\n      swap1\n      pop\n      dup5\n      jump\t// out\n        /* \"contracts/SimpleVoting.sol\":2957:3250  function getProposal (uint256 _proposalIndex) public view proposalExists(_proposalIndex) returns (string memory proposalName_, uint256 voteCount_) {\r... */\n    tag_29:\n        /* \"contracts/SimpleVoting.sol\":3055:3082  string memory proposalName_ */\n      0x60\n        /* \"contracts/SimpleVoting.sol\":3084:3102  uint256 voteCount_ */\n      0x00\n        /* \"contracts/SimpleVoting.sol\":3030:3044  _proposalIndex */\n      dup3\n        /* \"contracts/SimpleVoting.sol\":1888:1901  proposalCount */\n      sload(0x00)\n        /* \"contracts/SimpleVoting.sol\":1871:1885  _proposalIndex */\n      dup2\n        /* \"contracts/SimpleVoting.sol\":1871:1901  _proposalIndex < proposalCount */\n      lt\n        /* \"contracts/SimpleVoting.sol\":1848:1973  require (\r... */\n      tag_112\n      jumpi\n      mload(0x40)\n      0x08c379a000000000000000000000000000000000000000000000000000000000\n      dup2\n      mstore\n      0x04\n      add\n      tag_113\n      swap1\n      tag_44\n      jump\t// in\n    tag_113:\n      mload(0x40)\n      dup1\n      swap2\n      sub\n      swap1\n      revert\n    tag_112:\n        /* \"contracts/SimpleVoting.sol\":3156:3204  bytes32ToString (proposals[_proposalIndex].name) */\n      tag_115\n        /* \"contracts/SimpleVoting.sol\":3173:3182  proposals */\n      0x03\n        /* \"contracts/SimpleVoting.sol\":3183:3197  _proposalIndex */\n      dup6\n        /* \"contracts/SimpleVoting.sol\":3173:3198  proposals[_proposalIndex] */\n      dup2\n      sload\n      dup2\n      lt\n      tag_116\n      jumpi\n      tag_117\n      tag_61\n      jump\t// in\n    tag_117:\n    tag_116:\n      swap1\n      0x00\n      mstore\n      keccak256(0x00, 0x20)\n      swap1\n      0x02\n      mul\n      add\n        /* \"contracts/SimpleVoting.sol\":3173:3203  proposals[_proposalIndex].name */\n      0x00\n      add\n      sload\n        /* \"contracts/SimpleVoting.sol\":3156:3171  bytes32ToString */\n      tag_119\n        /* \"contracts/SimpleVoting.sol\":3156:3204  bytes32ToString (proposals[_proposalIndex].name) */\n      jump\t// in\n    tag_115:\n        /* \"contracts/SimpleVoting.sol\":3206:3215  proposals */\n      0x03\n        /* \"contracts/SimpleVoting.sol\":3216:3230  _proposalIndex */\n      dup6\n        /* \"contracts/SimpleVoting.sol\":3206:3231  proposals[_proposalIndex] */\n      dup2\n      sload\n      dup2\n      lt\n      tag_120\n      jumpi\n      tag_121\n      tag_61\n      jump\t// in\n    tag_121:\n    tag_120:\n      swap1\n      0x00\n      mstore\n      keccak256(0x00, 0x20)\n      swap1\n      0x02\n      mul\n      add\n        /* \"contracts/SimpleVoting.sol\":3206:3241  proposals[_proposalIndex].voteCount */\n      0x01\n      add\n      sload\n        /* \"contracts/SimpleVoting.sol\":3115:3242  (proposalName_, voteCount_) = \r... */\n      dup1\n      swap4\n      pop\n      dup2\n      swap5\n      pop\n      pop\n      pop\n        /* \"contracts/SimpleVoting.sol\":2957:3250  function getProposal (uint256 _proposalIndex) public view proposalExists(_proposalIndex) returns (string memory proposalName_, uint256 voteCount_) {\r... */\n      pop\n      swap2\n      pop\n      swap2\n      jump\t// out\n        /* \"contracts/SimpleVoting.sol\":1032:1058  address public chairPerson */\n    tag_33:\n      0x01\n      0x00\n      swap1\n      sload\n      swap1\n      0x0100\n      exp\n      swap1\n      div\n      0xffffffffffffffffffffffffffffffffffffffff\n      and\n      dup2\n      jump\t// out\n        /* \"contracts/SimpleVoting.sol\":995:1023  uint256 public proposalCount */\n    tag_37:\n      sload(0x00)\n      dup2\n      jump\t// out\n        /* \"https://github.com/OpenZeppelin/openzeppelin-contracts/blob/master/contracts/utils/math/SafeMath.sol\":2755:2851  function add(uint256 a, uint256 b) internal pure returns (uint256) {... */\n    tag_40:\n        /* \"https://github.com/OpenZeppelin/openzeppelin-contracts/blob/master/contracts/utils/math/SafeMath.sol\":2813:2820  uint256 */\n      0x00\n        /* \"https://github.com/OpenZeppelin/openzeppelin-contracts/blob/master/contracts/utils/math/SafeMath.sol\":2843:2844  b */\n      dup2\n        /* \"https://github.com/OpenZeppelin/openzeppelin-contracts/blob/master/contracts/utils/math/SafeMath.sol\":2839:2840  a */\n      dup4\n        /* \"https://github.com/OpenZeppelin/openzeppelin-contracts/blob/master/contracts/utils/math/SafeMath.sol\":2839:2844  a + b */\n      tag_124\n      swap2\n      swap1\n      tag_125\n      jump\t// in\n    tag_124:\n        /* \"https://github.com/OpenZeppelin/openzeppelin-contracts/blob/master/contracts/utils/math/SafeMath.sol\":2832:2844  return a + b */\n      swap1\n      pop\n        /* \"https://github.com/OpenZeppelin/openzeppelin-contracts/blob/master/contracts/utils/math/SafeMath.sol\":2755:2851  function add(uint256 a, uint256 b) internal pure returns (uint256) {... */\n      swap3\n      swap2\n      pop\n      pop\n      jump\t// out\n        /* \"https://github.com/OpenZeppelin/openzeppelin-contracts/blob/master/contracts/utils/Context.sol\":640:736  function _msgSender() internal view virtual returns (address) {... */\n    tag_46:\n        /* \"https://github.com/OpenZeppelin/openzeppelin-contracts/blob/master/contracts/utils/Context.sol\":693:700  address */\n      0x00\n        /* \"https://github.com/OpenZeppelin/openzeppelin-contracts/blob/master/contracts/utils/Context.sol\":719:729  msg.sender */\n      caller\n        /* \"https://github.com/OpenZeppelin/openzeppelin-contracts/blob/master/contracts/utils/Context.sol\":712:729  return msg.sender */\n      swap1\n      pop\n        /* \"https://github.com/OpenZeppelin/openzeppelin-contracts/blob/master/contracts/utils/Context.sol\":640:736  function _msgSender() internal view virtual returns (address) {... */\n      swap1\n      jump\t// out\n        /* \"contracts/SimpleVoting.sol\":6580:6730  function bytes32ToString(bytes32 byt) \r... */\n    tag_119:\n        /* \"contracts/SimpleVoting.sol\":6658:6671  string memory */\n      0x60\n        /* \"contracts/SimpleVoting.sol\":6717:6720  byt */\n      dup2\n        /* \"contracts/SimpleVoting.sol\":6699:6721  abi.encodePacked (byt) */\n      add(0x20, mload(0x40))\n      tag_128\n      swap2\n      swap1\n      tag_129\n      jump\t// in\n    tag_128:\n      mload(0x40)\n      0x20\n      dup2\n      dup4\n      sub\n      sub\n      dup2\n      mstore\n      swap1\n      0x40\n      mstore\n        /* \"contracts/SimpleVoting.sol\":6684:6722  return string (abi.encodePacked (byt)) */\n      swap1\n      pop\n        /* \"contracts/SimpleVoting.sol\":6580:6730  function bytes32ToString(bytes32 byt) \r... */\n      swap2\n      swap1\n      pop\n      jump\t// out\n        /* \"#utility.yul\":7:146   */\n    tag_131:\n        /* \"#utility.yul\":53:58   */\n      0x00\n        /* \"#utility.yul\":91:97   */\n      dup2\n        /* \"#utility.yul\":78:98   */\n      calldataload\n        /* \"#utility.yul\":69:98   */\n      swap1\n      pop\n        /* \"#utility.yul\":107:140   */\n      tag_133\n        /* \"#utility.yul\":134:139   */\n      dup2\n        /* \"#utility.yul\":107:140   */\n      tag_134\n      jump\t// in\n    tag_133:\n        /* \"#utility.yul\":7:146   */\n      swap3\n      swap2\n      pop\n      pop\n      jump\t// out\n        /* \"#utility.yul\":152:291   */\n    tag_135:\n        /* \"#utility.yul\":198:203   */\n      0x00\n        /* \"#utility.yul\":236:242   */\n      dup2\n        /* \"#utility.yul\":223:243   */\n      calldataload\n        /* \"#utility.yul\":214:243   */\n      swap1\n      pop\n        /* \"#utility.yul\":252:285   */\n      tag_137\n        /* \"#utility.yul\":279:284   */\n      dup2\n        /* \"#utility.yul\":252:285   */\n      tag_138\n      jump\t// in\n    tag_137:\n        /* \"#utility.yul\":152:291   */\n      swap3\n      swap2\n      pop\n      pop\n      jump\t// out\n        /* \"#utility.yul\":297:626   */\n    tag_17:\n        /* \"#utility.yul\":356:362   */\n      0x00\n        /* \"#utility.yul\":405:407   */\n      0x20\n        /* \"#utility.yul\":393:402   */\n      dup3\n        /* \"#utility.yul\":384:391   */\n      dup5\n        /* \"#utility.yul\":380:403   */\n      sub\n        /* \"#utility.yul\":376:408   */\n      slt\n        /* \"#utility.yul\":373:492   */\n      iszero\n      tag_140\n      jumpi\n        /* \"#utility.yul\":411:490   */\n      tag_141\n      tag_142\n      jump\t// in\n    tag_141:\n        /* \"#utility.yul\":373:492   */\n    tag_140:\n        /* \"#utility.yul\":531:532   */\n      0x00\n        /* \"#utility.yul\":556:609   */\n      tag_143\n        /* \"#utility.yul\":601:608   */\n      dup5\n        /* \"#utility.yul\":592:598   */\n      dup3\n        /* \"#utility.yul\":581:590   */\n      dup6\n        /* \"#utility.yul\":577:599   */\n      add\n        /* \"#utility.yul\":556:609   */\n      tag_131\n      jump\t// in\n    tag_143:\n        /* \"#utility.yul\":546:609   */\n      swap2\n      pop\n        /* \"#utility.yul\":502:619   */\n      pop\n        /* \"#utility.yul\":297:626   */\n      swap3\n      swap2\n      pop\n      pop\n      jump\t// out\n        /* \"#utility.yul\":632:961   */\n    tag_13:\n        /* \"#utility.yul\":691:697   */\n      0x00\n        /* \"#utility.yul\":740:742   */\n      0x20\n        /* \"#utility.yul\":728:737   */\n      dup3\n        /* \"#utility.yul\":719:726   */\n      dup5\n        /* \"#utility.yul\":715:738   */\n      sub\n        /* \"#utility.yul\":711:743   */\n      slt\n        /* \"#utility.yul\":708:827   */\n      iszero\n      tag_145\n      jumpi\n        /* \"#utility.yul\":746:825   */\n      tag_146\n      tag_142\n      jump\t// in\n    tag_146:\n        /* \"#utility.yul\":708:827   */\n    tag_145:\n        /* \"#utility.yul\":866:867   */\n      0x00\n        /* \"#utility.yul\":891:944   */\n      tag_147\n        /* \"#utility.yul\":936:943   */\n      dup5\n        /* \"#utility.yul\":927:933   */\n      dup3\n        /* \"#utility.yul\":916:925   */\n      dup6\n        /* \"#utility.yul\":912:934   */\n      add\n        /* \"#utility.yul\":891:944   */\n      tag_135\n      jump\t// in\n    tag_147:\n        /* \"#utility.yul\":881:944   */\n      swap2\n      pop\n        /* \"#utility.yul\":837:954   */\n      pop\n        /* \"#utility.yul\":632:961   */\n      swap3\n      swap2\n      pop\n      pop\n      jump\t// out\n        /* \"#utility.yul\":967:1085   */\n    tag_148:\n        /* \"#utility.yul\":1054:1078   */\n      tag_150\n        /* \"#utility.yul\":1072:1077   */\n      dup2\n        /* \"#utility.yul\":1054:1078   */\n      tag_151\n      jump\t// in\n    tag_150:\n        /* \"#utility.yul\":1049:1052   */\n      dup3\n        /* \"#utility.yul\":1042:1079   */\n      mstore\n        /* \"#utility.yul\":967:1085   */\n      pop\n      pop\n      jump\t// out\n        /* \"#utility.yul\":1091:1200   */\n    tag_152:\n        /* \"#utility.yul\":1172:1193   */\n      tag_154\n        /* \"#utility.yul\":1187:1192   */\n      dup2\n        /* \"#utility.yul\":1172:1193   */\n      tag_155\n      jump\t// in\n    tag_154:\n        /* \"#utility.yul\":1167:1170   */\n      dup3\n        /* \"#utility.yul\":1160:1194   */\n      mstore\n        /* \"#utility.yul\":1091:1200   */\n      pop\n      pop\n      jump\t// out\n        /* \"#utility.yul\":1206:1363   */\n    tag_156:\n        /* \"#utility.yul\":1311:1356   */\n      tag_158\n        /* \"#utility.yul\":1331:1355   */\n      tag_159\n        /* \"#utility.yul\":1349:1354   */\n      dup3\n        /* \"#utility.yul\":1331:1355   */\n      tag_160\n      jump\t// in\n    tag_159:\n        /* \"#utility.yul\":1311:1356   */\n      tag_161\n      jump\t// in\n    tag_158:\n        /* \"#utility.yul\":1306:1309   */\n      dup3\n        /* \"#utility.yul\":1299:1357   */\n      mstore\n        /* \"#utility.yul\":1206:1363   */\n      pop\n      pop\n      jump\t// out\n        /* \"#utility.yul\":1369:1733   */\n    tag_162:\n        /* \"#utility.yul\":1457:1460   */\n      0x00\n        /* \"#utility.yul\":1485:1524   */\n      tag_164\n        /* \"#utility.yul\":1518:1523   */\n      dup3\n        /* \"#utility.yul\":1485:1524   */\n      tag_165\n      jump\t// in\n    tag_164:\n        /* \"#utility.yul\":1540:1611   */\n      tag_166\n        /* \"#utility.yul\":1604:1610   */\n      dup2\n        /* \"#utility.yul\":1599:1602   */\n      dup6\n        /* \"#utility.yul\":1540:1611   */\n      tag_167\n      jump\t// in\n    tag_166:\n        /* \"#utility.yul\":1533:1611   */\n      swap4\n      pop\n        /* \"#utility.yul\":1620:1672   */\n      tag_168\n        /* \"#utility.yul\":1665:1671   */\n      dup2\n        /* \"#utility.yul\":1660:1663   */\n      dup6\n        /* \"#utility.yul\":1653:1657   */\n      0x20\n        /* \"#utility.yul\":1646:1651   */\n      dup7\n        /* \"#utility.yul\":1642:1658   */\n      add\n        /* \"#utility.yul\":1620:1672   */\n      tag_169\n      jump\t// in\n    tag_168:\n        /* \"#utility.yul\":1697:1726   */\n      tag_170\n        /* \"#utility.yul\":1719:1725   */\n      dup2\n        /* \"#utility.yul\":1697:1726   */\n      tag_171\n      jump\t// in\n    tag_170:\n        /* \"#utility.yul\":1692:1695   */\n      dup5\n        /* \"#utility.yul\":1688:1727   */\n      add\n        /* \"#utility.yul\":1681:1727   */\n      swap2\n      pop\n        /* \"#utility.yul\":1461:1733   */\n      pop\n        /* \"#utility.yul\":1369:1733   */\n      swap3\n      swap2\n      pop\n      pop\n      jump\t// out\n        /* \"#utility.yul\":1739:2105   */\n    tag_172:\n        /* \"#utility.yul\":1881:1884   */\n      0x00\n        /* \"#utility.yul\":1902:1969   */\n      tag_174\n        /* \"#utility.yul\":1966:1968   */\n      0x2a\n        /* \"#utility.yul\":1961:1964   */\n      dup4\n        /* \"#utility.yul\":1902:1969   */\n      tag_167\n      jump\t// in\n    tag_174:\n        /* \"#utility.yul\":1895:1969   */\n      swap2\n      pop\n        /* \"#utility.yul\":1978:2071   */\n      tag_175\n        /* \"#utility.yul\":2067:2070   */\n      dup3\n        /* \"#utility.yul\":1978:2071   */\n      tag_176\n      jump\t// in\n    tag_175:\n        /* \"#utility.yul\":2096:2098   */\n      0x40\n        /* \"#utility.yul\":2091:2094   */\n      dup3\n        /* \"#utility.yul\":2087:2099   */\n      add\n        /* \"#utility.yul\":2080:2099   */\n      swap1\n      pop\n        /* \"#utility.yul\":1739:2105   */\n      swap2\n      swap1\n      pop\n      jump\t// out\n        /* \"#utility.yul\":2111:2477   */\n    tag_177:\n        /* \"#utility.yul\":2253:2256   */\n      0x00\n        /* \"#utility.yul\":2274:2341   */\n      tag_179\n        /* \"#utility.yul\":2338:2340   */\n      0x36\n        /* \"#utility.yul\":2333:2336   */\n      dup4\n        /* \"#utility.yul\":2274:2341   */\n      tag_167\n      jump\t// in\n    tag_179:\n        /* \"#utility.yul\":2267:2341   */\n      swap2\n      pop\n        /* \"#utility.yul\":2350:2443   */\n      tag_180\n        /* \"#utility.yul\":2439:2442   */\n      dup3\n        /* \"#utility.yul\":2350:2443   */\n      tag_181\n      jump\t// in\n    tag_180:\n        /* \"#utility.yul\":2468:2470   */\n      0x40\n        /* \"#utility.yul\":2463:2466   */\n      dup3\n        /* \"#utility.yul\":2459:2471   */\n      add\n        /* \"#utility.yul\":2452:2471   */\n      swap1\n      pop\n        /* \"#utility.yul\":2111:2477   */\n      swap2\n      swap1\n      pop\n      jump\t// out\n        /* \"#utility.yul\":2483:2849   */\n    tag_182:\n        /* \"#utility.yul\":2625:2628   */\n      0x00\n        /* \"#utility.yul\":2646:2713   */\n      tag_184\n        /* \"#utility.yul\":2710:2712   */\n      0x31\n        /* \"#utility.yul\":2705:2708   */\n      dup4\n        /* \"#utility.yul\":2646:2713   */\n      tag_167\n      jump\t// in\n    tag_184:\n        /* \"#utility.yul\":2639:2713   */\n      swap2\n      pop\n        /* \"#utility.yul\":2722:2815   */\n      tag_185\n        /* \"#utility.yul\":2811:2814   */\n      dup3\n        /* \"#utility.yul\":2722:2815   */\n      tag_186\n      jump\t// in\n    tag_185:\n        /* \"#utility.yul\":2840:2842   */\n      0x40\n        /* \"#utility.yul\":2835:2838   */\n      dup3\n        /* \"#utility.yul\":2831:2843   */\n      add\n        /* \"#utility.yul\":2824:2843   */\n      swap1\n      pop\n        /* \"#utility.yul\":2483:2849   */\n      swap2\n      swap1\n      pop\n      jump\t// out\n        /* \"#utility.yul\":2855:3221   */\n    tag_187:\n        /* \"#utility.yul\":2997:3000   */\n      0x00\n        /* \"#utility.yul\":3018:3085   */\n      tag_189\n        /* \"#utility.yul\":3082:3084   */\n      0x2d\n        /* \"#utility.yul\":3077:3080   */\n      dup4\n        /* \"#utility.yul\":3018:3085   */\n      tag_167\n      jump\t// in\n    tag_189:\n        /* \"#utility.yul\":3011:3085   */\n      swap2\n      pop\n        /* \"#utility.yul\":3094:3187   */\n      tag_190\n        /* \"#utility.yul\":3183:3186   */\n      dup3\n        /* \"#utility.yul\":3094:3187   */\n      tag_191\n      jump\t// in\n    tag_190:\n        /* \"#utility.yul\":3212:3214   */\n      0x40\n        /* \"#utility.yul\":3207:3210   */\n      dup3\n        /* \"#utility.yul\":3203:3215   */\n      add\n        /* \"#utility.yul\":3196:3215   */\n      swap1\n      pop\n        /* \"#utility.yul\":2855:3221   */\n      swap2\n      swap1\n      pop\n      jump\t// out\n        /* \"#utility.yul\":3227:3593   */\n    tag_192:\n        /* \"#utility.yul\":3369:3372   */\n      0x00\n        /* \"#utility.yul\":3390:3457   */\n      tag_194\n        /* \"#utility.yul\":3454:3456   */\n      0x30\n        /* \"#utility.yul\":3449:3452   */\n      dup4\n        /* \"#utility.yul\":3390:3457   */\n      tag_167\n      jump\t// in\n    tag_194:\n        /* \"#utility.yul\":3383:3457   */\n      swap2\n      pop\n        /* \"#utility.yul\":3466:3559   */\n      tag_195\n        /* \"#utility.yul\":3555:3558   */\n      dup3\n        /* \"#utility.yul\":3466:3559   */\n      tag_196\n      jump\t// in\n    tag_195:\n        /* \"#utility.yul\":3584:3586   */\n      0x40\n        /* \"#utility.yul\":3579:3582   */\n      dup3\n        /* \"#utility.yul\":3575:3587   */\n      add\n        /* \"#utility.yul\":3568:3587   */\n      swap1\n      pop\n        /* \"#utility.yul\":3227:3593   */\n      swap2\n      swap1\n      pop\n      jump\t// out\n        /* \"#utility.yul\":3599:3965   */\n    tag_197:\n        /* \"#utility.yul\":3741:3744   */\n      0x00\n        /* \"#utility.yul\":3762:3829   */\n      tag_199\n        /* \"#utility.yul\":3826:3828   */\n      0x2b\n        /* \"#utility.yul\":3821:3824   */\n      dup4\n        /* \"#utility.yul\":3762:3829   */\n      tag_167\n      jump\t// in\n    tag_199:\n        /* \"#utility.yul\":3755:3829   */\n      swap2\n      pop\n        /* \"#utility.yul\":3838:3931   */\n      tag_200\n        /* \"#utility.yul\":3927:3930   */\n      dup3\n        /* \"#utility.yul\":3838:3931   */\n      tag_201\n      jump\t// in\n    tag_200:\n        /* \"#utility.yul\":3956:3958   */\n      0x40\n        /* \"#utility.yul\":3951:3954   */\n      dup3\n        /* \"#utility.yul\":3947:3959   */\n      add\n        /* \"#utility.yul\":3940:3959   */\n      swap1\n      pop\n        /* \"#utility.yul\":3599:3965   */\n      swap2\n      swap1\n      pop\n      jump\t// out\n        /* \"#utility.yul\":3971:4337   */\n    tag_202:\n        /* \"#utility.yul\":4113:4116   */\n      0x00\n        /* \"#utility.yul\":4134:4201   */\n      tag_204\n        /* \"#utility.yul\":4198:4200   */\n      0x2f\n        /* \"#utility.yul\":4193:4196   */\n      dup4\n        /* \"#utility.yul\":4134:4201   */\n      tag_167\n      jump\t// in\n    tag_204:\n        /* \"#utility.yul\":4127:4201   */\n      swap2\n      pop\n        /* \"#utility.yul\":4210:4303   */\n      tag_205\n        /* \"#utility.yul\":4299:4302   */\n      dup3\n        /* \"#utility.yul\":4210:4303   */\n      tag_206\n      jump\t// in\n    tag_205:\n        /* \"#utility.yul\":4328:4330   */\n      0x40\n        /* \"#utility.yul\":4323:4326   */\n      dup3\n        /* \"#utility.yul\":4319:4331   */\n      add\n        /* \"#utility.yul\":4312:4331   */\n      swap1\n      pop\n        /* \"#utility.yul\":3971:4337   */\n      swap2\n      swap1\n      pop\n      jump\t// out\n        /* \"#utility.yul\":4343:4461   */\n    tag_207:\n        /* \"#utility.yul\":4430:4454   */\n      tag_209\n        /* \"#utility.yul\":4448:4453   */\n      dup2\n        /* \"#utility.yul\":4430:4454   */\n      tag_210\n      jump\t// in\n    tag_209:\n        /* \"#utility.yul\":4425:4428   */\n      dup3\n        /* \"#utility.yul\":4418:4455   */\n      mstore\n        /* \"#utility.yul\":4343:4461   */\n      pop\n      pop\n      jump\t// out\n        /* \"#utility.yul\":4467:4723   */\n    tag_129:\n        /* \"#utility.yul\":4579:4582   */\n      0x00\n        /* \"#utility.yul\":4594:4669   */\n      tag_212\n        /* \"#utility.yul\":4665:4668   */\n      dup3\n        /* \"#utility.yul\":4656:4662   */\n      dup5\n        /* \"#utility.yul\":4594:4669   */\n      tag_156\n      jump\t// in\n    tag_212:\n        /* \"#utility.yul\":4694:4696   */\n      0x20\n        /* \"#utility.yul\":4689:4692   */\n      dup3\n        /* \"#utility.yul\":4685:4697   */\n      add\n        /* \"#utility.yul\":4678:4697   */\n      swap2\n      pop\n        /* \"#utility.yul\":4714:4717   */\n      dup2\n        /* \"#utility.yul\":4707:4717   */\n      swap1\n      pop\n        /* \"#utility.yul\":4467:4723   */\n      swap3\n      swap2\n      pop\n      pop\n      jump\t// out\n        /* \"#utility.yul\":4729:4951   */\n    tag_35:\n        /* \"#utility.yul\":4822:4826   */\n      0x00\n        /* \"#utility.yul\":4860:4862   */\n      0x20\n        /* \"#utility.yul\":4849:4858   */\n      dup3\n        /* \"#utility.yul\":4845:4863   */\n      add\n        /* \"#utility.yul\":4837:4863   */\n      swap1\n      pop\n        /* \"#utility.yul\":4873:4944   */\n      tag_214\n        /* \"#utility.yul\":4941:4942   */\n      0x00\n        /* \"#utility.yul\":4930:4939   */\n      dup4\n        /* \"#utility.yul\":4926:4943   */\n      add\n        /* \"#utility.yul\":4917:4923   */\n      dup5\n        /* \"#utility.yul\":4873:4944   */\n      tag_148\n      jump\t// in\n    tag_214:\n        /* \"#utility.yul\":4729:4951   */\n      swap3\n      swap2\n      pop\n      pop\n      jump\t// out\n        /* \"#utility.yul\":4957:5380   */\n    tag_31:\n        /* \"#utility.yul\":5098:5102   */\n      0x00\n        /* \"#utility.yul\":5136:5138   */\n      0x40\n        /* \"#utility.yul\":5125:5134   */\n      dup3\n        /* \"#utility.yul\":5121:5139   */\n      add\n        /* \"#utility.yul\":5113:5139   */\n      swap1\n      pop\n        /* \"#utility.yul\":5185:5194   */\n      dup2\n        /* \"#utility.yul\":5179:5183   */\n      dup2\n        /* \"#utility.yul\":5175:5195   */\n      sub\n        /* \"#utility.yul\":5171:5172   */\n      0x00\n        /* \"#utility.yul\":5160:5169   */\n      dup4\n        /* \"#utility.yul\":5156:5173   */\n      add\n        /* \"#utility.yul\":5149:5196   */\n      mstore\n        /* \"#utility.yul\":5213:5291   */\n      tag_216\n        /* \"#utility.yul\":5286:5290   */\n      dup2\n        /* \"#utility.yul\":5277:5283   */\n      dup6\n        /* \"#utility.yul\":5213:5291   */\n      tag_162\n      jump\t// in\n    tag_216:\n        /* \"#utility.yul\":5205:5291   */\n      swap1\n      pop\n        /* \"#utility.yul\":5301:5373   */\n      tag_217\n        /* \"#utility.yul\":5369:5371   */\n      0x20\n        /* \"#utility.yul\":5358:5367   */\n      dup4\n        /* \"#utility.yul\":5354:5372   */\n      add\n        /* \"#utility.yul\":5345:5351   */\n      dup5\n        /* \"#utility.yul\":5301:5373   */\n      tag_207\n      jump\t// in\n    tag_217:\n        /* \"#utility.yul\":4957:5380   */\n      swap4\n      swap3\n      pop\n      pop\n      pop\n      jump\t// out\n        /* \"#utility.yul\":5386:5805   */\n    tag_50:\n        /* \"#utility.yul\":5552:5556   */\n      0x00\n        /* \"#utility.yul\":5590:5592   */\n      0x20\n        /* \"#utility.yul\":5579:5588   */\n      dup3\n        /* \"#utility.yul\":5575:5593   */\n      add\n        /* \"#utility.yul\":5567:5593   */\n      swap1\n      pop\n        /* \"#utility.yul\":5639:5648   */\n      dup2\n        /* \"#utility.yul\":5633:5637   */\n      dup2\n        /* \"#utility.yul\":5629:5649   */\n      sub\n        /* \"#utility.yul\":5625:5626   */\n      0x00\n        /* \"#utility.yul\":5614:5623   */\n      dup4\n        /* \"#utility.yul\":5610:5627   */\n      add\n        /* \"#utility.yul\":5603:5650   */\n      mstore\n        /* \"#utility.yul\":5667:5798   */\n      tag_219\n        /* \"#utility.yul\":5793:5797   */\n      dup2\n        /* \"#utility.yul\":5667:5798   */\n      tag_172\n      jump\t// in\n    tag_219:\n        /* \"#utility.yul\":5659:5798   */\n      swap1\n      pop\n        /* \"#utility.yul\":5386:5805   */\n      swap2\n      swap1\n      pop\n      jump\t// out\n        /* \"#utility.yul\":5811:6230   */\n    tag_103:\n        /* \"#utility.yul\":5977:5981   */\n      0x00\n        /* \"#utility.yul\":6015:6017   */\n      0x20\n        /* \"#utility.yul\":6004:6013   */\n      dup3\n        /* \"#utility.yul\":6000:6018   */\n      add\n        /* \"#utility.yul\":5992:6018   */\n      swap1\n      pop\n        /* \"#utility.yul\":6064:6073   */\n      dup2\n        /* \"#utility.yul\":6058:6062   */\n      dup2\n        /* \"#utility.yul\":6054:6074   */\n      sub\n        /* \"#utility.yul\":6050:6051   */\n      0x00\n        /* \"#utility.yul\":6039:6048   */\n      dup4\n        /* \"#utility.yul\":6035:6052   */\n      add\n        /* \"#utility.yul\":6028:6075   */\n      mstore\n        /* \"#utility.yul\":6092:6223   */\n      tag_221\n        /* \"#utility.yul\":6218:6222   */\n      dup2\n        /* \"#utility.yul\":6092:6223   */\n      tag_177\n      jump\t// in\n    tag_221:\n        /* \"#utility.yul\":6084:6223   */\n      swap1\n      pop\n        /* \"#utility.yul\":5811:6230   */\n      swap2\n      swap1\n      pop\n      jump\t// out\n        /* \"#utility.yul\":6236:6655   */\n    tag_55:\n        /* \"#utility.yul\":6402:6406   */\n      0x00\n        /* \"#utility.yul\":6440:6442   */\n      0x20\n        /* \"#utility.yul\":6429:6438   */\n      dup3\n        /* \"#utility.yul\":6425:6443   */\n      add\n        /* \"#utility.yul\":6417:6443   */\n      swap1\n      pop\n        /* \"#utility.yul\":6489:6498   */\n      dup2\n        /* \"#utility.yul\":6483:6487   */\n      dup2\n        /* \"#utility.yul\":6479:6499   */\n      sub\n        /* \"#utility.yul\":6475:6476   */\n      0x00\n        /* \"#utility.yul\":6464:6473   */\n      dup4\n        /* \"#utility.yul\":6460:6477   */\n      add\n        /* \"#utility.yul\":6453:6500   */\n      mstore\n        /* \"#utility.yul\":6517:6648   */\n      tag_223\n        /* \"#utility.yul\":6643:6647   */\n      dup2\n        /* \"#utility.yul\":6517:6648   */\n      tag_182\n      jump\t// in\n    tag_223:\n        /* \"#utility.yul\":6509:6648   */\n      swap1\n      pop\n        /* \"#utility.yul\":6236:6655   */\n      swap2\n      swap1\n      pop\n      jump\t// out\n        /* \"#utility.yul\":6661:7080   */\n    tag_81:\n        /* \"#utility.yul\":6827:6831   */\n      0x00\n        /* \"#utility.yul\":6865:6867   */\n      0x20\n        /* \"#utility.yul\":6854:6863   */\n      dup3\n        /* \"#utility.yul\":6850:6868   */\n      add\n        /* \"#utility.yul\":6842:6868   */\n      swap1\n      pop\n        /* \"#utility.yul\":6914:6923   */\n      dup2\n        /* \"#utility.yul\":6908:6912   */\n      dup2\n        /* \"#utility.yul\":6904:6924   */\n      sub\n        /* \"#utility.yul\":6900:6901   */\n      0x00\n        /* \"#utility.yul\":6889:6898   */\n      dup4\n        /* \"#utility.yul\":6885:6902   */\n      add\n        /* \"#utility.yul\":6878:6925   */\n      mstore\n        /* \"#utility.yul\":6942:7073   */\n      tag_225\n        /* \"#utility.yul\":7068:7072   */\n      dup2\n        /* \"#utility.yul\":6942:7073   */\n      tag_187\n      jump\t// in\n    tag_225:\n        /* \"#utility.yul\":6934:7073   */\n      swap1\n      pop\n        /* \"#utility.yul\":6661:7080   */\n      swap2\n      swap1\n      pop\n      jump\t// out\n        /* \"#utility.yul\":7086:7505   */\n    tag_110:\n        /* \"#utility.yul\":7252:7256   */\n      0x00\n        /* \"#utility.yul\":7290:7292   */\n      0x20\n        /* \"#utility.yul\":7279:7288   */\n      dup3\n        /* \"#utility.yul\":7275:7293   */\n      add\n        /* \"#utility.yul\":7267:7293   */\n      swap1\n      pop\n        /* \"#utility.yul\":7339:7348   */\n      dup2\n        /* \"#utility.yul\":7333:7337   */\n      dup2\n        /* \"#utility.yul\":7329:7349   */\n      sub\n        /* \"#utility.yul\":7325:7326   */\n      0x00\n        /* \"#utility.yul\":7314:7323   */\n      dup4\n        /* \"#utility.yul\":7310:7327   */\n      add\n        /* \"#utility.yul\":7303:7350   */\n      mstore\n        /* \"#utility.yul\":7367:7498   */\n      tag_227\n        /* \"#utility.yul\":7493:7497   */\n      dup2\n        /* \"#utility.yul\":7367:7498   */\n      tag_192\n      jump\t// in\n    tag_227:\n        /* \"#utility.yul\":7359:7498   */\n      swap1\n      pop\n        /* \"#utility.yul\":7086:7505   */\n      swap2\n      swap1\n      pop\n      jump\t// out\n        /* \"#utility.yul\":7511:7930   */\n    tag_44:\n        /* \"#utility.yul\":7677:7681   */\n      0x00\n        /* \"#utility.yul\":7715:7717   */\n      0x20\n        /* \"#utility.yul\":7704:7713   */\n      dup3\n        /* \"#utility.yul\":7700:7718   */\n      add\n        /* \"#utility.yul\":7692:7718   */\n      swap1\n      pop\n        /* \"#utility.yul\":7764:7773   */\n      dup2\n        /* \"#utility.yul\":7758:7762   */\n      dup2\n        /* \"#utility.yul\":7754:7774   */\n      sub\n        /* \"#utility.yul\":7750:7751   */\n      0x00\n        /* \"#utility.yul\":7739:7748   */\n      dup4\n        /* \"#utility.yul\":7735:7752   */\n      add\n        /* \"#utility.yul\":7728:7775   */\n      mstore\n        /* \"#utility.yul\":7792:7923   */\n      tag_229\n        /* \"#utility.yul\":7918:7922   */\n      dup2\n        /* \"#utility.yul\":7792:7923   */\n      tag_197\n      jump\t// in\n    tag_229:\n        /* \"#utility.yul\":7784:7923   */\n      swap1\n      pop\n        /* \"#utility.yul\":7511:7930   */\n      swap2\n      swap1\n      pop\n      jump\t// out\n        /* \"#utility.yul\":7936:8355   */\n    tag_87:\n        /* \"#utility.yul\":8102:8106   */\n      0x00\n        /* \"#utility.yul\":8140:8142   */\n      0x20\n        /* \"#utility.yul\":8129:8138   */\n      dup3\n        /* \"#utility.yul\":8125:8143   */\n      add\n        /* \"#utility.yul\":8117:8143   */\n      swap1\n      pop\n        /* \"#utility.yul\":8189:8198   */\n      dup2\n        /* \"#utility.yul\":8183:8187   */\n      dup2\n        /* \"#utility.yul\":8179:8199   */\n      sub\n        /* \"#utility.yul\":8175:8176   */\n      0x00\n        /* \"#utility.yul\":8164:8173   */\n      dup4\n        /* \"#utility.yul\":8160:8177   */\n      add\n        /* \"#utility.yul\":8153:8200   */\n      mstore\n        /* \"#utility.yul\":8217:8348   */\n      tag_231\n        /* \"#utility.yul\":8343:8347   */\n      dup2\n        /* \"#utility.yul\":8217:8348   */\n      tag_202\n      jump\t// in\n    tag_231:\n        /* \"#utility.yul\":8209:8348   */\n      swap1\n      pop\n        /* \"#utility.yul\":7936:8355   */\n      swap2\n      swap1\n      pop\n      jump\t// out\n        /* \"#utility.yul\":8361:8583   */\n    tag_39:\n        /* \"#utility.yul\":8454:8458   */\n      0x00\n        /* \"#utility.yul\":8492:8494   */\n      0x20\n        /* \"#utility.yul\":8481:8490   */\n      dup3\n        /* \"#utility.yul\":8477:8495   */\n      add\n        /* \"#utility.yul\":8469:8495   */\n      swap1\n      pop\n        /* \"#utility.yul\":8505:8576   */\n      tag_233\n        /* \"#utility.yul\":8573:8574   */\n      0x00\n        /* \"#utility.yul\":8562:8571   */\n      dup4\n        /* \"#utility.yul\":8558:8575   */\n      add\n        /* \"#utility.yul\":8549:8555   */\n      dup5\n        /* \"#utility.yul\":8505:8576   */\n      tag_207\n      jump\t// in\n    tag_233:\n        /* \"#utility.yul\":8361:8583   */\n      swap3\n      swap2\n      pop\n      pop\n      jump\t// out\n        /* \"#utility.yul\":8589:9130   */\n    tag_26:\n        /* \"#utility.yul\":8760:8764   */\n      0x00\n        /* \"#utility.yul\":8798:8801   */\n      0x80\n        /* \"#utility.yul\":8787:8796   */\n      dup3\n        /* \"#utility.yul\":8783:8802   */\n      add\n        /* \"#utility.yul\":8775:8802   */\n      swap1\n      pop\n        /* \"#utility.yul\":8812:8883   */\n      tag_235\n        /* \"#utility.yul\":8880:8881   */\n      0x00\n        /* \"#utility.yul\":8869:8878   */\n      dup4\n        /* \"#utility.yul\":8865:8882   */\n      add\n        /* \"#utility.yul\":8856:8862   */\n      dup8\n        /* \"#utility.yul\":8812:8883   */\n      tag_207\n      jump\t// in\n    tag_235:\n        /* \"#utility.yul\":8893:8959   */\n      tag_236\n        /* \"#utility.yul\":8955:8957   */\n      0x20\n        /* \"#utility.yul\":8944:8953   */\n      dup4\n        /* \"#utility.yul\":8940:8958   */\n      add\n        /* \"#utility.yul\":8931:8937   */\n      dup7\n        /* \"#utility.yul\":8893:8959   */\n      tag_152\n      jump\t// in\n    tag_236:\n        /* \"#utility.yul\":8969:9041   */\n      tag_237\n        /* \"#utility.yul\":9037:9039   */\n      0x40\n        /* \"#utility.yul\":9026:9035   */\n      dup4\n        /* \"#utility.yul\":9022:9040   */\n      add\n        /* \"#utility.yul\":9013:9019   */\n      dup6\n        /* \"#utility.yul\":8969:9041   */\n      tag_148\n      jump\t// in\n    tag_237:\n        /* \"#utility.yul\":9051:9123   */\n      tag_238\n        /* \"#utility.yul\":9119:9121   */\n      0x60\n        /* \"#utility.yul\":9108:9117   */\n      dup4\n        /* \"#utility.yul\":9104:9122   */\n      add\n        /* \"#utility.yul\":9095:9101   */\n      dup5\n        /* \"#utility.yul\":9051:9123   */\n      tag_207\n      jump\t// in\n    tag_238:\n        /* \"#utility.yul\":8589:9130   */\n      swap6\n      swap5\n      pop\n      pop\n      pop\n      pop\n      pop\n      jump\t// out\n        /* \"#utility.yul\":9217:9316   */\n    tag_165:\n        /* \"#utility.yul\":9269:9275   */\n      0x00\n        /* \"#utility.yul\":9303:9308   */\n      dup2\n        /* \"#utility.yul\":9297:9309   */\n      mload\n        /* \"#utility.yul\":9287:9309   */\n      swap1\n      pop\n        /* \"#utility.yul\":9217:9316   */\n      swap2\n      swap1\n      pop\n      jump\t// out\n        /* \"#utility.yul\":9322:9491   */\n    tag_167:\n        /* \"#utility.yul\":9406:9417   */\n      0x00\n        /* \"#utility.yul\":9440:9446   */\n      dup3\n        /* \"#utility.yul\":9435:9438   */\n      dup3\n        /* \"#utility.yul\":9428:9447   */\n      mstore\n        /* \"#utility.yul\":9480:9484   */\n      0x20\n        /* \"#utility.yul\":9475:9478   */\n      dup3\n        /* \"#utility.yul\":9471:9485   */\n      add\n        /* \"#utility.yul\":9456:9485   */\n      swap1\n      pop\n        /* \"#utility.yul\":9322:9491   */\n      swap3\n      swap2\n      pop\n      pop\n      jump\t// out\n        /* \"#utility.yul\":9497:9802   */\n    tag_125:\n        /* \"#utility.yul\":9537:9540   */\n      0x00\n        /* \"#utility.yul\":9556:9576   */\n      tag_244\n        /* \"#utility.yul\":9574:9575   */\n      dup3\n        /* \"#utility.yul\":9556:9576   */\n      tag_210\n      jump\t// in\n    tag_244:\n        /* \"#utility.yul\":9551:9576   */\n      swap2\n      pop\n        /* \"#utility.yul\":9590:9610   */\n      tag_245\n        /* \"#utility.yul\":9608:9609   */\n      dup4\n        /* \"#utility.yul\":9590:9610   */\n      tag_210\n      jump\t// in\n    tag_245:\n        /* \"#utility.yul\":9585:9610   */\n      swap3\n      pop\n        /* \"#utility.yul\":9744:9745   */\n      dup3\n        /* \"#utility.yul\":9676:9742   */\n      0xffffffffffffffffffffffffffffffffffffffffffffffffffffffffffffffff\n        /* \"#utility.yul\":9672:9746   */\n      sub\n        /* \"#utility.yul\":9669:9670   */\n      dup3\n        /* \"#utility.yul\":9666:9747   */\n      gt\n        /* \"#utility.yul\":9663:9770   */\n      iszero\n      tag_246\n      jumpi\n        /* \"#utility.yul\":9750:9768   */\n      tag_247\n      tag_248\n      jump\t// in\n    tag_247:\n        /* \"#utility.yul\":9663:9770   */\n    tag_246:\n        /* \"#utility.yul\":9794:9795   */\n      dup3\n        /* \"#utility.yul\":9791:9792   */\n      dup3\n        /* \"#utility.yul\":9787:9796   */\n      add\n        /* \"#utility.yul\":9780:9796   */\n      swap1\n      pop\n        /* \"#utility.yul\":9497:9802   */\n      swap3\n      swap2\n      pop\n      pop\n      jump\t// out\n        /* \"#utility.yul\":9808:9904   */\n    tag_151:\n        /* \"#utility.yul\":9845:9852   */\n      0x00\n        /* \"#utility.yul\":9874:9898   */\n      tag_250\n        /* \"#utility.yul\":9892:9897   */\n      dup3\n        /* \"#utility.yul\":9874:9898   */\n      tag_251\n      jump\t// in\n    tag_250:\n        /* \"#utility.yul\":9863:9898   */\n      swap1\n      pop\n        /* \"#utility.yul\":9808:9904   */\n      swap2\n      swap1\n      pop\n      jump\t// out\n        /* \"#utility.yul\":9910:10000   */\n    tag_155:\n        /* \"#utility.yul\":9944:9951   */\n      0x00\n        /* \"#utility.yul\":9987:9992   */\n      dup2\n        /* \"#utility.yul\":9980:9993   */\n      iszero\n        /* \"#utility.yul\":9973:9994   */\n      iszero\n        /* \"#utility.yul\":9962:9994   */\n      swap1\n      pop\n        /* \"#utility.yul\":9910:10000   */\n      swap2\n      swap1\n      pop\n      jump\t// out\n        /* \"#utility.yul\":10006:10083   */\n    tag_160:\n        /* \"#utility.yul\":10043:10050   */\n      0x00\n        /* \"#utility.yul\":10072:10077   */\n      dup2\n        /* \"#utility.yul\":10061:10077   */\n      swap1\n      pop\n        /* \"#utility.yul\":10006:10083   */\n      swap2\n      swap1\n      pop\n      jump\t// out\n        /* \"#utility.yul\":10089:10215   */\n    tag_251:\n        /* \"#utility.yul\":10126:10133   */\n      0x00\n        /* \"#utility.yul\":10166:10208   */\n      0xffffffffffffffffffffffffffffffffffffffff\n        /* \"#utility.yul\":10159:10164   */\n      dup3\n        /* \"#utility.yul\":10155:10209   */\n      and\n        /* \"#utility.yul\":10144:10209   */\n      swap1\n      pop\n        /* \"#utility.yul\":10089:10215   */\n      swap2\n      swap1\n      pop\n      jump\t// out\n        /* \"#utility.yul\":10221:10298   */\n    tag_210:\n        /* \"#utility.yul\":10258:10265   */\n      0x00\n        /* \"#utility.yul\":10287:10292   */\n      dup2\n        /* \"#utility.yul\":10276:10292   */\n      swap1\n      pop\n        /* \"#utility.yul\":10221:10298   */\n      swap2\n      swap1\n      pop\n      jump\t// out\n        /* \"#utility.yul\":10304:10611   */\n    tag_169:\n        /* \"#utility.yul\":10372:10373   */\n      0x00\n        /* \"#utility.yul\":10382:10495   */\n    tag_257:\n        /* \"#utility.yul\":10396:10402   */\n      dup4\n        /* \"#utility.yul\":10393:10394   */\n      dup2\n        /* \"#utility.yul\":10390:10403   */\n      lt\n        /* \"#utility.yul\":10382:10495   */\n      iszero\n      tag_259\n      jumpi\n        /* \"#utility.yul\":10481:10482   */\n      dup1\n        /* \"#utility.yul\":10476:10479   */\n      dup3\n        /* \"#utility.yul\":10472:10483   */\n      add\n        /* \"#utility.yul\":10466:10484   */\n      mload\n        /* \"#utility.yul\":10462:10463   */\n      dup2\n        /* \"#utility.yul\":10457:10460   */\n      dup5\n        /* \"#utility.yul\":10453:10464   */\n      add\n        /* \"#utility.yul\":10446:10485   */\n      mstore\n        /* \"#utility.yul\":10418:10420   */\n      0x20\n        /* \"#utility.yul\":10415:10416   */\n      dup2\n        /* \"#utility.yul\":10411:10421   */\n      add\n        /* \"#utility.yul\":10406:10421   */\n      swap1\n      pop\n        /* \"#utility.yul\":10382:10495   */\n      jump(tag_257)\n    tag_259:\n        /* \"#utility.yul\":10513:10519   */\n      dup4\n        /* \"#utility.yul\":10510:10511   */\n      dup2\n        /* \"#utility.yul\":10507:10520   */\n      gt\n        /* \"#utility.yul\":10504:10605   */\n      iszero\n      tag_260\n      jumpi\n        /* \"#utility.yul\":10593:10594   */\n      0x00\n        /* \"#utility.yul\":10584:10590   */\n      dup5\n        /* \"#utility.yul\":10579:10582   */\n      dup5\n        /* \"#utility.yul\":10575:10591   */\n      add\n        /* \"#utility.yul\":10568:10595   */\n      mstore\n        /* \"#utility.yul\":10504:10605   */\n    tag_260:\n        /* \"#utility.yul\":10353:10611   */\n      pop\n        /* \"#utility.yul\":10304:10611   */\n      pop\n      pop\n      pop\n      jump\t// out\n        /* \"#utility.yul\":10617:10696   */\n    tag_161:\n        /* \"#utility.yul\":10656:10663   */\n      0x00\n        /* \"#utility.yul\":10685:10690   */\n      dup2\n        /* \"#utility.yul\":10674:10690   */\n      swap1\n      pop\n        /* \"#utility.yul\":10617:10696   */\n      swap2\n      swap1\n      pop\n      jump\t// out\n        /* \"#utility.yul\":10702:10882   */\n    tag_248:\n        /* \"#utility.yul\":10750:10827   */\n      0x4e487b7100000000000000000000000000000000000000000000000000000000\n        /* \"#utility.yul\":10747:10748   */\n      0x00\n        /* \"#utility.yul\":10740:10828   */\n      mstore\n        /* \"#utility.yul\":10847:10851   */\n      0x11\n        /* \"#utility.yul\":10844:10845   */\n      0x04\n        /* \"#utility.yul\":10837:10852   */\n      mstore\n        /* \"#utility.yul\":10871:10875   */\n      0x24\n        /* \"#utility.yul\":10868:10869   */\n      0x00\n        /* \"#utility.yul\":10861:10876   */\n      revert\n        /* \"#utility.yul\":10888:11068   */\n    tag_61:\n        /* \"#utility.yul\":10936:11013   */\n      0x4e487b7100000000000000000000000000000000000000000000000000000000\n        /* \"#utility.yul\":10933:10934   */\n      0x00\n        /* \"#utility.yul\":10926:11014   */\n      mstore\n        /* \"#utility.yul\":11033:11037   */\n      0x32\n        /* \"#utility.yul\":11030:11031   */\n      0x04\n        /* \"#utility.yul\":11023:11038   */\n      mstore\n        /* \"#utility.yul\":11057:11061   */\n      0x24\n        /* \"#utility.yul\":11054:11055   */\n      0x00\n        /* \"#utility.yul\":11047:11062   */\n      revert\n        /* \"#utility.yul\":11197:11314   */\n    tag_142:\n        /* \"#utility.yul\":11306:11307   */\n      0x00\n        /* \"#utility.yul\":11303:11304   */\n      dup1\n        /* \"#utility.yul\":11296:11308   */\n      revert\n        /* \"#utility.yul\":11320:11422   */\n    tag_171:\n        /* \"#utility.yul\":11361:11367   */\n      0x00\n        /* \"#utility.yul\":11412:11414   */\n      0x1f\n        /* \"#utility.yul\":11408:11415   */\n      not\n        /* \"#utility.yul\":11403:11405   */\n      0x1f\n        /* \"#utility.yul\":11396:11401   */\n      dup4\n        /* \"#utility.yul\":11392:11406   */\n      add\n        /* \"#utility.yul\":11388:11416   */\n      and\n        /* \"#utility.yul\":11378:11416   */\n      swap1\n      pop\n        /* \"#utility.yul\":11320:11422   */\n      swap2\n      swap1\n      pop\n      jump\t// out\n        /* \"#utility.yul\":11428:11657   */\n    tag_176:\n        /* \"#utility.yul\":11568:11602   */\n      0x53696d706c65566f74696e673a2054686520766f7465722068617320616c7265\n        /* \"#utility.yul\":11564:11565   */\n      0x00\n        /* \"#utility.yul\":11556:11562   */\n      dup3\n        /* \"#utility.yul\":11552:11566   */\n      add\n        /* \"#utility.yul\":11545:11603   */\n      mstore\n        /* \"#utility.yul\":11637:11649   */\n      0x61647920766f7465642e00000000000000000000000000000000000000000000\n        /* \"#utility.yul\":11632:11634   */\n      0x20\n        /* \"#utility.yul\":11624:11630   */\n      dup3\n        /* \"#utility.yul\":11620:11635   */\n      add\n        /* \"#utility.yul\":11613:11650   */\n      mstore\n        /* \"#utility.yul\":11428:11657   */\n      pop\n      jump\t// out\n        /* \"#utility.yul\":11663:11904   */\n    tag_181:\n        /* \"#utility.yul\":11803:11837   */\n      0x53696d706c65566f74696e673a204f6e6c79206368616972506572736f6e2063\n        /* \"#utility.yul\":11799:11800   */\n      0x00\n        /* \"#utility.yul\":11791:11797   */\n      dup3\n        /* \"#utility.yul\":11787:11801   */\n      add\n        /* \"#utility.yul\":11780:11838   */\n      mstore\n        /* \"#utility.yul\":11872:11896   */\n      0x616e206769766520726967687420746f20766f74652e00000000000000000000\n        /* \"#utility.yul\":11867:11869   */\n      0x20\n        /* \"#utility.yul\":11859:11865   */\n      dup3\n        /* \"#utility.yul\":11855:11870   */\n      add\n        /* \"#utility.yul\":11848:11897   */\n      mstore\n        /* \"#utility.yul\":11663:11904   */\n      pop\n      jump\t// out\n        /* \"#utility.yul\":11910:12146   */\n    tag_186:\n        /* \"#utility.yul\":12050:12084   */\n      0x53696d706c65566f74696e673a2043616c6c657220646f6573206e6f74206861\n        /* \"#utility.yul\":12046:12047   */\n      0x00\n        /* \"#utility.yul\":12038:12044   */\n      dup3\n        /* \"#utility.yul\":12034:12048   */\n      add\n        /* \"#utility.yul\":12027:12085   */\n      mstore\n        /* \"#utility.yul\":12119:12138   */\n      0x766520726967687420746f20766f74652e000000000000000000000000000000\n        /* \"#utility.yul\":12114:12116   */\n      0x20\n        /* \"#utility.yul\":12106:12112   */\n      dup3\n        /* \"#utility.yul\":12102:12117   */\n      add\n        /* \"#utility.yul\":12095:12139   */\n      mstore\n        /* \"#utility.yul\":11910:12146   */\n      pop\n      jump\t// out\n        /* \"#utility.yul\":12152:12384   */\n    tag_191:\n        /* \"#utility.yul\":12292:12326   */\n      0x53696d706c65566f74696e673a2053656c662d64656c65676174696f6e206973\n        /* \"#utility.yul\":12288:12289   */\n      0x00\n        /* \"#utility.yul\":12280:12286   */\n      dup3\n        /* \"#utility.yul\":12276:12290   */\n      add\n        /* \"#utility.yul\":12269:12327   */\n      mstore\n        /* \"#utility.yul\":12361:12376   */\n      0x206e6f7420616c6c6f7765642e00000000000000000000000000000000000000\n        /* \"#utility.yul\":12356:12358   */\n      0x20\n        /* \"#utility.yul\":12348:12354   */\n      dup3\n        /* \"#utility.yul\":12344:12359   */\n      add\n        /* \"#utility.yul\":12337:12377   */\n      mstore\n        /* \"#utility.yul\":12152:12384   */\n      pop\n      jump\t// out\n        /* \"#utility.yul\":12390:12625   */\n    tag_196:\n        /* \"#utility.yul\":12530:12564   */\n      0x53696d706c65566f74696e673a204164647265737320616c7265616479206861\n        /* \"#utility.yul\":12526:12527   */\n      0x00\n        /* \"#utility.yul\":12518:12524   */\n      dup3\n        /* \"#utility.yul\":12514:12528   */\n      add\n        /* \"#utility.yul\":12507:12565   */\n      mstore\n        /* \"#utility.yul\":12599:12617   */\n      0x7320726967687420746f20766f74652e00000000000000000000000000000000\n        /* \"#utility.yul\":12594:12596   */\n      0x20\n        /* \"#utility.yul\":12586:12592   */\n      dup3\n        /* \"#utility.yul\":12582:12597   */\n      add\n        /* \"#utility.yul\":12575:12618   */\n      mstore\n        /* \"#utility.yul\":12390:12625   */\n      pop\n      jump\t// out\n        /* \"#utility.yul\":12631:12861   */\n    tag_201:\n        /* \"#utility.yul\":12771:12805   */\n      0x53696d706c65566f74696e673a2050726f706f73616c20696e646578206f7574\n        /* \"#utility.yul\":12767:12768   */\n      0x00\n        /* \"#utility.yul\":12759:12765   */\n      dup3\n        /* \"#utility.yul\":12755:12769   */\n      add\n        /* \"#utility.yul\":12748:12806   */\n      mstore\n        /* \"#utility.yul\":12840:12853   */\n      0x206f6620626f756e64732e000000000000000000000000000000000000000000\n        /* \"#utility.yul\":12835:12837   */\n      0x20\n        /* \"#utility.yul\":12827:12833   */\n      dup3\n        /* \"#utility.yul\":12823:12838   */\n      add\n        /* \"#utility.yul\":12816:12854   */\n      mstore\n        /* \"#utility.yul\":12631:12861   */\n      pop\n      jump\t// out\n        /* \"#utility.yul\":12867:13101   */\n    tag_206:\n        /* \"#utility.yul\":13007:13041   */\n      0x53696d706c65566f74696e673a2044656c65676174696f6e2074726163657320\n        /* \"#utility.yul\":13003:13004   */\n      0x00\n        /* \"#utility.yul\":12995:13001   */\n      dup3\n        /* \"#utility.yul\":12991:13005   */\n      add\n        /* \"#utility.yul\":12984:13042   */\n      mstore\n        /* \"#utility.yul\":13076:13093   */\n      0x6261636b20746f2063616c6c65722e0000000000000000000000000000000000\n        /* \"#utility.yul\":13071:13073   */\n      0x20\n        /* \"#utility.yul\":13063:13069   */\n      dup3\n        /* \"#utility.yul\":13059:13074   */\n      add\n        /* \"#utility.yul\":13052:13094   */\n      mstore\n        /* \"#utility.yul\":12867:13101   */\n      pop\n      jump\t// out\n        /* \"#utility.yul\":13107:13229   */\n    tag_134:\n        /* \"#utility.yul\":13180:13204   */\n      tag_276\n        /* \"#utility.yul\":13198:13203   */\n      dup2\n        /* \"#utility.yul\":13180:13204   */\n      tag_151\n      jump\t// in\n    tag_276:\n        /* \"#utility.yul\":13173:13178   */\n      dup2\n        /* \"#utility.yul\":13170:13205   */\n      eq\n        /* \"#utility.yul\":13160:13223   */\n      tag_277\n      jumpi\n        /* \"#utility.yul\":13219:13220   */\n      0x00\n        /* \"#utility.yul\":13216:13217   */\n      dup1\n        /* \"#utility.yul\":13209:13221   */\n      revert\n        /* \"#utility.yul\":13160:13223   */\n    tag_277:\n        /* \"#utility.yul\":13107:13229   */\n      pop\n      jump\t// out\n        /* \"#utility.yul\":13235:13357   */\n    tag_138:\n        /* \"#utility.yul\":13308:13332   */\n      tag_279\n        /* \"#utility.yul\":13326:13331   */\n      dup2\n        /* \"#utility.yul\":13308:13332   */\n      tag_210\n      jump\t// in\n    tag_279:\n        /* \"#utility.yul\":13301:13306   */\n      dup2\n        /* \"#utility.yul\":13298:13333   */\n      eq\n        /* \"#utility.yul\":13288:13351   */\n      tag_280\n      jumpi\n        /* \"#utility.yul\":13347:13348   */\n      0x00\n        /* \"#utility.yul\":13344:13345   */\n      dup1\n        /* \"#utility.yul\":13337:13349   */\n      revert\n        /* \"#utility.yul\":13288:13351   */\n    tag_280:\n        /* \"#utility.yul\":13235:13357   */\n      pop\n      jump\t// out\n\n    auxdata: 0xa264697066735822122059d6fa3b9d99d1d3bce4a9c7d5f5dfa5203c6b969ab5c05b86e7b0c0646dd43064736f6c63430008070033\n}\n",
				"bytecode": {
					"linkReferences": {},
					"object": "60806040523480156200001157600080fd5b5060405162001c1538038062001c158339818101604052810190620000379190620003be565b620000476200021b60201b60201c565b600160006101000a81548173ffffffffffffffffffffffffffffffffffffffff021916908373ffffffffffffffffffffffffffffffffffffffff160217905550600160026000600160009054906101000a900473ffffffffffffffffffffffffffffffffffffffff1673ffffffffffffffffffffffffffffffffffffffff1673ffffffffffffffffffffffffffffffffffffffff16815260200190815260200160002060000181905550805160008190555060005b600054811015620001b45760006040518060400160405280620001428585815181106200012e576200012d6200071d565b5b60200260200101516200022360201b60201c565b81526020016000815250905060038190806001815401808255809150506001900390600052602060002090600202016000909190919091506000820151816000015560208201518160010155505050620001ac6001826200025960201b62000c571790919060201c565b9050620000fc565b507ff318b16025413645144ed83c64d2d30f089c10bc263cab68a036c00f011827be600160009054906101000a900473ffffffffffffffffffffffffffffffffffffffff166000546040516200020c92919062000481565b60405180910390a150620007c9565b600033905090565b60008160405160200162000238919062000468565b604051602081830303815290604052620002529062000612565b9050919050565b600081836200026991906200056d565b905092915050565b6000620002886200028284620004d7565b620004ae565b90508083825260208201905082856020860282011115620002ae57620002ad62000797565b5b60005b858110156200030357815167ffffffffffffffff811115620002d857620002d762000792565b5b808601620002e789826200038b565b85526020850194506020840193505050600181019050620002b1565b5050509392505050565b6000620003246200031e8462000506565b620004ae565b9050828152602081018484840111156200034357620003426200079c565b5b6200035084828562000682565b509392505050565b600082601f83011262000370576200036f62000792565b5b81516200038284826020860162000271565b91505092915050565b600082601f830112620003a357620003a262000792565b5b8151620003b58482602086016200030d565b91505092915050565b600060208284031215620003d757620003d6620007a6565b5b600082015167ffffffffffffffff811115620003f857620003f7620007a1565b5b620004068482850162000358565b91505092915050565b6200041a81620005ca565b82525050565b60006200042d8262000557565b62000439818562000562565b93506200044b81856020860162000682565b80840191505092915050565b620004628162000608565b82525050565b600062000476828462000420565b915081905092915050565b60006040820190506200049860008301856200040f565b620004a7602083018462000457565b9392505050565b6000620004ba620004cd565b9050620004c88282620006b8565b919050565b6000604051905090565b600067ffffffffffffffff821115620004f557620004f46200074c565b5b602082029050602081019050919050565b600067ffffffffffffffff8211156200052457620005236200074c565b5b6200052f82620007ab565b9050602081019050919050565b6000819050602082019050919050565b600081519050919050565b600081519050919050565b600081905092915050565b60006200057a8262000608565b9150620005878362000608565b9250827fffffffffffffffffffffffffffffffffffffffffffffffffffffffffffffffff03821115620005bf57620005be620006ee565b5b828201905092915050565b6000620005d782620005e8565b9050919050565b6000819050919050565b600073ffffffffffffffffffffffffffffffffffffffff82169050919050565b6000819050919050565b60006200061f826200054c565b826200062b846200053c565b905062000638816200077b565b925060208210156200067b57620006767fffffffffffffffffffffffffffffffffffffffffffffffffffffffffffffffff83602003600802620007bc565b831692505b5050919050565b60005b83811015620006a257808201518184015260208101905062000685565b83811115620006b2576000848401525b50505050565b620006c382620007ab565b810181811067ffffffffffffffff82111715620006e557620006e46200074c565b5b80604052505050565b7f4e487b7100000000000000000000000000000000000000000000000000000000600052601160045260246000fd5b7f4e487b7100000000000000000000000000000000000000000000000000000000600052603260045260246000fd5b7f4e487b7100000000000000000000000000000000000000000000000000000000600052604160045260246000fd5b6000620007898251620005de565b80915050919050565b600080fd5b600080fd5b600080fd5b600080fd5b600080fd5b6000601f19601f8301169050919050565b600082821b905092915050565b61143c80620007d96000396000f3fe608060405234801561001057600080fd5b506004361061007d5760003560e01c8063a3ec138d1161005b578063a3ec138d146100d6578063c7f758a814610109578063d4d4b5ac1461013a578063da35c664146101585761007d565b80630121b93f146100825780635c19a95c1461009e5780639e7b8d61146100ba575b600080fd5b61009c60048036038101906100979190610cf5565b610176565b005b6100b860048036038101906100b39190610cc8565b610416565b005b6100d460048036038101906100cf9190610cc8565b61092a565b005b6100f060048036038101906100eb9190610cc8565b610b23565b6040516101009493929190610ff5565b60405180910390f35b610123600480360381019061011e9190610cf5565b610b80565b604051610131929190610eca565b60405180910390f35b610142610c2b565b60405161014f9190610eaf565b60405180910390f35b610160610c51565b60405161016d9190610fda565b60405180910390f35b8060005481106101bb576040517f08c379a00000000000000000000000000000000000000000000000000000000081526004016101b290610f9a565b60405180910390fd5b6101c3610c6d565b600260008273ffffffffffffffffffffffffffffffffffffffff1673ffffffffffffffffffffffffffffffffffffffff16815260200190815260200160002060010160009054906101000a900460ff1615610253576040517f08c379a000000000000000000000000000000000000000000000000000000000815260040161024a90610efa565b60405180910390fd5b61025b610c6d565b6000600260008373ffffffffffffffffffffffffffffffffffffffff1673ffffffffffffffffffffffffffffffffffffffff16815260200190815260200160002060000154116102e0576040517f08c379a00000000000000000000000000000000000000000000000000000000081526004016102d790610f3a565b60405180910390fd5b6000600260006102ee610c6d565b73ffffffffffffffffffffffffffffffffffffffff1673ffffffffffffffffffffffffffffffffffffffff168152602001908152602001600020905060018160010160006101000a81548160ff02191690831515021790555084816002018190555061038c81600001546003878154811061036c5761036b61116a565b5b906000526020600020906002020160010154610c5790919063ffffffff16565b600386815481106103a05761039f61116a565b5b9060005260206000209060020201600101819055506103bd610c6d565b73ffffffffffffffffffffffffffffffffffffffff16857fe7ee74ca1f4bb1b82b14f87794c45b3e59c39e372b862fb97a6316b43355b69e83600001546040516104079190610fda565b60405180910390a35050505050565b61041e610c6d565b600260008273ffffffffffffffffffffffffffffffffffffffff1673ffffffffffffffffffffffffffffffffffffffff16815260200190815260200160002060010160009054906101000a900460ff16156104ae576040517f08c379a00000000000000000000000000000000000000000000000000000000081526004016104a590610efa565b60405180910390fd5b6104b6610c6d565b6000600260008373ffffffffffffffffffffffffffffffffffffffff1673ffffffffffffffffffffffffffffffffffffffff168152602001908152602001600020600001541161053b576040517f08c379a000000000000000000000000000000000000000000000000000000000815260040161053290610f3a565b60405180910390fd5b600060026000610549610c6d565b73ffffffffffffffffffffffffffffffffffffffff1673ffffffffffffffffffffffffffffffffffffffff168152602001908152602001600020905061058d610c6d565b73ffffffffffffffffffffffffffffffffffffffff168473ffffffffffffffffffffffffffffffffffffffff1614156105fb576040517f08c379a00000000000000000000000000000000000000000000000000000000081526004016105f290610f5a565b60405180910390fd5b5b600073ffffffffffffffffffffffffffffffffffffffff16600260008673ffffffffffffffffffffffffffffffffffffffff1673ffffffffffffffffffffffffffffffffffffffff16815260200190815260200160002060010160019054906101000a900473ffffffffffffffffffffffffffffffffffffffff1673ffffffffffffffffffffffffffffffffffffffff161461077257600260008573ffffffffffffffffffffffffffffffffffffffff1673ffffffffffffffffffffffffffffffffffffffff16815260200190815260200160002060010160019054906101000a900473ffffffffffffffffffffffffffffffffffffffff1693506106ff610c6d565b73ffffffffffffffffffffffffffffffffffffffff168473ffffffffffffffffffffffffffffffffffffffff16141561076d576040517f08c379a000000000000000000000000000000000000000000000000000000000815260040161076490610fba565b60405180910390fd5b6105fc565b60018160010160006101000a81548160ff021916908315150217905550838160010160016101000a81548173ffffffffffffffffffffffffffffffffffffffff021916908373ffffffffffffffffffffffffffffffffffffffff1602179055506000600260008673ffffffffffffffffffffffffffffffffffffffff1673ffffffffffffffffffffffffffffffffffffffff16815260200190815260200160002090508060010160009054906101000a900460ff161561089e5761086c8260000154600383600201548154811061084c5761084b61116a565b5b906000526020600020906002020160010154610c5790919063ffffffff16565b60038260020154815481106108845761088361116a565b5b9060005260206000209060020201600101819055506108c2565b6108b982600001548260000154610c5790919063ffffffff16565b81600001819055505b8473ffffffffffffffffffffffffffffffffffffffff166108e1610c6d565b73ffffffffffffffffffffffffffffffffffffffff167f4ce9ef2c99d761d69230b0e3381f4c6016333b2e27d32b3e379a96b5d2c6923260405160405180910390a35050505050565b600160009054906101000a900473ffffffffffffffffffffffffffffffffffffffff1673ffffffffffffffffffffffffffffffffffffffff1661096b610c6d565b73ffffffffffffffffffffffffffffffffffffffff16146109c1576040517f08c379a00000000000000000000000000000000000000000000000000000000081526004016109b890610f1a565b60405180910390fd5b80600260008273ffffffffffffffffffffffffffffffffffffffff1673ffffffffffffffffffffffffffffffffffffffff16815260200190815260200160002060010160009054906101000a900460ff1615610a52576040517f08c379a0000000000000000000000000000000000000000000000000000000008152600401610a4990610efa565b60405180910390fd5b6000600260008473ffffffffffffffffffffffffffffffffffffffff1673ffffffffffffffffffffffffffffffffffffffff1681526020019081526020016000206000015414610ad7576040517f08c379a0000000000000000000000000000000000000000000000000000000008152600401610ace90610f7a565b60405180910390fd5b6001600260008473ffffffffffffffffffffffffffffffffffffffff1673ffffffffffffffffffffffffffffffffffffffff168152602001908152602001600020600001819055505050565b60026020528060005260406000206000915090508060000154908060010160009054906101000a900460ff16908060010160019054906101000a900473ffffffffffffffffffffffffffffffffffffffff16908060020154905084565b60606000826000548110610bc9576040517f08c379a0000000000000000000000000000000000000000000000000000000008152600401610bc090610f9a565b60405180910390fd5b610bf760038581548110610be057610bdf61116a565b5b906000526020600020906002020160000154610c75565b60038581548110610c0b57610c0a61116a565b5b906000526020600020906002020160010154809350819450505050915091565b600160009054906101000a900473ffffffffffffffffffffffffffffffffffffffff1681565b60005481565b60008183610c659190611056565b905092915050565b600033905090565b606081604051602001610c889190610e94565b6040516020818303038152906040529050919050565b600081359050610cad816113d8565b92915050565b600081359050610cc2816113ef565b92915050565b600060208284031215610cde57610cdd611199565b5b6000610cec84828501610c9e565b91505092915050565b600060208284031215610d0b57610d0a611199565b5b6000610d1984828501610cb3565b91505092915050565b610d2b816110ac565b82525050565b610d3a816110be565b82525050565b610d51610d4c826110ca565b611131565b82525050565b6000610d628261103a565b610d6c8185611045565b9350610d7c8185602086016110fe565b610d858161119e565b840191505092915050565b6000610d9d602a83611045565b9150610da8826111af565b604082019050919050565b6000610dc0603683611045565b9150610dcb826111fe565b604082019050919050565b6000610de3603183611045565b9150610dee8261124d565b604082019050919050565b6000610e06602d83611045565b9150610e118261129c565b604082019050919050565b6000610e29603083611045565b9150610e34826112eb565b604082019050919050565b6000610e4c602b83611045565b9150610e578261133a565b604082019050919050565b6000610e6f602f83611045565b9150610e7a82611389565b604082019050919050565b610e8e816110f4565b82525050565b6000610ea08284610d40565b60208201915081905092915050565b6000602082019050610ec46000830184610d22565b92915050565b60006040820190508181036000830152610ee48185610d57565b9050610ef36020830184610e85565b9392505050565b60006020820190508181036000830152610f1381610d90565b9050919050565b60006020820190508181036000830152610f3381610db3565b9050919050565b60006020820190508181036000830152610f5381610dd6565b9050919050565b60006020820190508181036000830152610f7381610df9565b9050919050565b60006020820190508181036000830152610f9381610e1c565b9050919050565b60006020820190508181036000830152610fb381610e3f565b9050919050565b60006020820190508181036000830152610fd381610e62565b9050919050565b6000602082019050610fef6000830184610e85565b92915050565b600060808201905061100a6000830187610e85565b6110176020830186610d31565b6110246040830185610d22565b6110316060830184610e85565b95945050505050565b600081519050919050565b600082825260208201905092915050565b6000611061826110f4565b915061106c836110f4565b9250827fffffffffffffffffffffffffffffffffffffffffffffffffffffffffffffffff038211156110a1576110a061113b565b5b828201905092915050565b60006110b7826110d4565b9050919050565b60008115159050919050565b6000819050919050565b600073ffffffffffffffffffffffffffffffffffffffff82169050919050565b6000819050919050565b60005b8381101561111c578082015181840152602081019050611101565b8381111561112b576000848401525b50505050565b6000819050919050565b7f4e487b7100000000000000000000000000000000000000000000000000000000600052601160045260246000fd5b7f4e487b7100000000000000000000000000000000000000000000000000000000600052603260045260246000fd5b600080fd5b6000601f19601f8301169050919050565b7f53696d706c65566f74696e673a2054686520766f7465722068617320616c726560008201527f61647920766f7465642e00000000000000000000000000000000000000000000602082015250565b7f53696d706c65566f74696e673a204f6e6c79206368616972506572736f6e206360008201527f616e206769766520726967687420746f20766f74652e00000000000000000000602082015250565b7f53696d706c65566f74696e673a2043616c6c657220646f6573206e6f7420686160008201527f766520726967687420746f20766f74652e000000000000000000000000000000602082015250565b7f53696d706c65566f74696e673a2053656c662d64656c65676174696f6e20697360008201527f206e6f7420616c6c6f7765642e00000000000000000000000000000000000000602082015250565b7f53696d706c65566f74696e673a204164647265737320616c726561647920686160008201527f7320726967687420746f20766f74652e00000000000000000000000000000000602082015250565b7f53696d706c65566f74696e673a2050726f706f73616c20696e646578206f757460008201527f206f6620626f756e64732e000000000000000000000000000000000000000000602082015250565b7f53696d706c65566f74696e673a2044656c65676174696f6e207472616365732060008201527f6261636b20746f2063616c6c65722e0000000000000000000000000000000000602082015250565b6113e1816110ac565b81146113ec57600080fd5b50565b6113f8816110f4565b811461140357600080fd5b5056fea264697066735822122059d6fa3b9d99d1d3bce4a9c7d5f5dfa5203c6b969ab5c05b86e7b0c0646dd43064736f6c63430008070033",
					"opcodes": "PUSH1 0x80 PUSH1 0x40 MSTORE CALLVALUE DUP1 ISZERO PUSH3 0x11 JUMPI PUSH1 0x0 DUP1 REVERT JUMPDEST POP PUSH1 0x40 MLOAD PUSH3 0x1C15 CODESIZE SUB DUP1 PUSH3 0x1C15 DUP4 CODECOPY DUP2 DUP2 ADD PUSH1 0x40 MSTORE DUP2 ADD SWAP1 PUSH3 0x37 SWAP2 SWAP1 PUSH3 0x3BE JUMP JUMPDEST PUSH3 0x47 PUSH3 0x21B PUSH1 0x20 SHL PUSH1 0x20 SHR JUMP JUMPDEST PUSH1 0x1 PUSH1 0x0 PUSH2 0x100 EXP DUP2 SLOAD DUP2 PUSH20 0xFFFFFFFFFFFFFFFFFFFFFFFFFFFFFFFFFFFFFFFF MUL NOT AND SWAP1 DUP4 PUSH20 0xFFFFFFFFFFFFFFFFFFFFFFFFFFFFFFFFFFFFFFFF AND MUL OR SWAP1 SSTORE POP PUSH1 0x1 PUSH1 0x2 PUSH1 0x0 PUSH1 0x1 PUSH1 0x0 SWAP1 SLOAD SWAP1 PUSH2 0x100 EXP SWAP1 DIV PUSH20 0xFFFFFFFFFFFFFFFFFFFFFFFFFFFFFFFFFFFFFFFF AND PUSH20 0xFFFFFFFFFFFFFFFFFFFFFFFFFFFFFFFFFFFFFFFF AND PUSH20 0xFFFFFFFFFFFFFFFFFFFFFFFFFFFFFFFFFFFFFFFF AND DUP2 MSTORE PUSH1 0x20 ADD SWAP1 DUP2 MSTORE PUSH1 0x20 ADD PUSH1 0x0 KECCAK256 PUSH1 0x0 ADD DUP2 SWAP1 SSTORE POP DUP1 MLOAD PUSH1 0x0 DUP2 SWAP1 SSTORE POP PUSH1 0x0 JUMPDEST PUSH1 0x0 SLOAD DUP2 LT ISZERO PUSH3 0x1B4 JUMPI PUSH1 0x0 PUSH1 0x40 MLOAD DUP1 PUSH1 0x40 ADD PUSH1 0x40 MSTORE DUP1 PUSH3 0x142 DUP6 DUP6 DUP2 MLOAD DUP2 LT PUSH3 0x12E JUMPI PUSH3 0x12D PUSH3 0x71D JUMP JUMPDEST JUMPDEST PUSH1 0x20 MUL PUSH1 0x20 ADD ADD MLOAD PUSH3 0x223 PUSH1 0x20 SHL PUSH1 0x20 SHR JUMP JUMPDEST DUP2 MSTORE PUSH1 0x20 ADD PUSH1 0x0 DUP2 MSTORE POP SWAP1 POP PUSH1 0x3 DUP2 SWAP1 DUP1 PUSH1 0x1 DUP2 SLOAD ADD DUP1 DUP3 SSTORE DUP1 SWAP2 POP POP PUSH1 0x1 SWAP1 SUB SWAP1 PUSH1 0x0 MSTORE PUSH1 0x20 PUSH1 0x0 KECCAK256 SWAP1 PUSH1 0x2 MUL ADD PUSH1 0x0 SWAP1 SWAP2 SWAP1 SWAP2 SWAP1 SWAP2 POP PUSH1 0x0 DUP3 ADD MLOAD DUP2 PUSH1 0x0 ADD SSTORE PUSH1 0x20 DUP3 ADD MLOAD DUP2 PUSH1 0x1 ADD SSTORE POP POP POP PUSH3 0x1AC PUSH1 0x1 DUP3 PUSH3 0x259 PUSH1 0x20 SHL PUSH3 0xC57 OR SWAP1 SWAP2 SWAP1 PUSH1 0x20 SHR JUMP JUMPDEST SWAP1 POP PUSH3 0xFC JUMP JUMPDEST POP PUSH32 0xF318B16025413645144ED83C64D2D30F089C10BC263CAB68A036C00F011827BE PUSH1 0x1 PUSH1 0x0 SWAP1 SLOAD SWAP1 PUSH2 0x100 EXP SWAP1 DIV PUSH20 0xFFFFFFFFFFFFFFFFFFFFFFFFFFFFFFFFFFFFFFFF AND PUSH1 0x0 SLOAD PUSH1 0x40 MLOAD PUSH3 0x20C SWAP3 SWAP2 SWAP1 PUSH3 0x481 JUMP JUMPDEST PUSH1 0x40 MLOAD DUP1 SWAP2 SUB SWAP1 LOG1 POP PUSH3 0x7C9 JUMP JUMPDEST PUSH1 0x0 CALLER SWAP1 POP SWAP1 JUMP JUMPDEST PUSH1 0x0 DUP2 PUSH1 0x40 MLOAD PUSH1 0x20 ADD PUSH3 0x238 SWAP2 SWAP1 PUSH3 0x468 JUMP JUMPDEST PUSH1 0x40 MLOAD PUSH1 0x20 DUP2 DUP4 SUB SUB DUP2 MSTORE SWAP1 PUSH1 0x40 MSTORE PUSH3 0x252 SWAP1 PUSH3 0x612 JUMP JUMPDEST SWAP1 POP SWAP2 SWAP1 POP JUMP JUMPDEST PUSH1 0x0 DUP2 DUP4 PUSH3 0x269 SWAP2 SWAP1 PUSH3 0x56D JUMP JUMPDEST SWAP1 POP SWAP3 SWAP2 POP POP JUMP JUMPDEST PUSH1 0x0 PUSH3 0x288 PUSH3 0x282 DUP5 PUSH3 0x4D7 JUMP JUMPDEST PUSH3 0x4AE JUMP JUMPDEST SWAP1 POP DUP1 DUP4 DUP3 MSTORE PUSH1 0x20 DUP3 ADD SWAP1 POP DUP3 DUP6 PUSH1 0x20 DUP7 MUL DUP3 ADD GT ISZERO PUSH3 0x2AE JUMPI PUSH3 0x2AD PUSH3 0x797 JUMP JUMPDEST JUMPDEST PUSH1 0x0 JUMPDEST DUP6 DUP2 LT ISZERO PUSH3 0x303 JUMPI DUP2 MLOAD PUSH8 0xFFFFFFFFFFFFFFFF DUP2 GT ISZERO PUSH3 0x2D8 JUMPI PUSH3 0x2D7 PUSH3 0x792 JUMP JUMPDEST JUMPDEST DUP1 DUP7 ADD PUSH3 0x2E7 DUP10 DUP3 PUSH3 0x38B JUMP JUMPDEST DUP6 MSTORE PUSH1 0x20 DUP6 ADD SWAP5 POP PUSH1 0x20 DUP5 ADD SWAP4 POP POP POP PUSH1 0x1 DUP2 ADD SWAP1 POP PUSH3 0x2B1 JUMP JUMPDEST POP POP POP SWAP4 SWAP3 POP POP POP JUMP JUMPDEST PUSH1 0x0 PUSH3 0x324 PUSH3 0x31E DUP5 PUSH3 0x506 JUMP JUMPDEST PUSH3 0x4AE JUMP JUMPDEST SWAP1 POP DUP3 DUP2 MSTORE PUSH1 0x20 DUP2 ADD DUP5 DUP5 DUP5 ADD GT ISZERO PUSH3 0x343 JUMPI PUSH3 0x342 PUSH3 0x79C JUMP JUMPDEST JUMPDEST PUSH3 0x350 DUP5 DUP3 DUP6 PUSH3 0x682 JUMP JUMPDEST POP SWAP4 SWAP3 POP POP POP JUMP JUMPDEST PUSH1 0x0 DUP3 PUSH1 0x1F DUP4 ADD SLT PUSH3 0x370 JUMPI PUSH3 0x36F PUSH3 0x792 JUMP JUMPDEST JUMPDEST DUP2 MLOAD PUSH3 0x382 DUP5 DUP3 PUSH1 0x20 DUP7 ADD PUSH3 0x271 JUMP JUMPDEST SWAP2 POP POP SWAP3 SWAP2 POP POP JUMP JUMPDEST PUSH1 0x0 DUP3 PUSH1 0x1F DUP4 ADD SLT PUSH3 0x3A3 JUMPI PUSH3 0x3A2 PUSH3 0x792 JUMP JUMPDEST JUMPDEST DUP2 MLOAD PUSH3 0x3B5 DUP5 DUP3 PUSH1 0x20 DUP7 ADD PUSH3 0x30D JUMP JUMPDEST SWAP2 POP POP SWAP3 SWAP2 POP POP JUMP JUMPDEST PUSH1 0x0 PUSH1 0x20 DUP3 DUP5 SUB SLT ISZERO PUSH3 0x3D7 JUMPI PUSH3 0x3D6 PUSH3 0x7A6 JUMP JUMPDEST JUMPDEST PUSH1 0x0 DUP3 ADD MLOAD PUSH8 0xFFFFFFFFFFFFFFFF DUP2 GT ISZERO PUSH3 0x3F8 JUMPI PUSH3 0x3F7 PUSH3 0x7A1 JUMP JUMPDEST JUMPDEST PUSH3 0x406 DUP5 DUP3 DUP6 ADD PUSH3 0x358 JUMP JUMPDEST SWAP2 POP POP SWAP3 SWAP2 POP POP JUMP JUMPDEST PUSH3 0x41A DUP2 PUSH3 0x5CA JUMP JUMPDEST DUP3 MSTORE POP POP JUMP JUMPDEST PUSH1 0x0 PUSH3 0x42D DUP3 PUSH3 0x557 JUMP JUMPDEST PUSH3 0x439 DUP2 DUP6 PUSH3 0x562 JUMP JUMPDEST SWAP4 POP PUSH3 0x44B DUP2 DUP6 PUSH1 0x20 DUP7 ADD PUSH3 0x682 JUMP JUMPDEST DUP1 DUP5 ADD SWAP2 POP POP SWAP3 SWAP2 POP POP JUMP JUMPDEST PUSH3 0x462 DUP2 PUSH3 0x608 JUMP JUMPDEST DUP3 MSTORE POP POP JUMP JUMPDEST PUSH1 0x0 PUSH3 0x476 DUP3 DUP5 PUSH3 0x420 JUMP JUMPDEST SWAP2 POP DUP2 SWAP1 POP SWAP3 SWAP2 POP POP JUMP JUMPDEST PUSH1 0x0 PUSH1 0x40 DUP3 ADD SWAP1 POP PUSH3 0x498 PUSH1 0x0 DUP4 ADD DUP6 PUSH3 0x40F JUMP JUMPDEST PUSH3 0x4A7 PUSH1 0x20 DUP4 ADD DUP5 PUSH3 0x457 JUMP JUMPDEST SWAP4 SWAP3 POP POP POP JUMP JUMPDEST PUSH1 0x0 PUSH3 0x4BA PUSH3 0x4CD JUMP JUMPDEST SWAP1 POP PUSH3 0x4C8 DUP3 DUP3 PUSH3 0x6B8 JUMP JUMPDEST SWAP2 SWAP1 POP JUMP JUMPDEST PUSH1 0x0 PUSH1 0x40 MLOAD SWAP1 POP SWAP1 JUMP JUMPDEST PUSH1 0x0 PUSH8 0xFFFFFFFFFFFFFFFF DUP3 GT ISZERO PUSH3 0x4F5 JUMPI PUSH3 0x4F4 PUSH3 0x74C JUMP JUMPDEST JUMPDEST PUSH1 0x20 DUP3 MUL SWAP1 POP PUSH1 0x20 DUP2 ADD SWAP1 POP SWAP2 SWAP1 POP JUMP JUMPDEST PUSH1 0x0 PUSH8 0xFFFFFFFFFFFFFFFF DUP3 GT ISZERO PUSH3 0x524 JUMPI PUSH3 0x523 PUSH3 0x74C JUMP JUMPDEST JUMPDEST PUSH3 0x52F DUP3 PUSH3 0x7AB JUMP JUMPDEST SWAP1 POP PUSH1 0x20 DUP2 ADD SWAP1 POP SWAP2 SWAP1 POP JUMP JUMPDEST PUSH1 0x0 DUP2 SWAP1 POP PUSH1 0x20 DUP3 ADD SWAP1 POP SWAP2 SWAP1 POP JUMP JUMPDEST PUSH1 0x0 DUP2 MLOAD SWAP1 POP SWAP2 SWAP1 POP JUMP JUMPDEST PUSH1 0x0 DUP2 MLOAD SWAP1 POP SWAP2 SWAP1 POP JUMP JUMPDEST PUSH1 0x0 DUP2 SWAP1 POP SWAP3 SWAP2 POP POP JUMP JUMPDEST PUSH1 0x0 PUSH3 0x57A DUP3 PUSH3 0x608 JUMP JUMPDEST SWAP2 POP PUSH3 0x587 DUP4 PUSH3 0x608 JUMP JUMPDEST SWAP3 POP DUP3 PUSH32 0xFFFFFFFFFFFFFFFFFFFFFFFFFFFFFFFFFFFFFFFFFFFFFFFFFFFFFFFFFFFFFFFF SUB DUP3 GT ISZERO PUSH3 0x5BF JUMPI PUSH3 0x5BE PUSH3 0x6EE JUMP JUMPDEST JUMPDEST DUP3 DUP3 ADD SWAP1 POP SWAP3 SWAP2 POP POP JUMP JUMPDEST PUSH1 0x0 PUSH3 0x5D7 DUP3 PUSH3 0x5E8 JUMP JUMPDEST SWAP1 POP SWAP2 SWAP1 POP JUMP JUMPDEST PUSH1 0x0 DUP2 SWAP1 POP SWAP2 SWAP1 POP JUMP JUMPDEST PUSH1 0x0 PUSH20 0xFFFFFFFFFFFFFFFFFFFFFFFFFFFFFFFFFFFFFFFF DUP3 AND SWAP1 POP SWAP2 SWAP1 POP JUMP JUMPDEST PUSH1 0x0 DUP2 SWAP1 POP SWAP2 SWAP1 POP JUMP JUMPDEST PUSH1 0x0 PUSH3 0x61F DUP3 PUSH3 0x54C JUMP JUMPDEST DUP3 PUSH3 0x62B DUP5 PUSH3 0x53C JUMP JUMPDEST SWAP1 POP PUSH3 0x638 DUP2 PUSH3 0x77B JUMP JUMPDEST SWAP3 POP PUSH1 0x20 DUP3 LT ISZERO PUSH3 0x67B JUMPI PUSH3 0x676 PUSH32 0xFFFFFFFFFFFFFFFFFFFFFFFFFFFFFFFFFFFFFFFFFFFFFFFFFFFFFFFFFFFFFFFF DUP4 PUSH1 0x20 SUB PUSH1 0x8 MUL PUSH3 0x7BC JUMP JUMPDEST DUP4 AND SWAP3 POP JUMPDEST POP POP SWAP2 SWAP1 POP JUMP JUMPDEST PUSH1 0x0 JUMPDEST DUP4 DUP2 LT ISZERO PUSH3 0x6A2 JUMPI DUP1 DUP3 ADD MLOAD DUP2 DUP5 ADD MSTORE PUSH1 0x20 DUP2 ADD SWAP1 POP PUSH3 0x685 JUMP JUMPDEST DUP4 DUP2 GT ISZERO PUSH3 0x6B2 JUMPI PUSH1 0x0 DUP5 DUP5 ADD MSTORE JUMPDEST POP POP POP POP JUMP JUMPDEST PUSH3 0x6C3 DUP3 PUSH3 0x7AB JUMP JUMPDEST DUP2 ADD DUP2 DUP2 LT PUSH8 0xFFFFFFFFFFFFFFFF DUP3 GT OR ISZERO PUSH3 0x6E5 JUMPI PUSH3 0x6E4 PUSH3 0x74C JUMP JUMPDEST JUMPDEST DUP1 PUSH1 0x40 MSTORE POP POP POP JUMP JUMPDEST PUSH32 0x4E487B7100000000000000000000000000000000000000000000000000000000 PUSH1 0x0 MSTORE PUSH1 0x11 PUSH1 0x4 MSTORE PUSH1 0x24 PUSH1 0x0 REVERT JUMPDEST PUSH32 0x4E487B7100000000000000000000000000000000000000000000000000000000 PUSH1 0x0 MSTORE PUSH1 0x32 PUSH1 0x4 MSTORE PUSH1 0x24 PUSH1 0x0 REVERT JUMPDEST PUSH32 0x4E487B7100000000000000000000000000000000000000000000000000000000 PUSH1 0x0 MSTORE PUSH1 0x41 PUSH1 0x4 MSTORE PUSH1 0x24 PUSH1 0x0 REVERT JUMPDEST PUSH1 0x0 PUSH3 0x789 DUP3 MLOAD PUSH3 0x5DE JUMP JUMPDEST DUP1 SWAP2 POP POP SWAP2 SWAP1 POP JUMP JUMPDEST PUSH1 0x0 DUP1 REVERT JUMPDEST PUSH1 0x0 DUP1 REVERT JUMPDEST PUSH1 0x0 DUP1 REVERT JUMPDEST PUSH1 0x0 DUP1 REVERT JUMPDEST PUSH1 0x0 DUP1 REVERT JUMPDEST PUSH1 0x0 PUSH1 0x1F NOT PUSH1 0x1F DUP4 ADD AND SWAP1 POP SWAP2 SWAP1 POP JUMP JUMPDEST PUSH1 0x0 DUP3 DUP3 SHL SWAP1 POP SWAP3 SWAP2 POP POP JUMP JUMPDEST PUSH2 0x143C DUP1 PUSH3 0x7D9 PUSH1 0x0 CODECOPY PUSH1 0x0 RETURN INVALID PUSH1 0x80 PUSH1 0x40 MSTORE CALLVALUE DUP1 ISZERO PUSH2 0x10 JUMPI PUSH1 0x0 DUP1 REVERT JUMPDEST POP PUSH1 0x4 CALLDATASIZE LT PUSH2 0x7D JUMPI PUSH1 0x0 CALLDATALOAD PUSH1 0xE0 SHR DUP1 PUSH4 0xA3EC138D GT PUSH2 0x5B JUMPI DUP1 PUSH4 0xA3EC138D EQ PUSH2 0xD6 JUMPI DUP1 PUSH4 0xC7F758A8 EQ PUSH2 0x109 JUMPI DUP1 PUSH4 0xD4D4B5AC EQ PUSH2 0x13A JUMPI DUP1 PUSH4 0xDA35C664 EQ PUSH2 0x158 JUMPI PUSH2 0x7D JUMP JUMPDEST DUP1 PUSH4 0x121B93F EQ PUSH2 0x82 JUMPI DUP1 PUSH4 0x5C19A95C EQ PUSH2 0x9E JUMPI DUP1 PUSH4 0x9E7B8D61 EQ PUSH2 0xBA JUMPI JUMPDEST PUSH1 0x0 DUP1 REVERT JUMPDEST PUSH2 0x9C PUSH1 0x4 DUP1 CALLDATASIZE SUB DUP2 ADD SWAP1 PUSH2 0x97 SWAP2 SWAP1 PUSH2 0xCF5 JUMP JUMPDEST PUSH2 0x176 JUMP JUMPDEST STOP JUMPDEST PUSH2 0xB8 PUSH1 0x4 DUP1 CALLDATASIZE SUB DUP2 ADD SWAP1 PUSH2 0xB3 SWAP2 SWAP1 PUSH2 0xCC8 JUMP JUMPDEST PUSH2 0x416 JUMP JUMPDEST STOP JUMPDEST PUSH2 0xD4 PUSH1 0x4 DUP1 CALLDATASIZE SUB DUP2 ADD SWAP1 PUSH2 0xCF SWAP2 SWAP1 PUSH2 0xCC8 JUMP JUMPDEST PUSH2 0x92A JUMP JUMPDEST STOP JUMPDEST PUSH2 0xF0 PUSH1 0x4 DUP1 CALLDATASIZE SUB DUP2 ADD SWAP1 PUSH2 0xEB SWAP2 SWAP1 PUSH2 0xCC8 JUMP JUMPDEST PUSH2 0xB23 JUMP JUMPDEST PUSH1 0x40 MLOAD PUSH2 0x100 SWAP5 SWAP4 SWAP3 SWAP2 SWAP1 PUSH2 0xFF5 JUMP JUMPDEST PUSH1 0x40 MLOAD DUP1 SWAP2 SUB SWAP1 RETURN JUMPDEST PUSH2 0x123 PUSH1 0x4 DUP1 CALLDATASIZE SUB DUP2 ADD SWAP1 PUSH2 0x11E SWAP2 SWAP1 PUSH2 0xCF5 JUMP JUMPDEST PUSH2 0xB80 JUMP JUMPDEST PUSH1 0x40 MLOAD PUSH2 0x131 SWAP3 SWAP2 SWAP1 PUSH2 0xECA JUMP JUMPDEST PUSH1 0x40 MLOAD DUP1 SWAP2 SUB SWAP1 RETURN JUMPDEST PUSH2 0x142 PUSH2 0xC2B JUMP JUMPDEST PUSH1 0x40 MLOAD PUSH2 0x14F SWAP2 SWAP1 PUSH2 0xEAF JUMP JUMPDEST PUSH1 0x40 MLOAD DUP1 SWAP2 SUB SWAP1 RETURN JUMPDEST PUSH2 0x160 PUSH2 0xC51 JUMP JUMPDEST PUSH1 0x40 MLOAD PUSH2 0x16D SWAP2 SWAP1 PUSH2 0xFDA JUMP JUMPDEST PUSH1 0x40 MLOAD DUP1 SWAP2 SUB SWAP1 RETURN JUMPDEST DUP1 PUSH1 0x0 SLOAD DUP2 LT PUSH2 0x1BB JUMPI PUSH1 0x40 MLOAD PUSH32 0x8C379A000000000000000000000000000000000000000000000000000000000 DUP2 MSTORE PUSH1 0x4 ADD PUSH2 0x1B2 SWAP1 PUSH2 0xF9A JUMP JUMPDEST PUSH1 0x40 MLOAD DUP1 SWAP2 SUB SWAP1 REVERT JUMPDEST PUSH2 0x1C3 PUSH2 0xC6D JUMP JUMPDEST PUSH1 0x2 PUSH1 0x0 DUP3 PUSH20 0xFFFFFFFFFFFFFFFFFFFFFFFFFFFFFFFFFFFFFFFF AND PUSH20 0xFFFFFFFFFFFFFFFFFFFFFFFFFFFFFFFFFFFFFFFF AND DUP2 MSTORE PUSH1 0x20 ADD SWAP1 DUP2 MSTORE PUSH1 0x20 ADD PUSH1 0x0 KECCAK256 PUSH1 0x1 ADD PUSH1 0x0 SWAP1 SLOAD SWAP1 PUSH2 0x100 EXP SWAP1 DIV PUSH1 0xFF AND ISZERO PUSH2 0x253 JUMPI PUSH1 0x40 MLOAD PUSH32 0x8C379A000000000000000000000000000000000000000000000000000000000 DUP2 MSTORE PUSH1 0x4 ADD PUSH2 0x24A SWAP1 PUSH2 0xEFA JUMP JUMPDEST PUSH1 0x40 MLOAD DUP1 SWAP2 SUB SWAP1 REVERT JUMPDEST PUSH2 0x25B PUSH2 0xC6D JUMP JUMPDEST PUSH1 0x0 PUSH1 0x2 PUSH1 0x0 DUP4 PUSH20 0xFFFFFFFFFFFFFFFFFFFFFFFFFFFFFFFFFFFFFFFF AND PUSH20 0xFFFFFFFFFFFFFFFFFFFFFFFFFFFFFFFFFFFFFFFF AND DUP2 MSTORE PUSH1 0x20 ADD SWAP1 DUP2 MSTORE PUSH1 0x20 ADD PUSH1 0x0 KECCAK256 PUSH1 0x0 ADD SLOAD GT PUSH2 0x2E0 JUMPI PUSH1 0x40 MLOAD PUSH32 0x8C379A000000000000000000000000000000000000000000000000000000000 DUP2 MSTORE PUSH1 0x4 ADD PUSH2 0x2D7 SWAP1 PUSH2 0xF3A JUMP JUMPDEST PUSH1 0x40 MLOAD DUP1 SWAP2 SUB SWAP1 REVERT JUMPDEST PUSH1 0x0 PUSH1 0x2 PUSH1 0x0 PUSH2 0x2EE PUSH2 0xC6D JUMP JUMPDEST PUSH20 0xFFFFFFFFFFFFFFFFFFFFFFFFFFFFFFFFFFFFFFFF AND PUSH20 0xFFFFFFFFFFFFFFFFFFFFFFFFFFFFFFFFFFFFFFFF AND DUP2 MSTORE PUSH1 0x20 ADD SWAP1 DUP2 MSTORE PUSH1 0x20 ADD PUSH1 0x0 KECCAK256 SWAP1 POP PUSH1 0x1 DUP2 PUSH1 0x1 ADD PUSH1 0x0 PUSH2 0x100 EXP DUP2 SLOAD DUP2 PUSH1 0xFF MUL NOT AND SWAP1 DUP4 ISZERO ISZERO MUL OR SWAP1 SSTORE POP DUP5 DUP2 PUSH1 0x2 ADD DUP2 SWAP1 SSTORE POP PUSH2 0x38C DUP2 PUSH1 0x0 ADD SLOAD PUSH1 0x3 DUP8 DUP2 SLOAD DUP2 LT PUSH2 0x36C JUMPI PUSH2 0x36B PUSH2 0x116A JUMP JUMPDEST JUMPDEST SWAP1 PUSH1 0x0 MSTORE PUSH1 0x20 PUSH1 0x0 KECCAK256 SWAP1 PUSH1 0x2 MUL ADD PUSH1 0x1 ADD SLOAD PUSH2 0xC57 SWAP1 SWAP2 SWAP1 PUSH4 0xFFFFFFFF AND JUMP JUMPDEST PUSH1 0x3 DUP7 DUP2 SLOAD DUP2 LT PUSH2 0x3A0 JUMPI PUSH2 0x39F PUSH2 0x116A JUMP JUMPDEST JUMPDEST SWAP1 PUSH1 0x0 MSTORE PUSH1 0x20 PUSH1 0x0 KECCAK256 SWAP1 PUSH1 0x2 MUL ADD PUSH1 0x1 ADD DUP2 SWAP1 SSTORE POP PUSH2 0x3BD PUSH2 0xC6D JUMP JUMPDEST PUSH20 0xFFFFFFFFFFFFFFFFFFFFFFFFFFFFFFFFFFFFFFFF AND DUP6 PUSH32 0xE7EE74CA1F4BB1B82B14F87794C45B3E59C39E372B862FB97A6316B43355B69E DUP4 PUSH1 0x0 ADD SLOAD PUSH1 0x40 MLOAD PUSH2 0x407 SWAP2 SWAP1 PUSH2 0xFDA JUMP JUMPDEST PUSH1 0x40 MLOAD DUP1 SWAP2 SUB SWAP1 LOG3 POP POP POP POP POP JUMP JUMPDEST PUSH2 0x41E PUSH2 0xC6D JUMP JUMPDEST PUSH1 0x2 PUSH1 0x0 DUP3 PUSH20 0xFFFFFFFFFFFFFFFFFFFFFFFFFFFFFFFFFFFFFFFF AND PUSH20 0xFFFFFFFFFFFFFFFFFFFFFFFFFFFFFFFFFFFFFFFF AND DUP2 MSTORE PUSH1 0x20 ADD SWAP1 DUP2 MSTORE PUSH1 0x20 ADD PUSH1 0x0 KECCAK256 PUSH1 0x1 ADD PUSH1 0x0 SWAP1 SLOAD SWAP1 PUSH2 0x100 EXP SWAP1 DIV PUSH1 0xFF AND ISZERO PUSH2 0x4AE JUMPI PUSH1 0x40 MLOAD PUSH32 0x8C379A000000000000000000000000000000000000000000000000000000000 DUP2 MSTORE PUSH1 0x4 ADD PUSH2 0x4A5 SWAP1 PUSH2 0xEFA JUMP JUMPDEST PUSH1 0x40 MLOAD DUP1 SWAP2 SUB SWAP1 REVERT JUMPDEST PUSH2 0x4B6 PUSH2 0xC6D JUMP JUMPDEST PUSH1 0x0 PUSH1 0x2 PUSH1 0x0 DUP4 PUSH20 0xFFFFFFFFFFFFFFFFFFFFFFFFFFFFFFFFFFFFFFFF AND PUSH20 0xFFFFFFFFFFFFFFFFFFFFFFFFFFFFFFFFFFFFFFFF AND DUP2 MSTORE PUSH1 0x20 ADD SWAP1 DUP2 MSTORE PUSH1 0x20 ADD PUSH1 0x0 KECCAK256 PUSH1 0x0 ADD SLOAD GT PUSH2 0x53B JUMPI PUSH1 0x40 MLOAD PUSH32 0x8C379A000000000000000000000000000000000000000000000000000000000 DUP2 MSTORE PUSH1 0x4 ADD PUSH2 0x532 SWAP1 PUSH2 0xF3A JUMP JUMPDEST PUSH1 0x40 MLOAD DUP1 SWAP2 SUB SWAP1 REVERT JUMPDEST PUSH1 0x0 PUSH1 0x2 PUSH1 0x0 PUSH2 0x549 PUSH2 0xC6D JUMP JUMPDEST PUSH20 0xFFFFFFFFFFFFFFFFFFFFFFFFFFFFFFFFFFFFFFFF AND PUSH20 0xFFFFFFFFFFFFFFFFFFFFFFFFFFFFFFFFFFFFFFFF AND DUP2 MSTORE PUSH1 0x20 ADD SWAP1 DUP2 MSTORE PUSH1 0x20 ADD PUSH1 0x0 KECCAK256 SWAP1 POP PUSH2 0x58D PUSH2 0xC6D JUMP JUMPDEST PUSH20 0xFFFFFFFFFFFFFFFFFFFFFFFFFFFFFFFFFFFFFFFF AND DUP5 PUSH20 0xFFFFFFFFFFFFFFFFFFFFFFFFFFFFFFFFFFFFFFFF AND EQ ISZERO PUSH2 0x5FB JUMPI PUSH1 0x40 MLOAD PUSH32 0x8C379A000000000000000000000000000000000000000000000000000000000 DUP2 MSTORE PUSH1 0x4 ADD PUSH2 0x5F2 SWAP1 PUSH2 0xF5A JUMP JUMPDEST PUSH1 0x40 MLOAD DUP1 SWAP2 SUB SWAP1 REVERT JUMPDEST JUMPDEST PUSH1 0x0 PUSH20 0xFFFFFFFFFFFFFFFFFFFFFFFFFFFFFFFFFFFFFFFF AND PUSH1 0x2 PUSH1 0x0 DUP7 PUSH20 0xFFFFFFFFFFFFFFFFFFFFFFFFFFFFFFFFFFFFFFFF AND PUSH20 0xFFFFFFFFFFFFFFFFFFFFFFFFFFFFFFFFFFFFFFFF AND DUP2 MSTORE PUSH1 0x20 ADD SWAP1 DUP2 MSTORE PUSH1 0x20 ADD PUSH1 0x0 KECCAK256 PUSH1 0x1 ADD PUSH1 0x1 SWAP1 SLOAD SWAP1 PUSH2 0x100 EXP SWAP1 DIV PUSH20 0xFFFFFFFFFFFFFFFFFFFFFFFFFFFFFFFFFFFFFFFF AND PUSH20 0xFFFFFFFFFFFFFFFFFFFFFFFFFFFFFFFFFFFFFFFF AND EQ PUSH2 0x772 JUMPI PUSH1 0x2 PUSH1 0x0 DUP6 PUSH20 0xFFFFFFFFFFFFFFFFFFFFFFFFFFFFFFFFFFFFFFFF AND PUSH20 0xFFFFFFFFFFFFFFFFFFFFFFFFFFFFFFFFFFFFFFFF AND DUP2 MSTORE PUSH1 0x20 ADD SWAP1 DUP2 MSTORE PUSH1 0x20 ADD PUSH1 0x0 KECCAK256 PUSH1 0x1 ADD PUSH1 0x1 SWAP1 SLOAD SWAP1 PUSH2 0x100 EXP SWAP1 DIV PUSH20 0xFFFFFFFFFFFFFFFFFFFFFFFFFFFFFFFFFFFFFFFF AND SWAP4 POP PUSH2 0x6FF PUSH2 0xC6D JUMP JUMPDEST PUSH20 0xFFFFFFFFFFFFFFFFFFFFFFFFFFFFFFFFFFFFFFFF AND DUP5 PUSH20 0xFFFFFFFFFFFFFFFFFFFFFFFFFFFFFFFFFFFFFFFF AND EQ ISZERO PUSH2 0x76D JUMPI PUSH1 0x40 MLOAD PUSH32 0x8C379A000000000000000000000000000000000000000000000000000000000 DUP2 MSTORE PUSH1 0x4 ADD PUSH2 0x764 SWAP1 PUSH2 0xFBA JUMP JUMPDEST PUSH1 0x40 MLOAD DUP1 SWAP2 SUB SWAP1 REVERT JUMPDEST PUSH2 0x5FC JUMP JUMPDEST PUSH1 0x1 DUP2 PUSH1 0x1 ADD PUSH1 0x0 PUSH2 0x100 EXP DUP2 SLOAD DUP2 PUSH1 0xFF MUL NOT AND SWAP1 DUP4 ISZERO ISZERO MUL OR SWAP1 SSTORE POP DUP4 DUP2 PUSH1 0x1 ADD PUSH1 0x1 PUSH2 0x100 EXP DUP2 SLOAD DUP2 PUSH20 0xFFFFFFFFFFFFFFFFFFFFFFFFFFFFFFFFFFFFFFFF MUL NOT AND SWAP1 DUP4 PUSH20 0xFFFFFFFFFFFFFFFFFFFFFFFFFFFFFFFFFFFFFFFF AND MUL OR SWAP1 SSTORE POP PUSH1 0x0 PUSH1 0x2 PUSH1 0x0 DUP7 PUSH20 0xFFFFFFFFFFFFFFFFFFFFFFFFFFFFFFFFFFFFFFFF AND PUSH20 0xFFFFFFFFFFFFFFFFFFFFFFFFFFFFFFFFFFFFFFFF AND DUP2 MSTORE PUSH1 0x20 ADD SWAP1 DUP2 MSTORE PUSH1 0x20 ADD PUSH1 0x0 KECCAK256 SWAP1 POP DUP1 PUSH1 0x1 ADD PUSH1 0x0 SWAP1 SLOAD SWAP1 PUSH2 0x100 EXP SWAP1 DIV PUSH1 0xFF AND ISZERO PUSH2 0x89E JUMPI PUSH2 0x86C DUP3 PUSH1 0x0 ADD SLOAD PUSH1 0x3 DUP4 PUSH1 0x2 ADD SLOAD DUP2 SLOAD DUP2 LT PUSH2 0x84C JUMPI PUSH2 0x84B PUSH2 0x116A JUMP JUMPDEST JUMPDEST SWAP1 PUSH1 0x0 MSTORE PUSH1 0x20 PUSH1 0x0 KECCAK256 SWAP1 PUSH1 0x2 MUL ADD PUSH1 0x1 ADD SLOAD PUSH2 0xC57 SWAP1 SWAP2 SWAP1 PUSH4 0xFFFFFFFF AND JUMP JUMPDEST PUSH1 0x3 DUP3 PUSH1 0x2 ADD SLOAD DUP2 SLOAD DUP2 LT PUSH2 0x884 JUMPI PUSH2 0x883 PUSH2 0x116A JUMP JUMPDEST JUMPDEST SWAP1 PUSH1 0x0 MSTORE PUSH1 0x20 PUSH1 0x0 KECCAK256 SWAP1 PUSH1 0x2 MUL ADD PUSH1 0x1 ADD DUP2 SWAP1 SSTORE POP PUSH2 0x8C2 JUMP JUMPDEST PUSH2 0x8B9 DUP3 PUSH1 0x0 ADD SLOAD DUP3 PUSH1 0x0 ADD SLOAD PUSH2 0xC57 SWAP1 SWAP2 SWAP1 PUSH4 0xFFFFFFFF AND JUMP JUMPDEST DUP2 PUSH1 0x0 ADD DUP2 SWAP1 SSTORE POP JUMPDEST DUP5 PUSH20 0xFFFFFFFFFFFFFFFFFFFFFFFFFFFFFFFFFFFFFFFF AND PUSH2 0x8E1 PUSH2 0xC6D JUMP JUMPDEST PUSH20 0xFFFFFFFFFFFFFFFFFFFFFFFFFFFFFFFFFFFFFFFF AND PUSH32 0x4CE9EF2C99D761D69230B0E3381F4C6016333B2E27D32B3E379A96B5D2C69232 PUSH1 0x40 MLOAD PUSH1 0x40 MLOAD DUP1 SWAP2 SUB SWAP1 LOG3 POP POP POP POP POP JUMP JUMPDEST PUSH1 0x1 PUSH1 0x0 SWAP1 SLOAD SWAP1 PUSH2 0x100 EXP SWAP1 DIV PUSH20 0xFFFFFFFFFFFFFFFFFFFFFFFFFFFFFFFFFFFFFFFF AND PUSH20 0xFFFFFFFFFFFFFFFFFFFFFFFFFFFFFFFFFFFFFFFF AND PUSH2 0x96B PUSH2 0xC6D JUMP JUMPDEST PUSH20 0xFFFFFFFFFFFFFFFFFFFFFFFFFFFFFFFFFFFFFFFF AND EQ PUSH2 0x9C1 JUMPI PUSH1 0x40 MLOAD PUSH32 0x8C379A000000000000000000000000000000000000000000000000000000000 DUP2 MSTORE PUSH1 0x4 ADD PUSH2 0x9B8 SWAP1 PUSH2 0xF1A JUMP JUMPDEST PUSH1 0x40 MLOAD DUP1 SWAP2 SUB SWAP1 REVERT JUMPDEST DUP1 PUSH1 0x2 PUSH1 0x0 DUP3 PUSH20 0xFFFFFFFFFFFFFFFFFFFFFFFFFFFFFFFFFFFFFFFF AND PUSH20 0xFFFFFFFFFFFFFFFFFFFFFFFFFFFFFFFFFFFFFFFF AND DUP2 MSTORE PUSH1 0x20 ADD SWAP1 DUP2 MSTORE PUSH1 0x20 ADD PUSH1 0x0 KECCAK256 PUSH1 0x1 ADD PUSH1 0x0 SWAP1 SLOAD SWAP1 PUSH2 0x100 EXP SWAP1 DIV PUSH1 0xFF AND ISZERO PUSH2 0xA52 JUMPI PUSH1 0x40 MLOAD PUSH32 0x8C379A000000000000000000000000000000000000000000000000000000000 DUP2 MSTORE PUSH1 0x4 ADD PUSH2 0xA49 SWAP1 PUSH2 0xEFA JUMP JUMPDEST PUSH1 0x40 MLOAD DUP1 SWAP2 SUB SWAP1 REVERT JUMPDEST PUSH1 0x0 PUSH1 0x2 PUSH1 0x0 DUP5 PUSH20 0xFFFFFFFFFFFFFFFFFFFFFFFFFFFFFFFFFFFFFFFF AND PUSH20 0xFFFFFFFFFFFFFFFFFFFFFFFFFFFFFFFFFFFFFFFF AND DUP2 MSTORE PUSH1 0x20 ADD SWAP1 DUP2 MSTORE PUSH1 0x20 ADD PUSH1 0x0 KECCAK256 PUSH1 0x0 ADD SLOAD EQ PUSH2 0xAD7 JUMPI PUSH1 0x40 MLOAD PUSH32 0x8C379A000000000000000000000000000000000000000000000000000000000 DUP2 MSTORE PUSH1 0x4 ADD PUSH2 0xACE SWAP1 PUSH2 0xF7A JUMP JUMPDEST PUSH1 0x40 MLOAD DUP1 SWAP2 SUB SWAP1 REVERT JUMPDEST PUSH1 0x1 PUSH1 0x2 PUSH1 0x0 DUP5 PUSH20 0xFFFFFFFFFFFFFFFFFFFFFFFFFFFFFFFFFFFFFFFF AND PUSH20 0xFFFFFFFFFFFFFFFFFFFFFFFFFFFFFFFFFFFFFFFF AND DUP2 MSTORE PUSH1 0x20 ADD SWAP1 DUP2 MSTORE PUSH1 0x20 ADD PUSH1 0x0 KECCAK256 PUSH1 0x0 ADD DUP2 SWAP1 SSTORE POP POP POP JUMP JUMPDEST PUSH1 0x2 PUSH1 0x20 MSTORE DUP1 PUSH1 0x0 MSTORE PUSH1 0x40 PUSH1 0x0 KECCAK256 PUSH1 0x0 SWAP2 POP SWAP1 POP DUP1 PUSH1 0x0 ADD SLOAD SWAP1 DUP1 PUSH1 0x1 ADD PUSH1 0x0 SWAP1 SLOAD SWAP1 PUSH2 0x100 EXP SWAP1 DIV PUSH1 0xFF AND SWAP1 DUP1 PUSH1 0x1 ADD PUSH1 0x1 SWAP1 SLOAD SWAP1 PUSH2 0x100 EXP SWAP1 DIV PUSH20 0xFFFFFFFFFFFFFFFFFFFFFFFFFFFFFFFFFFFFFFFF AND SWAP1 DUP1 PUSH1 0x2 ADD SLOAD SWAP1 POP DUP5 JUMP JUMPDEST PUSH1 0x60 PUSH1 0x0 DUP3 PUSH1 0x0 SLOAD DUP2 LT PUSH2 0xBC9 JUMPI PUSH1 0x40 MLOAD PUSH32 0x8C379A000000000000000000000000000000000000000000000000000000000 DUP2 MSTORE PUSH1 0x4 ADD PUSH2 0xBC0 SWAP1 PUSH2 0xF9A JUMP JUMPDEST PUSH1 0x40 MLOAD DUP1 SWAP2 SUB SWAP1 REVERT JUMPDEST PUSH2 0xBF7 PUSH1 0x3 DUP6 DUP2 SLOAD DUP2 LT PUSH2 0xBE0 JUMPI PUSH2 0xBDF PUSH2 0x116A JUMP JUMPDEST JUMPDEST SWAP1 PUSH1 0x0 MSTORE PUSH1 0x20 PUSH1 0x0 KECCAK256 SWAP1 PUSH1 0x2 MUL ADD PUSH1 0x0 ADD SLOAD PUSH2 0xC75 JUMP JUMPDEST PUSH1 0x3 DUP6 DUP2 SLOAD DUP2 LT PUSH2 0xC0B JUMPI PUSH2 0xC0A PUSH2 0x116A JUMP JUMPDEST JUMPDEST SWAP1 PUSH1 0x0 MSTORE PUSH1 0x20 PUSH1 0x0 KECCAK256 SWAP1 PUSH1 0x2 MUL ADD PUSH1 0x1 ADD SLOAD DUP1 SWAP4 POP DUP2 SWAP5 POP POP POP POP SWAP2 POP SWAP2 JUMP JUMPDEST PUSH1 0x1 PUSH1 0x0 SWAP1 SLOAD SWAP1 PUSH2 0x100 EXP SWAP1 DIV PUSH20 0xFFFFFFFFFFFFFFFFFFFFFFFFFFFFFFFFFFFFFFFF AND DUP2 JUMP JUMPDEST PUSH1 0x0 SLOAD DUP2 JUMP JUMPDEST PUSH1 0x0 DUP2 DUP4 PUSH2 0xC65 SWAP2 SWAP1 PUSH2 0x1056 JUMP JUMPDEST SWAP1 POP SWAP3 SWAP2 POP POP JUMP JUMPDEST PUSH1 0x0 CALLER SWAP1 POP SWAP1 JUMP JUMPDEST PUSH1 0x60 DUP2 PUSH1 0x40 MLOAD PUSH1 0x20 ADD PUSH2 0xC88 SWAP2 SWAP1 PUSH2 0xE94 JUMP JUMPDEST PUSH1 0x40 MLOAD PUSH1 0x20 DUP2 DUP4 SUB SUB DUP2 MSTORE SWAP1 PUSH1 0x40 MSTORE SWAP1 POP SWAP2 SWAP1 POP JUMP JUMPDEST PUSH1 0x0 DUP2 CALLDATALOAD SWAP1 POP PUSH2 0xCAD DUP2 PUSH2 0x13D8 JUMP JUMPDEST SWAP3 SWAP2 POP POP JUMP JUMPDEST PUSH1 0x0 DUP2 CALLDATALOAD SWAP1 POP PUSH2 0xCC2 DUP2 PUSH2 0x13EF JUMP JUMPDEST SWAP3 SWAP2 POP POP JUMP JUMPDEST PUSH1 0x0 PUSH1 0x20 DUP3 DUP5 SUB SLT ISZERO PUSH2 0xCDE JUMPI PUSH2 0xCDD PUSH2 0x1199 JUMP JUMPDEST JUMPDEST PUSH1 0x0 PUSH2 0xCEC DUP5 DUP3 DUP6 ADD PUSH2 0xC9E JUMP JUMPDEST SWAP2 POP POP SWAP3 SWAP2 POP POP JUMP JUMPDEST PUSH1 0x0 PUSH1 0x20 DUP3 DUP5 SUB SLT ISZERO PUSH2 0xD0B JUMPI PUSH2 0xD0A PUSH2 0x1199 JUMP JUMPDEST JUMPDEST PUSH1 0x0 PUSH2 0xD19 DUP5 DUP3 DUP6 ADD PUSH2 0xCB3 JUMP JUMPDEST SWAP2 POP POP SWAP3 SWAP2 POP POP JUMP JUMPDEST PUSH2 0xD2B DUP2 PUSH2 0x10AC JUMP JUMPDEST DUP3 MSTORE POP POP JUMP JUMPDEST PUSH2 0xD3A DUP2 PUSH2 0x10BE JUMP JUMPDEST DUP3 MSTORE POP POP JUMP JUMPDEST PUSH2 0xD51 PUSH2 0xD4C DUP3 PUSH2 0x10CA JUMP JUMPDEST PUSH2 0x1131 JUMP JUMPDEST DUP3 MSTORE POP POP JUMP JUMPDEST PUSH1 0x0 PUSH2 0xD62 DUP3 PUSH2 0x103A JUMP JUMPDEST PUSH2 0xD6C DUP2 DUP6 PUSH2 0x1045 JUMP JUMPDEST SWAP4 POP PUSH2 0xD7C DUP2 DUP6 PUSH1 0x20 DUP7 ADD PUSH2 0x10FE JUMP JUMPDEST PUSH2 0xD85 DUP2 PUSH2 0x119E JUMP JUMPDEST DUP5 ADD SWAP2 POP POP SWAP3 SWAP2 POP POP JUMP JUMPDEST PUSH1 0x0 PUSH2 0xD9D PUSH1 0x2A DUP4 PUSH2 0x1045 JUMP JUMPDEST SWAP2 POP PUSH2 0xDA8 DUP3 PUSH2 0x11AF JUMP JUMPDEST PUSH1 0x40 DUP3 ADD SWAP1 POP SWAP2 SWAP1 POP JUMP JUMPDEST PUSH1 0x0 PUSH2 0xDC0 PUSH1 0x36 DUP4 PUSH2 0x1045 JUMP JUMPDEST SWAP2 POP PUSH2 0xDCB DUP3 PUSH2 0x11FE JUMP JUMPDEST PUSH1 0x40 DUP3 ADD SWAP1 POP SWAP2 SWAP1 POP JUMP JUMPDEST PUSH1 0x0 PUSH2 0xDE3 PUSH1 0x31 DUP4 PUSH2 0x1045 JUMP JUMPDEST SWAP2 POP PUSH2 0xDEE DUP3 PUSH2 0x124D JUMP JUMPDEST PUSH1 0x40 DUP3 ADD SWAP1 POP SWAP2 SWAP1 POP JUMP JUMPDEST PUSH1 0x0 PUSH2 0xE06 PUSH1 0x2D DUP4 PUSH2 0x1045 JUMP JUMPDEST SWAP2 POP PUSH2 0xE11 DUP3 PUSH2 0x129C JUMP JUMPDEST PUSH1 0x40 DUP3 ADD SWAP1 POP SWAP2 SWAP1 POP JUMP JUMPDEST PUSH1 0x0 PUSH2 0xE29 PUSH1 0x30 DUP4 PUSH2 0x1045 JUMP JUMPDEST SWAP2 POP PUSH2 0xE34 DUP3 PUSH2 0x12EB JUMP JUMPDEST PUSH1 0x40 DUP3 ADD SWAP1 POP SWAP2 SWAP1 POP JUMP JUMPDEST PUSH1 0x0 PUSH2 0xE4C PUSH1 0x2B DUP4 PUSH2 0x1045 JUMP JUMPDEST SWAP2 POP PUSH2 0xE57 DUP3 PUSH2 0x133A JUMP JUMPDEST PUSH1 0x40 DUP3 ADD SWAP1 POP SWAP2 SWAP1 POP JUMP JUMPDEST PUSH1 0x0 PUSH2 0xE6F PUSH1 0x2F DUP4 PUSH2 0x1045 JUMP JUMPDEST SWAP2 POP PUSH2 0xE7A DUP3 PUSH2 0x1389 JUMP JUMPDEST PUSH1 0x40 DUP3 ADD SWAP1 POP SWAP2 SWAP1 POP JUMP JUMPDEST PUSH2 0xE8E DUP2 PUSH2 0x10F4 JUMP JUMPDEST DUP3 MSTORE POP POP JUMP JUMPDEST PUSH1 0x0 PUSH2 0xEA0 DUP3 DUP5 PUSH2 0xD40 JUMP JUMPDEST PUSH1 0x20 DUP3 ADD SWAP2 POP DUP2 SWAP1 POP SWAP3 SWAP2 POP POP JUMP JUMPDEST PUSH1 0x0 PUSH1 0x20 DUP3 ADD SWAP1 POP PUSH2 0xEC4 PUSH1 0x0 DUP4 ADD DUP5 PUSH2 0xD22 JUMP JUMPDEST SWAP3 SWAP2 POP POP JUMP JUMPDEST PUSH1 0x0 PUSH1 0x40 DUP3 ADD SWAP1 POP DUP2 DUP2 SUB PUSH1 0x0 DUP4 ADD MSTORE PUSH2 0xEE4 DUP2 DUP6 PUSH2 0xD57 JUMP JUMPDEST SWAP1 POP PUSH2 0xEF3 PUSH1 0x20 DUP4 ADD DUP5 PUSH2 0xE85 JUMP JUMPDEST SWAP4 SWAP3 POP POP POP JUMP JUMPDEST PUSH1 0x0 PUSH1 0x20 DUP3 ADD SWAP1 POP DUP2 DUP2 SUB PUSH1 0x0 DUP4 ADD MSTORE PUSH2 0xF13 DUP2 PUSH2 0xD90 JUMP JUMPDEST SWAP1 POP SWAP2 SWAP1 POP JUMP JUMPDEST PUSH1 0x0 PUSH1 0x20 DUP3 ADD SWAP1 POP DUP2 DUP2 SUB PUSH1 0x0 DUP4 ADD MSTORE PUSH2 0xF33 DUP2 PUSH2 0xDB3 JUMP JUMPDEST SWAP1 POP SWAP2 SWAP1 POP JUMP JUMPDEST PUSH1 0x0 PUSH1 0x20 DUP3 ADD SWAP1 POP DUP2 DUP2 SUB PUSH1 0x0 DUP4 ADD MSTORE PUSH2 0xF53 DUP2 PUSH2 0xDD6 JUMP JUMPDEST SWAP1 POP SWAP2 SWAP1 POP JUMP JUMPDEST PUSH1 0x0 PUSH1 0x20 DUP3 ADD SWAP1 POP DUP2 DUP2 SUB PUSH1 0x0 DUP4 ADD MSTORE PUSH2 0xF73 DUP2 PUSH2 0xDF9 JUMP JUMPDEST SWAP1 POP SWAP2 SWAP1 POP JUMP JUMPDEST PUSH1 0x0 PUSH1 0x20 DUP3 ADD SWAP1 POP DUP2 DUP2 SUB PUSH1 0x0 DUP4 ADD MSTORE PUSH2 0xF93 DUP2 PUSH2 0xE1C JUMP JUMPDEST SWAP1 POP SWAP2 SWAP1 POP JUMP JUMPDEST PUSH1 0x0 PUSH1 0x20 DUP3 ADD SWAP1 POP DUP2 DUP2 SUB PUSH1 0x0 DUP4 ADD MSTORE PUSH2 0xFB3 DUP2 PUSH2 0xE3F JUMP JUMPDEST SWAP1 POP SWAP2 SWAP1 POP JUMP JUMPDEST PUSH1 0x0 PUSH1 0x20 DUP3 ADD SWAP1 POP DUP2 DUP2 SUB PUSH1 0x0 DUP4 ADD MSTORE PUSH2 0xFD3 DUP2 PUSH2 0xE62 JUMP JUMPDEST SWAP1 POP SWAP2 SWAP1 POP JUMP JUMPDEST PUSH1 0x0 PUSH1 0x20 DUP3 ADD SWAP1 POP PUSH2 0xFEF PUSH1 0x0 DUP4 ADD DUP5 PUSH2 0xE85 JUMP JUMPDEST SWAP3 SWAP2 POP POP JUMP JUMPDEST PUSH1 0x0 PUSH1 0x80 DUP3 ADD SWAP1 POP PUSH2 0x100A PUSH1 0x0 DUP4 ADD DUP8 PUSH2 0xE85 JUMP JUMPDEST PUSH2 0x1017 PUSH1 0x20 DUP4 ADD DUP7 PUSH2 0xD31 JUMP JUMPDEST PUSH2 0x1024 PUSH1 0x40 DUP4 ADD DUP6 PUSH2 0xD22 JUMP JUMPDEST PUSH2 0x1031 PUSH1 0x60 DUP4 ADD DUP5 PUSH2 0xE85 JUMP JUMPDEST SWAP6 SWAP5 POP POP POP POP POP JUMP JUMPDEST PUSH1 0x0 DUP2 MLOAD SWAP1 POP SWAP2 SWAP1 POP JUMP JUMPDEST PUSH1 0x0 DUP3 DUP3 MSTORE PUSH1 0x20 DUP3 ADD SWAP1 POP SWAP3 SWAP2 POP POP JUMP JUMPDEST PUSH1 0x0 PUSH2 0x1061 DUP3 PUSH2 0x10F4 JUMP JUMPDEST SWAP2 POP PUSH2 0x106C DUP4 PUSH2 0x10F4 JUMP JUMPDEST SWAP3 POP DUP3 PUSH32 0xFFFFFFFFFFFFFFFFFFFFFFFFFFFFFFFFFFFFFFFFFFFFFFFFFFFFFFFFFFFFFFFF SUB DUP3 GT ISZERO PUSH2 0x10A1 JUMPI PUSH2 0x10A0 PUSH2 0x113B JUMP JUMPDEST JUMPDEST DUP3 DUP3 ADD SWAP1 POP SWAP3 SWAP2 POP POP JUMP JUMPDEST PUSH1 0x0 PUSH2 0x10B7 DUP3 PUSH2 0x10D4 JUMP JUMPDEST SWAP1 POP SWAP2 SWAP1 POP JUMP JUMPDEST PUSH1 0x0 DUP2 ISZERO ISZERO SWAP1 POP SWAP2 SWAP1 POP JUMP JUMPDEST PUSH1 0x0 DUP2 SWAP1 POP SWAP2 SWAP1 POP JUMP JUMPDEST PUSH1 0x0 PUSH20 0xFFFFFFFFFFFFFFFFFFFFFFFFFFFFFFFFFFFFFFFF DUP3 AND SWAP1 POP SWAP2 SWAP1 POP JUMP JUMPDEST PUSH1 0x0 DUP2 SWAP1 POP SWAP2 SWAP1 POP JUMP JUMPDEST PUSH1 0x0 JUMPDEST DUP4 DUP2 LT ISZERO PUSH2 0x111C JUMPI DUP1 DUP3 ADD MLOAD DUP2 DUP5 ADD MSTORE PUSH1 0x20 DUP2 ADD SWAP1 POP PUSH2 0x1101 JUMP JUMPDEST DUP4 DUP2 GT ISZERO PUSH2 0x112B JUMPI PUSH1 0x0 DUP5 DUP5 ADD MSTORE JUMPDEST POP POP POP POP JUMP JUMPDEST PUSH1 0x0 DUP2 SWAP1 POP SWAP2 SWAP1 POP JUMP JUMPDEST PUSH32 0x4E487B7100000000000000000000000000000000000000000000000000000000 PUSH1 0x0 MSTORE PUSH1 0x11 PUSH1 0x4 MSTORE PUSH1 0x24 PUSH1 0x0 REVERT JUMPDEST PUSH32 0x4E487B7100000000000000000000000000000000000000000000000000000000 PUSH1 0x0 MSTORE PUSH1 0x32 PUSH1 0x4 MSTORE PUSH1 0x24 PUSH1 0x0 REVERT JUMPDEST PUSH1 0x0 DUP1 REVERT JUMPDEST PUSH1 0x0 PUSH1 0x1F NOT PUSH1 0x1F DUP4 ADD AND SWAP1 POP SWAP2 SWAP1 POP JUMP JUMPDEST PUSH32 0x53696D706C65566F74696E673A2054686520766F7465722068617320616C7265 PUSH1 0x0 DUP3 ADD MSTORE PUSH32 0x61647920766F7465642E00000000000000000000000000000000000000000000 PUSH1 0x20 DUP3 ADD MSTORE POP JUMP JUMPDEST PUSH32 0x53696D706C65566F74696E673A204F6E6C79206368616972506572736F6E2063 PUSH1 0x0 DUP3 ADD MSTORE PUSH32 0x616E206769766520726967687420746F20766F74652E00000000000000000000 PUSH1 0x20 DUP3 ADD MSTORE POP JUMP JUMPDEST PUSH32 0x53696D706C65566F74696E673A2043616C6C657220646F6573206E6F74206861 PUSH1 0x0 DUP3 ADD MSTORE PUSH32 0x766520726967687420746F20766F74652E000000000000000000000000000000 PUSH1 0x20 DUP3 ADD MSTORE POP JUMP JUMPDEST PUSH32 0x53696D706C65566F74696E673A2053656C662D64656C65676174696F6E206973 PUSH1 0x0 DUP3 ADD MSTORE PUSH32 0x206E6F7420616C6C6F7765642E00000000000000000000000000000000000000 PUSH1 0x20 DUP3 ADD MSTORE POP JUMP JUMPDEST PUSH32 0x53696D706C65566F74696E673A204164647265737320616C7265616479206861 PUSH1 0x0 DUP3 ADD MSTORE PUSH32 0x7320726967687420746F20766F74652E00000000000000000000000000000000 PUSH1 0x20 DUP3 ADD MSTORE POP JUMP JUMPDEST PUSH32 0x53696D706C65566F74696E673A2050726F706F73616C20696E646578206F7574 PUSH1 0x0 DUP3 ADD MSTORE PUSH32 0x206F6620626F756E64732E000000000000000000000000000000000000000000 PUSH1 0x20 DUP3 ADD MSTORE POP JUMP JUMPDEST PUSH32 0x53696D706C65566F74696E673A2044656C65676174696F6E2074726163657320 PUSH1 0x0 DUP3 ADD MSTORE PUSH32 0x6261636B20746F2063616C6C65722E0000000000000000000000000000000000 PUSH1 0x20 DUP3 ADD MSTORE POP JUMP JUMPDEST PUSH2 0x13E1 DUP2 PUSH2 0x10AC JUMP JUMPDEST DUP2 EQ PUSH2 0x13EC JUMPI PUSH1 0x0 DUP1 REVERT JUMPDEST POP JUMP JUMPDEST PUSH2 0x13F8 DUP2 PUSH2 0x10F4 JUMP JUMPDEST DUP2 EQ PUSH2 0x1403 JUMPI PUSH1 0x0 DUP1 REVERT JUMPDEST POP JUMP INVALID LOG2 PUSH5 0x6970667358 0x22 SLT KECCAK256 MSIZE 0xD6 STATICCALL EXTCODESIZE SWAP14 SWAP10 0xD1 0xD3 0xBC 0xE4 0xA9 0xC7 0xD5 CREATE2 0xDF 0xA5 KECCAK256 EXTCODECOPY PUSH12 0x969AB5C05B86E7B0C0646DD4 ADDRESS PUSH5 0x736F6C6343 STOP ADDMOD SMOD STOP CALLER "
				},
				"gasEstimates": {
					"creation": {
						"codeDepositCost": "1036000",
						"executionCost": "infinite",
						"totalCost": "infinite"
					},
					"external": {
						"chairPerson()": "2558",
						"delegate(address)": "infinite",
						"getProposal(uint256)": "infinite",
						"giveRightToVote(address)": "29391",
						"proposalCount()": "2495",
						"vote(uint256)": "infinite",
						"voters(address)": "infinite"
					},
					"internal": {
						"bytes32ToString(bytes32)": "infinite",
						"stringToBytes32(string memory)": "infinite"
					}
				},
				"methodIdentifiers": {
					"chairPerson()": "d4d4b5ac",
					"delegate(address)": "5c19a95c",
					"getProposal(uint256)": "c7f758a8",
					"giveRightToVote(address)": "9e7b8d61",
					"proposalCount()": "da35c664",
					"vote(uint256)": "0121b93f",
					"voters(address)": "a3ec138d"
				}
			},
			"storageLayout": {
				"storage": [
					{
						"astId": 25,
						"contract": "contracts/SimpleVoting.sol:SimpleVoting",
						"label": "proposalCount",
						"offset": 0,
						"slot": "0",
						"type": "t_uint256"
					},
					{
						"astId": 27,
						"contract": "contracts/SimpleVoting.sol:SimpleVoting",
						"label": "chairPerson",
						"offset": 0,
						"slot": "1",
						"type": "t_address"
					},
					{
						"astId": 32,
						"contract": "contracts/SimpleVoting.sol:SimpleVoting",
						"label": "voters",
						"offset": 0,
						"slot": "2",
						"type": "t_mapping(t_address,t_struct(Voter)18_storage)"
					},
					{
						"astId": 36,
						"contract": "contracts/SimpleVoting.sol:SimpleVoting",
						"label": "proposals",
						"offset": 0,
						"slot": "3",
						"type": "t_array(t_struct(Proposal)23_storage)dyn_storage"
					}
				],
				"types": {
					"t_address": {
						"encoding": "inplace",
						"label": "address",
						"numberOfBytes": "20"
					},
					"t_array(t_struct(Proposal)23_storage)dyn_storage": {
						"base": "t_struct(Proposal)23_storage",
						"encoding": "dynamic_array",
						"label": "struct SimpleVoting.Proposal[]",
						"numberOfBytes": "32"
					},
					"t_bool": {
						"encoding": "inplace",
						"label": "bool",
						"numberOfBytes": "1"
					},
					"t_bytes32": {
						"encoding": "inplace",
						"label": "bytes32",
						"numberOfBytes": "32"
					},
					"t_mapping(t_address,t_struct(Voter)18_storage)": {
						"encoding": "mapping",
						"key": "t_address",
						"label": "mapping(address => struct SimpleVoting.Voter)",
						"numberOfBytes": "32",
						"value": "t_struct(Voter)18_storage"
					},
					"t_struct(Proposal)23_storage": {
						"encoding": "inplace",
						"label": "struct SimpleVoting.Proposal",
						"members": [
							{
								"astId": 20,
								"contract": "contracts/SimpleVoting.sol:SimpleVoting",
								"label": "name",
								"offset": 0,
								"slot": "0",
								"type": "t_bytes32"
							},
							{
								"astId": 22,
								"contract": "contracts/SimpleVoting.sol:SimpleVoting",
								"label": "voteCount",
								"offset": 0,
								"slot": "1",
								"type": "t_uint256"
							}
						],
						"numberOfBytes": "64"
					},
					"t_struct(Voter)18_storage": {
						"encoding": "inplace",
						"label": "struct SimpleVoting.Voter",
						"members": [
							{
								"astId": 11,
								"contract": "contracts/SimpleVoting.sol:SimpleVoting",
								"label": "weight",
								"offset": 0,
								"slot": "0",
								"type": "t_uint256"
							},
							{
								"astId": 13,
								"contract": "contracts/SimpleVoting.sol:SimpleVoting",
								"label": "voted",
								"offset": 0,
								"slot": "1",
								"type": "t_bool"
							},
							{
								"astId": 15,
								"contract": "contracts/SimpleVoting.sol:SimpleVoting",
								"label": "delegate",
								"offset": 1,
								"slot": "1",
								"type": "t_address"
							},
							{
								"astId": 17,
								"contract": "contracts/SimpleVoting.sol:SimpleVoting",
								"label": "vote",
								"offset": 0,
								"slot": "2",
								"type": "t_uint256"
							}
						],
						"numberOfBytes": "96"
					},
					"t_uint256": {
						"encoding": "inplace",
						"label": "uint256",
						"numberOfBytes": "32"
					}
				}
			},
			"userdoc": {
				"kind": "user",
				"methods": {},
				"version": 1
			}
		}
	}
}