{
	"contracts/SimpleVoting.sol": {
		"SimpleVoting": {
			"abi": [
				{
					"inputs": [
						{
							"internalType": "string[]",
							"name": "proposalNames",
							"type": "string[]"
						}
					],
					"stateMutability": "nonpayable",
					"type": "constructor"
				},
				{
					"anonymous": false,
					"inputs": [
						{
							"indexed": true,
							"internalType": "address",
							"name": "_from",
							"type": "address"
						},
						{
							"indexed": true,
							"internalType": "address",
							"name": "_to",
							"type": "address"
						}
					],
					"name": "DelegationSuccessful",
					"type": "event"
				},
				{
					"anonymous": false,
					"inputs": [
						{
							"indexed": true,
							"internalType": "uint256",
							"name": "_proposal",
							"type": "uint256"
						},
						{
							"indexed": true,
							"internalType": "address",
							"name": "_voter",
							"type": "address"
						},
						{
							"indexed": false,
							"internalType": "uint256",
							"name": "_votesAdded",
							"type": "uint256"
						}
					],
					"name": "VoteCasted",
					"type": "event"
				},
				{
					"anonymous": false,
					"inputs": [
						{
							"indexed": false,
							"internalType": "address",
							"name": "_chairPerson",
							"type": "address"
						},
						{
							"indexed": false,
							"internalType": "uint256",
							"name": "_proposalCount",
							"type": "uint256"
						}
					],
					"name": "VotingStarted",
					"type": "event"
				},
				{
					"inputs": [],
					"name": "chairPerson",
					"outputs": [
						{
							"internalType": "address",
							"name": "",
							"type": "address"
						}
					],
					"stateMutability": "view",
					"type": "function"
				},
				{
					"inputs": [
						{
							"internalType": "address",
							"name": "_to",
							"type": "address"
						}
					],
					"name": "delegate",
					"outputs": [],
					"stateMutability": "nonpayable",
					"type": "function"
				},
				{
					"inputs": [
						{
							"internalType": "address",
							"name": "_voter",
							"type": "address"
						}
					],
					"name": "giveRightToVote",
					"outputs": [],
					"stateMutability": "nonpayable",
					"type": "function"
				},
				{
					"inputs": [],
					"name": "proposalCount",
					"outputs": [
						{
							"internalType": "uint256",
							"name": "",
							"type": "uint256"
						}
					],
					"stateMutability": "view",
					"type": "function"
				},
				{
					"inputs": [
						{
							"internalType": "uint256",
							"name": "",
							"type": "uint256"
						}
					],
					"name": "proposals",
					"outputs": [
						{
							"internalType": "bytes32",
							"name": "name",
							"type": "bytes32"
						},
						{
							"internalType": "uint256",
							"name": "voteCount",
							"type": "uint256"
						}
					],
					"stateMutability": "view",
					"type": "function"
				},
				{
					"inputs": [
						{
							"internalType": "uint256",
							"name": "proposal",
							"type": "uint256"
						}
					],
					"name": "vote",
					"outputs": [],
					"stateMutability": "nonpayable",
					"type": "function"
				},
				{
					"inputs": [
						{
							"internalType": "address",
							"name": "",
							"type": "address"
						}
					],
					"name": "voters",
					"outputs": [
						{
							"internalType": "uint256",
							"name": "weight",
							"type": "uint256"
						},
						{
							"internalType": "bool",
							"name": "voted",
							"type": "bool"
						},
						{
							"internalType": "address",
							"name": "delegate",
							"type": "address"
						},
						{
							"internalType": "uint256",
							"name": "vote",
							"type": "uint256"
						}
					],
					"stateMutability": "view",
					"type": "function"
				},
				{
					"inputs": [],
					"name": "winnerName",
					"outputs": [
						{
							"internalType": "string",
							"name": "",
							"type": "string"
						}
					],
					"stateMutability": "view",
					"type": "function"
				},
				{
					"inputs": [],
					"name": "winningProposal",
					"outputs": [
						{
							"internalType": "uint256",
							"name": "winningProposal_",
							"type": "uint256"
						}
					],
					"stateMutability": "view",
					"type": "function"
				}
			],
			"devdoc": {
				"details": "Implements voting process along with vote delegation",
				"kind": "dev",
				"methods": {
					"constructor": {
						"details": "Create a new ballot to choose one of 'proposalNames'.",
						"params": {
							"proposalNames": "names of proposals"
						}
					},
					"delegate(address)": {
						"details": "Delegate your vote to the voter 'to'.",
						"params": {
							"_to": "address to which vote is delegated"
						}
					},
					"giveRightToVote(address)": {
						"details": "Give 'voter' the right to vote on this ballot. May only be called by 'chairPerson'.",
						"params": {
							"_voter": "address of voter"
						}
					},
					"vote(uint256)": {
						"details": "Give your vote (including votes delegated to you) to proposal 'proposals[proposal].name'.",
						"params": {
							"proposal": "index of proposal in the proposals array"
						}
					},
					"winnerName()": {
						"details": "Calls winningProposal() function to get the index of the winner contained in the proposals array and then",
						"returns": {
							"_0": "winnerName_ the name of the winner"
						}
					},
					"winningProposal()": {
						"details": "Computes the winning proposal taking all previous votes into account.",
						"returns": {
							"winningProposal_": "index of winning proposal in the proposals array"
						}
					}
				},
				"title": "Ballot",
				"version": 1
			},
			"evm": {
				"assembly": "    /* \"contracts/SimpleVoting.sol\":371:6586  contract SimpleVoting is Context {\r... */\n  mstore(0x40, 0x80)\n    /* \"contracts/SimpleVoting.sol\":1937:2540  constructor(string[] memory proposalNames) {\r... */\n  callvalue\n  dup1\n  iszero\n  tag_1\n  jumpi\n  0x00\n  dup1\n  revert\ntag_1:\n  pop\n  mload(0x40)\n  sub(codesize, bytecodeSize)\n  dup1\n  bytecodeSize\n  dup4\n  codecopy\n  dup2\n  dup2\n  add\n  0x40\n  mstore\n  dup2\n  add\n  swap1\n  tag_2\n  swap2\n  swap1\n  tag_3\n  jump\t// in\ntag_2:\n    /* \"contracts/SimpleVoting.sol\":2005:2017  _msgSender() */\n  tag_6\n    /* \"contracts/SimpleVoting.sol\":2005:2015  _msgSender */\n  shl(0x20, tag_7)\n    /* \"contracts/SimpleVoting.sol\":2005:2017  _msgSender() */\n  0x20\n  shr\n  jump\t// in\ntag_6:\n    /* \"contracts/SimpleVoting.sol\":1991:2002  chairPerson */\n  0x01\n  0x00\n    /* \"contracts/SimpleVoting.sol\":1991:2017  chairPerson = _msgSender() */\n  0x0100\n  exp\n  dup2\n  sload\n  dup2\n  0xffffffffffffffffffffffffffffffffffffffff\n  mul\n  not\n  and\n  swap1\n  dup4\n  0xffffffffffffffffffffffffffffffffffffffff\n  and\n  mul\n  or\n  swap1\n  sstore\n  pop\n    /* \"contracts/SimpleVoting.sol\":2057:2058  1 */\n  0x01\n    /* \"contracts/SimpleVoting.sol\":2028:2034  voters */\n  0x02\n    /* \"contracts/SimpleVoting.sol\":2028:2047  voters[chairPerson] */\n  0x00\n    /* \"contracts/SimpleVoting.sol\":2035:2046  chairPerson */\n  0x01\n  0x00\n  swap1\n  sload\n  swap1\n  0x0100\n  exp\n  swap1\n  div\n  0xffffffffffffffffffffffffffffffffffffffff\n  and\n    /* \"contracts/SimpleVoting.sol\":2028:2047  voters[chairPerson] */\n  0xffffffffffffffffffffffffffffffffffffffff\n  and\n  0xffffffffffffffffffffffffffffffffffffffff\n  and\n  dup2\n  mstore\n  0x20\n  add\n  swap1\n  dup2\n  mstore\n  0x20\n  add\n  0x00\n  keccak256\n    /* \"contracts/SimpleVoting.sol\":2028:2054  voters[chairPerson].weight */\n  0x00\n  add\n    /* \"contracts/SimpleVoting.sol\":2028:2058  voters[chairPerson].weight = 1 */\n  dup2\n  swap1\n  sstore\n  pop\n    /* \"contracts/SimpleVoting.sol\":2085:2098  proposalNames */\n  dup1\n    /* \"contracts/SimpleVoting.sol\":2085:2105  proposalNames.length */\n  mload\n    /* \"contracts/SimpleVoting.sol\":2069:2082  proposalCount */\n  0x00\n    /* \"contracts/SimpleVoting.sol\":2069:2105  proposalCount = proposalNames.length */\n  dup2\n  swap1\n  sstore\n  pop\n    /* \"contracts/SimpleVoting.sol\":2121:2127  uint i */\n  0x00\n    /* \"contracts/SimpleVoting.sol\":2116:2473  for (uint i = 0; i < proposalCount; i = i. add(1)) {\r... */\ntag_8:\n    /* \"contracts/SimpleVoting.sol\":2137:2150  proposalCount */\n  sload(0x00)\n    /* \"contracts/SimpleVoting.sol\":2133:2134  i */\n  dup2\n    /* \"contracts/SimpleVoting.sol\":2133:2150  i < proposalCount */\n  lt\n    /* \"contracts/SimpleVoting.sol\":2116:2473  for (uint i = 0; i < proposalCount; i = i. add(1)) {\r... */\n  iszero\n  tag_9\n  jumpi\n    /* \"contracts/SimpleVoting.sol\":2348:2372  Proposal memory proposal */\n  0x00\n    /* \"contracts/SimpleVoting.sol\":2375:2422  Proposal (stringToBytes32(proposalNames[i]), 0) */\n  mload(0x40)\n  dup1\n  0x40\n  add\n  0x40\n  mstore\n  dup1\n    /* \"contracts/SimpleVoting.sol\":2385:2418  stringToBytes32(proposalNames[i]) */\n  tag_11\n    /* \"contracts/SimpleVoting.sol\":2401:2414  proposalNames */\n  dup6\n    /* \"contracts/SimpleVoting.sol\":2415:2416  i */\n  dup6\n    /* \"contracts/SimpleVoting.sol\":2401:2417  proposalNames[i] */\n  dup2\n  mload\n  dup2\n  lt\n  tag_12\n  jumpi\n  tag_13\n  tag_14\n  jump\t// in\ntag_13:\ntag_12:\n  0x20\n  mul\n  0x20\n  add\n  add\n  mload\n    /* \"contracts/SimpleVoting.sol\":2385:2400  stringToBytes32 */\n  shl(0x20, tag_15)\n    /* \"contracts/SimpleVoting.sol\":2385:2418  stringToBytes32(proposalNames[i]) */\n  0x20\n  shr\n  jump\t// in\ntag_11:\n    /* \"contracts/SimpleVoting.sol\":2375:2422  Proposal (stringToBytes32(proposalNames[i]), 0) */\n  dup2\n  mstore\n  0x20\n  add\n    /* \"contracts/SimpleVoting.sol\":2420:2421  0 */\n  0x00\n    /* \"contracts/SimpleVoting.sol\":2375:2422  Proposal (stringToBytes32(proposalNames[i]), 0) */\n  dup2\n  mstore\n  pop\n    /* \"contracts/SimpleVoting.sol\":2348:2422  Proposal memory proposal = Proposal (stringToBytes32(proposalNames[i]), 0) */\n  swap1\n  pop\n    /* \"contracts/SimpleVoting.sol\":2437:2446  proposals */\n  0x03\n    /* \"contracts/SimpleVoting.sol\":2452:2460  proposal */\n  dup2\n    /* \"contracts/SimpleVoting.sol\":2437:2461  proposals.push(proposal) */\n  swap1\n  dup1\n  0x01\n  dup2\n  sload\n  add\n  dup1\n  dup3\n  sstore\n  dup1\n  swap2\n  pop\n  pop\n  0x01\n  swap1\n  sub\n  swap1\n  0x00\n  mstore\n  keccak256(0x00, 0x20)\n  swap1\n  0x02\n  mul\n  add\n  0x00\n  swap1\n  swap2\n  swap1\n  swap2\n  swap1\n  swap2\n  pop\n  0x00\n  dup3\n  add\n  mload\n  dup2\n  0x00\n  add\n  sstore\n  0x20\n  dup3\n  add\n  mload\n  dup2\n  0x01\n  add\n  sstore\n  pop\n  pop\n    /* \"contracts/SimpleVoting.sol\":2167:2473  {\r... */\n  pop\n    /* \"contracts/SimpleVoting.sol\":2156:2165  i. add(1) */\n  tag_17\n    /* \"contracts/SimpleVoting.sol\":2163:2164  1 */\n  0x01\n    /* \"contracts/SimpleVoting.sol\":2156:2157  i */\n  dup3\n    /* \"contracts/SimpleVoting.sol\":2156:2162  i. add */\n  or(tag_0_49, shl(0x20, tag_18))\n  swap1\n    /* \"contracts/SimpleVoting.sol\":2156:2165  i. add(1) */\n  swap2\n  swap1\n  0x20\n  shr\n  jump\t// in\ntag_17:\n    /* \"contracts/SimpleVoting.sol\":2152:2165  i = i. add(1) */\n  swap1\n  pop\n    /* \"contracts/SimpleVoting.sol\":2116:2473  for (uint i = 0; i < proposalCount; i = i. add(1)) {\r... */\n  jump(tag_8)\ntag_9:\n  pop\n    /* \"contracts/SimpleVoting.sol\":1937:2540  constructor(string[] memory proposalNames) {\r... */\n  pop\n    /* \"contracts/SimpleVoting.sol\":371:6586  contract SimpleVoting is Context {\r... */\n  jump(tag_19)\n    /* \"https://github.com/OpenZeppelin/openzeppelin-contracts/blob/master/contracts/utils/Context.sol\":640:736  function _msgSender() internal view virtual returns (address) {... */\ntag_7:\n    /* \"https://github.com/OpenZeppelin/openzeppelin-contracts/blob/master/contracts/utils/Context.sol\":693:700  address */\n  0x00\n    /* \"https://github.com/OpenZeppelin/openzeppelin-contracts/blob/master/contracts/utils/Context.sol\":719:729  msg.sender */\n  caller\n    /* \"https://github.com/OpenZeppelin/openzeppelin-contracts/blob/master/contracts/utils/Context.sol\":712:729  return msg.sender */\n  swap1\n  pop\n    /* \"https://github.com/OpenZeppelin/openzeppelin-contracts/blob/master/contracts/utils/Context.sol\":640:736  function _msgSender() internal view virtual returns (address) {... */\n  swap1\n  jump\t// out\n    /* \"contracts/SimpleVoting.sol\":6269:6425  function stringToBytes32 (string memory str) \r... */\ntag_15:\n    /* \"contracts/SimpleVoting.sol\":6354:6361  bytes32 */\n  0x00\n    /* \"contracts/SimpleVoting.sol\":6412:6415  str */\n  dup2\n    /* \"contracts/SimpleVoting.sol\":6395:6416  abi.encodePacked(str) */\n  add(0x20, mload(0x40))\n  tag_22\n  swap2\n  swap1\n  tag_23\n  jump\t// in\ntag_22:\n  mload(0x40)\n  0x20\n  dup2\n  dup4\n  sub\n  sub\n  dup2\n  mstore\n  swap1\n  0x40\n  mstore\n    /* \"contracts/SimpleVoting.sol\":6387:6417  bytes32(abi.encodePacked(str)) */\n  tag_24\n  swap1\n  tag_25\n  jump\t// in\ntag_24:\n    /* \"contracts/SimpleVoting.sol\":6380:6417  return bytes32(abi.encodePacked(str)) */\n  swap1\n  pop\n    /* \"contracts/SimpleVoting.sol\":6269:6425  function stringToBytes32 (string memory str) \r... */\n  swap2\n  swap1\n  pop\n  jump\t// out\n    /* \"https://github.com/OpenZeppelin/openzeppelin-contracts/blob/master/contracts/utils/math/SafeMath.sol\":2755:2851  function add(uint256 a, uint256 b) internal pure returns (uint256) {... */\ntag_18:\n    /* \"https://github.com/OpenZeppelin/openzeppelin-contracts/blob/master/contracts/utils/math/SafeMath.sol\":2813:2820  uint256 */\n  0x00\n    /* \"https://github.com/OpenZeppelin/openzeppelin-contracts/blob/master/contracts/utils/math/SafeMath.sol\":2843:2844  b */\n  dup2\n    /* \"https://github.com/OpenZeppelin/openzeppelin-contracts/blob/master/contracts/utils/math/SafeMath.sol\":2839:2840  a */\n  dup4\n    /* \"https://github.com/OpenZeppelin/openzeppelin-contracts/blob/master/contracts/utils/math/SafeMath.sol\":2839:2844  a + b */\n  tag_27\n  swap2\n  swap1\n  tag_28\n  jump\t// in\ntag_27:\n    /* \"https://github.com/OpenZeppelin/openzeppelin-contracts/blob/master/contracts/utils/math/SafeMath.sol\":2832:2844  return a + b */\n  swap1\n  pop\n    /* \"https://github.com/OpenZeppelin/openzeppelin-contracts/blob/master/contracts/utils/math/SafeMath.sol\":2755:2851  function add(uint256 a, uint256 b) internal pure returns (uint256) {... */\n  swap3\n  swap2\n  pop\n  pop\n  jump\t// out\n    /* \"#utility.yul\":23:995   */\ntag_30:\n    /* \"#utility.yul\":140:145   */\n  0x00\n    /* \"#utility.yul\":165:256   */\n  tag_32\n    /* \"#utility.yul\":181:255   */\n  tag_33\n    /* \"#utility.yul\":248:254   */\n  dup5\n    /* \"#utility.yul\":181:255   */\n  tag_34\n  jump\t// in\ntag_33:\n    /* \"#utility.yul\":165:256   */\n  tag_35\n  jump\t// in\ntag_32:\n    /* \"#utility.yul\":156:256   */\n  swap1\n  pop\n    /* \"#utility.yul\":276:281   */\n  dup1\n    /* \"#utility.yul\":305:311   */\n  dup4\n    /* \"#utility.yul\":298:303   */\n  dup3\n    /* \"#utility.yul\":291:312   */\n  mstore\n    /* \"#utility.yul\":339:343   */\n  0x20\n    /* \"#utility.yul\":332:337   */\n  dup3\n    /* \"#utility.yul\":328:344   */\n  add\n    /* \"#utility.yul\":321:344   */\n  swap1\n  pop\n    /* \"#utility.yul\":365:371   */\n  dup3\n    /* \"#utility.yul\":415:418   */\n  dup6\n    /* \"#utility.yul\":407:411   */\n  0x20\n    /* \"#utility.yul\":399:405   */\n  dup7\n    /* \"#utility.yul\":395:412   */\n  mul\n    /* \"#utility.yul\":390:393   */\n  dup3\n    /* \"#utility.yul\":386:413   */\n  add\n    /* \"#utility.yul\":383:419   */\n  gt\n    /* \"#utility.yul\":380:523   */\n  iszero\n  tag_36\n  jumpi\n    /* \"#utility.yul\":434:513   */\n  tag_37\n  tag_38\n  jump\t// in\ntag_37:\n    /* \"#utility.yul\":380:523   */\ntag_36:\n    /* \"#utility.yul\":547:548   */\n  0x00\n    /* \"#utility.yul\":532:989   */\ntag_39:\n    /* \"#utility.yul\":557:563   */\n  dup6\n    /* \"#utility.yul\":554:555   */\n  dup2\n    /* \"#utility.yul\":551:564   */\n  lt\n    /* \"#utility.yul\":532:989   */\n  iszero\n  tag_41\n  jumpi\n    /* \"#utility.yul\":632:635   */\n  dup2\n    /* \"#utility.yul\":626:636   */\n  mload\n    /* \"#utility.yul\":668:686   */\n  0xffffffffffffffff\n    /* \"#utility.yul\":655:666   */\n  dup2\n    /* \"#utility.yul\":652:687   */\n  gt\n    /* \"#utility.yul\":649:771   */\n  iszero\n  tag_42\n  jumpi\n    /* \"#utility.yul\":690:769   */\n  tag_43\n  tag_44\n  jump\t// in\ntag_43:\n    /* \"#utility.yul\":649:771   */\ntag_42:\n    /* \"#utility.yul\":814:825   */\n  dup1\n    /* \"#utility.yul\":806:812   */\n  dup7\n    /* \"#utility.yul\":802:826   */\n  add\n    /* \"#utility.yul\":852:910   */\n  tag_45\n    /* \"#utility.yul\":906:909   */\n  dup10\n    /* \"#utility.yul\":894:904   */\n  dup3\n    /* \"#utility.yul\":852:910   */\n  tag_46\n  jump\t// in\ntag_45:\n    /* \"#utility.yul\":847:850   */\n  dup6\n    /* \"#utility.yul\":840:911   */\n  mstore\n    /* \"#utility.yul\":940:944   */\n  0x20\n    /* \"#utility.yul\":935:938   */\n  dup6\n    /* \"#utility.yul\":931:945   */\n  add\n    /* \"#utility.yul\":924:945   */\n  swap5\n  pop\n    /* \"#utility.yul\":974:978   */\n  0x20\n    /* \"#utility.yul\":969:972   */\n  dup5\n    /* \"#utility.yul\":965:979   */\n  add\n    /* \"#utility.yul\":958:979   */\n  swap4\n  pop\n    /* \"#utility.yul\":592:989   */\n  pop\n  pop\n    /* \"#utility.yul\":579:580   */\n  0x01\n    /* \"#utility.yul\":576:577   */\n  dup2\n    /* \"#utility.yul\":572:581   */\n  add\n    /* \"#utility.yul\":567:581   */\n  swap1\n  pop\n    /* \"#utility.yul\":532:989   */\n  jump(tag_39)\ntag_41:\n    /* \"#utility.yul\":536:550   */\n  pop\n    /* \"#utility.yul\":146:995   */\n  pop\n  pop\n    /* \"#utility.yul\":23:995   */\n  swap4\n  swap3\n  pop\n  pop\n  pop\n  jump\t// out\n    /* \"#utility.yul\":1001:1422   */\ntag_47:\n    /* \"#utility.yul\":1090:1095   */\n  0x00\n    /* \"#utility.yul\":1115:1181   */\n  tag_49\n    /* \"#utility.yul\":1131:1180   */\n  tag_50\n    /* \"#utility.yul\":1173:1179   */\n  dup5\n    /* \"#utility.yul\":1131:1180   */\n  tag_51\n  jump\t// in\ntag_50:\n    /* \"#utility.yul\":1115:1181   */\n  tag_35\n  jump\t// in\ntag_49:\n    /* \"#utility.yul\":1106:1181   */\n  swap1\n  pop\n    /* \"#utility.yul\":1204:1210   */\n  dup3\n    /* \"#utility.yul\":1197:1202   */\n  dup2\n    /* \"#utility.yul\":1190:1211   */\n  mstore\n    /* \"#utility.yul\":1242:1246   */\n  0x20\n    /* \"#utility.yul\":1235:1240   */\n  dup2\n    /* \"#utility.yul\":1231:1247   */\n  add\n    /* \"#utility.yul\":1280:1283   */\n  dup5\n    /* \"#utility.yul\":1271:1277   */\n  dup5\n    /* \"#utility.yul\":1266:1269   */\n  dup5\n    /* \"#utility.yul\":1262:1278   */\n  add\n    /* \"#utility.yul\":1259:1284   */\n  gt\n    /* \"#utility.yul\":1256:1368   */\n  iszero\n  tag_52\n  jumpi\n    /* \"#utility.yul\":1287:1366   */\n  tag_53\n  tag_54\n  jump\t// in\ntag_53:\n    /* \"#utility.yul\":1256:1368   */\ntag_52:\n    /* \"#utility.yul\":1377:1416   */\n  tag_55\n    /* \"#utility.yul\":1409:1415   */\n  dup5\n    /* \"#utility.yul\":1404:1407   */\n  dup3\n    /* \"#utility.yul\":1399:1402   */\n  dup6\n    /* \"#utility.yul\":1377:1416   */\n  tag_56\n  jump\t// in\ntag_55:\n    /* \"#utility.yul\":1096:1422   */\n  pop\n    /* \"#utility.yul\":1001:1422   */\n  swap4\n  swap3\n  pop\n  pop\n  pop\n  jump\t// out\n    /* \"#utility.yul\":1444:1849   */\ntag_57:\n    /* \"#utility.yul\":1536:1541   */\n  0x00\n    /* \"#utility.yul\":1585:1588   */\n  dup3\n    /* \"#utility.yul\":1578:1582   */\n  0x1f\n    /* \"#utility.yul\":1570:1576   */\n  dup4\n    /* \"#utility.yul\":1566:1583   */\n  add\n    /* \"#utility.yul\":1562:1589   */\n  slt\n    /* \"#utility.yul\":1552:1674   */\n  tag_59\n  jumpi\n    /* \"#utility.yul\":1593:1672   */\n  tag_60\n  tag_44\n  jump\t// in\ntag_60:\n    /* \"#utility.yul\":1552:1674   */\ntag_59:\n    /* \"#utility.yul\":1703:1709   */\n  dup2\n    /* \"#utility.yul\":1697:1710   */\n  mload\n    /* \"#utility.yul\":1728:1843   */\n  tag_61\n    /* \"#utility.yul\":1839:1842   */\n  dup5\n    /* \"#utility.yul\":1831:1837   */\n  dup3\n    /* \"#utility.yul\":1824:1828   */\n  0x20\n    /* \"#utility.yul\":1816:1822   */\n  dup7\n    /* \"#utility.yul\":1812:1829   */\n  add\n    /* \"#utility.yul\":1728:1843   */\n  tag_30\n  jump\t// in\ntag_61:\n    /* \"#utility.yul\":1719:1843   */\n  swap2\n  pop\n    /* \"#utility.yul\":1542:1849   */\n  pop\n    /* \"#utility.yul\":1444:1849   */\n  swap3\n  swap2\n  pop\n  pop\n  jump\t// out\n    /* \"#utility.yul\":1869:2224   */\ntag_46:\n    /* \"#utility.yul\":1936:1941   */\n  0x00\n    /* \"#utility.yul\":1985:1988   */\n  dup3\n    /* \"#utility.yul\":1978:1982   */\n  0x1f\n    /* \"#utility.yul\":1970:1976   */\n  dup4\n    /* \"#utility.yul\":1966:1983   */\n  add\n    /* \"#utility.yul\":1962:1989   */\n  slt\n    /* \"#utility.yul\":1952:2074   */\n  tag_63\n  jumpi\n    /* \"#utility.yul\":1993:2072   */\n  tag_64\n  tag_44\n  jump\t// in\ntag_64:\n    /* \"#utility.yul\":1952:2074   */\ntag_63:\n    /* \"#utility.yul\":2103:2109   */\n  dup2\n    /* \"#utility.yul\":2097:2110   */\n  mload\n    /* \"#utility.yul\":2128:2218   */\n  tag_65\n    /* \"#utility.yul\":2214:2217   */\n  dup5\n    /* \"#utility.yul\":2206:2212   */\n  dup3\n    /* \"#utility.yul\":2199:2203   */\n  0x20\n    /* \"#utility.yul\":2191:2197   */\n  dup7\n    /* \"#utility.yul\":2187:2204   */\n  add\n    /* \"#utility.yul\":2128:2218   */\n  tag_47\n  jump\t// in\ntag_65:\n    /* \"#utility.yul\":2119:2218   */\n  swap2\n  pop\n    /* \"#utility.yul\":1942:2224   */\n  pop\n    /* \"#utility.yul\":1869:2224   */\n  swap3\n  swap2\n  pop\n  pop\n  jump\t// out\n    /* \"#utility.yul\":2230:2804   */\ntag_3:\n    /* \"#utility.yul\":2335:2341   */\n  0x00\n    /* \"#utility.yul\":2384:2386   */\n  0x20\n    /* \"#utility.yul\":2372:2381   */\n  dup3\n    /* \"#utility.yul\":2363:2370   */\n  dup5\n    /* \"#utility.yul\":2359:2382   */\n  sub\n    /* \"#utility.yul\":2355:2387   */\n  slt\n    /* \"#utility.yul\":2352:2471   */\n  iszero\n  tag_67\n  jumpi\n    /* \"#utility.yul\":2390:2469   */\n  tag_68\n  tag_69\n  jump\t// in\ntag_68:\n    /* \"#utility.yul\":2352:2471   */\ntag_67:\n    /* \"#utility.yul\":2531:2532   */\n  0x00\n    /* \"#utility.yul\":2520:2529   */\n  dup3\n    /* \"#utility.yul\":2516:2533   */\n  add\n    /* \"#utility.yul\":2510:2534   */\n  mload\n    /* \"#utility.yul\":2561:2579   */\n  0xffffffffffffffff\n    /* \"#utility.yul\":2553:2559   */\n  dup2\n    /* \"#utility.yul\":2550:2580   */\n  gt\n    /* \"#utility.yul\":2547:2664   */\n  iszero\n  tag_70\n  jumpi\n    /* \"#utility.yul\":2583:2662   */\n  tag_71\n  tag_72\n  jump\t// in\ntag_71:\n    /* \"#utility.yul\":2547:2664   */\ntag_70:\n    /* \"#utility.yul\":2688:2787   */\n  tag_73\n    /* \"#utility.yul\":2779:2786   */\n  dup5\n    /* \"#utility.yul\":2770:2776   */\n  dup3\n    /* \"#utility.yul\":2759:2768   */\n  dup6\n    /* \"#utility.yul\":2755:2777   */\n  add\n    /* \"#utility.yul\":2688:2787   */\n  tag_57\n  jump\t// in\ntag_73:\n    /* \"#utility.yul\":2678:2787   */\n  swap2\n  pop\n    /* \"#utility.yul\":2481:2797   */\n  pop\n    /* \"#utility.yul\":2230:2804   */\n  swap3\n  swap2\n  pop\n  pop\n  jump\t// out\n    /* \"#utility.yul\":2810:3187   */\ntag_74:\n    /* \"#utility.yul\":2916:2919   */\n  0x00\n    /* \"#utility.yul\":2944:2983   */\n  tag_76\n    /* \"#utility.yul\":2977:2982   */\n  dup3\n    /* \"#utility.yul\":2944:2983   */\n  tag_77\n  jump\t// in\ntag_76:\n    /* \"#utility.yul\":2999:3088   */\n  tag_78\n    /* \"#utility.yul\":3081:3087   */\n  dup2\n    /* \"#utility.yul\":3076:3079   */\n  dup6\n    /* \"#utility.yul\":2999:3088   */\n  tag_79\n  jump\t// in\ntag_78:\n    /* \"#utility.yul\":2992:3088   */\n  swap4\n  pop\n    /* \"#utility.yul\":3097:3149   */\n  tag_80\n    /* \"#utility.yul\":3142:3148   */\n  dup2\n    /* \"#utility.yul\":3137:3140   */\n  dup6\n    /* \"#utility.yul\":3130:3134   */\n  0x20\n    /* \"#utility.yul\":3123:3128   */\n  dup7\n    /* \"#utility.yul\":3119:3135   */\n  add\n    /* \"#utility.yul\":3097:3149   */\n  tag_56\n  jump\t// in\ntag_80:\n    /* \"#utility.yul\":3174:3180   */\n  dup1\n    /* \"#utility.yul\":3169:3172   */\n  dup5\n    /* \"#utility.yul\":3165:3181   */\n  add\n    /* \"#utility.yul\":3158:3181   */\n  swap2\n  pop\n    /* \"#utility.yul\":2920:3187   */\n  pop\n    /* \"#utility.yul\":2810:3187   */\n  swap3\n  swap2\n  pop\n  pop\n  jump\t// out\n    /* \"#utility.yul\":3193:3468   */\ntag_23:\n    /* \"#utility.yul\":3325:3328   */\n  0x00\n    /* \"#utility.yul\":3347:3442   */\n  tag_82\n    /* \"#utility.yul\":3438:3441   */\n  dup3\n    /* \"#utility.yul\":3429:3435   */\n  dup5\n    /* \"#utility.yul\":3347:3442   */\n  tag_74\n  jump\t// in\ntag_82:\n    /* \"#utility.yul\":3340:3442   */\n  swap2\n  pop\n    /* \"#utility.yul\":3459:3462   */\n  dup2\n    /* \"#utility.yul\":3452:3462   */\n  swap1\n  pop\n    /* \"#utility.yul\":3193:3468   */\n  swap3\n  swap2\n  pop\n  pop\n  jump\t// out\n    /* \"#utility.yul\":3474:3603   */\ntag_35:\n    /* \"#utility.yul\":3508:3514   */\n  0x00\n    /* \"#utility.yul\":3535:3555   */\n  tag_84\n  tag_85\n  jump\t// in\ntag_84:\n    /* \"#utility.yul\":3525:3555   */\n  swap1\n  pop\n    /* \"#utility.yul\":3564:3597   */\n  tag_86\n    /* \"#utility.yul\":3592:3596   */\n  dup3\n    /* \"#utility.yul\":3584:3590   */\n  dup3\n    /* \"#utility.yul\":3564:3597   */\n  tag_87\n  jump\t// in\ntag_86:\n    /* \"#utility.yul\":3474:3603   */\n  swap2\n  swap1\n  pop\n  jump\t// out\n    /* \"#utility.yul\":3609:3684   */\ntag_85:\n    /* \"#utility.yul\":3642:3648   */\n  0x00\n    /* \"#utility.yul\":3675:3677   */\n  0x40\n    /* \"#utility.yul\":3669:3678   */\n  mload\n    /* \"#utility.yul\":3659:3678   */\n  swap1\n  pop\n    /* \"#utility.yul\":3609:3684   */\n  swap1\n  jump\t// out\n    /* \"#utility.yul\":3690:4011   */\ntag_34:\n    /* \"#utility.yul\":3777:3781   */\n  0x00\n    /* \"#utility.yul\":3867:3885   */\n  0xffffffffffffffff\n    /* \"#utility.yul\":3859:3865   */\n  dup3\n    /* \"#utility.yul\":3856:3886   */\n  gt\n    /* \"#utility.yul\":3853:3909   */\n  iszero\n  tag_90\n  jumpi\n    /* \"#utility.yul\":3889:3907   */\n  tag_91\n  tag_92\n  jump\t// in\ntag_91:\n    /* \"#utility.yul\":3853:3909   */\ntag_90:\n    /* \"#utility.yul\":3939:3943   */\n  0x20\n    /* \"#utility.yul\":3931:3937   */\n  dup3\n    /* \"#utility.yul\":3927:3944   */\n  mul\n    /* \"#utility.yul\":3919:3944   */\n  swap1\n  pop\n    /* \"#utility.yul\":3999:4003   */\n  0x20\n    /* \"#utility.yul\":3993:3997   */\n  dup2\n    /* \"#utility.yul\":3989:4004   */\n  add\n    /* \"#utility.yul\":3981:4004   */\n  swap1\n  pop\n    /* \"#utility.yul\":3690:4011   */\n  swap2\n  swap1\n  pop\n  jump\t// out\n    /* \"#utility.yul\":4017:4325   */\ntag_51:\n    /* \"#utility.yul\":4079:4083   */\n  0x00\n    /* \"#utility.yul\":4169:4187   */\n  0xffffffffffffffff\n    /* \"#utility.yul\":4161:4167   */\n  dup3\n    /* \"#utility.yul\":4158:4188   */\n  gt\n    /* \"#utility.yul\":4155:4211   */\n  iszero\n  tag_94\n  jumpi\n    /* \"#utility.yul\":4191:4209   */\n  tag_95\n  tag_92\n  jump\t// in\ntag_95:\n    /* \"#utility.yul\":4155:4211   */\ntag_94:\n    /* \"#utility.yul\":4229:4258   */\n  tag_96\n    /* \"#utility.yul\":4251:4257   */\n  dup3\n    /* \"#utility.yul\":4229:4258   */\n  tag_97\n  jump\t// in\ntag_96:\n    /* \"#utility.yul\":4221:4258   */\n  swap1\n  pop\n    /* \"#utility.yul\":4313:4317   */\n  0x20\n    /* \"#utility.yul\":4307:4311   */\n  dup2\n    /* \"#utility.yul\":4303:4318   */\n  add\n    /* \"#utility.yul\":4295:4318   */\n  swap1\n  pop\n    /* \"#utility.yul\":4017:4325   */\n  swap2\n  swap1\n  pop\n  jump\t// out\n    /* \"#utility.yul\":4331:4447   */\ntag_98:\n    /* \"#utility.yul\":4382:4386   */\n  0x00\n    /* \"#utility.yul\":4405:4408   */\n  dup2\n    /* \"#utility.yul\":4397:4408   */\n  swap1\n  pop\n    /* \"#utility.yul\":4435:4439   */\n  0x20\n    /* \"#utility.yul\":4430:4433   */\n  dup3\n    /* \"#utility.yul\":4426:4440   */\n  add\n    /* \"#utility.yul\":4418:4440   */\n  swap1\n  pop\n    /* \"#utility.yul\":4331:4447   */\n  swap2\n  swap1\n  pop\n  jump\t// out\n    /* \"#utility.yul\":4453:4551   */\ntag_100:\n    /* \"#utility.yul\":4504:4510   */\n  0x00\n    /* \"#utility.yul\":4538:4543   */\n  dup2\n    /* \"#utility.yul\":4532:4544   */\n  mload\n    /* \"#utility.yul\":4522:4544   */\n  swap1\n  pop\n    /* \"#utility.yul\":4453:4551   */\n  swap2\n  swap1\n  pop\n  jump\t// out\n    /* \"#utility.yul\":4557:4656   */\ntag_77:\n    /* \"#utility.yul\":4609:4615   */\n  0x00\n    /* \"#utility.yul\":4643:4648   */\n  dup2\n    /* \"#utility.yul\":4637:4649   */\n  mload\n    /* \"#utility.yul\":4627:4649   */\n  swap1\n  pop\n    /* \"#utility.yul\":4557:4656   */\n  swap2\n  swap1\n  pop\n  jump\t// out\n    /* \"#utility.yul\":4662:4810   */\ntag_79:\n    /* \"#utility.yul\":4764:4775   */\n  0x00\n    /* \"#utility.yul\":4801:4804   */\n  dup2\n    /* \"#utility.yul\":4786:4804   */\n  swap1\n  pop\n    /* \"#utility.yul\":4662:4810   */\n  swap3\n  swap2\n  pop\n  pop\n  jump\t// out\n    /* \"#utility.yul\":4816:5121   */\ntag_28:\n    /* \"#utility.yul\":4856:4859   */\n  0x00\n    /* \"#utility.yul\":4875:4895   */\n  tag_105\n    /* \"#utility.yul\":4893:4894   */\n  dup3\n    /* \"#utility.yul\":4875:4895   */\n  tag_106\n  jump\t// in\ntag_105:\n    /* \"#utility.yul\":4870:4895   */\n  swap2\n  pop\n    /* \"#utility.yul\":4909:4929   */\n  tag_107\n    /* \"#utility.yul\":4927:4928   */\n  dup4\n    /* \"#utility.yul\":4909:4929   */\n  tag_106\n  jump\t// in\ntag_107:\n    /* \"#utility.yul\":4904:4929   */\n  swap3\n  pop\n    /* \"#utility.yul\":5063:5064   */\n  dup3\n    /* \"#utility.yul\":4995:5061   */\n  0xffffffffffffffffffffffffffffffffffffffffffffffffffffffffffffffff\n    /* \"#utility.yul\":4991:5065   */\n  sub\n    /* \"#utility.yul\":4988:4989   */\n  dup3\n    /* \"#utility.yul\":4985:5066   */\n  gt\n    /* \"#utility.yul\":4982:5089   */\n  iszero\n  tag_108\n  jumpi\n    /* \"#utility.yul\":5069:5087   */\n  tag_109\n  tag_110\n  jump\t// in\ntag_109:\n    /* \"#utility.yul\":4982:5089   */\ntag_108:\n    /* \"#utility.yul\":5113:5114   */\n  dup3\n    /* \"#utility.yul\":5110:5111   */\n  dup3\n    /* \"#utility.yul\":5106:5115   */\n  add\n    /* \"#utility.yul\":5099:5115   */\n  swap1\n  pop\n    /* \"#utility.yul\":4816:5121   */\n  swap3\n  swap2\n  pop\n  pop\n  jump\t// out\n    /* \"#utility.yul\":5127:5204   */\ntag_111:\n    /* \"#utility.yul\":5164:5171   */\n  0x00\n    /* \"#utility.yul\":5193:5198   */\n  dup2\n    /* \"#utility.yul\":5182:5198   */\n  swap1\n  pop\n    /* \"#utility.yul\":5127:5204   */\n  swap2\n  swap1\n  pop\n  jump\t// out\n    /* \"#utility.yul\":5210:5287   */\ntag_106:\n    /* \"#utility.yul\":5247:5254   */\n  0x00\n    /* \"#utility.yul\":5276:5281   */\n  dup2\n    /* \"#utility.yul\":5265:5281   */\n  swap1\n  pop\n    /* \"#utility.yul\":5210:5287   */\n  swap2\n  swap1\n  pop\n  jump\t// out\n    /* \"#utility.yul\":5293:5887   */\ntag_25:\n    /* \"#utility.yul\":5377:5382   */\n  0x00\n    /* \"#utility.yul\":5408:5446   */\n  tag_115\n    /* \"#utility.yul\":5440:5445   */\n  dup3\n    /* \"#utility.yul\":5408:5446   */\n  tag_100\n  jump\t// in\ntag_115:\n    /* \"#utility.yul\":5471:5476   */\n  dup3\n    /* \"#utility.yul\":5498:5538   */\n  tag_116\n    /* \"#utility.yul\":5532:5537   */\n  dup5\n    /* \"#utility.yul\":5498:5538   */\n  tag_98\n  jump\t// in\ntag_116:\n    /* \"#utility.yul\":5486:5538   */\n  swap1\n  pop\n    /* \"#utility.yul\":5557:5592   */\n  tag_117\n    /* \"#utility.yul\":5583:5591   */\n  dup2\n    /* \"#utility.yul\":5557:5592   */\n  tag_118\n  jump\t// in\ntag_117:\n    /* \"#utility.yul\":5548:5592   */\n  swap3\n  pop\n    /* \"#utility.yul\":5616:5618   */\n  0x20\n    /* \"#utility.yul\":5608:5614   */\n  dup3\n    /* \"#utility.yul\":5605:5619   */\n  lt\n    /* \"#utility.yul\":5602:5880   */\n  iszero\n  tag_119\n  jumpi\n    /* \"#utility.yul\":5687:5856   */\n  tag_120\n    /* \"#utility.yul\":5772:5838   */\n  0xffffffffffffffffffffffffffffffffffffffffffffffffffffffffffffffff\n    /* \"#utility.yul\":5742:5748   */\n  dup4\n    /* \"#utility.yul\":5738:5740   */\n  0x20\n    /* \"#utility.yul\":5734:5749   */\n  sub\n    /* \"#utility.yul\":5731:5732   */\n  0x08\n    /* \"#utility.yul\":5727:5750   */\n  mul\n    /* \"#utility.yul\":5687:5856   */\n  tag_121\n  jump\t// in\ntag_120:\n    /* \"#utility.yul\":5664:5669   */\n  dup4\n    /* \"#utility.yul\":5643:5870   */\n  and\n    /* \"#utility.yul\":5634:5870   */\n  swap3\n  pop\n    /* \"#utility.yul\":5602:5880   */\ntag_119:\n    /* \"#utility.yul\":5383:5887   */\n  pop\n  pop\n    /* \"#utility.yul\":5293:5887   */\n  swap2\n  swap1\n  pop\n  jump\t// out\n    /* \"#utility.yul\":5893:6200   */\ntag_56:\n    /* \"#utility.yul\":5961:5962   */\n  0x00\n    /* \"#utility.yul\":5971:6084   */\ntag_123:\n    /* \"#utility.yul\":5985:5991   */\n  dup4\n    /* \"#utility.yul\":5982:5983   */\n  dup2\n    /* \"#utility.yul\":5979:5992   */\n  lt\n    /* \"#utility.yul\":5971:6084   */\n  iszero\n  tag_125\n  jumpi\n    /* \"#utility.yul\":6070:6071   */\n  dup1\n    /* \"#utility.yul\":6065:6068   */\n  dup3\n    /* \"#utility.yul\":6061:6072   */\n  add\n    /* \"#utility.yul\":6055:6073   */\n  mload\n    /* \"#utility.yul\":6051:6052   */\n  dup2\n    /* \"#utility.yul\":6046:6049   */\n  dup5\n    /* \"#utility.yul\":6042:6053   */\n  add\n    /* \"#utility.yul\":6035:6074   */\n  mstore\n    /* \"#utility.yul\":6007:6009   */\n  0x20\n    /* \"#utility.yul\":6004:6005   */\n  dup2\n    /* \"#utility.yul\":6000:6010   */\n  add\n    /* \"#utility.yul\":5995:6010   */\n  swap1\n  pop\n    /* \"#utility.yul\":5971:6084   */\n  jump(tag_123)\ntag_125:\n    /* \"#utility.yul\":6102:6108   */\n  dup4\n    /* \"#utility.yul\":6099:6100   */\n  dup2\n    /* \"#utility.yul\":6096:6109   */\n  gt\n    /* \"#utility.yul\":6093:6194   */\n  iszero\n  tag_126\n  jumpi\n    /* \"#utility.yul\":6182:6183   */\n  0x00\n    /* \"#utility.yul\":6173:6179   */\n  dup5\n    /* \"#utility.yul\":6168:6171   */\n  dup5\n    /* \"#utility.yul\":6164:6180   */\n  add\n    /* \"#utility.yul\":6157:6184   */\n  mstore\n    /* \"#utility.yul\":6093:6194   */\ntag_126:\n    /* \"#utility.yul\":5942:6200   */\n  pop\n    /* \"#utility.yul\":5893:6200   */\n  pop\n  pop\n  pop\n  jump\t// out\n    /* \"#utility.yul\":6206:6487   */\ntag_87:\n    /* \"#utility.yul\":6289:6316   */\n  tag_128\n    /* \"#utility.yul\":6311:6315   */\n  dup3\n    /* \"#utility.yul\":6289:6316   */\n  tag_97\n  jump\t// in\ntag_128:\n    /* \"#utility.yul\":6281:6287   */\n  dup2\n    /* \"#utility.yul\":6277:6317   */\n  add\n    /* \"#utility.yul\":6419:6425   */\n  dup2\n    /* \"#utility.yul\":6407:6417   */\n  dup2\n    /* \"#utility.yul\":6404:6426   */\n  lt\n    /* \"#utility.yul\":6383:6401   */\n  0xffffffffffffffff\n    /* \"#utility.yul\":6371:6381   */\n  dup3\n    /* \"#utility.yul\":6368:6402   */\n  gt\n    /* \"#utility.yul\":6365:6427   */\n  or\n    /* \"#utility.yul\":6362:6450   */\n  iszero\n  tag_129\n  jumpi\n    /* \"#utility.yul\":6430:6448   */\n  tag_130\n  tag_92\n  jump\t// in\ntag_130:\n    /* \"#utility.yul\":6362:6450   */\ntag_129:\n    /* \"#utility.yul\":6470:6480   */\n  dup1\n    /* \"#utility.yul\":6466:6468   */\n  0x40\n    /* \"#utility.yul\":6459:6481   */\n  mstore\n    /* \"#utility.yul\":6249:6487   */\n  pop\n    /* \"#utility.yul\":6206:6487   */\n  pop\n  pop\n  jump\t// out\n    /* \"#utility.yul\":6493:6673   */\ntag_110:\n    /* \"#utility.yul\":6541:6618   */\n  0x4e487b7100000000000000000000000000000000000000000000000000000000\n    /* \"#utility.yul\":6538:6539   */\n  0x00\n    /* \"#utility.yul\":6531:6619   */\n  mstore\n    /* \"#utility.yul\":6638:6642   */\n  0x11\n    /* \"#utility.yul\":6635:6636   */\n  0x04\n    /* \"#utility.yul\":6628:6643   */\n  mstore\n    /* \"#utility.yul\":6662:6666   */\n  0x24\n    /* \"#utility.yul\":6659:6660   */\n  0x00\n    /* \"#utility.yul\":6652:6667   */\n  revert\n    /* \"#utility.yul\":6679:6859   */\ntag_14:\n    /* \"#utility.yul\":6727:6804   */\n  0x4e487b7100000000000000000000000000000000000000000000000000000000\n    /* \"#utility.yul\":6724:6725   */\n  0x00\n    /* \"#utility.yul\":6717:6805   */\n  mstore\n    /* \"#utility.yul\":6824:6828   */\n  0x32\n    /* \"#utility.yul\":6821:6822   */\n  0x04\n    /* \"#utility.yul\":6814:6829   */\n  mstore\n    /* \"#utility.yul\":6848:6852   */\n  0x24\n    /* \"#utility.yul\":6845:6846   */\n  0x00\n    /* \"#utility.yul\":6838:6853   */\n  revert\n    /* \"#utility.yul\":6865:7045   */\ntag_92:\n    /* \"#utility.yul\":6913:6990   */\n  0x4e487b7100000000000000000000000000000000000000000000000000000000\n    /* \"#utility.yul\":6910:6911   */\n  0x00\n    /* \"#utility.yul\":6903:6991   */\n  mstore\n    /* \"#utility.yul\":7010:7014   */\n  0x41\n    /* \"#utility.yul\":7007:7008   */\n  0x04\n    /* \"#utility.yul\":7000:7015   */\n  mstore\n    /* \"#utility.yul\":7034:7038   */\n  0x24\n    /* \"#utility.yul\":7031:7032   */\n  0x00\n    /* \"#utility.yul\":7024:7039   */\n  revert\n    /* \"#utility.yul\":7051:7205   */\ntag_118:\n    /* \"#utility.yul\":7094:7105   */\n  0x00\n    /* \"#utility.yul\":7130:7159   */\n  tag_135\n    /* \"#utility.yul\":7154:7157   */\n  dup3\n    /* \"#utility.yul\":7148:7158   */\n  mload\n    /* \"#utility.yul\":7130:7159   */\n  tag_111\n  jump\t// in\ntag_135:\n    /* \"#utility.yul\":7193:7198   */\n  dup1\n    /* \"#utility.yul\":7169:7198   */\n  swap2\n  pop\n    /* \"#utility.yul\":7106:7205   */\n  pop\n    /* \"#utility.yul\":7051:7205   */\n  swap2\n  swap1\n  pop\n  jump\t// out\n    /* \"#utility.yul\":7211:7328   */\ntag_44:\n    /* \"#utility.yul\":7320:7321   */\n  0x00\n    /* \"#utility.yul\":7317:7318   */\n  dup1\n    /* \"#utility.yul\":7310:7322   */\n  revert\n    /* \"#utility.yul\":7334:7451   */\ntag_38:\n    /* \"#utility.yul\":7443:7444   */\n  0x00\n    /* \"#utility.yul\":7440:7441   */\n  dup1\n    /* \"#utility.yul\":7433:7445   */\n  revert\n    /* \"#utility.yul\":7457:7574   */\ntag_54:\n    /* \"#utility.yul\":7566:7567   */\n  0x00\n    /* \"#utility.yul\":7563:7564   */\n  dup1\n    /* \"#utility.yul\":7556:7568   */\n  revert\n    /* \"#utility.yul\":7580:7697   */\ntag_72:\n    /* \"#utility.yul\":7689:7690   */\n  0x00\n    /* \"#utility.yul\":7686:7687   */\n  dup1\n    /* \"#utility.yul\":7679:7691   */\n  revert\n    /* \"#utility.yul\":7703:7820   */\ntag_69:\n    /* \"#utility.yul\":7812:7813   */\n  0x00\n    /* \"#utility.yul\":7809:7810   */\n  dup1\n    /* \"#utility.yul\":7802:7814   */\n  revert\n    /* \"#utility.yul\":7826:7928   */\ntag_97:\n    /* \"#utility.yul\":7867:7873   */\n  0x00\n    /* \"#utility.yul\":7918:7920   */\n  0x1f\n    /* \"#utility.yul\":7914:7921   */\n  not\n    /* \"#utility.yul\":7909:7911   */\n  0x1f\n    /* \"#utility.yul\":7902:7907   */\n  dup4\n    /* \"#utility.yul\":7898:7912   */\n  add\n    /* \"#utility.yul\":7894:7922   */\n  and\n    /* \"#utility.yul\":7884:7922   */\n  swap1\n  pop\n    /* \"#utility.yul\":7826:7928   */\n  swap2\n  swap1\n  pop\n  jump\t// out\n    /* \"#utility.yul\":7934:8041   */\ntag_121:\n    /* \"#utility.yul\":7978:7986   */\n  0x00\n    /* \"#utility.yul\":8028:8033   */\n  dup3\n    /* \"#utility.yul\":8022:8026   */\n  dup3\n    /* \"#utility.yul\":8018:8034   */\n  shl\n    /* \"#utility.yul\":7997:8034   */\n  swap1\n  pop\n    /* \"#utility.yul\":7934:8041   */\n  swap3\n  swap2\n  pop\n  pop\n  jump\t// out\n    /* \"contracts/SimpleVoting.sol\":371:6586  contract SimpleVoting is Context {\r... */\ntag_19:\n  dataSize(sub_0)\n  dup1\n  dataOffset(sub_0)\n  0x00\n  codecopy\n  0x00\n  return\nstop\n\nsub_0: assembly {\n        /* \"contracts/SimpleVoting.sol\":371:6586  contract SimpleVoting is Context {\r... */\n      mstore(0x40, 0x80)\n      callvalue\n      dup1\n      iszero\n      tag_1\n      jumpi\n      0x00\n      dup1\n      revert\n    tag_1:\n      pop\n      jumpi(tag_2, lt(calldatasize, 0x04))\n      shr(0xe0, calldataload(0x00))\n      dup1\n      0x9e7b8d61\n      gt\n      tag_12\n      jumpi\n      dup1\n      0x9e7b8d61\n      eq\n      tag_7\n      jumpi\n      dup1\n      0xa3ec138d\n      eq\n      tag_8\n      jumpi\n      dup1\n      0xd4d4b5ac\n      eq\n      tag_9\n      jumpi\n      dup1\n      0xda35c664\n      eq\n      tag_10\n      jumpi\n      dup1\n      0xe2ba53f0\n      eq\n      tag_11\n      jumpi\n      jump(tag_2)\n    tag_12:\n      dup1\n      0x0121b93f\n      eq\n      tag_3\n      jumpi\n      dup1\n      0x013cf08b\n      eq\n      tag_4\n      jumpi\n      dup1\n      0x5c19a95c\n      eq\n      tag_5\n      jumpi\n      dup1\n      0x609ff1bd\n      eq\n      tag_6\n      jumpi\n    tag_2:\n      0x00\n      dup1\n      revert\n        /* \"contracts/SimpleVoting.sol\":4651:5317  function vote(uint proposal) public {\r... */\n    tag_3:\n      tag_13\n      0x04\n      dup1\n      calldatasize\n      sub\n      dup2\n      add\n      swap1\n      tag_14\n      swap2\n      swap1\n      tag_15\n      jump\t// in\n    tag_14:\n      tag_16\n      jump\t// in\n    tag_13:\n      stop\n        /* \"contracts/SimpleVoting.sol\":1115:1142  Proposal[] public proposals */\n    tag_4:\n      tag_17\n      0x04\n      dup1\n      calldatasize\n      sub\n      dup2\n      add\n      swap1\n      tag_18\n      swap2\n      swap1\n      tag_15\n      jump\t// in\n    tag_18:\n      tag_19\n      jump\t// in\n    tag_17:\n      mload(0x40)\n      tag_20\n      swap3\n      swap2\n      swap1\n      tag_21\n      jump\t// in\n    tag_20:\n      mload(0x40)\n      dup1\n      swap2\n      sub\n      swap1\n      return\n        /* \"contracts/SimpleVoting.sol\":3326:4457  function delegate(address _to) public notYetVoted (_msgSender()) {\r... */\n    tag_5:\n      tag_22\n      0x04\n      dup1\n      calldatasize\n      sub\n      dup2\n      add\n      swap1\n      tag_23\n      swap2\n      swap1\n      tag_24\n      jump\t// in\n    tag_23:\n      tag_25\n      jump\t// in\n    tag_22:\n      stop\n        /* \"contracts/SimpleVoting.sol\":5509:5897  function winningProposal() public view\r... */\n    tag_6:\n      tag_26\n      tag_27\n      jump\t// in\n    tag_26:\n      mload(0x40)\n      tag_28\n      swap2\n      swap1\n      tag_29\n      jump\t// in\n    tag_28:\n      mload(0x40)\n      dup1\n      swap2\n      sub\n      swap1\n      return\n        /* \"contracts/SimpleVoting.sol\":2707:3195  function giveRightToVote(address _voter) public onlyChairPerson () notYetVoted (_voter) {\r... */\n    tag_7:\n      tag_30\n      0x04\n      dup1\n      calldatasize\n      sub\n      dup2\n      add\n      swap1\n      tag_31\n      swap2\n      swap1\n      tag_24\n      jump\t// in\n    tag_31:\n      tag_32\n      jump\t// in\n    tag_30:\n      stop\n        /* \"contracts/SimpleVoting.sol\":1067:1106  mapping(address => Voter) public voters */\n    tag_8:\n      tag_33\n      0x04\n      dup1\n      calldatasize\n      sub\n      dup2\n      add\n      swap1\n      tag_34\n      swap2\n      swap1\n      tag_24\n      jump\t// in\n    tag_34:\n      tag_35\n      jump\t// in\n    tag_33:\n      mload(0x40)\n      tag_36\n      swap5\n      swap4\n      swap3\n      swap2\n      swap1\n      tag_37\n      jump\t// in\n    tag_36:\n      mload(0x40)\n      dup1\n      swap2\n      sub\n      swap1\n      return\n        /* \"contracts/SimpleVoting.sol\":1032:1058  address public chairPerson */\n    tag_9:\n      tag_38\n      tag_39\n      jump\t// in\n    tag_38:\n      mload(0x40)\n      tag_40\n      swap2\n      swap1\n      tag_41\n      jump\t// in\n    tag_40:\n      mload(0x40)\n      dup1\n      swap2\n      sub\n      swap1\n      return\n        /* \"contracts/SimpleVoting.sol\":995:1023  uint256 public proposalCount */\n    tag_10:\n      tag_42\n      tag_43\n      jump\t// in\n    tag_42:\n      mload(0x40)\n      tag_44\n      swap2\n      swap1\n      tag_29\n      jump\t// in\n    tag_44:\n      mload(0x40)\n      dup1\n      swap2\n      sub\n      swap1\n      return\n        /* \"contracts/SimpleVoting.sol\":6094:6261  function winnerName() \r... */\n    tag_11:\n      tag_45\n      tag_46\n      jump\t// in\n    tag_45:\n      mload(0x40)\n      tag_47\n      swap2\n      swap1\n      tag_48\n      jump\t// in\n    tag_47:\n      mload(0x40)\n      dup1\n      swap2\n      sub\n      swap1\n      return\n        /* \"contracts/SimpleVoting.sol\":4651:5317  function vote(uint proposal) public {\r... */\n    tag_16:\n        /* \"contracts/SimpleVoting.sol\":4698:4718  Voter storage sender */\n      0x00\n        /* \"contracts/SimpleVoting.sol\":4721:4727  voters */\n      0x02\n        /* \"contracts/SimpleVoting.sol\":4721:4741  voters[_msgSender()] */\n      0x00\n        /* \"contracts/SimpleVoting.sol\":4728:4740  _msgSender() */\n      tag_51\n        /* \"contracts/SimpleVoting.sol\":4728:4738  _msgSender */\n      tag_52\n        /* \"contracts/SimpleVoting.sol\":4728:4740  _msgSender() */\n      jump\t// in\n    tag_51:\n        /* \"contracts/SimpleVoting.sol\":4721:4741  voters[_msgSender()] */\n      0xffffffffffffffffffffffffffffffffffffffff\n      and\n      0xffffffffffffffffffffffffffffffffffffffff\n      and\n      dup2\n      mstore\n      0x20\n      add\n      swap1\n      dup2\n      mstore\n      0x20\n      add\n      0x00\n      keccak256\n        /* \"contracts/SimpleVoting.sol\":4698:4741  Voter storage sender = voters[_msgSender()] */\n      swap1\n      pop\n        /* \"contracts/SimpleVoting.sol\":4777:4778  0 */\n      0x00\n        /* \"contracts/SimpleVoting.sol\":4760:4766  sender */\n      dup2\n        /* \"contracts/SimpleVoting.sol\":4760:4773  sender.weight */\n      0x00\n      add\n      sload\n        /* \"contracts/SimpleVoting.sol\":4760:4778  sender.weight != 0 */\n      eq\n      iszero\n        /* \"contracts/SimpleVoting.sol\":4752:4803  require(sender.weight != 0, \"Has no right to vote\") */\n      tag_53\n      jumpi\n      mload(0x40)\n      0x08c379a000000000000000000000000000000000000000000000000000000000\n      dup2\n      mstore\n      0x04\n      add\n      tag_54\n      swap1\n      tag_55\n      jump\t// in\n    tag_54:\n      mload(0x40)\n      dup1\n      swap2\n      sub\n      swap1\n      revert\n    tag_53:\n        /* \"contracts/SimpleVoting.sol\":4823:4829  sender */\n      dup1\n        /* \"contracts/SimpleVoting.sol\":4823:4835  sender.voted */\n      0x01\n      add\n      0x00\n      swap1\n      sload\n      swap1\n      0x0100\n      exp\n      swap1\n      div\n      0xff\n      and\n        /* \"contracts/SimpleVoting.sol\":4822:4835  !sender.voted */\n      iszero\n        /* \"contracts/SimpleVoting.sol\":4814:4854  require(!sender.voted, \"Already voted.\") */\n      tag_56\n      jumpi\n      mload(0x40)\n      0x08c379a000000000000000000000000000000000000000000000000000000000\n      dup2\n      mstore\n      0x04\n      add\n      tag_57\n      swap1\n      tag_58\n      jump\t// in\n    tag_57:\n      mload(0x40)\n      dup1\n      swap2\n      sub\n      swap1\n      revert\n    tag_56:\n        /* \"contracts/SimpleVoting.sol\":4885:4898  proposalCount */\n      sload(0x00)\n        /* \"contracts/SimpleVoting.sol\":4874:4882  proposal */\n      dup3\n        /* \"contracts/SimpleVoting.sol\":4874:4898  proposal < proposalCount */\n      lt\n        /* \"contracts/SimpleVoting.sol\":4865:4946  require (proposal < proposalCount, \"SimpleVoting: Proposal index out of bounds.\") */\n      tag_59\n      jumpi\n      mload(0x40)\n      0x08c379a000000000000000000000000000000000000000000000000000000000\n      dup2\n      mstore\n      0x04\n      add\n      tag_60\n      swap1\n      tag_61\n      jump\t// in\n    tag_60:\n      mload(0x40)\n      dup1\n      swap2\n      sub\n      swap1\n      revert\n    tag_59:\n        /* \"contracts/SimpleVoting.sol\":4972:4976  true */\n      0x01\n        /* \"contracts/SimpleVoting.sol\":4957:4963  sender */\n      dup2\n        /* \"contracts/SimpleVoting.sol\":4957:4969  sender.voted */\n      0x01\n      add\n      0x00\n        /* \"contracts/SimpleVoting.sol\":4957:4976  sender.voted = true */\n      0x0100\n      exp\n      dup2\n      sload\n      dup2\n      0xff\n      mul\n      not\n      and\n      swap1\n      dup4\n      iszero\n      iszero\n      mul\n      or\n      swap1\n      sstore\n      pop\n        /* \"contracts/SimpleVoting.sol\":5001:5009  proposal */\n      dup2\n        /* \"contracts/SimpleVoting.sol\":4987:4993  sender */\n      dup2\n        /* \"contracts/SimpleVoting.sol\":4987:4998  sender.vote */\n      0x02\n      add\n        /* \"contracts/SimpleVoting.sol\":4987:5009  sender.vote = proposal */\n      dup2\n      swap1\n      sstore\n      pop\n        /* \"contracts/SimpleVoting.sol\":5192:5241  proposals[proposal].voteCount. add(sender.weight) */\n      tag_62\n        /* \"contracts/SimpleVoting.sol\":5227:5233  sender */\n      dup2\n        /* \"contracts/SimpleVoting.sol\":5227:5240  sender.weight */\n      0x00\n      add\n      sload\n        /* \"contracts/SimpleVoting.sol\":5192:5201  proposals */\n      0x03\n        /* \"contracts/SimpleVoting.sol\":5202:5210  proposal */\n      dup5\n        /* \"contracts/SimpleVoting.sol\":5192:5211  proposals[proposal] */\n      dup2\n      sload\n      dup2\n      lt\n      tag_63\n      jumpi\n      tag_64\n      tag_65\n      jump\t// in\n    tag_64:\n    tag_63:\n      swap1\n      0x00\n      mstore\n      keccak256(0x00, 0x20)\n      swap1\n      0x02\n      mul\n      add\n        /* \"contracts/SimpleVoting.sol\":5192:5221  proposals[proposal].voteCount */\n      0x01\n      add\n      sload\n        /* \"contracts/SimpleVoting.sol\":5192:5226  proposals[proposal].voteCount. add */\n      tag_49\n      swap1\n        /* \"contracts/SimpleVoting.sol\":5192:5241  proposals[proposal].voteCount. add(sender.weight) */\n      swap2\n      swap1\n      0xffffffff\n      and\n      jump\t// in\n    tag_62:\n        /* \"contracts/SimpleVoting.sol\":5160:5169  proposals */\n      0x03\n        /* \"contracts/SimpleVoting.sol\":5170:5178  proposal */\n      dup4\n        /* \"contracts/SimpleVoting.sol\":5160:5179  proposals[proposal] */\n      dup2\n      sload\n      dup2\n      lt\n      tag_67\n      jumpi\n      tag_68\n      tag_65\n      jump\t// in\n    tag_68:\n    tag_67:\n      swap1\n      0x00\n      mstore\n      keccak256(0x00, 0x20)\n      swap1\n      0x02\n      mul\n      add\n        /* \"contracts/SimpleVoting.sol\":5160:5189  proposals[proposal].voteCount */\n      0x01\n      add\n        /* \"contracts/SimpleVoting.sol\":5160:5241  proposals[proposal].voteCount = proposals[proposal].voteCount. add(sender.weight) */\n      dup2\n      swap1\n      sstore\n      pop\n        /* \"contracts/SimpleVoting.sol\":5281:5293  _msgSender() */\n      tag_70\n        /* \"contracts/SimpleVoting.sol\":5281:5291  _msgSender */\n      tag_52\n        /* \"contracts/SimpleVoting.sol\":5281:5293  _msgSender() */\n      jump\t// in\n    tag_70:\n        /* \"contracts/SimpleVoting.sol\":5259:5309  VoteCasted (proposal, _msgSender(), sender.weight) */\n      0xffffffffffffffffffffffffffffffffffffffff\n      and\n        /* \"contracts/SimpleVoting.sol\":5271:5279  proposal */\n      dup3\n        /* \"contracts/SimpleVoting.sol\":5259:5309  VoteCasted (proposal, _msgSender(), sender.weight) */\n      0xe7ee74ca1f4bb1b82b14f87794c45b3e59c39e372b862fb97a6316b43355b69e\n        /* \"contracts/SimpleVoting.sol\":5295:5301  sender */\n      dup4\n        /* \"contracts/SimpleVoting.sol\":5295:5308  sender.weight */\n      0x00\n      add\n      sload\n        /* \"contracts/SimpleVoting.sol\":5259:5309  VoteCasted (proposal, _msgSender(), sender.weight) */\n      mload(0x40)\n      tag_71\n      swap2\n      swap1\n      tag_29\n      jump\t// in\n    tag_71:\n      mload(0x40)\n      dup1\n      swap2\n      sub\n      swap1\n      log3\n        /* \"contracts/SimpleVoting.sol\":4687:5317  {\r... */\n      pop\n        /* \"contracts/SimpleVoting.sol\":4651:5317  function vote(uint proposal) public {\r... */\n      pop\n      jump\t// out\n        /* \"contracts/SimpleVoting.sol\":1115:1142  Proposal[] public proposals */\n    tag_19:\n      0x03\n      dup2\n      dup2\n      sload\n      dup2\n      lt\n      tag_72\n      jumpi\n      0x00\n      dup1\n      revert\n    tag_72:\n      swap1\n      0x00\n      mstore\n      keccak256(0x00, 0x20)\n      swap1\n      0x02\n      mul\n      add\n      0x00\n      swap2\n      pop\n      swap1\n      pop\n      dup1\n      0x00\n      add\n      sload\n      swap1\n      dup1\n      0x01\n      add\n      sload\n      swap1\n      pop\n      dup3\n      jump\t// out\n        /* \"contracts/SimpleVoting.sol\":3326:4457  function delegate(address _to) public notYetVoted (_msgSender()) {\r... */\n    tag_25:\n        /* \"contracts/SimpleVoting.sol\":3377:3389  _msgSender() */\n      tag_74\n        /* \"contracts/SimpleVoting.sol\":3377:3387  _msgSender */\n      tag_52\n        /* \"contracts/SimpleVoting.sol\":3377:3389  _msgSender() */\n      jump\t// in\n    tag_74:\n        /* \"contracts/SimpleVoting.sol\":1677:1683  voters */\n      0x02\n        /* \"contracts/SimpleVoting.sol\":1677:1691  voters[_voter] */\n      0x00\n        /* \"contracts/SimpleVoting.sol\":1684:1690  _voter */\n      dup3\n        /* \"contracts/SimpleVoting.sol\":1677:1691  voters[_voter] */\n      0xffffffffffffffffffffffffffffffffffffffff\n      and\n      0xffffffffffffffffffffffffffffffffffffffff\n      and\n      dup2\n      mstore\n      0x20\n      add\n      swap1\n      dup2\n      mstore\n      0x20\n      add\n      0x00\n      keccak256\n        /* \"contracts/SimpleVoting.sol\":1677:1697  voters[_voter].voted */\n      0x01\n      add\n      0x00\n      swap1\n      sload\n      swap1\n      0x0100\n      exp\n      swap1\n      div\n      0xff\n      and\n        /* \"contracts/SimpleVoting.sol\":1676:1697  !voters[_voter].voted */\n      iszero\n        /* \"contracts/SimpleVoting.sol\":1654:1767  require(\r... */\n      tag_76\n      jumpi\n      mload(0x40)\n      0x08c379a000000000000000000000000000000000000000000000000000000000\n      dup2\n      mstore\n      0x04\n      add\n      tag_77\n      swap1\n      tag_78\n      jump\t// in\n    tag_77:\n      mload(0x40)\n      dup1\n      swap2\n      sub\n      swap1\n      revert\n    tag_76:\n        /* \"contracts/SimpleVoting.sol\":3402:3422  Voter storage sender */\n      0x00\n        /* \"contracts/SimpleVoting.sol\":3425:3431  voters */\n      0x02\n        /* \"contracts/SimpleVoting.sol\":3425:3445  voters[_msgSender()] */\n      0x00\n        /* \"contracts/SimpleVoting.sol\":3432:3444  _msgSender() */\n      tag_80\n        /* \"contracts/SimpleVoting.sol\":3432:3442  _msgSender */\n      tag_52\n        /* \"contracts/SimpleVoting.sol\":3432:3444  _msgSender() */\n      jump\t// in\n    tag_80:\n        /* \"contracts/SimpleVoting.sol\":3425:3445  voters[_msgSender()] */\n      0xffffffffffffffffffffffffffffffffffffffff\n      and\n      0xffffffffffffffffffffffffffffffffffffffff\n      and\n      dup2\n      mstore\n      0x20\n      add\n      swap1\n      dup2\n      mstore\n      0x20\n      add\n      0x00\n      keccak256\n        /* \"contracts/SimpleVoting.sol\":3402:3445  Voter storage sender = voters[_msgSender()] */\n      swap1\n      pop\n        /* \"contracts/SimpleVoting.sol\":3528:3540  _msgSender() */\n      tag_81\n        /* \"contracts/SimpleVoting.sol\":3528:3538  _msgSender */\n      tag_52\n        /* \"contracts/SimpleVoting.sol\":3528:3540  _msgSender() */\n      jump\t// in\n    tag_81:\n        /* \"contracts/SimpleVoting.sol\":3521:3540  _to != _msgSender() */\n      0xffffffffffffffffffffffffffffffffffffffff\n      and\n        /* \"contracts/SimpleVoting.sol\":3521:3524  _to */\n      dup4\n        /* \"contracts/SimpleVoting.sol\":3521:3540  _to != _msgSender() */\n      0xffffffffffffffffffffffffffffffffffffffff\n      and\n      eq\n      iszero\n        /* \"contracts/SimpleVoting.sol\":3513:3590  require(_to != _msgSender(), \"SimpleVoting: Self-delegation is not allowed.\") */\n      tag_82\n      jumpi\n      mload(0x40)\n      0x08c379a000000000000000000000000000000000000000000000000000000000\n      dup2\n      mstore\n      0x04\n      add\n      tag_83\n      swap1\n      tag_84\n      jump\t// in\n    tag_83:\n      mload(0x40)\n      dup1\n      swap2\n      sub\n      swap1\n      revert\n    tag_82:\n        /* \"contracts/SimpleVoting.sol\":3603:3859  while (voters[_to].delegate != address(0)) {\r... */\n    tag_85:\n        /* \"contracts/SimpleVoting.sol\":3642:3643  0 */\n      0x00\n        /* \"contracts/SimpleVoting.sol\":3610:3644  voters[_to].delegate != address(0) */\n      0xffffffffffffffffffffffffffffffffffffffff\n      and\n        /* \"contracts/SimpleVoting.sol\":3610:3616  voters */\n      0x02\n        /* \"contracts/SimpleVoting.sol\":3610:3621  voters[_to] */\n      0x00\n        /* \"contracts/SimpleVoting.sol\":3617:3620  _to */\n      dup6\n        /* \"contracts/SimpleVoting.sol\":3610:3621  voters[_to] */\n      0xffffffffffffffffffffffffffffffffffffffff\n      and\n      0xffffffffffffffffffffffffffffffffffffffff\n      and\n      dup2\n      mstore\n      0x20\n      add\n      swap1\n      dup2\n      mstore\n      0x20\n      add\n      0x00\n      keccak256\n        /* \"contracts/SimpleVoting.sol\":3610:3630  voters[_to].delegate */\n      0x01\n      add\n      0x01\n      swap1\n      sload\n      swap1\n      0x0100\n      exp\n      swap1\n      div\n      0xffffffffffffffffffffffffffffffffffffffff\n      and\n        /* \"contracts/SimpleVoting.sol\":3610:3644  voters[_to].delegate != address(0) */\n      0xffffffffffffffffffffffffffffffffffffffff\n      and\n      eq\n        /* \"contracts/SimpleVoting.sol\":3603:3859  while (voters[_to].delegate != address(0)) {\r... */\n      tag_86\n      jumpi\n        /* \"contracts/SimpleVoting.sol\":3667:3673  voters */\n      0x02\n        /* \"contracts/SimpleVoting.sol\":3667:3678  voters[_to] */\n      0x00\n        /* \"contracts/SimpleVoting.sol\":3674:3677  _to */\n      dup5\n        /* \"contracts/SimpleVoting.sol\":3667:3678  voters[_to] */\n      0xffffffffffffffffffffffffffffffffffffffff\n      and\n      0xffffffffffffffffffffffffffffffffffffffff\n      and\n      dup2\n      mstore\n      0x20\n      add\n      swap1\n      dup2\n      mstore\n      0x20\n      add\n      0x00\n      keccak256\n        /* \"contracts/SimpleVoting.sol\":3667:3687  voters[_to].delegate */\n      0x01\n      add\n      0x01\n      swap1\n      sload\n      swap1\n      0x0100\n      exp\n      swap1\n      div\n      0xffffffffffffffffffffffffffffffffffffffff\n      and\n        /* \"contracts/SimpleVoting.sol\":3661:3687  _to = voters[_to].delegate */\n      swap3\n      pop\n        /* \"contracts/SimpleVoting.sol\":3783:3795  _msgSender() */\n      tag_87\n        /* \"contracts/SimpleVoting.sol\":3783:3793  _msgSender */\n      tag_52\n        /* \"contracts/SimpleVoting.sol\":3783:3795  _msgSender() */\n      jump\t// in\n    tag_87:\n        /* \"contracts/SimpleVoting.sol\":3776:3795  _to != _msgSender() */\n      0xffffffffffffffffffffffffffffffffffffffff\n      and\n        /* \"contracts/SimpleVoting.sol\":3776:3779  _to */\n      dup4\n        /* \"contracts/SimpleVoting.sol\":3776:3795  _to != _msgSender() */\n      0xffffffffffffffffffffffffffffffffffffffff\n      and\n      eq\n      iszero\n        /* \"contracts/SimpleVoting.sol\":3768:3847  require(_to != _msgSender(), \"SimpleVoting: Delegation traces back to caller.\") */\n      tag_88\n      jumpi\n      mload(0x40)\n      0x08c379a000000000000000000000000000000000000000000000000000000000\n      dup2\n      mstore\n      0x04\n      add\n      tag_89\n      swap1\n      tag_90\n      jump\t// in\n    tag_89:\n      mload(0x40)\n      dup1\n      swap2\n      sub\n      swap1\n      revert\n    tag_88:\n        /* \"contracts/SimpleVoting.sol\":3603:3859  while (voters[_to].delegate != address(0)) {\r... */\n      jump(tag_85)\n    tag_86:\n        /* \"contracts/SimpleVoting.sol\":3884:3888  true */\n      0x01\n        /* \"contracts/SimpleVoting.sol\":3869:3875  sender */\n      dup2\n        /* \"contracts/SimpleVoting.sol\":3869:3881  sender.voted */\n      0x01\n      add\n      0x00\n        /* \"contracts/SimpleVoting.sol\":3869:3888  sender.voted = true */\n      0x0100\n      exp\n      dup2\n      sload\n      dup2\n      0xff\n      mul\n      not\n      and\n      swap1\n      dup4\n      iszero\n      iszero\n      mul\n      or\n      swap1\n      sstore\n      pop\n        /* \"contracts/SimpleVoting.sol\":3917:3920  _to */\n      dup3\n        /* \"contracts/SimpleVoting.sol\":3899:3905  sender */\n      dup2\n        /* \"contracts/SimpleVoting.sol\":3899:3914  sender.delegate */\n      0x01\n      add\n      0x01\n        /* \"contracts/SimpleVoting.sol\":3899:3920  sender.delegate = _to */\n      0x0100\n      exp\n      dup2\n      sload\n      dup2\n      0xffffffffffffffffffffffffffffffffffffffff\n      mul\n      not\n      and\n      swap1\n      dup4\n      0xffffffffffffffffffffffffffffffffffffffff\n      and\n      mul\n      or\n      swap1\n      sstore\n      pop\n        /* \"contracts/SimpleVoting.sol\":3931:3954  Voter storage delegate_ */\n      0x00\n        /* \"contracts/SimpleVoting.sol\":3957:3963  voters */\n      0x02\n        /* \"contracts/SimpleVoting.sol\":3957:3968  voters[_to] */\n      0x00\n        /* \"contracts/SimpleVoting.sol\":3964:3967  _to */\n      dup6\n        /* \"contracts/SimpleVoting.sol\":3957:3968  voters[_to] */\n      0xffffffffffffffffffffffffffffffffffffffff\n      and\n      0xffffffffffffffffffffffffffffffffffffffff\n      and\n      dup2\n      mstore\n      0x20\n      add\n      swap1\n      dup2\n      mstore\n      0x20\n      add\n      0x00\n      keccak256\n        /* \"contracts/SimpleVoting.sol\":3931:3968  Voter storage delegate_ = voters[_to] */\n      swap1\n      pop\n        /* \"contracts/SimpleVoting.sol\":3983:3992  delegate_ */\n      dup1\n        /* \"contracts/SimpleVoting.sol\":3983:3998  delegate_.voted */\n      0x01\n      add\n      0x00\n      swap1\n      sload\n      swap1\n      0x0100\n      exp\n      swap1\n      div\n      0xff\n      and\n        /* \"contracts/SimpleVoting.sol\":3979:4392  if (delegate_.voted) {\r... */\n      iszero\n      tag_91\n      jumpi\n        /* \"contracts/SimpleVoting.sol\":4152:4207  proposals[delegate_.vote].voteCount. add(sender.weight) */\n      tag_92\n        /* \"contracts/SimpleVoting.sol\":4193:4199  sender */\n      dup3\n        /* \"contracts/SimpleVoting.sol\":4193:4206  sender.weight */\n      0x00\n      add\n      sload\n        /* \"contracts/SimpleVoting.sol\":4152:4161  proposals */\n      0x03\n        /* \"contracts/SimpleVoting.sol\":4162:4171  delegate_ */\n      dup4\n        /* \"contracts/SimpleVoting.sol\":4162:4176  delegate_.vote */\n      0x02\n      add\n      sload\n        /* \"contracts/SimpleVoting.sol\":4152:4177  proposals[delegate_.vote] */\n      dup2\n      sload\n      dup2\n      lt\n      tag_93\n      jumpi\n      tag_94\n      tag_65\n      jump\t// in\n    tag_94:\n    tag_93:\n      swap1\n      0x00\n      mstore\n      keccak256(0x00, 0x20)\n      swap1\n      0x02\n      mul\n      add\n        /* \"contracts/SimpleVoting.sol\":4152:4187  proposals[delegate_.vote].voteCount */\n      0x01\n      add\n      sload\n        /* \"contracts/SimpleVoting.sol\":4152:4192  proposals[delegate_.vote].voteCount. add */\n      tag_49\n      swap1\n        /* \"contracts/SimpleVoting.sol\":4152:4207  proposals[delegate_.vote].voteCount. add(sender.weight) */\n      swap2\n      swap1\n      0xffffffff\n      and\n      jump\t// in\n    tag_92:\n        /* \"contracts/SimpleVoting.sol\":4114:4123  proposals */\n      0x03\n        /* \"contracts/SimpleVoting.sol\":4124:4133  delegate_ */\n      dup3\n        /* \"contracts/SimpleVoting.sol\":4124:4138  delegate_.vote */\n      0x02\n      add\n      sload\n        /* \"contracts/SimpleVoting.sol\":4114:4139  proposals[delegate_.vote] */\n      dup2\n      sload\n      dup2\n      lt\n      tag_96\n      jumpi\n      tag_97\n      tag_65\n      jump\t// in\n    tag_97:\n    tag_96:\n      swap1\n      0x00\n      mstore\n      keccak256(0x00, 0x20)\n      swap1\n      0x02\n      mul\n      add\n        /* \"contracts/SimpleVoting.sol\":4114:4149  proposals[delegate_.vote].voteCount */\n      0x01\n      add\n        /* \"contracts/SimpleVoting.sol\":4114:4207  proposals[delegate_.vote].voteCount = proposals[delegate_.vote].voteCount. add(sender.weight) */\n      dup2\n      swap1\n      sstore\n      pop\n        /* \"contracts/SimpleVoting.sol\":3979:4392  if (delegate_.voted) {\r... */\n      jump(tag_99)\n    tag_91:\n        /* \"contracts/SimpleVoting.sol\":4344:4380  delegate_.weight. add(sender.weight) */\n      tag_100\n        /* \"contracts/SimpleVoting.sol\":4366:4372  sender */\n      dup3\n        /* \"contracts/SimpleVoting.sol\":4366:4379  sender.weight */\n      0x00\n      add\n      sload\n        /* \"contracts/SimpleVoting.sol\":4344:4353  delegate_ */\n      dup3\n        /* \"contracts/SimpleVoting.sol\":4344:4360  delegate_.weight */\n      0x00\n      add\n      sload\n        /* \"contracts/SimpleVoting.sol\":4344:4365  delegate_.weight. add */\n      tag_49\n      swap1\n        /* \"contracts/SimpleVoting.sol\":4344:4380  delegate_.weight. add(sender.weight) */\n      swap2\n      swap1\n      0xffffffff\n      and\n      jump\t// in\n    tag_100:\n        /* \"contracts/SimpleVoting.sol\":4325:4334  delegate_ */\n      dup2\n        /* \"contracts/SimpleVoting.sol\":4325:4341  delegate_.weight */\n      0x00\n      add\n        /* \"contracts/SimpleVoting.sol\":4325:4380  delegate_.weight = delegate_.weight. add(sender.weight) */\n      dup2\n      swap1\n      sstore\n      pop\n        /* \"contracts/SimpleVoting.sol\":3979:4392  if (delegate_.voted) {\r... */\n    tag_99:\n        /* \"contracts/SimpleVoting.sol\":4445:4448  _to */\n      dup4\n        /* \"contracts/SimpleVoting.sol\":4409:4449  DelegationSuccessful (_msgSender(), _to) */\n      0xffffffffffffffffffffffffffffffffffffffff\n      and\n        /* \"contracts/SimpleVoting.sol\":4431:4443  _msgSender() */\n      tag_101\n        /* \"contracts/SimpleVoting.sol\":4431:4441  _msgSender */\n      tag_52\n        /* \"contracts/SimpleVoting.sol\":4431:4443  _msgSender() */\n      jump\t// in\n    tag_101:\n        /* \"contracts/SimpleVoting.sol\":4409:4449  DelegationSuccessful (_msgSender(), _to) */\n      0xffffffffffffffffffffffffffffffffffffffff\n      and\n      0x4ce9ef2c99d761d69230b0e3381f4c6016333b2e27d32b3e379a96b5d2c69232\n      mload(0x40)\n      mload(0x40)\n      dup1\n      swap2\n      sub\n      swap1\n      log3\n        /* \"contracts/SimpleVoting.sol\":3391:4457  {\r... */\n      pop\n      pop\n        /* \"contracts/SimpleVoting.sol\":3326:4457  function delegate(address _to) public notYetVoted (_msgSender()) {\r... */\n      pop\n      pop\n      jump\t// out\n        /* \"contracts/SimpleVoting.sol\":5509:5897  function winningProposal() public view\r... */\n    tag_27:\n        /* \"contracts/SimpleVoting.sol\":5570:5594  uint256 winningProposal_ */\n      0x00\n        /* \"contracts/SimpleVoting.sol\":5612:5633  uint winningVoteCount */\n      dup1\n        /* \"contracts/SimpleVoting.sol\":5636:5637  0 */\n      0x00\n        /* \"contracts/SimpleVoting.sol\":5612:5637  uint winningVoteCount = 0 */\n      swap1\n      pop\n        /* \"contracts/SimpleVoting.sol\":5653:5659  uint p */\n      0x00\n        /* \"contracts/SimpleVoting.sol\":5648:5890  for (uint p = 0; p < proposals.length; p = p. add(1)) {\r... */\n    tag_103:\n        /* \"contracts/SimpleVoting.sol\":5669:5678  proposals */\n      0x03\n        /* \"contracts/SimpleVoting.sol\":5669:5685  proposals.length */\n      dup1\n      sload\n      swap1\n      pop\n        /* \"contracts/SimpleVoting.sol\":5665:5666  p */\n      dup2\n        /* \"contracts/SimpleVoting.sol\":5665:5685  p < proposals.length */\n      lt\n        /* \"contracts/SimpleVoting.sol\":5648:5890  for (uint p = 0; p < proposals.length; p = p. add(1)) {\r... */\n      iszero\n      tag_104\n      jumpi\n        /* \"contracts/SimpleVoting.sol\":5746:5762  winningVoteCount */\n      dup2\n        /* \"contracts/SimpleVoting.sol\":5721:5730  proposals */\n      0x03\n        /* \"contracts/SimpleVoting.sol\":5731:5732  p */\n      dup3\n        /* \"contracts/SimpleVoting.sol\":5721:5733  proposals[p] */\n      dup2\n      sload\n      dup2\n      lt\n      tag_106\n      jumpi\n      tag_107\n      tag_65\n      jump\t// in\n    tag_107:\n    tag_106:\n      swap1\n      0x00\n      mstore\n      keccak256(0x00, 0x20)\n      swap1\n      0x02\n      mul\n      add\n        /* \"contracts/SimpleVoting.sol\":5721:5743  proposals[p].voteCount */\n      0x01\n      add\n      sload\n        /* \"contracts/SimpleVoting.sol\":5721:5762  proposals[p].voteCount > winningVoteCount */\n      gt\n        /* \"contracts/SimpleVoting.sol\":5717:5879  if (proposals[p].voteCount > winningVoteCount) {\r... */\n      iszero\n      tag_109\n      jumpi\n        /* \"contracts/SimpleVoting.sol\":5802:5811  proposals */\n      0x03\n        /* \"contracts/SimpleVoting.sol\":5812:5813  p */\n      dup2\n        /* \"contracts/SimpleVoting.sol\":5802:5814  proposals[p] */\n      dup2\n      sload\n      dup2\n      lt\n      tag_110\n      jumpi\n      tag_111\n      tag_65\n      jump\t// in\n    tag_111:\n    tag_110:\n      swap1\n      0x00\n      mstore\n      keccak256(0x00, 0x20)\n      swap1\n      0x02\n      mul\n      add\n        /* \"contracts/SimpleVoting.sol\":5802:5824  proposals[p].voteCount */\n      0x01\n      add\n      sload\n        /* \"contracts/SimpleVoting.sol\":5783:5824  winningVoteCount = proposals[p].voteCount */\n      swap2\n      pop\n        /* \"contracts/SimpleVoting.sol\":5862:5863  p */\n      dup1\n        /* \"contracts/SimpleVoting.sol\":5843:5863  winningProposal_ = p */\n      swap3\n      pop\n        /* \"contracts/SimpleVoting.sol\":5717:5879  if (proposals[p].voteCount > winningVoteCount) {\r... */\n    tag_109:\n        /* \"contracts/SimpleVoting.sol\":5691:5700  p. add(1) */\n      tag_113\n        /* \"contracts/SimpleVoting.sol\":5698:5699  1 */\n      0x01\n        /* \"contracts/SimpleVoting.sol\":5691:5692  p */\n      dup3\n        /* \"contracts/SimpleVoting.sol\":5691:5697  p. add */\n      tag_49\n      swap1\n        /* \"contracts/SimpleVoting.sol\":5691:5700  p. add(1) */\n      swap2\n      swap1\n      0xffffffff\n      and\n      jump\t// in\n    tag_113:\n        /* \"contracts/SimpleVoting.sol\":5687:5700  p = p. add(1) */\n      swap1\n      pop\n        /* \"contracts/SimpleVoting.sol\":5648:5890  for (uint p = 0; p < proposals.length; p = p. add(1)) {\r... */\n      jump(tag_103)\n    tag_104:\n      pop\n        /* \"contracts/SimpleVoting.sol\":5601:5897  {\r... */\n      pop\n        /* \"contracts/SimpleVoting.sol\":5509:5897  function winningProposal() public view\r... */\n      swap1\n      jump\t// out\n        /* \"contracts/SimpleVoting.sol\":2707:3195  function giveRightToVote(address _voter) public onlyChairPerson () notYetVoted (_voter) {\r... */\n    tag_32:\n        /* \"contracts/SimpleVoting.sol\":1482:1493  chairPerson */\n      0x01\n      0x00\n      swap1\n      sload\n      swap1\n      0x0100\n      exp\n      swap1\n      div\n      0xffffffffffffffffffffffffffffffffffffffff\n      and\n        /* \"contracts/SimpleVoting.sol\":1466:1493  _msgSender() == chairPerson */\n      0xffffffffffffffffffffffffffffffffffffffff\n      and\n        /* \"contracts/SimpleVoting.sol\":1466:1478  _msgSender() */\n      tag_115\n        /* \"contracts/SimpleVoting.sol\":1466:1476  _msgSender */\n      tag_52\n        /* \"contracts/SimpleVoting.sol\":1466:1478  _msgSender() */\n      jump\t// in\n    tag_115:\n        /* \"contracts/SimpleVoting.sol\":1466:1493  _msgSender() == chairPerson */\n      0xffffffffffffffffffffffffffffffffffffffff\n      and\n      eq\n        /* \"contracts/SimpleVoting.sol\":1444:1575  require(\r... */\n      tag_116\n      jumpi\n      mload(0x40)\n      0x08c379a000000000000000000000000000000000000000000000000000000000\n      dup2\n      mstore\n      0x04\n      add\n      tag_117\n      swap1\n      tag_118\n      jump\t// in\n    tag_117:\n      mload(0x40)\n      dup1\n      swap2\n      sub\n      swap1\n      revert\n    tag_116:\n        /* \"contracts/SimpleVoting.sol\":2787:2793  _voter */\n      dup1\n        /* \"contracts/SimpleVoting.sol\":1677:1683  voters */\n      0x02\n        /* \"contracts/SimpleVoting.sol\":1677:1691  voters[_voter] */\n      0x00\n        /* \"contracts/SimpleVoting.sol\":1684:1690  _voter */\n      dup3\n        /* \"contracts/SimpleVoting.sol\":1677:1691  voters[_voter] */\n      0xffffffffffffffffffffffffffffffffffffffff\n      and\n      0xffffffffffffffffffffffffffffffffffffffff\n      and\n      dup2\n      mstore\n      0x20\n      add\n      swap1\n      dup2\n      mstore\n      0x20\n      add\n      0x00\n      keccak256\n        /* \"contracts/SimpleVoting.sol\":1677:1697  voters[_voter].voted */\n      0x01\n      add\n      0x00\n      swap1\n      sload\n      swap1\n      0x0100\n      exp\n      swap1\n      div\n      0xff\n      and\n        /* \"contracts/SimpleVoting.sol\":1676:1697  !voters[_voter].voted */\n      iszero\n        /* \"contracts/SimpleVoting.sol\":1654:1767  require(\r... */\n      tag_120\n      jumpi\n      mload(0x40)\n      0x08c379a000000000000000000000000000000000000000000000000000000000\n      dup2\n      mstore\n      0x04\n      add\n      tag_121\n      swap1\n      tag_78\n      jump\t// in\n    tag_121:\n      mload(0x40)\n      dup1\n      swap2\n      sub\n      swap1\n      revert\n    tag_120:\n        /* \"contracts/SimpleVoting.sol\":3097:3098  0 */\n      0x00\n        /* \"contracts/SimpleVoting.sol\":3072:3078  voters */\n      0x02\n        /* \"contracts/SimpleVoting.sol\":3072:3086  voters[_voter] */\n      0x00\n        /* \"contracts/SimpleVoting.sol\":3079:3085  _voter */\n      dup5\n        /* \"contracts/SimpleVoting.sol\":3072:3086  voters[_voter] */\n      0xffffffffffffffffffffffffffffffffffffffff\n      and\n      0xffffffffffffffffffffffffffffffffffffffff\n      and\n      dup2\n      mstore\n      0x20\n      add\n      swap1\n      dup2\n      mstore\n      0x20\n      add\n      0x00\n      keccak256\n        /* \"contracts/SimpleVoting.sol\":3072:3093  voters[_voter].weight */\n      0x00\n      add\n      sload\n        /* \"contracts/SimpleVoting.sol\":3072:3098  voters[_voter].weight == 0 */\n      eq\n        /* \"contracts/SimpleVoting.sol\":3064:3151  require(voters[_voter].weight == 0, \"SimpleVoting: Address already has right to vote.\") */\n      tag_123\n      jumpi\n      mload(0x40)\n      0x08c379a000000000000000000000000000000000000000000000000000000000\n      dup2\n      mstore\n      0x04\n      add\n      tag_124\n      swap1\n      tag_125\n      jump\t// in\n    tag_124:\n      mload(0x40)\n      dup1\n      swap2\n      sub\n      swap1\n      revert\n    tag_123:\n        /* \"contracts/SimpleVoting.sol\":3186:3187  1 */\n      0x01\n        /* \"contracts/SimpleVoting.sol\":3162:3168  voters */\n      0x02\n        /* \"contracts/SimpleVoting.sol\":3162:3176  voters[_voter] */\n      0x00\n        /* \"contracts/SimpleVoting.sol\":3169:3175  _voter */\n      dup5\n        /* \"contracts/SimpleVoting.sol\":3162:3176  voters[_voter] */\n      0xffffffffffffffffffffffffffffffffffffffff\n      and\n      0xffffffffffffffffffffffffffffffffffffffff\n      and\n      dup2\n      mstore\n      0x20\n      add\n      swap1\n      dup2\n      mstore\n      0x20\n      add\n      0x00\n      keccak256\n        /* \"contracts/SimpleVoting.sol\":3162:3183  voters[_voter].weight */\n      0x00\n      add\n        /* \"contracts/SimpleVoting.sol\":3162:3187  voters[_voter].weight = 1 */\n      dup2\n      swap1\n      sstore\n      pop\n        /* \"contracts/SimpleVoting.sol\":1586:1587  _ */\n      pop\n        /* \"contracts/SimpleVoting.sol\":2707:3195  function giveRightToVote(address _voter) public onlyChairPerson () notYetVoted (_voter) {\r... */\n      pop\n      jump\t// out\n        /* \"contracts/SimpleVoting.sol\":1067:1106  mapping(address => Voter) public voters */\n    tag_35:\n      mstore(0x20, 0x02)\n      dup1\n      0x00\n      mstore\n      keccak256(0x00, 0x40)\n      0x00\n      swap2\n      pop\n      swap1\n      pop\n      dup1\n      0x00\n      add\n      sload\n      swap1\n      dup1\n      0x01\n      add\n      0x00\n      swap1\n      sload\n      swap1\n      0x0100\n      exp\n      swap1\n      div\n      0xff\n      and\n      swap1\n      dup1\n      0x01\n      add\n      0x01\n      swap1\n      sload\n      swap1\n      0x0100\n      exp\n      swap1\n      div\n      0xffffffffffffffffffffffffffffffffffffffff\n      and\n      swap1\n      dup1\n      0x02\n      add\n      sload\n      swap1\n      pop\n      dup5\n      jump\t// out\n        /* \"contracts/SimpleVoting.sol\":1032:1058  address public chairPerson */\n    tag_39:\n      0x01\n      0x00\n      swap1\n      sload\n      swap1\n      0x0100\n      exp\n      swap1\n      div\n      0xffffffffffffffffffffffffffffffffffffffff\n      and\n      dup2\n      jump\t// out\n        /* \"contracts/SimpleVoting.sol\":995:1023  uint256 public proposalCount */\n    tag_43:\n      sload(0x00)\n      dup2\n      jump\t// out\n        /* \"contracts/SimpleVoting.sol\":6094:6261  function winnerName() \r... */\n    tag_46:\n        /* \"contracts/SimpleVoting.sol\":6166:6179  string memory */\n      0x60\n        /* \"contracts/SimpleVoting.sol\":6203:6253  bytes32ToString(proposals[winningProposal()].name) */\n      tag_127\n        /* \"contracts/SimpleVoting.sol\":6219:6228  proposals */\n      0x03\n        /* \"contracts/SimpleVoting.sol\":6229:6246  winningProposal() */\n      tag_128\n        /* \"contracts/SimpleVoting.sol\":6229:6244  winningProposal */\n      tag_27\n        /* \"contracts/SimpleVoting.sol\":6229:6246  winningProposal() */\n      jump\t// in\n    tag_128:\n        /* \"contracts/SimpleVoting.sol\":6219:6247  proposals[winningProposal()] */\n      dup2\n      sload\n      dup2\n      lt\n      tag_129\n      jumpi\n      tag_130\n      tag_65\n      jump\t// in\n    tag_130:\n    tag_129:\n      swap1\n      0x00\n      mstore\n      keccak256(0x00, 0x20)\n      swap1\n      0x02\n      mul\n      add\n        /* \"contracts/SimpleVoting.sol\":6219:6252  proposals[winningProposal()].name */\n      0x00\n      add\n      sload\n        /* \"contracts/SimpleVoting.sol\":6203:6218  bytes32ToString */\n      tag_132\n        /* \"contracts/SimpleVoting.sol\":6203:6253  bytes32ToString(proposals[winningProposal()].name) */\n      jump\t// in\n    tag_127:\n        /* \"contracts/SimpleVoting.sol\":6196:6253  return bytes32ToString(proposals[winningProposal()].name) */\n      swap1\n      pop\n        /* \"contracts/SimpleVoting.sol\":6094:6261  function winnerName() \r... */\n      swap1\n      jump\t// out\n        /* \"https://github.com/OpenZeppelin/openzeppelin-contracts/blob/master/contracts/utils/math/SafeMath.sol\":2755:2851  function add(uint256 a, uint256 b) internal pure returns (uint256) {... */\n    tag_49:\n        /* \"https://github.com/OpenZeppelin/openzeppelin-contracts/blob/master/contracts/utils/math/SafeMath.sol\":2813:2820  uint256 */\n      0x00\n        /* \"https://github.com/OpenZeppelin/openzeppelin-contracts/blob/master/contracts/utils/math/SafeMath.sol\":2843:2844  b */\n      dup2\n        /* \"https://github.com/OpenZeppelin/openzeppelin-contracts/blob/master/contracts/utils/math/SafeMath.sol\":2839:2840  a */\n      dup4\n        /* \"https://github.com/OpenZeppelin/openzeppelin-contracts/blob/master/contracts/utils/math/SafeMath.sol\":2839:2844  a + b */\n      tag_134\n      swap2\n      swap1\n      tag_135\n      jump\t// in\n    tag_134:\n        /* \"https://github.com/OpenZeppelin/openzeppelin-contracts/blob/master/contracts/utils/math/SafeMath.sol\":2832:2844  return a + b */\n      swap1\n      pop\n        /* \"https://github.com/OpenZeppelin/openzeppelin-contracts/blob/master/contracts/utils/math/SafeMath.sol\":2755:2851  function add(uint256 a, uint256 b) internal pure returns (uint256) {... */\n      swap3\n      swap2\n      pop\n      pop\n      jump\t// out\n        /* \"https://github.com/OpenZeppelin/openzeppelin-contracts/blob/master/contracts/utils/Context.sol\":640:736  function _msgSender() internal view virtual returns (address) {... */\n    tag_52:\n        /* \"https://github.com/OpenZeppelin/openzeppelin-contracts/blob/master/contracts/utils/Context.sol\":693:700  address */\n      0x00\n        /* \"https://github.com/OpenZeppelin/openzeppelin-contracts/blob/master/contracts/utils/Context.sol\":719:729  msg.sender */\n      caller\n        /* \"https://github.com/OpenZeppelin/openzeppelin-contracts/blob/master/contracts/utils/Context.sol\":712:729  return msg.sender */\n      swap1\n      pop\n        /* \"https://github.com/OpenZeppelin/openzeppelin-contracts/blob/master/contracts/utils/Context.sol\":640:736  function _msgSender() internal view virtual returns (address) {... */\n      swap1\n      jump\t// out\n        /* \"contracts/SimpleVoting.sol\":6433:6583  function bytes32ToString(bytes32 byt) \r... */\n    tag_132:\n        /* \"contracts/SimpleVoting.sol\":6511:6524  string memory */\n      0x60\n        /* \"contracts/SimpleVoting.sol\":6570:6573  byt */\n      dup2\n        /* \"contracts/SimpleVoting.sol\":6552:6574  abi.encodePacked (byt) */\n      add(0x20, mload(0x40))\n      tag_138\n      swap2\n      swap1\n      tag_139\n      jump\t// in\n    tag_138:\n      mload(0x40)\n      0x20\n      dup2\n      dup4\n      sub\n      sub\n      dup2\n      mstore\n      swap1\n      0x40\n      mstore\n        /* \"contracts/SimpleVoting.sol\":6537:6575  return string (abi.encodePacked (byt)) */\n      swap1\n      pop\n        /* \"contracts/SimpleVoting.sol\":6433:6583  function bytes32ToString(bytes32 byt) \r... */\n      swap2\n      swap1\n      pop\n      jump\t// out\n        /* \"#utility.yul\":7:146   */\n    tag_141:\n        /* \"#utility.yul\":53:58   */\n      0x00\n        /* \"#utility.yul\":91:97   */\n      dup2\n        /* \"#utility.yul\":78:98   */\n      calldataload\n        /* \"#utility.yul\":69:98   */\n      swap1\n      pop\n        /* \"#utility.yul\":107:140   */\n      tag_143\n        /* \"#utility.yul\":134:139   */\n      dup2\n        /* \"#utility.yul\":107:140   */\n      tag_144\n      jump\t// in\n    tag_143:\n        /* \"#utility.yul\":7:146   */\n      swap3\n      swap2\n      pop\n      pop\n      jump\t// out\n        /* \"#utility.yul\":152:291   */\n    tag_145:\n        /* \"#utility.yul\":198:203   */\n      0x00\n        /* \"#utility.yul\":236:242   */\n      dup2\n        /* \"#utility.yul\":223:243   */\n      calldataload\n        /* \"#utility.yul\":214:243   */\n      swap1\n      pop\n        /* \"#utility.yul\":252:285   */\n      tag_147\n        /* \"#utility.yul\":279:284   */\n      dup2\n        /* \"#utility.yul\":252:285   */\n      tag_148\n      jump\t// in\n    tag_147:\n        /* \"#utility.yul\":152:291   */\n      swap3\n      swap2\n      pop\n      pop\n      jump\t// out\n        /* \"#utility.yul\":297:626   */\n    tag_24:\n        /* \"#utility.yul\":356:362   */\n      0x00\n        /* \"#utility.yul\":405:407   */\n      0x20\n        /* \"#utility.yul\":393:402   */\n      dup3\n        /* \"#utility.yul\":384:391   */\n      dup5\n        /* \"#utility.yul\":380:403   */\n      sub\n        /* \"#utility.yul\":376:408   */\n      slt\n        /* \"#utility.yul\":373:492   */\n      iszero\n      tag_150\n      jumpi\n        /* \"#utility.yul\":411:490   */\n      tag_151\n      tag_152\n      jump\t// in\n    tag_151:\n        /* \"#utility.yul\":373:492   */\n    tag_150:\n        /* \"#utility.yul\":531:532   */\n      0x00\n        /* \"#utility.yul\":556:609   */\n      tag_153\n        /* \"#utility.yul\":601:608   */\n      dup5\n        /* \"#utility.yul\":592:598   */\n      dup3\n        /* \"#utility.yul\":581:590   */\n      dup6\n        /* \"#utility.yul\":577:599   */\n      add\n        /* \"#utility.yul\":556:609   */\n      tag_141\n      jump\t// in\n    tag_153:\n        /* \"#utility.yul\":546:609   */\n      swap2\n      pop\n        /* \"#utility.yul\":502:619   */\n      pop\n        /* \"#utility.yul\":297:626   */\n      swap3\n      swap2\n      pop\n      pop\n      jump\t// out\n        /* \"#utility.yul\":632:961   */\n    tag_15:\n        /* \"#utility.yul\":691:697   */\n      0x00\n        /* \"#utility.yul\":740:742   */\n      0x20\n        /* \"#utility.yul\":728:737   */\n      dup3\n        /* \"#utility.yul\":719:726   */\n      dup5\n        /* \"#utility.yul\":715:738   */\n      sub\n        /* \"#utility.yul\":711:743   */\n      slt\n        /* \"#utility.yul\":708:827   */\n      iszero\n      tag_155\n      jumpi\n        /* \"#utility.yul\":746:825   */\n      tag_156\n      tag_152\n      jump\t// in\n    tag_156:\n        /* \"#utility.yul\":708:827   */\n    tag_155:\n        /* \"#utility.yul\":866:867   */\n      0x00\n        /* \"#utility.yul\":891:944   */\n      tag_157\n        /* \"#utility.yul\":936:943   */\n      dup5\n        /* \"#utility.yul\":927:933   */\n      dup3\n        /* \"#utility.yul\":916:925   */\n      dup6\n        /* \"#utility.yul\":912:934   */\n      add\n        /* \"#utility.yul\":891:944   */\n      tag_145\n      jump\t// in\n    tag_157:\n        /* \"#utility.yul\":881:944   */\n      swap2\n      pop\n        /* \"#utility.yul\":837:954   */\n      pop\n        /* \"#utility.yul\":632:961   */\n      swap3\n      swap2\n      pop\n      pop\n      jump\t// out\n        /* \"#utility.yul\":967:1085   */\n    tag_158:\n        /* \"#utility.yul\":1054:1078   */\n      tag_160\n        /* \"#utility.yul\":1072:1077   */\n      dup2\n        /* \"#utility.yul\":1054:1078   */\n      tag_161\n      jump\t// in\n    tag_160:\n        /* \"#utility.yul\":1049:1052   */\n      dup3\n        /* \"#utility.yul\":1042:1079   */\n      mstore\n        /* \"#utility.yul\":967:1085   */\n      pop\n      pop\n      jump\t// out\n        /* \"#utility.yul\":1091:1200   */\n    tag_162:\n        /* \"#utility.yul\":1172:1193   */\n      tag_164\n        /* \"#utility.yul\":1187:1192   */\n      dup2\n        /* \"#utility.yul\":1172:1193   */\n      tag_165\n      jump\t// in\n    tag_164:\n        /* \"#utility.yul\":1167:1170   */\n      dup3\n        /* \"#utility.yul\":1160:1194   */\n      mstore\n        /* \"#utility.yul\":1091:1200   */\n      pop\n      pop\n      jump\t// out\n        /* \"#utility.yul\":1206:1324   */\n    tag_166:\n        /* \"#utility.yul\":1293:1317   */\n      tag_168\n        /* \"#utility.yul\":1311:1316   */\n      dup2\n        /* \"#utility.yul\":1293:1317   */\n      tag_169\n      jump\t// in\n    tag_168:\n        /* \"#utility.yul\":1288:1291   */\n      dup3\n        /* \"#utility.yul\":1281:1318   */\n      mstore\n        /* \"#utility.yul\":1206:1324   */\n      pop\n      pop\n      jump\t// out\n        /* \"#utility.yul\":1330:1487   */\n    tag_170:\n        /* \"#utility.yul\":1435:1480   */\n      tag_172\n        /* \"#utility.yul\":1455:1479   */\n      tag_173\n        /* \"#utility.yul\":1473:1478   */\n      dup3\n        /* \"#utility.yul\":1455:1479   */\n      tag_169\n      jump\t// in\n    tag_173:\n        /* \"#utility.yul\":1435:1480   */\n      tag_174\n      jump\t// in\n    tag_172:\n        /* \"#utility.yul\":1430:1433   */\n      dup3\n        /* \"#utility.yul\":1423:1481   */\n      mstore\n        /* \"#utility.yul\":1330:1487   */\n      pop\n      pop\n      jump\t// out\n        /* \"#utility.yul\":1493:1857   */\n    tag_175:\n        /* \"#utility.yul\":1581:1584   */\n      0x00\n        /* \"#utility.yul\":1609:1648   */\n      tag_177\n        /* \"#utility.yul\":1642:1647   */\n      dup3\n        /* \"#utility.yul\":1609:1648   */\n      tag_178\n      jump\t// in\n    tag_177:\n        /* \"#utility.yul\":1664:1735   */\n      tag_179\n        /* \"#utility.yul\":1728:1734   */\n      dup2\n        /* \"#utility.yul\":1723:1726   */\n      dup6\n        /* \"#utility.yul\":1664:1735   */\n      tag_180\n      jump\t// in\n    tag_179:\n        /* \"#utility.yul\":1657:1735   */\n      swap4\n      pop\n        /* \"#utility.yul\":1744:1796   */\n      tag_181\n        /* \"#utility.yul\":1789:1795   */\n      dup2\n        /* \"#utility.yul\":1784:1787   */\n      dup6\n        /* \"#utility.yul\":1777:1781   */\n      0x20\n        /* \"#utility.yul\":1770:1775   */\n      dup7\n        /* \"#utility.yul\":1766:1782   */\n      add\n        /* \"#utility.yul\":1744:1796   */\n      tag_182\n      jump\t// in\n    tag_181:\n        /* \"#utility.yul\":1821:1850   */\n      tag_183\n        /* \"#utility.yul\":1843:1849   */\n      dup2\n        /* \"#utility.yul\":1821:1850   */\n      tag_184\n      jump\t// in\n    tag_183:\n        /* \"#utility.yul\":1816:1819   */\n      dup5\n        /* \"#utility.yul\":1812:1851   */\n      add\n        /* \"#utility.yul\":1805:1851   */\n      swap2\n      pop\n        /* \"#utility.yul\":1585:1857   */\n      pop\n        /* \"#utility.yul\":1493:1857   */\n      swap3\n      swap2\n      pop\n      pop\n      jump\t// out\n        /* \"#utility.yul\":1863:2229   */\n    tag_185:\n        /* \"#utility.yul\":2005:2008   */\n      0x00\n        /* \"#utility.yul\":2026:2093   */\n      tag_187\n        /* \"#utility.yul\":2090:2092   */\n      0x14\n        /* \"#utility.yul\":2085:2088   */\n      dup4\n        /* \"#utility.yul\":2026:2093   */\n      tag_180\n      jump\t// in\n    tag_187:\n        /* \"#utility.yul\":2019:2093   */\n      swap2\n      pop\n        /* \"#utility.yul\":2102:2195   */\n      tag_188\n        /* \"#utility.yul\":2191:2194   */\n      dup3\n        /* \"#utility.yul\":2102:2195   */\n      tag_189\n      jump\t// in\n    tag_188:\n        /* \"#utility.yul\":2220:2222   */\n      0x20\n        /* \"#utility.yul\":2215:2218   */\n      dup3\n        /* \"#utility.yul\":2211:2223   */\n      add\n        /* \"#utility.yul\":2204:2223   */\n      swap1\n      pop\n        /* \"#utility.yul\":1863:2229   */\n      swap2\n      swap1\n      pop\n      jump\t// out\n        /* \"#utility.yul\":2235:2601   */\n    tag_190:\n        /* \"#utility.yul\":2377:2380   */\n      0x00\n        /* \"#utility.yul\":2398:2465   */\n      tag_192\n        /* \"#utility.yul\":2462:2464   */\n      0x2a\n        /* \"#utility.yul\":2457:2460   */\n      dup4\n        /* \"#utility.yul\":2398:2465   */\n      tag_180\n      jump\t// in\n    tag_192:\n        /* \"#utility.yul\":2391:2465   */\n      swap2\n      pop\n        /* \"#utility.yul\":2474:2567   */\n      tag_193\n        /* \"#utility.yul\":2563:2566   */\n      dup3\n        /* \"#utility.yul\":2474:2567   */\n      tag_194\n      jump\t// in\n    tag_193:\n        /* \"#utility.yul\":2592:2594   */\n      0x40\n        /* \"#utility.yul\":2587:2590   */\n      dup3\n        /* \"#utility.yul\":2583:2595   */\n      add\n        /* \"#utility.yul\":2576:2595   */\n      swap1\n      pop\n        /* \"#utility.yul\":2235:2601   */\n      swap2\n      swap1\n      pop\n      jump\t// out\n        /* \"#utility.yul\":2607:2973   */\n    tag_195:\n        /* \"#utility.yul\":2749:2752   */\n      0x00\n        /* \"#utility.yul\":2770:2837   */\n      tag_197\n        /* \"#utility.yul\":2834:2836   */\n      0x0e\n        /* \"#utility.yul\":2829:2832   */\n      dup4\n        /* \"#utility.yul\":2770:2837   */\n      tag_180\n      jump\t// in\n    tag_197:\n        /* \"#utility.yul\":2763:2837   */\n      swap2\n      pop\n        /* \"#utility.yul\":2846:2939   */\n      tag_198\n        /* \"#utility.yul\":2935:2938   */\n      dup3\n        /* \"#utility.yul\":2846:2939   */\n      tag_199\n      jump\t// in\n    tag_198:\n        /* \"#utility.yul\":2964:2966   */\n      0x20\n        /* \"#utility.yul\":2959:2962   */\n      dup3\n        /* \"#utility.yul\":2955:2967   */\n      add\n        /* \"#utility.yul\":2948:2967   */\n      swap1\n      pop\n        /* \"#utility.yul\":2607:2973   */\n      swap2\n      swap1\n      pop\n      jump\t// out\n        /* \"#utility.yul\":2979:3345   */\n    tag_200:\n        /* \"#utility.yul\":3121:3124   */\n      0x00\n        /* \"#utility.yul\":3142:3209   */\n      tag_202\n        /* \"#utility.yul\":3206:3208   */\n      0x36\n        /* \"#utility.yul\":3201:3204   */\n      dup4\n        /* \"#utility.yul\":3142:3209   */\n      tag_180\n      jump\t// in\n    tag_202:\n        /* \"#utility.yul\":3135:3209   */\n      swap2\n      pop\n        /* \"#utility.yul\":3218:3311   */\n      tag_203\n        /* \"#utility.yul\":3307:3310   */\n      dup3\n        /* \"#utility.yul\":3218:3311   */\n      tag_204\n      jump\t// in\n    tag_203:\n        /* \"#utility.yul\":3336:3338   */\n      0x40\n        /* \"#utility.yul\":3331:3334   */\n      dup3\n        /* \"#utility.yul\":3327:3339   */\n      add\n        /* \"#utility.yul\":3320:3339   */\n      swap1\n      pop\n        /* \"#utility.yul\":2979:3345   */\n      swap2\n      swap1\n      pop\n      jump\t// out\n        /* \"#utility.yul\":3351:3717   */\n    tag_205:\n        /* \"#utility.yul\":3493:3496   */\n      0x00\n        /* \"#utility.yul\":3514:3581   */\n      tag_207\n        /* \"#utility.yul\":3578:3580   */\n      0x2d\n        /* \"#utility.yul\":3573:3576   */\n      dup4\n        /* \"#utility.yul\":3514:3581   */\n      tag_180\n      jump\t// in\n    tag_207:\n        /* \"#utility.yul\":3507:3581   */\n      swap2\n      pop\n        /* \"#utility.yul\":3590:3683   */\n      tag_208\n        /* \"#utility.yul\":3679:3682   */\n      dup3\n        /* \"#utility.yul\":3590:3683   */\n      tag_209\n      jump\t// in\n    tag_208:\n        /* \"#utility.yul\":3708:3710   */\n      0x40\n        /* \"#utility.yul\":3703:3706   */\n      dup3\n        /* \"#utility.yul\":3699:3711   */\n      add\n        /* \"#utility.yul\":3692:3711   */\n      swap1\n      pop\n        /* \"#utility.yul\":3351:3717   */\n      swap2\n      swap1\n      pop\n      jump\t// out\n        /* \"#utility.yul\":3723:4089   */\n    tag_210:\n        /* \"#utility.yul\":3865:3868   */\n      0x00\n        /* \"#utility.yul\":3886:3953   */\n      tag_212\n        /* \"#utility.yul\":3950:3952   */\n      0x30\n        /* \"#utility.yul\":3945:3948   */\n      dup4\n        /* \"#utility.yul\":3886:3953   */\n      tag_180\n      jump\t// in\n    tag_212:\n        /* \"#utility.yul\":3879:3953   */\n      swap2\n      pop\n        /* \"#utility.yul\":3962:4055   */\n      tag_213\n        /* \"#utility.yul\":4051:4054   */\n      dup3\n        /* \"#utility.yul\":3962:4055   */\n      tag_214\n      jump\t// in\n    tag_213:\n        /* \"#utility.yul\":4080:4082   */\n      0x40\n        /* \"#utility.yul\":4075:4078   */\n      dup3\n        /* \"#utility.yul\":4071:4083   */\n      add\n        /* \"#utility.yul\":4064:4083   */\n      swap1\n      pop\n        /* \"#utility.yul\":3723:4089   */\n      swap2\n      swap1\n      pop\n      jump\t// out\n        /* \"#utility.yul\":4095:4461   */\n    tag_215:\n        /* \"#utility.yul\":4237:4240   */\n      0x00\n        /* \"#utility.yul\":4258:4325   */\n      tag_217\n        /* \"#utility.yul\":4322:4324   */\n      0x2b\n        /* \"#utility.yul\":4317:4320   */\n      dup4\n        /* \"#utility.yul\":4258:4325   */\n      tag_180\n      jump\t// in\n    tag_217:\n        /* \"#utility.yul\":4251:4325   */\n      swap2\n      pop\n        /* \"#utility.yul\":4334:4427   */\n      tag_218\n        /* \"#utility.yul\":4423:4426   */\n      dup3\n        /* \"#utility.yul\":4334:4427   */\n      tag_219\n      jump\t// in\n    tag_218:\n        /* \"#utility.yul\":4452:4454   */\n      0x40\n        /* \"#utility.yul\":4447:4450   */\n      dup3\n        /* \"#utility.yul\":4443:4455   */\n      add\n        /* \"#utility.yul\":4436:4455   */\n      swap1\n      pop\n        /* \"#utility.yul\":4095:4461   */\n      swap2\n      swap1\n      pop\n      jump\t// out\n        /* \"#utility.yul\":4467:4833   */\n    tag_220:\n        /* \"#utility.yul\":4609:4612   */\n      0x00\n        /* \"#utility.yul\":4630:4697   */\n      tag_222\n        /* \"#utility.yul\":4694:4696   */\n      0x2f\n        /* \"#utility.yul\":4689:4692   */\n      dup4\n        /* \"#utility.yul\":4630:4697   */\n      tag_180\n      jump\t// in\n    tag_222:\n        /* \"#utility.yul\":4623:4697   */\n      swap2\n      pop\n        /* \"#utility.yul\":4706:4799   */\n      tag_223\n        /* \"#utility.yul\":4795:4798   */\n      dup3\n        /* \"#utility.yul\":4706:4799   */\n      tag_224\n      jump\t// in\n    tag_223:\n        /* \"#utility.yul\":4824:4826   */\n      0x40\n        /* \"#utility.yul\":4819:4822   */\n      dup3\n        /* \"#utility.yul\":4815:4827   */\n      add\n        /* \"#utility.yul\":4808:4827   */\n      swap1\n      pop\n        /* \"#utility.yul\":4467:4833   */\n      swap2\n      swap1\n      pop\n      jump\t// out\n        /* \"#utility.yul\":4839:4957   */\n    tag_225:\n        /* \"#utility.yul\":4926:4950   */\n      tag_227\n        /* \"#utility.yul\":4944:4949   */\n      dup2\n        /* \"#utility.yul\":4926:4950   */\n      tag_228\n      jump\t// in\n    tag_227:\n        /* \"#utility.yul\":4921:4924   */\n      dup3\n        /* \"#utility.yul\":4914:4951   */\n      mstore\n        /* \"#utility.yul\":4839:4957   */\n      pop\n      pop\n      jump\t// out\n        /* \"#utility.yul\":4963:5219   */\n    tag_139:\n        /* \"#utility.yul\":5075:5078   */\n      0x00\n        /* \"#utility.yul\":5090:5165   */\n      tag_230\n        /* \"#utility.yul\":5161:5164   */\n      dup3\n        /* \"#utility.yul\":5152:5158   */\n      dup5\n        /* \"#utility.yul\":5090:5165   */\n      tag_170\n      jump\t// in\n    tag_230:\n        /* \"#utility.yul\":5190:5192   */\n      0x20\n        /* \"#utility.yul\":5185:5188   */\n      dup3\n        /* \"#utility.yul\":5181:5193   */\n      add\n        /* \"#utility.yul\":5174:5193   */\n      swap2\n      pop\n        /* \"#utility.yul\":5210:5213   */\n      dup2\n        /* \"#utility.yul\":5203:5213   */\n      swap1\n      pop\n        /* \"#utility.yul\":4963:5219   */\n      swap3\n      swap2\n      pop\n      pop\n      jump\t// out\n        /* \"#utility.yul\":5225:5447   */\n    tag_41:\n        /* \"#utility.yul\":5318:5322   */\n      0x00\n        /* \"#utility.yul\":5356:5358   */\n      0x20\n        /* \"#utility.yul\":5345:5354   */\n      dup3\n        /* \"#utility.yul\":5341:5359   */\n      add\n        /* \"#utility.yul\":5333:5359   */\n      swap1\n      pop\n        /* \"#utility.yul\":5369:5440   */\n      tag_232\n        /* \"#utility.yul\":5437:5438   */\n      0x00\n        /* \"#utility.yul\":5426:5435   */\n      dup4\n        /* \"#utility.yul\":5422:5439   */\n      add\n        /* \"#utility.yul\":5413:5419   */\n      dup5\n        /* \"#utility.yul\":5369:5440   */\n      tag_158\n      jump\t// in\n    tag_232:\n        /* \"#utility.yul\":5225:5447   */\n      swap3\n      swap2\n      pop\n      pop\n      jump\t// out\n        /* \"#utility.yul\":5453:5785   */\n    tag_21:\n        /* \"#utility.yul\":5574:5578   */\n      0x00\n        /* \"#utility.yul\":5612:5614   */\n      0x40\n        /* \"#utility.yul\":5601:5610   */\n      dup3\n        /* \"#utility.yul\":5597:5615   */\n      add\n        /* \"#utility.yul\":5589:5615   */\n      swap1\n      pop\n        /* \"#utility.yul\":5625:5696   */\n      tag_234\n        /* \"#utility.yul\":5693:5694   */\n      0x00\n        /* \"#utility.yul\":5682:5691   */\n      dup4\n        /* \"#utility.yul\":5678:5695   */\n      add\n        /* \"#utility.yul\":5669:5675   */\n      dup6\n        /* \"#utility.yul\":5625:5696   */\n      tag_166\n      jump\t// in\n    tag_234:\n        /* \"#utility.yul\":5706:5778   */\n      tag_235\n        /* \"#utility.yul\":5774:5776   */\n      0x20\n        /* \"#utility.yul\":5763:5772   */\n      dup4\n        /* \"#utility.yul\":5759:5777   */\n      add\n        /* \"#utility.yul\":5750:5756   */\n      dup5\n        /* \"#utility.yul\":5706:5778   */\n      tag_225\n      jump\t// in\n    tag_235:\n        /* \"#utility.yul\":5453:5785   */\n      swap4\n      swap3\n      pop\n      pop\n      pop\n      jump\t// out\n        /* \"#utility.yul\":5791:6104   */\n    tag_48:\n        /* \"#utility.yul\":5904:5908   */\n      0x00\n        /* \"#utility.yul\":5942:5944   */\n      0x20\n        /* \"#utility.yul\":5931:5940   */\n      dup3\n        /* \"#utility.yul\":5927:5945   */\n      add\n        /* \"#utility.yul\":5919:5945   */\n      swap1\n      pop\n        /* \"#utility.yul\":5991:6000   */\n      dup2\n        /* \"#utility.yul\":5985:5989   */\n      dup2\n        /* \"#utility.yul\":5981:6001   */\n      sub\n        /* \"#utility.yul\":5977:5978   */\n      0x00\n        /* \"#utility.yul\":5966:5975   */\n      dup4\n        /* \"#utility.yul\":5962:5979   */\n      add\n        /* \"#utility.yul\":5955:6002   */\n      mstore\n        /* \"#utility.yul\":6019:6097   */\n      tag_237\n        /* \"#utility.yul\":6092:6096   */\n      dup2\n        /* \"#utility.yul\":6083:6089   */\n      dup5\n        /* \"#utility.yul\":6019:6097   */\n      tag_175\n      jump\t// in\n    tag_237:\n        /* \"#utility.yul\":6011:6097   */\n      swap1\n      pop\n        /* \"#utility.yul\":5791:6104   */\n      swap3\n      swap2\n      pop\n      pop\n      jump\t// out\n        /* \"#utility.yul\":6110:6529   */\n    tag_55:\n        /* \"#utility.yul\":6276:6280   */\n      0x00\n        /* \"#utility.yul\":6314:6316   */\n      0x20\n        /* \"#utility.yul\":6303:6312   */\n      dup3\n        /* \"#utility.yul\":6299:6317   */\n      add\n        /* \"#utility.yul\":6291:6317   */\n      swap1\n      pop\n        /* \"#utility.yul\":6363:6372   */\n      dup2\n        /* \"#utility.yul\":6357:6361   */\n      dup2\n        /* \"#utility.yul\":6353:6373   */\n      sub\n        /* \"#utility.yul\":6349:6350   */\n      0x00\n        /* \"#utility.yul\":6338:6347   */\n      dup4\n        /* \"#utility.yul\":6334:6351   */\n      add\n        /* \"#utility.yul\":6327:6374   */\n      mstore\n        /* \"#utility.yul\":6391:6522   */\n      tag_239\n        /* \"#utility.yul\":6517:6521   */\n      dup2\n        /* \"#utility.yul\":6391:6522   */\n      tag_185\n      jump\t// in\n    tag_239:\n        /* \"#utility.yul\":6383:6522   */\n      swap1\n      pop\n        /* \"#utility.yul\":6110:6529   */\n      swap2\n      swap1\n      pop\n      jump\t// out\n        /* \"#utility.yul\":6535:6954   */\n    tag_78:\n        /* \"#utility.yul\":6701:6705   */\n      0x00\n        /* \"#utility.yul\":6739:6741   */\n      0x20\n        /* \"#utility.yul\":6728:6737   */\n      dup3\n        /* \"#utility.yul\":6724:6742   */\n      add\n        /* \"#utility.yul\":6716:6742   */\n      swap1\n      pop\n        /* \"#utility.yul\":6788:6797   */\n      dup2\n        /* \"#utility.yul\":6782:6786   */\n      dup2\n        /* \"#utility.yul\":6778:6798   */\n      sub\n        /* \"#utility.yul\":6774:6775   */\n      0x00\n        /* \"#utility.yul\":6763:6772   */\n      dup4\n        /* \"#utility.yul\":6759:6776   */\n      add\n        /* \"#utility.yul\":6752:6799   */\n      mstore\n        /* \"#utility.yul\":6816:6947   */\n      tag_241\n        /* \"#utility.yul\":6942:6946   */\n      dup2\n        /* \"#utility.yul\":6816:6947   */\n      tag_190\n      jump\t// in\n    tag_241:\n        /* \"#utility.yul\":6808:6947   */\n      swap1\n      pop\n        /* \"#utility.yul\":6535:6954   */\n      swap2\n      swap1\n      pop\n      jump\t// out\n        /* \"#utility.yul\":6960:7379   */\n    tag_58:\n        /* \"#utility.yul\":7126:7130   */\n      0x00\n        /* \"#utility.yul\":7164:7166   */\n      0x20\n        /* \"#utility.yul\":7153:7162   */\n      dup3\n        /* \"#utility.yul\":7149:7167   */\n      add\n        /* \"#utility.yul\":7141:7167   */\n      swap1\n      pop\n        /* \"#utility.yul\":7213:7222   */\n      dup2\n        /* \"#utility.yul\":7207:7211   */\n      dup2\n        /* \"#utility.yul\":7203:7223   */\n      sub\n        /* \"#utility.yul\":7199:7200   */\n      0x00\n        /* \"#utility.yul\":7188:7197   */\n      dup4\n        /* \"#utility.yul\":7184:7201   */\n      add\n        /* \"#utility.yul\":7177:7224   */\n      mstore\n        /* \"#utility.yul\":7241:7372   */\n      tag_243\n        /* \"#utility.yul\":7367:7371   */\n      dup2\n        /* \"#utility.yul\":7241:7372   */\n      tag_195\n      jump\t// in\n    tag_243:\n        /* \"#utility.yul\":7233:7372   */\n      swap1\n      pop\n        /* \"#utility.yul\":6960:7379   */\n      swap2\n      swap1\n      pop\n      jump\t// out\n        /* \"#utility.yul\":7385:7804   */\n    tag_118:\n        /* \"#utility.yul\":7551:7555   */\n      0x00\n        /* \"#utility.yul\":7589:7591   */\n      0x20\n        /* \"#utility.yul\":7578:7587   */\n      dup3\n        /* \"#utility.yul\":7574:7592   */\n      add\n        /* \"#utility.yul\":7566:7592   */\n      swap1\n      pop\n        /* \"#utility.yul\":7638:7647   */\n      dup2\n        /* \"#utility.yul\":7632:7636   */\n      dup2\n        /* \"#utility.yul\":7628:7648   */\n      sub\n        /* \"#utility.yul\":7624:7625   */\n      0x00\n        /* \"#utility.yul\":7613:7622   */\n      dup4\n        /* \"#utility.yul\":7609:7626   */\n      add\n        /* \"#utility.yul\":7602:7649   */\n      mstore\n        /* \"#utility.yul\":7666:7797   */\n      tag_245\n        /* \"#utility.yul\":7792:7796   */\n      dup2\n        /* \"#utility.yul\":7666:7797   */\n      tag_200\n      jump\t// in\n    tag_245:\n        /* \"#utility.yul\":7658:7797   */\n      swap1\n      pop\n        /* \"#utility.yul\":7385:7804   */\n      swap2\n      swap1\n      pop\n      jump\t// out\n        /* \"#utility.yul\":7810:8229   */\n    tag_84:\n        /* \"#utility.yul\":7976:7980   */\n      0x00\n        /* \"#utility.yul\":8014:8016   */\n      0x20\n        /* \"#utility.yul\":8003:8012   */\n      dup3\n        /* \"#utility.yul\":7999:8017   */\n      add\n        /* \"#utility.yul\":7991:8017   */\n      swap1\n      pop\n        /* \"#utility.yul\":8063:8072   */\n      dup2\n        /* \"#utility.yul\":8057:8061   */\n      dup2\n        /* \"#utility.yul\":8053:8073   */\n      sub\n        /* \"#utility.yul\":8049:8050   */\n      0x00\n        /* \"#utility.yul\":8038:8047   */\n      dup4\n        /* \"#utility.yul\":8034:8051   */\n      add\n        /* \"#utility.yul\":8027:8074   */\n      mstore\n        /* \"#utility.yul\":8091:8222   */\n      tag_247\n        /* \"#utility.yul\":8217:8221   */\n      dup2\n        /* \"#utility.yul\":8091:8222   */\n      tag_205\n      jump\t// in\n    tag_247:\n        /* \"#utility.yul\":8083:8222   */\n      swap1\n      pop\n        /* \"#utility.yul\":7810:8229   */\n      swap2\n      swap1\n      pop\n      jump\t// out\n        /* \"#utility.yul\":8235:8654   */\n    tag_125:\n        /* \"#utility.yul\":8401:8405   */\n      0x00\n        /* \"#utility.yul\":8439:8441   */\n      0x20\n        /* \"#utility.yul\":8428:8437   */\n      dup3\n        /* \"#utility.yul\":8424:8442   */\n      add\n        /* \"#utility.yul\":8416:8442   */\n      swap1\n      pop\n        /* \"#utility.yul\":8488:8497   */\n      dup2\n        /* \"#utility.yul\":8482:8486   */\n      dup2\n        /* \"#utility.yul\":8478:8498   */\n      sub\n        /* \"#utility.yul\":8474:8475   */\n      0x00\n        /* \"#utility.yul\":8463:8472   */\n      dup4\n        /* \"#utility.yul\":8459:8476   */\n      add\n        /* \"#utility.yul\":8452:8499   */\n      mstore\n        /* \"#utility.yul\":8516:8647   */\n      tag_249\n        /* \"#utility.yul\":8642:8646   */\n      dup2\n        /* \"#utility.yul\":8516:8647   */\n      tag_210\n      jump\t// in\n    tag_249:\n        /* \"#utility.yul\":8508:8647   */\n      swap1\n      pop\n        /* \"#utility.yul\":8235:8654   */\n      swap2\n      swap1\n      pop\n      jump\t// out\n        /* \"#utility.yul\":8660:9079   */\n    tag_61:\n        /* \"#utility.yul\":8826:8830   */\n      0x00\n        /* \"#utility.yul\":8864:8866   */\n      0x20\n        /* \"#utility.yul\":8853:8862   */\n      dup3\n        /* \"#utility.yul\":8849:8867   */\n      add\n        /* \"#utility.yul\":8841:8867   */\n      swap1\n      pop\n        /* \"#utility.yul\":8913:8922   */\n      dup2\n        /* \"#utility.yul\":8907:8911   */\n      dup2\n        /* \"#utility.yul\":8903:8923   */\n      sub\n        /* \"#utility.yul\":8899:8900   */\n      0x00\n        /* \"#utility.yul\":8888:8897   */\n      dup4\n        /* \"#utility.yul\":8884:8901   */\n      add\n        /* \"#utility.yul\":8877:8924   */\n      mstore\n        /* \"#utility.yul\":8941:9072   */\n      tag_251\n        /* \"#utility.yul\":9067:9071   */\n      dup2\n        /* \"#utility.yul\":8941:9072   */\n      tag_215\n      jump\t// in\n    tag_251:\n        /* \"#utility.yul\":8933:9072   */\n      swap1\n      pop\n        /* \"#utility.yul\":8660:9079   */\n      swap2\n      swap1\n      pop\n      jump\t// out\n        /* \"#utility.yul\":9085:9504   */\n    tag_90:\n        /* \"#utility.yul\":9251:9255   */\n      0x00\n        /* \"#utility.yul\":9289:9291   */\n      0x20\n        /* \"#utility.yul\":9278:9287   */\n      dup3\n        /* \"#utility.yul\":9274:9292   */\n      add\n        /* \"#utility.yul\":9266:9292   */\n      swap1\n      pop\n        /* \"#utility.yul\":9338:9347   */\n      dup2\n        /* \"#utility.yul\":9332:9336   */\n      dup2\n        /* \"#utility.yul\":9328:9348   */\n      sub\n        /* \"#utility.yul\":9324:9325   */\n      0x00\n        /* \"#utility.yul\":9313:9322   */\n      dup4\n        /* \"#utility.yul\":9309:9326   */\n      add\n        /* \"#utility.yul\":9302:9349   */\n      mstore\n        /* \"#utility.yul\":9366:9497   */\n      tag_253\n        /* \"#utility.yul\":9492:9496   */\n      dup2\n        /* \"#utility.yul\":9366:9497   */\n      tag_220\n      jump\t// in\n    tag_253:\n        /* \"#utility.yul\":9358:9497   */\n      swap1\n      pop\n        /* \"#utility.yul\":9085:9504   */\n      swap2\n      swap1\n      pop\n      jump\t// out\n        /* \"#utility.yul\":9510:9732   */\n    tag_29:\n        /* \"#utility.yul\":9603:9607   */\n      0x00\n        /* \"#utility.yul\":9641:9643   */\n      0x20\n        /* \"#utility.yul\":9630:9639   */\n      dup3\n        /* \"#utility.yul\":9626:9644   */\n      add\n        /* \"#utility.yul\":9618:9644   */\n      swap1\n      pop\n        /* \"#utility.yul\":9654:9725   */\n      tag_255\n        /* \"#utility.yul\":9722:9723   */\n      0x00\n        /* \"#utility.yul\":9711:9720   */\n      dup4\n        /* \"#utility.yul\":9707:9724   */\n      add\n        /* \"#utility.yul\":9698:9704   */\n      dup5\n        /* \"#utility.yul\":9654:9725   */\n      tag_225\n      jump\t// in\n    tag_255:\n        /* \"#utility.yul\":9510:9732   */\n      swap3\n      swap2\n      pop\n      pop\n      jump\t// out\n        /* \"#utility.yul\":9738:10279   */\n    tag_37:\n        /* \"#utility.yul\":9909:9913   */\n      0x00\n        /* \"#utility.yul\":9947:9950   */\n      0x80\n        /* \"#utility.yul\":9936:9945   */\n      dup3\n        /* \"#utility.yul\":9932:9951   */\n      add\n        /* \"#utility.yul\":9924:9951   */\n      swap1\n      pop\n        /* \"#utility.yul\":9961:10032   */\n      tag_257\n        /* \"#utility.yul\":10029:10030   */\n      0x00\n        /* \"#utility.yul\":10018:10027   */\n      dup4\n        /* \"#utility.yul\":10014:10031   */\n      add\n        /* \"#utility.yul\":10005:10011   */\n      dup8\n        /* \"#utility.yul\":9961:10032   */\n      tag_225\n      jump\t// in\n    tag_257:\n        /* \"#utility.yul\":10042:10108   */\n      tag_258\n        /* \"#utility.yul\":10104:10106   */\n      0x20\n        /* \"#utility.yul\":10093:10102   */\n      dup4\n        /* \"#utility.yul\":10089:10107   */\n      add\n        /* \"#utility.yul\":10080:10086   */\n      dup7\n        /* \"#utility.yul\":10042:10108   */\n      tag_162\n      jump\t// in\n    tag_258:\n        /* \"#utility.yul\":10118:10190   */\n      tag_259\n        /* \"#utility.yul\":10186:10188   */\n      0x40\n        /* \"#utility.yul\":10175:10184   */\n      dup4\n        /* \"#utility.yul\":10171:10189   */\n      add\n        /* \"#utility.yul\":10162:10168   */\n      dup6\n        /* \"#utility.yul\":10118:10190   */\n      tag_158\n      jump\t// in\n    tag_259:\n        /* \"#utility.yul\":10200:10272   */\n      tag_260\n        /* \"#utility.yul\":10268:10270   */\n      0x60\n        /* \"#utility.yul\":10257:10266   */\n      dup4\n        /* \"#utility.yul\":10253:10271   */\n      add\n        /* \"#utility.yul\":10244:10250   */\n      dup5\n        /* \"#utility.yul\":10200:10272   */\n      tag_225\n      jump\t// in\n    tag_260:\n        /* \"#utility.yul\":9738:10279   */\n      swap6\n      swap5\n      pop\n      pop\n      pop\n      pop\n      pop\n      jump\t// out\n        /* \"#utility.yul\":10366:10465   */\n    tag_178:\n        /* \"#utility.yul\":10418:10424   */\n      0x00\n        /* \"#utility.yul\":10452:10457   */\n      dup2\n        /* \"#utility.yul\":10446:10458   */\n      mload\n        /* \"#utility.yul\":10436:10458   */\n      swap1\n      pop\n        /* \"#utility.yul\":10366:10465   */\n      swap2\n      swap1\n      pop\n      jump\t// out\n        /* \"#utility.yul\":10471:10640   */\n    tag_180:\n        /* \"#utility.yul\":10555:10566   */\n      0x00\n        /* \"#utility.yul\":10589:10595   */\n      dup3\n        /* \"#utility.yul\":10584:10587   */\n      dup3\n        /* \"#utility.yul\":10577:10596   */\n      mstore\n        /* \"#utility.yul\":10629:10633   */\n      0x20\n        /* \"#utility.yul\":10624:10627   */\n      dup3\n        /* \"#utility.yul\":10620:10634   */\n      add\n        /* \"#utility.yul\":10605:10634   */\n      swap1\n      pop\n        /* \"#utility.yul\":10471:10640   */\n      swap3\n      swap2\n      pop\n      pop\n      jump\t// out\n        /* \"#utility.yul\":10646:10951   */\n    tag_135:\n        /* \"#utility.yul\":10686:10689   */\n      0x00\n        /* \"#utility.yul\":10705:10725   */\n      tag_266\n        /* \"#utility.yul\":10723:10724   */\n      dup3\n        /* \"#utility.yul\":10705:10725   */\n      tag_228\n      jump\t// in\n    tag_266:\n        /* \"#utility.yul\":10700:10725   */\n      swap2\n      pop\n        /* \"#utility.yul\":10739:10759   */\n      tag_267\n        /* \"#utility.yul\":10757:10758   */\n      dup4\n        /* \"#utility.yul\":10739:10759   */\n      tag_228\n      jump\t// in\n    tag_267:\n        /* \"#utility.yul\":10734:10759   */\n      swap3\n      pop\n        /* \"#utility.yul\":10893:10894   */\n      dup3\n        /* \"#utility.yul\":10825:10891   */\n      0xffffffffffffffffffffffffffffffffffffffffffffffffffffffffffffffff\n        /* \"#utility.yul\":10821:10895   */\n      sub\n        /* \"#utility.yul\":10818:10819   */\n      dup3\n        /* \"#utility.yul\":10815:10896   */\n      gt\n        /* \"#utility.yul\":10812:10919   */\n      iszero\n      tag_268\n      jumpi\n        /* \"#utility.yul\":10899:10917   */\n      tag_269\n      tag_270\n      jump\t// in\n    tag_269:\n        /* \"#utility.yul\":10812:10919   */\n    tag_268:\n        /* \"#utility.yul\":10943:10944   */\n      dup3\n        /* \"#utility.yul\":10940:10941   */\n      dup3\n        /* \"#utility.yul\":10936:10945   */\n      add\n        /* \"#utility.yul\":10929:10945   */\n      swap1\n      pop\n        /* \"#utility.yul\":10646:10951   */\n      swap3\n      swap2\n      pop\n      pop\n      jump\t// out\n        /* \"#utility.yul\":10957:11053   */\n    tag_161:\n        /* \"#utility.yul\":10994:11001   */\n      0x00\n        /* \"#utility.yul\":11023:11047   */\n      tag_272\n        /* \"#utility.yul\":11041:11046   */\n      dup3\n        /* \"#utility.yul\":11023:11047   */\n      tag_273\n      jump\t// in\n    tag_272:\n        /* \"#utility.yul\":11012:11047   */\n      swap1\n      pop\n        /* \"#utility.yul\":10957:11053   */\n      swap2\n      swap1\n      pop\n      jump\t// out\n        /* \"#utility.yul\":11059:11149   */\n    tag_165:\n        /* \"#utility.yul\":11093:11100   */\n      0x00\n        /* \"#utility.yul\":11136:11141   */\n      dup2\n        /* \"#utility.yul\":11129:11142   */\n      iszero\n        /* \"#utility.yul\":11122:11143   */\n      iszero\n        /* \"#utility.yul\":11111:11143   */\n      swap1\n      pop\n        /* \"#utility.yul\":11059:11149   */\n      swap2\n      swap1\n      pop\n      jump\t// out\n        /* \"#utility.yul\":11155:11232   */\n    tag_169:\n        /* \"#utility.yul\":11192:11199   */\n      0x00\n        /* \"#utility.yul\":11221:11226   */\n      dup2\n        /* \"#utility.yul\":11210:11226   */\n      swap1\n      pop\n        /* \"#utility.yul\":11155:11232   */\n      swap2\n      swap1\n      pop\n      jump\t// out\n        /* \"#utility.yul\":11238:11364   */\n    tag_273:\n        /* \"#utility.yul\":11275:11282   */\n      0x00\n        /* \"#utility.yul\":11315:11357   */\n      0xffffffffffffffffffffffffffffffffffffffff\n        /* \"#utility.yul\":11308:11313   */\n      dup3\n        /* \"#utility.yul\":11304:11358   */\n      and\n        /* \"#utility.yul\":11293:11358   */\n      swap1\n      pop\n        /* \"#utility.yul\":11238:11364   */\n      swap2\n      swap1\n      pop\n      jump\t// out\n        /* \"#utility.yul\":11370:11447   */\n    tag_228:\n        /* \"#utility.yul\":11407:11414   */\n      0x00\n        /* \"#utility.yul\":11436:11441   */\n      dup2\n        /* \"#utility.yul\":11425:11441   */\n      swap1\n      pop\n        /* \"#utility.yul\":11370:11447   */\n      swap2\n      swap1\n      pop\n      jump\t// out\n        /* \"#utility.yul\":11453:11760   */\n    tag_182:\n        /* \"#utility.yul\":11521:11522   */\n      0x00\n        /* \"#utility.yul\":11531:11644   */\n    tag_279:\n        /* \"#utility.yul\":11545:11551   */\n      dup4\n        /* \"#utility.yul\":11542:11543   */\n      dup2\n        /* \"#utility.yul\":11539:11552   */\n      lt\n        /* \"#utility.yul\":11531:11644   */\n      iszero\n      tag_281\n      jumpi\n        /* \"#utility.yul\":11630:11631   */\n      dup1\n        /* \"#utility.yul\":11625:11628   */\n      dup3\n        /* \"#utility.yul\":11621:11632   */\n      add\n        /* \"#utility.yul\":11615:11633   */\n      mload\n        /* \"#utility.yul\":11611:11612   */\n      dup2\n        /* \"#utility.yul\":11606:11609   */\n      dup5\n        /* \"#utility.yul\":11602:11613   */\n      add\n        /* \"#utility.yul\":11595:11634   */\n      mstore\n        /* \"#utility.yul\":11567:11569   */\n      0x20\n        /* \"#utility.yul\":11564:11565   */\n      dup2\n        /* \"#utility.yul\":11560:11570   */\n      add\n        /* \"#utility.yul\":11555:11570   */\n      swap1\n      pop\n        /* \"#utility.yul\":11531:11644   */\n      jump(tag_279)\n    tag_281:\n        /* \"#utility.yul\":11662:11668   */\n      dup4\n        /* \"#utility.yul\":11659:11660   */\n      dup2\n        /* \"#utility.yul\":11656:11669   */\n      gt\n        /* \"#utility.yul\":11653:11754   */\n      iszero\n      tag_282\n      jumpi\n        /* \"#utility.yul\":11742:11743   */\n      0x00\n        /* \"#utility.yul\":11733:11739   */\n      dup5\n        /* \"#utility.yul\":11728:11731   */\n      dup5\n        /* \"#utility.yul\":11724:11740   */\n      add\n        /* \"#utility.yul\":11717:11744   */\n      mstore\n        /* \"#utility.yul\":11653:11754   */\n    tag_282:\n        /* \"#utility.yul\":11502:11760   */\n      pop\n        /* \"#utility.yul\":11453:11760   */\n      pop\n      pop\n      pop\n      jump\t// out\n        /* \"#utility.yul\":11766:11845   */\n    tag_174:\n        /* \"#utility.yul\":11805:11812   */\n      0x00\n        /* \"#utility.yul\":11834:11839   */\n      dup2\n        /* \"#utility.yul\":11823:11839   */\n      swap1\n      pop\n        /* \"#utility.yul\":11766:11845   */\n      swap2\n      swap1\n      pop\n      jump\t// out\n        /* \"#utility.yul\":11851:12031   */\n    tag_270:\n        /* \"#utility.yul\":11899:11976   */\n      0x4e487b7100000000000000000000000000000000000000000000000000000000\n        /* \"#utility.yul\":11896:11897   */\n      0x00\n        /* \"#utility.yul\":11889:11977   */\n      mstore\n        /* \"#utility.yul\":11996:12000   */\n      0x11\n        /* \"#utility.yul\":11993:11994   */\n      0x04\n        /* \"#utility.yul\":11986:12001   */\n      mstore\n        /* \"#utility.yul\":12020:12024   */\n      0x24\n        /* \"#utility.yul\":12017:12018   */\n      0x00\n        /* \"#utility.yul\":12010:12025   */\n      revert\n        /* \"#utility.yul\":12037:12217   */\n    tag_65:\n        /* \"#utility.yul\":12085:12162   */\n      0x4e487b7100000000000000000000000000000000000000000000000000000000\n        /* \"#utility.yul\":12082:12083   */\n      0x00\n        /* \"#utility.yul\":12075:12163   */\n      mstore\n        /* \"#utility.yul\":12182:12186   */\n      0x32\n        /* \"#utility.yul\":12179:12180   */\n      0x04\n        /* \"#utility.yul\":12172:12187   */\n      mstore\n        /* \"#utility.yul\":12206:12210   */\n      0x24\n        /* \"#utility.yul\":12203:12204   */\n      0x00\n        /* \"#utility.yul\":12196:12211   */\n      revert\n        /* \"#utility.yul\":12346:12463   */\n    tag_152:\n        /* \"#utility.yul\":12455:12456   */\n      0x00\n        /* \"#utility.yul\":12452:12453   */\n      dup1\n        /* \"#utility.yul\":12445:12457   */\n      revert\n        /* \"#utility.yul\":12469:12571   */\n    tag_184:\n        /* \"#utility.yul\":12510:12516   */\n      0x00\n        /* \"#utility.yul\":12561:12563   */\n      0x1f\n        /* \"#utility.yul\":12557:12564   */\n      not\n        /* \"#utility.yul\":12552:12554   */\n      0x1f\n        /* \"#utility.yul\":12545:12550   */\n      dup4\n        /* \"#utility.yul\":12541:12555   */\n      add\n        /* \"#utility.yul\":12537:12565   */\n      and\n        /* \"#utility.yul\":12527:12565   */\n      swap1\n      pop\n        /* \"#utility.yul\":12469:12571   */\n      swap2\n      swap1\n      pop\n      jump\t// out\n        /* \"#utility.yul\":12577:12747   */\n    tag_189:\n        /* \"#utility.yul\":12717:12739   */\n      0x486173206e6f20726967687420746f20766f7465000000000000000000000000\n        /* \"#utility.yul\":12713:12714   */\n      0x00\n        /* \"#utility.yul\":12705:12711   */\n      dup3\n        /* \"#utility.yul\":12701:12715   */\n      add\n        /* \"#utility.yul\":12694:12740   */\n      mstore\n        /* \"#utility.yul\":12577:12747   */\n      pop\n      jump\t// out\n        /* \"#utility.yul\":12753:12982   */\n    tag_194:\n        /* \"#utility.yul\":12893:12927   */\n      0x53696d706c65566f74696e673a2054686520766f7465722068617320616c7265\n        /* \"#utility.yul\":12889:12890   */\n      0x00\n        /* \"#utility.yul\":12881:12887   */\n      dup3\n        /* \"#utility.yul\":12877:12891   */\n      add\n        /* \"#utility.yul\":12870:12928   */\n      mstore\n        /* \"#utility.yul\":12962:12974   */\n      0x61647920766f7465642e00000000000000000000000000000000000000000000\n        /* \"#utility.yul\":12957:12959   */\n      0x20\n        /* \"#utility.yul\":12949:12955   */\n      dup3\n        /* \"#utility.yul\":12945:12960   */\n      add\n        /* \"#utility.yul\":12938:12975   */\n      mstore\n        /* \"#utility.yul\":12753:12982   */\n      pop\n      jump\t// out\n        /* \"#utility.yul\":12988:13152   */\n    tag_199:\n        /* \"#utility.yul\":13128:13144   */\n      0x416c726561647920766f7465642e000000000000000000000000000000000000\n        /* \"#utility.yul\":13124:13125   */\n      0x00\n        /* \"#utility.yul\":13116:13122   */\n      dup3\n        /* \"#utility.yul\":13112:13126   */\n      add\n        /* \"#utility.yul\":13105:13145   */\n      mstore\n        /* \"#utility.yul\":12988:13152   */\n      pop\n      jump\t// out\n        /* \"#utility.yul\":13158:13399   */\n    tag_204:\n        /* \"#utility.yul\":13298:13332   */\n      0x53696d706c65566f74696e673a204f6e6c79206368616972506572736f6e2063\n        /* \"#utility.yul\":13294:13295   */\n      0x00\n        /* \"#utility.yul\":13286:13292   */\n      dup3\n        /* \"#utility.yul\":13282:13296   */\n      add\n        /* \"#utility.yul\":13275:13333   */\n      mstore\n        /* \"#utility.yul\":13367:13391   */\n      0x616e206769766520726967687420746f20766f74652e00000000000000000000\n        /* \"#utility.yul\":13362:13364   */\n      0x20\n        /* \"#utility.yul\":13354:13360   */\n      dup3\n        /* \"#utility.yul\":13350:13365   */\n      add\n        /* \"#utility.yul\":13343:13392   */\n      mstore\n        /* \"#utility.yul\":13158:13399   */\n      pop\n      jump\t// out\n        /* \"#utility.yul\":13405:13637   */\n    tag_209:\n        /* \"#utility.yul\":13545:13579   */\n      0x53696d706c65566f74696e673a2053656c662d64656c65676174696f6e206973\n        /* \"#utility.yul\":13541:13542   */\n      0x00\n        /* \"#utility.yul\":13533:13539   */\n      dup3\n        /* \"#utility.yul\":13529:13543   */\n      add\n        /* \"#utility.yul\":13522:13580   */\n      mstore\n        /* \"#utility.yul\":13614:13629   */\n      0x206e6f7420616c6c6f7765642e00000000000000000000000000000000000000\n        /* \"#utility.yul\":13609:13611   */\n      0x20\n        /* \"#utility.yul\":13601:13607   */\n      dup3\n        /* \"#utility.yul\":13597:13612   */\n      add\n        /* \"#utility.yul\":13590:13630   */\n      mstore\n        /* \"#utility.yul\":13405:13637   */\n      pop\n      jump\t// out\n        /* \"#utility.yul\":13643:13878   */\n    tag_214:\n        /* \"#utility.yul\":13783:13817   */\n      0x53696d706c65566f74696e673a204164647265737320616c7265616479206861\n        /* \"#utility.yul\":13779:13780   */\n      0x00\n        /* \"#utility.yul\":13771:13777   */\n      dup3\n        /* \"#utility.yul\":13767:13781   */\n      add\n        /* \"#utility.yul\":13760:13818   */\n      mstore\n        /* \"#utility.yul\":13852:13870   */\n      0x7320726967687420746f20766f74652e00000000000000000000000000000000\n        /* \"#utility.yul\":13847:13849   */\n      0x20\n        /* \"#utility.yul\":13839:13845   */\n      dup3\n        /* \"#utility.yul\":13835:13850   */\n      add\n        /* \"#utility.yul\":13828:13871   */\n      mstore\n        /* \"#utility.yul\":13643:13878   */\n      pop\n      jump\t// out\n        /* \"#utility.yul\":13884:14114   */\n    tag_219:\n        /* \"#utility.yul\":14024:14058   */\n      0x53696d706c65566f74696e673a2050726f706f73616c20696e646578206f7574\n        /* \"#utility.yul\":14020:14021   */\n      0x00\n        /* \"#utility.yul\":14012:14018   */\n      dup3\n        /* \"#utility.yul\":14008:14022   */\n      add\n        /* \"#utility.yul\":14001:14059   */\n      mstore\n        /* \"#utility.yul\":14093:14106   */\n      0x206f6620626f756e64732e000000000000000000000000000000000000000000\n        /* \"#utility.yul\":14088:14090   */\n      0x20\n        /* \"#utility.yul\":14080:14086   */\n      dup3\n        /* \"#utility.yul\":14076:14091   */\n      add\n        /* \"#utility.yul\":14069:14107   */\n      mstore\n        /* \"#utility.yul\":13884:14114   */\n      pop\n      jump\t// out\n        /* \"#utility.yul\":14120:14354   */\n    tag_224:\n        /* \"#utility.yul\":14260:14294   */\n      0x53696d706c65566f74696e673a2044656c65676174696f6e2074726163657320\n        /* \"#utility.yul\":14256:14257   */\n      0x00\n        /* \"#utility.yul\":14248:14254   */\n      dup3\n        /* \"#utility.yul\":14244:14258   */\n      add\n        /* \"#utility.yul\":14237:14295   */\n      mstore\n        /* \"#utility.yul\":14329:14346   */\n      0x6261636b20746f2063616c6c65722e0000000000000000000000000000000000\n        /* \"#utility.yul\":14324:14326   */\n      0x20\n        /* \"#utility.yul\":14316:14322   */\n      dup3\n        /* \"#utility.yul\":14312:14327   */\n      add\n        /* \"#utility.yul\":14305:14347   */\n      mstore\n        /* \"#utility.yul\":14120:14354   */\n      pop\n      jump\t// out\n        /* \"#utility.yul\":14360:14482   */\n    tag_144:\n        /* \"#utility.yul\":14433:14457   */\n      tag_299\n        /* \"#utility.yul\":14451:14456   */\n      dup2\n        /* \"#utility.yul\":14433:14457   */\n      tag_161\n      jump\t// in\n    tag_299:\n        /* \"#utility.yul\":14426:14431   */\n      dup2\n        /* \"#utility.yul\":14423:14458   */\n      eq\n        /* \"#utility.yul\":14413:14476   */\n      tag_300\n      jumpi\n        /* \"#utility.yul\":14472:14473   */\n      0x00\n        /* \"#utility.yul\":14469:14470   */\n      dup1\n        /* \"#utility.yul\":14462:14474   */\n      revert\n        /* \"#utility.yul\":14413:14476   */\n    tag_300:\n        /* \"#utility.yul\":14360:14482   */\n      pop\n      jump\t// out\n        /* \"#utility.yul\":14488:14610   */\n    tag_148:\n        /* \"#utility.yul\":14561:14585   */\n      tag_302\n        /* \"#utility.yul\":14579:14584   */\n      dup2\n        /* \"#utility.yul\":14561:14585   */\n      tag_228\n      jump\t// in\n    tag_302:\n        /* \"#utility.yul\":14554:14559   */\n      dup2\n        /* \"#utility.yul\":14551:14586   */\n      eq\n        /* \"#utility.yul\":14541:14604   */\n      tag_303\n      jumpi\n        /* \"#utility.yul\":14600:14601   */\n      0x00\n        /* \"#utility.yul\":14597:14598   */\n      dup1\n        /* \"#utility.yul\":14590:14602   */\n      revert\n        /* \"#utility.yul\":14541:14604   */\n    tag_303:\n        /* \"#utility.yul\":14488:14610   */\n      pop\n      jump\t// out\n\n    auxdata: 0xa26469706673582212201d83265333eb3cc631d9d173d5b3c8e24ae59a859d55a8d5139c5db2de84840064736f6c63430008070033\n}\n",
				"bytecode": {
					"linkReferences": {},
					"object": "60806040523480156200001157600080fd5b5060405162001b2d38038062001b2d83398181016040528101906200003791906200035f565b62000047620001bc60201b60201c565b600160006101000a81548173ffffffffffffffffffffffffffffffffffffffff021916908373ffffffffffffffffffffffffffffffffffffffff160217905550600160026000600160009054906101000a900473ffffffffffffffffffffffffffffffffffffffff1673ffffffffffffffffffffffffffffffffffffffff1673ffffffffffffffffffffffffffffffffffffffff16815260200190815260200160002060000181905550805160008190555060005b600054811015620001b45760006040518060400160405280620001428585815181106200012e576200012d6200063b565b5b6020026020010151620001c460201b60201c565b81526020016000815250905060038190806001815401808255809150506001900390600052602060002090600202016000909190919091506000820151816000015560208201518160010155505050620001ac600182620001fa60201b62000be11790919060201c565b9050620000fc565b5050620006e7565b600033905090565b600081604051602001620001d99190620003e7565b604051602081830303815290604052620001f39062000530565b9050919050565b600081836200020a9190620004bf565b905092915050565b600062000229620002238462000429565b62000400565b905080838252602082019050828560208602820111156200024f576200024e620006b5565b5b60005b85811015620002a457815167ffffffffffffffff811115620002795762000278620006b0565b5b8086016200028889826200032c565b8552602085019450602084019350505060018101905062000252565b5050509392505050565b6000620002c5620002bf8462000458565b62000400565b905082815260208101848484011115620002e457620002e3620006ba565b5b620002f1848285620005a0565b509392505050565b600082601f830112620003115762000310620006b0565b5b81516200032384826020860162000212565b91505092915050565b600082601f830112620003445762000343620006b0565b5b815162000356848260208601620002ae565b91505092915050565b600060208284031215620003785762000377620006c4565b5b600082015167ffffffffffffffff811115620003995762000398620006bf565b5b620003a784828501620002f9565b91505092915050565b6000620003bd82620004a9565b620003c98185620004b4565b9350620003db818560208601620005a0565b80840191505092915050565b6000620003f58284620003b0565b915081905092915050565b60006200040c6200041f565b90506200041a8282620005d6565b919050565b6000604051905090565b600067ffffffffffffffff8211156200044757620004466200066a565b5b602082029050602081019050919050565b600067ffffffffffffffff8211156200047657620004756200066a565b5b6200048182620006c9565b9050602081019050919050565b6000819050602082019050919050565b600081519050919050565b600081519050919050565b600081905092915050565b6000620004cc8262000526565b9150620004d98362000526565b9250827fffffffffffffffffffffffffffffffffffffffffffffffffffffffffffffffff038211156200051157620005106200060c565b5b828201905092915050565b6000819050919050565b6000819050919050565b60006200053d826200049e565b8262000549846200048e565b9050620005568162000699565b925060208210156200059957620005947fffffffffffffffffffffffffffffffffffffffffffffffffffffffffffffffff83602003600802620006da565b831692505b5050919050565b60005b83811015620005c0578082015181840152602081019050620005a3565b83811115620005d0576000848401525b50505050565b620005e182620006c9565b810181811067ffffffffffffffff821117156200060357620006026200066a565b5b80604052505050565b7f4e487b7100000000000000000000000000000000000000000000000000000000600052601160045260246000fd5b7f4e487b7100000000000000000000000000000000000000000000000000000000600052603260045260246000fd5b7f4e487b7100000000000000000000000000000000000000000000000000000000600052604160045260246000fd5b6000620006a782516200051c565b80915050919050565b600080fd5b600080fd5b600080fd5b600080fd5b600080fd5b6000601f19601f8301169050919050565b600082821b905092915050565b61143680620006f76000396000f3fe608060405234801561001057600080fd5b50600436106100935760003560e01c80639e7b8d61116100665780639e7b8d611461011f578063a3ec138d1461013b578063d4d4b5ac1461016e578063da35c6641461018c578063e2ba53f0146101aa57610093565b80630121b93f14610098578063013cf08b146100b45780635c19a95c146100e5578063609ff1bd14610101575b600080fd5b6100b260048036038101906100ad9190610c7f565b6101c8565b005b6100ce60048036038101906100c99190610c7f565b6103d9565b6040516100dc929190610e86565b60405180910390f35b6100ff60048036038101906100fa9190610c52565b61040d565b005b610109610893565b6040516101169190610fd1565b60405180910390f35b61013960048036038101906101349190610c52565b610923565b005b61015560048036038101906101509190610c52565b610b1c565b6040516101659493929190610fec565b60405180910390f35b610176610b79565b6040516101839190610e6b565b60405180910390f35b610194610b9f565b6040516101a19190610fd1565b60405180910390f35b6101b2610ba5565b6040516101bf9190610eaf565b60405180910390f35b6000600260006101d6610bf7565b73ffffffffffffffffffffffffffffffffffffffff1673ffffffffffffffffffffffffffffffffffffffff168152602001908152602001600020905060008160000154141561025a576040517f08c379a000000000000000000000000000000000000000000000000000000000815260040161025190610ed1565b60405180910390fd5b8060010160009054906101000a900460ff16156102ac576040517f08c379a00000000000000000000000000000000000000000000000000000000081526004016102a390610f11565b60405180910390fd5b60005482106102f0576040517f08c379a00000000000000000000000000000000000000000000000000000000081526004016102e790610f91565b60405180910390fd5b60018160010160006101000a81548160ff02191690831515021790555081816002018190555061035281600001546003848154811061033257610331611161565b5b906000526020600020906002020160010154610be190919063ffffffff16565b6003838154811061036657610365611161565b5b906000526020600020906002020160010181905550610383610bf7565b73ffffffffffffffffffffffffffffffffffffffff16827fe7ee74ca1f4bb1b82b14f87794c45b3e59c39e372b862fb97a6316b43355b69e83600001546040516103cd9190610fd1565b60405180910390a35050565b600381815481106103e957600080fd5b90600052602060002090600202016000915090508060000154908060010154905082565b610415610bf7565b600260008273ffffffffffffffffffffffffffffffffffffffff1673ffffffffffffffffffffffffffffffffffffffff16815260200190815260200160002060010160009054906101000a900460ff16156104a5576040517f08c379a000000000000000000000000000000000000000000000000000000000815260040161049c90610ef1565b60405180910390fd5b6000600260006104b3610bf7565b73ffffffffffffffffffffffffffffffffffffffff1673ffffffffffffffffffffffffffffffffffffffff16815260200190815260200160002090506104f7610bf7565b73ffffffffffffffffffffffffffffffffffffffff168373ffffffffffffffffffffffffffffffffffffffff161415610565576040517f08c379a000000000000000000000000000000000000000000000000000000000815260040161055c90610f51565b60405180910390fd5b5b600073ffffffffffffffffffffffffffffffffffffffff16600260008573ffffffffffffffffffffffffffffffffffffffff1673ffffffffffffffffffffffffffffffffffffffff16815260200190815260200160002060010160019054906101000a900473ffffffffffffffffffffffffffffffffffffffff1673ffffffffffffffffffffffffffffffffffffffff16146106dc57600260008473ffffffffffffffffffffffffffffffffffffffff1673ffffffffffffffffffffffffffffffffffffffff16815260200190815260200160002060010160019054906101000a900473ffffffffffffffffffffffffffffffffffffffff169250610669610bf7565b73ffffffffffffffffffffffffffffffffffffffff168373ffffffffffffffffffffffffffffffffffffffff1614156106d7576040517f08c379a00000000000000000000000000000000000000000000000000000000081526004016106ce90610fb1565b60405180910390fd5b610566565b60018160010160006101000a81548160ff021916908315150217905550828160010160016101000a81548173ffffffffffffffffffffffffffffffffffffffff021916908373ffffffffffffffffffffffffffffffffffffffff1602179055506000600260008573ffffffffffffffffffffffffffffffffffffffff1673ffffffffffffffffffffffffffffffffffffffff16815260200190815260200160002090508060010160009054906101000a900460ff1615610808576107d6826000015460038360020154815481106107b6576107b5611161565b5b906000526020600020906002020160010154610be190919063ffffffff16565b60038260020154815481106107ee576107ed611161565b5b90600052602060002090600202016001018190555061082c565b61082382600001548260000154610be190919063ffffffff16565b81600001819055505b8373ffffffffffffffffffffffffffffffffffffffff1661084b610bf7565b73ffffffffffffffffffffffffffffffffffffffff167f4ce9ef2c99d761d69230b0e3381f4c6016333b2e27d32b3e379a96b5d2c6923260405160405180910390a350505050565b6000806000905060005b60038054905081101561091e5781600382815481106108bf576108be611161565b5b906000526020600020906002020160010154111561090357600381815481106108eb576108ea611161565b5b90600052602060002090600202016001015491508092505b610917600182610be190919063ffffffff16565b905061089d565b505090565b600160009054906101000a900473ffffffffffffffffffffffffffffffffffffffff1673ffffffffffffffffffffffffffffffffffffffff16610964610bf7565b73ffffffffffffffffffffffffffffffffffffffff16146109ba576040517f08c379a00000000000000000000000000000000000000000000000000000000081526004016109b190610f31565b60405180910390fd5b80600260008273ffffffffffffffffffffffffffffffffffffffff1673ffffffffffffffffffffffffffffffffffffffff16815260200190815260200160002060010160009054906101000a900460ff1615610a4b576040517f08c379a0000000000000000000000000000000000000000000000000000000008152600401610a4290610ef1565b60405180910390fd5b6000600260008473ffffffffffffffffffffffffffffffffffffffff1673ffffffffffffffffffffffffffffffffffffffff1681526020019081526020016000206000015414610ad0576040517f08c379a0000000000000000000000000000000000000000000000000000000008152600401610ac790610f71565b60405180910390fd5b6001600260008473ffffffffffffffffffffffffffffffffffffffff1673ffffffffffffffffffffffffffffffffffffffff168152602001908152602001600020600001819055505050565b60026020528060005260406000206000915090508060000154908060010160009054906101000a900460ff16908060010160019054906101000a900473ffffffffffffffffffffffffffffffffffffffff16908060020154905084565b600160009054906101000a900473ffffffffffffffffffffffffffffffffffffffff1681565b60005481565b6060610bdc6003610bb4610893565b81548110610bc557610bc4611161565b5b906000526020600020906002020160000154610bff565b905090565b60008183610bef919061104d565b905092915050565b600033905090565b606081604051602001610c129190610e50565b6040516020818303038152906040529050919050565b600081359050610c37816113d2565b92915050565b600081359050610c4c816113e9565b92915050565b600060208284031215610c6857610c67611190565b5b6000610c7684828501610c28565b91505092915050565b600060208284031215610c9557610c94611190565b5b6000610ca384828501610c3d565b91505092915050565b610cb5816110a3565b82525050565b610cc4816110b5565b82525050565b610cd3816110c1565b82525050565b610cea610ce5826110c1565b611128565b82525050565b6000610cfb82611031565b610d05818561103c565b9350610d158185602086016110f5565b610d1e81611195565b840191505092915050565b6000610d3660148361103c565b9150610d41826111a6565b602082019050919050565b6000610d59602a8361103c565b9150610d64826111cf565b604082019050919050565b6000610d7c600e8361103c565b9150610d878261121e565b602082019050919050565b6000610d9f60368361103c565b9150610daa82611247565b604082019050919050565b6000610dc2602d8361103c565b9150610dcd82611296565b604082019050919050565b6000610de560308361103c565b9150610df0826112e5565b604082019050919050565b6000610e08602b8361103c565b9150610e1382611334565b604082019050919050565b6000610e2b602f8361103c565b9150610e3682611383565b604082019050919050565b610e4a816110eb565b82525050565b6000610e5c8284610cd9565b60208201915081905092915050565b6000602082019050610e806000830184610cac565b92915050565b6000604082019050610e9b6000830185610cca565b610ea86020830184610e41565b9392505050565b60006020820190508181036000830152610ec98184610cf0565b905092915050565b60006020820190508181036000830152610eea81610d29565b9050919050565b60006020820190508181036000830152610f0a81610d4c565b9050919050565b60006020820190508181036000830152610f2a81610d6f565b9050919050565b60006020820190508181036000830152610f4a81610d92565b9050919050565b60006020820190508181036000830152610f6a81610db5565b9050919050565b60006020820190508181036000830152610f8a81610dd8565b9050919050565b60006020820190508181036000830152610faa81610dfb565b9050919050565b60006020820190508181036000830152610fca81610e1e565b9050919050565b6000602082019050610fe66000830184610e41565b92915050565b60006080820190506110016000830187610e41565b61100e6020830186610cbb565b61101b6040830185610cac565b6110286060830184610e41565b95945050505050565b600081519050919050565b600082825260208201905092915050565b6000611058826110eb565b9150611063836110eb565b9250827fffffffffffffffffffffffffffffffffffffffffffffffffffffffffffffffff0382111561109857611097611132565b5b828201905092915050565b60006110ae826110cb565b9050919050565b60008115159050919050565b6000819050919050565b600073ffffffffffffffffffffffffffffffffffffffff82169050919050565b6000819050919050565b60005b838110156111135780820151818401526020810190506110f8565b83811115611122576000848401525b50505050565b6000819050919050565b7f4e487b7100000000000000000000000000000000000000000000000000000000600052601160045260246000fd5b7f4e487b7100000000000000000000000000000000000000000000000000000000600052603260045260246000fd5b600080fd5b6000601f19601f8301169050919050565b7f486173206e6f20726967687420746f20766f7465000000000000000000000000600082015250565b7f53696d706c65566f74696e673a2054686520766f7465722068617320616c726560008201527f61647920766f7465642e00000000000000000000000000000000000000000000602082015250565b7f416c726561647920766f7465642e000000000000000000000000000000000000600082015250565b7f53696d706c65566f74696e673a204f6e6c79206368616972506572736f6e206360008201527f616e206769766520726967687420746f20766f74652e00000000000000000000602082015250565b7f53696d706c65566f74696e673a2053656c662d64656c65676174696f6e20697360008201527f206e6f7420616c6c6f7765642e00000000000000000000000000000000000000602082015250565b7f53696d706c65566f74696e673a204164647265737320616c726561647920686160008201527f7320726967687420746f20766f74652e00000000000000000000000000000000602082015250565b7f53696d706c65566f74696e673a2050726f706f73616c20696e646578206f757460008201527f206f6620626f756e64732e000000000000000000000000000000000000000000602082015250565b7f53696d706c65566f74696e673a2044656c65676174696f6e207472616365732060008201527f6261636b20746f2063616c6c65722e0000000000000000000000000000000000602082015250565b6113db816110a3565b81146113e657600080fd5b50565b6113f2816110eb565b81146113fd57600080fd5b5056fea26469706673582212201d83265333eb3cc631d9d173d5b3c8e24ae59a859d55a8d5139c5db2de84840064736f6c63430008070033",
					"opcodes": "PUSH1 0x80 PUSH1 0x40 MSTORE CALLVALUE DUP1 ISZERO PUSH3 0x11 JUMPI PUSH1 0x0 DUP1 REVERT JUMPDEST POP PUSH1 0x40 MLOAD PUSH3 0x1B2D CODESIZE SUB DUP1 PUSH3 0x1B2D DUP4 CODECOPY DUP2 DUP2 ADD PUSH1 0x40 MSTORE DUP2 ADD SWAP1 PUSH3 0x37 SWAP2 SWAP1 PUSH3 0x35F JUMP JUMPDEST PUSH3 0x47 PUSH3 0x1BC PUSH1 0x20 SHL PUSH1 0x20 SHR JUMP JUMPDEST PUSH1 0x1 PUSH1 0x0 PUSH2 0x100 EXP DUP2 SLOAD DUP2 PUSH20 0xFFFFFFFFFFFFFFFFFFFFFFFFFFFFFFFFFFFFFFFF MUL NOT AND SWAP1 DUP4 PUSH20 0xFFFFFFFFFFFFFFFFFFFFFFFFFFFFFFFFFFFFFFFF AND MUL OR SWAP1 SSTORE POP PUSH1 0x1 PUSH1 0x2 PUSH1 0x0 PUSH1 0x1 PUSH1 0x0 SWAP1 SLOAD SWAP1 PUSH2 0x100 EXP SWAP1 DIV PUSH20 0xFFFFFFFFFFFFFFFFFFFFFFFFFFFFFFFFFFFFFFFF AND PUSH20 0xFFFFFFFFFFFFFFFFFFFFFFFFFFFFFFFFFFFFFFFF AND PUSH20 0xFFFFFFFFFFFFFFFFFFFFFFFFFFFFFFFFFFFFFFFF AND DUP2 MSTORE PUSH1 0x20 ADD SWAP1 DUP2 MSTORE PUSH1 0x20 ADD PUSH1 0x0 KECCAK256 PUSH1 0x0 ADD DUP2 SWAP1 SSTORE POP DUP1 MLOAD PUSH1 0x0 DUP2 SWAP1 SSTORE POP PUSH1 0x0 JUMPDEST PUSH1 0x0 SLOAD DUP2 LT ISZERO PUSH3 0x1B4 JUMPI PUSH1 0x0 PUSH1 0x40 MLOAD DUP1 PUSH1 0x40 ADD PUSH1 0x40 MSTORE DUP1 PUSH3 0x142 DUP6 DUP6 DUP2 MLOAD DUP2 LT PUSH3 0x12E JUMPI PUSH3 0x12D PUSH3 0x63B JUMP JUMPDEST JUMPDEST PUSH1 0x20 MUL PUSH1 0x20 ADD ADD MLOAD PUSH3 0x1C4 PUSH1 0x20 SHL PUSH1 0x20 SHR JUMP JUMPDEST DUP2 MSTORE PUSH1 0x20 ADD PUSH1 0x0 DUP2 MSTORE POP SWAP1 POP PUSH1 0x3 DUP2 SWAP1 DUP1 PUSH1 0x1 DUP2 SLOAD ADD DUP1 DUP3 SSTORE DUP1 SWAP2 POP POP PUSH1 0x1 SWAP1 SUB SWAP1 PUSH1 0x0 MSTORE PUSH1 0x20 PUSH1 0x0 KECCAK256 SWAP1 PUSH1 0x2 MUL ADD PUSH1 0x0 SWAP1 SWAP2 SWAP1 SWAP2 SWAP1 SWAP2 POP PUSH1 0x0 DUP3 ADD MLOAD DUP2 PUSH1 0x0 ADD SSTORE PUSH1 0x20 DUP3 ADD MLOAD DUP2 PUSH1 0x1 ADD SSTORE POP POP POP PUSH3 0x1AC PUSH1 0x1 DUP3 PUSH3 0x1FA PUSH1 0x20 SHL PUSH3 0xBE1 OR SWAP1 SWAP2 SWAP1 PUSH1 0x20 SHR JUMP JUMPDEST SWAP1 POP PUSH3 0xFC JUMP JUMPDEST POP POP PUSH3 0x6E7 JUMP JUMPDEST PUSH1 0x0 CALLER SWAP1 POP SWAP1 JUMP JUMPDEST PUSH1 0x0 DUP2 PUSH1 0x40 MLOAD PUSH1 0x20 ADD PUSH3 0x1D9 SWAP2 SWAP1 PUSH3 0x3E7 JUMP JUMPDEST PUSH1 0x40 MLOAD PUSH1 0x20 DUP2 DUP4 SUB SUB DUP2 MSTORE SWAP1 PUSH1 0x40 MSTORE PUSH3 0x1F3 SWAP1 PUSH3 0x530 JUMP JUMPDEST SWAP1 POP SWAP2 SWAP1 POP JUMP JUMPDEST PUSH1 0x0 DUP2 DUP4 PUSH3 0x20A SWAP2 SWAP1 PUSH3 0x4BF JUMP JUMPDEST SWAP1 POP SWAP3 SWAP2 POP POP JUMP JUMPDEST PUSH1 0x0 PUSH3 0x229 PUSH3 0x223 DUP5 PUSH3 0x429 JUMP JUMPDEST PUSH3 0x400 JUMP JUMPDEST SWAP1 POP DUP1 DUP4 DUP3 MSTORE PUSH1 0x20 DUP3 ADD SWAP1 POP DUP3 DUP6 PUSH1 0x20 DUP7 MUL DUP3 ADD GT ISZERO PUSH3 0x24F JUMPI PUSH3 0x24E PUSH3 0x6B5 JUMP JUMPDEST JUMPDEST PUSH1 0x0 JUMPDEST DUP6 DUP2 LT ISZERO PUSH3 0x2A4 JUMPI DUP2 MLOAD PUSH8 0xFFFFFFFFFFFFFFFF DUP2 GT ISZERO PUSH3 0x279 JUMPI PUSH3 0x278 PUSH3 0x6B0 JUMP JUMPDEST JUMPDEST DUP1 DUP7 ADD PUSH3 0x288 DUP10 DUP3 PUSH3 0x32C JUMP JUMPDEST DUP6 MSTORE PUSH1 0x20 DUP6 ADD SWAP5 POP PUSH1 0x20 DUP5 ADD SWAP4 POP POP POP PUSH1 0x1 DUP2 ADD SWAP1 POP PUSH3 0x252 JUMP JUMPDEST POP POP POP SWAP4 SWAP3 POP POP POP JUMP JUMPDEST PUSH1 0x0 PUSH3 0x2C5 PUSH3 0x2BF DUP5 PUSH3 0x458 JUMP JUMPDEST PUSH3 0x400 JUMP JUMPDEST SWAP1 POP DUP3 DUP2 MSTORE PUSH1 0x20 DUP2 ADD DUP5 DUP5 DUP5 ADD GT ISZERO PUSH3 0x2E4 JUMPI PUSH3 0x2E3 PUSH3 0x6BA JUMP JUMPDEST JUMPDEST PUSH3 0x2F1 DUP5 DUP3 DUP6 PUSH3 0x5A0 JUMP JUMPDEST POP SWAP4 SWAP3 POP POP POP JUMP JUMPDEST PUSH1 0x0 DUP3 PUSH1 0x1F DUP4 ADD SLT PUSH3 0x311 JUMPI PUSH3 0x310 PUSH3 0x6B0 JUMP JUMPDEST JUMPDEST DUP2 MLOAD PUSH3 0x323 DUP5 DUP3 PUSH1 0x20 DUP7 ADD PUSH3 0x212 JUMP JUMPDEST SWAP2 POP POP SWAP3 SWAP2 POP POP JUMP JUMPDEST PUSH1 0x0 DUP3 PUSH1 0x1F DUP4 ADD SLT PUSH3 0x344 JUMPI PUSH3 0x343 PUSH3 0x6B0 JUMP JUMPDEST JUMPDEST DUP2 MLOAD PUSH3 0x356 DUP5 DUP3 PUSH1 0x20 DUP7 ADD PUSH3 0x2AE JUMP JUMPDEST SWAP2 POP POP SWAP3 SWAP2 POP POP JUMP JUMPDEST PUSH1 0x0 PUSH1 0x20 DUP3 DUP5 SUB SLT ISZERO PUSH3 0x378 JUMPI PUSH3 0x377 PUSH3 0x6C4 JUMP JUMPDEST JUMPDEST PUSH1 0x0 DUP3 ADD MLOAD PUSH8 0xFFFFFFFFFFFFFFFF DUP2 GT ISZERO PUSH3 0x399 JUMPI PUSH3 0x398 PUSH3 0x6BF JUMP JUMPDEST JUMPDEST PUSH3 0x3A7 DUP5 DUP3 DUP6 ADD PUSH3 0x2F9 JUMP JUMPDEST SWAP2 POP POP SWAP3 SWAP2 POP POP JUMP JUMPDEST PUSH1 0x0 PUSH3 0x3BD DUP3 PUSH3 0x4A9 JUMP JUMPDEST PUSH3 0x3C9 DUP2 DUP6 PUSH3 0x4B4 JUMP JUMPDEST SWAP4 POP PUSH3 0x3DB DUP2 DUP6 PUSH1 0x20 DUP7 ADD PUSH3 0x5A0 JUMP JUMPDEST DUP1 DUP5 ADD SWAP2 POP POP SWAP3 SWAP2 POP POP JUMP JUMPDEST PUSH1 0x0 PUSH3 0x3F5 DUP3 DUP5 PUSH3 0x3B0 JUMP JUMPDEST SWAP2 POP DUP2 SWAP1 POP SWAP3 SWAP2 POP POP JUMP JUMPDEST PUSH1 0x0 PUSH3 0x40C PUSH3 0x41F JUMP JUMPDEST SWAP1 POP PUSH3 0x41A DUP3 DUP3 PUSH3 0x5D6 JUMP JUMPDEST SWAP2 SWAP1 POP JUMP JUMPDEST PUSH1 0x0 PUSH1 0x40 MLOAD SWAP1 POP SWAP1 JUMP JUMPDEST PUSH1 0x0 PUSH8 0xFFFFFFFFFFFFFFFF DUP3 GT ISZERO PUSH3 0x447 JUMPI PUSH3 0x446 PUSH3 0x66A JUMP JUMPDEST JUMPDEST PUSH1 0x20 DUP3 MUL SWAP1 POP PUSH1 0x20 DUP2 ADD SWAP1 POP SWAP2 SWAP1 POP JUMP JUMPDEST PUSH1 0x0 PUSH8 0xFFFFFFFFFFFFFFFF DUP3 GT ISZERO PUSH3 0x476 JUMPI PUSH3 0x475 PUSH3 0x66A JUMP JUMPDEST JUMPDEST PUSH3 0x481 DUP3 PUSH3 0x6C9 JUMP JUMPDEST SWAP1 POP PUSH1 0x20 DUP2 ADD SWAP1 POP SWAP2 SWAP1 POP JUMP JUMPDEST PUSH1 0x0 DUP2 SWAP1 POP PUSH1 0x20 DUP3 ADD SWAP1 POP SWAP2 SWAP1 POP JUMP JUMPDEST PUSH1 0x0 DUP2 MLOAD SWAP1 POP SWAP2 SWAP1 POP JUMP JUMPDEST PUSH1 0x0 DUP2 MLOAD SWAP1 POP SWAP2 SWAP1 POP JUMP JUMPDEST PUSH1 0x0 DUP2 SWAP1 POP SWAP3 SWAP2 POP POP JUMP JUMPDEST PUSH1 0x0 PUSH3 0x4CC DUP3 PUSH3 0x526 JUMP JUMPDEST SWAP2 POP PUSH3 0x4D9 DUP4 PUSH3 0x526 JUMP JUMPDEST SWAP3 POP DUP3 PUSH32 0xFFFFFFFFFFFFFFFFFFFFFFFFFFFFFFFFFFFFFFFFFFFFFFFFFFFFFFFFFFFFFFFF SUB DUP3 GT ISZERO PUSH3 0x511 JUMPI PUSH3 0x510 PUSH3 0x60C JUMP JUMPDEST JUMPDEST DUP3 DUP3 ADD SWAP1 POP SWAP3 SWAP2 POP POP JUMP JUMPDEST PUSH1 0x0 DUP2 SWAP1 POP SWAP2 SWAP1 POP JUMP JUMPDEST PUSH1 0x0 DUP2 SWAP1 POP SWAP2 SWAP1 POP JUMP JUMPDEST PUSH1 0x0 PUSH3 0x53D DUP3 PUSH3 0x49E JUMP JUMPDEST DUP3 PUSH3 0x549 DUP5 PUSH3 0x48E JUMP JUMPDEST SWAP1 POP PUSH3 0x556 DUP2 PUSH3 0x699 JUMP JUMPDEST SWAP3 POP PUSH1 0x20 DUP3 LT ISZERO PUSH3 0x599 JUMPI PUSH3 0x594 PUSH32 0xFFFFFFFFFFFFFFFFFFFFFFFFFFFFFFFFFFFFFFFFFFFFFFFFFFFFFFFFFFFFFFFF DUP4 PUSH1 0x20 SUB PUSH1 0x8 MUL PUSH3 0x6DA JUMP JUMPDEST DUP4 AND SWAP3 POP JUMPDEST POP POP SWAP2 SWAP1 POP JUMP JUMPDEST PUSH1 0x0 JUMPDEST DUP4 DUP2 LT ISZERO PUSH3 0x5C0 JUMPI DUP1 DUP3 ADD MLOAD DUP2 DUP5 ADD MSTORE PUSH1 0x20 DUP2 ADD SWAP1 POP PUSH3 0x5A3 JUMP JUMPDEST DUP4 DUP2 GT ISZERO PUSH3 0x5D0 JUMPI PUSH1 0x0 DUP5 DUP5 ADD MSTORE JUMPDEST POP POP POP POP JUMP JUMPDEST PUSH3 0x5E1 DUP3 PUSH3 0x6C9 JUMP JUMPDEST DUP2 ADD DUP2 DUP2 LT PUSH8 0xFFFFFFFFFFFFFFFF DUP3 GT OR ISZERO PUSH3 0x603 JUMPI PUSH3 0x602 PUSH3 0x66A JUMP JUMPDEST JUMPDEST DUP1 PUSH1 0x40 MSTORE POP POP POP JUMP JUMPDEST PUSH32 0x4E487B7100000000000000000000000000000000000000000000000000000000 PUSH1 0x0 MSTORE PUSH1 0x11 PUSH1 0x4 MSTORE PUSH1 0x24 PUSH1 0x0 REVERT JUMPDEST PUSH32 0x4E487B7100000000000000000000000000000000000000000000000000000000 PUSH1 0x0 MSTORE PUSH1 0x32 PUSH1 0x4 MSTORE PUSH1 0x24 PUSH1 0x0 REVERT JUMPDEST PUSH32 0x4E487B7100000000000000000000000000000000000000000000000000000000 PUSH1 0x0 MSTORE PUSH1 0x41 PUSH1 0x4 MSTORE PUSH1 0x24 PUSH1 0x0 REVERT JUMPDEST PUSH1 0x0 PUSH3 0x6A7 DUP3 MLOAD PUSH3 0x51C JUMP JUMPDEST DUP1 SWAP2 POP POP SWAP2 SWAP1 POP JUMP JUMPDEST PUSH1 0x0 DUP1 REVERT JUMPDEST PUSH1 0x0 DUP1 REVERT JUMPDEST PUSH1 0x0 DUP1 REVERT JUMPDEST PUSH1 0x0 DUP1 REVERT JUMPDEST PUSH1 0x0 DUP1 REVERT JUMPDEST PUSH1 0x0 PUSH1 0x1F NOT PUSH1 0x1F DUP4 ADD AND SWAP1 POP SWAP2 SWAP1 POP JUMP JUMPDEST PUSH1 0x0 DUP3 DUP3 SHL SWAP1 POP SWAP3 SWAP2 POP POP JUMP JUMPDEST PUSH2 0x1436 DUP1 PUSH3 0x6F7 PUSH1 0x0 CODECOPY PUSH1 0x0 RETURN INVALID PUSH1 0x80 PUSH1 0x40 MSTORE CALLVALUE DUP1 ISZERO PUSH2 0x10 JUMPI PUSH1 0x0 DUP1 REVERT JUMPDEST POP PUSH1 0x4 CALLDATASIZE LT PUSH2 0x93 JUMPI PUSH1 0x0 CALLDATALOAD PUSH1 0xE0 SHR DUP1 PUSH4 0x9E7B8D61 GT PUSH2 0x66 JUMPI DUP1 PUSH4 0x9E7B8D61 EQ PUSH2 0x11F JUMPI DUP1 PUSH4 0xA3EC138D EQ PUSH2 0x13B JUMPI DUP1 PUSH4 0xD4D4B5AC EQ PUSH2 0x16E JUMPI DUP1 PUSH4 0xDA35C664 EQ PUSH2 0x18C JUMPI DUP1 PUSH4 0xE2BA53F0 EQ PUSH2 0x1AA JUMPI PUSH2 0x93 JUMP JUMPDEST DUP1 PUSH4 0x121B93F EQ PUSH2 0x98 JUMPI DUP1 PUSH4 0x13CF08B EQ PUSH2 0xB4 JUMPI DUP1 PUSH4 0x5C19A95C EQ PUSH2 0xE5 JUMPI DUP1 PUSH4 0x609FF1BD EQ PUSH2 0x101 JUMPI JUMPDEST PUSH1 0x0 DUP1 REVERT JUMPDEST PUSH2 0xB2 PUSH1 0x4 DUP1 CALLDATASIZE SUB DUP2 ADD SWAP1 PUSH2 0xAD SWAP2 SWAP1 PUSH2 0xC7F JUMP JUMPDEST PUSH2 0x1C8 JUMP JUMPDEST STOP JUMPDEST PUSH2 0xCE PUSH1 0x4 DUP1 CALLDATASIZE SUB DUP2 ADD SWAP1 PUSH2 0xC9 SWAP2 SWAP1 PUSH2 0xC7F JUMP JUMPDEST PUSH2 0x3D9 JUMP JUMPDEST PUSH1 0x40 MLOAD PUSH2 0xDC SWAP3 SWAP2 SWAP1 PUSH2 0xE86 JUMP JUMPDEST PUSH1 0x40 MLOAD DUP1 SWAP2 SUB SWAP1 RETURN JUMPDEST PUSH2 0xFF PUSH1 0x4 DUP1 CALLDATASIZE SUB DUP2 ADD SWAP1 PUSH2 0xFA SWAP2 SWAP1 PUSH2 0xC52 JUMP JUMPDEST PUSH2 0x40D JUMP JUMPDEST STOP JUMPDEST PUSH2 0x109 PUSH2 0x893 JUMP JUMPDEST PUSH1 0x40 MLOAD PUSH2 0x116 SWAP2 SWAP1 PUSH2 0xFD1 JUMP JUMPDEST PUSH1 0x40 MLOAD DUP1 SWAP2 SUB SWAP1 RETURN JUMPDEST PUSH2 0x139 PUSH1 0x4 DUP1 CALLDATASIZE SUB DUP2 ADD SWAP1 PUSH2 0x134 SWAP2 SWAP1 PUSH2 0xC52 JUMP JUMPDEST PUSH2 0x923 JUMP JUMPDEST STOP JUMPDEST PUSH2 0x155 PUSH1 0x4 DUP1 CALLDATASIZE SUB DUP2 ADD SWAP1 PUSH2 0x150 SWAP2 SWAP1 PUSH2 0xC52 JUMP JUMPDEST PUSH2 0xB1C JUMP JUMPDEST PUSH1 0x40 MLOAD PUSH2 0x165 SWAP5 SWAP4 SWAP3 SWAP2 SWAP1 PUSH2 0xFEC JUMP JUMPDEST PUSH1 0x40 MLOAD DUP1 SWAP2 SUB SWAP1 RETURN JUMPDEST PUSH2 0x176 PUSH2 0xB79 JUMP JUMPDEST PUSH1 0x40 MLOAD PUSH2 0x183 SWAP2 SWAP1 PUSH2 0xE6B JUMP JUMPDEST PUSH1 0x40 MLOAD DUP1 SWAP2 SUB SWAP1 RETURN JUMPDEST PUSH2 0x194 PUSH2 0xB9F JUMP JUMPDEST PUSH1 0x40 MLOAD PUSH2 0x1A1 SWAP2 SWAP1 PUSH2 0xFD1 JUMP JUMPDEST PUSH1 0x40 MLOAD DUP1 SWAP2 SUB SWAP1 RETURN JUMPDEST PUSH2 0x1B2 PUSH2 0xBA5 JUMP JUMPDEST PUSH1 0x40 MLOAD PUSH2 0x1BF SWAP2 SWAP1 PUSH2 0xEAF JUMP JUMPDEST PUSH1 0x40 MLOAD DUP1 SWAP2 SUB SWAP1 RETURN JUMPDEST PUSH1 0x0 PUSH1 0x2 PUSH1 0x0 PUSH2 0x1D6 PUSH2 0xBF7 JUMP JUMPDEST PUSH20 0xFFFFFFFFFFFFFFFFFFFFFFFFFFFFFFFFFFFFFFFF AND PUSH20 0xFFFFFFFFFFFFFFFFFFFFFFFFFFFFFFFFFFFFFFFF AND DUP2 MSTORE PUSH1 0x20 ADD SWAP1 DUP2 MSTORE PUSH1 0x20 ADD PUSH1 0x0 KECCAK256 SWAP1 POP PUSH1 0x0 DUP2 PUSH1 0x0 ADD SLOAD EQ ISZERO PUSH2 0x25A JUMPI PUSH1 0x40 MLOAD PUSH32 0x8C379A000000000000000000000000000000000000000000000000000000000 DUP2 MSTORE PUSH1 0x4 ADD PUSH2 0x251 SWAP1 PUSH2 0xED1 JUMP JUMPDEST PUSH1 0x40 MLOAD DUP1 SWAP2 SUB SWAP1 REVERT JUMPDEST DUP1 PUSH1 0x1 ADD PUSH1 0x0 SWAP1 SLOAD SWAP1 PUSH2 0x100 EXP SWAP1 DIV PUSH1 0xFF AND ISZERO PUSH2 0x2AC JUMPI PUSH1 0x40 MLOAD PUSH32 0x8C379A000000000000000000000000000000000000000000000000000000000 DUP2 MSTORE PUSH1 0x4 ADD PUSH2 0x2A3 SWAP1 PUSH2 0xF11 JUMP JUMPDEST PUSH1 0x40 MLOAD DUP1 SWAP2 SUB SWAP1 REVERT JUMPDEST PUSH1 0x0 SLOAD DUP3 LT PUSH2 0x2F0 JUMPI PUSH1 0x40 MLOAD PUSH32 0x8C379A000000000000000000000000000000000000000000000000000000000 DUP2 MSTORE PUSH1 0x4 ADD PUSH2 0x2E7 SWAP1 PUSH2 0xF91 JUMP JUMPDEST PUSH1 0x40 MLOAD DUP1 SWAP2 SUB SWAP1 REVERT JUMPDEST PUSH1 0x1 DUP2 PUSH1 0x1 ADD PUSH1 0x0 PUSH2 0x100 EXP DUP2 SLOAD DUP2 PUSH1 0xFF MUL NOT AND SWAP1 DUP4 ISZERO ISZERO MUL OR SWAP1 SSTORE POP DUP2 DUP2 PUSH1 0x2 ADD DUP2 SWAP1 SSTORE POP PUSH2 0x352 DUP2 PUSH1 0x0 ADD SLOAD PUSH1 0x3 DUP5 DUP2 SLOAD DUP2 LT PUSH2 0x332 JUMPI PUSH2 0x331 PUSH2 0x1161 JUMP JUMPDEST JUMPDEST SWAP1 PUSH1 0x0 MSTORE PUSH1 0x20 PUSH1 0x0 KECCAK256 SWAP1 PUSH1 0x2 MUL ADD PUSH1 0x1 ADD SLOAD PUSH2 0xBE1 SWAP1 SWAP2 SWAP1 PUSH4 0xFFFFFFFF AND JUMP JUMPDEST PUSH1 0x3 DUP4 DUP2 SLOAD DUP2 LT PUSH2 0x366 JUMPI PUSH2 0x365 PUSH2 0x1161 JUMP JUMPDEST JUMPDEST SWAP1 PUSH1 0x0 MSTORE PUSH1 0x20 PUSH1 0x0 KECCAK256 SWAP1 PUSH1 0x2 MUL ADD PUSH1 0x1 ADD DUP2 SWAP1 SSTORE POP PUSH2 0x383 PUSH2 0xBF7 JUMP JUMPDEST PUSH20 0xFFFFFFFFFFFFFFFFFFFFFFFFFFFFFFFFFFFFFFFF AND DUP3 PUSH32 0xE7EE74CA1F4BB1B82B14F87794C45B3E59C39E372B862FB97A6316B43355B69E DUP4 PUSH1 0x0 ADD SLOAD PUSH1 0x40 MLOAD PUSH2 0x3CD SWAP2 SWAP1 PUSH2 0xFD1 JUMP JUMPDEST PUSH1 0x40 MLOAD DUP1 SWAP2 SUB SWAP1 LOG3 POP POP JUMP JUMPDEST PUSH1 0x3 DUP2 DUP2 SLOAD DUP2 LT PUSH2 0x3E9 JUMPI PUSH1 0x0 DUP1 REVERT JUMPDEST SWAP1 PUSH1 0x0 MSTORE PUSH1 0x20 PUSH1 0x0 KECCAK256 SWAP1 PUSH1 0x2 MUL ADD PUSH1 0x0 SWAP2 POP SWAP1 POP DUP1 PUSH1 0x0 ADD SLOAD SWAP1 DUP1 PUSH1 0x1 ADD SLOAD SWAP1 POP DUP3 JUMP JUMPDEST PUSH2 0x415 PUSH2 0xBF7 JUMP JUMPDEST PUSH1 0x2 PUSH1 0x0 DUP3 PUSH20 0xFFFFFFFFFFFFFFFFFFFFFFFFFFFFFFFFFFFFFFFF AND PUSH20 0xFFFFFFFFFFFFFFFFFFFFFFFFFFFFFFFFFFFFFFFF AND DUP2 MSTORE PUSH1 0x20 ADD SWAP1 DUP2 MSTORE PUSH1 0x20 ADD PUSH1 0x0 KECCAK256 PUSH1 0x1 ADD PUSH1 0x0 SWAP1 SLOAD SWAP1 PUSH2 0x100 EXP SWAP1 DIV PUSH1 0xFF AND ISZERO PUSH2 0x4A5 JUMPI PUSH1 0x40 MLOAD PUSH32 0x8C379A000000000000000000000000000000000000000000000000000000000 DUP2 MSTORE PUSH1 0x4 ADD PUSH2 0x49C SWAP1 PUSH2 0xEF1 JUMP JUMPDEST PUSH1 0x40 MLOAD DUP1 SWAP2 SUB SWAP1 REVERT JUMPDEST PUSH1 0x0 PUSH1 0x2 PUSH1 0x0 PUSH2 0x4B3 PUSH2 0xBF7 JUMP JUMPDEST PUSH20 0xFFFFFFFFFFFFFFFFFFFFFFFFFFFFFFFFFFFFFFFF AND PUSH20 0xFFFFFFFFFFFFFFFFFFFFFFFFFFFFFFFFFFFFFFFF AND DUP2 MSTORE PUSH1 0x20 ADD SWAP1 DUP2 MSTORE PUSH1 0x20 ADD PUSH1 0x0 KECCAK256 SWAP1 POP PUSH2 0x4F7 PUSH2 0xBF7 JUMP JUMPDEST PUSH20 0xFFFFFFFFFFFFFFFFFFFFFFFFFFFFFFFFFFFFFFFF AND DUP4 PUSH20 0xFFFFFFFFFFFFFFFFFFFFFFFFFFFFFFFFFFFFFFFF AND EQ ISZERO PUSH2 0x565 JUMPI PUSH1 0x40 MLOAD PUSH32 0x8C379A000000000000000000000000000000000000000000000000000000000 DUP2 MSTORE PUSH1 0x4 ADD PUSH2 0x55C SWAP1 PUSH2 0xF51 JUMP JUMPDEST PUSH1 0x40 MLOAD DUP1 SWAP2 SUB SWAP1 REVERT JUMPDEST JUMPDEST PUSH1 0x0 PUSH20 0xFFFFFFFFFFFFFFFFFFFFFFFFFFFFFFFFFFFFFFFF AND PUSH1 0x2 PUSH1 0x0 DUP6 PUSH20 0xFFFFFFFFFFFFFFFFFFFFFFFFFFFFFFFFFFFFFFFF AND PUSH20 0xFFFFFFFFFFFFFFFFFFFFFFFFFFFFFFFFFFFFFFFF AND DUP2 MSTORE PUSH1 0x20 ADD SWAP1 DUP2 MSTORE PUSH1 0x20 ADD PUSH1 0x0 KECCAK256 PUSH1 0x1 ADD PUSH1 0x1 SWAP1 SLOAD SWAP1 PUSH2 0x100 EXP SWAP1 DIV PUSH20 0xFFFFFFFFFFFFFFFFFFFFFFFFFFFFFFFFFFFFFFFF AND PUSH20 0xFFFFFFFFFFFFFFFFFFFFFFFFFFFFFFFFFFFFFFFF AND EQ PUSH2 0x6DC JUMPI PUSH1 0x2 PUSH1 0x0 DUP5 PUSH20 0xFFFFFFFFFFFFFFFFFFFFFFFFFFFFFFFFFFFFFFFF AND PUSH20 0xFFFFFFFFFFFFFFFFFFFFFFFFFFFFFFFFFFFFFFFF AND DUP2 MSTORE PUSH1 0x20 ADD SWAP1 DUP2 MSTORE PUSH1 0x20 ADD PUSH1 0x0 KECCAK256 PUSH1 0x1 ADD PUSH1 0x1 SWAP1 SLOAD SWAP1 PUSH2 0x100 EXP SWAP1 DIV PUSH20 0xFFFFFFFFFFFFFFFFFFFFFFFFFFFFFFFFFFFFFFFF AND SWAP3 POP PUSH2 0x669 PUSH2 0xBF7 JUMP JUMPDEST PUSH20 0xFFFFFFFFFFFFFFFFFFFFFFFFFFFFFFFFFFFFFFFF AND DUP4 PUSH20 0xFFFFFFFFFFFFFFFFFFFFFFFFFFFFFFFFFFFFFFFF AND EQ ISZERO PUSH2 0x6D7 JUMPI PUSH1 0x40 MLOAD PUSH32 0x8C379A000000000000000000000000000000000000000000000000000000000 DUP2 MSTORE PUSH1 0x4 ADD PUSH2 0x6CE SWAP1 PUSH2 0xFB1 JUMP JUMPDEST PUSH1 0x40 MLOAD DUP1 SWAP2 SUB SWAP1 REVERT JUMPDEST PUSH2 0x566 JUMP JUMPDEST PUSH1 0x1 DUP2 PUSH1 0x1 ADD PUSH1 0x0 PUSH2 0x100 EXP DUP2 SLOAD DUP2 PUSH1 0xFF MUL NOT AND SWAP1 DUP4 ISZERO ISZERO MUL OR SWAP1 SSTORE POP DUP3 DUP2 PUSH1 0x1 ADD PUSH1 0x1 PUSH2 0x100 EXP DUP2 SLOAD DUP2 PUSH20 0xFFFFFFFFFFFFFFFFFFFFFFFFFFFFFFFFFFFFFFFF MUL NOT AND SWAP1 DUP4 PUSH20 0xFFFFFFFFFFFFFFFFFFFFFFFFFFFFFFFFFFFFFFFF AND MUL OR SWAP1 SSTORE POP PUSH1 0x0 PUSH1 0x2 PUSH1 0x0 DUP6 PUSH20 0xFFFFFFFFFFFFFFFFFFFFFFFFFFFFFFFFFFFFFFFF AND PUSH20 0xFFFFFFFFFFFFFFFFFFFFFFFFFFFFFFFFFFFFFFFF AND DUP2 MSTORE PUSH1 0x20 ADD SWAP1 DUP2 MSTORE PUSH1 0x20 ADD PUSH1 0x0 KECCAK256 SWAP1 POP DUP1 PUSH1 0x1 ADD PUSH1 0x0 SWAP1 SLOAD SWAP1 PUSH2 0x100 EXP SWAP1 DIV PUSH1 0xFF AND ISZERO PUSH2 0x808 JUMPI PUSH2 0x7D6 DUP3 PUSH1 0x0 ADD SLOAD PUSH1 0x3 DUP4 PUSH1 0x2 ADD SLOAD DUP2 SLOAD DUP2 LT PUSH2 0x7B6 JUMPI PUSH2 0x7B5 PUSH2 0x1161 JUMP JUMPDEST JUMPDEST SWAP1 PUSH1 0x0 MSTORE PUSH1 0x20 PUSH1 0x0 KECCAK256 SWAP1 PUSH1 0x2 MUL ADD PUSH1 0x1 ADD SLOAD PUSH2 0xBE1 SWAP1 SWAP2 SWAP1 PUSH4 0xFFFFFFFF AND JUMP JUMPDEST PUSH1 0x3 DUP3 PUSH1 0x2 ADD SLOAD DUP2 SLOAD DUP2 LT PUSH2 0x7EE JUMPI PUSH2 0x7ED PUSH2 0x1161 JUMP JUMPDEST JUMPDEST SWAP1 PUSH1 0x0 MSTORE PUSH1 0x20 PUSH1 0x0 KECCAK256 SWAP1 PUSH1 0x2 MUL ADD PUSH1 0x1 ADD DUP2 SWAP1 SSTORE POP PUSH2 0x82C JUMP JUMPDEST PUSH2 0x823 DUP3 PUSH1 0x0 ADD SLOAD DUP3 PUSH1 0x0 ADD SLOAD PUSH2 0xBE1 SWAP1 SWAP2 SWAP1 PUSH4 0xFFFFFFFF AND JUMP JUMPDEST DUP2 PUSH1 0x0 ADD DUP2 SWAP1 SSTORE POP JUMPDEST DUP4 PUSH20 0xFFFFFFFFFFFFFFFFFFFFFFFFFFFFFFFFFFFFFFFF AND PUSH2 0x84B PUSH2 0xBF7 JUMP JUMPDEST PUSH20 0xFFFFFFFFFFFFFFFFFFFFFFFFFFFFFFFFFFFFFFFF AND PUSH32 0x4CE9EF2C99D761D69230B0E3381F4C6016333B2E27D32B3E379A96B5D2C69232 PUSH1 0x40 MLOAD PUSH1 0x40 MLOAD DUP1 SWAP2 SUB SWAP1 LOG3 POP POP POP POP JUMP JUMPDEST PUSH1 0x0 DUP1 PUSH1 0x0 SWAP1 POP PUSH1 0x0 JUMPDEST PUSH1 0x3 DUP1 SLOAD SWAP1 POP DUP2 LT ISZERO PUSH2 0x91E JUMPI DUP2 PUSH1 0x3 DUP3 DUP2 SLOAD DUP2 LT PUSH2 0x8BF JUMPI PUSH2 0x8BE PUSH2 0x1161 JUMP JUMPDEST JUMPDEST SWAP1 PUSH1 0x0 MSTORE PUSH1 0x20 PUSH1 0x0 KECCAK256 SWAP1 PUSH1 0x2 MUL ADD PUSH1 0x1 ADD SLOAD GT ISZERO PUSH2 0x903 JUMPI PUSH1 0x3 DUP2 DUP2 SLOAD DUP2 LT PUSH2 0x8EB JUMPI PUSH2 0x8EA PUSH2 0x1161 JUMP JUMPDEST JUMPDEST SWAP1 PUSH1 0x0 MSTORE PUSH1 0x20 PUSH1 0x0 KECCAK256 SWAP1 PUSH1 0x2 MUL ADD PUSH1 0x1 ADD SLOAD SWAP2 POP DUP1 SWAP3 POP JUMPDEST PUSH2 0x917 PUSH1 0x1 DUP3 PUSH2 0xBE1 SWAP1 SWAP2 SWAP1 PUSH4 0xFFFFFFFF AND JUMP JUMPDEST SWAP1 POP PUSH2 0x89D JUMP JUMPDEST POP POP SWAP1 JUMP JUMPDEST PUSH1 0x1 PUSH1 0x0 SWAP1 SLOAD SWAP1 PUSH2 0x100 EXP SWAP1 DIV PUSH20 0xFFFFFFFFFFFFFFFFFFFFFFFFFFFFFFFFFFFFFFFF AND PUSH20 0xFFFFFFFFFFFFFFFFFFFFFFFFFFFFFFFFFFFFFFFF AND PUSH2 0x964 PUSH2 0xBF7 JUMP JUMPDEST PUSH20 0xFFFFFFFFFFFFFFFFFFFFFFFFFFFFFFFFFFFFFFFF AND EQ PUSH2 0x9BA JUMPI PUSH1 0x40 MLOAD PUSH32 0x8C379A000000000000000000000000000000000000000000000000000000000 DUP2 MSTORE PUSH1 0x4 ADD PUSH2 0x9B1 SWAP1 PUSH2 0xF31 JUMP JUMPDEST PUSH1 0x40 MLOAD DUP1 SWAP2 SUB SWAP1 REVERT JUMPDEST DUP1 PUSH1 0x2 PUSH1 0x0 DUP3 PUSH20 0xFFFFFFFFFFFFFFFFFFFFFFFFFFFFFFFFFFFFFFFF AND PUSH20 0xFFFFFFFFFFFFFFFFFFFFFFFFFFFFFFFFFFFFFFFF AND DUP2 MSTORE PUSH1 0x20 ADD SWAP1 DUP2 MSTORE PUSH1 0x20 ADD PUSH1 0x0 KECCAK256 PUSH1 0x1 ADD PUSH1 0x0 SWAP1 SLOAD SWAP1 PUSH2 0x100 EXP SWAP1 DIV PUSH1 0xFF AND ISZERO PUSH2 0xA4B JUMPI PUSH1 0x40 MLOAD PUSH32 0x8C379A000000000000000000000000000000000000000000000000000000000 DUP2 MSTORE PUSH1 0x4 ADD PUSH2 0xA42 SWAP1 PUSH2 0xEF1 JUMP JUMPDEST PUSH1 0x40 MLOAD DUP1 SWAP2 SUB SWAP1 REVERT JUMPDEST PUSH1 0x0 PUSH1 0x2 PUSH1 0x0 DUP5 PUSH20 0xFFFFFFFFFFFFFFFFFFFFFFFFFFFFFFFFFFFFFFFF AND PUSH20 0xFFFFFFFFFFFFFFFFFFFFFFFFFFFFFFFFFFFFFFFF AND DUP2 MSTORE PUSH1 0x20 ADD SWAP1 DUP2 MSTORE PUSH1 0x20 ADD PUSH1 0x0 KECCAK256 PUSH1 0x0 ADD SLOAD EQ PUSH2 0xAD0 JUMPI PUSH1 0x40 MLOAD PUSH32 0x8C379A000000000000000000000000000000000000000000000000000000000 DUP2 MSTORE PUSH1 0x4 ADD PUSH2 0xAC7 SWAP1 PUSH2 0xF71 JUMP JUMPDEST PUSH1 0x40 MLOAD DUP1 SWAP2 SUB SWAP1 REVERT JUMPDEST PUSH1 0x1 PUSH1 0x2 PUSH1 0x0 DUP5 PUSH20 0xFFFFFFFFFFFFFFFFFFFFFFFFFFFFFFFFFFFFFFFF AND PUSH20 0xFFFFFFFFFFFFFFFFFFFFFFFFFFFFFFFFFFFFFFFF AND DUP2 MSTORE PUSH1 0x20 ADD SWAP1 DUP2 MSTORE PUSH1 0x20 ADD PUSH1 0x0 KECCAK256 PUSH1 0x0 ADD DUP2 SWAP1 SSTORE POP POP POP JUMP JUMPDEST PUSH1 0x2 PUSH1 0x20 MSTORE DUP1 PUSH1 0x0 MSTORE PUSH1 0x40 PUSH1 0x0 KECCAK256 PUSH1 0x0 SWAP2 POP SWAP1 POP DUP1 PUSH1 0x0 ADD SLOAD SWAP1 DUP1 PUSH1 0x1 ADD PUSH1 0x0 SWAP1 SLOAD SWAP1 PUSH2 0x100 EXP SWAP1 DIV PUSH1 0xFF AND SWAP1 DUP1 PUSH1 0x1 ADD PUSH1 0x1 SWAP1 SLOAD SWAP1 PUSH2 0x100 EXP SWAP1 DIV PUSH20 0xFFFFFFFFFFFFFFFFFFFFFFFFFFFFFFFFFFFFFFFF AND SWAP1 DUP1 PUSH1 0x2 ADD SLOAD SWAP1 POP DUP5 JUMP JUMPDEST PUSH1 0x1 PUSH1 0x0 SWAP1 SLOAD SWAP1 PUSH2 0x100 EXP SWAP1 DIV PUSH20 0xFFFFFFFFFFFFFFFFFFFFFFFFFFFFFFFFFFFFFFFF AND DUP2 JUMP JUMPDEST PUSH1 0x0 SLOAD DUP2 JUMP JUMPDEST PUSH1 0x60 PUSH2 0xBDC PUSH1 0x3 PUSH2 0xBB4 PUSH2 0x893 JUMP JUMPDEST DUP2 SLOAD DUP2 LT PUSH2 0xBC5 JUMPI PUSH2 0xBC4 PUSH2 0x1161 JUMP JUMPDEST JUMPDEST SWAP1 PUSH1 0x0 MSTORE PUSH1 0x20 PUSH1 0x0 KECCAK256 SWAP1 PUSH1 0x2 MUL ADD PUSH1 0x0 ADD SLOAD PUSH2 0xBFF JUMP JUMPDEST SWAP1 POP SWAP1 JUMP JUMPDEST PUSH1 0x0 DUP2 DUP4 PUSH2 0xBEF SWAP2 SWAP1 PUSH2 0x104D JUMP JUMPDEST SWAP1 POP SWAP3 SWAP2 POP POP JUMP JUMPDEST PUSH1 0x0 CALLER SWAP1 POP SWAP1 JUMP JUMPDEST PUSH1 0x60 DUP2 PUSH1 0x40 MLOAD PUSH1 0x20 ADD PUSH2 0xC12 SWAP2 SWAP1 PUSH2 0xE50 JUMP JUMPDEST PUSH1 0x40 MLOAD PUSH1 0x20 DUP2 DUP4 SUB SUB DUP2 MSTORE SWAP1 PUSH1 0x40 MSTORE SWAP1 POP SWAP2 SWAP1 POP JUMP JUMPDEST PUSH1 0x0 DUP2 CALLDATALOAD SWAP1 POP PUSH2 0xC37 DUP2 PUSH2 0x13D2 JUMP JUMPDEST SWAP3 SWAP2 POP POP JUMP JUMPDEST PUSH1 0x0 DUP2 CALLDATALOAD SWAP1 POP PUSH2 0xC4C DUP2 PUSH2 0x13E9 JUMP JUMPDEST SWAP3 SWAP2 POP POP JUMP JUMPDEST PUSH1 0x0 PUSH1 0x20 DUP3 DUP5 SUB SLT ISZERO PUSH2 0xC68 JUMPI PUSH2 0xC67 PUSH2 0x1190 JUMP JUMPDEST JUMPDEST PUSH1 0x0 PUSH2 0xC76 DUP5 DUP3 DUP6 ADD PUSH2 0xC28 JUMP JUMPDEST SWAP2 POP POP SWAP3 SWAP2 POP POP JUMP JUMPDEST PUSH1 0x0 PUSH1 0x20 DUP3 DUP5 SUB SLT ISZERO PUSH2 0xC95 JUMPI PUSH2 0xC94 PUSH2 0x1190 JUMP JUMPDEST JUMPDEST PUSH1 0x0 PUSH2 0xCA3 DUP5 DUP3 DUP6 ADD PUSH2 0xC3D JUMP JUMPDEST SWAP2 POP POP SWAP3 SWAP2 POP POP JUMP JUMPDEST PUSH2 0xCB5 DUP2 PUSH2 0x10A3 JUMP JUMPDEST DUP3 MSTORE POP POP JUMP JUMPDEST PUSH2 0xCC4 DUP2 PUSH2 0x10B5 JUMP JUMPDEST DUP3 MSTORE POP POP JUMP JUMPDEST PUSH2 0xCD3 DUP2 PUSH2 0x10C1 JUMP JUMPDEST DUP3 MSTORE POP POP JUMP JUMPDEST PUSH2 0xCEA PUSH2 0xCE5 DUP3 PUSH2 0x10C1 JUMP JUMPDEST PUSH2 0x1128 JUMP JUMPDEST DUP3 MSTORE POP POP JUMP JUMPDEST PUSH1 0x0 PUSH2 0xCFB DUP3 PUSH2 0x1031 JUMP JUMPDEST PUSH2 0xD05 DUP2 DUP6 PUSH2 0x103C JUMP JUMPDEST SWAP4 POP PUSH2 0xD15 DUP2 DUP6 PUSH1 0x20 DUP7 ADD PUSH2 0x10F5 JUMP JUMPDEST PUSH2 0xD1E DUP2 PUSH2 0x1195 JUMP JUMPDEST DUP5 ADD SWAP2 POP POP SWAP3 SWAP2 POP POP JUMP JUMPDEST PUSH1 0x0 PUSH2 0xD36 PUSH1 0x14 DUP4 PUSH2 0x103C JUMP JUMPDEST SWAP2 POP PUSH2 0xD41 DUP3 PUSH2 0x11A6 JUMP JUMPDEST PUSH1 0x20 DUP3 ADD SWAP1 POP SWAP2 SWAP1 POP JUMP JUMPDEST PUSH1 0x0 PUSH2 0xD59 PUSH1 0x2A DUP4 PUSH2 0x103C JUMP JUMPDEST SWAP2 POP PUSH2 0xD64 DUP3 PUSH2 0x11CF JUMP JUMPDEST PUSH1 0x40 DUP3 ADD SWAP1 POP SWAP2 SWAP1 POP JUMP JUMPDEST PUSH1 0x0 PUSH2 0xD7C PUSH1 0xE DUP4 PUSH2 0x103C JUMP JUMPDEST SWAP2 POP PUSH2 0xD87 DUP3 PUSH2 0x121E JUMP JUMPDEST PUSH1 0x20 DUP3 ADD SWAP1 POP SWAP2 SWAP1 POP JUMP JUMPDEST PUSH1 0x0 PUSH2 0xD9F PUSH1 0x36 DUP4 PUSH2 0x103C JUMP JUMPDEST SWAP2 POP PUSH2 0xDAA DUP3 PUSH2 0x1247 JUMP JUMPDEST PUSH1 0x40 DUP3 ADD SWAP1 POP SWAP2 SWAP1 POP JUMP JUMPDEST PUSH1 0x0 PUSH2 0xDC2 PUSH1 0x2D DUP4 PUSH2 0x103C JUMP JUMPDEST SWAP2 POP PUSH2 0xDCD DUP3 PUSH2 0x1296 JUMP JUMPDEST PUSH1 0x40 DUP3 ADD SWAP1 POP SWAP2 SWAP1 POP JUMP JUMPDEST PUSH1 0x0 PUSH2 0xDE5 PUSH1 0x30 DUP4 PUSH2 0x103C JUMP JUMPDEST SWAP2 POP PUSH2 0xDF0 DUP3 PUSH2 0x12E5 JUMP JUMPDEST PUSH1 0x40 DUP3 ADD SWAP1 POP SWAP2 SWAP1 POP JUMP JUMPDEST PUSH1 0x0 PUSH2 0xE08 PUSH1 0x2B DUP4 PUSH2 0x103C JUMP JUMPDEST SWAP2 POP PUSH2 0xE13 DUP3 PUSH2 0x1334 JUMP JUMPDEST PUSH1 0x40 DUP3 ADD SWAP1 POP SWAP2 SWAP1 POP JUMP JUMPDEST PUSH1 0x0 PUSH2 0xE2B PUSH1 0x2F DUP4 PUSH2 0x103C JUMP JUMPDEST SWAP2 POP PUSH2 0xE36 DUP3 PUSH2 0x1383 JUMP JUMPDEST PUSH1 0x40 DUP3 ADD SWAP1 POP SWAP2 SWAP1 POP JUMP JUMPDEST PUSH2 0xE4A DUP2 PUSH2 0x10EB JUMP JUMPDEST DUP3 MSTORE POP POP JUMP JUMPDEST PUSH1 0x0 PUSH2 0xE5C DUP3 DUP5 PUSH2 0xCD9 JUMP JUMPDEST PUSH1 0x20 DUP3 ADD SWAP2 POP DUP2 SWAP1 POP SWAP3 SWAP2 POP POP JUMP JUMPDEST PUSH1 0x0 PUSH1 0x20 DUP3 ADD SWAP1 POP PUSH2 0xE80 PUSH1 0x0 DUP4 ADD DUP5 PUSH2 0xCAC JUMP JUMPDEST SWAP3 SWAP2 POP POP JUMP JUMPDEST PUSH1 0x0 PUSH1 0x40 DUP3 ADD SWAP1 POP PUSH2 0xE9B PUSH1 0x0 DUP4 ADD DUP6 PUSH2 0xCCA JUMP JUMPDEST PUSH2 0xEA8 PUSH1 0x20 DUP4 ADD DUP5 PUSH2 0xE41 JUMP JUMPDEST SWAP4 SWAP3 POP POP POP JUMP JUMPDEST PUSH1 0x0 PUSH1 0x20 DUP3 ADD SWAP1 POP DUP2 DUP2 SUB PUSH1 0x0 DUP4 ADD MSTORE PUSH2 0xEC9 DUP2 DUP5 PUSH2 0xCF0 JUMP JUMPDEST SWAP1 POP SWAP3 SWAP2 POP POP JUMP JUMPDEST PUSH1 0x0 PUSH1 0x20 DUP3 ADD SWAP1 POP DUP2 DUP2 SUB PUSH1 0x0 DUP4 ADD MSTORE PUSH2 0xEEA DUP2 PUSH2 0xD29 JUMP JUMPDEST SWAP1 POP SWAP2 SWAP1 POP JUMP JUMPDEST PUSH1 0x0 PUSH1 0x20 DUP3 ADD SWAP1 POP DUP2 DUP2 SUB PUSH1 0x0 DUP4 ADD MSTORE PUSH2 0xF0A DUP2 PUSH2 0xD4C JUMP JUMPDEST SWAP1 POP SWAP2 SWAP1 POP JUMP JUMPDEST PUSH1 0x0 PUSH1 0x20 DUP3 ADD SWAP1 POP DUP2 DUP2 SUB PUSH1 0x0 DUP4 ADD MSTORE PUSH2 0xF2A DUP2 PUSH2 0xD6F JUMP JUMPDEST SWAP1 POP SWAP2 SWAP1 POP JUMP JUMPDEST PUSH1 0x0 PUSH1 0x20 DUP3 ADD SWAP1 POP DUP2 DUP2 SUB PUSH1 0x0 DUP4 ADD MSTORE PUSH2 0xF4A DUP2 PUSH2 0xD92 JUMP JUMPDEST SWAP1 POP SWAP2 SWAP1 POP JUMP JUMPDEST PUSH1 0x0 PUSH1 0x20 DUP3 ADD SWAP1 POP DUP2 DUP2 SUB PUSH1 0x0 DUP4 ADD MSTORE PUSH2 0xF6A DUP2 PUSH2 0xDB5 JUMP JUMPDEST SWAP1 POP SWAP2 SWAP1 POP JUMP JUMPDEST PUSH1 0x0 PUSH1 0x20 DUP3 ADD SWAP1 POP DUP2 DUP2 SUB PUSH1 0x0 DUP4 ADD MSTORE PUSH2 0xF8A DUP2 PUSH2 0xDD8 JUMP JUMPDEST SWAP1 POP SWAP2 SWAP1 POP JUMP JUMPDEST PUSH1 0x0 PUSH1 0x20 DUP3 ADD SWAP1 POP DUP2 DUP2 SUB PUSH1 0x0 DUP4 ADD MSTORE PUSH2 0xFAA DUP2 PUSH2 0xDFB JUMP JUMPDEST SWAP1 POP SWAP2 SWAP1 POP JUMP JUMPDEST PUSH1 0x0 PUSH1 0x20 DUP3 ADD SWAP1 POP DUP2 DUP2 SUB PUSH1 0x0 DUP4 ADD MSTORE PUSH2 0xFCA DUP2 PUSH2 0xE1E JUMP JUMPDEST SWAP1 POP SWAP2 SWAP1 POP JUMP JUMPDEST PUSH1 0x0 PUSH1 0x20 DUP3 ADD SWAP1 POP PUSH2 0xFE6 PUSH1 0x0 DUP4 ADD DUP5 PUSH2 0xE41 JUMP JUMPDEST SWAP3 SWAP2 POP POP JUMP JUMPDEST PUSH1 0x0 PUSH1 0x80 DUP3 ADD SWAP1 POP PUSH2 0x1001 PUSH1 0x0 DUP4 ADD DUP8 PUSH2 0xE41 JUMP JUMPDEST PUSH2 0x100E PUSH1 0x20 DUP4 ADD DUP7 PUSH2 0xCBB JUMP JUMPDEST PUSH2 0x101B PUSH1 0x40 DUP4 ADD DUP6 PUSH2 0xCAC JUMP JUMPDEST PUSH2 0x1028 PUSH1 0x60 DUP4 ADD DUP5 PUSH2 0xE41 JUMP JUMPDEST SWAP6 SWAP5 POP POP POP POP POP JUMP JUMPDEST PUSH1 0x0 DUP2 MLOAD SWAP1 POP SWAP2 SWAP1 POP JUMP JUMPDEST PUSH1 0x0 DUP3 DUP3 MSTORE PUSH1 0x20 DUP3 ADD SWAP1 POP SWAP3 SWAP2 POP POP JUMP JUMPDEST PUSH1 0x0 PUSH2 0x1058 DUP3 PUSH2 0x10EB JUMP JUMPDEST SWAP2 POP PUSH2 0x1063 DUP4 PUSH2 0x10EB JUMP JUMPDEST SWAP3 POP DUP3 PUSH32 0xFFFFFFFFFFFFFFFFFFFFFFFFFFFFFFFFFFFFFFFFFFFFFFFFFFFFFFFFFFFFFFFF SUB DUP3 GT ISZERO PUSH2 0x1098 JUMPI PUSH2 0x1097 PUSH2 0x1132 JUMP JUMPDEST JUMPDEST DUP3 DUP3 ADD SWAP1 POP SWAP3 SWAP2 POP POP JUMP JUMPDEST PUSH1 0x0 PUSH2 0x10AE DUP3 PUSH2 0x10CB JUMP JUMPDEST SWAP1 POP SWAP2 SWAP1 POP JUMP JUMPDEST PUSH1 0x0 DUP2 ISZERO ISZERO SWAP1 POP SWAP2 SWAP1 POP JUMP JUMPDEST PUSH1 0x0 DUP2 SWAP1 POP SWAP2 SWAP1 POP JUMP JUMPDEST PUSH1 0x0 PUSH20 0xFFFFFFFFFFFFFFFFFFFFFFFFFFFFFFFFFFFFFFFF DUP3 AND SWAP1 POP SWAP2 SWAP1 POP JUMP JUMPDEST PUSH1 0x0 DUP2 SWAP1 POP SWAP2 SWAP1 POP JUMP JUMPDEST PUSH1 0x0 JUMPDEST DUP4 DUP2 LT ISZERO PUSH2 0x1113 JUMPI DUP1 DUP3 ADD MLOAD DUP2 DUP5 ADD MSTORE PUSH1 0x20 DUP2 ADD SWAP1 POP PUSH2 0x10F8 JUMP JUMPDEST DUP4 DUP2 GT ISZERO PUSH2 0x1122 JUMPI PUSH1 0x0 DUP5 DUP5 ADD MSTORE JUMPDEST POP POP POP POP JUMP JUMPDEST PUSH1 0x0 DUP2 SWAP1 POP SWAP2 SWAP1 POP JUMP JUMPDEST PUSH32 0x4E487B7100000000000000000000000000000000000000000000000000000000 PUSH1 0x0 MSTORE PUSH1 0x11 PUSH1 0x4 MSTORE PUSH1 0x24 PUSH1 0x0 REVERT JUMPDEST PUSH32 0x4E487B7100000000000000000000000000000000000000000000000000000000 PUSH1 0x0 MSTORE PUSH1 0x32 PUSH1 0x4 MSTORE PUSH1 0x24 PUSH1 0x0 REVERT JUMPDEST PUSH1 0x0 DUP1 REVERT JUMPDEST PUSH1 0x0 PUSH1 0x1F NOT PUSH1 0x1F DUP4 ADD AND SWAP1 POP SWAP2 SWAP1 POP JUMP JUMPDEST PUSH32 0x486173206E6F20726967687420746F20766F7465000000000000000000000000 PUSH1 0x0 DUP3 ADD MSTORE POP JUMP JUMPDEST PUSH32 0x53696D706C65566F74696E673A2054686520766F7465722068617320616C7265 PUSH1 0x0 DUP3 ADD MSTORE PUSH32 0x61647920766F7465642E00000000000000000000000000000000000000000000 PUSH1 0x20 DUP3 ADD MSTORE POP JUMP JUMPDEST PUSH32 0x416C726561647920766F7465642E000000000000000000000000000000000000 PUSH1 0x0 DUP3 ADD MSTORE POP JUMP JUMPDEST PUSH32 0x53696D706C65566F74696E673A204F6E6C79206368616972506572736F6E2063 PUSH1 0x0 DUP3 ADD MSTORE PUSH32 0x616E206769766520726967687420746F20766F74652E00000000000000000000 PUSH1 0x20 DUP3 ADD MSTORE POP JUMP JUMPDEST PUSH32 0x53696D706C65566F74696E673A2053656C662D64656C65676174696F6E206973 PUSH1 0x0 DUP3 ADD MSTORE PUSH32 0x206E6F7420616C6C6F7765642E00000000000000000000000000000000000000 PUSH1 0x20 DUP3 ADD MSTORE POP JUMP JUMPDEST PUSH32 0x53696D706C65566F74696E673A204164647265737320616C7265616479206861 PUSH1 0x0 DUP3 ADD MSTORE PUSH32 0x7320726967687420746F20766F74652E00000000000000000000000000000000 PUSH1 0x20 DUP3 ADD MSTORE POP JUMP JUMPDEST PUSH32 0x53696D706C65566F74696E673A2050726F706F73616C20696E646578206F7574 PUSH1 0x0 DUP3 ADD MSTORE PUSH32 0x206F6620626F756E64732E000000000000000000000000000000000000000000 PUSH1 0x20 DUP3 ADD MSTORE POP JUMP JUMPDEST PUSH32 0x53696D706C65566F74696E673A2044656C65676174696F6E2074726163657320 PUSH1 0x0 DUP3 ADD MSTORE PUSH32 0x6261636B20746F2063616C6C65722E0000000000000000000000000000000000 PUSH1 0x20 DUP3 ADD MSTORE POP JUMP JUMPDEST PUSH2 0x13DB DUP2 PUSH2 0x10A3 JUMP JUMPDEST DUP2 EQ PUSH2 0x13E6 JUMPI PUSH1 0x0 DUP1 REVERT JUMPDEST POP JUMP JUMPDEST PUSH2 0x13F2 DUP2 PUSH2 0x10EB JUMP JUMPDEST DUP2 EQ PUSH2 0x13FD JUMPI PUSH1 0x0 DUP1 REVERT JUMPDEST POP JUMP INVALID LOG2 PUSH5 0x6970667358 0x22 SLT KECCAK256 SAR DUP4 0x26 MSTORE8 CALLER 0xEB EXTCODECOPY 0xC6 BALANCE 0xD9 0xD1 PUSH20 0xD5B3C8E24AE59A859D55A8D5139C5DB2DE848400 PUSH5 0x736F6C6343 STOP ADDMOD SMOD STOP CALLER "
				},
				"gasEstimates": {
					"creation": {
						"codeDepositCost": "1034800",
						"executionCost": "infinite",
						"totalCost": "infinite"
					},
					"external": {
						"chairPerson()": "2558",
						"delegate(address)": "infinite",
						"giveRightToVote(address)": "29346",
						"proposalCount()": "2495",
						"proposals(uint256)": "infinite",
						"vote(uint256)": "infinite",
						"voters(address)": "infinite",
						"winnerName()": "infinite",
						"winningProposal()": "infinite"
					},
					"internal": {
						"bytes32ToString(bytes32)": "infinite",
						"stringToBytes32(string memory)": "infinite"
					}
				},
				"methodIdentifiers": {
					"chairPerson()": "d4d4b5ac",
					"delegate(address)": "5c19a95c",
					"giveRightToVote(address)": "9e7b8d61",
					"proposalCount()": "da35c664",
					"proposals(uint256)": "013cf08b",
					"vote(uint256)": "0121b93f",
					"voters(address)": "a3ec138d",
					"winnerName()": "e2ba53f0",
					"winningProposal()": "609ff1bd"
				}
			},
			"storageLayout": {
				"storage": [
					{
						"astId": 25,
						"contract": "contracts/SimpleVoting.sol:SimpleVoting",
						"label": "proposalCount",
						"offset": 0,
						"slot": "0",
						"type": "t_uint256"
					},
					{
						"astId": 27,
						"contract": "contracts/SimpleVoting.sol:SimpleVoting",
						"label": "chairPerson",
						"offset": 0,
						"slot": "1",
						"type": "t_address"
					},
					{
						"astId": 32,
						"contract": "contracts/SimpleVoting.sol:SimpleVoting",
						"label": "voters",
						"offset": 0,
						"slot": "2",
						"type": "t_mapping(t_address,t_struct(Voter)18_storage)"
					},
					{
						"astId": 36,
						"contract": "contracts/SimpleVoting.sol:SimpleVoting",
						"label": "proposals",
						"offset": 0,
						"slot": "3",
						"type": "t_array(t_struct(Proposal)23_storage)dyn_storage"
					}
				],
				"types": {
					"t_address": {
						"encoding": "inplace",
						"label": "address",
						"numberOfBytes": "20"
					},
					"t_array(t_struct(Proposal)23_storage)dyn_storage": {
						"base": "t_struct(Proposal)23_storage",
						"encoding": "dynamic_array",
						"label": "struct SimpleVoting.Proposal[]",
						"numberOfBytes": "32"
					},
					"t_bool": {
						"encoding": "inplace",
						"label": "bool",
						"numberOfBytes": "1"
					},
					"t_bytes32": {
						"encoding": "inplace",
						"label": "bytes32",
						"numberOfBytes": "32"
					},
					"t_mapping(t_address,t_struct(Voter)18_storage)": {
						"encoding": "mapping",
						"key": "t_address",
						"label": "mapping(address => struct SimpleVoting.Voter)",
						"numberOfBytes": "32",
						"value": "t_struct(Voter)18_storage"
					},
					"t_struct(Proposal)23_storage": {
						"encoding": "inplace",
						"label": "struct SimpleVoting.Proposal",
						"members": [
							{
								"astId": 20,
								"contract": "contracts/SimpleVoting.sol:SimpleVoting",
								"label": "name",
								"offset": 0,
								"slot": "0",
								"type": "t_bytes32"
							},
							{
								"astId": 22,
								"contract": "contracts/SimpleVoting.sol:SimpleVoting",
								"label": "voteCount",
								"offset": 0,
								"slot": "1",
								"type": "t_uint256"
							}
						],
						"numberOfBytes": "64"
					},
					"t_struct(Voter)18_storage": {
						"encoding": "inplace",
						"label": "struct SimpleVoting.Voter",
						"members": [
							{
								"astId": 11,
								"contract": "contracts/SimpleVoting.sol:SimpleVoting",
								"label": "weight",
								"offset": 0,
								"slot": "0",
								"type": "t_uint256"
							},
							{
								"astId": 13,
								"contract": "contracts/SimpleVoting.sol:SimpleVoting",
								"label": "voted",
								"offset": 0,
								"slot": "1",
								"type": "t_bool"
							},
							{
								"astId": 15,
								"contract": "contracts/SimpleVoting.sol:SimpleVoting",
								"label": "delegate",
								"offset": 1,
								"slot": "1",
								"type": "t_address"
							},
							{
								"astId": 17,
								"contract": "contracts/SimpleVoting.sol:SimpleVoting",
								"label": "vote",
								"offset": 0,
								"slot": "2",
								"type": "t_uint256"
							}
						],
						"numberOfBytes": "96"
					},
					"t_uint256": {
						"encoding": "inplace",
						"label": "uint256",
						"numberOfBytes": "32"
					}
				}
			},
			"userdoc": {
				"kind": "user",
				"methods": {},
				"version": 1
			}
		}
	}
}