{
	"contracts/SimpleVoting.sol": {
		"SimpleVoting": {
			"abi": [
				{
					"inputs": [
						{
							"internalType": "string[]",
							"name": "proposalNames",
							"type": "string[]"
						}
					],
					"stateMutability": "nonpayable",
					"type": "constructor"
				},
				{
					"anonymous": false,
					"inputs": [
						{
							"indexed": true,
							"internalType": "address",
							"name": "_from",
							"type": "address"
						},
						{
							"indexed": true,
							"internalType": "address",
							"name": "_to",
							"type": "address"
						}
					],
					"name": "DelegationSuccessful",
					"type": "event"
				},
				{
					"anonymous": false,
					"inputs": [
						{
							"indexed": true,
							"internalType": "uint256",
							"name": "_proposal",
							"type": "uint256"
						},
						{
							"indexed": true,
							"internalType": "address",
							"name": "_voter",
							"type": "address"
						},
						{
							"indexed": false,
							"internalType": "uint256",
							"name": "_votesAdded",
							"type": "uint256"
						}
					],
					"name": "VoteCasted",
					"type": "event"
				},
				{
					"anonymous": false,
					"inputs": [
						{
							"indexed": false,
							"internalType": "address",
							"name": "_chairPerson",
							"type": "address"
						},
						{
							"indexed": false,
							"internalType": "uint256",
							"name": "_proposalCount",
							"type": "uint256"
						}
					],
					"name": "VotingStarted",
					"type": "event"
				},
				{
					"inputs": [],
					"name": "chairPerson",
					"outputs": [
						{
							"internalType": "address",
							"name": "",
							"type": "address"
						}
					],
					"stateMutability": "view",
					"type": "function"
				},
				{
					"inputs": [
						{
							"internalType": "address",
							"name": "_to",
							"type": "address"
						}
					],
					"name": "delegate",
					"outputs": [],
					"stateMutability": "nonpayable",
					"type": "function"
				},
				{
					"inputs": [
						{
							"internalType": "uint256",
							"name": "_proposalIndex",
							"type": "uint256"
						}
					],
					"name": "getProposal",
					"outputs": [
						{
							"internalType": "string",
							"name": "proposalName_",
							"type": "string"
						},
						{
							"internalType": "uint256",
							"name": "voteCount_",
							"type": "uint256"
						}
					],
					"stateMutability": "view",
					"type": "function"
				},
				{
					"inputs": [],
					"name": "getWinningProposals",
					"outputs": [
						{
							"internalType": "uint256[]",
							"name": "",
							"type": "uint256[]"
						}
					],
					"stateMutability": "nonpayable",
					"type": "function"
				},
				{
					"inputs": [
						{
							"internalType": "address",
							"name": "_voter",
							"type": "address"
						}
					],
					"name": "giveRightToVote",
					"outputs": [],
					"stateMutability": "nonpayable",
					"type": "function"
				},
				{
					"inputs": [],
					"name": "proposalCount",
					"outputs": [
						{
							"internalType": "uint256",
							"name": "",
							"type": "uint256"
						}
					],
					"stateMutability": "view",
					"type": "function"
				},
				{
					"inputs": [
						{
							"internalType": "uint256",
							"name": "proposal",
							"type": "uint256"
						}
					],
					"name": "vote",
					"outputs": [],
					"stateMutability": "nonpayable",
					"type": "function"
				},
				{
					"inputs": [
						{
							"internalType": "address",
							"name": "",
							"type": "address"
						}
					],
					"name": "voters",
					"outputs": [
						{
							"internalType": "uint256",
							"name": "weight",
							"type": "uint256"
						},
						{
							"internalType": "bool",
							"name": "voted",
							"type": "bool"
						},
						{
							"internalType": "address",
							"name": "delegate",
							"type": "address"
						},
						{
							"internalType": "uint256",
							"name": "vote",
							"type": "uint256"
						}
					],
					"stateMutability": "view",
					"type": "function"
				},
				{
					"inputs": [],
					"name": "winnerNames",
					"outputs": [
						{
							"internalType": "string",
							"name": "winnerNames_",
							"type": "string"
						}
					],
					"stateMutability": "view",
					"type": "function"
				}
			],
			"devdoc": {
				"details": "Implements voting process along with vote delegation",
				"kind": "dev",
				"methods": {
					"constructor": {
						"details": "Create a new ballot to choose one of 'proposalNames'.",
						"params": {
							"proposalNames": "names of proposals"
						}
					},
					"delegate(address)": {
						"details": "Delegate your vote to the voter 'to'.",
						"params": {
							"_to": "address to which vote is delegated"
						}
					},
					"giveRightToVote(address)": {
						"details": "Give 'voter' the right to vote on this ballot. May only be called by 'chairPerson'.",
						"params": {
							"_voter": "address of voter"
						}
					},
					"vote(uint256)": {
						"details": "Give your vote (including votes delegated to you) to proposal 'proposals[proposal].name'.",
						"params": {
							"proposal": "index of proposal in the proposals array"
						}
					},
					"winnerNames()": {
						"details": "Calls winningProposal() function to get the index of the winner contained in the proposals array and then",
						"returns": {
							"winnerNames_": "the name of the winner"
						}
					}
				},
				"title": "Ballot",
				"version": 1
			},
			"evm": {
				"assembly": "    /* \"contracts/SimpleVoting.sol\":371:7933  contract SimpleVoting is Context {\r... */\n  mstore(0x40, 0x80)\n    /* \"contracts/SimpleVoting.sol\":2383:2984  constructor(string[] memory proposalNames) {\r... */\n  callvalue\n  dup1\n  iszero\n  tag_1\n  jumpi\n  0x00\n  dup1\n  revert\ntag_1:\n  pop\n  mload(0x40)\n  sub(codesize, bytecodeSize)\n  dup1\n  bytecodeSize\n  dup4\n  codecopy\n  dup2\n  dup2\n  add\n  0x40\n  mstore\n  dup2\n  add\n  swap1\n  tag_2\n  swap2\n  swap1\n  tag_3\n  jump\t// in\ntag_2:\n    /* \"contracts/SimpleVoting.sol\":2451:2463  _msgSender() */\n  tag_6\n    /* \"contracts/SimpleVoting.sol\":2451:2461  _msgSender */\n  shl(0x20, tag_7)\n    /* \"contracts/SimpleVoting.sol\":2451:2463  _msgSender() */\n  0x20\n  shr\n  jump\t// in\ntag_6:\n    /* \"contracts/SimpleVoting.sol\":2437:2448  chairPerson */\n  0x01\n  0x00\n    /* \"contracts/SimpleVoting.sol\":2437:2463  chairPerson = _msgSender() */\n  0x0100\n  exp\n  dup2\n  sload\n  dup2\n  0xffffffffffffffffffffffffffffffffffffffff\n  mul\n  not\n  and\n  swap1\n  dup4\n  0xffffffffffffffffffffffffffffffffffffffff\n  and\n  mul\n  or\n  swap1\n  sstore\n  pop\n    /* \"contracts/SimpleVoting.sol\":2503:2504  1 */\n  0x01\n    /* \"contracts/SimpleVoting.sol\":2474:2480  voters */\n  0x02\n    /* \"contracts/SimpleVoting.sol\":2474:2493  voters[chairPerson] */\n  0x00\n    /* \"contracts/SimpleVoting.sol\":2481:2492  chairPerson */\n  0x01\n  0x00\n  swap1\n  sload\n  swap1\n  0x0100\n  exp\n  swap1\n  div\n  0xffffffffffffffffffffffffffffffffffffffff\n  and\n    /* \"contracts/SimpleVoting.sol\":2474:2493  voters[chairPerson] */\n  0xffffffffffffffffffffffffffffffffffffffff\n  and\n  0xffffffffffffffffffffffffffffffffffffffff\n  and\n  dup2\n  mstore\n  0x20\n  add\n  swap1\n  dup2\n  mstore\n  0x20\n  add\n  0x00\n  keccak256\n    /* \"contracts/SimpleVoting.sol\":2474:2500  voters[chairPerson].weight */\n  0x00\n  add\n    /* \"contracts/SimpleVoting.sol\":2474:2504  voters[chairPerson].weight = 1 */\n  dup2\n  swap1\n  sstore\n  pop\n    /* \"contracts/SimpleVoting.sol\":2531:2544  proposalNames */\n  dup1\n    /* \"contracts/SimpleVoting.sol\":2531:2551  proposalNames.length */\n  mload\n    /* \"contracts/SimpleVoting.sol\":2515:2528  proposalCount */\n  0x00\n    /* \"contracts/SimpleVoting.sol\":2515:2551  proposalCount = proposalNames.length */\n  dup2\n  swap1\n  sstore\n  pop\n    /* \"contracts/SimpleVoting.sol\":2567:2573  uint i */\n  0x00\n    /* \"contracts/SimpleVoting.sol\":2562:2919  for (uint i = 0; i < proposalCount; i = i. add(1)) {\r... */\ntag_8:\n    /* \"contracts/SimpleVoting.sol\":2583:2596  proposalCount */\n  sload(0x00)\n    /* \"contracts/SimpleVoting.sol\":2579:2580  i */\n  dup2\n    /* \"contracts/SimpleVoting.sol\":2579:2596  i < proposalCount */\n  lt\n    /* \"contracts/SimpleVoting.sol\":2562:2919  for (uint i = 0; i < proposalCount; i = i. add(1)) {\r... */\n  iszero\n  tag_9\n  jumpi\n    /* \"contracts/SimpleVoting.sol\":2794:2818  Proposal memory proposal */\n  0x00\n    /* \"contracts/SimpleVoting.sol\":2821:2868  Proposal (stringToBytes32(proposalNames[i]), 0) */\n  mload(0x40)\n  dup1\n  0x40\n  add\n  0x40\n  mstore\n  dup1\n    /* \"contracts/SimpleVoting.sol\":2831:2864  stringToBytes32(proposalNames[i]) */\n  tag_11\n    /* \"contracts/SimpleVoting.sol\":2847:2860  proposalNames */\n  dup6\n    /* \"contracts/SimpleVoting.sol\":2861:2862  i */\n  dup6\n    /* \"contracts/SimpleVoting.sol\":2847:2863  proposalNames[i] */\n  dup2\n  mload\n  dup2\n  lt\n  tag_12\n  jumpi\n  tag_13\n  tag_14\n  jump\t// in\ntag_13:\ntag_12:\n  0x20\n  mul\n  0x20\n  add\n  add\n  mload\n    /* \"contracts/SimpleVoting.sol\":2831:2846  stringToBytes32 */\n  shl(0x20, tag_15)\n    /* \"contracts/SimpleVoting.sol\":2831:2864  stringToBytes32(proposalNames[i]) */\n  0x20\n  shr\n  jump\t// in\ntag_11:\n    /* \"contracts/SimpleVoting.sol\":2821:2868  Proposal (stringToBytes32(proposalNames[i]), 0) */\n  dup2\n  mstore\n  0x20\n  add\n    /* \"contracts/SimpleVoting.sol\":2866:2867  0 */\n  0x00\n    /* \"contracts/SimpleVoting.sol\":2821:2868  Proposal (stringToBytes32(proposalNames[i]), 0) */\n  dup2\n  mstore\n  pop\n    /* \"contracts/SimpleVoting.sol\":2794:2868  Proposal memory proposal = Proposal (stringToBytes32(proposalNames[i]), 0) */\n  swap1\n  pop\n    /* \"contracts/SimpleVoting.sol\":2883:2892  proposals */\n  0x03\n    /* \"contracts/SimpleVoting.sol\":2898:2906  proposal */\n  dup2\n    /* \"contracts/SimpleVoting.sol\":2883:2907  proposals.push(proposal) */\n  swap1\n  dup1\n  0x01\n  dup2\n  sload\n  add\n  dup1\n  dup3\n  sstore\n  dup1\n  swap2\n  pop\n  pop\n  0x01\n  swap1\n  sub\n  swap1\n  0x00\n  mstore\n  keccak256(0x00, 0x20)\n  swap1\n  0x02\n  mul\n  add\n  0x00\n  swap1\n  swap2\n  swap1\n  swap2\n  swap1\n  swap2\n  pop\n  0x00\n  dup3\n  add\n  mload\n  dup2\n  0x00\n  add\n  sstore\n  0x20\n  dup3\n  add\n  mload\n  dup2\n  0x01\n  add\n  sstore\n  pop\n  pop\n    /* \"contracts/SimpleVoting.sol\":2613:2919  {\r... */\n  pop\n    /* \"contracts/SimpleVoting.sol\":2602:2611  i. add(1) */\n  tag_17\n    /* \"contracts/SimpleVoting.sol\":2609:2610  1 */\n  0x01\n    /* \"contracts/SimpleVoting.sol\":2602:2603  i */\n  dup3\n    /* \"contracts/SimpleVoting.sol\":2602:2608  i. add */\n  or(tag_0_50, shl(0x20, tag_18))\n  swap1\n    /* \"contracts/SimpleVoting.sol\":2602:2611  i. add(1) */\n  swap2\n  swap1\n  0x20\n  shr\n  jump\t// in\ntag_17:\n    /* \"contracts/SimpleVoting.sol\":2598:2611  i = i. add(1) */\n  swap1\n  pop\n    /* \"contracts/SimpleVoting.sol\":2562:2919  for (uint i = 0; i < proposalCount; i = i. add(1)) {\r... */\n  jump(tag_8)\ntag_9:\n  pop\n    /* \"contracts/SimpleVoting.sol\":2934:2976  VotingStarted (chairPerson, proposalCount) */\n  0xf318b16025413645144ed83c64d2d30f089c10bc263cab68a036c00f011827be\n    /* \"contracts/SimpleVoting.sol\":2949:2960  chairPerson */\n  0x01\n  0x00\n  swap1\n  sload\n  swap1\n  0x0100\n  exp\n  swap1\n  div\n  0xffffffffffffffffffffffffffffffffffffffff\n  and\n    /* \"contracts/SimpleVoting.sol\":2962:2975  proposalCount */\n  sload(0x00)\n    /* \"contracts/SimpleVoting.sol\":2934:2976  VotingStarted (chairPerson, proposalCount) */\n  mload(0x40)\n  tag_19\n  swap3\n  swap2\n  swap1\n  tag_20\n  jump\t// in\ntag_19:\n  mload(0x40)\n  dup1\n  swap2\n  sub\n  swap1\n  log1\n    /* \"contracts/SimpleVoting.sol\":2383:2984  constructor(string[] memory proposalNames) {\r... */\n  pop\n    /* \"contracts/SimpleVoting.sol\":371:7933  contract SimpleVoting is Context {\r... */\n  jump(tag_21)\n    /* \"https://github.com/OpenZeppelin/openzeppelin-contracts/blob/master/contracts/utils/Context.sol\":640:736  function _msgSender() internal view virtual returns (address) {... */\ntag_7:\n    /* \"https://github.com/OpenZeppelin/openzeppelin-contracts/blob/master/contracts/utils/Context.sol\":693:700  address */\n  0x00\n    /* \"https://github.com/OpenZeppelin/openzeppelin-contracts/blob/master/contracts/utils/Context.sol\":719:729  msg.sender */\n  caller\n    /* \"https://github.com/OpenZeppelin/openzeppelin-contracts/blob/master/contracts/utils/Context.sol\":712:729  return msg.sender */\n  swap1\n  pop\n    /* \"https://github.com/OpenZeppelin/openzeppelin-contracts/blob/master/contracts/utils/Context.sol\":640:736  function _msgSender() internal view virtual returns (address) {... */\n  swap1\n  jump\t// out\n    /* \"contracts/SimpleVoting.sol\":7616:7772  function stringToBytes32 (string memory str) \r... */\ntag_15:\n    /* \"contracts/SimpleVoting.sol\":7701:7708  bytes32 */\n  0x00\n    /* \"contracts/SimpleVoting.sol\":7759:7762  str */\n  dup2\n    /* \"contracts/SimpleVoting.sol\":7742:7763  abi.encodePacked(str) */\n  add(0x20, mload(0x40))\n  tag_24\n  swap2\n  swap1\n  tag_25\n  jump\t// in\ntag_24:\n  mload(0x40)\n  0x20\n  dup2\n  dup4\n  sub\n  sub\n  dup2\n  mstore\n  swap1\n  0x40\n  mstore\n    /* \"contracts/SimpleVoting.sol\":7734:7764  bytes32(abi.encodePacked(str)) */\n  tag_26\n  swap1\n  tag_27\n  jump\t// in\ntag_26:\n    /* \"contracts/SimpleVoting.sol\":7727:7764  return bytes32(abi.encodePacked(str)) */\n  swap1\n  pop\n    /* \"contracts/SimpleVoting.sol\":7616:7772  function stringToBytes32 (string memory str) \r... */\n  swap2\n  swap1\n  pop\n  jump\t// out\n    /* \"https://github.com/OpenZeppelin/openzeppelin-contracts/blob/master/contracts/utils/math/SafeMath.sol\":2755:2851  function add(uint256 a, uint256 b) internal pure returns (uint256) {... */\ntag_18:\n    /* \"https://github.com/OpenZeppelin/openzeppelin-contracts/blob/master/contracts/utils/math/SafeMath.sol\":2813:2820  uint256 */\n  0x00\n    /* \"https://github.com/OpenZeppelin/openzeppelin-contracts/blob/master/contracts/utils/math/SafeMath.sol\":2843:2844  b */\n  dup2\n    /* \"https://github.com/OpenZeppelin/openzeppelin-contracts/blob/master/contracts/utils/math/SafeMath.sol\":2839:2840  a */\n  dup4\n    /* \"https://github.com/OpenZeppelin/openzeppelin-contracts/blob/master/contracts/utils/math/SafeMath.sol\":2839:2844  a + b */\n  tag_29\n  swap2\n  swap1\n  tag_30\n  jump\t// in\ntag_29:\n    /* \"https://github.com/OpenZeppelin/openzeppelin-contracts/blob/master/contracts/utils/math/SafeMath.sol\":2832:2844  return a + b */\n  swap1\n  pop\n    /* \"https://github.com/OpenZeppelin/openzeppelin-contracts/blob/master/contracts/utils/math/SafeMath.sol\":2755:2851  function add(uint256 a, uint256 b) internal pure returns (uint256) {... */\n  swap3\n  swap2\n  pop\n  pop\n  jump\t// out\n    /* \"#utility.yul\":23:995   */\ntag_32:\n    /* \"#utility.yul\":140:145   */\n  0x00\n    /* \"#utility.yul\":165:256   */\n  tag_34\n    /* \"#utility.yul\":181:255   */\n  tag_35\n    /* \"#utility.yul\":248:254   */\n  dup5\n    /* \"#utility.yul\":181:255   */\n  tag_36\n  jump\t// in\ntag_35:\n    /* \"#utility.yul\":165:256   */\n  tag_37\n  jump\t// in\ntag_34:\n    /* \"#utility.yul\":156:256   */\n  swap1\n  pop\n    /* \"#utility.yul\":276:281   */\n  dup1\n    /* \"#utility.yul\":305:311   */\n  dup4\n    /* \"#utility.yul\":298:303   */\n  dup3\n    /* \"#utility.yul\":291:312   */\n  mstore\n    /* \"#utility.yul\":339:343   */\n  0x20\n    /* \"#utility.yul\":332:337   */\n  dup3\n    /* \"#utility.yul\":328:344   */\n  add\n    /* \"#utility.yul\":321:344   */\n  swap1\n  pop\n    /* \"#utility.yul\":365:371   */\n  dup3\n    /* \"#utility.yul\":415:418   */\n  dup6\n    /* \"#utility.yul\":407:411   */\n  0x20\n    /* \"#utility.yul\":399:405   */\n  dup7\n    /* \"#utility.yul\":395:412   */\n  mul\n    /* \"#utility.yul\":390:393   */\n  dup3\n    /* \"#utility.yul\":386:413   */\n  add\n    /* \"#utility.yul\":383:419   */\n  gt\n    /* \"#utility.yul\":380:523   */\n  iszero\n  tag_38\n  jumpi\n    /* \"#utility.yul\":434:513   */\n  tag_39\n  tag_40\n  jump\t// in\ntag_39:\n    /* \"#utility.yul\":380:523   */\ntag_38:\n    /* \"#utility.yul\":547:548   */\n  0x00\n    /* \"#utility.yul\":532:989   */\ntag_41:\n    /* \"#utility.yul\":557:563   */\n  dup6\n    /* \"#utility.yul\":554:555   */\n  dup2\n    /* \"#utility.yul\":551:564   */\n  lt\n    /* \"#utility.yul\":532:989   */\n  iszero\n  tag_43\n  jumpi\n    /* \"#utility.yul\":632:635   */\n  dup2\n    /* \"#utility.yul\":626:636   */\n  mload\n    /* \"#utility.yul\":668:686   */\n  0xffffffffffffffff\n    /* \"#utility.yul\":655:666   */\n  dup2\n    /* \"#utility.yul\":652:687   */\n  gt\n    /* \"#utility.yul\":649:771   */\n  iszero\n  tag_44\n  jumpi\n    /* \"#utility.yul\":690:769   */\n  tag_45\n  tag_46\n  jump\t// in\ntag_45:\n    /* \"#utility.yul\":649:771   */\ntag_44:\n    /* \"#utility.yul\":814:825   */\n  dup1\n    /* \"#utility.yul\":806:812   */\n  dup7\n    /* \"#utility.yul\":802:826   */\n  add\n    /* \"#utility.yul\":852:910   */\n  tag_47\n    /* \"#utility.yul\":906:909   */\n  dup10\n    /* \"#utility.yul\":894:904   */\n  dup3\n    /* \"#utility.yul\":852:910   */\n  tag_48\n  jump\t// in\ntag_47:\n    /* \"#utility.yul\":847:850   */\n  dup6\n    /* \"#utility.yul\":840:911   */\n  mstore\n    /* \"#utility.yul\":940:944   */\n  0x20\n    /* \"#utility.yul\":935:938   */\n  dup6\n    /* \"#utility.yul\":931:945   */\n  add\n    /* \"#utility.yul\":924:945   */\n  swap5\n  pop\n    /* \"#utility.yul\":974:978   */\n  0x20\n    /* \"#utility.yul\":969:972   */\n  dup5\n    /* \"#utility.yul\":965:979   */\n  add\n    /* \"#utility.yul\":958:979   */\n  swap4\n  pop\n    /* \"#utility.yul\":592:989   */\n  pop\n  pop\n    /* \"#utility.yul\":579:580   */\n  0x01\n    /* \"#utility.yul\":576:577   */\n  dup2\n    /* \"#utility.yul\":572:581   */\n  add\n    /* \"#utility.yul\":567:581   */\n  swap1\n  pop\n    /* \"#utility.yul\":532:989   */\n  jump(tag_41)\ntag_43:\n    /* \"#utility.yul\":536:550   */\n  pop\n    /* \"#utility.yul\":146:995   */\n  pop\n  pop\n    /* \"#utility.yul\":23:995   */\n  swap4\n  swap3\n  pop\n  pop\n  pop\n  jump\t// out\n    /* \"#utility.yul\":1001:1422   */\ntag_49:\n    /* \"#utility.yul\":1090:1095   */\n  0x00\n    /* \"#utility.yul\":1115:1181   */\n  tag_51\n    /* \"#utility.yul\":1131:1180   */\n  tag_52\n    /* \"#utility.yul\":1173:1179   */\n  dup5\n    /* \"#utility.yul\":1131:1180   */\n  tag_53\n  jump\t// in\ntag_52:\n    /* \"#utility.yul\":1115:1181   */\n  tag_37\n  jump\t// in\ntag_51:\n    /* \"#utility.yul\":1106:1181   */\n  swap1\n  pop\n    /* \"#utility.yul\":1204:1210   */\n  dup3\n    /* \"#utility.yul\":1197:1202   */\n  dup2\n    /* \"#utility.yul\":1190:1211   */\n  mstore\n    /* \"#utility.yul\":1242:1246   */\n  0x20\n    /* \"#utility.yul\":1235:1240   */\n  dup2\n    /* \"#utility.yul\":1231:1247   */\n  add\n    /* \"#utility.yul\":1280:1283   */\n  dup5\n    /* \"#utility.yul\":1271:1277   */\n  dup5\n    /* \"#utility.yul\":1266:1269   */\n  dup5\n    /* \"#utility.yul\":1262:1278   */\n  add\n    /* \"#utility.yul\":1259:1284   */\n  gt\n    /* \"#utility.yul\":1256:1368   */\n  iszero\n  tag_54\n  jumpi\n    /* \"#utility.yul\":1287:1366   */\n  tag_55\n  tag_56\n  jump\t// in\ntag_55:\n    /* \"#utility.yul\":1256:1368   */\ntag_54:\n    /* \"#utility.yul\":1377:1416   */\n  tag_57\n    /* \"#utility.yul\":1409:1415   */\n  dup5\n    /* \"#utility.yul\":1404:1407   */\n  dup3\n    /* \"#utility.yul\":1399:1402   */\n  dup6\n    /* \"#utility.yul\":1377:1416   */\n  tag_58\n  jump\t// in\ntag_57:\n    /* \"#utility.yul\":1096:1422   */\n  pop\n    /* \"#utility.yul\":1001:1422   */\n  swap4\n  swap3\n  pop\n  pop\n  pop\n  jump\t// out\n    /* \"#utility.yul\":1444:1849   */\ntag_59:\n    /* \"#utility.yul\":1536:1541   */\n  0x00\n    /* \"#utility.yul\":1585:1588   */\n  dup3\n    /* \"#utility.yul\":1578:1582   */\n  0x1f\n    /* \"#utility.yul\":1570:1576   */\n  dup4\n    /* \"#utility.yul\":1566:1583   */\n  add\n    /* \"#utility.yul\":1562:1589   */\n  slt\n    /* \"#utility.yul\":1552:1674   */\n  tag_61\n  jumpi\n    /* \"#utility.yul\":1593:1672   */\n  tag_62\n  tag_46\n  jump\t// in\ntag_62:\n    /* \"#utility.yul\":1552:1674   */\ntag_61:\n    /* \"#utility.yul\":1703:1709   */\n  dup2\n    /* \"#utility.yul\":1697:1710   */\n  mload\n    /* \"#utility.yul\":1728:1843   */\n  tag_63\n    /* \"#utility.yul\":1839:1842   */\n  dup5\n    /* \"#utility.yul\":1831:1837   */\n  dup3\n    /* \"#utility.yul\":1824:1828   */\n  0x20\n    /* \"#utility.yul\":1816:1822   */\n  dup7\n    /* \"#utility.yul\":1812:1829   */\n  add\n    /* \"#utility.yul\":1728:1843   */\n  tag_32\n  jump\t// in\ntag_63:\n    /* \"#utility.yul\":1719:1843   */\n  swap2\n  pop\n    /* \"#utility.yul\":1542:1849   */\n  pop\n    /* \"#utility.yul\":1444:1849   */\n  swap3\n  swap2\n  pop\n  pop\n  jump\t// out\n    /* \"#utility.yul\":1869:2224   */\ntag_48:\n    /* \"#utility.yul\":1936:1941   */\n  0x00\n    /* \"#utility.yul\":1985:1988   */\n  dup3\n    /* \"#utility.yul\":1978:1982   */\n  0x1f\n    /* \"#utility.yul\":1970:1976   */\n  dup4\n    /* \"#utility.yul\":1966:1983   */\n  add\n    /* \"#utility.yul\":1962:1989   */\n  slt\n    /* \"#utility.yul\":1952:2074   */\n  tag_65\n  jumpi\n    /* \"#utility.yul\":1993:2072   */\n  tag_66\n  tag_46\n  jump\t// in\ntag_66:\n    /* \"#utility.yul\":1952:2074   */\ntag_65:\n    /* \"#utility.yul\":2103:2109   */\n  dup2\n    /* \"#utility.yul\":2097:2110   */\n  mload\n    /* \"#utility.yul\":2128:2218   */\n  tag_67\n    /* \"#utility.yul\":2214:2217   */\n  dup5\n    /* \"#utility.yul\":2206:2212   */\n  dup3\n    /* \"#utility.yul\":2199:2203   */\n  0x20\n    /* \"#utility.yul\":2191:2197   */\n  dup7\n    /* \"#utility.yul\":2187:2204   */\n  add\n    /* \"#utility.yul\":2128:2218   */\n  tag_49\n  jump\t// in\ntag_67:\n    /* \"#utility.yul\":2119:2218   */\n  swap2\n  pop\n    /* \"#utility.yul\":1942:2224   */\n  pop\n    /* \"#utility.yul\":1869:2224   */\n  swap3\n  swap2\n  pop\n  pop\n  jump\t// out\n    /* \"#utility.yul\":2230:2804   */\ntag_3:\n    /* \"#utility.yul\":2335:2341   */\n  0x00\n    /* \"#utility.yul\":2384:2386   */\n  0x20\n    /* \"#utility.yul\":2372:2381   */\n  dup3\n    /* \"#utility.yul\":2363:2370   */\n  dup5\n    /* \"#utility.yul\":2359:2382   */\n  sub\n    /* \"#utility.yul\":2355:2387   */\n  slt\n    /* \"#utility.yul\":2352:2471   */\n  iszero\n  tag_69\n  jumpi\n    /* \"#utility.yul\":2390:2469   */\n  tag_70\n  tag_71\n  jump\t// in\ntag_70:\n    /* \"#utility.yul\":2352:2471   */\ntag_69:\n    /* \"#utility.yul\":2531:2532   */\n  0x00\n    /* \"#utility.yul\":2520:2529   */\n  dup3\n    /* \"#utility.yul\":2516:2533   */\n  add\n    /* \"#utility.yul\":2510:2534   */\n  mload\n    /* \"#utility.yul\":2561:2579   */\n  0xffffffffffffffff\n    /* \"#utility.yul\":2553:2559   */\n  dup2\n    /* \"#utility.yul\":2550:2580   */\n  gt\n    /* \"#utility.yul\":2547:2664   */\n  iszero\n  tag_72\n  jumpi\n    /* \"#utility.yul\":2583:2662   */\n  tag_73\n  tag_74\n  jump\t// in\ntag_73:\n    /* \"#utility.yul\":2547:2664   */\ntag_72:\n    /* \"#utility.yul\":2688:2787   */\n  tag_75\n    /* \"#utility.yul\":2779:2786   */\n  dup5\n    /* \"#utility.yul\":2770:2776   */\n  dup3\n    /* \"#utility.yul\":2759:2768   */\n  dup6\n    /* \"#utility.yul\":2755:2777   */\n  add\n    /* \"#utility.yul\":2688:2787   */\n  tag_59\n  jump\t// in\ntag_75:\n    /* \"#utility.yul\":2678:2787   */\n  swap2\n  pop\n    /* \"#utility.yul\":2481:2797   */\n  pop\n    /* \"#utility.yul\":2230:2804   */\n  swap3\n  swap2\n  pop\n  pop\n  jump\t// out\n    /* \"#utility.yul\":2810:2928   */\ntag_76:\n    /* \"#utility.yul\":2897:2921   */\n  tag_78\n    /* \"#utility.yul\":2915:2920   */\n  dup2\n    /* \"#utility.yul\":2897:2921   */\n  tag_79\n  jump\t// in\ntag_78:\n    /* \"#utility.yul\":2892:2895   */\n  dup3\n    /* \"#utility.yul\":2885:2922   */\n  mstore\n    /* \"#utility.yul\":2810:2928   */\n  pop\n  pop\n  jump\t// out\n    /* \"#utility.yul\":2934:3311   */\ntag_80:\n    /* \"#utility.yul\":3040:3043   */\n  0x00\n    /* \"#utility.yul\":3068:3107   */\n  tag_82\n    /* \"#utility.yul\":3101:3106   */\n  dup3\n    /* \"#utility.yul\":3068:3107   */\n  tag_83\n  jump\t// in\ntag_82:\n    /* \"#utility.yul\":3123:3212   */\n  tag_84\n    /* \"#utility.yul\":3205:3211   */\n  dup2\n    /* \"#utility.yul\":3200:3203   */\n  dup6\n    /* \"#utility.yul\":3123:3212   */\n  tag_85\n  jump\t// in\ntag_84:\n    /* \"#utility.yul\":3116:3212   */\n  swap4\n  pop\n    /* \"#utility.yul\":3221:3273   */\n  tag_86\n    /* \"#utility.yul\":3266:3272   */\n  dup2\n    /* \"#utility.yul\":3261:3264   */\n  dup6\n    /* \"#utility.yul\":3254:3258   */\n  0x20\n    /* \"#utility.yul\":3247:3252   */\n  dup7\n    /* \"#utility.yul\":3243:3259   */\n  add\n    /* \"#utility.yul\":3221:3273   */\n  tag_58\n  jump\t// in\ntag_86:\n    /* \"#utility.yul\":3298:3304   */\n  dup1\n    /* \"#utility.yul\":3293:3296   */\n  dup5\n    /* \"#utility.yul\":3289:3305   */\n  add\n    /* \"#utility.yul\":3282:3305   */\n  swap2\n  pop\n    /* \"#utility.yul\":3044:3311   */\n  pop\n    /* \"#utility.yul\":2934:3311   */\n  swap3\n  swap2\n  pop\n  pop\n  jump\t// out\n    /* \"#utility.yul\":3317:3435   */\ntag_87:\n    /* \"#utility.yul\":3404:3428   */\n  tag_89\n    /* \"#utility.yul\":3422:3427   */\n  dup2\n    /* \"#utility.yul\":3404:3428   */\n  tag_90\n  jump\t// in\ntag_89:\n    /* \"#utility.yul\":3399:3402   */\n  dup3\n    /* \"#utility.yul\":3392:3429   */\n  mstore\n    /* \"#utility.yul\":3317:3435   */\n  pop\n  pop\n  jump\t// out\n    /* \"#utility.yul\":3441:3716   */\ntag_25:\n    /* \"#utility.yul\":3573:3576   */\n  0x00\n    /* \"#utility.yul\":3595:3690   */\n  tag_92\n    /* \"#utility.yul\":3686:3689   */\n  dup3\n    /* \"#utility.yul\":3677:3683   */\n  dup5\n    /* \"#utility.yul\":3595:3690   */\n  tag_80\n  jump\t// in\ntag_92:\n    /* \"#utility.yul\":3588:3690   */\n  swap2\n  pop\n    /* \"#utility.yul\":3707:3710   */\n  dup2\n    /* \"#utility.yul\":3700:3710   */\n  swap1\n  pop\n    /* \"#utility.yul\":3441:3716   */\n  swap3\n  swap2\n  pop\n  pop\n  jump\t// out\n    /* \"#utility.yul\":3722:4054   */\ntag_20:\n    /* \"#utility.yul\":3843:3847   */\n  0x00\n    /* \"#utility.yul\":3881:3883   */\n  0x40\n    /* \"#utility.yul\":3870:3879   */\n  dup3\n    /* \"#utility.yul\":3866:3884   */\n  add\n    /* \"#utility.yul\":3858:3884   */\n  swap1\n  pop\n    /* \"#utility.yul\":3894:3965   */\n  tag_94\n    /* \"#utility.yul\":3962:3963   */\n  0x00\n    /* \"#utility.yul\":3951:3960   */\n  dup4\n    /* \"#utility.yul\":3947:3964   */\n  add\n    /* \"#utility.yul\":3938:3944   */\n  dup6\n    /* \"#utility.yul\":3894:3965   */\n  tag_76\n  jump\t// in\ntag_94:\n    /* \"#utility.yul\":3975:4047   */\n  tag_95\n    /* \"#utility.yul\":4043:4045   */\n  0x20\n    /* \"#utility.yul\":4032:4041   */\n  dup4\n    /* \"#utility.yul\":4028:4046   */\n  add\n    /* \"#utility.yul\":4019:4025   */\n  dup5\n    /* \"#utility.yul\":3975:4047   */\n  tag_87\n  jump\t// in\ntag_95:\n    /* \"#utility.yul\":3722:4054   */\n  swap4\n  swap3\n  pop\n  pop\n  pop\n  jump\t// out\n    /* \"#utility.yul\":4060:4189   */\ntag_37:\n    /* \"#utility.yul\":4094:4100   */\n  0x00\n    /* \"#utility.yul\":4121:4141   */\n  tag_97\n  tag_98\n  jump\t// in\ntag_97:\n    /* \"#utility.yul\":4111:4141   */\n  swap1\n  pop\n    /* \"#utility.yul\":4150:4183   */\n  tag_99\n    /* \"#utility.yul\":4178:4182   */\n  dup3\n    /* \"#utility.yul\":4170:4176   */\n  dup3\n    /* \"#utility.yul\":4150:4183   */\n  tag_100\n  jump\t// in\ntag_99:\n    /* \"#utility.yul\":4060:4189   */\n  swap2\n  swap1\n  pop\n  jump\t// out\n    /* \"#utility.yul\":4195:4270   */\ntag_98:\n    /* \"#utility.yul\":4228:4234   */\n  0x00\n    /* \"#utility.yul\":4261:4263   */\n  0x40\n    /* \"#utility.yul\":4255:4264   */\n  mload\n    /* \"#utility.yul\":4245:4264   */\n  swap1\n  pop\n    /* \"#utility.yul\":4195:4270   */\n  swap1\n  jump\t// out\n    /* \"#utility.yul\":4276:4597   */\ntag_36:\n    /* \"#utility.yul\":4363:4367   */\n  0x00\n    /* \"#utility.yul\":4453:4471   */\n  0xffffffffffffffff\n    /* \"#utility.yul\":4445:4451   */\n  dup3\n    /* \"#utility.yul\":4442:4472   */\n  gt\n    /* \"#utility.yul\":4439:4495   */\n  iszero\n  tag_103\n  jumpi\n    /* \"#utility.yul\":4475:4493   */\n  tag_104\n  tag_105\n  jump\t// in\ntag_104:\n    /* \"#utility.yul\":4439:4495   */\ntag_103:\n    /* \"#utility.yul\":4525:4529   */\n  0x20\n    /* \"#utility.yul\":4517:4523   */\n  dup3\n    /* \"#utility.yul\":4513:4530   */\n  mul\n    /* \"#utility.yul\":4505:4530   */\n  swap1\n  pop\n    /* \"#utility.yul\":4585:4589   */\n  0x20\n    /* \"#utility.yul\":4579:4583   */\n  dup2\n    /* \"#utility.yul\":4575:4590   */\n  add\n    /* \"#utility.yul\":4567:4590   */\n  swap1\n  pop\n    /* \"#utility.yul\":4276:4597   */\n  swap2\n  swap1\n  pop\n  jump\t// out\n    /* \"#utility.yul\":4603:4911   */\ntag_53:\n    /* \"#utility.yul\":4665:4669   */\n  0x00\n    /* \"#utility.yul\":4755:4773   */\n  0xffffffffffffffff\n    /* \"#utility.yul\":4747:4753   */\n  dup3\n    /* \"#utility.yul\":4744:4774   */\n  gt\n    /* \"#utility.yul\":4741:4797   */\n  iszero\n  tag_107\n  jumpi\n    /* \"#utility.yul\":4777:4795   */\n  tag_108\n  tag_105\n  jump\t// in\ntag_108:\n    /* \"#utility.yul\":4741:4797   */\ntag_107:\n    /* \"#utility.yul\":4815:4844   */\n  tag_109\n    /* \"#utility.yul\":4837:4843   */\n  dup3\n    /* \"#utility.yul\":4815:4844   */\n  tag_110\n  jump\t// in\ntag_109:\n    /* \"#utility.yul\":4807:4844   */\n  swap1\n  pop\n    /* \"#utility.yul\":4899:4903   */\n  0x20\n    /* \"#utility.yul\":4893:4897   */\n  dup2\n    /* \"#utility.yul\":4889:4904   */\n  add\n    /* \"#utility.yul\":4881:4904   */\n  swap1\n  pop\n    /* \"#utility.yul\":4603:4911   */\n  swap2\n  swap1\n  pop\n  jump\t// out\n    /* \"#utility.yul\":4917:5033   */\ntag_111:\n    /* \"#utility.yul\":4968:4972   */\n  0x00\n    /* \"#utility.yul\":4991:4994   */\n  dup2\n    /* \"#utility.yul\":4983:4994   */\n  swap1\n  pop\n    /* \"#utility.yul\":5021:5025   */\n  0x20\n    /* \"#utility.yul\":5016:5019   */\n  dup3\n    /* \"#utility.yul\":5012:5026   */\n  add\n    /* \"#utility.yul\":5004:5026   */\n  swap1\n  pop\n    /* \"#utility.yul\":4917:5033   */\n  swap2\n  swap1\n  pop\n  jump\t// out\n    /* \"#utility.yul\":5039:5137   */\ntag_113:\n    /* \"#utility.yul\":5090:5096   */\n  0x00\n    /* \"#utility.yul\":5124:5129   */\n  dup2\n    /* \"#utility.yul\":5118:5130   */\n  mload\n    /* \"#utility.yul\":5108:5130   */\n  swap1\n  pop\n    /* \"#utility.yul\":5039:5137   */\n  swap2\n  swap1\n  pop\n  jump\t// out\n    /* \"#utility.yul\":5143:5242   */\ntag_83:\n    /* \"#utility.yul\":5195:5201   */\n  0x00\n    /* \"#utility.yul\":5229:5234   */\n  dup2\n    /* \"#utility.yul\":5223:5235   */\n  mload\n    /* \"#utility.yul\":5213:5235   */\n  swap1\n  pop\n    /* \"#utility.yul\":5143:5242   */\n  swap2\n  swap1\n  pop\n  jump\t// out\n    /* \"#utility.yul\":5248:5396   */\ntag_85:\n    /* \"#utility.yul\":5350:5361   */\n  0x00\n    /* \"#utility.yul\":5387:5390   */\n  dup2\n    /* \"#utility.yul\":5372:5390   */\n  swap1\n  pop\n    /* \"#utility.yul\":5248:5396   */\n  swap3\n  swap2\n  pop\n  pop\n  jump\t// out\n    /* \"#utility.yul\":5402:5707   */\ntag_30:\n    /* \"#utility.yul\":5442:5445   */\n  0x00\n    /* \"#utility.yul\":5461:5481   */\n  tag_118\n    /* \"#utility.yul\":5479:5480   */\n  dup3\n    /* \"#utility.yul\":5461:5481   */\n  tag_90\n  jump\t// in\ntag_118:\n    /* \"#utility.yul\":5456:5481   */\n  swap2\n  pop\n    /* \"#utility.yul\":5495:5515   */\n  tag_119\n    /* \"#utility.yul\":5513:5514   */\n  dup4\n    /* \"#utility.yul\":5495:5515   */\n  tag_90\n  jump\t// in\ntag_119:\n    /* \"#utility.yul\":5490:5515   */\n  swap3\n  pop\n    /* \"#utility.yul\":5649:5650   */\n  dup3\n    /* \"#utility.yul\":5581:5647   */\n  0xffffffffffffffffffffffffffffffffffffffffffffffffffffffffffffffff\n    /* \"#utility.yul\":5577:5651   */\n  sub\n    /* \"#utility.yul\":5574:5575   */\n  dup3\n    /* \"#utility.yul\":5571:5652   */\n  gt\n    /* \"#utility.yul\":5568:5675   */\n  iszero\n  tag_120\n  jumpi\n    /* \"#utility.yul\":5655:5673   */\n  tag_121\n  tag_122\n  jump\t// in\ntag_121:\n    /* \"#utility.yul\":5568:5675   */\ntag_120:\n    /* \"#utility.yul\":5699:5700   */\n  dup3\n    /* \"#utility.yul\":5696:5697   */\n  dup3\n    /* \"#utility.yul\":5692:5701   */\n  add\n    /* \"#utility.yul\":5685:5701   */\n  swap1\n  pop\n    /* \"#utility.yul\":5402:5707   */\n  swap3\n  swap2\n  pop\n  pop\n  jump\t// out\n    /* \"#utility.yul\":5713:5809   */\ntag_79:\n    /* \"#utility.yul\":5750:5757   */\n  0x00\n    /* \"#utility.yul\":5779:5803   */\n  tag_124\n    /* \"#utility.yul\":5797:5802   */\n  dup3\n    /* \"#utility.yul\":5779:5803   */\n  tag_125\n  jump\t// in\ntag_124:\n    /* \"#utility.yul\":5768:5803   */\n  swap1\n  pop\n    /* \"#utility.yul\":5713:5809   */\n  swap2\n  swap1\n  pop\n  jump\t// out\n    /* \"#utility.yul\":5815:5892   */\ntag_126:\n    /* \"#utility.yul\":5852:5859   */\n  0x00\n    /* \"#utility.yul\":5881:5886   */\n  dup2\n    /* \"#utility.yul\":5870:5886   */\n  swap1\n  pop\n    /* \"#utility.yul\":5815:5892   */\n  swap2\n  swap1\n  pop\n  jump\t// out\n    /* \"#utility.yul\":5898:6024   */\ntag_125:\n    /* \"#utility.yul\":5935:5942   */\n  0x00\n    /* \"#utility.yul\":5975:6017   */\n  0xffffffffffffffffffffffffffffffffffffffff\n    /* \"#utility.yul\":5968:5973   */\n  dup3\n    /* \"#utility.yul\":5964:6018   */\n  and\n    /* \"#utility.yul\":5953:6018   */\n  swap1\n  pop\n    /* \"#utility.yul\":5898:6024   */\n  swap2\n  swap1\n  pop\n  jump\t// out\n    /* \"#utility.yul\":6030:6107   */\ntag_90:\n    /* \"#utility.yul\":6067:6074   */\n  0x00\n    /* \"#utility.yul\":6096:6101   */\n  dup2\n    /* \"#utility.yul\":6085:6101   */\n  swap1\n  pop\n    /* \"#utility.yul\":6030:6107   */\n  swap2\n  swap1\n  pop\n  jump\t// out\n    /* \"#utility.yul\":6113:6707   */\ntag_27:\n    /* \"#utility.yul\":6197:6202   */\n  0x00\n    /* \"#utility.yul\":6228:6266   */\n  tag_131\n    /* \"#utility.yul\":6260:6265   */\n  dup3\n    /* \"#utility.yul\":6228:6266   */\n  tag_113\n  jump\t// in\ntag_131:\n    /* \"#utility.yul\":6291:6296   */\n  dup3\n    /* \"#utility.yul\":6318:6358   */\n  tag_132\n    /* \"#utility.yul\":6352:6357   */\n  dup5\n    /* \"#utility.yul\":6318:6358   */\n  tag_111\n  jump\t// in\ntag_132:\n    /* \"#utility.yul\":6306:6358   */\n  swap1\n  pop\n    /* \"#utility.yul\":6377:6412   */\n  tag_133\n    /* \"#utility.yul\":6403:6411   */\n  dup2\n    /* \"#utility.yul\":6377:6412   */\n  tag_134\n  jump\t// in\ntag_133:\n    /* \"#utility.yul\":6368:6412   */\n  swap3\n  pop\n    /* \"#utility.yul\":6436:6438   */\n  0x20\n    /* \"#utility.yul\":6428:6434   */\n  dup3\n    /* \"#utility.yul\":6425:6439   */\n  lt\n    /* \"#utility.yul\":6422:6700   */\n  iszero\n  tag_135\n  jumpi\n    /* \"#utility.yul\":6507:6676   */\n  tag_136\n    /* \"#utility.yul\":6592:6658   */\n  0xffffffffffffffffffffffffffffffffffffffffffffffffffffffffffffffff\n    /* \"#utility.yul\":6562:6568   */\n  dup4\n    /* \"#utility.yul\":6558:6560   */\n  0x20\n    /* \"#utility.yul\":6554:6569   */\n  sub\n    /* \"#utility.yul\":6551:6552   */\n  0x08\n    /* \"#utility.yul\":6547:6570   */\n  mul\n    /* \"#utility.yul\":6507:6676   */\n  tag_137\n  jump\t// in\ntag_136:\n    /* \"#utility.yul\":6484:6489   */\n  dup4\n    /* \"#utility.yul\":6463:6690   */\n  and\n    /* \"#utility.yul\":6454:6690   */\n  swap3\n  pop\n    /* \"#utility.yul\":6422:6700   */\ntag_135:\n    /* \"#utility.yul\":6203:6707   */\n  pop\n  pop\n    /* \"#utility.yul\":6113:6707   */\n  swap2\n  swap1\n  pop\n  jump\t// out\n    /* \"#utility.yul\":6713:7020   */\ntag_58:\n    /* \"#utility.yul\":6781:6782   */\n  0x00\n    /* \"#utility.yul\":6791:6904   */\ntag_139:\n    /* \"#utility.yul\":6805:6811   */\n  dup4\n    /* \"#utility.yul\":6802:6803   */\n  dup2\n    /* \"#utility.yul\":6799:6812   */\n  lt\n    /* \"#utility.yul\":6791:6904   */\n  iszero\n  tag_141\n  jumpi\n    /* \"#utility.yul\":6890:6891   */\n  dup1\n    /* \"#utility.yul\":6885:6888   */\n  dup3\n    /* \"#utility.yul\":6881:6892   */\n  add\n    /* \"#utility.yul\":6875:6893   */\n  mload\n    /* \"#utility.yul\":6871:6872   */\n  dup2\n    /* \"#utility.yul\":6866:6869   */\n  dup5\n    /* \"#utility.yul\":6862:6873   */\n  add\n    /* \"#utility.yul\":6855:6894   */\n  mstore\n    /* \"#utility.yul\":6827:6829   */\n  0x20\n    /* \"#utility.yul\":6824:6825   */\n  dup2\n    /* \"#utility.yul\":6820:6830   */\n  add\n    /* \"#utility.yul\":6815:6830   */\n  swap1\n  pop\n    /* \"#utility.yul\":6791:6904   */\n  jump(tag_139)\ntag_141:\n    /* \"#utility.yul\":6922:6928   */\n  dup4\n    /* \"#utility.yul\":6919:6920   */\n  dup2\n    /* \"#utility.yul\":6916:6929   */\n  gt\n    /* \"#utility.yul\":6913:7014   */\n  iszero\n  tag_142\n  jumpi\n    /* \"#utility.yul\":7002:7003   */\n  0x00\n    /* \"#utility.yul\":6993:6999   */\n  dup5\n    /* \"#utility.yul\":6988:6991   */\n  dup5\n    /* \"#utility.yul\":6984:7000   */\n  add\n    /* \"#utility.yul\":6977:7004   */\n  mstore\n    /* \"#utility.yul\":6913:7014   */\ntag_142:\n    /* \"#utility.yul\":6762:7020   */\n  pop\n    /* \"#utility.yul\":6713:7020   */\n  pop\n  pop\n  pop\n  jump\t// out\n    /* \"#utility.yul\":7026:7307   */\ntag_100:\n    /* \"#utility.yul\":7109:7136   */\n  tag_144\n    /* \"#utility.yul\":7131:7135   */\n  dup3\n    /* \"#utility.yul\":7109:7136   */\n  tag_110\n  jump\t// in\ntag_144:\n    /* \"#utility.yul\":7101:7107   */\n  dup2\n    /* \"#utility.yul\":7097:7137   */\n  add\n    /* \"#utility.yul\":7239:7245   */\n  dup2\n    /* \"#utility.yul\":7227:7237   */\n  dup2\n    /* \"#utility.yul\":7224:7246   */\n  lt\n    /* \"#utility.yul\":7203:7221   */\n  0xffffffffffffffff\n    /* \"#utility.yul\":7191:7201   */\n  dup3\n    /* \"#utility.yul\":7188:7222   */\n  gt\n    /* \"#utility.yul\":7185:7247   */\n  or\n    /* \"#utility.yul\":7182:7270   */\n  iszero\n  tag_145\n  jumpi\n    /* \"#utility.yul\":7250:7268   */\n  tag_146\n  tag_105\n  jump\t// in\ntag_146:\n    /* \"#utility.yul\":7182:7270   */\ntag_145:\n    /* \"#utility.yul\":7290:7300   */\n  dup1\n    /* \"#utility.yul\":7286:7288   */\n  0x40\n    /* \"#utility.yul\":7279:7301   */\n  mstore\n    /* \"#utility.yul\":7069:7307   */\n  pop\n    /* \"#utility.yul\":7026:7307   */\n  pop\n  pop\n  jump\t// out\n    /* \"#utility.yul\":7313:7493   */\ntag_122:\n    /* \"#utility.yul\":7361:7438   */\n  0x4e487b7100000000000000000000000000000000000000000000000000000000\n    /* \"#utility.yul\":7358:7359   */\n  0x00\n    /* \"#utility.yul\":7351:7439   */\n  mstore\n    /* \"#utility.yul\":7458:7462   */\n  0x11\n    /* \"#utility.yul\":7455:7456   */\n  0x04\n    /* \"#utility.yul\":7448:7463   */\n  mstore\n    /* \"#utility.yul\":7482:7486   */\n  0x24\n    /* \"#utility.yul\":7479:7480   */\n  0x00\n    /* \"#utility.yul\":7472:7487   */\n  revert\n    /* \"#utility.yul\":7499:7679   */\ntag_14:\n    /* \"#utility.yul\":7547:7624   */\n  0x4e487b7100000000000000000000000000000000000000000000000000000000\n    /* \"#utility.yul\":7544:7545   */\n  0x00\n    /* \"#utility.yul\":7537:7625   */\n  mstore\n    /* \"#utility.yul\":7644:7648   */\n  0x32\n    /* \"#utility.yul\":7641:7642   */\n  0x04\n    /* \"#utility.yul\":7634:7649   */\n  mstore\n    /* \"#utility.yul\":7668:7672   */\n  0x24\n    /* \"#utility.yul\":7665:7666   */\n  0x00\n    /* \"#utility.yul\":7658:7673   */\n  revert\n    /* \"#utility.yul\":7685:7865   */\ntag_105:\n    /* \"#utility.yul\":7733:7810   */\n  0x4e487b7100000000000000000000000000000000000000000000000000000000\n    /* \"#utility.yul\":7730:7731   */\n  0x00\n    /* \"#utility.yul\":7723:7811   */\n  mstore\n    /* \"#utility.yul\":7830:7834   */\n  0x41\n    /* \"#utility.yul\":7827:7828   */\n  0x04\n    /* \"#utility.yul\":7820:7835   */\n  mstore\n    /* \"#utility.yul\":7854:7858   */\n  0x24\n    /* \"#utility.yul\":7851:7852   */\n  0x00\n    /* \"#utility.yul\":7844:7859   */\n  revert\n    /* \"#utility.yul\":7871:8025   */\ntag_134:\n    /* \"#utility.yul\":7914:7925   */\n  0x00\n    /* \"#utility.yul\":7950:7979   */\n  tag_151\n    /* \"#utility.yul\":7974:7977   */\n  dup3\n    /* \"#utility.yul\":7968:7978   */\n  mload\n    /* \"#utility.yul\":7950:7979   */\n  tag_126\n  jump\t// in\ntag_151:\n    /* \"#utility.yul\":8013:8018   */\n  dup1\n    /* \"#utility.yul\":7989:8018   */\n  swap2\n  pop\n    /* \"#utility.yul\":7926:8025   */\n  pop\n    /* \"#utility.yul\":7871:8025   */\n  swap2\n  swap1\n  pop\n  jump\t// out\n    /* \"#utility.yul\":8031:8148   */\ntag_46:\n    /* \"#utility.yul\":8140:8141   */\n  0x00\n    /* \"#utility.yul\":8137:8138   */\n  dup1\n    /* \"#utility.yul\":8130:8142   */\n  revert\n    /* \"#utility.yul\":8154:8271   */\ntag_40:\n    /* \"#utility.yul\":8263:8264   */\n  0x00\n    /* \"#utility.yul\":8260:8261   */\n  dup1\n    /* \"#utility.yul\":8253:8265   */\n  revert\n    /* \"#utility.yul\":8277:8394   */\ntag_56:\n    /* \"#utility.yul\":8386:8387   */\n  0x00\n    /* \"#utility.yul\":8383:8384   */\n  dup1\n    /* \"#utility.yul\":8376:8388   */\n  revert\n    /* \"#utility.yul\":8400:8517   */\ntag_74:\n    /* \"#utility.yul\":8509:8510   */\n  0x00\n    /* \"#utility.yul\":8506:8507   */\n  dup1\n    /* \"#utility.yul\":8499:8511   */\n  revert\n    /* \"#utility.yul\":8523:8640   */\ntag_71:\n    /* \"#utility.yul\":8632:8633   */\n  0x00\n    /* \"#utility.yul\":8629:8630   */\n  dup1\n    /* \"#utility.yul\":8622:8634   */\n  revert\n    /* \"#utility.yul\":8646:8748   */\ntag_110:\n    /* \"#utility.yul\":8687:8693   */\n  0x00\n    /* \"#utility.yul\":8738:8740   */\n  0x1f\n    /* \"#utility.yul\":8734:8741   */\n  not\n    /* \"#utility.yul\":8729:8731   */\n  0x1f\n    /* \"#utility.yul\":8722:8727   */\n  dup4\n    /* \"#utility.yul\":8718:8732   */\n  add\n    /* \"#utility.yul\":8714:8742   */\n  and\n    /* \"#utility.yul\":8704:8742   */\n  swap1\n  pop\n    /* \"#utility.yul\":8646:8748   */\n  swap2\n  swap1\n  pop\n  jump\t// out\n    /* \"#utility.yul\":8754:8861   */\ntag_137:\n    /* \"#utility.yul\":8798:8806   */\n  0x00\n    /* \"#utility.yul\":8848:8853   */\n  dup3\n    /* \"#utility.yul\":8842:8846   */\n  dup3\n    /* \"#utility.yul\":8838:8854   */\n  shl\n    /* \"#utility.yul\":8817:8854   */\n  swap1\n  pop\n    /* \"#utility.yul\":8754:8861   */\n  swap3\n  swap2\n  pop\n  pop\n  jump\t// out\n    /* \"contracts/SimpleVoting.sol\":371:7933  contract SimpleVoting is Context {\r... */\ntag_21:\n  dataSize(sub_0)\n  dup1\n  dataOffset(sub_0)\n  0x00\n  codecopy\n  0x00\n  return\nstop\n\nsub_0: assembly {\n        /* \"contracts/SimpleVoting.sol\":371:7933  contract SimpleVoting is Context {\r... */\n      mstore(0x40, 0x80)\n      callvalue\n      dup1\n      iszero\n      tag_1\n      jumpi\n      0x00\n      dup1\n      revert\n    tag_1:\n      pop\n      jumpi(tag_2, lt(calldatasize, 0x04))\n      shr(0xe0, calldataload(0x00))\n      dup1\n      0xa3ec138d\n      gt\n      tag_12\n      jumpi\n      dup1\n      0xa3ec138d\n      eq\n      tag_7\n      jumpi\n      dup1\n      0xc7f758a8\n      eq\n      tag_8\n      jumpi\n      dup1\n      0xd4d4b5ac\n      eq\n      tag_9\n      jumpi\n      dup1\n      0xda35c664\n      eq\n      tag_10\n      jumpi\n      dup1\n      0xef788cd5\n      eq\n      tag_11\n      jumpi\n      jump(tag_2)\n    tag_12:\n      dup1\n      0x0121b93f\n      eq\n      tag_3\n      jumpi\n      dup1\n      0x28be18ee\n      eq\n      tag_4\n      jumpi\n      dup1\n      0x5c19a95c\n      eq\n      tag_5\n      jumpi\n      dup1\n      0x9e7b8d61\n      eq\n      tag_6\n      jumpi\n    tag_2:\n      0x00\n      dup1\n      revert\n        /* \"contracts/SimpleVoting.sol\":5685:6402  function vote(uint proposal) public proposalExists(proposal) notYetVoted(_msgSender()) hasRightToVote(_msgSender()) {\r... */\n    tag_3:\n      tag_13\n      0x04\n      dup1\n      calldatasize\n      sub\n      dup2\n      add\n      swap1\n      tag_14\n      swap2\n      swap1\n      tag_15\n      jump\t// in\n    tag_14:\n      tag_16\n      jump\t// in\n    tag_13:\n      stop\n        /* \"contracts/SimpleVoting.sol\":7294:7608  function winnerNames() public view\r... */\n    tag_4:\n      tag_17\n      tag_18\n      jump\t// in\n    tag_17:\n      mload(0x40)\n      tag_19\n      swap2\n      swap1\n      tag_20\n      jump\t// in\n    tag_19:\n      mload(0x40)\n      dup1\n      swap2\n      sub\n      swap1\n      return\n        /* \"contracts/SimpleVoting.sol\":4221:5491  function delegate(address _to) public notYetVoted (_msgSender()) hasRightToVote (_msgSender()) {\r... */\n    tag_5:\n      tag_21\n      0x04\n      dup1\n      calldatasize\n      sub\n      dup2\n      add\n      swap1\n      tag_22\n      swap2\n      swap1\n      tag_23\n      jump\t// in\n    tag_22:\n      tag_24\n      jump\t// in\n    tag_21:\n      stop\n        /* \"contracts/SimpleVoting.sol\":3604:4090  function giveRightToVote(address _voter) public onlyChairPerson() notYetVoted(_voter) {\r... */\n    tag_6:\n      tag_25\n      0x04\n      dup1\n      calldatasize\n      sub\n      dup2\n      add\n      swap1\n      tag_26\n      swap2\n      swap1\n      tag_23\n      jump\t// in\n    tag_26:\n      tag_27\n      jump\t// in\n    tag_25:\n      stop\n        /* \"contracts/SimpleVoting.sol\":1067:1106  mapping(address => Voter) public voters */\n    tag_7:\n      tag_28\n      0x04\n      dup1\n      calldatasize\n      sub\n      dup2\n      add\n      swap1\n      tag_29\n      swap2\n      swap1\n      tag_23\n      jump\t// in\n    tag_29:\n      tag_30\n      jump\t// in\n    tag_28:\n      mload(0x40)\n      tag_31\n      swap5\n      swap4\n      swap3\n      swap2\n      swap1\n      tag_32\n      jump\t// in\n    tag_31:\n      mload(0x40)\n      dup1\n      swap2\n      sub\n      swap1\n      return\n        /* \"contracts/SimpleVoting.sol\":2992:3285  function getProposal (uint256 _proposalIndex) public view proposalExists(_proposalIndex) returns (string memory proposalName_, uint256 voteCount_) {\r... */\n    tag_8:\n      tag_33\n      0x04\n      dup1\n      calldatasize\n      sub\n      dup2\n      add\n      swap1\n      tag_34\n      swap2\n      swap1\n      tag_15\n      jump\t// in\n    tag_34:\n      tag_35\n      jump\t// in\n    tag_33:\n      mload(0x40)\n      tag_36\n      swap3\n      swap2\n      swap1\n      tag_37\n      jump\t// in\n    tag_36:\n      mload(0x40)\n      dup1\n      swap2\n      sub\n      swap1\n      return\n        /* \"contracts/SimpleVoting.sol\":1032:1058  address public chairPerson */\n    tag_9:\n      tag_38\n      tag_39\n      jump\t// in\n    tag_38:\n      mload(0x40)\n      tag_40\n      swap2\n      swap1\n      tag_41\n      jump\t// in\n    tag_40:\n      mload(0x40)\n      dup1\n      swap2\n      sub\n      swap1\n      return\n        /* \"contracts/SimpleVoting.sol\":995:1023  uint256 public proposalCount */\n    tag_10:\n      tag_42\n      tag_43\n      jump\t// in\n    tag_42:\n      mload(0x40)\n      tag_44\n      swap2\n      swap1\n      tag_45\n      jump\t// in\n    tag_44:\n      mload(0x40)\n      dup1\n      swap2\n      sub\n      swap1\n      return\n        /* \"contracts/SimpleVoting.sol\":3293:3436  function getWinningProposals () public returns (uint256[] memory){\r... */\n    tag_11:\n      tag_46\n      tag_47\n      jump\t// in\n    tag_46:\n      mload(0x40)\n      tag_48\n      swap2\n      swap1\n      tag_49\n      jump\t// in\n    tag_48:\n      mload(0x40)\n      dup1\n      swap2\n      sub\n      swap1\n      return\n        /* \"contracts/SimpleVoting.sol\":5685:6402  function vote(uint proposal) public proposalExists(proposal) notYetVoted(_msgSender()) hasRightToVote(_msgSender()) {\r... */\n    tag_16:\n        /* \"contracts/SimpleVoting.sol\":5736:5744  proposal */\n      dup1\n        /* \"contracts/SimpleVoting.sol\":1923:1936  proposalCount */\n      sload(0x00)\n        /* \"contracts/SimpleVoting.sol\":1906:1920  _proposalIndex */\n      dup2\n        /* \"contracts/SimpleVoting.sol\":1906:1936  _proposalIndex < proposalCount */\n      lt\n        /* \"contracts/SimpleVoting.sol\":1883:2008  require (\r... */\n      tag_52\n      jumpi\n      mload(0x40)\n      0x08c379a000000000000000000000000000000000000000000000000000000000\n      dup2\n      mstore\n      0x04\n      add\n      tag_53\n      swap1\n      tag_54\n      jump\t// in\n    tag_53:\n      mload(0x40)\n      dup1\n      swap2\n      sub\n      swap1\n      revert\n    tag_52:\n        /* \"contracts/SimpleVoting.sol\":5758:5770  _msgSender() */\n      tag_55\n        /* \"contracts/SimpleVoting.sol\":5758:5768  _msgSender */\n      tag_56\n        /* \"contracts/SimpleVoting.sol\":5758:5770  _msgSender() */\n      jump\t// in\n    tag_55:\n        /* \"contracts/SimpleVoting.sol\":1705:1711  voters */\n      0x02\n        /* \"contracts/SimpleVoting.sol\":1705:1719  voters[_voter] */\n      0x00\n        /* \"contracts/SimpleVoting.sol\":1712:1718  _voter */\n      dup3\n        /* \"contracts/SimpleVoting.sol\":1705:1719  voters[_voter] */\n      0xffffffffffffffffffffffffffffffffffffffff\n      and\n      0xffffffffffffffffffffffffffffffffffffffff\n      and\n      dup2\n      mstore\n      0x20\n      add\n      swap1\n      dup2\n      mstore\n      0x20\n      add\n      0x00\n      keccak256\n        /* \"contracts/SimpleVoting.sol\":1705:1725  voters[_voter].voted */\n      0x01\n      add\n      0x00\n      swap1\n      sload\n      swap1\n      0x0100\n      exp\n      swap1\n      div\n      0xff\n      and\n        /* \"contracts/SimpleVoting.sol\":1704:1725  !voters[_voter].voted */\n      iszero\n        /* \"contracts/SimpleVoting.sol\":1682:1795  require(\r... */\n      tag_58\n      jumpi\n      mload(0x40)\n      0x08c379a000000000000000000000000000000000000000000000000000000000\n      dup2\n      mstore\n      0x04\n      add\n      tag_59\n      swap1\n      tag_60\n      jump\t// in\n    tag_59:\n      mload(0x40)\n      dup1\n      swap2\n      sub\n      swap1\n      revert\n    tag_58:\n        /* \"contracts/SimpleVoting.sol\":5787:5799  _msgSender() */\n      tag_61\n        /* \"contracts/SimpleVoting.sol\":5787:5797  _msgSender */\n      tag_56\n        /* \"contracts/SimpleVoting.sol\":5787:5799  _msgSender() */\n      jump\t// in\n    tag_61:\n        /* \"contracts/SimpleVoting.sol\":2135:2136  0 */\n      0x00\n        /* \"contracts/SimpleVoting.sol\":2111:2117  voters */\n      0x02\n        /* \"contracts/SimpleVoting.sol\":2111:2125  voters[_voter] */\n      0x00\n        /* \"contracts/SimpleVoting.sol\":2118:2124  _voter */\n      dup4\n        /* \"contracts/SimpleVoting.sol\":2111:2125  voters[_voter] */\n      0xffffffffffffffffffffffffffffffffffffffff\n      and\n      0xffffffffffffffffffffffffffffffffffffffff\n      and\n      dup2\n      mstore\n      0x20\n      add\n      swap1\n      dup2\n      mstore\n      0x20\n      add\n      0x00\n      keccak256\n        /* \"contracts/SimpleVoting.sol\":2111:2132  voters[_voter].weight */\n      0x00\n      add\n      sload\n        /* \"contracts/SimpleVoting.sol\":2111:2136  voters[_voter].weight > 0 */\n      gt\n        /* \"contracts/SimpleVoting.sol\":2088:2213  require (\r... */\n      tag_63\n      jumpi\n      mload(0x40)\n      0x08c379a000000000000000000000000000000000000000000000000000000000\n      dup2\n      mstore\n      0x04\n      add\n      tag_64\n      swap1\n      tag_65\n      jump\t// in\n    tag_64:\n      mload(0x40)\n      dup1\n      swap2\n      sub\n      swap1\n      revert\n    tag_63:\n        /* \"contracts/SimpleVoting.sol\":5812:5832  Voter storage sender */\n      0x00\n        /* \"contracts/SimpleVoting.sol\":5835:5841  voters */\n      0x02\n        /* \"contracts/SimpleVoting.sol\":5835:5855  voters[_msgSender()] */\n      0x00\n        /* \"contracts/SimpleVoting.sol\":5842:5854  _msgSender() */\n      tag_67\n        /* \"contracts/SimpleVoting.sol\":5842:5852  _msgSender */\n      tag_56\n        /* \"contracts/SimpleVoting.sol\":5842:5854  _msgSender() */\n      jump\t// in\n    tag_67:\n        /* \"contracts/SimpleVoting.sol\":5835:5855  voters[_msgSender()] */\n      0xffffffffffffffffffffffffffffffffffffffff\n      and\n      0xffffffffffffffffffffffffffffffffffffffff\n      and\n      dup2\n      mstore\n      0x20\n      add\n      swap1\n      dup2\n      mstore\n      0x20\n      add\n      0x00\n      keccak256\n        /* \"contracts/SimpleVoting.sol\":5812:5855  Voter storage sender = voters[_msgSender()] */\n      swap1\n      pop\n        /* \"contracts/SimpleVoting.sol\":6057:6061  true */\n      0x01\n        /* \"contracts/SimpleVoting.sol\":6042:6048  sender */\n      dup2\n        /* \"contracts/SimpleVoting.sol\":6042:6054  sender.voted */\n      0x01\n      add\n      0x00\n        /* \"contracts/SimpleVoting.sol\":6042:6061  sender.voted = true */\n      0x0100\n      exp\n      dup2\n      sload\n      dup2\n      0xff\n      mul\n      not\n      and\n      swap1\n      dup4\n      iszero\n      iszero\n      mul\n      or\n      swap1\n      sstore\n      pop\n        /* \"contracts/SimpleVoting.sol\":6086:6094  proposal */\n      dup5\n        /* \"contracts/SimpleVoting.sol\":6072:6078  sender */\n      dup2\n        /* \"contracts/SimpleVoting.sol\":6072:6083  sender.vote */\n      0x02\n      add\n        /* \"contracts/SimpleVoting.sol\":6072:6094  sender.vote = proposal */\n      dup2\n      swap1\n      sstore\n      pop\n        /* \"contracts/SimpleVoting.sol\":6277:6326  proposals[proposal].voteCount. add(sender.weight) */\n      tag_68\n        /* \"contracts/SimpleVoting.sol\":6312:6318  sender */\n      dup2\n        /* \"contracts/SimpleVoting.sol\":6312:6325  sender.weight */\n      0x00\n      add\n      sload\n        /* \"contracts/SimpleVoting.sol\":6277:6286  proposals */\n      0x03\n        /* \"contracts/SimpleVoting.sol\":6287:6295  proposal */\n      dup8\n        /* \"contracts/SimpleVoting.sol\":6277:6296  proposals[proposal] */\n      dup2\n      sload\n      dup2\n      lt\n      tag_69\n      jumpi\n      tag_70\n      tag_71\n      jump\t// in\n    tag_70:\n    tag_69:\n      swap1\n      0x00\n      mstore\n      keccak256(0x00, 0x20)\n      swap1\n      0x02\n      mul\n      add\n        /* \"contracts/SimpleVoting.sol\":6277:6306  proposals[proposal].voteCount */\n      0x01\n      add\n      sload\n        /* \"contracts/SimpleVoting.sol\":6277:6311  proposals[proposal].voteCount. add */\n      tag_50\n      swap1\n        /* \"contracts/SimpleVoting.sol\":6277:6326  proposals[proposal].voteCount. add(sender.weight) */\n      swap2\n      swap1\n      0xffffffff\n      and\n      jump\t// in\n    tag_68:\n        /* \"contracts/SimpleVoting.sol\":6245:6254  proposals */\n      0x03\n        /* \"contracts/SimpleVoting.sol\":6255:6263  proposal */\n      dup7\n        /* \"contracts/SimpleVoting.sol\":6245:6264  proposals[proposal] */\n      dup2\n      sload\n      dup2\n      lt\n      tag_73\n      jumpi\n      tag_74\n      tag_71\n      jump\t// in\n    tag_74:\n    tag_73:\n      swap1\n      0x00\n      mstore\n      keccak256(0x00, 0x20)\n      swap1\n      0x02\n      mul\n      add\n        /* \"contracts/SimpleVoting.sol\":6245:6274  proposals[proposal].voteCount */\n      0x01\n      add\n        /* \"contracts/SimpleVoting.sol\":6245:6326  proposals[proposal].voteCount = proposals[proposal].voteCount. add(sender.weight) */\n      dup2\n      swap1\n      sstore\n      pop\n        /* \"contracts/SimpleVoting.sol\":6366:6378  _msgSender() */\n      tag_76\n        /* \"contracts/SimpleVoting.sol\":6366:6376  _msgSender */\n      tag_56\n        /* \"contracts/SimpleVoting.sol\":6366:6378  _msgSender() */\n      jump\t// in\n    tag_76:\n        /* \"contracts/SimpleVoting.sol\":6344:6394  VoteCasted (proposal, _msgSender(), sender.weight) */\n      0xffffffffffffffffffffffffffffffffffffffff\n      and\n        /* \"contracts/SimpleVoting.sol\":6356:6364  proposal */\n      dup6\n        /* \"contracts/SimpleVoting.sol\":6344:6394  VoteCasted (proposal, _msgSender(), sender.weight) */\n      0xe7ee74ca1f4bb1b82b14f87794c45b3e59c39e372b862fb97a6316b43355b69e\n        /* \"contracts/SimpleVoting.sol\":6380:6386  sender */\n      dup4\n        /* \"contracts/SimpleVoting.sol\":6380:6393  sender.weight */\n      0x00\n      add\n      sload\n        /* \"contracts/SimpleVoting.sol\":6344:6394  VoteCasted (proposal, _msgSender(), sender.weight) */\n      mload(0x40)\n      tag_77\n      swap2\n      swap1\n      tag_45\n      jump\t// in\n    tag_77:\n      mload(0x40)\n      dup1\n      swap2\n      sub\n      swap1\n      log3\n        /* \"contracts/SimpleVoting.sol\":5801:6402  {\r... */\n      pop\n        /* \"contracts/SimpleVoting.sol\":1806:1807  _ */\n      pop\n        /* \"contracts/SimpleVoting.sol\":2019:2020  _ */\n      pop\n        /* \"contracts/SimpleVoting.sol\":5685:6402  function vote(uint proposal) public proposalExists(proposal) notYetVoted(_msgSender()) hasRightToVote(_msgSender()) {\r... */\n      pop\n      pop\n      jump\t// out\n        /* \"contracts/SimpleVoting.sol\":7294:7608  function winnerNames() public view\r... */\n    tag_18:\n        /* \"contracts/SimpleVoting.sol\":7351:7377  string memory winnerNames_ */\n      0x60\n        /* \"contracts/SimpleVoting.sol\":7400:7409  uint256 i */\n      0x00\n        /* \"contracts/SimpleVoting.sol\":7395:7601  for (uint256 i = 0; i < winningProposals.length; i = i. add(1)) {\r... */\n    tag_79:\n        /* \"contracts/SimpleVoting.sol\":7419:7435  winningProposals */\n      0x04\n        /* \"contracts/SimpleVoting.sol\":7419:7442  winningProposals.length */\n      dup1\n      sload\n      swap1\n      pop\n        /* \"contracts/SimpleVoting.sol\":7415:7416  i */\n      dup2\n        /* \"contracts/SimpleVoting.sol\":7415:7442  i < winningProposals.length */\n      lt\n        /* \"contracts/SimpleVoting.sol\":7395:7601  for (uint256 i = 0; i < winningProposals.length; i = i. add(1)) {\r... */\n      iszero\n      tag_80\n      jumpi\n        /* \"contracts/SimpleVoting.sol\":7516:7528  winnerNames_ */\n      dup2\n        /* \"contracts/SimpleVoting.sol\":7551:7560  proposals */\n      0x03\n        /* \"contracts/SimpleVoting.sol\":7561:7577  winningProposals */\n      0x04\n        /* \"contracts/SimpleVoting.sol\":7578:7579  i */\n      dup4\n        /* \"contracts/SimpleVoting.sol\":7561:7580  winningProposals[i] */\n      dup2\n      sload\n      dup2\n      lt\n      tag_82\n      jumpi\n      tag_83\n      tag_71\n      jump\t// in\n    tag_83:\n    tag_82:\n      swap1\n      0x00\n      mstore\n      keccak256(0x00, 0x20)\n      add\n      sload\n        /* \"contracts/SimpleVoting.sol\":7551:7581  proposals[winningProposals[i]] */\n      dup2\n      sload\n      dup2\n      lt\n      tag_85\n      jumpi\n      tag_86\n      tag_71\n      jump\t// in\n    tag_86:\n    tag_85:\n      swap1\n      0x00\n      mstore\n      keccak256(0x00, 0x20)\n      swap1\n      0x02\n      mul\n      add\n        /* \"contracts/SimpleVoting.sol\":7551:7586  proposals[winningProposals[i]].name */\n      0x00\n      add\n      sload\n        /* \"contracts/SimpleVoting.sol\":7534:7587  abi.encodePacked(proposals[winningProposals[i]].name) */\n      add(0x20, mload(0x40))\n      tag_88\n      swap2\n      swap1\n      tag_89\n      jump\t// in\n    tag_88:\n      mload(0x40)\n      0x20\n      dup2\n      dup4\n      sub\n      sub\n      dup2\n      mstore\n      swap1\n      0x40\n      mstore\n        /* \"contracts/SimpleVoting.sol\":7497:7588  bytes.concat(bytes(winnerNames_),\" \",abi.encodePacked(proposals[winningProposals[i]].name)) */\n      add(0x20, mload(0x40))\n      tag_90\n      swap3\n      swap2\n      swap1\n      tag_91\n      jump\t// in\n    tag_90:\n      mload(0x40)\n      0x20\n      dup2\n      dup4\n      sub\n      sub\n      dup2\n      mstore\n      swap1\n      0x40\n      mstore\n        /* \"contracts/SimpleVoting.sol\":7474:7589  winnerNames_ = string (bytes.concat(bytes(winnerNames_),\" \",abi.encodePacked(proposals[winningProposals[i]].name))) */\n      swap2\n      pop\n        /* \"contracts/SimpleVoting.sol\":7448:7457  i. add(1) */\n      tag_92\n        /* \"contracts/SimpleVoting.sol\":7455:7456  1 */\n      0x01\n        /* \"contracts/SimpleVoting.sol\":7448:7449  i */\n      dup3\n        /* \"contracts/SimpleVoting.sol\":7448:7454  i. add */\n      tag_50\n      swap1\n        /* \"contracts/SimpleVoting.sol\":7448:7457  i. add(1) */\n      swap2\n      swap1\n      0xffffffff\n      and\n      jump\t// in\n    tag_92:\n        /* \"contracts/SimpleVoting.sol\":7444:7457  i = i. add(1) */\n      swap1\n      pop\n        /* \"contracts/SimpleVoting.sol\":7395:7601  for (uint256 i = 0; i < winningProposals.length; i = i. add(1)) {\r... */\n      jump(tag_79)\n    tag_80:\n      pop\n        /* \"contracts/SimpleVoting.sol\":7294:7608  function winnerNames() public view\r... */\n      swap1\n      jump\t// out\n        /* \"contracts/SimpleVoting.sol\":4221:5491  function delegate(address _to) public notYetVoted (_msgSender()) hasRightToVote (_msgSender()) {\r... */\n    tag_24:\n        /* \"contracts/SimpleVoting.sol\":4272:4284  _msgSender() */\n      tag_93\n        /* \"contracts/SimpleVoting.sol\":4272:4282  _msgSender */\n      tag_56\n        /* \"contracts/SimpleVoting.sol\":4272:4284  _msgSender() */\n      jump\t// in\n    tag_93:\n        /* \"contracts/SimpleVoting.sol\":1705:1711  voters */\n      0x02\n        /* \"contracts/SimpleVoting.sol\":1705:1719  voters[_voter] */\n      0x00\n        /* \"contracts/SimpleVoting.sol\":1712:1718  _voter */\n      dup3\n        /* \"contracts/SimpleVoting.sol\":1705:1719  voters[_voter] */\n      0xffffffffffffffffffffffffffffffffffffffff\n      and\n      0xffffffffffffffffffffffffffffffffffffffff\n      and\n      dup2\n      mstore\n      0x20\n      add\n      swap1\n      dup2\n      mstore\n      0x20\n      add\n      0x00\n      keccak256\n        /* \"contracts/SimpleVoting.sol\":1705:1725  voters[_voter].voted */\n      0x01\n      add\n      0x00\n      swap1\n      sload\n      swap1\n      0x0100\n      exp\n      swap1\n      div\n      0xff\n      and\n        /* \"contracts/SimpleVoting.sol\":1704:1725  !voters[_voter].voted */\n      iszero\n        /* \"contracts/SimpleVoting.sol\":1682:1795  require(\r... */\n      tag_95\n      jumpi\n      mload(0x40)\n      0x08c379a000000000000000000000000000000000000000000000000000000000\n      dup2\n      mstore\n      0x04\n      add\n      tag_96\n      swap1\n      tag_60\n      jump\t// in\n    tag_96:\n      mload(0x40)\n      dup1\n      swap2\n      sub\n      swap1\n      revert\n    tag_95:\n        /* \"contracts/SimpleVoting.sol\":4302:4314  _msgSender() */\n      tag_97\n        /* \"contracts/SimpleVoting.sol\":4302:4312  _msgSender */\n      tag_56\n        /* \"contracts/SimpleVoting.sol\":4302:4314  _msgSender() */\n      jump\t// in\n    tag_97:\n        /* \"contracts/SimpleVoting.sol\":2135:2136  0 */\n      0x00\n        /* \"contracts/SimpleVoting.sol\":2111:2117  voters */\n      0x02\n        /* \"contracts/SimpleVoting.sol\":2111:2125  voters[_voter] */\n      0x00\n        /* \"contracts/SimpleVoting.sol\":2118:2124  _voter */\n      dup4\n        /* \"contracts/SimpleVoting.sol\":2111:2125  voters[_voter] */\n      0xffffffffffffffffffffffffffffffffffffffff\n      and\n      0xffffffffffffffffffffffffffffffffffffffff\n      and\n      dup2\n      mstore\n      0x20\n      add\n      swap1\n      dup2\n      mstore\n      0x20\n      add\n      0x00\n      keccak256\n        /* \"contracts/SimpleVoting.sol\":2111:2132  voters[_voter].weight */\n      0x00\n      add\n      sload\n        /* \"contracts/SimpleVoting.sol\":2111:2136  voters[_voter].weight > 0 */\n      gt\n        /* \"contracts/SimpleVoting.sol\":2088:2213  require (\r... */\n      tag_99\n      jumpi\n      mload(0x40)\n      0x08c379a000000000000000000000000000000000000000000000000000000000\n      dup2\n      mstore\n      0x04\n      add\n      tag_100\n      swap1\n      tag_65\n      jump\t// in\n    tag_100:\n      mload(0x40)\n      dup1\n      swap2\n      sub\n      swap1\n      revert\n    tag_99:\n        /* \"contracts/SimpleVoting.sol\":4435:4455  Voter storage sender */\n      0x00\n        /* \"contracts/SimpleVoting.sol\":4458:4464  voters */\n      0x02\n        /* \"contracts/SimpleVoting.sol\":4458:4478  voters[_msgSender()] */\n      0x00\n        /* \"contracts/SimpleVoting.sol\":4465:4477  _msgSender() */\n      tag_102\n        /* \"contracts/SimpleVoting.sol\":4465:4475  _msgSender */\n      tag_56\n        /* \"contracts/SimpleVoting.sol\":4465:4477  _msgSender() */\n      jump\t// in\n    tag_102:\n        /* \"contracts/SimpleVoting.sol\":4458:4478  voters[_msgSender()] */\n      0xffffffffffffffffffffffffffffffffffffffff\n      and\n      0xffffffffffffffffffffffffffffffffffffffff\n      and\n      dup2\n      mstore\n      0x20\n      add\n      swap1\n      dup2\n      mstore\n      0x20\n      add\n      0x00\n      keccak256\n        /* \"contracts/SimpleVoting.sol\":4435:4478  Voter storage sender = voters[_msgSender()] */\n      swap1\n      pop\n        /* \"contracts/SimpleVoting.sol\":4562:4574  _msgSender() */\n      tag_103\n        /* \"contracts/SimpleVoting.sol\":4562:4572  _msgSender */\n      tag_56\n        /* \"contracts/SimpleVoting.sol\":4562:4574  _msgSender() */\n      jump\t// in\n    tag_103:\n        /* \"contracts/SimpleVoting.sol\":4555:4574  _to != _msgSender() */\n      0xffffffffffffffffffffffffffffffffffffffff\n      and\n        /* \"contracts/SimpleVoting.sol\":4555:4558  _to */\n      dup5\n        /* \"contracts/SimpleVoting.sol\":4555:4574  _to != _msgSender() */\n      0xffffffffffffffffffffffffffffffffffffffff\n      and\n      eq\n      iszero\n        /* \"contracts/SimpleVoting.sol\":4546:4624  require (_to != _msgSender(), \"SimpleVoting: Self-delegation is not allowed.\") */\n      tag_104\n      jumpi\n      mload(0x40)\n      0x08c379a000000000000000000000000000000000000000000000000000000000\n      dup2\n      mstore\n      0x04\n      add\n      tag_105\n      swap1\n      tag_106\n      jump\t// in\n    tag_105:\n      mload(0x40)\n      dup1\n      swap2\n      sub\n      swap1\n      revert\n    tag_104:\n        /* \"contracts/SimpleVoting.sol\":4637:4893  while (voters[_to].delegate != address(0)) {\r... */\n    tag_107:\n        /* \"contracts/SimpleVoting.sol\":4676:4677  0 */\n      0x00\n        /* \"contracts/SimpleVoting.sol\":4644:4678  voters[_to].delegate != address(0) */\n      0xffffffffffffffffffffffffffffffffffffffff\n      and\n        /* \"contracts/SimpleVoting.sol\":4644:4650  voters */\n      0x02\n        /* \"contracts/SimpleVoting.sol\":4644:4655  voters[_to] */\n      0x00\n        /* \"contracts/SimpleVoting.sol\":4651:4654  _to */\n      dup7\n        /* \"contracts/SimpleVoting.sol\":4644:4655  voters[_to] */\n      0xffffffffffffffffffffffffffffffffffffffff\n      and\n      0xffffffffffffffffffffffffffffffffffffffff\n      and\n      dup2\n      mstore\n      0x20\n      add\n      swap1\n      dup2\n      mstore\n      0x20\n      add\n      0x00\n      keccak256\n        /* \"contracts/SimpleVoting.sol\":4644:4664  voters[_to].delegate */\n      0x01\n      add\n      0x01\n      swap1\n      sload\n      swap1\n      0x0100\n      exp\n      swap1\n      div\n      0xffffffffffffffffffffffffffffffffffffffff\n      and\n        /* \"contracts/SimpleVoting.sol\":4644:4678  voters[_to].delegate != address(0) */\n      0xffffffffffffffffffffffffffffffffffffffff\n      and\n      eq\n        /* \"contracts/SimpleVoting.sol\":4637:4893  while (voters[_to].delegate != address(0)) {\r... */\n      tag_108\n      jumpi\n        /* \"contracts/SimpleVoting.sol\":4701:4707  voters */\n      0x02\n        /* \"contracts/SimpleVoting.sol\":4701:4712  voters[_to] */\n      0x00\n        /* \"contracts/SimpleVoting.sol\":4708:4711  _to */\n      dup6\n        /* \"contracts/SimpleVoting.sol\":4701:4712  voters[_to] */\n      0xffffffffffffffffffffffffffffffffffffffff\n      and\n      0xffffffffffffffffffffffffffffffffffffffff\n      and\n      dup2\n      mstore\n      0x20\n      add\n      swap1\n      dup2\n      mstore\n      0x20\n      add\n      0x00\n      keccak256\n        /* \"contracts/SimpleVoting.sol\":4701:4721  voters[_to].delegate */\n      0x01\n      add\n      0x01\n      swap1\n      sload\n      swap1\n      0x0100\n      exp\n      swap1\n      div\n      0xffffffffffffffffffffffffffffffffffffffff\n      and\n        /* \"contracts/SimpleVoting.sol\":4695:4721  _to = voters[_to].delegate */\n      swap4\n      pop\n        /* \"contracts/SimpleVoting.sol\":4817:4829  _msgSender() */\n      tag_109\n        /* \"contracts/SimpleVoting.sol\":4817:4827  _msgSender */\n      tag_56\n        /* \"contracts/SimpleVoting.sol\":4817:4829  _msgSender() */\n      jump\t// in\n    tag_109:\n        /* \"contracts/SimpleVoting.sol\":4810:4829  _to != _msgSender() */\n      0xffffffffffffffffffffffffffffffffffffffff\n      and\n        /* \"contracts/SimpleVoting.sol\":4810:4813  _to */\n      dup5\n        /* \"contracts/SimpleVoting.sol\":4810:4829  _to != _msgSender() */\n      0xffffffffffffffffffffffffffffffffffffffff\n      and\n      eq\n      iszero\n        /* \"contracts/SimpleVoting.sol\":4802:4881  require(_to != _msgSender(), \"SimpleVoting: Delegation traces back to caller.\") */\n      tag_110\n      jumpi\n      mload(0x40)\n      0x08c379a000000000000000000000000000000000000000000000000000000000\n      dup2\n      mstore\n      0x04\n      add\n      tag_111\n      swap1\n      tag_112\n      jump\t// in\n    tag_111:\n      mload(0x40)\n      dup1\n      swap2\n      sub\n      swap1\n      revert\n    tag_110:\n        /* \"contracts/SimpleVoting.sol\":4637:4893  while (voters[_to].delegate != address(0)) {\r... */\n      jump(tag_107)\n    tag_108:\n        /* \"contracts/SimpleVoting.sol\":4918:4922  true */\n      0x01\n        /* \"contracts/SimpleVoting.sol\":4903:4909  sender */\n      dup2\n        /* \"contracts/SimpleVoting.sol\":4903:4915  sender.voted */\n      0x01\n      add\n      0x00\n        /* \"contracts/SimpleVoting.sol\":4903:4922  sender.voted = true */\n      0x0100\n      exp\n      dup2\n      sload\n      dup2\n      0xff\n      mul\n      not\n      and\n      swap1\n      dup4\n      iszero\n      iszero\n      mul\n      or\n      swap1\n      sstore\n      pop\n        /* \"contracts/SimpleVoting.sol\":4951:4954  _to */\n      dup4\n        /* \"contracts/SimpleVoting.sol\":4933:4939  sender */\n      dup2\n        /* \"contracts/SimpleVoting.sol\":4933:4948  sender.delegate */\n      0x01\n      add\n      0x01\n        /* \"contracts/SimpleVoting.sol\":4933:4954  sender.delegate = _to */\n      0x0100\n      exp\n      dup2\n      sload\n      dup2\n      0xffffffffffffffffffffffffffffffffffffffff\n      mul\n      not\n      and\n      swap1\n      dup4\n      0xffffffffffffffffffffffffffffffffffffffff\n      and\n      mul\n      or\n      swap1\n      sstore\n      pop\n        /* \"contracts/SimpleVoting.sol\":4965:4988  Voter storage delegate_ */\n      0x00\n        /* \"contracts/SimpleVoting.sol\":4991:4997  voters */\n      0x02\n        /* \"contracts/SimpleVoting.sol\":4991:5002  voters[_to] */\n      0x00\n        /* \"contracts/SimpleVoting.sol\":4998:5001  _to */\n      dup7\n        /* \"contracts/SimpleVoting.sol\":4991:5002  voters[_to] */\n      0xffffffffffffffffffffffffffffffffffffffff\n      and\n      0xffffffffffffffffffffffffffffffffffffffff\n      and\n      dup2\n      mstore\n      0x20\n      add\n      swap1\n      dup2\n      mstore\n      0x20\n      add\n      0x00\n      keccak256\n        /* \"contracts/SimpleVoting.sol\":4965:5002  Voter storage delegate_ = voters[_to] */\n      swap1\n      pop\n        /* \"contracts/SimpleVoting.sol\":5017:5026  delegate_ */\n      dup1\n        /* \"contracts/SimpleVoting.sol\":5017:5032  delegate_.voted */\n      0x01\n      add\n      0x00\n      swap1\n      sload\n      swap1\n      0x0100\n      exp\n      swap1\n      div\n      0xff\n      and\n        /* \"contracts/SimpleVoting.sol\":5013:5426  if (delegate_.voted) {\r... */\n      iszero\n      tag_113\n      jumpi\n        /* \"contracts/SimpleVoting.sol\":5186:5241  proposals[delegate_.vote].voteCount. add(sender.weight) */\n      tag_114\n        /* \"contracts/SimpleVoting.sol\":5227:5233  sender */\n      dup3\n        /* \"contracts/SimpleVoting.sol\":5227:5240  sender.weight */\n      0x00\n      add\n      sload\n        /* \"contracts/SimpleVoting.sol\":5186:5195  proposals */\n      0x03\n        /* \"contracts/SimpleVoting.sol\":5196:5205  delegate_ */\n      dup4\n        /* \"contracts/SimpleVoting.sol\":5196:5210  delegate_.vote */\n      0x02\n      add\n      sload\n        /* \"contracts/SimpleVoting.sol\":5186:5211  proposals[delegate_.vote] */\n      dup2\n      sload\n      dup2\n      lt\n      tag_115\n      jumpi\n      tag_116\n      tag_71\n      jump\t// in\n    tag_116:\n    tag_115:\n      swap1\n      0x00\n      mstore\n      keccak256(0x00, 0x20)\n      swap1\n      0x02\n      mul\n      add\n        /* \"contracts/SimpleVoting.sol\":5186:5221  proposals[delegate_.vote].voteCount */\n      0x01\n      add\n      sload\n        /* \"contracts/SimpleVoting.sol\":5186:5226  proposals[delegate_.vote].voteCount. add */\n      tag_50\n      swap1\n        /* \"contracts/SimpleVoting.sol\":5186:5241  proposals[delegate_.vote].voteCount. add(sender.weight) */\n      swap2\n      swap1\n      0xffffffff\n      and\n      jump\t// in\n    tag_114:\n        /* \"contracts/SimpleVoting.sol\":5148:5157  proposals */\n      0x03\n        /* \"contracts/SimpleVoting.sol\":5158:5167  delegate_ */\n      dup3\n        /* \"contracts/SimpleVoting.sol\":5158:5172  delegate_.vote */\n      0x02\n      add\n      sload\n        /* \"contracts/SimpleVoting.sol\":5148:5173  proposals[delegate_.vote] */\n      dup2\n      sload\n      dup2\n      lt\n      tag_118\n      jumpi\n      tag_119\n      tag_71\n      jump\t// in\n    tag_119:\n    tag_118:\n      swap1\n      0x00\n      mstore\n      keccak256(0x00, 0x20)\n      swap1\n      0x02\n      mul\n      add\n        /* \"contracts/SimpleVoting.sol\":5148:5183  proposals[delegate_.vote].voteCount */\n      0x01\n      add\n        /* \"contracts/SimpleVoting.sol\":5148:5241  proposals[delegate_.vote].voteCount = proposals[delegate_.vote].voteCount. add(sender.weight) */\n      dup2\n      swap1\n      sstore\n      pop\n        /* \"contracts/SimpleVoting.sol\":5013:5426  if (delegate_.voted) {\r... */\n      jump(tag_121)\n    tag_113:\n        /* \"contracts/SimpleVoting.sol\":5378:5414  delegate_.weight. add(sender.weight) */\n      tag_122\n        /* \"contracts/SimpleVoting.sol\":5400:5406  sender */\n      dup3\n        /* \"contracts/SimpleVoting.sol\":5400:5413  sender.weight */\n      0x00\n      add\n      sload\n        /* \"contracts/SimpleVoting.sol\":5378:5387  delegate_ */\n      dup3\n        /* \"contracts/SimpleVoting.sol\":5378:5394  delegate_.weight */\n      0x00\n      add\n      sload\n        /* \"contracts/SimpleVoting.sol\":5378:5399  delegate_.weight. add */\n      tag_50\n      swap1\n        /* \"contracts/SimpleVoting.sol\":5378:5414  delegate_.weight. add(sender.weight) */\n      swap2\n      swap1\n      0xffffffff\n      and\n      jump\t// in\n    tag_122:\n        /* \"contracts/SimpleVoting.sol\":5359:5368  delegate_ */\n      dup2\n        /* \"contracts/SimpleVoting.sol\":5359:5375  delegate_.weight */\n      0x00\n      add\n        /* \"contracts/SimpleVoting.sol\":5359:5414  delegate_.weight = delegate_.weight. add(sender.weight) */\n      dup2\n      swap1\n      sstore\n      pop\n        /* \"contracts/SimpleVoting.sol\":5013:5426  if (delegate_.voted) {\r... */\n    tag_121:\n        /* \"contracts/SimpleVoting.sol\":5479:5482  _to */\n      dup5\n        /* \"contracts/SimpleVoting.sol\":5443:5483  DelegationSuccessful (_msgSender(), _to) */\n      0xffffffffffffffffffffffffffffffffffffffff\n      and\n        /* \"contracts/SimpleVoting.sol\":5465:5477  _msgSender() */\n      tag_123\n        /* \"contracts/SimpleVoting.sol\":5465:5475  _msgSender */\n      tag_56\n        /* \"contracts/SimpleVoting.sol\":5465:5477  _msgSender() */\n      jump\t// in\n    tag_123:\n        /* \"contracts/SimpleVoting.sol\":5443:5483  DelegationSuccessful (_msgSender(), _to) */\n      0xffffffffffffffffffffffffffffffffffffffff\n      and\n      0x4ce9ef2c99d761d69230b0e3381f4c6016333b2e27d32b3e379a96b5d2c69232\n      mload(0x40)\n      mload(0x40)\n      dup1\n      swap2\n      sub\n      swap1\n      log3\n        /* \"contracts/SimpleVoting.sol\":4316:5491  {\r... */\n      pop\n      pop\n        /* \"contracts/SimpleVoting.sol\":1806:1807  _ */\n      pop\n        /* \"contracts/SimpleVoting.sol\":4221:5491  function delegate(address _to) public notYetVoted (_msgSender()) hasRightToVote (_msgSender()) {\r... */\n      pop\n      pop\n      jump\t// out\n        /* \"contracts/SimpleVoting.sol\":3604:4090  function giveRightToVote(address _voter) public onlyChairPerson() notYetVoted(_voter) {\r... */\n    tag_27:\n        /* \"contracts/SimpleVoting.sol\":1510:1521  chairPerson */\n      0x01\n      0x00\n      swap1\n      sload\n      swap1\n      0x0100\n      exp\n      swap1\n      div\n      0xffffffffffffffffffffffffffffffffffffffff\n      and\n        /* \"contracts/SimpleVoting.sol\":1494:1521  _msgSender() == chairPerson */\n      0xffffffffffffffffffffffffffffffffffffffff\n      and\n        /* \"contracts/SimpleVoting.sol\":1494:1506  _msgSender() */\n      tag_125\n        /* \"contracts/SimpleVoting.sol\":1494:1504  _msgSender */\n      tag_56\n        /* \"contracts/SimpleVoting.sol\":1494:1506  _msgSender() */\n      jump\t// in\n    tag_125:\n        /* \"contracts/SimpleVoting.sol\":1494:1521  _msgSender() == chairPerson */\n      0xffffffffffffffffffffffffffffffffffffffff\n      and\n      eq\n        /* \"contracts/SimpleVoting.sol\":1472:1603  require(\r... */\n      tag_126\n      jumpi\n      mload(0x40)\n      0x08c379a000000000000000000000000000000000000000000000000000000000\n      dup2\n      mstore\n      0x04\n      add\n      tag_127\n      swap1\n      tag_128\n      jump\t// in\n    tag_127:\n      mload(0x40)\n      dup1\n      swap2\n      sub\n      swap1\n      revert\n    tag_126:\n        /* \"contracts/SimpleVoting.sol\":3682:3688  _voter */\n      dup1\n        /* \"contracts/SimpleVoting.sol\":1705:1711  voters */\n      0x02\n        /* \"contracts/SimpleVoting.sol\":1705:1719  voters[_voter] */\n      0x00\n        /* \"contracts/SimpleVoting.sol\":1712:1718  _voter */\n      dup3\n        /* \"contracts/SimpleVoting.sol\":1705:1719  voters[_voter] */\n      0xffffffffffffffffffffffffffffffffffffffff\n      and\n      0xffffffffffffffffffffffffffffffffffffffff\n      and\n      dup2\n      mstore\n      0x20\n      add\n      swap1\n      dup2\n      mstore\n      0x20\n      add\n      0x00\n      keccak256\n        /* \"contracts/SimpleVoting.sol\":1705:1725  voters[_voter].voted */\n      0x01\n      add\n      0x00\n      swap1\n      sload\n      swap1\n      0x0100\n      exp\n      swap1\n      div\n      0xff\n      and\n        /* \"contracts/SimpleVoting.sol\":1704:1725  !voters[_voter].voted */\n      iszero\n        /* \"contracts/SimpleVoting.sol\":1682:1795  require(\r... */\n      tag_130\n      jumpi\n      mload(0x40)\n      0x08c379a000000000000000000000000000000000000000000000000000000000\n      dup2\n      mstore\n      0x04\n      add\n      tag_131\n      swap1\n      tag_60\n      jump\t// in\n    tag_131:\n      mload(0x40)\n      dup1\n      swap2\n      sub\n      swap1\n      revert\n    tag_130:\n        /* \"contracts/SimpleVoting.sol\":3992:3993  0 */\n      0x00\n        /* \"contracts/SimpleVoting.sol\":3967:3973  voters */\n      0x02\n        /* \"contracts/SimpleVoting.sol\":3967:3981  voters[_voter] */\n      0x00\n        /* \"contracts/SimpleVoting.sol\":3974:3980  _voter */\n      dup5\n        /* \"contracts/SimpleVoting.sol\":3967:3981  voters[_voter] */\n      0xffffffffffffffffffffffffffffffffffffffff\n      and\n      0xffffffffffffffffffffffffffffffffffffffff\n      and\n      dup2\n      mstore\n      0x20\n      add\n      swap1\n      dup2\n      mstore\n      0x20\n      add\n      0x00\n      keccak256\n        /* \"contracts/SimpleVoting.sol\":3967:3988  voters[_voter].weight */\n      0x00\n      add\n      sload\n        /* \"contracts/SimpleVoting.sol\":3967:3993  voters[_voter].weight == 0 */\n      eq\n        /* \"contracts/SimpleVoting.sol\":3959:4046  require(voters[_voter].weight == 0, \"SimpleVoting: Address already has right to vote.\") */\n      tag_133\n      jumpi\n      mload(0x40)\n      0x08c379a000000000000000000000000000000000000000000000000000000000\n      dup2\n      mstore\n      0x04\n      add\n      tag_134\n      swap1\n      tag_135\n      jump\t// in\n    tag_134:\n      mload(0x40)\n      dup1\n      swap2\n      sub\n      swap1\n      revert\n    tag_133:\n        /* \"contracts/SimpleVoting.sol\":4081:4082  1 */\n      0x01\n        /* \"contracts/SimpleVoting.sol\":4057:4063  voters */\n      0x02\n        /* \"contracts/SimpleVoting.sol\":4057:4071  voters[_voter] */\n      0x00\n        /* \"contracts/SimpleVoting.sol\":4064:4070  _voter */\n      dup5\n        /* \"contracts/SimpleVoting.sol\":4057:4071  voters[_voter] */\n      0xffffffffffffffffffffffffffffffffffffffff\n      and\n      0xffffffffffffffffffffffffffffffffffffffff\n      and\n      dup2\n      mstore\n      0x20\n      add\n      swap1\n      dup2\n      mstore\n      0x20\n      add\n      0x00\n      keccak256\n        /* \"contracts/SimpleVoting.sol\":4057:4078  voters[_voter].weight */\n      0x00\n      add\n        /* \"contracts/SimpleVoting.sol\":4057:4082  voters[_voter].weight = 1 */\n      dup2\n      swap1\n      sstore\n      pop\n        /* \"contracts/SimpleVoting.sol\":1614:1615  _ */\n      pop\n        /* \"contracts/SimpleVoting.sol\":3604:4090  function giveRightToVote(address _voter) public onlyChairPerson() notYetVoted(_voter) {\r... */\n      pop\n      jump\t// out\n        /* \"contracts/SimpleVoting.sol\":1067:1106  mapping(address => Voter) public voters */\n    tag_30:\n      mstore(0x20, 0x02)\n      dup1\n      0x00\n      mstore\n      keccak256(0x00, 0x40)\n      0x00\n      swap2\n      pop\n      swap1\n      pop\n      dup1\n      0x00\n      add\n      sload\n      swap1\n      dup1\n      0x01\n      add\n      0x00\n      swap1\n      sload\n      swap1\n      0x0100\n      exp\n      swap1\n      div\n      0xff\n      and\n      swap1\n      dup1\n      0x01\n      add\n      0x01\n      swap1\n      sload\n      swap1\n      0x0100\n      exp\n      swap1\n      div\n      0xffffffffffffffffffffffffffffffffffffffff\n      and\n      swap1\n      dup1\n      0x02\n      add\n      sload\n      swap1\n      pop\n      dup5\n      jump\t// out\n        /* \"contracts/SimpleVoting.sol\":2992:3285  function getProposal (uint256 _proposalIndex) public view proposalExists(_proposalIndex) returns (string memory proposalName_, uint256 voteCount_) {\r... */\n    tag_35:\n        /* \"contracts/SimpleVoting.sol\":3090:3117  string memory proposalName_ */\n      0x60\n        /* \"contracts/SimpleVoting.sol\":3119:3137  uint256 voteCount_ */\n      0x00\n        /* \"contracts/SimpleVoting.sol\":3065:3079  _proposalIndex */\n      dup3\n        /* \"contracts/SimpleVoting.sol\":1923:1936  proposalCount */\n      sload(0x00)\n        /* \"contracts/SimpleVoting.sol\":1906:1920  _proposalIndex */\n      dup2\n        /* \"contracts/SimpleVoting.sol\":1906:1936  _proposalIndex < proposalCount */\n      lt\n        /* \"contracts/SimpleVoting.sol\":1883:2008  require (\r... */\n      tag_137\n      jumpi\n      mload(0x40)\n      0x08c379a000000000000000000000000000000000000000000000000000000000\n      dup2\n      mstore\n      0x04\n      add\n      tag_138\n      swap1\n      tag_54\n      jump\t// in\n    tag_138:\n      mload(0x40)\n      dup1\n      swap2\n      sub\n      swap1\n      revert\n    tag_137:\n        /* \"contracts/SimpleVoting.sol\":3191:3239  bytes32ToString (proposals[_proposalIndex].name) */\n      tag_140\n        /* \"contracts/SimpleVoting.sol\":3208:3217  proposals */\n      0x03\n        /* \"contracts/SimpleVoting.sol\":3218:3232  _proposalIndex */\n      dup6\n        /* \"contracts/SimpleVoting.sol\":3208:3233  proposals[_proposalIndex] */\n      dup2\n      sload\n      dup2\n      lt\n      tag_141\n      jumpi\n      tag_142\n      tag_71\n      jump\t// in\n    tag_142:\n    tag_141:\n      swap1\n      0x00\n      mstore\n      keccak256(0x00, 0x20)\n      swap1\n      0x02\n      mul\n      add\n        /* \"contracts/SimpleVoting.sol\":3208:3238  proposals[_proposalIndex].name */\n      0x00\n      add\n      sload\n        /* \"contracts/SimpleVoting.sol\":3191:3206  bytes32ToString */\n      tag_144\n        /* \"contracts/SimpleVoting.sol\":3191:3239  bytes32ToString (proposals[_proposalIndex].name) */\n      jump\t// in\n    tag_140:\n        /* \"contracts/SimpleVoting.sol\":3241:3250  proposals */\n      0x03\n        /* \"contracts/SimpleVoting.sol\":3251:3265  _proposalIndex */\n      dup6\n        /* \"contracts/SimpleVoting.sol\":3241:3266  proposals[_proposalIndex] */\n      dup2\n      sload\n      dup2\n      lt\n      tag_145\n      jumpi\n      tag_146\n      tag_71\n      jump\t// in\n    tag_146:\n    tag_145:\n      swap1\n      0x00\n      mstore\n      keccak256(0x00, 0x20)\n      swap1\n      0x02\n      mul\n      add\n        /* \"contracts/SimpleVoting.sol\":3241:3276  proposals[_proposalIndex].voteCount */\n      0x01\n      add\n      sload\n        /* \"contracts/SimpleVoting.sol\":3150:3277  (proposalName_, voteCount_) = \r... */\n      dup1\n      swap4\n      pop\n      dup2\n      swap5\n      pop\n      pop\n      pop\n        /* \"contracts/SimpleVoting.sol\":2992:3285  function getProposal (uint256 _proposalIndex) public view proposalExists(_proposalIndex) returns (string memory proposalName_, uint256 voteCount_) {\r... */\n      pop\n      swap2\n      pop\n      swap2\n      jump\t// out\n        /* \"contracts/SimpleVoting.sol\":1032:1058  address public chairPerson */\n    tag_39:\n      0x01\n      0x00\n      swap1\n      sload\n      swap1\n      0x0100\n      exp\n      swap1\n      div\n      0xffffffffffffffffffffffffffffffffffffffff\n      and\n      dup2\n      jump\t// out\n        /* \"contracts/SimpleVoting.sol\":995:1023  uint256 public proposalCount */\n    tag_43:\n      sload(0x00)\n      dup2\n      jump\t// out\n        /* \"contracts/SimpleVoting.sol\":3293:3436  function getWinningProposals () public returns (uint256[] memory){\r... */\n    tag_47:\n        /* \"contracts/SimpleVoting.sol\":3341:3357  uint256[] memory */\n      0x60\n        /* \"contracts/SimpleVoting.sol\":3369:3394  computeWinningProposals() */\n      tag_149\n        /* \"contracts/SimpleVoting.sol\":3369:3392  computeWinningProposals */\n      tag_150\n        /* \"contracts/SimpleVoting.sol\":3369:3394  computeWinningProposals() */\n      jump\t// in\n    tag_149:\n        /* \"contracts/SimpleVoting.sol\":3412:3428  winningProposals */\n      0x04\n        /* \"contracts/SimpleVoting.sol\":3405:3428  return winningProposals */\n      dup1\n      sload\n      dup1\n      0x20\n      mul\n      0x20\n      add\n      mload(0x40)\n      swap1\n      dup2\n      add\n      0x40\n      mstore\n      dup1\n      swap3\n      swap2\n      swap1\n      dup2\n      dup2\n      mstore\n      0x20\n      add\n      dup3\n      dup1\n      sload\n      dup1\n      iszero\n      tag_151\n      jumpi\n      0x20\n      mul\n      dup3\n      add\n      swap2\n      swap1\n      0x00\n      mstore\n      keccak256(0x00, 0x20)\n      swap1\n    tag_152:\n      dup2\n      sload\n      dup2\n      mstore\n      0x20\n      add\n      swap1\n      0x01\n      add\n      swap1\n      dup1\n      dup4\n      gt\n      tag_152\n      jumpi\n    tag_151:\n      pop\n      pop\n      pop\n      pop\n      pop\n      swap1\n      pop\n        /* \"contracts/SimpleVoting.sol\":3293:3436  function getWinningProposals () public returns (uint256[] memory){\r... */\n      swap1\n      jump\t// out\n        /* \"https://github.com/OpenZeppelin/openzeppelin-contracts/blob/master/contracts/utils/math/SafeMath.sol\":2755:2851  function add(uint256 a, uint256 b) internal pure returns (uint256) {... */\n    tag_50:\n        /* \"https://github.com/OpenZeppelin/openzeppelin-contracts/blob/master/contracts/utils/math/SafeMath.sol\":2813:2820  uint256 */\n      0x00\n        /* \"https://github.com/OpenZeppelin/openzeppelin-contracts/blob/master/contracts/utils/math/SafeMath.sol\":2843:2844  b */\n      dup2\n        /* \"https://github.com/OpenZeppelin/openzeppelin-contracts/blob/master/contracts/utils/math/SafeMath.sol\":2839:2840  a */\n      dup4\n        /* \"https://github.com/OpenZeppelin/openzeppelin-contracts/blob/master/contracts/utils/math/SafeMath.sol\":2839:2844  a + b */\n      tag_154\n      swap2\n      swap1\n      tag_155\n      jump\t// in\n    tag_154:\n        /* \"https://github.com/OpenZeppelin/openzeppelin-contracts/blob/master/contracts/utils/math/SafeMath.sol\":2832:2844  return a + b */\n      swap1\n      pop\n        /* \"https://github.com/OpenZeppelin/openzeppelin-contracts/blob/master/contracts/utils/math/SafeMath.sol\":2755:2851  function add(uint256 a, uint256 b) internal pure returns (uint256) {... */\n      swap3\n      swap2\n      pop\n      pop\n      jump\t// out\n        /* \"https://github.com/OpenZeppelin/openzeppelin-contracts/blob/master/contracts/utils/Context.sol\":640:736  function _msgSender() internal view virtual returns (address) {... */\n    tag_56:\n        /* \"https://github.com/OpenZeppelin/openzeppelin-contracts/blob/master/contracts/utils/Context.sol\":693:700  address */\n      0x00\n        /* \"https://github.com/OpenZeppelin/openzeppelin-contracts/blob/master/contracts/utils/Context.sol\":719:729  msg.sender */\n      caller\n        /* \"https://github.com/OpenZeppelin/openzeppelin-contracts/blob/master/contracts/utils/Context.sol\":712:729  return msg.sender */\n      swap1\n      pop\n        /* \"https://github.com/OpenZeppelin/openzeppelin-contracts/blob/master/contracts/utils/Context.sol\":640:736  function _msgSender() internal view virtual returns (address) {... */\n      swap1\n      jump\t// out\n        /* \"contracts/SimpleVoting.sol\":7780:7930  function bytes32ToString(bytes32 byt) \r... */\n    tag_144:\n        /* \"contracts/SimpleVoting.sol\":7858:7871  string memory */\n      0x60\n        /* \"contracts/SimpleVoting.sol\":7917:7920  byt */\n      dup2\n        /* \"contracts/SimpleVoting.sol\":7899:7921  abi.encodePacked (byt) */\n      add(0x20, mload(0x40))\n      tag_158\n      swap2\n      swap1\n      tag_89\n      jump\t// in\n    tag_158:\n      mload(0x40)\n      0x20\n      dup2\n      dup4\n      sub\n      sub\n      dup2\n      mstore\n      swap1\n      0x40\n      mstore\n        /* \"contracts/SimpleVoting.sol\":7884:7922  return string (abi.encodePacked (byt)) */\n      swap1\n      pop\n        /* \"contracts/SimpleVoting.sol\":7780:7930  function bytes32ToString(bytes32 byt) \r... */\n      swap2\n      swap1\n      pop\n      jump\t// out\n        /* \"contracts/SimpleVoting.sol\":6512:7096  function computeWinningProposals() internal \r... */\n    tag_150:\n        /* \"contracts/SimpleVoting.sol\":6573:6594  uint winningVoteCount */\n      0x00\n        /* \"contracts/SimpleVoting.sol\":6600:6614  uint256 winner */\n      dup1\n        /* \"contracts/SimpleVoting.sol\":6634:6640  uint p */\n      0x00\n        /* \"contracts/SimpleVoting.sol\":6629:6865  for (uint p = 0; p < proposals.length; p++) {\r... */\n    tag_160:\n        /* \"contracts/SimpleVoting.sol\":6650:6659  proposals */\n      0x03\n        /* \"contracts/SimpleVoting.sol\":6650:6666  proposals.length */\n      dup1\n      sload\n      swap1\n      pop\n        /* \"contracts/SimpleVoting.sol\":6646:6647  p */\n      dup2\n        /* \"contracts/SimpleVoting.sol\":6646:6666  p < proposals.length */\n      lt\n        /* \"contracts/SimpleVoting.sol\":6629:6865  for (uint p = 0; p < proposals.length; p++) {\r... */\n      iszero\n      tag_161\n      jumpi\n        /* \"contracts/SimpleVoting.sol\":6717:6733  winningVoteCount */\n      dup3\n        /* \"contracts/SimpleVoting.sol\":6692:6701  proposals */\n      0x03\n        /* \"contracts/SimpleVoting.sol\":6702:6703  p */\n      dup3\n        /* \"contracts/SimpleVoting.sol\":6692:6704  proposals[p] */\n      dup2\n      sload\n      dup2\n      lt\n      tag_163\n      jumpi\n      tag_164\n      tag_71\n      jump\t// in\n    tag_164:\n    tag_163:\n      swap1\n      0x00\n      mstore\n      keccak256(0x00, 0x20)\n      swap1\n      0x02\n      mul\n      add\n        /* \"contracts/SimpleVoting.sol\":6692:6714  proposals[p].voteCount */\n      0x01\n      add\n      sload\n        /* \"contracts/SimpleVoting.sol\":6692:6733  proposals[p].voteCount > winningVoteCount */\n      gt\n        /* \"contracts/SimpleVoting.sol\":6688:6854  if (proposals[p].voteCount > winningVoteCount) {\r... */\n      iszero\n      tag_166\n      jumpi\n        /* \"contracts/SimpleVoting.sol\":6773:6782  proposals */\n      0x03\n        /* \"contracts/SimpleVoting.sol\":6783:6784  p */\n      dup2\n        /* \"contracts/SimpleVoting.sol\":6773:6785  proposals[p] */\n      dup2\n      sload\n      dup2\n      lt\n      tag_167\n      jumpi\n      tag_168\n      tag_71\n      jump\t// in\n    tag_168:\n    tag_167:\n      swap1\n      0x00\n      mstore\n      keccak256(0x00, 0x20)\n      swap1\n      0x02\n      mul\n      add\n        /* \"contracts/SimpleVoting.sol\":6773:6795  proposals[p].voteCount */\n      0x01\n      add\n      sload\n        /* \"contracts/SimpleVoting.sol\":6754:6795  winningVoteCount = proposals[p].voteCount */\n      swap3\n      pop\n        /* \"contracts/SimpleVoting.sol\":6814:6830  winningProposals */\n      0x04\n        /* \"contracts/SimpleVoting.sol\":6836:6837  p */\n      dup2\n        /* \"contracts/SimpleVoting.sol\":6814:6838  winningProposals.push(p) */\n      swap1\n      dup1\n      0x01\n      dup2\n      sload\n      add\n      dup1\n      dup3\n      sstore\n      dup1\n      swap2\n      pop\n      pop\n      0x01\n      swap1\n      sub\n      swap1\n      0x00\n      mstore\n      keccak256(0x00, 0x20)\n      add\n      0x00\n      swap1\n      swap2\n      swap1\n      swap2\n      swap1\n      swap2\n      pop\n      sstore\n        /* \"contracts/SimpleVoting.sol\":6688:6854  if (proposals[p].voteCount > winningVoteCount) {\r... */\n    tag_166:\n        /* \"contracts/SimpleVoting.sol\":6668:6671  p++ */\n      dup1\n      dup1\n      tag_171\n      swap1\n      tag_172\n      jump\t// in\n    tag_171:\n      swap2\n      pop\n      pop\n        /* \"contracts/SimpleVoting.sol\":6629:6865  for (uint p = 0; p < proposals.length; p++) {\r... */\n      jump(tag_160)\n    tag_161:\n      pop\n        /* \"contracts/SimpleVoting.sol\":6880:6886  uint p */\n      0x00\n        /* \"contracts/SimpleVoting.sol\":6875:7089  for (uint p = 0; p < proposals.length; p = p. add(1)) {\r... */\n    tag_173:\n        /* \"contracts/SimpleVoting.sol\":6896:6905  proposals */\n      0x03\n        /* \"contracts/SimpleVoting.sol\":6896:6912  proposals.length */\n      dup1\n      sload\n      swap1\n      pop\n        /* \"contracts/SimpleVoting.sol\":6892:6893  p */\n      dup2\n        /* \"contracts/SimpleVoting.sol\":6892:6912  p < proposals.length */\n      lt\n        /* \"contracts/SimpleVoting.sol\":6875:7089  for (uint p = 0; p < proposals.length; p = p. add(1)) {\r... */\n      iszero\n      tag_174\n      jumpi\n        /* \"contracts/SimpleVoting.sol\":6974:6983  proposals */\n      0x03\n        /* \"contracts/SimpleVoting.sol\":6984:6990  winner */\n      dup3\n        /* \"contracts/SimpleVoting.sol\":6974:6991  proposals[winner] */\n      dup2\n      sload\n      dup2\n      lt\n      tag_176\n      jumpi\n      tag_177\n      tag_71\n      jump\t// in\n    tag_177:\n    tag_176:\n      swap1\n      0x00\n      mstore\n      keccak256(0x00, 0x20)\n      swap1\n      0x02\n      mul\n      add\n        /* \"contracts/SimpleVoting.sol\":6974:7001  proposals[winner].voteCount */\n      0x01\n      add\n      sload\n        /* \"contracts/SimpleVoting.sol\":6948:6957  proposals */\n      0x03\n        /* \"contracts/SimpleVoting.sol\":6958:6959  p */\n      dup3\n        /* \"contracts/SimpleVoting.sol\":6948:6960  proposals[p] */\n      dup2\n      sload\n      dup2\n      lt\n      tag_179\n      jumpi\n      tag_180\n      tag_71\n      jump\t// in\n    tag_180:\n    tag_179:\n      swap1\n      0x00\n      mstore\n      keccak256(0x00, 0x20)\n      swap1\n      0x02\n      mul\n      add\n        /* \"contracts/SimpleVoting.sol\":6948:6970  proposals[p].voteCount */\n      0x01\n      add\n      sload\n        /* \"contracts/SimpleVoting.sol\":6948:7001  proposals[p].voteCount == proposals[winner].voteCount */\n      eq\n        /* \"contracts/SimpleVoting.sol\":6948:7016  proposals[p].voteCount == proposals[winner].voteCount && p != winner */\n      dup1\n      iszero\n      tag_182\n      jumpi\n      pop\n        /* \"contracts/SimpleVoting.sol\":7010:7016  winner */\n      dup2\n        /* \"contracts/SimpleVoting.sol\":7005:7006  p */\n      dup2\n        /* \"contracts/SimpleVoting.sol\":7005:7016  p != winner */\n      eq\n      iszero\n        /* \"contracts/SimpleVoting.sol\":6948:7016  proposals[p].voteCount == proposals[winner].voteCount && p != winner */\n    tag_182:\n        /* \"contracts/SimpleVoting.sol\":6944:7078  if (proposals[p].voteCount == proposals[winner].voteCount && p != winner) {\r... */\n      iszero\n      tag_183\n      jumpi\n        /* \"contracts/SimpleVoting.sol\":7038:7054  winningProposals */\n      0x04\n        /* \"contracts/SimpleVoting.sol\":7060:7061  p */\n      dup2\n        /* \"contracts/SimpleVoting.sol\":7038:7062  winningProposals.push(p) */\n      swap1\n      dup1\n      0x01\n      dup2\n      sload\n      add\n      dup1\n      dup3\n      sstore\n      dup1\n      swap2\n      pop\n      pop\n      0x01\n      swap1\n      sub\n      swap1\n      0x00\n      mstore\n      keccak256(0x00, 0x20)\n      add\n      0x00\n      swap1\n      swap2\n      swap1\n      swap2\n      swap1\n      swap2\n      pop\n      sstore\n        /* \"contracts/SimpleVoting.sol\":6944:7078  if (proposals[p].voteCount == proposals[winner].voteCount && p != winner) {\r... */\n    tag_183:\n        /* \"contracts/SimpleVoting.sol\":6918:6927  p. add(1) */\n      tag_185\n        /* \"contracts/SimpleVoting.sol\":6925:6926  1 */\n      0x01\n        /* \"contracts/SimpleVoting.sol\":6918:6919  p */\n      dup3\n        /* \"contracts/SimpleVoting.sol\":6918:6924  p. add */\n      tag_50\n      swap1\n        /* \"contracts/SimpleVoting.sol\":6918:6927  p. add(1) */\n      swap2\n      swap1\n      0xffffffff\n      and\n      jump\t// in\n    tag_185:\n        /* \"contracts/SimpleVoting.sol\":6914:6927  p = p. add(1) */\n      swap1\n      pop\n        /* \"contracts/SimpleVoting.sol\":6875:7089  for (uint p = 0; p < proposals.length; p = p. add(1)) {\r... */\n      jump(tag_173)\n    tag_174:\n      pop\n        /* \"contracts/SimpleVoting.sol\":6562:7096  {\r... */\n      pop\n      pop\n        /* \"contracts/SimpleVoting.sol\":6512:7096  function computeWinningProposals() internal \r... */\n      jump\t// out\n        /* \"#utility.yul\":7:146   */\n    tag_187:\n        /* \"#utility.yul\":53:58   */\n      0x00\n        /* \"#utility.yul\":91:97   */\n      dup2\n        /* \"#utility.yul\":78:98   */\n      calldataload\n        /* \"#utility.yul\":69:98   */\n      swap1\n      pop\n        /* \"#utility.yul\":107:140   */\n      tag_189\n        /* \"#utility.yul\":134:139   */\n      dup2\n        /* \"#utility.yul\":107:140   */\n      tag_190\n      jump\t// in\n    tag_189:\n        /* \"#utility.yul\":7:146   */\n      swap3\n      swap2\n      pop\n      pop\n      jump\t// out\n        /* \"#utility.yul\":152:291   */\n    tag_191:\n        /* \"#utility.yul\":198:203   */\n      0x00\n        /* \"#utility.yul\":236:242   */\n      dup2\n        /* \"#utility.yul\":223:243   */\n      calldataload\n        /* \"#utility.yul\":214:243   */\n      swap1\n      pop\n        /* \"#utility.yul\":252:285   */\n      tag_193\n        /* \"#utility.yul\":279:284   */\n      dup2\n        /* \"#utility.yul\":252:285   */\n      tag_194\n      jump\t// in\n    tag_193:\n        /* \"#utility.yul\":152:291   */\n      swap3\n      swap2\n      pop\n      pop\n      jump\t// out\n        /* \"#utility.yul\":297:626   */\n    tag_23:\n        /* \"#utility.yul\":356:362   */\n      0x00\n        /* \"#utility.yul\":405:407   */\n      0x20\n        /* \"#utility.yul\":393:402   */\n      dup3\n        /* \"#utility.yul\":384:391   */\n      dup5\n        /* \"#utility.yul\":380:403   */\n      sub\n        /* \"#utility.yul\":376:408   */\n      slt\n        /* \"#utility.yul\":373:492   */\n      iszero\n      tag_196\n      jumpi\n        /* \"#utility.yul\":411:490   */\n      tag_197\n      tag_198\n      jump\t// in\n    tag_197:\n        /* \"#utility.yul\":373:492   */\n    tag_196:\n        /* \"#utility.yul\":531:532   */\n      0x00\n        /* \"#utility.yul\":556:609   */\n      tag_199\n        /* \"#utility.yul\":601:608   */\n      dup5\n        /* \"#utility.yul\":592:598   */\n      dup3\n        /* \"#utility.yul\":581:590   */\n      dup6\n        /* \"#utility.yul\":577:599   */\n      add\n        /* \"#utility.yul\":556:609   */\n      tag_187\n      jump\t// in\n    tag_199:\n        /* \"#utility.yul\":546:609   */\n      swap2\n      pop\n        /* \"#utility.yul\":502:619   */\n      pop\n        /* \"#utility.yul\":297:626   */\n      swap3\n      swap2\n      pop\n      pop\n      jump\t// out\n        /* \"#utility.yul\":632:961   */\n    tag_15:\n        /* \"#utility.yul\":691:697   */\n      0x00\n        /* \"#utility.yul\":740:742   */\n      0x20\n        /* \"#utility.yul\":728:737   */\n      dup3\n        /* \"#utility.yul\":719:726   */\n      dup5\n        /* \"#utility.yul\":715:738   */\n      sub\n        /* \"#utility.yul\":711:743   */\n      slt\n        /* \"#utility.yul\":708:827   */\n      iszero\n      tag_201\n      jumpi\n        /* \"#utility.yul\":746:825   */\n      tag_202\n      tag_198\n      jump\t// in\n    tag_202:\n        /* \"#utility.yul\":708:827   */\n    tag_201:\n        /* \"#utility.yul\":866:867   */\n      0x00\n        /* \"#utility.yul\":891:944   */\n      tag_203\n        /* \"#utility.yul\":936:943   */\n      dup5\n        /* \"#utility.yul\":927:933   */\n      dup3\n        /* \"#utility.yul\":916:925   */\n      dup6\n        /* \"#utility.yul\":912:934   */\n      add\n        /* \"#utility.yul\":891:944   */\n      tag_191\n      jump\t// in\n    tag_203:\n        /* \"#utility.yul\":881:944   */\n      swap2\n      pop\n        /* \"#utility.yul\":837:954   */\n      pop\n        /* \"#utility.yul\":632:961   */\n      swap3\n      swap2\n      pop\n      pop\n      jump\t// out\n        /* \"#utility.yul\":967:1146   */\n    tag_204:\n        /* \"#utility.yul\":1036:1046   */\n      0x00\n        /* \"#utility.yul\":1057:1103   */\n      tag_206\n        /* \"#utility.yul\":1099:1102   */\n      dup4\n        /* \"#utility.yul\":1091:1097   */\n      dup4\n        /* \"#utility.yul\":1057:1103   */\n      tag_207\n      jump\t// in\n    tag_206:\n        /* \"#utility.yul\":1135:1139   */\n      0x20\n        /* \"#utility.yul\":1130:1133   */\n      dup4\n        /* \"#utility.yul\":1126:1140   */\n      add\n        /* \"#utility.yul\":1112:1140   */\n      swap1\n      pop\n        /* \"#utility.yul\":967:1146   */\n      swap3\n      swap2\n      pop\n      pop\n      jump\t// out\n        /* \"#utility.yul\":1152:1270   */\n    tag_208:\n        /* \"#utility.yul\":1239:1263   */\n      tag_210\n        /* \"#utility.yul\":1257:1262   */\n      dup2\n        /* \"#utility.yul\":1239:1263   */\n      tag_211\n      jump\t// in\n    tag_210:\n        /* \"#utility.yul\":1234:1237   */\n      dup3\n        /* \"#utility.yul\":1227:1264   */\n      mstore\n        /* \"#utility.yul\":1152:1270   */\n      pop\n      pop\n      jump\t// out\n        /* \"#utility.yul\":1306:2038   */\n    tag_212:\n        /* \"#utility.yul\":1425:1428   */\n      0x00\n        /* \"#utility.yul\":1454:1508   */\n      tag_214\n        /* \"#utility.yul\":1502:1507   */\n      dup3\n        /* \"#utility.yul\":1454:1508   */\n      tag_215\n      jump\t// in\n    tag_214:\n        /* \"#utility.yul\":1524:1610   */\n      tag_216\n        /* \"#utility.yul\":1603:1609   */\n      dup2\n        /* \"#utility.yul\":1598:1601   */\n      dup6\n        /* \"#utility.yul\":1524:1610   */\n      tag_217\n      jump\t// in\n    tag_216:\n        /* \"#utility.yul\":1517:1610   */\n      swap4\n      pop\n        /* \"#utility.yul\":1634:1690   */\n      tag_218\n        /* \"#utility.yul\":1684:1689   */\n      dup4\n        /* \"#utility.yul\":1634:1690   */\n      tag_219\n      jump\t// in\n    tag_218:\n        /* \"#utility.yul\":1713:1720   */\n      dup1\n        /* \"#utility.yul\":1744:1745   */\n      0x00\n        /* \"#utility.yul\":1729:2013   */\n    tag_220:\n        /* \"#utility.yul\":1754:1760   */\n      dup4\n        /* \"#utility.yul\":1751:1752   */\n      dup2\n        /* \"#utility.yul\":1748:1761   */\n      lt\n        /* \"#utility.yul\":1729:2013   */\n      iszero\n      tag_222\n      jumpi\n        /* \"#utility.yul\":1830:1836   */\n      dup2\n        /* \"#utility.yul\":1824:1837   */\n      mload\n        /* \"#utility.yul\":1857:1920   */\n      tag_223\n        /* \"#utility.yul\":1916:1919   */\n      dup9\n        /* \"#utility.yul\":1901:1914   */\n      dup3\n        /* \"#utility.yul\":1857:1920   */\n      tag_204\n      jump\t// in\n    tag_223:\n        /* \"#utility.yul\":1850:1920   */\n      swap8\n      pop\n        /* \"#utility.yul\":1943:2003   */\n      tag_224\n        /* \"#utility.yul\":1996:2002   */\n      dup4\n        /* \"#utility.yul\":1943:2003   */\n      tag_225\n      jump\t// in\n    tag_224:\n        /* \"#utility.yul\":1933:2003   */\n      swap3\n      pop\n        /* \"#utility.yul\":1789:2013   */\n      pop\n        /* \"#utility.yul\":1776:1777   */\n      0x01\n        /* \"#utility.yul\":1773:1774   */\n      dup2\n        /* \"#utility.yul\":1769:1778   */\n      add\n        /* \"#utility.yul\":1764:1778   */\n      swap1\n      pop\n        /* \"#utility.yul\":1729:2013   */\n      jump(tag_220)\n    tag_222:\n        /* \"#utility.yul\":1733:1747   */\n      pop\n        /* \"#utility.yul\":2029:2032   */\n      dup6\n        /* \"#utility.yul\":2022:2032   */\n      swap4\n      pop\n        /* \"#utility.yul\":1430:2038   */\n      pop\n      pop\n      pop\n        /* \"#utility.yul\":1306:2038   */\n      swap3\n      swap2\n      pop\n      pop\n      jump\t// out\n        /* \"#utility.yul\":2044:2153   */\n    tag_226:\n        /* \"#utility.yul\":2125:2146   */\n      tag_228\n        /* \"#utility.yul\":2140:2145   */\n      dup2\n        /* \"#utility.yul\":2125:2146   */\n      tag_229\n      jump\t// in\n    tag_228:\n        /* \"#utility.yul\":2120:2123   */\n      dup3\n        /* \"#utility.yul\":2113:2147   */\n      mstore\n        /* \"#utility.yul\":2044:2153   */\n      pop\n      pop\n      jump\t// out\n        /* \"#utility.yul\":2159:2316   */\n    tag_230:\n        /* \"#utility.yul\":2264:2309   */\n      tag_232\n        /* \"#utility.yul\":2284:2308   */\n      tag_233\n        /* \"#utility.yul\":2302:2307   */\n      dup3\n        /* \"#utility.yul\":2284:2308   */\n      tag_234\n      jump\t// in\n    tag_233:\n        /* \"#utility.yul\":2264:2309   */\n      tag_235\n      jump\t// in\n    tag_232:\n        /* \"#utility.yul\":2259:2262   */\n      dup3\n        /* \"#utility.yul\":2252:2310   */\n      mstore\n        /* \"#utility.yul\":2159:2316   */\n      pop\n      pop\n      jump\t// out\n        /* \"#utility.yul\":2322:2695   */\n    tag_236:\n        /* \"#utility.yul\":2426:2429   */\n      0x00\n        /* \"#utility.yul\":2454:2492   */\n      tag_238\n        /* \"#utility.yul\":2486:2491   */\n      dup3\n        /* \"#utility.yul\":2454:2492   */\n      tag_239\n      jump\t// in\n    tag_238:\n        /* \"#utility.yul\":2508:2596   */\n      tag_240\n        /* \"#utility.yul\":2589:2595   */\n      dup2\n        /* \"#utility.yul\":2584:2587   */\n      dup6\n        /* \"#utility.yul\":2508:2596   */\n      tag_241\n      jump\t// in\n    tag_240:\n        /* \"#utility.yul\":2501:2596   */\n      swap4\n      pop\n        /* \"#utility.yul\":2605:2657   */\n      tag_242\n        /* \"#utility.yul\":2650:2656   */\n      dup2\n        /* \"#utility.yul\":2645:2648   */\n      dup6\n        /* \"#utility.yul\":2638:2642   */\n      0x20\n        /* \"#utility.yul\":2631:2636   */\n      dup7\n        /* \"#utility.yul\":2627:2643   */\n      add\n        /* \"#utility.yul\":2605:2657   */\n      tag_243\n      jump\t// in\n    tag_242:\n        /* \"#utility.yul\":2682:2688   */\n      dup1\n        /* \"#utility.yul\":2677:2680   */\n      dup5\n        /* \"#utility.yul\":2673:2689   */\n      add\n        /* \"#utility.yul\":2666:2689   */\n      swap2\n      pop\n        /* \"#utility.yul\":2430:2695   */\n      pop\n        /* \"#utility.yul\":2322:2695   */\n      swap3\n      swap2\n      pop\n      pop\n      jump\t// out\n        /* \"#utility.yul\":2701:3065   */\n    tag_244:\n        /* \"#utility.yul\":2789:2792   */\n      0x00\n        /* \"#utility.yul\":2817:2856   */\n      tag_246\n        /* \"#utility.yul\":2850:2855   */\n      dup3\n        /* \"#utility.yul\":2817:2856   */\n      tag_247\n      jump\t// in\n    tag_246:\n        /* \"#utility.yul\":2872:2943   */\n      tag_248\n        /* \"#utility.yul\":2936:2942   */\n      dup2\n        /* \"#utility.yul\":2931:2934   */\n      dup6\n        /* \"#utility.yul\":2872:2943   */\n      tag_249\n      jump\t// in\n    tag_248:\n        /* \"#utility.yul\":2865:2943   */\n      swap4\n      pop\n        /* \"#utility.yul\":2952:3004   */\n      tag_250\n        /* \"#utility.yul\":2997:3003   */\n      dup2\n        /* \"#utility.yul\":2992:2995   */\n      dup6\n        /* \"#utility.yul\":2985:2989   */\n      0x20\n        /* \"#utility.yul\":2978:2983   */\n      dup7\n        /* \"#utility.yul\":2974:2990   */\n      add\n        /* \"#utility.yul\":2952:3004   */\n      tag_243\n      jump\t// in\n    tag_250:\n        /* \"#utility.yul\":3029:3058   */\n      tag_251\n        /* \"#utility.yul\":3051:3057   */\n      dup2\n        /* \"#utility.yul\":3029:3058   */\n      tag_252\n      jump\t// in\n    tag_251:\n        /* \"#utility.yul\":3024:3027   */\n      dup5\n        /* \"#utility.yul\":3020:3059   */\n      add\n        /* \"#utility.yul\":3013:3059   */\n      swap2\n      pop\n        /* \"#utility.yul\":2793:3065   */\n      pop\n        /* \"#utility.yul\":2701:3065   */\n      swap3\n      swap2\n      pop\n      pop\n      jump\t// out\n        /* \"#utility.yul\":3071:3437   */\n    tag_253:\n        /* \"#utility.yul\":3213:3216   */\n      0x00\n        /* \"#utility.yul\":3234:3301   */\n      tag_255\n        /* \"#utility.yul\":3298:3300   */\n      0x2a\n        /* \"#utility.yul\":3293:3296   */\n      dup4\n        /* \"#utility.yul\":3234:3301   */\n      tag_249\n      jump\t// in\n    tag_255:\n        /* \"#utility.yul\":3227:3301   */\n      swap2\n      pop\n        /* \"#utility.yul\":3310:3403   */\n      tag_256\n        /* \"#utility.yul\":3399:3402   */\n      dup3\n        /* \"#utility.yul\":3310:3403   */\n      tag_257\n      jump\t// in\n    tag_256:\n        /* \"#utility.yul\":3428:3430   */\n      0x40\n        /* \"#utility.yul\":3423:3426   */\n      dup3\n        /* \"#utility.yul\":3419:3431   */\n      add\n        /* \"#utility.yul\":3412:3431   */\n      swap1\n      pop\n        /* \"#utility.yul\":3071:3437   */\n      swap2\n      swap1\n      pop\n      jump\t// out\n        /* \"#utility.yul\":3443:3809   */\n    tag_258:\n        /* \"#utility.yul\":3585:3588   */\n      0x00\n        /* \"#utility.yul\":3606:3673   */\n      tag_260\n        /* \"#utility.yul\":3670:3672   */\n      0x36\n        /* \"#utility.yul\":3665:3668   */\n      dup4\n        /* \"#utility.yul\":3606:3673   */\n      tag_249\n      jump\t// in\n    tag_260:\n        /* \"#utility.yul\":3599:3673   */\n      swap2\n      pop\n        /* \"#utility.yul\":3682:3775   */\n      tag_261\n        /* \"#utility.yul\":3771:3774   */\n      dup3\n        /* \"#utility.yul\":3682:3775   */\n      tag_262\n      jump\t// in\n    tag_261:\n        /* \"#utility.yul\":3800:3802   */\n      0x40\n        /* \"#utility.yul\":3795:3798   */\n      dup3\n        /* \"#utility.yul\":3791:3803   */\n      add\n        /* \"#utility.yul\":3784:3803   */\n      swap1\n      pop\n        /* \"#utility.yul\":3443:3809   */\n      swap2\n      swap1\n      pop\n      jump\t// out\n        /* \"#utility.yul\":3815:4181   */\n    tag_263:\n        /* \"#utility.yul\":3957:3960   */\n      0x00\n        /* \"#utility.yul\":3978:4045   */\n      tag_265\n        /* \"#utility.yul\":4042:4044   */\n      0x31\n        /* \"#utility.yul\":4037:4040   */\n      dup4\n        /* \"#utility.yul\":3978:4045   */\n      tag_249\n      jump\t// in\n    tag_265:\n        /* \"#utility.yul\":3971:4045   */\n      swap2\n      pop\n        /* \"#utility.yul\":4054:4147   */\n      tag_266\n        /* \"#utility.yul\":4143:4146   */\n      dup3\n        /* \"#utility.yul\":4054:4147   */\n      tag_267\n      jump\t// in\n    tag_266:\n        /* \"#utility.yul\":4172:4174   */\n      0x40\n        /* \"#utility.yul\":4167:4170   */\n      dup3\n        /* \"#utility.yul\":4163:4175   */\n      add\n        /* \"#utility.yul\":4156:4175   */\n      swap1\n      pop\n        /* \"#utility.yul\":3815:4181   */\n      swap2\n      swap1\n      pop\n      jump\t// out\n        /* \"#utility.yul\":4187:4365   */\n    tag_268:\n        /* \"#utility.yul\":4355:4358   */\n      0x2000000000000000000000000000000000000000000000000000000000000000\n        /* \"#utility.yul\":4350:4353   */\n      dup2\n        /* \"#utility.yul\":4343:4359   */\n      mstore\n        /* \"#utility.yul\":4187:4365   */\n      pop\n      jump\t// out\n        /* \"#utility.yul\":4371:4737   */\n    tag_270:\n        /* \"#utility.yul\":4513:4516   */\n      0x00\n        /* \"#utility.yul\":4534:4601   */\n      tag_272\n        /* \"#utility.yul\":4598:4600   */\n      0x2d\n        /* \"#utility.yul\":4593:4596   */\n      dup4\n        /* \"#utility.yul\":4534:4601   */\n      tag_249\n      jump\t// in\n    tag_272:\n        /* \"#utility.yul\":4527:4601   */\n      swap2\n      pop\n        /* \"#utility.yul\":4610:4703   */\n      tag_273\n        /* \"#utility.yul\":4699:4702   */\n      dup3\n        /* \"#utility.yul\":4610:4703   */\n      tag_274\n      jump\t// in\n    tag_273:\n        /* \"#utility.yul\":4728:4730   */\n      0x40\n        /* \"#utility.yul\":4723:4726   */\n      dup3\n        /* \"#utility.yul\":4719:4731   */\n      add\n        /* \"#utility.yul\":4712:4731   */\n      swap1\n      pop\n        /* \"#utility.yul\":4371:4737   */\n      swap2\n      swap1\n      pop\n      jump\t// out\n        /* \"#utility.yul\":4743:5109   */\n    tag_275:\n        /* \"#utility.yul\":4885:4888   */\n      0x00\n        /* \"#utility.yul\":4906:4973   */\n      tag_277\n        /* \"#utility.yul\":4970:4972   */\n      0x30\n        /* \"#utility.yul\":4965:4968   */\n      dup4\n        /* \"#utility.yul\":4906:4973   */\n      tag_249\n      jump\t// in\n    tag_277:\n        /* \"#utility.yul\":4899:4973   */\n      swap2\n      pop\n        /* \"#utility.yul\":4982:5075   */\n      tag_278\n        /* \"#utility.yul\":5071:5074   */\n      dup3\n        /* \"#utility.yul\":4982:5075   */\n      tag_279\n      jump\t// in\n    tag_278:\n        /* \"#utility.yul\":5100:5102   */\n      0x40\n        /* \"#utility.yul\":5095:5098   */\n      dup3\n        /* \"#utility.yul\":5091:5103   */\n      add\n        /* \"#utility.yul\":5084:5103   */\n      swap1\n      pop\n        /* \"#utility.yul\":4743:5109   */\n      swap2\n      swap1\n      pop\n      jump\t// out\n        /* \"#utility.yul\":5115:5481   */\n    tag_280:\n        /* \"#utility.yul\":5257:5260   */\n      0x00\n        /* \"#utility.yul\":5278:5345   */\n      tag_282\n        /* \"#utility.yul\":5342:5344   */\n      0x2b\n        /* \"#utility.yul\":5337:5340   */\n      dup4\n        /* \"#utility.yul\":5278:5345   */\n      tag_249\n      jump\t// in\n    tag_282:\n        /* \"#utility.yul\":5271:5345   */\n      swap2\n      pop\n        /* \"#utility.yul\":5354:5447   */\n      tag_283\n        /* \"#utility.yul\":5443:5446   */\n      dup3\n        /* \"#utility.yul\":5354:5447   */\n      tag_284\n      jump\t// in\n    tag_283:\n        /* \"#utility.yul\":5472:5474   */\n      0x40\n        /* \"#utility.yul\":5467:5470   */\n      dup3\n        /* \"#utility.yul\":5463:5475   */\n      add\n        /* \"#utility.yul\":5456:5475   */\n      swap1\n      pop\n        /* \"#utility.yul\":5115:5481   */\n      swap2\n      swap1\n      pop\n      jump\t// out\n        /* \"#utility.yul\":5487:5853   */\n    tag_285:\n        /* \"#utility.yul\":5629:5632   */\n      0x00\n        /* \"#utility.yul\":5650:5717   */\n      tag_287\n        /* \"#utility.yul\":5714:5716   */\n      0x2f\n        /* \"#utility.yul\":5709:5712   */\n      dup4\n        /* \"#utility.yul\":5650:5717   */\n      tag_249\n      jump\t// in\n    tag_287:\n        /* \"#utility.yul\":5643:5717   */\n      swap2\n      pop\n        /* \"#utility.yul\":5726:5819   */\n      tag_288\n        /* \"#utility.yul\":5815:5818   */\n      dup3\n        /* \"#utility.yul\":5726:5819   */\n      tag_289\n      jump\t// in\n    tag_288:\n        /* \"#utility.yul\":5844:5846   */\n      0x40\n        /* \"#utility.yul\":5839:5842   */\n      dup3\n        /* \"#utility.yul\":5835:5847   */\n      add\n        /* \"#utility.yul\":5828:5847   */\n      swap1\n      pop\n        /* \"#utility.yul\":5487:5853   */\n      swap2\n      swap1\n      pop\n      jump\t// out\n        /* \"#utility.yul\":5859:5967   */\n    tag_207:\n        /* \"#utility.yul\":5936:5960   */\n      tag_291\n        /* \"#utility.yul\":5954:5959   */\n      dup2\n        /* \"#utility.yul\":5936:5960   */\n      tag_292\n      jump\t// in\n    tag_291:\n        /* \"#utility.yul\":5931:5934   */\n      dup3\n        /* \"#utility.yul\":5924:5961   */\n      mstore\n        /* \"#utility.yul\":5859:5967   */\n      pop\n      pop\n      jump\t// out\n        /* \"#utility.yul\":5973:6091   */\n    tag_293:\n        /* \"#utility.yul\":6060:6084   */\n      tag_295\n        /* \"#utility.yul\":6078:6083   */\n      dup2\n        /* \"#utility.yul\":6060:6084   */\n      tag_292\n      jump\t// in\n    tag_295:\n        /* \"#utility.yul\":6055:6058   */\n      dup3\n        /* \"#utility.yul\":6048:6085   */\n      mstore\n        /* \"#utility.yul\":5973:6091   */\n      pop\n      pop\n      jump\t// out\n        /* \"#utility.yul\":6097:6353   */\n    tag_89:\n        /* \"#utility.yul\":6209:6212   */\n      0x00\n        /* \"#utility.yul\":6224:6299   */\n      tag_297\n        /* \"#utility.yul\":6295:6298   */\n      dup3\n        /* \"#utility.yul\":6286:6292   */\n      dup5\n        /* \"#utility.yul\":6224:6299   */\n      tag_230\n      jump\t// in\n    tag_297:\n        /* \"#utility.yul\":6324:6326   */\n      0x20\n        /* \"#utility.yul\":6319:6322   */\n      dup3\n        /* \"#utility.yul\":6315:6327   */\n      add\n        /* \"#utility.yul\":6308:6327   */\n      swap2\n      pop\n        /* \"#utility.yul\":6344:6347   */\n      dup2\n        /* \"#utility.yul\":6337:6347   */\n      swap1\n      pop\n        /* \"#utility.yul\":6097:6353   */\n      swap3\n      swap2\n      pop\n      pop\n      jump\t// out\n        /* \"#utility.yul\":6359:7050   */\n    tag_91:\n        /* \"#utility.yul\":6625:6628   */\n      0x00\n        /* \"#utility.yul\":6647:6740   */\n      tag_299\n        /* \"#utility.yul\":6736:6739   */\n      dup3\n        /* \"#utility.yul\":6727:6733   */\n      dup6\n        /* \"#utility.yul\":6647:6740   */\n      tag_236\n      jump\t// in\n    tag_299:\n        /* \"#utility.yul\":6640:6740   */\n      swap2\n      pop\n        /* \"#utility.yul\":6750:6887   */\n      tag_300\n        /* \"#utility.yul\":6883:6886   */\n      dup3\n        /* \"#utility.yul\":6750:6887   */\n      tag_268\n      jump\t// in\n    tag_300:\n        /* \"#utility.yul\":6912:6913   */\n      0x01\n        /* \"#utility.yul\":6907:6910   */\n      dup3\n        /* \"#utility.yul\":6903:6914   */\n      add\n        /* \"#utility.yul\":6896:6914   */\n      swap2\n      pop\n        /* \"#utility.yul\":6931:7024   */\n      tag_301\n        /* \"#utility.yul\":7020:7023   */\n      dup3\n        /* \"#utility.yul\":7011:7017   */\n      dup5\n        /* \"#utility.yul\":6931:7024   */\n      tag_236\n      jump\t// in\n    tag_301:\n        /* \"#utility.yul\":6924:7024   */\n      swap2\n      pop\n        /* \"#utility.yul\":7041:7044   */\n      dup2\n        /* \"#utility.yul\":7034:7044   */\n      swap1\n      pop\n        /* \"#utility.yul\":6359:7050   */\n      swap4\n      swap3\n      pop\n      pop\n      pop\n      jump\t// out\n        /* \"#utility.yul\":7056:7278   */\n    tag_41:\n        /* \"#utility.yul\":7149:7153   */\n      0x00\n        /* \"#utility.yul\":7187:7189   */\n      0x20\n        /* \"#utility.yul\":7176:7185   */\n      dup3\n        /* \"#utility.yul\":7172:7190   */\n      add\n        /* \"#utility.yul\":7164:7190   */\n      swap1\n      pop\n        /* \"#utility.yul\":7200:7271   */\n      tag_303\n        /* \"#utility.yul\":7268:7269   */\n      0x00\n        /* \"#utility.yul\":7257:7266   */\n      dup4\n        /* \"#utility.yul\":7253:7270   */\n      add\n        /* \"#utility.yul\":7244:7250   */\n      dup5\n        /* \"#utility.yul\":7200:7271   */\n      tag_208\n      jump\t// in\n    tag_303:\n        /* \"#utility.yul\":7056:7278   */\n      swap3\n      swap2\n      pop\n      pop\n      jump\t// out\n        /* \"#utility.yul\":7284:7657   */\n    tag_49:\n        /* \"#utility.yul\":7427:7431   */\n      0x00\n        /* \"#utility.yul\":7465:7467   */\n      0x20\n        /* \"#utility.yul\":7454:7463   */\n      dup3\n        /* \"#utility.yul\":7450:7468   */\n      add\n        /* \"#utility.yul\":7442:7468   */\n      swap1\n      pop\n        /* \"#utility.yul\":7514:7523   */\n      dup2\n        /* \"#utility.yul\":7508:7512   */\n      dup2\n        /* \"#utility.yul\":7504:7524   */\n      sub\n        /* \"#utility.yul\":7500:7501   */\n      0x00\n        /* \"#utility.yul\":7489:7498   */\n      dup4\n        /* \"#utility.yul\":7485:7502   */\n      add\n        /* \"#utility.yul\":7478:7525   */\n      mstore\n        /* \"#utility.yul\":7542:7650   */\n      tag_305\n        /* \"#utility.yul\":7645:7649   */\n      dup2\n        /* \"#utility.yul\":7636:7642   */\n      dup5\n        /* \"#utility.yul\":7542:7650   */\n      tag_212\n      jump\t// in\n    tag_305:\n        /* \"#utility.yul\":7534:7650   */\n      swap1\n      pop\n        /* \"#utility.yul\":7284:7657   */\n      swap3\n      swap2\n      pop\n      pop\n      jump\t// out\n        /* \"#utility.yul\":7663:7976   */\n    tag_20:\n        /* \"#utility.yul\":7776:7780   */\n      0x00\n        /* \"#utility.yul\":7814:7816   */\n      0x20\n        /* \"#utility.yul\":7803:7812   */\n      dup3\n        /* \"#utility.yul\":7799:7817   */\n      add\n        /* \"#utility.yul\":7791:7817   */\n      swap1\n      pop\n        /* \"#utility.yul\":7863:7872   */\n      dup2\n        /* \"#utility.yul\":7857:7861   */\n      dup2\n        /* \"#utility.yul\":7853:7873   */\n      sub\n        /* \"#utility.yul\":7849:7850   */\n      0x00\n        /* \"#utility.yul\":7838:7847   */\n      dup4\n        /* \"#utility.yul\":7834:7851   */\n      add\n        /* \"#utility.yul\":7827:7874   */\n      mstore\n        /* \"#utility.yul\":7891:7969   */\n      tag_307\n        /* \"#utility.yul\":7964:7968   */\n      dup2\n        /* \"#utility.yul\":7955:7961   */\n      dup5\n        /* \"#utility.yul\":7891:7969   */\n      tag_244\n      jump\t// in\n    tag_307:\n        /* \"#utility.yul\":7883:7969   */\n      swap1\n      pop\n        /* \"#utility.yul\":7663:7976   */\n      swap3\n      swap2\n      pop\n      pop\n      jump\t// out\n        /* \"#utility.yul\":7982:8405   */\n    tag_37:\n        /* \"#utility.yul\":8123:8127   */\n      0x00\n        /* \"#utility.yul\":8161:8163   */\n      0x40\n        /* \"#utility.yul\":8150:8159   */\n      dup3\n        /* \"#utility.yul\":8146:8164   */\n      add\n        /* \"#utility.yul\":8138:8164   */\n      swap1\n      pop\n        /* \"#utility.yul\":8210:8219   */\n      dup2\n        /* \"#utility.yul\":8204:8208   */\n      dup2\n        /* \"#utility.yul\":8200:8220   */\n      sub\n        /* \"#utility.yul\":8196:8197   */\n      0x00\n        /* \"#utility.yul\":8185:8194   */\n      dup4\n        /* \"#utility.yul\":8181:8198   */\n      add\n        /* \"#utility.yul\":8174:8221   */\n      mstore\n        /* \"#utility.yul\":8238:8316   */\n      tag_309\n        /* \"#utility.yul\":8311:8315   */\n      dup2\n        /* \"#utility.yul\":8302:8308   */\n      dup6\n        /* \"#utility.yul\":8238:8316   */\n      tag_244\n      jump\t// in\n    tag_309:\n        /* \"#utility.yul\":8230:8316   */\n      swap1\n      pop\n        /* \"#utility.yul\":8326:8398   */\n      tag_310\n        /* \"#utility.yul\":8394:8396   */\n      0x20\n        /* \"#utility.yul\":8383:8392   */\n      dup4\n        /* \"#utility.yul\":8379:8397   */\n      add\n        /* \"#utility.yul\":8370:8376   */\n      dup5\n        /* \"#utility.yul\":8326:8398   */\n      tag_293\n      jump\t// in\n    tag_310:\n        /* \"#utility.yul\":7982:8405   */\n      swap4\n      swap3\n      pop\n      pop\n      pop\n      jump\t// out\n        /* \"#utility.yul\":8411:8830   */\n    tag_60:\n        /* \"#utility.yul\":8577:8581   */\n      0x00\n        /* \"#utility.yul\":8615:8617   */\n      0x20\n        /* \"#utility.yul\":8604:8613   */\n      dup3\n        /* \"#utility.yul\":8600:8618   */\n      add\n        /* \"#utility.yul\":8592:8618   */\n      swap1\n      pop\n        /* \"#utility.yul\":8664:8673   */\n      dup2\n        /* \"#utility.yul\":8658:8662   */\n      dup2\n        /* \"#utility.yul\":8654:8674   */\n      sub\n        /* \"#utility.yul\":8650:8651   */\n      0x00\n        /* \"#utility.yul\":8639:8648   */\n      dup4\n        /* \"#utility.yul\":8635:8652   */\n      add\n        /* \"#utility.yul\":8628:8675   */\n      mstore\n        /* \"#utility.yul\":8692:8823   */\n      tag_312\n        /* \"#utility.yul\":8818:8822   */\n      dup2\n        /* \"#utility.yul\":8692:8823   */\n      tag_253\n      jump\t// in\n    tag_312:\n        /* \"#utility.yul\":8684:8823   */\n      swap1\n      pop\n        /* \"#utility.yul\":8411:8830   */\n      swap2\n      swap1\n      pop\n      jump\t// out\n        /* \"#utility.yul\":8836:9255   */\n    tag_128:\n        /* \"#utility.yul\":9002:9006   */\n      0x00\n        /* \"#utility.yul\":9040:9042   */\n      0x20\n        /* \"#utility.yul\":9029:9038   */\n      dup3\n        /* \"#utility.yul\":9025:9043   */\n      add\n        /* \"#utility.yul\":9017:9043   */\n      swap1\n      pop\n        /* \"#utility.yul\":9089:9098   */\n      dup2\n        /* \"#utility.yul\":9083:9087   */\n      dup2\n        /* \"#utility.yul\":9079:9099   */\n      sub\n        /* \"#utility.yul\":9075:9076   */\n      0x00\n        /* \"#utility.yul\":9064:9073   */\n      dup4\n        /* \"#utility.yul\":9060:9077   */\n      add\n        /* \"#utility.yul\":9053:9100   */\n      mstore\n        /* \"#utility.yul\":9117:9248   */\n      tag_314\n        /* \"#utility.yul\":9243:9247   */\n      dup2\n        /* \"#utility.yul\":9117:9248   */\n      tag_258\n      jump\t// in\n    tag_314:\n        /* \"#utility.yul\":9109:9248   */\n      swap1\n      pop\n        /* \"#utility.yul\":8836:9255   */\n      swap2\n      swap1\n      pop\n      jump\t// out\n        /* \"#utility.yul\":9261:9680   */\n    tag_65:\n        /* \"#utility.yul\":9427:9431   */\n      0x00\n        /* \"#utility.yul\":9465:9467   */\n      0x20\n        /* \"#utility.yul\":9454:9463   */\n      dup3\n        /* \"#utility.yul\":9450:9468   */\n      add\n        /* \"#utility.yul\":9442:9468   */\n      swap1\n      pop\n        /* \"#utility.yul\":9514:9523   */\n      dup2\n        /* \"#utility.yul\":9508:9512   */\n      dup2\n        /* \"#utility.yul\":9504:9524   */\n      sub\n        /* \"#utility.yul\":9500:9501   */\n      0x00\n        /* \"#utility.yul\":9489:9498   */\n      dup4\n        /* \"#utility.yul\":9485:9502   */\n      add\n        /* \"#utility.yul\":9478:9525   */\n      mstore\n        /* \"#utility.yul\":9542:9673   */\n      tag_316\n        /* \"#utility.yul\":9668:9672   */\n      dup2\n        /* \"#utility.yul\":9542:9673   */\n      tag_263\n      jump\t// in\n    tag_316:\n        /* \"#utility.yul\":9534:9673   */\n      swap1\n      pop\n        /* \"#utility.yul\":9261:9680   */\n      swap2\n      swap1\n      pop\n      jump\t// out\n        /* \"#utility.yul\":9686:10105   */\n    tag_106:\n        /* \"#utility.yul\":9852:9856   */\n      0x00\n        /* \"#utility.yul\":9890:9892   */\n      0x20\n        /* \"#utility.yul\":9879:9888   */\n      dup3\n        /* \"#utility.yul\":9875:9893   */\n      add\n        /* \"#utility.yul\":9867:9893   */\n      swap1\n      pop\n        /* \"#utility.yul\":9939:9948   */\n      dup2\n        /* \"#utility.yul\":9933:9937   */\n      dup2\n        /* \"#utility.yul\":9929:9949   */\n      sub\n        /* \"#utility.yul\":9925:9926   */\n      0x00\n        /* \"#utility.yul\":9914:9923   */\n      dup4\n        /* \"#utility.yul\":9910:9927   */\n      add\n        /* \"#utility.yul\":9903:9950   */\n      mstore\n        /* \"#utility.yul\":9967:10098   */\n      tag_318\n        /* \"#utility.yul\":10093:10097   */\n      dup2\n        /* \"#utility.yul\":9967:10098   */\n      tag_270\n      jump\t// in\n    tag_318:\n        /* \"#utility.yul\":9959:10098   */\n      swap1\n      pop\n        /* \"#utility.yul\":9686:10105   */\n      swap2\n      swap1\n      pop\n      jump\t// out\n        /* \"#utility.yul\":10111:10530   */\n    tag_135:\n        /* \"#utility.yul\":10277:10281   */\n      0x00\n        /* \"#utility.yul\":10315:10317   */\n      0x20\n        /* \"#utility.yul\":10304:10313   */\n      dup3\n        /* \"#utility.yul\":10300:10318   */\n      add\n        /* \"#utility.yul\":10292:10318   */\n      swap1\n      pop\n        /* \"#utility.yul\":10364:10373   */\n      dup2\n        /* \"#utility.yul\":10358:10362   */\n      dup2\n        /* \"#utility.yul\":10354:10374   */\n      sub\n        /* \"#utility.yul\":10350:10351   */\n      0x00\n        /* \"#utility.yul\":10339:10348   */\n      dup4\n        /* \"#utility.yul\":10335:10352   */\n      add\n        /* \"#utility.yul\":10328:10375   */\n      mstore\n        /* \"#utility.yul\":10392:10523   */\n      tag_320\n        /* \"#utility.yul\":10518:10522   */\n      dup2\n        /* \"#utility.yul\":10392:10523   */\n      tag_275\n      jump\t// in\n    tag_320:\n        /* \"#utility.yul\":10384:10523   */\n      swap1\n      pop\n        /* \"#utility.yul\":10111:10530   */\n      swap2\n      swap1\n      pop\n      jump\t// out\n        /* \"#utility.yul\":10536:10955   */\n    tag_54:\n        /* \"#utility.yul\":10702:10706   */\n      0x00\n        /* \"#utility.yul\":10740:10742   */\n      0x20\n        /* \"#utility.yul\":10729:10738   */\n      dup3\n        /* \"#utility.yul\":10725:10743   */\n      add\n        /* \"#utility.yul\":10717:10743   */\n      swap1\n      pop\n        /* \"#utility.yul\":10789:10798   */\n      dup2\n        /* \"#utility.yul\":10783:10787   */\n      dup2\n        /* \"#utility.yul\":10779:10799   */\n      sub\n        /* \"#utility.yul\":10775:10776   */\n      0x00\n        /* \"#utility.yul\":10764:10773   */\n      dup4\n        /* \"#utility.yul\":10760:10777   */\n      add\n        /* \"#utility.yul\":10753:10800   */\n      mstore\n        /* \"#utility.yul\":10817:10948   */\n      tag_322\n        /* \"#utility.yul\":10943:10947   */\n      dup2\n        /* \"#utility.yul\":10817:10948   */\n      tag_280\n      jump\t// in\n    tag_322:\n        /* \"#utility.yul\":10809:10948   */\n      swap1\n      pop\n        /* \"#utility.yul\":10536:10955   */\n      swap2\n      swap1\n      pop\n      jump\t// out\n        /* \"#utility.yul\":10961:11380   */\n    tag_112:\n        /* \"#utility.yul\":11127:11131   */\n      0x00\n        /* \"#utility.yul\":11165:11167   */\n      0x20\n        /* \"#utility.yul\":11154:11163   */\n      dup3\n        /* \"#utility.yul\":11150:11168   */\n      add\n        /* \"#utility.yul\":11142:11168   */\n      swap1\n      pop\n        /* \"#utility.yul\":11214:11223   */\n      dup2\n        /* \"#utility.yul\":11208:11212   */\n      dup2\n        /* \"#utility.yul\":11204:11224   */\n      sub\n        /* \"#utility.yul\":11200:11201   */\n      0x00\n        /* \"#utility.yul\":11189:11198   */\n      dup4\n        /* \"#utility.yul\":11185:11202   */\n      add\n        /* \"#utility.yul\":11178:11225   */\n      mstore\n        /* \"#utility.yul\":11242:11373   */\n      tag_324\n        /* \"#utility.yul\":11368:11372   */\n      dup2\n        /* \"#utility.yul\":11242:11373   */\n      tag_285\n      jump\t// in\n    tag_324:\n        /* \"#utility.yul\":11234:11373   */\n      swap1\n      pop\n        /* \"#utility.yul\":10961:11380   */\n      swap2\n      swap1\n      pop\n      jump\t// out\n        /* \"#utility.yul\":11386:11608   */\n    tag_45:\n        /* \"#utility.yul\":11479:11483   */\n      0x00\n        /* \"#utility.yul\":11517:11519   */\n      0x20\n        /* \"#utility.yul\":11506:11515   */\n      dup3\n        /* \"#utility.yul\":11502:11520   */\n      add\n        /* \"#utility.yul\":11494:11520   */\n      swap1\n      pop\n        /* \"#utility.yul\":11530:11601   */\n      tag_326\n        /* \"#utility.yul\":11598:11599   */\n      0x00\n        /* \"#utility.yul\":11587:11596   */\n      dup4\n        /* \"#utility.yul\":11583:11600   */\n      add\n        /* \"#utility.yul\":11574:11580   */\n      dup5\n        /* \"#utility.yul\":11530:11601   */\n      tag_293\n      jump\t// in\n    tag_326:\n        /* \"#utility.yul\":11386:11608   */\n      swap3\n      swap2\n      pop\n      pop\n      jump\t// out\n        /* \"#utility.yul\":11614:12155   */\n    tag_32:\n        /* \"#utility.yul\":11785:11789   */\n      0x00\n        /* \"#utility.yul\":11823:11826   */\n      0x80\n        /* \"#utility.yul\":11812:11821   */\n      dup3\n        /* \"#utility.yul\":11808:11827   */\n      add\n        /* \"#utility.yul\":11800:11827   */\n      swap1\n      pop\n        /* \"#utility.yul\":11837:11908   */\n      tag_328\n        /* \"#utility.yul\":11905:11906   */\n      0x00\n        /* \"#utility.yul\":11894:11903   */\n      dup4\n        /* \"#utility.yul\":11890:11907   */\n      add\n        /* \"#utility.yul\":11881:11887   */\n      dup8\n        /* \"#utility.yul\":11837:11908   */\n      tag_293\n      jump\t// in\n    tag_328:\n        /* \"#utility.yul\":11918:11984   */\n      tag_329\n        /* \"#utility.yul\":11980:11982   */\n      0x20\n        /* \"#utility.yul\":11969:11978   */\n      dup4\n        /* \"#utility.yul\":11965:11983   */\n      add\n        /* \"#utility.yul\":11956:11962   */\n      dup7\n        /* \"#utility.yul\":11918:11984   */\n      tag_226\n      jump\t// in\n    tag_329:\n        /* \"#utility.yul\":11994:12066   */\n      tag_330\n        /* \"#utility.yul\":12062:12064   */\n      0x40\n        /* \"#utility.yul\":12051:12060   */\n      dup4\n        /* \"#utility.yul\":12047:12065   */\n      add\n        /* \"#utility.yul\":12038:12044   */\n      dup6\n        /* \"#utility.yul\":11994:12066   */\n      tag_208\n      jump\t// in\n    tag_330:\n        /* \"#utility.yul\":12076:12148   */\n      tag_331\n        /* \"#utility.yul\":12144:12146   */\n      0x60\n        /* \"#utility.yul\":12133:12142   */\n      dup4\n        /* \"#utility.yul\":12129:12147   */\n      add\n        /* \"#utility.yul\":12120:12126   */\n      dup5\n        /* \"#utility.yul\":12076:12148   */\n      tag_293\n      jump\t// in\n    tag_331:\n        /* \"#utility.yul\":11614:12155   */\n      swap6\n      swap5\n      pop\n      pop\n      pop\n      pop\n      pop\n      jump\t// out\n        /* \"#utility.yul\":12242:12374   */\n    tag_219:\n        /* \"#utility.yul\":12309:12313   */\n      0x00\n        /* \"#utility.yul\":12332:12335   */\n      dup2\n        /* \"#utility.yul\":12324:12335   */\n      swap1\n      pop\n        /* \"#utility.yul\":12362:12366   */\n      0x20\n        /* \"#utility.yul\":12357:12360   */\n      dup3\n        /* \"#utility.yul\":12353:12367   */\n      add\n        /* \"#utility.yul\":12345:12367   */\n      swap1\n      pop\n        /* \"#utility.yul\":12242:12374   */\n      swap2\n      swap1\n      pop\n      jump\t// out\n        /* \"#utility.yul\":12380:12494   */\n    tag_215:\n        /* \"#utility.yul\":12447:12453   */\n      0x00\n        /* \"#utility.yul\":12481:12486   */\n      dup2\n        /* \"#utility.yul\":12475:12487   */\n      mload\n        /* \"#utility.yul\":12465:12487   */\n      swap1\n      pop\n        /* \"#utility.yul\":12380:12494   */\n      swap2\n      swap1\n      pop\n      jump\t// out\n        /* \"#utility.yul\":12500:12598   */\n    tag_239:\n        /* \"#utility.yul\":12551:12557   */\n      0x00\n        /* \"#utility.yul\":12585:12590   */\n      dup2\n        /* \"#utility.yul\":12579:12591   */\n      mload\n        /* \"#utility.yul\":12569:12591   */\n      swap1\n      pop\n        /* \"#utility.yul\":12500:12598   */\n      swap2\n      swap1\n      pop\n      jump\t// out\n        /* \"#utility.yul\":12604:12703   */\n    tag_247:\n        /* \"#utility.yul\":12656:12662   */\n      0x00\n        /* \"#utility.yul\":12690:12695   */\n      dup2\n        /* \"#utility.yul\":12684:12696   */\n      mload\n        /* \"#utility.yul\":12674:12696   */\n      swap1\n      pop\n        /* \"#utility.yul\":12604:12703   */\n      swap2\n      swap1\n      pop\n      jump\t// out\n        /* \"#utility.yul\":12709:12822   */\n    tag_225:\n        /* \"#utility.yul\":12779:12783   */\n      0x00\n        /* \"#utility.yul\":12811:12815   */\n      0x20\n        /* \"#utility.yul\":12806:12809   */\n      dup3\n        /* \"#utility.yul\":12802:12816   */\n      add\n        /* \"#utility.yul\":12794:12816   */\n      swap1\n      pop\n        /* \"#utility.yul\":12709:12822   */\n      swap2\n      swap1\n      pop\n      jump\t// out\n        /* \"#utility.yul\":12828:13012   */\n    tag_217:\n        /* \"#utility.yul\":12927:12938   */\n      0x00\n        /* \"#utility.yul\":12961:12967   */\n      dup3\n        /* \"#utility.yul\":12956:12959   */\n      dup3\n        /* \"#utility.yul\":12949:12968   */\n      mstore\n        /* \"#utility.yul\":13001:13005   */\n      0x20\n        /* \"#utility.yul\":12996:12999   */\n      dup3\n        /* \"#utility.yul\":12992:13006   */\n      add\n        /* \"#utility.yul\":12977:13006   */\n      swap1\n      pop\n        /* \"#utility.yul\":12828:13012   */\n      swap3\n      swap2\n      pop\n      pop\n      jump\t// out\n        /* \"#utility.yul\":13018:13165   */\n    tag_241:\n        /* \"#utility.yul\":13119:13130   */\n      0x00\n        /* \"#utility.yul\":13156:13159   */\n      dup2\n        /* \"#utility.yul\":13141:13159   */\n      swap1\n      pop\n        /* \"#utility.yul\":13018:13165   */\n      swap3\n      swap2\n      pop\n      pop\n      jump\t// out\n        /* \"#utility.yul\":13171:13340   */\n    tag_249:\n        /* \"#utility.yul\":13255:13266   */\n      0x00\n        /* \"#utility.yul\":13289:13295   */\n      dup3\n        /* \"#utility.yul\":13284:13287   */\n      dup3\n        /* \"#utility.yul\":13277:13296   */\n      mstore\n        /* \"#utility.yul\":13329:13333   */\n      0x20\n        /* \"#utility.yul\":13324:13327   */\n      dup3\n        /* \"#utility.yul\":13320:13334   */\n      add\n        /* \"#utility.yul\":13305:13334   */\n      swap1\n      pop\n        /* \"#utility.yul\":13171:13340   */\n      swap3\n      swap2\n      pop\n      pop\n      jump\t// out\n        /* \"#utility.yul\":13346:13651   */\n    tag_155:\n        /* \"#utility.yul\":13386:13389   */\n      0x00\n        /* \"#utility.yul\":13405:13425   */\n      tag_343\n        /* \"#utility.yul\":13423:13424   */\n      dup3\n        /* \"#utility.yul\":13405:13425   */\n      tag_292\n      jump\t// in\n    tag_343:\n        /* \"#utility.yul\":13400:13425   */\n      swap2\n      pop\n        /* \"#utility.yul\":13439:13459   */\n      tag_344\n        /* \"#utility.yul\":13457:13458   */\n      dup4\n        /* \"#utility.yul\":13439:13459   */\n      tag_292\n      jump\t// in\n    tag_344:\n        /* \"#utility.yul\":13434:13459   */\n      swap3\n      pop\n        /* \"#utility.yul\":13593:13594   */\n      dup3\n        /* \"#utility.yul\":13525:13591   */\n      0xffffffffffffffffffffffffffffffffffffffffffffffffffffffffffffffff\n        /* \"#utility.yul\":13521:13595   */\n      sub\n        /* \"#utility.yul\":13518:13519   */\n      dup3\n        /* \"#utility.yul\":13515:13596   */\n      gt\n        /* \"#utility.yul\":13512:13619   */\n      iszero\n      tag_345\n      jumpi\n        /* \"#utility.yul\":13599:13617   */\n      tag_346\n      tag_347\n      jump\t// in\n    tag_346:\n        /* \"#utility.yul\":13512:13619   */\n    tag_345:\n        /* \"#utility.yul\":13643:13644   */\n      dup3\n        /* \"#utility.yul\":13640:13641   */\n      dup3\n        /* \"#utility.yul\":13636:13645   */\n      add\n        /* \"#utility.yul\":13629:13645   */\n      swap1\n      pop\n        /* \"#utility.yul\":13346:13651   */\n      swap3\n      swap2\n      pop\n      pop\n      jump\t// out\n        /* \"#utility.yul\":13657:13753   */\n    tag_211:\n        /* \"#utility.yul\":13694:13701   */\n      0x00\n        /* \"#utility.yul\":13723:13747   */\n      tag_349\n        /* \"#utility.yul\":13741:13746   */\n      dup3\n        /* \"#utility.yul\":13723:13747   */\n      tag_350\n      jump\t// in\n    tag_349:\n        /* \"#utility.yul\":13712:13747   */\n      swap1\n      pop\n        /* \"#utility.yul\":13657:13753   */\n      swap2\n      swap1\n      pop\n      jump\t// out\n        /* \"#utility.yul\":13759:13849   */\n    tag_229:\n        /* \"#utility.yul\":13793:13800   */\n      0x00\n        /* \"#utility.yul\":13836:13841   */\n      dup2\n        /* \"#utility.yul\":13829:13842   */\n      iszero\n        /* \"#utility.yul\":13822:13843   */\n      iszero\n        /* \"#utility.yul\":13811:13843   */\n      swap1\n      pop\n        /* \"#utility.yul\":13759:13849   */\n      swap2\n      swap1\n      pop\n      jump\t// out\n        /* \"#utility.yul\":13855:13932   */\n    tag_234:\n        /* \"#utility.yul\":13892:13899   */\n      0x00\n        /* \"#utility.yul\":13921:13926   */\n      dup2\n        /* \"#utility.yul\":13910:13926   */\n      swap1\n      pop\n        /* \"#utility.yul\":13855:13932   */\n      swap2\n      swap1\n      pop\n      jump\t// out\n        /* \"#utility.yul\":13938:14064   */\n    tag_350:\n        /* \"#utility.yul\":13975:13982   */\n      0x00\n        /* \"#utility.yul\":14015:14057   */\n      0xffffffffffffffffffffffffffffffffffffffff\n        /* \"#utility.yul\":14008:14013   */\n      dup3\n        /* \"#utility.yul\":14004:14058   */\n      and\n        /* \"#utility.yul\":13993:14058   */\n      swap1\n      pop\n        /* \"#utility.yul\":13938:14064   */\n      swap2\n      swap1\n      pop\n      jump\t// out\n        /* \"#utility.yul\":14070:14147   */\n    tag_292:\n        /* \"#utility.yul\":14107:14114   */\n      0x00\n        /* \"#utility.yul\":14136:14141   */\n      dup2\n        /* \"#utility.yul\":14125:14141   */\n      swap1\n      pop\n        /* \"#utility.yul\":14070:14147   */\n      swap2\n      swap1\n      pop\n      jump\t// out\n        /* \"#utility.yul\":14153:14460   */\n    tag_243:\n        /* \"#utility.yul\":14221:14222   */\n      0x00\n        /* \"#utility.yul\":14231:14344   */\n    tag_356:\n        /* \"#utility.yul\":14245:14251   */\n      dup4\n        /* \"#utility.yul\":14242:14243   */\n      dup2\n        /* \"#utility.yul\":14239:14252   */\n      lt\n        /* \"#utility.yul\":14231:14344   */\n      iszero\n      tag_358\n      jumpi\n        /* \"#utility.yul\":14330:14331   */\n      dup1\n        /* \"#utility.yul\":14325:14328   */\n      dup3\n        /* \"#utility.yul\":14321:14332   */\n      add\n        /* \"#utility.yul\":14315:14333   */\n      mload\n        /* \"#utility.yul\":14311:14312   */\n      dup2\n        /* \"#utility.yul\":14306:14309   */\n      dup5\n        /* \"#utility.yul\":14302:14313   */\n      add\n        /* \"#utility.yul\":14295:14334   */\n      mstore\n        /* \"#utility.yul\":14267:14269   */\n      0x20\n        /* \"#utility.yul\":14264:14265   */\n      dup2\n        /* \"#utility.yul\":14260:14270   */\n      add\n        /* \"#utility.yul\":14255:14270   */\n      swap1\n      pop\n        /* \"#utility.yul\":14231:14344   */\n      jump(tag_356)\n    tag_358:\n        /* \"#utility.yul\":14362:14368   */\n      dup4\n        /* \"#utility.yul\":14359:14360   */\n      dup2\n        /* \"#utility.yul\":14356:14369   */\n      gt\n        /* \"#utility.yul\":14353:14454   */\n      iszero\n      tag_359\n      jumpi\n        /* \"#utility.yul\":14442:14443   */\n      0x00\n        /* \"#utility.yul\":14433:14439   */\n      dup5\n        /* \"#utility.yul\":14428:14431   */\n      dup5\n        /* \"#utility.yul\":14424:14440   */\n      add\n        /* \"#utility.yul\":14417:14444   */\n      mstore\n        /* \"#utility.yul\":14353:14454   */\n    tag_359:\n        /* \"#utility.yul\":14202:14460   */\n      pop\n        /* \"#utility.yul\":14153:14460   */\n      pop\n      pop\n      pop\n      jump\t// out\n        /* \"#utility.yul\":14466:14699   */\n    tag_172:\n        /* \"#utility.yul\":14505:14508   */\n      0x00\n        /* \"#utility.yul\":14528:14552   */\n      tag_361\n        /* \"#utility.yul\":14546:14551   */\n      dup3\n        /* \"#utility.yul\":14528:14552   */\n      tag_292\n      jump\t// in\n    tag_361:\n        /* \"#utility.yul\":14519:14552   */\n      swap2\n      pop\n        /* \"#utility.yul\":14574:14640   */\n      0xffffffffffffffffffffffffffffffffffffffffffffffffffffffffffffffff\n        /* \"#utility.yul\":14567:14572   */\n      dup3\n        /* \"#utility.yul\":14564:14641   */\n      eq\n        /* \"#utility.yul\":14561:14664   */\n      iszero\n      tag_362\n      jumpi\n        /* \"#utility.yul\":14644:14662   */\n      tag_363\n      tag_347\n      jump\t// in\n    tag_363:\n        /* \"#utility.yul\":14561:14664   */\n    tag_362:\n        /* \"#utility.yul\":14691:14692   */\n      0x01\n        /* \"#utility.yul\":14684:14689   */\n      dup3\n        /* \"#utility.yul\":14680:14693   */\n      add\n        /* \"#utility.yul\":14673:14693   */\n      swap1\n      pop\n        /* \"#utility.yul\":14466:14699   */\n      swap2\n      swap1\n      pop\n      jump\t// out\n        /* \"#utility.yul\":14705:14784   */\n    tag_235:\n        /* \"#utility.yul\":14744:14751   */\n      0x00\n        /* \"#utility.yul\":14773:14778   */\n      dup2\n        /* \"#utility.yul\":14762:14778   */\n      swap1\n      pop\n        /* \"#utility.yul\":14705:14784   */\n      swap2\n      swap1\n      pop\n      jump\t// out\n        /* \"#utility.yul\":14790:14970   */\n    tag_347:\n        /* \"#utility.yul\":14838:14915   */\n      0x4e487b7100000000000000000000000000000000000000000000000000000000\n        /* \"#utility.yul\":14835:14836   */\n      0x00\n        /* \"#utility.yul\":14828:14916   */\n      mstore\n        /* \"#utility.yul\":14935:14939   */\n      0x11\n        /* \"#utility.yul\":14932:14933   */\n      0x04\n        /* \"#utility.yul\":14925:14940   */\n      mstore\n        /* \"#utility.yul\":14959:14963   */\n      0x24\n        /* \"#utility.yul\":14956:14957   */\n      0x00\n        /* \"#utility.yul\":14949:14964   */\n      revert\n        /* \"#utility.yul\":14976:15156   */\n    tag_71:\n        /* \"#utility.yul\":15024:15101   */\n      0x4e487b7100000000000000000000000000000000000000000000000000000000\n        /* \"#utility.yul\":15021:15022   */\n      0x00\n        /* \"#utility.yul\":15014:15102   */\n      mstore\n        /* \"#utility.yul\":15121:15125   */\n      0x32\n        /* \"#utility.yul\":15118:15119   */\n      0x04\n        /* \"#utility.yul\":15111:15126   */\n      mstore\n        /* \"#utility.yul\":15145:15149   */\n      0x24\n        /* \"#utility.yul\":15142:15143   */\n      0x00\n        /* \"#utility.yul\":15135:15150   */\n      revert\n        /* \"#utility.yul\":15285:15402   */\n    tag_198:\n        /* \"#utility.yul\":15394:15395   */\n      0x00\n        /* \"#utility.yul\":15391:15392   */\n      dup1\n        /* \"#utility.yul\":15384:15396   */\n      revert\n        /* \"#utility.yul\":15408:15510   */\n    tag_252:\n        /* \"#utility.yul\":15449:15455   */\n      0x00\n        /* \"#utility.yul\":15500:15502   */\n      0x1f\n        /* \"#utility.yul\":15496:15503   */\n      not\n        /* \"#utility.yul\":15491:15493   */\n      0x1f\n        /* \"#utility.yul\":15484:15489   */\n      dup4\n        /* \"#utility.yul\":15480:15494   */\n      add\n        /* \"#utility.yul\":15476:15504   */\n      and\n        /* \"#utility.yul\":15466:15504   */\n      swap1\n      pop\n        /* \"#utility.yul\":15408:15510   */\n      swap2\n      swap1\n      pop\n      jump\t// out\n        /* \"#utility.yul\":15516:15745   */\n    tag_257:\n        /* \"#utility.yul\":15656:15690   */\n      0x53696d706c65566f74696e673a2054686520766f7465722068617320616c7265\n        /* \"#utility.yul\":15652:15653   */\n      0x00\n        /* \"#utility.yul\":15644:15650   */\n      dup3\n        /* \"#utility.yul\":15640:15654   */\n      add\n        /* \"#utility.yul\":15633:15691   */\n      mstore\n        /* \"#utility.yul\":15725:15737   */\n      0x61647920766f7465642e00000000000000000000000000000000000000000000\n        /* \"#utility.yul\":15720:15722   */\n      0x20\n        /* \"#utility.yul\":15712:15718   */\n      dup3\n        /* \"#utility.yul\":15708:15723   */\n      add\n        /* \"#utility.yul\":15701:15738   */\n      mstore\n        /* \"#utility.yul\":15516:15745   */\n      pop\n      jump\t// out\n        /* \"#utility.yul\":15751:15992   */\n    tag_262:\n        /* \"#utility.yul\":15891:15925   */\n      0x53696d706c65566f74696e673a204f6e6c79206368616972506572736f6e2063\n        /* \"#utility.yul\":15887:15888   */\n      0x00\n        /* \"#utility.yul\":15879:15885   */\n      dup3\n        /* \"#utility.yul\":15875:15889   */\n      add\n        /* \"#utility.yul\":15868:15926   */\n      mstore\n        /* \"#utility.yul\":15960:15984   */\n      0x616e206769766520726967687420746f20766f74652e00000000000000000000\n        /* \"#utility.yul\":15955:15957   */\n      0x20\n        /* \"#utility.yul\":15947:15953   */\n      dup3\n        /* \"#utility.yul\":15943:15958   */\n      add\n        /* \"#utility.yul\":15936:15985   */\n      mstore\n        /* \"#utility.yul\":15751:15992   */\n      pop\n      jump\t// out\n        /* \"#utility.yul\":15998:16234   */\n    tag_267:\n        /* \"#utility.yul\":16138:16172   */\n      0x53696d706c65566f74696e673a2043616c6c657220646f6573206e6f74206861\n        /* \"#utility.yul\":16134:16135   */\n      0x00\n        /* \"#utility.yul\":16126:16132   */\n      dup3\n        /* \"#utility.yul\":16122:16136   */\n      add\n        /* \"#utility.yul\":16115:16173   */\n      mstore\n        /* \"#utility.yul\":16207:16226   */\n      0x766520726967687420746f20766f74652e000000000000000000000000000000\n        /* \"#utility.yul\":16202:16204   */\n      0x20\n        /* \"#utility.yul\":16194:16200   */\n      dup3\n        /* \"#utility.yul\":16190:16205   */\n      add\n        /* \"#utility.yul\":16183:16227   */\n      mstore\n        /* \"#utility.yul\":15998:16234   */\n      pop\n      jump\t// out\n        /* \"#utility.yul\":16240:16472   */\n    tag_274:\n        /* \"#utility.yul\":16380:16414   */\n      0x53696d706c65566f74696e673a2053656c662d64656c65676174696f6e206973\n        /* \"#utility.yul\":16376:16377   */\n      0x00\n        /* \"#utility.yul\":16368:16374   */\n      dup3\n        /* \"#utility.yul\":16364:16378   */\n      add\n        /* \"#utility.yul\":16357:16415   */\n      mstore\n        /* \"#utility.yul\":16449:16464   */\n      0x206e6f7420616c6c6f7765642e00000000000000000000000000000000000000\n        /* \"#utility.yul\":16444:16446   */\n      0x20\n        /* \"#utility.yul\":16436:16442   */\n      dup3\n        /* \"#utility.yul\":16432:16447   */\n      add\n        /* \"#utility.yul\":16425:16465   */\n      mstore\n        /* \"#utility.yul\":16240:16472   */\n      pop\n      jump\t// out\n        /* \"#utility.yul\":16478:16713   */\n    tag_279:\n        /* \"#utility.yul\":16618:16652   */\n      0x53696d706c65566f74696e673a204164647265737320616c7265616479206861\n        /* \"#utility.yul\":16614:16615   */\n      0x00\n        /* \"#utility.yul\":16606:16612   */\n      dup3\n        /* \"#utility.yul\":16602:16616   */\n      add\n        /* \"#utility.yul\":16595:16653   */\n      mstore\n        /* \"#utility.yul\":16687:16705   */\n      0x7320726967687420746f20766f74652e00000000000000000000000000000000\n        /* \"#utility.yul\":16682:16684   */\n      0x20\n        /* \"#utility.yul\":16674:16680   */\n      dup3\n        /* \"#utility.yul\":16670:16685   */\n      add\n        /* \"#utility.yul\":16663:16706   */\n      mstore\n        /* \"#utility.yul\":16478:16713   */\n      pop\n      jump\t// out\n        /* \"#utility.yul\":16719:16949   */\n    tag_284:\n        /* \"#utility.yul\":16859:16893   */\n      0x53696d706c65566f74696e673a2050726f706f73616c20696e646578206f7574\n        /* \"#utility.yul\":16855:16856   */\n      0x00\n        /* \"#utility.yul\":16847:16853   */\n      dup3\n        /* \"#utility.yul\":16843:16857   */\n      add\n        /* \"#utility.yul\":16836:16894   */\n      mstore\n        /* \"#utility.yul\":16928:16941   */\n      0x206f6620626f756e64732e000000000000000000000000000000000000000000\n        /* \"#utility.yul\":16923:16925   */\n      0x20\n        /* \"#utility.yul\":16915:16921   */\n      dup3\n        /* \"#utility.yul\":16911:16926   */\n      add\n        /* \"#utility.yul\":16904:16942   */\n      mstore\n        /* \"#utility.yul\":16719:16949   */\n      pop\n      jump\t// out\n        /* \"#utility.yul\":16955:17189   */\n    tag_289:\n        /* \"#utility.yul\":17095:17129   */\n      0x53696d706c65566f74696e673a2044656c65676174696f6e2074726163657320\n        /* \"#utility.yul\":17091:17092   */\n      0x00\n        /* \"#utility.yul\":17083:17089   */\n      dup3\n        /* \"#utility.yul\":17079:17093   */\n      add\n        /* \"#utility.yul\":17072:17130   */\n      mstore\n        /* \"#utility.yul\":17164:17181   */\n      0x6261636b20746f2063616c6c65722e0000000000000000000000000000000000\n        /* \"#utility.yul\":17159:17161   */\n      0x20\n        /* \"#utility.yul\":17151:17157   */\n      dup3\n        /* \"#utility.yul\":17147:17162   */\n      add\n        /* \"#utility.yul\":17140:17182   */\n      mstore\n        /* \"#utility.yul\":16955:17189   */\n      pop\n      jump\t// out\n        /* \"#utility.yul\":17195:17317   */\n    tag_190:\n        /* \"#utility.yul\":17268:17292   */\n      tag_379\n        /* \"#utility.yul\":17286:17291   */\n      dup2\n        /* \"#utility.yul\":17268:17292   */\n      tag_211\n      jump\t// in\n    tag_379:\n        /* \"#utility.yul\":17261:17266   */\n      dup2\n        /* \"#utility.yul\":17258:17293   */\n      eq\n        /* \"#utility.yul\":17248:17311   */\n      tag_380\n      jumpi\n        /* \"#utility.yul\":17307:17308   */\n      0x00\n        /* \"#utility.yul\":17304:17305   */\n      dup1\n        /* \"#utility.yul\":17297:17309   */\n      revert\n        /* \"#utility.yul\":17248:17311   */\n    tag_380:\n        /* \"#utility.yul\":17195:17317   */\n      pop\n      jump\t// out\n        /* \"#utility.yul\":17323:17445   */\n    tag_194:\n        /* \"#utility.yul\":17396:17420   */\n      tag_382\n        /* \"#utility.yul\":17414:17419   */\n      dup2\n        /* \"#utility.yul\":17396:17420   */\n      tag_292\n      jump\t// in\n    tag_382:\n        /* \"#utility.yul\":17389:17394   */\n      dup2\n        /* \"#utility.yul\":17386:17421   */\n      eq\n        /* \"#utility.yul\":17376:17439   */\n      tag_383\n      jumpi\n        /* \"#utility.yul\":17435:17436   */\n      0x00\n        /* \"#utility.yul\":17432:17433   */\n      dup1\n        /* \"#utility.yul\":17425:17437   */\n      revert\n        /* \"#utility.yul\":17376:17439   */\n    tag_383:\n        /* \"#utility.yul\":17323:17445   */\n      pop\n      jump\t// out\n\n    auxdata: 0xa2646970667358221220b79435cd390821cbd6068cab43d6328b56d5d221f6e5ca1cd79a74b1383c3e7364736f6c63430008070033\n}\n",
				"bytecode": {
					"linkReferences": {},
					"object": "60806040523480156200001157600080fd5b50604051620020c7380380620020c78339818101604052810190620000379190620003be565b620000476200021b60201b60201c565b600160006101000a81548173ffffffffffffffffffffffffffffffffffffffff021916908373ffffffffffffffffffffffffffffffffffffffff160217905550600160026000600160009054906101000a900473ffffffffffffffffffffffffffffffffffffffff1673ffffffffffffffffffffffffffffffffffffffff1673ffffffffffffffffffffffffffffffffffffffff16815260200190815260200160002060000181905550805160008190555060005b600054811015620001b45760006040518060400160405280620001428585815181106200012e576200012d6200071d565b5b60200260200101516200022360201b60201c565b81526020016000815250905060038190806001815401808255809150506001900390600052602060002090600202016000909190919091506000820151816000015560208201518160010155505050620001ac6001826200025960201b62000dc01790919060201c565b9050620000fc565b507ff318b16025413645144ed83c64d2d30f089c10bc263cab68a036c00f011827be600160009054906101000a900473ffffffffffffffffffffffffffffffffffffffff166000546040516200020c92919062000481565b60405180910390a150620007c9565b600033905090565b60008160405160200162000238919062000468565b604051602081830303815290604052620002529062000612565b9050919050565b600081836200026991906200056d565b905092915050565b6000620002886200028284620004d7565b620004ae565b90508083825260208201905082856020860282011115620002ae57620002ad62000797565b5b60005b858110156200030357815167ffffffffffffffff811115620002d857620002d762000792565b5b808601620002e789826200038b565b85526020850194506020840193505050600181019050620002b1565b5050509392505050565b6000620003246200031e8462000506565b620004ae565b9050828152602081018484840111156200034357620003426200079c565b5b6200035084828562000682565b509392505050565b600082601f83011262000370576200036f62000792565b5b81516200038284826020860162000271565b91505092915050565b600082601f830112620003a357620003a262000792565b5b8151620003b58482602086016200030d565b91505092915050565b600060208284031215620003d757620003d6620007a6565b5b600082015167ffffffffffffffff811115620003f857620003f7620007a1565b5b620004068482850162000358565b91505092915050565b6200041a81620005ca565b82525050565b60006200042d8262000557565b62000439818562000562565b93506200044b81856020860162000682565b80840191505092915050565b620004628162000608565b82525050565b600062000476828462000420565b915081905092915050565b60006040820190506200049860008301856200040f565b620004a7602083018462000457565b9392505050565b6000620004ba620004cd565b9050620004c88282620006b8565b919050565b6000604051905090565b600067ffffffffffffffff821115620004f557620004f46200074c565b5b602082029050602081019050919050565b600067ffffffffffffffff8211156200052457620005236200074c565b5b6200052f82620007ab565b9050602081019050919050565b6000819050602082019050919050565b600081519050919050565b600081519050919050565b600081905092915050565b60006200057a8262000608565b9150620005878362000608565b9250827fffffffffffffffffffffffffffffffffffffffffffffffffffffffffffffffff03821115620005bf57620005be620006ee565b5b828201905092915050565b6000620005d782620005e8565b9050919050565b6000819050919050565b600073ffffffffffffffffffffffffffffffffffffffff82169050919050565b6000819050919050565b60006200061f826200054c565b826200062b846200053c565b905062000638816200077b565b925060208210156200067b57620006767fffffffffffffffffffffffffffffffffffffffffffffffffffffffffffffffff83602003600802620007bc565b831692505b5050919050565b60005b83811015620006a257808201518184015260208101905062000685565b83811115620006b2576000848401525b50505050565b620006c382620007ab565b810181811067ffffffffffffffff82111715620006e557620006e46200074c565b5b80604052505050565b7f4e487b7100000000000000000000000000000000000000000000000000000000600052601160045260246000fd5b7f4e487b7100000000000000000000000000000000000000000000000000000000600052603260045260246000fd5b7f4e487b7100000000000000000000000000000000000000000000000000000000600052604160045260246000fd5b6000620007898251620005de565b80915050919050565b600080fd5b600080fd5b600080fd5b600080fd5b600080fd5b6000601f19601f8301169050919050565b600082821b905092915050565b6118ee80620007d96000396000f3fe608060405234801561001057600080fd5b50600436106100935760003560e01c8063a3ec138d11610066578063a3ec138d1461010a578063c7f758a81461013d578063d4d4b5ac1461016e578063da35c6641461018c578063ef788cd5146101aa57610093565b80630121b93f1461009857806328be18ee146100b45780635c19a95c146100d25780639e7b8d61146100ee575b600080fd5b6100b260048036038101906100ad9190610fbc565b6101c8565b005b6100bc610468565b6040516100c991906112c2565b60405180910390f35b6100ec60048036038101906100e79190610f8f565b61051f565b005b61010860048036038101906101039190610f8f565b610a33565b005b610124600480360381019061011f9190610f8f565b610c2c565b604051610134949392919061140f565b60405180910390f35b61015760048036038101906101529190610fbc565b610c89565b6040516101659291906112e4565b60405180910390f35b610176610d34565b6040516101839190611285565b60405180910390f35b610194610d5a565b6040516101a191906113f4565b60405180910390f35b6101b2610d60565b6040516101bf91906112a0565b60405180910390f35b80600054811061020d576040517f08c379a0000000000000000000000000000000000000000000000000000000008152600401610204906113b4565b60405180910390fd5b610215610dd6565b600260008273ffffffffffffffffffffffffffffffffffffffff1673ffffffffffffffffffffffffffffffffffffffff16815260200190815260200160002060010160009054906101000a900460ff16156102a5576040517f08c379a000000000000000000000000000000000000000000000000000000000815260040161029c90611314565b60405180910390fd5b6102ad610dd6565b6000600260008373ffffffffffffffffffffffffffffffffffffffff1673ffffffffffffffffffffffffffffffffffffffff1681526020019081526020016000206000015411610332576040517f08c379a000000000000000000000000000000000000000000000000000000000815260040161032990611354565b60405180910390fd5b600060026000610340610dd6565b73ffffffffffffffffffffffffffffffffffffffff1673ffffffffffffffffffffffffffffffffffffffff168152602001908152602001600020905060018160010160006101000a81548160ff0219169083151502179055508481600201819055506103de8160000154600387815481106103be576103bd61161c565b5b906000526020600020906002020160010154610dc090919063ffffffff16565b600386815481106103f2576103f161161c565b5b90600052602060002090600202016001018190555061040f610dd6565b73ffffffffffffffffffffffffffffffffffffffff16857fe7ee74ca1f4bb1b82b14f87794c45b3e59c39e372b862fb97a6316b43355b69e836000015460405161045991906113f4565b60405180910390a35050505050565b606060005b60048054905081101561051b57816003600483815481106104915761049061161c565b5b9060005260206000200154815481106104ad576104ac61161c565b5b9060005260206000209060020201600001546040516020016104cf9190611237565b6040516020818303038152906040526040516020016104ef929190611252565b6040516020818303038152906040529150610514600182610dc090919063ffffffff16565b905061046d565b5090565b610527610dd6565b600260008273ffffffffffffffffffffffffffffffffffffffff1673ffffffffffffffffffffffffffffffffffffffff16815260200190815260200160002060010160009054906101000a900460ff16156105b7576040517f08c379a00000000000000000000000000000000000000000000000000000000081526004016105ae90611314565b60405180910390fd5b6105bf610dd6565b6000600260008373ffffffffffffffffffffffffffffffffffffffff1673ffffffffffffffffffffffffffffffffffffffff1681526020019081526020016000206000015411610644576040517f08c379a000000000000000000000000000000000000000000000000000000000815260040161063b90611354565b60405180910390fd5b600060026000610652610dd6565b73ffffffffffffffffffffffffffffffffffffffff1673ffffffffffffffffffffffffffffffffffffffff1681526020019081526020016000209050610696610dd6565b73ffffffffffffffffffffffffffffffffffffffff168473ffffffffffffffffffffffffffffffffffffffff161415610704576040517f08c379a00000000000000000000000000000000000000000000000000000000081526004016106fb90611374565b60405180910390fd5b5b600073ffffffffffffffffffffffffffffffffffffffff16600260008673ffffffffffffffffffffffffffffffffffffffff1673ffffffffffffffffffffffffffffffffffffffff16815260200190815260200160002060010160019054906101000a900473ffffffffffffffffffffffffffffffffffffffff1673ffffffffffffffffffffffffffffffffffffffff161461087b57600260008573ffffffffffffffffffffffffffffffffffffffff1673ffffffffffffffffffffffffffffffffffffffff16815260200190815260200160002060010160019054906101000a900473ffffffffffffffffffffffffffffffffffffffff169350610808610dd6565b73ffffffffffffffffffffffffffffffffffffffff168473ffffffffffffffffffffffffffffffffffffffff161415610876576040517f08c379a000000000000000000000000000000000000000000000000000000000815260040161086d906113d4565b60405180910390fd5b610705565b60018160010160006101000a81548160ff021916908315150217905550838160010160016101000a81548173ffffffffffffffffffffffffffffffffffffffff021916908373ffffffffffffffffffffffffffffffffffffffff1602179055506000600260008673ffffffffffffffffffffffffffffffffffffffff1673ffffffffffffffffffffffffffffffffffffffff16815260200190815260200160002090508060010160009054906101000a900460ff16156109a757610975826000015460038360020154815481106109555761095461161c565b5b906000526020600020906002020160010154610dc090919063ffffffff16565b600382600201548154811061098d5761098c61161c565b5b9060005260206000209060020201600101819055506109cb565b6109c282600001548260000154610dc090919063ffffffff16565b81600001819055505b8473ffffffffffffffffffffffffffffffffffffffff166109ea610dd6565b73ffffffffffffffffffffffffffffffffffffffff167f4ce9ef2c99d761d69230b0e3381f4c6016333b2e27d32b3e379a96b5d2c6923260405160405180910390a35050505050565b600160009054906101000a900473ffffffffffffffffffffffffffffffffffffffff1673ffffffffffffffffffffffffffffffffffffffff16610a74610dd6565b73ffffffffffffffffffffffffffffffffffffffff1614610aca576040517f08c379a0000000000000000000000000000000000000000000000000000000008152600401610ac190611334565b60405180910390fd5b80600260008273ffffffffffffffffffffffffffffffffffffffff1673ffffffffffffffffffffffffffffffffffffffff16815260200190815260200160002060010160009054906101000a900460ff1615610b5b576040517f08c379a0000000000000000000000000000000000000000000000000000000008152600401610b5290611314565b60405180910390fd5b6000600260008473ffffffffffffffffffffffffffffffffffffffff1673ffffffffffffffffffffffffffffffffffffffff1681526020019081526020016000206000015414610be0576040517f08c379a0000000000000000000000000000000000000000000000000000000008152600401610bd790611394565b60405180910390fd5b6001600260008473ffffffffffffffffffffffffffffffffffffffff1673ffffffffffffffffffffffffffffffffffffffff168152602001908152602001600020600001819055505050565b60026020528060005260406000206000915090508060000154908060010160009054906101000a900460ff16908060010160019054906101000a900473ffffffffffffffffffffffffffffffffffffffff16908060020154905084565b60606000826000548110610cd2576040517f08c379a0000000000000000000000000000000000000000000000000000000008152600401610cc9906113b4565b60405180910390fd5b610d0060038581548110610ce957610ce861161c565b5b906000526020600020906002020160000154610dde565b60038581548110610d1457610d1361161c565b5b906000526020600020906002020160010154809350819450505050915091565b600160009054906101000a900473ffffffffffffffffffffffffffffffffffffffff1681565b60005481565b6060610d6a610e07565b6004805480602002602001604051908101604052809291908181526020018280548015610db657602002820191906000526020600020905b815481526020019060010190808311610da2575b5050505050905090565b60008183610dce91906114bf565b905092915050565b600033905090565b606081604051602001610df19190611237565b6040516020818303038152906040529050919050565b60008060005b600380549050811015610eac578260038281548110610e2f57610e2e61161c565b5b9060005260206000209060020201600101541115610e995760038181548110610e5b57610e5a61161c565b5b906000526020600020906002020160010154925060048190806001815401808255809150506001900390600052602060002001600090919091909150555b8080610ea49061159a565b915050610e0d565b5060005b600380549050811015610f605760038281548110610ed157610ed061161c565b5b90600052602060002090600202016001015460038281548110610ef757610ef661161c565b5b906000526020600020906002020160010154148015610f165750818114155b15610f455760048190806001815401808255809150506001900390600052602060002001600090919091909150555b610f59600182610dc090919063ffffffff16565b9050610eb0565b505050565b600081359050610f748161188a565b92915050565b600081359050610f89816118a1565b92915050565b600060208284031215610fa557610fa461164b565b5b6000610fb384828501610f65565b91505092915050565b600060208284031215610fd257610fd161164b565b5b6000610fe084828501610f7a565b91505092915050565b6000610ff58383611219565b60208301905092915050565b61100a81611515565b82525050565b600061101b82611464565b6110258185611492565b935061103083611454565b8060005b838110156110615781516110488882610fe9565b975061105383611485565b925050600181019050611034565b5085935050505092915050565b61107781611527565b82525050565b61108e61108982611533565b6115e3565b82525050565b600061109f8261146f565b6110a981856114a3565b93506110b9818560208601611567565b80840191505092915050565b60006110d08261147a565b6110da81856114ae565b93506110ea818560208601611567565b6110f381611650565b840191505092915050565b600061110b602a836114ae565b915061111682611661565b604082019050919050565b600061112e6036836114ae565b9150611139826116b0565b604082019050919050565b60006111516031836114ae565b915061115c826116ff565b604082019050919050565b7f2000000000000000000000000000000000000000000000000000000000000000815250565b600061119a602d836114ae565b91506111a58261174e565b604082019050919050565b60006111bd6030836114ae565b91506111c88261179d565b604082019050919050565b60006111e0602b836114ae565b91506111eb826117ec565b604082019050919050565b6000611203602f836114ae565b915061120e8261183b565b604082019050919050565b6112228161155d565b82525050565b6112318161155d565b82525050565b6000611243828461107d565b60208201915081905092915050565b600061125e8285611094565b915061126982611167565b6001820191506112798284611094565b91508190509392505050565b600060208201905061129a6000830184611001565b92915050565b600060208201905081810360008301526112ba8184611010565b905092915050565b600060208201905081810360008301526112dc81846110c5565b905092915050565b600060408201905081810360008301526112fe81856110c5565b905061130d6020830184611228565b9392505050565b6000602082019050818103600083015261132d816110fe565b9050919050565b6000602082019050818103600083015261134d81611121565b9050919050565b6000602082019050818103600083015261136d81611144565b9050919050565b6000602082019050818103600083015261138d8161118d565b9050919050565b600060208201905081810360008301526113ad816111b0565b9050919050565b600060208201905081810360008301526113cd816111d3565b9050919050565b600060208201905081810360008301526113ed816111f6565b9050919050565b60006020820190506114096000830184611228565b92915050565b60006080820190506114246000830187611228565b611431602083018661106e565b61143e6040830185611001565b61144b6060830184611228565b95945050505050565b6000819050602082019050919050565b600081519050919050565b600081519050919050565b600081519050919050565b6000602082019050919050565b600082825260208201905092915050565b600081905092915050565b600082825260208201905092915050565b60006114ca8261155d565b91506114d58361155d565b9250827fffffffffffffffffffffffffffffffffffffffffffffffffffffffffffffffff0382111561150a576115096115ed565b5b828201905092915050565b60006115208261153d565b9050919050565b60008115159050919050565b6000819050919050565b600073ffffffffffffffffffffffffffffffffffffffff82169050919050565b6000819050919050565b60005b8381101561158557808201518184015260208101905061156a565b83811115611594576000848401525b50505050565b60006115a58261155d565b91507fffffffffffffffffffffffffffffffffffffffffffffffffffffffffffffffff8214156115d8576115d76115ed565b5b600182019050919050565b6000819050919050565b7f4e487b7100000000000000000000000000000000000000000000000000000000600052601160045260246000fd5b7f4e487b7100000000000000000000000000000000000000000000000000000000600052603260045260246000fd5b600080fd5b6000601f19601f8301169050919050565b7f53696d706c65566f74696e673a2054686520766f7465722068617320616c726560008201527f61647920766f7465642e00000000000000000000000000000000000000000000602082015250565b7f53696d706c65566f74696e673a204f6e6c79206368616972506572736f6e206360008201527f616e206769766520726967687420746f20766f74652e00000000000000000000602082015250565b7f53696d706c65566f74696e673a2043616c6c657220646f6573206e6f7420686160008201527f766520726967687420746f20766f74652e000000000000000000000000000000602082015250565b7f53696d706c65566f74696e673a2053656c662d64656c65676174696f6e20697360008201527f206e6f7420616c6c6f7765642e00000000000000000000000000000000000000602082015250565b7f53696d706c65566f74696e673a204164647265737320616c726561647920686160008201527f7320726967687420746f20766f74652e00000000000000000000000000000000602082015250565b7f53696d706c65566f74696e673a2050726f706f73616c20696e646578206f757460008201527f206f6620626f756e64732e000000000000000000000000000000000000000000602082015250565b7f53696d706c65566f74696e673a2044656c65676174696f6e207472616365732060008201527f6261636b20746f2063616c6c65722e0000000000000000000000000000000000602082015250565b61189381611515565b811461189e57600080fd5b50565b6118aa8161155d565b81146118b557600080fd5b5056fea2646970667358221220b79435cd390821cbd6068cab43d6328b56d5d221f6e5ca1cd79a74b1383c3e7364736f6c63430008070033",
					"opcodes": "PUSH1 0x80 PUSH1 0x40 MSTORE CALLVALUE DUP1 ISZERO PUSH3 0x11 JUMPI PUSH1 0x0 DUP1 REVERT JUMPDEST POP PUSH1 0x40 MLOAD PUSH3 0x20C7 CODESIZE SUB DUP1 PUSH3 0x20C7 DUP4 CODECOPY DUP2 DUP2 ADD PUSH1 0x40 MSTORE DUP2 ADD SWAP1 PUSH3 0x37 SWAP2 SWAP1 PUSH3 0x3BE JUMP JUMPDEST PUSH3 0x47 PUSH3 0x21B PUSH1 0x20 SHL PUSH1 0x20 SHR JUMP JUMPDEST PUSH1 0x1 PUSH1 0x0 PUSH2 0x100 EXP DUP2 SLOAD DUP2 PUSH20 0xFFFFFFFFFFFFFFFFFFFFFFFFFFFFFFFFFFFFFFFF MUL NOT AND SWAP1 DUP4 PUSH20 0xFFFFFFFFFFFFFFFFFFFFFFFFFFFFFFFFFFFFFFFF AND MUL OR SWAP1 SSTORE POP PUSH1 0x1 PUSH1 0x2 PUSH1 0x0 PUSH1 0x1 PUSH1 0x0 SWAP1 SLOAD SWAP1 PUSH2 0x100 EXP SWAP1 DIV PUSH20 0xFFFFFFFFFFFFFFFFFFFFFFFFFFFFFFFFFFFFFFFF AND PUSH20 0xFFFFFFFFFFFFFFFFFFFFFFFFFFFFFFFFFFFFFFFF AND PUSH20 0xFFFFFFFFFFFFFFFFFFFFFFFFFFFFFFFFFFFFFFFF AND DUP2 MSTORE PUSH1 0x20 ADD SWAP1 DUP2 MSTORE PUSH1 0x20 ADD PUSH1 0x0 KECCAK256 PUSH1 0x0 ADD DUP2 SWAP1 SSTORE POP DUP1 MLOAD PUSH1 0x0 DUP2 SWAP1 SSTORE POP PUSH1 0x0 JUMPDEST PUSH1 0x0 SLOAD DUP2 LT ISZERO PUSH3 0x1B4 JUMPI PUSH1 0x0 PUSH1 0x40 MLOAD DUP1 PUSH1 0x40 ADD PUSH1 0x40 MSTORE DUP1 PUSH3 0x142 DUP6 DUP6 DUP2 MLOAD DUP2 LT PUSH3 0x12E JUMPI PUSH3 0x12D PUSH3 0x71D JUMP JUMPDEST JUMPDEST PUSH1 0x20 MUL PUSH1 0x20 ADD ADD MLOAD PUSH3 0x223 PUSH1 0x20 SHL PUSH1 0x20 SHR JUMP JUMPDEST DUP2 MSTORE PUSH1 0x20 ADD PUSH1 0x0 DUP2 MSTORE POP SWAP1 POP PUSH1 0x3 DUP2 SWAP1 DUP1 PUSH1 0x1 DUP2 SLOAD ADD DUP1 DUP3 SSTORE DUP1 SWAP2 POP POP PUSH1 0x1 SWAP1 SUB SWAP1 PUSH1 0x0 MSTORE PUSH1 0x20 PUSH1 0x0 KECCAK256 SWAP1 PUSH1 0x2 MUL ADD PUSH1 0x0 SWAP1 SWAP2 SWAP1 SWAP2 SWAP1 SWAP2 POP PUSH1 0x0 DUP3 ADD MLOAD DUP2 PUSH1 0x0 ADD SSTORE PUSH1 0x20 DUP3 ADD MLOAD DUP2 PUSH1 0x1 ADD SSTORE POP POP POP PUSH3 0x1AC PUSH1 0x1 DUP3 PUSH3 0x259 PUSH1 0x20 SHL PUSH3 0xDC0 OR SWAP1 SWAP2 SWAP1 PUSH1 0x20 SHR JUMP JUMPDEST SWAP1 POP PUSH3 0xFC JUMP JUMPDEST POP PUSH32 0xF318B16025413645144ED83C64D2D30F089C10BC263CAB68A036C00F011827BE PUSH1 0x1 PUSH1 0x0 SWAP1 SLOAD SWAP1 PUSH2 0x100 EXP SWAP1 DIV PUSH20 0xFFFFFFFFFFFFFFFFFFFFFFFFFFFFFFFFFFFFFFFF AND PUSH1 0x0 SLOAD PUSH1 0x40 MLOAD PUSH3 0x20C SWAP3 SWAP2 SWAP1 PUSH3 0x481 JUMP JUMPDEST PUSH1 0x40 MLOAD DUP1 SWAP2 SUB SWAP1 LOG1 POP PUSH3 0x7C9 JUMP JUMPDEST PUSH1 0x0 CALLER SWAP1 POP SWAP1 JUMP JUMPDEST PUSH1 0x0 DUP2 PUSH1 0x40 MLOAD PUSH1 0x20 ADD PUSH3 0x238 SWAP2 SWAP1 PUSH3 0x468 JUMP JUMPDEST PUSH1 0x40 MLOAD PUSH1 0x20 DUP2 DUP4 SUB SUB DUP2 MSTORE SWAP1 PUSH1 0x40 MSTORE PUSH3 0x252 SWAP1 PUSH3 0x612 JUMP JUMPDEST SWAP1 POP SWAP2 SWAP1 POP JUMP JUMPDEST PUSH1 0x0 DUP2 DUP4 PUSH3 0x269 SWAP2 SWAP1 PUSH3 0x56D JUMP JUMPDEST SWAP1 POP SWAP3 SWAP2 POP POP JUMP JUMPDEST PUSH1 0x0 PUSH3 0x288 PUSH3 0x282 DUP5 PUSH3 0x4D7 JUMP JUMPDEST PUSH3 0x4AE JUMP JUMPDEST SWAP1 POP DUP1 DUP4 DUP3 MSTORE PUSH1 0x20 DUP3 ADD SWAP1 POP DUP3 DUP6 PUSH1 0x20 DUP7 MUL DUP3 ADD GT ISZERO PUSH3 0x2AE JUMPI PUSH3 0x2AD PUSH3 0x797 JUMP JUMPDEST JUMPDEST PUSH1 0x0 JUMPDEST DUP6 DUP2 LT ISZERO PUSH3 0x303 JUMPI DUP2 MLOAD PUSH8 0xFFFFFFFFFFFFFFFF DUP2 GT ISZERO PUSH3 0x2D8 JUMPI PUSH3 0x2D7 PUSH3 0x792 JUMP JUMPDEST JUMPDEST DUP1 DUP7 ADD PUSH3 0x2E7 DUP10 DUP3 PUSH3 0x38B JUMP JUMPDEST DUP6 MSTORE PUSH1 0x20 DUP6 ADD SWAP5 POP PUSH1 0x20 DUP5 ADD SWAP4 POP POP POP PUSH1 0x1 DUP2 ADD SWAP1 POP PUSH3 0x2B1 JUMP JUMPDEST POP POP POP SWAP4 SWAP3 POP POP POP JUMP JUMPDEST PUSH1 0x0 PUSH3 0x324 PUSH3 0x31E DUP5 PUSH3 0x506 JUMP JUMPDEST PUSH3 0x4AE JUMP JUMPDEST SWAP1 POP DUP3 DUP2 MSTORE PUSH1 0x20 DUP2 ADD DUP5 DUP5 DUP5 ADD GT ISZERO PUSH3 0x343 JUMPI PUSH3 0x342 PUSH3 0x79C JUMP JUMPDEST JUMPDEST PUSH3 0x350 DUP5 DUP3 DUP6 PUSH3 0x682 JUMP JUMPDEST POP SWAP4 SWAP3 POP POP POP JUMP JUMPDEST PUSH1 0x0 DUP3 PUSH1 0x1F DUP4 ADD SLT PUSH3 0x370 JUMPI PUSH3 0x36F PUSH3 0x792 JUMP JUMPDEST JUMPDEST DUP2 MLOAD PUSH3 0x382 DUP5 DUP3 PUSH1 0x20 DUP7 ADD PUSH3 0x271 JUMP JUMPDEST SWAP2 POP POP SWAP3 SWAP2 POP POP JUMP JUMPDEST PUSH1 0x0 DUP3 PUSH1 0x1F DUP4 ADD SLT PUSH3 0x3A3 JUMPI PUSH3 0x3A2 PUSH3 0x792 JUMP JUMPDEST JUMPDEST DUP2 MLOAD PUSH3 0x3B5 DUP5 DUP3 PUSH1 0x20 DUP7 ADD PUSH3 0x30D JUMP JUMPDEST SWAP2 POP POP SWAP3 SWAP2 POP POP JUMP JUMPDEST PUSH1 0x0 PUSH1 0x20 DUP3 DUP5 SUB SLT ISZERO PUSH3 0x3D7 JUMPI PUSH3 0x3D6 PUSH3 0x7A6 JUMP JUMPDEST JUMPDEST PUSH1 0x0 DUP3 ADD MLOAD PUSH8 0xFFFFFFFFFFFFFFFF DUP2 GT ISZERO PUSH3 0x3F8 JUMPI PUSH3 0x3F7 PUSH3 0x7A1 JUMP JUMPDEST JUMPDEST PUSH3 0x406 DUP5 DUP3 DUP6 ADD PUSH3 0x358 JUMP JUMPDEST SWAP2 POP POP SWAP3 SWAP2 POP POP JUMP JUMPDEST PUSH3 0x41A DUP2 PUSH3 0x5CA JUMP JUMPDEST DUP3 MSTORE POP POP JUMP JUMPDEST PUSH1 0x0 PUSH3 0x42D DUP3 PUSH3 0x557 JUMP JUMPDEST PUSH3 0x439 DUP2 DUP6 PUSH3 0x562 JUMP JUMPDEST SWAP4 POP PUSH3 0x44B DUP2 DUP6 PUSH1 0x20 DUP7 ADD PUSH3 0x682 JUMP JUMPDEST DUP1 DUP5 ADD SWAP2 POP POP SWAP3 SWAP2 POP POP JUMP JUMPDEST PUSH3 0x462 DUP2 PUSH3 0x608 JUMP JUMPDEST DUP3 MSTORE POP POP JUMP JUMPDEST PUSH1 0x0 PUSH3 0x476 DUP3 DUP5 PUSH3 0x420 JUMP JUMPDEST SWAP2 POP DUP2 SWAP1 POP SWAP3 SWAP2 POP POP JUMP JUMPDEST PUSH1 0x0 PUSH1 0x40 DUP3 ADD SWAP1 POP PUSH3 0x498 PUSH1 0x0 DUP4 ADD DUP6 PUSH3 0x40F JUMP JUMPDEST PUSH3 0x4A7 PUSH1 0x20 DUP4 ADD DUP5 PUSH3 0x457 JUMP JUMPDEST SWAP4 SWAP3 POP POP POP JUMP JUMPDEST PUSH1 0x0 PUSH3 0x4BA PUSH3 0x4CD JUMP JUMPDEST SWAP1 POP PUSH3 0x4C8 DUP3 DUP3 PUSH3 0x6B8 JUMP JUMPDEST SWAP2 SWAP1 POP JUMP JUMPDEST PUSH1 0x0 PUSH1 0x40 MLOAD SWAP1 POP SWAP1 JUMP JUMPDEST PUSH1 0x0 PUSH8 0xFFFFFFFFFFFFFFFF DUP3 GT ISZERO PUSH3 0x4F5 JUMPI PUSH3 0x4F4 PUSH3 0x74C JUMP JUMPDEST JUMPDEST PUSH1 0x20 DUP3 MUL SWAP1 POP PUSH1 0x20 DUP2 ADD SWAP1 POP SWAP2 SWAP1 POP JUMP JUMPDEST PUSH1 0x0 PUSH8 0xFFFFFFFFFFFFFFFF DUP3 GT ISZERO PUSH3 0x524 JUMPI PUSH3 0x523 PUSH3 0x74C JUMP JUMPDEST JUMPDEST PUSH3 0x52F DUP3 PUSH3 0x7AB JUMP JUMPDEST SWAP1 POP PUSH1 0x20 DUP2 ADD SWAP1 POP SWAP2 SWAP1 POP JUMP JUMPDEST PUSH1 0x0 DUP2 SWAP1 POP PUSH1 0x20 DUP3 ADD SWAP1 POP SWAP2 SWAP1 POP JUMP JUMPDEST PUSH1 0x0 DUP2 MLOAD SWAP1 POP SWAP2 SWAP1 POP JUMP JUMPDEST PUSH1 0x0 DUP2 MLOAD SWAP1 POP SWAP2 SWAP1 POP JUMP JUMPDEST PUSH1 0x0 DUP2 SWAP1 POP SWAP3 SWAP2 POP POP JUMP JUMPDEST PUSH1 0x0 PUSH3 0x57A DUP3 PUSH3 0x608 JUMP JUMPDEST SWAP2 POP PUSH3 0x587 DUP4 PUSH3 0x608 JUMP JUMPDEST SWAP3 POP DUP3 PUSH32 0xFFFFFFFFFFFFFFFFFFFFFFFFFFFFFFFFFFFFFFFFFFFFFFFFFFFFFFFFFFFFFFFF SUB DUP3 GT ISZERO PUSH3 0x5BF JUMPI PUSH3 0x5BE PUSH3 0x6EE JUMP JUMPDEST JUMPDEST DUP3 DUP3 ADD SWAP1 POP SWAP3 SWAP2 POP POP JUMP JUMPDEST PUSH1 0x0 PUSH3 0x5D7 DUP3 PUSH3 0x5E8 JUMP JUMPDEST SWAP1 POP SWAP2 SWAP1 POP JUMP JUMPDEST PUSH1 0x0 DUP2 SWAP1 POP SWAP2 SWAP1 POP JUMP JUMPDEST PUSH1 0x0 PUSH20 0xFFFFFFFFFFFFFFFFFFFFFFFFFFFFFFFFFFFFFFFF DUP3 AND SWAP1 POP SWAP2 SWAP1 POP JUMP JUMPDEST PUSH1 0x0 DUP2 SWAP1 POP SWAP2 SWAP1 POP JUMP JUMPDEST PUSH1 0x0 PUSH3 0x61F DUP3 PUSH3 0x54C JUMP JUMPDEST DUP3 PUSH3 0x62B DUP5 PUSH3 0x53C JUMP JUMPDEST SWAP1 POP PUSH3 0x638 DUP2 PUSH3 0x77B JUMP JUMPDEST SWAP3 POP PUSH1 0x20 DUP3 LT ISZERO PUSH3 0x67B JUMPI PUSH3 0x676 PUSH32 0xFFFFFFFFFFFFFFFFFFFFFFFFFFFFFFFFFFFFFFFFFFFFFFFFFFFFFFFFFFFFFFFF DUP4 PUSH1 0x20 SUB PUSH1 0x8 MUL PUSH3 0x7BC JUMP JUMPDEST DUP4 AND SWAP3 POP JUMPDEST POP POP SWAP2 SWAP1 POP JUMP JUMPDEST PUSH1 0x0 JUMPDEST DUP4 DUP2 LT ISZERO PUSH3 0x6A2 JUMPI DUP1 DUP3 ADD MLOAD DUP2 DUP5 ADD MSTORE PUSH1 0x20 DUP2 ADD SWAP1 POP PUSH3 0x685 JUMP JUMPDEST DUP4 DUP2 GT ISZERO PUSH3 0x6B2 JUMPI PUSH1 0x0 DUP5 DUP5 ADD MSTORE JUMPDEST POP POP POP POP JUMP JUMPDEST PUSH3 0x6C3 DUP3 PUSH3 0x7AB JUMP JUMPDEST DUP2 ADD DUP2 DUP2 LT PUSH8 0xFFFFFFFFFFFFFFFF DUP3 GT OR ISZERO PUSH3 0x6E5 JUMPI PUSH3 0x6E4 PUSH3 0x74C JUMP JUMPDEST JUMPDEST DUP1 PUSH1 0x40 MSTORE POP POP POP JUMP JUMPDEST PUSH32 0x4E487B7100000000000000000000000000000000000000000000000000000000 PUSH1 0x0 MSTORE PUSH1 0x11 PUSH1 0x4 MSTORE PUSH1 0x24 PUSH1 0x0 REVERT JUMPDEST PUSH32 0x4E487B7100000000000000000000000000000000000000000000000000000000 PUSH1 0x0 MSTORE PUSH1 0x32 PUSH1 0x4 MSTORE PUSH1 0x24 PUSH1 0x0 REVERT JUMPDEST PUSH32 0x4E487B7100000000000000000000000000000000000000000000000000000000 PUSH1 0x0 MSTORE PUSH1 0x41 PUSH1 0x4 MSTORE PUSH1 0x24 PUSH1 0x0 REVERT JUMPDEST PUSH1 0x0 PUSH3 0x789 DUP3 MLOAD PUSH3 0x5DE JUMP JUMPDEST DUP1 SWAP2 POP POP SWAP2 SWAP1 POP JUMP JUMPDEST PUSH1 0x0 DUP1 REVERT JUMPDEST PUSH1 0x0 DUP1 REVERT JUMPDEST PUSH1 0x0 DUP1 REVERT JUMPDEST PUSH1 0x0 DUP1 REVERT JUMPDEST PUSH1 0x0 DUP1 REVERT JUMPDEST PUSH1 0x0 PUSH1 0x1F NOT PUSH1 0x1F DUP4 ADD AND SWAP1 POP SWAP2 SWAP1 POP JUMP JUMPDEST PUSH1 0x0 DUP3 DUP3 SHL SWAP1 POP SWAP3 SWAP2 POP POP JUMP JUMPDEST PUSH2 0x18EE DUP1 PUSH3 0x7D9 PUSH1 0x0 CODECOPY PUSH1 0x0 RETURN INVALID PUSH1 0x80 PUSH1 0x40 MSTORE CALLVALUE DUP1 ISZERO PUSH2 0x10 JUMPI PUSH1 0x0 DUP1 REVERT JUMPDEST POP PUSH1 0x4 CALLDATASIZE LT PUSH2 0x93 JUMPI PUSH1 0x0 CALLDATALOAD PUSH1 0xE0 SHR DUP1 PUSH4 0xA3EC138D GT PUSH2 0x66 JUMPI DUP1 PUSH4 0xA3EC138D EQ PUSH2 0x10A JUMPI DUP1 PUSH4 0xC7F758A8 EQ PUSH2 0x13D JUMPI DUP1 PUSH4 0xD4D4B5AC EQ PUSH2 0x16E JUMPI DUP1 PUSH4 0xDA35C664 EQ PUSH2 0x18C JUMPI DUP1 PUSH4 0xEF788CD5 EQ PUSH2 0x1AA JUMPI PUSH2 0x93 JUMP JUMPDEST DUP1 PUSH4 0x121B93F EQ PUSH2 0x98 JUMPI DUP1 PUSH4 0x28BE18EE EQ PUSH2 0xB4 JUMPI DUP1 PUSH4 0x5C19A95C EQ PUSH2 0xD2 JUMPI DUP1 PUSH4 0x9E7B8D61 EQ PUSH2 0xEE JUMPI JUMPDEST PUSH1 0x0 DUP1 REVERT JUMPDEST PUSH2 0xB2 PUSH1 0x4 DUP1 CALLDATASIZE SUB DUP2 ADD SWAP1 PUSH2 0xAD SWAP2 SWAP1 PUSH2 0xFBC JUMP JUMPDEST PUSH2 0x1C8 JUMP JUMPDEST STOP JUMPDEST PUSH2 0xBC PUSH2 0x468 JUMP JUMPDEST PUSH1 0x40 MLOAD PUSH2 0xC9 SWAP2 SWAP1 PUSH2 0x12C2 JUMP JUMPDEST PUSH1 0x40 MLOAD DUP1 SWAP2 SUB SWAP1 RETURN JUMPDEST PUSH2 0xEC PUSH1 0x4 DUP1 CALLDATASIZE SUB DUP2 ADD SWAP1 PUSH2 0xE7 SWAP2 SWAP1 PUSH2 0xF8F JUMP JUMPDEST PUSH2 0x51F JUMP JUMPDEST STOP JUMPDEST PUSH2 0x108 PUSH1 0x4 DUP1 CALLDATASIZE SUB DUP2 ADD SWAP1 PUSH2 0x103 SWAP2 SWAP1 PUSH2 0xF8F JUMP JUMPDEST PUSH2 0xA33 JUMP JUMPDEST STOP JUMPDEST PUSH2 0x124 PUSH1 0x4 DUP1 CALLDATASIZE SUB DUP2 ADD SWAP1 PUSH2 0x11F SWAP2 SWAP1 PUSH2 0xF8F JUMP JUMPDEST PUSH2 0xC2C JUMP JUMPDEST PUSH1 0x40 MLOAD PUSH2 0x134 SWAP5 SWAP4 SWAP3 SWAP2 SWAP1 PUSH2 0x140F JUMP JUMPDEST PUSH1 0x40 MLOAD DUP1 SWAP2 SUB SWAP1 RETURN JUMPDEST PUSH2 0x157 PUSH1 0x4 DUP1 CALLDATASIZE SUB DUP2 ADD SWAP1 PUSH2 0x152 SWAP2 SWAP1 PUSH2 0xFBC JUMP JUMPDEST PUSH2 0xC89 JUMP JUMPDEST PUSH1 0x40 MLOAD PUSH2 0x165 SWAP3 SWAP2 SWAP1 PUSH2 0x12E4 JUMP JUMPDEST PUSH1 0x40 MLOAD DUP1 SWAP2 SUB SWAP1 RETURN JUMPDEST PUSH2 0x176 PUSH2 0xD34 JUMP JUMPDEST PUSH1 0x40 MLOAD PUSH2 0x183 SWAP2 SWAP1 PUSH2 0x1285 JUMP JUMPDEST PUSH1 0x40 MLOAD DUP1 SWAP2 SUB SWAP1 RETURN JUMPDEST PUSH2 0x194 PUSH2 0xD5A JUMP JUMPDEST PUSH1 0x40 MLOAD PUSH2 0x1A1 SWAP2 SWAP1 PUSH2 0x13F4 JUMP JUMPDEST PUSH1 0x40 MLOAD DUP1 SWAP2 SUB SWAP1 RETURN JUMPDEST PUSH2 0x1B2 PUSH2 0xD60 JUMP JUMPDEST PUSH1 0x40 MLOAD PUSH2 0x1BF SWAP2 SWAP1 PUSH2 0x12A0 JUMP JUMPDEST PUSH1 0x40 MLOAD DUP1 SWAP2 SUB SWAP1 RETURN JUMPDEST DUP1 PUSH1 0x0 SLOAD DUP2 LT PUSH2 0x20D JUMPI PUSH1 0x40 MLOAD PUSH32 0x8C379A000000000000000000000000000000000000000000000000000000000 DUP2 MSTORE PUSH1 0x4 ADD PUSH2 0x204 SWAP1 PUSH2 0x13B4 JUMP JUMPDEST PUSH1 0x40 MLOAD DUP1 SWAP2 SUB SWAP1 REVERT JUMPDEST PUSH2 0x215 PUSH2 0xDD6 JUMP JUMPDEST PUSH1 0x2 PUSH1 0x0 DUP3 PUSH20 0xFFFFFFFFFFFFFFFFFFFFFFFFFFFFFFFFFFFFFFFF AND PUSH20 0xFFFFFFFFFFFFFFFFFFFFFFFFFFFFFFFFFFFFFFFF AND DUP2 MSTORE PUSH1 0x20 ADD SWAP1 DUP2 MSTORE PUSH1 0x20 ADD PUSH1 0x0 KECCAK256 PUSH1 0x1 ADD PUSH1 0x0 SWAP1 SLOAD SWAP1 PUSH2 0x100 EXP SWAP1 DIV PUSH1 0xFF AND ISZERO PUSH2 0x2A5 JUMPI PUSH1 0x40 MLOAD PUSH32 0x8C379A000000000000000000000000000000000000000000000000000000000 DUP2 MSTORE PUSH1 0x4 ADD PUSH2 0x29C SWAP1 PUSH2 0x1314 JUMP JUMPDEST PUSH1 0x40 MLOAD DUP1 SWAP2 SUB SWAP1 REVERT JUMPDEST PUSH2 0x2AD PUSH2 0xDD6 JUMP JUMPDEST PUSH1 0x0 PUSH1 0x2 PUSH1 0x0 DUP4 PUSH20 0xFFFFFFFFFFFFFFFFFFFFFFFFFFFFFFFFFFFFFFFF AND PUSH20 0xFFFFFFFFFFFFFFFFFFFFFFFFFFFFFFFFFFFFFFFF AND DUP2 MSTORE PUSH1 0x20 ADD SWAP1 DUP2 MSTORE PUSH1 0x20 ADD PUSH1 0x0 KECCAK256 PUSH1 0x0 ADD SLOAD GT PUSH2 0x332 JUMPI PUSH1 0x40 MLOAD PUSH32 0x8C379A000000000000000000000000000000000000000000000000000000000 DUP2 MSTORE PUSH1 0x4 ADD PUSH2 0x329 SWAP1 PUSH2 0x1354 JUMP JUMPDEST PUSH1 0x40 MLOAD DUP1 SWAP2 SUB SWAP1 REVERT JUMPDEST PUSH1 0x0 PUSH1 0x2 PUSH1 0x0 PUSH2 0x340 PUSH2 0xDD6 JUMP JUMPDEST PUSH20 0xFFFFFFFFFFFFFFFFFFFFFFFFFFFFFFFFFFFFFFFF AND PUSH20 0xFFFFFFFFFFFFFFFFFFFFFFFFFFFFFFFFFFFFFFFF AND DUP2 MSTORE PUSH1 0x20 ADD SWAP1 DUP2 MSTORE PUSH1 0x20 ADD PUSH1 0x0 KECCAK256 SWAP1 POP PUSH1 0x1 DUP2 PUSH1 0x1 ADD PUSH1 0x0 PUSH2 0x100 EXP DUP2 SLOAD DUP2 PUSH1 0xFF MUL NOT AND SWAP1 DUP4 ISZERO ISZERO MUL OR SWAP1 SSTORE POP DUP5 DUP2 PUSH1 0x2 ADD DUP2 SWAP1 SSTORE POP PUSH2 0x3DE DUP2 PUSH1 0x0 ADD SLOAD PUSH1 0x3 DUP8 DUP2 SLOAD DUP2 LT PUSH2 0x3BE JUMPI PUSH2 0x3BD PUSH2 0x161C JUMP JUMPDEST JUMPDEST SWAP1 PUSH1 0x0 MSTORE PUSH1 0x20 PUSH1 0x0 KECCAK256 SWAP1 PUSH1 0x2 MUL ADD PUSH1 0x1 ADD SLOAD PUSH2 0xDC0 SWAP1 SWAP2 SWAP1 PUSH4 0xFFFFFFFF AND JUMP JUMPDEST PUSH1 0x3 DUP7 DUP2 SLOAD DUP2 LT PUSH2 0x3F2 JUMPI PUSH2 0x3F1 PUSH2 0x161C JUMP JUMPDEST JUMPDEST SWAP1 PUSH1 0x0 MSTORE PUSH1 0x20 PUSH1 0x0 KECCAK256 SWAP1 PUSH1 0x2 MUL ADD PUSH1 0x1 ADD DUP2 SWAP1 SSTORE POP PUSH2 0x40F PUSH2 0xDD6 JUMP JUMPDEST PUSH20 0xFFFFFFFFFFFFFFFFFFFFFFFFFFFFFFFFFFFFFFFF AND DUP6 PUSH32 0xE7EE74CA1F4BB1B82B14F87794C45B3E59C39E372B862FB97A6316B43355B69E DUP4 PUSH1 0x0 ADD SLOAD PUSH1 0x40 MLOAD PUSH2 0x459 SWAP2 SWAP1 PUSH2 0x13F4 JUMP JUMPDEST PUSH1 0x40 MLOAD DUP1 SWAP2 SUB SWAP1 LOG3 POP POP POP POP POP JUMP JUMPDEST PUSH1 0x60 PUSH1 0x0 JUMPDEST PUSH1 0x4 DUP1 SLOAD SWAP1 POP DUP2 LT ISZERO PUSH2 0x51B JUMPI DUP2 PUSH1 0x3 PUSH1 0x4 DUP4 DUP2 SLOAD DUP2 LT PUSH2 0x491 JUMPI PUSH2 0x490 PUSH2 0x161C JUMP JUMPDEST JUMPDEST SWAP1 PUSH1 0x0 MSTORE PUSH1 0x20 PUSH1 0x0 KECCAK256 ADD SLOAD DUP2 SLOAD DUP2 LT PUSH2 0x4AD JUMPI PUSH2 0x4AC PUSH2 0x161C JUMP JUMPDEST JUMPDEST SWAP1 PUSH1 0x0 MSTORE PUSH1 0x20 PUSH1 0x0 KECCAK256 SWAP1 PUSH1 0x2 MUL ADD PUSH1 0x0 ADD SLOAD PUSH1 0x40 MLOAD PUSH1 0x20 ADD PUSH2 0x4CF SWAP2 SWAP1 PUSH2 0x1237 JUMP JUMPDEST PUSH1 0x40 MLOAD PUSH1 0x20 DUP2 DUP4 SUB SUB DUP2 MSTORE SWAP1 PUSH1 0x40 MSTORE PUSH1 0x40 MLOAD PUSH1 0x20 ADD PUSH2 0x4EF SWAP3 SWAP2 SWAP1 PUSH2 0x1252 JUMP JUMPDEST PUSH1 0x40 MLOAD PUSH1 0x20 DUP2 DUP4 SUB SUB DUP2 MSTORE SWAP1 PUSH1 0x40 MSTORE SWAP2 POP PUSH2 0x514 PUSH1 0x1 DUP3 PUSH2 0xDC0 SWAP1 SWAP2 SWAP1 PUSH4 0xFFFFFFFF AND JUMP JUMPDEST SWAP1 POP PUSH2 0x46D JUMP JUMPDEST POP SWAP1 JUMP JUMPDEST PUSH2 0x527 PUSH2 0xDD6 JUMP JUMPDEST PUSH1 0x2 PUSH1 0x0 DUP3 PUSH20 0xFFFFFFFFFFFFFFFFFFFFFFFFFFFFFFFFFFFFFFFF AND PUSH20 0xFFFFFFFFFFFFFFFFFFFFFFFFFFFFFFFFFFFFFFFF AND DUP2 MSTORE PUSH1 0x20 ADD SWAP1 DUP2 MSTORE PUSH1 0x20 ADD PUSH1 0x0 KECCAK256 PUSH1 0x1 ADD PUSH1 0x0 SWAP1 SLOAD SWAP1 PUSH2 0x100 EXP SWAP1 DIV PUSH1 0xFF AND ISZERO PUSH2 0x5B7 JUMPI PUSH1 0x40 MLOAD PUSH32 0x8C379A000000000000000000000000000000000000000000000000000000000 DUP2 MSTORE PUSH1 0x4 ADD PUSH2 0x5AE SWAP1 PUSH2 0x1314 JUMP JUMPDEST PUSH1 0x40 MLOAD DUP1 SWAP2 SUB SWAP1 REVERT JUMPDEST PUSH2 0x5BF PUSH2 0xDD6 JUMP JUMPDEST PUSH1 0x0 PUSH1 0x2 PUSH1 0x0 DUP4 PUSH20 0xFFFFFFFFFFFFFFFFFFFFFFFFFFFFFFFFFFFFFFFF AND PUSH20 0xFFFFFFFFFFFFFFFFFFFFFFFFFFFFFFFFFFFFFFFF AND DUP2 MSTORE PUSH1 0x20 ADD SWAP1 DUP2 MSTORE PUSH1 0x20 ADD PUSH1 0x0 KECCAK256 PUSH1 0x0 ADD SLOAD GT PUSH2 0x644 JUMPI PUSH1 0x40 MLOAD PUSH32 0x8C379A000000000000000000000000000000000000000000000000000000000 DUP2 MSTORE PUSH1 0x4 ADD PUSH2 0x63B SWAP1 PUSH2 0x1354 JUMP JUMPDEST PUSH1 0x40 MLOAD DUP1 SWAP2 SUB SWAP1 REVERT JUMPDEST PUSH1 0x0 PUSH1 0x2 PUSH1 0x0 PUSH2 0x652 PUSH2 0xDD6 JUMP JUMPDEST PUSH20 0xFFFFFFFFFFFFFFFFFFFFFFFFFFFFFFFFFFFFFFFF AND PUSH20 0xFFFFFFFFFFFFFFFFFFFFFFFFFFFFFFFFFFFFFFFF AND DUP2 MSTORE PUSH1 0x20 ADD SWAP1 DUP2 MSTORE PUSH1 0x20 ADD PUSH1 0x0 KECCAK256 SWAP1 POP PUSH2 0x696 PUSH2 0xDD6 JUMP JUMPDEST PUSH20 0xFFFFFFFFFFFFFFFFFFFFFFFFFFFFFFFFFFFFFFFF AND DUP5 PUSH20 0xFFFFFFFFFFFFFFFFFFFFFFFFFFFFFFFFFFFFFFFF AND EQ ISZERO PUSH2 0x704 JUMPI PUSH1 0x40 MLOAD PUSH32 0x8C379A000000000000000000000000000000000000000000000000000000000 DUP2 MSTORE PUSH1 0x4 ADD PUSH2 0x6FB SWAP1 PUSH2 0x1374 JUMP JUMPDEST PUSH1 0x40 MLOAD DUP1 SWAP2 SUB SWAP1 REVERT JUMPDEST JUMPDEST PUSH1 0x0 PUSH20 0xFFFFFFFFFFFFFFFFFFFFFFFFFFFFFFFFFFFFFFFF AND PUSH1 0x2 PUSH1 0x0 DUP7 PUSH20 0xFFFFFFFFFFFFFFFFFFFFFFFFFFFFFFFFFFFFFFFF AND PUSH20 0xFFFFFFFFFFFFFFFFFFFFFFFFFFFFFFFFFFFFFFFF AND DUP2 MSTORE PUSH1 0x20 ADD SWAP1 DUP2 MSTORE PUSH1 0x20 ADD PUSH1 0x0 KECCAK256 PUSH1 0x1 ADD PUSH1 0x1 SWAP1 SLOAD SWAP1 PUSH2 0x100 EXP SWAP1 DIV PUSH20 0xFFFFFFFFFFFFFFFFFFFFFFFFFFFFFFFFFFFFFFFF AND PUSH20 0xFFFFFFFFFFFFFFFFFFFFFFFFFFFFFFFFFFFFFFFF AND EQ PUSH2 0x87B JUMPI PUSH1 0x2 PUSH1 0x0 DUP6 PUSH20 0xFFFFFFFFFFFFFFFFFFFFFFFFFFFFFFFFFFFFFFFF AND PUSH20 0xFFFFFFFFFFFFFFFFFFFFFFFFFFFFFFFFFFFFFFFF AND DUP2 MSTORE PUSH1 0x20 ADD SWAP1 DUP2 MSTORE PUSH1 0x20 ADD PUSH1 0x0 KECCAK256 PUSH1 0x1 ADD PUSH1 0x1 SWAP1 SLOAD SWAP1 PUSH2 0x100 EXP SWAP1 DIV PUSH20 0xFFFFFFFFFFFFFFFFFFFFFFFFFFFFFFFFFFFFFFFF AND SWAP4 POP PUSH2 0x808 PUSH2 0xDD6 JUMP JUMPDEST PUSH20 0xFFFFFFFFFFFFFFFFFFFFFFFFFFFFFFFFFFFFFFFF AND DUP5 PUSH20 0xFFFFFFFFFFFFFFFFFFFFFFFFFFFFFFFFFFFFFFFF AND EQ ISZERO PUSH2 0x876 JUMPI PUSH1 0x40 MLOAD PUSH32 0x8C379A000000000000000000000000000000000000000000000000000000000 DUP2 MSTORE PUSH1 0x4 ADD PUSH2 0x86D SWAP1 PUSH2 0x13D4 JUMP JUMPDEST PUSH1 0x40 MLOAD DUP1 SWAP2 SUB SWAP1 REVERT JUMPDEST PUSH2 0x705 JUMP JUMPDEST PUSH1 0x1 DUP2 PUSH1 0x1 ADD PUSH1 0x0 PUSH2 0x100 EXP DUP2 SLOAD DUP2 PUSH1 0xFF MUL NOT AND SWAP1 DUP4 ISZERO ISZERO MUL OR SWAP1 SSTORE POP DUP4 DUP2 PUSH1 0x1 ADD PUSH1 0x1 PUSH2 0x100 EXP DUP2 SLOAD DUP2 PUSH20 0xFFFFFFFFFFFFFFFFFFFFFFFFFFFFFFFFFFFFFFFF MUL NOT AND SWAP1 DUP4 PUSH20 0xFFFFFFFFFFFFFFFFFFFFFFFFFFFFFFFFFFFFFFFF AND MUL OR SWAP1 SSTORE POP PUSH1 0x0 PUSH1 0x2 PUSH1 0x0 DUP7 PUSH20 0xFFFFFFFFFFFFFFFFFFFFFFFFFFFFFFFFFFFFFFFF AND PUSH20 0xFFFFFFFFFFFFFFFFFFFFFFFFFFFFFFFFFFFFFFFF AND DUP2 MSTORE PUSH1 0x20 ADD SWAP1 DUP2 MSTORE PUSH1 0x20 ADD PUSH1 0x0 KECCAK256 SWAP1 POP DUP1 PUSH1 0x1 ADD PUSH1 0x0 SWAP1 SLOAD SWAP1 PUSH2 0x100 EXP SWAP1 DIV PUSH1 0xFF AND ISZERO PUSH2 0x9A7 JUMPI PUSH2 0x975 DUP3 PUSH1 0x0 ADD SLOAD PUSH1 0x3 DUP4 PUSH1 0x2 ADD SLOAD DUP2 SLOAD DUP2 LT PUSH2 0x955 JUMPI PUSH2 0x954 PUSH2 0x161C JUMP JUMPDEST JUMPDEST SWAP1 PUSH1 0x0 MSTORE PUSH1 0x20 PUSH1 0x0 KECCAK256 SWAP1 PUSH1 0x2 MUL ADD PUSH1 0x1 ADD SLOAD PUSH2 0xDC0 SWAP1 SWAP2 SWAP1 PUSH4 0xFFFFFFFF AND JUMP JUMPDEST PUSH1 0x3 DUP3 PUSH1 0x2 ADD SLOAD DUP2 SLOAD DUP2 LT PUSH2 0x98D JUMPI PUSH2 0x98C PUSH2 0x161C JUMP JUMPDEST JUMPDEST SWAP1 PUSH1 0x0 MSTORE PUSH1 0x20 PUSH1 0x0 KECCAK256 SWAP1 PUSH1 0x2 MUL ADD PUSH1 0x1 ADD DUP2 SWAP1 SSTORE POP PUSH2 0x9CB JUMP JUMPDEST PUSH2 0x9C2 DUP3 PUSH1 0x0 ADD SLOAD DUP3 PUSH1 0x0 ADD SLOAD PUSH2 0xDC0 SWAP1 SWAP2 SWAP1 PUSH4 0xFFFFFFFF AND JUMP JUMPDEST DUP2 PUSH1 0x0 ADD DUP2 SWAP1 SSTORE POP JUMPDEST DUP5 PUSH20 0xFFFFFFFFFFFFFFFFFFFFFFFFFFFFFFFFFFFFFFFF AND PUSH2 0x9EA PUSH2 0xDD6 JUMP JUMPDEST PUSH20 0xFFFFFFFFFFFFFFFFFFFFFFFFFFFFFFFFFFFFFFFF AND PUSH32 0x4CE9EF2C99D761D69230B0E3381F4C6016333B2E27D32B3E379A96B5D2C69232 PUSH1 0x40 MLOAD PUSH1 0x40 MLOAD DUP1 SWAP2 SUB SWAP1 LOG3 POP POP POP POP POP JUMP JUMPDEST PUSH1 0x1 PUSH1 0x0 SWAP1 SLOAD SWAP1 PUSH2 0x100 EXP SWAP1 DIV PUSH20 0xFFFFFFFFFFFFFFFFFFFFFFFFFFFFFFFFFFFFFFFF AND PUSH20 0xFFFFFFFFFFFFFFFFFFFFFFFFFFFFFFFFFFFFFFFF AND PUSH2 0xA74 PUSH2 0xDD6 JUMP JUMPDEST PUSH20 0xFFFFFFFFFFFFFFFFFFFFFFFFFFFFFFFFFFFFFFFF AND EQ PUSH2 0xACA JUMPI PUSH1 0x40 MLOAD PUSH32 0x8C379A000000000000000000000000000000000000000000000000000000000 DUP2 MSTORE PUSH1 0x4 ADD PUSH2 0xAC1 SWAP1 PUSH2 0x1334 JUMP JUMPDEST PUSH1 0x40 MLOAD DUP1 SWAP2 SUB SWAP1 REVERT JUMPDEST DUP1 PUSH1 0x2 PUSH1 0x0 DUP3 PUSH20 0xFFFFFFFFFFFFFFFFFFFFFFFFFFFFFFFFFFFFFFFF AND PUSH20 0xFFFFFFFFFFFFFFFFFFFFFFFFFFFFFFFFFFFFFFFF AND DUP2 MSTORE PUSH1 0x20 ADD SWAP1 DUP2 MSTORE PUSH1 0x20 ADD PUSH1 0x0 KECCAK256 PUSH1 0x1 ADD PUSH1 0x0 SWAP1 SLOAD SWAP1 PUSH2 0x100 EXP SWAP1 DIV PUSH1 0xFF AND ISZERO PUSH2 0xB5B JUMPI PUSH1 0x40 MLOAD PUSH32 0x8C379A000000000000000000000000000000000000000000000000000000000 DUP2 MSTORE PUSH1 0x4 ADD PUSH2 0xB52 SWAP1 PUSH2 0x1314 JUMP JUMPDEST PUSH1 0x40 MLOAD DUP1 SWAP2 SUB SWAP1 REVERT JUMPDEST PUSH1 0x0 PUSH1 0x2 PUSH1 0x0 DUP5 PUSH20 0xFFFFFFFFFFFFFFFFFFFFFFFFFFFFFFFFFFFFFFFF AND PUSH20 0xFFFFFFFFFFFFFFFFFFFFFFFFFFFFFFFFFFFFFFFF AND DUP2 MSTORE PUSH1 0x20 ADD SWAP1 DUP2 MSTORE PUSH1 0x20 ADD PUSH1 0x0 KECCAK256 PUSH1 0x0 ADD SLOAD EQ PUSH2 0xBE0 JUMPI PUSH1 0x40 MLOAD PUSH32 0x8C379A000000000000000000000000000000000000000000000000000000000 DUP2 MSTORE PUSH1 0x4 ADD PUSH2 0xBD7 SWAP1 PUSH2 0x1394 JUMP JUMPDEST PUSH1 0x40 MLOAD DUP1 SWAP2 SUB SWAP1 REVERT JUMPDEST PUSH1 0x1 PUSH1 0x2 PUSH1 0x0 DUP5 PUSH20 0xFFFFFFFFFFFFFFFFFFFFFFFFFFFFFFFFFFFFFFFF AND PUSH20 0xFFFFFFFFFFFFFFFFFFFFFFFFFFFFFFFFFFFFFFFF AND DUP2 MSTORE PUSH1 0x20 ADD SWAP1 DUP2 MSTORE PUSH1 0x20 ADD PUSH1 0x0 KECCAK256 PUSH1 0x0 ADD DUP2 SWAP1 SSTORE POP POP POP JUMP JUMPDEST PUSH1 0x2 PUSH1 0x20 MSTORE DUP1 PUSH1 0x0 MSTORE PUSH1 0x40 PUSH1 0x0 KECCAK256 PUSH1 0x0 SWAP2 POP SWAP1 POP DUP1 PUSH1 0x0 ADD SLOAD SWAP1 DUP1 PUSH1 0x1 ADD PUSH1 0x0 SWAP1 SLOAD SWAP1 PUSH2 0x100 EXP SWAP1 DIV PUSH1 0xFF AND SWAP1 DUP1 PUSH1 0x1 ADD PUSH1 0x1 SWAP1 SLOAD SWAP1 PUSH2 0x100 EXP SWAP1 DIV PUSH20 0xFFFFFFFFFFFFFFFFFFFFFFFFFFFFFFFFFFFFFFFF AND SWAP1 DUP1 PUSH1 0x2 ADD SLOAD SWAP1 POP DUP5 JUMP JUMPDEST PUSH1 0x60 PUSH1 0x0 DUP3 PUSH1 0x0 SLOAD DUP2 LT PUSH2 0xCD2 JUMPI PUSH1 0x40 MLOAD PUSH32 0x8C379A000000000000000000000000000000000000000000000000000000000 DUP2 MSTORE PUSH1 0x4 ADD PUSH2 0xCC9 SWAP1 PUSH2 0x13B4 JUMP JUMPDEST PUSH1 0x40 MLOAD DUP1 SWAP2 SUB SWAP1 REVERT JUMPDEST PUSH2 0xD00 PUSH1 0x3 DUP6 DUP2 SLOAD DUP2 LT PUSH2 0xCE9 JUMPI PUSH2 0xCE8 PUSH2 0x161C JUMP JUMPDEST JUMPDEST SWAP1 PUSH1 0x0 MSTORE PUSH1 0x20 PUSH1 0x0 KECCAK256 SWAP1 PUSH1 0x2 MUL ADD PUSH1 0x0 ADD SLOAD PUSH2 0xDDE JUMP JUMPDEST PUSH1 0x3 DUP6 DUP2 SLOAD DUP2 LT PUSH2 0xD14 JUMPI PUSH2 0xD13 PUSH2 0x161C JUMP JUMPDEST JUMPDEST SWAP1 PUSH1 0x0 MSTORE PUSH1 0x20 PUSH1 0x0 KECCAK256 SWAP1 PUSH1 0x2 MUL ADD PUSH1 0x1 ADD SLOAD DUP1 SWAP4 POP DUP2 SWAP5 POP POP POP POP SWAP2 POP SWAP2 JUMP JUMPDEST PUSH1 0x1 PUSH1 0x0 SWAP1 SLOAD SWAP1 PUSH2 0x100 EXP SWAP1 DIV PUSH20 0xFFFFFFFFFFFFFFFFFFFFFFFFFFFFFFFFFFFFFFFF AND DUP2 JUMP JUMPDEST PUSH1 0x0 SLOAD DUP2 JUMP JUMPDEST PUSH1 0x60 PUSH2 0xD6A PUSH2 0xE07 JUMP JUMPDEST PUSH1 0x4 DUP1 SLOAD DUP1 PUSH1 0x20 MUL PUSH1 0x20 ADD PUSH1 0x40 MLOAD SWAP1 DUP2 ADD PUSH1 0x40 MSTORE DUP1 SWAP3 SWAP2 SWAP1 DUP2 DUP2 MSTORE PUSH1 0x20 ADD DUP3 DUP1 SLOAD DUP1 ISZERO PUSH2 0xDB6 JUMPI PUSH1 0x20 MUL DUP3 ADD SWAP2 SWAP1 PUSH1 0x0 MSTORE PUSH1 0x20 PUSH1 0x0 KECCAK256 SWAP1 JUMPDEST DUP2 SLOAD DUP2 MSTORE PUSH1 0x20 ADD SWAP1 PUSH1 0x1 ADD SWAP1 DUP1 DUP4 GT PUSH2 0xDA2 JUMPI JUMPDEST POP POP POP POP POP SWAP1 POP SWAP1 JUMP JUMPDEST PUSH1 0x0 DUP2 DUP4 PUSH2 0xDCE SWAP2 SWAP1 PUSH2 0x14BF JUMP JUMPDEST SWAP1 POP SWAP3 SWAP2 POP POP JUMP JUMPDEST PUSH1 0x0 CALLER SWAP1 POP SWAP1 JUMP JUMPDEST PUSH1 0x60 DUP2 PUSH1 0x40 MLOAD PUSH1 0x20 ADD PUSH2 0xDF1 SWAP2 SWAP1 PUSH2 0x1237 JUMP JUMPDEST PUSH1 0x40 MLOAD PUSH1 0x20 DUP2 DUP4 SUB SUB DUP2 MSTORE SWAP1 PUSH1 0x40 MSTORE SWAP1 POP SWAP2 SWAP1 POP JUMP JUMPDEST PUSH1 0x0 DUP1 PUSH1 0x0 JUMPDEST PUSH1 0x3 DUP1 SLOAD SWAP1 POP DUP2 LT ISZERO PUSH2 0xEAC JUMPI DUP3 PUSH1 0x3 DUP3 DUP2 SLOAD DUP2 LT PUSH2 0xE2F JUMPI PUSH2 0xE2E PUSH2 0x161C JUMP JUMPDEST JUMPDEST SWAP1 PUSH1 0x0 MSTORE PUSH1 0x20 PUSH1 0x0 KECCAK256 SWAP1 PUSH1 0x2 MUL ADD PUSH1 0x1 ADD SLOAD GT ISZERO PUSH2 0xE99 JUMPI PUSH1 0x3 DUP2 DUP2 SLOAD DUP2 LT PUSH2 0xE5B JUMPI PUSH2 0xE5A PUSH2 0x161C JUMP JUMPDEST JUMPDEST SWAP1 PUSH1 0x0 MSTORE PUSH1 0x20 PUSH1 0x0 KECCAK256 SWAP1 PUSH1 0x2 MUL ADD PUSH1 0x1 ADD SLOAD SWAP3 POP PUSH1 0x4 DUP2 SWAP1 DUP1 PUSH1 0x1 DUP2 SLOAD ADD DUP1 DUP3 SSTORE DUP1 SWAP2 POP POP PUSH1 0x1 SWAP1 SUB SWAP1 PUSH1 0x0 MSTORE PUSH1 0x20 PUSH1 0x0 KECCAK256 ADD PUSH1 0x0 SWAP1 SWAP2 SWAP1 SWAP2 SWAP1 SWAP2 POP SSTORE JUMPDEST DUP1 DUP1 PUSH2 0xEA4 SWAP1 PUSH2 0x159A JUMP JUMPDEST SWAP2 POP POP PUSH2 0xE0D JUMP JUMPDEST POP PUSH1 0x0 JUMPDEST PUSH1 0x3 DUP1 SLOAD SWAP1 POP DUP2 LT ISZERO PUSH2 0xF60 JUMPI PUSH1 0x3 DUP3 DUP2 SLOAD DUP2 LT PUSH2 0xED1 JUMPI PUSH2 0xED0 PUSH2 0x161C JUMP JUMPDEST JUMPDEST SWAP1 PUSH1 0x0 MSTORE PUSH1 0x20 PUSH1 0x0 KECCAK256 SWAP1 PUSH1 0x2 MUL ADD PUSH1 0x1 ADD SLOAD PUSH1 0x3 DUP3 DUP2 SLOAD DUP2 LT PUSH2 0xEF7 JUMPI PUSH2 0xEF6 PUSH2 0x161C JUMP JUMPDEST JUMPDEST SWAP1 PUSH1 0x0 MSTORE PUSH1 0x20 PUSH1 0x0 KECCAK256 SWAP1 PUSH1 0x2 MUL ADD PUSH1 0x1 ADD SLOAD EQ DUP1 ISZERO PUSH2 0xF16 JUMPI POP DUP2 DUP2 EQ ISZERO JUMPDEST ISZERO PUSH2 0xF45 JUMPI PUSH1 0x4 DUP2 SWAP1 DUP1 PUSH1 0x1 DUP2 SLOAD ADD DUP1 DUP3 SSTORE DUP1 SWAP2 POP POP PUSH1 0x1 SWAP1 SUB SWAP1 PUSH1 0x0 MSTORE PUSH1 0x20 PUSH1 0x0 KECCAK256 ADD PUSH1 0x0 SWAP1 SWAP2 SWAP1 SWAP2 SWAP1 SWAP2 POP SSTORE JUMPDEST PUSH2 0xF59 PUSH1 0x1 DUP3 PUSH2 0xDC0 SWAP1 SWAP2 SWAP1 PUSH4 0xFFFFFFFF AND JUMP JUMPDEST SWAP1 POP PUSH2 0xEB0 JUMP JUMPDEST POP POP POP JUMP JUMPDEST PUSH1 0x0 DUP2 CALLDATALOAD SWAP1 POP PUSH2 0xF74 DUP2 PUSH2 0x188A JUMP JUMPDEST SWAP3 SWAP2 POP POP JUMP JUMPDEST PUSH1 0x0 DUP2 CALLDATALOAD SWAP1 POP PUSH2 0xF89 DUP2 PUSH2 0x18A1 JUMP JUMPDEST SWAP3 SWAP2 POP POP JUMP JUMPDEST PUSH1 0x0 PUSH1 0x20 DUP3 DUP5 SUB SLT ISZERO PUSH2 0xFA5 JUMPI PUSH2 0xFA4 PUSH2 0x164B JUMP JUMPDEST JUMPDEST PUSH1 0x0 PUSH2 0xFB3 DUP5 DUP3 DUP6 ADD PUSH2 0xF65 JUMP JUMPDEST SWAP2 POP POP SWAP3 SWAP2 POP POP JUMP JUMPDEST PUSH1 0x0 PUSH1 0x20 DUP3 DUP5 SUB SLT ISZERO PUSH2 0xFD2 JUMPI PUSH2 0xFD1 PUSH2 0x164B JUMP JUMPDEST JUMPDEST PUSH1 0x0 PUSH2 0xFE0 DUP5 DUP3 DUP6 ADD PUSH2 0xF7A JUMP JUMPDEST SWAP2 POP POP SWAP3 SWAP2 POP POP JUMP JUMPDEST PUSH1 0x0 PUSH2 0xFF5 DUP4 DUP4 PUSH2 0x1219 JUMP JUMPDEST PUSH1 0x20 DUP4 ADD SWAP1 POP SWAP3 SWAP2 POP POP JUMP JUMPDEST PUSH2 0x100A DUP2 PUSH2 0x1515 JUMP JUMPDEST DUP3 MSTORE POP POP JUMP JUMPDEST PUSH1 0x0 PUSH2 0x101B DUP3 PUSH2 0x1464 JUMP JUMPDEST PUSH2 0x1025 DUP2 DUP6 PUSH2 0x1492 JUMP JUMPDEST SWAP4 POP PUSH2 0x1030 DUP4 PUSH2 0x1454 JUMP JUMPDEST DUP1 PUSH1 0x0 JUMPDEST DUP4 DUP2 LT ISZERO PUSH2 0x1061 JUMPI DUP2 MLOAD PUSH2 0x1048 DUP9 DUP3 PUSH2 0xFE9 JUMP JUMPDEST SWAP8 POP PUSH2 0x1053 DUP4 PUSH2 0x1485 JUMP JUMPDEST SWAP3 POP POP PUSH1 0x1 DUP2 ADD SWAP1 POP PUSH2 0x1034 JUMP JUMPDEST POP DUP6 SWAP4 POP POP POP POP SWAP3 SWAP2 POP POP JUMP JUMPDEST PUSH2 0x1077 DUP2 PUSH2 0x1527 JUMP JUMPDEST DUP3 MSTORE POP POP JUMP JUMPDEST PUSH2 0x108E PUSH2 0x1089 DUP3 PUSH2 0x1533 JUMP JUMPDEST PUSH2 0x15E3 JUMP JUMPDEST DUP3 MSTORE POP POP JUMP JUMPDEST PUSH1 0x0 PUSH2 0x109F DUP3 PUSH2 0x146F JUMP JUMPDEST PUSH2 0x10A9 DUP2 DUP6 PUSH2 0x14A3 JUMP JUMPDEST SWAP4 POP PUSH2 0x10B9 DUP2 DUP6 PUSH1 0x20 DUP7 ADD PUSH2 0x1567 JUMP JUMPDEST DUP1 DUP5 ADD SWAP2 POP POP SWAP3 SWAP2 POP POP JUMP JUMPDEST PUSH1 0x0 PUSH2 0x10D0 DUP3 PUSH2 0x147A JUMP JUMPDEST PUSH2 0x10DA DUP2 DUP6 PUSH2 0x14AE JUMP JUMPDEST SWAP4 POP PUSH2 0x10EA DUP2 DUP6 PUSH1 0x20 DUP7 ADD PUSH2 0x1567 JUMP JUMPDEST PUSH2 0x10F3 DUP2 PUSH2 0x1650 JUMP JUMPDEST DUP5 ADD SWAP2 POP POP SWAP3 SWAP2 POP POP JUMP JUMPDEST PUSH1 0x0 PUSH2 0x110B PUSH1 0x2A DUP4 PUSH2 0x14AE JUMP JUMPDEST SWAP2 POP PUSH2 0x1116 DUP3 PUSH2 0x1661 JUMP JUMPDEST PUSH1 0x40 DUP3 ADD SWAP1 POP SWAP2 SWAP1 POP JUMP JUMPDEST PUSH1 0x0 PUSH2 0x112E PUSH1 0x36 DUP4 PUSH2 0x14AE JUMP JUMPDEST SWAP2 POP PUSH2 0x1139 DUP3 PUSH2 0x16B0 JUMP JUMPDEST PUSH1 0x40 DUP3 ADD SWAP1 POP SWAP2 SWAP1 POP JUMP JUMPDEST PUSH1 0x0 PUSH2 0x1151 PUSH1 0x31 DUP4 PUSH2 0x14AE JUMP JUMPDEST SWAP2 POP PUSH2 0x115C DUP3 PUSH2 0x16FF JUMP JUMPDEST PUSH1 0x40 DUP3 ADD SWAP1 POP SWAP2 SWAP1 POP JUMP JUMPDEST PUSH32 0x2000000000000000000000000000000000000000000000000000000000000000 DUP2 MSTORE POP JUMP JUMPDEST PUSH1 0x0 PUSH2 0x119A PUSH1 0x2D DUP4 PUSH2 0x14AE JUMP JUMPDEST SWAP2 POP PUSH2 0x11A5 DUP3 PUSH2 0x174E JUMP JUMPDEST PUSH1 0x40 DUP3 ADD SWAP1 POP SWAP2 SWAP1 POP JUMP JUMPDEST PUSH1 0x0 PUSH2 0x11BD PUSH1 0x30 DUP4 PUSH2 0x14AE JUMP JUMPDEST SWAP2 POP PUSH2 0x11C8 DUP3 PUSH2 0x179D JUMP JUMPDEST PUSH1 0x40 DUP3 ADD SWAP1 POP SWAP2 SWAP1 POP JUMP JUMPDEST PUSH1 0x0 PUSH2 0x11E0 PUSH1 0x2B DUP4 PUSH2 0x14AE JUMP JUMPDEST SWAP2 POP PUSH2 0x11EB DUP3 PUSH2 0x17EC JUMP JUMPDEST PUSH1 0x40 DUP3 ADD SWAP1 POP SWAP2 SWAP1 POP JUMP JUMPDEST PUSH1 0x0 PUSH2 0x1203 PUSH1 0x2F DUP4 PUSH2 0x14AE JUMP JUMPDEST SWAP2 POP PUSH2 0x120E DUP3 PUSH2 0x183B JUMP JUMPDEST PUSH1 0x40 DUP3 ADD SWAP1 POP SWAP2 SWAP1 POP JUMP JUMPDEST PUSH2 0x1222 DUP2 PUSH2 0x155D JUMP JUMPDEST DUP3 MSTORE POP POP JUMP JUMPDEST PUSH2 0x1231 DUP2 PUSH2 0x155D JUMP JUMPDEST DUP3 MSTORE POP POP JUMP JUMPDEST PUSH1 0x0 PUSH2 0x1243 DUP3 DUP5 PUSH2 0x107D JUMP JUMPDEST PUSH1 0x20 DUP3 ADD SWAP2 POP DUP2 SWAP1 POP SWAP3 SWAP2 POP POP JUMP JUMPDEST PUSH1 0x0 PUSH2 0x125E DUP3 DUP6 PUSH2 0x1094 JUMP JUMPDEST SWAP2 POP PUSH2 0x1269 DUP3 PUSH2 0x1167 JUMP JUMPDEST PUSH1 0x1 DUP3 ADD SWAP2 POP PUSH2 0x1279 DUP3 DUP5 PUSH2 0x1094 JUMP JUMPDEST SWAP2 POP DUP2 SWAP1 POP SWAP4 SWAP3 POP POP POP JUMP JUMPDEST PUSH1 0x0 PUSH1 0x20 DUP3 ADD SWAP1 POP PUSH2 0x129A PUSH1 0x0 DUP4 ADD DUP5 PUSH2 0x1001 JUMP JUMPDEST SWAP3 SWAP2 POP POP JUMP JUMPDEST PUSH1 0x0 PUSH1 0x20 DUP3 ADD SWAP1 POP DUP2 DUP2 SUB PUSH1 0x0 DUP4 ADD MSTORE PUSH2 0x12BA DUP2 DUP5 PUSH2 0x1010 JUMP JUMPDEST SWAP1 POP SWAP3 SWAP2 POP POP JUMP JUMPDEST PUSH1 0x0 PUSH1 0x20 DUP3 ADD SWAP1 POP DUP2 DUP2 SUB PUSH1 0x0 DUP4 ADD MSTORE PUSH2 0x12DC DUP2 DUP5 PUSH2 0x10C5 JUMP JUMPDEST SWAP1 POP SWAP3 SWAP2 POP POP JUMP JUMPDEST PUSH1 0x0 PUSH1 0x40 DUP3 ADD SWAP1 POP DUP2 DUP2 SUB PUSH1 0x0 DUP4 ADD MSTORE PUSH2 0x12FE DUP2 DUP6 PUSH2 0x10C5 JUMP JUMPDEST SWAP1 POP PUSH2 0x130D PUSH1 0x20 DUP4 ADD DUP5 PUSH2 0x1228 JUMP JUMPDEST SWAP4 SWAP3 POP POP POP JUMP JUMPDEST PUSH1 0x0 PUSH1 0x20 DUP3 ADD SWAP1 POP DUP2 DUP2 SUB PUSH1 0x0 DUP4 ADD MSTORE PUSH2 0x132D DUP2 PUSH2 0x10FE JUMP JUMPDEST SWAP1 POP SWAP2 SWAP1 POP JUMP JUMPDEST PUSH1 0x0 PUSH1 0x20 DUP3 ADD SWAP1 POP DUP2 DUP2 SUB PUSH1 0x0 DUP4 ADD MSTORE PUSH2 0x134D DUP2 PUSH2 0x1121 JUMP JUMPDEST SWAP1 POP SWAP2 SWAP1 POP JUMP JUMPDEST PUSH1 0x0 PUSH1 0x20 DUP3 ADD SWAP1 POP DUP2 DUP2 SUB PUSH1 0x0 DUP4 ADD MSTORE PUSH2 0x136D DUP2 PUSH2 0x1144 JUMP JUMPDEST SWAP1 POP SWAP2 SWAP1 POP JUMP JUMPDEST PUSH1 0x0 PUSH1 0x20 DUP3 ADD SWAP1 POP DUP2 DUP2 SUB PUSH1 0x0 DUP4 ADD MSTORE PUSH2 0x138D DUP2 PUSH2 0x118D JUMP JUMPDEST SWAP1 POP SWAP2 SWAP1 POP JUMP JUMPDEST PUSH1 0x0 PUSH1 0x20 DUP3 ADD SWAP1 POP DUP2 DUP2 SUB PUSH1 0x0 DUP4 ADD MSTORE PUSH2 0x13AD DUP2 PUSH2 0x11B0 JUMP JUMPDEST SWAP1 POP SWAP2 SWAP1 POP JUMP JUMPDEST PUSH1 0x0 PUSH1 0x20 DUP3 ADD SWAP1 POP DUP2 DUP2 SUB PUSH1 0x0 DUP4 ADD MSTORE PUSH2 0x13CD DUP2 PUSH2 0x11D3 JUMP JUMPDEST SWAP1 POP SWAP2 SWAP1 POP JUMP JUMPDEST PUSH1 0x0 PUSH1 0x20 DUP3 ADD SWAP1 POP DUP2 DUP2 SUB PUSH1 0x0 DUP4 ADD MSTORE PUSH2 0x13ED DUP2 PUSH2 0x11F6 JUMP JUMPDEST SWAP1 POP SWAP2 SWAP1 POP JUMP JUMPDEST PUSH1 0x0 PUSH1 0x20 DUP3 ADD SWAP1 POP PUSH2 0x1409 PUSH1 0x0 DUP4 ADD DUP5 PUSH2 0x1228 JUMP JUMPDEST SWAP3 SWAP2 POP POP JUMP JUMPDEST PUSH1 0x0 PUSH1 0x80 DUP3 ADD SWAP1 POP PUSH2 0x1424 PUSH1 0x0 DUP4 ADD DUP8 PUSH2 0x1228 JUMP JUMPDEST PUSH2 0x1431 PUSH1 0x20 DUP4 ADD DUP7 PUSH2 0x106E JUMP JUMPDEST PUSH2 0x143E PUSH1 0x40 DUP4 ADD DUP6 PUSH2 0x1001 JUMP JUMPDEST PUSH2 0x144B PUSH1 0x60 DUP4 ADD DUP5 PUSH2 0x1228 JUMP JUMPDEST SWAP6 SWAP5 POP POP POP POP POP JUMP JUMPDEST PUSH1 0x0 DUP2 SWAP1 POP PUSH1 0x20 DUP3 ADD SWAP1 POP SWAP2 SWAP1 POP JUMP JUMPDEST PUSH1 0x0 DUP2 MLOAD SWAP1 POP SWAP2 SWAP1 POP JUMP JUMPDEST PUSH1 0x0 DUP2 MLOAD SWAP1 POP SWAP2 SWAP1 POP JUMP JUMPDEST PUSH1 0x0 DUP2 MLOAD SWAP1 POP SWAP2 SWAP1 POP JUMP JUMPDEST PUSH1 0x0 PUSH1 0x20 DUP3 ADD SWAP1 POP SWAP2 SWAP1 POP JUMP JUMPDEST PUSH1 0x0 DUP3 DUP3 MSTORE PUSH1 0x20 DUP3 ADD SWAP1 POP SWAP3 SWAP2 POP POP JUMP JUMPDEST PUSH1 0x0 DUP2 SWAP1 POP SWAP3 SWAP2 POP POP JUMP JUMPDEST PUSH1 0x0 DUP3 DUP3 MSTORE PUSH1 0x20 DUP3 ADD SWAP1 POP SWAP3 SWAP2 POP POP JUMP JUMPDEST PUSH1 0x0 PUSH2 0x14CA DUP3 PUSH2 0x155D JUMP JUMPDEST SWAP2 POP PUSH2 0x14D5 DUP4 PUSH2 0x155D JUMP JUMPDEST SWAP3 POP DUP3 PUSH32 0xFFFFFFFFFFFFFFFFFFFFFFFFFFFFFFFFFFFFFFFFFFFFFFFFFFFFFFFFFFFFFFFF SUB DUP3 GT ISZERO PUSH2 0x150A JUMPI PUSH2 0x1509 PUSH2 0x15ED JUMP JUMPDEST JUMPDEST DUP3 DUP3 ADD SWAP1 POP SWAP3 SWAP2 POP POP JUMP JUMPDEST PUSH1 0x0 PUSH2 0x1520 DUP3 PUSH2 0x153D JUMP JUMPDEST SWAP1 POP SWAP2 SWAP1 POP JUMP JUMPDEST PUSH1 0x0 DUP2 ISZERO ISZERO SWAP1 POP SWAP2 SWAP1 POP JUMP JUMPDEST PUSH1 0x0 DUP2 SWAP1 POP SWAP2 SWAP1 POP JUMP JUMPDEST PUSH1 0x0 PUSH20 0xFFFFFFFFFFFFFFFFFFFFFFFFFFFFFFFFFFFFFFFF DUP3 AND SWAP1 POP SWAP2 SWAP1 POP JUMP JUMPDEST PUSH1 0x0 DUP2 SWAP1 POP SWAP2 SWAP1 POP JUMP JUMPDEST PUSH1 0x0 JUMPDEST DUP4 DUP2 LT ISZERO PUSH2 0x1585 JUMPI DUP1 DUP3 ADD MLOAD DUP2 DUP5 ADD MSTORE PUSH1 0x20 DUP2 ADD SWAP1 POP PUSH2 0x156A JUMP JUMPDEST DUP4 DUP2 GT ISZERO PUSH2 0x1594 JUMPI PUSH1 0x0 DUP5 DUP5 ADD MSTORE JUMPDEST POP POP POP POP JUMP JUMPDEST PUSH1 0x0 PUSH2 0x15A5 DUP3 PUSH2 0x155D JUMP JUMPDEST SWAP2 POP PUSH32 0xFFFFFFFFFFFFFFFFFFFFFFFFFFFFFFFFFFFFFFFFFFFFFFFFFFFFFFFFFFFFFFFF DUP3 EQ ISZERO PUSH2 0x15D8 JUMPI PUSH2 0x15D7 PUSH2 0x15ED JUMP JUMPDEST JUMPDEST PUSH1 0x1 DUP3 ADD SWAP1 POP SWAP2 SWAP1 POP JUMP JUMPDEST PUSH1 0x0 DUP2 SWAP1 POP SWAP2 SWAP1 POP JUMP JUMPDEST PUSH32 0x4E487B7100000000000000000000000000000000000000000000000000000000 PUSH1 0x0 MSTORE PUSH1 0x11 PUSH1 0x4 MSTORE PUSH1 0x24 PUSH1 0x0 REVERT JUMPDEST PUSH32 0x4E487B7100000000000000000000000000000000000000000000000000000000 PUSH1 0x0 MSTORE PUSH1 0x32 PUSH1 0x4 MSTORE PUSH1 0x24 PUSH1 0x0 REVERT JUMPDEST PUSH1 0x0 DUP1 REVERT JUMPDEST PUSH1 0x0 PUSH1 0x1F NOT PUSH1 0x1F DUP4 ADD AND SWAP1 POP SWAP2 SWAP1 POP JUMP JUMPDEST PUSH32 0x53696D706C65566F74696E673A2054686520766F7465722068617320616C7265 PUSH1 0x0 DUP3 ADD MSTORE PUSH32 0x61647920766F7465642E00000000000000000000000000000000000000000000 PUSH1 0x20 DUP3 ADD MSTORE POP JUMP JUMPDEST PUSH32 0x53696D706C65566F74696E673A204F6E6C79206368616972506572736F6E2063 PUSH1 0x0 DUP3 ADD MSTORE PUSH32 0x616E206769766520726967687420746F20766F74652E00000000000000000000 PUSH1 0x20 DUP3 ADD MSTORE POP JUMP JUMPDEST PUSH32 0x53696D706C65566F74696E673A2043616C6C657220646F6573206E6F74206861 PUSH1 0x0 DUP3 ADD MSTORE PUSH32 0x766520726967687420746F20766F74652E000000000000000000000000000000 PUSH1 0x20 DUP3 ADD MSTORE POP JUMP JUMPDEST PUSH32 0x53696D706C65566F74696E673A2053656C662D64656C65676174696F6E206973 PUSH1 0x0 DUP3 ADD MSTORE PUSH32 0x206E6F7420616C6C6F7765642E00000000000000000000000000000000000000 PUSH1 0x20 DUP3 ADD MSTORE POP JUMP JUMPDEST PUSH32 0x53696D706C65566F74696E673A204164647265737320616C7265616479206861 PUSH1 0x0 DUP3 ADD MSTORE PUSH32 0x7320726967687420746F20766F74652E00000000000000000000000000000000 PUSH1 0x20 DUP3 ADD MSTORE POP JUMP JUMPDEST PUSH32 0x53696D706C65566F74696E673A2050726F706F73616C20696E646578206F7574 PUSH1 0x0 DUP3 ADD MSTORE PUSH32 0x206F6620626F756E64732E000000000000000000000000000000000000000000 PUSH1 0x20 DUP3 ADD MSTORE POP JUMP JUMPDEST PUSH32 0x53696D706C65566F74696E673A2044656C65676174696F6E2074726163657320 PUSH1 0x0 DUP3 ADD MSTORE PUSH32 0x6261636B20746F2063616C6C65722E0000000000000000000000000000000000 PUSH1 0x20 DUP3 ADD MSTORE POP JUMP JUMPDEST PUSH2 0x1893 DUP2 PUSH2 0x1515 JUMP JUMPDEST DUP2 EQ PUSH2 0x189E JUMPI PUSH1 0x0 DUP1 REVERT JUMPDEST POP JUMP JUMPDEST PUSH2 0x18AA DUP2 PUSH2 0x155D JUMP JUMPDEST DUP2 EQ PUSH2 0x18B5 JUMPI PUSH1 0x0 DUP1 REVERT JUMPDEST POP JUMP INVALID LOG2 PUSH5 0x6970667358 0x22 SLT KECCAK256 0xB7 SWAP5 CALLDATALOAD 0xCD CODECOPY ADDMOD 0x21 0xCB 0xD6 MOD DUP13 0xAB NUMBER 0xD6 ORIGIN DUP12 JUMP 0xD5 0xD2 0x21 0xF6 0xE5 0xCA SHR 0xD7 SWAP11 PUSH21 0xB1383C3E7364736F6C634300080700330000000000 "
				},
				"gasEstimates": {
					"creation": {
						"codeDepositCost": "1276400",
						"executionCost": "infinite",
						"totalCost": "infinite"
					},
					"external": {
						"chairPerson()": "2558",
						"delegate(address)": "infinite",
						"getProposal(uint256)": "infinite",
						"getWinningProposals()": "infinite",
						"giveRightToVote(address)": "29413",
						"proposalCount()": "2495",
						"vote(uint256)": "infinite",
						"voters(address)": "infinite",
						"winnerNames()": "infinite"
					},
					"internal": {
						"bytes32ToString(bytes32)": "infinite",
						"computeWinningProposals()": "infinite",
						"stringToBytes32(string memory)": "infinite"
					}
				},
				"methodIdentifiers": {
					"chairPerson()": "d4d4b5ac",
					"delegate(address)": "5c19a95c",
					"getProposal(uint256)": "c7f758a8",
					"getWinningProposals()": "ef788cd5",
					"giveRightToVote(address)": "9e7b8d61",
					"proposalCount()": "da35c664",
					"vote(uint256)": "0121b93f",
					"voters(address)": "a3ec138d",
					"winnerNames()": "28be18ee"
				}
			},
			"storageLayout": {
				"storage": [
					{
						"astId": 25,
						"contract": "contracts/SimpleVoting.sol:SimpleVoting",
						"label": "proposalCount",
						"offset": 0,
						"slot": "0",
						"type": "t_uint256"
					},
					{
						"astId": 27,
						"contract": "contracts/SimpleVoting.sol:SimpleVoting",
						"label": "chairPerson",
						"offset": 0,
						"slot": "1",
						"type": "t_address"
					},
					{
						"astId": 32,
						"contract": "contracts/SimpleVoting.sol:SimpleVoting",
						"label": "voters",
						"offset": 0,
						"slot": "2",
						"type": "t_mapping(t_address,t_struct(Voter)18_storage)"
					},
					{
						"astId": 36,
						"contract": "contracts/SimpleVoting.sol:SimpleVoting",
						"label": "proposals",
						"offset": 0,
						"slot": "3",
						"type": "t_array(t_struct(Proposal)23_storage)dyn_storage"
					},
					{
						"astId": 39,
						"contract": "contracts/SimpleVoting.sol:SimpleVoting",
						"label": "winningProposals",
						"offset": 0,
						"slot": "4",
						"type": "t_array(t_uint256)dyn_storage"
					}
				],
				"types": {
					"t_address": {
						"encoding": "inplace",
						"label": "address",
						"numberOfBytes": "20"
					},
					"t_array(t_struct(Proposal)23_storage)dyn_storage": {
						"base": "t_struct(Proposal)23_storage",
						"encoding": "dynamic_array",
						"label": "struct SimpleVoting.Proposal[]",
						"numberOfBytes": "32"
					},
					"t_array(t_uint256)dyn_storage": {
						"base": "t_uint256",
						"encoding": "dynamic_array",
						"label": "uint256[]",
						"numberOfBytes": "32"
					},
					"t_bool": {
						"encoding": "inplace",
						"label": "bool",
						"numberOfBytes": "1"
					},
					"t_bytes32": {
						"encoding": "inplace",
						"label": "bytes32",
						"numberOfBytes": "32"
					},
					"t_mapping(t_address,t_struct(Voter)18_storage)": {
						"encoding": "mapping",
						"key": "t_address",
						"label": "mapping(address => struct SimpleVoting.Voter)",
						"numberOfBytes": "32",
						"value": "t_struct(Voter)18_storage"
					},
					"t_struct(Proposal)23_storage": {
						"encoding": "inplace",
						"label": "struct SimpleVoting.Proposal",
						"members": [
							{
								"astId": 20,
								"contract": "contracts/SimpleVoting.sol:SimpleVoting",
								"label": "name",
								"offset": 0,
								"slot": "0",
								"type": "t_bytes32"
							},
							{
								"astId": 22,
								"contract": "contracts/SimpleVoting.sol:SimpleVoting",
								"label": "voteCount",
								"offset": 0,
								"slot": "1",
								"type": "t_uint256"
							}
						],
						"numberOfBytes": "64"
					},
					"t_struct(Voter)18_storage": {
						"encoding": "inplace",
						"label": "struct SimpleVoting.Voter",
						"members": [
							{
								"astId": 11,
								"contract": "contracts/SimpleVoting.sol:SimpleVoting",
								"label": "weight",
								"offset": 0,
								"slot": "0",
								"type": "t_uint256"
							},
							{
								"astId": 13,
								"contract": "contracts/SimpleVoting.sol:SimpleVoting",
								"label": "voted",
								"offset": 0,
								"slot": "1",
								"type": "t_bool"
							},
							{
								"astId": 15,
								"contract": "contracts/SimpleVoting.sol:SimpleVoting",
								"label": "delegate",
								"offset": 1,
								"slot": "1",
								"type": "t_address"
							},
							{
								"astId": 17,
								"contract": "contracts/SimpleVoting.sol:SimpleVoting",
								"label": "vote",
								"offset": 0,
								"slot": "2",
								"type": "t_uint256"
							}
						],
						"numberOfBytes": "96"
					},
					"t_uint256": {
						"encoding": "inplace",
						"label": "uint256",
						"numberOfBytes": "32"
					}
				}
			},
			"userdoc": {
				"kind": "user",
				"methods": {},
				"version": 1
			}
		}
	}
}