{
	"contracts/SimpleVoting.sol": {
		"SimpleVoting": {
			"abi": [
				{
					"inputs": [
						{
							"internalType": "string[]",
							"name": "proposalNames",
							"type": "string[]"
						}
					],
					"stateMutability": "nonpayable",
					"type": "constructor"
				},
				{
					"anonymous": false,
					"inputs": [
						{
							"indexed": true,
							"internalType": "address",
							"name": "_from",
							"type": "address"
						},
						{
							"indexed": true,
							"internalType": "address",
							"name": "_to",
							"type": "address"
						}
					],
					"name": "DelegationSuccessful",
					"type": "event"
				},
				{
					"anonymous": false,
					"inputs": [
						{
							"indexed": true,
							"internalType": "uint256",
							"name": "_proposal",
							"type": "uint256"
						},
						{
							"indexed": true,
							"internalType": "address",
							"name": "_voter",
							"type": "address"
						},
						{
							"indexed": false,
							"internalType": "uint256",
							"name": "_votesAdded",
							"type": "uint256"
						}
					],
					"name": "VoteCasted",
					"type": "event"
				},
				{
					"anonymous": false,
					"inputs": [
						{
							"indexed": false,
							"internalType": "address",
							"name": "_chairPerson",
							"type": "address"
						},
						{
							"indexed": false,
							"internalType": "uint256",
							"name": "_proposalCount",
							"type": "uint256"
						}
					],
					"name": "VotingStarted",
					"type": "event"
				},
				{
					"inputs": [],
					"name": "chairPerson",
					"outputs": [
						{
							"internalType": "address",
							"name": "",
							"type": "address"
						}
					],
					"stateMutability": "view",
					"type": "function"
				},
				{
					"inputs": [
						{
							"internalType": "address",
							"name": "_to",
							"type": "address"
						}
					],
					"name": "delegate",
					"outputs": [],
					"stateMutability": "nonpayable",
					"type": "function"
				},
				{
					"inputs": [
						{
							"internalType": "uint256",
							"name": "_proposalIndex",
							"type": "uint256"
						}
					],
					"name": "getProposal",
					"outputs": [
						{
							"components": [
								{
									"internalType": "bytes32",
									"name": "name",
									"type": "bytes32"
								},
								{
									"internalType": "uint256",
									"name": "voteCount",
									"type": "uint256"
								}
							],
							"internalType": "struct SimpleVoting.Proposal",
							"name": "proposal",
							"type": "tuple"
						}
					],
					"stateMutability": "view",
					"type": "function"
				},
				{
					"inputs": [
						{
							"internalType": "address",
							"name": "_voter",
							"type": "address"
						}
					],
					"name": "giveRightToVote",
					"outputs": [],
					"stateMutability": "nonpayable",
					"type": "function"
				},
				{
					"inputs": [],
					"name": "proposalCount",
					"outputs": [
						{
							"internalType": "uint256",
							"name": "",
							"type": "uint256"
						}
					],
					"stateMutability": "view",
					"type": "function"
				},
				{
					"inputs": [
						{
							"internalType": "uint256",
							"name": "proposal",
							"type": "uint256"
						}
					],
					"name": "vote",
					"outputs": [],
					"stateMutability": "nonpayable",
					"type": "function"
				},
				{
					"inputs": [
						{
							"internalType": "address",
							"name": "",
							"type": "address"
						}
					],
					"name": "voters",
					"outputs": [
						{
							"internalType": "uint256",
							"name": "weight",
							"type": "uint256"
						},
						{
							"internalType": "bool",
							"name": "voted",
							"type": "bool"
						},
						{
							"internalType": "address",
							"name": "delegate",
							"type": "address"
						},
						{
							"internalType": "uint256",
							"name": "vote",
							"type": "uint256"
						}
					],
					"stateMutability": "view",
					"type": "function"
				},
				{
					"inputs": [],
					"name": "winnerName",
					"outputs": [
						{
							"internalType": "string",
							"name": "",
							"type": "string"
						}
					],
					"stateMutability": "view",
					"type": "function"
				},
				{
					"inputs": [],
					"name": "winningProposal",
					"outputs": [
						{
							"internalType": "uint256",
							"name": "winningProposal_",
							"type": "uint256"
						}
					],
					"stateMutability": "view",
					"type": "function"
				}
			],
			"devdoc": {
				"details": "Implements voting process along with vote delegation",
				"kind": "dev",
				"methods": {
					"constructor": {
						"details": "Create a new ballot to choose one of 'proposalNames'.",
						"params": {
							"proposalNames": "names of proposals"
						}
					},
					"delegate(address)": {
						"details": "Delegate your vote to the voter 'to'.",
						"params": {
							"_to": "address to which vote is delegated"
						}
					},
					"giveRightToVote(address)": {
						"details": "Give 'voter' the right to vote on this ballot. May only be called by 'chairPerson'.",
						"params": {
							"_voter": "address of voter"
						}
					},
					"vote(uint256)": {
						"details": "Give your vote (including votes delegated to you) to proposal 'proposals[proposal].name'.",
						"params": {
							"proposal": "index of proposal in the proposals array"
						}
					},
					"winnerName()": {
						"details": "Calls winningProposal() function to get the index of the winner contained in the proposals array and then",
						"returns": {
							"_0": "winnerName_ the name of the winner"
						}
					},
					"winningProposal()": {
						"details": "Computes the winning proposal taking all previous votes into account.",
						"returns": {
							"winningProposal_": "index of winning proposal in the proposals array"
						}
					}
				},
				"title": "Ballot",
				"version": 1
			},
			"evm": {
				"assembly": "    /* \"contracts/SimpleVoting.sol\":371:6822  contract SimpleVoting is Context {\r... */\n  mstore(0x40, 0x80)\n    /* \"contracts/SimpleVoting.sol\":1930:2533  constructor(string[] memory proposalNames) {\r... */\n  callvalue\n  dup1\n  iszero\n  tag_1\n  jumpi\n  0x00\n  dup1\n  revert\ntag_1:\n  pop\n  mload(0x40)\n  sub(codesize, bytecodeSize)\n  dup1\n  bytecodeSize\n  dup4\n  codecopy\n  dup2\n  dup2\n  add\n  0x40\n  mstore\n  dup2\n  add\n  swap1\n  tag_2\n  swap2\n  swap1\n  tag_3\n  jump\t// in\ntag_2:\n    /* \"contracts/SimpleVoting.sol\":1998:2010  _msgSender() */\n  tag_6\n    /* \"contracts/SimpleVoting.sol\":1998:2008  _msgSender */\n  shl(0x20, tag_7)\n    /* \"contracts/SimpleVoting.sol\":1998:2010  _msgSender() */\n  0x20\n  shr\n  jump\t// in\ntag_6:\n    /* \"contracts/SimpleVoting.sol\":1984:1995  chairPerson */\n  0x01\n  0x00\n    /* \"contracts/SimpleVoting.sol\":1984:2010  chairPerson = _msgSender() */\n  0x0100\n  exp\n  dup2\n  sload\n  dup2\n  0xffffffffffffffffffffffffffffffffffffffff\n  mul\n  not\n  and\n  swap1\n  dup4\n  0xffffffffffffffffffffffffffffffffffffffff\n  and\n  mul\n  or\n  swap1\n  sstore\n  pop\n    /* \"contracts/SimpleVoting.sol\":2050:2051  1 */\n  0x01\n    /* \"contracts/SimpleVoting.sol\":2021:2027  voters */\n  0x02\n    /* \"contracts/SimpleVoting.sol\":2021:2040  voters[chairPerson] */\n  0x00\n    /* \"contracts/SimpleVoting.sol\":2028:2039  chairPerson */\n  0x01\n  0x00\n  swap1\n  sload\n  swap1\n  0x0100\n  exp\n  swap1\n  div\n  0xffffffffffffffffffffffffffffffffffffffff\n  and\n    /* \"contracts/SimpleVoting.sol\":2021:2040  voters[chairPerson] */\n  0xffffffffffffffffffffffffffffffffffffffff\n  and\n  0xffffffffffffffffffffffffffffffffffffffff\n  and\n  dup2\n  mstore\n  0x20\n  add\n  swap1\n  dup2\n  mstore\n  0x20\n  add\n  0x00\n  keccak256\n    /* \"contracts/SimpleVoting.sol\":2021:2047  voters[chairPerson].weight */\n  0x00\n  add\n    /* \"contracts/SimpleVoting.sol\":2021:2051  voters[chairPerson].weight = 1 */\n  dup2\n  swap1\n  sstore\n  pop\n    /* \"contracts/SimpleVoting.sol\":2078:2091  proposalNames */\n  dup1\n    /* \"contracts/SimpleVoting.sol\":2078:2098  proposalNames.length */\n  mload\n    /* \"contracts/SimpleVoting.sol\":2062:2075  proposalCount */\n  0x00\n    /* \"contracts/SimpleVoting.sol\":2062:2098  proposalCount = proposalNames.length */\n  dup2\n  swap1\n  sstore\n  pop\n    /* \"contracts/SimpleVoting.sol\":2114:2120  uint i */\n  0x00\n    /* \"contracts/SimpleVoting.sol\":2109:2466  for (uint i = 0; i < proposalCount; i = i. add(1)) {\r... */\ntag_8:\n    /* \"contracts/SimpleVoting.sol\":2130:2143  proposalCount */\n  sload(0x00)\n    /* \"contracts/SimpleVoting.sol\":2126:2127  i */\n  dup2\n    /* \"contracts/SimpleVoting.sol\":2126:2143  i < proposalCount */\n  lt\n    /* \"contracts/SimpleVoting.sol\":2109:2466  for (uint i = 0; i < proposalCount; i = i. add(1)) {\r... */\n  iszero\n  tag_9\n  jumpi\n    /* \"contracts/SimpleVoting.sol\":2341:2365  Proposal memory proposal */\n  0x00\n    /* \"contracts/SimpleVoting.sol\":2368:2415  Proposal (stringToBytes32(proposalNames[i]), 0) */\n  mload(0x40)\n  dup1\n  0x40\n  add\n  0x40\n  mstore\n  dup1\n    /* \"contracts/SimpleVoting.sol\":2378:2411  stringToBytes32(proposalNames[i]) */\n  tag_11\n    /* \"contracts/SimpleVoting.sol\":2394:2407  proposalNames */\n  dup6\n    /* \"contracts/SimpleVoting.sol\":2408:2409  i */\n  dup6\n    /* \"contracts/SimpleVoting.sol\":2394:2410  proposalNames[i] */\n  dup2\n  mload\n  dup2\n  lt\n  tag_12\n  jumpi\n  tag_13\n  tag_14\n  jump\t// in\ntag_13:\ntag_12:\n  0x20\n  mul\n  0x20\n  add\n  add\n  mload\n    /* \"contracts/SimpleVoting.sol\":2378:2393  stringToBytes32 */\n  shl(0x20, tag_15)\n    /* \"contracts/SimpleVoting.sol\":2378:2411  stringToBytes32(proposalNames[i]) */\n  0x20\n  shr\n  jump\t// in\ntag_11:\n    /* \"contracts/SimpleVoting.sol\":2368:2415  Proposal (stringToBytes32(proposalNames[i]), 0) */\n  dup2\n  mstore\n  0x20\n  add\n    /* \"contracts/SimpleVoting.sol\":2413:2414  0 */\n  0x00\n    /* \"contracts/SimpleVoting.sol\":2368:2415  Proposal (stringToBytes32(proposalNames[i]), 0) */\n  dup2\n  mstore\n  pop\n    /* \"contracts/SimpleVoting.sol\":2341:2415  Proposal memory proposal = Proposal (stringToBytes32(proposalNames[i]), 0) */\n  swap1\n  pop\n    /* \"contracts/SimpleVoting.sol\":2430:2439  proposals */\n  0x03\n    /* \"contracts/SimpleVoting.sol\":2445:2453  proposal */\n  dup2\n    /* \"contracts/SimpleVoting.sol\":2430:2454  proposals.push(proposal) */\n  swap1\n  dup1\n  0x01\n  dup2\n  sload\n  add\n  dup1\n  dup3\n  sstore\n  dup1\n  swap2\n  pop\n  pop\n  0x01\n  swap1\n  sub\n  swap1\n  0x00\n  mstore\n  keccak256(0x00, 0x20)\n  swap1\n  0x02\n  mul\n  add\n  0x00\n  swap1\n  swap2\n  swap1\n  swap2\n  swap1\n  swap2\n  pop\n  0x00\n  dup3\n  add\n  mload\n  dup2\n  0x00\n  add\n  sstore\n  0x20\n  dup3\n  add\n  mload\n  dup2\n  0x01\n  add\n  sstore\n  pop\n  pop\n    /* \"contracts/SimpleVoting.sol\":2160:2466  {\r... */\n  pop\n    /* \"contracts/SimpleVoting.sol\":2149:2158  i. add(1) */\n  tag_17\n    /* \"contracts/SimpleVoting.sol\":2156:2157  1 */\n  0x01\n    /* \"contracts/SimpleVoting.sol\":2149:2150  i */\n  dup3\n    /* \"contracts/SimpleVoting.sol\":2149:2155  i. add */\n  or(tag_0_49, shl(0x20, tag_18))\n  swap1\n    /* \"contracts/SimpleVoting.sol\":2149:2158  i. add(1) */\n  swap2\n  swap1\n  0x20\n  shr\n  jump\t// in\ntag_17:\n    /* \"contracts/SimpleVoting.sol\":2145:2158  i = i. add(1) */\n  swap1\n  pop\n    /* \"contracts/SimpleVoting.sol\":2109:2466  for (uint i = 0; i < proposalCount; i = i. add(1)) {\r... */\n  jump(tag_8)\ntag_9:\n  pop\n    /* \"contracts/SimpleVoting.sol\":1930:2533  constructor(string[] memory proposalNames) {\r... */\n  pop\n    /* \"contracts/SimpleVoting.sol\":371:6822  contract SimpleVoting is Context {\r... */\n  jump(tag_19)\n    /* \"https://github.com/OpenZeppelin/openzeppelin-contracts/blob/master/contracts/utils/Context.sol\":640:736  function _msgSender() internal view virtual returns (address) {... */\ntag_7:\n    /* \"https://github.com/OpenZeppelin/openzeppelin-contracts/blob/master/contracts/utils/Context.sol\":693:700  address */\n  0x00\n    /* \"https://github.com/OpenZeppelin/openzeppelin-contracts/blob/master/contracts/utils/Context.sol\":719:729  msg.sender */\n  caller\n    /* \"https://github.com/OpenZeppelin/openzeppelin-contracts/blob/master/contracts/utils/Context.sol\":712:729  return msg.sender */\n  swap1\n  pop\n    /* \"https://github.com/OpenZeppelin/openzeppelin-contracts/blob/master/contracts/utils/Context.sol\":640:736  function _msgSender() internal view virtual returns (address) {... */\n  swap1\n  jump\t// out\n    /* \"contracts/SimpleVoting.sol\":6505:6661  function stringToBytes32 (string memory str) \r... */\ntag_15:\n    /* \"contracts/SimpleVoting.sol\":6590:6597  bytes32 */\n  0x00\n    /* \"contracts/SimpleVoting.sol\":6648:6651  str */\n  dup2\n    /* \"contracts/SimpleVoting.sol\":6631:6652  abi.encodePacked(str) */\n  add(0x20, mload(0x40))\n  tag_22\n  swap2\n  swap1\n  tag_23\n  jump\t// in\ntag_22:\n  mload(0x40)\n  0x20\n  dup2\n  dup4\n  sub\n  sub\n  dup2\n  mstore\n  swap1\n  0x40\n  mstore\n    /* \"contracts/SimpleVoting.sol\":6623:6653  bytes32(abi.encodePacked(str)) */\n  tag_24\n  swap1\n  tag_25\n  jump\t// in\ntag_24:\n    /* \"contracts/SimpleVoting.sol\":6616:6653  return bytes32(abi.encodePacked(str)) */\n  swap1\n  pop\n    /* \"contracts/SimpleVoting.sol\":6505:6661  function stringToBytes32 (string memory str) \r... */\n  swap2\n  swap1\n  pop\n  jump\t// out\n    /* \"https://github.com/OpenZeppelin/openzeppelin-contracts/blob/master/contracts/utils/math/SafeMath.sol\":2755:2851  function add(uint256 a, uint256 b) internal pure returns (uint256) {... */\ntag_18:\n    /* \"https://github.com/OpenZeppelin/openzeppelin-contracts/blob/master/contracts/utils/math/SafeMath.sol\":2813:2820  uint256 */\n  0x00\n    /* \"https://github.com/OpenZeppelin/openzeppelin-contracts/blob/master/contracts/utils/math/SafeMath.sol\":2843:2844  b */\n  dup2\n    /* \"https://github.com/OpenZeppelin/openzeppelin-contracts/blob/master/contracts/utils/math/SafeMath.sol\":2839:2840  a */\n  dup4\n    /* \"https://github.com/OpenZeppelin/openzeppelin-contracts/blob/master/contracts/utils/math/SafeMath.sol\":2839:2844  a + b */\n  tag_27\n  swap2\n  swap1\n  tag_28\n  jump\t// in\ntag_27:\n    /* \"https://github.com/OpenZeppelin/openzeppelin-contracts/blob/master/contracts/utils/math/SafeMath.sol\":2832:2844  return a + b */\n  swap1\n  pop\n    /* \"https://github.com/OpenZeppelin/openzeppelin-contracts/blob/master/contracts/utils/math/SafeMath.sol\":2755:2851  function add(uint256 a, uint256 b) internal pure returns (uint256) {... */\n  swap3\n  swap2\n  pop\n  pop\n  jump\t// out\n    /* \"#utility.yul\":23:995   */\ntag_30:\n    /* \"#utility.yul\":140:145   */\n  0x00\n    /* \"#utility.yul\":165:256   */\n  tag_32\n    /* \"#utility.yul\":181:255   */\n  tag_33\n    /* \"#utility.yul\":248:254   */\n  dup5\n    /* \"#utility.yul\":181:255   */\n  tag_34\n  jump\t// in\ntag_33:\n    /* \"#utility.yul\":165:256   */\n  tag_35\n  jump\t// in\ntag_32:\n    /* \"#utility.yul\":156:256   */\n  swap1\n  pop\n    /* \"#utility.yul\":276:281   */\n  dup1\n    /* \"#utility.yul\":305:311   */\n  dup4\n    /* \"#utility.yul\":298:303   */\n  dup3\n    /* \"#utility.yul\":291:312   */\n  mstore\n    /* \"#utility.yul\":339:343   */\n  0x20\n    /* \"#utility.yul\":332:337   */\n  dup3\n    /* \"#utility.yul\":328:344   */\n  add\n    /* \"#utility.yul\":321:344   */\n  swap1\n  pop\n    /* \"#utility.yul\":365:371   */\n  dup3\n    /* \"#utility.yul\":415:418   */\n  dup6\n    /* \"#utility.yul\":407:411   */\n  0x20\n    /* \"#utility.yul\":399:405   */\n  dup7\n    /* \"#utility.yul\":395:412   */\n  mul\n    /* \"#utility.yul\":390:393   */\n  dup3\n    /* \"#utility.yul\":386:413   */\n  add\n    /* \"#utility.yul\":383:419   */\n  gt\n    /* \"#utility.yul\":380:523   */\n  iszero\n  tag_36\n  jumpi\n    /* \"#utility.yul\":434:513   */\n  tag_37\n  tag_38\n  jump\t// in\ntag_37:\n    /* \"#utility.yul\":380:523   */\ntag_36:\n    /* \"#utility.yul\":547:548   */\n  0x00\n    /* \"#utility.yul\":532:989   */\ntag_39:\n    /* \"#utility.yul\":557:563   */\n  dup6\n    /* \"#utility.yul\":554:555   */\n  dup2\n    /* \"#utility.yul\":551:564   */\n  lt\n    /* \"#utility.yul\":532:989   */\n  iszero\n  tag_41\n  jumpi\n    /* \"#utility.yul\":632:635   */\n  dup2\n    /* \"#utility.yul\":626:636   */\n  mload\n    /* \"#utility.yul\":668:686   */\n  0xffffffffffffffff\n    /* \"#utility.yul\":655:666   */\n  dup2\n    /* \"#utility.yul\":652:687   */\n  gt\n    /* \"#utility.yul\":649:771   */\n  iszero\n  tag_42\n  jumpi\n    /* \"#utility.yul\":690:769   */\n  tag_43\n  tag_44\n  jump\t// in\ntag_43:\n    /* \"#utility.yul\":649:771   */\ntag_42:\n    /* \"#utility.yul\":814:825   */\n  dup1\n    /* \"#utility.yul\":806:812   */\n  dup7\n    /* \"#utility.yul\":802:826   */\n  add\n    /* \"#utility.yul\":852:910   */\n  tag_45\n    /* \"#utility.yul\":906:909   */\n  dup10\n    /* \"#utility.yul\":894:904   */\n  dup3\n    /* \"#utility.yul\":852:910   */\n  tag_46\n  jump\t// in\ntag_45:\n    /* \"#utility.yul\":847:850   */\n  dup6\n    /* \"#utility.yul\":840:911   */\n  mstore\n    /* \"#utility.yul\":940:944   */\n  0x20\n    /* \"#utility.yul\":935:938   */\n  dup6\n    /* \"#utility.yul\":931:945   */\n  add\n    /* \"#utility.yul\":924:945   */\n  swap5\n  pop\n    /* \"#utility.yul\":974:978   */\n  0x20\n    /* \"#utility.yul\":969:972   */\n  dup5\n    /* \"#utility.yul\":965:979   */\n  add\n    /* \"#utility.yul\":958:979   */\n  swap4\n  pop\n    /* \"#utility.yul\":592:989   */\n  pop\n  pop\n    /* \"#utility.yul\":579:580   */\n  0x01\n    /* \"#utility.yul\":576:577   */\n  dup2\n    /* \"#utility.yul\":572:581   */\n  add\n    /* \"#utility.yul\":567:581   */\n  swap1\n  pop\n    /* \"#utility.yul\":532:989   */\n  jump(tag_39)\ntag_41:\n    /* \"#utility.yul\":536:550   */\n  pop\n    /* \"#utility.yul\":146:995   */\n  pop\n  pop\n    /* \"#utility.yul\":23:995   */\n  swap4\n  swap3\n  pop\n  pop\n  pop\n  jump\t// out\n    /* \"#utility.yul\":1001:1422   */\ntag_47:\n    /* \"#utility.yul\":1090:1095   */\n  0x00\n    /* \"#utility.yul\":1115:1181   */\n  tag_49\n    /* \"#utility.yul\":1131:1180   */\n  tag_50\n    /* \"#utility.yul\":1173:1179   */\n  dup5\n    /* \"#utility.yul\":1131:1180   */\n  tag_51\n  jump\t// in\ntag_50:\n    /* \"#utility.yul\":1115:1181   */\n  tag_35\n  jump\t// in\ntag_49:\n    /* \"#utility.yul\":1106:1181   */\n  swap1\n  pop\n    /* \"#utility.yul\":1204:1210   */\n  dup3\n    /* \"#utility.yul\":1197:1202   */\n  dup2\n    /* \"#utility.yul\":1190:1211   */\n  mstore\n    /* \"#utility.yul\":1242:1246   */\n  0x20\n    /* \"#utility.yul\":1235:1240   */\n  dup2\n    /* \"#utility.yul\":1231:1247   */\n  add\n    /* \"#utility.yul\":1280:1283   */\n  dup5\n    /* \"#utility.yul\":1271:1277   */\n  dup5\n    /* \"#utility.yul\":1266:1269   */\n  dup5\n    /* \"#utility.yul\":1262:1278   */\n  add\n    /* \"#utility.yul\":1259:1284   */\n  gt\n    /* \"#utility.yul\":1256:1368   */\n  iszero\n  tag_52\n  jumpi\n    /* \"#utility.yul\":1287:1366   */\n  tag_53\n  tag_54\n  jump\t// in\ntag_53:\n    /* \"#utility.yul\":1256:1368   */\ntag_52:\n    /* \"#utility.yul\":1377:1416   */\n  tag_55\n    /* \"#utility.yul\":1409:1415   */\n  dup5\n    /* \"#utility.yul\":1404:1407   */\n  dup3\n    /* \"#utility.yul\":1399:1402   */\n  dup6\n    /* \"#utility.yul\":1377:1416   */\n  tag_56\n  jump\t// in\ntag_55:\n    /* \"#utility.yul\":1096:1422   */\n  pop\n    /* \"#utility.yul\":1001:1422   */\n  swap4\n  swap3\n  pop\n  pop\n  pop\n  jump\t// out\n    /* \"#utility.yul\":1444:1849   */\ntag_57:\n    /* \"#utility.yul\":1536:1541   */\n  0x00\n    /* \"#utility.yul\":1585:1588   */\n  dup3\n    /* \"#utility.yul\":1578:1582   */\n  0x1f\n    /* \"#utility.yul\":1570:1576   */\n  dup4\n    /* \"#utility.yul\":1566:1583   */\n  add\n    /* \"#utility.yul\":1562:1589   */\n  slt\n    /* \"#utility.yul\":1552:1674   */\n  tag_59\n  jumpi\n    /* \"#utility.yul\":1593:1672   */\n  tag_60\n  tag_44\n  jump\t// in\ntag_60:\n    /* \"#utility.yul\":1552:1674   */\ntag_59:\n    /* \"#utility.yul\":1703:1709   */\n  dup2\n    /* \"#utility.yul\":1697:1710   */\n  mload\n    /* \"#utility.yul\":1728:1843   */\n  tag_61\n    /* \"#utility.yul\":1839:1842   */\n  dup5\n    /* \"#utility.yul\":1831:1837   */\n  dup3\n    /* \"#utility.yul\":1824:1828   */\n  0x20\n    /* \"#utility.yul\":1816:1822   */\n  dup7\n    /* \"#utility.yul\":1812:1829   */\n  add\n    /* \"#utility.yul\":1728:1843   */\n  tag_30\n  jump\t// in\ntag_61:\n    /* \"#utility.yul\":1719:1843   */\n  swap2\n  pop\n    /* \"#utility.yul\":1542:1849   */\n  pop\n    /* \"#utility.yul\":1444:1849   */\n  swap3\n  swap2\n  pop\n  pop\n  jump\t// out\n    /* \"#utility.yul\":1869:2224   */\ntag_46:\n    /* \"#utility.yul\":1936:1941   */\n  0x00\n    /* \"#utility.yul\":1985:1988   */\n  dup3\n    /* \"#utility.yul\":1978:1982   */\n  0x1f\n    /* \"#utility.yul\":1970:1976   */\n  dup4\n    /* \"#utility.yul\":1966:1983   */\n  add\n    /* \"#utility.yul\":1962:1989   */\n  slt\n    /* \"#utility.yul\":1952:2074   */\n  tag_63\n  jumpi\n    /* \"#utility.yul\":1993:2072   */\n  tag_64\n  tag_44\n  jump\t// in\ntag_64:\n    /* \"#utility.yul\":1952:2074   */\ntag_63:\n    /* \"#utility.yul\":2103:2109   */\n  dup2\n    /* \"#utility.yul\":2097:2110   */\n  mload\n    /* \"#utility.yul\":2128:2218   */\n  tag_65\n    /* \"#utility.yul\":2214:2217   */\n  dup5\n    /* \"#utility.yul\":2206:2212   */\n  dup3\n    /* \"#utility.yul\":2199:2203   */\n  0x20\n    /* \"#utility.yul\":2191:2197   */\n  dup7\n    /* \"#utility.yul\":2187:2204   */\n  add\n    /* \"#utility.yul\":2128:2218   */\n  tag_47\n  jump\t// in\ntag_65:\n    /* \"#utility.yul\":2119:2218   */\n  swap2\n  pop\n    /* \"#utility.yul\":1942:2224   */\n  pop\n    /* \"#utility.yul\":1869:2224   */\n  swap3\n  swap2\n  pop\n  pop\n  jump\t// out\n    /* \"#utility.yul\":2230:2804   */\ntag_3:\n    /* \"#utility.yul\":2335:2341   */\n  0x00\n    /* \"#utility.yul\":2384:2386   */\n  0x20\n    /* \"#utility.yul\":2372:2381   */\n  dup3\n    /* \"#utility.yul\":2363:2370   */\n  dup5\n    /* \"#utility.yul\":2359:2382   */\n  sub\n    /* \"#utility.yul\":2355:2387   */\n  slt\n    /* \"#utility.yul\":2352:2471   */\n  iszero\n  tag_67\n  jumpi\n    /* \"#utility.yul\":2390:2469   */\n  tag_68\n  tag_69\n  jump\t// in\ntag_68:\n    /* \"#utility.yul\":2352:2471   */\ntag_67:\n    /* \"#utility.yul\":2531:2532   */\n  0x00\n    /* \"#utility.yul\":2520:2529   */\n  dup3\n    /* \"#utility.yul\":2516:2533   */\n  add\n    /* \"#utility.yul\":2510:2534   */\n  mload\n    /* \"#utility.yul\":2561:2579   */\n  0xffffffffffffffff\n    /* \"#utility.yul\":2553:2559   */\n  dup2\n    /* \"#utility.yul\":2550:2580   */\n  gt\n    /* \"#utility.yul\":2547:2664   */\n  iszero\n  tag_70\n  jumpi\n    /* \"#utility.yul\":2583:2662   */\n  tag_71\n  tag_72\n  jump\t// in\ntag_71:\n    /* \"#utility.yul\":2547:2664   */\ntag_70:\n    /* \"#utility.yul\":2688:2787   */\n  tag_73\n    /* \"#utility.yul\":2779:2786   */\n  dup5\n    /* \"#utility.yul\":2770:2776   */\n  dup3\n    /* \"#utility.yul\":2759:2768   */\n  dup6\n    /* \"#utility.yul\":2755:2777   */\n  add\n    /* \"#utility.yul\":2688:2787   */\n  tag_57\n  jump\t// in\ntag_73:\n    /* \"#utility.yul\":2678:2787   */\n  swap2\n  pop\n    /* \"#utility.yul\":2481:2797   */\n  pop\n    /* \"#utility.yul\":2230:2804   */\n  swap3\n  swap2\n  pop\n  pop\n  jump\t// out\n    /* \"#utility.yul\":2810:3187   */\ntag_74:\n    /* \"#utility.yul\":2916:2919   */\n  0x00\n    /* \"#utility.yul\":2944:2983   */\n  tag_76\n    /* \"#utility.yul\":2977:2982   */\n  dup3\n    /* \"#utility.yul\":2944:2983   */\n  tag_77\n  jump\t// in\ntag_76:\n    /* \"#utility.yul\":2999:3088   */\n  tag_78\n    /* \"#utility.yul\":3081:3087   */\n  dup2\n    /* \"#utility.yul\":3076:3079   */\n  dup6\n    /* \"#utility.yul\":2999:3088   */\n  tag_79\n  jump\t// in\ntag_78:\n    /* \"#utility.yul\":2992:3088   */\n  swap4\n  pop\n    /* \"#utility.yul\":3097:3149   */\n  tag_80\n    /* \"#utility.yul\":3142:3148   */\n  dup2\n    /* \"#utility.yul\":3137:3140   */\n  dup6\n    /* \"#utility.yul\":3130:3134   */\n  0x20\n    /* \"#utility.yul\":3123:3128   */\n  dup7\n    /* \"#utility.yul\":3119:3135   */\n  add\n    /* \"#utility.yul\":3097:3149   */\n  tag_56\n  jump\t// in\ntag_80:\n    /* \"#utility.yul\":3174:3180   */\n  dup1\n    /* \"#utility.yul\":3169:3172   */\n  dup5\n    /* \"#utility.yul\":3165:3181   */\n  add\n    /* \"#utility.yul\":3158:3181   */\n  swap2\n  pop\n    /* \"#utility.yul\":2920:3187   */\n  pop\n    /* \"#utility.yul\":2810:3187   */\n  swap3\n  swap2\n  pop\n  pop\n  jump\t// out\n    /* \"#utility.yul\":3193:3468   */\ntag_23:\n    /* \"#utility.yul\":3325:3328   */\n  0x00\n    /* \"#utility.yul\":3347:3442   */\n  tag_82\n    /* \"#utility.yul\":3438:3441   */\n  dup3\n    /* \"#utility.yul\":3429:3435   */\n  dup5\n    /* \"#utility.yul\":3347:3442   */\n  tag_74\n  jump\t// in\ntag_82:\n    /* \"#utility.yul\":3340:3442   */\n  swap2\n  pop\n    /* \"#utility.yul\":3459:3462   */\n  dup2\n    /* \"#utility.yul\":3452:3462   */\n  swap1\n  pop\n    /* \"#utility.yul\":3193:3468   */\n  swap3\n  swap2\n  pop\n  pop\n  jump\t// out\n    /* \"#utility.yul\":3474:3603   */\ntag_35:\n    /* \"#utility.yul\":3508:3514   */\n  0x00\n    /* \"#utility.yul\":3535:3555   */\n  tag_84\n  tag_85\n  jump\t// in\ntag_84:\n    /* \"#utility.yul\":3525:3555   */\n  swap1\n  pop\n    /* \"#utility.yul\":3564:3597   */\n  tag_86\n    /* \"#utility.yul\":3592:3596   */\n  dup3\n    /* \"#utility.yul\":3584:3590   */\n  dup3\n    /* \"#utility.yul\":3564:3597   */\n  tag_87\n  jump\t// in\ntag_86:\n    /* \"#utility.yul\":3474:3603   */\n  swap2\n  swap1\n  pop\n  jump\t// out\n    /* \"#utility.yul\":3609:3684   */\ntag_85:\n    /* \"#utility.yul\":3642:3648   */\n  0x00\n    /* \"#utility.yul\":3675:3677   */\n  0x40\n    /* \"#utility.yul\":3669:3678   */\n  mload\n    /* \"#utility.yul\":3659:3678   */\n  swap1\n  pop\n    /* \"#utility.yul\":3609:3684   */\n  swap1\n  jump\t// out\n    /* \"#utility.yul\":3690:4011   */\ntag_34:\n    /* \"#utility.yul\":3777:3781   */\n  0x00\n    /* \"#utility.yul\":3867:3885   */\n  0xffffffffffffffff\n    /* \"#utility.yul\":3859:3865   */\n  dup3\n    /* \"#utility.yul\":3856:3886   */\n  gt\n    /* \"#utility.yul\":3853:3909   */\n  iszero\n  tag_90\n  jumpi\n    /* \"#utility.yul\":3889:3907   */\n  tag_91\n  tag_92\n  jump\t// in\ntag_91:\n    /* \"#utility.yul\":3853:3909   */\ntag_90:\n    /* \"#utility.yul\":3939:3943   */\n  0x20\n    /* \"#utility.yul\":3931:3937   */\n  dup3\n    /* \"#utility.yul\":3927:3944   */\n  mul\n    /* \"#utility.yul\":3919:3944   */\n  swap1\n  pop\n    /* \"#utility.yul\":3999:4003   */\n  0x20\n    /* \"#utility.yul\":3993:3997   */\n  dup2\n    /* \"#utility.yul\":3989:4004   */\n  add\n    /* \"#utility.yul\":3981:4004   */\n  swap1\n  pop\n    /* \"#utility.yul\":3690:4011   */\n  swap2\n  swap1\n  pop\n  jump\t// out\n    /* \"#utility.yul\":4017:4325   */\ntag_51:\n    /* \"#utility.yul\":4079:4083   */\n  0x00\n    /* \"#utility.yul\":4169:4187   */\n  0xffffffffffffffff\n    /* \"#utility.yul\":4161:4167   */\n  dup3\n    /* \"#utility.yul\":4158:4188   */\n  gt\n    /* \"#utility.yul\":4155:4211   */\n  iszero\n  tag_94\n  jumpi\n    /* \"#utility.yul\":4191:4209   */\n  tag_95\n  tag_92\n  jump\t// in\ntag_95:\n    /* \"#utility.yul\":4155:4211   */\ntag_94:\n    /* \"#utility.yul\":4229:4258   */\n  tag_96\n    /* \"#utility.yul\":4251:4257   */\n  dup3\n    /* \"#utility.yul\":4229:4258   */\n  tag_97\n  jump\t// in\ntag_96:\n    /* \"#utility.yul\":4221:4258   */\n  swap1\n  pop\n    /* \"#utility.yul\":4313:4317   */\n  0x20\n    /* \"#utility.yul\":4307:4311   */\n  dup2\n    /* \"#utility.yul\":4303:4318   */\n  add\n    /* \"#utility.yul\":4295:4318   */\n  swap1\n  pop\n    /* \"#utility.yul\":4017:4325   */\n  swap2\n  swap1\n  pop\n  jump\t// out\n    /* \"#utility.yul\":4331:4447   */\ntag_98:\n    /* \"#utility.yul\":4382:4386   */\n  0x00\n    /* \"#utility.yul\":4405:4408   */\n  dup2\n    /* \"#utility.yul\":4397:4408   */\n  swap1\n  pop\n    /* \"#utility.yul\":4435:4439   */\n  0x20\n    /* \"#utility.yul\":4430:4433   */\n  dup3\n    /* \"#utility.yul\":4426:4440   */\n  add\n    /* \"#utility.yul\":4418:4440   */\n  swap1\n  pop\n    /* \"#utility.yul\":4331:4447   */\n  swap2\n  swap1\n  pop\n  jump\t// out\n    /* \"#utility.yul\":4453:4551   */\ntag_100:\n    /* \"#utility.yul\":4504:4510   */\n  0x00\n    /* \"#utility.yul\":4538:4543   */\n  dup2\n    /* \"#utility.yul\":4532:4544   */\n  mload\n    /* \"#utility.yul\":4522:4544   */\n  swap1\n  pop\n    /* \"#utility.yul\":4453:4551   */\n  swap2\n  swap1\n  pop\n  jump\t// out\n    /* \"#utility.yul\":4557:4656   */\ntag_77:\n    /* \"#utility.yul\":4609:4615   */\n  0x00\n    /* \"#utility.yul\":4643:4648   */\n  dup2\n    /* \"#utility.yul\":4637:4649   */\n  mload\n    /* \"#utility.yul\":4627:4649   */\n  swap1\n  pop\n    /* \"#utility.yul\":4557:4656   */\n  swap2\n  swap1\n  pop\n  jump\t// out\n    /* \"#utility.yul\":4662:4810   */\ntag_79:\n    /* \"#utility.yul\":4764:4775   */\n  0x00\n    /* \"#utility.yul\":4801:4804   */\n  dup2\n    /* \"#utility.yul\":4786:4804   */\n  swap1\n  pop\n    /* \"#utility.yul\":4662:4810   */\n  swap3\n  swap2\n  pop\n  pop\n  jump\t// out\n    /* \"#utility.yul\":4816:5121   */\ntag_28:\n    /* \"#utility.yul\":4856:4859   */\n  0x00\n    /* \"#utility.yul\":4875:4895   */\n  tag_105\n    /* \"#utility.yul\":4893:4894   */\n  dup3\n    /* \"#utility.yul\":4875:4895   */\n  tag_106\n  jump\t// in\ntag_105:\n    /* \"#utility.yul\":4870:4895   */\n  swap2\n  pop\n    /* \"#utility.yul\":4909:4929   */\n  tag_107\n    /* \"#utility.yul\":4927:4928   */\n  dup4\n    /* \"#utility.yul\":4909:4929   */\n  tag_106\n  jump\t// in\ntag_107:\n    /* \"#utility.yul\":4904:4929   */\n  swap3\n  pop\n    /* \"#utility.yul\":5063:5064   */\n  dup3\n    /* \"#utility.yul\":4995:5061   */\n  0xffffffffffffffffffffffffffffffffffffffffffffffffffffffffffffffff\n    /* \"#utility.yul\":4991:5065   */\n  sub\n    /* \"#utility.yul\":4988:4989   */\n  dup3\n    /* \"#utility.yul\":4985:5066   */\n  gt\n    /* \"#utility.yul\":4982:5089   */\n  iszero\n  tag_108\n  jumpi\n    /* \"#utility.yul\":5069:5087   */\n  tag_109\n  tag_110\n  jump\t// in\ntag_109:\n    /* \"#utility.yul\":4982:5089   */\ntag_108:\n    /* \"#utility.yul\":5113:5114   */\n  dup3\n    /* \"#utility.yul\":5110:5111   */\n  dup3\n    /* \"#utility.yul\":5106:5115   */\n  add\n    /* \"#utility.yul\":5099:5115   */\n  swap1\n  pop\n    /* \"#utility.yul\":4816:5121   */\n  swap3\n  swap2\n  pop\n  pop\n  jump\t// out\n    /* \"#utility.yul\":5127:5204   */\ntag_111:\n    /* \"#utility.yul\":5164:5171   */\n  0x00\n    /* \"#utility.yul\":5193:5198   */\n  dup2\n    /* \"#utility.yul\":5182:5198   */\n  swap1\n  pop\n    /* \"#utility.yul\":5127:5204   */\n  swap2\n  swap1\n  pop\n  jump\t// out\n    /* \"#utility.yul\":5210:5287   */\ntag_106:\n    /* \"#utility.yul\":5247:5254   */\n  0x00\n    /* \"#utility.yul\":5276:5281   */\n  dup2\n    /* \"#utility.yul\":5265:5281   */\n  swap1\n  pop\n    /* \"#utility.yul\":5210:5287   */\n  swap2\n  swap1\n  pop\n  jump\t// out\n    /* \"#utility.yul\":5293:5887   */\ntag_25:\n    /* \"#utility.yul\":5377:5382   */\n  0x00\n    /* \"#utility.yul\":5408:5446   */\n  tag_115\n    /* \"#utility.yul\":5440:5445   */\n  dup3\n    /* \"#utility.yul\":5408:5446   */\n  tag_100\n  jump\t// in\ntag_115:\n    /* \"#utility.yul\":5471:5476   */\n  dup3\n    /* \"#utility.yul\":5498:5538   */\n  tag_116\n    /* \"#utility.yul\":5532:5537   */\n  dup5\n    /* \"#utility.yul\":5498:5538   */\n  tag_98\n  jump\t// in\ntag_116:\n    /* \"#utility.yul\":5486:5538   */\n  swap1\n  pop\n    /* \"#utility.yul\":5557:5592   */\n  tag_117\n    /* \"#utility.yul\":5583:5591   */\n  dup2\n    /* \"#utility.yul\":5557:5592   */\n  tag_118\n  jump\t// in\ntag_117:\n    /* \"#utility.yul\":5548:5592   */\n  swap3\n  pop\n    /* \"#utility.yul\":5616:5618   */\n  0x20\n    /* \"#utility.yul\":5608:5614   */\n  dup3\n    /* \"#utility.yul\":5605:5619   */\n  lt\n    /* \"#utility.yul\":5602:5880   */\n  iszero\n  tag_119\n  jumpi\n    /* \"#utility.yul\":5687:5856   */\n  tag_120\n    /* \"#utility.yul\":5772:5838   */\n  0xffffffffffffffffffffffffffffffffffffffffffffffffffffffffffffffff\n    /* \"#utility.yul\":5742:5748   */\n  dup4\n    /* \"#utility.yul\":5738:5740   */\n  0x20\n    /* \"#utility.yul\":5734:5749   */\n  sub\n    /* \"#utility.yul\":5731:5732   */\n  0x08\n    /* \"#utility.yul\":5727:5750   */\n  mul\n    /* \"#utility.yul\":5687:5856   */\n  tag_121\n  jump\t// in\ntag_120:\n    /* \"#utility.yul\":5664:5669   */\n  dup4\n    /* \"#utility.yul\":5643:5870   */\n  and\n    /* \"#utility.yul\":5634:5870   */\n  swap3\n  pop\n    /* \"#utility.yul\":5602:5880   */\ntag_119:\n    /* \"#utility.yul\":5383:5887   */\n  pop\n  pop\n    /* \"#utility.yul\":5293:5887   */\n  swap2\n  swap1\n  pop\n  jump\t// out\n    /* \"#utility.yul\":5893:6200   */\ntag_56:\n    /* \"#utility.yul\":5961:5962   */\n  0x00\n    /* \"#utility.yul\":5971:6084   */\ntag_123:\n    /* \"#utility.yul\":5985:5991   */\n  dup4\n    /* \"#utility.yul\":5982:5983   */\n  dup2\n    /* \"#utility.yul\":5979:5992   */\n  lt\n    /* \"#utility.yul\":5971:6084   */\n  iszero\n  tag_125\n  jumpi\n    /* \"#utility.yul\":6070:6071   */\n  dup1\n    /* \"#utility.yul\":6065:6068   */\n  dup3\n    /* \"#utility.yul\":6061:6072   */\n  add\n    /* \"#utility.yul\":6055:6073   */\n  mload\n    /* \"#utility.yul\":6051:6052   */\n  dup2\n    /* \"#utility.yul\":6046:6049   */\n  dup5\n    /* \"#utility.yul\":6042:6053   */\n  add\n    /* \"#utility.yul\":6035:6074   */\n  mstore\n    /* \"#utility.yul\":6007:6009   */\n  0x20\n    /* \"#utility.yul\":6004:6005   */\n  dup2\n    /* \"#utility.yul\":6000:6010   */\n  add\n    /* \"#utility.yul\":5995:6010   */\n  swap1\n  pop\n    /* \"#utility.yul\":5971:6084   */\n  jump(tag_123)\ntag_125:\n    /* \"#utility.yul\":6102:6108   */\n  dup4\n    /* \"#utility.yul\":6099:6100   */\n  dup2\n    /* \"#utility.yul\":6096:6109   */\n  gt\n    /* \"#utility.yul\":6093:6194   */\n  iszero\n  tag_126\n  jumpi\n    /* \"#utility.yul\":6182:6183   */\n  0x00\n    /* \"#utility.yul\":6173:6179   */\n  dup5\n    /* \"#utility.yul\":6168:6171   */\n  dup5\n    /* \"#utility.yul\":6164:6180   */\n  add\n    /* \"#utility.yul\":6157:6184   */\n  mstore\n    /* \"#utility.yul\":6093:6194   */\ntag_126:\n    /* \"#utility.yul\":5942:6200   */\n  pop\n    /* \"#utility.yul\":5893:6200   */\n  pop\n  pop\n  pop\n  jump\t// out\n    /* \"#utility.yul\":6206:6487   */\ntag_87:\n    /* \"#utility.yul\":6289:6316   */\n  tag_128\n    /* \"#utility.yul\":6311:6315   */\n  dup3\n    /* \"#utility.yul\":6289:6316   */\n  tag_97\n  jump\t// in\ntag_128:\n    /* \"#utility.yul\":6281:6287   */\n  dup2\n    /* \"#utility.yul\":6277:6317   */\n  add\n    /* \"#utility.yul\":6419:6425   */\n  dup2\n    /* \"#utility.yul\":6407:6417   */\n  dup2\n    /* \"#utility.yul\":6404:6426   */\n  lt\n    /* \"#utility.yul\":6383:6401   */\n  0xffffffffffffffff\n    /* \"#utility.yul\":6371:6381   */\n  dup3\n    /* \"#utility.yul\":6368:6402   */\n  gt\n    /* \"#utility.yul\":6365:6427   */\n  or\n    /* \"#utility.yul\":6362:6450   */\n  iszero\n  tag_129\n  jumpi\n    /* \"#utility.yul\":6430:6448   */\n  tag_130\n  tag_92\n  jump\t// in\ntag_130:\n    /* \"#utility.yul\":6362:6450   */\ntag_129:\n    /* \"#utility.yul\":6470:6480   */\n  dup1\n    /* \"#utility.yul\":6466:6468   */\n  0x40\n    /* \"#utility.yul\":6459:6481   */\n  mstore\n    /* \"#utility.yul\":6249:6487   */\n  pop\n    /* \"#utility.yul\":6206:6487   */\n  pop\n  pop\n  jump\t// out\n    /* \"#utility.yul\":6493:6673   */\ntag_110:\n    /* \"#utility.yul\":6541:6618   */\n  0x4e487b7100000000000000000000000000000000000000000000000000000000\n    /* \"#utility.yul\":6538:6539   */\n  0x00\n    /* \"#utility.yul\":6531:6619   */\n  mstore\n    /* \"#utility.yul\":6638:6642   */\n  0x11\n    /* \"#utility.yul\":6635:6636   */\n  0x04\n    /* \"#utility.yul\":6628:6643   */\n  mstore\n    /* \"#utility.yul\":6662:6666   */\n  0x24\n    /* \"#utility.yul\":6659:6660   */\n  0x00\n    /* \"#utility.yul\":6652:6667   */\n  revert\n    /* \"#utility.yul\":6679:6859   */\ntag_14:\n    /* \"#utility.yul\":6727:6804   */\n  0x4e487b7100000000000000000000000000000000000000000000000000000000\n    /* \"#utility.yul\":6724:6725   */\n  0x00\n    /* \"#utility.yul\":6717:6805   */\n  mstore\n    /* \"#utility.yul\":6824:6828   */\n  0x32\n    /* \"#utility.yul\":6821:6822   */\n  0x04\n    /* \"#utility.yul\":6814:6829   */\n  mstore\n    /* \"#utility.yul\":6848:6852   */\n  0x24\n    /* \"#utility.yul\":6845:6846   */\n  0x00\n    /* \"#utility.yul\":6838:6853   */\n  revert\n    /* \"#utility.yul\":6865:7045   */\ntag_92:\n    /* \"#utility.yul\":6913:6990   */\n  0x4e487b7100000000000000000000000000000000000000000000000000000000\n    /* \"#utility.yul\":6910:6911   */\n  0x00\n    /* \"#utility.yul\":6903:6991   */\n  mstore\n    /* \"#utility.yul\":7010:7014   */\n  0x41\n    /* \"#utility.yul\":7007:7008   */\n  0x04\n    /* \"#utility.yul\":7000:7015   */\n  mstore\n    /* \"#utility.yul\":7034:7038   */\n  0x24\n    /* \"#utility.yul\":7031:7032   */\n  0x00\n    /* \"#utility.yul\":7024:7039   */\n  revert\n    /* \"#utility.yul\":7051:7205   */\ntag_118:\n    /* \"#utility.yul\":7094:7105   */\n  0x00\n    /* \"#utility.yul\":7130:7159   */\n  tag_135\n    /* \"#utility.yul\":7154:7157   */\n  dup3\n    /* \"#utility.yul\":7148:7158   */\n  mload\n    /* \"#utility.yul\":7130:7159   */\n  tag_111\n  jump\t// in\ntag_135:\n    /* \"#utility.yul\":7193:7198   */\n  dup1\n    /* \"#utility.yul\":7169:7198   */\n  swap2\n  pop\n    /* \"#utility.yul\":7106:7205   */\n  pop\n    /* \"#utility.yul\":7051:7205   */\n  swap2\n  swap1\n  pop\n  jump\t// out\n    /* \"#utility.yul\":7211:7328   */\ntag_44:\n    /* \"#utility.yul\":7320:7321   */\n  0x00\n    /* \"#utility.yul\":7317:7318   */\n  dup1\n    /* \"#utility.yul\":7310:7322   */\n  revert\n    /* \"#utility.yul\":7334:7451   */\ntag_38:\n    /* \"#utility.yul\":7443:7444   */\n  0x00\n    /* \"#utility.yul\":7440:7441   */\n  dup1\n    /* \"#utility.yul\":7433:7445   */\n  revert\n    /* \"#utility.yul\":7457:7574   */\ntag_54:\n    /* \"#utility.yul\":7566:7567   */\n  0x00\n    /* \"#utility.yul\":7563:7564   */\n  dup1\n    /* \"#utility.yul\":7556:7568   */\n  revert\n    /* \"#utility.yul\":7580:7697   */\ntag_72:\n    /* \"#utility.yul\":7689:7690   */\n  0x00\n    /* \"#utility.yul\":7686:7687   */\n  dup1\n    /* \"#utility.yul\":7679:7691   */\n  revert\n    /* \"#utility.yul\":7703:7820   */\ntag_69:\n    /* \"#utility.yul\":7812:7813   */\n  0x00\n    /* \"#utility.yul\":7809:7810   */\n  dup1\n    /* \"#utility.yul\":7802:7814   */\n  revert\n    /* \"#utility.yul\":7826:7928   */\ntag_97:\n    /* \"#utility.yul\":7867:7873   */\n  0x00\n    /* \"#utility.yul\":7918:7920   */\n  0x1f\n    /* \"#utility.yul\":7914:7921   */\n  not\n    /* \"#utility.yul\":7909:7911   */\n  0x1f\n    /* \"#utility.yul\":7902:7907   */\n  dup4\n    /* \"#utility.yul\":7898:7912   */\n  add\n    /* \"#utility.yul\":7894:7922   */\n  and\n    /* \"#utility.yul\":7884:7922   */\n  swap1\n  pop\n    /* \"#utility.yul\":7826:7928   */\n  swap2\n  swap1\n  pop\n  jump\t// out\n    /* \"#utility.yul\":7934:8041   */\ntag_121:\n    /* \"#utility.yul\":7978:7986   */\n  0x00\n    /* \"#utility.yul\":8028:8033   */\n  dup3\n    /* \"#utility.yul\":8022:8026   */\n  dup3\n    /* \"#utility.yul\":8018:8034   */\n  shl\n    /* \"#utility.yul\":7997:8034   */\n  swap1\n  pop\n    /* \"#utility.yul\":7934:8041   */\n  swap3\n  swap2\n  pop\n  pop\n  jump\t// out\n    /* \"contracts/SimpleVoting.sol\":371:6822  contract SimpleVoting is Context {\r... */\ntag_19:\n  dataSize(sub_0)\n  dup1\n  dataOffset(sub_0)\n  0x00\n  codecopy\n  0x00\n  return\nstop\n\nsub_0: assembly {\n        /* \"contracts/SimpleVoting.sol\":371:6822  contract SimpleVoting is Context {\r... */\n      mstore(0x40, 0x80)\n      callvalue\n      dup1\n      iszero\n      tag_1\n      jumpi\n      0x00\n      dup1\n      revert\n    tag_1:\n      pop\n      jumpi(tag_2, lt(calldatasize, 0x04))\n      shr(0xe0, calldataload(0x00))\n      dup1\n      0xa3ec138d\n      gt\n      tag_12\n      jumpi\n      dup1\n      0xa3ec138d\n      eq\n      tag_7\n      jumpi\n      dup1\n      0xc7f758a8\n      eq\n      tag_8\n      jumpi\n      dup1\n      0xd4d4b5ac\n      eq\n      tag_9\n      jumpi\n      dup1\n      0xda35c664\n      eq\n      tag_10\n      jumpi\n      dup1\n      0xe2ba53f0\n      eq\n      tag_11\n      jumpi\n      jump(tag_2)\n    tag_12:\n      dup1\n      0x0121b93f\n      eq\n      tag_3\n      jumpi\n      dup1\n      0x5c19a95c\n      eq\n      tag_4\n      jumpi\n      dup1\n      0x609ff1bd\n      eq\n      tag_5\n      jumpi\n      dup1\n      0x9e7b8d61\n      eq\n      tag_6\n      jumpi\n    tag_2:\n      0x00\n      dup1\n      revert\n        /* \"contracts/SimpleVoting.sol\":4869:5556  function vote(uint proposal) public {\r... */\n    tag_3:\n      tag_13\n      0x04\n      dup1\n      calldatasize\n      sub\n      dup2\n      add\n      swap1\n      tag_14\n      swap2\n      swap1\n      tag_15\n      jump\t// in\n    tag_14:\n      tag_16\n      jump\t// in\n    tag_13:\n      stop\n        /* \"contracts/SimpleVoting.sol\":3438:4675  function delegate(address _to) public notYetVoted (_msgSender()) {\r... */\n    tag_4:\n      tag_17\n      0x04\n      dup1\n      calldatasize\n      sub\n      dup2\n      add\n      swap1\n      tag_18\n      swap2\n      swap1\n      tag_19\n      jump\t// in\n    tag_18:\n      tag_20\n      jump\t// in\n    tag_17:\n      stop\n        /* \"contracts/SimpleVoting.sol\":5748:6133  function winningProposal() public view\r... */\n    tag_5:\n      tag_21\n      tag_22\n      jump\t// in\n    tag_21:\n      mload(0x40)\n      tag_23\n      swap2\n      swap1\n      tag_24\n      jump\t// in\n    tag_23:\n      mload(0x40)\n      dup1\n      swap2\n      sub\n      swap1\n      return\n        /* \"contracts/SimpleVoting.sol\":2819:3307  function giveRightToVote(address _voter) public onlyChairPerson () notYetVoted (_voter) {\r... */\n    tag_6:\n      tag_25\n      0x04\n      dup1\n      calldatasize\n      sub\n      dup2\n      add\n      swap1\n      tag_26\n      swap2\n      swap1\n      tag_19\n      jump\t// in\n    tag_26:\n      tag_27\n      jump\t// in\n    tag_25:\n      stop\n        /* \"contracts/SimpleVoting.sol\":1067:1106  mapping(address => Voter) public voters */\n    tag_7:\n      tag_28\n      0x04\n      dup1\n      calldatasize\n      sub\n      dup2\n      add\n      swap1\n      tag_29\n      swap2\n      swap1\n      tag_19\n      jump\t// in\n    tag_29:\n      tag_30\n      jump\t// in\n    tag_28:\n      mload(0x40)\n      tag_31\n      swap5\n      swap4\n      swap3\n      swap2\n      swap1\n      tag_32\n      jump\t// in\n    tag_31:\n      mload(0x40)\n      dup1\n      swap2\n      sub\n      swap1\n      return\n        /* \"contracts/SimpleVoting.sol\":2541:2652  function getProposal (uint256 _proposalIndex) public view returns (Proposal memory proposal) {\r... */\n    tag_8:\n      tag_33\n      0x04\n      dup1\n      calldatasize\n      sub\n      dup2\n      add\n      swap1\n      tag_34\n      swap2\n      swap1\n      tag_15\n      jump\t// in\n    tag_34:\n      tag_35\n      jump\t// in\n    tag_33:\n      mload(0x40)\n      tag_36\n      swap2\n      swap1\n      tag_37\n      jump\t// in\n    tag_36:\n      mload(0x40)\n      dup1\n      swap2\n      sub\n      swap1\n      return\n        /* \"contracts/SimpleVoting.sol\":1032:1058  address public chairPerson */\n    tag_9:\n      tag_38\n      tag_39\n      jump\t// in\n    tag_38:\n      mload(0x40)\n      tag_40\n      swap2\n      swap1\n      tag_41\n      jump\t// in\n    tag_40:\n      mload(0x40)\n      dup1\n      swap2\n      sub\n      swap1\n      return\n        /* \"contracts/SimpleVoting.sol\":995:1023  uint256 public proposalCount */\n    tag_10:\n      tag_42\n      tag_43\n      jump\t// in\n    tag_42:\n      mload(0x40)\n      tag_44\n      swap2\n      swap1\n      tag_24\n      jump\t// in\n    tag_44:\n      mload(0x40)\n      dup1\n      swap2\n      sub\n      swap1\n      return\n        /* \"contracts/SimpleVoting.sol\":6330:6497  function winnerName() \r... */\n    tag_11:\n      tag_45\n      tag_46\n      jump\t// in\n    tag_45:\n      mload(0x40)\n      tag_47\n      swap2\n      swap1\n      tag_48\n      jump\t// in\n    tag_47:\n      mload(0x40)\n      dup1\n      swap2\n      sub\n      swap1\n      return\n        /* \"contracts/SimpleVoting.sol\":4869:5556  function vote(uint proposal) public {\r... */\n    tag_16:\n        /* \"contracts/SimpleVoting.sol\":4916:4936  Voter storage sender */\n      0x00\n        /* \"contracts/SimpleVoting.sol\":4939:4945  voters */\n      0x02\n        /* \"contracts/SimpleVoting.sol\":4939:4959  voters[_msgSender()] */\n      0x00\n        /* \"contracts/SimpleVoting.sol\":4946:4958  _msgSender() */\n      tag_51\n        /* \"contracts/SimpleVoting.sol\":4946:4956  _msgSender */\n      tag_52\n        /* \"contracts/SimpleVoting.sol\":4946:4958  _msgSender() */\n      jump\t// in\n    tag_51:\n        /* \"contracts/SimpleVoting.sol\":4939:4959  voters[_msgSender()] */\n      0xffffffffffffffffffffffffffffffffffffffff\n      and\n      0xffffffffffffffffffffffffffffffffffffffff\n      and\n      dup2\n      mstore\n      0x20\n      add\n      swap1\n      dup2\n      mstore\n      0x20\n      add\n      0x00\n      keccak256\n        /* \"contracts/SimpleVoting.sol\":4916:4959  Voter storage sender = voters[_msgSender()] */\n      swap1\n      pop\n        /* \"contracts/SimpleVoting.sol\":4995:4996  0 */\n      0x00\n        /* \"contracts/SimpleVoting.sol\":4978:4984  sender */\n      dup2\n        /* \"contracts/SimpleVoting.sol\":4978:4991  sender.weight */\n      0x00\n      add\n      sload\n        /* \"contracts/SimpleVoting.sol\":4978:4996  sender.weight != 0 */\n      eq\n      iszero\n        /* \"contracts/SimpleVoting.sol\":4970:5042  require(sender.weight != 0, \"SimpleVoting: Caller has no right to vote\") */\n      tag_53\n      jumpi\n      mload(0x40)\n      0x08c379a000000000000000000000000000000000000000000000000000000000\n      dup2\n      mstore\n      0x04\n      add\n      tag_54\n      swap1\n      tag_55\n      jump\t// in\n    tag_54:\n      mload(0x40)\n      dup1\n      swap2\n      sub\n      swap1\n      revert\n    tag_53:\n        /* \"contracts/SimpleVoting.sol\":5062:5068  sender */\n      dup1\n        /* \"contracts/SimpleVoting.sol\":5062:5074  sender.voted */\n      0x01\n      add\n      0x00\n      swap1\n      sload\n      swap1\n      0x0100\n      exp\n      swap1\n      div\n      0xff\n      and\n        /* \"contracts/SimpleVoting.sol\":5061:5074  !sender.voted */\n      iszero\n        /* \"contracts/SimpleVoting.sol\":5053:5093  require(!sender.voted, \"Already voted.\") */\n      tag_56\n      jumpi\n      mload(0x40)\n      0x08c379a000000000000000000000000000000000000000000000000000000000\n      dup2\n      mstore\n      0x04\n      add\n      tag_57\n      swap1\n      tag_58\n      jump\t// in\n    tag_57:\n      mload(0x40)\n      dup1\n      swap2\n      sub\n      swap1\n      revert\n    tag_56:\n        /* \"contracts/SimpleVoting.sol\":5124:5137  proposalCount */\n      sload(0x00)\n        /* \"contracts/SimpleVoting.sol\":5113:5121  proposal */\n      dup3\n        /* \"contracts/SimpleVoting.sol\":5113:5137  proposal < proposalCount */\n      lt\n        /* \"contracts/SimpleVoting.sol\":5104:5185  require (proposal < proposalCount, \"SimpleVoting: Proposal index out of bounds.\") */\n      tag_59\n      jumpi\n      mload(0x40)\n      0x08c379a000000000000000000000000000000000000000000000000000000000\n      dup2\n      mstore\n      0x04\n      add\n      tag_60\n      swap1\n      tag_61\n      jump\t// in\n    tag_60:\n      mload(0x40)\n      dup1\n      swap2\n      sub\n      swap1\n      revert\n    tag_59:\n        /* \"contracts/SimpleVoting.sol\":5211:5215  true */\n      0x01\n        /* \"contracts/SimpleVoting.sol\":5196:5202  sender */\n      dup2\n        /* \"contracts/SimpleVoting.sol\":5196:5208  sender.voted */\n      0x01\n      add\n      0x00\n        /* \"contracts/SimpleVoting.sol\":5196:5215  sender.voted = true */\n      0x0100\n      exp\n      dup2\n      sload\n      dup2\n      0xff\n      mul\n      not\n      and\n      swap1\n      dup4\n      iszero\n      iszero\n      mul\n      or\n      swap1\n      sstore\n      pop\n        /* \"contracts/SimpleVoting.sol\":5240:5248  proposal */\n      dup2\n        /* \"contracts/SimpleVoting.sol\":5226:5232  sender */\n      dup2\n        /* \"contracts/SimpleVoting.sol\":5226:5237  sender.vote */\n      0x02\n      add\n        /* \"contracts/SimpleVoting.sol\":5226:5248  sender.vote = proposal */\n      dup2\n      swap1\n      sstore\n      pop\n        /* \"contracts/SimpleVoting.sol\":5431:5480  proposals[proposal].voteCount. add(sender.weight) */\n      tag_62\n        /* \"contracts/SimpleVoting.sol\":5466:5472  sender */\n      dup2\n        /* \"contracts/SimpleVoting.sol\":5466:5479  sender.weight */\n      0x00\n      add\n      sload\n        /* \"contracts/SimpleVoting.sol\":5431:5440  proposals */\n      0x03\n        /* \"contracts/SimpleVoting.sol\":5441:5449  proposal */\n      dup5\n        /* \"contracts/SimpleVoting.sol\":5431:5450  proposals[proposal] */\n      dup2\n      sload\n      dup2\n      lt\n      tag_63\n      jumpi\n      tag_64\n      tag_65\n      jump\t// in\n    tag_64:\n    tag_63:\n      swap1\n      0x00\n      mstore\n      keccak256(0x00, 0x20)\n      swap1\n      0x02\n      mul\n      add\n        /* \"contracts/SimpleVoting.sol\":5431:5460  proposals[proposal].voteCount */\n      0x01\n      add\n      sload\n        /* \"contracts/SimpleVoting.sol\":5431:5465  proposals[proposal].voteCount. add */\n      tag_49\n      swap1\n        /* \"contracts/SimpleVoting.sol\":5431:5480  proposals[proposal].voteCount. add(sender.weight) */\n      swap2\n      swap1\n      0xffffffff\n      and\n      jump\t// in\n    tag_62:\n        /* \"contracts/SimpleVoting.sol\":5399:5408  proposals */\n      0x03\n        /* \"contracts/SimpleVoting.sol\":5409:5417  proposal */\n      dup4\n        /* \"contracts/SimpleVoting.sol\":5399:5418  proposals[proposal] */\n      dup2\n      sload\n      dup2\n      lt\n      tag_67\n      jumpi\n      tag_68\n      tag_65\n      jump\t// in\n    tag_68:\n    tag_67:\n      swap1\n      0x00\n      mstore\n      keccak256(0x00, 0x20)\n      swap1\n      0x02\n      mul\n      add\n        /* \"contracts/SimpleVoting.sol\":5399:5428  proposals[proposal].voteCount */\n      0x01\n      add\n        /* \"contracts/SimpleVoting.sol\":5399:5480  proposals[proposal].voteCount = proposals[proposal].voteCount. add(sender.weight) */\n      dup2\n      swap1\n      sstore\n      pop\n        /* \"contracts/SimpleVoting.sol\":5520:5532  _msgSender() */\n      tag_70\n        /* \"contracts/SimpleVoting.sol\":5520:5530  _msgSender */\n      tag_52\n        /* \"contracts/SimpleVoting.sol\":5520:5532  _msgSender() */\n      jump\t// in\n    tag_70:\n        /* \"contracts/SimpleVoting.sol\":5498:5548  VoteCasted (proposal, _msgSender(), sender.weight) */\n      0xffffffffffffffffffffffffffffffffffffffff\n      and\n        /* \"contracts/SimpleVoting.sol\":5510:5518  proposal */\n      dup3\n        /* \"contracts/SimpleVoting.sol\":5498:5548  VoteCasted (proposal, _msgSender(), sender.weight) */\n      0xe7ee74ca1f4bb1b82b14f87794c45b3e59c39e372b862fb97a6316b43355b69e\n        /* \"contracts/SimpleVoting.sol\":5534:5540  sender */\n      dup4\n        /* \"contracts/SimpleVoting.sol\":5534:5547  sender.weight */\n      0x00\n      add\n      sload\n        /* \"contracts/SimpleVoting.sol\":5498:5548  VoteCasted (proposal, _msgSender(), sender.weight) */\n      mload(0x40)\n      tag_71\n      swap2\n      swap1\n      tag_24\n      jump\t// in\n    tag_71:\n      mload(0x40)\n      dup1\n      swap2\n      sub\n      swap1\n      log3\n        /* \"contracts/SimpleVoting.sol\":4905:5556  {\r... */\n      pop\n        /* \"contracts/SimpleVoting.sol\":4869:5556  function vote(uint proposal) public {\r... */\n      pop\n      jump\t// out\n        /* \"contracts/SimpleVoting.sol\":3438:4675  function delegate(address _to) public notYetVoted (_msgSender()) {\r... */\n    tag_20:\n        /* \"contracts/SimpleVoting.sol\":3489:3501  _msgSender() */\n      tag_72\n        /* \"contracts/SimpleVoting.sol\":3489:3499  _msgSender */\n      tag_52\n        /* \"contracts/SimpleVoting.sol\":3489:3501  _msgSender() */\n      jump\t// in\n    tag_72:\n        /* \"contracts/SimpleVoting.sol\":1670:1676  voters */\n      0x02\n        /* \"contracts/SimpleVoting.sol\":1670:1684  voters[_voter] */\n      0x00\n        /* \"contracts/SimpleVoting.sol\":1677:1683  _voter */\n      dup3\n        /* \"contracts/SimpleVoting.sol\":1670:1684  voters[_voter] */\n      0xffffffffffffffffffffffffffffffffffffffff\n      and\n      0xffffffffffffffffffffffffffffffffffffffff\n      and\n      dup2\n      mstore\n      0x20\n      add\n      swap1\n      dup2\n      mstore\n      0x20\n      add\n      0x00\n      keccak256\n        /* \"contracts/SimpleVoting.sol\":1670:1690  voters[_voter].voted */\n      0x01\n      add\n      0x00\n      swap1\n      sload\n      swap1\n      0x0100\n      exp\n      swap1\n      div\n      0xff\n      and\n        /* \"contracts/SimpleVoting.sol\":1669:1690  !voters[_voter].voted */\n      iszero\n        /* \"contracts/SimpleVoting.sol\":1647:1760  require(\r... */\n      tag_74\n      jumpi\n      mload(0x40)\n      0x08c379a000000000000000000000000000000000000000000000000000000000\n      dup2\n      mstore\n      0x04\n      add\n      tag_75\n      swap1\n      tag_76\n      jump\t// in\n    tag_75:\n      mload(0x40)\n      dup1\n      swap2\n      sub\n      swap1\n      revert\n    tag_74:\n        /* \"contracts/SimpleVoting.sol\":3553:3554  0 */\n      0x00\n        /* \"contracts/SimpleVoting.sol\":3523:3529  voters */\n      0x02\n        /* \"contracts/SimpleVoting.sol\":3523:3543  voters[_msgSender()] */\n      0x00\n        /* \"contracts/SimpleVoting.sol\":3530:3542  _msgSender() */\n      tag_78\n        /* \"contracts/SimpleVoting.sol\":3530:3540  _msgSender */\n      tag_52\n        /* \"contracts/SimpleVoting.sol\":3530:3542  _msgSender() */\n      jump\t// in\n    tag_78:\n        /* \"contracts/SimpleVoting.sol\":3523:3543  voters[_msgSender()] */\n      0xffffffffffffffffffffffffffffffffffffffff\n      and\n      0xffffffffffffffffffffffffffffffffffffffff\n      and\n      dup2\n      mstore\n      0x20\n      add\n      swap1\n      dup2\n      mstore\n      0x20\n      add\n      0x00\n      keccak256\n        /* \"contracts/SimpleVoting.sol\":3523:3550  voters[_msgSender()].weight */\n      0x00\n      add\n      sload\n        /* \"contracts/SimpleVoting.sol\":3523:3554  voters[_msgSender()].weight > 0 */\n      gt\n        /* \"contracts/SimpleVoting.sol\":3514:3608  require (voters[_msgSender()].weight > 0, \"SimpleVoting: Caller does not have right to vote.\") */\n      tag_79\n      jumpi\n      mload(0x40)\n      0x08c379a000000000000000000000000000000000000000000000000000000000\n      dup2\n      mstore\n      0x04\n      add\n      tag_80\n      swap1\n      tag_81\n      jump\t// in\n    tag_80:\n      mload(0x40)\n      dup1\n      swap2\n      sub\n      swap1\n      revert\n    tag_79:\n        /* \"contracts/SimpleVoting.sol\":3619:3639  Voter storage sender */\n      0x00\n        /* \"contracts/SimpleVoting.sol\":3642:3648  voters */\n      0x02\n        /* \"contracts/SimpleVoting.sol\":3642:3662  voters[_msgSender()] */\n      0x00\n        /* \"contracts/SimpleVoting.sol\":3649:3661  _msgSender() */\n      tag_82\n        /* \"contracts/SimpleVoting.sol\":3649:3659  _msgSender */\n      tag_52\n        /* \"contracts/SimpleVoting.sol\":3649:3661  _msgSender() */\n      jump\t// in\n    tag_82:\n        /* \"contracts/SimpleVoting.sol\":3642:3662  voters[_msgSender()] */\n      0xffffffffffffffffffffffffffffffffffffffff\n      and\n      0xffffffffffffffffffffffffffffffffffffffff\n      and\n      dup2\n      mstore\n      0x20\n      add\n      swap1\n      dup2\n      mstore\n      0x20\n      add\n      0x00\n      keccak256\n        /* \"contracts/SimpleVoting.sol\":3619:3662  Voter storage sender = voters[_msgSender()] */\n      swap1\n      pop\n        /* \"contracts/SimpleVoting.sol\":3746:3758  _msgSender() */\n      tag_83\n        /* \"contracts/SimpleVoting.sol\":3746:3756  _msgSender */\n      tag_52\n        /* \"contracts/SimpleVoting.sol\":3746:3758  _msgSender() */\n      jump\t// in\n    tag_83:\n        /* \"contracts/SimpleVoting.sol\":3739:3758  _to != _msgSender() */\n      0xffffffffffffffffffffffffffffffffffffffff\n      and\n        /* \"contracts/SimpleVoting.sol\":3739:3742  _to */\n      dup4\n        /* \"contracts/SimpleVoting.sol\":3739:3758  _to != _msgSender() */\n      0xffffffffffffffffffffffffffffffffffffffff\n      and\n      eq\n      iszero\n        /* \"contracts/SimpleVoting.sol\":3730:3808  require (_to != _msgSender(), \"SimpleVoting: Self-delegation is not allowed.\") */\n      tag_84\n      jumpi\n      mload(0x40)\n      0x08c379a000000000000000000000000000000000000000000000000000000000\n      dup2\n      mstore\n      0x04\n      add\n      tag_85\n      swap1\n      tag_86\n      jump\t// in\n    tag_85:\n      mload(0x40)\n      dup1\n      swap2\n      sub\n      swap1\n      revert\n    tag_84:\n        /* \"contracts/SimpleVoting.sol\":3821:4077  while (voters[_to].delegate != address(0)) {\r... */\n    tag_87:\n        /* \"contracts/SimpleVoting.sol\":3860:3861  0 */\n      0x00\n        /* \"contracts/SimpleVoting.sol\":3828:3862  voters[_to].delegate != address(0) */\n      0xffffffffffffffffffffffffffffffffffffffff\n      and\n        /* \"contracts/SimpleVoting.sol\":3828:3834  voters */\n      0x02\n        /* \"contracts/SimpleVoting.sol\":3828:3839  voters[_to] */\n      0x00\n        /* \"contracts/SimpleVoting.sol\":3835:3838  _to */\n      dup6\n        /* \"contracts/SimpleVoting.sol\":3828:3839  voters[_to] */\n      0xffffffffffffffffffffffffffffffffffffffff\n      and\n      0xffffffffffffffffffffffffffffffffffffffff\n      and\n      dup2\n      mstore\n      0x20\n      add\n      swap1\n      dup2\n      mstore\n      0x20\n      add\n      0x00\n      keccak256\n        /* \"contracts/SimpleVoting.sol\":3828:3848  voters[_to].delegate */\n      0x01\n      add\n      0x01\n      swap1\n      sload\n      swap1\n      0x0100\n      exp\n      swap1\n      div\n      0xffffffffffffffffffffffffffffffffffffffff\n      and\n        /* \"contracts/SimpleVoting.sol\":3828:3862  voters[_to].delegate != address(0) */\n      0xffffffffffffffffffffffffffffffffffffffff\n      and\n      eq\n        /* \"contracts/SimpleVoting.sol\":3821:4077  while (voters[_to].delegate != address(0)) {\r... */\n      tag_88\n      jumpi\n        /* \"contracts/SimpleVoting.sol\":3885:3891  voters */\n      0x02\n        /* \"contracts/SimpleVoting.sol\":3885:3896  voters[_to] */\n      0x00\n        /* \"contracts/SimpleVoting.sol\":3892:3895  _to */\n      dup5\n        /* \"contracts/SimpleVoting.sol\":3885:3896  voters[_to] */\n      0xffffffffffffffffffffffffffffffffffffffff\n      and\n      0xffffffffffffffffffffffffffffffffffffffff\n      and\n      dup2\n      mstore\n      0x20\n      add\n      swap1\n      dup2\n      mstore\n      0x20\n      add\n      0x00\n      keccak256\n        /* \"contracts/SimpleVoting.sol\":3885:3905  voters[_to].delegate */\n      0x01\n      add\n      0x01\n      swap1\n      sload\n      swap1\n      0x0100\n      exp\n      swap1\n      div\n      0xffffffffffffffffffffffffffffffffffffffff\n      and\n        /* \"contracts/SimpleVoting.sol\":3879:3905  _to = voters[_to].delegate */\n      swap3\n      pop\n        /* \"contracts/SimpleVoting.sol\":4001:4013  _msgSender() */\n      tag_89\n        /* \"contracts/SimpleVoting.sol\":4001:4011  _msgSender */\n      tag_52\n        /* \"contracts/SimpleVoting.sol\":4001:4013  _msgSender() */\n      jump\t// in\n    tag_89:\n        /* \"contracts/SimpleVoting.sol\":3994:4013  _to != _msgSender() */\n      0xffffffffffffffffffffffffffffffffffffffff\n      and\n        /* \"contracts/SimpleVoting.sol\":3994:3997  _to */\n      dup4\n        /* \"contracts/SimpleVoting.sol\":3994:4013  _to != _msgSender() */\n      0xffffffffffffffffffffffffffffffffffffffff\n      and\n      eq\n      iszero\n        /* \"contracts/SimpleVoting.sol\":3986:4065  require(_to != _msgSender(), \"SimpleVoting: Delegation traces back to caller.\") */\n      tag_90\n      jumpi\n      mload(0x40)\n      0x08c379a000000000000000000000000000000000000000000000000000000000\n      dup2\n      mstore\n      0x04\n      add\n      tag_91\n      swap1\n      tag_92\n      jump\t// in\n    tag_91:\n      mload(0x40)\n      dup1\n      swap2\n      sub\n      swap1\n      revert\n    tag_90:\n        /* \"contracts/SimpleVoting.sol\":3821:4077  while (voters[_to].delegate != address(0)) {\r... */\n      jump(tag_87)\n    tag_88:\n        /* \"contracts/SimpleVoting.sol\":4102:4106  true */\n      0x01\n        /* \"contracts/SimpleVoting.sol\":4087:4093  sender */\n      dup2\n        /* \"contracts/SimpleVoting.sol\":4087:4099  sender.voted */\n      0x01\n      add\n      0x00\n        /* \"contracts/SimpleVoting.sol\":4087:4106  sender.voted = true */\n      0x0100\n      exp\n      dup2\n      sload\n      dup2\n      0xff\n      mul\n      not\n      and\n      swap1\n      dup4\n      iszero\n      iszero\n      mul\n      or\n      swap1\n      sstore\n      pop\n        /* \"contracts/SimpleVoting.sol\":4135:4138  _to */\n      dup3\n        /* \"contracts/SimpleVoting.sol\":4117:4123  sender */\n      dup2\n        /* \"contracts/SimpleVoting.sol\":4117:4132  sender.delegate */\n      0x01\n      add\n      0x01\n        /* \"contracts/SimpleVoting.sol\":4117:4138  sender.delegate = _to */\n      0x0100\n      exp\n      dup2\n      sload\n      dup2\n      0xffffffffffffffffffffffffffffffffffffffff\n      mul\n      not\n      and\n      swap1\n      dup4\n      0xffffffffffffffffffffffffffffffffffffffff\n      and\n      mul\n      or\n      swap1\n      sstore\n      pop\n        /* \"contracts/SimpleVoting.sol\":4149:4172  Voter storage delegate_ */\n      0x00\n        /* \"contracts/SimpleVoting.sol\":4175:4181  voters */\n      0x02\n        /* \"contracts/SimpleVoting.sol\":4175:4186  voters[_to] */\n      0x00\n        /* \"contracts/SimpleVoting.sol\":4182:4185  _to */\n      dup6\n        /* \"contracts/SimpleVoting.sol\":4175:4186  voters[_to] */\n      0xffffffffffffffffffffffffffffffffffffffff\n      and\n      0xffffffffffffffffffffffffffffffffffffffff\n      and\n      dup2\n      mstore\n      0x20\n      add\n      swap1\n      dup2\n      mstore\n      0x20\n      add\n      0x00\n      keccak256\n        /* \"contracts/SimpleVoting.sol\":4149:4186  Voter storage delegate_ = voters[_to] */\n      swap1\n      pop\n        /* \"contracts/SimpleVoting.sol\":4201:4210  delegate_ */\n      dup1\n        /* \"contracts/SimpleVoting.sol\":4201:4216  delegate_.voted */\n      0x01\n      add\n      0x00\n      swap1\n      sload\n      swap1\n      0x0100\n      exp\n      swap1\n      div\n      0xff\n      and\n        /* \"contracts/SimpleVoting.sol\":4197:4610  if (delegate_.voted) {\r... */\n      iszero\n      tag_93\n      jumpi\n        /* \"contracts/SimpleVoting.sol\":4370:4425  proposals[delegate_.vote].voteCount. add(sender.weight) */\n      tag_94\n        /* \"contracts/SimpleVoting.sol\":4411:4417  sender */\n      dup3\n        /* \"contracts/SimpleVoting.sol\":4411:4424  sender.weight */\n      0x00\n      add\n      sload\n        /* \"contracts/SimpleVoting.sol\":4370:4379  proposals */\n      0x03\n        /* \"contracts/SimpleVoting.sol\":4380:4389  delegate_ */\n      dup4\n        /* \"contracts/SimpleVoting.sol\":4380:4394  delegate_.vote */\n      0x02\n      add\n      sload\n        /* \"contracts/SimpleVoting.sol\":4370:4395  proposals[delegate_.vote] */\n      dup2\n      sload\n      dup2\n      lt\n      tag_95\n      jumpi\n      tag_96\n      tag_65\n      jump\t// in\n    tag_96:\n    tag_95:\n      swap1\n      0x00\n      mstore\n      keccak256(0x00, 0x20)\n      swap1\n      0x02\n      mul\n      add\n        /* \"contracts/SimpleVoting.sol\":4370:4405  proposals[delegate_.vote].voteCount */\n      0x01\n      add\n      sload\n        /* \"contracts/SimpleVoting.sol\":4370:4410  proposals[delegate_.vote].voteCount. add */\n      tag_49\n      swap1\n        /* \"contracts/SimpleVoting.sol\":4370:4425  proposals[delegate_.vote].voteCount. add(sender.weight) */\n      swap2\n      swap1\n      0xffffffff\n      and\n      jump\t// in\n    tag_94:\n        /* \"contracts/SimpleVoting.sol\":4332:4341  proposals */\n      0x03\n        /* \"contracts/SimpleVoting.sol\":4342:4351  delegate_ */\n      dup3\n        /* \"contracts/SimpleVoting.sol\":4342:4356  delegate_.vote */\n      0x02\n      add\n      sload\n        /* \"contracts/SimpleVoting.sol\":4332:4357  proposals[delegate_.vote] */\n      dup2\n      sload\n      dup2\n      lt\n      tag_98\n      jumpi\n      tag_99\n      tag_65\n      jump\t// in\n    tag_99:\n    tag_98:\n      swap1\n      0x00\n      mstore\n      keccak256(0x00, 0x20)\n      swap1\n      0x02\n      mul\n      add\n        /* \"contracts/SimpleVoting.sol\":4332:4367  proposals[delegate_.vote].voteCount */\n      0x01\n      add\n        /* \"contracts/SimpleVoting.sol\":4332:4425  proposals[delegate_.vote].voteCount = proposals[delegate_.vote].voteCount. add(sender.weight) */\n      dup2\n      swap1\n      sstore\n      pop\n        /* \"contracts/SimpleVoting.sol\":4197:4610  if (delegate_.voted) {\r... */\n      jump(tag_101)\n    tag_93:\n        /* \"contracts/SimpleVoting.sol\":4562:4598  delegate_.weight. add(sender.weight) */\n      tag_102\n        /* \"contracts/SimpleVoting.sol\":4584:4590  sender */\n      dup3\n        /* \"contracts/SimpleVoting.sol\":4584:4597  sender.weight */\n      0x00\n      add\n      sload\n        /* \"contracts/SimpleVoting.sol\":4562:4571  delegate_ */\n      dup3\n        /* \"contracts/SimpleVoting.sol\":4562:4578  delegate_.weight */\n      0x00\n      add\n      sload\n        /* \"contracts/SimpleVoting.sol\":4562:4583  delegate_.weight. add */\n      tag_49\n      swap1\n        /* \"contracts/SimpleVoting.sol\":4562:4598  delegate_.weight. add(sender.weight) */\n      swap2\n      swap1\n      0xffffffff\n      and\n      jump\t// in\n    tag_102:\n        /* \"contracts/SimpleVoting.sol\":4543:4552  delegate_ */\n      dup2\n        /* \"contracts/SimpleVoting.sol\":4543:4559  delegate_.weight */\n      0x00\n      add\n        /* \"contracts/SimpleVoting.sol\":4543:4598  delegate_.weight = delegate_.weight. add(sender.weight) */\n      dup2\n      swap1\n      sstore\n      pop\n        /* \"contracts/SimpleVoting.sol\":4197:4610  if (delegate_.voted) {\r... */\n    tag_101:\n        /* \"contracts/SimpleVoting.sol\":4663:4666  _to */\n      dup4\n        /* \"contracts/SimpleVoting.sol\":4627:4667  DelegationSuccessful (_msgSender(), _to) */\n      0xffffffffffffffffffffffffffffffffffffffff\n      and\n        /* \"contracts/SimpleVoting.sol\":4649:4661  _msgSender() */\n      tag_103\n        /* \"contracts/SimpleVoting.sol\":4649:4659  _msgSender */\n      tag_52\n        /* \"contracts/SimpleVoting.sol\":4649:4661  _msgSender() */\n      jump\t// in\n    tag_103:\n        /* \"contracts/SimpleVoting.sol\":4627:4667  DelegationSuccessful (_msgSender(), _to) */\n      0xffffffffffffffffffffffffffffffffffffffff\n      and\n      0x4ce9ef2c99d761d69230b0e3381f4c6016333b2e27d32b3e379a96b5d2c69232\n      mload(0x40)\n      mload(0x40)\n      dup1\n      swap2\n      sub\n      swap1\n      log3\n        /* \"contracts/SimpleVoting.sol\":3503:4675  {\r... */\n      pop\n      pop\n        /* \"contracts/SimpleVoting.sol\":3438:4675  function delegate(address _to) public notYetVoted (_msgSender()) {\r... */\n      pop\n      pop\n      jump\t// out\n        /* \"contracts/SimpleVoting.sol\":5748:6133  function winningProposal() public view\r... */\n    tag_22:\n        /* \"contracts/SimpleVoting.sol\":5809:5833  uint256 winningProposal_ */\n      0x00\n        /* \"contracts/SimpleVoting.sol\":5851:5872  uint winningVoteCount */\n      dup1\n        /* \"contracts/SimpleVoting.sol\":5875:5876  0 */\n      0x00\n        /* \"contracts/SimpleVoting.sol\":5851:5876  uint winningVoteCount = 0 */\n      swap1\n      pop\n        /* \"contracts/SimpleVoting.sol\":5892:5898  uint p */\n      0x00\n        /* \"contracts/SimpleVoting.sol\":5887:6126  for (uint p = 0; p < proposalCount; p = p. add(1)) {\r... */\n    tag_105:\n        /* \"contracts/SimpleVoting.sol\":5908:5921  proposalCount */\n      sload(0x00)\n        /* \"contracts/SimpleVoting.sol\":5904:5905  p */\n      dup2\n        /* \"contracts/SimpleVoting.sol\":5904:5921  p < proposalCount */\n      lt\n        /* \"contracts/SimpleVoting.sol\":5887:6126  for (uint p = 0; p < proposalCount; p = p. add(1)) {\r... */\n      iszero\n      tag_106\n      jumpi\n        /* \"contracts/SimpleVoting.sol\":5982:5998  winningVoteCount */\n      dup2\n        /* \"contracts/SimpleVoting.sol\":5957:5966  proposals */\n      0x03\n        /* \"contracts/SimpleVoting.sol\":5967:5968  p */\n      dup3\n        /* \"contracts/SimpleVoting.sol\":5957:5969  proposals[p] */\n      dup2\n      sload\n      dup2\n      lt\n      tag_108\n      jumpi\n      tag_109\n      tag_65\n      jump\t// in\n    tag_109:\n    tag_108:\n      swap1\n      0x00\n      mstore\n      keccak256(0x00, 0x20)\n      swap1\n      0x02\n      mul\n      add\n        /* \"contracts/SimpleVoting.sol\":5957:5979  proposals[p].voteCount */\n      0x01\n      add\n      sload\n        /* \"contracts/SimpleVoting.sol\":5957:5998  proposals[p].voteCount > winningVoteCount */\n      gt\n        /* \"contracts/SimpleVoting.sol\":5953:6115  if (proposals[p].voteCount > winningVoteCount) {\r... */\n      iszero\n      tag_111\n      jumpi\n        /* \"contracts/SimpleVoting.sol\":6038:6047  proposals */\n      0x03\n        /* \"contracts/SimpleVoting.sol\":6048:6049  p */\n      dup2\n        /* \"contracts/SimpleVoting.sol\":6038:6050  proposals[p] */\n      dup2\n      sload\n      dup2\n      lt\n      tag_112\n      jumpi\n      tag_113\n      tag_65\n      jump\t// in\n    tag_113:\n    tag_112:\n      swap1\n      0x00\n      mstore\n      keccak256(0x00, 0x20)\n      swap1\n      0x02\n      mul\n      add\n        /* \"contracts/SimpleVoting.sol\":6038:6060  proposals[p].voteCount */\n      0x01\n      add\n      sload\n        /* \"contracts/SimpleVoting.sol\":6019:6060  winningVoteCount = proposals[p].voteCount */\n      swap2\n      pop\n        /* \"contracts/SimpleVoting.sol\":6098:6099  p */\n      dup1\n        /* \"contracts/SimpleVoting.sol\":6079:6099  winningProposal_ = p */\n      swap3\n      pop\n        /* \"contracts/SimpleVoting.sol\":5953:6115  if (proposals[p].voteCount > winningVoteCount) {\r... */\n    tag_111:\n        /* \"contracts/SimpleVoting.sol\":5927:5936  p. add(1) */\n      tag_115\n        /* \"contracts/SimpleVoting.sol\":5934:5935  1 */\n      0x01\n        /* \"contracts/SimpleVoting.sol\":5927:5928  p */\n      dup3\n        /* \"contracts/SimpleVoting.sol\":5927:5933  p. add */\n      tag_49\n      swap1\n        /* \"contracts/SimpleVoting.sol\":5927:5936  p. add(1) */\n      swap2\n      swap1\n      0xffffffff\n      and\n      jump\t// in\n    tag_115:\n        /* \"contracts/SimpleVoting.sol\":5923:5936  p = p. add(1) */\n      swap1\n      pop\n        /* \"contracts/SimpleVoting.sol\":5887:6126  for (uint p = 0; p < proposalCount; p = p. add(1)) {\r... */\n      jump(tag_105)\n    tag_106:\n      pop\n        /* \"contracts/SimpleVoting.sol\":5840:6133  {\r... */\n      pop\n        /* \"contracts/SimpleVoting.sol\":5748:6133  function winningProposal() public view\r... */\n      swap1\n      jump\t// out\n        /* \"contracts/SimpleVoting.sol\":2819:3307  function giveRightToVote(address _voter) public onlyChairPerson () notYetVoted (_voter) {\r... */\n    tag_27:\n        /* \"contracts/SimpleVoting.sol\":1475:1486  chairPerson */\n      0x01\n      0x00\n      swap1\n      sload\n      swap1\n      0x0100\n      exp\n      swap1\n      div\n      0xffffffffffffffffffffffffffffffffffffffff\n      and\n        /* \"contracts/SimpleVoting.sol\":1459:1486  _msgSender() == chairPerson */\n      0xffffffffffffffffffffffffffffffffffffffff\n      and\n        /* \"contracts/SimpleVoting.sol\":1459:1471  _msgSender() */\n      tag_117\n        /* \"contracts/SimpleVoting.sol\":1459:1469  _msgSender */\n      tag_52\n        /* \"contracts/SimpleVoting.sol\":1459:1471  _msgSender() */\n      jump\t// in\n    tag_117:\n        /* \"contracts/SimpleVoting.sol\":1459:1486  _msgSender() == chairPerson */\n      0xffffffffffffffffffffffffffffffffffffffff\n      and\n      eq\n        /* \"contracts/SimpleVoting.sol\":1437:1568  require(\r... */\n      tag_118\n      jumpi\n      mload(0x40)\n      0x08c379a000000000000000000000000000000000000000000000000000000000\n      dup2\n      mstore\n      0x04\n      add\n      tag_119\n      swap1\n      tag_120\n      jump\t// in\n    tag_119:\n      mload(0x40)\n      dup1\n      swap2\n      sub\n      swap1\n      revert\n    tag_118:\n        /* \"contracts/SimpleVoting.sol\":2899:2905  _voter */\n      dup1\n        /* \"contracts/SimpleVoting.sol\":1670:1676  voters */\n      0x02\n        /* \"contracts/SimpleVoting.sol\":1670:1684  voters[_voter] */\n      0x00\n        /* \"contracts/SimpleVoting.sol\":1677:1683  _voter */\n      dup3\n        /* \"contracts/SimpleVoting.sol\":1670:1684  voters[_voter] */\n      0xffffffffffffffffffffffffffffffffffffffff\n      and\n      0xffffffffffffffffffffffffffffffffffffffff\n      and\n      dup2\n      mstore\n      0x20\n      add\n      swap1\n      dup2\n      mstore\n      0x20\n      add\n      0x00\n      keccak256\n        /* \"contracts/SimpleVoting.sol\":1670:1690  voters[_voter].voted */\n      0x01\n      add\n      0x00\n      swap1\n      sload\n      swap1\n      0x0100\n      exp\n      swap1\n      div\n      0xff\n      and\n        /* \"contracts/SimpleVoting.sol\":1669:1690  !voters[_voter].voted */\n      iszero\n        /* \"contracts/SimpleVoting.sol\":1647:1760  require(\r... */\n      tag_122\n      jumpi\n      mload(0x40)\n      0x08c379a000000000000000000000000000000000000000000000000000000000\n      dup2\n      mstore\n      0x04\n      add\n      tag_123\n      swap1\n      tag_76\n      jump\t// in\n    tag_123:\n      mload(0x40)\n      dup1\n      swap2\n      sub\n      swap1\n      revert\n    tag_122:\n        /* \"contracts/SimpleVoting.sol\":3209:3210  0 */\n      0x00\n        /* \"contracts/SimpleVoting.sol\":3184:3190  voters */\n      0x02\n        /* \"contracts/SimpleVoting.sol\":3184:3198  voters[_voter] */\n      0x00\n        /* \"contracts/SimpleVoting.sol\":3191:3197  _voter */\n      dup5\n        /* \"contracts/SimpleVoting.sol\":3184:3198  voters[_voter] */\n      0xffffffffffffffffffffffffffffffffffffffff\n      and\n      0xffffffffffffffffffffffffffffffffffffffff\n      and\n      dup2\n      mstore\n      0x20\n      add\n      swap1\n      dup2\n      mstore\n      0x20\n      add\n      0x00\n      keccak256\n        /* \"contracts/SimpleVoting.sol\":3184:3205  voters[_voter].weight */\n      0x00\n      add\n      sload\n        /* \"contracts/SimpleVoting.sol\":3184:3210  voters[_voter].weight == 0 */\n      eq\n        /* \"contracts/SimpleVoting.sol\":3176:3263  require(voters[_voter].weight == 0, \"SimpleVoting: Address already has right to vote.\") */\n      tag_125\n      jumpi\n      mload(0x40)\n      0x08c379a000000000000000000000000000000000000000000000000000000000\n      dup2\n      mstore\n      0x04\n      add\n      tag_126\n      swap1\n      tag_127\n      jump\t// in\n    tag_126:\n      mload(0x40)\n      dup1\n      swap2\n      sub\n      swap1\n      revert\n    tag_125:\n        /* \"contracts/SimpleVoting.sol\":3298:3299  1 */\n      0x01\n        /* \"contracts/SimpleVoting.sol\":3274:3280  voters */\n      0x02\n        /* \"contracts/SimpleVoting.sol\":3274:3288  voters[_voter] */\n      0x00\n        /* \"contracts/SimpleVoting.sol\":3281:3287  _voter */\n      dup5\n        /* \"contracts/SimpleVoting.sol\":3274:3288  voters[_voter] */\n      0xffffffffffffffffffffffffffffffffffffffff\n      and\n      0xffffffffffffffffffffffffffffffffffffffff\n      and\n      dup2\n      mstore\n      0x20\n      add\n      swap1\n      dup2\n      mstore\n      0x20\n      add\n      0x00\n      keccak256\n        /* \"contracts/SimpleVoting.sol\":3274:3295  voters[_voter].weight */\n      0x00\n      add\n        /* \"contracts/SimpleVoting.sol\":3274:3299  voters[_voter].weight = 1 */\n      dup2\n      swap1\n      sstore\n      pop\n        /* \"contracts/SimpleVoting.sol\":1579:1580  _ */\n      pop\n        /* \"contracts/SimpleVoting.sol\":2819:3307  function giveRightToVote(address _voter) public onlyChairPerson () notYetVoted (_voter) {\r... */\n      pop\n      jump\t// out\n        /* \"contracts/SimpleVoting.sol\":1067:1106  mapping(address => Voter) public voters */\n    tag_30:\n      mstore(0x20, 0x02)\n      dup1\n      0x00\n      mstore\n      keccak256(0x00, 0x40)\n      0x00\n      swap2\n      pop\n      swap1\n      pop\n      dup1\n      0x00\n      add\n      sload\n      swap1\n      dup1\n      0x01\n      add\n      0x00\n      swap1\n      sload\n      swap1\n      0x0100\n      exp\n      swap1\n      div\n      0xff\n      and\n      swap1\n      dup1\n      0x01\n      add\n      0x01\n      swap1\n      sload\n      swap1\n      0x0100\n      exp\n      swap1\n      div\n      0xffffffffffffffffffffffffffffffffffffffff\n      and\n      swap1\n      dup1\n      0x02\n      add\n      sload\n      swap1\n      pop\n      dup5\n      jump\t// out\n        /* \"contracts/SimpleVoting.sol\":2541:2652  function getProposal (uint256 _proposalIndex) public view returns (Proposal memory proposal) {\r... */\n    tag_35:\n        /* \"contracts/SimpleVoting.sol\":2608:2632  Proposal memory proposal */\n      tag_128\n      tag_129\n      jump\t// in\n    tag_128:\n        /* \"contracts/SimpleVoting.sol\":2541:2652  function getProposal (uint256 _proposalIndex) public view returns (Proposal memory proposal) {\r... */\n      swap2\n      swap1\n      pop\n      jump\t// out\n        /* \"contracts/SimpleVoting.sol\":1032:1058  address public chairPerson */\n    tag_39:\n      0x01\n      0x00\n      swap1\n      sload\n      swap1\n      0x0100\n      exp\n      swap1\n      div\n      0xffffffffffffffffffffffffffffffffffffffff\n      and\n      dup2\n      jump\t// out\n        /* \"contracts/SimpleVoting.sol\":995:1023  uint256 public proposalCount */\n    tag_43:\n      sload(0x00)\n      dup2\n      jump\t// out\n        /* \"contracts/SimpleVoting.sol\":6330:6497  function winnerName() \r... */\n    tag_46:\n        /* \"contracts/SimpleVoting.sol\":6402:6415  string memory */\n      0x60\n        /* \"contracts/SimpleVoting.sol\":6439:6489  bytes32ToString(proposals[winningProposal()].name) */\n      tag_132\n        /* \"contracts/SimpleVoting.sol\":6455:6464  proposals */\n      0x03\n        /* \"contracts/SimpleVoting.sol\":6465:6482  winningProposal() */\n      tag_133\n        /* \"contracts/SimpleVoting.sol\":6465:6480  winningProposal */\n      tag_22\n        /* \"contracts/SimpleVoting.sol\":6465:6482  winningProposal() */\n      jump\t// in\n    tag_133:\n        /* \"contracts/SimpleVoting.sol\":6455:6483  proposals[winningProposal()] */\n      dup2\n      sload\n      dup2\n      lt\n      tag_134\n      jumpi\n      tag_135\n      tag_65\n      jump\t// in\n    tag_135:\n    tag_134:\n      swap1\n      0x00\n      mstore\n      keccak256(0x00, 0x20)\n      swap1\n      0x02\n      mul\n      add\n        /* \"contracts/SimpleVoting.sol\":6455:6488  proposals[winningProposal()].name */\n      0x00\n      add\n      sload\n        /* \"contracts/SimpleVoting.sol\":6439:6454  bytes32ToString */\n      tag_137\n        /* \"contracts/SimpleVoting.sol\":6439:6489  bytes32ToString(proposals[winningProposal()].name) */\n      jump\t// in\n    tag_132:\n        /* \"contracts/SimpleVoting.sol\":6432:6489  return bytes32ToString(proposals[winningProposal()].name) */\n      swap1\n      pop\n        /* \"contracts/SimpleVoting.sol\":6330:6497  function winnerName() \r... */\n      swap1\n      jump\t// out\n        /* \"https://github.com/OpenZeppelin/openzeppelin-contracts/blob/master/contracts/utils/math/SafeMath.sol\":2755:2851  function add(uint256 a, uint256 b) internal pure returns (uint256) {... */\n    tag_49:\n        /* \"https://github.com/OpenZeppelin/openzeppelin-contracts/blob/master/contracts/utils/math/SafeMath.sol\":2813:2820  uint256 */\n      0x00\n        /* \"https://github.com/OpenZeppelin/openzeppelin-contracts/blob/master/contracts/utils/math/SafeMath.sol\":2843:2844  b */\n      dup2\n        /* \"https://github.com/OpenZeppelin/openzeppelin-contracts/blob/master/contracts/utils/math/SafeMath.sol\":2839:2840  a */\n      dup4\n        /* \"https://github.com/OpenZeppelin/openzeppelin-contracts/blob/master/contracts/utils/math/SafeMath.sol\":2839:2844  a + b */\n      tag_139\n      swap2\n      swap1\n      tag_140\n      jump\t// in\n    tag_139:\n        /* \"https://github.com/OpenZeppelin/openzeppelin-contracts/blob/master/contracts/utils/math/SafeMath.sol\":2832:2844  return a + b */\n      swap1\n      pop\n        /* \"https://github.com/OpenZeppelin/openzeppelin-contracts/blob/master/contracts/utils/math/SafeMath.sol\":2755:2851  function add(uint256 a, uint256 b) internal pure returns (uint256) {... */\n      swap3\n      swap2\n      pop\n      pop\n      jump\t// out\n        /* \"https://github.com/OpenZeppelin/openzeppelin-contracts/blob/master/contracts/utils/Context.sol\":640:736  function _msgSender() internal view virtual returns (address) {... */\n    tag_52:\n        /* \"https://github.com/OpenZeppelin/openzeppelin-contracts/blob/master/contracts/utils/Context.sol\":693:700  address */\n      0x00\n        /* \"https://github.com/OpenZeppelin/openzeppelin-contracts/blob/master/contracts/utils/Context.sol\":719:729  msg.sender */\n      caller\n        /* \"https://github.com/OpenZeppelin/openzeppelin-contracts/blob/master/contracts/utils/Context.sol\":712:729  return msg.sender */\n      swap1\n      pop\n        /* \"https://github.com/OpenZeppelin/openzeppelin-contracts/blob/master/contracts/utils/Context.sol\":640:736  function _msgSender() internal view virtual returns (address) {... */\n      swap1\n      jump\t// out\n        /* \"contracts/SimpleVoting.sol\":6669:6819  function bytes32ToString(bytes32 byt) \r... */\n    tag_137:\n        /* \"contracts/SimpleVoting.sol\":6747:6760  string memory */\n      0x60\n        /* \"contracts/SimpleVoting.sol\":6806:6809  byt */\n      dup2\n        /* \"contracts/SimpleVoting.sol\":6788:6810  abi.encodePacked (byt) */\n      add(0x20, mload(0x40))\n      tag_143\n      swap2\n      swap1\n      tag_144\n      jump\t// in\n    tag_143:\n      mload(0x40)\n      0x20\n      dup2\n      dup4\n      sub\n      sub\n      dup2\n      mstore\n      swap1\n      0x40\n      mstore\n        /* \"contracts/SimpleVoting.sol\":6773:6811  return string (abi.encodePacked (byt)) */\n      swap1\n      pop\n        /* \"contracts/SimpleVoting.sol\":6669:6819  function bytes32ToString(bytes32 byt) \r... */\n      swap2\n      swap1\n      pop\n      jump\t// out\n    tag_129:\n      mload(0x40)\n      dup1\n      0x40\n      add\n      0x40\n      mstore\n      dup1\n      0x00\n      dup1\n      not\n      and\n      dup2\n      mstore\n      0x20\n      add\n      0x00\n      dup2\n      mstore\n      pop\n      swap1\n      jump\t// out\n        /* \"#utility.yul\":7:146   */\n    tag_146:\n        /* \"#utility.yul\":53:58   */\n      0x00\n        /* \"#utility.yul\":91:97   */\n      dup2\n        /* \"#utility.yul\":78:98   */\n      calldataload\n        /* \"#utility.yul\":69:98   */\n      swap1\n      pop\n        /* \"#utility.yul\":107:140   */\n      tag_148\n        /* \"#utility.yul\":134:139   */\n      dup2\n        /* \"#utility.yul\":107:140   */\n      tag_149\n      jump\t// in\n    tag_148:\n        /* \"#utility.yul\":7:146   */\n      swap3\n      swap2\n      pop\n      pop\n      jump\t// out\n        /* \"#utility.yul\":152:291   */\n    tag_150:\n        /* \"#utility.yul\":198:203   */\n      0x00\n        /* \"#utility.yul\":236:242   */\n      dup2\n        /* \"#utility.yul\":223:243   */\n      calldataload\n        /* \"#utility.yul\":214:243   */\n      swap1\n      pop\n        /* \"#utility.yul\":252:285   */\n      tag_152\n        /* \"#utility.yul\":279:284   */\n      dup2\n        /* \"#utility.yul\":252:285   */\n      tag_153\n      jump\t// in\n    tag_152:\n        /* \"#utility.yul\":152:291   */\n      swap3\n      swap2\n      pop\n      pop\n      jump\t// out\n        /* \"#utility.yul\":297:626   */\n    tag_19:\n        /* \"#utility.yul\":356:362   */\n      0x00\n        /* \"#utility.yul\":405:407   */\n      0x20\n        /* \"#utility.yul\":393:402   */\n      dup3\n        /* \"#utility.yul\":384:391   */\n      dup5\n        /* \"#utility.yul\":380:403   */\n      sub\n        /* \"#utility.yul\":376:408   */\n      slt\n        /* \"#utility.yul\":373:492   */\n      iszero\n      tag_155\n      jumpi\n        /* \"#utility.yul\":411:490   */\n      tag_156\n      tag_157\n      jump\t// in\n    tag_156:\n        /* \"#utility.yul\":373:492   */\n    tag_155:\n        /* \"#utility.yul\":531:532   */\n      0x00\n        /* \"#utility.yul\":556:609   */\n      tag_158\n        /* \"#utility.yul\":601:608   */\n      dup5\n        /* \"#utility.yul\":592:598   */\n      dup3\n        /* \"#utility.yul\":581:590   */\n      dup6\n        /* \"#utility.yul\":577:599   */\n      add\n        /* \"#utility.yul\":556:609   */\n      tag_146\n      jump\t// in\n    tag_158:\n        /* \"#utility.yul\":546:609   */\n      swap2\n      pop\n        /* \"#utility.yul\":502:619   */\n      pop\n        /* \"#utility.yul\":297:626   */\n      swap3\n      swap2\n      pop\n      pop\n      jump\t// out\n        /* \"#utility.yul\":632:961   */\n    tag_15:\n        /* \"#utility.yul\":691:697   */\n      0x00\n        /* \"#utility.yul\":740:742   */\n      0x20\n        /* \"#utility.yul\":728:737   */\n      dup3\n        /* \"#utility.yul\":719:726   */\n      dup5\n        /* \"#utility.yul\":715:738   */\n      sub\n        /* \"#utility.yul\":711:743   */\n      slt\n        /* \"#utility.yul\":708:827   */\n      iszero\n      tag_160\n      jumpi\n        /* \"#utility.yul\":746:825   */\n      tag_161\n      tag_157\n      jump\t// in\n    tag_161:\n        /* \"#utility.yul\":708:827   */\n    tag_160:\n        /* \"#utility.yul\":866:867   */\n      0x00\n        /* \"#utility.yul\":891:944   */\n      tag_162\n        /* \"#utility.yul\":936:943   */\n      dup5\n        /* \"#utility.yul\":927:933   */\n      dup3\n        /* \"#utility.yul\":916:925   */\n      dup6\n        /* \"#utility.yul\":912:934   */\n      add\n        /* \"#utility.yul\":891:944   */\n      tag_150\n      jump\t// in\n    tag_162:\n        /* \"#utility.yul\":881:944   */\n      swap2\n      pop\n        /* \"#utility.yul\":837:954   */\n      pop\n        /* \"#utility.yul\":632:961   */\n      swap3\n      swap2\n      pop\n      pop\n      jump\t// out\n        /* \"#utility.yul\":967:1085   */\n    tag_163:\n        /* \"#utility.yul\":1054:1078   */\n      tag_165\n        /* \"#utility.yul\":1072:1077   */\n      dup2\n        /* \"#utility.yul\":1054:1078   */\n      tag_166\n      jump\t// in\n    tag_165:\n        /* \"#utility.yul\":1049:1052   */\n      dup3\n        /* \"#utility.yul\":1042:1079   */\n      mstore\n        /* \"#utility.yul\":967:1085   */\n      pop\n      pop\n      jump\t// out\n        /* \"#utility.yul\":1091:1200   */\n    tag_167:\n        /* \"#utility.yul\":1172:1193   */\n      tag_169\n        /* \"#utility.yul\":1187:1192   */\n      dup2\n        /* \"#utility.yul\":1172:1193   */\n      tag_170\n      jump\t// in\n    tag_169:\n        /* \"#utility.yul\":1167:1170   */\n      dup3\n        /* \"#utility.yul\":1160:1194   */\n      mstore\n        /* \"#utility.yul\":1091:1200   */\n      pop\n      pop\n      jump\t// out\n        /* \"#utility.yul\":1206:1314   */\n    tag_171:\n        /* \"#utility.yul\":1283:1307   */\n      tag_173\n        /* \"#utility.yul\":1301:1306   */\n      dup2\n        /* \"#utility.yul\":1283:1307   */\n      tag_174\n      jump\t// in\n    tag_173:\n        /* \"#utility.yul\":1278:1281   */\n      dup3\n        /* \"#utility.yul\":1271:1308   */\n      mstore\n        /* \"#utility.yul\":1206:1314   */\n      pop\n      pop\n      jump\t// out\n        /* \"#utility.yul\":1320:1477   */\n    tag_175:\n        /* \"#utility.yul\":1425:1470   */\n      tag_177\n        /* \"#utility.yul\":1445:1469   */\n      tag_178\n        /* \"#utility.yul\":1463:1468   */\n      dup3\n        /* \"#utility.yul\":1445:1469   */\n      tag_174\n      jump\t// in\n    tag_178:\n        /* \"#utility.yul\":1425:1470   */\n      tag_179\n      jump\t// in\n    tag_177:\n        /* \"#utility.yul\":1420:1423   */\n      dup3\n        /* \"#utility.yul\":1413:1471   */\n      mstore\n        /* \"#utility.yul\":1320:1477   */\n      pop\n      pop\n      jump\t// out\n        /* \"#utility.yul\":1483:1847   */\n    tag_180:\n        /* \"#utility.yul\":1571:1574   */\n      0x00\n        /* \"#utility.yul\":1599:1638   */\n      tag_182\n        /* \"#utility.yul\":1632:1637   */\n      dup3\n        /* \"#utility.yul\":1599:1638   */\n      tag_183\n      jump\t// in\n    tag_182:\n        /* \"#utility.yul\":1654:1725   */\n      tag_184\n        /* \"#utility.yul\":1718:1724   */\n      dup2\n        /* \"#utility.yul\":1713:1716   */\n      dup6\n        /* \"#utility.yul\":1654:1725   */\n      tag_185\n      jump\t// in\n    tag_184:\n        /* \"#utility.yul\":1647:1725   */\n      swap4\n      pop\n        /* \"#utility.yul\":1734:1786   */\n      tag_186\n        /* \"#utility.yul\":1779:1785   */\n      dup2\n        /* \"#utility.yul\":1774:1777   */\n      dup6\n        /* \"#utility.yul\":1767:1771   */\n      0x20\n        /* \"#utility.yul\":1760:1765   */\n      dup7\n        /* \"#utility.yul\":1756:1772   */\n      add\n        /* \"#utility.yul\":1734:1786   */\n      tag_187\n      jump\t// in\n    tag_186:\n        /* \"#utility.yul\":1811:1840   */\n      tag_188\n        /* \"#utility.yul\":1833:1839   */\n      dup2\n        /* \"#utility.yul\":1811:1840   */\n      tag_189\n      jump\t// in\n    tag_188:\n        /* \"#utility.yul\":1806:1809   */\n      dup5\n        /* \"#utility.yul\":1802:1841   */\n      add\n        /* \"#utility.yul\":1795:1841   */\n      swap2\n      pop\n        /* \"#utility.yul\":1575:1847   */\n      pop\n        /* \"#utility.yul\":1483:1847   */\n      swap3\n      swap2\n      pop\n      pop\n      jump\t// out\n        /* \"#utility.yul\":1853:2219   */\n    tag_190:\n        /* \"#utility.yul\":1995:1998   */\n      0x00\n        /* \"#utility.yul\":2016:2083   */\n      tag_192\n        /* \"#utility.yul\":2080:2082   */\n      0x29\n        /* \"#utility.yul\":2075:2078   */\n      dup4\n        /* \"#utility.yul\":2016:2083   */\n      tag_185\n      jump\t// in\n    tag_192:\n        /* \"#utility.yul\":2009:2083   */\n      swap2\n      pop\n        /* \"#utility.yul\":2092:2185   */\n      tag_193\n        /* \"#utility.yul\":2181:2184   */\n      dup3\n        /* \"#utility.yul\":2092:2185   */\n      tag_194\n      jump\t// in\n    tag_193:\n        /* \"#utility.yul\":2210:2212   */\n      0x40\n        /* \"#utility.yul\":2205:2208   */\n      dup3\n        /* \"#utility.yul\":2201:2213   */\n      add\n        /* \"#utility.yul\":2194:2213   */\n      swap1\n      pop\n        /* \"#utility.yul\":1853:2219   */\n      swap2\n      swap1\n      pop\n      jump\t// out\n        /* \"#utility.yul\":2225:2591   */\n    tag_195:\n        /* \"#utility.yul\":2367:2370   */\n      0x00\n        /* \"#utility.yul\":2388:2455   */\n      tag_197\n        /* \"#utility.yul\":2452:2454   */\n      0x2a\n        /* \"#utility.yul\":2447:2450   */\n      dup4\n        /* \"#utility.yul\":2388:2455   */\n      tag_185\n      jump\t// in\n    tag_197:\n        /* \"#utility.yul\":2381:2455   */\n      swap2\n      pop\n        /* \"#utility.yul\":2464:2557   */\n      tag_198\n        /* \"#utility.yul\":2553:2556   */\n      dup3\n        /* \"#utility.yul\":2464:2557   */\n      tag_199\n      jump\t// in\n    tag_198:\n        /* \"#utility.yul\":2582:2584   */\n      0x40\n        /* \"#utility.yul\":2577:2580   */\n      dup3\n        /* \"#utility.yul\":2573:2585   */\n      add\n        /* \"#utility.yul\":2566:2585   */\n      swap1\n      pop\n        /* \"#utility.yul\":2225:2591   */\n      swap2\n      swap1\n      pop\n      jump\t// out\n        /* \"#utility.yul\":2597:2963   */\n    tag_200:\n        /* \"#utility.yul\":2739:2742   */\n      0x00\n        /* \"#utility.yul\":2760:2827   */\n      tag_202\n        /* \"#utility.yul\":2824:2826   */\n      0x0e\n        /* \"#utility.yul\":2819:2822   */\n      dup4\n        /* \"#utility.yul\":2760:2827   */\n      tag_185\n      jump\t// in\n    tag_202:\n        /* \"#utility.yul\":2753:2827   */\n      swap2\n      pop\n        /* \"#utility.yul\":2836:2929   */\n      tag_203\n        /* \"#utility.yul\":2925:2928   */\n      dup3\n        /* \"#utility.yul\":2836:2929   */\n      tag_204\n      jump\t// in\n    tag_203:\n        /* \"#utility.yul\":2954:2956   */\n      0x20\n        /* \"#utility.yul\":2949:2952   */\n      dup3\n        /* \"#utility.yul\":2945:2957   */\n      add\n        /* \"#utility.yul\":2938:2957   */\n      swap1\n      pop\n        /* \"#utility.yul\":2597:2963   */\n      swap2\n      swap1\n      pop\n      jump\t// out\n        /* \"#utility.yul\":2969:3335   */\n    tag_205:\n        /* \"#utility.yul\":3111:3114   */\n      0x00\n        /* \"#utility.yul\":3132:3199   */\n      tag_207\n        /* \"#utility.yul\":3196:3198   */\n      0x36\n        /* \"#utility.yul\":3191:3194   */\n      dup4\n        /* \"#utility.yul\":3132:3199   */\n      tag_185\n      jump\t// in\n    tag_207:\n        /* \"#utility.yul\":3125:3199   */\n      swap2\n      pop\n        /* \"#utility.yul\":3208:3301   */\n      tag_208\n        /* \"#utility.yul\":3297:3300   */\n      dup3\n        /* \"#utility.yul\":3208:3301   */\n      tag_209\n      jump\t// in\n    tag_208:\n        /* \"#utility.yul\":3326:3328   */\n      0x40\n        /* \"#utility.yul\":3321:3324   */\n      dup3\n        /* \"#utility.yul\":3317:3329   */\n      add\n        /* \"#utility.yul\":3310:3329   */\n      swap1\n      pop\n        /* \"#utility.yul\":2969:3335   */\n      swap2\n      swap1\n      pop\n      jump\t// out\n        /* \"#utility.yul\":3341:3707   */\n    tag_210:\n        /* \"#utility.yul\":3483:3486   */\n      0x00\n        /* \"#utility.yul\":3504:3571   */\n      tag_212\n        /* \"#utility.yul\":3568:3570   */\n      0x31\n        /* \"#utility.yul\":3563:3566   */\n      dup4\n        /* \"#utility.yul\":3504:3571   */\n      tag_185\n      jump\t// in\n    tag_212:\n        /* \"#utility.yul\":3497:3571   */\n      swap2\n      pop\n        /* \"#utility.yul\":3580:3673   */\n      tag_213\n        /* \"#utility.yul\":3669:3672   */\n      dup3\n        /* \"#utility.yul\":3580:3673   */\n      tag_214\n      jump\t// in\n    tag_213:\n        /* \"#utility.yul\":3698:3700   */\n      0x40\n        /* \"#utility.yul\":3693:3696   */\n      dup3\n        /* \"#utility.yul\":3689:3701   */\n      add\n        /* \"#utility.yul\":3682:3701   */\n      swap1\n      pop\n        /* \"#utility.yul\":3341:3707   */\n      swap2\n      swap1\n      pop\n      jump\t// out\n        /* \"#utility.yul\":3713:4079   */\n    tag_215:\n        /* \"#utility.yul\":3855:3858   */\n      0x00\n        /* \"#utility.yul\":3876:3943   */\n      tag_217\n        /* \"#utility.yul\":3940:3942   */\n      0x2d\n        /* \"#utility.yul\":3935:3938   */\n      dup4\n        /* \"#utility.yul\":3876:3943   */\n      tag_185\n      jump\t// in\n    tag_217:\n        /* \"#utility.yul\":3869:3943   */\n      swap2\n      pop\n        /* \"#utility.yul\":3952:4045   */\n      tag_218\n        /* \"#utility.yul\":4041:4044   */\n      dup3\n        /* \"#utility.yul\":3952:4045   */\n      tag_219\n      jump\t// in\n    tag_218:\n        /* \"#utility.yul\":4070:4072   */\n      0x40\n        /* \"#utility.yul\":4065:4068   */\n      dup3\n        /* \"#utility.yul\":4061:4073   */\n      add\n        /* \"#utility.yul\":4054:4073   */\n      swap1\n      pop\n        /* \"#utility.yul\":3713:4079   */\n      swap2\n      swap1\n      pop\n      jump\t// out\n        /* \"#utility.yul\":4085:4451   */\n    tag_220:\n        /* \"#utility.yul\":4227:4230   */\n      0x00\n        /* \"#utility.yul\":4248:4315   */\n      tag_222\n        /* \"#utility.yul\":4312:4314   */\n      0x30\n        /* \"#utility.yul\":4307:4310   */\n      dup4\n        /* \"#utility.yul\":4248:4315   */\n      tag_185\n      jump\t// in\n    tag_222:\n        /* \"#utility.yul\":4241:4315   */\n      swap2\n      pop\n        /* \"#utility.yul\":4324:4417   */\n      tag_223\n        /* \"#utility.yul\":4413:4416   */\n      dup3\n        /* \"#utility.yul\":4324:4417   */\n      tag_224\n      jump\t// in\n    tag_223:\n        /* \"#utility.yul\":4442:4444   */\n      0x40\n        /* \"#utility.yul\":4437:4440   */\n      dup3\n        /* \"#utility.yul\":4433:4445   */\n      add\n        /* \"#utility.yul\":4426:4445   */\n      swap1\n      pop\n        /* \"#utility.yul\":4085:4451   */\n      swap2\n      swap1\n      pop\n      jump\t// out\n        /* \"#utility.yul\":4457:4823   */\n    tag_225:\n        /* \"#utility.yul\":4599:4602   */\n      0x00\n        /* \"#utility.yul\":4620:4687   */\n      tag_227\n        /* \"#utility.yul\":4684:4686   */\n      0x2b\n        /* \"#utility.yul\":4679:4682   */\n      dup4\n        /* \"#utility.yul\":4620:4687   */\n      tag_185\n      jump\t// in\n    tag_227:\n        /* \"#utility.yul\":4613:4687   */\n      swap2\n      pop\n        /* \"#utility.yul\":4696:4789   */\n      tag_228\n        /* \"#utility.yul\":4785:4788   */\n      dup3\n        /* \"#utility.yul\":4696:4789   */\n      tag_229\n      jump\t// in\n    tag_228:\n        /* \"#utility.yul\":4814:4816   */\n      0x40\n        /* \"#utility.yul\":4809:4812   */\n      dup3\n        /* \"#utility.yul\":4805:4817   */\n      add\n        /* \"#utility.yul\":4798:4817   */\n      swap1\n      pop\n        /* \"#utility.yul\":4457:4823   */\n      swap2\n      swap1\n      pop\n      jump\t// out\n        /* \"#utility.yul\":4829:5195   */\n    tag_230:\n        /* \"#utility.yul\":4971:4974   */\n      0x00\n        /* \"#utility.yul\":4992:5059   */\n      tag_232\n        /* \"#utility.yul\":5056:5058   */\n      0x2f\n        /* \"#utility.yul\":5051:5054   */\n      dup4\n        /* \"#utility.yul\":4992:5059   */\n      tag_185\n      jump\t// in\n    tag_232:\n        /* \"#utility.yul\":4985:5059   */\n      swap2\n      pop\n        /* \"#utility.yul\":5068:5161   */\n      tag_233\n        /* \"#utility.yul\":5157:5160   */\n      dup3\n        /* \"#utility.yul\":5068:5161   */\n      tag_234\n      jump\t// in\n    tag_233:\n        /* \"#utility.yul\":5186:5188   */\n      0x40\n        /* \"#utility.yul\":5181:5184   */\n      dup3\n        /* \"#utility.yul\":5177:5189   */\n      add\n        /* \"#utility.yul\":5170:5189   */\n      swap1\n      pop\n        /* \"#utility.yul\":4829:5195   */\n      swap2\n      swap1\n      pop\n      jump\t// out\n        /* \"#utility.yul\":5269:5779   */\n    tag_235:\n        /* \"#utility.yul\":5414:5418   */\n      0x40\n        /* \"#utility.yul\":5409:5412   */\n      dup3\n        /* \"#utility.yul\":5405:5419   */\n      add\n        /* \"#utility.yul\":5501:5505   */\n      0x00\n        /* \"#utility.yul\":5494:5499   */\n      dup3\n        /* \"#utility.yul\":5490:5506   */\n      add\n        /* \"#utility.yul\":5484:5507   */\n      mload\n        /* \"#utility.yul\":5520:5583   */\n      tag_237\n        /* \"#utility.yul\":5577:5581   */\n      0x00\n        /* \"#utility.yul\":5572:5575   */\n      dup6\n        /* \"#utility.yul\":5568:5582   */\n      add\n        /* \"#utility.yul\":5554:5566   */\n      dup3\n        /* \"#utility.yul\":5520:5583   */\n      tag_171\n      jump\t// in\n    tag_237:\n        /* \"#utility.yul\":5429:5593   */\n      pop\n        /* \"#utility.yul\":5680:5684   */\n      0x20\n        /* \"#utility.yul\":5673:5678   */\n      dup3\n        /* \"#utility.yul\":5669:5685   */\n      add\n        /* \"#utility.yul\":5663:5686   */\n      mload\n        /* \"#utility.yul\":5699:5762   */\n      tag_238\n        /* \"#utility.yul\":5756:5760   */\n      0x20\n        /* \"#utility.yul\":5751:5754   */\n      dup6\n        /* \"#utility.yul\":5747:5761   */\n      add\n        /* \"#utility.yul\":5733:5745   */\n      dup3\n        /* \"#utility.yul\":5699:5762   */\n      tag_239\n      jump\t// in\n    tag_238:\n        /* \"#utility.yul\":5603:5772   */\n      pop\n        /* \"#utility.yul\":5383:5779   */\n      pop\n        /* \"#utility.yul\":5269:5779   */\n      pop\n      pop\n      jump\t// out\n        /* \"#utility.yul\":5785:5893   */\n    tag_239:\n        /* \"#utility.yul\":5862:5886   */\n      tag_241\n        /* \"#utility.yul\":5880:5885   */\n      dup2\n        /* \"#utility.yul\":5862:5886   */\n      tag_242\n      jump\t// in\n    tag_241:\n        /* \"#utility.yul\":5857:5860   */\n      dup3\n        /* \"#utility.yul\":5850:5887   */\n      mstore\n        /* \"#utility.yul\":5785:5893   */\n      pop\n      pop\n      jump\t// out\n        /* \"#utility.yul\":5899:6017   */\n    tag_243:\n        /* \"#utility.yul\":5986:6010   */\n      tag_245\n        /* \"#utility.yul\":6004:6009   */\n      dup2\n        /* \"#utility.yul\":5986:6010   */\n      tag_242\n      jump\t// in\n    tag_245:\n        /* \"#utility.yul\":5981:5984   */\n      dup3\n        /* \"#utility.yul\":5974:6011   */\n      mstore\n        /* \"#utility.yul\":5899:6017   */\n      pop\n      pop\n      jump\t// out\n        /* \"#utility.yul\":6023:6279   */\n    tag_144:\n        /* \"#utility.yul\":6135:6138   */\n      0x00\n        /* \"#utility.yul\":6150:6225   */\n      tag_247\n        /* \"#utility.yul\":6221:6224   */\n      dup3\n        /* \"#utility.yul\":6212:6218   */\n      dup5\n        /* \"#utility.yul\":6150:6225   */\n      tag_175\n      jump\t// in\n    tag_247:\n        /* \"#utility.yul\":6250:6252   */\n      0x20\n        /* \"#utility.yul\":6245:6248   */\n      dup3\n        /* \"#utility.yul\":6241:6253   */\n      add\n        /* \"#utility.yul\":6234:6253   */\n      swap2\n      pop\n        /* \"#utility.yul\":6270:6273   */\n      dup2\n        /* \"#utility.yul\":6263:6273   */\n      swap1\n      pop\n        /* \"#utility.yul\":6023:6279   */\n      swap3\n      swap2\n      pop\n      pop\n      jump\t// out\n        /* \"#utility.yul\":6285:6507   */\n    tag_41:\n        /* \"#utility.yul\":6378:6382   */\n      0x00\n        /* \"#utility.yul\":6416:6418   */\n      0x20\n        /* \"#utility.yul\":6405:6414   */\n      dup3\n        /* \"#utility.yul\":6401:6419   */\n      add\n        /* \"#utility.yul\":6393:6419   */\n      swap1\n      pop\n        /* \"#utility.yul\":6429:6500   */\n      tag_249\n        /* \"#utility.yul\":6497:6498   */\n      0x00\n        /* \"#utility.yul\":6486:6495   */\n      dup4\n        /* \"#utility.yul\":6482:6499   */\n      add\n        /* \"#utility.yul\":6473:6479   */\n      dup5\n        /* \"#utility.yul\":6429:6500   */\n      tag_163\n      jump\t// in\n    tag_249:\n        /* \"#utility.yul\":6285:6507   */\n      swap3\n      swap2\n      pop\n      pop\n      jump\t// out\n        /* \"#utility.yul\":6513:6826   */\n    tag_48:\n        /* \"#utility.yul\":6626:6630   */\n      0x00\n        /* \"#utility.yul\":6664:6666   */\n      0x20\n        /* \"#utility.yul\":6653:6662   */\n      dup3\n        /* \"#utility.yul\":6649:6667   */\n      add\n        /* \"#utility.yul\":6641:6667   */\n      swap1\n      pop\n        /* \"#utility.yul\":6713:6722   */\n      dup2\n        /* \"#utility.yul\":6707:6711   */\n      dup2\n        /* \"#utility.yul\":6703:6723   */\n      sub\n        /* \"#utility.yul\":6699:6700   */\n      0x00\n        /* \"#utility.yul\":6688:6697   */\n      dup4\n        /* \"#utility.yul\":6684:6701   */\n      add\n        /* \"#utility.yul\":6677:6724   */\n      mstore\n        /* \"#utility.yul\":6741:6819   */\n      tag_251\n        /* \"#utility.yul\":6814:6818   */\n      dup2\n        /* \"#utility.yul\":6805:6811   */\n      dup5\n        /* \"#utility.yul\":6741:6819   */\n      tag_180\n      jump\t// in\n    tag_251:\n        /* \"#utility.yul\":6733:6819   */\n      swap1\n      pop\n        /* \"#utility.yul\":6513:6826   */\n      swap3\n      swap2\n      pop\n      pop\n      jump\t// out\n        /* \"#utility.yul\":6832:7251   */\n    tag_55:\n        /* \"#utility.yul\":6998:7002   */\n      0x00\n        /* \"#utility.yul\":7036:7038   */\n      0x20\n        /* \"#utility.yul\":7025:7034   */\n      dup3\n        /* \"#utility.yul\":7021:7039   */\n      add\n        /* \"#utility.yul\":7013:7039   */\n      swap1\n      pop\n        /* \"#utility.yul\":7085:7094   */\n      dup2\n        /* \"#utility.yul\":7079:7083   */\n      dup2\n        /* \"#utility.yul\":7075:7095   */\n      sub\n        /* \"#utility.yul\":7071:7072   */\n      0x00\n        /* \"#utility.yul\":7060:7069   */\n      dup4\n        /* \"#utility.yul\":7056:7073   */\n      add\n        /* \"#utility.yul\":7049:7096   */\n      mstore\n        /* \"#utility.yul\":7113:7244   */\n      tag_253\n        /* \"#utility.yul\":7239:7243   */\n      dup2\n        /* \"#utility.yul\":7113:7244   */\n      tag_190\n      jump\t// in\n    tag_253:\n        /* \"#utility.yul\":7105:7244   */\n      swap1\n      pop\n        /* \"#utility.yul\":6832:7251   */\n      swap2\n      swap1\n      pop\n      jump\t// out\n        /* \"#utility.yul\":7257:7676   */\n    tag_76:\n        /* \"#utility.yul\":7423:7427   */\n      0x00\n        /* \"#utility.yul\":7461:7463   */\n      0x20\n        /* \"#utility.yul\":7450:7459   */\n      dup3\n        /* \"#utility.yul\":7446:7464   */\n      add\n        /* \"#utility.yul\":7438:7464   */\n      swap1\n      pop\n        /* \"#utility.yul\":7510:7519   */\n      dup2\n        /* \"#utility.yul\":7504:7508   */\n      dup2\n        /* \"#utility.yul\":7500:7520   */\n      sub\n        /* \"#utility.yul\":7496:7497   */\n      0x00\n        /* \"#utility.yul\":7485:7494   */\n      dup4\n        /* \"#utility.yul\":7481:7498   */\n      add\n        /* \"#utility.yul\":7474:7521   */\n      mstore\n        /* \"#utility.yul\":7538:7669   */\n      tag_255\n        /* \"#utility.yul\":7664:7668   */\n      dup2\n        /* \"#utility.yul\":7538:7669   */\n      tag_195\n      jump\t// in\n    tag_255:\n        /* \"#utility.yul\":7530:7669   */\n      swap1\n      pop\n        /* \"#utility.yul\":7257:7676   */\n      swap2\n      swap1\n      pop\n      jump\t// out\n        /* \"#utility.yul\":7682:8101   */\n    tag_58:\n        /* \"#utility.yul\":7848:7852   */\n      0x00\n        /* \"#utility.yul\":7886:7888   */\n      0x20\n        /* \"#utility.yul\":7875:7884   */\n      dup3\n        /* \"#utility.yul\":7871:7889   */\n      add\n        /* \"#utility.yul\":7863:7889   */\n      swap1\n      pop\n        /* \"#utility.yul\":7935:7944   */\n      dup2\n        /* \"#utility.yul\":7929:7933   */\n      dup2\n        /* \"#utility.yul\":7925:7945   */\n      sub\n        /* \"#utility.yul\":7921:7922   */\n      0x00\n        /* \"#utility.yul\":7910:7919   */\n      dup4\n        /* \"#utility.yul\":7906:7923   */\n      add\n        /* \"#utility.yul\":7899:7946   */\n      mstore\n        /* \"#utility.yul\":7963:8094   */\n      tag_257\n        /* \"#utility.yul\":8089:8093   */\n      dup2\n        /* \"#utility.yul\":7963:8094   */\n      tag_200\n      jump\t// in\n    tag_257:\n        /* \"#utility.yul\":7955:8094   */\n      swap1\n      pop\n        /* \"#utility.yul\":7682:8101   */\n      swap2\n      swap1\n      pop\n      jump\t// out\n        /* \"#utility.yul\":8107:8526   */\n    tag_120:\n        /* \"#utility.yul\":8273:8277   */\n      0x00\n        /* \"#utility.yul\":8311:8313   */\n      0x20\n        /* \"#utility.yul\":8300:8309   */\n      dup3\n        /* \"#utility.yul\":8296:8314   */\n      add\n        /* \"#utility.yul\":8288:8314   */\n      swap1\n      pop\n        /* \"#utility.yul\":8360:8369   */\n      dup2\n        /* \"#utility.yul\":8354:8358   */\n      dup2\n        /* \"#utility.yul\":8350:8370   */\n      sub\n        /* \"#utility.yul\":8346:8347   */\n      0x00\n        /* \"#utility.yul\":8335:8344   */\n      dup4\n        /* \"#utility.yul\":8331:8348   */\n      add\n        /* \"#utility.yul\":8324:8371   */\n      mstore\n        /* \"#utility.yul\":8388:8519   */\n      tag_259\n        /* \"#utility.yul\":8514:8518   */\n      dup2\n        /* \"#utility.yul\":8388:8519   */\n      tag_205\n      jump\t// in\n    tag_259:\n        /* \"#utility.yul\":8380:8519   */\n      swap1\n      pop\n        /* \"#utility.yul\":8107:8526   */\n      swap2\n      swap1\n      pop\n      jump\t// out\n        /* \"#utility.yul\":8532:8951   */\n    tag_81:\n        /* \"#utility.yul\":8698:8702   */\n      0x00\n        /* \"#utility.yul\":8736:8738   */\n      0x20\n        /* \"#utility.yul\":8725:8734   */\n      dup3\n        /* \"#utility.yul\":8721:8739   */\n      add\n        /* \"#utility.yul\":8713:8739   */\n      swap1\n      pop\n        /* \"#utility.yul\":8785:8794   */\n      dup2\n        /* \"#utility.yul\":8779:8783   */\n      dup2\n        /* \"#utility.yul\":8775:8795   */\n      sub\n        /* \"#utility.yul\":8771:8772   */\n      0x00\n        /* \"#utility.yul\":8760:8769   */\n      dup4\n        /* \"#utility.yul\":8756:8773   */\n      add\n        /* \"#utility.yul\":8749:8796   */\n      mstore\n        /* \"#utility.yul\":8813:8944   */\n      tag_261\n        /* \"#utility.yul\":8939:8943   */\n      dup2\n        /* \"#utility.yul\":8813:8944   */\n      tag_210\n      jump\t// in\n    tag_261:\n        /* \"#utility.yul\":8805:8944   */\n      swap1\n      pop\n        /* \"#utility.yul\":8532:8951   */\n      swap2\n      swap1\n      pop\n      jump\t// out\n        /* \"#utility.yul\":8957:9376   */\n    tag_86:\n        /* \"#utility.yul\":9123:9127   */\n      0x00\n        /* \"#utility.yul\":9161:9163   */\n      0x20\n        /* \"#utility.yul\":9150:9159   */\n      dup3\n        /* \"#utility.yul\":9146:9164   */\n      add\n        /* \"#utility.yul\":9138:9164   */\n      swap1\n      pop\n        /* \"#utility.yul\":9210:9219   */\n      dup2\n        /* \"#utility.yul\":9204:9208   */\n      dup2\n        /* \"#utility.yul\":9200:9220   */\n      sub\n        /* \"#utility.yul\":9196:9197   */\n      0x00\n        /* \"#utility.yul\":9185:9194   */\n      dup4\n        /* \"#utility.yul\":9181:9198   */\n      add\n        /* \"#utility.yul\":9174:9221   */\n      mstore\n        /* \"#utility.yul\":9238:9369   */\n      tag_263\n        /* \"#utility.yul\":9364:9368   */\n      dup2\n        /* \"#utility.yul\":9238:9369   */\n      tag_215\n      jump\t// in\n    tag_263:\n        /* \"#utility.yul\":9230:9369   */\n      swap1\n      pop\n        /* \"#utility.yul\":8957:9376   */\n      swap2\n      swap1\n      pop\n      jump\t// out\n        /* \"#utility.yul\":9382:9801   */\n    tag_127:\n        /* \"#utility.yul\":9548:9552   */\n      0x00\n        /* \"#utility.yul\":9586:9588   */\n      0x20\n        /* \"#utility.yul\":9575:9584   */\n      dup3\n        /* \"#utility.yul\":9571:9589   */\n      add\n        /* \"#utility.yul\":9563:9589   */\n      swap1\n      pop\n        /* \"#utility.yul\":9635:9644   */\n      dup2\n        /* \"#utility.yul\":9629:9633   */\n      dup2\n        /* \"#utility.yul\":9625:9645   */\n      sub\n        /* \"#utility.yul\":9621:9622   */\n      0x00\n        /* \"#utility.yul\":9610:9619   */\n      dup4\n        /* \"#utility.yul\":9606:9623   */\n      add\n        /* \"#utility.yul\":9599:9646   */\n      mstore\n        /* \"#utility.yul\":9663:9794   */\n      tag_265\n        /* \"#utility.yul\":9789:9793   */\n      dup2\n        /* \"#utility.yul\":9663:9794   */\n      tag_220\n      jump\t// in\n    tag_265:\n        /* \"#utility.yul\":9655:9794   */\n      swap1\n      pop\n        /* \"#utility.yul\":9382:9801   */\n      swap2\n      swap1\n      pop\n      jump\t// out\n        /* \"#utility.yul\":9807:10226   */\n    tag_61:\n        /* \"#utility.yul\":9973:9977   */\n      0x00\n        /* \"#utility.yul\":10011:10013   */\n      0x20\n        /* \"#utility.yul\":10000:10009   */\n      dup3\n        /* \"#utility.yul\":9996:10014   */\n      add\n        /* \"#utility.yul\":9988:10014   */\n      swap1\n      pop\n        /* \"#utility.yul\":10060:10069   */\n      dup2\n        /* \"#utility.yul\":10054:10058   */\n      dup2\n        /* \"#utility.yul\":10050:10070   */\n      sub\n        /* \"#utility.yul\":10046:10047   */\n      0x00\n        /* \"#utility.yul\":10035:10044   */\n      dup4\n        /* \"#utility.yul\":10031:10048   */\n      add\n        /* \"#utility.yul\":10024:10071   */\n      mstore\n        /* \"#utility.yul\":10088:10219   */\n      tag_267\n        /* \"#utility.yul\":10214:10218   */\n      dup2\n        /* \"#utility.yul\":10088:10219   */\n      tag_225\n      jump\t// in\n    tag_267:\n        /* \"#utility.yul\":10080:10219   */\n      swap1\n      pop\n        /* \"#utility.yul\":9807:10226   */\n      swap2\n      swap1\n      pop\n      jump\t// out\n        /* \"#utility.yul\":10232:10651   */\n    tag_92:\n        /* \"#utility.yul\":10398:10402   */\n      0x00\n        /* \"#utility.yul\":10436:10438   */\n      0x20\n        /* \"#utility.yul\":10425:10434   */\n      dup3\n        /* \"#utility.yul\":10421:10439   */\n      add\n        /* \"#utility.yul\":10413:10439   */\n      swap1\n      pop\n        /* \"#utility.yul\":10485:10494   */\n      dup2\n        /* \"#utility.yul\":10479:10483   */\n      dup2\n        /* \"#utility.yul\":10475:10495   */\n      sub\n        /* \"#utility.yul\":10471:10472   */\n      0x00\n        /* \"#utility.yul\":10460:10469   */\n      dup4\n        /* \"#utility.yul\":10456:10473   */\n      add\n        /* \"#utility.yul\":10449:10496   */\n      mstore\n        /* \"#utility.yul\":10513:10644   */\n      tag_269\n        /* \"#utility.yul\":10639:10643   */\n      dup2\n        /* \"#utility.yul\":10513:10644   */\n      tag_230\n      jump\t// in\n    tag_269:\n        /* \"#utility.yul\":10505:10644   */\n      swap1\n      pop\n        /* \"#utility.yul\":10232:10651   */\n      swap2\n      swap1\n      pop\n      jump\t// out\n        /* \"#utility.yul\":10657:10975   */\n    tag_37:\n        /* \"#utility.yul\":10798:10802   */\n      0x00\n        /* \"#utility.yul\":10836:10838   */\n      0x40\n        /* \"#utility.yul\":10825:10834   */\n      dup3\n        /* \"#utility.yul\":10821:10839   */\n      add\n        /* \"#utility.yul\":10813:10839   */\n      swap1\n      pop\n        /* \"#utility.yul\":10849:10968   */\n      tag_271\n        /* \"#utility.yul\":10965:10966   */\n      0x00\n        /* \"#utility.yul\":10954:10963   */\n      dup4\n        /* \"#utility.yul\":10950:10967   */\n      add\n        /* \"#utility.yul\":10941:10947   */\n      dup5\n        /* \"#utility.yul\":10849:10968   */\n      tag_235\n      jump\t// in\n    tag_271:\n        /* \"#utility.yul\":10657:10975   */\n      swap3\n      swap2\n      pop\n      pop\n      jump\t// out\n        /* \"#utility.yul\":10981:11203   */\n    tag_24:\n        /* \"#utility.yul\":11074:11078   */\n      0x00\n        /* \"#utility.yul\":11112:11114   */\n      0x20\n        /* \"#utility.yul\":11101:11110   */\n      dup3\n        /* \"#utility.yul\":11097:11115   */\n      add\n        /* \"#utility.yul\":11089:11115   */\n      swap1\n      pop\n        /* \"#utility.yul\":11125:11196   */\n      tag_273\n        /* \"#utility.yul\":11193:11194   */\n      0x00\n        /* \"#utility.yul\":11182:11191   */\n      dup4\n        /* \"#utility.yul\":11178:11195   */\n      add\n        /* \"#utility.yul\":11169:11175   */\n      dup5\n        /* \"#utility.yul\":11125:11196   */\n      tag_243\n      jump\t// in\n    tag_273:\n        /* \"#utility.yul\":10981:11203   */\n      swap3\n      swap2\n      pop\n      pop\n      jump\t// out\n        /* \"#utility.yul\":11209:11750   */\n    tag_32:\n        /* \"#utility.yul\":11380:11384   */\n      0x00\n        /* \"#utility.yul\":11418:11421   */\n      0x80\n        /* \"#utility.yul\":11407:11416   */\n      dup3\n        /* \"#utility.yul\":11403:11422   */\n      add\n        /* \"#utility.yul\":11395:11422   */\n      swap1\n      pop\n        /* \"#utility.yul\":11432:11503   */\n      tag_275\n        /* \"#utility.yul\":11500:11501   */\n      0x00\n        /* \"#utility.yul\":11489:11498   */\n      dup4\n        /* \"#utility.yul\":11485:11502   */\n      add\n        /* \"#utility.yul\":11476:11482   */\n      dup8\n        /* \"#utility.yul\":11432:11503   */\n      tag_243\n      jump\t// in\n    tag_275:\n        /* \"#utility.yul\":11513:11579   */\n      tag_276\n        /* \"#utility.yul\":11575:11577   */\n      0x20\n        /* \"#utility.yul\":11564:11573   */\n      dup4\n        /* \"#utility.yul\":11560:11578   */\n      add\n        /* \"#utility.yul\":11551:11557   */\n      dup7\n        /* \"#utility.yul\":11513:11579   */\n      tag_167\n      jump\t// in\n    tag_276:\n        /* \"#utility.yul\":11589:11661   */\n      tag_277\n        /* \"#utility.yul\":11657:11659   */\n      0x40\n        /* \"#utility.yul\":11646:11655   */\n      dup4\n        /* \"#utility.yul\":11642:11660   */\n      add\n        /* \"#utility.yul\":11633:11639   */\n      dup6\n        /* \"#utility.yul\":11589:11661   */\n      tag_163\n      jump\t// in\n    tag_277:\n        /* \"#utility.yul\":11671:11743   */\n      tag_278\n        /* \"#utility.yul\":11739:11741   */\n      0x60\n        /* \"#utility.yul\":11728:11737   */\n      dup4\n        /* \"#utility.yul\":11724:11742   */\n      add\n        /* \"#utility.yul\":11715:11721   */\n      dup5\n        /* \"#utility.yul\":11671:11743   */\n      tag_243\n      jump\t// in\n    tag_278:\n        /* \"#utility.yul\":11209:11750   */\n      swap6\n      swap5\n      pop\n      pop\n      pop\n      pop\n      pop\n      jump\t// out\n        /* \"#utility.yul\":11837:11936   */\n    tag_183:\n        /* \"#utility.yul\":11889:11895   */\n      0x00\n        /* \"#utility.yul\":11923:11928   */\n      dup2\n        /* \"#utility.yul\":11917:11929   */\n      mload\n        /* \"#utility.yul\":11907:11929   */\n      swap1\n      pop\n        /* \"#utility.yul\":11837:11936   */\n      swap2\n      swap1\n      pop\n      jump\t// out\n        /* \"#utility.yul\":11942:12111   */\n    tag_185:\n        /* \"#utility.yul\":12026:12037   */\n      0x00\n        /* \"#utility.yul\":12060:12066   */\n      dup3\n        /* \"#utility.yul\":12055:12058   */\n      dup3\n        /* \"#utility.yul\":12048:12067   */\n      mstore\n        /* \"#utility.yul\":12100:12104   */\n      0x20\n        /* \"#utility.yul\":12095:12098   */\n      dup3\n        /* \"#utility.yul\":12091:12105   */\n      add\n        /* \"#utility.yul\":12076:12105   */\n      swap1\n      pop\n        /* \"#utility.yul\":11942:12111   */\n      swap3\n      swap2\n      pop\n      pop\n      jump\t// out\n        /* \"#utility.yul\":12117:12422   */\n    tag_140:\n        /* \"#utility.yul\":12157:12160   */\n      0x00\n        /* \"#utility.yul\":12176:12196   */\n      tag_284\n        /* \"#utility.yul\":12194:12195   */\n      dup3\n        /* \"#utility.yul\":12176:12196   */\n      tag_242\n      jump\t// in\n    tag_284:\n        /* \"#utility.yul\":12171:12196   */\n      swap2\n      pop\n        /* \"#utility.yul\":12210:12230   */\n      tag_285\n        /* \"#utility.yul\":12228:12229   */\n      dup4\n        /* \"#utility.yul\":12210:12230   */\n      tag_242\n      jump\t// in\n    tag_285:\n        /* \"#utility.yul\":12205:12230   */\n      swap3\n      pop\n        /* \"#utility.yul\":12364:12365   */\n      dup3\n        /* \"#utility.yul\":12296:12362   */\n      0xffffffffffffffffffffffffffffffffffffffffffffffffffffffffffffffff\n        /* \"#utility.yul\":12292:12366   */\n      sub\n        /* \"#utility.yul\":12289:12290   */\n      dup3\n        /* \"#utility.yul\":12286:12367   */\n      gt\n        /* \"#utility.yul\":12283:12390   */\n      iszero\n      tag_286\n      jumpi\n        /* \"#utility.yul\":12370:12388   */\n      tag_287\n      tag_288\n      jump\t// in\n    tag_287:\n        /* \"#utility.yul\":12283:12390   */\n    tag_286:\n        /* \"#utility.yul\":12414:12415   */\n      dup3\n        /* \"#utility.yul\":12411:12412   */\n      dup3\n        /* \"#utility.yul\":12407:12416   */\n      add\n        /* \"#utility.yul\":12400:12416   */\n      swap1\n      pop\n        /* \"#utility.yul\":12117:12422   */\n      swap3\n      swap2\n      pop\n      pop\n      jump\t// out\n        /* \"#utility.yul\":12428:12524   */\n    tag_166:\n        /* \"#utility.yul\":12465:12472   */\n      0x00\n        /* \"#utility.yul\":12494:12518   */\n      tag_290\n        /* \"#utility.yul\":12512:12517   */\n      dup3\n        /* \"#utility.yul\":12494:12518   */\n      tag_291\n      jump\t// in\n    tag_290:\n        /* \"#utility.yul\":12483:12518   */\n      swap1\n      pop\n        /* \"#utility.yul\":12428:12524   */\n      swap2\n      swap1\n      pop\n      jump\t// out\n        /* \"#utility.yul\":12530:12620   */\n    tag_170:\n        /* \"#utility.yul\":12564:12571   */\n      0x00\n        /* \"#utility.yul\":12607:12612   */\n      dup2\n        /* \"#utility.yul\":12600:12613   */\n      iszero\n        /* \"#utility.yul\":12593:12614   */\n      iszero\n        /* \"#utility.yul\":12582:12614   */\n      swap1\n      pop\n        /* \"#utility.yul\":12530:12620   */\n      swap2\n      swap1\n      pop\n      jump\t// out\n        /* \"#utility.yul\":12626:12703   */\n    tag_174:\n        /* \"#utility.yul\":12663:12670   */\n      0x00\n        /* \"#utility.yul\":12692:12697   */\n      dup2\n        /* \"#utility.yul\":12681:12697   */\n      swap1\n      pop\n        /* \"#utility.yul\":12626:12703   */\n      swap2\n      swap1\n      pop\n      jump\t// out\n        /* \"#utility.yul\":12709:12835   */\n    tag_291:\n        /* \"#utility.yul\":12746:12753   */\n      0x00\n        /* \"#utility.yul\":12786:12828   */\n      0xffffffffffffffffffffffffffffffffffffffff\n        /* \"#utility.yul\":12779:12784   */\n      dup3\n        /* \"#utility.yul\":12775:12829   */\n      and\n        /* \"#utility.yul\":12764:12829   */\n      swap1\n      pop\n        /* \"#utility.yul\":12709:12835   */\n      swap2\n      swap1\n      pop\n      jump\t// out\n        /* \"#utility.yul\":12841:12918   */\n    tag_242:\n        /* \"#utility.yul\":12878:12885   */\n      0x00\n        /* \"#utility.yul\":12907:12912   */\n      dup2\n        /* \"#utility.yul\":12896:12912   */\n      swap1\n      pop\n        /* \"#utility.yul\":12841:12918   */\n      swap2\n      swap1\n      pop\n      jump\t// out\n        /* \"#utility.yul\":12924:13231   */\n    tag_187:\n        /* \"#utility.yul\":12992:12993   */\n      0x00\n        /* \"#utility.yul\":13002:13115   */\n    tag_297:\n        /* \"#utility.yul\":13016:13022   */\n      dup4\n        /* \"#utility.yul\":13013:13014   */\n      dup2\n        /* \"#utility.yul\":13010:13023   */\n      lt\n        /* \"#utility.yul\":13002:13115   */\n      iszero\n      tag_299\n      jumpi\n        /* \"#utility.yul\":13101:13102   */\n      dup1\n        /* \"#utility.yul\":13096:13099   */\n      dup3\n        /* \"#utility.yul\":13092:13103   */\n      add\n        /* \"#utility.yul\":13086:13104   */\n      mload\n        /* \"#utility.yul\":13082:13083   */\n      dup2\n        /* \"#utility.yul\":13077:13080   */\n      dup5\n        /* \"#utility.yul\":13073:13084   */\n      add\n        /* \"#utility.yul\":13066:13105   */\n      mstore\n        /* \"#utility.yul\":13038:13040   */\n      0x20\n        /* \"#utility.yul\":13035:13036   */\n      dup2\n        /* \"#utility.yul\":13031:13041   */\n      add\n        /* \"#utility.yul\":13026:13041   */\n      swap1\n      pop\n        /* \"#utility.yul\":13002:13115   */\n      jump(tag_297)\n    tag_299:\n        /* \"#utility.yul\":13133:13139   */\n      dup4\n        /* \"#utility.yul\":13130:13131   */\n      dup2\n        /* \"#utility.yul\":13127:13140   */\n      gt\n        /* \"#utility.yul\":13124:13225   */\n      iszero\n      tag_300\n      jumpi\n        /* \"#utility.yul\":13213:13214   */\n      0x00\n        /* \"#utility.yul\":13204:13210   */\n      dup5\n        /* \"#utility.yul\":13199:13202   */\n      dup5\n        /* \"#utility.yul\":13195:13211   */\n      add\n        /* \"#utility.yul\":13188:13215   */\n      mstore\n        /* \"#utility.yul\":13124:13225   */\n    tag_300:\n        /* \"#utility.yul\":12973:13231   */\n      pop\n        /* \"#utility.yul\":12924:13231   */\n      pop\n      pop\n      pop\n      jump\t// out\n        /* \"#utility.yul\":13237:13316   */\n    tag_179:\n        /* \"#utility.yul\":13276:13283   */\n      0x00\n        /* \"#utility.yul\":13305:13310   */\n      dup2\n        /* \"#utility.yul\":13294:13310   */\n      swap1\n      pop\n        /* \"#utility.yul\":13237:13316   */\n      swap2\n      swap1\n      pop\n      jump\t// out\n        /* \"#utility.yul\":13322:13502   */\n    tag_288:\n        /* \"#utility.yul\":13370:13447   */\n      0x4e487b7100000000000000000000000000000000000000000000000000000000\n        /* \"#utility.yul\":13367:13368   */\n      0x00\n        /* \"#utility.yul\":13360:13448   */\n      mstore\n        /* \"#utility.yul\":13467:13471   */\n      0x11\n        /* \"#utility.yul\":13464:13465   */\n      0x04\n        /* \"#utility.yul\":13457:13472   */\n      mstore\n        /* \"#utility.yul\":13491:13495   */\n      0x24\n        /* \"#utility.yul\":13488:13489   */\n      0x00\n        /* \"#utility.yul\":13481:13496   */\n      revert\n        /* \"#utility.yul\":13508:13688   */\n    tag_65:\n        /* \"#utility.yul\":13556:13633   */\n      0x4e487b7100000000000000000000000000000000000000000000000000000000\n        /* \"#utility.yul\":13553:13554   */\n      0x00\n        /* \"#utility.yul\":13546:13634   */\n      mstore\n        /* \"#utility.yul\":13653:13657   */\n      0x32\n        /* \"#utility.yul\":13650:13651   */\n      0x04\n        /* \"#utility.yul\":13643:13658   */\n      mstore\n        /* \"#utility.yul\":13677:13681   */\n      0x24\n        /* \"#utility.yul\":13674:13675   */\n      0x00\n        /* \"#utility.yul\":13667:13682   */\n      revert\n        /* \"#utility.yul\":13817:13934   */\n    tag_157:\n        /* \"#utility.yul\":13926:13927   */\n      0x00\n        /* \"#utility.yul\":13923:13924   */\n      dup1\n        /* \"#utility.yul\":13916:13928   */\n      revert\n        /* \"#utility.yul\":13940:14042   */\n    tag_189:\n        /* \"#utility.yul\":13981:13987   */\n      0x00\n        /* \"#utility.yul\":14032:14034   */\n      0x1f\n        /* \"#utility.yul\":14028:14035   */\n      not\n        /* \"#utility.yul\":14023:14025   */\n      0x1f\n        /* \"#utility.yul\":14016:14021   */\n      dup4\n        /* \"#utility.yul\":14012:14026   */\n      add\n        /* \"#utility.yul\":14008:14036   */\n      and\n        /* \"#utility.yul\":13998:14036   */\n      swap1\n      pop\n        /* \"#utility.yul\":13940:14042   */\n      swap2\n      swap1\n      pop\n      jump\t// out\n        /* \"#utility.yul\":14048:14276   */\n    tag_194:\n        /* \"#utility.yul\":14188:14222   */\n      0x53696d706c65566f74696e673a2043616c6c657220686173206e6f2072696768\n        /* \"#utility.yul\":14184:14185   */\n      0x00\n        /* \"#utility.yul\":14176:14182   */\n      dup3\n        /* \"#utility.yul\":14172:14186   */\n      add\n        /* \"#utility.yul\":14165:14223   */\n      mstore\n        /* \"#utility.yul\":14257:14268   */\n      0x7420746f20766f74650000000000000000000000000000000000000000000000\n        /* \"#utility.yul\":14252:14254   */\n      0x20\n        /* \"#utility.yul\":14244:14250   */\n      dup3\n        /* \"#utility.yul\":14240:14255   */\n      add\n        /* \"#utility.yul\":14233:14269   */\n      mstore\n        /* \"#utility.yul\":14048:14276   */\n      pop\n      jump\t// out\n        /* \"#utility.yul\":14282:14511   */\n    tag_199:\n        /* \"#utility.yul\":14422:14456   */\n      0x53696d706c65566f74696e673a2054686520766f7465722068617320616c7265\n        /* \"#utility.yul\":14418:14419   */\n      0x00\n        /* \"#utility.yul\":14410:14416   */\n      dup3\n        /* \"#utility.yul\":14406:14420   */\n      add\n        /* \"#utility.yul\":14399:14457   */\n      mstore\n        /* \"#utility.yul\":14491:14503   */\n      0x61647920766f7465642e00000000000000000000000000000000000000000000\n        /* \"#utility.yul\":14486:14488   */\n      0x20\n        /* \"#utility.yul\":14478:14484   */\n      dup3\n        /* \"#utility.yul\":14474:14489   */\n      add\n        /* \"#utility.yul\":14467:14504   */\n      mstore\n        /* \"#utility.yul\":14282:14511   */\n      pop\n      jump\t// out\n        /* \"#utility.yul\":14517:14681   */\n    tag_204:\n        /* \"#utility.yul\":14657:14673   */\n      0x416c726561647920766f7465642e000000000000000000000000000000000000\n        /* \"#utility.yul\":14653:14654   */\n      0x00\n        /* \"#utility.yul\":14645:14651   */\n      dup3\n        /* \"#utility.yul\":14641:14655   */\n      add\n        /* \"#utility.yul\":14634:14674   */\n      mstore\n        /* \"#utility.yul\":14517:14681   */\n      pop\n      jump\t// out\n        /* \"#utility.yul\":14687:14928   */\n    tag_209:\n        /* \"#utility.yul\":14827:14861   */\n      0x53696d706c65566f74696e673a204f6e6c79206368616972506572736f6e2063\n        /* \"#utility.yul\":14823:14824   */\n      0x00\n        /* \"#utility.yul\":14815:14821   */\n      dup3\n        /* \"#utility.yul\":14811:14825   */\n      add\n        /* \"#utility.yul\":14804:14862   */\n      mstore\n        /* \"#utility.yul\":14896:14920   */\n      0x616e206769766520726967687420746f20766f74652e00000000000000000000\n        /* \"#utility.yul\":14891:14893   */\n      0x20\n        /* \"#utility.yul\":14883:14889   */\n      dup3\n        /* \"#utility.yul\":14879:14894   */\n      add\n        /* \"#utility.yul\":14872:14921   */\n      mstore\n        /* \"#utility.yul\":14687:14928   */\n      pop\n      jump\t// out\n        /* \"#utility.yul\":14934:15170   */\n    tag_214:\n        /* \"#utility.yul\":15074:15108   */\n      0x53696d706c65566f74696e673a2043616c6c657220646f6573206e6f74206861\n        /* \"#utility.yul\":15070:15071   */\n      0x00\n        /* \"#utility.yul\":15062:15068   */\n      dup3\n        /* \"#utility.yul\":15058:15072   */\n      add\n        /* \"#utility.yul\":15051:15109   */\n      mstore\n        /* \"#utility.yul\":15143:15162   */\n      0x766520726967687420746f20766f74652e000000000000000000000000000000\n        /* \"#utility.yul\":15138:15140   */\n      0x20\n        /* \"#utility.yul\":15130:15136   */\n      dup3\n        /* \"#utility.yul\":15126:15141   */\n      add\n        /* \"#utility.yul\":15119:15163   */\n      mstore\n        /* \"#utility.yul\":14934:15170   */\n      pop\n      jump\t// out\n        /* \"#utility.yul\":15176:15408   */\n    tag_219:\n        /* \"#utility.yul\":15316:15350   */\n      0x53696d706c65566f74696e673a2053656c662d64656c65676174696f6e206973\n        /* \"#utility.yul\":15312:15313   */\n      0x00\n        /* \"#utility.yul\":15304:15310   */\n      dup3\n        /* \"#utility.yul\":15300:15314   */\n      add\n        /* \"#utility.yul\":15293:15351   */\n      mstore\n        /* \"#utility.yul\":15385:15400   */\n      0x206e6f7420616c6c6f7765642e00000000000000000000000000000000000000\n        /* \"#utility.yul\":15380:15382   */\n      0x20\n        /* \"#utility.yul\":15372:15378   */\n      dup3\n        /* \"#utility.yul\":15368:15383   */\n      add\n        /* \"#utility.yul\":15361:15401   */\n      mstore\n        /* \"#utility.yul\":15176:15408   */\n      pop\n      jump\t// out\n        /* \"#utility.yul\":15414:15649   */\n    tag_224:\n        /* \"#utility.yul\":15554:15588   */\n      0x53696d706c65566f74696e673a204164647265737320616c7265616479206861\n        /* \"#utility.yul\":15550:15551   */\n      0x00\n        /* \"#utility.yul\":15542:15548   */\n      dup3\n        /* \"#utility.yul\":15538:15552   */\n      add\n        /* \"#utility.yul\":15531:15589   */\n      mstore\n        /* \"#utility.yul\":15623:15641   */\n      0x7320726967687420746f20766f74652e00000000000000000000000000000000\n        /* \"#utility.yul\":15618:15620   */\n      0x20\n        /* \"#utility.yul\":15610:15616   */\n      dup3\n        /* \"#utility.yul\":15606:15621   */\n      add\n        /* \"#utility.yul\":15599:15642   */\n      mstore\n        /* \"#utility.yul\":15414:15649   */\n      pop\n      jump\t// out\n        /* \"#utility.yul\":15655:15885   */\n    tag_229:\n        /* \"#utility.yul\":15795:15829   */\n      0x53696d706c65566f74696e673a2050726f706f73616c20696e646578206f7574\n        /* \"#utility.yul\":15791:15792   */\n      0x00\n        /* \"#utility.yul\":15783:15789   */\n      dup3\n        /* \"#utility.yul\":15779:15793   */\n      add\n        /* \"#utility.yul\":15772:15830   */\n      mstore\n        /* \"#utility.yul\":15864:15877   */\n      0x206f6620626f756e64732e000000000000000000000000000000000000000000\n        /* \"#utility.yul\":15859:15861   */\n      0x20\n        /* \"#utility.yul\":15851:15857   */\n      dup3\n        /* \"#utility.yul\":15847:15862   */\n      add\n        /* \"#utility.yul\":15840:15878   */\n      mstore\n        /* \"#utility.yul\":15655:15885   */\n      pop\n      jump\t// out\n        /* \"#utility.yul\":15891:16125   */\n    tag_234:\n        /* \"#utility.yul\":16031:16065   */\n      0x53696d706c65566f74696e673a2044656c65676174696f6e2074726163657320\n        /* \"#utility.yul\":16027:16028   */\n      0x00\n        /* \"#utility.yul\":16019:16025   */\n      dup3\n        /* \"#utility.yul\":16015:16029   */\n      add\n        /* \"#utility.yul\":16008:16066   */\n      mstore\n        /* \"#utility.yul\":16100:16117   */\n      0x6261636b20746f2063616c6c65722e0000000000000000000000000000000000\n        /* \"#utility.yul\":16095:16097   */\n      0x20\n        /* \"#utility.yul\":16087:16093   */\n      dup3\n        /* \"#utility.yul\":16083:16098   */\n      add\n        /* \"#utility.yul\":16076:16118   */\n      mstore\n        /* \"#utility.yul\":15891:16125   */\n      pop\n      jump\t// out\n        /* \"#utility.yul\":16131:16253   */\n    tag_149:\n        /* \"#utility.yul\":16204:16228   */\n      tag_318\n        /* \"#utility.yul\":16222:16227   */\n      dup2\n        /* \"#utility.yul\":16204:16228   */\n      tag_166\n      jump\t// in\n    tag_318:\n        /* \"#utility.yul\":16197:16202   */\n      dup2\n        /* \"#utility.yul\":16194:16229   */\n      eq\n        /* \"#utility.yul\":16184:16247   */\n      tag_319\n      jumpi\n        /* \"#utility.yul\":16243:16244   */\n      0x00\n        /* \"#utility.yul\":16240:16241   */\n      dup1\n        /* \"#utility.yul\":16233:16245   */\n      revert\n        /* \"#utility.yul\":16184:16247   */\n    tag_319:\n        /* \"#utility.yul\":16131:16253   */\n      pop\n      jump\t// out\n        /* \"#utility.yul\":16259:16381   */\n    tag_153:\n        /* \"#utility.yul\":16332:16356   */\n      tag_321\n        /* \"#utility.yul\":16350:16355   */\n      dup2\n        /* \"#utility.yul\":16332:16356   */\n      tag_242\n      jump\t// in\n    tag_321:\n        /* \"#utility.yul\":16325:16330   */\n      dup2\n        /* \"#utility.yul\":16322:16357   */\n      eq\n        /* \"#utility.yul\":16312:16375   */\n      tag_322\n      jumpi\n        /* \"#utility.yul\":16371:16372   */\n      0x00\n        /* \"#utility.yul\":16368:16369   */\n      dup1\n        /* \"#utility.yul\":16361:16373   */\n      revert\n        /* \"#utility.yul\":16312:16375   */\n    tag_322:\n        /* \"#utility.yul\":16259:16381   */\n      pop\n      jump\t// out\n\n    auxdata: 0xa26469706673582212200c1997d41298136e74003f6876e6e4bf5be780b28ae3fbeead52a391c699ece164736f6c63430008070033\n}\n",
				"bytecode": {
					"linkReferences": {},
					"object": "60806040523480156200001157600080fd5b5060405162001c9338038062001c9383398181016040528101906200003791906200035f565b62000047620001bc60201b60201c565b600160006101000a81548173ffffffffffffffffffffffffffffffffffffffff021916908373ffffffffffffffffffffffffffffffffffffffff160217905550600160026000600160009054906101000a900473ffffffffffffffffffffffffffffffffffffffff1673ffffffffffffffffffffffffffffffffffffffff1673ffffffffffffffffffffffffffffffffffffffff16815260200190815260200160002060000181905550805160008190555060005b600054811015620001b45760006040518060400160405280620001428585815181106200012e576200012d6200063b565b5b6020026020010151620001c460201b60201c565b81526020016000815250905060038190806001815401808255809150506001900390600052602060002090600202016000909190919091506000820151816000015560208201518160010155505050620001ac600182620001fa60201b62000c421790919060201c565b9050620000fc565b5050620006e7565b600033905090565b600081604051602001620001d99190620003e7565b604051602081830303815290604052620001f39062000530565b9050919050565b600081836200020a9190620004bf565b905092915050565b600062000229620002238462000429565b62000400565b905080838252602082019050828560208602820111156200024f576200024e620006b5565b5b60005b85811015620002a457815167ffffffffffffffff811115620002795762000278620006b0565b5b8086016200028889826200032c565b8552602085019450602084019350505060018101905062000252565b5050509392505050565b6000620002c5620002bf8462000458565b62000400565b905082815260208101848484011115620002e457620002e3620006ba565b5b620002f1848285620005a0565b509392505050565b600082601f830112620003115762000310620006b0565b5b81516200032384826020860162000212565b91505092915050565b600082601f830112620003445762000343620006b0565b5b815162000356848260208601620002ae565b91505092915050565b600060208284031215620003785762000377620006c4565b5b600082015167ffffffffffffffff811115620003995762000398620006bf565b5b620003a784828501620002f9565b91505092915050565b6000620003bd82620004a9565b620003c98185620004b4565b9350620003db818560208601620005a0565b80840191505092915050565b6000620003f58284620003b0565b915081905092915050565b60006200040c6200041f565b90506200041a8282620005d6565b919050565b6000604051905090565b600067ffffffffffffffff8211156200044757620004466200066a565b5b602082029050602081019050919050565b600067ffffffffffffffff8211156200047657620004756200066a565b5b6200048182620006c9565b9050602081019050919050565b6000819050602082019050919050565b600081519050919050565b600081519050919050565b600081905092915050565b6000620004cc8262000526565b9150620004d98362000526565b9250827fffffffffffffffffffffffffffffffffffffffffffffffffffffffffffffffff038211156200051157620005106200060c565b5b828201905092915050565b6000819050919050565b6000819050919050565b60006200053d826200049e565b8262000549846200048e565b9050620005568162000699565b925060208210156200059957620005947fffffffffffffffffffffffffffffffffffffffffffffffffffffffffffffffff83602003600802620006da565b831692505b5050919050565b60005b83811015620005c0578082015181840152602081019050620005a3565b83811115620005d0576000848401525b50505050565b620005e182620006c9565b810181811067ffffffffffffffff821117156200060357620006026200066a565b5b80604052505050565b7f4e487b7100000000000000000000000000000000000000000000000000000000600052601160045260246000fd5b7f4e487b7100000000000000000000000000000000000000000000000000000000600052603260045260246000fd5b7f4e487b7100000000000000000000000000000000000000000000000000000000600052604160045260246000fd5b6000620006a782516200051c565b80915050919050565b600080fd5b600080fd5b600080fd5b600080fd5b600080fd5b6000601f19601f8301169050919050565b600082821b905092915050565b61159c80620006f76000396000f3fe608060405234801561001057600080fd5b50600436106100935760003560e01c8063a3ec138d11610066578063a3ec138d1461010a578063c7f758a81461013d578063d4d4b5ac1461016d578063da35c6641461018b578063e2ba53f0146101a957610093565b80630121b93f146100985780635c19a95c146100b4578063609ff1bd146100d05780639e7b8d61146100ee575b600080fd5b6100b260048036038101906100ad9190610cfd565b6101c7565b005b6100ce60048036038101906100c99190610cd0565b6103d8565b005b6100d86108ea565b6040516100e591906110c2565b60405180910390f35b61010860048036038101906101039190610cd0565b610977565b005b610124600480360381019061011f9190610cd0565b610b70565b60405161013494939291906110dd565b60405180910390f35b61015760048036038101906101529190610cfd565b610bcd565b60405161016491906110a7565b60405180910390f35b610175610bda565b6040516101829190610f4a565b60405180910390f35b610193610c00565b6040516101a091906110c2565b60405180910390f35b6101b1610c06565b6040516101be9190610f65565b60405180910390f35b6000600260006101d5610c58565b73ffffffffffffffffffffffffffffffffffffffff1673ffffffffffffffffffffffffffffffffffffffff1681526020019081526020016000209050600081600001541415610259576040517f08c379a000000000000000000000000000000000000000000000000000000000815260040161025090610f87565b60405180910390fd5b8060010160009054906101000a900460ff16156102ab576040517f08c379a00000000000000000000000000000000000000000000000000000000081526004016102a290610fc7565b60405180910390fd5b60005482106102ef576040517f08c379a00000000000000000000000000000000000000000000000000000000081526004016102e690611067565b60405180910390fd5b60018160010160006101000a81548160ff02191690831515021790555081816002018190555061035181600001546003848154811061033157610330611252565b5b906000526020600020906002020160010154610c4290919063ffffffff16565b6003838154811061036557610364611252565b5b906000526020600020906002020160010181905550610382610c58565b73ffffffffffffffffffffffffffffffffffffffff16827fe7ee74ca1f4bb1b82b14f87794c45b3e59c39e372b862fb97a6316b43355b69e83600001546040516103cc91906110c2565b60405180910390a35050565b6103e0610c58565b600260008273ffffffffffffffffffffffffffffffffffffffff1673ffffffffffffffffffffffffffffffffffffffff16815260200190815260200160002060010160009054906101000a900460ff1615610470576040517f08c379a000000000000000000000000000000000000000000000000000000000815260040161046790610fa7565b60405180910390fd5b60006002600061047e610c58565b73ffffffffffffffffffffffffffffffffffffffff1673ffffffffffffffffffffffffffffffffffffffff16815260200190815260200160002060000154116104fc576040517f08c379a00000000000000000000000000000000000000000000000000000000081526004016104f390611007565b60405180910390fd5b60006002600061050a610c58565b73ffffffffffffffffffffffffffffffffffffffff1673ffffffffffffffffffffffffffffffffffffffff168152602001908152602001600020905061054e610c58565b73ffffffffffffffffffffffffffffffffffffffff168373ffffffffffffffffffffffffffffffffffffffff1614156105bc576040517f08c379a00000000000000000000000000000000000000000000000000000000081526004016105b390611027565b60405180910390fd5b5b600073ffffffffffffffffffffffffffffffffffffffff16600260008573ffffffffffffffffffffffffffffffffffffffff1673ffffffffffffffffffffffffffffffffffffffff16815260200190815260200160002060010160019054906101000a900473ffffffffffffffffffffffffffffffffffffffff1673ffffffffffffffffffffffffffffffffffffffff161461073357600260008473ffffffffffffffffffffffffffffffffffffffff1673ffffffffffffffffffffffffffffffffffffffff16815260200190815260200160002060010160019054906101000a900473ffffffffffffffffffffffffffffffffffffffff1692506106c0610c58565b73ffffffffffffffffffffffffffffffffffffffff168373ffffffffffffffffffffffffffffffffffffffff16141561072e576040517f08c379a000000000000000000000000000000000000000000000000000000000815260040161072590611087565b60405180910390fd5b6105bd565b60018160010160006101000a81548160ff021916908315150217905550828160010160016101000a81548173ffffffffffffffffffffffffffffffffffffffff021916908373ffffffffffffffffffffffffffffffffffffffff1602179055506000600260008573ffffffffffffffffffffffffffffffffffffffff1673ffffffffffffffffffffffffffffffffffffffff16815260200190815260200160002090508060010160009054906101000a900460ff161561085f5761082d8260000154600383600201548154811061080d5761080c611252565b5b906000526020600020906002020160010154610c4290919063ffffffff16565b600382600201548154811061084557610844611252565b5b906000526020600020906002020160010181905550610883565b61087a82600001548260000154610c4290919063ffffffff16565b81600001819055505b8373ffffffffffffffffffffffffffffffffffffffff166108a2610c58565b73ffffffffffffffffffffffffffffffffffffffff167f4ce9ef2c99d761d69230b0e3381f4c6016333b2e27d32b3e379a96b5d2c6923260405160405180910390a350505050565b6000806000905060005b60005481101561097257816003828154811061091357610912611252565b5b9060005260206000209060020201600101541115610957576003818154811061093f5761093e611252565b5b90600052602060002090600202016001015491508092505b61096b600182610c4290919063ffffffff16565b90506108f4565b505090565b600160009054906101000a900473ffffffffffffffffffffffffffffffffffffffff1673ffffffffffffffffffffffffffffffffffffffff166109b8610c58565b73ffffffffffffffffffffffffffffffffffffffff1614610a0e576040517f08c379a0000000000000000000000000000000000000000000000000000000008152600401610a0590610fe7565b60405180910390fd5b80600260008273ffffffffffffffffffffffffffffffffffffffff1673ffffffffffffffffffffffffffffffffffffffff16815260200190815260200160002060010160009054906101000a900460ff1615610a9f576040517f08c379a0000000000000000000000000000000000000000000000000000000008152600401610a9690610fa7565b60405180910390fd5b6000600260008473ffffffffffffffffffffffffffffffffffffffff1673ffffffffffffffffffffffffffffffffffffffff1681526020019081526020016000206000015414610b24576040517f08c379a0000000000000000000000000000000000000000000000000000000008152600401610b1b90611047565b60405180910390fd5b6001600260008473ffffffffffffffffffffffffffffffffffffffff1673ffffffffffffffffffffffffffffffffffffffff168152602001908152602001600020600001819055505050565b60026020528060005260406000206000915090508060000154908060010160009054906101000a900460ff16908060010160019054906101000a900473ffffffffffffffffffffffffffffffffffffffff16908060020154905084565b610bd5610c89565b919050565b600160009054906101000a900473ffffffffffffffffffffffffffffffffffffffff1681565b60005481565b6060610c3d6003610c156108ea565b81548110610c2657610c25611252565b5b906000526020600020906002020160000154610c60565b905090565b60008183610c50919061113e565b905092915050565b600033905090565b606081604051602001610c739190610f2f565b6040516020818303038152906040529050919050565b604051806040016040528060008019168152602001600081525090565b600081359050610cb581611538565b92915050565b600081359050610cca8161154f565b92915050565b600060208284031215610ce657610ce5611281565b5b6000610cf484828501610ca6565b91505092915050565b600060208284031215610d1357610d12611281565b5b6000610d2184828501610cbb565b91505092915050565b610d3381611194565b82525050565b610d42816111a6565b82525050565b610d51816111b2565b82525050565b610d68610d63826111b2565b611219565b82525050565b6000610d7982611122565b610d83818561112d565b9350610d938185602086016111e6565b610d9c81611286565b840191505092915050565b6000610db460298361112d565b9150610dbf82611297565b604082019050919050565b6000610dd7602a8361112d565b9150610de2826112e6565b604082019050919050565b6000610dfa600e8361112d565b9150610e0582611335565b602082019050919050565b6000610e1d60368361112d565b9150610e288261135e565b604082019050919050565b6000610e4060318361112d565b9150610e4b826113ad565b604082019050919050565b6000610e63602d8361112d565b9150610e6e826113fc565b604082019050919050565b6000610e8660308361112d565b9150610e918261144b565b604082019050919050565b6000610ea9602b8361112d565b9150610eb48261149a565b604082019050919050565b6000610ecc602f8361112d565b9150610ed7826114e9565b604082019050919050565b604082016000820151610ef86000850182610d48565b506020820151610f0b6020850182610f11565b50505050565b610f1a816111dc565b82525050565b610f29816111dc565b82525050565b6000610f3b8284610d57565b60208201915081905092915050565b6000602082019050610f5f6000830184610d2a565b92915050565b60006020820190508181036000830152610f7f8184610d6e565b905092915050565b60006020820190508181036000830152610fa081610da7565b9050919050565b60006020820190508181036000830152610fc081610dca565b9050919050565b60006020820190508181036000830152610fe081610ded565b9050919050565b6000602082019050818103600083015261100081610e10565b9050919050565b6000602082019050818103600083015261102081610e33565b9050919050565b6000602082019050818103600083015261104081610e56565b9050919050565b6000602082019050818103600083015261106081610e79565b9050919050565b6000602082019050818103600083015261108081610e9c565b9050919050565b600060208201905081810360008301526110a081610ebf565b9050919050565b60006040820190506110bc6000830184610ee2565b92915050565b60006020820190506110d76000830184610f20565b92915050565b60006080820190506110f26000830187610f20565b6110ff6020830186610d39565b61110c6040830185610d2a565b6111196060830184610f20565b95945050505050565b600081519050919050565b600082825260208201905092915050565b6000611149826111dc565b9150611154836111dc565b9250827fffffffffffffffffffffffffffffffffffffffffffffffffffffffffffffffff0382111561118957611188611223565b5b828201905092915050565b600061119f826111bc565b9050919050565b60008115159050919050565b6000819050919050565b600073ffffffffffffffffffffffffffffffffffffffff82169050919050565b6000819050919050565b60005b838110156112045780820151818401526020810190506111e9565b83811115611213576000848401525b50505050565b6000819050919050565b7f4e487b7100000000000000000000000000000000000000000000000000000000600052601160045260246000fd5b7f4e487b7100000000000000000000000000000000000000000000000000000000600052603260045260246000fd5b600080fd5b6000601f19601f8301169050919050565b7f53696d706c65566f74696e673a2043616c6c657220686173206e6f207269676860008201527f7420746f20766f74650000000000000000000000000000000000000000000000602082015250565b7f53696d706c65566f74696e673a2054686520766f7465722068617320616c726560008201527f61647920766f7465642e00000000000000000000000000000000000000000000602082015250565b7f416c726561647920766f7465642e000000000000000000000000000000000000600082015250565b7f53696d706c65566f74696e673a204f6e6c79206368616972506572736f6e206360008201527f616e206769766520726967687420746f20766f74652e00000000000000000000602082015250565b7f53696d706c65566f74696e673a2043616c6c657220646f6573206e6f7420686160008201527f766520726967687420746f20766f74652e000000000000000000000000000000602082015250565b7f53696d706c65566f74696e673a2053656c662d64656c65676174696f6e20697360008201527f206e6f7420616c6c6f7765642e00000000000000000000000000000000000000602082015250565b7f53696d706c65566f74696e673a204164647265737320616c726561647920686160008201527f7320726967687420746f20766f74652e00000000000000000000000000000000602082015250565b7f53696d706c65566f74696e673a2050726f706f73616c20696e646578206f757460008201527f206f6620626f756e64732e000000000000000000000000000000000000000000602082015250565b7f53696d706c65566f74696e673a2044656c65676174696f6e207472616365732060008201527f6261636b20746f2063616c6c65722e0000000000000000000000000000000000602082015250565b61154181611194565b811461154c57600080fd5b50565b611558816111dc565b811461156357600080fd5b5056fea26469706673582212200c1997d41298136e74003f6876e6e4bf5be780b28ae3fbeead52a391c699ece164736f6c63430008070033",
					"opcodes": "PUSH1 0x80 PUSH1 0x40 MSTORE CALLVALUE DUP1 ISZERO PUSH3 0x11 JUMPI PUSH1 0x0 DUP1 REVERT JUMPDEST POP PUSH1 0x40 MLOAD PUSH3 0x1C93 CODESIZE SUB DUP1 PUSH3 0x1C93 DUP4 CODECOPY DUP2 DUP2 ADD PUSH1 0x40 MSTORE DUP2 ADD SWAP1 PUSH3 0x37 SWAP2 SWAP1 PUSH3 0x35F JUMP JUMPDEST PUSH3 0x47 PUSH3 0x1BC PUSH1 0x20 SHL PUSH1 0x20 SHR JUMP JUMPDEST PUSH1 0x1 PUSH1 0x0 PUSH2 0x100 EXP DUP2 SLOAD DUP2 PUSH20 0xFFFFFFFFFFFFFFFFFFFFFFFFFFFFFFFFFFFFFFFF MUL NOT AND SWAP1 DUP4 PUSH20 0xFFFFFFFFFFFFFFFFFFFFFFFFFFFFFFFFFFFFFFFF AND MUL OR SWAP1 SSTORE POP PUSH1 0x1 PUSH1 0x2 PUSH1 0x0 PUSH1 0x1 PUSH1 0x0 SWAP1 SLOAD SWAP1 PUSH2 0x100 EXP SWAP1 DIV PUSH20 0xFFFFFFFFFFFFFFFFFFFFFFFFFFFFFFFFFFFFFFFF AND PUSH20 0xFFFFFFFFFFFFFFFFFFFFFFFFFFFFFFFFFFFFFFFF AND PUSH20 0xFFFFFFFFFFFFFFFFFFFFFFFFFFFFFFFFFFFFFFFF AND DUP2 MSTORE PUSH1 0x20 ADD SWAP1 DUP2 MSTORE PUSH1 0x20 ADD PUSH1 0x0 KECCAK256 PUSH1 0x0 ADD DUP2 SWAP1 SSTORE POP DUP1 MLOAD PUSH1 0x0 DUP2 SWAP1 SSTORE POP PUSH1 0x0 JUMPDEST PUSH1 0x0 SLOAD DUP2 LT ISZERO PUSH3 0x1B4 JUMPI PUSH1 0x0 PUSH1 0x40 MLOAD DUP1 PUSH1 0x40 ADD PUSH1 0x40 MSTORE DUP1 PUSH3 0x142 DUP6 DUP6 DUP2 MLOAD DUP2 LT PUSH3 0x12E JUMPI PUSH3 0x12D PUSH3 0x63B JUMP JUMPDEST JUMPDEST PUSH1 0x20 MUL PUSH1 0x20 ADD ADD MLOAD PUSH3 0x1C4 PUSH1 0x20 SHL PUSH1 0x20 SHR JUMP JUMPDEST DUP2 MSTORE PUSH1 0x20 ADD PUSH1 0x0 DUP2 MSTORE POP SWAP1 POP PUSH1 0x3 DUP2 SWAP1 DUP1 PUSH1 0x1 DUP2 SLOAD ADD DUP1 DUP3 SSTORE DUP1 SWAP2 POP POP PUSH1 0x1 SWAP1 SUB SWAP1 PUSH1 0x0 MSTORE PUSH1 0x20 PUSH1 0x0 KECCAK256 SWAP1 PUSH1 0x2 MUL ADD PUSH1 0x0 SWAP1 SWAP2 SWAP1 SWAP2 SWAP1 SWAP2 POP PUSH1 0x0 DUP3 ADD MLOAD DUP2 PUSH1 0x0 ADD SSTORE PUSH1 0x20 DUP3 ADD MLOAD DUP2 PUSH1 0x1 ADD SSTORE POP POP POP PUSH3 0x1AC PUSH1 0x1 DUP3 PUSH3 0x1FA PUSH1 0x20 SHL PUSH3 0xC42 OR SWAP1 SWAP2 SWAP1 PUSH1 0x20 SHR JUMP JUMPDEST SWAP1 POP PUSH3 0xFC JUMP JUMPDEST POP POP PUSH3 0x6E7 JUMP JUMPDEST PUSH1 0x0 CALLER SWAP1 POP SWAP1 JUMP JUMPDEST PUSH1 0x0 DUP2 PUSH1 0x40 MLOAD PUSH1 0x20 ADD PUSH3 0x1D9 SWAP2 SWAP1 PUSH3 0x3E7 JUMP JUMPDEST PUSH1 0x40 MLOAD PUSH1 0x20 DUP2 DUP4 SUB SUB DUP2 MSTORE SWAP1 PUSH1 0x40 MSTORE PUSH3 0x1F3 SWAP1 PUSH3 0x530 JUMP JUMPDEST SWAP1 POP SWAP2 SWAP1 POP JUMP JUMPDEST PUSH1 0x0 DUP2 DUP4 PUSH3 0x20A SWAP2 SWAP1 PUSH3 0x4BF JUMP JUMPDEST SWAP1 POP SWAP3 SWAP2 POP POP JUMP JUMPDEST PUSH1 0x0 PUSH3 0x229 PUSH3 0x223 DUP5 PUSH3 0x429 JUMP JUMPDEST PUSH3 0x400 JUMP JUMPDEST SWAP1 POP DUP1 DUP4 DUP3 MSTORE PUSH1 0x20 DUP3 ADD SWAP1 POP DUP3 DUP6 PUSH1 0x20 DUP7 MUL DUP3 ADD GT ISZERO PUSH3 0x24F JUMPI PUSH3 0x24E PUSH3 0x6B5 JUMP JUMPDEST JUMPDEST PUSH1 0x0 JUMPDEST DUP6 DUP2 LT ISZERO PUSH3 0x2A4 JUMPI DUP2 MLOAD PUSH8 0xFFFFFFFFFFFFFFFF DUP2 GT ISZERO PUSH3 0x279 JUMPI PUSH3 0x278 PUSH3 0x6B0 JUMP JUMPDEST JUMPDEST DUP1 DUP7 ADD PUSH3 0x288 DUP10 DUP3 PUSH3 0x32C JUMP JUMPDEST DUP6 MSTORE PUSH1 0x20 DUP6 ADD SWAP5 POP PUSH1 0x20 DUP5 ADD SWAP4 POP POP POP PUSH1 0x1 DUP2 ADD SWAP1 POP PUSH3 0x252 JUMP JUMPDEST POP POP POP SWAP4 SWAP3 POP POP POP JUMP JUMPDEST PUSH1 0x0 PUSH3 0x2C5 PUSH3 0x2BF DUP5 PUSH3 0x458 JUMP JUMPDEST PUSH3 0x400 JUMP JUMPDEST SWAP1 POP DUP3 DUP2 MSTORE PUSH1 0x20 DUP2 ADD DUP5 DUP5 DUP5 ADD GT ISZERO PUSH3 0x2E4 JUMPI PUSH3 0x2E3 PUSH3 0x6BA JUMP JUMPDEST JUMPDEST PUSH3 0x2F1 DUP5 DUP3 DUP6 PUSH3 0x5A0 JUMP JUMPDEST POP SWAP4 SWAP3 POP POP POP JUMP JUMPDEST PUSH1 0x0 DUP3 PUSH1 0x1F DUP4 ADD SLT PUSH3 0x311 JUMPI PUSH3 0x310 PUSH3 0x6B0 JUMP JUMPDEST JUMPDEST DUP2 MLOAD PUSH3 0x323 DUP5 DUP3 PUSH1 0x20 DUP7 ADD PUSH3 0x212 JUMP JUMPDEST SWAP2 POP POP SWAP3 SWAP2 POP POP JUMP JUMPDEST PUSH1 0x0 DUP3 PUSH1 0x1F DUP4 ADD SLT PUSH3 0x344 JUMPI PUSH3 0x343 PUSH3 0x6B0 JUMP JUMPDEST JUMPDEST DUP2 MLOAD PUSH3 0x356 DUP5 DUP3 PUSH1 0x20 DUP7 ADD PUSH3 0x2AE JUMP JUMPDEST SWAP2 POP POP SWAP3 SWAP2 POP POP JUMP JUMPDEST PUSH1 0x0 PUSH1 0x20 DUP3 DUP5 SUB SLT ISZERO PUSH3 0x378 JUMPI PUSH3 0x377 PUSH3 0x6C4 JUMP JUMPDEST JUMPDEST PUSH1 0x0 DUP3 ADD MLOAD PUSH8 0xFFFFFFFFFFFFFFFF DUP2 GT ISZERO PUSH3 0x399 JUMPI PUSH3 0x398 PUSH3 0x6BF JUMP JUMPDEST JUMPDEST PUSH3 0x3A7 DUP5 DUP3 DUP6 ADD PUSH3 0x2F9 JUMP JUMPDEST SWAP2 POP POP SWAP3 SWAP2 POP POP JUMP JUMPDEST PUSH1 0x0 PUSH3 0x3BD DUP3 PUSH3 0x4A9 JUMP JUMPDEST PUSH3 0x3C9 DUP2 DUP6 PUSH3 0x4B4 JUMP JUMPDEST SWAP4 POP PUSH3 0x3DB DUP2 DUP6 PUSH1 0x20 DUP7 ADD PUSH3 0x5A0 JUMP JUMPDEST DUP1 DUP5 ADD SWAP2 POP POP SWAP3 SWAP2 POP POP JUMP JUMPDEST PUSH1 0x0 PUSH3 0x3F5 DUP3 DUP5 PUSH3 0x3B0 JUMP JUMPDEST SWAP2 POP DUP2 SWAP1 POP SWAP3 SWAP2 POP POP JUMP JUMPDEST PUSH1 0x0 PUSH3 0x40C PUSH3 0x41F JUMP JUMPDEST SWAP1 POP PUSH3 0x41A DUP3 DUP3 PUSH3 0x5D6 JUMP JUMPDEST SWAP2 SWAP1 POP JUMP JUMPDEST PUSH1 0x0 PUSH1 0x40 MLOAD SWAP1 POP SWAP1 JUMP JUMPDEST PUSH1 0x0 PUSH8 0xFFFFFFFFFFFFFFFF DUP3 GT ISZERO PUSH3 0x447 JUMPI PUSH3 0x446 PUSH3 0x66A JUMP JUMPDEST JUMPDEST PUSH1 0x20 DUP3 MUL SWAP1 POP PUSH1 0x20 DUP2 ADD SWAP1 POP SWAP2 SWAP1 POP JUMP JUMPDEST PUSH1 0x0 PUSH8 0xFFFFFFFFFFFFFFFF DUP3 GT ISZERO PUSH3 0x476 JUMPI PUSH3 0x475 PUSH3 0x66A JUMP JUMPDEST JUMPDEST PUSH3 0x481 DUP3 PUSH3 0x6C9 JUMP JUMPDEST SWAP1 POP PUSH1 0x20 DUP2 ADD SWAP1 POP SWAP2 SWAP1 POP JUMP JUMPDEST PUSH1 0x0 DUP2 SWAP1 POP PUSH1 0x20 DUP3 ADD SWAP1 POP SWAP2 SWAP1 POP JUMP JUMPDEST PUSH1 0x0 DUP2 MLOAD SWAP1 POP SWAP2 SWAP1 POP JUMP JUMPDEST PUSH1 0x0 DUP2 MLOAD SWAP1 POP SWAP2 SWAP1 POP JUMP JUMPDEST PUSH1 0x0 DUP2 SWAP1 POP SWAP3 SWAP2 POP POP JUMP JUMPDEST PUSH1 0x0 PUSH3 0x4CC DUP3 PUSH3 0x526 JUMP JUMPDEST SWAP2 POP PUSH3 0x4D9 DUP4 PUSH3 0x526 JUMP JUMPDEST SWAP3 POP DUP3 PUSH32 0xFFFFFFFFFFFFFFFFFFFFFFFFFFFFFFFFFFFFFFFFFFFFFFFFFFFFFFFFFFFFFFFF SUB DUP3 GT ISZERO PUSH3 0x511 JUMPI PUSH3 0x510 PUSH3 0x60C JUMP JUMPDEST JUMPDEST DUP3 DUP3 ADD SWAP1 POP SWAP3 SWAP2 POP POP JUMP JUMPDEST PUSH1 0x0 DUP2 SWAP1 POP SWAP2 SWAP1 POP JUMP JUMPDEST PUSH1 0x0 DUP2 SWAP1 POP SWAP2 SWAP1 POP JUMP JUMPDEST PUSH1 0x0 PUSH3 0x53D DUP3 PUSH3 0x49E JUMP JUMPDEST DUP3 PUSH3 0x549 DUP5 PUSH3 0x48E JUMP JUMPDEST SWAP1 POP PUSH3 0x556 DUP2 PUSH3 0x699 JUMP JUMPDEST SWAP3 POP PUSH1 0x20 DUP3 LT ISZERO PUSH3 0x599 JUMPI PUSH3 0x594 PUSH32 0xFFFFFFFFFFFFFFFFFFFFFFFFFFFFFFFFFFFFFFFFFFFFFFFFFFFFFFFFFFFFFFFF DUP4 PUSH1 0x20 SUB PUSH1 0x8 MUL PUSH3 0x6DA JUMP JUMPDEST DUP4 AND SWAP3 POP JUMPDEST POP POP SWAP2 SWAP1 POP JUMP JUMPDEST PUSH1 0x0 JUMPDEST DUP4 DUP2 LT ISZERO PUSH3 0x5C0 JUMPI DUP1 DUP3 ADD MLOAD DUP2 DUP5 ADD MSTORE PUSH1 0x20 DUP2 ADD SWAP1 POP PUSH3 0x5A3 JUMP JUMPDEST DUP4 DUP2 GT ISZERO PUSH3 0x5D0 JUMPI PUSH1 0x0 DUP5 DUP5 ADD MSTORE JUMPDEST POP POP POP POP JUMP JUMPDEST PUSH3 0x5E1 DUP3 PUSH3 0x6C9 JUMP JUMPDEST DUP2 ADD DUP2 DUP2 LT PUSH8 0xFFFFFFFFFFFFFFFF DUP3 GT OR ISZERO PUSH3 0x603 JUMPI PUSH3 0x602 PUSH3 0x66A JUMP JUMPDEST JUMPDEST DUP1 PUSH1 0x40 MSTORE POP POP POP JUMP JUMPDEST PUSH32 0x4E487B7100000000000000000000000000000000000000000000000000000000 PUSH1 0x0 MSTORE PUSH1 0x11 PUSH1 0x4 MSTORE PUSH1 0x24 PUSH1 0x0 REVERT JUMPDEST PUSH32 0x4E487B7100000000000000000000000000000000000000000000000000000000 PUSH1 0x0 MSTORE PUSH1 0x32 PUSH1 0x4 MSTORE PUSH1 0x24 PUSH1 0x0 REVERT JUMPDEST PUSH32 0x4E487B7100000000000000000000000000000000000000000000000000000000 PUSH1 0x0 MSTORE PUSH1 0x41 PUSH1 0x4 MSTORE PUSH1 0x24 PUSH1 0x0 REVERT JUMPDEST PUSH1 0x0 PUSH3 0x6A7 DUP3 MLOAD PUSH3 0x51C JUMP JUMPDEST DUP1 SWAP2 POP POP SWAP2 SWAP1 POP JUMP JUMPDEST PUSH1 0x0 DUP1 REVERT JUMPDEST PUSH1 0x0 DUP1 REVERT JUMPDEST PUSH1 0x0 DUP1 REVERT JUMPDEST PUSH1 0x0 DUP1 REVERT JUMPDEST PUSH1 0x0 DUP1 REVERT JUMPDEST PUSH1 0x0 PUSH1 0x1F NOT PUSH1 0x1F DUP4 ADD AND SWAP1 POP SWAP2 SWAP1 POP JUMP JUMPDEST PUSH1 0x0 DUP3 DUP3 SHL SWAP1 POP SWAP3 SWAP2 POP POP JUMP JUMPDEST PUSH2 0x159C DUP1 PUSH3 0x6F7 PUSH1 0x0 CODECOPY PUSH1 0x0 RETURN INVALID PUSH1 0x80 PUSH1 0x40 MSTORE CALLVALUE DUP1 ISZERO PUSH2 0x10 JUMPI PUSH1 0x0 DUP1 REVERT JUMPDEST POP PUSH1 0x4 CALLDATASIZE LT PUSH2 0x93 JUMPI PUSH1 0x0 CALLDATALOAD PUSH1 0xE0 SHR DUP1 PUSH4 0xA3EC138D GT PUSH2 0x66 JUMPI DUP1 PUSH4 0xA3EC138D EQ PUSH2 0x10A JUMPI DUP1 PUSH4 0xC7F758A8 EQ PUSH2 0x13D JUMPI DUP1 PUSH4 0xD4D4B5AC EQ PUSH2 0x16D JUMPI DUP1 PUSH4 0xDA35C664 EQ PUSH2 0x18B JUMPI DUP1 PUSH4 0xE2BA53F0 EQ PUSH2 0x1A9 JUMPI PUSH2 0x93 JUMP JUMPDEST DUP1 PUSH4 0x121B93F EQ PUSH2 0x98 JUMPI DUP1 PUSH4 0x5C19A95C EQ PUSH2 0xB4 JUMPI DUP1 PUSH4 0x609FF1BD EQ PUSH2 0xD0 JUMPI DUP1 PUSH4 0x9E7B8D61 EQ PUSH2 0xEE JUMPI JUMPDEST PUSH1 0x0 DUP1 REVERT JUMPDEST PUSH2 0xB2 PUSH1 0x4 DUP1 CALLDATASIZE SUB DUP2 ADD SWAP1 PUSH2 0xAD SWAP2 SWAP1 PUSH2 0xCFD JUMP JUMPDEST PUSH2 0x1C7 JUMP JUMPDEST STOP JUMPDEST PUSH2 0xCE PUSH1 0x4 DUP1 CALLDATASIZE SUB DUP2 ADD SWAP1 PUSH2 0xC9 SWAP2 SWAP1 PUSH2 0xCD0 JUMP JUMPDEST PUSH2 0x3D8 JUMP JUMPDEST STOP JUMPDEST PUSH2 0xD8 PUSH2 0x8EA JUMP JUMPDEST PUSH1 0x40 MLOAD PUSH2 0xE5 SWAP2 SWAP1 PUSH2 0x10C2 JUMP JUMPDEST PUSH1 0x40 MLOAD DUP1 SWAP2 SUB SWAP1 RETURN JUMPDEST PUSH2 0x108 PUSH1 0x4 DUP1 CALLDATASIZE SUB DUP2 ADD SWAP1 PUSH2 0x103 SWAP2 SWAP1 PUSH2 0xCD0 JUMP JUMPDEST PUSH2 0x977 JUMP JUMPDEST STOP JUMPDEST PUSH2 0x124 PUSH1 0x4 DUP1 CALLDATASIZE SUB DUP2 ADD SWAP1 PUSH2 0x11F SWAP2 SWAP1 PUSH2 0xCD0 JUMP JUMPDEST PUSH2 0xB70 JUMP JUMPDEST PUSH1 0x40 MLOAD PUSH2 0x134 SWAP5 SWAP4 SWAP3 SWAP2 SWAP1 PUSH2 0x10DD JUMP JUMPDEST PUSH1 0x40 MLOAD DUP1 SWAP2 SUB SWAP1 RETURN JUMPDEST PUSH2 0x157 PUSH1 0x4 DUP1 CALLDATASIZE SUB DUP2 ADD SWAP1 PUSH2 0x152 SWAP2 SWAP1 PUSH2 0xCFD JUMP JUMPDEST PUSH2 0xBCD JUMP JUMPDEST PUSH1 0x40 MLOAD PUSH2 0x164 SWAP2 SWAP1 PUSH2 0x10A7 JUMP JUMPDEST PUSH1 0x40 MLOAD DUP1 SWAP2 SUB SWAP1 RETURN JUMPDEST PUSH2 0x175 PUSH2 0xBDA JUMP JUMPDEST PUSH1 0x40 MLOAD PUSH2 0x182 SWAP2 SWAP1 PUSH2 0xF4A JUMP JUMPDEST PUSH1 0x40 MLOAD DUP1 SWAP2 SUB SWAP1 RETURN JUMPDEST PUSH2 0x193 PUSH2 0xC00 JUMP JUMPDEST PUSH1 0x40 MLOAD PUSH2 0x1A0 SWAP2 SWAP1 PUSH2 0x10C2 JUMP JUMPDEST PUSH1 0x40 MLOAD DUP1 SWAP2 SUB SWAP1 RETURN JUMPDEST PUSH2 0x1B1 PUSH2 0xC06 JUMP JUMPDEST PUSH1 0x40 MLOAD PUSH2 0x1BE SWAP2 SWAP1 PUSH2 0xF65 JUMP JUMPDEST PUSH1 0x40 MLOAD DUP1 SWAP2 SUB SWAP1 RETURN JUMPDEST PUSH1 0x0 PUSH1 0x2 PUSH1 0x0 PUSH2 0x1D5 PUSH2 0xC58 JUMP JUMPDEST PUSH20 0xFFFFFFFFFFFFFFFFFFFFFFFFFFFFFFFFFFFFFFFF AND PUSH20 0xFFFFFFFFFFFFFFFFFFFFFFFFFFFFFFFFFFFFFFFF AND DUP2 MSTORE PUSH1 0x20 ADD SWAP1 DUP2 MSTORE PUSH1 0x20 ADD PUSH1 0x0 KECCAK256 SWAP1 POP PUSH1 0x0 DUP2 PUSH1 0x0 ADD SLOAD EQ ISZERO PUSH2 0x259 JUMPI PUSH1 0x40 MLOAD PUSH32 0x8C379A000000000000000000000000000000000000000000000000000000000 DUP2 MSTORE PUSH1 0x4 ADD PUSH2 0x250 SWAP1 PUSH2 0xF87 JUMP JUMPDEST PUSH1 0x40 MLOAD DUP1 SWAP2 SUB SWAP1 REVERT JUMPDEST DUP1 PUSH1 0x1 ADD PUSH1 0x0 SWAP1 SLOAD SWAP1 PUSH2 0x100 EXP SWAP1 DIV PUSH1 0xFF AND ISZERO PUSH2 0x2AB JUMPI PUSH1 0x40 MLOAD PUSH32 0x8C379A000000000000000000000000000000000000000000000000000000000 DUP2 MSTORE PUSH1 0x4 ADD PUSH2 0x2A2 SWAP1 PUSH2 0xFC7 JUMP JUMPDEST PUSH1 0x40 MLOAD DUP1 SWAP2 SUB SWAP1 REVERT JUMPDEST PUSH1 0x0 SLOAD DUP3 LT PUSH2 0x2EF JUMPI PUSH1 0x40 MLOAD PUSH32 0x8C379A000000000000000000000000000000000000000000000000000000000 DUP2 MSTORE PUSH1 0x4 ADD PUSH2 0x2E6 SWAP1 PUSH2 0x1067 JUMP JUMPDEST PUSH1 0x40 MLOAD DUP1 SWAP2 SUB SWAP1 REVERT JUMPDEST PUSH1 0x1 DUP2 PUSH1 0x1 ADD PUSH1 0x0 PUSH2 0x100 EXP DUP2 SLOAD DUP2 PUSH1 0xFF MUL NOT AND SWAP1 DUP4 ISZERO ISZERO MUL OR SWAP1 SSTORE POP DUP2 DUP2 PUSH1 0x2 ADD DUP2 SWAP1 SSTORE POP PUSH2 0x351 DUP2 PUSH1 0x0 ADD SLOAD PUSH1 0x3 DUP5 DUP2 SLOAD DUP2 LT PUSH2 0x331 JUMPI PUSH2 0x330 PUSH2 0x1252 JUMP JUMPDEST JUMPDEST SWAP1 PUSH1 0x0 MSTORE PUSH1 0x20 PUSH1 0x0 KECCAK256 SWAP1 PUSH1 0x2 MUL ADD PUSH1 0x1 ADD SLOAD PUSH2 0xC42 SWAP1 SWAP2 SWAP1 PUSH4 0xFFFFFFFF AND JUMP JUMPDEST PUSH1 0x3 DUP4 DUP2 SLOAD DUP2 LT PUSH2 0x365 JUMPI PUSH2 0x364 PUSH2 0x1252 JUMP JUMPDEST JUMPDEST SWAP1 PUSH1 0x0 MSTORE PUSH1 0x20 PUSH1 0x0 KECCAK256 SWAP1 PUSH1 0x2 MUL ADD PUSH1 0x1 ADD DUP2 SWAP1 SSTORE POP PUSH2 0x382 PUSH2 0xC58 JUMP JUMPDEST PUSH20 0xFFFFFFFFFFFFFFFFFFFFFFFFFFFFFFFFFFFFFFFF AND DUP3 PUSH32 0xE7EE74CA1F4BB1B82B14F87794C45B3E59C39E372B862FB97A6316B43355B69E DUP4 PUSH1 0x0 ADD SLOAD PUSH1 0x40 MLOAD PUSH2 0x3CC SWAP2 SWAP1 PUSH2 0x10C2 JUMP JUMPDEST PUSH1 0x40 MLOAD DUP1 SWAP2 SUB SWAP1 LOG3 POP POP JUMP JUMPDEST PUSH2 0x3E0 PUSH2 0xC58 JUMP JUMPDEST PUSH1 0x2 PUSH1 0x0 DUP3 PUSH20 0xFFFFFFFFFFFFFFFFFFFFFFFFFFFFFFFFFFFFFFFF AND PUSH20 0xFFFFFFFFFFFFFFFFFFFFFFFFFFFFFFFFFFFFFFFF AND DUP2 MSTORE PUSH1 0x20 ADD SWAP1 DUP2 MSTORE PUSH1 0x20 ADD PUSH1 0x0 KECCAK256 PUSH1 0x1 ADD PUSH1 0x0 SWAP1 SLOAD SWAP1 PUSH2 0x100 EXP SWAP1 DIV PUSH1 0xFF AND ISZERO PUSH2 0x470 JUMPI PUSH1 0x40 MLOAD PUSH32 0x8C379A000000000000000000000000000000000000000000000000000000000 DUP2 MSTORE PUSH1 0x4 ADD PUSH2 0x467 SWAP1 PUSH2 0xFA7 JUMP JUMPDEST PUSH1 0x40 MLOAD DUP1 SWAP2 SUB SWAP1 REVERT JUMPDEST PUSH1 0x0 PUSH1 0x2 PUSH1 0x0 PUSH2 0x47E PUSH2 0xC58 JUMP JUMPDEST PUSH20 0xFFFFFFFFFFFFFFFFFFFFFFFFFFFFFFFFFFFFFFFF AND PUSH20 0xFFFFFFFFFFFFFFFFFFFFFFFFFFFFFFFFFFFFFFFF AND DUP2 MSTORE PUSH1 0x20 ADD SWAP1 DUP2 MSTORE PUSH1 0x20 ADD PUSH1 0x0 KECCAK256 PUSH1 0x0 ADD SLOAD GT PUSH2 0x4FC JUMPI PUSH1 0x40 MLOAD PUSH32 0x8C379A000000000000000000000000000000000000000000000000000000000 DUP2 MSTORE PUSH1 0x4 ADD PUSH2 0x4F3 SWAP1 PUSH2 0x1007 JUMP JUMPDEST PUSH1 0x40 MLOAD DUP1 SWAP2 SUB SWAP1 REVERT JUMPDEST PUSH1 0x0 PUSH1 0x2 PUSH1 0x0 PUSH2 0x50A PUSH2 0xC58 JUMP JUMPDEST PUSH20 0xFFFFFFFFFFFFFFFFFFFFFFFFFFFFFFFFFFFFFFFF AND PUSH20 0xFFFFFFFFFFFFFFFFFFFFFFFFFFFFFFFFFFFFFFFF AND DUP2 MSTORE PUSH1 0x20 ADD SWAP1 DUP2 MSTORE PUSH1 0x20 ADD PUSH1 0x0 KECCAK256 SWAP1 POP PUSH2 0x54E PUSH2 0xC58 JUMP JUMPDEST PUSH20 0xFFFFFFFFFFFFFFFFFFFFFFFFFFFFFFFFFFFFFFFF AND DUP4 PUSH20 0xFFFFFFFFFFFFFFFFFFFFFFFFFFFFFFFFFFFFFFFF AND EQ ISZERO PUSH2 0x5BC JUMPI PUSH1 0x40 MLOAD PUSH32 0x8C379A000000000000000000000000000000000000000000000000000000000 DUP2 MSTORE PUSH1 0x4 ADD PUSH2 0x5B3 SWAP1 PUSH2 0x1027 JUMP JUMPDEST PUSH1 0x40 MLOAD DUP1 SWAP2 SUB SWAP1 REVERT JUMPDEST JUMPDEST PUSH1 0x0 PUSH20 0xFFFFFFFFFFFFFFFFFFFFFFFFFFFFFFFFFFFFFFFF AND PUSH1 0x2 PUSH1 0x0 DUP6 PUSH20 0xFFFFFFFFFFFFFFFFFFFFFFFFFFFFFFFFFFFFFFFF AND PUSH20 0xFFFFFFFFFFFFFFFFFFFFFFFFFFFFFFFFFFFFFFFF AND DUP2 MSTORE PUSH1 0x20 ADD SWAP1 DUP2 MSTORE PUSH1 0x20 ADD PUSH1 0x0 KECCAK256 PUSH1 0x1 ADD PUSH1 0x1 SWAP1 SLOAD SWAP1 PUSH2 0x100 EXP SWAP1 DIV PUSH20 0xFFFFFFFFFFFFFFFFFFFFFFFFFFFFFFFFFFFFFFFF AND PUSH20 0xFFFFFFFFFFFFFFFFFFFFFFFFFFFFFFFFFFFFFFFF AND EQ PUSH2 0x733 JUMPI PUSH1 0x2 PUSH1 0x0 DUP5 PUSH20 0xFFFFFFFFFFFFFFFFFFFFFFFFFFFFFFFFFFFFFFFF AND PUSH20 0xFFFFFFFFFFFFFFFFFFFFFFFFFFFFFFFFFFFFFFFF AND DUP2 MSTORE PUSH1 0x20 ADD SWAP1 DUP2 MSTORE PUSH1 0x20 ADD PUSH1 0x0 KECCAK256 PUSH1 0x1 ADD PUSH1 0x1 SWAP1 SLOAD SWAP1 PUSH2 0x100 EXP SWAP1 DIV PUSH20 0xFFFFFFFFFFFFFFFFFFFFFFFFFFFFFFFFFFFFFFFF AND SWAP3 POP PUSH2 0x6C0 PUSH2 0xC58 JUMP JUMPDEST PUSH20 0xFFFFFFFFFFFFFFFFFFFFFFFFFFFFFFFFFFFFFFFF AND DUP4 PUSH20 0xFFFFFFFFFFFFFFFFFFFFFFFFFFFFFFFFFFFFFFFF AND EQ ISZERO PUSH2 0x72E JUMPI PUSH1 0x40 MLOAD PUSH32 0x8C379A000000000000000000000000000000000000000000000000000000000 DUP2 MSTORE PUSH1 0x4 ADD PUSH2 0x725 SWAP1 PUSH2 0x1087 JUMP JUMPDEST PUSH1 0x40 MLOAD DUP1 SWAP2 SUB SWAP1 REVERT JUMPDEST PUSH2 0x5BD JUMP JUMPDEST PUSH1 0x1 DUP2 PUSH1 0x1 ADD PUSH1 0x0 PUSH2 0x100 EXP DUP2 SLOAD DUP2 PUSH1 0xFF MUL NOT AND SWAP1 DUP4 ISZERO ISZERO MUL OR SWAP1 SSTORE POP DUP3 DUP2 PUSH1 0x1 ADD PUSH1 0x1 PUSH2 0x100 EXP DUP2 SLOAD DUP2 PUSH20 0xFFFFFFFFFFFFFFFFFFFFFFFFFFFFFFFFFFFFFFFF MUL NOT AND SWAP1 DUP4 PUSH20 0xFFFFFFFFFFFFFFFFFFFFFFFFFFFFFFFFFFFFFFFF AND MUL OR SWAP1 SSTORE POP PUSH1 0x0 PUSH1 0x2 PUSH1 0x0 DUP6 PUSH20 0xFFFFFFFFFFFFFFFFFFFFFFFFFFFFFFFFFFFFFFFF AND PUSH20 0xFFFFFFFFFFFFFFFFFFFFFFFFFFFFFFFFFFFFFFFF AND DUP2 MSTORE PUSH1 0x20 ADD SWAP1 DUP2 MSTORE PUSH1 0x20 ADD PUSH1 0x0 KECCAK256 SWAP1 POP DUP1 PUSH1 0x1 ADD PUSH1 0x0 SWAP1 SLOAD SWAP1 PUSH2 0x100 EXP SWAP1 DIV PUSH1 0xFF AND ISZERO PUSH2 0x85F JUMPI PUSH2 0x82D DUP3 PUSH1 0x0 ADD SLOAD PUSH1 0x3 DUP4 PUSH1 0x2 ADD SLOAD DUP2 SLOAD DUP2 LT PUSH2 0x80D JUMPI PUSH2 0x80C PUSH2 0x1252 JUMP JUMPDEST JUMPDEST SWAP1 PUSH1 0x0 MSTORE PUSH1 0x20 PUSH1 0x0 KECCAK256 SWAP1 PUSH1 0x2 MUL ADD PUSH1 0x1 ADD SLOAD PUSH2 0xC42 SWAP1 SWAP2 SWAP1 PUSH4 0xFFFFFFFF AND JUMP JUMPDEST PUSH1 0x3 DUP3 PUSH1 0x2 ADD SLOAD DUP2 SLOAD DUP2 LT PUSH2 0x845 JUMPI PUSH2 0x844 PUSH2 0x1252 JUMP JUMPDEST JUMPDEST SWAP1 PUSH1 0x0 MSTORE PUSH1 0x20 PUSH1 0x0 KECCAK256 SWAP1 PUSH1 0x2 MUL ADD PUSH1 0x1 ADD DUP2 SWAP1 SSTORE POP PUSH2 0x883 JUMP JUMPDEST PUSH2 0x87A DUP3 PUSH1 0x0 ADD SLOAD DUP3 PUSH1 0x0 ADD SLOAD PUSH2 0xC42 SWAP1 SWAP2 SWAP1 PUSH4 0xFFFFFFFF AND JUMP JUMPDEST DUP2 PUSH1 0x0 ADD DUP2 SWAP1 SSTORE POP JUMPDEST DUP4 PUSH20 0xFFFFFFFFFFFFFFFFFFFFFFFFFFFFFFFFFFFFFFFF AND PUSH2 0x8A2 PUSH2 0xC58 JUMP JUMPDEST PUSH20 0xFFFFFFFFFFFFFFFFFFFFFFFFFFFFFFFFFFFFFFFF AND PUSH32 0x4CE9EF2C99D761D69230B0E3381F4C6016333B2E27D32B3E379A96B5D2C69232 PUSH1 0x40 MLOAD PUSH1 0x40 MLOAD DUP1 SWAP2 SUB SWAP1 LOG3 POP POP POP POP JUMP JUMPDEST PUSH1 0x0 DUP1 PUSH1 0x0 SWAP1 POP PUSH1 0x0 JUMPDEST PUSH1 0x0 SLOAD DUP2 LT ISZERO PUSH2 0x972 JUMPI DUP2 PUSH1 0x3 DUP3 DUP2 SLOAD DUP2 LT PUSH2 0x913 JUMPI PUSH2 0x912 PUSH2 0x1252 JUMP JUMPDEST JUMPDEST SWAP1 PUSH1 0x0 MSTORE PUSH1 0x20 PUSH1 0x0 KECCAK256 SWAP1 PUSH1 0x2 MUL ADD PUSH1 0x1 ADD SLOAD GT ISZERO PUSH2 0x957 JUMPI PUSH1 0x3 DUP2 DUP2 SLOAD DUP2 LT PUSH2 0x93F JUMPI PUSH2 0x93E PUSH2 0x1252 JUMP JUMPDEST JUMPDEST SWAP1 PUSH1 0x0 MSTORE PUSH1 0x20 PUSH1 0x0 KECCAK256 SWAP1 PUSH1 0x2 MUL ADD PUSH1 0x1 ADD SLOAD SWAP2 POP DUP1 SWAP3 POP JUMPDEST PUSH2 0x96B PUSH1 0x1 DUP3 PUSH2 0xC42 SWAP1 SWAP2 SWAP1 PUSH4 0xFFFFFFFF AND JUMP JUMPDEST SWAP1 POP PUSH2 0x8F4 JUMP JUMPDEST POP POP SWAP1 JUMP JUMPDEST PUSH1 0x1 PUSH1 0x0 SWAP1 SLOAD SWAP1 PUSH2 0x100 EXP SWAP1 DIV PUSH20 0xFFFFFFFFFFFFFFFFFFFFFFFFFFFFFFFFFFFFFFFF AND PUSH20 0xFFFFFFFFFFFFFFFFFFFFFFFFFFFFFFFFFFFFFFFF AND PUSH2 0x9B8 PUSH2 0xC58 JUMP JUMPDEST PUSH20 0xFFFFFFFFFFFFFFFFFFFFFFFFFFFFFFFFFFFFFFFF AND EQ PUSH2 0xA0E JUMPI PUSH1 0x40 MLOAD PUSH32 0x8C379A000000000000000000000000000000000000000000000000000000000 DUP2 MSTORE PUSH1 0x4 ADD PUSH2 0xA05 SWAP1 PUSH2 0xFE7 JUMP JUMPDEST PUSH1 0x40 MLOAD DUP1 SWAP2 SUB SWAP1 REVERT JUMPDEST DUP1 PUSH1 0x2 PUSH1 0x0 DUP3 PUSH20 0xFFFFFFFFFFFFFFFFFFFFFFFFFFFFFFFFFFFFFFFF AND PUSH20 0xFFFFFFFFFFFFFFFFFFFFFFFFFFFFFFFFFFFFFFFF AND DUP2 MSTORE PUSH1 0x20 ADD SWAP1 DUP2 MSTORE PUSH1 0x20 ADD PUSH1 0x0 KECCAK256 PUSH1 0x1 ADD PUSH1 0x0 SWAP1 SLOAD SWAP1 PUSH2 0x100 EXP SWAP1 DIV PUSH1 0xFF AND ISZERO PUSH2 0xA9F JUMPI PUSH1 0x40 MLOAD PUSH32 0x8C379A000000000000000000000000000000000000000000000000000000000 DUP2 MSTORE PUSH1 0x4 ADD PUSH2 0xA96 SWAP1 PUSH2 0xFA7 JUMP JUMPDEST PUSH1 0x40 MLOAD DUP1 SWAP2 SUB SWAP1 REVERT JUMPDEST PUSH1 0x0 PUSH1 0x2 PUSH1 0x0 DUP5 PUSH20 0xFFFFFFFFFFFFFFFFFFFFFFFFFFFFFFFFFFFFFFFF AND PUSH20 0xFFFFFFFFFFFFFFFFFFFFFFFFFFFFFFFFFFFFFFFF AND DUP2 MSTORE PUSH1 0x20 ADD SWAP1 DUP2 MSTORE PUSH1 0x20 ADD PUSH1 0x0 KECCAK256 PUSH1 0x0 ADD SLOAD EQ PUSH2 0xB24 JUMPI PUSH1 0x40 MLOAD PUSH32 0x8C379A000000000000000000000000000000000000000000000000000000000 DUP2 MSTORE PUSH1 0x4 ADD PUSH2 0xB1B SWAP1 PUSH2 0x1047 JUMP JUMPDEST PUSH1 0x40 MLOAD DUP1 SWAP2 SUB SWAP1 REVERT JUMPDEST PUSH1 0x1 PUSH1 0x2 PUSH1 0x0 DUP5 PUSH20 0xFFFFFFFFFFFFFFFFFFFFFFFFFFFFFFFFFFFFFFFF AND PUSH20 0xFFFFFFFFFFFFFFFFFFFFFFFFFFFFFFFFFFFFFFFF AND DUP2 MSTORE PUSH1 0x20 ADD SWAP1 DUP2 MSTORE PUSH1 0x20 ADD PUSH1 0x0 KECCAK256 PUSH1 0x0 ADD DUP2 SWAP1 SSTORE POP POP POP JUMP JUMPDEST PUSH1 0x2 PUSH1 0x20 MSTORE DUP1 PUSH1 0x0 MSTORE PUSH1 0x40 PUSH1 0x0 KECCAK256 PUSH1 0x0 SWAP2 POP SWAP1 POP DUP1 PUSH1 0x0 ADD SLOAD SWAP1 DUP1 PUSH1 0x1 ADD PUSH1 0x0 SWAP1 SLOAD SWAP1 PUSH2 0x100 EXP SWAP1 DIV PUSH1 0xFF AND SWAP1 DUP1 PUSH1 0x1 ADD PUSH1 0x1 SWAP1 SLOAD SWAP1 PUSH2 0x100 EXP SWAP1 DIV PUSH20 0xFFFFFFFFFFFFFFFFFFFFFFFFFFFFFFFFFFFFFFFF AND SWAP1 DUP1 PUSH1 0x2 ADD SLOAD SWAP1 POP DUP5 JUMP JUMPDEST PUSH2 0xBD5 PUSH2 0xC89 JUMP JUMPDEST SWAP2 SWAP1 POP JUMP JUMPDEST PUSH1 0x1 PUSH1 0x0 SWAP1 SLOAD SWAP1 PUSH2 0x100 EXP SWAP1 DIV PUSH20 0xFFFFFFFFFFFFFFFFFFFFFFFFFFFFFFFFFFFFFFFF AND DUP2 JUMP JUMPDEST PUSH1 0x0 SLOAD DUP2 JUMP JUMPDEST PUSH1 0x60 PUSH2 0xC3D PUSH1 0x3 PUSH2 0xC15 PUSH2 0x8EA JUMP JUMPDEST DUP2 SLOAD DUP2 LT PUSH2 0xC26 JUMPI PUSH2 0xC25 PUSH2 0x1252 JUMP JUMPDEST JUMPDEST SWAP1 PUSH1 0x0 MSTORE PUSH1 0x20 PUSH1 0x0 KECCAK256 SWAP1 PUSH1 0x2 MUL ADD PUSH1 0x0 ADD SLOAD PUSH2 0xC60 JUMP JUMPDEST SWAP1 POP SWAP1 JUMP JUMPDEST PUSH1 0x0 DUP2 DUP4 PUSH2 0xC50 SWAP2 SWAP1 PUSH2 0x113E JUMP JUMPDEST SWAP1 POP SWAP3 SWAP2 POP POP JUMP JUMPDEST PUSH1 0x0 CALLER SWAP1 POP SWAP1 JUMP JUMPDEST PUSH1 0x60 DUP2 PUSH1 0x40 MLOAD PUSH1 0x20 ADD PUSH2 0xC73 SWAP2 SWAP1 PUSH2 0xF2F JUMP JUMPDEST PUSH1 0x40 MLOAD PUSH1 0x20 DUP2 DUP4 SUB SUB DUP2 MSTORE SWAP1 PUSH1 0x40 MSTORE SWAP1 POP SWAP2 SWAP1 POP JUMP JUMPDEST PUSH1 0x40 MLOAD DUP1 PUSH1 0x40 ADD PUSH1 0x40 MSTORE DUP1 PUSH1 0x0 DUP1 NOT AND DUP2 MSTORE PUSH1 0x20 ADD PUSH1 0x0 DUP2 MSTORE POP SWAP1 JUMP JUMPDEST PUSH1 0x0 DUP2 CALLDATALOAD SWAP1 POP PUSH2 0xCB5 DUP2 PUSH2 0x1538 JUMP JUMPDEST SWAP3 SWAP2 POP POP JUMP JUMPDEST PUSH1 0x0 DUP2 CALLDATALOAD SWAP1 POP PUSH2 0xCCA DUP2 PUSH2 0x154F JUMP JUMPDEST SWAP3 SWAP2 POP POP JUMP JUMPDEST PUSH1 0x0 PUSH1 0x20 DUP3 DUP5 SUB SLT ISZERO PUSH2 0xCE6 JUMPI PUSH2 0xCE5 PUSH2 0x1281 JUMP JUMPDEST JUMPDEST PUSH1 0x0 PUSH2 0xCF4 DUP5 DUP3 DUP6 ADD PUSH2 0xCA6 JUMP JUMPDEST SWAP2 POP POP SWAP3 SWAP2 POP POP JUMP JUMPDEST PUSH1 0x0 PUSH1 0x20 DUP3 DUP5 SUB SLT ISZERO PUSH2 0xD13 JUMPI PUSH2 0xD12 PUSH2 0x1281 JUMP JUMPDEST JUMPDEST PUSH1 0x0 PUSH2 0xD21 DUP5 DUP3 DUP6 ADD PUSH2 0xCBB JUMP JUMPDEST SWAP2 POP POP SWAP3 SWAP2 POP POP JUMP JUMPDEST PUSH2 0xD33 DUP2 PUSH2 0x1194 JUMP JUMPDEST DUP3 MSTORE POP POP JUMP JUMPDEST PUSH2 0xD42 DUP2 PUSH2 0x11A6 JUMP JUMPDEST DUP3 MSTORE POP POP JUMP JUMPDEST PUSH2 0xD51 DUP2 PUSH2 0x11B2 JUMP JUMPDEST DUP3 MSTORE POP POP JUMP JUMPDEST PUSH2 0xD68 PUSH2 0xD63 DUP3 PUSH2 0x11B2 JUMP JUMPDEST PUSH2 0x1219 JUMP JUMPDEST DUP3 MSTORE POP POP JUMP JUMPDEST PUSH1 0x0 PUSH2 0xD79 DUP3 PUSH2 0x1122 JUMP JUMPDEST PUSH2 0xD83 DUP2 DUP6 PUSH2 0x112D JUMP JUMPDEST SWAP4 POP PUSH2 0xD93 DUP2 DUP6 PUSH1 0x20 DUP7 ADD PUSH2 0x11E6 JUMP JUMPDEST PUSH2 0xD9C DUP2 PUSH2 0x1286 JUMP JUMPDEST DUP5 ADD SWAP2 POP POP SWAP3 SWAP2 POP POP JUMP JUMPDEST PUSH1 0x0 PUSH2 0xDB4 PUSH1 0x29 DUP4 PUSH2 0x112D JUMP JUMPDEST SWAP2 POP PUSH2 0xDBF DUP3 PUSH2 0x1297 JUMP JUMPDEST PUSH1 0x40 DUP3 ADD SWAP1 POP SWAP2 SWAP1 POP JUMP JUMPDEST PUSH1 0x0 PUSH2 0xDD7 PUSH1 0x2A DUP4 PUSH2 0x112D JUMP JUMPDEST SWAP2 POP PUSH2 0xDE2 DUP3 PUSH2 0x12E6 JUMP JUMPDEST PUSH1 0x40 DUP3 ADD SWAP1 POP SWAP2 SWAP1 POP JUMP JUMPDEST PUSH1 0x0 PUSH2 0xDFA PUSH1 0xE DUP4 PUSH2 0x112D JUMP JUMPDEST SWAP2 POP PUSH2 0xE05 DUP3 PUSH2 0x1335 JUMP JUMPDEST PUSH1 0x20 DUP3 ADD SWAP1 POP SWAP2 SWAP1 POP JUMP JUMPDEST PUSH1 0x0 PUSH2 0xE1D PUSH1 0x36 DUP4 PUSH2 0x112D JUMP JUMPDEST SWAP2 POP PUSH2 0xE28 DUP3 PUSH2 0x135E JUMP JUMPDEST PUSH1 0x40 DUP3 ADD SWAP1 POP SWAP2 SWAP1 POP JUMP JUMPDEST PUSH1 0x0 PUSH2 0xE40 PUSH1 0x31 DUP4 PUSH2 0x112D JUMP JUMPDEST SWAP2 POP PUSH2 0xE4B DUP3 PUSH2 0x13AD JUMP JUMPDEST PUSH1 0x40 DUP3 ADD SWAP1 POP SWAP2 SWAP1 POP JUMP JUMPDEST PUSH1 0x0 PUSH2 0xE63 PUSH1 0x2D DUP4 PUSH2 0x112D JUMP JUMPDEST SWAP2 POP PUSH2 0xE6E DUP3 PUSH2 0x13FC JUMP JUMPDEST PUSH1 0x40 DUP3 ADD SWAP1 POP SWAP2 SWAP1 POP JUMP JUMPDEST PUSH1 0x0 PUSH2 0xE86 PUSH1 0x30 DUP4 PUSH2 0x112D JUMP JUMPDEST SWAP2 POP PUSH2 0xE91 DUP3 PUSH2 0x144B JUMP JUMPDEST PUSH1 0x40 DUP3 ADD SWAP1 POP SWAP2 SWAP1 POP JUMP JUMPDEST PUSH1 0x0 PUSH2 0xEA9 PUSH1 0x2B DUP4 PUSH2 0x112D JUMP JUMPDEST SWAP2 POP PUSH2 0xEB4 DUP3 PUSH2 0x149A JUMP JUMPDEST PUSH1 0x40 DUP3 ADD SWAP1 POP SWAP2 SWAP1 POP JUMP JUMPDEST PUSH1 0x0 PUSH2 0xECC PUSH1 0x2F DUP4 PUSH2 0x112D JUMP JUMPDEST SWAP2 POP PUSH2 0xED7 DUP3 PUSH2 0x14E9 JUMP JUMPDEST PUSH1 0x40 DUP3 ADD SWAP1 POP SWAP2 SWAP1 POP JUMP JUMPDEST PUSH1 0x40 DUP3 ADD PUSH1 0x0 DUP3 ADD MLOAD PUSH2 0xEF8 PUSH1 0x0 DUP6 ADD DUP3 PUSH2 0xD48 JUMP JUMPDEST POP PUSH1 0x20 DUP3 ADD MLOAD PUSH2 0xF0B PUSH1 0x20 DUP6 ADD DUP3 PUSH2 0xF11 JUMP JUMPDEST POP POP POP POP JUMP JUMPDEST PUSH2 0xF1A DUP2 PUSH2 0x11DC JUMP JUMPDEST DUP3 MSTORE POP POP JUMP JUMPDEST PUSH2 0xF29 DUP2 PUSH2 0x11DC JUMP JUMPDEST DUP3 MSTORE POP POP JUMP JUMPDEST PUSH1 0x0 PUSH2 0xF3B DUP3 DUP5 PUSH2 0xD57 JUMP JUMPDEST PUSH1 0x20 DUP3 ADD SWAP2 POP DUP2 SWAP1 POP SWAP3 SWAP2 POP POP JUMP JUMPDEST PUSH1 0x0 PUSH1 0x20 DUP3 ADD SWAP1 POP PUSH2 0xF5F PUSH1 0x0 DUP4 ADD DUP5 PUSH2 0xD2A JUMP JUMPDEST SWAP3 SWAP2 POP POP JUMP JUMPDEST PUSH1 0x0 PUSH1 0x20 DUP3 ADD SWAP1 POP DUP2 DUP2 SUB PUSH1 0x0 DUP4 ADD MSTORE PUSH2 0xF7F DUP2 DUP5 PUSH2 0xD6E JUMP JUMPDEST SWAP1 POP SWAP3 SWAP2 POP POP JUMP JUMPDEST PUSH1 0x0 PUSH1 0x20 DUP3 ADD SWAP1 POP DUP2 DUP2 SUB PUSH1 0x0 DUP4 ADD MSTORE PUSH2 0xFA0 DUP2 PUSH2 0xDA7 JUMP JUMPDEST SWAP1 POP SWAP2 SWAP1 POP JUMP JUMPDEST PUSH1 0x0 PUSH1 0x20 DUP3 ADD SWAP1 POP DUP2 DUP2 SUB PUSH1 0x0 DUP4 ADD MSTORE PUSH2 0xFC0 DUP2 PUSH2 0xDCA JUMP JUMPDEST SWAP1 POP SWAP2 SWAP1 POP JUMP JUMPDEST PUSH1 0x0 PUSH1 0x20 DUP3 ADD SWAP1 POP DUP2 DUP2 SUB PUSH1 0x0 DUP4 ADD MSTORE PUSH2 0xFE0 DUP2 PUSH2 0xDED JUMP JUMPDEST SWAP1 POP SWAP2 SWAP1 POP JUMP JUMPDEST PUSH1 0x0 PUSH1 0x20 DUP3 ADD SWAP1 POP DUP2 DUP2 SUB PUSH1 0x0 DUP4 ADD MSTORE PUSH2 0x1000 DUP2 PUSH2 0xE10 JUMP JUMPDEST SWAP1 POP SWAP2 SWAP1 POP JUMP JUMPDEST PUSH1 0x0 PUSH1 0x20 DUP3 ADD SWAP1 POP DUP2 DUP2 SUB PUSH1 0x0 DUP4 ADD MSTORE PUSH2 0x1020 DUP2 PUSH2 0xE33 JUMP JUMPDEST SWAP1 POP SWAP2 SWAP1 POP JUMP JUMPDEST PUSH1 0x0 PUSH1 0x20 DUP3 ADD SWAP1 POP DUP2 DUP2 SUB PUSH1 0x0 DUP4 ADD MSTORE PUSH2 0x1040 DUP2 PUSH2 0xE56 JUMP JUMPDEST SWAP1 POP SWAP2 SWAP1 POP JUMP JUMPDEST PUSH1 0x0 PUSH1 0x20 DUP3 ADD SWAP1 POP DUP2 DUP2 SUB PUSH1 0x0 DUP4 ADD MSTORE PUSH2 0x1060 DUP2 PUSH2 0xE79 JUMP JUMPDEST SWAP1 POP SWAP2 SWAP1 POP JUMP JUMPDEST PUSH1 0x0 PUSH1 0x20 DUP3 ADD SWAP1 POP DUP2 DUP2 SUB PUSH1 0x0 DUP4 ADD MSTORE PUSH2 0x1080 DUP2 PUSH2 0xE9C JUMP JUMPDEST SWAP1 POP SWAP2 SWAP1 POP JUMP JUMPDEST PUSH1 0x0 PUSH1 0x20 DUP3 ADD SWAP1 POP DUP2 DUP2 SUB PUSH1 0x0 DUP4 ADD MSTORE PUSH2 0x10A0 DUP2 PUSH2 0xEBF JUMP JUMPDEST SWAP1 POP SWAP2 SWAP1 POP JUMP JUMPDEST PUSH1 0x0 PUSH1 0x40 DUP3 ADD SWAP1 POP PUSH2 0x10BC PUSH1 0x0 DUP4 ADD DUP5 PUSH2 0xEE2 JUMP JUMPDEST SWAP3 SWAP2 POP POP JUMP JUMPDEST PUSH1 0x0 PUSH1 0x20 DUP3 ADD SWAP1 POP PUSH2 0x10D7 PUSH1 0x0 DUP4 ADD DUP5 PUSH2 0xF20 JUMP JUMPDEST SWAP3 SWAP2 POP POP JUMP JUMPDEST PUSH1 0x0 PUSH1 0x80 DUP3 ADD SWAP1 POP PUSH2 0x10F2 PUSH1 0x0 DUP4 ADD DUP8 PUSH2 0xF20 JUMP JUMPDEST PUSH2 0x10FF PUSH1 0x20 DUP4 ADD DUP7 PUSH2 0xD39 JUMP JUMPDEST PUSH2 0x110C PUSH1 0x40 DUP4 ADD DUP6 PUSH2 0xD2A JUMP JUMPDEST PUSH2 0x1119 PUSH1 0x60 DUP4 ADD DUP5 PUSH2 0xF20 JUMP JUMPDEST SWAP6 SWAP5 POP POP POP POP POP JUMP JUMPDEST PUSH1 0x0 DUP2 MLOAD SWAP1 POP SWAP2 SWAP1 POP JUMP JUMPDEST PUSH1 0x0 DUP3 DUP3 MSTORE PUSH1 0x20 DUP3 ADD SWAP1 POP SWAP3 SWAP2 POP POP JUMP JUMPDEST PUSH1 0x0 PUSH2 0x1149 DUP3 PUSH2 0x11DC JUMP JUMPDEST SWAP2 POP PUSH2 0x1154 DUP4 PUSH2 0x11DC JUMP JUMPDEST SWAP3 POP DUP3 PUSH32 0xFFFFFFFFFFFFFFFFFFFFFFFFFFFFFFFFFFFFFFFFFFFFFFFFFFFFFFFFFFFFFFFF SUB DUP3 GT ISZERO PUSH2 0x1189 JUMPI PUSH2 0x1188 PUSH2 0x1223 JUMP JUMPDEST JUMPDEST DUP3 DUP3 ADD SWAP1 POP SWAP3 SWAP2 POP POP JUMP JUMPDEST PUSH1 0x0 PUSH2 0x119F DUP3 PUSH2 0x11BC JUMP JUMPDEST SWAP1 POP SWAP2 SWAP1 POP JUMP JUMPDEST PUSH1 0x0 DUP2 ISZERO ISZERO SWAP1 POP SWAP2 SWAP1 POP JUMP JUMPDEST PUSH1 0x0 DUP2 SWAP1 POP SWAP2 SWAP1 POP JUMP JUMPDEST PUSH1 0x0 PUSH20 0xFFFFFFFFFFFFFFFFFFFFFFFFFFFFFFFFFFFFFFFF DUP3 AND SWAP1 POP SWAP2 SWAP1 POP JUMP JUMPDEST PUSH1 0x0 DUP2 SWAP1 POP SWAP2 SWAP1 POP JUMP JUMPDEST PUSH1 0x0 JUMPDEST DUP4 DUP2 LT ISZERO PUSH2 0x1204 JUMPI DUP1 DUP3 ADD MLOAD DUP2 DUP5 ADD MSTORE PUSH1 0x20 DUP2 ADD SWAP1 POP PUSH2 0x11E9 JUMP JUMPDEST DUP4 DUP2 GT ISZERO PUSH2 0x1213 JUMPI PUSH1 0x0 DUP5 DUP5 ADD MSTORE JUMPDEST POP POP POP POP JUMP JUMPDEST PUSH1 0x0 DUP2 SWAP1 POP SWAP2 SWAP1 POP JUMP JUMPDEST PUSH32 0x4E487B7100000000000000000000000000000000000000000000000000000000 PUSH1 0x0 MSTORE PUSH1 0x11 PUSH1 0x4 MSTORE PUSH1 0x24 PUSH1 0x0 REVERT JUMPDEST PUSH32 0x4E487B7100000000000000000000000000000000000000000000000000000000 PUSH1 0x0 MSTORE PUSH1 0x32 PUSH1 0x4 MSTORE PUSH1 0x24 PUSH1 0x0 REVERT JUMPDEST PUSH1 0x0 DUP1 REVERT JUMPDEST PUSH1 0x0 PUSH1 0x1F NOT PUSH1 0x1F DUP4 ADD AND SWAP1 POP SWAP2 SWAP1 POP JUMP JUMPDEST PUSH32 0x53696D706C65566F74696E673A2043616C6C657220686173206E6F2072696768 PUSH1 0x0 DUP3 ADD MSTORE PUSH32 0x7420746F20766F74650000000000000000000000000000000000000000000000 PUSH1 0x20 DUP3 ADD MSTORE POP JUMP JUMPDEST PUSH32 0x53696D706C65566F74696E673A2054686520766F7465722068617320616C7265 PUSH1 0x0 DUP3 ADD MSTORE PUSH32 0x61647920766F7465642E00000000000000000000000000000000000000000000 PUSH1 0x20 DUP3 ADD MSTORE POP JUMP JUMPDEST PUSH32 0x416C726561647920766F7465642E000000000000000000000000000000000000 PUSH1 0x0 DUP3 ADD MSTORE POP JUMP JUMPDEST PUSH32 0x53696D706C65566F74696E673A204F6E6C79206368616972506572736F6E2063 PUSH1 0x0 DUP3 ADD MSTORE PUSH32 0x616E206769766520726967687420746F20766F74652E00000000000000000000 PUSH1 0x20 DUP3 ADD MSTORE POP JUMP JUMPDEST PUSH32 0x53696D706C65566F74696E673A2043616C6C657220646F6573206E6F74206861 PUSH1 0x0 DUP3 ADD MSTORE PUSH32 0x766520726967687420746F20766F74652E000000000000000000000000000000 PUSH1 0x20 DUP3 ADD MSTORE POP JUMP JUMPDEST PUSH32 0x53696D706C65566F74696E673A2053656C662D64656C65676174696F6E206973 PUSH1 0x0 DUP3 ADD MSTORE PUSH32 0x206E6F7420616C6C6F7765642E00000000000000000000000000000000000000 PUSH1 0x20 DUP3 ADD MSTORE POP JUMP JUMPDEST PUSH32 0x53696D706C65566F74696E673A204164647265737320616C7265616479206861 PUSH1 0x0 DUP3 ADD MSTORE PUSH32 0x7320726967687420746F20766F74652E00000000000000000000000000000000 PUSH1 0x20 DUP3 ADD MSTORE POP JUMP JUMPDEST PUSH32 0x53696D706C65566F74696E673A2050726F706F73616C20696E646578206F7574 PUSH1 0x0 DUP3 ADD MSTORE PUSH32 0x206F6620626F756E64732E000000000000000000000000000000000000000000 PUSH1 0x20 DUP3 ADD MSTORE POP JUMP JUMPDEST PUSH32 0x53696D706C65566F74696E673A2044656C65676174696F6E2074726163657320 PUSH1 0x0 DUP3 ADD MSTORE PUSH32 0x6261636B20746F2063616C6C65722E0000000000000000000000000000000000 PUSH1 0x20 DUP3 ADD MSTORE POP JUMP JUMPDEST PUSH2 0x1541 DUP2 PUSH2 0x1194 JUMP JUMPDEST DUP2 EQ PUSH2 0x154C JUMPI PUSH1 0x0 DUP1 REVERT JUMPDEST POP JUMP JUMPDEST PUSH2 0x1558 DUP2 PUSH2 0x11DC JUMP JUMPDEST DUP2 EQ PUSH2 0x1563 JUMPI PUSH1 0x0 DUP1 REVERT JUMPDEST POP JUMP INVALID LOG2 PUSH5 0x6970667358 0x22 SLT KECCAK256 0xC NOT SWAP8 0xD4 SLT SWAP9 SGT PUSH15 0x74003F6876E6E4BF5BE780B28AE3FB 0xEE 0xAD MSTORE LOG3 SWAP2 0xC6 SWAP10 0xEC 0xE1 PUSH5 0x736F6C6343 STOP ADDMOD SMOD STOP CALLER "
				},
				"gasEstimates": {
					"creation": {
						"codeDepositCost": "1106400",
						"executionCost": "infinite",
						"totalCost": "infinite"
					},
					"external": {
						"chairPerson()": "2558",
						"delegate(address)": "infinite",
						"getProposal(uint256)": "infinite",
						"giveRightToVote(address)": "29413",
						"proposalCount()": "2495",
						"vote(uint256)": "infinite",
						"voters(address)": "infinite",
						"winnerName()": "infinite",
						"winningProposal()": "infinite"
					},
					"internal": {
						"bytes32ToString(bytes32)": "infinite",
						"stringToBytes32(string memory)": "infinite"
					}
				},
				"methodIdentifiers": {
					"chairPerson()": "d4d4b5ac",
					"delegate(address)": "5c19a95c",
					"getProposal(uint256)": "c7f758a8",
					"giveRightToVote(address)": "9e7b8d61",
					"proposalCount()": "da35c664",
					"vote(uint256)": "0121b93f",
					"voters(address)": "a3ec138d",
					"winnerName()": "e2ba53f0",
					"winningProposal()": "609ff1bd"
				}
			},
			"storageLayout": {
				"storage": [
					{
						"astId": 25,
						"contract": "contracts/SimpleVoting.sol:SimpleVoting",
						"label": "proposalCount",
						"offset": 0,
						"slot": "0",
						"type": "t_uint256"
					},
					{
						"astId": 27,
						"contract": "contracts/SimpleVoting.sol:SimpleVoting",
						"label": "chairPerson",
						"offset": 0,
						"slot": "1",
						"type": "t_address"
					},
					{
						"astId": 32,
						"contract": "contracts/SimpleVoting.sol:SimpleVoting",
						"label": "voters",
						"offset": 0,
						"slot": "2",
						"type": "t_mapping(t_address,t_struct(Voter)18_storage)"
					},
					{
						"astId": 36,
						"contract": "contracts/SimpleVoting.sol:SimpleVoting",
						"label": "proposals",
						"offset": 0,
						"slot": "3",
						"type": "t_array(t_struct(Proposal)23_storage)dyn_storage"
					}
				],
				"types": {
					"t_address": {
						"encoding": "inplace",
						"label": "address",
						"numberOfBytes": "20"
					},
					"t_array(t_struct(Proposal)23_storage)dyn_storage": {
						"base": "t_struct(Proposal)23_storage",
						"encoding": "dynamic_array",
						"label": "struct SimpleVoting.Proposal[]",
						"numberOfBytes": "32"
					},
					"t_bool": {
						"encoding": "inplace",
						"label": "bool",
						"numberOfBytes": "1"
					},
					"t_bytes32": {
						"encoding": "inplace",
						"label": "bytes32",
						"numberOfBytes": "32"
					},
					"t_mapping(t_address,t_struct(Voter)18_storage)": {
						"encoding": "mapping",
						"key": "t_address",
						"label": "mapping(address => struct SimpleVoting.Voter)",
						"numberOfBytes": "32",
						"value": "t_struct(Voter)18_storage"
					},
					"t_struct(Proposal)23_storage": {
						"encoding": "inplace",
						"label": "struct SimpleVoting.Proposal",
						"members": [
							{
								"astId": 20,
								"contract": "contracts/SimpleVoting.sol:SimpleVoting",
								"label": "name",
								"offset": 0,
								"slot": "0",
								"type": "t_bytes32"
							},
							{
								"astId": 22,
								"contract": "contracts/SimpleVoting.sol:SimpleVoting",
								"label": "voteCount",
								"offset": 0,
								"slot": "1",
								"type": "t_uint256"
							}
						],
						"numberOfBytes": "64"
					},
					"t_struct(Voter)18_storage": {
						"encoding": "inplace",
						"label": "struct SimpleVoting.Voter",
						"members": [
							{
								"astId": 11,
								"contract": "contracts/SimpleVoting.sol:SimpleVoting",
								"label": "weight",
								"offset": 0,
								"slot": "0",
								"type": "t_uint256"
							},
							{
								"astId": 13,
								"contract": "contracts/SimpleVoting.sol:SimpleVoting",
								"label": "voted",
								"offset": 0,
								"slot": "1",
								"type": "t_bool"
							},
							{
								"astId": 15,
								"contract": "contracts/SimpleVoting.sol:SimpleVoting",
								"label": "delegate",
								"offset": 1,
								"slot": "1",
								"type": "t_address"
							},
							{
								"astId": 17,
								"contract": "contracts/SimpleVoting.sol:SimpleVoting",
								"label": "vote",
								"offset": 0,
								"slot": "2",
								"type": "t_uint256"
							}
						],
						"numberOfBytes": "96"
					},
					"t_uint256": {
						"encoding": "inplace",
						"label": "uint256",
						"numberOfBytes": "32"
					}
				}
			},
			"userdoc": {
				"kind": "user",
				"methods": {},
				"version": 1
			}
		}
	}
}