{
	"contracts/SimpleVoting.sol": {
		"SimpleVoting": {
			"abi": [
				{
					"inputs": [
						{
							"internalType": "string[]",
							"name": "proposalNames",
							"type": "string[]"
						}
					],
					"stateMutability": "nonpayable",
					"type": "constructor"
				},
				{
					"anonymous": false,
					"inputs": [
						{
							"indexed": true,
							"internalType": "address",
							"name": "_from",
							"type": "address"
						},
						{
							"indexed": true,
							"internalType": "address",
							"name": "_to",
							"type": "address"
						}
					],
					"name": "DelegationSuccessful",
					"type": "event"
				},
				{
					"anonymous": false,
					"inputs": [
						{
							"indexed": true,
							"internalType": "uint256",
							"name": "_proposal",
							"type": "uint256"
						},
						{
							"indexed": true,
							"internalType": "address",
							"name": "_voter",
							"type": "address"
						},
						{
							"indexed": false,
							"internalType": "uint256",
							"name": "_votesAdded",
							"type": "uint256"
						}
					],
					"name": "VoteCasted",
					"type": "event"
				},
				{
					"anonymous": false,
					"inputs": [
						{
							"indexed": false,
							"internalType": "address",
							"name": "_chairPerson",
							"type": "address"
						},
						{
							"indexed": false,
							"internalType": "uint256",
							"name": "_proposalCount",
							"type": "uint256"
						}
					],
					"name": "VotingStarted",
					"type": "event"
				},
				{
					"inputs": [],
					"name": "chairPerson",
					"outputs": [
						{
							"internalType": "address",
							"name": "",
							"type": "address"
						}
					],
					"stateMutability": "view",
					"type": "function"
				},
				{
					"inputs": [],
					"name": "computeWinningProposals",
					"outputs": [],
					"stateMutability": "nonpayable",
					"type": "function"
				},
				{
					"inputs": [
						{
							"internalType": "address",
							"name": "_to",
							"type": "address"
						}
					],
					"name": "delegate",
					"outputs": [],
					"stateMutability": "nonpayable",
					"type": "function"
				},
				{
					"inputs": [
						{
							"internalType": "uint256",
							"name": "_proposalIndex",
							"type": "uint256"
						}
					],
					"name": "getProposal",
					"outputs": [
						{
							"internalType": "string",
							"name": "proposalName_",
							"type": "string"
						},
						{
							"internalType": "uint256",
							"name": "voteCount_",
							"type": "uint256"
						}
					],
					"stateMutability": "view",
					"type": "function"
				},
				{
					"inputs": [],
					"name": "getWinningProposals",
					"outputs": [
						{
							"internalType": "uint256[]",
							"name": "",
							"type": "uint256[]"
						}
					],
					"stateMutability": "view",
					"type": "function"
				},
				{
					"inputs": [
						{
							"internalType": "address",
							"name": "_voter",
							"type": "address"
						}
					],
					"name": "giveRightToVote",
					"outputs": [],
					"stateMutability": "nonpayable",
					"type": "function"
				},
				{
					"inputs": [],
					"name": "proposalCount",
					"outputs": [
						{
							"internalType": "uint256",
							"name": "",
							"type": "uint256"
						}
					],
					"stateMutability": "view",
					"type": "function"
				},
				{
					"inputs": [
						{
							"internalType": "uint256",
							"name": "proposal",
							"type": "uint256"
						}
					],
					"name": "vote",
					"outputs": [],
					"stateMutability": "nonpayable",
					"type": "function"
				},
				{
					"inputs": [
						{
							"internalType": "address",
							"name": "",
							"type": "address"
						}
					],
					"name": "voters",
					"outputs": [
						{
							"internalType": "uint256",
							"name": "weight",
							"type": "uint256"
						},
						{
							"internalType": "bool",
							"name": "voted",
							"type": "bool"
						},
						{
							"internalType": "address",
							"name": "delegate",
							"type": "address"
						},
						{
							"internalType": "uint256",
							"name": "vote",
							"type": "uint256"
						}
					],
					"stateMutability": "view",
					"type": "function"
				},
				{
					"inputs": [],
					"name": "winnerNames",
					"outputs": [
						{
							"internalType": "string",
							"name": "winnerNames_",
							"type": "string"
						}
					],
					"stateMutability": "view",
					"type": "function"
				}
			],
			"devdoc": {
				"details": "Implements voting process along with vote delegation",
				"kind": "dev",
				"methods": {
					"computeWinningProposals()": {
						"details": "Computes the winning proposal taking all previous votes into account."
					},
					"constructor": {
						"details": "Create a new ballot to choose one of 'proposalNames'.",
						"params": {
							"proposalNames": "array of names (string) of proposals"
						}
					},
					"delegate(address)": {
						"details": "Delegate your vote to the voter 'to'.",
						"params": {
							"_to": "address to which vote is delegated"
						}
					},
					"getProposal(uint256)": {
						"details": "Returns the name(string) and vote count proposal present at the passed proposal index.",
						"params": {
							"_proposalIndex": "index of the desired proposal in the 'proposals' array."
						},
						"returns": {
							"proposalName_": "",
							"voteCount_": " "
						}
					},
					"giveRightToVote(address)": {
						"details": "Give 'voter' the right to vote on this ballot. May only be called by 'chairPerson'.",
						"params": {
							"_voter": "address of voter"
						}
					},
					"vote(uint256)": {
						"details": "Give your vote (including votes delegated to you) to proposal 'proposals[proposal].name'.",
						"params": {
							"proposal": "index of proposal in the proposals array"
						}
					},
					"winnerNames()": {
						"details": "Calls winningProposal() function to get the index of the winner contained in the proposals array and then",
						"returns": {
							"winnerNames_": "the name of the winner"
						}
					}
				},
				"title": "Ballot",
				"version": 1
			},
			"evm": {
				"assembly": "    /* \"contracts/SimpleVoting.sol\":372:9464  contract SimpleVoting is Context {... */\n  mstore(0x40, 0x80)\n    /* \"contracts/SimpleVoting.sol\":3500:4080  constructor(string[] memory proposalNames) {... */\n  callvalue\n  dup1\n  iszero\n  tag_1\n  jumpi\n  0x00\n  dup1\n  revert\ntag_1:\n  pop\n  mload(0x40)\n  sub(codesize, bytecodeSize)\n  dup1\n  bytecodeSize\n  dup4\n  codecopy\n  dup2\n  dup2\n  add\n  0x40\n  mstore\n  dup2\n  add\n  swap1\n  tag_2\n  swap2\n  swap1\n  tag_3\n  jump\t// in\ntag_2:\n    /* \"contracts/SimpleVoting.sol\":3568:3580  _msgSender() */\n  tag_6\n    /* \"contracts/SimpleVoting.sol\":3568:3578  _msgSender */\n  shl(0x20, tag_7)\n    /* \"contracts/SimpleVoting.sol\":3568:3580  _msgSender() */\n  0x20\n  shr\n  jump\t// in\ntag_6:\n    /* \"contracts/SimpleVoting.sol\":3554:3565  chairPerson */\n  0x01\n  0x00\n    /* \"contracts/SimpleVoting.sol\":3554:3580  chairPerson = _msgSender() */\n  0x0100\n  exp\n  dup2\n  sload\n  dup2\n  0xffffffffffffffffffffffffffffffffffffffff\n  mul\n  not\n  and\n  swap1\n  dup4\n  0xffffffffffffffffffffffffffffffffffffffff\n  and\n  mul\n  or\n  swap1\n  sstore\n  pop\n    /* \"contracts/SimpleVoting.sol\":3620:3621  1 */\n  0x01\n    /* \"contracts/SimpleVoting.sol\":3591:3597  voters */\n  0x02\n    /* \"contracts/SimpleVoting.sol\":3591:3610  voters[chairPerson] */\n  0x00\n    /* \"contracts/SimpleVoting.sol\":3598:3609  chairPerson */\n  0x01\n  0x00\n  swap1\n  sload\n  swap1\n  0x0100\n  exp\n  swap1\n  div\n  0xffffffffffffffffffffffffffffffffffffffff\n  and\n    /* \"contracts/SimpleVoting.sol\":3591:3610  voters[chairPerson] */\n  0xffffffffffffffffffffffffffffffffffffffff\n  and\n  0xffffffffffffffffffffffffffffffffffffffff\n  and\n  dup2\n  mstore\n  0x20\n  add\n  swap1\n  dup2\n  mstore\n  0x20\n  add\n  0x00\n  keccak256\n    /* \"contracts/SimpleVoting.sol\":3591:3617  voters[chairPerson].weight */\n  0x00\n  add\n    /* \"contracts/SimpleVoting.sol\":3591:3621  voters[chairPerson].weight = 1 */\n  dup2\n  swap1\n  sstore\n  pop\n    /* \"contracts/SimpleVoting.sol\":3648:3661  proposalNames */\n  dup1\n    /* \"contracts/SimpleVoting.sol\":3648:3668  proposalNames.length */\n  mload\n    /* \"contracts/SimpleVoting.sol\":3632:3645  proposalCount */\n  0x00\n    /* \"contracts/SimpleVoting.sol\":3632:3668  proposalCount = proposalNames.length */\n  dup2\n  swap1\n  sstore\n  pop\n    /* \"contracts/SimpleVoting.sol\":3684:3690  uint i */\n  0x00\n    /* \"contracts/SimpleVoting.sol\":3679:3993  for (uint i = 0; i < proposalCount; i = i. add(1)) {... */\ntag_8:\n    /* \"contracts/SimpleVoting.sol\":3700:3713  proposalCount */\n  sload(0x00)\n    /* \"contracts/SimpleVoting.sol\":3696:3697  i */\n  dup2\n    /* \"contracts/SimpleVoting.sol\":3696:3713  i < proposalCount */\n  lt\n    /* \"contracts/SimpleVoting.sol\":3679:3993  for (uint i = 0; i < proposalCount; i = i. add(1)) {... */\n  iszero\n  tag_9\n  jumpi\n    /* \"contracts/SimpleVoting.sol\":3868:3892  Proposal memory proposal */\n  0x00\n    /* \"contracts/SimpleVoting.sol\":3895:3942  Proposal (stringToBytes32(proposalNames[i]), 0) */\n  mload(0x40)\n  dup1\n  0x40\n  add\n  0x40\n  mstore\n  dup1\n    /* \"contracts/SimpleVoting.sol\":3905:3938  stringToBytes32(proposalNames[i]) */\n  tag_11\n    /* \"contracts/SimpleVoting.sol\":3921:3934  proposalNames */\n  dup6\n    /* \"contracts/SimpleVoting.sol\":3935:3936  i */\n  dup6\n    /* \"contracts/SimpleVoting.sol\":3921:3937  proposalNames[i] */\n  dup2\n  mload\n  dup2\n  lt\n  tag_12\n  jumpi\n  tag_13\n  tag_14\n  jump\t// in\ntag_13:\ntag_12:\n  0x20\n  mul\n  0x20\n  add\n  add\n  mload\n    /* \"contracts/SimpleVoting.sol\":3905:3920  stringToBytes32 */\n  shl(0x20, tag_15)\n    /* \"contracts/SimpleVoting.sol\":3905:3938  stringToBytes32(proposalNames[i]) */\n  0x20\n  shr\n  jump\t// in\ntag_11:\n    /* \"contracts/SimpleVoting.sol\":3895:3942  Proposal (stringToBytes32(proposalNames[i]), 0) */\n  dup2\n  mstore\n  0x20\n  add\n    /* \"contracts/SimpleVoting.sol\":3940:3941  0 */\n  0x00\n    /* \"contracts/SimpleVoting.sol\":3895:3942  Proposal (stringToBytes32(proposalNames[i]), 0) */\n  dup2\n  mstore\n  pop\n    /* \"contracts/SimpleVoting.sol\":3868:3942  Proposal memory proposal = Proposal (stringToBytes32(proposalNames[i]), 0) */\n  swap1\n  pop\n    /* \"contracts/SimpleVoting.sol\":3957:3966  proposals */\n  0x03\n    /* \"contracts/SimpleVoting.sol\":3972:3980  proposal */\n  dup2\n    /* \"contracts/SimpleVoting.sol\":3957:3981  proposals.push(proposal) */\n  swap1\n  dup1\n  0x01\n  dup2\n  sload\n  add\n  dup1\n  dup3\n  sstore\n  dup1\n  swap2\n  pop\n  pop\n  0x01\n  swap1\n  sub\n  swap1\n  0x00\n  mstore\n  keccak256(0x00, 0x20)\n  swap1\n  0x02\n  mul\n  add\n  0x00\n  swap1\n  swap2\n  swap1\n  swap2\n  swap1\n  swap2\n  pop\n  0x00\n  dup3\n  add\n  mload\n  dup2\n  0x00\n  add\n  sstore\n  0x20\n  dup3\n  add\n  mload\n  dup2\n  0x01\n  add\n  sstore\n  pop\n  pop\n    /* \"contracts/SimpleVoting.sol\":3730:3993  {... */\n  pop\n    /* \"contracts/SimpleVoting.sol\":3719:3728  i. add(1) */\n  tag_17\n    /* \"contracts/SimpleVoting.sol\":3726:3727  1 */\n  0x01\n    /* \"contracts/SimpleVoting.sol\":3719:3720  i */\n  dup3\n    /* \"contracts/SimpleVoting.sol\":3719:3725  i. add */\n  or(tag_0_53, shl(0x20, tag_18))\n  swap1\n    /* \"contracts/SimpleVoting.sol\":3719:3728  i. add(1) */\n  swap2\n  swap1\n  0x20\n  shr\n  jump\t// in\ntag_17:\n    /* \"contracts/SimpleVoting.sol\":3715:3728  i = i. add(1) */\n  swap1\n  pop\n    /* \"contracts/SimpleVoting.sol\":3679:3993  for (uint i = 0; i < proposalCount; i = i. add(1)) {... */\n  jump(tag_8)\ntag_9:\n  pop\n    /* \"contracts/SimpleVoting.sol\":4008:4050  VotingStarted (chairPerson, proposalCount) */\n  0xf318b16025413645144ed83c64d2d30f089c10bc263cab68a036c00f011827be\n    /* \"contracts/SimpleVoting.sol\":4023:4034  chairPerson */\n  0x01\n  0x00\n  swap1\n  sload\n  swap1\n  0x0100\n  exp\n  swap1\n  div\n  0xffffffffffffffffffffffffffffffffffffffff\n  and\n    /* \"contracts/SimpleVoting.sol\":4036:4049  proposalCount */\n  sload(0x00)\n    /* \"contracts/SimpleVoting.sol\":4008:4050  VotingStarted (chairPerson, proposalCount) */\n  mload(0x40)\n  tag_19\n  swap3\n  swap2\n  swap1\n  tag_20\n  jump\t// in\ntag_19:\n  mload(0x40)\n  dup1\n  swap2\n  sub\n  swap1\n  log1\n    /* \"contracts/SimpleVoting.sol\":3500:4080  constructor(string[] memory proposalNames) {... */\n  pop\n    /* \"contracts/SimpleVoting.sol\":372:9464  contract SimpleVoting is Context {... */\n  jump(tag_21)\n    /* \"https://github.com/OpenZeppelin/openzeppelin-contracts/blob/master/contracts/utils/Context.sol\":640:736  function _msgSender() internal view virtual returns (address) {... */\ntag_7:\n    /* \"https://github.com/OpenZeppelin/openzeppelin-contracts/blob/master/contracts/utils/Context.sol\":693:700  address */\n  0x00\n    /* \"https://github.com/OpenZeppelin/openzeppelin-contracts/blob/master/contracts/utils/Context.sol\":719:729  msg.sender */\n  caller\n    /* \"https://github.com/OpenZeppelin/openzeppelin-contracts/blob/master/contracts/utils/Context.sol\":712:729  return msg.sender */\n  swap1\n  pop\n    /* \"https://github.com/OpenZeppelin/openzeppelin-contracts/blob/master/contracts/utils/Context.sol\":640:736  function _msgSender() internal view virtual returns (address) {... */\n  swap1\n  jump\t// out\n    /* \"contracts/SimpleVoting.sol\":9147:9303  function stringToBytes32 (string memory str) ... */\ntag_15:\n    /* \"contracts/SimpleVoting.sol\":9232:9239  bytes32 */\n  0x00\n    /* \"contracts/SimpleVoting.sol\":9290:9293  str */\n  dup2\n    /* \"contracts/SimpleVoting.sol\":9273:9294  abi.encodePacked(str) */\n  add(0x20, mload(0x40))\n  tag_24\n  swap2\n  swap1\n  tag_25\n  jump\t// in\ntag_24:\n  mload(0x40)\n  0x20\n  dup2\n  dup4\n  sub\n  sub\n  dup2\n  mstore\n  swap1\n  0x40\n  mstore\n    /* \"contracts/SimpleVoting.sol\":9265:9295  bytes32(abi.encodePacked(str)) */\n  tag_26\n  swap1\n  tag_27\n  jump\t// in\ntag_26:\n    /* \"contracts/SimpleVoting.sol\":9258:9295  return bytes32(abi.encodePacked(str)) */\n  swap1\n  pop\n    /* \"contracts/SimpleVoting.sol\":9147:9303  function stringToBytes32 (string memory str) ... */\n  swap2\n  swap1\n  pop\n  jump\t// out\n    /* \"https://github.com/OpenZeppelin/openzeppelin-contracts/blob/master/contracts/utils/math/SafeMath.sol\":2755:2851  function add(uint256 a, uint256 b) internal pure returns (uint256) {... */\ntag_18:\n    /* \"https://github.com/OpenZeppelin/openzeppelin-contracts/blob/master/contracts/utils/math/SafeMath.sol\":2813:2820  uint256 */\n  0x00\n    /* \"https://github.com/OpenZeppelin/openzeppelin-contracts/blob/master/contracts/utils/math/SafeMath.sol\":2843:2844  b */\n  dup2\n    /* \"https://github.com/OpenZeppelin/openzeppelin-contracts/blob/master/contracts/utils/math/SafeMath.sol\":2839:2840  a */\n  dup4\n    /* \"https://github.com/OpenZeppelin/openzeppelin-contracts/blob/master/contracts/utils/math/SafeMath.sol\":2839:2844  a + b */\n  tag_29\n  swap2\n  swap1\n  tag_30\n  jump\t// in\ntag_29:\n    /* \"https://github.com/OpenZeppelin/openzeppelin-contracts/blob/master/contracts/utils/math/SafeMath.sol\":2832:2844  return a + b */\n  swap1\n  pop\n    /* \"https://github.com/OpenZeppelin/openzeppelin-contracts/blob/master/contracts/utils/math/SafeMath.sol\":2755:2851  function add(uint256 a, uint256 b) internal pure returns (uint256) {... */\n  swap3\n  swap2\n  pop\n  pop\n  jump\t// out\n    /* \"#utility.yul\":7:82   */\ntag_31:\n    /* \"#utility.yul\":40:46   */\n  0x00\n    /* \"#utility.yul\":73:75   */\n  0x40\n    /* \"#utility.yul\":67:76   */\n  mload\n    /* \"#utility.yul\":57:76   */\n  swap1\n  pop\n    /* \"#utility.yul\":7:82   */\n  swap1\n  jump\t// out\n    /* \"#utility.yul\":88:205   */\ntag_32:\n    /* \"#utility.yul\":197:198   */\n  0x00\n    /* \"#utility.yul\":194:195   */\n  dup1\n    /* \"#utility.yul\":187:199   */\n  revert\n    /* \"#utility.yul\":211:328   */\ntag_33:\n    /* \"#utility.yul\":320:321   */\n  0x00\n    /* \"#utility.yul\":317:318   */\n  dup1\n    /* \"#utility.yul\":310:322   */\n  revert\n    /* \"#utility.yul\":334:451   */\ntag_34:\n    /* \"#utility.yul\":443:444   */\n  0x00\n    /* \"#utility.yul\":440:441   */\n  dup1\n    /* \"#utility.yul\":433:445   */\n  revert\n    /* \"#utility.yul\":457:559   */\ntag_35:\n    /* \"#utility.yul\":498:504   */\n  0x00\n    /* \"#utility.yul\":549:551   */\n  0x1f\n    /* \"#utility.yul\":545:552   */\n  not\n    /* \"#utility.yul\":540:542   */\n  0x1f\n    /* \"#utility.yul\":533:538   */\n  dup4\n    /* \"#utility.yul\":529:543   */\n  add\n    /* \"#utility.yul\":525:553   */\n  and\n    /* \"#utility.yul\":515:553   */\n  swap1\n  pop\n    /* \"#utility.yul\":457:559   */\n  swap2\n  swap1\n  pop\n  jump\t// out\n    /* \"#utility.yul\":565:745   */\ntag_36:\n    /* \"#utility.yul\":613:690   */\n  0x4e487b7100000000000000000000000000000000000000000000000000000000\n    /* \"#utility.yul\":610:611   */\n  0x00\n    /* \"#utility.yul\":603:691   */\n  mstore\n    /* \"#utility.yul\":710:714   */\n  0x41\n    /* \"#utility.yul\":707:708   */\n  0x04\n    /* \"#utility.yul\":700:715   */\n  mstore\n    /* \"#utility.yul\":734:738   */\n  0x24\n    /* \"#utility.yul\":731:732   */\n  0x00\n    /* \"#utility.yul\":724:739   */\n  revert\n    /* \"#utility.yul\":751:1032   */\ntag_37:\n    /* \"#utility.yul\":834:861   */\n  tag_70\n    /* \"#utility.yul\":856:860   */\n  dup3\n    /* \"#utility.yul\":834:861   */\n  tag_35\n  jump\t// in\ntag_70:\n    /* \"#utility.yul\":826:832   */\n  dup2\n    /* \"#utility.yul\":822:862   */\n  add\n    /* \"#utility.yul\":964:970   */\n  dup2\n    /* \"#utility.yul\":952:962   */\n  dup2\n    /* \"#utility.yul\":949:971   */\n  lt\n    /* \"#utility.yul\":928:946   */\n  0xffffffffffffffff\n    /* \"#utility.yul\":916:926   */\n  dup3\n    /* \"#utility.yul\":913:947   */\n  gt\n    /* \"#utility.yul\":910:972   */\n  or\n    /* \"#utility.yul\":907:995   */\n  iszero\n  tag_71\n  jumpi\n    /* \"#utility.yul\":975:993   */\n  tag_72\n  tag_36\n  jump\t// in\ntag_72:\n    /* \"#utility.yul\":907:995   */\ntag_71:\n    /* \"#utility.yul\":1015:1025   */\n  dup1\n    /* \"#utility.yul\":1011:1013   */\n  0x40\n    /* \"#utility.yul\":1004:1026   */\n  mstore\n    /* \"#utility.yul\":794:1032   */\n  pop\n    /* \"#utility.yul\":751:1032   */\n  pop\n  pop\n  jump\t// out\n    /* \"#utility.yul\":1038:1167   */\ntag_38:\n    /* \"#utility.yul\":1072:1078   */\n  0x00\n    /* \"#utility.yul\":1099:1119   */\n  tag_74\n  tag_31\n  jump\t// in\ntag_74:\n    /* \"#utility.yul\":1089:1119   */\n  swap1\n  pop\n    /* \"#utility.yul\":1128:1161   */\n  tag_75\n    /* \"#utility.yul\":1156:1160   */\n  dup3\n    /* \"#utility.yul\":1148:1154   */\n  dup3\n    /* \"#utility.yul\":1128:1161   */\n  tag_37\n  jump\t// in\ntag_75:\n    /* \"#utility.yul\":1038:1167   */\n  swap2\n  swap1\n  pop\n  jump\t// out\n    /* \"#utility.yul\":1173:1494   */\ntag_39:\n    /* \"#utility.yul\":1260:1264   */\n  0x00\n    /* \"#utility.yul\":1350:1368   */\n  0xffffffffffffffff\n    /* \"#utility.yul\":1342:1348   */\n  dup3\n    /* \"#utility.yul\":1339:1369   */\n  gt\n    /* \"#utility.yul\":1336:1392   */\n  iszero\n  tag_77\n  jumpi\n    /* \"#utility.yul\":1372:1390   */\n  tag_78\n  tag_36\n  jump\t// in\ntag_78:\n    /* \"#utility.yul\":1336:1392   */\ntag_77:\n    /* \"#utility.yul\":1422:1426   */\n  0x20\n    /* \"#utility.yul\":1414:1420   */\n  dup3\n    /* \"#utility.yul\":1410:1427   */\n  mul\n    /* \"#utility.yul\":1402:1427   */\n  swap1\n  pop\n    /* \"#utility.yul\":1482:1486   */\n  0x20\n    /* \"#utility.yul\":1476:1480   */\n  dup2\n    /* \"#utility.yul\":1472:1487   */\n  add\n    /* \"#utility.yul\":1464:1487   */\n  swap1\n  pop\n    /* \"#utility.yul\":1173:1494   */\n  swap2\n  swap1\n  pop\n  jump\t// out\n    /* \"#utility.yul\":1500:1617   */\ntag_40:\n    /* \"#utility.yul\":1609:1610   */\n  0x00\n    /* \"#utility.yul\":1606:1607   */\n  dup1\n    /* \"#utility.yul\":1599:1611   */\n  revert\n    /* \"#utility.yul\":1623:1740   */\ntag_41:\n    /* \"#utility.yul\":1732:1733   */\n  0x00\n    /* \"#utility.yul\":1729:1730   */\n  dup1\n    /* \"#utility.yul\":1722:1734   */\n  revert\n    /* \"#utility.yul\":1746:2054   */\ntag_42:\n    /* \"#utility.yul\":1808:1812   */\n  0x00\n    /* \"#utility.yul\":1898:1916   */\n  0xffffffffffffffff\n    /* \"#utility.yul\":1890:1896   */\n  dup3\n    /* \"#utility.yul\":1887:1917   */\n  gt\n    /* \"#utility.yul\":1884:1940   */\n  iszero\n  tag_82\n  jumpi\n    /* \"#utility.yul\":1920:1938   */\n  tag_83\n  tag_36\n  jump\t// in\ntag_83:\n    /* \"#utility.yul\":1884:1940   */\ntag_82:\n    /* \"#utility.yul\":1958:1987   */\n  tag_84\n    /* \"#utility.yul\":1980:1986   */\n  dup3\n    /* \"#utility.yul\":1958:1987   */\n  tag_35\n  jump\t// in\ntag_84:\n    /* \"#utility.yul\":1950:1987   */\n  swap1\n  pop\n    /* \"#utility.yul\":2042:2046   */\n  0x20\n    /* \"#utility.yul\":2036:2040   */\n  dup2\n    /* \"#utility.yul\":2032:2047   */\n  add\n    /* \"#utility.yul\":2024:2047   */\n  swap1\n  pop\n    /* \"#utility.yul\":1746:2054   */\n  swap2\n  swap1\n  pop\n  jump\t// out\n    /* \"#utility.yul\":2060:2367   */\ntag_43:\n    /* \"#utility.yul\":2128:2129   */\n  0x00\n    /* \"#utility.yul\":2138:2251   */\ntag_86:\n    /* \"#utility.yul\":2152:2158   */\n  dup4\n    /* \"#utility.yul\":2149:2150   */\n  dup2\n    /* \"#utility.yul\":2146:2159   */\n  lt\n    /* \"#utility.yul\":2138:2251   */\n  iszero\n  tag_88\n  jumpi\n    /* \"#utility.yul\":2237:2238   */\n  dup1\n    /* \"#utility.yul\":2232:2235   */\n  dup3\n    /* \"#utility.yul\":2228:2239   */\n  add\n    /* \"#utility.yul\":2222:2240   */\n  mload\n    /* \"#utility.yul\":2218:2219   */\n  dup2\n    /* \"#utility.yul\":2213:2216   */\n  dup5\n    /* \"#utility.yul\":2209:2220   */\n  add\n    /* \"#utility.yul\":2202:2241   */\n  mstore\n    /* \"#utility.yul\":2174:2176   */\n  0x20\n    /* \"#utility.yul\":2171:2172   */\n  dup2\n    /* \"#utility.yul\":2167:2177   */\n  add\n    /* \"#utility.yul\":2162:2177   */\n  swap1\n  pop\n    /* \"#utility.yul\":2138:2251   */\n  jump(tag_86)\ntag_88:\n    /* \"#utility.yul\":2269:2275   */\n  dup4\n    /* \"#utility.yul\":2266:2267   */\n  dup2\n    /* \"#utility.yul\":2263:2276   */\n  gt\n    /* \"#utility.yul\":2260:2361   */\n  iszero\n  tag_89\n  jumpi\n    /* \"#utility.yul\":2349:2350   */\n  0x00\n    /* \"#utility.yul\":2340:2346   */\n  dup5\n    /* \"#utility.yul\":2335:2338   */\n  dup5\n    /* \"#utility.yul\":2331:2347   */\n  add\n    /* \"#utility.yul\":2324:2351   */\n  mstore\n    /* \"#utility.yul\":2260:2361   */\ntag_89:\n    /* \"#utility.yul\":2109:2367   */\n  pop\n    /* \"#utility.yul\":2060:2367   */\n  pop\n  pop\n  pop\n  jump\t// out\n    /* \"#utility.yul\":2373:2794   */\ntag_44:\n    /* \"#utility.yul\":2462:2467   */\n  0x00\n    /* \"#utility.yul\":2487:2553   */\n  tag_91\n    /* \"#utility.yul\":2503:2552   */\n  tag_92\n    /* \"#utility.yul\":2545:2551   */\n  dup5\n    /* \"#utility.yul\":2503:2552   */\n  tag_42\n  jump\t// in\ntag_92:\n    /* \"#utility.yul\":2487:2553   */\n  tag_38\n  jump\t// in\ntag_91:\n    /* \"#utility.yul\":2478:2553   */\n  swap1\n  pop\n    /* \"#utility.yul\":2576:2582   */\n  dup3\n    /* \"#utility.yul\":2569:2574   */\n  dup2\n    /* \"#utility.yul\":2562:2583   */\n  mstore\n    /* \"#utility.yul\":2614:2618   */\n  0x20\n    /* \"#utility.yul\":2607:2612   */\n  dup2\n    /* \"#utility.yul\":2603:2619   */\n  add\n    /* \"#utility.yul\":2652:2655   */\n  dup5\n    /* \"#utility.yul\":2643:2649   */\n  dup5\n    /* \"#utility.yul\":2638:2641   */\n  dup5\n    /* \"#utility.yul\":2634:2650   */\n  add\n    /* \"#utility.yul\":2631:2656   */\n  gt\n    /* \"#utility.yul\":2628:2740   */\n  iszero\n  tag_93\n  jumpi\n    /* \"#utility.yul\":2659:2738   */\n  tag_94\n  tag_41\n  jump\t// in\ntag_94:\n    /* \"#utility.yul\":2628:2740   */\ntag_93:\n    /* \"#utility.yul\":2749:2788   */\n  tag_95\n    /* \"#utility.yul\":2781:2787   */\n  dup5\n    /* \"#utility.yul\":2776:2779   */\n  dup3\n    /* \"#utility.yul\":2771:2774   */\n  dup6\n    /* \"#utility.yul\":2749:2788   */\n  tag_43\n  jump\t// in\ntag_95:\n    /* \"#utility.yul\":2468:2794   */\n  pop\n    /* \"#utility.yul\":2373:2794   */\n  swap4\n  swap3\n  pop\n  pop\n  pop\n  jump\t// out\n    /* \"#utility.yul\":2814:3169   */\ntag_45:\n    /* \"#utility.yul\":2881:2886   */\n  0x00\n    /* \"#utility.yul\":2930:2933   */\n  dup3\n    /* \"#utility.yul\":2923:2927   */\n  0x1f\n    /* \"#utility.yul\":2915:2921   */\n  dup4\n    /* \"#utility.yul\":2911:2928   */\n  add\n    /* \"#utility.yul\":2907:2934   */\n  slt\n    /* \"#utility.yul\":2897:3019   */\n  tag_97\n  jumpi\n    /* \"#utility.yul\":2938:3017   */\n  tag_98\n  tag_34\n  jump\t// in\ntag_98:\n    /* \"#utility.yul\":2897:3019   */\ntag_97:\n    /* \"#utility.yul\":3048:3054   */\n  dup2\n    /* \"#utility.yul\":3042:3055   */\n  mload\n    /* \"#utility.yul\":3073:3163   */\n  tag_99\n    /* \"#utility.yul\":3159:3162   */\n  dup5\n    /* \"#utility.yul\":3151:3157   */\n  dup3\n    /* \"#utility.yul\":3144:3148   */\n  0x20\n    /* \"#utility.yul\":3136:3142   */\n  dup7\n    /* \"#utility.yul\":3132:3149   */\n  add\n    /* \"#utility.yul\":3073:3163   */\n  tag_44\n  jump\t// in\ntag_99:\n    /* \"#utility.yul\":3064:3163   */\n  swap2\n  pop\n    /* \"#utility.yul\":2887:3169   */\n  pop\n    /* \"#utility.yul\":2814:3169   */\n  swap3\n  swap2\n  pop\n  pop\n  jump\t// out\n    /* \"#utility.yul\":3191:4151   */\ntag_46:\n    /* \"#utility.yul\":3308:3313   */\n  0x00\n    /* \"#utility.yul\":3333:3424   */\n  tag_101\n    /* \"#utility.yul\":3349:3423   */\n  tag_102\n    /* \"#utility.yul\":3416:3422   */\n  dup5\n    /* \"#utility.yul\":3349:3423   */\n  tag_39\n  jump\t// in\ntag_102:\n    /* \"#utility.yul\":3333:3424   */\n  tag_38\n  jump\t// in\ntag_101:\n    /* \"#utility.yul\":3324:3424   */\n  swap1\n  pop\n    /* \"#utility.yul\":3444:3449   */\n  dup1\n    /* \"#utility.yul\":3473:3479   */\n  dup4\n    /* \"#utility.yul\":3466:3471   */\n  dup3\n    /* \"#utility.yul\":3459:3480   */\n  mstore\n    /* \"#utility.yul\":3507:3511   */\n  0x20\n    /* \"#utility.yul\":3500:3505   */\n  dup3\n    /* \"#utility.yul\":3496:3512   */\n  add\n    /* \"#utility.yul\":3489:3512   */\n  swap1\n  pop\n    /* \"#utility.yul\":3560:3564   */\n  0x20\n    /* \"#utility.yul\":3552:3558   */\n  dup5\n    /* \"#utility.yul\":3548:3565   */\n  mul\n    /* \"#utility.yul\":3540:3546   */\n  dup4\n    /* \"#utility.yul\":3536:3566   */\n  add\n    /* \"#utility.yul\":3589:3592   */\n  dup6\n    /* \"#utility.yul\":3581:3587   */\n  dup2\n    /* \"#utility.yul\":3578:3593   */\n  gt\n    /* \"#utility.yul\":3575:3697   */\n  iszero\n  tag_103\n  jumpi\n    /* \"#utility.yul\":3608:3687   */\n  tag_104\n  tag_40\n  jump\t// in\ntag_104:\n    /* \"#utility.yul\":3575:3697   */\ntag_103:\n    /* \"#utility.yul\":3723:3729   */\n  dup4\n    /* \"#utility.yul\":3706:4145   */\ntag_105:\n    /* \"#utility.yul\":3740:3746   */\n  dup2\n    /* \"#utility.yul\":3735:3738   */\n  dup2\n    /* \"#utility.yul\":3732:3747   */\n  lt\n    /* \"#utility.yul\":3706:4145   */\n  iszero\n  tag_107\n  jumpi\n    /* \"#utility.yul\":3822:3825   */\n  dup1\n    /* \"#utility.yul\":3816:3826   */\n  mload\n    /* \"#utility.yul\":3858:3876   */\n  0xffffffffffffffff\n    /* \"#utility.yul\":3845:3856   */\n  dup2\n    /* \"#utility.yul\":3842:3877   */\n  gt\n    /* \"#utility.yul\":3839:3961   */\n  iszero\n  tag_108\n  jumpi\n    /* \"#utility.yul\":3880:3959   */\n  tag_109\n  tag_34\n  jump\t// in\ntag_109:\n    /* \"#utility.yul\":3839:3961   */\ntag_108:\n    /* \"#utility.yul\":4004:4015   */\n  dup1\n    /* \"#utility.yul\":3996:4002   */\n  dup7\n    /* \"#utility.yul\":3992:4016   */\n  add\n    /* \"#utility.yul\":4042:4100   */\n  tag_110\n    /* \"#utility.yul\":4096:4099   */\n  dup10\n    /* \"#utility.yul\":4084:4094   */\n  dup3\n    /* \"#utility.yul\":4042:4100   */\n  tag_45\n  jump\t// in\ntag_110:\n    /* \"#utility.yul\":4037:4040   */\n  dup6\n    /* \"#utility.yul\":4030:4101   */\n  mstore\n    /* \"#utility.yul\":4130:4134   */\n  0x20\n    /* \"#utility.yul\":4125:4128   */\n  dup6\n    /* \"#utility.yul\":4121:4135   */\n  add\n    /* \"#utility.yul\":4114:4135   */\n  swap5\n  pop\n    /* \"#utility.yul\":3782:4145   */\n  pop\n  pop\n    /* \"#utility.yul\":3766:3770   */\n  0x20\n    /* \"#utility.yul\":3761:3764   */\n  dup2\n    /* \"#utility.yul\":3757:3771   */\n  add\n    /* \"#utility.yul\":3750:3771   */\n  swap1\n  pop\n    /* \"#utility.yul\":3706:4145   */\n  jump(tag_105)\ntag_107:\n    /* \"#utility.yul\":3710:3731   */\n  pop\n    /* \"#utility.yul\":3314:4151   */\n  pop\n  pop\n    /* \"#utility.yul\":3191:4151   */\n  swap4\n  swap3\n  pop\n  pop\n  pop\n  jump\t// out\n    /* \"#utility.yul\":4173:4578   */\ntag_47:\n    /* \"#utility.yul\":4265:4270   */\n  0x00\n    /* \"#utility.yul\":4314:4317   */\n  dup3\n    /* \"#utility.yul\":4307:4311   */\n  0x1f\n    /* \"#utility.yul\":4299:4305   */\n  dup4\n    /* \"#utility.yul\":4295:4312   */\n  add\n    /* \"#utility.yul\":4291:4318   */\n  slt\n    /* \"#utility.yul\":4281:4403   */\n  tag_112\n  jumpi\n    /* \"#utility.yul\":4322:4401   */\n  tag_113\n  tag_34\n  jump\t// in\ntag_113:\n    /* \"#utility.yul\":4281:4403   */\ntag_112:\n    /* \"#utility.yul\":4432:4438   */\n  dup2\n    /* \"#utility.yul\":4426:4439   */\n  mload\n    /* \"#utility.yul\":4457:4572   */\n  tag_114\n    /* \"#utility.yul\":4568:4571   */\n  dup5\n    /* \"#utility.yul\":4560:4566   */\n  dup3\n    /* \"#utility.yul\":4553:4557   */\n  0x20\n    /* \"#utility.yul\":4545:4551   */\n  dup7\n    /* \"#utility.yul\":4541:4558   */\n  add\n    /* \"#utility.yul\":4457:4572   */\n  tag_46\n  jump\t// in\ntag_114:\n    /* \"#utility.yul\":4448:4572   */\n  swap2\n  pop\n    /* \"#utility.yul\":4271:4578   */\n  pop\n    /* \"#utility.yul\":4173:4578   */\n  swap3\n  swap2\n  pop\n  pop\n  jump\t// out\n    /* \"#utility.yul\":4584:5158   */\ntag_3:\n    /* \"#utility.yul\":4689:4695   */\n  0x00\n    /* \"#utility.yul\":4738:4740   */\n  0x20\n    /* \"#utility.yul\":4726:4735   */\n  dup3\n    /* \"#utility.yul\":4717:4724   */\n  dup5\n    /* \"#utility.yul\":4713:4736   */\n  sub\n    /* \"#utility.yul\":4709:4741   */\n  slt\n    /* \"#utility.yul\":4706:4825   */\n  iszero\n  tag_116\n  jumpi\n    /* \"#utility.yul\":4744:4823   */\n  tag_117\n  tag_32\n  jump\t// in\ntag_117:\n    /* \"#utility.yul\":4706:4825   */\ntag_116:\n    /* \"#utility.yul\":4885:4886   */\n  0x00\n    /* \"#utility.yul\":4874:4883   */\n  dup3\n    /* \"#utility.yul\":4870:4887   */\n  add\n    /* \"#utility.yul\":4864:4888   */\n  mload\n    /* \"#utility.yul\":4915:4933   */\n  0xffffffffffffffff\n    /* \"#utility.yul\":4907:4913   */\n  dup2\n    /* \"#utility.yul\":4904:4934   */\n  gt\n    /* \"#utility.yul\":4901:5018   */\n  iszero\n  tag_118\n  jumpi\n    /* \"#utility.yul\":4937:5016   */\n  tag_119\n  tag_33\n  jump\t// in\ntag_119:\n    /* \"#utility.yul\":4901:5018   */\ntag_118:\n    /* \"#utility.yul\":5042:5141   */\n  tag_120\n    /* \"#utility.yul\":5133:5140   */\n  dup5\n    /* \"#utility.yul\":5124:5130   */\n  dup3\n    /* \"#utility.yul\":5113:5122   */\n  dup6\n    /* \"#utility.yul\":5109:5131   */\n  add\n    /* \"#utility.yul\":5042:5141   */\n  tag_47\n  jump\t// in\ntag_120:\n    /* \"#utility.yul\":5032:5141   */\n  swap2\n  pop\n    /* \"#utility.yul\":4835:5151   */\n  pop\n    /* \"#utility.yul\":4584:5158   */\n  swap3\n  swap2\n  pop\n  pop\n  jump\t// out\n    /* \"#utility.yul\":5164:5344   */\ntag_14:\n    /* \"#utility.yul\":5212:5289   */\n  0x4e487b7100000000000000000000000000000000000000000000000000000000\n    /* \"#utility.yul\":5209:5210   */\n  0x00\n    /* \"#utility.yul\":5202:5290   */\n  mstore\n    /* \"#utility.yul\":5309:5313   */\n  0x32\n    /* \"#utility.yul\":5306:5307   */\n  0x04\n    /* \"#utility.yul\":5299:5314   */\n  mstore\n    /* \"#utility.yul\":5333:5337   */\n  0x24\n    /* \"#utility.yul\":5330:5331   */\n  0x00\n    /* \"#utility.yul\":5323:5338   */\n  revert\n    /* \"#utility.yul\":5350:5476   */\ntag_48:\n    /* \"#utility.yul\":5387:5394   */\n  0x00\n    /* \"#utility.yul\":5427:5469   */\n  0xffffffffffffffffffffffffffffffffffffffff\n    /* \"#utility.yul\":5420:5425   */\n  dup3\n    /* \"#utility.yul\":5416:5470   */\n  and\n    /* \"#utility.yul\":5405:5470   */\n  swap1\n  pop\n    /* \"#utility.yul\":5350:5476   */\n  swap2\n  swap1\n  pop\n  jump\t// out\n    /* \"#utility.yul\":5482:5578   */\ntag_49:\n    /* \"#utility.yul\":5519:5526   */\n  0x00\n    /* \"#utility.yul\":5548:5572   */\n  tag_124\n    /* \"#utility.yul\":5566:5571   */\n  dup3\n    /* \"#utility.yul\":5548:5572   */\n  tag_48\n  jump\t// in\ntag_124:\n    /* \"#utility.yul\":5537:5572   */\n  swap1\n  pop\n    /* \"#utility.yul\":5482:5578   */\n  swap2\n  swap1\n  pop\n  jump\t// out\n    /* \"#utility.yul\":5584:5702   */\ntag_50:\n    /* \"#utility.yul\":5671:5695   */\n  tag_126\n    /* \"#utility.yul\":5689:5694   */\n  dup2\n    /* \"#utility.yul\":5671:5695   */\n  tag_49\n  jump\t// in\ntag_126:\n    /* \"#utility.yul\":5666:5669   */\n  dup3\n    /* \"#utility.yul\":5659:5696   */\n  mstore\n    /* \"#utility.yul\":5584:5702   */\n  pop\n  pop\n  jump\t// out\n    /* \"#utility.yul\":5708:5785   */\ntag_51:\n    /* \"#utility.yul\":5745:5752   */\n  0x00\n    /* \"#utility.yul\":5774:5779   */\n  dup2\n    /* \"#utility.yul\":5763:5779   */\n  swap1\n  pop\n    /* \"#utility.yul\":5708:5785   */\n  swap2\n  swap1\n  pop\n  jump\t// out\n    /* \"#utility.yul\":5791:5909   */\ntag_52:\n    /* \"#utility.yul\":5878:5902   */\n  tag_129\n    /* \"#utility.yul\":5896:5901   */\n  dup2\n    /* \"#utility.yul\":5878:5902   */\n  tag_51\n  jump\t// in\ntag_129:\n    /* \"#utility.yul\":5873:5876   */\n  dup3\n    /* \"#utility.yul\":5866:5903   */\n  mstore\n    /* \"#utility.yul\":5791:5909   */\n  pop\n  pop\n  jump\t// out\n    /* \"#utility.yul\":5915:6247   */\ntag_20:\n    /* \"#utility.yul\":6036:6040   */\n  0x00\n    /* \"#utility.yul\":6074:6076   */\n  0x40\n    /* \"#utility.yul\":6063:6072   */\n  dup3\n    /* \"#utility.yul\":6059:6077   */\n  add\n    /* \"#utility.yul\":6051:6077   */\n  swap1\n  pop\n    /* \"#utility.yul\":6087:6158   */\n  tag_131\n    /* \"#utility.yul\":6155:6156   */\n  0x00\n    /* \"#utility.yul\":6144:6153   */\n  dup4\n    /* \"#utility.yul\":6140:6157   */\n  add\n    /* \"#utility.yul\":6131:6137   */\n  dup6\n    /* \"#utility.yul\":6087:6158   */\n  tag_50\n  jump\t// in\ntag_131:\n    /* \"#utility.yul\":6168:6240   */\n  tag_132\n    /* \"#utility.yul\":6236:6238   */\n  0x20\n    /* \"#utility.yul\":6225:6234   */\n  dup4\n    /* \"#utility.yul\":6221:6239   */\n  add\n    /* \"#utility.yul\":6212:6218   */\n  dup5\n    /* \"#utility.yul\":6168:6240   */\n  tag_52\n  jump\t// in\ntag_132:\n    /* \"#utility.yul\":5915:6247   */\n  swap4\n  swap3\n  pop\n  pop\n  pop\n  jump\t// out\n    /* \"#utility.yul\":6253:6352   */\ntag_53:\n    /* \"#utility.yul\":6305:6311   */\n  0x00\n    /* \"#utility.yul\":6339:6344   */\n  dup2\n    /* \"#utility.yul\":6333:6345   */\n  mload\n    /* \"#utility.yul\":6323:6345   */\n  swap1\n  pop\n    /* \"#utility.yul\":6253:6352   */\n  swap2\n  swap1\n  pop\n  jump\t// out\n    /* \"#utility.yul\":6358:6506   */\ntag_54:\n    /* \"#utility.yul\":6460:6471   */\n  0x00\n    /* \"#utility.yul\":6497:6500   */\n  dup2\n    /* \"#utility.yul\":6482:6500   */\n  swap1\n  pop\n    /* \"#utility.yul\":6358:6506   */\n  swap3\n  swap2\n  pop\n  pop\n  jump\t// out\n    /* \"#utility.yul\":6512:6889   */\ntag_55:\n    /* \"#utility.yul\":6618:6621   */\n  0x00\n    /* \"#utility.yul\":6646:6685   */\n  tag_136\n    /* \"#utility.yul\":6679:6684   */\n  dup3\n    /* \"#utility.yul\":6646:6685   */\n  tag_53\n  jump\t// in\ntag_136:\n    /* \"#utility.yul\":6701:6790   */\n  tag_137\n    /* \"#utility.yul\":6783:6789   */\n  dup2\n    /* \"#utility.yul\":6778:6781   */\n  dup6\n    /* \"#utility.yul\":6701:6790   */\n  tag_54\n  jump\t// in\ntag_137:\n    /* \"#utility.yul\":6694:6790   */\n  swap4\n  pop\n    /* \"#utility.yul\":6799:6851   */\n  tag_138\n    /* \"#utility.yul\":6844:6850   */\n  dup2\n    /* \"#utility.yul\":6839:6842   */\n  dup6\n    /* \"#utility.yul\":6832:6836   */\n  0x20\n    /* \"#utility.yul\":6825:6830   */\n  dup7\n    /* \"#utility.yul\":6821:6837   */\n  add\n    /* \"#utility.yul\":6799:6851   */\n  tag_43\n  jump\t// in\ntag_138:\n    /* \"#utility.yul\":6876:6882   */\n  dup1\n    /* \"#utility.yul\":6871:6874   */\n  dup5\n    /* \"#utility.yul\":6867:6883   */\n  add\n    /* \"#utility.yul\":6860:6883   */\n  swap2\n  pop\n    /* \"#utility.yul\":6622:6889   */\n  pop\n    /* \"#utility.yul\":6512:6889   */\n  swap3\n  swap2\n  pop\n  pop\n  jump\t// out\n    /* \"#utility.yul\":6895:7170   */\ntag_25:\n    /* \"#utility.yul\":7027:7030   */\n  0x00\n    /* \"#utility.yul\":7049:7144   */\n  tag_140\n    /* \"#utility.yul\":7140:7143   */\n  dup3\n    /* \"#utility.yul\":7131:7137   */\n  dup5\n    /* \"#utility.yul\":7049:7144   */\n  tag_55\n  jump\t// in\ntag_140:\n    /* \"#utility.yul\":7042:7144   */\n  swap2\n  pop\n    /* \"#utility.yul\":7161:7164   */\n  dup2\n    /* \"#utility.yul\":7154:7164   */\n  swap1\n  pop\n    /* \"#utility.yul\":6895:7170   */\n  swap3\n  swap2\n  pop\n  pop\n  jump\t// out\n    /* \"#utility.yul\":7176:7274   */\ntag_56:\n    /* \"#utility.yul\":7227:7233   */\n  0x00\n    /* \"#utility.yul\":7261:7266   */\n  dup2\n    /* \"#utility.yul\":7255:7267   */\n  mload\n    /* \"#utility.yul\":7245:7267   */\n  swap1\n  pop\n    /* \"#utility.yul\":7176:7274   */\n  swap2\n  swap1\n  pop\n  jump\t// out\n    /* \"#utility.yul\":7280:7396   */\ntag_57:\n    /* \"#utility.yul\":7331:7335   */\n  0x00\n    /* \"#utility.yul\":7354:7357   */\n  dup2\n    /* \"#utility.yul\":7346:7357   */\n  swap1\n  pop\n    /* \"#utility.yul\":7384:7388   */\n  0x20\n    /* \"#utility.yul\":7379:7382   */\n  dup3\n    /* \"#utility.yul\":7375:7389   */\n  add\n    /* \"#utility.yul\":7367:7389   */\n  swap1\n  pop\n    /* \"#utility.yul\":7280:7396   */\n  swap2\n  swap1\n  pop\n  jump\t// out\n    /* \"#utility.yul\":7402:7479   */\ntag_58:\n    /* \"#utility.yul\":7439:7446   */\n  0x00\n    /* \"#utility.yul\":7468:7473   */\n  dup2\n    /* \"#utility.yul\":7457:7473   */\n  swap1\n  pop\n    /* \"#utility.yul\":7402:7479   */\n  swap2\n  swap1\n  pop\n  jump\t// out\n    /* \"#utility.yul\":7485:7639   */\ntag_59:\n    /* \"#utility.yul\":7528:7539   */\n  0x00\n    /* \"#utility.yul\":7564:7593   */\n  tag_145\n    /* \"#utility.yul\":7588:7591   */\n  dup3\n    /* \"#utility.yul\":7582:7592   */\n  mload\n    /* \"#utility.yul\":7564:7593   */\n  tag_58\n  jump\t// in\ntag_145:\n    /* \"#utility.yul\":7627:7632   */\n  dup1\n    /* \"#utility.yul\":7603:7632   */\n  swap2\n  pop\n    /* \"#utility.yul\":7540:7639   */\n  pop\n    /* \"#utility.yul\":7485:7639   */\n  swap2\n  swap1\n  pop\n  jump\t// out\n    /* \"#utility.yul\":7645:7752   */\ntag_60:\n    /* \"#utility.yul\":7689:7697   */\n  0x00\n    /* \"#utility.yul\":7739:7744   */\n  dup3\n    /* \"#utility.yul\":7733:7737   */\n  dup3\n    /* \"#utility.yul\":7729:7745   */\n  shl\n    /* \"#utility.yul\":7708:7745   */\n  swap1\n  pop\n    /* \"#utility.yul\":7645:7752   */\n  swap3\n  swap2\n  pop\n  pop\n  jump\t// out\n    /* \"#utility.yul\":7758:8352   */\ntag_27:\n    /* \"#utility.yul\":7842:7847   */\n  0x00\n    /* \"#utility.yul\":7873:7911   */\n  tag_148\n    /* \"#utility.yul\":7905:7910   */\n  dup3\n    /* \"#utility.yul\":7873:7911   */\n  tag_56\n  jump\t// in\ntag_148:\n    /* \"#utility.yul\":7936:7941   */\n  dup3\n    /* \"#utility.yul\":7963:8003   */\n  tag_149\n    /* \"#utility.yul\":7997:8002   */\n  dup5\n    /* \"#utility.yul\":7963:8003   */\n  tag_57\n  jump\t// in\ntag_149:\n    /* \"#utility.yul\":7951:8003   */\n  swap1\n  pop\n    /* \"#utility.yul\":8022:8057   */\n  tag_150\n    /* \"#utility.yul\":8048:8056   */\n  dup2\n    /* \"#utility.yul\":8022:8057   */\n  tag_59\n  jump\t// in\ntag_150:\n    /* \"#utility.yul\":8013:8057   */\n  swap3\n  pop\n    /* \"#utility.yul\":8081:8083   */\n  0x20\n    /* \"#utility.yul\":8073:8079   */\n  dup3\n    /* \"#utility.yul\":8070:8084   */\n  lt\n    /* \"#utility.yul\":8067:8345   */\n  iszero\n  tag_151\n  jumpi\n    /* \"#utility.yul\":8152:8321   */\n  tag_152\n    /* \"#utility.yul\":8237:8303   */\n  0xffffffffffffffffffffffffffffffffffffffffffffffffffffffffffffffff\n    /* \"#utility.yul\":8207:8213   */\n  dup4\n    /* \"#utility.yul\":8203:8205   */\n  0x20\n    /* \"#utility.yul\":8199:8214   */\n  sub\n    /* \"#utility.yul\":8196:8197   */\n  0x08\n    /* \"#utility.yul\":8192:8215   */\n  mul\n    /* \"#utility.yul\":8152:8321   */\n  tag_60\n  jump\t// in\ntag_152:\n    /* \"#utility.yul\":8129:8134   */\n  dup4\n    /* \"#utility.yul\":8108:8335   */\n  and\n    /* \"#utility.yul\":8099:8335   */\n  swap3\n  pop\n    /* \"#utility.yul\":8067:8345   */\ntag_151:\n    /* \"#utility.yul\":7848:8352   */\n  pop\n  pop\n    /* \"#utility.yul\":7758:8352   */\n  swap2\n  swap1\n  pop\n  jump\t// out\n    /* \"#utility.yul\":8358:8538   */\ntag_61:\n    /* \"#utility.yul\":8406:8483   */\n  0x4e487b7100000000000000000000000000000000000000000000000000000000\n    /* \"#utility.yul\":8403:8404   */\n  0x00\n    /* \"#utility.yul\":8396:8484   */\n  mstore\n    /* \"#utility.yul\":8503:8507   */\n  0x11\n    /* \"#utility.yul\":8500:8501   */\n  0x04\n    /* \"#utility.yul\":8493:8508   */\n  mstore\n    /* \"#utility.yul\":8527:8531   */\n  0x24\n    /* \"#utility.yul\":8524:8525   */\n  0x00\n    /* \"#utility.yul\":8517:8532   */\n  revert\n    /* \"#utility.yul\":8544:8849   */\ntag_30:\n    /* \"#utility.yul\":8584:8587   */\n  0x00\n    /* \"#utility.yul\":8603:8623   */\n  tag_155\n    /* \"#utility.yul\":8621:8622   */\n  dup3\n    /* \"#utility.yul\":8603:8623   */\n  tag_51\n  jump\t// in\ntag_155:\n    /* \"#utility.yul\":8598:8623   */\n  swap2\n  pop\n    /* \"#utility.yul\":8637:8657   */\n  tag_156\n    /* \"#utility.yul\":8655:8656   */\n  dup4\n    /* \"#utility.yul\":8637:8657   */\n  tag_51\n  jump\t// in\ntag_156:\n    /* \"#utility.yul\":8632:8657   */\n  swap3\n  pop\n    /* \"#utility.yul\":8791:8792   */\n  dup3\n    /* \"#utility.yul\":8723:8789   */\n  0xffffffffffffffffffffffffffffffffffffffffffffffffffffffffffffffff\n    /* \"#utility.yul\":8719:8793   */\n  sub\n    /* \"#utility.yul\":8716:8717   */\n  dup3\n    /* \"#utility.yul\":8713:8794   */\n  gt\n    /* \"#utility.yul\":8710:8817   */\n  iszero\n  tag_157\n  jumpi\n    /* \"#utility.yul\":8797:8815   */\n  tag_158\n  tag_61\n  jump\t// in\ntag_158:\n    /* \"#utility.yul\":8710:8817   */\ntag_157:\n    /* \"#utility.yul\":8841:8842   */\n  dup3\n    /* \"#utility.yul\":8838:8839   */\n  dup3\n    /* \"#utility.yul\":8834:8843   */\n  add\n    /* \"#utility.yul\":8827:8843   */\n  swap1\n  pop\n    /* \"#utility.yul\":8544:8849   */\n  swap3\n  swap2\n  pop\n  pop\n  jump\t// out\n    /* \"contracts/SimpleVoting.sol\":372:9464  contract SimpleVoting is Context {... */\ntag_21:\n  dataSize(sub_0)\n  dup1\n  dataOffset(sub_0)\n  0x00\n  codecopy\n  0x00\n  return\nstop\n\nsub_0: assembly {\n        /* \"contracts/SimpleVoting.sol\":372:9464  contract SimpleVoting is Context {... */\n      mstore(0x40, 0x80)\n      callvalue\n      dup1\n      iszero\n      tag_1\n      jumpi\n      0x00\n      dup1\n      revert\n    tag_1:\n      pop\n      jumpi(tag_2, lt(calldatasize, 0x04))\n      shr(0xe0, calldataload(0x00))\n      dup1\n      0xa3ec138d\n      gt\n      tag_13\n      jumpi\n      dup1\n      0xa3ec138d\n      eq\n      tag_8\n      jumpi\n      dup1\n      0xc7f758a8\n      eq\n      tag_9\n      jumpi\n      dup1\n      0xd4d4b5ac\n      eq\n      tag_10\n      jumpi\n      dup1\n      0xda35c664\n      eq\n      tag_11\n      jumpi\n      dup1\n      0xef788cd5\n      eq\n      tag_12\n      jumpi\n      jump(tag_2)\n    tag_13:\n      dup1\n      0x0121b93f\n      eq\n      tag_3\n      jumpi\n      dup1\n      0x28be18ee\n      eq\n      tag_4\n      jumpi\n      dup1\n      0x5c19a95c\n      eq\n      tag_5\n      jumpi\n      dup1\n      0x5f07b961\n      eq\n      tag_6\n      jumpi\n      dup1\n      0x9e7b8d61\n      eq\n      tag_7\n      jumpi\n    tag_2:\n      0x00\n      dup1\n      revert\n        /* \"contracts/SimpleVoting.sol\":7180:7897  function vote(uint proposal) public proposalExists(proposal) notYetVoted(_msgSender()) hasRightToVote(_msgSender()) {... */\n    tag_3:\n      tag_14\n      0x04\n      dup1\n      calldatasize\n      sub\n      dup2\n      add\n      swap1\n      tag_15\n      swap2\n      swap1\n      tag_16\n      jump\t// in\n    tag_15:\n      tag_17\n      jump\t// in\n    tag_14:\n      stop\n        /* \"contracts/SimpleVoting.sol\":8831:9139  function winnerNames() public view... */\n    tag_4:\n      tag_18\n      tag_19\n      jump\t// in\n    tag_18:\n      mload(0x40)\n      tag_20\n      swap2\n      swap1\n      tag_21\n      jump\t// in\n    tag_20:\n      mload(0x40)\n      dup1\n      swap2\n      sub\n      swap1\n      return\n        /* \"contracts/SimpleVoting.sol\":5716:6986  function delegate(address _to) public notYetVoted (_msgSender()) hasRightToVote (_msgSender()) {... */\n    tag_5:\n      tag_22\n      0x04\n      dup1\n      calldatasize\n      sub\n      dup2\n      add\n      swap1\n      tag_23\n      swap2\n      swap1\n      tag_24\n      jump\t// in\n    tag_23:\n      tag_25\n      jump\t// in\n    tag_22:\n      stop\n        /* \"contracts/SimpleVoting.sol\":8007:8633  function computeWinningProposals() public ... */\n    tag_6:\n      tag_26\n      tag_27\n      jump\t// in\n    tag_26:\n      stop\n        /* \"contracts/SimpleVoting.sol\":5099:5585  function giveRightToVote(address _voter) public onlyChairPerson() notYetVoted(_voter) {... */\n    tag_7:\n      tag_28\n      0x04\n      dup1\n      calldatasize\n      sub\n      dup2\n      add\n      swap1\n      tag_29\n      swap2\n      swap1\n      tag_24\n      jump\t// in\n    tag_29:\n      tag_30\n      jump\t// in\n    tag_28:\n      stop\n        /* \"contracts/SimpleVoting.sol\":1338:1377  mapping(address => Voter) public voters */\n    tag_8:\n      tag_31\n      0x04\n      dup1\n      calldatasize\n      sub\n      dup2\n      add\n      swap1\n      tag_32\n      swap2\n      swap1\n      tag_24\n      jump\t// in\n    tag_32:\n      tag_33\n      jump\t// in\n    tag_31:\n      mload(0x40)\n      tag_34\n      swap5\n      swap4\n      swap3\n      swap2\n      swap1\n      tag_35\n      jump\t// in\n    tag_34:\n      mload(0x40)\n      dup1\n      swap2\n      sub\n      swap1\n      return\n        /* \"contracts/SimpleVoting.sol\":4353:4811  function getProposal (uint256 _proposalIndex) public view proposalExists(_proposalIndex) returns (string memory proposalName_, uint256 voteCount_) {... */\n    tag_9:\n      tag_36\n      0x04\n      dup1\n      calldatasize\n      sub\n      dup2\n      add\n      swap1\n      tag_37\n      swap2\n      swap1\n      tag_16\n      jump\t// in\n    tag_37:\n      tag_38\n      jump\t// in\n    tag_36:\n      mload(0x40)\n      tag_39\n      swap3\n      swap2\n      swap1\n      tag_40\n      jump\t// in\n    tag_39:\n      mload(0x40)\n      dup1\n      swap2\n      sub\n      swap1\n      return\n        /* \"contracts/SimpleVoting.sol\":1216:1242  address public chairPerson */\n    tag_10:\n      tag_41\n      tag_42\n      jump\t// in\n    tag_41:\n      mload(0x40)\n      tag_43\n      swap2\n      swap1\n      tag_44\n      jump\t// in\n    tag_43:\n      mload(0x40)\n      dup1\n      swap2\n      sub\n      swap1\n      return\n        /* \"contracts/SimpleVoting.sol\":1137:1165  uint256 public proposalCount */\n    tag_11:\n      tag_45\n      tag_46\n      jump\t// in\n    tag_45:\n      mload(0x40)\n      tag_47\n      swap2\n      swap1\n      tag_48\n      jump\t// in\n    tag_47:\n      mload(0x40)\n      dup1\n      swap2\n      sub\n      swap1\n      return\n        /* \"contracts/SimpleVoting.sol\":4819:4931  function getWinningProposals () public view returns (uint256[] memory){... */\n    tag_12:\n      tag_49\n      tag_50\n      jump\t// in\n    tag_49:\n      mload(0x40)\n      tag_51\n      swap2\n      swap1\n      tag_52\n      jump\t// in\n    tag_51:\n      mload(0x40)\n      dup1\n      swap2\n      sub\n      swap1\n      return\n        /* \"contracts/SimpleVoting.sol\":7180:7897  function vote(uint proposal) public proposalExists(proposal) notYetVoted(_msgSender()) hasRightToVote(_msgSender()) {... */\n    tag_17:\n        /* \"contracts/SimpleVoting.sol\":7231:7239  proposal */\n      dup1\n        /* \"contracts/SimpleVoting.sol\":2884:2897  proposalCount */\n      sload(0x00)\n        /* \"contracts/SimpleVoting.sol\":2867:2881  _proposalIndex */\n      dup2\n        /* \"contracts/SimpleVoting.sol\":2867:2897  _proposalIndex < proposalCount */\n      lt\n        /* \"contracts/SimpleVoting.sol\":2844:2969  require (... */\n      tag_55\n      jumpi\n      mload(0x40)\n      0x08c379a000000000000000000000000000000000000000000000000000000000\n      dup2\n      mstore\n      0x04\n      add\n      tag_56\n      swap1\n      tag_57\n      jump\t// in\n    tag_56:\n      mload(0x40)\n      dup1\n      swap2\n      sub\n      swap1\n      revert\n    tag_55:\n        /* \"contracts/SimpleVoting.sol\":7253:7265  _msgSender() */\n      tag_58\n        /* \"contracts/SimpleVoting.sol\":7253:7263  _msgSender */\n      tag_59\n        /* \"contracts/SimpleVoting.sol\":7253:7265  _msgSender() */\n      jump\t// in\n    tag_58:\n        /* \"contracts/SimpleVoting.sol\":2527:2533  voters */\n      0x02\n        /* \"contracts/SimpleVoting.sol\":2527:2541  voters[_voter] */\n      0x00\n        /* \"contracts/SimpleVoting.sol\":2534:2540  _voter */\n      dup3\n        /* \"contracts/SimpleVoting.sol\":2527:2541  voters[_voter] */\n      0xffffffffffffffffffffffffffffffffffffffff\n      and\n      0xffffffffffffffffffffffffffffffffffffffff\n      and\n      dup2\n      mstore\n      0x20\n      add\n      swap1\n      dup2\n      mstore\n      0x20\n      add\n      0x00\n      keccak256\n        /* \"contracts/SimpleVoting.sol\":2527:2547  voters[_voter].voted */\n      0x01\n      add\n      0x00\n      swap1\n      sload\n      swap1\n      0x0100\n      exp\n      swap1\n      div\n      0xff\n      and\n        /* \"contracts/SimpleVoting.sol\":2526:2547  !voters[_voter].voted */\n      iszero\n        /* \"contracts/SimpleVoting.sol\":2504:2617  require(... */\n      tag_61\n      jumpi\n      mload(0x40)\n      0x08c379a000000000000000000000000000000000000000000000000000000000\n      dup2\n      mstore\n      0x04\n      add\n      tag_62\n      swap1\n      tag_63\n      jump\t// in\n    tag_62:\n      mload(0x40)\n      dup1\n      swap2\n      sub\n      swap1\n      revert\n    tag_61:\n        /* \"contracts/SimpleVoting.sol\":7282:7294  _msgSender() */\n      tag_64\n        /* \"contracts/SimpleVoting.sol\":7282:7292  _msgSender */\n      tag_59\n        /* \"contracts/SimpleVoting.sol\":7282:7294  _msgSender() */\n      jump\t// in\n    tag_64:\n        /* \"contracts/SimpleVoting.sol\":3234:3235  0 */\n      0x00\n        /* \"contracts/SimpleVoting.sol\":3210:3216  voters */\n      0x02\n        /* \"contracts/SimpleVoting.sol\":3210:3224  voters[_voter] */\n      0x00\n        /* \"contracts/SimpleVoting.sol\":3217:3223  _voter */\n      dup4\n        /* \"contracts/SimpleVoting.sol\":3210:3224  voters[_voter] */\n      0xffffffffffffffffffffffffffffffffffffffff\n      and\n      0xffffffffffffffffffffffffffffffffffffffff\n      and\n      dup2\n      mstore\n      0x20\n      add\n      swap1\n      dup2\n      mstore\n      0x20\n      add\n      0x00\n      keccak256\n        /* \"contracts/SimpleVoting.sol\":3210:3231  voters[_voter].weight */\n      0x00\n      add\n      sload\n        /* \"contracts/SimpleVoting.sol\":3210:3235  voters[_voter].weight > 0 */\n      gt\n        /* \"contracts/SimpleVoting.sol\":3187:3312  require (... */\n      tag_66\n      jumpi\n      mload(0x40)\n      0x08c379a000000000000000000000000000000000000000000000000000000000\n      dup2\n      mstore\n      0x04\n      add\n      tag_67\n      swap1\n      tag_68\n      jump\t// in\n    tag_67:\n      mload(0x40)\n      dup1\n      swap2\n      sub\n      swap1\n      revert\n    tag_66:\n        /* \"contracts/SimpleVoting.sol\":7307:7327  Voter storage sender */\n      0x00\n        /* \"contracts/SimpleVoting.sol\":7330:7336  voters */\n      0x02\n        /* \"contracts/SimpleVoting.sol\":7330:7350  voters[_msgSender()] */\n      0x00\n        /* \"contracts/SimpleVoting.sol\":7337:7349  _msgSender() */\n      tag_70\n        /* \"contracts/SimpleVoting.sol\":7337:7347  _msgSender */\n      tag_59\n        /* \"contracts/SimpleVoting.sol\":7337:7349  _msgSender() */\n      jump\t// in\n    tag_70:\n        /* \"contracts/SimpleVoting.sol\":7330:7350  voters[_msgSender()] */\n      0xffffffffffffffffffffffffffffffffffffffff\n      and\n      0xffffffffffffffffffffffffffffffffffffffff\n      and\n      dup2\n      mstore\n      0x20\n      add\n      swap1\n      dup2\n      mstore\n      0x20\n      add\n      0x00\n      keccak256\n        /* \"contracts/SimpleVoting.sol\":7307:7350  Voter storage sender = voters[_msgSender()] */\n      swap1\n      pop\n        /* \"contracts/SimpleVoting.sol\":7552:7556  true */\n      0x01\n        /* \"contracts/SimpleVoting.sol\":7537:7543  sender */\n      dup2\n        /* \"contracts/SimpleVoting.sol\":7537:7549  sender.voted */\n      0x01\n      add\n      0x00\n        /* \"contracts/SimpleVoting.sol\":7537:7556  sender.voted = true */\n      0x0100\n      exp\n      dup2\n      sload\n      dup2\n      0xff\n      mul\n      not\n      and\n      swap1\n      dup4\n      iszero\n      iszero\n      mul\n      or\n      swap1\n      sstore\n      pop\n        /* \"contracts/SimpleVoting.sol\":7581:7589  proposal */\n      dup5\n        /* \"contracts/SimpleVoting.sol\":7567:7573  sender */\n      dup2\n        /* \"contracts/SimpleVoting.sol\":7567:7578  sender.vote */\n      0x02\n      add\n        /* \"contracts/SimpleVoting.sol\":7567:7589  sender.vote = proposal */\n      dup2\n      swap1\n      sstore\n      pop\n        /* \"contracts/SimpleVoting.sol\":7772:7821  proposals[proposal].voteCount. add(sender.weight) */\n      tag_71\n        /* \"contracts/SimpleVoting.sol\":7807:7813  sender */\n      dup2\n        /* \"contracts/SimpleVoting.sol\":7807:7820  sender.weight */\n      0x00\n      add\n      sload\n        /* \"contracts/SimpleVoting.sol\":7772:7781  proposals */\n      0x03\n        /* \"contracts/SimpleVoting.sol\":7782:7790  proposal */\n      dup8\n        /* \"contracts/SimpleVoting.sol\":7772:7791  proposals[proposal] */\n      dup2\n      sload\n      dup2\n      lt\n      tag_72\n      jumpi\n      tag_73\n      tag_74\n      jump\t// in\n    tag_73:\n    tag_72:\n      swap1\n      0x00\n      mstore\n      keccak256(0x00, 0x20)\n      swap1\n      0x02\n      mul\n      add\n        /* \"contracts/SimpleVoting.sol\":7772:7801  proposals[proposal].voteCount */\n      0x01\n      add\n      sload\n        /* \"contracts/SimpleVoting.sol\":7772:7806  proposals[proposal].voteCount. add */\n      tag_53\n      swap1\n        /* \"contracts/SimpleVoting.sol\":7772:7821  proposals[proposal].voteCount. add(sender.weight) */\n      swap2\n      swap1\n      0xffffffff\n      and\n      jump\t// in\n    tag_71:\n        /* \"contracts/SimpleVoting.sol\":7740:7749  proposals */\n      0x03\n        /* \"contracts/SimpleVoting.sol\":7750:7758  proposal */\n      dup7\n        /* \"contracts/SimpleVoting.sol\":7740:7759  proposals[proposal] */\n      dup2\n      sload\n      dup2\n      lt\n      tag_76\n      jumpi\n      tag_77\n      tag_74\n      jump\t// in\n    tag_77:\n    tag_76:\n      swap1\n      0x00\n      mstore\n      keccak256(0x00, 0x20)\n      swap1\n      0x02\n      mul\n      add\n        /* \"contracts/SimpleVoting.sol\":7740:7769  proposals[proposal].voteCount */\n      0x01\n      add\n        /* \"contracts/SimpleVoting.sol\":7740:7821  proposals[proposal].voteCount = proposals[proposal].voteCount. add(sender.weight) */\n      dup2\n      swap1\n      sstore\n      pop\n        /* \"contracts/SimpleVoting.sol\":7861:7873  _msgSender() */\n      tag_79\n        /* \"contracts/SimpleVoting.sol\":7861:7871  _msgSender */\n      tag_59\n        /* \"contracts/SimpleVoting.sol\":7861:7873  _msgSender() */\n      jump\t// in\n    tag_79:\n        /* \"contracts/SimpleVoting.sol\":7839:7889  VoteCasted (proposal, _msgSender(), sender.weight) */\n      0xffffffffffffffffffffffffffffffffffffffff\n      and\n        /* \"contracts/SimpleVoting.sol\":7851:7859  proposal */\n      dup6\n        /* \"contracts/SimpleVoting.sol\":7839:7889  VoteCasted (proposal, _msgSender(), sender.weight) */\n      0xe7ee74ca1f4bb1b82b14f87794c45b3e59c39e372b862fb97a6316b43355b69e\n        /* \"contracts/SimpleVoting.sol\":7875:7881  sender */\n      dup4\n        /* \"contracts/SimpleVoting.sol\":7875:7888  sender.weight */\n      0x00\n      add\n      sload\n        /* \"contracts/SimpleVoting.sol\":7839:7889  VoteCasted (proposal, _msgSender(), sender.weight) */\n      mload(0x40)\n      tag_80\n      swap2\n      swap1\n      tag_48\n      jump\t// in\n    tag_80:\n      mload(0x40)\n      dup1\n      swap2\n      sub\n      swap1\n      log3\n        /* \"contracts/SimpleVoting.sol\":7296:7897  {... */\n      pop\n        /* \"contracts/SimpleVoting.sol\":2628:2629  _ */\n      pop\n        /* \"contracts/SimpleVoting.sol\":2980:2981  _ */\n      pop\n        /* \"contracts/SimpleVoting.sol\":7180:7897  function vote(uint proposal) public proposalExists(proposal) notYetVoted(_msgSender()) hasRightToVote(_msgSender()) {... */\n      pop\n      pop\n      jump\t// out\n        /* \"contracts/SimpleVoting.sol\":8831:9139  function winnerNames() public view... */\n    tag_19:\n        /* \"contracts/SimpleVoting.sol\":8888:8914  string memory winnerNames_ */\n      0x60\n        /* \"contracts/SimpleVoting.sol\":8937:8946  uint256 i */\n      0x00\n        /* \"contracts/SimpleVoting.sol\":8932:9132  for (uint256 i = 0; i < winningProposals.length; i = i. add(1)) {... */\n    tag_82:\n        /* \"contracts/SimpleVoting.sol\":8956:8972  winningProposals */\n      0x04\n        /* \"contracts/SimpleVoting.sol\":8956:8979  winningProposals.length */\n      dup1\n      sload\n      swap1\n      pop\n        /* \"contracts/SimpleVoting.sol\":8952:8953  i */\n      dup2\n        /* \"contracts/SimpleVoting.sol\":8952:8979  i < winningProposals.length */\n      lt\n        /* \"contracts/SimpleVoting.sol\":8932:9132  for (uint256 i = 0; i < winningProposals.length; i = i. add(1)) {... */\n      iszero\n      tag_83\n      jumpi\n        /* \"contracts/SimpleVoting.sol\":9040:9052  winnerNames_ */\n      dup2\n        /* \"contracts/SimpleVoting.sol\":9082:9091  proposals */\n      0x03\n        /* \"contracts/SimpleVoting.sol\":9092:9108  winningProposals */\n      0x04\n        /* \"contracts/SimpleVoting.sol\":9109:9110  i */\n      dup4\n        /* \"contracts/SimpleVoting.sol\":9092:9111  winningProposals[i] */\n      dup2\n      sload\n      dup2\n      lt\n      tag_85\n      jumpi\n      tag_86\n      tag_74\n      jump\t// in\n    tag_86:\n    tag_85:\n      swap1\n      0x00\n      mstore\n      keccak256(0x00, 0x20)\n      add\n      sload\n        /* \"contracts/SimpleVoting.sol\":9082:9112  proposals[winningProposals[i]] */\n      dup2\n      sload\n      dup2\n      lt\n      tag_88\n      jumpi\n      tag_89\n      tag_74\n      jump\t// in\n    tag_89:\n    tag_88:\n      swap1\n      0x00\n      mstore\n      keccak256(0x00, 0x20)\n      swap1\n      0x02\n      mul\n      add\n        /* \"contracts/SimpleVoting.sol\":9082:9117  proposals[winningProposals[i]].name */\n      0x00\n      add\n      sload\n        /* \"contracts/SimpleVoting.sol\":9065:9118  abi.encodePacked(proposals[winningProposals[i]].name) */\n      add(0x20, mload(0x40))\n      tag_91\n      swap2\n      swap1\n      tag_92\n      jump\t// in\n    tag_91:\n      mload(0x40)\n      0x20\n      dup2\n      dup4\n      sub\n      sub\n      dup2\n      mstore\n      swap1\n      0x40\n      mstore\n        /* \"contracts/SimpleVoting.sol\":9026:9120  string.concat(winnerNames_,\", \",string(abi.encodePacked(proposals[winningProposals[i]].name))) */\n      add(0x20, mload(0x40))\n      tag_93\n      swap3\n      swap2\n      swap1\n      tag_94\n      jump\t// in\n    tag_93:\n      mload(0x40)\n      0x20\n      dup2\n      dup4\n      sub\n      sub\n      dup2\n      mstore\n      swap1\n      0x40\n      mstore\n        /* \"contracts/SimpleVoting.sol\":9011:9120  winnerNames_ = string.concat(winnerNames_,\", \",string(abi.encodePacked(proposals[winningProposals[i]].name))) */\n      swap2\n      pop\n        /* \"contracts/SimpleVoting.sol\":8985:8994  i. add(1) */\n      tag_95\n        /* \"contracts/SimpleVoting.sol\":8992:8993  1 */\n      0x01\n        /* \"contracts/SimpleVoting.sol\":8985:8986  i */\n      dup3\n        /* \"contracts/SimpleVoting.sol\":8985:8991  i. add */\n      tag_53\n      swap1\n        /* \"contracts/SimpleVoting.sol\":8985:8994  i. add(1) */\n      swap2\n      swap1\n      0xffffffff\n      and\n      jump\t// in\n    tag_95:\n        /* \"contracts/SimpleVoting.sol\":8981:8994  i = i. add(1) */\n      swap1\n      pop\n        /* \"contracts/SimpleVoting.sol\":8932:9132  for (uint256 i = 0; i < winningProposals.length; i = i. add(1)) {... */\n      jump(tag_82)\n    tag_83:\n      pop\n        /* \"contracts/SimpleVoting.sol\":8831:9139  function winnerNames() public view... */\n      swap1\n      jump\t// out\n        /* \"contracts/SimpleVoting.sol\":5716:6986  function delegate(address _to) public notYetVoted (_msgSender()) hasRightToVote (_msgSender()) {... */\n    tag_25:\n        /* \"contracts/SimpleVoting.sol\":5767:5779  _msgSender() */\n      tag_96\n        /* \"contracts/SimpleVoting.sol\":5767:5777  _msgSender */\n      tag_59\n        /* \"contracts/SimpleVoting.sol\":5767:5779  _msgSender() */\n      jump\t// in\n    tag_96:\n        /* \"contracts/SimpleVoting.sol\":2527:2533  voters */\n      0x02\n        /* \"contracts/SimpleVoting.sol\":2527:2541  voters[_voter] */\n      0x00\n        /* \"contracts/SimpleVoting.sol\":2534:2540  _voter */\n      dup3\n        /* \"contracts/SimpleVoting.sol\":2527:2541  voters[_voter] */\n      0xffffffffffffffffffffffffffffffffffffffff\n      and\n      0xffffffffffffffffffffffffffffffffffffffff\n      and\n      dup2\n      mstore\n      0x20\n      add\n      swap1\n      dup2\n      mstore\n      0x20\n      add\n      0x00\n      keccak256\n        /* \"contracts/SimpleVoting.sol\":2527:2547  voters[_voter].voted */\n      0x01\n      add\n      0x00\n      swap1\n      sload\n      swap1\n      0x0100\n      exp\n      swap1\n      div\n      0xff\n      and\n        /* \"contracts/SimpleVoting.sol\":2526:2547  !voters[_voter].voted */\n      iszero\n        /* \"contracts/SimpleVoting.sol\":2504:2617  require(... */\n      tag_98\n      jumpi\n      mload(0x40)\n      0x08c379a000000000000000000000000000000000000000000000000000000000\n      dup2\n      mstore\n      0x04\n      add\n      tag_99\n      swap1\n      tag_63\n      jump\t// in\n    tag_99:\n      mload(0x40)\n      dup1\n      swap2\n      sub\n      swap1\n      revert\n    tag_98:\n        /* \"contracts/SimpleVoting.sol\":5797:5809  _msgSender() */\n      tag_100\n        /* \"contracts/SimpleVoting.sol\":5797:5807  _msgSender */\n      tag_59\n        /* \"contracts/SimpleVoting.sol\":5797:5809  _msgSender() */\n      jump\t// in\n    tag_100:\n        /* \"contracts/SimpleVoting.sol\":3234:3235  0 */\n      0x00\n        /* \"contracts/SimpleVoting.sol\":3210:3216  voters */\n      0x02\n        /* \"contracts/SimpleVoting.sol\":3210:3224  voters[_voter] */\n      0x00\n        /* \"contracts/SimpleVoting.sol\":3217:3223  _voter */\n      dup4\n        /* \"contracts/SimpleVoting.sol\":3210:3224  voters[_voter] */\n      0xffffffffffffffffffffffffffffffffffffffff\n      and\n      0xffffffffffffffffffffffffffffffffffffffff\n      and\n      dup2\n      mstore\n      0x20\n      add\n      swap1\n      dup2\n      mstore\n      0x20\n      add\n      0x00\n      keccak256\n        /* \"contracts/SimpleVoting.sol\":3210:3231  voters[_voter].weight */\n      0x00\n      add\n      sload\n        /* \"contracts/SimpleVoting.sol\":3210:3235  voters[_voter].weight > 0 */\n      gt\n        /* \"contracts/SimpleVoting.sol\":3187:3312  require (... */\n      tag_102\n      jumpi\n      mload(0x40)\n      0x08c379a000000000000000000000000000000000000000000000000000000000\n      dup2\n      mstore\n      0x04\n      add\n      tag_103\n      swap1\n      tag_68\n      jump\t// in\n    tag_103:\n      mload(0x40)\n      dup1\n      swap2\n      sub\n      swap1\n      revert\n    tag_102:\n        /* \"contracts/SimpleVoting.sol\":5930:5950  Voter storage sender */\n      0x00\n        /* \"contracts/SimpleVoting.sol\":5953:5959  voters */\n      0x02\n        /* \"contracts/SimpleVoting.sol\":5953:5973  voters[_msgSender()] */\n      0x00\n        /* \"contracts/SimpleVoting.sol\":5960:5972  _msgSender() */\n      tag_105\n        /* \"contracts/SimpleVoting.sol\":5960:5970  _msgSender */\n      tag_59\n        /* \"contracts/SimpleVoting.sol\":5960:5972  _msgSender() */\n      jump\t// in\n    tag_105:\n        /* \"contracts/SimpleVoting.sol\":5953:5973  voters[_msgSender()] */\n      0xffffffffffffffffffffffffffffffffffffffff\n      and\n      0xffffffffffffffffffffffffffffffffffffffff\n      and\n      dup2\n      mstore\n      0x20\n      add\n      swap1\n      dup2\n      mstore\n      0x20\n      add\n      0x00\n      keccak256\n        /* \"contracts/SimpleVoting.sol\":5930:5973  Voter storage sender = voters[_msgSender()] */\n      swap1\n      pop\n        /* \"contracts/SimpleVoting.sol\":6057:6069  _msgSender() */\n      tag_106\n        /* \"contracts/SimpleVoting.sol\":6057:6067  _msgSender */\n      tag_59\n        /* \"contracts/SimpleVoting.sol\":6057:6069  _msgSender() */\n      jump\t// in\n    tag_106:\n        /* \"contracts/SimpleVoting.sol\":6050:6069  _to != _msgSender() */\n      0xffffffffffffffffffffffffffffffffffffffff\n      and\n        /* \"contracts/SimpleVoting.sol\":6050:6053  _to */\n      dup5\n        /* \"contracts/SimpleVoting.sol\":6050:6069  _to != _msgSender() */\n      0xffffffffffffffffffffffffffffffffffffffff\n      and\n      sub\n        /* \"contracts/SimpleVoting.sol\":6041:6119  require (_to != _msgSender(), \"SimpleVoting: Self-delegation is not allowed.\") */\n      tag_107\n      jumpi\n      mload(0x40)\n      0x08c379a000000000000000000000000000000000000000000000000000000000\n      dup2\n      mstore\n      0x04\n      add\n      tag_108\n      swap1\n      tag_109\n      jump\t// in\n    tag_108:\n      mload(0x40)\n      dup1\n      swap2\n      sub\n      swap1\n      revert\n    tag_107:\n        /* \"contracts/SimpleVoting.sol\":6132:6388  while (voters[_to].delegate != address(0)) {... */\n    tag_110:\n        /* \"contracts/SimpleVoting.sol\":6171:6172  0 */\n      0x00\n        /* \"contracts/SimpleVoting.sol\":6139:6173  voters[_to].delegate != address(0) */\n      0xffffffffffffffffffffffffffffffffffffffff\n      and\n        /* \"contracts/SimpleVoting.sol\":6139:6145  voters */\n      0x02\n        /* \"contracts/SimpleVoting.sol\":6139:6150  voters[_to] */\n      0x00\n        /* \"contracts/SimpleVoting.sol\":6146:6149  _to */\n      dup7\n        /* \"contracts/SimpleVoting.sol\":6139:6150  voters[_to] */\n      0xffffffffffffffffffffffffffffffffffffffff\n      and\n      0xffffffffffffffffffffffffffffffffffffffff\n      and\n      dup2\n      mstore\n      0x20\n      add\n      swap1\n      dup2\n      mstore\n      0x20\n      add\n      0x00\n      keccak256\n        /* \"contracts/SimpleVoting.sol\":6139:6159  voters[_to].delegate */\n      0x01\n      add\n      0x01\n      swap1\n      sload\n      swap1\n      0x0100\n      exp\n      swap1\n      div\n      0xffffffffffffffffffffffffffffffffffffffff\n      and\n        /* \"contracts/SimpleVoting.sol\":6139:6173  voters[_to].delegate != address(0) */\n      0xffffffffffffffffffffffffffffffffffffffff\n      and\n      eq\n        /* \"contracts/SimpleVoting.sol\":6132:6388  while (voters[_to].delegate != address(0)) {... */\n      tag_111\n      jumpi\n        /* \"contracts/SimpleVoting.sol\":6196:6202  voters */\n      0x02\n        /* \"contracts/SimpleVoting.sol\":6196:6207  voters[_to] */\n      0x00\n        /* \"contracts/SimpleVoting.sol\":6203:6206  _to */\n      dup6\n        /* \"contracts/SimpleVoting.sol\":6196:6207  voters[_to] */\n      0xffffffffffffffffffffffffffffffffffffffff\n      and\n      0xffffffffffffffffffffffffffffffffffffffff\n      and\n      dup2\n      mstore\n      0x20\n      add\n      swap1\n      dup2\n      mstore\n      0x20\n      add\n      0x00\n      keccak256\n        /* \"contracts/SimpleVoting.sol\":6196:6216  voters[_to].delegate */\n      0x01\n      add\n      0x01\n      swap1\n      sload\n      swap1\n      0x0100\n      exp\n      swap1\n      div\n      0xffffffffffffffffffffffffffffffffffffffff\n      and\n        /* \"contracts/SimpleVoting.sol\":6190:6216  _to = voters[_to].delegate */\n      swap4\n      pop\n        /* \"contracts/SimpleVoting.sol\":6312:6324  _msgSender() */\n      tag_112\n        /* \"contracts/SimpleVoting.sol\":6312:6322  _msgSender */\n      tag_59\n        /* \"contracts/SimpleVoting.sol\":6312:6324  _msgSender() */\n      jump\t// in\n    tag_112:\n        /* \"contracts/SimpleVoting.sol\":6305:6324  _to != _msgSender() */\n      0xffffffffffffffffffffffffffffffffffffffff\n      and\n        /* \"contracts/SimpleVoting.sol\":6305:6308  _to */\n      dup5\n        /* \"contracts/SimpleVoting.sol\":6305:6324  _to != _msgSender() */\n      0xffffffffffffffffffffffffffffffffffffffff\n      and\n      sub\n        /* \"contracts/SimpleVoting.sol\":6297:6376  require(_to != _msgSender(), \"SimpleVoting: Delegation traces back to caller.\") */\n      tag_113\n      jumpi\n      mload(0x40)\n      0x08c379a000000000000000000000000000000000000000000000000000000000\n      dup2\n      mstore\n      0x04\n      add\n      tag_114\n      swap1\n      tag_115\n      jump\t// in\n    tag_114:\n      mload(0x40)\n      dup1\n      swap2\n      sub\n      swap1\n      revert\n    tag_113:\n        /* \"contracts/SimpleVoting.sol\":6132:6388  while (voters[_to].delegate != address(0)) {... */\n      jump(tag_110)\n    tag_111:\n        /* \"contracts/SimpleVoting.sol\":6413:6417  true */\n      0x01\n        /* \"contracts/SimpleVoting.sol\":6398:6404  sender */\n      dup2\n        /* \"contracts/SimpleVoting.sol\":6398:6410  sender.voted */\n      0x01\n      add\n      0x00\n        /* \"contracts/SimpleVoting.sol\":6398:6417  sender.voted = true */\n      0x0100\n      exp\n      dup2\n      sload\n      dup2\n      0xff\n      mul\n      not\n      and\n      swap1\n      dup4\n      iszero\n      iszero\n      mul\n      or\n      swap1\n      sstore\n      pop\n        /* \"contracts/SimpleVoting.sol\":6446:6449  _to */\n      dup4\n        /* \"contracts/SimpleVoting.sol\":6428:6434  sender */\n      dup2\n        /* \"contracts/SimpleVoting.sol\":6428:6443  sender.delegate */\n      0x01\n      add\n      0x01\n        /* \"contracts/SimpleVoting.sol\":6428:6449  sender.delegate = _to */\n      0x0100\n      exp\n      dup2\n      sload\n      dup2\n      0xffffffffffffffffffffffffffffffffffffffff\n      mul\n      not\n      and\n      swap1\n      dup4\n      0xffffffffffffffffffffffffffffffffffffffff\n      and\n      mul\n      or\n      swap1\n      sstore\n      pop\n        /* \"contracts/SimpleVoting.sol\":6460:6483  Voter storage delegate_ */\n      0x00\n        /* \"contracts/SimpleVoting.sol\":6486:6492  voters */\n      0x02\n        /* \"contracts/SimpleVoting.sol\":6486:6497  voters[_to] */\n      0x00\n        /* \"contracts/SimpleVoting.sol\":6493:6496  _to */\n      dup7\n        /* \"contracts/SimpleVoting.sol\":6486:6497  voters[_to] */\n      0xffffffffffffffffffffffffffffffffffffffff\n      and\n      0xffffffffffffffffffffffffffffffffffffffff\n      and\n      dup2\n      mstore\n      0x20\n      add\n      swap1\n      dup2\n      mstore\n      0x20\n      add\n      0x00\n      keccak256\n        /* \"contracts/SimpleVoting.sol\":6460:6497  Voter storage delegate_ = voters[_to] */\n      swap1\n      pop\n        /* \"contracts/SimpleVoting.sol\":6512:6521  delegate_ */\n      dup1\n        /* \"contracts/SimpleVoting.sol\":6512:6527  delegate_.voted */\n      0x01\n      add\n      0x00\n      swap1\n      sload\n      swap1\n      0x0100\n      exp\n      swap1\n      div\n      0xff\n      and\n        /* \"contracts/SimpleVoting.sol\":6508:6921  if (delegate_.voted) {... */\n      iszero\n      tag_116\n      jumpi\n        /* \"contracts/SimpleVoting.sol\":6681:6736  proposals[delegate_.vote].voteCount. add(sender.weight) */\n      tag_117\n        /* \"contracts/SimpleVoting.sol\":6722:6728  sender */\n      dup3\n        /* \"contracts/SimpleVoting.sol\":6722:6735  sender.weight */\n      0x00\n      add\n      sload\n        /* \"contracts/SimpleVoting.sol\":6681:6690  proposals */\n      0x03\n        /* \"contracts/SimpleVoting.sol\":6691:6700  delegate_ */\n      dup4\n        /* \"contracts/SimpleVoting.sol\":6691:6705  delegate_.vote */\n      0x02\n      add\n      sload\n        /* \"contracts/SimpleVoting.sol\":6681:6706  proposals[delegate_.vote] */\n      dup2\n      sload\n      dup2\n      lt\n      tag_118\n      jumpi\n      tag_119\n      tag_74\n      jump\t// in\n    tag_119:\n    tag_118:\n      swap1\n      0x00\n      mstore\n      keccak256(0x00, 0x20)\n      swap1\n      0x02\n      mul\n      add\n        /* \"contracts/SimpleVoting.sol\":6681:6716  proposals[delegate_.vote].voteCount */\n      0x01\n      add\n      sload\n        /* \"contracts/SimpleVoting.sol\":6681:6721  proposals[delegate_.vote].voteCount. add */\n      tag_53\n      swap1\n        /* \"contracts/SimpleVoting.sol\":6681:6736  proposals[delegate_.vote].voteCount. add(sender.weight) */\n      swap2\n      swap1\n      0xffffffff\n      and\n      jump\t// in\n    tag_117:\n        /* \"contracts/SimpleVoting.sol\":6643:6652  proposals */\n      0x03\n        /* \"contracts/SimpleVoting.sol\":6653:6662  delegate_ */\n      dup3\n        /* \"contracts/SimpleVoting.sol\":6653:6667  delegate_.vote */\n      0x02\n      add\n      sload\n        /* \"contracts/SimpleVoting.sol\":6643:6668  proposals[delegate_.vote] */\n      dup2\n      sload\n      dup2\n      lt\n      tag_121\n      jumpi\n      tag_122\n      tag_74\n      jump\t// in\n    tag_122:\n    tag_121:\n      swap1\n      0x00\n      mstore\n      keccak256(0x00, 0x20)\n      swap1\n      0x02\n      mul\n      add\n        /* \"contracts/SimpleVoting.sol\":6643:6678  proposals[delegate_.vote].voteCount */\n      0x01\n      add\n        /* \"contracts/SimpleVoting.sol\":6643:6736  proposals[delegate_.vote].voteCount = proposals[delegate_.vote].voteCount. add(sender.weight) */\n      dup2\n      swap1\n      sstore\n      pop\n        /* \"contracts/SimpleVoting.sol\":6508:6921  if (delegate_.voted) {... */\n      jump(tag_124)\n    tag_116:\n        /* \"contracts/SimpleVoting.sol\":6873:6909  delegate_.weight. add(sender.weight) */\n      tag_125\n        /* \"contracts/SimpleVoting.sol\":6895:6901  sender */\n      dup3\n        /* \"contracts/SimpleVoting.sol\":6895:6908  sender.weight */\n      0x00\n      add\n      sload\n        /* \"contracts/SimpleVoting.sol\":6873:6882  delegate_ */\n      dup3\n        /* \"contracts/SimpleVoting.sol\":6873:6889  delegate_.weight */\n      0x00\n      add\n      sload\n        /* \"contracts/SimpleVoting.sol\":6873:6894  delegate_.weight. add */\n      tag_53\n      swap1\n        /* \"contracts/SimpleVoting.sol\":6873:6909  delegate_.weight. add(sender.weight) */\n      swap2\n      swap1\n      0xffffffff\n      and\n      jump\t// in\n    tag_125:\n        /* \"contracts/SimpleVoting.sol\":6854:6863  delegate_ */\n      dup2\n        /* \"contracts/SimpleVoting.sol\":6854:6870  delegate_.weight */\n      0x00\n      add\n        /* \"contracts/SimpleVoting.sol\":6854:6909  delegate_.weight = delegate_.weight. add(sender.weight) */\n      dup2\n      swap1\n      sstore\n      pop\n        /* \"contracts/SimpleVoting.sol\":6508:6921  if (delegate_.voted) {... */\n    tag_124:\n        /* \"contracts/SimpleVoting.sol\":6974:6977  _to */\n      dup5\n        /* \"contracts/SimpleVoting.sol\":6938:6978  DelegationSuccessful (_msgSender(), _to) */\n      0xffffffffffffffffffffffffffffffffffffffff\n      and\n        /* \"contracts/SimpleVoting.sol\":6960:6972  _msgSender() */\n      tag_126\n        /* \"contracts/SimpleVoting.sol\":6960:6970  _msgSender */\n      tag_59\n        /* \"contracts/SimpleVoting.sol\":6960:6972  _msgSender() */\n      jump\t// in\n    tag_126:\n        /* \"contracts/SimpleVoting.sol\":6938:6978  DelegationSuccessful (_msgSender(), _to) */\n      0xffffffffffffffffffffffffffffffffffffffff\n      and\n      0x4ce9ef2c99d761d69230b0e3381f4c6016333b2e27d32b3e379a96b5d2c69232\n      mload(0x40)\n      mload(0x40)\n      dup1\n      swap2\n      sub\n      swap1\n      log3\n        /* \"contracts/SimpleVoting.sol\":5811:6986  {... */\n      pop\n      pop\n        /* \"contracts/SimpleVoting.sol\":2628:2629  _ */\n      pop\n        /* \"contracts/SimpleVoting.sol\":5716:6986  function delegate(address _to) public notYetVoted (_msgSender()) hasRightToVote (_msgSender()) {... */\n      pop\n      pop\n      jump\t// out\n        /* \"contracts/SimpleVoting.sol\":8007:8633  function computeWinningProposals() public ... */\n    tag_27:\n        /* \"contracts/SimpleVoting.sol\":8066:8087  uint winningVoteCount */\n      0x00\n        /* \"contracts/SimpleVoting.sol\":8093:8107  uint256 winner */\n      dup1\n        /* \"contracts/SimpleVoting.sol\":8129:8145  winningProposals */\n      0x04\n      0x00\n        /* \"contracts/SimpleVoting.sol\":8122:8145  delete winningProposals */\n      tag_128\n      swap2\n      swap1\n      tag_129\n      jump\t// in\n    tag_128:\n        /* \"contracts/SimpleVoting.sol\":8161:8167  uint p */\n      0x00\n        /* \"contracts/SimpleVoting.sol\":8156:8402  for (uint p = 0; p < proposals.length; p = p. add(1)) {... */\n    tag_130:\n        /* \"contracts/SimpleVoting.sol\":8177:8186  proposals */\n      0x03\n        /* \"contracts/SimpleVoting.sol\":8177:8193  proposals.length */\n      dup1\n      sload\n      swap1\n      pop\n        /* \"contracts/SimpleVoting.sol\":8173:8174  p */\n      dup2\n        /* \"contracts/SimpleVoting.sol\":8173:8193  p < proposals.length */\n      lt\n        /* \"contracts/SimpleVoting.sol\":8156:8402  for (uint p = 0; p < proposals.length; p = p. add(1)) {... */\n      iszero\n      tag_131\n      jumpi\n        /* \"contracts/SimpleVoting.sol\":8254:8270  winningVoteCount */\n      dup3\n        /* \"contracts/SimpleVoting.sol\":8229:8238  proposals */\n      0x03\n        /* \"contracts/SimpleVoting.sol\":8239:8240  p */\n      dup3\n        /* \"contracts/SimpleVoting.sol\":8229:8241  proposals[p] */\n      dup2\n      sload\n      dup2\n      lt\n      tag_133\n      jumpi\n      tag_134\n      tag_74\n      jump\t// in\n    tag_134:\n    tag_133:\n      swap1\n      0x00\n      mstore\n      keccak256(0x00, 0x20)\n      swap1\n      0x02\n      mul\n      add\n        /* \"contracts/SimpleVoting.sol\":8229:8251  proposals[p].voteCount */\n      0x01\n      add\n      sload\n        /* \"contracts/SimpleVoting.sol\":8229:8270  proposals[p].voteCount > winningVoteCount */\n      gt\n        /* \"contracts/SimpleVoting.sol\":8225:8391  if (proposals[p].voteCount > winningVoteCount) {... */\n      iszero\n      tag_136\n      jumpi\n        /* \"contracts/SimpleVoting.sol\":8310:8319  proposals */\n      0x03\n        /* \"contracts/SimpleVoting.sol\":8320:8321  p */\n      dup2\n        /* \"contracts/SimpleVoting.sol\":8310:8322  proposals[p] */\n      dup2\n      sload\n      dup2\n      lt\n      tag_137\n      jumpi\n      tag_138\n      tag_74\n      jump\t// in\n    tag_138:\n    tag_137:\n      swap1\n      0x00\n      mstore\n      keccak256(0x00, 0x20)\n      swap1\n      0x02\n      mul\n      add\n        /* \"contracts/SimpleVoting.sol\":8310:8332  proposals[p].voteCount */\n      0x01\n      add\n      sload\n        /* \"contracts/SimpleVoting.sol\":8291:8332  winningVoteCount = proposals[p].voteCount */\n      swap3\n      pop\n        /* \"contracts/SimpleVoting.sol\":8351:8367  winningProposals */\n      0x04\n        /* \"contracts/SimpleVoting.sol\":8373:8374  p */\n      dup2\n        /* \"contracts/SimpleVoting.sol\":8351:8375  winningProposals.push(p) */\n      swap1\n      dup1\n      0x01\n      dup2\n      sload\n      add\n      dup1\n      dup3\n      sstore\n      dup1\n      swap2\n      pop\n      pop\n      0x01\n      swap1\n      sub\n      swap1\n      0x00\n      mstore\n      keccak256(0x00, 0x20)\n      add\n      0x00\n      swap1\n      swap2\n      swap1\n      swap2\n      swap1\n      swap2\n      pop\n      sstore\n        /* \"contracts/SimpleVoting.sol\":8225:8391  if (proposals[p].voteCount > winningVoteCount) {... */\n    tag_136:\n        /* \"contracts/SimpleVoting.sol\":8199:8208  p. add(1) */\n      tag_141\n        /* \"contracts/SimpleVoting.sol\":8206:8207  1 */\n      0x01\n        /* \"contracts/SimpleVoting.sol\":8199:8200  p */\n      dup3\n        /* \"contracts/SimpleVoting.sol\":8199:8205  p. add */\n      tag_53\n      swap1\n        /* \"contracts/SimpleVoting.sol\":8199:8208  p. add(1) */\n      swap2\n      swap1\n      0xffffffff\n      and\n      jump\t// in\n    tag_141:\n        /* \"contracts/SimpleVoting.sol\":8195:8208  p = p. add(1) */\n      swap1\n      pop\n        /* \"contracts/SimpleVoting.sol\":8156:8402  for (uint p = 0; p < proposals.length; p = p. add(1)) {... */\n      jump(tag_130)\n    tag_131:\n      pop\n        /* \"contracts/SimpleVoting.sol\":8417:8423  uint p */\n      0x00\n        /* \"contracts/SimpleVoting.sol\":8412:8626  for (uint p = 0; p < proposals.length; p = p. add(1)) {... */\n    tag_142:\n        /* \"contracts/SimpleVoting.sol\":8433:8442  proposals */\n      0x03\n        /* \"contracts/SimpleVoting.sol\":8433:8449  proposals.length */\n      dup1\n      sload\n      swap1\n      pop\n        /* \"contracts/SimpleVoting.sol\":8429:8430  p */\n      dup2\n        /* \"contracts/SimpleVoting.sol\":8429:8449  p < proposals.length */\n      lt\n        /* \"contracts/SimpleVoting.sol\":8412:8626  for (uint p = 0; p < proposals.length; p = p. add(1)) {... */\n      iszero\n      tag_143\n      jumpi\n        /* \"contracts/SimpleVoting.sol\":8511:8520  proposals */\n      0x03\n        /* \"contracts/SimpleVoting.sol\":8521:8527  winner */\n      dup3\n        /* \"contracts/SimpleVoting.sol\":8511:8528  proposals[winner] */\n      dup2\n      sload\n      dup2\n      lt\n      tag_145\n      jumpi\n      tag_146\n      tag_74\n      jump\t// in\n    tag_146:\n    tag_145:\n      swap1\n      0x00\n      mstore\n      keccak256(0x00, 0x20)\n      swap1\n      0x02\n      mul\n      add\n        /* \"contracts/SimpleVoting.sol\":8511:8538  proposals[winner].voteCount */\n      0x01\n      add\n      sload\n        /* \"contracts/SimpleVoting.sol\":8485:8494  proposals */\n      0x03\n        /* \"contracts/SimpleVoting.sol\":8495:8496  p */\n      dup3\n        /* \"contracts/SimpleVoting.sol\":8485:8497  proposals[p] */\n      dup2\n      sload\n      dup2\n      lt\n      tag_148\n      jumpi\n      tag_149\n      tag_74\n      jump\t// in\n    tag_149:\n    tag_148:\n      swap1\n      0x00\n      mstore\n      keccak256(0x00, 0x20)\n      swap1\n      0x02\n      mul\n      add\n        /* \"contracts/SimpleVoting.sol\":8485:8507  proposals[p].voteCount */\n      0x01\n      add\n      sload\n        /* \"contracts/SimpleVoting.sol\":8485:8538  proposals[p].voteCount == proposals[winner].voteCount */\n      eq\n        /* \"contracts/SimpleVoting.sol\":8485:8553  proposals[p].voteCount == proposals[winner].voteCount && p != winner */\n      dup1\n      iszero\n      tag_151\n      jumpi\n      pop\n        /* \"contracts/SimpleVoting.sol\":8547:8553  winner */\n      dup2\n        /* \"contracts/SimpleVoting.sol\":8542:8543  p */\n      dup2\n        /* \"contracts/SimpleVoting.sol\":8542:8553  p != winner */\n      eq\n      iszero\n        /* \"contracts/SimpleVoting.sol\":8485:8553  proposals[p].voteCount == proposals[winner].voteCount && p != winner */\n    tag_151:\n        /* \"contracts/SimpleVoting.sol\":8481:8615  if (proposals[p].voteCount == proposals[winner].voteCount && p != winner) {... */\n      iszero\n      tag_152\n      jumpi\n        /* \"contracts/SimpleVoting.sol\":8575:8591  winningProposals */\n      0x04\n        /* \"contracts/SimpleVoting.sol\":8597:8598  p */\n      dup2\n        /* \"contracts/SimpleVoting.sol\":8575:8599  winningProposals.push(p) */\n      swap1\n      dup1\n      0x01\n      dup2\n      sload\n      add\n      dup1\n      dup3\n      sstore\n      dup1\n      swap2\n      pop\n      pop\n      0x01\n      swap1\n      sub\n      swap1\n      0x00\n      mstore\n      keccak256(0x00, 0x20)\n      add\n      0x00\n      swap1\n      swap2\n      swap1\n      swap2\n      swap1\n      swap2\n      pop\n      sstore\n        /* \"contracts/SimpleVoting.sol\":8481:8615  if (proposals[p].voteCount == proposals[winner].voteCount && p != winner) {... */\n    tag_152:\n        /* \"contracts/SimpleVoting.sol\":8455:8464  p. add(1) */\n      tag_154\n        /* \"contracts/SimpleVoting.sol\":8462:8463  1 */\n      0x01\n        /* \"contracts/SimpleVoting.sol\":8455:8456  p */\n      dup3\n        /* \"contracts/SimpleVoting.sol\":8455:8461  p. add */\n      tag_53\n      swap1\n        /* \"contracts/SimpleVoting.sol\":8455:8464  p. add(1) */\n      swap2\n      swap1\n      0xffffffff\n      and\n      jump\t// in\n    tag_154:\n        /* \"contracts/SimpleVoting.sol\":8451:8464  p = p. add(1) */\n      swap1\n      pop\n        /* \"contracts/SimpleVoting.sol\":8412:8626  for (uint p = 0; p < proposals.length; p = p. add(1)) {... */\n      jump(tag_142)\n    tag_143:\n      pop\n        /* \"contracts/SimpleVoting.sol\":8055:8633  {... */\n      pop\n      pop\n        /* \"contracts/SimpleVoting.sol\":8007:8633  function computeWinningProposals() public ... */\n      jump\t// out\n        /* \"contracts/SimpleVoting.sol\":5099:5585  function giveRightToVote(address _voter) public onlyChairPerson() notYetVoted(_voter) {... */\n    tag_30:\n        /* \"contracts/SimpleVoting.sol\":2192:2203  chairPerson */\n      0x01\n      0x00\n      swap1\n      sload\n      swap1\n      0x0100\n      exp\n      swap1\n      div\n      0xffffffffffffffffffffffffffffffffffffffff\n      and\n        /* \"contracts/SimpleVoting.sol\":2176:2203  _msgSender() == chairPerson */\n      0xffffffffffffffffffffffffffffffffffffffff\n      and\n        /* \"contracts/SimpleVoting.sol\":2176:2188  _msgSender() */\n      tag_156\n        /* \"contracts/SimpleVoting.sol\":2176:2186  _msgSender */\n      tag_59\n        /* \"contracts/SimpleVoting.sol\":2176:2188  _msgSender() */\n      jump\t// in\n    tag_156:\n        /* \"contracts/SimpleVoting.sol\":2176:2203  _msgSender() == chairPerson */\n      0xffffffffffffffffffffffffffffffffffffffff\n      and\n      eq\n        /* \"contracts/SimpleVoting.sol\":2154:2285  require(... */\n      tag_157\n      jumpi\n      mload(0x40)\n      0x08c379a000000000000000000000000000000000000000000000000000000000\n      dup2\n      mstore\n      0x04\n      add\n      tag_158\n      swap1\n      tag_159\n      jump\t// in\n    tag_158:\n      mload(0x40)\n      dup1\n      swap2\n      sub\n      swap1\n      revert\n    tag_157:\n        /* \"contracts/SimpleVoting.sol\":5177:5183  _voter */\n      dup1\n        /* \"contracts/SimpleVoting.sol\":2527:2533  voters */\n      0x02\n        /* \"contracts/SimpleVoting.sol\":2527:2541  voters[_voter] */\n      0x00\n        /* \"contracts/SimpleVoting.sol\":2534:2540  _voter */\n      dup3\n        /* \"contracts/SimpleVoting.sol\":2527:2541  voters[_voter] */\n      0xffffffffffffffffffffffffffffffffffffffff\n      and\n      0xffffffffffffffffffffffffffffffffffffffff\n      and\n      dup2\n      mstore\n      0x20\n      add\n      swap1\n      dup2\n      mstore\n      0x20\n      add\n      0x00\n      keccak256\n        /* \"contracts/SimpleVoting.sol\":2527:2547  voters[_voter].voted */\n      0x01\n      add\n      0x00\n      swap1\n      sload\n      swap1\n      0x0100\n      exp\n      swap1\n      div\n      0xff\n      and\n        /* \"contracts/SimpleVoting.sol\":2526:2547  !voters[_voter].voted */\n      iszero\n        /* \"contracts/SimpleVoting.sol\":2504:2617  require(... */\n      tag_161\n      jumpi\n      mload(0x40)\n      0x08c379a000000000000000000000000000000000000000000000000000000000\n      dup2\n      mstore\n      0x04\n      add\n      tag_162\n      swap1\n      tag_63\n      jump\t// in\n    tag_162:\n      mload(0x40)\n      dup1\n      swap2\n      sub\n      swap1\n      revert\n    tag_161:\n        /* \"contracts/SimpleVoting.sol\":5487:5488  0 */\n      0x00\n        /* \"contracts/SimpleVoting.sol\":5462:5468  voters */\n      0x02\n        /* \"contracts/SimpleVoting.sol\":5462:5476  voters[_voter] */\n      0x00\n        /* \"contracts/SimpleVoting.sol\":5469:5475  _voter */\n      dup5\n        /* \"contracts/SimpleVoting.sol\":5462:5476  voters[_voter] */\n      0xffffffffffffffffffffffffffffffffffffffff\n      and\n      0xffffffffffffffffffffffffffffffffffffffff\n      and\n      dup2\n      mstore\n      0x20\n      add\n      swap1\n      dup2\n      mstore\n      0x20\n      add\n      0x00\n      keccak256\n        /* \"contracts/SimpleVoting.sol\":5462:5483  voters[_voter].weight */\n      0x00\n      add\n      sload\n        /* \"contracts/SimpleVoting.sol\":5462:5488  voters[_voter].weight == 0 */\n      eq\n        /* \"contracts/SimpleVoting.sol\":5454:5541  require(voters[_voter].weight == 0, \"SimpleVoting: Address already has right to vote.\") */\n      tag_164\n      jumpi\n      mload(0x40)\n      0x08c379a000000000000000000000000000000000000000000000000000000000\n      dup2\n      mstore\n      0x04\n      add\n      tag_165\n      swap1\n      tag_166\n      jump\t// in\n    tag_165:\n      mload(0x40)\n      dup1\n      swap2\n      sub\n      swap1\n      revert\n    tag_164:\n        /* \"contracts/SimpleVoting.sol\":5576:5577  1 */\n      0x01\n        /* \"contracts/SimpleVoting.sol\":5552:5558  voters */\n      0x02\n        /* \"contracts/SimpleVoting.sol\":5552:5566  voters[_voter] */\n      0x00\n        /* \"contracts/SimpleVoting.sol\":5559:5565  _voter */\n      dup5\n        /* \"contracts/SimpleVoting.sol\":5552:5566  voters[_voter] */\n      0xffffffffffffffffffffffffffffffffffffffff\n      and\n      0xffffffffffffffffffffffffffffffffffffffff\n      and\n      dup2\n      mstore\n      0x20\n      add\n      swap1\n      dup2\n      mstore\n      0x20\n      add\n      0x00\n      keccak256\n        /* \"contracts/SimpleVoting.sol\":5552:5573  voters[_voter].weight */\n      0x00\n      add\n        /* \"contracts/SimpleVoting.sol\":5552:5577  voters[_voter].weight = 1 */\n      dup2\n      swap1\n      sstore\n      pop\n        /* \"contracts/SimpleVoting.sol\":2296:2297  _ */\n      pop\n        /* \"contracts/SimpleVoting.sol\":5099:5585  function giveRightToVote(address _voter) public onlyChairPerson() notYetVoted(_voter) {... */\n      pop\n      jump\t// out\n        /* \"contracts/SimpleVoting.sol\":1338:1377  mapping(address => Voter) public voters */\n    tag_33:\n      mstore(0x20, 0x02)\n      dup1\n      0x00\n      mstore\n      keccak256(0x00, 0x40)\n      0x00\n      swap2\n      pop\n      swap1\n      pop\n      dup1\n      0x00\n      add\n      sload\n      swap1\n      dup1\n      0x01\n      add\n      0x00\n      swap1\n      sload\n      swap1\n      0x0100\n      exp\n      swap1\n      div\n      0xff\n      and\n      swap1\n      dup1\n      0x01\n      add\n      0x01\n      swap1\n      sload\n      swap1\n      0x0100\n      exp\n      swap1\n      div\n      0xffffffffffffffffffffffffffffffffffffffff\n      and\n      swap1\n      dup1\n      0x02\n      add\n      sload\n      swap1\n      pop\n      dup5\n      jump\t// out\n        /* \"contracts/SimpleVoting.sol\":4353:4811  function getProposal (uint256 _proposalIndex) public view proposalExists(_proposalIndex) returns (string memory proposalName_, uint256 voteCount_) {... */\n    tag_38:\n        /* \"contracts/SimpleVoting.sol\":4451:4478  string memory proposalName_ */\n      0x60\n        /* \"contracts/SimpleVoting.sol\":4480:4498  uint256 voteCount_ */\n      0x00\n        /* \"contracts/SimpleVoting.sol\":4426:4440  _proposalIndex */\n      dup3\n        /* \"contracts/SimpleVoting.sol\":2884:2897  proposalCount */\n      sload(0x00)\n        /* \"contracts/SimpleVoting.sol\":2867:2881  _proposalIndex */\n      dup2\n        /* \"contracts/SimpleVoting.sol\":2867:2897  _proposalIndex < proposalCount */\n      lt\n        /* \"contracts/SimpleVoting.sol\":2844:2969  require (... */\n      tag_168\n      jumpi\n      mload(0x40)\n      0x08c379a000000000000000000000000000000000000000000000000000000000\n      dup2\n      mstore\n      0x04\n      add\n      tag_169\n      swap1\n      tag_57\n      jump\t// in\n    tag_169:\n      mload(0x40)\n      dup1\n      swap2\n      sub\n      swap1\n      revert\n    tag_168:\n        /* \"contracts/SimpleVoting.sol\":4717:4765  bytes32ToString (proposals[_proposalIndex].name) */\n      tag_171\n        /* \"contracts/SimpleVoting.sol\":4734:4743  proposals */\n      0x03\n        /* \"contracts/SimpleVoting.sol\":4744:4758  _proposalIndex */\n      dup6\n        /* \"contracts/SimpleVoting.sol\":4734:4759  proposals[_proposalIndex] */\n      dup2\n      sload\n      dup2\n      lt\n      tag_172\n      jumpi\n      tag_173\n      tag_74\n      jump\t// in\n    tag_173:\n    tag_172:\n      swap1\n      0x00\n      mstore\n      keccak256(0x00, 0x20)\n      swap1\n      0x02\n      mul\n      add\n        /* \"contracts/SimpleVoting.sol\":4734:4764  proposals[_proposalIndex].name */\n      0x00\n      add\n      sload\n        /* \"contracts/SimpleVoting.sol\":4717:4732  bytes32ToString */\n      tag_175\n        /* \"contracts/SimpleVoting.sol\":4717:4765  bytes32ToString (proposals[_proposalIndex].name) */\n      jump\t// in\n    tag_171:\n        /* \"contracts/SimpleVoting.sol\":4767:4776  proposals */\n      0x03\n        /* \"contracts/SimpleVoting.sol\":4777:4791  _proposalIndex */\n      dup6\n        /* \"contracts/SimpleVoting.sol\":4767:4792  proposals[_proposalIndex] */\n      dup2\n      sload\n      dup2\n      lt\n      tag_176\n      jumpi\n      tag_177\n      tag_74\n      jump\t// in\n    tag_177:\n    tag_176:\n      swap1\n      0x00\n      mstore\n      keccak256(0x00, 0x20)\n      swap1\n      0x02\n      mul\n      add\n        /* \"contracts/SimpleVoting.sol\":4767:4802  proposals[_proposalIndex].voteCount */\n      0x01\n      add\n      sload\n        /* \"contracts/SimpleVoting.sol\":4676:4803  (proposalName_, voteCount_) = ... */\n      dup1\n      swap4\n      pop\n      dup2\n      swap5\n      pop\n      pop\n      pop\n        /* \"contracts/SimpleVoting.sol\":4353:4811  function getProposal (uint256 _proposalIndex) public view proposalExists(_proposalIndex) returns (string memory proposalName_, uint256 voteCount_) {... */\n      pop\n      swap2\n      pop\n      swap2\n      jump\t// out\n        /* \"contracts/SimpleVoting.sol\":1216:1242  address public chairPerson */\n    tag_42:\n      0x01\n      0x00\n      swap1\n      sload\n      swap1\n      0x0100\n      exp\n      swap1\n      div\n      0xffffffffffffffffffffffffffffffffffffffff\n      and\n      dup2\n      jump\t// out\n        /* \"contracts/SimpleVoting.sol\":1137:1165  uint256 public proposalCount */\n    tag_46:\n      sload(0x00)\n      dup2\n      jump\t// out\n        /* \"contracts/SimpleVoting.sol\":4819:4931  function getWinningProposals () public view returns (uint256[] memory){... */\n    tag_50:\n        /* \"contracts/SimpleVoting.sol\":4872:4888  uint256[] memory */\n      0x60\n        /* \"contracts/SimpleVoting.sol\":4907:4923  winningProposals */\n      0x04\n        /* \"contracts/SimpleVoting.sol\":4900:4923  return winningProposals */\n      dup1\n      sload\n      dup1\n      0x20\n      mul\n      0x20\n      add\n      mload(0x40)\n      swap1\n      dup2\n      add\n      0x40\n      mstore\n      dup1\n      swap3\n      swap2\n      swap1\n      dup2\n      dup2\n      mstore\n      0x20\n      add\n      dup3\n      dup1\n      sload\n      dup1\n      iszero\n      tag_180\n      jumpi\n      0x20\n      mul\n      dup3\n      add\n      swap2\n      swap1\n      0x00\n      mstore\n      keccak256(0x00, 0x20)\n      swap1\n    tag_181:\n      dup2\n      sload\n      dup2\n      mstore\n      0x20\n      add\n      swap1\n      0x01\n      add\n      swap1\n      dup1\n      dup4\n      gt\n      tag_181\n      jumpi\n    tag_180:\n      pop\n      pop\n      pop\n      pop\n      pop\n      swap1\n      pop\n        /* \"contracts/SimpleVoting.sol\":4819:4931  function getWinningProposals () public view returns (uint256[] memory){... */\n      swap1\n      jump\t// out\n        /* \"https://github.com/OpenZeppelin/openzeppelin-contracts/blob/master/contracts/utils/math/SafeMath.sol\":2755:2851  function add(uint256 a, uint256 b) internal pure returns (uint256) {... */\n    tag_53:\n        /* \"https://github.com/OpenZeppelin/openzeppelin-contracts/blob/master/contracts/utils/math/SafeMath.sol\":2813:2820  uint256 */\n      0x00\n        /* \"https://github.com/OpenZeppelin/openzeppelin-contracts/blob/master/contracts/utils/math/SafeMath.sol\":2843:2844  b */\n      dup2\n        /* \"https://github.com/OpenZeppelin/openzeppelin-contracts/blob/master/contracts/utils/math/SafeMath.sol\":2839:2840  a */\n      dup4\n        /* \"https://github.com/OpenZeppelin/openzeppelin-contracts/blob/master/contracts/utils/math/SafeMath.sol\":2839:2844  a + b */\n      tag_183\n      swap2\n      swap1\n      tag_184\n      jump\t// in\n    tag_183:\n        /* \"https://github.com/OpenZeppelin/openzeppelin-contracts/blob/master/contracts/utils/math/SafeMath.sol\":2832:2844  return a + b */\n      swap1\n      pop\n        /* \"https://github.com/OpenZeppelin/openzeppelin-contracts/blob/master/contracts/utils/math/SafeMath.sol\":2755:2851  function add(uint256 a, uint256 b) internal pure returns (uint256) {... */\n      swap3\n      swap2\n      pop\n      pop\n      jump\t// out\n        /* \"https://github.com/OpenZeppelin/openzeppelin-contracts/blob/master/contracts/utils/Context.sol\":640:736  function _msgSender() internal view virtual returns (address) {... */\n    tag_59:\n        /* \"https://github.com/OpenZeppelin/openzeppelin-contracts/blob/master/contracts/utils/Context.sol\":693:700  address */\n      0x00\n        /* \"https://github.com/OpenZeppelin/openzeppelin-contracts/blob/master/contracts/utils/Context.sol\":719:729  msg.sender */\n      caller\n        /* \"https://github.com/OpenZeppelin/openzeppelin-contracts/blob/master/contracts/utils/Context.sol\":712:729  return msg.sender */\n      swap1\n      pop\n        /* \"https://github.com/OpenZeppelin/openzeppelin-contracts/blob/master/contracts/utils/Context.sol\":640:736  function _msgSender() internal view virtual returns (address) {... */\n      swap1\n      jump\t// out\n        /* \"contracts/SimpleVoting.sol\":9311:9461  function bytes32ToString(bytes32 byt) ... */\n    tag_175:\n        /* \"contracts/SimpleVoting.sol\":9389:9402  string memory */\n      0x60\n        /* \"contracts/SimpleVoting.sol\":9448:9451  byt */\n      dup2\n        /* \"contracts/SimpleVoting.sol\":9430:9452  abi.encodePacked (byt) */\n      add(0x20, mload(0x40))\n      tag_187\n      swap2\n      swap1\n      tag_92\n      jump\t// in\n    tag_187:\n      mload(0x40)\n      0x20\n      dup2\n      dup4\n      sub\n      sub\n      dup2\n      mstore\n      swap1\n      0x40\n      mstore\n        /* \"contracts/SimpleVoting.sol\":9415:9453  return string (abi.encodePacked (byt)) */\n      swap1\n      pop\n        /* \"contracts/SimpleVoting.sol\":9311:9461  function bytes32ToString(bytes32 byt) ... */\n      swap2\n      swap1\n      pop\n      jump\t// out\n    tag_129:\n      pop\n      dup1\n      sload\n      0x00\n      dup3\n      sstore\n      swap1\n      0x00\n      mstore\n      keccak256(0x00, 0x20)\n      swap1\n      dup2\n      add\n      swap1\n      tag_189\n      swap2\n      swap1\n      tag_190\n      jump\t// in\n    tag_189:\n      pop\n      jump\t// out\n    tag_190:\n    tag_191:\n      dup1\n      dup3\n      gt\n      iszero\n      tag_192\n      jumpi\n      0x00\n      dup2\n      0x00\n      swap1\n      sstore\n      pop\n      0x01\n      add\n      jump(tag_191)\n    tag_192:\n      pop\n      swap1\n      jump\t// out\n        /* \"#utility.yul\":88:205   */\n    tag_194:\n        /* \"#utility.yul\":197:198   */\n      0x00\n        /* \"#utility.yul\":194:195   */\n      dup1\n        /* \"#utility.yul\":187:199   */\n      revert\n        /* \"#utility.yul\":334:411   */\n    tag_196:\n        /* \"#utility.yul\":371:378   */\n      0x00\n        /* \"#utility.yul\":400:405   */\n      dup2\n        /* \"#utility.yul\":389:405   */\n      swap1\n      pop\n        /* \"#utility.yul\":334:411   */\n      swap2\n      swap1\n      pop\n      jump\t// out\n        /* \"#utility.yul\":417:539   */\n    tag_197:\n        /* \"#utility.yul\":490:514   */\n      tag_246\n        /* \"#utility.yul\":508:513   */\n      dup2\n        /* \"#utility.yul\":490:514   */\n      tag_196\n      jump\t// in\n    tag_246:\n        /* \"#utility.yul\":483:488   */\n      dup2\n        /* \"#utility.yul\":480:515   */\n      eq\n        /* \"#utility.yul\":470:533   */\n      tag_247\n      jumpi\n        /* \"#utility.yul\":529:530   */\n      0x00\n        /* \"#utility.yul\":526:527   */\n      dup1\n        /* \"#utility.yul\":519:531   */\n      revert\n        /* \"#utility.yul\":470:533   */\n    tag_247:\n        /* \"#utility.yul\":417:539   */\n      pop\n      jump\t// out\n        /* \"#utility.yul\":545:684   */\n    tag_198:\n        /* \"#utility.yul\":591:596   */\n      0x00\n        /* \"#utility.yul\":629:635   */\n      dup2\n        /* \"#utility.yul\":616:636   */\n      calldataload\n        /* \"#utility.yul\":607:636   */\n      swap1\n      pop\n        /* \"#utility.yul\":645:678   */\n      tag_249\n        /* \"#utility.yul\":672:677   */\n      dup2\n        /* \"#utility.yul\":645:678   */\n      tag_197\n      jump\t// in\n    tag_249:\n        /* \"#utility.yul\":545:684   */\n      swap3\n      swap2\n      pop\n      pop\n      jump\t// out\n        /* \"#utility.yul\":690:1019   */\n    tag_16:\n        /* \"#utility.yul\":749:755   */\n      0x00\n        /* \"#utility.yul\":798:800   */\n      0x20\n        /* \"#utility.yul\":786:795   */\n      dup3\n        /* \"#utility.yul\":777:784   */\n      dup5\n        /* \"#utility.yul\":773:796   */\n      sub\n        /* \"#utility.yul\":769:801   */\n      slt\n        /* \"#utility.yul\":766:885   */\n      iszero\n      tag_251\n      jumpi\n        /* \"#utility.yul\":804:883   */\n      tag_252\n      tag_194\n      jump\t// in\n    tag_252:\n        /* \"#utility.yul\":766:885   */\n    tag_251:\n        /* \"#utility.yul\":924:925   */\n      0x00\n        /* \"#utility.yul\":949:1002   */\n      tag_253\n        /* \"#utility.yul\":994:1001   */\n      dup5\n        /* \"#utility.yul\":985:991   */\n      dup3\n        /* \"#utility.yul\":974:983   */\n      dup6\n        /* \"#utility.yul\":970:992   */\n      add\n        /* \"#utility.yul\":949:1002   */\n      tag_198\n      jump\t// in\n    tag_253:\n        /* \"#utility.yul\":939:1002   */\n      swap2\n      pop\n        /* \"#utility.yul\":895:1012   */\n      pop\n        /* \"#utility.yul\":690:1019   */\n      swap3\n      swap2\n      pop\n      pop\n      jump\t// out\n        /* \"#utility.yul\":1025:1124   */\n    tag_199:\n        /* \"#utility.yul\":1077:1083   */\n      0x00\n        /* \"#utility.yul\":1111:1116   */\n      dup2\n        /* \"#utility.yul\":1105:1117   */\n      mload\n        /* \"#utility.yul\":1095:1117   */\n      swap1\n      pop\n        /* \"#utility.yul\":1025:1124   */\n      swap2\n      swap1\n      pop\n      jump\t// out\n        /* \"#utility.yul\":1130:1299   */\n    tag_200:\n        /* \"#utility.yul\":1214:1225   */\n      0x00\n        /* \"#utility.yul\":1248:1254   */\n      dup3\n        /* \"#utility.yul\":1243:1246   */\n      dup3\n        /* \"#utility.yul\":1236:1255   */\n      mstore\n        /* \"#utility.yul\":1288:1292   */\n      0x20\n        /* \"#utility.yul\":1283:1286   */\n      dup3\n        /* \"#utility.yul\":1279:1293   */\n      add\n        /* \"#utility.yul\":1264:1293   */\n      swap1\n      pop\n        /* \"#utility.yul\":1130:1299   */\n      swap3\n      swap2\n      pop\n      pop\n      jump\t// out\n        /* \"#utility.yul\":1305:1612   */\n    tag_201:\n        /* \"#utility.yul\":1373:1374   */\n      0x00\n        /* \"#utility.yul\":1383:1496   */\n    tag_257:\n        /* \"#utility.yul\":1397:1403   */\n      dup4\n        /* \"#utility.yul\":1394:1395   */\n      dup2\n        /* \"#utility.yul\":1391:1404   */\n      lt\n        /* \"#utility.yul\":1383:1496   */\n      iszero\n      tag_259\n      jumpi\n        /* \"#utility.yul\":1482:1483   */\n      dup1\n        /* \"#utility.yul\":1477:1480   */\n      dup3\n        /* \"#utility.yul\":1473:1484   */\n      add\n        /* \"#utility.yul\":1467:1485   */\n      mload\n        /* \"#utility.yul\":1463:1464   */\n      dup2\n        /* \"#utility.yul\":1458:1461   */\n      dup5\n        /* \"#utility.yul\":1454:1465   */\n      add\n        /* \"#utility.yul\":1447:1486   */\n      mstore\n        /* \"#utility.yul\":1419:1421   */\n      0x20\n        /* \"#utility.yul\":1416:1417   */\n      dup2\n        /* \"#utility.yul\":1412:1422   */\n      add\n        /* \"#utility.yul\":1407:1422   */\n      swap1\n      pop\n        /* \"#utility.yul\":1383:1496   */\n      jump(tag_257)\n    tag_259:\n        /* \"#utility.yul\":1514:1520   */\n      dup4\n        /* \"#utility.yul\":1511:1512   */\n      dup2\n        /* \"#utility.yul\":1508:1521   */\n      gt\n        /* \"#utility.yul\":1505:1606   */\n      iszero\n      tag_260\n      jumpi\n        /* \"#utility.yul\":1594:1595   */\n      0x00\n        /* \"#utility.yul\":1585:1591   */\n      dup5\n        /* \"#utility.yul\":1580:1583   */\n      dup5\n        /* \"#utility.yul\":1576:1592   */\n      add\n        /* \"#utility.yul\":1569:1596   */\n      mstore\n        /* \"#utility.yul\":1505:1606   */\n    tag_260:\n        /* \"#utility.yul\":1354:1612   */\n      pop\n        /* \"#utility.yul\":1305:1612   */\n      pop\n      pop\n      pop\n      jump\t// out\n        /* \"#utility.yul\":1618:1720   */\n    tag_202:\n        /* \"#utility.yul\":1659:1665   */\n      0x00\n        /* \"#utility.yul\":1710:1712   */\n      0x1f\n        /* \"#utility.yul\":1706:1713   */\n      not\n        /* \"#utility.yul\":1701:1703   */\n      0x1f\n        /* \"#utility.yul\":1694:1699   */\n      dup4\n        /* \"#utility.yul\":1690:1704   */\n      add\n        /* \"#utility.yul\":1686:1714   */\n      and\n        /* \"#utility.yul\":1676:1714   */\n      swap1\n      pop\n        /* \"#utility.yul\":1618:1720   */\n      swap2\n      swap1\n      pop\n      jump\t// out\n        /* \"#utility.yul\":1726:2090   */\n    tag_203:\n        /* \"#utility.yul\":1814:1817   */\n      0x00\n        /* \"#utility.yul\":1842:1881   */\n      tag_263\n        /* \"#utility.yul\":1875:1880   */\n      dup3\n        /* \"#utility.yul\":1842:1881   */\n      tag_199\n      jump\t// in\n    tag_263:\n        /* \"#utility.yul\":1897:1968   */\n      tag_264\n        /* \"#utility.yul\":1961:1967   */\n      dup2\n        /* \"#utility.yul\":1956:1959   */\n      dup6\n        /* \"#utility.yul\":1897:1968   */\n      tag_200\n      jump\t// in\n    tag_264:\n        /* \"#utility.yul\":1890:1968   */\n      swap4\n      pop\n        /* \"#utility.yul\":1977:2029   */\n      tag_265\n        /* \"#utility.yul\":2022:2028   */\n      dup2\n        /* \"#utility.yul\":2017:2020   */\n      dup6\n        /* \"#utility.yul\":2010:2014   */\n      0x20\n        /* \"#utility.yul\":2003:2008   */\n      dup7\n        /* \"#utility.yul\":1999:2015   */\n      add\n        /* \"#utility.yul\":1977:2029   */\n      tag_201\n      jump\t// in\n    tag_265:\n        /* \"#utility.yul\":2054:2083   */\n      tag_266\n        /* \"#utility.yul\":2076:2082   */\n      dup2\n        /* \"#utility.yul\":2054:2083   */\n      tag_202\n      jump\t// in\n    tag_266:\n        /* \"#utility.yul\":2049:2052   */\n      dup5\n        /* \"#utility.yul\":2045:2084   */\n      add\n        /* \"#utility.yul\":2038:2084   */\n      swap2\n      pop\n        /* \"#utility.yul\":1818:2090   */\n      pop\n        /* \"#utility.yul\":1726:2090   */\n      swap3\n      swap2\n      pop\n      pop\n      jump\t// out\n        /* \"#utility.yul\":2096:2409   */\n    tag_21:\n        /* \"#utility.yul\":2209:2213   */\n      0x00\n        /* \"#utility.yul\":2247:2249   */\n      0x20\n        /* \"#utility.yul\":2236:2245   */\n      dup3\n        /* \"#utility.yul\":2232:2250   */\n      add\n        /* \"#utility.yul\":2224:2250   */\n      swap1\n      pop\n        /* \"#utility.yul\":2296:2305   */\n      dup2\n        /* \"#utility.yul\":2290:2294   */\n      dup2\n        /* \"#utility.yul\":2286:2306   */\n      sub\n        /* \"#utility.yul\":2282:2283   */\n      0x00\n        /* \"#utility.yul\":2271:2280   */\n      dup4\n        /* \"#utility.yul\":2267:2284   */\n      add\n        /* \"#utility.yul\":2260:2307   */\n      mstore\n        /* \"#utility.yul\":2324:2402   */\n      tag_268\n        /* \"#utility.yul\":2397:2401   */\n      dup2\n        /* \"#utility.yul\":2388:2394   */\n      dup5\n        /* \"#utility.yul\":2324:2402   */\n      tag_203\n      jump\t// in\n    tag_268:\n        /* \"#utility.yul\":2316:2402   */\n      swap1\n      pop\n        /* \"#utility.yul\":2096:2409   */\n      swap3\n      swap2\n      pop\n      pop\n      jump\t// out\n        /* \"#utility.yul\":2415:2541   */\n    tag_204:\n        /* \"#utility.yul\":2452:2459   */\n      0x00\n        /* \"#utility.yul\":2492:2534   */\n      0xffffffffffffffffffffffffffffffffffffffff\n        /* \"#utility.yul\":2485:2490   */\n      dup3\n        /* \"#utility.yul\":2481:2535   */\n      and\n        /* \"#utility.yul\":2470:2535   */\n      swap1\n      pop\n        /* \"#utility.yul\":2415:2541   */\n      swap2\n      swap1\n      pop\n      jump\t// out\n        /* \"#utility.yul\":2547:2643   */\n    tag_205:\n        /* \"#utility.yul\":2584:2591   */\n      0x00\n        /* \"#utility.yul\":2613:2637   */\n      tag_271\n        /* \"#utility.yul\":2631:2636   */\n      dup3\n        /* \"#utility.yul\":2613:2637   */\n      tag_204\n      jump\t// in\n    tag_271:\n        /* \"#utility.yul\":2602:2637   */\n      swap1\n      pop\n        /* \"#utility.yul\":2547:2643   */\n      swap2\n      swap1\n      pop\n      jump\t// out\n        /* \"#utility.yul\":2649:2771   */\n    tag_206:\n        /* \"#utility.yul\":2722:2746   */\n      tag_273\n        /* \"#utility.yul\":2740:2745   */\n      dup2\n        /* \"#utility.yul\":2722:2746   */\n      tag_205\n      jump\t// in\n    tag_273:\n        /* \"#utility.yul\":2715:2720   */\n      dup2\n        /* \"#utility.yul\":2712:2747   */\n      eq\n        /* \"#utility.yul\":2702:2765   */\n      tag_274\n      jumpi\n        /* \"#utility.yul\":2761:2762   */\n      0x00\n        /* \"#utility.yul\":2758:2759   */\n      dup1\n        /* \"#utility.yul\":2751:2763   */\n      revert\n        /* \"#utility.yul\":2702:2765   */\n    tag_274:\n        /* \"#utility.yul\":2649:2771   */\n      pop\n      jump\t// out\n        /* \"#utility.yul\":2777:2916   */\n    tag_207:\n        /* \"#utility.yul\":2823:2828   */\n      0x00\n        /* \"#utility.yul\":2861:2867   */\n      dup2\n        /* \"#utility.yul\":2848:2868   */\n      calldataload\n        /* \"#utility.yul\":2839:2868   */\n      swap1\n      pop\n        /* \"#utility.yul\":2877:2910   */\n      tag_276\n        /* \"#utility.yul\":2904:2909   */\n      dup2\n        /* \"#utility.yul\":2877:2910   */\n      tag_206\n      jump\t// in\n    tag_276:\n        /* \"#utility.yul\":2777:2916   */\n      swap3\n      swap2\n      pop\n      pop\n      jump\t// out\n        /* \"#utility.yul\":2922:3251   */\n    tag_24:\n        /* \"#utility.yul\":2981:2987   */\n      0x00\n        /* \"#utility.yul\":3030:3032   */\n      0x20\n        /* \"#utility.yul\":3018:3027   */\n      dup3\n        /* \"#utility.yul\":3009:3016   */\n      dup5\n        /* \"#utility.yul\":3005:3028   */\n      sub\n        /* \"#utility.yul\":3001:3033   */\n      slt\n        /* \"#utility.yul\":2998:3117   */\n      iszero\n      tag_278\n      jumpi\n        /* \"#utility.yul\":3036:3115   */\n      tag_279\n      tag_194\n      jump\t// in\n    tag_279:\n        /* \"#utility.yul\":2998:3117   */\n    tag_278:\n        /* \"#utility.yul\":3156:3157   */\n      0x00\n        /* \"#utility.yul\":3181:3234   */\n      tag_280\n        /* \"#utility.yul\":3226:3233   */\n      dup5\n        /* \"#utility.yul\":3217:3223   */\n      dup3\n        /* \"#utility.yul\":3206:3215   */\n      dup6\n        /* \"#utility.yul\":3202:3224   */\n      add\n        /* \"#utility.yul\":3181:3234   */\n      tag_207\n      jump\t// in\n    tag_280:\n        /* \"#utility.yul\":3171:3234   */\n      swap2\n      pop\n        /* \"#utility.yul\":3127:3244   */\n      pop\n        /* \"#utility.yul\":2922:3251   */\n      swap3\n      swap2\n      pop\n      pop\n      jump\t// out\n        /* \"#utility.yul\":3257:3375   */\n    tag_208:\n        /* \"#utility.yul\":3344:3368   */\n      tag_282\n        /* \"#utility.yul\":3362:3367   */\n      dup2\n        /* \"#utility.yul\":3344:3368   */\n      tag_196\n      jump\t// in\n    tag_282:\n        /* \"#utility.yul\":3339:3342   */\n      dup3\n        /* \"#utility.yul\":3332:3369   */\n      mstore\n        /* \"#utility.yul\":3257:3375   */\n      pop\n      pop\n      jump\t// out\n        /* \"#utility.yul\":3381:3471   */\n    tag_209:\n        /* \"#utility.yul\":3415:3422   */\n      0x00\n        /* \"#utility.yul\":3458:3463   */\n      dup2\n        /* \"#utility.yul\":3451:3464   */\n      iszero\n        /* \"#utility.yul\":3444:3465   */\n      iszero\n        /* \"#utility.yul\":3433:3465   */\n      swap1\n      pop\n        /* \"#utility.yul\":3381:3471   */\n      swap2\n      swap1\n      pop\n      jump\t// out\n        /* \"#utility.yul\":3477:3586   */\n    tag_210:\n        /* \"#utility.yul\":3558:3579   */\n      tag_285\n        /* \"#utility.yul\":3573:3578   */\n      dup2\n        /* \"#utility.yul\":3558:3579   */\n      tag_209\n      jump\t// in\n    tag_285:\n        /* \"#utility.yul\":3553:3556   */\n      dup3\n        /* \"#utility.yul\":3546:3580   */\n      mstore\n        /* \"#utility.yul\":3477:3586   */\n      pop\n      pop\n      jump\t// out\n        /* \"#utility.yul\":3592:3710   */\n    tag_211:\n        /* \"#utility.yul\":3679:3703   */\n      tag_287\n        /* \"#utility.yul\":3697:3702   */\n      dup2\n        /* \"#utility.yul\":3679:3703   */\n      tag_205\n      jump\t// in\n    tag_287:\n        /* \"#utility.yul\":3674:3677   */\n      dup3\n        /* \"#utility.yul\":3667:3704   */\n      mstore\n        /* \"#utility.yul\":3592:3710   */\n      pop\n      pop\n      jump\t// out\n        /* \"#utility.yul\":3716:4257   */\n    tag_35:\n        /* \"#utility.yul\":3887:3891   */\n      0x00\n        /* \"#utility.yul\":3925:3928   */\n      0x80\n        /* \"#utility.yul\":3914:3923   */\n      dup3\n        /* \"#utility.yul\":3910:3929   */\n      add\n        /* \"#utility.yul\":3902:3929   */\n      swap1\n      pop\n        /* \"#utility.yul\":3939:4010   */\n      tag_289\n        /* \"#utility.yul\":4007:4008   */\n      0x00\n        /* \"#utility.yul\":3996:4005   */\n      dup4\n        /* \"#utility.yul\":3992:4009   */\n      add\n        /* \"#utility.yul\":3983:3989   */\n      dup8\n        /* \"#utility.yul\":3939:4010   */\n      tag_208\n      jump\t// in\n    tag_289:\n        /* \"#utility.yul\":4020:4086   */\n      tag_290\n        /* \"#utility.yul\":4082:4084   */\n      0x20\n        /* \"#utility.yul\":4071:4080   */\n      dup4\n        /* \"#utility.yul\":4067:4085   */\n      add\n        /* \"#utility.yul\":4058:4064   */\n      dup7\n        /* \"#utility.yul\":4020:4086   */\n      tag_210\n      jump\t// in\n    tag_290:\n        /* \"#utility.yul\":4096:4168   */\n      tag_291\n        /* \"#utility.yul\":4164:4166   */\n      0x40\n        /* \"#utility.yul\":4153:4162   */\n      dup4\n        /* \"#utility.yul\":4149:4167   */\n      add\n        /* \"#utility.yul\":4140:4146   */\n      dup6\n        /* \"#utility.yul\":4096:4168   */\n      tag_211\n      jump\t// in\n    tag_291:\n        /* \"#utility.yul\":4178:4250   */\n      tag_292\n        /* \"#utility.yul\":4246:4248   */\n      0x60\n        /* \"#utility.yul\":4235:4244   */\n      dup4\n        /* \"#utility.yul\":4231:4249   */\n      add\n        /* \"#utility.yul\":4222:4228   */\n      dup5\n        /* \"#utility.yul\":4178:4250   */\n      tag_208\n      jump\t// in\n    tag_292:\n        /* \"#utility.yul\":3716:4257   */\n      swap6\n      swap5\n      pop\n      pop\n      pop\n      pop\n      pop\n      jump\t// out\n        /* \"#utility.yul\":4263:4686   */\n    tag_40:\n        /* \"#utility.yul\":4404:4408   */\n      0x00\n        /* \"#utility.yul\":4442:4444   */\n      0x40\n        /* \"#utility.yul\":4431:4440   */\n      dup3\n        /* \"#utility.yul\":4427:4445   */\n      add\n        /* \"#utility.yul\":4419:4445   */\n      swap1\n      pop\n        /* \"#utility.yul\":4491:4500   */\n      dup2\n        /* \"#utility.yul\":4485:4489   */\n      dup2\n        /* \"#utility.yul\":4481:4501   */\n      sub\n        /* \"#utility.yul\":4477:4478   */\n      0x00\n        /* \"#utility.yul\":4466:4475   */\n      dup4\n        /* \"#utility.yul\":4462:4479   */\n      add\n        /* \"#utility.yul\":4455:4502   */\n      mstore\n        /* \"#utility.yul\":4519:4597   */\n      tag_294\n        /* \"#utility.yul\":4592:4596   */\n      dup2\n        /* \"#utility.yul\":4583:4589   */\n      dup6\n        /* \"#utility.yul\":4519:4597   */\n      tag_203\n      jump\t// in\n    tag_294:\n        /* \"#utility.yul\":4511:4597   */\n      swap1\n      pop\n        /* \"#utility.yul\":4607:4679   */\n      tag_295\n        /* \"#utility.yul\":4675:4677   */\n      0x20\n        /* \"#utility.yul\":4664:4673   */\n      dup4\n        /* \"#utility.yul\":4660:4678   */\n      add\n        /* \"#utility.yul\":4651:4657   */\n      dup5\n        /* \"#utility.yul\":4607:4679   */\n      tag_208\n      jump\t// in\n    tag_295:\n        /* \"#utility.yul\":4263:4686   */\n      swap4\n      swap3\n      pop\n      pop\n      pop\n      jump\t// out\n        /* \"#utility.yul\":4692:4914   */\n    tag_44:\n        /* \"#utility.yul\":4785:4789   */\n      0x00\n        /* \"#utility.yul\":4823:4825   */\n      0x20\n        /* \"#utility.yul\":4812:4821   */\n      dup3\n        /* \"#utility.yul\":4808:4826   */\n      add\n        /* \"#utility.yul\":4800:4826   */\n      swap1\n      pop\n        /* \"#utility.yul\":4836:4907   */\n      tag_297\n        /* \"#utility.yul\":4904:4905   */\n      0x00\n        /* \"#utility.yul\":4893:4902   */\n      dup4\n        /* \"#utility.yul\":4889:4906   */\n      add\n        /* \"#utility.yul\":4880:4886   */\n      dup5\n        /* \"#utility.yul\":4836:4907   */\n      tag_211\n      jump\t// in\n    tag_297:\n        /* \"#utility.yul\":4692:4914   */\n      swap3\n      swap2\n      pop\n      pop\n      jump\t// out\n        /* \"#utility.yul\":4920:5142   */\n    tag_48:\n        /* \"#utility.yul\":5013:5017   */\n      0x00\n        /* \"#utility.yul\":5051:5053   */\n      0x20\n        /* \"#utility.yul\":5040:5049   */\n      dup3\n        /* \"#utility.yul\":5036:5054   */\n      add\n        /* \"#utility.yul\":5028:5054   */\n      swap1\n      pop\n        /* \"#utility.yul\":5064:5135   */\n      tag_299\n        /* \"#utility.yul\":5132:5133   */\n      0x00\n        /* \"#utility.yul\":5121:5130   */\n      dup4\n        /* \"#utility.yul\":5117:5134   */\n      add\n        /* \"#utility.yul\":5108:5114   */\n      dup5\n        /* \"#utility.yul\":5064:5135   */\n      tag_208\n      jump\t// in\n    tag_299:\n        /* \"#utility.yul\":4920:5142   */\n      swap3\n      swap2\n      pop\n      pop\n      jump\t// out\n        /* \"#utility.yul\":5148:5262   */\n    tag_212:\n        /* \"#utility.yul\":5215:5221   */\n      0x00\n        /* \"#utility.yul\":5249:5254   */\n      dup2\n        /* \"#utility.yul\":5243:5255   */\n      mload\n        /* \"#utility.yul\":5233:5255   */\n      swap1\n      pop\n        /* \"#utility.yul\":5148:5262   */\n      swap2\n      swap1\n      pop\n      jump\t// out\n        /* \"#utility.yul\":5268:5452   */\n    tag_213:\n        /* \"#utility.yul\":5367:5378   */\n      0x00\n        /* \"#utility.yul\":5401:5407   */\n      dup3\n        /* \"#utility.yul\":5396:5399   */\n      dup3\n        /* \"#utility.yul\":5389:5408   */\n      mstore\n        /* \"#utility.yul\":5441:5445   */\n      0x20\n        /* \"#utility.yul\":5436:5439   */\n      dup3\n        /* \"#utility.yul\":5432:5446   */\n      add\n        /* \"#utility.yul\":5417:5446   */\n      swap1\n      pop\n        /* \"#utility.yul\":5268:5452   */\n      swap3\n      swap2\n      pop\n      pop\n      jump\t// out\n        /* \"#utility.yul\":5458:5590   */\n    tag_214:\n        /* \"#utility.yul\":5525:5529   */\n      0x00\n        /* \"#utility.yul\":5548:5551   */\n      dup2\n        /* \"#utility.yul\":5540:5551   */\n      swap1\n      pop\n        /* \"#utility.yul\":5578:5582   */\n      0x20\n        /* \"#utility.yul\":5573:5576   */\n      dup3\n        /* \"#utility.yul\":5569:5583   */\n      add\n        /* \"#utility.yul\":5561:5583   */\n      swap1\n      pop\n        /* \"#utility.yul\":5458:5590   */\n      swap2\n      swap1\n      pop\n      jump\t// out\n        /* \"#utility.yul\":5596:5704   */\n    tag_215:\n        /* \"#utility.yul\":5673:5697   */\n      tag_304\n        /* \"#utility.yul\":5691:5696   */\n      dup2\n        /* \"#utility.yul\":5673:5697   */\n      tag_196\n      jump\t// in\n    tag_304:\n        /* \"#utility.yul\":5668:5671   */\n      dup3\n        /* \"#utility.yul\":5661:5698   */\n      mstore\n        /* \"#utility.yul\":5596:5704   */\n      pop\n      pop\n      jump\t// out\n        /* \"#utility.yul\":5710:5889   */\n    tag_216:\n        /* \"#utility.yul\":5779:5789   */\n      0x00\n        /* \"#utility.yul\":5800:5846   */\n      tag_306\n        /* \"#utility.yul\":5842:5845   */\n      dup4\n        /* \"#utility.yul\":5834:5840   */\n      dup4\n        /* \"#utility.yul\":5800:5846   */\n      tag_215\n      jump\t// in\n    tag_306:\n        /* \"#utility.yul\":5878:5882   */\n      0x20\n        /* \"#utility.yul\":5873:5876   */\n      dup4\n        /* \"#utility.yul\":5869:5883   */\n      add\n        /* \"#utility.yul\":5855:5883   */\n      swap1\n      pop\n        /* \"#utility.yul\":5710:5889   */\n      swap3\n      swap2\n      pop\n      pop\n      jump\t// out\n        /* \"#utility.yul\":5895:6008   */\n    tag_217:\n        /* \"#utility.yul\":5965:5969   */\n      0x00\n        /* \"#utility.yul\":5997:6001   */\n      0x20\n        /* \"#utility.yul\":5992:5995   */\n      dup3\n        /* \"#utility.yul\":5988:6002   */\n      add\n        /* \"#utility.yul\":5980:6002   */\n      swap1\n      pop\n        /* \"#utility.yul\":5895:6008   */\n      swap2\n      swap1\n      pop\n      jump\t// out\n        /* \"#utility.yul\":6044:6776   */\n    tag_218:\n        /* \"#utility.yul\":6163:6166   */\n      0x00\n        /* \"#utility.yul\":6192:6246   */\n      tag_309\n        /* \"#utility.yul\":6240:6245   */\n      dup3\n        /* \"#utility.yul\":6192:6246   */\n      tag_212\n      jump\t// in\n    tag_309:\n        /* \"#utility.yul\":6262:6348   */\n      tag_310\n        /* \"#utility.yul\":6341:6347   */\n      dup2\n        /* \"#utility.yul\":6336:6339   */\n      dup6\n        /* \"#utility.yul\":6262:6348   */\n      tag_213\n      jump\t// in\n    tag_310:\n        /* \"#utility.yul\":6255:6348   */\n      swap4\n      pop\n        /* \"#utility.yul\":6372:6428   */\n      tag_311\n        /* \"#utility.yul\":6422:6427   */\n      dup4\n        /* \"#utility.yul\":6372:6428   */\n      tag_214\n      jump\t// in\n    tag_311:\n        /* \"#utility.yul\":6451:6458   */\n      dup1\n        /* \"#utility.yul\":6482:6483   */\n      0x00\n        /* \"#utility.yul\":6467:6751   */\n    tag_312:\n        /* \"#utility.yul\":6492:6498   */\n      dup4\n        /* \"#utility.yul\":6489:6490   */\n      dup2\n        /* \"#utility.yul\":6486:6499   */\n      lt\n        /* \"#utility.yul\":6467:6751   */\n      iszero\n      tag_314\n      jumpi\n        /* \"#utility.yul\":6568:6574   */\n      dup2\n        /* \"#utility.yul\":6562:6575   */\n      mload\n        /* \"#utility.yul\":6595:6658   */\n      tag_315\n        /* \"#utility.yul\":6654:6657   */\n      dup9\n        /* \"#utility.yul\":6639:6652   */\n      dup3\n        /* \"#utility.yul\":6595:6658   */\n      tag_216\n      jump\t// in\n    tag_315:\n        /* \"#utility.yul\":6588:6658   */\n      swap8\n      pop\n        /* \"#utility.yul\":6681:6741   */\n      tag_316\n        /* \"#utility.yul\":6734:6740   */\n      dup4\n        /* \"#utility.yul\":6681:6741   */\n      tag_217\n      jump\t// in\n    tag_316:\n        /* \"#utility.yul\":6671:6741   */\n      swap3\n      pop\n        /* \"#utility.yul\":6527:6751   */\n      pop\n        /* \"#utility.yul\":6514:6515   */\n      0x01\n        /* \"#utility.yul\":6511:6512   */\n      dup2\n        /* \"#utility.yul\":6507:6516   */\n      add\n        /* \"#utility.yul\":6502:6516   */\n      swap1\n      pop\n        /* \"#utility.yul\":6467:6751   */\n      jump(tag_312)\n    tag_314:\n        /* \"#utility.yul\":6471:6485   */\n      pop\n        /* \"#utility.yul\":6767:6770   */\n      dup6\n        /* \"#utility.yul\":6760:6770   */\n      swap4\n      pop\n        /* \"#utility.yul\":6168:6776   */\n      pop\n      pop\n      pop\n        /* \"#utility.yul\":6044:6776   */\n      swap3\n      swap2\n      pop\n      pop\n      jump\t// out\n        /* \"#utility.yul\":6782:7155   */\n    tag_52:\n        /* \"#utility.yul\":6925:6929   */\n      0x00\n        /* \"#utility.yul\":6963:6965   */\n      0x20\n        /* \"#utility.yul\":6952:6961   */\n      dup3\n        /* \"#utility.yul\":6948:6966   */\n      add\n        /* \"#utility.yul\":6940:6966   */\n      swap1\n      pop\n        /* \"#utility.yul\":7012:7021   */\n      dup2\n        /* \"#utility.yul\":7006:7010   */\n      dup2\n        /* \"#utility.yul\":7002:7022   */\n      sub\n        /* \"#utility.yul\":6998:6999   */\n      0x00\n        /* \"#utility.yul\":6987:6996   */\n      dup4\n        /* \"#utility.yul\":6983:7000   */\n      add\n        /* \"#utility.yul\":6976:7023   */\n      mstore\n        /* \"#utility.yul\":7040:7148   */\n      tag_318\n        /* \"#utility.yul\":7143:7147   */\n      dup2\n        /* \"#utility.yul\":7134:7140   */\n      dup5\n        /* \"#utility.yul\":7040:7148   */\n      tag_218\n      jump\t// in\n    tag_318:\n        /* \"#utility.yul\":7032:7148   */\n      swap1\n      pop\n        /* \"#utility.yul\":6782:7155   */\n      swap3\n      swap2\n      pop\n      pop\n      jump\t// out\n        /* \"#utility.yul\":7161:7391   */\n    tag_219:\n        /* \"#utility.yul\":7301:7335   */\n      0x53696d706c65566f74696e673a2050726f706f73616c20696e646578206f7574\n        /* \"#utility.yul\":7297:7298   */\n      0x00\n        /* \"#utility.yul\":7289:7295   */\n      dup3\n        /* \"#utility.yul\":7285:7299   */\n      add\n        /* \"#utility.yul\":7278:7336   */\n      mstore\n        /* \"#utility.yul\":7370:7383   */\n      0x206f6620626f756e64732e000000000000000000000000000000000000000000\n        /* \"#utility.yul\":7365:7367   */\n      0x20\n        /* \"#utility.yul\":7357:7363   */\n      dup3\n        /* \"#utility.yul\":7353:7368   */\n      add\n        /* \"#utility.yul\":7346:7384   */\n      mstore\n        /* \"#utility.yul\":7161:7391   */\n      pop\n      jump\t// out\n        /* \"#utility.yul\":7397:7763   */\n    tag_220:\n        /* \"#utility.yul\":7539:7542   */\n      0x00\n        /* \"#utility.yul\":7560:7627   */\n      tag_321\n        /* \"#utility.yul\":7624:7626   */\n      0x2b\n        /* \"#utility.yul\":7619:7622   */\n      dup4\n        /* \"#utility.yul\":7560:7627   */\n      tag_200\n      jump\t// in\n    tag_321:\n        /* \"#utility.yul\":7553:7627   */\n      swap2\n      pop\n        /* \"#utility.yul\":7636:7729   */\n      tag_322\n        /* \"#utility.yul\":7725:7728   */\n      dup3\n        /* \"#utility.yul\":7636:7729   */\n      tag_219\n      jump\t// in\n    tag_322:\n        /* \"#utility.yul\":7754:7756   */\n      0x40\n        /* \"#utility.yul\":7749:7752   */\n      dup3\n        /* \"#utility.yul\":7745:7757   */\n      add\n        /* \"#utility.yul\":7738:7757   */\n      swap1\n      pop\n        /* \"#utility.yul\":7397:7763   */\n      swap2\n      swap1\n      pop\n      jump\t// out\n        /* \"#utility.yul\":7769:8188   */\n    tag_57:\n        /* \"#utility.yul\":7935:7939   */\n      0x00\n        /* \"#utility.yul\":7973:7975   */\n      0x20\n        /* \"#utility.yul\":7962:7971   */\n      dup3\n        /* \"#utility.yul\":7958:7976   */\n      add\n        /* \"#utility.yul\":7950:7976   */\n      swap1\n      pop\n        /* \"#utility.yul\":8022:8031   */\n      dup2\n        /* \"#utility.yul\":8016:8020   */\n      dup2\n        /* \"#utility.yul\":8012:8032   */\n      sub\n        /* \"#utility.yul\":8008:8009   */\n      0x00\n        /* \"#utility.yul\":7997:8006   */\n      dup4\n        /* \"#utility.yul\":7993:8010   */\n      add\n        /* \"#utility.yul\":7986:8033   */\n      mstore\n        /* \"#utility.yul\":8050:8181   */\n      tag_324\n        /* \"#utility.yul\":8176:8180   */\n      dup2\n        /* \"#utility.yul\":8050:8181   */\n      tag_220\n      jump\t// in\n    tag_324:\n        /* \"#utility.yul\":8042:8181   */\n      swap1\n      pop\n        /* \"#utility.yul\":7769:8188   */\n      swap2\n      swap1\n      pop\n      jump\t// out\n        /* \"#utility.yul\":8194:8423   */\n    tag_221:\n        /* \"#utility.yul\":8334:8368   */\n      0x53696d706c65566f74696e673a2054686520766f7465722068617320616c7265\n        /* \"#utility.yul\":8330:8331   */\n      0x00\n        /* \"#utility.yul\":8322:8328   */\n      dup3\n        /* \"#utility.yul\":8318:8332   */\n      add\n        /* \"#utility.yul\":8311:8369   */\n      mstore\n        /* \"#utility.yul\":8403:8415   */\n      0x61647920766f7465642e00000000000000000000000000000000000000000000\n        /* \"#utility.yul\":8398:8400   */\n      0x20\n        /* \"#utility.yul\":8390:8396   */\n      dup3\n        /* \"#utility.yul\":8386:8401   */\n      add\n        /* \"#utility.yul\":8379:8416   */\n      mstore\n        /* \"#utility.yul\":8194:8423   */\n      pop\n      jump\t// out\n        /* \"#utility.yul\":8429:8795   */\n    tag_222:\n        /* \"#utility.yul\":8571:8574   */\n      0x00\n        /* \"#utility.yul\":8592:8659   */\n      tag_327\n        /* \"#utility.yul\":8656:8658   */\n      0x2a\n        /* \"#utility.yul\":8651:8654   */\n      dup4\n        /* \"#utility.yul\":8592:8659   */\n      tag_200\n      jump\t// in\n    tag_327:\n        /* \"#utility.yul\":8585:8659   */\n      swap2\n      pop\n        /* \"#utility.yul\":8668:8761   */\n      tag_328\n        /* \"#utility.yul\":8757:8760   */\n      dup3\n        /* \"#utility.yul\":8668:8761   */\n      tag_221\n      jump\t// in\n    tag_328:\n        /* \"#utility.yul\":8786:8788   */\n      0x40\n        /* \"#utility.yul\":8781:8784   */\n      dup3\n        /* \"#utility.yul\":8777:8789   */\n      add\n        /* \"#utility.yul\":8770:8789   */\n      swap1\n      pop\n        /* \"#utility.yul\":8429:8795   */\n      swap2\n      swap1\n      pop\n      jump\t// out\n        /* \"#utility.yul\":8801:9220   */\n    tag_63:\n        /* \"#utility.yul\":8967:8971   */\n      0x00\n        /* \"#utility.yul\":9005:9007   */\n      0x20\n        /* \"#utility.yul\":8994:9003   */\n      dup3\n        /* \"#utility.yul\":8990:9008   */\n      add\n        /* \"#utility.yul\":8982:9008   */\n      swap1\n      pop\n        /* \"#utility.yul\":9054:9063   */\n      dup2\n        /* \"#utility.yul\":9048:9052   */\n      dup2\n        /* \"#utility.yul\":9044:9064   */\n      sub\n        /* \"#utility.yul\":9040:9041   */\n      0x00\n        /* \"#utility.yul\":9029:9038   */\n      dup4\n        /* \"#utility.yul\":9025:9042   */\n      add\n        /* \"#utility.yul\":9018:9065   */\n      mstore\n        /* \"#utility.yul\":9082:9213   */\n      tag_330\n        /* \"#utility.yul\":9208:9212   */\n      dup2\n        /* \"#utility.yul\":9082:9213   */\n      tag_222\n      jump\t// in\n    tag_330:\n        /* \"#utility.yul\":9074:9213   */\n      swap1\n      pop\n        /* \"#utility.yul\":8801:9220   */\n      swap2\n      swap1\n      pop\n      jump\t// out\n        /* \"#utility.yul\":9226:9462   */\n    tag_223:\n        /* \"#utility.yul\":9366:9400   */\n      0x53696d706c65566f74696e673a2043616c6c657220646f6573206e6f74206861\n        /* \"#utility.yul\":9362:9363   */\n      0x00\n        /* \"#utility.yul\":9354:9360   */\n      dup3\n        /* \"#utility.yul\":9350:9364   */\n      add\n        /* \"#utility.yul\":9343:9401   */\n      mstore\n        /* \"#utility.yul\":9435:9454   */\n      0x766520726967687420746f20766f74652e000000000000000000000000000000\n        /* \"#utility.yul\":9430:9432   */\n      0x20\n        /* \"#utility.yul\":9422:9428   */\n      dup3\n        /* \"#utility.yul\":9418:9433   */\n      add\n        /* \"#utility.yul\":9411:9455   */\n      mstore\n        /* \"#utility.yul\":9226:9462   */\n      pop\n      jump\t// out\n        /* \"#utility.yul\":9468:9834   */\n    tag_224:\n        /* \"#utility.yul\":9610:9613   */\n      0x00\n        /* \"#utility.yul\":9631:9698   */\n      tag_333\n        /* \"#utility.yul\":9695:9697   */\n      0x31\n        /* \"#utility.yul\":9690:9693   */\n      dup4\n        /* \"#utility.yul\":9631:9698   */\n      tag_200\n      jump\t// in\n    tag_333:\n        /* \"#utility.yul\":9624:9698   */\n      swap2\n      pop\n        /* \"#utility.yul\":9707:9800   */\n      tag_334\n        /* \"#utility.yul\":9796:9799   */\n      dup3\n        /* \"#utility.yul\":9707:9800   */\n      tag_223\n      jump\t// in\n    tag_334:\n        /* \"#utility.yul\":9825:9827   */\n      0x40\n        /* \"#utility.yul\":9820:9823   */\n      dup3\n        /* \"#utility.yul\":9816:9828   */\n      add\n        /* \"#utility.yul\":9809:9828   */\n      swap1\n      pop\n        /* \"#utility.yul\":9468:9834   */\n      swap2\n      swap1\n      pop\n      jump\t// out\n        /* \"#utility.yul\":9840:10259   */\n    tag_68:\n        /* \"#utility.yul\":10006:10010   */\n      0x00\n        /* \"#utility.yul\":10044:10046   */\n      0x20\n        /* \"#utility.yul\":10033:10042   */\n      dup3\n        /* \"#utility.yul\":10029:10047   */\n      add\n        /* \"#utility.yul\":10021:10047   */\n      swap1\n      pop\n        /* \"#utility.yul\":10093:10102   */\n      dup2\n        /* \"#utility.yul\":10087:10091   */\n      dup2\n        /* \"#utility.yul\":10083:10103   */\n      sub\n        /* \"#utility.yul\":10079:10080   */\n      0x00\n        /* \"#utility.yul\":10068:10077   */\n      dup4\n        /* \"#utility.yul\":10064:10081   */\n      add\n        /* \"#utility.yul\":10057:10104   */\n      mstore\n        /* \"#utility.yul\":10121:10252   */\n      tag_336\n        /* \"#utility.yul\":10247:10251   */\n      dup2\n        /* \"#utility.yul\":10121:10252   */\n      tag_224\n      jump\t// in\n    tag_336:\n        /* \"#utility.yul\":10113:10252   */\n      swap1\n      pop\n        /* \"#utility.yul\":9840:10259   */\n      swap2\n      swap1\n      pop\n      jump\t// out\n        /* \"#utility.yul\":10265:10445   */\n    tag_74:\n        /* \"#utility.yul\":10313:10390   */\n      0x4e487b7100000000000000000000000000000000000000000000000000000000\n        /* \"#utility.yul\":10310:10311   */\n      0x00\n        /* \"#utility.yul\":10303:10391   */\n      mstore\n        /* \"#utility.yul\":10410:10414   */\n      0x32\n        /* \"#utility.yul\":10407:10408   */\n      0x04\n        /* \"#utility.yul\":10400:10415   */\n      mstore\n        /* \"#utility.yul\":10434:10438   */\n      0x24\n        /* \"#utility.yul\":10431:10432   */\n      0x00\n        /* \"#utility.yul\":10424:10439   */\n      revert\n        /* \"#utility.yul\":10451:10528   */\n    tag_225:\n        /* \"#utility.yul\":10488:10495   */\n      0x00\n        /* \"#utility.yul\":10517:10522   */\n      dup2\n        /* \"#utility.yul\":10506:10522   */\n      swap1\n      pop\n        /* \"#utility.yul\":10451:10528   */\n      swap2\n      swap1\n      pop\n      jump\t// out\n        /* \"#utility.yul\":10534:10613   */\n    tag_226:\n        /* \"#utility.yul\":10573:10580   */\n      0x00\n        /* \"#utility.yul\":10602:10607   */\n      dup2\n        /* \"#utility.yul\":10591:10607   */\n      swap1\n      pop\n        /* \"#utility.yul\":10534:10613   */\n      swap2\n      swap1\n      pop\n      jump\t// out\n        /* \"#utility.yul\":10619:10776   */\n    tag_227:\n        /* \"#utility.yul\":10724:10769   */\n      tag_341\n        /* \"#utility.yul\":10744:10768   */\n      tag_342\n        /* \"#utility.yul\":10762:10767   */\n      dup3\n        /* \"#utility.yul\":10744:10768   */\n      tag_225\n      jump\t// in\n    tag_342:\n        /* \"#utility.yul\":10724:10769   */\n      tag_226\n      jump\t// in\n    tag_341:\n        /* \"#utility.yul\":10719:10722   */\n      dup3\n        /* \"#utility.yul\":10712:10770   */\n      mstore\n        /* \"#utility.yul\":10619:10776   */\n      pop\n      pop\n      jump\t// out\n        /* \"#utility.yul\":10782:11038   */\n    tag_92:\n        /* \"#utility.yul\":10894:10897   */\n      0x00\n        /* \"#utility.yul\":10909:10984   */\n      tag_344\n        /* \"#utility.yul\":10980:10983   */\n      dup3\n        /* \"#utility.yul\":10971:10977   */\n      dup5\n        /* \"#utility.yul\":10909:10984   */\n      tag_227\n      jump\t// in\n    tag_344:\n        /* \"#utility.yul\":11009:11011   */\n      0x20\n        /* \"#utility.yul\":11004:11007   */\n      dup3\n        /* \"#utility.yul\":11000:11012   */\n      add\n        /* \"#utility.yul\":10993:11012   */\n      swap2\n      pop\n        /* \"#utility.yul\":11029:11032   */\n      dup2\n        /* \"#utility.yul\":11022:11032   */\n      swap1\n      pop\n        /* \"#utility.yul\":10782:11038   */\n      swap3\n      swap2\n      pop\n      pop\n      jump\t// out\n        /* \"#utility.yul\":11044:11192   */\n    tag_228:\n        /* \"#utility.yul\":11146:11157   */\n      0x00\n        /* \"#utility.yul\":11183:11186   */\n      dup2\n        /* \"#utility.yul\":11168:11186   */\n      swap1\n      pop\n        /* \"#utility.yul\":11044:11192   */\n      swap3\n      swap2\n      pop\n      pop\n      jump\t// out\n        /* \"#utility.yul\":11198:11575   */\n    tag_229:\n        /* \"#utility.yul\":11304:11307   */\n      0x00\n        /* \"#utility.yul\":11332:11371   */\n      tag_347\n        /* \"#utility.yul\":11365:11370   */\n      dup3\n        /* \"#utility.yul\":11332:11371   */\n      tag_199\n      jump\t// in\n    tag_347:\n        /* \"#utility.yul\":11387:11476   */\n      tag_348\n        /* \"#utility.yul\":11469:11475   */\n      dup2\n        /* \"#utility.yul\":11464:11467   */\n      dup6\n        /* \"#utility.yul\":11387:11476   */\n      tag_228\n      jump\t// in\n    tag_348:\n        /* \"#utility.yul\":11380:11476   */\n      swap4\n      pop\n        /* \"#utility.yul\":11485:11537   */\n      tag_349\n        /* \"#utility.yul\":11530:11536   */\n      dup2\n        /* \"#utility.yul\":11525:11528   */\n      dup6\n        /* \"#utility.yul\":11518:11522   */\n      0x20\n        /* \"#utility.yul\":11511:11516   */\n      dup7\n        /* \"#utility.yul\":11507:11523   */\n      add\n        /* \"#utility.yul\":11485:11537   */\n      tag_201\n      jump\t// in\n    tag_349:\n        /* \"#utility.yul\":11562:11568   */\n      dup1\n        /* \"#utility.yul\":11557:11560   */\n      dup5\n        /* \"#utility.yul\":11553:11569   */\n      add\n        /* \"#utility.yul\":11546:11569   */\n      swap2\n      pop\n        /* \"#utility.yul\":11308:11575   */\n      pop\n        /* \"#utility.yul\":11198:11575   */\n      swap3\n      swap2\n      pop\n      pop\n      jump\t// out\n        /* \"#utility.yul\":11581:11760   */\n    tag_230:\n        /* \"#utility.yul\":11749:11753   */\n      0x2c20000000000000000000000000000000000000000000000000000000000000\n        /* \"#utility.yul\":11744:11747   */\n      dup2\n        /* \"#utility.yul\":11737:11754   */\n      mstore\n        /* \"#utility.yul\":11581:11760   */\n      pop\n      jump\t// out\n        /* \"#utility.yul\":11766:12465   */\n    tag_94:\n        /* \"#utility.yul\":12036:12039   */\n      0x00\n        /* \"#utility.yul\":12058:12153   */\n      tag_352\n        /* \"#utility.yul\":12149:12152   */\n      dup3\n        /* \"#utility.yul\":12140:12146   */\n      dup6\n        /* \"#utility.yul\":12058:12153   */\n      tag_229\n      jump\t// in\n    tag_352:\n        /* \"#utility.yul\":12051:12153   */\n      swap2\n      pop\n        /* \"#utility.yul\":12163:12300   */\n      tag_353\n        /* \"#utility.yul\":12296:12299   */\n      dup3\n        /* \"#utility.yul\":12163:12300   */\n      tag_230\n      jump\t// in\n    tag_353:\n        /* \"#utility.yul\":12325:12326   */\n      0x02\n        /* \"#utility.yul\":12320:12323   */\n      dup3\n        /* \"#utility.yul\":12316:12327   */\n      add\n        /* \"#utility.yul\":12309:12327   */\n      swap2\n      pop\n        /* \"#utility.yul\":12344:12439   */\n      tag_354\n        /* \"#utility.yul\":12435:12438   */\n      dup3\n        /* \"#utility.yul\":12426:12432   */\n      dup5\n        /* \"#utility.yul\":12344:12439   */\n      tag_229\n      jump\t// in\n    tag_354:\n        /* \"#utility.yul\":12337:12439   */\n      swap2\n      pop\n        /* \"#utility.yul\":12456:12459   */\n      dup2\n        /* \"#utility.yul\":12449:12459   */\n      swap1\n      pop\n        /* \"#utility.yul\":11766:12465   */\n      swap4\n      swap3\n      pop\n      pop\n      pop\n      jump\t// out\n        /* \"#utility.yul\":12471:12703   */\n    tag_231:\n        /* \"#utility.yul\":12611:12645   */\n      0x53696d706c65566f74696e673a2053656c662d64656c65676174696f6e206973\n        /* \"#utility.yul\":12607:12608   */\n      0x00\n        /* \"#utility.yul\":12599:12605   */\n      dup3\n        /* \"#utility.yul\":12595:12609   */\n      add\n        /* \"#utility.yul\":12588:12646   */\n      mstore\n        /* \"#utility.yul\":12680:12695   */\n      0x206e6f7420616c6c6f7765642e00000000000000000000000000000000000000\n        /* \"#utility.yul\":12675:12677   */\n      0x20\n        /* \"#utility.yul\":12667:12673   */\n      dup3\n        /* \"#utility.yul\":12663:12678   */\n      add\n        /* \"#utility.yul\":12656:12696   */\n      mstore\n        /* \"#utility.yul\":12471:12703   */\n      pop\n      jump\t// out\n        /* \"#utility.yul\":12709:13075   */\n    tag_232:\n        /* \"#utility.yul\":12851:12854   */\n      0x00\n        /* \"#utility.yul\":12872:12939   */\n      tag_357\n        /* \"#utility.yul\":12936:12938   */\n      0x2d\n        /* \"#utility.yul\":12931:12934   */\n      dup4\n        /* \"#utility.yul\":12872:12939   */\n      tag_200\n      jump\t// in\n    tag_357:\n        /* \"#utility.yul\":12865:12939   */\n      swap2\n      pop\n        /* \"#utility.yul\":12948:13041   */\n      tag_358\n        /* \"#utility.yul\":13037:13040   */\n      dup3\n        /* \"#utility.yul\":12948:13041   */\n      tag_231\n      jump\t// in\n    tag_358:\n        /* \"#utility.yul\":13066:13068   */\n      0x40\n        /* \"#utility.yul\":13061:13064   */\n      dup3\n        /* \"#utility.yul\":13057:13069   */\n      add\n        /* \"#utility.yul\":13050:13069   */\n      swap1\n      pop\n        /* \"#utility.yul\":12709:13075   */\n      swap2\n      swap1\n      pop\n      jump\t// out\n        /* \"#utility.yul\":13081:13500   */\n    tag_109:\n        /* \"#utility.yul\":13247:13251   */\n      0x00\n        /* \"#utility.yul\":13285:13287   */\n      0x20\n        /* \"#utility.yul\":13274:13283   */\n      dup3\n        /* \"#utility.yul\":13270:13288   */\n      add\n        /* \"#utility.yul\":13262:13288   */\n      swap1\n      pop\n        /* \"#utility.yul\":13334:13343   */\n      dup2\n        /* \"#utility.yul\":13328:13332   */\n      dup2\n        /* \"#utility.yul\":13324:13344   */\n      sub\n        /* \"#utility.yul\":13320:13321   */\n      0x00\n        /* \"#utility.yul\":13309:13318   */\n      dup4\n        /* \"#utility.yul\":13305:13322   */\n      add\n        /* \"#utility.yul\":13298:13345   */\n      mstore\n        /* \"#utility.yul\":13362:13493   */\n      tag_360\n        /* \"#utility.yul\":13488:13492   */\n      dup2\n        /* \"#utility.yul\":13362:13493   */\n      tag_232\n      jump\t// in\n    tag_360:\n        /* \"#utility.yul\":13354:13493   */\n      swap1\n      pop\n        /* \"#utility.yul\":13081:13500   */\n      swap2\n      swap1\n      pop\n      jump\t// out\n        /* \"#utility.yul\":13506:13740   */\n    tag_233:\n        /* \"#utility.yul\":13646:13680   */\n      0x53696d706c65566f74696e673a2044656c65676174696f6e2074726163657320\n        /* \"#utility.yul\":13642:13643   */\n      0x00\n        /* \"#utility.yul\":13634:13640   */\n      dup3\n        /* \"#utility.yul\":13630:13644   */\n      add\n        /* \"#utility.yul\":13623:13681   */\n      mstore\n        /* \"#utility.yul\":13715:13732   */\n      0x6261636b20746f2063616c6c65722e0000000000000000000000000000000000\n        /* \"#utility.yul\":13710:13712   */\n      0x20\n        /* \"#utility.yul\":13702:13708   */\n      dup3\n        /* \"#utility.yul\":13698:13713   */\n      add\n        /* \"#utility.yul\":13691:13733   */\n      mstore\n        /* \"#utility.yul\":13506:13740   */\n      pop\n      jump\t// out\n        /* \"#utility.yul\":13746:14112   */\n    tag_234:\n        /* \"#utility.yul\":13888:13891   */\n      0x00\n        /* \"#utility.yul\":13909:13976   */\n      tag_363\n        /* \"#utility.yul\":13973:13975   */\n      0x2f\n        /* \"#utility.yul\":13968:13971   */\n      dup4\n        /* \"#utility.yul\":13909:13976   */\n      tag_200\n      jump\t// in\n    tag_363:\n        /* \"#utility.yul\":13902:13976   */\n      swap2\n      pop\n        /* \"#utility.yul\":13985:14078   */\n      tag_364\n        /* \"#utility.yul\":14074:14077   */\n      dup3\n        /* \"#utility.yul\":13985:14078   */\n      tag_233\n      jump\t// in\n    tag_364:\n        /* \"#utility.yul\":14103:14105   */\n      0x40\n        /* \"#utility.yul\":14098:14101   */\n      dup3\n        /* \"#utility.yul\":14094:14106   */\n      add\n        /* \"#utility.yul\":14087:14106   */\n      swap1\n      pop\n        /* \"#utility.yul\":13746:14112   */\n      swap2\n      swap1\n      pop\n      jump\t// out\n        /* \"#utility.yul\":14118:14537   */\n    tag_115:\n        /* \"#utility.yul\":14284:14288   */\n      0x00\n        /* \"#utility.yul\":14322:14324   */\n      0x20\n        /* \"#utility.yul\":14311:14320   */\n      dup3\n        /* \"#utility.yul\":14307:14325   */\n      add\n        /* \"#utility.yul\":14299:14325   */\n      swap1\n      pop\n        /* \"#utility.yul\":14371:14380   */\n      dup2\n        /* \"#utility.yul\":14365:14369   */\n      dup2\n        /* \"#utility.yul\":14361:14381   */\n      sub\n        /* \"#utility.yul\":14357:14358   */\n      0x00\n        /* \"#utility.yul\":14346:14355   */\n      dup4\n        /* \"#utility.yul\":14342:14359   */\n      add\n        /* \"#utility.yul\":14335:14382   */\n      mstore\n        /* \"#utility.yul\":14399:14530   */\n      tag_366\n        /* \"#utility.yul\":14525:14529   */\n      dup2\n        /* \"#utility.yul\":14399:14530   */\n      tag_234\n      jump\t// in\n    tag_366:\n        /* \"#utility.yul\":14391:14530   */\n      swap1\n      pop\n        /* \"#utility.yul\":14118:14537   */\n      swap2\n      swap1\n      pop\n      jump\t// out\n        /* \"#utility.yul\":14543:14784   */\n    tag_235:\n        /* \"#utility.yul\":14683:14717   */\n      0x53696d706c65566f74696e673a204f6e6c79206368616972506572736f6e2063\n        /* \"#utility.yul\":14679:14680   */\n      0x00\n        /* \"#utility.yul\":14671:14677   */\n      dup3\n        /* \"#utility.yul\":14667:14681   */\n      add\n        /* \"#utility.yul\":14660:14718   */\n      mstore\n        /* \"#utility.yul\":14752:14776   */\n      0x616e206769766520726967687420746f20766f74652e00000000000000000000\n        /* \"#utility.yul\":14747:14749   */\n      0x20\n        /* \"#utility.yul\":14739:14745   */\n      dup3\n        /* \"#utility.yul\":14735:14750   */\n      add\n        /* \"#utility.yul\":14728:14777   */\n      mstore\n        /* \"#utility.yul\":14543:14784   */\n      pop\n      jump\t// out\n        /* \"#utility.yul\":14790:15156   */\n    tag_236:\n        /* \"#utility.yul\":14932:14935   */\n      0x00\n        /* \"#utility.yul\":14953:15020   */\n      tag_369\n        /* \"#utility.yul\":15017:15019   */\n      0x36\n        /* \"#utility.yul\":15012:15015   */\n      dup4\n        /* \"#utility.yul\":14953:15020   */\n      tag_200\n      jump\t// in\n    tag_369:\n        /* \"#utility.yul\":14946:15020   */\n      swap2\n      pop\n        /* \"#utility.yul\":15029:15122   */\n      tag_370\n        /* \"#utility.yul\":15118:15121   */\n      dup3\n        /* \"#utility.yul\":15029:15122   */\n      tag_235\n      jump\t// in\n    tag_370:\n        /* \"#utility.yul\":15147:15149   */\n      0x40\n        /* \"#utility.yul\":15142:15145   */\n      dup3\n        /* \"#utility.yul\":15138:15150   */\n      add\n        /* \"#utility.yul\":15131:15150   */\n      swap1\n      pop\n        /* \"#utility.yul\":14790:15156   */\n      swap2\n      swap1\n      pop\n      jump\t// out\n        /* \"#utility.yul\":15162:15581   */\n    tag_159:\n        /* \"#utility.yul\":15328:15332   */\n      0x00\n        /* \"#utility.yul\":15366:15368   */\n      0x20\n        /* \"#utility.yul\":15355:15364   */\n      dup3\n        /* \"#utility.yul\":15351:15369   */\n      add\n        /* \"#utility.yul\":15343:15369   */\n      swap1\n      pop\n        /* \"#utility.yul\":15415:15424   */\n      dup2\n        /* \"#utility.yul\":15409:15413   */\n      dup2\n        /* \"#utility.yul\":15405:15425   */\n      sub\n        /* \"#utility.yul\":15401:15402   */\n      0x00\n        /* \"#utility.yul\":15390:15399   */\n      dup4\n        /* \"#utility.yul\":15386:15403   */\n      add\n        /* \"#utility.yul\":15379:15426   */\n      mstore\n        /* \"#utility.yul\":15443:15574   */\n      tag_372\n        /* \"#utility.yul\":15569:15573   */\n      dup2\n        /* \"#utility.yul\":15443:15574   */\n      tag_236\n      jump\t// in\n    tag_372:\n        /* \"#utility.yul\":15435:15574   */\n      swap1\n      pop\n        /* \"#utility.yul\":15162:15581   */\n      swap2\n      swap1\n      pop\n      jump\t// out\n        /* \"#utility.yul\":15587:15822   */\n    tag_237:\n        /* \"#utility.yul\":15727:15761   */\n      0x53696d706c65566f74696e673a204164647265737320616c7265616479206861\n        /* \"#utility.yul\":15723:15724   */\n      0x00\n        /* \"#utility.yul\":15715:15721   */\n      dup3\n        /* \"#utility.yul\":15711:15725   */\n      add\n        /* \"#utility.yul\":15704:15762   */\n      mstore\n        /* \"#utility.yul\":15796:15814   */\n      0x7320726967687420746f20766f74652e00000000000000000000000000000000\n        /* \"#utility.yul\":15791:15793   */\n      0x20\n        /* \"#utility.yul\":15783:15789   */\n      dup3\n        /* \"#utility.yul\":15779:15794   */\n      add\n        /* \"#utility.yul\":15772:15815   */\n      mstore\n        /* \"#utility.yul\":15587:15822   */\n      pop\n      jump\t// out\n        /* \"#utility.yul\":15828:16194   */\n    tag_238:\n        /* \"#utility.yul\":15970:15973   */\n      0x00\n        /* \"#utility.yul\":15991:16058   */\n      tag_375\n        /* \"#utility.yul\":16055:16057   */\n      0x30\n        /* \"#utility.yul\":16050:16053   */\n      dup4\n        /* \"#utility.yul\":15991:16058   */\n      tag_200\n      jump\t// in\n    tag_375:\n        /* \"#utility.yul\":15984:16058   */\n      swap2\n      pop\n        /* \"#utility.yul\":16067:16160   */\n      tag_376\n        /* \"#utility.yul\":16156:16159   */\n      dup3\n        /* \"#utility.yul\":16067:16160   */\n      tag_237\n      jump\t// in\n    tag_376:\n        /* \"#utility.yul\":16185:16187   */\n      0x40\n        /* \"#utility.yul\":16180:16183   */\n      dup3\n        /* \"#utility.yul\":16176:16188   */\n      add\n        /* \"#utility.yul\":16169:16188   */\n      swap1\n      pop\n        /* \"#utility.yul\":15828:16194   */\n      swap2\n      swap1\n      pop\n      jump\t// out\n        /* \"#utility.yul\":16200:16619   */\n    tag_166:\n        /* \"#utility.yul\":16366:16370   */\n      0x00\n        /* \"#utility.yul\":16404:16406   */\n      0x20\n        /* \"#utility.yul\":16393:16402   */\n      dup3\n        /* \"#utility.yul\":16389:16407   */\n      add\n        /* \"#utility.yul\":16381:16407   */\n      swap1\n      pop\n        /* \"#utility.yul\":16453:16462   */\n      dup2\n        /* \"#utility.yul\":16447:16451   */\n      dup2\n        /* \"#utility.yul\":16443:16463   */\n      sub\n        /* \"#utility.yul\":16439:16440   */\n      0x00\n        /* \"#utility.yul\":16428:16437   */\n      dup4\n        /* \"#utility.yul\":16424:16441   */\n      add\n        /* \"#utility.yul\":16417:16464   */\n      mstore\n        /* \"#utility.yul\":16481:16612   */\n      tag_378\n        /* \"#utility.yul\":16607:16611   */\n      dup2\n        /* \"#utility.yul\":16481:16612   */\n      tag_238\n      jump\t// in\n    tag_378:\n        /* \"#utility.yul\":16473:16612   */\n      swap1\n      pop\n        /* \"#utility.yul\":16200:16619   */\n      swap2\n      swap1\n      pop\n      jump\t// out\n        /* \"#utility.yul\":16625:16805   */\n    tag_239:\n        /* \"#utility.yul\":16673:16750   */\n      0x4e487b7100000000000000000000000000000000000000000000000000000000\n        /* \"#utility.yul\":16670:16671   */\n      0x00\n        /* \"#utility.yul\":16663:16751   */\n      mstore\n        /* \"#utility.yul\":16770:16774   */\n      0x11\n        /* \"#utility.yul\":16767:16768   */\n      0x04\n        /* \"#utility.yul\":16760:16775   */\n      mstore\n        /* \"#utility.yul\":16794:16798   */\n      0x24\n        /* \"#utility.yul\":16791:16792   */\n      0x00\n        /* \"#utility.yul\":16784:16799   */\n      revert\n        /* \"#utility.yul\":16811:17116   */\n    tag_184:\n        /* \"#utility.yul\":16851:16854   */\n      0x00\n        /* \"#utility.yul\":16870:16890   */\n      tag_381\n        /* \"#utility.yul\":16888:16889   */\n      dup3\n        /* \"#utility.yul\":16870:16890   */\n      tag_196\n      jump\t// in\n    tag_381:\n        /* \"#utility.yul\":16865:16890   */\n      swap2\n      pop\n        /* \"#utility.yul\":16904:16924   */\n      tag_382\n        /* \"#utility.yul\":16922:16923   */\n      dup4\n        /* \"#utility.yul\":16904:16924   */\n      tag_196\n      jump\t// in\n    tag_382:\n        /* \"#utility.yul\":16899:16924   */\n      swap3\n      pop\n        /* \"#utility.yul\":17058:17059   */\n      dup3\n        /* \"#utility.yul\":16990:17056   */\n      0xffffffffffffffffffffffffffffffffffffffffffffffffffffffffffffffff\n        /* \"#utility.yul\":16986:17060   */\n      sub\n        /* \"#utility.yul\":16983:16984   */\n      dup3\n        /* \"#utility.yul\":16980:17061   */\n      gt\n        /* \"#utility.yul\":16977:17084   */\n      iszero\n      tag_383\n      jumpi\n        /* \"#utility.yul\":17064:17082   */\n      tag_384\n      tag_239\n      jump\t// in\n    tag_384:\n        /* \"#utility.yul\":16977:17084   */\n    tag_383:\n        /* \"#utility.yul\":17108:17109   */\n      dup3\n        /* \"#utility.yul\":17105:17106   */\n      dup3\n        /* \"#utility.yul\":17101:17110   */\n      add\n        /* \"#utility.yul\":17094:17110   */\n      swap1\n      pop\n        /* \"#utility.yul\":16811:17116   */\n      swap3\n      swap2\n      pop\n      pop\n      jump\t// out\n\n    auxdata: 0xa2646970667358221220535c20f696194aaec200a5689cc2366b4e77673a581303878456df444e447d3e64736f6c634300080d0033\n}\n",
				"bytecode": {
					"linkReferences": {},
					"object": "60806040523480156200001157600080fd5b50604051620020cb380380620020cb83398181016040528101906200003791906200050a565b620000476200021b60201b60201c565b600160006101000a81548173ffffffffffffffffffffffffffffffffffffffff021916908373ffffffffffffffffffffffffffffffffffffffff160217905550600160026000600160009054906101000a900473ffffffffffffffffffffffffffffffffffffffff1673ffffffffffffffffffffffffffffffffffffffff1673ffffffffffffffffffffffffffffffffffffffff16815260200190815260200160002060000181905550805160008190555060005b600054811015620001b45760006040518060400160405280620001428585815181106200012e576200012d6200055b565b5b60200260200101516200022360201b60201c565b81526020016000815250905060038190806001815401808255809150506001900390600052602060002090600202016000909190919091506000820151816000015560208201518160010155505050620001ac6001826200025960201b62000f3f1790919060201c565b9050620000fc565b507ff318b16025413645144ed83c64d2d30f089c10bc263cab68a036c00f011827be600160009054906101000a900473ffffffffffffffffffffffffffffffffffffffff166000546040516200020c929190620005ea565b60405180910390a150620007c2565b600033905090565b60008160405160200162000238919062000664565b6040516020818303038152906040526200025290620006c6565b9050919050565b6000818362000269919062000765565b905092915050565b6000604051905090565b600080fd5b600080fd5b600080fd5b6000601f19601f8301169050919050565b7f4e487b7100000000000000000000000000000000000000000000000000000000600052604160045260246000fd5b620002d5826200028a565b810181811067ffffffffffffffff82111715620002f757620002f66200029b565b5b80604052505050565b60006200030c62000271565b90506200031a8282620002ca565b919050565b600067ffffffffffffffff8211156200033d576200033c6200029b565b5b602082029050602081019050919050565b600080fd5b600080fd5b600067ffffffffffffffff8211156200037657620003756200029b565b5b62000381826200028a565b9050602081019050919050565b60005b83811015620003ae57808201518184015260208101905062000391565b83811115620003be576000848401525b50505050565b6000620003db620003d58462000358565b62000300565b905082815260208101848484011115620003fa57620003f962000353565b5b620004078482856200038e565b509392505050565b600082601f83011262000427576200042662000285565b5b815162000439848260208601620003c4565b91505092915050565b60006200045962000453846200031f565b62000300565b905080838252602082019050602084028301858111156200047f576200047e6200034e565b5b835b81811015620004cd57805167ffffffffffffffff811115620004a857620004a762000285565b5b808601620004b789826200040f565b8552602085019450505060208101905062000481565b5050509392505050565b600082601f830112620004ef57620004ee62000285565b5b81516200050184826020860162000442565b91505092915050565b6000602082840312156200052357620005226200027b565b5b600082015167ffffffffffffffff81111562000544576200054362000280565b5b6200055284828501620004d7565b91505092915050565b7f4e487b7100000000000000000000000000000000000000000000000000000000600052603260045260246000fd5b600073ffffffffffffffffffffffffffffffffffffffff82169050919050565b6000620005b7826200058a565b9050919050565b620005c981620005aa565b82525050565b6000819050919050565b620005e481620005cf565b82525050565b6000604082019050620006016000830185620005be565b620006106020830184620005d9565b9392505050565b600081519050919050565b600081905092915050565b60006200063a8262000617565b62000646818562000622565b9350620006588185602086016200038e565b80840191505092915050565b60006200067282846200062d565b915081905092915050565b600081519050919050565b6000819050602082019050919050565b6000819050919050565b6000620006b0825162000698565b80915050919050565b600082821b905092915050565b6000620006d3826200067d565b82620006df8462000688565b9050620006ec81620006a2565b925060208210156200072f576200072a7fffffffffffffffffffffffffffffffffffffffffffffffffffffffffffffffff83602003600802620006b9565b831692505b5050919050565b7f4e487b7100000000000000000000000000000000000000000000000000000000600052601160045260246000fd5b60006200077282620005cf565b91506200077f83620005cf565b9250827fffffffffffffffffffffffffffffffffffffffffffffffffffffffffffffffff03821115620007b757620007b662000736565b5b828201905092915050565b6118f980620007d26000396000f3fe608060405234801561001057600080fd5b506004361061009e5760003560e01c8063a3ec138d11610066578063a3ec138d1461011f578063c7f758a814610152578063d4d4b5ac14610183578063da35c664146101a1578063ef788cd5146101bf5761009e565b80630121b93f146100a357806328be18ee146100bf5780635c19a95c146100dd5780635f07b961146100f95780639e7b8d6114610103575b600080fd5b6100bd60048036038101906100b89190610fff565b6101dd565b005b6100c761047d565b6040516100d491906110c5565b60405180910390f35b6100f760048036038101906100f29190611145565b610534565b005b610101610a46565b005b61011d60048036038101906101189190611145565b610bba565b005b61013960048036038101906101349190611145565b610db3565b60405161014994939291906111ab565b60405180910390f35b61016c60048036038101906101679190610fff565b610e10565b60405161017a9291906111f0565b60405180910390f35b61018b610ebb565b6040516101989190611220565b60405180910390f35b6101a9610ee1565b6040516101b6919061123b565b60405180910390f35b6101c7610ee7565b6040516101d49190611314565b60405180910390f35b806000548110610222576040517f08c379a0000000000000000000000000000000000000000000000000000000008152600401610219906113a8565b60405180910390fd5b61022a610f55565b600260008273ffffffffffffffffffffffffffffffffffffffff1673ffffffffffffffffffffffffffffffffffffffff16815260200190815260200160002060010160009054906101000a900460ff16156102ba576040517f08c379a00000000000000000000000000000000000000000000000000000000081526004016102b19061143a565b60405180910390fd5b6102c2610f55565b6000600260008373ffffffffffffffffffffffffffffffffffffffff1673ffffffffffffffffffffffffffffffffffffffff1681526020019081526020016000206000015411610347576040517f08c379a000000000000000000000000000000000000000000000000000000000815260040161033e906114cc565b60405180910390fd5b600060026000610355610f55565b73ffffffffffffffffffffffffffffffffffffffff1673ffffffffffffffffffffffffffffffffffffffff168152602001908152602001600020905060018160010160006101000a81548160ff0219169083151502179055508481600201819055506103f38160000154600387815481106103d3576103d26114ec565b5b906000526020600020906002020160010154610f3f90919063ffffffff16565b60038681548110610407576104066114ec565b5b906000526020600020906002020160010181905550610424610f55565b73ffffffffffffffffffffffffffffffffffffffff16857fe7ee74ca1f4bb1b82b14f87794c45b3e59c39e372b862fb97a6316b43355b69e836000015460405161046e919061123b565b60405180910390a35050505050565b606060005b60048054905081101561053057816003600483815481106104a6576104a56114ec565b5b9060005260206000200154815481106104c2576104c16114ec565b5b9060005260206000209060020201600001546040516020016104e49190611546565b6040516020818303038152906040526040516020016105049291906115c3565b6040516020818303038152906040529150610529600182610f3f90919063ffffffff16565b9050610482565b5090565b61053c610f55565b600260008273ffffffffffffffffffffffffffffffffffffffff1673ffffffffffffffffffffffffffffffffffffffff16815260200190815260200160002060010160009054906101000a900460ff16156105cc576040517f08c379a00000000000000000000000000000000000000000000000000000000081526004016105c39061143a565b60405180910390fd5b6105d4610f55565b6000600260008373ffffffffffffffffffffffffffffffffffffffff1673ffffffffffffffffffffffffffffffffffffffff1681526020019081526020016000206000015411610659576040517f08c379a0000000000000000000000000000000000000000000000000000000008152600401610650906114cc565b60405180910390fd5b600060026000610667610f55565b73ffffffffffffffffffffffffffffffffffffffff1673ffffffffffffffffffffffffffffffffffffffff16815260200190815260200160002090506106ab610f55565b73ffffffffffffffffffffffffffffffffffffffff168473ffffffffffffffffffffffffffffffffffffffff1603610718576040517f08c379a000000000000000000000000000000000000000000000000000000000815260040161070f90611668565b60405180910390fd5b5b600073ffffffffffffffffffffffffffffffffffffffff16600260008673ffffffffffffffffffffffffffffffffffffffff1673ffffffffffffffffffffffffffffffffffffffff16815260200190815260200160002060010160019054906101000a900473ffffffffffffffffffffffffffffffffffffffff1673ffffffffffffffffffffffffffffffffffffffff161461088e57600260008573ffffffffffffffffffffffffffffffffffffffff1673ffffffffffffffffffffffffffffffffffffffff16815260200190815260200160002060010160019054906101000a900473ffffffffffffffffffffffffffffffffffffffff16935061081c610f55565b73ffffffffffffffffffffffffffffffffffffffff168473ffffffffffffffffffffffffffffffffffffffff1603610889576040517f08c379a0000000000000000000000000000000000000000000000000000000008152600401610880906116fa565b60405180910390fd5b610719565b60018160010160006101000a81548160ff021916908315150217905550838160010160016101000a81548173ffffffffffffffffffffffffffffffffffffffff021916908373ffffffffffffffffffffffffffffffffffffffff1602179055506000600260008673ffffffffffffffffffffffffffffffffffffffff1673ffffffffffffffffffffffffffffffffffffffff16815260200190815260200160002090508060010160009054906101000a900460ff16156109ba5761098882600001546003836002015481548110610968576109676114ec565b5b906000526020600020906002020160010154610f3f90919063ffffffff16565b60038260020154815481106109a05761099f6114ec565b5b9060005260206000209060020201600101819055506109de565b6109d582600001548260000154610f3f90919063ffffffff16565b81600001819055505b8473ffffffffffffffffffffffffffffffffffffffff166109fd610f55565b73ffffffffffffffffffffffffffffffffffffffff167f4ce9ef2c99d761d69230b0e3381f4c6016333b2e27d32b3e379a96b5d2c6923260405160405180910390a35050505050565b60008060046000610a579190610f86565b60005b600380549050811015610b01578260038281548110610a7c57610a7b6114ec565b5b9060005260206000209060020201600101541115610ae65760038181548110610aa857610aa76114ec565b5b906000526020600020906002020160010154925060048190806001815401808255809150506001900390600052602060002001600090919091909150555b610afa600182610f3f90919063ffffffff16565b9050610a5a565b5060005b600380549050811015610bb55760038281548110610b2657610b256114ec565b5b90600052602060002090600202016001015460038281548110610b4c57610b4b6114ec565b5b906000526020600020906002020160010154148015610b6b5750818114155b15610b9a5760048190806001815401808255809150506001900390600052602060002001600090919091909150555b610bae600182610f3f90919063ffffffff16565b9050610b05565b505050565b600160009054906101000a900473ffffffffffffffffffffffffffffffffffffffff1673ffffffffffffffffffffffffffffffffffffffff16610bfb610f55565b73ffffffffffffffffffffffffffffffffffffffff1614610c51576040517f08c379a0000000000000000000000000000000000000000000000000000000008152600401610c489061178c565b60405180910390fd5b80600260008273ffffffffffffffffffffffffffffffffffffffff1673ffffffffffffffffffffffffffffffffffffffff16815260200190815260200160002060010160009054906101000a900460ff1615610ce2576040517f08c379a0000000000000000000000000000000000000000000000000000000008152600401610cd99061143a565b60405180910390fd5b6000600260008473ffffffffffffffffffffffffffffffffffffffff1673ffffffffffffffffffffffffffffffffffffffff1681526020019081526020016000206000015414610d67576040517f08c379a0000000000000000000000000000000000000000000000000000000008152600401610d5e9061181e565b60405180910390fd5b6001600260008473ffffffffffffffffffffffffffffffffffffffff1673ffffffffffffffffffffffffffffffffffffffff168152602001908152602001600020600001819055505050565b60026020528060005260406000206000915090508060000154908060010160009054906101000a900460ff16908060010160019054906101000a900473ffffffffffffffffffffffffffffffffffffffff16908060020154905084565b60606000826000548110610e59576040517f08c379a0000000000000000000000000000000000000000000000000000000008152600401610e50906113a8565b60405180910390fd5b610e8760038581548110610e7057610e6f6114ec565b5b906000526020600020906002020160000154610f5d565b60038581548110610e9b57610e9a6114ec565b5b906000526020600020906002020160010154809350819450505050915091565b600160009054906101000a900473ffffffffffffffffffffffffffffffffffffffff1681565b60005481565b60606004805480602002602001604051908101604052809291908181526020018280548015610f3557602002820191906000526020600020905b815481526020019060010190808311610f21575b5050505050905090565b60008183610f4d919061186d565b905092915050565b600033905090565b606081604051602001610f709190611546565b6040516020818303038152906040529050919050565b5080546000825590600052602060002090810190610fa49190610fa7565b50565b5b80821115610fc0576000816000905550600101610fa8565b5090565b600080fd5b6000819050919050565b610fdc81610fc9565b8114610fe757600080fd5b50565b600081359050610ff981610fd3565b92915050565b60006020828403121561101557611014610fc4565b5b600061102384828501610fea565b91505092915050565b600081519050919050565b600082825260208201905092915050565b60005b8381101561106657808201518184015260208101905061104b565b83811115611075576000848401525b50505050565b6000601f19601f8301169050919050565b60006110978261102c565b6110a18185611037565b93506110b1818560208601611048565b6110ba8161107b565b840191505092915050565b600060208201905081810360008301526110df818461108c565b905092915050565b600073ffffffffffffffffffffffffffffffffffffffff82169050919050565b6000611112826110e7565b9050919050565b61112281611107565b811461112d57600080fd5b50565b60008135905061113f81611119565b92915050565b60006020828403121561115b5761115a610fc4565b5b600061116984828501611130565b91505092915050565b61117b81610fc9565b82525050565b60008115159050919050565b61119681611181565b82525050565b6111a581611107565b82525050565b60006080820190506111c06000830187611172565b6111cd602083018661118d565b6111da604083018561119c565b6111e76060830184611172565b95945050505050565b6000604082019050818103600083015261120a818561108c565b90506112196020830184611172565b9392505050565b6000602082019050611235600083018461119c565b92915050565b60006020820190506112506000830184611172565b92915050565b600081519050919050565b600082825260208201905092915050565b6000819050602082019050919050565b61128b81610fc9565b82525050565b600061129d8383611282565b60208301905092915050565b6000602082019050919050565b60006112c182611256565b6112cb8185611261565b93506112d683611272565b8060005b838110156113075781516112ee8882611291565b97506112f9836112a9565b9250506001810190506112da565b5085935050505092915050565b6000602082019050818103600083015261132e81846112b6565b905092915050565b7f53696d706c65566f74696e673a2050726f706f73616c20696e646578206f757460008201527f206f6620626f756e64732e000000000000000000000000000000000000000000602082015250565b6000611392602b83611037565b915061139d82611336565b604082019050919050565b600060208201905081810360008301526113c181611385565b9050919050565b7f53696d706c65566f74696e673a2054686520766f7465722068617320616c726560008201527f61647920766f7465642e00000000000000000000000000000000000000000000602082015250565b6000611424602a83611037565b915061142f826113c8565b604082019050919050565b6000602082019050818103600083015261145381611417565b9050919050565b7f53696d706c65566f74696e673a2043616c6c657220646f6573206e6f7420686160008201527f766520726967687420746f20766f74652e000000000000000000000000000000602082015250565b60006114b6603183611037565b91506114c18261145a565b604082019050919050565b600060208201905081810360008301526114e5816114a9565b9050919050565b7f4e487b7100000000000000000000000000000000000000000000000000000000600052603260045260246000fd5b6000819050919050565b6000819050919050565b61154061153b8261151b565b611525565b82525050565b6000611552828461152f565b60208201915081905092915050565b600081905092915050565b60006115778261102c565b6115818185611561565b9350611591818560208601611048565b80840191505092915050565b7f2c20000000000000000000000000000000000000000000000000000000000000815250565b60006115cf828561156c565b91506115da8261159d565b6002820191506115ea828461156c565b91508190509392505050565b7f53696d706c65566f74696e673a2053656c662d64656c65676174696f6e20697360008201527f206e6f7420616c6c6f7765642e00000000000000000000000000000000000000602082015250565b6000611652602d83611037565b915061165d826115f6565b604082019050919050565b6000602082019050818103600083015261168181611645565b9050919050565b7f53696d706c65566f74696e673a2044656c65676174696f6e207472616365732060008201527f6261636b20746f2063616c6c65722e0000000000000000000000000000000000602082015250565b60006116e4602f83611037565b91506116ef82611688565b604082019050919050565b60006020820190508181036000830152611713816116d7565b9050919050565b7f53696d706c65566f74696e673a204f6e6c79206368616972506572736f6e206360008201527f616e206769766520726967687420746f20766f74652e00000000000000000000602082015250565b6000611776603683611037565b91506117818261171a565b604082019050919050565b600060208201905081810360008301526117a581611769565b9050919050565b7f53696d706c65566f74696e673a204164647265737320616c726561647920686160008201527f7320726967687420746f20766f74652e00000000000000000000000000000000602082015250565b6000611808603083611037565b9150611813826117ac565b604082019050919050565b60006020820190508181036000830152611837816117fb565b9050919050565b7f4e487b7100000000000000000000000000000000000000000000000000000000600052601160045260246000fd5b600061187882610fc9565b915061188383610fc9565b9250827fffffffffffffffffffffffffffffffffffffffffffffffffffffffffffffffff038211156118b8576118b761183e565b5b82820190509291505056fea2646970667358221220535c20f696194aaec200a5689cc2366b4e77673a581303878456df444e447d3e64736f6c634300080d0033",
					"opcodes": "PUSH1 0x80 PUSH1 0x40 MSTORE CALLVALUE DUP1 ISZERO PUSH3 0x11 JUMPI PUSH1 0x0 DUP1 REVERT JUMPDEST POP PUSH1 0x40 MLOAD PUSH3 0x20CB CODESIZE SUB DUP1 PUSH3 0x20CB DUP4 CODECOPY DUP2 DUP2 ADD PUSH1 0x40 MSTORE DUP2 ADD SWAP1 PUSH3 0x37 SWAP2 SWAP1 PUSH3 0x50A JUMP JUMPDEST PUSH3 0x47 PUSH3 0x21B PUSH1 0x20 SHL PUSH1 0x20 SHR JUMP JUMPDEST PUSH1 0x1 PUSH1 0x0 PUSH2 0x100 EXP DUP2 SLOAD DUP2 PUSH20 0xFFFFFFFFFFFFFFFFFFFFFFFFFFFFFFFFFFFFFFFF MUL NOT AND SWAP1 DUP4 PUSH20 0xFFFFFFFFFFFFFFFFFFFFFFFFFFFFFFFFFFFFFFFF AND MUL OR SWAP1 SSTORE POP PUSH1 0x1 PUSH1 0x2 PUSH1 0x0 PUSH1 0x1 PUSH1 0x0 SWAP1 SLOAD SWAP1 PUSH2 0x100 EXP SWAP1 DIV PUSH20 0xFFFFFFFFFFFFFFFFFFFFFFFFFFFFFFFFFFFFFFFF AND PUSH20 0xFFFFFFFFFFFFFFFFFFFFFFFFFFFFFFFFFFFFFFFF AND PUSH20 0xFFFFFFFFFFFFFFFFFFFFFFFFFFFFFFFFFFFFFFFF AND DUP2 MSTORE PUSH1 0x20 ADD SWAP1 DUP2 MSTORE PUSH1 0x20 ADD PUSH1 0x0 KECCAK256 PUSH1 0x0 ADD DUP2 SWAP1 SSTORE POP DUP1 MLOAD PUSH1 0x0 DUP2 SWAP1 SSTORE POP PUSH1 0x0 JUMPDEST PUSH1 0x0 SLOAD DUP2 LT ISZERO PUSH3 0x1B4 JUMPI PUSH1 0x0 PUSH1 0x40 MLOAD DUP1 PUSH1 0x40 ADD PUSH1 0x40 MSTORE DUP1 PUSH3 0x142 DUP6 DUP6 DUP2 MLOAD DUP2 LT PUSH3 0x12E JUMPI PUSH3 0x12D PUSH3 0x55B JUMP JUMPDEST JUMPDEST PUSH1 0x20 MUL PUSH1 0x20 ADD ADD MLOAD PUSH3 0x223 PUSH1 0x20 SHL PUSH1 0x20 SHR JUMP JUMPDEST DUP2 MSTORE PUSH1 0x20 ADD PUSH1 0x0 DUP2 MSTORE POP SWAP1 POP PUSH1 0x3 DUP2 SWAP1 DUP1 PUSH1 0x1 DUP2 SLOAD ADD DUP1 DUP3 SSTORE DUP1 SWAP2 POP POP PUSH1 0x1 SWAP1 SUB SWAP1 PUSH1 0x0 MSTORE PUSH1 0x20 PUSH1 0x0 KECCAK256 SWAP1 PUSH1 0x2 MUL ADD PUSH1 0x0 SWAP1 SWAP2 SWAP1 SWAP2 SWAP1 SWAP2 POP PUSH1 0x0 DUP3 ADD MLOAD DUP2 PUSH1 0x0 ADD SSTORE PUSH1 0x20 DUP3 ADD MLOAD DUP2 PUSH1 0x1 ADD SSTORE POP POP POP PUSH3 0x1AC PUSH1 0x1 DUP3 PUSH3 0x259 PUSH1 0x20 SHL PUSH3 0xF3F OR SWAP1 SWAP2 SWAP1 PUSH1 0x20 SHR JUMP JUMPDEST SWAP1 POP PUSH3 0xFC JUMP JUMPDEST POP PUSH32 0xF318B16025413645144ED83C64D2D30F089C10BC263CAB68A036C00F011827BE PUSH1 0x1 PUSH1 0x0 SWAP1 SLOAD SWAP1 PUSH2 0x100 EXP SWAP1 DIV PUSH20 0xFFFFFFFFFFFFFFFFFFFFFFFFFFFFFFFFFFFFFFFF AND PUSH1 0x0 SLOAD PUSH1 0x40 MLOAD PUSH3 0x20C SWAP3 SWAP2 SWAP1 PUSH3 0x5EA JUMP JUMPDEST PUSH1 0x40 MLOAD DUP1 SWAP2 SUB SWAP1 LOG1 POP PUSH3 0x7C2 JUMP JUMPDEST PUSH1 0x0 CALLER SWAP1 POP SWAP1 JUMP JUMPDEST PUSH1 0x0 DUP2 PUSH1 0x40 MLOAD PUSH1 0x20 ADD PUSH3 0x238 SWAP2 SWAP1 PUSH3 0x664 JUMP JUMPDEST PUSH1 0x40 MLOAD PUSH1 0x20 DUP2 DUP4 SUB SUB DUP2 MSTORE SWAP1 PUSH1 0x40 MSTORE PUSH3 0x252 SWAP1 PUSH3 0x6C6 JUMP JUMPDEST SWAP1 POP SWAP2 SWAP1 POP JUMP JUMPDEST PUSH1 0x0 DUP2 DUP4 PUSH3 0x269 SWAP2 SWAP1 PUSH3 0x765 JUMP JUMPDEST SWAP1 POP SWAP3 SWAP2 POP POP JUMP JUMPDEST PUSH1 0x0 PUSH1 0x40 MLOAD SWAP1 POP SWAP1 JUMP JUMPDEST PUSH1 0x0 DUP1 REVERT JUMPDEST PUSH1 0x0 DUP1 REVERT JUMPDEST PUSH1 0x0 DUP1 REVERT JUMPDEST PUSH1 0x0 PUSH1 0x1F NOT PUSH1 0x1F DUP4 ADD AND SWAP1 POP SWAP2 SWAP1 POP JUMP JUMPDEST PUSH32 0x4E487B7100000000000000000000000000000000000000000000000000000000 PUSH1 0x0 MSTORE PUSH1 0x41 PUSH1 0x4 MSTORE PUSH1 0x24 PUSH1 0x0 REVERT JUMPDEST PUSH3 0x2D5 DUP3 PUSH3 0x28A JUMP JUMPDEST DUP2 ADD DUP2 DUP2 LT PUSH8 0xFFFFFFFFFFFFFFFF DUP3 GT OR ISZERO PUSH3 0x2F7 JUMPI PUSH3 0x2F6 PUSH3 0x29B JUMP JUMPDEST JUMPDEST DUP1 PUSH1 0x40 MSTORE POP POP POP JUMP JUMPDEST PUSH1 0x0 PUSH3 0x30C PUSH3 0x271 JUMP JUMPDEST SWAP1 POP PUSH3 0x31A DUP3 DUP3 PUSH3 0x2CA JUMP JUMPDEST SWAP2 SWAP1 POP JUMP JUMPDEST PUSH1 0x0 PUSH8 0xFFFFFFFFFFFFFFFF DUP3 GT ISZERO PUSH3 0x33D JUMPI PUSH3 0x33C PUSH3 0x29B JUMP JUMPDEST JUMPDEST PUSH1 0x20 DUP3 MUL SWAP1 POP PUSH1 0x20 DUP2 ADD SWAP1 POP SWAP2 SWAP1 POP JUMP JUMPDEST PUSH1 0x0 DUP1 REVERT JUMPDEST PUSH1 0x0 DUP1 REVERT JUMPDEST PUSH1 0x0 PUSH8 0xFFFFFFFFFFFFFFFF DUP3 GT ISZERO PUSH3 0x376 JUMPI PUSH3 0x375 PUSH3 0x29B JUMP JUMPDEST JUMPDEST PUSH3 0x381 DUP3 PUSH3 0x28A JUMP JUMPDEST SWAP1 POP PUSH1 0x20 DUP2 ADD SWAP1 POP SWAP2 SWAP1 POP JUMP JUMPDEST PUSH1 0x0 JUMPDEST DUP4 DUP2 LT ISZERO PUSH3 0x3AE JUMPI DUP1 DUP3 ADD MLOAD DUP2 DUP5 ADD MSTORE PUSH1 0x20 DUP2 ADD SWAP1 POP PUSH3 0x391 JUMP JUMPDEST DUP4 DUP2 GT ISZERO PUSH3 0x3BE JUMPI PUSH1 0x0 DUP5 DUP5 ADD MSTORE JUMPDEST POP POP POP POP JUMP JUMPDEST PUSH1 0x0 PUSH3 0x3DB PUSH3 0x3D5 DUP5 PUSH3 0x358 JUMP JUMPDEST PUSH3 0x300 JUMP JUMPDEST SWAP1 POP DUP3 DUP2 MSTORE PUSH1 0x20 DUP2 ADD DUP5 DUP5 DUP5 ADD GT ISZERO PUSH3 0x3FA JUMPI PUSH3 0x3F9 PUSH3 0x353 JUMP JUMPDEST JUMPDEST PUSH3 0x407 DUP5 DUP3 DUP6 PUSH3 0x38E JUMP JUMPDEST POP SWAP4 SWAP3 POP POP POP JUMP JUMPDEST PUSH1 0x0 DUP3 PUSH1 0x1F DUP4 ADD SLT PUSH3 0x427 JUMPI PUSH3 0x426 PUSH3 0x285 JUMP JUMPDEST JUMPDEST DUP2 MLOAD PUSH3 0x439 DUP5 DUP3 PUSH1 0x20 DUP7 ADD PUSH3 0x3C4 JUMP JUMPDEST SWAP2 POP POP SWAP3 SWAP2 POP POP JUMP JUMPDEST PUSH1 0x0 PUSH3 0x459 PUSH3 0x453 DUP5 PUSH3 0x31F JUMP JUMPDEST PUSH3 0x300 JUMP JUMPDEST SWAP1 POP DUP1 DUP4 DUP3 MSTORE PUSH1 0x20 DUP3 ADD SWAP1 POP PUSH1 0x20 DUP5 MUL DUP4 ADD DUP6 DUP2 GT ISZERO PUSH3 0x47F JUMPI PUSH3 0x47E PUSH3 0x34E JUMP JUMPDEST JUMPDEST DUP4 JUMPDEST DUP2 DUP2 LT ISZERO PUSH3 0x4CD JUMPI DUP1 MLOAD PUSH8 0xFFFFFFFFFFFFFFFF DUP2 GT ISZERO PUSH3 0x4A8 JUMPI PUSH3 0x4A7 PUSH3 0x285 JUMP JUMPDEST JUMPDEST DUP1 DUP7 ADD PUSH3 0x4B7 DUP10 DUP3 PUSH3 0x40F JUMP JUMPDEST DUP6 MSTORE PUSH1 0x20 DUP6 ADD SWAP5 POP POP POP PUSH1 0x20 DUP2 ADD SWAP1 POP PUSH3 0x481 JUMP JUMPDEST POP POP POP SWAP4 SWAP3 POP POP POP JUMP JUMPDEST PUSH1 0x0 DUP3 PUSH1 0x1F DUP4 ADD SLT PUSH3 0x4EF JUMPI PUSH3 0x4EE PUSH3 0x285 JUMP JUMPDEST JUMPDEST DUP2 MLOAD PUSH3 0x501 DUP5 DUP3 PUSH1 0x20 DUP7 ADD PUSH3 0x442 JUMP JUMPDEST SWAP2 POP POP SWAP3 SWAP2 POP POP JUMP JUMPDEST PUSH1 0x0 PUSH1 0x20 DUP3 DUP5 SUB SLT ISZERO PUSH3 0x523 JUMPI PUSH3 0x522 PUSH3 0x27B JUMP JUMPDEST JUMPDEST PUSH1 0x0 DUP3 ADD MLOAD PUSH8 0xFFFFFFFFFFFFFFFF DUP2 GT ISZERO PUSH3 0x544 JUMPI PUSH3 0x543 PUSH3 0x280 JUMP JUMPDEST JUMPDEST PUSH3 0x552 DUP5 DUP3 DUP6 ADD PUSH3 0x4D7 JUMP JUMPDEST SWAP2 POP POP SWAP3 SWAP2 POP POP JUMP JUMPDEST PUSH32 0x4E487B7100000000000000000000000000000000000000000000000000000000 PUSH1 0x0 MSTORE PUSH1 0x32 PUSH1 0x4 MSTORE PUSH1 0x24 PUSH1 0x0 REVERT JUMPDEST PUSH1 0x0 PUSH20 0xFFFFFFFFFFFFFFFFFFFFFFFFFFFFFFFFFFFFFFFF DUP3 AND SWAP1 POP SWAP2 SWAP1 POP JUMP JUMPDEST PUSH1 0x0 PUSH3 0x5B7 DUP3 PUSH3 0x58A JUMP JUMPDEST SWAP1 POP SWAP2 SWAP1 POP JUMP JUMPDEST PUSH3 0x5C9 DUP2 PUSH3 0x5AA JUMP JUMPDEST DUP3 MSTORE POP POP JUMP JUMPDEST PUSH1 0x0 DUP2 SWAP1 POP SWAP2 SWAP1 POP JUMP JUMPDEST PUSH3 0x5E4 DUP2 PUSH3 0x5CF JUMP JUMPDEST DUP3 MSTORE POP POP JUMP JUMPDEST PUSH1 0x0 PUSH1 0x40 DUP3 ADD SWAP1 POP PUSH3 0x601 PUSH1 0x0 DUP4 ADD DUP6 PUSH3 0x5BE JUMP JUMPDEST PUSH3 0x610 PUSH1 0x20 DUP4 ADD DUP5 PUSH3 0x5D9 JUMP JUMPDEST SWAP4 SWAP3 POP POP POP JUMP JUMPDEST PUSH1 0x0 DUP2 MLOAD SWAP1 POP SWAP2 SWAP1 POP JUMP JUMPDEST PUSH1 0x0 DUP2 SWAP1 POP SWAP3 SWAP2 POP POP JUMP JUMPDEST PUSH1 0x0 PUSH3 0x63A DUP3 PUSH3 0x617 JUMP JUMPDEST PUSH3 0x646 DUP2 DUP6 PUSH3 0x622 JUMP JUMPDEST SWAP4 POP PUSH3 0x658 DUP2 DUP6 PUSH1 0x20 DUP7 ADD PUSH3 0x38E JUMP JUMPDEST DUP1 DUP5 ADD SWAP2 POP POP SWAP3 SWAP2 POP POP JUMP JUMPDEST PUSH1 0x0 PUSH3 0x672 DUP3 DUP5 PUSH3 0x62D JUMP JUMPDEST SWAP2 POP DUP2 SWAP1 POP SWAP3 SWAP2 POP POP JUMP JUMPDEST PUSH1 0x0 DUP2 MLOAD SWAP1 POP SWAP2 SWAP1 POP JUMP JUMPDEST PUSH1 0x0 DUP2 SWAP1 POP PUSH1 0x20 DUP3 ADD SWAP1 POP SWAP2 SWAP1 POP JUMP JUMPDEST PUSH1 0x0 DUP2 SWAP1 POP SWAP2 SWAP1 POP JUMP JUMPDEST PUSH1 0x0 PUSH3 0x6B0 DUP3 MLOAD PUSH3 0x698 JUMP JUMPDEST DUP1 SWAP2 POP POP SWAP2 SWAP1 POP JUMP JUMPDEST PUSH1 0x0 DUP3 DUP3 SHL SWAP1 POP SWAP3 SWAP2 POP POP JUMP JUMPDEST PUSH1 0x0 PUSH3 0x6D3 DUP3 PUSH3 0x67D JUMP JUMPDEST DUP3 PUSH3 0x6DF DUP5 PUSH3 0x688 JUMP JUMPDEST SWAP1 POP PUSH3 0x6EC DUP2 PUSH3 0x6A2 JUMP JUMPDEST SWAP3 POP PUSH1 0x20 DUP3 LT ISZERO PUSH3 0x72F JUMPI PUSH3 0x72A PUSH32 0xFFFFFFFFFFFFFFFFFFFFFFFFFFFFFFFFFFFFFFFFFFFFFFFFFFFFFFFFFFFFFFFF DUP4 PUSH1 0x20 SUB PUSH1 0x8 MUL PUSH3 0x6B9 JUMP JUMPDEST DUP4 AND SWAP3 POP JUMPDEST POP POP SWAP2 SWAP1 POP JUMP JUMPDEST PUSH32 0x4E487B7100000000000000000000000000000000000000000000000000000000 PUSH1 0x0 MSTORE PUSH1 0x11 PUSH1 0x4 MSTORE PUSH1 0x24 PUSH1 0x0 REVERT JUMPDEST PUSH1 0x0 PUSH3 0x772 DUP3 PUSH3 0x5CF JUMP JUMPDEST SWAP2 POP PUSH3 0x77F DUP4 PUSH3 0x5CF JUMP JUMPDEST SWAP3 POP DUP3 PUSH32 0xFFFFFFFFFFFFFFFFFFFFFFFFFFFFFFFFFFFFFFFFFFFFFFFFFFFFFFFFFFFFFFFF SUB DUP3 GT ISZERO PUSH3 0x7B7 JUMPI PUSH3 0x7B6 PUSH3 0x736 JUMP JUMPDEST JUMPDEST DUP3 DUP3 ADD SWAP1 POP SWAP3 SWAP2 POP POP JUMP JUMPDEST PUSH2 0x18F9 DUP1 PUSH3 0x7D2 PUSH1 0x0 CODECOPY PUSH1 0x0 RETURN INVALID PUSH1 0x80 PUSH1 0x40 MSTORE CALLVALUE DUP1 ISZERO PUSH2 0x10 JUMPI PUSH1 0x0 DUP1 REVERT JUMPDEST POP PUSH1 0x4 CALLDATASIZE LT PUSH2 0x9E JUMPI PUSH1 0x0 CALLDATALOAD PUSH1 0xE0 SHR DUP1 PUSH4 0xA3EC138D GT PUSH2 0x66 JUMPI DUP1 PUSH4 0xA3EC138D EQ PUSH2 0x11F JUMPI DUP1 PUSH4 0xC7F758A8 EQ PUSH2 0x152 JUMPI DUP1 PUSH4 0xD4D4B5AC EQ PUSH2 0x183 JUMPI DUP1 PUSH4 0xDA35C664 EQ PUSH2 0x1A1 JUMPI DUP1 PUSH4 0xEF788CD5 EQ PUSH2 0x1BF JUMPI PUSH2 0x9E JUMP JUMPDEST DUP1 PUSH4 0x121B93F EQ PUSH2 0xA3 JUMPI DUP1 PUSH4 0x28BE18EE EQ PUSH2 0xBF JUMPI DUP1 PUSH4 0x5C19A95C EQ PUSH2 0xDD JUMPI DUP1 PUSH4 0x5F07B961 EQ PUSH2 0xF9 JUMPI DUP1 PUSH4 0x9E7B8D61 EQ PUSH2 0x103 JUMPI JUMPDEST PUSH1 0x0 DUP1 REVERT JUMPDEST PUSH2 0xBD PUSH1 0x4 DUP1 CALLDATASIZE SUB DUP2 ADD SWAP1 PUSH2 0xB8 SWAP2 SWAP1 PUSH2 0xFFF JUMP JUMPDEST PUSH2 0x1DD JUMP JUMPDEST STOP JUMPDEST PUSH2 0xC7 PUSH2 0x47D JUMP JUMPDEST PUSH1 0x40 MLOAD PUSH2 0xD4 SWAP2 SWAP1 PUSH2 0x10C5 JUMP JUMPDEST PUSH1 0x40 MLOAD DUP1 SWAP2 SUB SWAP1 RETURN JUMPDEST PUSH2 0xF7 PUSH1 0x4 DUP1 CALLDATASIZE SUB DUP2 ADD SWAP1 PUSH2 0xF2 SWAP2 SWAP1 PUSH2 0x1145 JUMP JUMPDEST PUSH2 0x534 JUMP JUMPDEST STOP JUMPDEST PUSH2 0x101 PUSH2 0xA46 JUMP JUMPDEST STOP JUMPDEST PUSH2 0x11D PUSH1 0x4 DUP1 CALLDATASIZE SUB DUP2 ADD SWAP1 PUSH2 0x118 SWAP2 SWAP1 PUSH2 0x1145 JUMP JUMPDEST PUSH2 0xBBA JUMP JUMPDEST STOP JUMPDEST PUSH2 0x139 PUSH1 0x4 DUP1 CALLDATASIZE SUB DUP2 ADD SWAP1 PUSH2 0x134 SWAP2 SWAP1 PUSH2 0x1145 JUMP JUMPDEST PUSH2 0xDB3 JUMP JUMPDEST PUSH1 0x40 MLOAD PUSH2 0x149 SWAP5 SWAP4 SWAP3 SWAP2 SWAP1 PUSH2 0x11AB JUMP JUMPDEST PUSH1 0x40 MLOAD DUP1 SWAP2 SUB SWAP1 RETURN JUMPDEST PUSH2 0x16C PUSH1 0x4 DUP1 CALLDATASIZE SUB DUP2 ADD SWAP1 PUSH2 0x167 SWAP2 SWAP1 PUSH2 0xFFF JUMP JUMPDEST PUSH2 0xE10 JUMP JUMPDEST PUSH1 0x40 MLOAD PUSH2 0x17A SWAP3 SWAP2 SWAP1 PUSH2 0x11F0 JUMP JUMPDEST PUSH1 0x40 MLOAD DUP1 SWAP2 SUB SWAP1 RETURN JUMPDEST PUSH2 0x18B PUSH2 0xEBB JUMP JUMPDEST PUSH1 0x40 MLOAD PUSH2 0x198 SWAP2 SWAP1 PUSH2 0x1220 JUMP JUMPDEST PUSH1 0x40 MLOAD DUP1 SWAP2 SUB SWAP1 RETURN JUMPDEST PUSH2 0x1A9 PUSH2 0xEE1 JUMP JUMPDEST PUSH1 0x40 MLOAD PUSH2 0x1B6 SWAP2 SWAP1 PUSH2 0x123B JUMP JUMPDEST PUSH1 0x40 MLOAD DUP1 SWAP2 SUB SWAP1 RETURN JUMPDEST PUSH2 0x1C7 PUSH2 0xEE7 JUMP JUMPDEST PUSH1 0x40 MLOAD PUSH2 0x1D4 SWAP2 SWAP1 PUSH2 0x1314 JUMP JUMPDEST PUSH1 0x40 MLOAD DUP1 SWAP2 SUB SWAP1 RETURN JUMPDEST DUP1 PUSH1 0x0 SLOAD DUP2 LT PUSH2 0x222 JUMPI PUSH1 0x40 MLOAD PUSH32 0x8C379A000000000000000000000000000000000000000000000000000000000 DUP2 MSTORE PUSH1 0x4 ADD PUSH2 0x219 SWAP1 PUSH2 0x13A8 JUMP JUMPDEST PUSH1 0x40 MLOAD DUP1 SWAP2 SUB SWAP1 REVERT JUMPDEST PUSH2 0x22A PUSH2 0xF55 JUMP JUMPDEST PUSH1 0x2 PUSH1 0x0 DUP3 PUSH20 0xFFFFFFFFFFFFFFFFFFFFFFFFFFFFFFFFFFFFFFFF AND PUSH20 0xFFFFFFFFFFFFFFFFFFFFFFFFFFFFFFFFFFFFFFFF AND DUP2 MSTORE PUSH1 0x20 ADD SWAP1 DUP2 MSTORE PUSH1 0x20 ADD PUSH1 0x0 KECCAK256 PUSH1 0x1 ADD PUSH1 0x0 SWAP1 SLOAD SWAP1 PUSH2 0x100 EXP SWAP1 DIV PUSH1 0xFF AND ISZERO PUSH2 0x2BA JUMPI PUSH1 0x40 MLOAD PUSH32 0x8C379A000000000000000000000000000000000000000000000000000000000 DUP2 MSTORE PUSH1 0x4 ADD PUSH2 0x2B1 SWAP1 PUSH2 0x143A JUMP JUMPDEST PUSH1 0x40 MLOAD DUP1 SWAP2 SUB SWAP1 REVERT JUMPDEST PUSH2 0x2C2 PUSH2 0xF55 JUMP JUMPDEST PUSH1 0x0 PUSH1 0x2 PUSH1 0x0 DUP4 PUSH20 0xFFFFFFFFFFFFFFFFFFFFFFFFFFFFFFFFFFFFFFFF AND PUSH20 0xFFFFFFFFFFFFFFFFFFFFFFFFFFFFFFFFFFFFFFFF AND DUP2 MSTORE PUSH1 0x20 ADD SWAP1 DUP2 MSTORE PUSH1 0x20 ADD PUSH1 0x0 KECCAK256 PUSH1 0x0 ADD SLOAD GT PUSH2 0x347 JUMPI PUSH1 0x40 MLOAD PUSH32 0x8C379A000000000000000000000000000000000000000000000000000000000 DUP2 MSTORE PUSH1 0x4 ADD PUSH2 0x33E SWAP1 PUSH2 0x14CC JUMP JUMPDEST PUSH1 0x40 MLOAD DUP1 SWAP2 SUB SWAP1 REVERT JUMPDEST PUSH1 0x0 PUSH1 0x2 PUSH1 0x0 PUSH2 0x355 PUSH2 0xF55 JUMP JUMPDEST PUSH20 0xFFFFFFFFFFFFFFFFFFFFFFFFFFFFFFFFFFFFFFFF AND PUSH20 0xFFFFFFFFFFFFFFFFFFFFFFFFFFFFFFFFFFFFFFFF AND DUP2 MSTORE PUSH1 0x20 ADD SWAP1 DUP2 MSTORE PUSH1 0x20 ADD PUSH1 0x0 KECCAK256 SWAP1 POP PUSH1 0x1 DUP2 PUSH1 0x1 ADD PUSH1 0x0 PUSH2 0x100 EXP DUP2 SLOAD DUP2 PUSH1 0xFF MUL NOT AND SWAP1 DUP4 ISZERO ISZERO MUL OR SWAP1 SSTORE POP DUP5 DUP2 PUSH1 0x2 ADD DUP2 SWAP1 SSTORE POP PUSH2 0x3F3 DUP2 PUSH1 0x0 ADD SLOAD PUSH1 0x3 DUP8 DUP2 SLOAD DUP2 LT PUSH2 0x3D3 JUMPI PUSH2 0x3D2 PUSH2 0x14EC JUMP JUMPDEST JUMPDEST SWAP1 PUSH1 0x0 MSTORE PUSH1 0x20 PUSH1 0x0 KECCAK256 SWAP1 PUSH1 0x2 MUL ADD PUSH1 0x1 ADD SLOAD PUSH2 0xF3F SWAP1 SWAP2 SWAP1 PUSH4 0xFFFFFFFF AND JUMP JUMPDEST PUSH1 0x3 DUP7 DUP2 SLOAD DUP2 LT PUSH2 0x407 JUMPI PUSH2 0x406 PUSH2 0x14EC JUMP JUMPDEST JUMPDEST SWAP1 PUSH1 0x0 MSTORE PUSH1 0x20 PUSH1 0x0 KECCAK256 SWAP1 PUSH1 0x2 MUL ADD PUSH1 0x1 ADD DUP2 SWAP1 SSTORE POP PUSH2 0x424 PUSH2 0xF55 JUMP JUMPDEST PUSH20 0xFFFFFFFFFFFFFFFFFFFFFFFFFFFFFFFFFFFFFFFF AND DUP6 PUSH32 0xE7EE74CA1F4BB1B82B14F87794C45B3E59C39E372B862FB97A6316B43355B69E DUP4 PUSH1 0x0 ADD SLOAD PUSH1 0x40 MLOAD PUSH2 0x46E SWAP2 SWAP1 PUSH2 0x123B JUMP JUMPDEST PUSH1 0x40 MLOAD DUP1 SWAP2 SUB SWAP1 LOG3 POP POP POP POP POP JUMP JUMPDEST PUSH1 0x60 PUSH1 0x0 JUMPDEST PUSH1 0x4 DUP1 SLOAD SWAP1 POP DUP2 LT ISZERO PUSH2 0x530 JUMPI DUP2 PUSH1 0x3 PUSH1 0x4 DUP4 DUP2 SLOAD DUP2 LT PUSH2 0x4A6 JUMPI PUSH2 0x4A5 PUSH2 0x14EC JUMP JUMPDEST JUMPDEST SWAP1 PUSH1 0x0 MSTORE PUSH1 0x20 PUSH1 0x0 KECCAK256 ADD SLOAD DUP2 SLOAD DUP2 LT PUSH2 0x4C2 JUMPI PUSH2 0x4C1 PUSH2 0x14EC JUMP JUMPDEST JUMPDEST SWAP1 PUSH1 0x0 MSTORE PUSH1 0x20 PUSH1 0x0 KECCAK256 SWAP1 PUSH1 0x2 MUL ADD PUSH1 0x0 ADD SLOAD PUSH1 0x40 MLOAD PUSH1 0x20 ADD PUSH2 0x4E4 SWAP2 SWAP1 PUSH2 0x1546 JUMP JUMPDEST PUSH1 0x40 MLOAD PUSH1 0x20 DUP2 DUP4 SUB SUB DUP2 MSTORE SWAP1 PUSH1 0x40 MSTORE PUSH1 0x40 MLOAD PUSH1 0x20 ADD PUSH2 0x504 SWAP3 SWAP2 SWAP1 PUSH2 0x15C3 JUMP JUMPDEST PUSH1 0x40 MLOAD PUSH1 0x20 DUP2 DUP4 SUB SUB DUP2 MSTORE SWAP1 PUSH1 0x40 MSTORE SWAP2 POP PUSH2 0x529 PUSH1 0x1 DUP3 PUSH2 0xF3F SWAP1 SWAP2 SWAP1 PUSH4 0xFFFFFFFF AND JUMP JUMPDEST SWAP1 POP PUSH2 0x482 JUMP JUMPDEST POP SWAP1 JUMP JUMPDEST PUSH2 0x53C PUSH2 0xF55 JUMP JUMPDEST PUSH1 0x2 PUSH1 0x0 DUP3 PUSH20 0xFFFFFFFFFFFFFFFFFFFFFFFFFFFFFFFFFFFFFFFF AND PUSH20 0xFFFFFFFFFFFFFFFFFFFFFFFFFFFFFFFFFFFFFFFF AND DUP2 MSTORE PUSH1 0x20 ADD SWAP1 DUP2 MSTORE PUSH1 0x20 ADD PUSH1 0x0 KECCAK256 PUSH1 0x1 ADD PUSH1 0x0 SWAP1 SLOAD SWAP1 PUSH2 0x100 EXP SWAP1 DIV PUSH1 0xFF AND ISZERO PUSH2 0x5CC JUMPI PUSH1 0x40 MLOAD PUSH32 0x8C379A000000000000000000000000000000000000000000000000000000000 DUP2 MSTORE PUSH1 0x4 ADD PUSH2 0x5C3 SWAP1 PUSH2 0x143A JUMP JUMPDEST PUSH1 0x40 MLOAD DUP1 SWAP2 SUB SWAP1 REVERT JUMPDEST PUSH2 0x5D4 PUSH2 0xF55 JUMP JUMPDEST PUSH1 0x0 PUSH1 0x2 PUSH1 0x0 DUP4 PUSH20 0xFFFFFFFFFFFFFFFFFFFFFFFFFFFFFFFFFFFFFFFF AND PUSH20 0xFFFFFFFFFFFFFFFFFFFFFFFFFFFFFFFFFFFFFFFF AND DUP2 MSTORE PUSH1 0x20 ADD SWAP1 DUP2 MSTORE PUSH1 0x20 ADD PUSH1 0x0 KECCAK256 PUSH1 0x0 ADD SLOAD GT PUSH2 0x659 JUMPI PUSH1 0x40 MLOAD PUSH32 0x8C379A000000000000000000000000000000000000000000000000000000000 DUP2 MSTORE PUSH1 0x4 ADD PUSH2 0x650 SWAP1 PUSH2 0x14CC JUMP JUMPDEST PUSH1 0x40 MLOAD DUP1 SWAP2 SUB SWAP1 REVERT JUMPDEST PUSH1 0x0 PUSH1 0x2 PUSH1 0x0 PUSH2 0x667 PUSH2 0xF55 JUMP JUMPDEST PUSH20 0xFFFFFFFFFFFFFFFFFFFFFFFFFFFFFFFFFFFFFFFF AND PUSH20 0xFFFFFFFFFFFFFFFFFFFFFFFFFFFFFFFFFFFFFFFF AND DUP2 MSTORE PUSH1 0x20 ADD SWAP1 DUP2 MSTORE PUSH1 0x20 ADD PUSH1 0x0 KECCAK256 SWAP1 POP PUSH2 0x6AB PUSH2 0xF55 JUMP JUMPDEST PUSH20 0xFFFFFFFFFFFFFFFFFFFFFFFFFFFFFFFFFFFFFFFF AND DUP5 PUSH20 0xFFFFFFFFFFFFFFFFFFFFFFFFFFFFFFFFFFFFFFFF AND SUB PUSH2 0x718 JUMPI PUSH1 0x40 MLOAD PUSH32 0x8C379A000000000000000000000000000000000000000000000000000000000 DUP2 MSTORE PUSH1 0x4 ADD PUSH2 0x70F SWAP1 PUSH2 0x1668 JUMP JUMPDEST PUSH1 0x40 MLOAD DUP1 SWAP2 SUB SWAP1 REVERT JUMPDEST JUMPDEST PUSH1 0x0 PUSH20 0xFFFFFFFFFFFFFFFFFFFFFFFFFFFFFFFFFFFFFFFF AND PUSH1 0x2 PUSH1 0x0 DUP7 PUSH20 0xFFFFFFFFFFFFFFFFFFFFFFFFFFFFFFFFFFFFFFFF AND PUSH20 0xFFFFFFFFFFFFFFFFFFFFFFFFFFFFFFFFFFFFFFFF AND DUP2 MSTORE PUSH1 0x20 ADD SWAP1 DUP2 MSTORE PUSH1 0x20 ADD PUSH1 0x0 KECCAK256 PUSH1 0x1 ADD PUSH1 0x1 SWAP1 SLOAD SWAP1 PUSH2 0x100 EXP SWAP1 DIV PUSH20 0xFFFFFFFFFFFFFFFFFFFFFFFFFFFFFFFFFFFFFFFF AND PUSH20 0xFFFFFFFFFFFFFFFFFFFFFFFFFFFFFFFFFFFFFFFF AND EQ PUSH2 0x88E JUMPI PUSH1 0x2 PUSH1 0x0 DUP6 PUSH20 0xFFFFFFFFFFFFFFFFFFFFFFFFFFFFFFFFFFFFFFFF AND PUSH20 0xFFFFFFFFFFFFFFFFFFFFFFFFFFFFFFFFFFFFFFFF AND DUP2 MSTORE PUSH1 0x20 ADD SWAP1 DUP2 MSTORE PUSH1 0x20 ADD PUSH1 0x0 KECCAK256 PUSH1 0x1 ADD PUSH1 0x1 SWAP1 SLOAD SWAP1 PUSH2 0x100 EXP SWAP1 DIV PUSH20 0xFFFFFFFFFFFFFFFFFFFFFFFFFFFFFFFFFFFFFFFF AND SWAP4 POP PUSH2 0x81C PUSH2 0xF55 JUMP JUMPDEST PUSH20 0xFFFFFFFFFFFFFFFFFFFFFFFFFFFFFFFFFFFFFFFF AND DUP5 PUSH20 0xFFFFFFFFFFFFFFFFFFFFFFFFFFFFFFFFFFFFFFFF AND SUB PUSH2 0x889 JUMPI PUSH1 0x40 MLOAD PUSH32 0x8C379A000000000000000000000000000000000000000000000000000000000 DUP2 MSTORE PUSH1 0x4 ADD PUSH2 0x880 SWAP1 PUSH2 0x16FA JUMP JUMPDEST PUSH1 0x40 MLOAD DUP1 SWAP2 SUB SWAP1 REVERT JUMPDEST PUSH2 0x719 JUMP JUMPDEST PUSH1 0x1 DUP2 PUSH1 0x1 ADD PUSH1 0x0 PUSH2 0x100 EXP DUP2 SLOAD DUP2 PUSH1 0xFF MUL NOT AND SWAP1 DUP4 ISZERO ISZERO MUL OR SWAP1 SSTORE POP DUP4 DUP2 PUSH1 0x1 ADD PUSH1 0x1 PUSH2 0x100 EXP DUP2 SLOAD DUP2 PUSH20 0xFFFFFFFFFFFFFFFFFFFFFFFFFFFFFFFFFFFFFFFF MUL NOT AND SWAP1 DUP4 PUSH20 0xFFFFFFFFFFFFFFFFFFFFFFFFFFFFFFFFFFFFFFFF AND MUL OR SWAP1 SSTORE POP PUSH1 0x0 PUSH1 0x2 PUSH1 0x0 DUP7 PUSH20 0xFFFFFFFFFFFFFFFFFFFFFFFFFFFFFFFFFFFFFFFF AND PUSH20 0xFFFFFFFFFFFFFFFFFFFFFFFFFFFFFFFFFFFFFFFF AND DUP2 MSTORE PUSH1 0x20 ADD SWAP1 DUP2 MSTORE PUSH1 0x20 ADD PUSH1 0x0 KECCAK256 SWAP1 POP DUP1 PUSH1 0x1 ADD PUSH1 0x0 SWAP1 SLOAD SWAP1 PUSH2 0x100 EXP SWAP1 DIV PUSH1 0xFF AND ISZERO PUSH2 0x9BA JUMPI PUSH2 0x988 DUP3 PUSH1 0x0 ADD SLOAD PUSH1 0x3 DUP4 PUSH1 0x2 ADD SLOAD DUP2 SLOAD DUP2 LT PUSH2 0x968 JUMPI PUSH2 0x967 PUSH2 0x14EC JUMP JUMPDEST JUMPDEST SWAP1 PUSH1 0x0 MSTORE PUSH1 0x20 PUSH1 0x0 KECCAK256 SWAP1 PUSH1 0x2 MUL ADD PUSH1 0x1 ADD SLOAD PUSH2 0xF3F SWAP1 SWAP2 SWAP1 PUSH4 0xFFFFFFFF AND JUMP JUMPDEST PUSH1 0x3 DUP3 PUSH1 0x2 ADD SLOAD DUP2 SLOAD DUP2 LT PUSH2 0x9A0 JUMPI PUSH2 0x99F PUSH2 0x14EC JUMP JUMPDEST JUMPDEST SWAP1 PUSH1 0x0 MSTORE PUSH1 0x20 PUSH1 0x0 KECCAK256 SWAP1 PUSH1 0x2 MUL ADD PUSH1 0x1 ADD DUP2 SWAP1 SSTORE POP PUSH2 0x9DE JUMP JUMPDEST PUSH2 0x9D5 DUP3 PUSH1 0x0 ADD SLOAD DUP3 PUSH1 0x0 ADD SLOAD PUSH2 0xF3F SWAP1 SWAP2 SWAP1 PUSH4 0xFFFFFFFF AND JUMP JUMPDEST DUP2 PUSH1 0x0 ADD DUP2 SWAP1 SSTORE POP JUMPDEST DUP5 PUSH20 0xFFFFFFFFFFFFFFFFFFFFFFFFFFFFFFFFFFFFFFFF AND PUSH2 0x9FD PUSH2 0xF55 JUMP JUMPDEST PUSH20 0xFFFFFFFFFFFFFFFFFFFFFFFFFFFFFFFFFFFFFFFF AND PUSH32 0x4CE9EF2C99D761D69230B0E3381F4C6016333B2E27D32B3E379A96B5D2C69232 PUSH1 0x40 MLOAD PUSH1 0x40 MLOAD DUP1 SWAP2 SUB SWAP1 LOG3 POP POP POP POP POP JUMP JUMPDEST PUSH1 0x0 DUP1 PUSH1 0x4 PUSH1 0x0 PUSH2 0xA57 SWAP2 SWAP1 PUSH2 0xF86 JUMP JUMPDEST PUSH1 0x0 JUMPDEST PUSH1 0x3 DUP1 SLOAD SWAP1 POP DUP2 LT ISZERO PUSH2 0xB01 JUMPI DUP3 PUSH1 0x3 DUP3 DUP2 SLOAD DUP2 LT PUSH2 0xA7C JUMPI PUSH2 0xA7B PUSH2 0x14EC JUMP JUMPDEST JUMPDEST SWAP1 PUSH1 0x0 MSTORE PUSH1 0x20 PUSH1 0x0 KECCAK256 SWAP1 PUSH1 0x2 MUL ADD PUSH1 0x1 ADD SLOAD GT ISZERO PUSH2 0xAE6 JUMPI PUSH1 0x3 DUP2 DUP2 SLOAD DUP2 LT PUSH2 0xAA8 JUMPI PUSH2 0xAA7 PUSH2 0x14EC JUMP JUMPDEST JUMPDEST SWAP1 PUSH1 0x0 MSTORE PUSH1 0x20 PUSH1 0x0 KECCAK256 SWAP1 PUSH1 0x2 MUL ADD PUSH1 0x1 ADD SLOAD SWAP3 POP PUSH1 0x4 DUP2 SWAP1 DUP1 PUSH1 0x1 DUP2 SLOAD ADD DUP1 DUP3 SSTORE DUP1 SWAP2 POP POP PUSH1 0x1 SWAP1 SUB SWAP1 PUSH1 0x0 MSTORE PUSH1 0x20 PUSH1 0x0 KECCAK256 ADD PUSH1 0x0 SWAP1 SWAP2 SWAP1 SWAP2 SWAP1 SWAP2 POP SSTORE JUMPDEST PUSH2 0xAFA PUSH1 0x1 DUP3 PUSH2 0xF3F SWAP1 SWAP2 SWAP1 PUSH4 0xFFFFFFFF AND JUMP JUMPDEST SWAP1 POP PUSH2 0xA5A JUMP JUMPDEST POP PUSH1 0x0 JUMPDEST PUSH1 0x3 DUP1 SLOAD SWAP1 POP DUP2 LT ISZERO PUSH2 0xBB5 JUMPI PUSH1 0x3 DUP3 DUP2 SLOAD DUP2 LT PUSH2 0xB26 JUMPI PUSH2 0xB25 PUSH2 0x14EC JUMP JUMPDEST JUMPDEST SWAP1 PUSH1 0x0 MSTORE PUSH1 0x20 PUSH1 0x0 KECCAK256 SWAP1 PUSH1 0x2 MUL ADD PUSH1 0x1 ADD SLOAD PUSH1 0x3 DUP3 DUP2 SLOAD DUP2 LT PUSH2 0xB4C JUMPI PUSH2 0xB4B PUSH2 0x14EC JUMP JUMPDEST JUMPDEST SWAP1 PUSH1 0x0 MSTORE PUSH1 0x20 PUSH1 0x0 KECCAK256 SWAP1 PUSH1 0x2 MUL ADD PUSH1 0x1 ADD SLOAD EQ DUP1 ISZERO PUSH2 0xB6B JUMPI POP DUP2 DUP2 EQ ISZERO JUMPDEST ISZERO PUSH2 0xB9A JUMPI PUSH1 0x4 DUP2 SWAP1 DUP1 PUSH1 0x1 DUP2 SLOAD ADD DUP1 DUP3 SSTORE DUP1 SWAP2 POP POP PUSH1 0x1 SWAP1 SUB SWAP1 PUSH1 0x0 MSTORE PUSH1 0x20 PUSH1 0x0 KECCAK256 ADD PUSH1 0x0 SWAP1 SWAP2 SWAP1 SWAP2 SWAP1 SWAP2 POP SSTORE JUMPDEST PUSH2 0xBAE PUSH1 0x1 DUP3 PUSH2 0xF3F SWAP1 SWAP2 SWAP1 PUSH4 0xFFFFFFFF AND JUMP JUMPDEST SWAP1 POP PUSH2 0xB05 JUMP JUMPDEST POP POP POP JUMP JUMPDEST PUSH1 0x1 PUSH1 0x0 SWAP1 SLOAD SWAP1 PUSH2 0x100 EXP SWAP1 DIV PUSH20 0xFFFFFFFFFFFFFFFFFFFFFFFFFFFFFFFFFFFFFFFF AND PUSH20 0xFFFFFFFFFFFFFFFFFFFFFFFFFFFFFFFFFFFFFFFF AND PUSH2 0xBFB PUSH2 0xF55 JUMP JUMPDEST PUSH20 0xFFFFFFFFFFFFFFFFFFFFFFFFFFFFFFFFFFFFFFFF AND EQ PUSH2 0xC51 JUMPI PUSH1 0x40 MLOAD PUSH32 0x8C379A000000000000000000000000000000000000000000000000000000000 DUP2 MSTORE PUSH1 0x4 ADD PUSH2 0xC48 SWAP1 PUSH2 0x178C JUMP JUMPDEST PUSH1 0x40 MLOAD DUP1 SWAP2 SUB SWAP1 REVERT JUMPDEST DUP1 PUSH1 0x2 PUSH1 0x0 DUP3 PUSH20 0xFFFFFFFFFFFFFFFFFFFFFFFFFFFFFFFFFFFFFFFF AND PUSH20 0xFFFFFFFFFFFFFFFFFFFFFFFFFFFFFFFFFFFFFFFF AND DUP2 MSTORE PUSH1 0x20 ADD SWAP1 DUP2 MSTORE PUSH1 0x20 ADD PUSH1 0x0 KECCAK256 PUSH1 0x1 ADD PUSH1 0x0 SWAP1 SLOAD SWAP1 PUSH2 0x100 EXP SWAP1 DIV PUSH1 0xFF AND ISZERO PUSH2 0xCE2 JUMPI PUSH1 0x40 MLOAD PUSH32 0x8C379A000000000000000000000000000000000000000000000000000000000 DUP2 MSTORE PUSH1 0x4 ADD PUSH2 0xCD9 SWAP1 PUSH2 0x143A JUMP JUMPDEST PUSH1 0x40 MLOAD DUP1 SWAP2 SUB SWAP1 REVERT JUMPDEST PUSH1 0x0 PUSH1 0x2 PUSH1 0x0 DUP5 PUSH20 0xFFFFFFFFFFFFFFFFFFFFFFFFFFFFFFFFFFFFFFFF AND PUSH20 0xFFFFFFFFFFFFFFFFFFFFFFFFFFFFFFFFFFFFFFFF AND DUP2 MSTORE PUSH1 0x20 ADD SWAP1 DUP2 MSTORE PUSH1 0x20 ADD PUSH1 0x0 KECCAK256 PUSH1 0x0 ADD SLOAD EQ PUSH2 0xD67 JUMPI PUSH1 0x40 MLOAD PUSH32 0x8C379A000000000000000000000000000000000000000000000000000000000 DUP2 MSTORE PUSH1 0x4 ADD PUSH2 0xD5E SWAP1 PUSH2 0x181E JUMP JUMPDEST PUSH1 0x40 MLOAD DUP1 SWAP2 SUB SWAP1 REVERT JUMPDEST PUSH1 0x1 PUSH1 0x2 PUSH1 0x0 DUP5 PUSH20 0xFFFFFFFFFFFFFFFFFFFFFFFFFFFFFFFFFFFFFFFF AND PUSH20 0xFFFFFFFFFFFFFFFFFFFFFFFFFFFFFFFFFFFFFFFF AND DUP2 MSTORE PUSH1 0x20 ADD SWAP1 DUP2 MSTORE PUSH1 0x20 ADD PUSH1 0x0 KECCAK256 PUSH1 0x0 ADD DUP2 SWAP1 SSTORE POP POP POP JUMP JUMPDEST PUSH1 0x2 PUSH1 0x20 MSTORE DUP1 PUSH1 0x0 MSTORE PUSH1 0x40 PUSH1 0x0 KECCAK256 PUSH1 0x0 SWAP2 POP SWAP1 POP DUP1 PUSH1 0x0 ADD SLOAD SWAP1 DUP1 PUSH1 0x1 ADD PUSH1 0x0 SWAP1 SLOAD SWAP1 PUSH2 0x100 EXP SWAP1 DIV PUSH1 0xFF AND SWAP1 DUP1 PUSH1 0x1 ADD PUSH1 0x1 SWAP1 SLOAD SWAP1 PUSH2 0x100 EXP SWAP1 DIV PUSH20 0xFFFFFFFFFFFFFFFFFFFFFFFFFFFFFFFFFFFFFFFF AND SWAP1 DUP1 PUSH1 0x2 ADD SLOAD SWAP1 POP DUP5 JUMP JUMPDEST PUSH1 0x60 PUSH1 0x0 DUP3 PUSH1 0x0 SLOAD DUP2 LT PUSH2 0xE59 JUMPI PUSH1 0x40 MLOAD PUSH32 0x8C379A000000000000000000000000000000000000000000000000000000000 DUP2 MSTORE PUSH1 0x4 ADD PUSH2 0xE50 SWAP1 PUSH2 0x13A8 JUMP JUMPDEST PUSH1 0x40 MLOAD DUP1 SWAP2 SUB SWAP1 REVERT JUMPDEST PUSH2 0xE87 PUSH1 0x3 DUP6 DUP2 SLOAD DUP2 LT PUSH2 0xE70 JUMPI PUSH2 0xE6F PUSH2 0x14EC JUMP JUMPDEST JUMPDEST SWAP1 PUSH1 0x0 MSTORE PUSH1 0x20 PUSH1 0x0 KECCAK256 SWAP1 PUSH1 0x2 MUL ADD PUSH1 0x0 ADD SLOAD PUSH2 0xF5D JUMP JUMPDEST PUSH1 0x3 DUP6 DUP2 SLOAD DUP2 LT PUSH2 0xE9B JUMPI PUSH2 0xE9A PUSH2 0x14EC JUMP JUMPDEST JUMPDEST SWAP1 PUSH1 0x0 MSTORE PUSH1 0x20 PUSH1 0x0 KECCAK256 SWAP1 PUSH1 0x2 MUL ADD PUSH1 0x1 ADD SLOAD DUP1 SWAP4 POP DUP2 SWAP5 POP POP POP POP SWAP2 POP SWAP2 JUMP JUMPDEST PUSH1 0x1 PUSH1 0x0 SWAP1 SLOAD SWAP1 PUSH2 0x100 EXP SWAP1 DIV PUSH20 0xFFFFFFFFFFFFFFFFFFFFFFFFFFFFFFFFFFFFFFFF AND DUP2 JUMP JUMPDEST PUSH1 0x0 SLOAD DUP2 JUMP JUMPDEST PUSH1 0x60 PUSH1 0x4 DUP1 SLOAD DUP1 PUSH1 0x20 MUL PUSH1 0x20 ADD PUSH1 0x40 MLOAD SWAP1 DUP2 ADD PUSH1 0x40 MSTORE DUP1 SWAP3 SWAP2 SWAP1 DUP2 DUP2 MSTORE PUSH1 0x20 ADD DUP3 DUP1 SLOAD DUP1 ISZERO PUSH2 0xF35 JUMPI PUSH1 0x20 MUL DUP3 ADD SWAP2 SWAP1 PUSH1 0x0 MSTORE PUSH1 0x20 PUSH1 0x0 KECCAK256 SWAP1 JUMPDEST DUP2 SLOAD DUP2 MSTORE PUSH1 0x20 ADD SWAP1 PUSH1 0x1 ADD SWAP1 DUP1 DUP4 GT PUSH2 0xF21 JUMPI JUMPDEST POP POP POP POP POP SWAP1 POP SWAP1 JUMP JUMPDEST PUSH1 0x0 DUP2 DUP4 PUSH2 0xF4D SWAP2 SWAP1 PUSH2 0x186D JUMP JUMPDEST SWAP1 POP SWAP3 SWAP2 POP POP JUMP JUMPDEST PUSH1 0x0 CALLER SWAP1 POP SWAP1 JUMP JUMPDEST PUSH1 0x60 DUP2 PUSH1 0x40 MLOAD PUSH1 0x20 ADD PUSH2 0xF70 SWAP2 SWAP1 PUSH2 0x1546 JUMP JUMPDEST PUSH1 0x40 MLOAD PUSH1 0x20 DUP2 DUP4 SUB SUB DUP2 MSTORE SWAP1 PUSH1 0x40 MSTORE SWAP1 POP SWAP2 SWAP1 POP JUMP JUMPDEST POP DUP1 SLOAD PUSH1 0x0 DUP3 SSTORE SWAP1 PUSH1 0x0 MSTORE PUSH1 0x20 PUSH1 0x0 KECCAK256 SWAP1 DUP2 ADD SWAP1 PUSH2 0xFA4 SWAP2 SWAP1 PUSH2 0xFA7 JUMP JUMPDEST POP JUMP JUMPDEST JUMPDEST DUP1 DUP3 GT ISZERO PUSH2 0xFC0 JUMPI PUSH1 0x0 DUP2 PUSH1 0x0 SWAP1 SSTORE POP PUSH1 0x1 ADD PUSH2 0xFA8 JUMP JUMPDEST POP SWAP1 JUMP JUMPDEST PUSH1 0x0 DUP1 REVERT JUMPDEST PUSH1 0x0 DUP2 SWAP1 POP SWAP2 SWAP1 POP JUMP JUMPDEST PUSH2 0xFDC DUP2 PUSH2 0xFC9 JUMP JUMPDEST DUP2 EQ PUSH2 0xFE7 JUMPI PUSH1 0x0 DUP1 REVERT JUMPDEST POP JUMP JUMPDEST PUSH1 0x0 DUP2 CALLDATALOAD SWAP1 POP PUSH2 0xFF9 DUP2 PUSH2 0xFD3 JUMP JUMPDEST SWAP3 SWAP2 POP POP JUMP JUMPDEST PUSH1 0x0 PUSH1 0x20 DUP3 DUP5 SUB SLT ISZERO PUSH2 0x1015 JUMPI PUSH2 0x1014 PUSH2 0xFC4 JUMP JUMPDEST JUMPDEST PUSH1 0x0 PUSH2 0x1023 DUP5 DUP3 DUP6 ADD PUSH2 0xFEA JUMP JUMPDEST SWAP2 POP POP SWAP3 SWAP2 POP POP JUMP JUMPDEST PUSH1 0x0 DUP2 MLOAD SWAP1 POP SWAP2 SWAP1 POP JUMP JUMPDEST PUSH1 0x0 DUP3 DUP3 MSTORE PUSH1 0x20 DUP3 ADD SWAP1 POP SWAP3 SWAP2 POP POP JUMP JUMPDEST PUSH1 0x0 JUMPDEST DUP4 DUP2 LT ISZERO PUSH2 0x1066 JUMPI DUP1 DUP3 ADD MLOAD DUP2 DUP5 ADD MSTORE PUSH1 0x20 DUP2 ADD SWAP1 POP PUSH2 0x104B JUMP JUMPDEST DUP4 DUP2 GT ISZERO PUSH2 0x1075 JUMPI PUSH1 0x0 DUP5 DUP5 ADD MSTORE JUMPDEST POP POP POP POP JUMP JUMPDEST PUSH1 0x0 PUSH1 0x1F NOT PUSH1 0x1F DUP4 ADD AND SWAP1 POP SWAP2 SWAP1 POP JUMP JUMPDEST PUSH1 0x0 PUSH2 0x1097 DUP3 PUSH2 0x102C JUMP JUMPDEST PUSH2 0x10A1 DUP2 DUP6 PUSH2 0x1037 JUMP JUMPDEST SWAP4 POP PUSH2 0x10B1 DUP2 DUP6 PUSH1 0x20 DUP7 ADD PUSH2 0x1048 JUMP JUMPDEST PUSH2 0x10BA DUP2 PUSH2 0x107B JUMP JUMPDEST DUP5 ADD SWAP2 POP POP SWAP3 SWAP2 POP POP JUMP JUMPDEST PUSH1 0x0 PUSH1 0x20 DUP3 ADD SWAP1 POP DUP2 DUP2 SUB PUSH1 0x0 DUP4 ADD MSTORE PUSH2 0x10DF DUP2 DUP5 PUSH2 0x108C JUMP JUMPDEST SWAP1 POP SWAP3 SWAP2 POP POP JUMP JUMPDEST PUSH1 0x0 PUSH20 0xFFFFFFFFFFFFFFFFFFFFFFFFFFFFFFFFFFFFFFFF DUP3 AND SWAP1 POP SWAP2 SWAP1 POP JUMP JUMPDEST PUSH1 0x0 PUSH2 0x1112 DUP3 PUSH2 0x10E7 JUMP JUMPDEST SWAP1 POP SWAP2 SWAP1 POP JUMP JUMPDEST PUSH2 0x1122 DUP2 PUSH2 0x1107 JUMP JUMPDEST DUP2 EQ PUSH2 0x112D JUMPI PUSH1 0x0 DUP1 REVERT JUMPDEST POP JUMP JUMPDEST PUSH1 0x0 DUP2 CALLDATALOAD SWAP1 POP PUSH2 0x113F DUP2 PUSH2 0x1119 JUMP JUMPDEST SWAP3 SWAP2 POP POP JUMP JUMPDEST PUSH1 0x0 PUSH1 0x20 DUP3 DUP5 SUB SLT ISZERO PUSH2 0x115B JUMPI PUSH2 0x115A PUSH2 0xFC4 JUMP JUMPDEST JUMPDEST PUSH1 0x0 PUSH2 0x1169 DUP5 DUP3 DUP6 ADD PUSH2 0x1130 JUMP JUMPDEST SWAP2 POP POP SWAP3 SWAP2 POP POP JUMP JUMPDEST PUSH2 0x117B DUP2 PUSH2 0xFC9 JUMP JUMPDEST DUP3 MSTORE POP POP JUMP JUMPDEST PUSH1 0x0 DUP2 ISZERO ISZERO SWAP1 POP SWAP2 SWAP1 POP JUMP JUMPDEST PUSH2 0x1196 DUP2 PUSH2 0x1181 JUMP JUMPDEST DUP3 MSTORE POP POP JUMP JUMPDEST PUSH2 0x11A5 DUP2 PUSH2 0x1107 JUMP JUMPDEST DUP3 MSTORE POP POP JUMP JUMPDEST PUSH1 0x0 PUSH1 0x80 DUP3 ADD SWAP1 POP PUSH2 0x11C0 PUSH1 0x0 DUP4 ADD DUP8 PUSH2 0x1172 JUMP JUMPDEST PUSH2 0x11CD PUSH1 0x20 DUP4 ADD DUP7 PUSH2 0x118D JUMP JUMPDEST PUSH2 0x11DA PUSH1 0x40 DUP4 ADD DUP6 PUSH2 0x119C JUMP JUMPDEST PUSH2 0x11E7 PUSH1 0x60 DUP4 ADD DUP5 PUSH2 0x1172 JUMP JUMPDEST SWAP6 SWAP5 POP POP POP POP POP JUMP JUMPDEST PUSH1 0x0 PUSH1 0x40 DUP3 ADD SWAP1 POP DUP2 DUP2 SUB PUSH1 0x0 DUP4 ADD MSTORE PUSH2 0x120A DUP2 DUP6 PUSH2 0x108C JUMP JUMPDEST SWAP1 POP PUSH2 0x1219 PUSH1 0x20 DUP4 ADD DUP5 PUSH2 0x1172 JUMP JUMPDEST SWAP4 SWAP3 POP POP POP JUMP JUMPDEST PUSH1 0x0 PUSH1 0x20 DUP3 ADD SWAP1 POP PUSH2 0x1235 PUSH1 0x0 DUP4 ADD DUP5 PUSH2 0x119C JUMP JUMPDEST SWAP3 SWAP2 POP POP JUMP JUMPDEST PUSH1 0x0 PUSH1 0x20 DUP3 ADD SWAP1 POP PUSH2 0x1250 PUSH1 0x0 DUP4 ADD DUP5 PUSH2 0x1172 JUMP JUMPDEST SWAP3 SWAP2 POP POP JUMP JUMPDEST PUSH1 0x0 DUP2 MLOAD SWAP1 POP SWAP2 SWAP1 POP JUMP JUMPDEST PUSH1 0x0 DUP3 DUP3 MSTORE PUSH1 0x20 DUP3 ADD SWAP1 POP SWAP3 SWAP2 POP POP JUMP JUMPDEST PUSH1 0x0 DUP2 SWAP1 POP PUSH1 0x20 DUP3 ADD SWAP1 POP SWAP2 SWAP1 POP JUMP JUMPDEST PUSH2 0x128B DUP2 PUSH2 0xFC9 JUMP JUMPDEST DUP3 MSTORE POP POP JUMP JUMPDEST PUSH1 0x0 PUSH2 0x129D DUP4 DUP4 PUSH2 0x1282 JUMP JUMPDEST PUSH1 0x20 DUP4 ADD SWAP1 POP SWAP3 SWAP2 POP POP JUMP JUMPDEST PUSH1 0x0 PUSH1 0x20 DUP3 ADD SWAP1 POP SWAP2 SWAP1 POP JUMP JUMPDEST PUSH1 0x0 PUSH2 0x12C1 DUP3 PUSH2 0x1256 JUMP JUMPDEST PUSH2 0x12CB DUP2 DUP6 PUSH2 0x1261 JUMP JUMPDEST SWAP4 POP PUSH2 0x12D6 DUP4 PUSH2 0x1272 JUMP JUMPDEST DUP1 PUSH1 0x0 JUMPDEST DUP4 DUP2 LT ISZERO PUSH2 0x1307 JUMPI DUP2 MLOAD PUSH2 0x12EE DUP9 DUP3 PUSH2 0x1291 JUMP JUMPDEST SWAP8 POP PUSH2 0x12F9 DUP4 PUSH2 0x12A9 JUMP JUMPDEST SWAP3 POP POP PUSH1 0x1 DUP2 ADD SWAP1 POP PUSH2 0x12DA JUMP JUMPDEST POP DUP6 SWAP4 POP POP POP POP SWAP3 SWAP2 POP POP JUMP JUMPDEST PUSH1 0x0 PUSH1 0x20 DUP3 ADD SWAP1 POP DUP2 DUP2 SUB PUSH1 0x0 DUP4 ADD MSTORE PUSH2 0x132E DUP2 DUP5 PUSH2 0x12B6 JUMP JUMPDEST SWAP1 POP SWAP3 SWAP2 POP POP JUMP JUMPDEST PUSH32 0x53696D706C65566F74696E673A2050726F706F73616C20696E646578206F7574 PUSH1 0x0 DUP3 ADD MSTORE PUSH32 0x206F6620626F756E64732E000000000000000000000000000000000000000000 PUSH1 0x20 DUP3 ADD MSTORE POP JUMP JUMPDEST PUSH1 0x0 PUSH2 0x1392 PUSH1 0x2B DUP4 PUSH2 0x1037 JUMP JUMPDEST SWAP2 POP PUSH2 0x139D DUP3 PUSH2 0x1336 JUMP JUMPDEST PUSH1 0x40 DUP3 ADD SWAP1 POP SWAP2 SWAP1 POP JUMP JUMPDEST PUSH1 0x0 PUSH1 0x20 DUP3 ADD SWAP1 POP DUP2 DUP2 SUB PUSH1 0x0 DUP4 ADD MSTORE PUSH2 0x13C1 DUP2 PUSH2 0x1385 JUMP JUMPDEST SWAP1 POP SWAP2 SWAP1 POP JUMP JUMPDEST PUSH32 0x53696D706C65566F74696E673A2054686520766F7465722068617320616C7265 PUSH1 0x0 DUP3 ADD MSTORE PUSH32 0x61647920766F7465642E00000000000000000000000000000000000000000000 PUSH1 0x20 DUP3 ADD MSTORE POP JUMP JUMPDEST PUSH1 0x0 PUSH2 0x1424 PUSH1 0x2A DUP4 PUSH2 0x1037 JUMP JUMPDEST SWAP2 POP PUSH2 0x142F DUP3 PUSH2 0x13C8 JUMP JUMPDEST PUSH1 0x40 DUP3 ADD SWAP1 POP SWAP2 SWAP1 POP JUMP JUMPDEST PUSH1 0x0 PUSH1 0x20 DUP3 ADD SWAP1 POP DUP2 DUP2 SUB PUSH1 0x0 DUP4 ADD MSTORE PUSH2 0x1453 DUP2 PUSH2 0x1417 JUMP JUMPDEST SWAP1 POP SWAP2 SWAP1 POP JUMP JUMPDEST PUSH32 0x53696D706C65566F74696E673A2043616C6C657220646F6573206E6F74206861 PUSH1 0x0 DUP3 ADD MSTORE PUSH32 0x766520726967687420746F20766F74652E000000000000000000000000000000 PUSH1 0x20 DUP3 ADD MSTORE POP JUMP JUMPDEST PUSH1 0x0 PUSH2 0x14B6 PUSH1 0x31 DUP4 PUSH2 0x1037 JUMP JUMPDEST SWAP2 POP PUSH2 0x14C1 DUP3 PUSH2 0x145A JUMP JUMPDEST PUSH1 0x40 DUP3 ADD SWAP1 POP SWAP2 SWAP1 POP JUMP JUMPDEST PUSH1 0x0 PUSH1 0x20 DUP3 ADD SWAP1 POP DUP2 DUP2 SUB PUSH1 0x0 DUP4 ADD MSTORE PUSH2 0x14E5 DUP2 PUSH2 0x14A9 JUMP JUMPDEST SWAP1 POP SWAP2 SWAP1 POP JUMP JUMPDEST PUSH32 0x4E487B7100000000000000000000000000000000000000000000000000000000 PUSH1 0x0 MSTORE PUSH1 0x32 PUSH1 0x4 MSTORE PUSH1 0x24 PUSH1 0x0 REVERT JUMPDEST PUSH1 0x0 DUP2 SWAP1 POP SWAP2 SWAP1 POP JUMP JUMPDEST PUSH1 0x0 DUP2 SWAP1 POP SWAP2 SWAP1 POP JUMP JUMPDEST PUSH2 0x1540 PUSH2 0x153B DUP3 PUSH2 0x151B JUMP JUMPDEST PUSH2 0x1525 JUMP JUMPDEST DUP3 MSTORE POP POP JUMP JUMPDEST PUSH1 0x0 PUSH2 0x1552 DUP3 DUP5 PUSH2 0x152F JUMP JUMPDEST PUSH1 0x20 DUP3 ADD SWAP2 POP DUP2 SWAP1 POP SWAP3 SWAP2 POP POP JUMP JUMPDEST PUSH1 0x0 DUP2 SWAP1 POP SWAP3 SWAP2 POP POP JUMP JUMPDEST PUSH1 0x0 PUSH2 0x1577 DUP3 PUSH2 0x102C JUMP JUMPDEST PUSH2 0x1581 DUP2 DUP6 PUSH2 0x1561 JUMP JUMPDEST SWAP4 POP PUSH2 0x1591 DUP2 DUP6 PUSH1 0x20 DUP7 ADD PUSH2 0x1048 JUMP JUMPDEST DUP1 DUP5 ADD SWAP2 POP POP SWAP3 SWAP2 POP POP JUMP JUMPDEST PUSH32 0x2C20000000000000000000000000000000000000000000000000000000000000 DUP2 MSTORE POP JUMP JUMPDEST PUSH1 0x0 PUSH2 0x15CF DUP3 DUP6 PUSH2 0x156C JUMP JUMPDEST SWAP2 POP PUSH2 0x15DA DUP3 PUSH2 0x159D JUMP JUMPDEST PUSH1 0x2 DUP3 ADD SWAP2 POP PUSH2 0x15EA DUP3 DUP5 PUSH2 0x156C JUMP JUMPDEST SWAP2 POP DUP2 SWAP1 POP SWAP4 SWAP3 POP POP POP JUMP JUMPDEST PUSH32 0x53696D706C65566F74696E673A2053656C662D64656C65676174696F6E206973 PUSH1 0x0 DUP3 ADD MSTORE PUSH32 0x206E6F7420616C6C6F7765642E00000000000000000000000000000000000000 PUSH1 0x20 DUP3 ADD MSTORE POP JUMP JUMPDEST PUSH1 0x0 PUSH2 0x1652 PUSH1 0x2D DUP4 PUSH2 0x1037 JUMP JUMPDEST SWAP2 POP PUSH2 0x165D DUP3 PUSH2 0x15F6 JUMP JUMPDEST PUSH1 0x40 DUP3 ADD SWAP1 POP SWAP2 SWAP1 POP JUMP JUMPDEST PUSH1 0x0 PUSH1 0x20 DUP3 ADD SWAP1 POP DUP2 DUP2 SUB PUSH1 0x0 DUP4 ADD MSTORE PUSH2 0x1681 DUP2 PUSH2 0x1645 JUMP JUMPDEST SWAP1 POP SWAP2 SWAP1 POP JUMP JUMPDEST PUSH32 0x53696D706C65566F74696E673A2044656C65676174696F6E2074726163657320 PUSH1 0x0 DUP3 ADD MSTORE PUSH32 0x6261636B20746F2063616C6C65722E0000000000000000000000000000000000 PUSH1 0x20 DUP3 ADD MSTORE POP JUMP JUMPDEST PUSH1 0x0 PUSH2 0x16E4 PUSH1 0x2F DUP4 PUSH2 0x1037 JUMP JUMPDEST SWAP2 POP PUSH2 0x16EF DUP3 PUSH2 0x1688 JUMP JUMPDEST PUSH1 0x40 DUP3 ADD SWAP1 POP SWAP2 SWAP1 POP JUMP JUMPDEST PUSH1 0x0 PUSH1 0x20 DUP3 ADD SWAP1 POP DUP2 DUP2 SUB PUSH1 0x0 DUP4 ADD MSTORE PUSH2 0x1713 DUP2 PUSH2 0x16D7 JUMP JUMPDEST SWAP1 POP SWAP2 SWAP1 POP JUMP JUMPDEST PUSH32 0x53696D706C65566F74696E673A204F6E6C79206368616972506572736F6E2063 PUSH1 0x0 DUP3 ADD MSTORE PUSH32 0x616E206769766520726967687420746F20766F74652E00000000000000000000 PUSH1 0x20 DUP3 ADD MSTORE POP JUMP JUMPDEST PUSH1 0x0 PUSH2 0x1776 PUSH1 0x36 DUP4 PUSH2 0x1037 JUMP JUMPDEST SWAP2 POP PUSH2 0x1781 DUP3 PUSH2 0x171A JUMP JUMPDEST PUSH1 0x40 DUP3 ADD SWAP1 POP SWAP2 SWAP1 POP JUMP JUMPDEST PUSH1 0x0 PUSH1 0x20 DUP3 ADD SWAP1 POP DUP2 DUP2 SUB PUSH1 0x0 DUP4 ADD MSTORE PUSH2 0x17A5 DUP2 PUSH2 0x1769 JUMP JUMPDEST SWAP1 POP SWAP2 SWAP1 POP JUMP JUMPDEST PUSH32 0x53696D706C65566F74696E673A204164647265737320616C7265616479206861 PUSH1 0x0 DUP3 ADD MSTORE PUSH32 0x7320726967687420746F20766F74652E00000000000000000000000000000000 PUSH1 0x20 DUP3 ADD MSTORE POP JUMP JUMPDEST PUSH1 0x0 PUSH2 0x1808 PUSH1 0x30 DUP4 PUSH2 0x1037 JUMP JUMPDEST SWAP2 POP PUSH2 0x1813 DUP3 PUSH2 0x17AC JUMP JUMPDEST PUSH1 0x40 DUP3 ADD SWAP1 POP SWAP2 SWAP1 POP JUMP JUMPDEST PUSH1 0x0 PUSH1 0x20 DUP3 ADD SWAP1 POP DUP2 DUP2 SUB PUSH1 0x0 DUP4 ADD MSTORE PUSH2 0x1837 DUP2 PUSH2 0x17FB JUMP JUMPDEST SWAP1 POP SWAP2 SWAP1 POP JUMP JUMPDEST PUSH32 0x4E487B7100000000000000000000000000000000000000000000000000000000 PUSH1 0x0 MSTORE PUSH1 0x11 PUSH1 0x4 MSTORE PUSH1 0x24 PUSH1 0x0 REVERT JUMPDEST PUSH1 0x0 PUSH2 0x1878 DUP3 PUSH2 0xFC9 JUMP JUMPDEST SWAP2 POP PUSH2 0x1883 DUP4 PUSH2 0xFC9 JUMP JUMPDEST SWAP3 POP DUP3 PUSH32 0xFFFFFFFFFFFFFFFFFFFFFFFFFFFFFFFFFFFFFFFFFFFFFFFFFFFFFFFFFFFFFFFF SUB DUP3 GT ISZERO PUSH2 0x18B8 JUMPI PUSH2 0x18B7 PUSH2 0x183E JUMP JUMPDEST JUMPDEST DUP3 DUP3 ADD SWAP1 POP SWAP3 SWAP2 POP POP JUMP INVALID LOG2 PUSH5 0x6970667358 0x22 SLT KECCAK256 MSTORE8 0x5C KECCAK256 0xF6 SWAP7 NOT 0x4A 0xAE 0xC2 STOP 0xA5 PUSH9 0x9CC2366B4E77673A58 SGT SUB DUP8 DUP5 JUMP 0xDF DIFFICULTY 0x4E DIFFICULTY PUSH30 0x3E64736F6C634300080D0033000000000000000000000000000000000000 "
				},
				"gasEstimates": {
					"creation": {
						"codeDepositCost": "1278600",
						"executionCost": "infinite",
						"totalCost": "infinite"
					},
					"external": {
						"chairPerson()": "2558",
						"computeWinningProposals()": "infinite",
						"delegate(address)": "infinite",
						"getProposal(uint256)": "infinite",
						"getWinningProposals()": "infinite",
						"giveRightToVote(address)": "29435",
						"proposalCount()": "2495",
						"vote(uint256)": "infinite",
						"voters(address)": "infinite",
						"winnerNames()": "infinite"
					},
					"internal": {
						"bytes32ToString(bytes32)": "infinite",
						"stringToBytes32(string memory)": "infinite"
					}
				},
				"methodIdentifiers": {
					"chairPerson()": "d4d4b5ac",
					"computeWinningProposals()": "5f07b961",
					"delegate(address)": "5c19a95c",
					"getProposal(uint256)": "c7f758a8",
					"getWinningProposals()": "ef788cd5",
					"giveRightToVote(address)": "9e7b8d61",
					"proposalCount()": "da35c664",
					"vote(uint256)": "0121b93f",
					"voters(address)": "a3ec138d",
					"winnerNames()": "28be18ee"
				}
			},
			"storageLayout": {
				"storage": [
					{
						"astId": 25,
						"contract": "contracts/SimpleVoting.sol:SimpleVoting",
						"label": "proposalCount",
						"offset": 0,
						"slot": "0",
						"type": "t_uint256"
					},
					{
						"astId": 27,
						"contract": "contracts/SimpleVoting.sol:SimpleVoting",
						"label": "chairPerson",
						"offset": 0,
						"slot": "1",
						"type": "t_address"
					},
					{
						"astId": 32,
						"contract": "contracts/SimpleVoting.sol:SimpleVoting",
						"label": "voters",
						"offset": 0,
						"slot": "2",
						"type": "t_mapping(t_address,t_struct(Voter)18_storage)"
					},
					{
						"astId": 36,
						"contract": "contracts/SimpleVoting.sol:SimpleVoting",
						"label": "proposals",
						"offset": 0,
						"slot": "3",
						"type": "t_array(t_struct(Proposal)23_storage)dyn_storage"
					},
					{
						"astId": 39,
						"contract": "contracts/SimpleVoting.sol:SimpleVoting",
						"label": "winningProposals",
						"offset": 0,
						"slot": "4",
						"type": "t_array(t_uint256)dyn_storage"
					}
				],
				"types": {
					"t_address": {
						"encoding": "inplace",
						"label": "address",
						"numberOfBytes": "20"
					},
					"t_array(t_struct(Proposal)23_storage)dyn_storage": {
						"base": "t_struct(Proposal)23_storage",
						"encoding": "dynamic_array",
						"label": "struct SimpleVoting.Proposal[]",
						"numberOfBytes": "32"
					},
					"t_array(t_uint256)dyn_storage": {
						"base": "t_uint256",
						"encoding": "dynamic_array",
						"label": "uint256[]",
						"numberOfBytes": "32"
					},
					"t_bool": {
						"encoding": "inplace",
						"label": "bool",
						"numberOfBytes": "1"
					},
					"t_bytes32": {
						"encoding": "inplace",
						"label": "bytes32",
						"numberOfBytes": "32"
					},
					"t_mapping(t_address,t_struct(Voter)18_storage)": {
						"encoding": "mapping",
						"key": "t_address",
						"label": "mapping(address => struct SimpleVoting.Voter)",
						"numberOfBytes": "32",
						"value": "t_struct(Voter)18_storage"
					},
					"t_struct(Proposal)23_storage": {
						"encoding": "inplace",
						"label": "struct SimpleVoting.Proposal",
						"members": [
							{
								"astId": 20,
								"contract": "contracts/SimpleVoting.sol:SimpleVoting",
								"label": "name",
								"offset": 0,
								"slot": "0",
								"type": "t_bytes32"
							},
							{
								"astId": 22,
								"contract": "contracts/SimpleVoting.sol:SimpleVoting",
								"label": "voteCount",
								"offset": 0,
								"slot": "1",
								"type": "t_uint256"
							}
						],
						"numberOfBytes": "64"
					},
					"t_struct(Voter)18_storage": {
						"encoding": "inplace",
						"label": "struct SimpleVoting.Voter",
						"members": [
							{
								"astId": 11,
								"contract": "contracts/SimpleVoting.sol:SimpleVoting",
								"label": "weight",
								"offset": 0,
								"slot": "0",
								"type": "t_uint256"
							},
							{
								"astId": 13,
								"contract": "contracts/SimpleVoting.sol:SimpleVoting",
								"label": "voted",
								"offset": 0,
								"slot": "1",
								"type": "t_bool"
							},
							{
								"astId": 15,
								"contract": "contracts/SimpleVoting.sol:SimpleVoting",
								"label": "delegate",
								"offset": 1,
								"slot": "1",
								"type": "t_address"
							},
							{
								"astId": 17,
								"contract": "contracts/SimpleVoting.sol:SimpleVoting",
								"label": "vote",
								"offset": 0,
								"slot": "2",
								"type": "t_uint256"
							}
						],
						"numberOfBytes": "96"
					},
					"t_uint256": {
						"encoding": "inplace",
						"label": "uint256",
						"numberOfBytes": "32"
					}
				}
			},
			"userdoc": {
				"kind": "user",
				"methods": {},
				"version": 1
			}
		}
	}
}