{
	"contracts/SimpleVoting.sol": {
		"SimpleVoting": {
			"abi": [
				{
					"inputs": [
						{
							"internalType": "string[]",
							"name": "proposalNames",
							"type": "string[]"
						}
					],
					"stateMutability": "nonpayable",
					"type": "constructor"
				},
				{
					"anonymous": false,
					"inputs": [
						{
							"indexed": true,
							"internalType": "address",
							"name": "_from",
							"type": "address"
						},
						{
							"indexed": true,
							"internalType": "address",
							"name": "_to",
							"type": "address"
						}
					],
					"name": "DelegationSuccessful",
					"type": "event"
				},
				{
					"anonymous": false,
					"inputs": [
						{
							"indexed": true,
							"internalType": "uint256",
							"name": "_proposal",
							"type": "uint256"
						},
						{
							"indexed": true,
							"internalType": "address",
							"name": "_voter",
							"type": "address"
						},
						{
							"indexed": false,
							"internalType": "uint256",
							"name": "_votesAdded",
							"type": "uint256"
						}
					],
					"name": "VoteCasted",
					"type": "event"
				},
				{
					"anonymous": false,
					"inputs": [
						{
							"indexed": false,
							"internalType": "address",
							"name": "_chairPerson",
							"type": "address"
						},
						{
							"indexed": false,
							"internalType": "uint256",
							"name": "_proposalCount",
							"type": "uint256"
						}
					],
					"name": "VotingStarted",
					"type": "event"
				},
				{
					"inputs": [],
					"name": "chairPerson",
					"outputs": [
						{
							"internalType": "address",
							"name": "",
							"type": "address"
						}
					],
					"stateMutability": "view",
					"type": "function"
				},
				{
					"inputs": [
						{
							"internalType": "address",
							"name": "_to",
							"type": "address"
						}
					],
					"name": "delegate",
					"outputs": [],
					"stateMutability": "nonpayable",
					"type": "function"
				},
				{
					"inputs": [
						{
							"internalType": "uint256",
							"name": "_proposalIndex",
							"type": "uint256"
						}
					],
					"name": "getProposal",
					"outputs": [
						{
							"internalType": "string",
							"name": "proposalName_",
							"type": "string"
						},
						{
							"internalType": "uint256",
							"name": "voteCount_",
							"type": "uint256"
						}
					],
					"stateMutability": "view",
					"type": "function"
				},
				{
					"inputs": [
						{
							"internalType": "address",
							"name": "_voter",
							"type": "address"
						}
					],
					"name": "giveRightToVote",
					"outputs": [],
					"stateMutability": "nonpayable",
					"type": "function"
				},
				{
					"inputs": [],
					"name": "proposalCount",
					"outputs": [
						{
							"internalType": "uint256",
							"name": "",
							"type": "uint256"
						}
					],
					"stateMutability": "view",
					"type": "function"
				},
				{
					"inputs": [
						{
							"internalType": "uint256",
							"name": "proposal",
							"type": "uint256"
						}
					],
					"name": "vote",
					"outputs": [],
					"stateMutability": "nonpayable",
					"type": "function"
				},
				{
					"inputs": [
						{
							"internalType": "address",
							"name": "",
							"type": "address"
						}
					],
					"name": "voters",
					"outputs": [
						{
							"internalType": "uint256",
							"name": "weight",
							"type": "uint256"
						},
						{
							"internalType": "bool",
							"name": "voted",
							"type": "bool"
						},
						{
							"internalType": "address",
							"name": "delegate",
							"type": "address"
						},
						{
							"internalType": "uint256",
							"name": "vote",
							"type": "uint256"
						}
					],
					"stateMutability": "view",
					"type": "function"
				},
				{
					"inputs": [],
					"name": "winnerNames",
					"outputs": [
						{
							"internalType": "string",
							"name": "winnerName_",
							"type": "string"
						}
					],
					"stateMutability": "view",
					"type": "function"
				}
			],
			"devdoc": {
				"details": "Implements voting process along with vote delegation",
				"kind": "dev",
				"methods": {
					"constructor": {
						"details": "Create a new ballot to choose one of 'proposalNames'.",
						"params": {
							"proposalNames": "names of proposals"
						}
					},
					"delegate(address)": {
						"details": "Delegate your vote to the voter 'to'.",
						"params": {
							"_to": "address to which vote is delegated"
						}
					},
					"giveRightToVote(address)": {
						"details": "Give 'voter' the right to vote on this ballot. May only be called by 'chairPerson'.",
						"params": {
							"_voter": "address of voter"
						}
					},
					"vote(uint256)": {
						"details": "Give your vote (including votes delegated to you) to proposal 'proposals[proposal].name'.",
						"params": {
							"proposal": "index of proposal in the proposals array"
						}
					},
					"winnerNames()": {
						"details": "Calls winningProposal() function to get the index of the winner contained in the proposals array and then",
						"returns": {
							"winnerName_": "the name of the winner"
						}
					}
				},
				"title": "Ballot",
				"version": 1
			},
			"evm": {
				"assembly": "    /* \"contracts/SimpleVoting.sol\":371:7638  contract SimpleVoting is Context {\r... */\n  mstore(0x40, 0x80)\n    /* \"contracts/SimpleVoting.sol\":2383:2984  constructor(string[] memory proposalNames) {\r... */\n  callvalue\n  dup1\n  iszero\n  tag_1\n  jumpi\n  0x00\n  dup1\n  revert\ntag_1:\n  pop\n  mload(0x40)\n  sub(codesize, bytecodeSize)\n  dup1\n  bytecodeSize\n  dup4\n  codecopy\n  dup2\n  dup2\n  add\n  0x40\n  mstore\n  dup2\n  add\n  swap1\n  tag_2\n  swap2\n  swap1\n  tag_3\n  jump\t// in\ntag_2:\n    /* \"contracts/SimpleVoting.sol\":2451:2463  _msgSender() */\n  tag_6\n    /* \"contracts/SimpleVoting.sol\":2451:2461  _msgSender */\n  shl(0x20, tag_7)\n    /* \"contracts/SimpleVoting.sol\":2451:2463  _msgSender() */\n  0x20\n  shr\n  jump\t// in\ntag_6:\n    /* \"contracts/SimpleVoting.sol\":2437:2448  chairPerson */\n  0x01\n  0x00\n    /* \"contracts/SimpleVoting.sol\":2437:2463  chairPerson = _msgSender() */\n  0x0100\n  exp\n  dup2\n  sload\n  dup2\n  0xffffffffffffffffffffffffffffffffffffffff\n  mul\n  not\n  and\n  swap1\n  dup4\n  0xffffffffffffffffffffffffffffffffffffffff\n  and\n  mul\n  or\n  swap1\n  sstore\n  pop\n    /* \"contracts/SimpleVoting.sol\":2503:2504  1 */\n  0x01\n    /* \"contracts/SimpleVoting.sol\":2474:2480  voters */\n  0x02\n    /* \"contracts/SimpleVoting.sol\":2474:2493  voters[chairPerson] */\n  0x00\n    /* \"contracts/SimpleVoting.sol\":2481:2492  chairPerson */\n  0x01\n  0x00\n  swap1\n  sload\n  swap1\n  0x0100\n  exp\n  swap1\n  div\n  0xffffffffffffffffffffffffffffffffffffffff\n  and\n    /* \"contracts/SimpleVoting.sol\":2474:2493  voters[chairPerson] */\n  0xffffffffffffffffffffffffffffffffffffffff\n  and\n  0xffffffffffffffffffffffffffffffffffffffff\n  and\n  dup2\n  mstore\n  0x20\n  add\n  swap1\n  dup2\n  mstore\n  0x20\n  add\n  0x00\n  keccak256\n    /* \"contracts/SimpleVoting.sol\":2474:2500  voters[chairPerson].weight */\n  0x00\n  add\n    /* \"contracts/SimpleVoting.sol\":2474:2504  voters[chairPerson].weight = 1 */\n  dup2\n  swap1\n  sstore\n  pop\n    /* \"contracts/SimpleVoting.sol\":2531:2544  proposalNames */\n  dup1\n    /* \"contracts/SimpleVoting.sol\":2531:2551  proposalNames.length */\n  mload\n    /* \"contracts/SimpleVoting.sol\":2515:2528  proposalCount */\n  0x00\n    /* \"contracts/SimpleVoting.sol\":2515:2551  proposalCount = proposalNames.length */\n  dup2\n  swap1\n  sstore\n  pop\n    /* \"contracts/SimpleVoting.sol\":2567:2573  uint i */\n  0x00\n    /* \"contracts/SimpleVoting.sol\":2562:2919  for (uint i = 0; i < proposalCount; i = i. add(1)) {\r... */\ntag_8:\n    /* \"contracts/SimpleVoting.sol\":2583:2596  proposalCount */\n  sload(0x00)\n    /* \"contracts/SimpleVoting.sol\":2579:2580  i */\n  dup2\n    /* \"contracts/SimpleVoting.sol\":2579:2596  i < proposalCount */\n  lt\n    /* \"contracts/SimpleVoting.sol\":2562:2919  for (uint i = 0; i < proposalCount; i = i. add(1)) {\r... */\n  iszero\n  tag_9\n  jumpi\n    /* \"contracts/SimpleVoting.sol\":2794:2818  Proposal memory proposal */\n  0x00\n    /* \"contracts/SimpleVoting.sol\":2821:2868  Proposal (stringToBytes32(proposalNames[i]), 0) */\n  mload(0x40)\n  dup1\n  0x40\n  add\n  0x40\n  mstore\n  dup1\n    /* \"contracts/SimpleVoting.sol\":2831:2864  stringToBytes32(proposalNames[i]) */\n  tag_11\n    /* \"contracts/SimpleVoting.sol\":2847:2860  proposalNames */\n  dup6\n    /* \"contracts/SimpleVoting.sol\":2861:2862  i */\n  dup6\n    /* \"contracts/SimpleVoting.sol\":2847:2863  proposalNames[i] */\n  dup2\n  mload\n  dup2\n  lt\n  tag_12\n  jumpi\n  tag_13\n  tag_14\n  jump\t// in\ntag_13:\ntag_12:\n  0x20\n  mul\n  0x20\n  add\n  add\n  mload\n    /* \"contracts/SimpleVoting.sol\":2831:2846  stringToBytes32 */\n  shl(0x20, tag_15)\n    /* \"contracts/SimpleVoting.sol\":2831:2864  stringToBytes32(proposalNames[i]) */\n  0x20\n  shr\n  jump\t// in\ntag_11:\n    /* \"contracts/SimpleVoting.sol\":2821:2868  Proposal (stringToBytes32(proposalNames[i]), 0) */\n  dup2\n  mstore\n  0x20\n  add\n    /* \"contracts/SimpleVoting.sol\":2866:2867  0 */\n  0x00\n    /* \"contracts/SimpleVoting.sol\":2821:2868  Proposal (stringToBytes32(proposalNames[i]), 0) */\n  dup2\n  mstore\n  pop\n    /* \"contracts/SimpleVoting.sol\":2794:2868  Proposal memory proposal = Proposal (stringToBytes32(proposalNames[i]), 0) */\n  swap1\n  pop\n    /* \"contracts/SimpleVoting.sol\":2883:2892  proposals */\n  0x03\n    /* \"contracts/SimpleVoting.sol\":2898:2906  proposal */\n  dup2\n    /* \"contracts/SimpleVoting.sol\":2883:2907  proposals.push(proposal) */\n  swap1\n  dup1\n  0x01\n  dup2\n  sload\n  add\n  dup1\n  dup3\n  sstore\n  dup1\n  swap2\n  pop\n  pop\n  0x01\n  swap1\n  sub\n  swap1\n  0x00\n  mstore\n  keccak256(0x00, 0x20)\n  swap1\n  0x02\n  mul\n  add\n  0x00\n  swap1\n  swap2\n  swap1\n  swap2\n  swap1\n  swap2\n  pop\n  0x00\n  dup3\n  add\n  mload\n  dup2\n  0x00\n  add\n  sstore\n  0x20\n  dup3\n  add\n  mload\n  dup2\n  0x01\n  add\n  sstore\n  pop\n  pop\n    /* \"contracts/SimpleVoting.sol\":2613:2919  {\r... */\n  pop\n    /* \"contracts/SimpleVoting.sol\":2602:2611  i. add(1) */\n  tag_17\n    /* \"contracts/SimpleVoting.sol\":2609:2610  1 */\n  0x01\n    /* \"contracts/SimpleVoting.sol\":2602:2603  i */\n  dup3\n    /* \"contracts/SimpleVoting.sol\":2602:2608  i. add */\n  or(tag_0_45, shl(0x20, tag_18))\n  swap1\n    /* \"contracts/SimpleVoting.sol\":2602:2611  i. add(1) */\n  swap2\n  swap1\n  0x20\n  shr\n  jump\t// in\ntag_17:\n    /* \"contracts/SimpleVoting.sol\":2598:2611  i = i. add(1) */\n  swap1\n  pop\n    /* \"contracts/SimpleVoting.sol\":2562:2919  for (uint i = 0; i < proposalCount; i = i. add(1)) {\r... */\n  jump(tag_8)\ntag_9:\n  pop\n    /* \"contracts/SimpleVoting.sol\":2934:2976  VotingStarted (chairPerson, proposalCount) */\n  0xf318b16025413645144ed83c64d2d30f089c10bc263cab68a036c00f011827be\n    /* \"contracts/SimpleVoting.sol\":2949:2960  chairPerson */\n  0x01\n  0x00\n  swap1\n  sload\n  swap1\n  0x0100\n  exp\n  swap1\n  div\n  0xffffffffffffffffffffffffffffffffffffffff\n  and\n    /* \"contracts/SimpleVoting.sol\":2962:2975  proposalCount */\n  sload(0x00)\n    /* \"contracts/SimpleVoting.sol\":2934:2976  VotingStarted (chairPerson, proposalCount) */\n  mload(0x40)\n  tag_19\n  swap3\n  swap2\n  swap1\n  tag_20\n  jump\t// in\ntag_19:\n  mload(0x40)\n  dup1\n  swap2\n  sub\n  swap1\n  log1\n    /* \"contracts/SimpleVoting.sol\":2383:2984  constructor(string[] memory proposalNames) {\r... */\n  pop\n    /* \"contracts/SimpleVoting.sol\":371:7638  contract SimpleVoting is Context {\r... */\n  jump(tag_21)\n    /* \"https://github.com/OpenZeppelin/openzeppelin-contracts/blob/master/contracts/utils/Context.sol\":640:736  function _msgSender() internal view virtual returns (address) {... */\ntag_7:\n    /* \"https://github.com/OpenZeppelin/openzeppelin-contracts/blob/master/contracts/utils/Context.sol\":693:700  address */\n  0x00\n    /* \"https://github.com/OpenZeppelin/openzeppelin-contracts/blob/master/contracts/utils/Context.sol\":719:729  msg.sender */\n  caller\n    /* \"https://github.com/OpenZeppelin/openzeppelin-contracts/blob/master/contracts/utils/Context.sol\":712:729  return msg.sender */\n  swap1\n  pop\n    /* \"https://github.com/OpenZeppelin/openzeppelin-contracts/blob/master/contracts/utils/Context.sol\":640:736  function _msgSender() internal view virtual returns (address) {... */\n  swap1\n  jump\t// out\n    /* \"contracts/SimpleVoting.sol\":7321:7477  function stringToBytes32 (string memory str) \r... */\ntag_15:\n    /* \"contracts/SimpleVoting.sol\":7406:7413  bytes32 */\n  0x00\n    /* \"contracts/SimpleVoting.sol\":7464:7467  str */\n  dup2\n    /* \"contracts/SimpleVoting.sol\":7447:7468  abi.encodePacked(str) */\n  add(0x20, mload(0x40))\n  tag_24\n  swap2\n  swap1\n  tag_25\n  jump\t// in\ntag_24:\n  mload(0x40)\n  0x20\n  dup2\n  dup4\n  sub\n  sub\n  dup2\n  mstore\n  swap1\n  0x40\n  mstore\n    /* \"contracts/SimpleVoting.sol\":7439:7469  bytes32(abi.encodePacked(str)) */\n  tag_26\n  swap1\n  tag_27\n  jump\t// in\ntag_26:\n    /* \"contracts/SimpleVoting.sol\":7432:7469  return bytes32(abi.encodePacked(str)) */\n  swap1\n  pop\n    /* \"contracts/SimpleVoting.sol\":7321:7477  function stringToBytes32 (string memory str) \r... */\n  swap2\n  swap1\n  pop\n  jump\t// out\n    /* \"https://github.com/OpenZeppelin/openzeppelin-contracts/blob/master/contracts/utils/math/SafeMath.sol\":2755:2851  function add(uint256 a, uint256 b) internal pure returns (uint256) {... */\ntag_18:\n    /* \"https://github.com/OpenZeppelin/openzeppelin-contracts/blob/master/contracts/utils/math/SafeMath.sol\":2813:2820  uint256 */\n  0x00\n    /* \"https://github.com/OpenZeppelin/openzeppelin-contracts/blob/master/contracts/utils/math/SafeMath.sol\":2843:2844  b */\n  dup2\n    /* \"https://github.com/OpenZeppelin/openzeppelin-contracts/blob/master/contracts/utils/math/SafeMath.sol\":2839:2840  a */\n  dup4\n    /* \"https://github.com/OpenZeppelin/openzeppelin-contracts/blob/master/contracts/utils/math/SafeMath.sol\":2839:2844  a + b */\n  tag_29\n  swap2\n  swap1\n  tag_30\n  jump\t// in\ntag_29:\n    /* \"https://github.com/OpenZeppelin/openzeppelin-contracts/blob/master/contracts/utils/math/SafeMath.sol\":2832:2844  return a + b */\n  swap1\n  pop\n    /* \"https://github.com/OpenZeppelin/openzeppelin-contracts/blob/master/contracts/utils/math/SafeMath.sol\":2755:2851  function add(uint256 a, uint256 b) internal pure returns (uint256) {... */\n  swap3\n  swap2\n  pop\n  pop\n  jump\t// out\n    /* \"#utility.yul\":23:995   */\ntag_32:\n    /* \"#utility.yul\":140:145   */\n  0x00\n    /* \"#utility.yul\":165:256   */\n  tag_34\n    /* \"#utility.yul\":181:255   */\n  tag_35\n    /* \"#utility.yul\":248:254   */\n  dup5\n    /* \"#utility.yul\":181:255   */\n  tag_36\n  jump\t// in\ntag_35:\n    /* \"#utility.yul\":165:256   */\n  tag_37\n  jump\t// in\ntag_34:\n    /* \"#utility.yul\":156:256   */\n  swap1\n  pop\n    /* \"#utility.yul\":276:281   */\n  dup1\n    /* \"#utility.yul\":305:311   */\n  dup4\n    /* \"#utility.yul\":298:303   */\n  dup3\n    /* \"#utility.yul\":291:312   */\n  mstore\n    /* \"#utility.yul\":339:343   */\n  0x20\n    /* \"#utility.yul\":332:337   */\n  dup3\n    /* \"#utility.yul\":328:344   */\n  add\n    /* \"#utility.yul\":321:344   */\n  swap1\n  pop\n    /* \"#utility.yul\":365:371   */\n  dup3\n    /* \"#utility.yul\":415:418   */\n  dup6\n    /* \"#utility.yul\":407:411   */\n  0x20\n    /* \"#utility.yul\":399:405   */\n  dup7\n    /* \"#utility.yul\":395:412   */\n  mul\n    /* \"#utility.yul\":390:393   */\n  dup3\n    /* \"#utility.yul\":386:413   */\n  add\n    /* \"#utility.yul\":383:419   */\n  gt\n    /* \"#utility.yul\":380:523   */\n  iszero\n  tag_38\n  jumpi\n    /* \"#utility.yul\":434:513   */\n  tag_39\n  tag_40\n  jump\t// in\ntag_39:\n    /* \"#utility.yul\":380:523   */\ntag_38:\n    /* \"#utility.yul\":547:548   */\n  0x00\n    /* \"#utility.yul\":532:989   */\ntag_41:\n    /* \"#utility.yul\":557:563   */\n  dup6\n    /* \"#utility.yul\":554:555   */\n  dup2\n    /* \"#utility.yul\":551:564   */\n  lt\n    /* \"#utility.yul\":532:989   */\n  iszero\n  tag_43\n  jumpi\n    /* \"#utility.yul\":632:635   */\n  dup2\n    /* \"#utility.yul\":626:636   */\n  mload\n    /* \"#utility.yul\":668:686   */\n  0xffffffffffffffff\n    /* \"#utility.yul\":655:666   */\n  dup2\n    /* \"#utility.yul\":652:687   */\n  gt\n    /* \"#utility.yul\":649:771   */\n  iszero\n  tag_44\n  jumpi\n    /* \"#utility.yul\":690:769   */\n  tag_45\n  tag_46\n  jump\t// in\ntag_45:\n    /* \"#utility.yul\":649:771   */\ntag_44:\n    /* \"#utility.yul\":814:825   */\n  dup1\n    /* \"#utility.yul\":806:812   */\n  dup7\n    /* \"#utility.yul\":802:826   */\n  add\n    /* \"#utility.yul\":852:910   */\n  tag_47\n    /* \"#utility.yul\":906:909   */\n  dup10\n    /* \"#utility.yul\":894:904   */\n  dup3\n    /* \"#utility.yul\":852:910   */\n  tag_48\n  jump\t// in\ntag_47:\n    /* \"#utility.yul\":847:850   */\n  dup6\n    /* \"#utility.yul\":840:911   */\n  mstore\n    /* \"#utility.yul\":940:944   */\n  0x20\n    /* \"#utility.yul\":935:938   */\n  dup6\n    /* \"#utility.yul\":931:945   */\n  add\n    /* \"#utility.yul\":924:945   */\n  swap5\n  pop\n    /* \"#utility.yul\":974:978   */\n  0x20\n    /* \"#utility.yul\":969:972   */\n  dup5\n    /* \"#utility.yul\":965:979   */\n  add\n    /* \"#utility.yul\":958:979   */\n  swap4\n  pop\n    /* \"#utility.yul\":592:989   */\n  pop\n  pop\n    /* \"#utility.yul\":579:580   */\n  0x01\n    /* \"#utility.yul\":576:577   */\n  dup2\n    /* \"#utility.yul\":572:581   */\n  add\n    /* \"#utility.yul\":567:581   */\n  swap1\n  pop\n    /* \"#utility.yul\":532:989   */\n  jump(tag_41)\ntag_43:\n    /* \"#utility.yul\":536:550   */\n  pop\n    /* \"#utility.yul\":146:995   */\n  pop\n  pop\n    /* \"#utility.yul\":23:995   */\n  swap4\n  swap3\n  pop\n  pop\n  pop\n  jump\t// out\n    /* \"#utility.yul\":1001:1422   */\ntag_49:\n    /* \"#utility.yul\":1090:1095   */\n  0x00\n    /* \"#utility.yul\":1115:1181   */\n  tag_51\n    /* \"#utility.yul\":1131:1180   */\n  tag_52\n    /* \"#utility.yul\":1173:1179   */\n  dup5\n    /* \"#utility.yul\":1131:1180   */\n  tag_53\n  jump\t// in\ntag_52:\n    /* \"#utility.yul\":1115:1181   */\n  tag_37\n  jump\t// in\ntag_51:\n    /* \"#utility.yul\":1106:1181   */\n  swap1\n  pop\n    /* \"#utility.yul\":1204:1210   */\n  dup3\n    /* \"#utility.yul\":1197:1202   */\n  dup2\n    /* \"#utility.yul\":1190:1211   */\n  mstore\n    /* \"#utility.yul\":1242:1246   */\n  0x20\n    /* \"#utility.yul\":1235:1240   */\n  dup2\n    /* \"#utility.yul\":1231:1247   */\n  add\n    /* \"#utility.yul\":1280:1283   */\n  dup5\n    /* \"#utility.yul\":1271:1277   */\n  dup5\n    /* \"#utility.yul\":1266:1269   */\n  dup5\n    /* \"#utility.yul\":1262:1278   */\n  add\n    /* \"#utility.yul\":1259:1284   */\n  gt\n    /* \"#utility.yul\":1256:1368   */\n  iszero\n  tag_54\n  jumpi\n    /* \"#utility.yul\":1287:1366   */\n  tag_55\n  tag_56\n  jump\t// in\ntag_55:\n    /* \"#utility.yul\":1256:1368   */\ntag_54:\n    /* \"#utility.yul\":1377:1416   */\n  tag_57\n    /* \"#utility.yul\":1409:1415   */\n  dup5\n    /* \"#utility.yul\":1404:1407   */\n  dup3\n    /* \"#utility.yul\":1399:1402   */\n  dup6\n    /* \"#utility.yul\":1377:1416   */\n  tag_58\n  jump\t// in\ntag_57:\n    /* \"#utility.yul\":1096:1422   */\n  pop\n    /* \"#utility.yul\":1001:1422   */\n  swap4\n  swap3\n  pop\n  pop\n  pop\n  jump\t// out\n    /* \"#utility.yul\":1444:1849   */\ntag_59:\n    /* \"#utility.yul\":1536:1541   */\n  0x00\n    /* \"#utility.yul\":1585:1588   */\n  dup3\n    /* \"#utility.yul\":1578:1582   */\n  0x1f\n    /* \"#utility.yul\":1570:1576   */\n  dup4\n    /* \"#utility.yul\":1566:1583   */\n  add\n    /* \"#utility.yul\":1562:1589   */\n  slt\n    /* \"#utility.yul\":1552:1674   */\n  tag_61\n  jumpi\n    /* \"#utility.yul\":1593:1672   */\n  tag_62\n  tag_46\n  jump\t// in\ntag_62:\n    /* \"#utility.yul\":1552:1674   */\ntag_61:\n    /* \"#utility.yul\":1703:1709   */\n  dup2\n    /* \"#utility.yul\":1697:1710   */\n  mload\n    /* \"#utility.yul\":1728:1843   */\n  tag_63\n    /* \"#utility.yul\":1839:1842   */\n  dup5\n    /* \"#utility.yul\":1831:1837   */\n  dup3\n    /* \"#utility.yul\":1824:1828   */\n  0x20\n    /* \"#utility.yul\":1816:1822   */\n  dup7\n    /* \"#utility.yul\":1812:1829   */\n  add\n    /* \"#utility.yul\":1728:1843   */\n  tag_32\n  jump\t// in\ntag_63:\n    /* \"#utility.yul\":1719:1843   */\n  swap2\n  pop\n    /* \"#utility.yul\":1542:1849   */\n  pop\n    /* \"#utility.yul\":1444:1849   */\n  swap3\n  swap2\n  pop\n  pop\n  jump\t// out\n    /* \"#utility.yul\":1869:2224   */\ntag_48:\n    /* \"#utility.yul\":1936:1941   */\n  0x00\n    /* \"#utility.yul\":1985:1988   */\n  dup3\n    /* \"#utility.yul\":1978:1982   */\n  0x1f\n    /* \"#utility.yul\":1970:1976   */\n  dup4\n    /* \"#utility.yul\":1966:1983   */\n  add\n    /* \"#utility.yul\":1962:1989   */\n  slt\n    /* \"#utility.yul\":1952:2074   */\n  tag_65\n  jumpi\n    /* \"#utility.yul\":1993:2072   */\n  tag_66\n  tag_46\n  jump\t// in\ntag_66:\n    /* \"#utility.yul\":1952:2074   */\ntag_65:\n    /* \"#utility.yul\":2103:2109   */\n  dup2\n    /* \"#utility.yul\":2097:2110   */\n  mload\n    /* \"#utility.yul\":2128:2218   */\n  tag_67\n    /* \"#utility.yul\":2214:2217   */\n  dup5\n    /* \"#utility.yul\":2206:2212   */\n  dup3\n    /* \"#utility.yul\":2199:2203   */\n  0x20\n    /* \"#utility.yul\":2191:2197   */\n  dup7\n    /* \"#utility.yul\":2187:2204   */\n  add\n    /* \"#utility.yul\":2128:2218   */\n  tag_49\n  jump\t// in\ntag_67:\n    /* \"#utility.yul\":2119:2218   */\n  swap2\n  pop\n    /* \"#utility.yul\":1942:2224   */\n  pop\n    /* \"#utility.yul\":1869:2224   */\n  swap3\n  swap2\n  pop\n  pop\n  jump\t// out\n    /* \"#utility.yul\":2230:2804   */\ntag_3:\n    /* \"#utility.yul\":2335:2341   */\n  0x00\n    /* \"#utility.yul\":2384:2386   */\n  0x20\n    /* \"#utility.yul\":2372:2381   */\n  dup3\n    /* \"#utility.yul\":2363:2370   */\n  dup5\n    /* \"#utility.yul\":2359:2382   */\n  sub\n    /* \"#utility.yul\":2355:2387   */\n  slt\n    /* \"#utility.yul\":2352:2471   */\n  iszero\n  tag_69\n  jumpi\n    /* \"#utility.yul\":2390:2469   */\n  tag_70\n  tag_71\n  jump\t// in\ntag_70:\n    /* \"#utility.yul\":2352:2471   */\ntag_69:\n    /* \"#utility.yul\":2531:2532   */\n  0x00\n    /* \"#utility.yul\":2520:2529   */\n  dup3\n    /* \"#utility.yul\":2516:2533   */\n  add\n    /* \"#utility.yul\":2510:2534   */\n  mload\n    /* \"#utility.yul\":2561:2579   */\n  0xffffffffffffffff\n    /* \"#utility.yul\":2553:2559   */\n  dup2\n    /* \"#utility.yul\":2550:2580   */\n  gt\n    /* \"#utility.yul\":2547:2664   */\n  iszero\n  tag_72\n  jumpi\n    /* \"#utility.yul\":2583:2662   */\n  tag_73\n  tag_74\n  jump\t// in\ntag_73:\n    /* \"#utility.yul\":2547:2664   */\ntag_72:\n    /* \"#utility.yul\":2688:2787   */\n  tag_75\n    /* \"#utility.yul\":2779:2786   */\n  dup5\n    /* \"#utility.yul\":2770:2776   */\n  dup3\n    /* \"#utility.yul\":2759:2768   */\n  dup6\n    /* \"#utility.yul\":2755:2777   */\n  add\n    /* \"#utility.yul\":2688:2787   */\n  tag_59\n  jump\t// in\ntag_75:\n    /* \"#utility.yul\":2678:2787   */\n  swap2\n  pop\n    /* \"#utility.yul\":2481:2797   */\n  pop\n    /* \"#utility.yul\":2230:2804   */\n  swap3\n  swap2\n  pop\n  pop\n  jump\t// out\n    /* \"#utility.yul\":2810:2928   */\ntag_76:\n    /* \"#utility.yul\":2897:2921   */\n  tag_78\n    /* \"#utility.yul\":2915:2920   */\n  dup2\n    /* \"#utility.yul\":2897:2921   */\n  tag_79\n  jump\t// in\ntag_78:\n    /* \"#utility.yul\":2892:2895   */\n  dup3\n    /* \"#utility.yul\":2885:2922   */\n  mstore\n    /* \"#utility.yul\":2810:2928   */\n  pop\n  pop\n  jump\t// out\n    /* \"#utility.yul\":2934:3311   */\ntag_80:\n    /* \"#utility.yul\":3040:3043   */\n  0x00\n    /* \"#utility.yul\":3068:3107   */\n  tag_82\n    /* \"#utility.yul\":3101:3106   */\n  dup3\n    /* \"#utility.yul\":3068:3107   */\n  tag_83\n  jump\t// in\ntag_82:\n    /* \"#utility.yul\":3123:3212   */\n  tag_84\n    /* \"#utility.yul\":3205:3211   */\n  dup2\n    /* \"#utility.yul\":3200:3203   */\n  dup6\n    /* \"#utility.yul\":3123:3212   */\n  tag_85\n  jump\t// in\ntag_84:\n    /* \"#utility.yul\":3116:3212   */\n  swap4\n  pop\n    /* \"#utility.yul\":3221:3273   */\n  tag_86\n    /* \"#utility.yul\":3266:3272   */\n  dup2\n    /* \"#utility.yul\":3261:3264   */\n  dup6\n    /* \"#utility.yul\":3254:3258   */\n  0x20\n    /* \"#utility.yul\":3247:3252   */\n  dup7\n    /* \"#utility.yul\":3243:3259   */\n  add\n    /* \"#utility.yul\":3221:3273   */\n  tag_58\n  jump\t// in\ntag_86:\n    /* \"#utility.yul\":3298:3304   */\n  dup1\n    /* \"#utility.yul\":3293:3296   */\n  dup5\n    /* \"#utility.yul\":3289:3305   */\n  add\n    /* \"#utility.yul\":3282:3305   */\n  swap2\n  pop\n    /* \"#utility.yul\":3044:3311   */\n  pop\n    /* \"#utility.yul\":2934:3311   */\n  swap3\n  swap2\n  pop\n  pop\n  jump\t// out\n    /* \"#utility.yul\":3317:3435   */\ntag_87:\n    /* \"#utility.yul\":3404:3428   */\n  tag_89\n    /* \"#utility.yul\":3422:3427   */\n  dup2\n    /* \"#utility.yul\":3404:3428   */\n  tag_90\n  jump\t// in\ntag_89:\n    /* \"#utility.yul\":3399:3402   */\n  dup3\n    /* \"#utility.yul\":3392:3429   */\n  mstore\n    /* \"#utility.yul\":3317:3435   */\n  pop\n  pop\n  jump\t// out\n    /* \"#utility.yul\":3441:3716   */\ntag_25:\n    /* \"#utility.yul\":3573:3576   */\n  0x00\n    /* \"#utility.yul\":3595:3690   */\n  tag_92\n    /* \"#utility.yul\":3686:3689   */\n  dup3\n    /* \"#utility.yul\":3677:3683   */\n  dup5\n    /* \"#utility.yul\":3595:3690   */\n  tag_80\n  jump\t// in\ntag_92:\n    /* \"#utility.yul\":3588:3690   */\n  swap2\n  pop\n    /* \"#utility.yul\":3707:3710   */\n  dup2\n    /* \"#utility.yul\":3700:3710   */\n  swap1\n  pop\n    /* \"#utility.yul\":3441:3716   */\n  swap3\n  swap2\n  pop\n  pop\n  jump\t// out\n    /* \"#utility.yul\":3722:4054   */\ntag_20:\n    /* \"#utility.yul\":3843:3847   */\n  0x00\n    /* \"#utility.yul\":3881:3883   */\n  0x40\n    /* \"#utility.yul\":3870:3879   */\n  dup3\n    /* \"#utility.yul\":3866:3884   */\n  add\n    /* \"#utility.yul\":3858:3884   */\n  swap1\n  pop\n    /* \"#utility.yul\":3894:3965   */\n  tag_94\n    /* \"#utility.yul\":3962:3963   */\n  0x00\n    /* \"#utility.yul\":3951:3960   */\n  dup4\n    /* \"#utility.yul\":3947:3964   */\n  add\n    /* \"#utility.yul\":3938:3944   */\n  dup6\n    /* \"#utility.yul\":3894:3965   */\n  tag_76\n  jump\t// in\ntag_94:\n    /* \"#utility.yul\":3975:4047   */\n  tag_95\n    /* \"#utility.yul\":4043:4045   */\n  0x20\n    /* \"#utility.yul\":4032:4041   */\n  dup4\n    /* \"#utility.yul\":4028:4046   */\n  add\n    /* \"#utility.yul\":4019:4025   */\n  dup5\n    /* \"#utility.yul\":3975:4047   */\n  tag_87\n  jump\t// in\ntag_95:\n    /* \"#utility.yul\":3722:4054   */\n  swap4\n  swap3\n  pop\n  pop\n  pop\n  jump\t// out\n    /* \"#utility.yul\":4060:4189   */\ntag_37:\n    /* \"#utility.yul\":4094:4100   */\n  0x00\n    /* \"#utility.yul\":4121:4141   */\n  tag_97\n  tag_98\n  jump\t// in\ntag_97:\n    /* \"#utility.yul\":4111:4141   */\n  swap1\n  pop\n    /* \"#utility.yul\":4150:4183   */\n  tag_99\n    /* \"#utility.yul\":4178:4182   */\n  dup3\n    /* \"#utility.yul\":4170:4176   */\n  dup3\n    /* \"#utility.yul\":4150:4183   */\n  tag_100\n  jump\t// in\ntag_99:\n    /* \"#utility.yul\":4060:4189   */\n  swap2\n  swap1\n  pop\n  jump\t// out\n    /* \"#utility.yul\":4195:4270   */\ntag_98:\n    /* \"#utility.yul\":4228:4234   */\n  0x00\n    /* \"#utility.yul\":4261:4263   */\n  0x40\n    /* \"#utility.yul\":4255:4264   */\n  mload\n    /* \"#utility.yul\":4245:4264   */\n  swap1\n  pop\n    /* \"#utility.yul\":4195:4270   */\n  swap1\n  jump\t// out\n    /* \"#utility.yul\":4276:4597   */\ntag_36:\n    /* \"#utility.yul\":4363:4367   */\n  0x00\n    /* \"#utility.yul\":4453:4471   */\n  0xffffffffffffffff\n    /* \"#utility.yul\":4445:4451   */\n  dup3\n    /* \"#utility.yul\":4442:4472   */\n  gt\n    /* \"#utility.yul\":4439:4495   */\n  iszero\n  tag_103\n  jumpi\n    /* \"#utility.yul\":4475:4493   */\n  tag_104\n  tag_105\n  jump\t// in\ntag_104:\n    /* \"#utility.yul\":4439:4495   */\ntag_103:\n    /* \"#utility.yul\":4525:4529   */\n  0x20\n    /* \"#utility.yul\":4517:4523   */\n  dup3\n    /* \"#utility.yul\":4513:4530   */\n  mul\n    /* \"#utility.yul\":4505:4530   */\n  swap1\n  pop\n    /* \"#utility.yul\":4585:4589   */\n  0x20\n    /* \"#utility.yul\":4579:4583   */\n  dup2\n    /* \"#utility.yul\":4575:4590   */\n  add\n    /* \"#utility.yul\":4567:4590   */\n  swap1\n  pop\n    /* \"#utility.yul\":4276:4597   */\n  swap2\n  swap1\n  pop\n  jump\t// out\n    /* \"#utility.yul\":4603:4911   */\ntag_53:\n    /* \"#utility.yul\":4665:4669   */\n  0x00\n    /* \"#utility.yul\":4755:4773   */\n  0xffffffffffffffff\n    /* \"#utility.yul\":4747:4753   */\n  dup3\n    /* \"#utility.yul\":4744:4774   */\n  gt\n    /* \"#utility.yul\":4741:4797   */\n  iszero\n  tag_107\n  jumpi\n    /* \"#utility.yul\":4777:4795   */\n  tag_108\n  tag_105\n  jump\t// in\ntag_108:\n    /* \"#utility.yul\":4741:4797   */\ntag_107:\n    /* \"#utility.yul\":4815:4844   */\n  tag_109\n    /* \"#utility.yul\":4837:4843   */\n  dup3\n    /* \"#utility.yul\":4815:4844   */\n  tag_110\n  jump\t// in\ntag_109:\n    /* \"#utility.yul\":4807:4844   */\n  swap1\n  pop\n    /* \"#utility.yul\":4899:4903   */\n  0x20\n    /* \"#utility.yul\":4893:4897   */\n  dup2\n    /* \"#utility.yul\":4889:4904   */\n  add\n    /* \"#utility.yul\":4881:4904   */\n  swap1\n  pop\n    /* \"#utility.yul\":4603:4911   */\n  swap2\n  swap1\n  pop\n  jump\t// out\n    /* \"#utility.yul\":4917:5033   */\ntag_111:\n    /* \"#utility.yul\":4968:4972   */\n  0x00\n    /* \"#utility.yul\":4991:4994   */\n  dup2\n    /* \"#utility.yul\":4983:4994   */\n  swap1\n  pop\n    /* \"#utility.yul\":5021:5025   */\n  0x20\n    /* \"#utility.yul\":5016:5019   */\n  dup3\n    /* \"#utility.yul\":5012:5026   */\n  add\n    /* \"#utility.yul\":5004:5026   */\n  swap1\n  pop\n    /* \"#utility.yul\":4917:5033   */\n  swap2\n  swap1\n  pop\n  jump\t// out\n    /* \"#utility.yul\":5039:5137   */\ntag_113:\n    /* \"#utility.yul\":5090:5096   */\n  0x00\n    /* \"#utility.yul\":5124:5129   */\n  dup2\n    /* \"#utility.yul\":5118:5130   */\n  mload\n    /* \"#utility.yul\":5108:5130   */\n  swap1\n  pop\n    /* \"#utility.yul\":5039:5137   */\n  swap2\n  swap1\n  pop\n  jump\t// out\n    /* \"#utility.yul\":5143:5242   */\ntag_83:\n    /* \"#utility.yul\":5195:5201   */\n  0x00\n    /* \"#utility.yul\":5229:5234   */\n  dup2\n    /* \"#utility.yul\":5223:5235   */\n  mload\n    /* \"#utility.yul\":5213:5235   */\n  swap1\n  pop\n    /* \"#utility.yul\":5143:5242   */\n  swap2\n  swap1\n  pop\n  jump\t// out\n    /* \"#utility.yul\":5248:5396   */\ntag_85:\n    /* \"#utility.yul\":5350:5361   */\n  0x00\n    /* \"#utility.yul\":5387:5390   */\n  dup2\n    /* \"#utility.yul\":5372:5390   */\n  swap1\n  pop\n    /* \"#utility.yul\":5248:5396   */\n  swap3\n  swap2\n  pop\n  pop\n  jump\t// out\n    /* \"#utility.yul\":5402:5707   */\ntag_30:\n    /* \"#utility.yul\":5442:5445   */\n  0x00\n    /* \"#utility.yul\":5461:5481   */\n  tag_118\n    /* \"#utility.yul\":5479:5480   */\n  dup3\n    /* \"#utility.yul\":5461:5481   */\n  tag_90\n  jump\t// in\ntag_118:\n    /* \"#utility.yul\":5456:5481   */\n  swap2\n  pop\n    /* \"#utility.yul\":5495:5515   */\n  tag_119\n    /* \"#utility.yul\":5513:5514   */\n  dup4\n    /* \"#utility.yul\":5495:5515   */\n  tag_90\n  jump\t// in\ntag_119:\n    /* \"#utility.yul\":5490:5515   */\n  swap3\n  pop\n    /* \"#utility.yul\":5649:5650   */\n  dup3\n    /* \"#utility.yul\":5581:5647   */\n  0xffffffffffffffffffffffffffffffffffffffffffffffffffffffffffffffff\n    /* \"#utility.yul\":5577:5651   */\n  sub\n    /* \"#utility.yul\":5574:5575   */\n  dup3\n    /* \"#utility.yul\":5571:5652   */\n  gt\n    /* \"#utility.yul\":5568:5675   */\n  iszero\n  tag_120\n  jumpi\n    /* \"#utility.yul\":5655:5673   */\n  tag_121\n  tag_122\n  jump\t// in\ntag_121:\n    /* \"#utility.yul\":5568:5675   */\ntag_120:\n    /* \"#utility.yul\":5699:5700   */\n  dup3\n    /* \"#utility.yul\":5696:5697   */\n  dup3\n    /* \"#utility.yul\":5692:5701   */\n  add\n    /* \"#utility.yul\":5685:5701   */\n  swap1\n  pop\n    /* \"#utility.yul\":5402:5707   */\n  swap3\n  swap2\n  pop\n  pop\n  jump\t// out\n    /* \"#utility.yul\":5713:5809   */\ntag_79:\n    /* \"#utility.yul\":5750:5757   */\n  0x00\n    /* \"#utility.yul\":5779:5803   */\n  tag_124\n    /* \"#utility.yul\":5797:5802   */\n  dup3\n    /* \"#utility.yul\":5779:5803   */\n  tag_125\n  jump\t// in\ntag_124:\n    /* \"#utility.yul\":5768:5803   */\n  swap1\n  pop\n    /* \"#utility.yul\":5713:5809   */\n  swap2\n  swap1\n  pop\n  jump\t// out\n    /* \"#utility.yul\":5815:5892   */\ntag_126:\n    /* \"#utility.yul\":5852:5859   */\n  0x00\n    /* \"#utility.yul\":5881:5886   */\n  dup2\n    /* \"#utility.yul\":5870:5886   */\n  swap1\n  pop\n    /* \"#utility.yul\":5815:5892   */\n  swap2\n  swap1\n  pop\n  jump\t// out\n    /* \"#utility.yul\":5898:6024   */\ntag_125:\n    /* \"#utility.yul\":5935:5942   */\n  0x00\n    /* \"#utility.yul\":5975:6017   */\n  0xffffffffffffffffffffffffffffffffffffffff\n    /* \"#utility.yul\":5968:5973   */\n  dup3\n    /* \"#utility.yul\":5964:6018   */\n  and\n    /* \"#utility.yul\":5953:6018   */\n  swap1\n  pop\n    /* \"#utility.yul\":5898:6024   */\n  swap2\n  swap1\n  pop\n  jump\t// out\n    /* \"#utility.yul\":6030:6107   */\ntag_90:\n    /* \"#utility.yul\":6067:6074   */\n  0x00\n    /* \"#utility.yul\":6096:6101   */\n  dup2\n    /* \"#utility.yul\":6085:6101   */\n  swap1\n  pop\n    /* \"#utility.yul\":6030:6107   */\n  swap2\n  swap1\n  pop\n  jump\t// out\n    /* \"#utility.yul\":6113:6707   */\ntag_27:\n    /* \"#utility.yul\":6197:6202   */\n  0x00\n    /* \"#utility.yul\":6228:6266   */\n  tag_131\n    /* \"#utility.yul\":6260:6265   */\n  dup3\n    /* \"#utility.yul\":6228:6266   */\n  tag_113\n  jump\t// in\ntag_131:\n    /* \"#utility.yul\":6291:6296   */\n  dup3\n    /* \"#utility.yul\":6318:6358   */\n  tag_132\n    /* \"#utility.yul\":6352:6357   */\n  dup5\n    /* \"#utility.yul\":6318:6358   */\n  tag_111\n  jump\t// in\ntag_132:\n    /* \"#utility.yul\":6306:6358   */\n  swap1\n  pop\n    /* \"#utility.yul\":6377:6412   */\n  tag_133\n    /* \"#utility.yul\":6403:6411   */\n  dup2\n    /* \"#utility.yul\":6377:6412   */\n  tag_134\n  jump\t// in\ntag_133:\n    /* \"#utility.yul\":6368:6412   */\n  swap3\n  pop\n    /* \"#utility.yul\":6436:6438   */\n  0x20\n    /* \"#utility.yul\":6428:6434   */\n  dup3\n    /* \"#utility.yul\":6425:6439   */\n  lt\n    /* \"#utility.yul\":6422:6700   */\n  iszero\n  tag_135\n  jumpi\n    /* \"#utility.yul\":6507:6676   */\n  tag_136\n    /* \"#utility.yul\":6592:6658   */\n  0xffffffffffffffffffffffffffffffffffffffffffffffffffffffffffffffff\n    /* \"#utility.yul\":6562:6568   */\n  dup4\n    /* \"#utility.yul\":6558:6560   */\n  0x20\n    /* \"#utility.yul\":6554:6569   */\n  sub\n    /* \"#utility.yul\":6551:6552   */\n  0x08\n    /* \"#utility.yul\":6547:6570   */\n  mul\n    /* \"#utility.yul\":6507:6676   */\n  tag_137\n  jump\t// in\ntag_136:\n    /* \"#utility.yul\":6484:6489   */\n  dup4\n    /* \"#utility.yul\":6463:6690   */\n  and\n    /* \"#utility.yul\":6454:6690   */\n  swap3\n  pop\n    /* \"#utility.yul\":6422:6700   */\ntag_135:\n    /* \"#utility.yul\":6203:6707   */\n  pop\n  pop\n    /* \"#utility.yul\":6113:6707   */\n  swap2\n  swap1\n  pop\n  jump\t// out\n    /* \"#utility.yul\":6713:7020   */\ntag_58:\n    /* \"#utility.yul\":6781:6782   */\n  0x00\n    /* \"#utility.yul\":6791:6904   */\ntag_139:\n    /* \"#utility.yul\":6805:6811   */\n  dup4\n    /* \"#utility.yul\":6802:6803   */\n  dup2\n    /* \"#utility.yul\":6799:6812   */\n  lt\n    /* \"#utility.yul\":6791:6904   */\n  iszero\n  tag_141\n  jumpi\n    /* \"#utility.yul\":6890:6891   */\n  dup1\n    /* \"#utility.yul\":6885:6888   */\n  dup3\n    /* \"#utility.yul\":6881:6892   */\n  add\n    /* \"#utility.yul\":6875:6893   */\n  mload\n    /* \"#utility.yul\":6871:6872   */\n  dup2\n    /* \"#utility.yul\":6866:6869   */\n  dup5\n    /* \"#utility.yul\":6862:6873   */\n  add\n    /* \"#utility.yul\":6855:6894   */\n  mstore\n    /* \"#utility.yul\":6827:6829   */\n  0x20\n    /* \"#utility.yul\":6824:6825   */\n  dup2\n    /* \"#utility.yul\":6820:6830   */\n  add\n    /* \"#utility.yul\":6815:6830   */\n  swap1\n  pop\n    /* \"#utility.yul\":6791:6904   */\n  jump(tag_139)\ntag_141:\n    /* \"#utility.yul\":6922:6928   */\n  dup4\n    /* \"#utility.yul\":6919:6920   */\n  dup2\n    /* \"#utility.yul\":6916:6929   */\n  gt\n    /* \"#utility.yul\":6913:7014   */\n  iszero\n  tag_142\n  jumpi\n    /* \"#utility.yul\":7002:7003   */\n  0x00\n    /* \"#utility.yul\":6993:6999   */\n  dup5\n    /* \"#utility.yul\":6988:6991   */\n  dup5\n    /* \"#utility.yul\":6984:7000   */\n  add\n    /* \"#utility.yul\":6977:7004   */\n  mstore\n    /* \"#utility.yul\":6913:7014   */\ntag_142:\n    /* \"#utility.yul\":6762:7020   */\n  pop\n    /* \"#utility.yul\":6713:7020   */\n  pop\n  pop\n  pop\n  jump\t// out\n    /* \"#utility.yul\":7026:7307   */\ntag_100:\n    /* \"#utility.yul\":7109:7136   */\n  tag_144\n    /* \"#utility.yul\":7131:7135   */\n  dup3\n    /* \"#utility.yul\":7109:7136   */\n  tag_110\n  jump\t// in\ntag_144:\n    /* \"#utility.yul\":7101:7107   */\n  dup2\n    /* \"#utility.yul\":7097:7137   */\n  add\n    /* \"#utility.yul\":7239:7245   */\n  dup2\n    /* \"#utility.yul\":7227:7237   */\n  dup2\n    /* \"#utility.yul\":7224:7246   */\n  lt\n    /* \"#utility.yul\":7203:7221   */\n  0xffffffffffffffff\n    /* \"#utility.yul\":7191:7201   */\n  dup3\n    /* \"#utility.yul\":7188:7222   */\n  gt\n    /* \"#utility.yul\":7185:7247   */\n  or\n    /* \"#utility.yul\":7182:7270   */\n  iszero\n  tag_145\n  jumpi\n    /* \"#utility.yul\":7250:7268   */\n  tag_146\n  tag_105\n  jump\t// in\ntag_146:\n    /* \"#utility.yul\":7182:7270   */\ntag_145:\n    /* \"#utility.yul\":7290:7300   */\n  dup1\n    /* \"#utility.yul\":7286:7288   */\n  0x40\n    /* \"#utility.yul\":7279:7301   */\n  mstore\n    /* \"#utility.yul\":7069:7307   */\n  pop\n    /* \"#utility.yul\":7026:7307   */\n  pop\n  pop\n  jump\t// out\n    /* \"#utility.yul\":7313:7493   */\ntag_122:\n    /* \"#utility.yul\":7361:7438   */\n  0x4e487b7100000000000000000000000000000000000000000000000000000000\n    /* \"#utility.yul\":7358:7359   */\n  0x00\n    /* \"#utility.yul\":7351:7439   */\n  mstore\n    /* \"#utility.yul\":7458:7462   */\n  0x11\n    /* \"#utility.yul\":7455:7456   */\n  0x04\n    /* \"#utility.yul\":7448:7463   */\n  mstore\n    /* \"#utility.yul\":7482:7486   */\n  0x24\n    /* \"#utility.yul\":7479:7480   */\n  0x00\n    /* \"#utility.yul\":7472:7487   */\n  revert\n    /* \"#utility.yul\":7499:7679   */\ntag_14:\n    /* \"#utility.yul\":7547:7624   */\n  0x4e487b7100000000000000000000000000000000000000000000000000000000\n    /* \"#utility.yul\":7544:7545   */\n  0x00\n    /* \"#utility.yul\":7537:7625   */\n  mstore\n    /* \"#utility.yul\":7644:7648   */\n  0x32\n    /* \"#utility.yul\":7641:7642   */\n  0x04\n    /* \"#utility.yul\":7634:7649   */\n  mstore\n    /* \"#utility.yul\":7668:7672   */\n  0x24\n    /* \"#utility.yul\":7665:7666   */\n  0x00\n    /* \"#utility.yul\":7658:7673   */\n  revert\n    /* \"#utility.yul\":7685:7865   */\ntag_105:\n    /* \"#utility.yul\":7733:7810   */\n  0x4e487b7100000000000000000000000000000000000000000000000000000000\n    /* \"#utility.yul\":7730:7731   */\n  0x00\n    /* \"#utility.yul\":7723:7811   */\n  mstore\n    /* \"#utility.yul\":7830:7834   */\n  0x41\n    /* \"#utility.yul\":7827:7828   */\n  0x04\n    /* \"#utility.yul\":7820:7835   */\n  mstore\n    /* \"#utility.yul\":7854:7858   */\n  0x24\n    /* \"#utility.yul\":7851:7852   */\n  0x00\n    /* \"#utility.yul\":7844:7859   */\n  revert\n    /* \"#utility.yul\":7871:8025   */\ntag_134:\n    /* \"#utility.yul\":7914:7925   */\n  0x00\n    /* \"#utility.yul\":7950:7979   */\n  tag_151\n    /* \"#utility.yul\":7974:7977   */\n  dup3\n    /* \"#utility.yul\":7968:7978   */\n  mload\n    /* \"#utility.yul\":7950:7979   */\n  tag_126\n  jump\t// in\ntag_151:\n    /* \"#utility.yul\":8013:8018   */\n  dup1\n    /* \"#utility.yul\":7989:8018   */\n  swap2\n  pop\n    /* \"#utility.yul\":7926:8025   */\n  pop\n    /* \"#utility.yul\":7871:8025   */\n  swap2\n  swap1\n  pop\n  jump\t// out\n    /* \"#utility.yul\":8031:8148   */\ntag_46:\n    /* \"#utility.yul\":8140:8141   */\n  0x00\n    /* \"#utility.yul\":8137:8138   */\n  dup1\n    /* \"#utility.yul\":8130:8142   */\n  revert\n    /* \"#utility.yul\":8154:8271   */\ntag_40:\n    /* \"#utility.yul\":8263:8264   */\n  0x00\n    /* \"#utility.yul\":8260:8261   */\n  dup1\n    /* \"#utility.yul\":8253:8265   */\n  revert\n    /* \"#utility.yul\":8277:8394   */\ntag_56:\n    /* \"#utility.yul\":8386:8387   */\n  0x00\n    /* \"#utility.yul\":8383:8384   */\n  dup1\n    /* \"#utility.yul\":8376:8388   */\n  revert\n    /* \"#utility.yul\":8400:8517   */\ntag_74:\n    /* \"#utility.yul\":8509:8510   */\n  0x00\n    /* \"#utility.yul\":8506:8507   */\n  dup1\n    /* \"#utility.yul\":8499:8511   */\n  revert\n    /* \"#utility.yul\":8523:8640   */\ntag_71:\n    /* \"#utility.yul\":8632:8633   */\n  0x00\n    /* \"#utility.yul\":8629:8630   */\n  dup1\n    /* \"#utility.yul\":8622:8634   */\n  revert\n    /* \"#utility.yul\":8646:8748   */\ntag_110:\n    /* \"#utility.yul\":8687:8693   */\n  0x00\n    /* \"#utility.yul\":8738:8740   */\n  0x1f\n    /* \"#utility.yul\":8734:8741   */\n  not\n    /* \"#utility.yul\":8729:8731   */\n  0x1f\n    /* \"#utility.yul\":8722:8727   */\n  dup4\n    /* \"#utility.yul\":8718:8732   */\n  add\n    /* \"#utility.yul\":8714:8742   */\n  and\n    /* \"#utility.yul\":8704:8742   */\n  swap1\n  pop\n    /* \"#utility.yul\":8646:8748   */\n  swap2\n  swap1\n  pop\n  jump\t// out\n    /* \"#utility.yul\":8754:8861   */\ntag_137:\n    /* \"#utility.yul\":8798:8806   */\n  0x00\n    /* \"#utility.yul\":8848:8853   */\n  dup3\n    /* \"#utility.yul\":8842:8846   */\n  dup3\n    /* \"#utility.yul\":8838:8854   */\n  shl\n    /* \"#utility.yul\":8817:8854   */\n  swap1\n  pop\n    /* \"#utility.yul\":8754:8861   */\n  swap3\n  swap2\n  pop\n  pop\n  jump\t// out\n    /* \"contracts/SimpleVoting.sol\":371:7638  contract SimpleVoting is Context {\r... */\ntag_21:\n  dataSize(sub_0)\n  dup1\n  dataOffset(sub_0)\n  0x00\n  codecopy\n  0x00\n  return\nstop\n\nsub_0: assembly {\n        /* \"contracts/SimpleVoting.sol\":371:7638  contract SimpleVoting is Context {\r... */\n      mstore(0x40, 0x80)\n      callvalue\n      dup1\n      iszero\n      tag_1\n      jumpi\n      0x00\n      dup1\n      revert\n    tag_1:\n      pop\n      jumpi(tag_2, lt(calldatasize, 0x04))\n      shr(0xe0, calldataload(0x00))\n      dup1\n      0xa3ec138d\n      gt\n      tag_11\n      jumpi\n      dup1\n      0xa3ec138d\n      eq\n      tag_7\n      jumpi\n      dup1\n      0xc7f758a8\n      eq\n      tag_8\n      jumpi\n      dup1\n      0xd4d4b5ac\n      eq\n      tag_9\n      jumpi\n      dup1\n      0xda35c664\n      eq\n      tag_10\n      jumpi\n      jump(tag_2)\n    tag_11:\n      dup1\n      0x0121b93f\n      eq\n      tag_3\n      jumpi\n      dup1\n      0x28be18ee\n      eq\n      tag_4\n      jumpi\n      dup1\n      0x5c19a95c\n      eq\n      tag_5\n      jumpi\n      dup1\n      0x9e7b8d61\n      eq\n      tag_6\n      jumpi\n    tag_2:\n      0x00\n      dup1\n      revert\n        /* \"contracts/SimpleVoting.sol\":5533:6250  function vote(uint proposal) public proposalExists(proposal) notYetVoted(_msgSender()) hasRightToVote(_msgSender()) {\r... */\n    tag_3:\n      tag_12\n      0x04\n      dup1\n      calldatasize\n      sub\n      dup2\n      add\n      swap1\n      tag_13\n      swap2\n      swap1\n      tag_14\n      jump\t// in\n    tag_13:\n      tag_15\n      jump\t// in\n    tag_12:\n      stop\n        /* \"contracts/SimpleVoting.sol\":7116:7313  function winnerNames() public view\r... */\n    tag_4:\n      tag_16\n      tag_17\n      jump\t// in\n    tag_16:\n      mload(0x40)\n      tag_18\n      swap2\n      swap1\n      tag_19\n      jump\t// in\n    tag_18:\n      mload(0x40)\n      dup1\n      swap2\n      sub\n      swap1\n      return\n        /* \"contracts/SimpleVoting.sol\":4069:5339  function delegate(address _to) public notYetVoted (_msgSender()) hasRightToVote (_msgSender()) {\r... */\n    tag_5:\n      tag_20\n      0x04\n      dup1\n      calldatasize\n      sub\n      dup2\n      add\n      swap1\n      tag_21\n      swap2\n      swap1\n      tag_22\n      jump\t// in\n    tag_21:\n      tag_23\n      jump\t// in\n    tag_20:\n      stop\n        /* \"contracts/SimpleVoting.sol\":3452:3938  function giveRightToVote(address _voter) public onlyChairPerson() notYetVoted(_voter) {\r... */\n    tag_6:\n      tag_24\n      0x04\n      dup1\n      calldatasize\n      sub\n      dup2\n      add\n      swap1\n      tag_25\n      swap2\n      swap1\n      tag_22\n      jump\t// in\n    tag_25:\n      tag_26\n      jump\t// in\n    tag_24:\n      stop\n        /* \"contracts/SimpleVoting.sol\":1067:1106  mapping(address => Voter) public voters */\n    tag_7:\n      tag_27\n      0x04\n      dup1\n      calldatasize\n      sub\n      dup2\n      add\n      swap1\n      tag_28\n      swap2\n      swap1\n      tag_22\n      jump\t// in\n    tag_28:\n      tag_29\n      jump\t// in\n    tag_27:\n      mload(0x40)\n      tag_30\n      swap5\n      swap4\n      swap3\n      swap2\n      swap1\n      tag_31\n      jump\t// in\n    tag_30:\n      mload(0x40)\n      dup1\n      swap2\n      sub\n      swap1\n      return\n        /* \"contracts/SimpleVoting.sol\":2992:3285  function getProposal (uint256 _proposalIndex) public view proposalExists(_proposalIndex) returns (string memory proposalName_, uint256 voteCount_) {\r... */\n    tag_8:\n      tag_32\n      0x04\n      dup1\n      calldatasize\n      sub\n      dup2\n      add\n      swap1\n      tag_33\n      swap2\n      swap1\n      tag_14\n      jump\t// in\n    tag_33:\n      tag_34\n      jump\t// in\n    tag_32:\n      mload(0x40)\n      tag_35\n      swap3\n      swap2\n      swap1\n      tag_36\n      jump\t// in\n    tag_35:\n      mload(0x40)\n      dup1\n      swap2\n      sub\n      swap1\n      return\n        /* \"contracts/SimpleVoting.sol\":1032:1058  address public chairPerson */\n    tag_9:\n      tag_37\n      tag_38\n      jump\t// in\n    tag_37:\n      mload(0x40)\n      tag_39\n      swap2\n      swap1\n      tag_40\n      jump\t// in\n    tag_39:\n      mload(0x40)\n      dup1\n      swap2\n      sub\n      swap1\n      return\n        /* \"contracts/SimpleVoting.sol\":995:1023  uint256 public proposalCount */\n    tag_10:\n      tag_41\n      tag_42\n      jump\t// in\n    tag_41:\n      mload(0x40)\n      tag_43\n      swap2\n      swap1\n      tag_44\n      jump\t// in\n    tag_43:\n      mload(0x40)\n      dup1\n      swap2\n      sub\n      swap1\n      return\n        /* \"contracts/SimpleVoting.sol\":5533:6250  function vote(uint proposal) public proposalExists(proposal) notYetVoted(_msgSender()) hasRightToVote(_msgSender()) {\r... */\n    tag_15:\n        /* \"contracts/SimpleVoting.sol\":5584:5592  proposal */\n      dup1\n        /* \"contracts/SimpleVoting.sol\":1923:1936  proposalCount */\n      sload(0x00)\n        /* \"contracts/SimpleVoting.sol\":1906:1920  _proposalIndex */\n      dup2\n        /* \"contracts/SimpleVoting.sol\":1906:1936  _proposalIndex < proposalCount */\n      lt\n        /* \"contracts/SimpleVoting.sol\":1883:2008  require (\r... */\n      tag_47\n      jumpi\n      mload(0x40)\n      0x08c379a000000000000000000000000000000000000000000000000000000000\n      dup2\n      mstore\n      0x04\n      add\n      tag_48\n      swap1\n      tag_49\n      jump\t// in\n    tag_48:\n      mload(0x40)\n      dup1\n      swap2\n      sub\n      swap1\n      revert\n    tag_47:\n        /* \"contracts/SimpleVoting.sol\":5606:5618  _msgSender() */\n      tag_50\n        /* \"contracts/SimpleVoting.sol\":5606:5616  _msgSender */\n      tag_51\n        /* \"contracts/SimpleVoting.sol\":5606:5618  _msgSender() */\n      jump\t// in\n    tag_50:\n        /* \"contracts/SimpleVoting.sol\":1705:1711  voters */\n      0x02\n        /* \"contracts/SimpleVoting.sol\":1705:1719  voters[_voter] */\n      0x00\n        /* \"contracts/SimpleVoting.sol\":1712:1718  _voter */\n      dup3\n        /* \"contracts/SimpleVoting.sol\":1705:1719  voters[_voter] */\n      0xffffffffffffffffffffffffffffffffffffffff\n      and\n      0xffffffffffffffffffffffffffffffffffffffff\n      and\n      dup2\n      mstore\n      0x20\n      add\n      swap1\n      dup2\n      mstore\n      0x20\n      add\n      0x00\n      keccak256\n        /* \"contracts/SimpleVoting.sol\":1705:1725  voters[_voter].voted */\n      0x01\n      add\n      0x00\n      swap1\n      sload\n      swap1\n      0x0100\n      exp\n      swap1\n      div\n      0xff\n      and\n        /* \"contracts/SimpleVoting.sol\":1704:1725  !voters[_voter].voted */\n      iszero\n        /* \"contracts/SimpleVoting.sol\":1682:1795  require(\r... */\n      tag_53\n      jumpi\n      mload(0x40)\n      0x08c379a000000000000000000000000000000000000000000000000000000000\n      dup2\n      mstore\n      0x04\n      add\n      tag_54\n      swap1\n      tag_55\n      jump\t// in\n    tag_54:\n      mload(0x40)\n      dup1\n      swap2\n      sub\n      swap1\n      revert\n    tag_53:\n        /* \"contracts/SimpleVoting.sol\":5635:5647  _msgSender() */\n      tag_56\n        /* \"contracts/SimpleVoting.sol\":5635:5645  _msgSender */\n      tag_51\n        /* \"contracts/SimpleVoting.sol\":5635:5647  _msgSender() */\n      jump\t// in\n    tag_56:\n        /* \"contracts/SimpleVoting.sol\":2135:2136  0 */\n      0x00\n        /* \"contracts/SimpleVoting.sol\":2111:2117  voters */\n      0x02\n        /* \"contracts/SimpleVoting.sol\":2111:2125  voters[_voter] */\n      0x00\n        /* \"contracts/SimpleVoting.sol\":2118:2124  _voter */\n      dup4\n        /* \"contracts/SimpleVoting.sol\":2111:2125  voters[_voter] */\n      0xffffffffffffffffffffffffffffffffffffffff\n      and\n      0xffffffffffffffffffffffffffffffffffffffff\n      and\n      dup2\n      mstore\n      0x20\n      add\n      swap1\n      dup2\n      mstore\n      0x20\n      add\n      0x00\n      keccak256\n        /* \"contracts/SimpleVoting.sol\":2111:2132  voters[_voter].weight */\n      0x00\n      add\n      sload\n        /* \"contracts/SimpleVoting.sol\":2111:2136  voters[_voter].weight > 0 */\n      gt\n        /* \"contracts/SimpleVoting.sol\":2088:2213  require (\r... */\n      tag_58\n      jumpi\n      mload(0x40)\n      0x08c379a000000000000000000000000000000000000000000000000000000000\n      dup2\n      mstore\n      0x04\n      add\n      tag_59\n      swap1\n      tag_60\n      jump\t// in\n    tag_59:\n      mload(0x40)\n      dup1\n      swap2\n      sub\n      swap1\n      revert\n    tag_58:\n        /* \"contracts/SimpleVoting.sol\":5660:5680  Voter storage sender */\n      0x00\n        /* \"contracts/SimpleVoting.sol\":5683:5689  voters */\n      0x02\n        /* \"contracts/SimpleVoting.sol\":5683:5703  voters[_msgSender()] */\n      0x00\n        /* \"contracts/SimpleVoting.sol\":5690:5702  _msgSender() */\n      tag_62\n        /* \"contracts/SimpleVoting.sol\":5690:5700  _msgSender */\n      tag_51\n        /* \"contracts/SimpleVoting.sol\":5690:5702  _msgSender() */\n      jump\t// in\n    tag_62:\n        /* \"contracts/SimpleVoting.sol\":5683:5703  voters[_msgSender()] */\n      0xffffffffffffffffffffffffffffffffffffffff\n      and\n      0xffffffffffffffffffffffffffffffffffffffff\n      and\n      dup2\n      mstore\n      0x20\n      add\n      swap1\n      dup2\n      mstore\n      0x20\n      add\n      0x00\n      keccak256\n        /* \"contracts/SimpleVoting.sol\":5660:5703  Voter storage sender = voters[_msgSender()] */\n      swap1\n      pop\n        /* \"contracts/SimpleVoting.sol\":5905:5909  true */\n      0x01\n        /* \"contracts/SimpleVoting.sol\":5890:5896  sender */\n      dup2\n        /* \"contracts/SimpleVoting.sol\":5890:5902  sender.voted */\n      0x01\n      add\n      0x00\n        /* \"contracts/SimpleVoting.sol\":5890:5909  sender.voted = true */\n      0x0100\n      exp\n      dup2\n      sload\n      dup2\n      0xff\n      mul\n      not\n      and\n      swap1\n      dup4\n      iszero\n      iszero\n      mul\n      or\n      swap1\n      sstore\n      pop\n        /* \"contracts/SimpleVoting.sol\":5934:5942  proposal */\n      dup5\n        /* \"contracts/SimpleVoting.sol\":5920:5926  sender */\n      dup2\n        /* \"contracts/SimpleVoting.sol\":5920:5931  sender.vote */\n      0x02\n      add\n        /* \"contracts/SimpleVoting.sol\":5920:5942  sender.vote = proposal */\n      dup2\n      swap1\n      sstore\n      pop\n        /* \"contracts/SimpleVoting.sol\":6125:6174  proposals[proposal].voteCount. add(sender.weight) */\n      tag_63\n        /* \"contracts/SimpleVoting.sol\":6160:6166  sender */\n      dup2\n        /* \"contracts/SimpleVoting.sol\":6160:6173  sender.weight */\n      0x00\n      add\n      sload\n        /* \"contracts/SimpleVoting.sol\":6125:6134  proposals */\n      0x03\n        /* \"contracts/SimpleVoting.sol\":6135:6143  proposal */\n      dup8\n        /* \"contracts/SimpleVoting.sol\":6125:6144  proposals[proposal] */\n      dup2\n      sload\n      dup2\n      lt\n      tag_64\n      jumpi\n      tag_65\n      tag_66\n      jump\t// in\n    tag_65:\n    tag_64:\n      swap1\n      0x00\n      mstore\n      keccak256(0x00, 0x20)\n      swap1\n      0x02\n      mul\n      add\n        /* \"contracts/SimpleVoting.sol\":6125:6154  proposals[proposal].voteCount */\n      0x01\n      add\n      sload\n        /* \"contracts/SimpleVoting.sol\":6125:6159  proposals[proposal].voteCount. add */\n      tag_45\n      swap1\n        /* \"contracts/SimpleVoting.sol\":6125:6174  proposals[proposal].voteCount. add(sender.weight) */\n      swap2\n      swap1\n      0xffffffff\n      and\n      jump\t// in\n    tag_63:\n        /* \"contracts/SimpleVoting.sol\":6093:6102  proposals */\n      0x03\n        /* \"contracts/SimpleVoting.sol\":6103:6111  proposal */\n      dup7\n        /* \"contracts/SimpleVoting.sol\":6093:6112  proposals[proposal] */\n      dup2\n      sload\n      dup2\n      lt\n      tag_68\n      jumpi\n      tag_69\n      tag_66\n      jump\t// in\n    tag_69:\n    tag_68:\n      swap1\n      0x00\n      mstore\n      keccak256(0x00, 0x20)\n      swap1\n      0x02\n      mul\n      add\n        /* \"contracts/SimpleVoting.sol\":6093:6122  proposals[proposal].voteCount */\n      0x01\n      add\n        /* \"contracts/SimpleVoting.sol\":6093:6174  proposals[proposal].voteCount = proposals[proposal].voteCount. add(sender.weight) */\n      dup2\n      swap1\n      sstore\n      pop\n        /* \"contracts/SimpleVoting.sol\":6214:6226  _msgSender() */\n      tag_71\n        /* \"contracts/SimpleVoting.sol\":6214:6224  _msgSender */\n      tag_51\n        /* \"contracts/SimpleVoting.sol\":6214:6226  _msgSender() */\n      jump\t// in\n    tag_71:\n        /* \"contracts/SimpleVoting.sol\":6192:6242  VoteCasted (proposal, _msgSender(), sender.weight) */\n      0xffffffffffffffffffffffffffffffffffffffff\n      and\n        /* \"contracts/SimpleVoting.sol\":6204:6212  proposal */\n      dup6\n        /* \"contracts/SimpleVoting.sol\":6192:6242  VoteCasted (proposal, _msgSender(), sender.weight) */\n      0xe7ee74ca1f4bb1b82b14f87794c45b3e59c39e372b862fb97a6316b43355b69e\n        /* \"contracts/SimpleVoting.sol\":6228:6234  sender */\n      dup4\n        /* \"contracts/SimpleVoting.sol\":6228:6241  sender.weight */\n      0x00\n      add\n      sload\n        /* \"contracts/SimpleVoting.sol\":6192:6242  VoteCasted (proposal, _msgSender(), sender.weight) */\n      mload(0x40)\n      tag_72\n      swap2\n      swap1\n      tag_44\n      jump\t// in\n    tag_72:\n      mload(0x40)\n      dup1\n      swap2\n      sub\n      swap1\n      log3\n        /* \"contracts/SimpleVoting.sol\":5649:6250  {\r... */\n      pop\n        /* \"contracts/SimpleVoting.sol\":1806:1807  _ */\n      pop\n        /* \"contracts/SimpleVoting.sol\":2019:2020  _ */\n      pop\n        /* \"contracts/SimpleVoting.sol\":5533:6250  function vote(uint proposal) public proposalExists(proposal) notYetVoted(_msgSender()) hasRightToVote(_msgSender()) {\r... */\n      pop\n      pop\n      jump\t// out\n        /* \"contracts/SimpleVoting.sol\":7116:7313  function winnerNames() public view\r... */\n    tag_17:\n        /* \"contracts/SimpleVoting.sol\":7173:7198  string memory winnerName_ */\n      0x60\n        /* \"contracts/SimpleVoting.sol\":7221:7230  uint256 i */\n      0x00\n        /* \"contracts/SimpleVoting.sol\":7216:7306  for (uint256 i = 0; i < winningProposals.length; i = i. add(1)) {\r... */\n    tag_74:\n        /* \"contracts/SimpleVoting.sol\":7240:7256  winningProposals */\n      0x04\n        /* \"contracts/SimpleVoting.sol\":7240:7263  winningProposals.length */\n      dup1\n      sload\n      swap1\n      pop\n        /* \"contracts/SimpleVoting.sol\":7236:7237  i */\n      dup2\n        /* \"contracts/SimpleVoting.sol\":7236:7263  i < winningProposals.length */\n      lt\n        /* \"contracts/SimpleVoting.sol\":7216:7306  for (uint256 i = 0; i < winningProposals.length; i = i. add(1)) {\r... */\n      iszero\n      tag_75\n      jumpi\n        /* \"contracts/SimpleVoting.sol\":7269:7278  i. add(1) */\n      tag_77\n        /* \"contracts/SimpleVoting.sol\":7276:7277  1 */\n      0x01\n        /* \"contracts/SimpleVoting.sol\":7269:7270  i */\n      dup3\n        /* \"contracts/SimpleVoting.sol\":7269:7275  i. add */\n      tag_45\n      swap1\n        /* \"contracts/SimpleVoting.sol\":7269:7278  i. add(1) */\n      swap2\n      swap1\n      0xffffffff\n      and\n      jump\t// in\n    tag_77:\n        /* \"contracts/SimpleVoting.sol\":7265:7278  i = i. add(1) */\n      swap1\n      pop\n        /* \"contracts/SimpleVoting.sol\":7216:7306  for (uint256 i = 0; i < winningProposals.length; i = i. add(1)) {\r... */\n      jump(tag_74)\n    tag_75:\n      pop\n        /* \"contracts/SimpleVoting.sol\":7116:7313  function winnerNames() public view\r... */\n      swap1\n      jump\t// out\n        /* \"contracts/SimpleVoting.sol\":4069:5339  function delegate(address _to) public notYetVoted (_msgSender()) hasRightToVote (_msgSender()) {\r... */\n    tag_23:\n        /* \"contracts/SimpleVoting.sol\":4120:4132  _msgSender() */\n      tag_78\n        /* \"contracts/SimpleVoting.sol\":4120:4130  _msgSender */\n      tag_51\n        /* \"contracts/SimpleVoting.sol\":4120:4132  _msgSender() */\n      jump\t// in\n    tag_78:\n        /* \"contracts/SimpleVoting.sol\":1705:1711  voters */\n      0x02\n        /* \"contracts/SimpleVoting.sol\":1705:1719  voters[_voter] */\n      0x00\n        /* \"contracts/SimpleVoting.sol\":1712:1718  _voter */\n      dup3\n        /* \"contracts/SimpleVoting.sol\":1705:1719  voters[_voter] */\n      0xffffffffffffffffffffffffffffffffffffffff\n      and\n      0xffffffffffffffffffffffffffffffffffffffff\n      and\n      dup2\n      mstore\n      0x20\n      add\n      swap1\n      dup2\n      mstore\n      0x20\n      add\n      0x00\n      keccak256\n        /* \"contracts/SimpleVoting.sol\":1705:1725  voters[_voter].voted */\n      0x01\n      add\n      0x00\n      swap1\n      sload\n      swap1\n      0x0100\n      exp\n      swap1\n      div\n      0xff\n      and\n        /* \"contracts/SimpleVoting.sol\":1704:1725  !voters[_voter].voted */\n      iszero\n        /* \"contracts/SimpleVoting.sol\":1682:1795  require(\r... */\n      tag_80\n      jumpi\n      mload(0x40)\n      0x08c379a000000000000000000000000000000000000000000000000000000000\n      dup2\n      mstore\n      0x04\n      add\n      tag_81\n      swap1\n      tag_55\n      jump\t// in\n    tag_81:\n      mload(0x40)\n      dup1\n      swap2\n      sub\n      swap1\n      revert\n    tag_80:\n        /* \"contracts/SimpleVoting.sol\":4150:4162  _msgSender() */\n      tag_82\n        /* \"contracts/SimpleVoting.sol\":4150:4160  _msgSender */\n      tag_51\n        /* \"contracts/SimpleVoting.sol\":4150:4162  _msgSender() */\n      jump\t// in\n    tag_82:\n        /* \"contracts/SimpleVoting.sol\":2135:2136  0 */\n      0x00\n        /* \"contracts/SimpleVoting.sol\":2111:2117  voters */\n      0x02\n        /* \"contracts/SimpleVoting.sol\":2111:2125  voters[_voter] */\n      0x00\n        /* \"contracts/SimpleVoting.sol\":2118:2124  _voter */\n      dup4\n        /* \"contracts/SimpleVoting.sol\":2111:2125  voters[_voter] */\n      0xffffffffffffffffffffffffffffffffffffffff\n      and\n      0xffffffffffffffffffffffffffffffffffffffff\n      and\n      dup2\n      mstore\n      0x20\n      add\n      swap1\n      dup2\n      mstore\n      0x20\n      add\n      0x00\n      keccak256\n        /* \"contracts/SimpleVoting.sol\":2111:2132  voters[_voter].weight */\n      0x00\n      add\n      sload\n        /* \"contracts/SimpleVoting.sol\":2111:2136  voters[_voter].weight > 0 */\n      gt\n        /* \"contracts/SimpleVoting.sol\":2088:2213  require (\r... */\n      tag_84\n      jumpi\n      mload(0x40)\n      0x08c379a000000000000000000000000000000000000000000000000000000000\n      dup2\n      mstore\n      0x04\n      add\n      tag_85\n      swap1\n      tag_60\n      jump\t// in\n    tag_85:\n      mload(0x40)\n      dup1\n      swap2\n      sub\n      swap1\n      revert\n    tag_84:\n        /* \"contracts/SimpleVoting.sol\":4283:4303  Voter storage sender */\n      0x00\n        /* \"contracts/SimpleVoting.sol\":4306:4312  voters */\n      0x02\n        /* \"contracts/SimpleVoting.sol\":4306:4326  voters[_msgSender()] */\n      0x00\n        /* \"contracts/SimpleVoting.sol\":4313:4325  _msgSender() */\n      tag_87\n        /* \"contracts/SimpleVoting.sol\":4313:4323  _msgSender */\n      tag_51\n        /* \"contracts/SimpleVoting.sol\":4313:4325  _msgSender() */\n      jump\t// in\n    tag_87:\n        /* \"contracts/SimpleVoting.sol\":4306:4326  voters[_msgSender()] */\n      0xffffffffffffffffffffffffffffffffffffffff\n      and\n      0xffffffffffffffffffffffffffffffffffffffff\n      and\n      dup2\n      mstore\n      0x20\n      add\n      swap1\n      dup2\n      mstore\n      0x20\n      add\n      0x00\n      keccak256\n        /* \"contracts/SimpleVoting.sol\":4283:4326  Voter storage sender = voters[_msgSender()] */\n      swap1\n      pop\n        /* \"contracts/SimpleVoting.sol\":4410:4422  _msgSender() */\n      tag_88\n        /* \"contracts/SimpleVoting.sol\":4410:4420  _msgSender */\n      tag_51\n        /* \"contracts/SimpleVoting.sol\":4410:4422  _msgSender() */\n      jump\t// in\n    tag_88:\n        /* \"contracts/SimpleVoting.sol\":4403:4422  _to != _msgSender() */\n      0xffffffffffffffffffffffffffffffffffffffff\n      and\n        /* \"contracts/SimpleVoting.sol\":4403:4406  _to */\n      dup5\n        /* \"contracts/SimpleVoting.sol\":4403:4422  _to != _msgSender() */\n      0xffffffffffffffffffffffffffffffffffffffff\n      and\n      eq\n      iszero\n        /* \"contracts/SimpleVoting.sol\":4394:4472  require (_to != _msgSender(), \"SimpleVoting: Self-delegation is not allowed.\") */\n      tag_89\n      jumpi\n      mload(0x40)\n      0x08c379a000000000000000000000000000000000000000000000000000000000\n      dup2\n      mstore\n      0x04\n      add\n      tag_90\n      swap1\n      tag_91\n      jump\t// in\n    tag_90:\n      mload(0x40)\n      dup1\n      swap2\n      sub\n      swap1\n      revert\n    tag_89:\n        /* \"contracts/SimpleVoting.sol\":4485:4741  while (voters[_to].delegate != address(0)) {\r... */\n    tag_92:\n        /* \"contracts/SimpleVoting.sol\":4524:4525  0 */\n      0x00\n        /* \"contracts/SimpleVoting.sol\":4492:4526  voters[_to].delegate != address(0) */\n      0xffffffffffffffffffffffffffffffffffffffff\n      and\n        /* \"contracts/SimpleVoting.sol\":4492:4498  voters */\n      0x02\n        /* \"contracts/SimpleVoting.sol\":4492:4503  voters[_to] */\n      0x00\n        /* \"contracts/SimpleVoting.sol\":4499:4502  _to */\n      dup7\n        /* \"contracts/SimpleVoting.sol\":4492:4503  voters[_to] */\n      0xffffffffffffffffffffffffffffffffffffffff\n      and\n      0xffffffffffffffffffffffffffffffffffffffff\n      and\n      dup2\n      mstore\n      0x20\n      add\n      swap1\n      dup2\n      mstore\n      0x20\n      add\n      0x00\n      keccak256\n        /* \"contracts/SimpleVoting.sol\":4492:4512  voters[_to].delegate */\n      0x01\n      add\n      0x01\n      swap1\n      sload\n      swap1\n      0x0100\n      exp\n      swap1\n      div\n      0xffffffffffffffffffffffffffffffffffffffff\n      and\n        /* \"contracts/SimpleVoting.sol\":4492:4526  voters[_to].delegate != address(0) */\n      0xffffffffffffffffffffffffffffffffffffffff\n      and\n      eq\n        /* \"contracts/SimpleVoting.sol\":4485:4741  while (voters[_to].delegate != address(0)) {\r... */\n      tag_93\n      jumpi\n        /* \"contracts/SimpleVoting.sol\":4549:4555  voters */\n      0x02\n        /* \"contracts/SimpleVoting.sol\":4549:4560  voters[_to] */\n      0x00\n        /* \"contracts/SimpleVoting.sol\":4556:4559  _to */\n      dup6\n        /* \"contracts/SimpleVoting.sol\":4549:4560  voters[_to] */\n      0xffffffffffffffffffffffffffffffffffffffff\n      and\n      0xffffffffffffffffffffffffffffffffffffffff\n      and\n      dup2\n      mstore\n      0x20\n      add\n      swap1\n      dup2\n      mstore\n      0x20\n      add\n      0x00\n      keccak256\n        /* \"contracts/SimpleVoting.sol\":4549:4569  voters[_to].delegate */\n      0x01\n      add\n      0x01\n      swap1\n      sload\n      swap1\n      0x0100\n      exp\n      swap1\n      div\n      0xffffffffffffffffffffffffffffffffffffffff\n      and\n        /* \"contracts/SimpleVoting.sol\":4543:4569  _to = voters[_to].delegate */\n      swap4\n      pop\n        /* \"contracts/SimpleVoting.sol\":4665:4677  _msgSender() */\n      tag_94\n        /* \"contracts/SimpleVoting.sol\":4665:4675  _msgSender */\n      tag_51\n        /* \"contracts/SimpleVoting.sol\":4665:4677  _msgSender() */\n      jump\t// in\n    tag_94:\n        /* \"contracts/SimpleVoting.sol\":4658:4677  _to != _msgSender() */\n      0xffffffffffffffffffffffffffffffffffffffff\n      and\n        /* \"contracts/SimpleVoting.sol\":4658:4661  _to */\n      dup5\n        /* \"contracts/SimpleVoting.sol\":4658:4677  _to != _msgSender() */\n      0xffffffffffffffffffffffffffffffffffffffff\n      and\n      eq\n      iszero\n        /* \"contracts/SimpleVoting.sol\":4650:4729  require(_to != _msgSender(), \"SimpleVoting: Delegation traces back to caller.\") */\n      tag_95\n      jumpi\n      mload(0x40)\n      0x08c379a000000000000000000000000000000000000000000000000000000000\n      dup2\n      mstore\n      0x04\n      add\n      tag_96\n      swap1\n      tag_97\n      jump\t// in\n    tag_96:\n      mload(0x40)\n      dup1\n      swap2\n      sub\n      swap1\n      revert\n    tag_95:\n        /* \"contracts/SimpleVoting.sol\":4485:4741  while (voters[_to].delegate != address(0)) {\r... */\n      jump(tag_92)\n    tag_93:\n        /* \"contracts/SimpleVoting.sol\":4766:4770  true */\n      0x01\n        /* \"contracts/SimpleVoting.sol\":4751:4757  sender */\n      dup2\n        /* \"contracts/SimpleVoting.sol\":4751:4763  sender.voted */\n      0x01\n      add\n      0x00\n        /* \"contracts/SimpleVoting.sol\":4751:4770  sender.voted = true */\n      0x0100\n      exp\n      dup2\n      sload\n      dup2\n      0xff\n      mul\n      not\n      and\n      swap1\n      dup4\n      iszero\n      iszero\n      mul\n      or\n      swap1\n      sstore\n      pop\n        /* \"contracts/SimpleVoting.sol\":4799:4802  _to */\n      dup4\n        /* \"contracts/SimpleVoting.sol\":4781:4787  sender */\n      dup2\n        /* \"contracts/SimpleVoting.sol\":4781:4796  sender.delegate */\n      0x01\n      add\n      0x01\n        /* \"contracts/SimpleVoting.sol\":4781:4802  sender.delegate = _to */\n      0x0100\n      exp\n      dup2\n      sload\n      dup2\n      0xffffffffffffffffffffffffffffffffffffffff\n      mul\n      not\n      and\n      swap1\n      dup4\n      0xffffffffffffffffffffffffffffffffffffffff\n      and\n      mul\n      or\n      swap1\n      sstore\n      pop\n        /* \"contracts/SimpleVoting.sol\":4813:4836  Voter storage delegate_ */\n      0x00\n        /* \"contracts/SimpleVoting.sol\":4839:4845  voters */\n      0x02\n        /* \"contracts/SimpleVoting.sol\":4839:4850  voters[_to] */\n      0x00\n        /* \"contracts/SimpleVoting.sol\":4846:4849  _to */\n      dup7\n        /* \"contracts/SimpleVoting.sol\":4839:4850  voters[_to] */\n      0xffffffffffffffffffffffffffffffffffffffff\n      and\n      0xffffffffffffffffffffffffffffffffffffffff\n      and\n      dup2\n      mstore\n      0x20\n      add\n      swap1\n      dup2\n      mstore\n      0x20\n      add\n      0x00\n      keccak256\n        /* \"contracts/SimpleVoting.sol\":4813:4850  Voter storage delegate_ = voters[_to] */\n      swap1\n      pop\n        /* \"contracts/SimpleVoting.sol\":4865:4874  delegate_ */\n      dup1\n        /* \"contracts/SimpleVoting.sol\":4865:4880  delegate_.voted */\n      0x01\n      add\n      0x00\n      swap1\n      sload\n      swap1\n      0x0100\n      exp\n      swap1\n      div\n      0xff\n      and\n        /* \"contracts/SimpleVoting.sol\":4861:5274  if (delegate_.voted) {\r... */\n      iszero\n      tag_98\n      jumpi\n        /* \"contracts/SimpleVoting.sol\":5034:5089  proposals[delegate_.vote].voteCount. add(sender.weight) */\n      tag_99\n        /* \"contracts/SimpleVoting.sol\":5075:5081  sender */\n      dup3\n        /* \"contracts/SimpleVoting.sol\":5075:5088  sender.weight */\n      0x00\n      add\n      sload\n        /* \"contracts/SimpleVoting.sol\":5034:5043  proposals */\n      0x03\n        /* \"contracts/SimpleVoting.sol\":5044:5053  delegate_ */\n      dup4\n        /* \"contracts/SimpleVoting.sol\":5044:5058  delegate_.vote */\n      0x02\n      add\n      sload\n        /* \"contracts/SimpleVoting.sol\":5034:5059  proposals[delegate_.vote] */\n      dup2\n      sload\n      dup2\n      lt\n      tag_100\n      jumpi\n      tag_101\n      tag_66\n      jump\t// in\n    tag_101:\n    tag_100:\n      swap1\n      0x00\n      mstore\n      keccak256(0x00, 0x20)\n      swap1\n      0x02\n      mul\n      add\n        /* \"contracts/SimpleVoting.sol\":5034:5069  proposals[delegate_.vote].voteCount */\n      0x01\n      add\n      sload\n        /* \"contracts/SimpleVoting.sol\":5034:5074  proposals[delegate_.vote].voteCount. add */\n      tag_45\n      swap1\n        /* \"contracts/SimpleVoting.sol\":5034:5089  proposals[delegate_.vote].voteCount. add(sender.weight) */\n      swap2\n      swap1\n      0xffffffff\n      and\n      jump\t// in\n    tag_99:\n        /* \"contracts/SimpleVoting.sol\":4996:5005  proposals */\n      0x03\n        /* \"contracts/SimpleVoting.sol\":5006:5015  delegate_ */\n      dup3\n        /* \"contracts/SimpleVoting.sol\":5006:5020  delegate_.vote */\n      0x02\n      add\n      sload\n        /* \"contracts/SimpleVoting.sol\":4996:5021  proposals[delegate_.vote] */\n      dup2\n      sload\n      dup2\n      lt\n      tag_103\n      jumpi\n      tag_104\n      tag_66\n      jump\t// in\n    tag_104:\n    tag_103:\n      swap1\n      0x00\n      mstore\n      keccak256(0x00, 0x20)\n      swap1\n      0x02\n      mul\n      add\n        /* \"contracts/SimpleVoting.sol\":4996:5031  proposals[delegate_.vote].voteCount */\n      0x01\n      add\n        /* \"contracts/SimpleVoting.sol\":4996:5089  proposals[delegate_.vote].voteCount = proposals[delegate_.vote].voteCount. add(sender.weight) */\n      dup2\n      swap1\n      sstore\n      pop\n        /* \"contracts/SimpleVoting.sol\":4861:5274  if (delegate_.voted) {\r... */\n      jump(tag_106)\n    tag_98:\n        /* \"contracts/SimpleVoting.sol\":5226:5262  delegate_.weight. add(sender.weight) */\n      tag_107\n        /* \"contracts/SimpleVoting.sol\":5248:5254  sender */\n      dup3\n        /* \"contracts/SimpleVoting.sol\":5248:5261  sender.weight */\n      0x00\n      add\n      sload\n        /* \"contracts/SimpleVoting.sol\":5226:5235  delegate_ */\n      dup3\n        /* \"contracts/SimpleVoting.sol\":5226:5242  delegate_.weight */\n      0x00\n      add\n      sload\n        /* \"contracts/SimpleVoting.sol\":5226:5247  delegate_.weight. add */\n      tag_45\n      swap1\n        /* \"contracts/SimpleVoting.sol\":5226:5262  delegate_.weight. add(sender.weight) */\n      swap2\n      swap1\n      0xffffffff\n      and\n      jump\t// in\n    tag_107:\n        /* \"contracts/SimpleVoting.sol\":5207:5216  delegate_ */\n      dup2\n        /* \"contracts/SimpleVoting.sol\":5207:5223  delegate_.weight */\n      0x00\n      add\n        /* \"contracts/SimpleVoting.sol\":5207:5262  delegate_.weight = delegate_.weight. add(sender.weight) */\n      dup2\n      swap1\n      sstore\n      pop\n        /* \"contracts/SimpleVoting.sol\":4861:5274  if (delegate_.voted) {\r... */\n    tag_106:\n        /* \"contracts/SimpleVoting.sol\":5327:5330  _to */\n      dup5\n        /* \"contracts/SimpleVoting.sol\":5291:5331  DelegationSuccessful (_msgSender(), _to) */\n      0xffffffffffffffffffffffffffffffffffffffff\n      and\n        /* \"contracts/SimpleVoting.sol\":5313:5325  _msgSender() */\n      tag_108\n        /* \"contracts/SimpleVoting.sol\":5313:5323  _msgSender */\n      tag_51\n        /* \"contracts/SimpleVoting.sol\":5313:5325  _msgSender() */\n      jump\t// in\n    tag_108:\n        /* \"contracts/SimpleVoting.sol\":5291:5331  DelegationSuccessful (_msgSender(), _to) */\n      0xffffffffffffffffffffffffffffffffffffffff\n      and\n      0x4ce9ef2c99d761d69230b0e3381f4c6016333b2e27d32b3e379a96b5d2c69232\n      mload(0x40)\n      mload(0x40)\n      dup1\n      swap2\n      sub\n      swap1\n      log3\n        /* \"contracts/SimpleVoting.sol\":4164:5339  {\r... */\n      pop\n      pop\n        /* \"contracts/SimpleVoting.sol\":1806:1807  _ */\n      pop\n        /* \"contracts/SimpleVoting.sol\":4069:5339  function delegate(address _to) public notYetVoted (_msgSender()) hasRightToVote (_msgSender()) {\r... */\n      pop\n      pop\n      jump\t// out\n        /* \"contracts/SimpleVoting.sol\":3452:3938  function giveRightToVote(address _voter) public onlyChairPerson() notYetVoted(_voter) {\r... */\n    tag_26:\n        /* \"contracts/SimpleVoting.sol\":1510:1521  chairPerson */\n      0x01\n      0x00\n      swap1\n      sload\n      swap1\n      0x0100\n      exp\n      swap1\n      div\n      0xffffffffffffffffffffffffffffffffffffffff\n      and\n        /* \"contracts/SimpleVoting.sol\":1494:1521  _msgSender() == chairPerson */\n      0xffffffffffffffffffffffffffffffffffffffff\n      and\n        /* \"contracts/SimpleVoting.sol\":1494:1506  _msgSender() */\n      tag_110\n        /* \"contracts/SimpleVoting.sol\":1494:1504  _msgSender */\n      tag_51\n        /* \"contracts/SimpleVoting.sol\":1494:1506  _msgSender() */\n      jump\t// in\n    tag_110:\n        /* \"contracts/SimpleVoting.sol\":1494:1521  _msgSender() == chairPerson */\n      0xffffffffffffffffffffffffffffffffffffffff\n      and\n      eq\n        /* \"contracts/SimpleVoting.sol\":1472:1603  require(\r... */\n      tag_111\n      jumpi\n      mload(0x40)\n      0x08c379a000000000000000000000000000000000000000000000000000000000\n      dup2\n      mstore\n      0x04\n      add\n      tag_112\n      swap1\n      tag_113\n      jump\t// in\n    tag_112:\n      mload(0x40)\n      dup1\n      swap2\n      sub\n      swap1\n      revert\n    tag_111:\n        /* \"contracts/SimpleVoting.sol\":3530:3536  _voter */\n      dup1\n        /* \"contracts/SimpleVoting.sol\":1705:1711  voters */\n      0x02\n        /* \"contracts/SimpleVoting.sol\":1705:1719  voters[_voter] */\n      0x00\n        /* \"contracts/SimpleVoting.sol\":1712:1718  _voter */\n      dup3\n        /* \"contracts/SimpleVoting.sol\":1705:1719  voters[_voter] */\n      0xffffffffffffffffffffffffffffffffffffffff\n      and\n      0xffffffffffffffffffffffffffffffffffffffff\n      and\n      dup2\n      mstore\n      0x20\n      add\n      swap1\n      dup2\n      mstore\n      0x20\n      add\n      0x00\n      keccak256\n        /* \"contracts/SimpleVoting.sol\":1705:1725  voters[_voter].voted */\n      0x01\n      add\n      0x00\n      swap1\n      sload\n      swap1\n      0x0100\n      exp\n      swap1\n      div\n      0xff\n      and\n        /* \"contracts/SimpleVoting.sol\":1704:1725  !voters[_voter].voted */\n      iszero\n        /* \"contracts/SimpleVoting.sol\":1682:1795  require(\r... */\n      tag_115\n      jumpi\n      mload(0x40)\n      0x08c379a000000000000000000000000000000000000000000000000000000000\n      dup2\n      mstore\n      0x04\n      add\n      tag_116\n      swap1\n      tag_55\n      jump\t// in\n    tag_116:\n      mload(0x40)\n      dup1\n      swap2\n      sub\n      swap1\n      revert\n    tag_115:\n        /* \"contracts/SimpleVoting.sol\":3840:3841  0 */\n      0x00\n        /* \"contracts/SimpleVoting.sol\":3815:3821  voters */\n      0x02\n        /* \"contracts/SimpleVoting.sol\":3815:3829  voters[_voter] */\n      0x00\n        /* \"contracts/SimpleVoting.sol\":3822:3828  _voter */\n      dup5\n        /* \"contracts/SimpleVoting.sol\":3815:3829  voters[_voter] */\n      0xffffffffffffffffffffffffffffffffffffffff\n      and\n      0xffffffffffffffffffffffffffffffffffffffff\n      and\n      dup2\n      mstore\n      0x20\n      add\n      swap1\n      dup2\n      mstore\n      0x20\n      add\n      0x00\n      keccak256\n        /* \"contracts/SimpleVoting.sol\":3815:3836  voters[_voter].weight */\n      0x00\n      add\n      sload\n        /* \"contracts/SimpleVoting.sol\":3815:3841  voters[_voter].weight == 0 */\n      eq\n        /* \"contracts/SimpleVoting.sol\":3807:3894  require(voters[_voter].weight == 0, \"SimpleVoting: Address already has right to vote.\") */\n      tag_118\n      jumpi\n      mload(0x40)\n      0x08c379a000000000000000000000000000000000000000000000000000000000\n      dup2\n      mstore\n      0x04\n      add\n      tag_119\n      swap1\n      tag_120\n      jump\t// in\n    tag_119:\n      mload(0x40)\n      dup1\n      swap2\n      sub\n      swap1\n      revert\n    tag_118:\n        /* \"contracts/SimpleVoting.sol\":3929:3930  1 */\n      0x01\n        /* \"contracts/SimpleVoting.sol\":3905:3911  voters */\n      0x02\n        /* \"contracts/SimpleVoting.sol\":3905:3919  voters[_voter] */\n      0x00\n        /* \"contracts/SimpleVoting.sol\":3912:3918  _voter */\n      dup5\n        /* \"contracts/SimpleVoting.sol\":3905:3919  voters[_voter] */\n      0xffffffffffffffffffffffffffffffffffffffff\n      and\n      0xffffffffffffffffffffffffffffffffffffffff\n      and\n      dup2\n      mstore\n      0x20\n      add\n      swap1\n      dup2\n      mstore\n      0x20\n      add\n      0x00\n      keccak256\n        /* \"contracts/SimpleVoting.sol\":3905:3926  voters[_voter].weight */\n      0x00\n      add\n        /* \"contracts/SimpleVoting.sol\":3905:3930  voters[_voter].weight = 1 */\n      dup2\n      swap1\n      sstore\n      pop\n        /* \"contracts/SimpleVoting.sol\":1614:1615  _ */\n      pop\n        /* \"contracts/SimpleVoting.sol\":3452:3938  function giveRightToVote(address _voter) public onlyChairPerson() notYetVoted(_voter) {\r... */\n      pop\n      jump\t// out\n        /* \"contracts/SimpleVoting.sol\":1067:1106  mapping(address => Voter) public voters */\n    tag_29:\n      mstore(0x20, 0x02)\n      dup1\n      0x00\n      mstore\n      keccak256(0x00, 0x40)\n      0x00\n      swap2\n      pop\n      swap1\n      pop\n      dup1\n      0x00\n      add\n      sload\n      swap1\n      dup1\n      0x01\n      add\n      0x00\n      swap1\n      sload\n      swap1\n      0x0100\n      exp\n      swap1\n      div\n      0xff\n      and\n      swap1\n      dup1\n      0x01\n      add\n      0x01\n      swap1\n      sload\n      swap1\n      0x0100\n      exp\n      swap1\n      div\n      0xffffffffffffffffffffffffffffffffffffffff\n      and\n      swap1\n      dup1\n      0x02\n      add\n      sload\n      swap1\n      pop\n      dup5\n      jump\t// out\n        /* \"contracts/SimpleVoting.sol\":2992:3285  function getProposal (uint256 _proposalIndex) public view proposalExists(_proposalIndex) returns (string memory proposalName_, uint256 voteCount_) {\r... */\n    tag_34:\n        /* \"contracts/SimpleVoting.sol\":3090:3117  string memory proposalName_ */\n      0x60\n        /* \"contracts/SimpleVoting.sol\":3119:3137  uint256 voteCount_ */\n      0x00\n        /* \"contracts/SimpleVoting.sol\":3065:3079  _proposalIndex */\n      dup3\n        /* \"contracts/SimpleVoting.sol\":1923:1936  proposalCount */\n      sload(0x00)\n        /* \"contracts/SimpleVoting.sol\":1906:1920  _proposalIndex */\n      dup2\n        /* \"contracts/SimpleVoting.sol\":1906:1936  _proposalIndex < proposalCount */\n      lt\n        /* \"contracts/SimpleVoting.sol\":1883:2008  require (\r... */\n      tag_122\n      jumpi\n      mload(0x40)\n      0x08c379a000000000000000000000000000000000000000000000000000000000\n      dup2\n      mstore\n      0x04\n      add\n      tag_123\n      swap1\n      tag_49\n      jump\t// in\n    tag_123:\n      mload(0x40)\n      dup1\n      swap2\n      sub\n      swap1\n      revert\n    tag_122:\n        /* \"contracts/SimpleVoting.sol\":3191:3239  bytes32ToString (proposals[_proposalIndex].name) */\n      tag_125\n        /* \"contracts/SimpleVoting.sol\":3208:3217  proposals */\n      0x03\n        /* \"contracts/SimpleVoting.sol\":3218:3232  _proposalIndex */\n      dup6\n        /* \"contracts/SimpleVoting.sol\":3208:3233  proposals[_proposalIndex] */\n      dup2\n      sload\n      dup2\n      lt\n      tag_126\n      jumpi\n      tag_127\n      tag_66\n      jump\t// in\n    tag_127:\n    tag_126:\n      swap1\n      0x00\n      mstore\n      keccak256(0x00, 0x20)\n      swap1\n      0x02\n      mul\n      add\n        /* \"contracts/SimpleVoting.sol\":3208:3238  proposals[_proposalIndex].name */\n      0x00\n      add\n      sload\n        /* \"contracts/SimpleVoting.sol\":3191:3206  bytes32ToString */\n      tag_129\n        /* \"contracts/SimpleVoting.sol\":3191:3239  bytes32ToString (proposals[_proposalIndex].name) */\n      jump\t// in\n    tag_125:\n        /* \"contracts/SimpleVoting.sol\":3241:3250  proposals */\n      0x03\n        /* \"contracts/SimpleVoting.sol\":3251:3265  _proposalIndex */\n      dup6\n        /* \"contracts/SimpleVoting.sol\":3241:3266  proposals[_proposalIndex] */\n      dup2\n      sload\n      dup2\n      lt\n      tag_130\n      jumpi\n      tag_131\n      tag_66\n      jump\t// in\n    tag_131:\n    tag_130:\n      swap1\n      0x00\n      mstore\n      keccak256(0x00, 0x20)\n      swap1\n      0x02\n      mul\n      add\n        /* \"contracts/SimpleVoting.sol\":3241:3276  proposals[_proposalIndex].voteCount */\n      0x01\n      add\n      sload\n        /* \"contracts/SimpleVoting.sol\":3150:3277  (proposalName_, voteCount_) = \r... */\n      dup1\n      swap4\n      pop\n      dup2\n      swap5\n      pop\n      pop\n      pop\n        /* \"contracts/SimpleVoting.sol\":2992:3285  function getProposal (uint256 _proposalIndex) public view proposalExists(_proposalIndex) returns (string memory proposalName_, uint256 voteCount_) {\r... */\n      pop\n      swap2\n      pop\n      swap2\n      jump\t// out\n        /* \"contracts/SimpleVoting.sol\":1032:1058  address public chairPerson */\n    tag_38:\n      0x01\n      0x00\n      swap1\n      sload\n      swap1\n      0x0100\n      exp\n      swap1\n      div\n      0xffffffffffffffffffffffffffffffffffffffff\n      and\n      dup2\n      jump\t// out\n        /* \"contracts/SimpleVoting.sol\":995:1023  uint256 public proposalCount */\n    tag_42:\n      sload(0x00)\n      dup2\n      jump\t// out\n        /* \"https://github.com/OpenZeppelin/openzeppelin-contracts/blob/master/contracts/utils/math/SafeMath.sol\":2755:2851  function add(uint256 a, uint256 b) internal pure returns (uint256) {... */\n    tag_45:\n        /* \"https://github.com/OpenZeppelin/openzeppelin-contracts/blob/master/contracts/utils/math/SafeMath.sol\":2813:2820  uint256 */\n      0x00\n        /* \"https://github.com/OpenZeppelin/openzeppelin-contracts/blob/master/contracts/utils/math/SafeMath.sol\":2843:2844  b */\n      dup2\n        /* \"https://github.com/OpenZeppelin/openzeppelin-contracts/blob/master/contracts/utils/math/SafeMath.sol\":2839:2840  a */\n      dup4\n        /* \"https://github.com/OpenZeppelin/openzeppelin-contracts/blob/master/contracts/utils/math/SafeMath.sol\":2839:2844  a + b */\n      tag_134\n      swap2\n      swap1\n      tag_135\n      jump\t// in\n    tag_134:\n        /* \"https://github.com/OpenZeppelin/openzeppelin-contracts/blob/master/contracts/utils/math/SafeMath.sol\":2832:2844  return a + b */\n      swap1\n      pop\n        /* \"https://github.com/OpenZeppelin/openzeppelin-contracts/blob/master/contracts/utils/math/SafeMath.sol\":2755:2851  function add(uint256 a, uint256 b) internal pure returns (uint256) {... */\n      swap3\n      swap2\n      pop\n      pop\n      jump\t// out\n        /* \"https://github.com/OpenZeppelin/openzeppelin-contracts/blob/master/contracts/utils/Context.sol\":640:736  function _msgSender() internal view virtual returns (address) {... */\n    tag_51:\n        /* \"https://github.com/OpenZeppelin/openzeppelin-contracts/blob/master/contracts/utils/Context.sol\":693:700  address */\n      0x00\n        /* \"https://github.com/OpenZeppelin/openzeppelin-contracts/blob/master/contracts/utils/Context.sol\":719:729  msg.sender */\n      caller\n        /* \"https://github.com/OpenZeppelin/openzeppelin-contracts/blob/master/contracts/utils/Context.sol\":712:729  return msg.sender */\n      swap1\n      pop\n        /* \"https://github.com/OpenZeppelin/openzeppelin-contracts/blob/master/contracts/utils/Context.sol\":640:736  function _msgSender() internal view virtual returns (address) {... */\n      swap1\n      jump\t// out\n        /* \"contracts/SimpleVoting.sol\":7485:7635  function bytes32ToString(bytes32 byt) \r... */\n    tag_129:\n        /* \"contracts/SimpleVoting.sol\":7563:7576  string memory */\n      0x60\n        /* \"contracts/SimpleVoting.sol\":7622:7625  byt */\n      dup2\n        /* \"contracts/SimpleVoting.sol\":7604:7626  abi.encodePacked (byt) */\n      add(0x20, mload(0x40))\n      tag_138\n      swap2\n      swap1\n      tag_139\n      jump\t// in\n    tag_138:\n      mload(0x40)\n      0x20\n      dup2\n      dup4\n      sub\n      sub\n      dup2\n      mstore\n      swap1\n      0x40\n      mstore\n        /* \"contracts/SimpleVoting.sol\":7589:7627  return string (abi.encodePacked (byt)) */\n      swap1\n      pop\n        /* \"contracts/SimpleVoting.sol\":7485:7635  function bytes32ToString(bytes32 byt) \r... */\n      swap2\n      swap1\n      pop\n      jump\t// out\n        /* \"#utility.yul\":7:146   */\n    tag_141:\n        /* \"#utility.yul\":53:58   */\n      0x00\n        /* \"#utility.yul\":91:97   */\n      dup2\n        /* \"#utility.yul\":78:98   */\n      calldataload\n        /* \"#utility.yul\":69:98   */\n      swap1\n      pop\n        /* \"#utility.yul\":107:140   */\n      tag_143\n        /* \"#utility.yul\":134:139   */\n      dup2\n        /* \"#utility.yul\":107:140   */\n      tag_144\n      jump\t// in\n    tag_143:\n        /* \"#utility.yul\":7:146   */\n      swap3\n      swap2\n      pop\n      pop\n      jump\t// out\n        /* \"#utility.yul\":152:291   */\n    tag_145:\n        /* \"#utility.yul\":198:203   */\n      0x00\n        /* \"#utility.yul\":236:242   */\n      dup2\n        /* \"#utility.yul\":223:243   */\n      calldataload\n        /* \"#utility.yul\":214:243   */\n      swap1\n      pop\n        /* \"#utility.yul\":252:285   */\n      tag_147\n        /* \"#utility.yul\":279:284   */\n      dup2\n        /* \"#utility.yul\":252:285   */\n      tag_148\n      jump\t// in\n    tag_147:\n        /* \"#utility.yul\":152:291   */\n      swap3\n      swap2\n      pop\n      pop\n      jump\t// out\n        /* \"#utility.yul\":297:626   */\n    tag_22:\n        /* \"#utility.yul\":356:362   */\n      0x00\n        /* \"#utility.yul\":405:407   */\n      0x20\n        /* \"#utility.yul\":393:402   */\n      dup3\n        /* \"#utility.yul\":384:391   */\n      dup5\n        /* \"#utility.yul\":380:403   */\n      sub\n        /* \"#utility.yul\":376:408   */\n      slt\n        /* \"#utility.yul\":373:492   */\n      iszero\n      tag_150\n      jumpi\n        /* \"#utility.yul\":411:490   */\n      tag_151\n      tag_152\n      jump\t// in\n    tag_151:\n        /* \"#utility.yul\":373:492   */\n    tag_150:\n        /* \"#utility.yul\":531:532   */\n      0x00\n        /* \"#utility.yul\":556:609   */\n      tag_153\n        /* \"#utility.yul\":601:608   */\n      dup5\n        /* \"#utility.yul\":592:598   */\n      dup3\n        /* \"#utility.yul\":581:590   */\n      dup6\n        /* \"#utility.yul\":577:599   */\n      add\n        /* \"#utility.yul\":556:609   */\n      tag_141\n      jump\t// in\n    tag_153:\n        /* \"#utility.yul\":546:609   */\n      swap2\n      pop\n        /* \"#utility.yul\":502:619   */\n      pop\n        /* \"#utility.yul\":297:626   */\n      swap3\n      swap2\n      pop\n      pop\n      jump\t// out\n        /* \"#utility.yul\":632:961   */\n    tag_14:\n        /* \"#utility.yul\":691:697   */\n      0x00\n        /* \"#utility.yul\":740:742   */\n      0x20\n        /* \"#utility.yul\":728:737   */\n      dup3\n        /* \"#utility.yul\":719:726   */\n      dup5\n        /* \"#utility.yul\":715:738   */\n      sub\n        /* \"#utility.yul\":711:743   */\n      slt\n        /* \"#utility.yul\":708:827   */\n      iszero\n      tag_155\n      jumpi\n        /* \"#utility.yul\":746:825   */\n      tag_156\n      tag_152\n      jump\t// in\n    tag_156:\n        /* \"#utility.yul\":708:827   */\n    tag_155:\n        /* \"#utility.yul\":866:867   */\n      0x00\n        /* \"#utility.yul\":891:944   */\n      tag_157\n        /* \"#utility.yul\":936:943   */\n      dup5\n        /* \"#utility.yul\":927:933   */\n      dup3\n        /* \"#utility.yul\":916:925   */\n      dup6\n        /* \"#utility.yul\":912:934   */\n      add\n        /* \"#utility.yul\":891:944   */\n      tag_145\n      jump\t// in\n    tag_157:\n        /* \"#utility.yul\":881:944   */\n      swap2\n      pop\n        /* \"#utility.yul\":837:954   */\n      pop\n        /* \"#utility.yul\":632:961   */\n      swap3\n      swap2\n      pop\n      pop\n      jump\t// out\n        /* \"#utility.yul\":967:1085   */\n    tag_158:\n        /* \"#utility.yul\":1054:1078   */\n      tag_160\n        /* \"#utility.yul\":1072:1077   */\n      dup2\n        /* \"#utility.yul\":1054:1078   */\n      tag_161\n      jump\t// in\n    tag_160:\n        /* \"#utility.yul\":1049:1052   */\n      dup3\n        /* \"#utility.yul\":1042:1079   */\n      mstore\n        /* \"#utility.yul\":967:1085   */\n      pop\n      pop\n      jump\t// out\n        /* \"#utility.yul\":1091:1200   */\n    tag_162:\n        /* \"#utility.yul\":1172:1193   */\n      tag_164\n        /* \"#utility.yul\":1187:1192   */\n      dup2\n        /* \"#utility.yul\":1172:1193   */\n      tag_165\n      jump\t// in\n    tag_164:\n        /* \"#utility.yul\":1167:1170   */\n      dup3\n        /* \"#utility.yul\":1160:1194   */\n      mstore\n        /* \"#utility.yul\":1091:1200   */\n      pop\n      pop\n      jump\t// out\n        /* \"#utility.yul\":1206:1363   */\n    tag_166:\n        /* \"#utility.yul\":1311:1356   */\n      tag_168\n        /* \"#utility.yul\":1331:1355   */\n      tag_169\n        /* \"#utility.yul\":1349:1354   */\n      dup3\n        /* \"#utility.yul\":1331:1355   */\n      tag_170\n      jump\t// in\n    tag_169:\n        /* \"#utility.yul\":1311:1356   */\n      tag_171\n      jump\t// in\n    tag_168:\n        /* \"#utility.yul\":1306:1309   */\n      dup3\n        /* \"#utility.yul\":1299:1357   */\n      mstore\n        /* \"#utility.yul\":1206:1363   */\n      pop\n      pop\n      jump\t// out\n        /* \"#utility.yul\":1369:1733   */\n    tag_172:\n        /* \"#utility.yul\":1457:1460   */\n      0x00\n        /* \"#utility.yul\":1485:1524   */\n      tag_174\n        /* \"#utility.yul\":1518:1523   */\n      dup3\n        /* \"#utility.yul\":1485:1524   */\n      tag_175\n      jump\t// in\n    tag_174:\n        /* \"#utility.yul\":1540:1611   */\n      tag_176\n        /* \"#utility.yul\":1604:1610   */\n      dup2\n        /* \"#utility.yul\":1599:1602   */\n      dup6\n        /* \"#utility.yul\":1540:1611   */\n      tag_177\n      jump\t// in\n    tag_176:\n        /* \"#utility.yul\":1533:1611   */\n      swap4\n      pop\n        /* \"#utility.yul\":1620:1672   */\n      tag_178\n        /* \"#utility.yul\":1665:1671   */\n      dup2\n        /* \"#utility.yul\":1660:1663   */\n      dup6\n        /* \"#utility.yul\":1653:1657   */\n      0x20\n        /* \"#utility.yul\":1646:1651   */\n      dup7\n        /* \"#utility.yul\":1642:1658   */\n      add\n        /* \"#utility.yul\":1620:1672   */\n      tag_179\n      jump\t// in\n    tag_178:\n        /* \"#utility.yul\":1697:1726   */\n      tag_180\n        /* \"#utility.yul\":1719:1725   */\n      dup2\n        /* \"#utility.yul\":1697:1726   */\n      tag_181\n      jump\t// in\n    tag_180:\n        /* \"#utility.yul\":1692:1695   */\n      dup5\n        /* \"#utility.yul\":1688:1727   */\n      add\n        /* \"#utility.yul\":1681:1727   */\n      swap2\n      pop\n        /* \"#utility.yul\":1461:1733   */\n      pop\n        /* \"#utility.yul\":1369:1733   */\n      swap3\n      swap2\n      pop\n      pop\n      jump\t// out\n        /* \"#utility.yul\":1739:2105   */\n    tag_182:\n        /* \"#utility.yul\":1881:1884   */\n      0x00\n        /* \"#utility.yul\":1902:1969   */\n      tag_184\n        /* \"#utility.yul\":1966:1968   */\n      0x2a\n        /* \"#utility.yul\":1961:1964   */\n      dup4\n        /* \"#utility.yul\":1902:1969   */\n      tag_177\n      jump\t// in\n    tag_184:\n        /* \"#utility.yul\":1895:1969   */\n      swap2\n      pop\n        /* \"#utility.yul\":1978:2071   */\n      tag_185\n        /* \"#utility.yul\":2067:2070   */\n      dup3\n        /* \"#utility.yul\":1978:2071   */\n      tag_186\n      jump\t// in\n    tag_185:\n        /* \"#utility.yul\":2096:2098   */\n      0x40\n        /* \"#utility.yul\":2091:2094   */\n      dup3\n        /* \"#utility.yul\":2087:2099   */\n      add\n        /* \"#utility.yul\":2080:2099   */\n      swap1\n      pop\n        /* \"#utility.yul\":1739:2105   */\n      swap2\n      swap1\n      pop\n      jump\t// out\n        /* \"#utility.yul\":2111:2477   */\n    tag_187:\n        /* \"#utility.yul\":2253:2256   */\n      0x00\n        /* \"#utility.yul\":2274:2341   */\n      tag_189\n        /* \"#utility.yul\":2338:2340   */\n      0x36\n        /* \"#utility.yul\":2333:2336   */\n      dup4\n        /* \"#utility.yul\":2274:2341   */\n      tag_177\n      jump\t// in\n    tag_189:\n        /* \"#utility.yul\":2267:2341   */\n      swap2\n      pop\n        /* \"#utility.yul\":2350:2443   */\n      tag_190\n        /* \"#utility.yul\":2439:2442   */\n      dup3\n        /* \"#utility.yul\":2350:2443   */\n      tag_191\n      jump\t// in\n    tag_190:\n        /* \"#utility.yul\":2468:2470   */\n      0x40\n        /* \"#utility.yul\":2463:2466   */\n      dup3\n        /* \"#utility.yul\":2459:2471   */\n      add\n        /* \"#utility.yul\":2452:2471   */\n      swap1\n      pop\n        /* \"#utility.yul\":2111:2477   */\n      swap2\n      swap1\n      pop\n      jump\t// out\n        /* \"#utility.yul\":2483:2849   */\n    tag_192:\n        /* \"#utility.yul\":2625:2628   */\n      0x00\n        /* \"#utility.yul\":2646:2713   */\n      tag_194\n        /* \"#utility.yul\":2710:2712   */\n      0x31\n        /* \"#utility.yul\":2705:2708   */\n      dup4\n        /* \"#utility.yul\":2646:2713   */\n      tag_177\n      jump\t// in\n    tag_194:\n        /* \"#utility.yul\":2639:2713   */\n      swap2\n      pop\n        /* \"#utility.yul\":2722:2815   */\n      tag_195\n        /* \"#utility.yul\":2811:2814   */\n      dup3\n        /* \"#utility.yul\":2722:2815   */\n      tag_196\n      jump\t// in\n    tag_195:\n        /* \"#utility.yul\":2840:2842   */\n      0x40\n        /* \"#utility.yul\":2835:2838   */\n      dup3\n        /* \"#utility.yul\":2831:2843   */\n      add\n        /* \"#utility.yul\":2824:2843   */\n      swap1\n      pop\n        /* \"#utility.yul\":2483:2849   */\n      swap2\n      swap1\n      pop\n      jump\t// out\n        /* \"#utility.yul\":2855:3221   */\n    tag_197:\n        /* \"#utility.yul\":2997:3000   */\n      0x00\n        /* \"#utility.yul\":3018:3085   */\n      tag_199\n        /* \"#utility.yul\":3082:3084   */\n      0x2d\n        /* \"#utility.yul\":3077:3080   */\n      dup4\n        /* \"#utility.yul\":3018:3085   */\n      tag_177\n      jump\t// in\n    tag_199:\n        /* \"#utility.yul\":3011:3085   */\n      swap2\n      pop\n        /* \"#utility.yul\":3094:3187   */\n      tag_200\n        /* \"#utility.yul\":3183:3186   */\n      dup3\n        /* \"#utility.yul\":3094:3187   */\n      tag_201\n      jump\t// in\n    tag_200:\n        /* \"#utility.yul\":3212:3214   */\n      0x40\n        /* \"#utility.yul\":3207:3210   */\n      dup3\n        /* \"#utility.yul\":3203:3215   */\n      add\n        /* \"#utility.yul\":3196:3215   */\n      swap1\n      pop\n        /* \"#utility.yul\":2855:3221   */\n      swap2\n      swap1\n      pop\n      jump\t// out\n        /* \"#utility.yul\":3227:3593   */\n    tag_202:\n        /* \"#utility.yul\":3369:3372   */\n      0x00\n        /* \"#utility.yul\":3390:3457   */\n      tag_204\n        /* \"#utility.yul\":3454:3456   */\n      0x30\n        /* \"#utility.yul\":3449:3452   */\n      dup4\n        /* \"#utility.yul\":3390:3457   */\n      tag_177\n      jump\t// in\n    tag_204:\n        /* \"#utility.yul\":3383:3457   */\n      swap2\n      pop\n        /* \"#utility.yul\":3466:3559   */\n      tag_205\n        /* \"#utility.yul\":3555:3558   */\n      dup3\n        /* \"#utility.yul\":3466:3559   */\n      tag_206\n      jump\t// in\n    tag_205:\n        /* \"#utility.yul\":3584:3586   */\n      0x40\n        /* \"#utility.yul\":3579:3582   */\n      dup3\n        /* \"#utility.yul\":3575:3587   */\n      add\n        /* \"#utility.yul\":3568:3587   */\n      swap1\n      pop\n        /* \"#utility.yul\":3227:3593   */\n      swap2\n      swap1\n      pop\n      jump\t// out\n        /* \"#utility.yul\":3599:3965   */\n    tag_207:\n        /* \"#utility.yul\":3741:3744   */\n      0x00\n        /* \"#utility.yul\":3762:3829   */\n      tag_209\n        /* \"#utility.yul\":3826:3828   */\n      0x2b\n        /* \"#utility.yul\":3821:3824   */\n      dup4\n        /* \"#utility.yul\":3762:3829   */\n      tag_177\n      jump\t// in\n    tag_209:\n        /* \"#utility.yul\":3755:3829   */\n      swap2\n      pop\n        /* \"#utility.yul\":3838:3931   */\n      tag_210\n        /* \"#utility.yul\":3927:3930   */\n      dup3\n        /* \"#utility.yul\":3838:3931   */\n      tag_211\n      jump\t// in\n    tag_210:\n        /* \"#utility.yul\":3956:3958   */\n      0x40\n        /* \"#utility.yul\":3951:3954   */\n      dup3\n        /* \"#utility.yul\":3947:3959   */\n      add\n        /* \"#utility.yul\":3940:3959   */\n      swap1\n      pop\n        /* \"#utility.yul\":3599:3965   */\n      swap2\n      swap1\n      pop\n      jump\t// out\n        /* \"#utility.yul\":3971:4337   */\n    tag_212:\n        /* \"#utility.yul\":4113:4116   */\n      0x00\n        /* \"#utility.yul\":4134:4201   */\n      tag_214\n        /* \"#utility.yul\":4198:4200   */\n      0x2f\n        /* \"#utility.yul\":4193:4196   */\n      dup4\n        /* \"#utility.yul\":4134:4201   */\n      tag_177\n      jump\t// in\n    tag_214:\n        /* \"#utility.yul\":4127:4201   */\n      swap2\n      pop\n        /* \"#utility.yul\":4210:4303   */\n      tag_215\n        /* \"#utility.yul\":4299:4302   */\n      dup3\n        /* \"#utility.yul\":4210:4303   */\n      tag_216\n      jump\t// in\n    tag_215:\n        /* \"#utility.yul\":4328:4330   */\n      0x40\n        /* \"#utility.yul\":4323:4326   */\n      dup3\n        /* \"#utility.yul\":4319:4331   */\n      add\n        /* \"#utility.yul\":4312:4331   */\n      swap1\n      pop\n        /* \"#utility.yul\":3971:4337   */\n      swap2\n      swap1\n      pop\n      jump\t// out\n        /* \"#utility.yul\":4343:4461   */\n    tag_217:\n        /* \"#utility.yul\":4430:4454   */\n      tag_219\n        /* \"#utility.yul\":4448:4453   */\n      dup2\n        /* \"#utility.yul\":4430:4454   */\n      tag_220\n      jump\t// in\n    tag_219:\n        /* \"#utility.yul\":4425:4428   */\n      dup3\n        /* \"#utility.yul\":4418:4455   */\n      mstore\n        /* \"#utility.yul\":4343:4461   */\n      pop\n      pop\n      jump\t// out\n        /* \"#utility.yul\":4467:4723   */\n    tag_139:\n        /* \"#utility.yul\":4579:4582   */\n      0x00\n        /* \"#utility.yul\":4594:4669   */\n      tag_222\n        /* \"#utility.yul\":4665:4668   */\n      dup3\n        /* \"#utility.yul\":4656:4662   */\n      dup5\n        /* \"#utility.yul\":4594:4669   */\n      tag_166\n      jump\t// in\n    tag_222:\n        /* \"#utility.yul\":4694:4696   */\n      0x20\n        /* \"#utility.yul\":4689:4692   */\n      dup3\n        /* \"#utility.yul\":4685:4697   */\n      add\n        /* \"#utility.yul\":4678:4697   */\n      swap2\n      pop\n        /* \"#utility.yul\":4714:4717   */\n      dup2\n        /* \"#utility.yul\":4707:4717   */\n      swap1\n      pop\n        /* \"#utility.yul\":4467:4723   */\n      swap3\n      swap2\n      pop\n      pop\n      jump\t// out\n        /* \"#utility.yul\":4729:4951   */\n    tag_40:\n        /* \"#utility.yul\":4822:4826   */\n      0x00\n        /* \"#utility.yul\":4860:4862   */\n      0x20\n        /* \"#utility.yul\":4849:4858   */\n      dup3\n        /* \"#utility.yul\":4845:4863   */\n      add\n        /* \"#utility.yul\":4837:4863   */\n      swap1\n      pop\n        /* \"#utility.yul\":4873:4944   */\n      tag_224\n        /* \"#utility.yul\":4941:4942   */\n      0x00\n        /* \"#utility.yul\":4930:4939   */\n      dup4\n        /* \"#utility.yul\":4926:4943   */\n      add\n        /* \"#utility.yul\":4917:4923   */\n      dup5\n        /* \"#utility.yul\":4873:4944   */\n      tag_158\n      jump\t// in\n    tag_224:\n        /* \"#utility.yul\":4729:4951   */\n      swap3\n      swap2\n      pop\n      pop\n      jump\t// out\n        /* \"#utility.yul\":4957:5270   */\n    tag_19:\n        /* \"#utility.yul\":5070:5074   */\n      0x00\n        /* \"#utility.yul\":5108:5110   */\n      0x20\n        /* \"#utility.yul\":5097:5106   */\n      dup3\n        /* \"#utility.yul\":5093:5111   */\n      add\n        /* \"#utility.yul\":5085:5111   */\n      swap1\n      pop\n        /* \"#utility.yul\":5157:5166   */\n      dup2\n        /* \"#utility.yul\":5151:5155   */\n      dup2\n        /* \"#utility.yul\":5147:5167   */\n      sub\n        /* \"#utility.yul\":5143:5144   */\n      0x00\n        /* \"#utility.yul\":5132:5141   */\n      dup4\n        /* \"#utility.yul\":5128:5145   */\n      add\n        /* \"#utility.yul\":5121:5168   */\n      mstore\n        /* \"#utility.yul\":5185:5263   */\n      tag_226\n        /* \"#utility.yul\":5258:5262   */\n      dup2\n        /* \"#utility.yul\":5249:5255   */\n      dup5\n        /* \"#utility.yul\":5185:5263   */\n      tag_172\n      jump\t// in\n    tag_226:\n        /* \"#utility.yul\":5177:5263   */\n      swap1\n      pop\n        /* \"#utility.yul\":4957:5270   */\n      swap3\n      swap2\n      pop\n      pop\n      jump\t// out\n        /* \"#utility.yul\":5276:5699   */\n    tag_36:\n        /* \"#utility.yul\":5417:5421   */\n      0x00\n        /* \"#utility.yul\":5455:5457   */\n      0x40\n        /* \"#utility.yul\":5444:5453   */\n      dup3\n        /* \"#utility.yul\":5440:5458   */\n      add\n        /* \"#utility.yul\":5432:5458   */\n      swap1\n      pop\n        /* \"#utility.yul\":5504:5513   */\n      dup2\n        /* \"#utility.yul\":5498:5502   */\n      dup2\n        /* \"#utility.yul\":5494:5514   */\n      sub\n        /* \"#utility.yul\":5490:5491   */\n      0x00\n        /* \"#utility.yul\":5479:5488   */\n      dup4\n        /* \"#utility.yul\":5475:5492   */\n      add\n        /* \"#utility.yul\":5468:5515   */\n      mstore\n        /* \"#utility.yul\":5532:5610   */\n      tag_228\n        /* \"#utility.yul\":5605:5609   */\n      dup2\n        /* \"#utility.yul\":5596:5602   */\n      dup6\n        /* \"#utility.yul\":5532:5610   */\n      tag_172\n      jump\t// in\n    tag_228:\n        /* \"#utility.yul\":5524:5610   */\n      swap1\n      pop\n        /* \"#utility.yul\":5620:5692   */\n      tag_229\n        /* \"#utility.yul\":5688:5690   */\n      0x20\n        /* \"#utility.yul\":5677:5686   */\n      dup4\n        /* \"#utility.yul\":5673:5691   */\n      add\n        /* \"#utility.yul\":5664:5670   */\n      dup5\n        /* \"#utility.yul\":5620:5692   */\n      tag_217\n      jump\t// in\n    tag_229:\n        /* \"#utility.yul\":5276:5699   */\n      swap4\n      swap3\n      pop\n      pop\n      pop\n      jump\t// out\n        /* \"#utility.yul\":5705:6124   */\n    tag_55:\n        /* \"#utility.yul\":5871:5875   */\n      0x00\n        /* \"#utility.yul\":5909:5911   */\n      0x20\n        /* \"#utility.yul\":5898:5907   */\n      dup3\n        /* \"#utility.yul\":5894:5912   */\n      add\n        /* \"#utility.yul\":5886:5912   */\n      swap1\n      pop\n        /* \"#utility.yul\":5958:5967   */\n      dup2\n        /* \"#utility.yul\":5952:5956   */\n      dup2\n        /* \"#utility.yul\":5948:5968   */\n      sub\n        /* \"#utility.yul\":5944:5945   */\n      0x00\n        /* \"#utility.yul\":5933:5942   */\n      dup4\n        /* \"#utility.yul\":5929:5946   */\n      add\n        /* \"#utility.yul\":5922:5969   */\n      mstore\n        /* \"#utility.yul\":5986:6117   */\n      tag_231\n        /* \"#utility.yul\":6112:6116   */\n      dup2\n        /* \"#utility.yul\":5986:6117   */\n      tag_182\n      jump\t// in\n    tag_231:\n        /* \"#utility.yul\":5978:6117   */\n      swap1\n      pop\n        /* \"#utility.yul\":5705:6124   */\n      swap2\n      swap1\n      pop\n      jump\t// out\n        /* \"#utility.yul\":6130:6549   */\n    tag_113:\n        /* \"#utility.yul\":6296:6300   */\n      0x00\n        /* \"#utility.yul\":6334:6336   */\n      0x20\n        /* \"#utility.yul\":6323:6332   */\n      dup3\n        /* \"#utility.yul\":6319:6337   */\n      add\n        /* \"#utility.yul\":6311:6337   */\n      swap1\n      pop\n        /* \"#utility.yul\":6383:6392   */\n      dup2\n        /* \"#utility.yul\":6377:6381   */\n      dup2\n        /* \"#utility.yul\":6373:6393   */\n      sub\n        /* \"#utility.yul\":6369:6370   */\n      0x00\n        /* \"#utility.yul\":6358:6367   */\n      dup4\n        /* \"#utility.yul\":6354:6371   */\n      add\n        /* \"#utility.yul\":6347:6394   */\n      mstore\n        /* \"#utility.yul\":6411:6542   */\n      tag_233\n        /* \"#utility.yul\":6537:6541   */\n      dup2\n        /* \"#utility.yul\":6411:6542   */\n      tag_187\n      jump\t// in\n    tag_233:\n        /* \"#utility.yul\":6403:6542   */\n      swap1\n      pop\n        /* \"#utility.yul\":6130:6549   */\n      swap2\n      swap1\n      pop\n      jump\t// out\n        /* \"#utility.yul\":6555:6974   */\n    tag_60:\n        /* \"#utility.yul\":6721:6725   */\n      0x00\n        /* \"#utility.yul\":6759:6761   */\n      0x20\n        /* \"#utility.yul\":6748:6757   */\n      dup3\n        /* \"#utility.yul\":6744:6762   */\n      add\n        /* \"#utility.yul\":6736:6762   */\n      swap1\n      pop\n        /* \"#utility.yul\":6808:6817   */\n      dup2\n        /* \"#utility.yul\":6802:6806   */\n      dup2\n        /* \"#utility.yul\":6798:6818   */\n      sub\n        /* \"#utility.yul\":6794:6795   */\n      0x00\n        /* \"#utility.yul\":6783:6792   */\n      dup4\n        /* \"#utility.yul\":6779:6796   */\n      add\n        /* \"#utility.yul\":6772:6819   */\n      mstore\n        /* \"#utility.yul\":6836:6967   */\n      tag_235\n        /* \"#utility.yul\":6962:6966   */\n      dup2\n        /* \"#utility.yul\":6836:6967   */\n      tag_192\n      jump\t// in\n    tag_235:\n        /* \"#utility.yul\":6828:6967   */\n      swap1\n      pop\n        /* \"#utility.yul\":6555:6974   */\n      swap2\n      swap1\n      pop\n      jump\t// out\n        /* \"#utility.yul\":6980:7399   */\n    tag_91:\n        /* \"#utility.yul\":7146:7150   */\n      0x00\n        /* \"#utility.yul\":7184:7186   */\n      0x20\n        /* \"#utility.yul\":7173:7182   */\n      dup3\n        /* \"#utility.yul\":7169:7187   */\n      add\n        /* \"#utility.yul\":7161:7187   */\n      swap1\n      pop\n        /* \"#utility.yul\":7233:7242   */\n      dup2\n        /* \"#utility.yul\":7227:7231   */\n      dup2\n        /* \"#utility.yul\":7223:7243   */\n      sub\n        /* \"#utility.yul\":7219:7220   */\n      0x00\n        /* \"#utility.yul\":7208:7217   */\n      dup4\n        /* \"#utility.yul\":7204:7221   */\n      add\n        /* \"#utility.yul\":7197:7244   */\n      mstore\n        /* \"#utility.yul\":7261:7392   */\n      tag_237\n        /* \"#utility.yul\":7387:7391   */\n      dup2\n        /* \"#utility.yul\":7261:7392   */\n      tag_197\n      jump\t// in\n    tag_237:\n        /* \"#utility.yul\":7253:7392   */\n      swap1\n      pop\n        /* \"#utility.yul\":6980:7399   */\n      swap2\n      swap1\n      pop\n      jump\t// out\n        /* \"#utility.yul\":7405:7824   */\n    tag_120:\n        /* \"#utility.yul\":7571:7575   */\n      0x00\n        /* \"#utility.yul\":7609:7611   */\n      0x20\n        /* \"#utility.yul\":7598:7607   */\n      dup3\n        /* \"#utility.yul\":7594:7612   */\n      add\n        /* \"#utility.yul\":7586:7612   */\n      swap1\n      pop\n        /* \"#utility.yul\":7658:7667   */\n      dup2\n        /* \"#utility.yul\":7652:7656   */\n      dup2\n        /* \"#utility.yul\":7648:7668   */\n      sub\n        /* \"#utility.yul\":7644:7645   */\n      0x00\n        /* \"#utility.yul\":7633:7642   */\n      dup4\n        /* \"#utility.yul\":7629:7646   */\n      add\n        /* \"#utility.yul\":7622:7669   */\n      mstore\n        /* \"#utility.yul\":7686:7817   */\n      tag_239\n        /* \"#utility.yul\":7812:7816   */\n      dup2\n        /* \"#utility.yul\":7686:7817   */\n      tag_202\n      jump\t// in\n    tag_239:\n        /* \"#utility.yul\":7678:7817   */\n      swap1\n      pop\n        /* \"#utility.yul\":7405:7824   */\n      swap2\n      swap1\n      pop\n      jump\t// out\n        /* \"#utility.yul\":7830:8249   */\n    tag_49:\n        /* \"#utility.yul\":7996:8000   */\n      0x00\n        /* \"#utility.yul\":8034:8036   */\n      0x20\n        /* \"#utility.yul\":8023:8032   */\n      dup3\n        /* \"#utility.yul\":8019:8037   */\n      add\n        /* \"#utility.yul\":8011:8037   */\n      swap1\n      pop\n        /* \"#utility.yul\":8083:8092   */\n      dup2\n        /* \"#utility.yul\":8077:8081   */\n      dup2\n        /* \"#utility.yul\":8073:8093   */\n      sub\n        /* \"#utility.yul\":8069:8070   */\n      0x00\n        /* \"#utility.yul\":8058:8067   */\n      dup4\n        /* \"#utility.yul\":8054:8071   */\n      add\n        /* \"#utility.yul\":8047:8094   */\n      mstore\n        /* \"#utility.yul\":8111:8242   */\n      tag_241\n        /* \"#utility.yul\":8237:8241   */\n      dup2\n        /* \"#utility.yul\":8111:8242   */\n      tag_207\n      jump\t// in\n    tag_241:\n        /* \"#utility.yul\":8103:8242   */\n      swap1\n      pop\n        /* \"#utility.yul\":7830:8249   */\n      swap2\n      swap1\n      pop\n      jump\t// out\n        /* \"#utility.yul\":8255:8674   */\n    tag_97:\n        /* \"#utility.yul\":8421:8425   */\n      0x00\n        /* \"#utility.yul\":8459:8461   */\n      0x20\n        /* \"#utility.yul\":8448:8457   */\n      dup3\n        /* \"#utility.yul\":8444:8462   */\n      add\n        /* \"#utility.yul\":8436:8462   */\n      swap1\n      pop\n        /* \"#utility.yul\":8508:8517   */\n      dup2\n        /* \"#utility.yul\":8502:8506   */\n      dup2\n        /* \"#utility.yul\":8498:8518   */\n      sub\n        /* \"#utility.yul\":8494:8495   */\n      0x00\n        /* \"#utility.yul\":8483:8492   */\n      dup4\n        /* \"#utility.yul\":8479:8496   */\n      add\n        /* \"#utility.yul\":8472:8519   */\n      mstore\n        /* \"#utility.yul\":8536:8667   */\n      tag_243\n        /* \"#utility.yul\":8662:8666   */\n      dup2\n        /* \"#utility.yul\":8536:8667   */\n      tag_212\n      jump\t// in\n    tag_243:\n        /* \"#utility.yul\":8528:8667   */\n      swap1\n      pop\n        /* \"#utility.yul\":8255:8674   */\n      swap2\n      swap1\n      pop\n      jump\t// out\n        /* \"#utility.yul\":8680:8902   */\n    tag_44:\n        /* \"#utility.yul\":8773:8777   */\n      0x00\n        /* \"#utility.yul\":8811:8813   */\n      0x20\n        /* \"#utility.yul\":8800:8809   */\n      dup3\n        /* \"#utility.yul\":8796:8814   */\n      add\n        /* \"#utility.yul\":8788:8814   */\n      swap1\n      pop\n        /* \"#utility.yul\":8824:8895   */\n      tag_245\n        /* \"#utility.yul\":8892:8893   */\n      0x00\n        /* \"#utility.yul\":8881:8890   */\n      dup4\n        /* \"#utility.yul\":8877:8894   */\n      add\n        /* \"#utility.yul\":8868:8874   */\n      dup5\n        /* \"#utility.yul\":8824:8895   */\n      tag_217\n      jump\t// in\n    tag_245:\n        /* \"#utility.yul\":8680:8902   */\n      swap3\n      swap2\n      pop\n      pop\n      jump\t// out\n        /* \"#utility.yul\":8908:9449   */\n    tag_31:\n        /* \"#utility.yul\":9079:9083   */\n      0x00\n        /* \"#utility.yul\":9117:9120   */\n      0x80\n        /* \"#utility.yul\":9106:9115   */\n      dup3\n        /* \"#utility.yul\":9102:9121   */\n      add\n        /* \"#utility.yul\":9094:9121   */\n      swap1\n      pop\n        /* \"#utility.yul\":9131:9202   */\n      tag_247\n        /* \"#utility.yul\":9199:9200   */\n      0x00\n        /* \"#utility.yul\":9188:9197   */\n      dup4\n        /* \"#utility.yul\":9184:9201   */\n      add\n        /* \"#utility.yul\":9175:9181   */\n      dup8\n        /* \"#utility.yul\":9131:9202   */\n      tag_217\n      jump\t// in\n    tag_247:\n        /* \"#utility.yul\":9212:9278   */\n      tag_248\n        /* \"#utility.yul\":9274:9276   */\n      0x20\n        /* \"#utility.yul\":9263:9272   */\n      dup4\n        /* \"#utility.yul\":9259:9277   */\n      add\n        /* \"#utility.yul\":9250:9256   */\n      dup7\n        /* \"#utility.yul\":9212:9278   */\n      tag_162\n      jump\t// in\n    tag_248:\n        /* \"#utility.yul\":9288:9360   */\n      tag_249\n        /* \"#utility.yul\":9356:9358   */\n      0x40\n        /* \"#utility.yul\":9345:9354   */\n      dup4\n        /* \"#utility.yul\":9341:9359   */\n      add\n        /* \"#utility.yul\":9332:9338   */\n      dup6\n        /* \"#utility.yul\":9288:9360   */\n      tag_158\n      jump\t// in\n    tag_249:\n        /* \"#utility.yul\":9370:9442   */\n      tag_250\n        /* \"#utility.yul\":9438:9440   */\n      0x60\n        /* \"#utility.yul\":9427:9436   */\n      dup4\n        /* \"#utility.yul\":9423:9441   */\n      add\n        /* \"#utility.yul\":9414:9420   */\n      dup5\n        /* \"#utility.yul\":9370:9442   */\n      tag_217\n      jump\t// in\n    tag_250:\n        /* \"#utility.yul\":8908:9449   */\n      swap6\n      swap5\n      pop\n      pop\n      pop\n      pop\n      pop\n      jump\t// out\n        /* \"#utility.yul\":9536:9635   */\n    tag_175:\n        /* \"#utility.yul\":9588:9594   */\n      0x00\n        /* \"#utility.yul\":9622:9627   */\n      dup2\n        /* \"#utility.yul\":9616:9628   */\n      mload\n        /* \"#utility.yul\":9606:9628   */\n      swap1\n      pop\n        /* \"#utility.yul\":9536:9635   */\n      swap2\n      swap1\n      pop\n      jump\t// out\n        /* \"#utility.yul\":9641:9810   */\n    tag_177:\n        /* \"#utility.yul\":9725:9736   */\n      0x00\n        /* \"#utility.yul\":9759:9765   */\n      dup3\n        /* \"#utility.yul\":9754:9757   */\n      dup3\n        /* \"#utility.yul\":9747:9766   */\n      mstore\n        /* \"#utility.yul\":9799:9803   */\n      0x20\n        /* \"#utility.yul\":9794:9797   */\n      dup3\n        /* \"#utility.yul\":9790:9804   */\n      add\n        /* \"#utility.yul\":9775:9804   */\n      swap1\n      pop\n        /* \"#utility.yul\":9641:9810   */\n      swap3\n      swap2\n      pop\n      pop\n      jump\t// out\n        /* \"#utility.yul\":9816:10121   */\n    tag_135:\n        /* \"#utility.yul\":9856:9859   */\n      0x00\n        /* \"#utility.yul\":9875:9895   */\n      tag_256\n        /* \"#utility.yul\":9893:9894   */\n      dup3\n        /* \"#utility.yul\":9875:9895   */\n      tag_220\n      jump\t// in\n    tag_256:\n        /* \"#utility.yul\":9870:9895   */\n      swap2\n      pop\n        /* \"#utility.yul\":9909:9929   */\n      tag_257\n        /* \"#utility.yul\":9927:9928   */\n      dup4\n        /* \"#utility.yul\":9909:9929   */\n      tag_220\n      jump\t// in\n    tag_257:\n        /* \"#utility.yul\":9904:9929   */\n      swap3\n      pop\n        /* \"#utility.yul\":10063:10064   */\n      dup3\n        /* \"#utility.yul\":9995:10061   */\n      0xffffffffffffffffffffffffffffffffffffffffffffffffffffffffffffffff\n        /* \"#utility.yul\":9991:10065   */\n      sub\n        /* \"#utility.yul\":9988:9989   */\n      dup3\n        /* \"#utility.yul\":9985:10066   */\n      gt\n        /* \"#utility.yul\":9982:10089   */\n      iszero\n      tag_258\n      jumpi\n        /* \"#utility.yul\":10069:10087   */\n      tag_259\n      tag_260\n      jump\t// in\n    tag_259:\n        /* \"#utility.yul\":9982:10089   */\n    tag_258:\n        /* \"#utility.yul\":10113:10114   */\n      dup3\n        /* \"#utility.yul\":10110:10111   */\n      dup3\n        /* \"#utility.yul\":10106:10115   */\n      add\n        /* \"#utility.yul\":10099:10115   */\n      swap1\n      pop\n        /* \"#utility.yul\":9816:10121   */\n      swap3\n      swap2\n      pop\n      pop\n      jump\t// out\n        /* \"#utility.yul\":10127:10223   */\n    tag_161:\n        /* \"#utility.yul\":10164:10171   */\n      0x00\n        /* \"#utility.yul\":10193:10217   */\n      tag_262\n        /* \"#utility.yul\":10211:10216   */\n      dup3\n        /* \"#utility.yul\":10193:10217   */\n      tag_263\n      jump\t// in\n    tag_262:\n        /* \"#utility.yul\":10182:10217   */\n      swap1\n      pop\n        /* \"#utility.yul\":10127:10223   */\n      swap2\n      swap1\n      pop\n      jump\t// out\n        /* \"#utility.yul\":10229:10319   */\n    tag_165:\n        /* \"#utility.yul\":10263:10270   */\n      0x00\n        /* \"#utility.yul\":10306:10311   */\n      dup2\n        /* \"#utility.yul\":10299:10312   */\n      iszero\n        /* \"#utility.yul\":10292:10313   */\n      iszero\n        /* \"#utility.yul\":10281:10313   */\n      swap1\n      pop\n        /* \"#utility.yul\":10229:10319   */\n      swap2\n      swap1\n      pop\n      jump\t// out\n        /* \"#utility.yul\":10325:10402   */\n    tag_170:\n        /* \"#utility.yul\":10362:10369   */\n      0x00\n        /* \"#utility.yul\":10391:10396   */\n      dup2\n        /* \"#utility.yul\":10380:10396   */\n      swap1\n      pop\n        /* \"#utility.yul\":10325:10402   */\n      swap2\n      swap1\n      pop\n      jump\t// out\n        /* \"#utility.yul\":10408:10534   */\n    tag_263:\n        /* \"#utility.yul\":10445:10452   */\n      0x00\n        /* \"#utility.yul\":10485:10527   */\n      0xffffffffffffffffffffffffffffffffffffffff\n        /* \"#utility.yul\":10478:10483   */\n      dup3\n        /* \"#utility.yul\":10474:10528   */\n      and\n        /* \"#utility.yul\":10463:10528   */\n      swap1\n      pop\n        /* \"#utility.yul\":10408:10534   */\n      swap2\n      swap1\n      pop\n      jump\t// out\n        /* \"#utility.yul\":10540:10617   */\n    tag_220:\n        /* \"#utility.yul\":10577:10584   */\n      0x00\n        /* \"#utility.yul\":10606:10611   */\n      dup2\n        /* \"#utility.yul\":10595:10611   */\n      swap1\n      pop\n        /* \"#utility.yul\":10540:10617   */\n      swap2\n      swap1\n      pop\n      jump\t// out\n        /* \"#utility.yul\":10623:10930   */\n    tag_179:\n        /* \"#utility.yul\":10691:10692   */\n      0x00\n        /* \"#utility.yul\":10701:10814   */\n    tag_269:\n        /* \"#utility.yul\":10715:10721   */\n      dup4\n        /* \"#utility.yul\":10712:10713   */\n      dup2\n        /* \"#utility.yul\":10709:10722   */\n      lt\n        /* \"#utility.yul\":10701:10814   */\n      iszero\n      tag_271\n      jumpi\n        /* \"#utility.yul\":10800:10801   */\n      dup1\n        /* \"#utility.yul\":10795:10798   */\n      dup3\n        /* \"#utility.yul\":10791:10802   */\n      add\n        /* \"#utility.yul\":10785:10803   */\n      mload\n        /* \"#utility.yul\":10781:10782   */\n      dup2\n        /* \"#utility.yul\":10776:10779   */\n      dup5\n        /* \"#utility.yul\":10772:10783   */\n      add\n        /* \"#utility.yul\":10765:10804   */\n      mstore\n        /* \"#utility.yul\":10737:10739   */\n      0x20\n        /* \"#utility.yul\":10734:10735   */\n      dup2\n        /* \"#utility.yul\":10730:10740   */\n      add\n        /* \"#utility.yul\":10725:10740   */\n      swap1\n      pop\n        /* \"#utility.yul\":10701:10814   */\n      jump(tag_269)\n    tag_271:\n        /* \"#utility.yul\":10832:10838   */\n      dup4\n        /* \"#utility.yul\":10829:10830   */\n      dup2\n        /* \"#utility.yul\":10826:10839   */\n      gt\n        /* \"#utility.yul\":10823:10924   */\n      iszero\n      tag_272\n      jumpi\n        /* \"#utility.yul\":10912:10913   */\n      0x00\n        /* \"#utility.yul\":10903:10909   */\n      dup5\n        /* \"#utility.yul\":10898:10901   */\n      dup5\n        /* \"#utility.yul\":10894:10910   */\n      add\n        /* \"#utility.yul\":10887:10914   */\n      mstore\n        /* \"#utility.yul\":10823:10924   */\n    tag_272:\n        /* \"#utility.yul\":10672:10930   */\n      pop\n        /* \"#utility.yul\":10623:10930   */\n      pop\n      pop\n      pop\n      jump\t// out\n        /* \"#utility.yul\":10936:11015   */\n    tag_171:\n        /* \"#utility.yul\":10975:10982   */\n      0x00\n        /* \"#utility.yul\":11004:11009   */\n      dup2\n        /* \"#utility.yul\":10993:11009   */\n      swap1\n      pop\n        /* \"#utility.yul\":10936:11015   */\n      swap2\n      swap1\n      pop\n      jump\t// out\n        /* \"#utility.yul\":11021:11201   */\n    tag_260:\n        /* \"#utility.yul\":11069:11146   */\n      0x4e487b7100000000000000000000000000000000000000000000000000000000\n        /* \"#utility.yul\":11066:11067   */\n      0x00\n        /* \"#utility.yul\":11059:11147   */\n      mstore\n        /* \"#utility.yul\":11166:11170   */\n      0x11\n        /* \"#utility.yul\":11163:11164   */\n      0x04\n        /* \"#utility.yul\":11156:11171   */\n      mstore\n        /* \"#utility.yul\":11190:11194   */\n      0x24\n        /* \"#utility.yul\":11187:11188   */\n      0x00\n        /* \"#utility.yul\":11180:11195   */\n      revert\n        /* \"#utility.yul\":11207:11387   */\n    tag_66:\n        /* \"#utility.yul\":11255:11332   */\n      0x4e487b7100000000000000000000000000000000000000000000000000000000\n        /* \"#utility.yul\":11252:11253   */\n      0x00\n        /* \"#utility.yul\":11245:11333   */\n      mstore\n        /* \"#utility.yul\":11352:11356   */\n      0x32\n        /* \"#utility.yul\":11349:11350   */\n      0x04\n        /* \"#utility.yul\":11342:11357   */\n      mstore\n        /* \"#utility.yul\":11376:11380   */\n      0x24\n        /* \"#utility.yul\":11373:11374   */\n      0x00\n        /* \"#utility.yul\":11366:11381   */\n      revert\n        /* \"#utility.yul\":11516:11633   */\n    tag_152:\n        /* \"#utility.yul\":11625:11626   */\n      0x00\n        /* \"#utility.yul\":11622:11623   */\n      dup1\n        /* \"#utility.yul\":11615:11627   */\n      revert\n        /* \"#utility.yul\":11639:11741   */\n    tag_181:\n        /* \"#utility.yul\":11680:11686   */\n      0x00\n        /* \"#utility.yul\":11731:11733   */\n      0x1f\n        /* \"#utility.yul\":11727:11734   */\n      not\n        /* \"#utility.yul\":11722:11724   */\n      0x1f\n        /* \"#utility.yul\":11715:11720   */\n      dup4\n        /* \"#utility.yul\":11711:11725   */\n      add\n        /* \"#utility.yul\":11707:11735   */\n      and\n        /* \"#utility.yul\":11697:11735   */\n      swap1\n      pop\n        /* \"#utility.yul\":11639:11741   */\n      swap2\n      swap1\n      pop\n      jump\t// out\n        /* \"#utility.yul\":11747:11976   */\n    tag_186:\n        /* \"#utility.yul\":11887:11921   */\n      0x53696d706c65566f74696e673a2054686520766f7465722068617320616c7265\n        /* \"#utility.yul\":11883:11884   */\n      0x00\n        /* \"#utility.yul\":11875:11881   */\n      dup3\n        /* \"#utility.yul\":11871:11885   */\n      add\n        /* \"#utility.yul\":11864:11922   */\n      mstore\n        /* \"#utility.yul\":11956:11968   */\n      0x61647920766f7465642e00000000000000000000000000000000000000000000\n        /* \"#utility.yul\":11951:11953   */\n      0x20\n        /* \"#utility.yul\":11943:11949   */\n      dup3\n        /* \"#utility.yul\":11939:11954   */\n      add\n        /* \"#utility.yul\":11932:11969   */\n      mstore\n        /* \"#utility.yul\":11747:11976   */\n      pop\n      jump\t// out\n        /* \"#utility.yul\":11982:12223   */\n    tag_191:\n        /* \"#utility.yul\":12122:12156   */\n      0x53696d706c65566f74696e673a204f6e6c79206368616972506572736f6e2063\n        /* \"#utility.yul\":12118:12119   */\n      0x00\n        /* \"#utility.yul\":12110:12116   */\n      dup3\n        /* \"#utility.yul\":12106:12120   */\n      add\n        /* \"#utility.yul\":12099:12157   */\n      mstore\n        /* \"#utility.yul\":12191:12215   */\n      0x616e206769766520726967687420746f20766f74652e00000000000000000000\n        /* \"#utility.yul\":12186:12188   */\n      0x20\n        /* \"#utility.yul\":12178:12184   */\n      dup3\n        /* \"#utility.yul\":12174:12189   */\n      add\n        /* \"#utility.yul\":12167:12216   */\n      mstore\n        /* \"#utility.yul\":11982:12223   */\n      pop\n      jump\t// out\n        /* \"#utility.yul\":12229:12465   */\n    tag_196:\n        /* \"#utility.yul\":12369:12403   */\n      0x53696d706c65566f74696e673a2043616c6c657220646f6573206e6f74206861\n        /* \"#utility.yul\":12365:12366   */\n      0x00\n        /* \"#utility.yul\":12357:12363   */\n      dup3\n        /* \"#utility.yul\":12353:12367   */\n      add\n        /* \"#utility.yul\":12346:12404   */\n      mstore\n        /* \"#utility.yul\":12438:12457   */\n      0x766520726967687420746f20766f74652e000000000000000000000000000000\n        /* \"#utility.yul\":12433:12435   */\n      0x20\n        /* \"#utility.yul\":12425:12431   */\n      dup3\n        /* \"#utility.yul\":12421:12436   */\n      add\n        /* \"#utility.yul\":12414:12458   */\n      mstore\n        /* \"#utility.yul\":12229:12465   */\n      pop\n      jump\t// out\n        /* \"#utility.yul\":12471:12703   */\n    tag_201:\n        /* \"#utility.yul\":12611:12645   */\n      0x53696d706c65566f74696e673a2053656c662d64656c65676174696f6e206973\n        /* \"#utility.yul\":12607:12608   */\n      0x00\n        /* \"#utility.yul\":12599:12605   */\n      dup3\n        /* \"#utility.yul\":12595:12609   */\n      add\n        /* \"#utility.yul\":12588:12646   */\n      mstore\n        /* \"#utility.yul\":12680:12695   */\n      0x206e6f7420616c6c6f7765642e00000000000000000000000000000000000000\n        /* \"#utility.yul\":12675:12677   */\n      0x20\n        /* \"#utility.yul\":12667:12673   */\n      dup3\n        /* \"#utility.yul\":12663:12678   */\n      add\n        /* \"#utility.yul\":12656:12696   */\n      mstore\n        /* \"#utility.yul\":12471:12703   */\n      pop\n      jump\t// out\n        /* \"#utility.yul\":12709:12944   */\n    tag_206:\n        /* \"#utility.yul\":12849:12883   */\n      0x53696d706c65566f74696e673a204164647265737320616c7265616479206861\n        /* \"#utility.yul\":12845:12846   */\n      0x00\n        /* \"#utility.yul\":12837:12843   */\n      dup3\n        /* \"#utility.yul\":12833:12847   */\n      add\n        /* \"#utility.yul\":12826:12884   */\n      mstore\n        /* \"#utility.yul\":12918:12936   */\n      0x7320726967687420746f20766f74652e00000000000000000000000000000000\n        /* \"#utility.yul\":12913:12915   */\n      0x20\n        /* \"#utility.yul\":12905:12911   */\n      dup3\n        /* \"#utility.yul\":12901:12916   */\n      add\n        /* \"#utility.yul\":12894:12937   */\n      mstore\n        /* \"#utility.yul\":12709:12944   */\n      pop\n      jump\t// out\n        /* \"#utility.yul\":12950:13180   */\n    tag_211:\n        /* \"#utility.yul\":13090:13124   */\n      0x53696d706c65566f74696e673a2050726f706f73616c20696e646578206f7574\n        /* \"#utility.yul\":13086:13087   */\n      0x00\n        /* \"#utility.yul\":13078:13084   */\n      dup3\n        /* \"#utility.yul\":13074:13088   */\n      add\n        /* \"#utility.yul\":13067:13125   */\n      mstore\n        /* \"#utility.yul\":13159:13172   */\n      0x206f6620626f756e64732e000000000000000000000000000000000000000000\n        /* \"#utility.yul\":13154:13156   */\n      0x20\n        /* \"#utility.yul\":13146:13152   */\n      dup3\n        /* \"#utility.yul\":13142:13157   */\n      add\n        /* \"#utility.yul\":13135:13173   */\n      mstore\n        /* \"#utility.yul\":12950:13180   */\n      pop\n      jump\t// out\n        /* \"#utility.yul\":13186:13420   */\n    tag_216:\n        /* \"#utility.yul\":13326:13360   */\n      0x53696d706c65566f74696e673a2044656c65676174696f6e2074726163657320\n        /* \"#utility.yul\":13322:13323   */\n      0x00\n        /* \"#utility.yul\":13314:13320   */\n      dup3\n        /* \"#utility.yul\":13310:13324   */\n      add\n        /* \"#utility.yul\":13303:13361   */\n      mstore\n        /* \"#utility.yul\":13395:13412   */\n      0x6261636b20746f2063616c6c65722e0000000000000000000000000000000000\n        /* \"#utility.yul\":13390:13392   */\n      0x20\n        /* \"#utility.yul\":13382:13388   */\n      dup3\n        /* \"#utility.yul\":13378:13393   */\n      add\n        /* \"#utility.yul\":13371:13413   */\n      mstore\n        /* \"#utility.yul\":13186:13420   */\n      pop\n      jump\t// out\n        /* \"#utility.yul\":13426:13548   */\n    tag_144:\n        /* \"#utility.yul\":13499:13523   */\n      tag_288\n        /* \"#utility.yul\":13517:13522   */\n      dup2\n        /* \"#utility.yul\":13499:13523   */\n      tag_161\n      jump\t// in\n    tag_288:\n        /* \"#utility.yul\":13492:13497   */\n      dup2\n        /* \"#utility.yul\":13489:13524   */\n      eq\n        /* \"#utility.yul\":13479:13542   */\n      tag_289\n      jumpi\n        /* \"#utility.yul\":13538:13539   */\n      0x00\n        /* \"#utility.yul\":13535:13536   */\n      dup1\n        /* \"#utility.yul\":13528:13540   */\n      revert\n        /* \"#utility.yul\":13479:13542   */\n    tag_289:\n        /* \"#utility.yul\":13426:13548   */\n      pop\n      jump\t// out\n        /* \"#utility.yul\":13554:13676   */\n    tag_148:\n        /* \"#utility.yul\":13627:13651   */\n      tag_291\n        /* \"#utility.yul\":13645:13650   */\n      dup2\n        /* \"#utility.yul\":13627:13651   */\n      tag_220\n      jump\t// in\n    tag_291:\n        /* \"#utility.yul\":13620:13625   */\n      dup2\n        /* \"#utility.yul\":13617:13652   */\n      eq\n        /* \"#utility.yul\":13607:13670   */\n      tag_292\n      jumpi\n        /* \"#utility.yul\":13666:13667   */\n      0x00\n        /* \"#utility.yul\":13663:13664   */\n      dup1\n        /* \"#utility.yul\":13656:13668   */\n      revert\n        /* \"#utility.yul\":13607:13670   */\n    tag_292:\n        /* \"#utility.yul\":13554:13676   */\n      pop\n      jump\t// out\n\n    auxdata: 0xa2646970667358221220a099c73c5841cd10b9377d6e6c0fcba0bdf7a48aa9a5fd89e09e55f2a5acd06e64736f6c63430008070033\n}\n",
				"bytecode": {
					"linkReferences": {},
					"object": "60806040523480156200001157600080fd5b5060405162001c9138038062001c918339818101604052810190620000379190620003be565b620000476200021b60201b60201c565b600160006101000a81548173ffffffffffffffffffffffffffffffffffffffff021916908373ffffffffffffffffffffffffffffffffffffffff160217905550600160026000600160009054906101000a900473ffffffffffffffffffffffffffffffffffffffff1673ffffffffffffffffffffffffffffffffffffffff1673ffffffffffffffffffffffffffffffffffffffff16815260200190815260200160002060000181905550805160008190555060005b600054811015620001b45760006040518060400160405280620001428585815181106200012e576200012d6200071d565b5b60200260200101516200022360201b60201c565b81526020016000815250905060038190806001815401808255809150506001900390600052602060002090600202016000909190919091506000820151816000015560208201518160010155505050620001ac6001826200025960201b62000cb11790919060201c565b9050620000fc565b507ff318b16025413645144ed83c64d2d30f089c10bc263cab68a036c00f011827be600160009054906101000a900473ffffffffffffffffffffffffffffffffffffffff166000546040516200020c92919062000481565b60405180910390a150620007c9565b600033905090565b60008160405160200162000238919062000468565b604051602081830303815290604052620002529062000612565b9050919050565b600081836200026991906200056d565b905092915050565b6000620002886200028284620004d7565b620004ae565b90508083825260208201905082856020860282011115620002ae57620002ad62000797565b5b60005b858110156200030357815167ffffffffffffffff811115620002d857620002d762000792565b5b808601620002e789826200038b565b85526020850194506020840193505050600181019050620002b1565b5050509392505050565b6000620003246200031e8462000506565b620004ae565b9050828152602081018484840111156200034357620003426200079c565b5b6200035084828562000682565b509392505050565b600082601f83011262000370576200036f62000792565b5b81516200038284826020860162000271565b91505092915050565b600082601f830112620003a357620003a262000792565b5b8151620003b58482602086016200030d565b91505092915050565b600060208284031215620003d757620003d6620007a6565b5b600082015167ffffffffffffffff811115620003f857620003f7620007a1565b5b620004068482850162000358565b91505092915050565b6200041a81620005ca565b82525050565b60006200042d8262000557565b62000439818562000562565b93506200044b81856020860162000682565b80840191505092915050565b620004628162000608565b82525050565b600062000476828462000420565b915081905092915050565b60006040820190506200049860008301856200040f565b620004a7602083018462000457565b9392505050565b6000620004ba620004cd565b9050620004c88282620006b8565b919050565b6000604051905090565b600067ffffffffffffffff821115620004f557620004f46200074c565b5b602082029050602081019050919050565b600067ffffffffffffffff8211156200052457620005236200074c565b5b6200052f82620007ab565b9050602081019050919050565b6000819050602082019050919050565b600081519050919050565b600081519050919050565b600081905092915050565b60006200057a8262000608565b9150620005878362000608565b9250827fffffffffffffffffffffffffffffffffffffffffffffffffffffffffffffffff03821115620005bf57620005be620006ee565b5b828201905092915050565b6000620005d782620005e8565b9050919050565b6000819050919050565b600073ffffffffffffffffffffffffffffffffffffffff82169050919050565b6000819050919050565b60006200061f826200054c565b826200062b846200053c565b905062000638816200077b565b925060208210156200067b57620006767fffffffffffffffffffffffffffffffffffffffffffffffffffffffffffffffff83602003600802620007bc565b831692505b5050919050565b60005b83811015620006a257808201518184015260208101905062000685565b83811115620006b2576000848401525b50505050565b620006c382620007ab565b810181811067ffffffffffffffff82111715620006e557620006e46200074c565b5b80604052505050565b7f4e487b7100000000000000000000000000000000000000000000000000000000600052601160045260246000fd5b7f4e487b7100000000000000000000000000000000000000000000000000000000600052603260045260246000fd5b7f4e487b7100000000000000000000000000000000000000000000000000000000600052604160045260246000fd5b6000620007898251620005de565b80915050919050565b600080fd5b600080fd5b600080fd5b600080fd5b600080fd5b6000601f19601f8301169050919050565b600082821b905092915050565b6114b880620007d96000396000f3fe608060405234801561001057600080fd5b50600436106100885760003560e01c8063a3ec138d1161005b578063a3ec138d146100ff578063c7f758a814610132578063d4d4b5ac14610163578063da35c6641461018157610088565b80630121b93f1461008d57806328be18ee146100a95780635c19a95c146100c75780639e7b8d61146100e3575b600080fd5b6100a760048036038101906100a29190610d4f565b61019f565b005b6100b161043f565b6040516100be9190610f24565b60405180910390f35b6100e160048036038101906100dc9190610d22565b610470565b005b6100fd60048036038101906100f89190610d22565b610984565b005b61011960048036038101906101149190610d22565b610b7d565b6040516101299493929190611071565b60405180910390f35b61014c60048036038101906101479190610d4f565b610bda565b60405161015a929190610f46565b60405180910390f35b61016b610c85565b6040516101789190610f09565b60405180910390f35b610189610cab565b6040516101969190611056565b60405180910390f35b8060005481106101e4576040517f08c379a00000000000000000000000000000000000000000000000000000000081526004016101db90611016565b60405180910390fd5b6101ec610cc7565b600260008273ffffffffffffffffffffffffffffffffffffffff1673ffffffffffffffffffffffffffffffffffffffff16815260200190815260200160002060010160009054906101000a900460ff161561027c576040517f08c379a000000000000000000000000000000000000000000000000000000000815260040161027390610f76565b60405180910390fd5b610284610cc7565b6000600260008373ffffffffffffffffffffffffffffffffffffffff1673ffffffffffffffffffffffffffffffffffffffff1681526020019081526020016000206000015411610309576040517f08c379a000000000000000000000000000000000000000000000000000000000815260040161030090610fb6565b60405180910390fd5b600060026000610317610cc7565b73ffffffffffffffffffffffffffffffffffffffff1673ffffffffffffffffffffffffffffffffffffffff168152602001908152602001600020905060018160010160006101000a81548160ff0219169083151502179055508481600201819055506103b5816000015460038781548110610395576103946111e6565b5b906000526020600020906002020160010154610cb190919063ffffffff16565b600386815481106103c9576103c86111e6565b5b9060005260206000209060020201600101819055506103e6610cc7565b73ffffffffffffffffffffffffffffffffffffffff16857fe7ee74ca1f4bb1b82b14f87794c45b3e59c39e372b862fb97a6316b43355b69e83600001546040516104309190611056565b60405180910390a35050505050565b606060005b60048054905081101561046c57610465600182610cb190919063ffffffff16565b9050610444565b5090565b610478610cc7565b600260008273ffffffffffffffffffffffffffffffffffffffff1673ffffffffffffffffffffffffffffffffffffffff16815260200190815260200160002060010160009054906101000a900460ff1615610508576040517f08c379a00000000000000000000000000000000000000000000000000000000081526004016104ff90610f76565b60405180910390fd5b610510610cc7565b6000600260008373ffffffffffffffffffffffffffffffffffffffff1673ffffffffffffffffffffffffffffffffffffffff1681526020019081526020016000206000015411610595576040517f08c379a000000000000000000000000000000000000000000000000000000000815260040161058c90610fb6565b60405180910390fd5b6000600260006105a3610cc7565b73ffffffffffffffffffffffffffffffffffffffff1673ffffffffffffffffffffffffffffffffffffffff16815260200190815260200160002090506105e7610cc7565b73ffffffffffffffffffffffffffffffffffffffff168473ffffffffffffffffffffffffffffffffffffffff161415610655576040517f08c379a000000000000000000000000000000000000000000000000000000000815260040161064c90610fd6565b60405180910390fd5b5b600073ffffffffffffffffffffffffffffffffffffffff16600260008673ffffffffffffffffffffffffffffffffffffffff1673ffffffffffffffffffffffffffffffffffffffff16815260200190815260200160002060010160019054906101000a900473ffffffffffffffffffffffffffffffffffffffff1673ffffffffffffffffffffffffffffffffffffffff16146107cc57600260008573ffffffffffffffffffffffffffffffffffffffff1673ffffffffffffffffffffffffffffffffffffffff16815260200190815260200160002060010160019054906101000a900473ffffffffffffffffffffffffffffffffffffffff169350610759610cc7565b73ffffffffffffffffffffffffffffffffffffffff168473ffffffffffffffffffffffffffffffffffffffff1614156107c7576040517f08c379a00000000000000000000000000000000000000000000000000000000081526004016107be90611036565b60405180910390fd5b610656565b60018160010160006101000a81548160ff021916908315150217905550838160010160016101000a81548173ffffffffffffffffffffffffffffffffffffffff021916908373ffffffffffffffffffffffffffffffffffffffff1602179055506000600260008673ffffffffffffffffffffffffffffffffffffffff1673ffffffffffffffffffffffffffffffffffffffff16815260200190815260200160002090508060010160009054906101000a900460ff16156108f8576108c6826000015460038360020154815481106108a6576108a56111e6565b5b906000526020600020906002020160010154610cb190919063ffffffff16565b60038260020154815481106108de576108dd6111e6565b5b90600052602060002090600202016001018190555061091c565b61091382600001548260000154610cb190919063ffffffff16565b81600001819055505b8473ffffffffffffffffffffffffffffffffffffffff1661093b610cc7565b73ffffffffffffffffffffffffffffffffffffffff167f4ce9ef2c99d761d69230b0e3381f4c6016333b2e27d32b3e379a96b5d2c6923260405160405180910390a35050505050565b600160009054906101000a900473ffffffffffffffffffffffffffffffffffffffff1673ffffffffffffffffffffffffffffffffffffffff166109c5610cc7565b73ffffffffffffffffffffffffffffffffffffffff1614610a1b576040517f08c379a0000000000000000000000000000000000000000000000000000000008152600401610a1290610f96565b60405180910390fd5b80600260008273ffffffffffffffffffffffffffffffffffffffff1673ffffffffffffffffffffffffffffffffffffffff16815260200190815260200160002060010160009054906101000a900460ff1615610aac576040517f08c379a0000000000000000000000000000000000000000000000000000000008152600401610aa390610f76565b60405180910390fd5b6000600260008473ffffffffffffffffffffffffffffffffffffffff1673ffffffffffffffffffffffffffffffffffffffff1681526020019081526020016000206000015414610b31576040517f08c379a0000000000000000000000000000000000000000000000000000000008152600401610b2890610ff6565b60405180910390fd5b6001600260008473ffffffffffffffffffffffffffffffffffffffff1673ffffffffffffffffffffffffffffffffffffffff168152602001908152602001600020600001819055505050565b60026020528060005260406000206000915090508060000154908060010160009054906101000a900460ff16908060010160019054906101000a900473ffffffffffffffffffffffffffffffffffffffff16908060020154905084565b60606000826000548110610c23576040517f08c379a0000000000000000000000000000000000000000000000000000000008152600401610c1a90611016565b60405180910390fd5b610c5160038581548110610c3a57610c396111e6565b5b906000526020600020906002020160000154610ccf565b60038581548110610c6557610c646111e6565b5b906000526020600020906002020160010154809350819450505050915091565b600160009054906101000a900473ffffffffffffffffffffffffffffffffffffffff1681565b60005481565b60008183610cbf91906110d2565b905092915050565b600033905090565b606081604051602001610ce29190610eee565b6040516020818303038152906040529050919050565b600081359050610d0781611454565b92915050565b600081359050610d1c8161146b565b92915050565b600060208284031215610d3857610d37611215565b5b6000610d4684828501610cf8565b91505092915050565b600060208284031215610d6557610d64611215565b5b6000610d7384828501610d0d565b91505092915050565b610d8581611128565b82525050565b610d948161113a565b82525050565b610dab610da682611146565b6111ad565b82525050565b6000610dbc826110b6565b610dc681856110c1565b9350610dd681856020860161117a565b610ddf8161121a565b840191505092915050565b6000610df7602a836110c1565b9150610e028261122b565b604082019050919050565b6000610e1a6036836110c1565b9150610e258261127a565b604082019050919050565b6000610e3d6031836110c1565b9150610e48826112c9565b604082019050919050565b6000610e60602d836110c1565b9150610e6b82611318565b604082019050919050565b6000610e836030836110c1565b9150610e8e82611367565b604082019050919050565b6000610ea6602b836110c1565b9150610eb1826113b6565b604082019050919050565b6000610ec9602f836110c1565b9150610ed482611405565b604082019050919050565b610ee881611170565b82525050565b6000610efa8284610d9a565b60208201915081905092915050565b6000602082019050610f1e6000830184610d7c565b92915050565b60006020820190508181036000830152610f3e8184610db1565b905092915050565b60006040820190508181036000830152610f608185610db1565b9050610f6f6020830184610edf565b9392505050565b60006020820190508181036000830152610f8f81610dea565b9050919050565b60006020820190508181036000830152610faf81610e0d565b9050919050565b60006020820190508181036000830152610fcf81610e30565b9050919050565b60006020820190508181036000830152610fef81610e53565b9050919050565b6000602082019050818103600083015261100f81610e76565b9050919050565b6000602082019050818103600083015261102f81610e99565b9050919050565b6000602082019050818103600083015261104f81610ebc565b9050919050565b600060208201905061106b6000830184610edf565b92915050565b60006080820190506110866000830187610edf565b6110936020830186610d8b565b6110a06040830185610d7c565b6110ad6060830184610edf565b95945050505050565b600081519050919050565b600082825260208201905092915050565b60006110dd82611170565b91506110e883611170565b9250827fffffffffffffffffffffffffffffffffffffffffffffffffffffffffffffffff0382111561111d5761111c6111b7565b5b828201905092915050565b600061113382611150565b9050919050565b60008115159050919050565b6000819050919050565b600073ffffffffffffffffffffffffffffffffffffffff82169050919050565b6000819050919050565b60005b8381101561119857808201518184015260208101905061117d565b838111156111a7576000848401525b50505050565b6000819050919050565b7f4e487b7100000000000000000000000000000000000000000000000000000000600052601160045260246000fd5b7f4e487b7100000000000000000000000000000000000000000000000000000000600052603260045260246000fd5b600080fd5b6000601f19601f8301169050919050565b7f53696d706c65566f74696e673a2054686520766f7465722068617320616c726560008201527f61647920766f7465642e00000000000000000000000000000000000000000000602082015250565b7f53696d706c65566f74696e673a204f6e6c79206368616972506572736f6e206360008201527f616e206769766520726967687420746f20766f74652e00000000000000000000602082015250565b7f53696d706c65566f74696e673a2043616c6c657220646f6573206e6f7420686160008201527f766520726967687420746f20766f74652e000000000000000000000000000000602082015250565b7f53696d706c65566f74696e673a2053656c662d64656c65676174696f6e20697360008201527f206e6f7420616c6c6f7765642e00000000000000000000000000000000000000602082015250565b7f53696d706c65566f74696e673a204164647265737320616c726561647920686160008201527f7320726967687420746f20766f74652e00000000000000000000000000000000602082015250565b7f53696d706c65566f74696e673a2050726f706f73616c20696e646578206f757460008201527f206f6620626f756e64732e000000000000000000000000000000000000000000602082015250565b7f53696d706c65566f74696e673a2044656c65676174696f6e207472616365732060008201527f6261636b20746f2063616c6c65722e0000000000000000000000000000000000602082015250565b61145d81611128565b811461146857600080fd5b50565b61147481611170565b811461147f57600080fd5b5056fea2646970667358221220a099c73c5841cd10b9377d6e6c0fcba0bdf7a48aa9a5fd89e09e55f2a5acd06e64736f6c63430008070033",
					"opcodes": "PUSH1 0x80 PUSH1 0x40 MSTORE CALLVALUE DUP1 ISZERO PUSH3 0x11 JUMPI PUSH1 0x0 DUP1 REVERT JUMPDEST POP PUSH1 0x40 MLOAD PUSH3 0x1C91 CODESIZE SUB DUP1 PUSH3 0x1C91 DUP4 CODECOPY DUP2 DUP2 ADD PUSH1 0x40 MSTORE DUP2 ADD SWAP1 PUSH3 0x37 SWAP2 SWAP1 PUSH3 0x3BE JUMP JUMPDEST PUSH3 0x47 PUSH3 0x21B PUSH1 0x20 SHL PUSH1 0x20 SHR JUMP JUMPDEST PUSH1 0x1 PUSH1 0x0 PUSH2 0x100 EXP DUP2 SLOAD DUP2 PUSH20 0xFFFFFFFFFFFFFFFFFFFFFFFFFFFFFFFFFFFFFFFF MUL NOT AND SWAP1 DUP4 PUSH20 0xFFFFFFFFFFFFFFFFFFFFFFFFFFFFFFFFFFFFFFFF AND MUL OR SWAP1 SSTORE POP PUSH1 0x1 PUSH1 0x2 PUSH1 0x0 PUSH1 0x1 PUSH1 0x0 SWAP1 SLOAD SWAP1 PUSH2 0x100 EXP SWAP1 DIV PUSH20 0xFFFFFFFFFFFFFFFFFFFFFFFFFFFFFFFFFFFFFFFF AND PUSH20 0xFFFFFFFFFFFFFFFFFFFFFFFFFFFFFFFFFFFFFFFF AND PUSH20 0xFFFFFFFFFFFFFFFFFFFFFFFFFFFFFFFFFFFFFFFF AND DUP2 MSTORE PUSH1 0x20 ADD SWAP1 DUP2 MSTORE PUSH1 0x20 ADD PUSH1 0x0 KECCAK256 PUSH1 0x0 ADD DUP2 SWAP1 SSTORE POP DUP1 MLOAD PUSH1 0x0 DUP2 SWAP1 SSTORE POP PUSH1 0x0 JUMPDEST PUSH1 0x0 SLOAD DUP2 LT ISZERO PUSH3 0x1B4 JUMPI PUSH1 0x0 PUSH1 0x40 MLOAD DUP1 PUSH1 0x40 ADD PUSH1 0x40 MSTORE DUP1 PUSH3 0x142 DUP6 DUP6 DUP2 MLOAD DUP2 LT PUSH3 0x12E JUMPI PUSH3 0x12D PUSH3 0x71D JUMP JUMPDEST JUMPDEST PUSH1 0x20 MUL PUSH1 0x20 ADD ADD MLOAD PUSH3 0x223 PUSH1 0x20 SHL PUSH1 0x20 SHR JUMP JUMPDEST DUP2 MSTORE PUSH1 0x20 ADD PUSH1 0x0 DUP2 MSTORE POP SWAP1 POP PUSH1 0x3 DUP2 SWAP1 DUP1 PUSH1 0x1 DUP2 SLOAD ADD DUP1 DUP3 SSTORE DUP1 SWAP2 POP POP PUSH1 0x1 SWAP1 SUB SWAP1 PUSH1 0x0 MSTORE PUSH1 0x20 PUSH1 0x0 KECCAK256 SWAP1 PUSH1 0x2 MUL ADD PUSH1 0x0 SWAP1 SWAP2 SWAP1 SWAP2 SWAP1 SWAP2 POP PUSH1 0x0 DUP3 ADD MLOAD DUP2 PUSH1 0x0 ADD SSTORE PUSH1 0x20 DUP3 ADD MLOAD DUP2 PUSH1 0x1 ADD SSTORE POP POP POP PUSH3 0x1AC PUSH1 0x1 DUP3 PUSH3 0x259 PUSH1 0x20 SHL PUSH3 0xCB1 OR SWAP1 SWAP2 SWAP1 PUSH1 0x20 SHR JUMP JUMPDEST SWAP1 POP PUSH3 0xFC JUMP JUMPDEST POP PUSH32 0xF318B16025413645144ED83C64D2D30F089C10BC263CAB68A036C00F011827BE PUSH1 0x1 PUSH1 0x0 SWAP1 SLOAD SWAP1 PUSH2 0x100 EXP SWAP1 DIV PUSH20 0xFFFFFFFFFFFFFFFFFFFFFFFFFFFFFFFFFFFFFFFF AND PUSH1 0x0 SLOAD PUSH1 0x40 MLOAD PUSH3 0x20C SWAP3 SWAP2 SWAP1 PUSH3 0x481 JUMP JUMPDEST PUSH1 0x40 MLOAD DUP1 SWAP2 SUB SWAP1 LOG1 POP PUSH3 0x7C9 JUMP JUMPDEST PUSH1 0x0 CALLER SWAP1 POP SWAP1 JUMP JUMPDEST PUSH1 0x0 DUP2 PUSH1 0x40 MLOAD PUSH1 0x20 ADD PUSH3 0x238 SWAP2 SWAP1 PUSH3 0x468 JUMP JUMPDEST PUSH1 0x40 MLOAD PUSH1 0x20 DUP2 DUP4 SUB SUB DUP2 MSTORE SWAP1 PUSH1 0x40 MSTORE PUSH3 0x252 SWAP1 PUSH3 0x612 JUMP JUMPDEST SWAP1 POP SWAP2 SWAP1 POP JUMP JUMPDEST PUSH1 0x0 DUP2 DUP4 PUSH3 0x269 SWAP2 SWAP1 PUSH3 0x56D JUMP JUMPDEST SWAP1 POP SWAP3 SWAP2 POP POP JUMP JUMPDEST PUSH1 0x0 PUSH3 0x288 PUSH3 0x282 DUP5 PUSH3 0x4D7 JUMP JUMPDEST PUSH3 0x4AE JUMP JUMPDEST SWAP1 POP DUP1 DUP4 DUP3 MSTORE PUSH1 0x20 DUP3 ADD SWAP1 POP DUP3 DUP6 PUSH1 0x20 DUP7 MUL DUP3 ADD GT ISZERO PUSH3 0x2AE JUMPI PUSH3 0x2AD PUSH3 0x797 JUMP JUMPDEST JUMPDEST PUSH1 0x0 JUMPDEST DUP6 DUP2 LT ISZERO PUSH3 0x303 JUMPI DUP2 MLOAD PUSH8 0xFFFFFFFFFFFFFFFF DUP2 GT ISZERO PUSH3 0x2D8 JUMPI PUSH3 0x2D7 PUSH3 0x792 JUMP JUMPDEST JUMPDEST DUP1 DUP7 ADD PUSH3 0x2E7 DUP10 DUP3 PUSH3 0x38B JUMP JUMPDEST DUP6 MSTORE PUSH1 0x20 DUP6 ADD SWAP5 POP PUSH1 0x20 DUP5 ADD SWAP4 POP POP POP PUSH1 0x1 DUP2 ADD SWAP1 POP PUSH3 0x2B1 JUMP JUMPDEST POP POP POP SWAP4 SWAP3 POP POP POP JUMP JUMPDEST PUSH1 0x0 PUSH3 0x324 PUSH3 0x31E DUP5 PUSH3 0x506 JUMP JUMPDEST PUSH3 0x4AE JUMP JUMPDEST SWAP1 POP DUP3 DUP2 MSTORE PUSH1 0x20 DUP2 ADD DUP5 DUP5 DUP5 ADD GT ISZERO PUSH3 0x343 JUMPI PUSH3 0x342 PUSH3 0x79C JUMP JUMPDEST JUMPDEST PUSH3 0x350 DUP5 DUP3 DUP6 PUSH3 0x682 JUMP JUMPDEST POP SWAP4 SWAP3 POP POP POP JUMP JUMPDEST PUSH1 0x0 DUP3 PUSH1 0x1F DUP4 ADD SLT PUSH3 0x370 JUMPI PUSH3 0x36F PUSH3 0x792 JUMP JUMPDEST JUMPDEST DUP2 MLOAD PUSH3 0x382 DUP5 DUP3 PUSH1 0x20 DUP7 ADD PUSH3 0x271 JUMP JUMPDEST SWAP2 POP POP SWAP3 SWAP2 POP POP JUMP JUMPDEST PUSH1 0x0 DUP3 PUSH1 0x1F DUP4 ADD SLT PUSH3 0x3A3 JUMPI PUSH3 0x3A2 PUSH3 0x792 JUMP JUMPDEST JUMPDEST DUP2 MLOAD PUSH3 0x3B5 DUP5 DUP3 PUSH1 0x20 DUP7 ADD PUSH3 0x30D JUMP JUMPDEST SWAP2 POP POP SWAP3 SWAP2 POP POP JUMP JUMPDEST PUSH1 0x0 PUSH1 0x20 DUP3 DUP5 SUB SLT ISZERO PUSH3 0x3D7 JUMPI PUSH3 0x3D6 PUSH3 0x7A6 JUMP JUMPDEST JUMPDEST PUSH1 0x0 DUP3 ADD MLOAD PUSH8 0xFFFFFFFFFFFFFFFF DUP2 GT ISZERO PUSH3 0x3F8 JUMPI PUSH3 0x3F7 PUSH3 0x7A1 JUMP JUMPDEST JUMPDEST PUSH3 0x406 DUP5 DUP3 DUP6 ADD PUSH3 0x358 JUMP JUMPDEST SWAP2 POP POP SWAP3 SWAP2 POP POP JUMP JUMPDEST PUSH3 0x41A DUP2 PUSH3 0x5CA JUMP JUMPDEST DUP3 MSTORE POP POP JUMP JUMPDEST PUSH1 0x0 PUSH3 0x42D DUP3 PUSH3 0x557 JUMP JUMPDEST PUSH3 0x439 DUP2 DUP6 PUSH3 0x562 JUMP JUMPDEST SWAP4 POP PUSH3 0x44B DUP2 DUP6 PUSH1 0x20 DUP7 ADD PUSH3 0x682 JUMP JUMPDEST DUP1 DUP5 ADD SWAP2 POP POP SWAP3 SWAP2 POP POP JUMP JUMPDEST PUSH3 0x462 DUP2 PUSH3 0x608 JUMP JUMPDEST DUP3 MSTORE POP POP JUMP JUMPDEST PUSH1 0x0 PUSH3 0x476 DUP3 DUP5 PUSH3 0x420 JUMP JUMPDEST SWAP2 POP DUP2 SWAP1 POP SWAP3 SWAP2 POP POP JUMP JUMPDEST PUSH1 0x0 PUSH1 0x40 DUP3 ADD SWAP1 POP PUSH3 0x498 PUSH1 0x0 DUP4 ADD DUP6 PUSH3 0x40F JUMP JUMPDEST PUSH3 0x4A7 PUSH1 0x20 DUP4 ADD DUP5 PUSH3 0x457 JUMP JUMPDEST SWAP4 SWAP3 POP POP POP JUMP JUMPDEST PUSH1 0x0 PUSH3 0x4BA PUSH3 0x4CD JUMP JUMPDEST SWAP1 POP PUSH3 0x4C8 DUP3 DUP3 PUSH3 0x6B8 JUMP JUMPDEST SWAP2 SWAP1 POP JUMP JUMPDEST PUSH1 0x0 PUSH1 0x40 MLOAD SWAP1 POP SWAP1 JUMP JUMPDEST PUSH1 0x0 PUSH8 0xFFFFFFFFFFFFFFFF DUP3 GT ISZERO PUSH3 0x4F5 JUMPI PUSH3 0x4F4 PUSH3 0x74C JUMP JUMPDEST JUMPDEST PUSH1 0x20 DUP3 MUL SWAP1 POP PUSH1 0x20 DUP2 ADD SWAP1 POP SWAP2 SWAP1 POP JUMP JUMPDEST PUSH1 0x0 PUSH8 0xFFFFFFFFFFFFFFFF DUP3 GT ISZERO PUSH3 0x524 JUMPI PUSH3 0x523 PUSH3 0x74C JUMP JUMPDEST JUMPDEST PUSH3 0x52F DUP3 PUSH3 0x7AB JUMP JUMPDEST SWAP1 POP PUSH1 0x20 DUP2 ADD SWAP1 POP SWAP2 SWAP1 POP JUMP JUMPDEST PUSH1 0x0 DUP2 SWAP1 POP PUSH1 0x20 DUP3 ADD SWAP1 POP SWAP2 SWAP1 POP JUMP JUMPDEST PUSH1 0x0 DUP2 MLOAD SWAP1 POP SWAP2 SWAP1 POP JUMP JUMPDEST PUSH1 0x0 DUP2 MLOAD SWAP1 POP SWAP2 SWAP1 POP JUMP JUMPDEST PUSH1 0x0 DUP2 SWAP1 POP SWAP3 SWAP2 POP POP JUMP JUMPDEST PUSH1 0x0 PUSH3 0x57A DUP3 PUSH3 0x608 JUMP JUMPDEST SWAP2 POP PUSH3 0x587 DUP4 PUSH3 0x608 JUMP JUMPDEST SWAP3 POP DUP3 PUSH32 0xFFFFFFFFFFFFFFFFFFFFFFFFFFFFFFFFFFFFFFFFFFFFFFFFFFFFFFFFFFFFFFFF SUB DUP3 GT ISZERO PUSH3 0x5BF JUMPI PUSH3 0x5BE PUSH3 0x6EE JUMP JUMPDEST JUMPDEST DUP3 DUP3 ADD SWAP1 POP SWAP3 SWAP2 POP POP JUMP JUMPDEST PUSH1 0x0 PUSH3 0x5D7 DUP3 PUSH3 0x5E8 JUMP JUMPDEST SWAP1 POP SWAP2 SWAP1 POP JUMP JUMPDEST PUSH1 0x0 DUP2 SWAP1 POP SWAP2 SWAP1 POP JUMP JUMPDEST PUSH1 0x0 PUSH20 0xFFFFFFFFFFFFFFFFFFFFFFFFFFFFFFFFFFFFFFFF DUP3 AND SWAP1 POP SWAP2 SWAP1 POP JUMP JUMPDEST PUSH1 0x0 DUP2 SWAP1 POP SWAP2 SWAP1 POP JUMP JUMPDEST PUSH1 0x0 PUSH3 0x61F DUP3 PUSH3 0x54C JUMP JUMPDEST DUP3 PUSH3 0x62B DUP5 PUSH3 0x53C JUMP JUMPDEST SWAP1 POP PUSH3 0x638 DUP2 PUSH3 0x77B JUMP JUMPDEST SWAP3 POP PUSH1 0x20 DUP3 LT ISZERO PUSH3 0x67B JUMPI PUSH3 0x676 PUSH32 0xFFFFFFFFFFFFFFFFFFFFFFFFFFFFFFFFFFFFFFFFFFFFFFFFFFFFFFFFFFFFFFFF DUP4 PUSH1 0x20 SUB PUSH1 0x8 MUL PUSH3 0x7BC JUMP JUMPDEST DUP4 AND SWAP3 POP JUMPDEST POP POP SWAP2 SWAP1 POP JUMP JUMPDEST PUSH1 0x0 JUMPDEST DUP4 DUP2 LT ISZERO PUSH3 0x6A2 JUMPI DUP1 DUP3 ADD MLOAD DUP2 DUP5 ADD MSTORE PUSH1 0x20 DUP2 ADD SWAP1 POP PUSH3 0x685 JUMP JUMPDEST DUP4 DUP2 GT ISZERO PUSH3 0x6B2 JUMPI PUSH1 0x0 DUP5 DUP5 ADD MSTORE JUMPDEST POP POP POP POP JUMP JUMPDEST PUSH3 0x6C3 DUP3 PUSH3 0x7AB JUMP JUMPDEST DUP2 ADD DUP2 DUP2 LT PUSH8 0xFFFFFFFFFFFFFFFF DUP3 GT OR ISZERO PUSH3 0x6E5 JUMPI PUSH3 0x6E4 PUSH3 0x74C JUMP JUMPDEST JUMPDEST DUP1 PUSH1 0x40 MSTORE POP POP POP JUMP JUMPDEST PUSH32 0x4E487B7100000000000000000000000000000000000000000000000000000000 PUSH1 0x0 MSTORE PUSH1 0x11 PUSH1 0x4 MSTORE PUSH1 0x24 PUSH1 0x0 REVERT JUMPDEST PUSH32 0x4E487B7100000000000000000000000000000000000000000000000000000000 PUSH1 0x0 MSTORE PUSH1 0x32 PUSH1 0x4 MSTORE PUSH1 0x24 PUSH1 0x0 REVERT JUMPDEST PUSH32 0x4E487B7100000000000000000000000000000000000000000000000000000000 PUSH1 0x0 MSTORE PUSH1 0x41 PUSH1 0x4 MSTORE PUSH1 0x24 PUSH1 0x0 REVERT JUMPDEST PUSH1 0x0 PUSH3 0x789 DUP3 MLOAD PUSH3 0x5DE JUMP JUMPDEST DUP1 SWAP2 POP POP SWAP2 SWAP1 POP JUMP JUMPDEST PUSH1 0x0 DUP1 REVERT JUMPDEST PUSH1 0x0 DUP1 REVERT JUMPDEST PUSH1 0x0 DUP1 REVERT JUMPDEST PUSH1 0x0 DUP1 REVERT JUMPDEST PUSH1 0x0 DUP1 REVERT JUMPDEST PUSH1 0x0 PUSH1 0x1F NOT PUSH1 0x1F DUP4 ADD AND SWAP1 POP SWAP2 SWAP1 POP JUMP JUMPDEST PUSH1 0x0 DUP3 DUP3 SHL SWAP1 POP SWAP3 SWAP2 POP POP JUMP JUMPDEST PUSH2 0x14B8 DUP1 PUSH3 0x7D9 PUSH1 0x0 CODECOPY PUSH1 0x0 RETURN INVALID PUSH1 0x80 PUSH1 0x40 MSTORE CALLVALUE DUP1 ISZERO PUSH2 0x10 JUMPI PUSH1 0x0 DUP1 REVERT JUMPDEST POP PUSH1 0x4 CALLDATASIZE LT PUSH2 0x88 JUMPI PUSH1 0x0 CALLDATALOAD PUSH1 0xE0 SHR DUP1 PUSH4 0xA3EC138D GT PUSH2 0x5B JUMPI DUP1 PUSH4 0xA3EC138D EQ PUSH2 0xFF JUMPI DUP1 PUSH4 0xC7F758A8 EQ PUSH2 0x132 JUMPI DUP1 PUSH4 0xD4D4B5AC EQ PUSH2 0x163 JUMPI DUP1 PUSH4 0xDA35C664 EQ PUSH2 0x181 JUMPI PUSH2 0x88 JUMP JUMPDEST DUP1 PUSH4 0x121B93F EQ PUSH2 0x8D JUMPI DUP1 PUSH4 0x28BE18EE EQ PUSH2 0xA9 JUMPI DUP1 PUSH4 0x5C19A95C EQ PUSH2 0xC7 JUMPI DUP1 PUSH4 0x9E7B8D61 EQ PUSH2 0xE3 JUMPI JUMPDEST PUSH1 0x0 DUP1 REVERT JUMPDEST PUSH2 0xA7 PUSH1 0x4 DUP1 CALLDATASIZE SUB DUP2 ADD SWAP1 PUSH2 0xA2 SWAP2 SWAP1 PUSH2 0xD4F JUMP JUMPDEST PUSH2 0x19F JUMP JUMPDEST STOP JUMPDEST PUSH2 0xB1 PUSH2 0x43F JUMP JUMPDEST PUSH1 0x40 MLOAD PUSH2 0xBE SWAP2 SWAP1 PUSH2 0xF24 JUMP JUMPDEST PUSH1 0x40 MLOAD DUP1 SWAP2 SUB SWAP1 RETURN JUMPDEST PUSH2 0xE1 PUSH1 0x4 DUP1 CALLDATASIZE SUB DUP2 ADD SWAP1 PUSH2 0xDC SWAP2 SWAP1 PUSH2 0xD22 JUMP JUMPDEST PUSH2 0x470 JUMP JUMPDEST STOP JUMPDEST PUSH2 0xFD PUSH1 0x4 DUP1 CALLDATASIZE SUB DUP2 ADD SWAP1 PUSH2 0xF8 SWAP2 SWAP1 PUSH2 0xD22 JUMP JUMPDEST PUSH2 0x984 JUMP JUMPDEST STOP JUMPDEST PUSH2 0x119 PUSH1 0x4 DUP1 CALLDATASIZE SUB DUP2 ADD SWAP1 PUSH2 0x114 SWAP2 SWAP1 PUSH2 0xD22 JUMP JUMPDEST PUSH2 0xB7D JUMP JUMPDEST PUSH1 0x40 MLOAD PUSH2 0x129 SWAP5 SWAP4 SWAP3 SWAP2 SWAP1 PUSH2 0x1071 JUMP JUMPDEST PUSH1 0x40 MLOAD DUP1 SWAP2 SUB SWAP1 RETURN JUMPDEST PUSH2 0x14C PUSH1 0x4 DUP1 CALLDATASIZE SUB DUP2 ADD SWAP1 PUSH2 0x147 SWAP2 SWAP1 PUSH2 0xD4F JUMP JUMPDEST PUSH2 0xBDA JUMP JUMPDEST PUSH1 0x40 MLOAD PUSH2 0x15A SWAP3 SWAP2 SWAP1 PUSH2 0xF46 JUMP JUMPDEST PUSH1 0x40 MLOAD DUP1 SWAP2 SUB SWAP1 RETURN JUMPDEST PUSH2 0x16B PUSH2 0xC85 JUMP JUMPDEST PUSH1 0x40 MLOAD PUSH2 0x178 SWAP2 SWAP1 PUSH2 0xF09 JUMP JUMPDEST PUSH1 0x40 MLOAD DUP1 SWAP2 SUB SWAP1 RETURN JUMPDEST PUSH2 0x189 PUSH2 0xCAB JUMP JUMPDEST PUSH1 0x40 MLOAD PUSH2 0x196 SWAP2 SWAP1 PUSH2 0x1056 JUMP JUMPDEST PUSH1 0x40 MLOAD DUP1 SWAP2 SUB SWAP1 RETURN JUMPDEST DUP1 PUSH1 0x0 SLOAD DUP2 LT PUSH2 0x1E4 JUMPI PUSH1 0x40 MLOAD PUSH32 0x8C379A000000000000000000000000000000000000000000000000000000000 DUP2 MSTORE PUSH1 0x4 ADD PUSH2 0x1DB SWAP1 PUSH2 0x1016 JUMP JUMPDEST PUSH1 0x40 MLOAD DUP1 SWAP2 SUB SWAP1 REVERT JUMPDEST PUSH2 0x1EC PUSH2 0xCC7 JUMP JUMPDEST PUSH1 0x2 PUSH1 0x0 DUP3 PUSH20 0xFFFFFFFFFFFFFFFFFFFFFFFFFFFFFFFFFFFFFFFF AND PUSH20 0xFFFFFFFFFFFFFFFFFFFFFFFFFFFFFFFFFFFFFFFF AND DUP2 MSTORE PUSH1 0x20 ADD SWAP1 DUP2 MSTORE PUSH1 0x20 ADD PUSH1 0x0 KECCAK256 PUSH1 0x1 ADD PUSH1 0x0 SWAP1 SLOAD SWAP1 PUSH2 0x100 EXP SWAP1 DIV PUSH1 0xFF AND ISZERO PUSH2 0x27C JUMPI PUSH1 0x40 MLOAD PUSH32 0x8C379A000000000000000000000000000000000000000000000000000000000 DUP2 MSTORE PUSH1 0x4 ADD PUSH2 0x273 SWAP1 PUSH2 0xF76 JUMP JUMPDEST PUSH1 0x40 MLOAD DUP1 SWAP2 SUB SWAP1 REVERT JUMPDEST PUSH2 0x284 PUSH2 0xCC7 JUMP JUMPDEST PUSH1 0x0 PUSH1 0x2 PUSH1 0x0 DUP4 PUSH20 0xFFFFFFFFFFFFFFFFFFFFFFFFFFFFFFFFFFFFFFFF AND PUSH20 0xFFFFFFFFFFFFFFFFFFFFFFFFFFFFFFFFFFFFFFFF AND DUP2 MSTORE PUSH1 0x20 ADD SWAP1 DUP2 MSTORE PUSH1 0x20 ADD PUSH1 0x0 KECCAK256 PUSH1 0x0 ADD SLOAD GT PUSH2 0x309 JUMPI PUSH1 0x40 MLOAD PUSH32 0x8C379A000000000000000000000000000000000000000000000000000000000 DUP2 MSTORE PUSH1 0x4 ADD PUSH2 0x300 SWAP1 PUSH2 0xFB6 JUMP JUMPDEST PUSH1 0x40 MLOAD DUP1 SWAP2 SUB SWAP1 REVERT JUMPDEST PUSH1 0x0 PUSH1 0x2 PUSH1 0x0 PUSH2 0x317 PUSH2 0xCC7 JUMP JUMPDEST PUSH20 0xFFFFFFFFFFFFFFFFFFFFFFFFFFFFFFFFFFFFFFFF AND PUSH20 0xFFFFFFFFFFFFFFFFFFFFFFFFFFFFFFFFFFFFFFFF AND DUP2 MSTORE PUSH1 0x20 ADD SWAP1 DUP2 MSTORE PUSH1 0x20 ADD PUSH1 0x0 KECCAK256 SWAP1 POP PUSH1 0x1 DUP2 PUSH1 0x1 ADD PUSH1 0x0 PUSH2 0x100 EXP DUP2 SLOAD DUP2 PUSH1 0xFF MUL NOT AND SWAP1 DUP4 ISZERO ISZERO MUL OR SWAP1 SSTORE POP DUP5 DUP2 PUSH1 0x2 ADD DUP2 SWAP1 SSTORE POP PUSH2 0x3B5 DUP2 PUSH1 0x0 ADD SLOAD PUSH1 0x3 DUP8 DUP2 SLOAD DUP2 LT PUSH2 0x395 JUMPI PUSH2 0x394 PUSH2 0x11E6 JUMP JUMPDEST JUMPDEST SWAP1 PUSH1 0x0 MSTORE PUSH1 0x20 PUSH1 0x0 KECCAK256 SWAP1 PUSH1 0x2 MUL ADD PUSH1 0x1 ADD SLOAD PUSH2 0xCB1 SWAP1 SWAP2 SWAP1 PUSH4 0xFFFFFFFF AND JUMP JUMPDEST PUSH1 0x3 DUP7 DUP2 SLOAD DUP2 LT PUSH2 0x3C9 JUMPI PUSH2 0x3C8 PUSH2 0x11E6 JUMP JUMPDEST JUMPDEST SWAP1 PUSH1 0x0 MSTORE PUSH1 0x20 PUSH1 0x0 KECCAK256 SWAP1 PUSH1 0x2 MUL ADD PUSH1 0x1 ADD DUP2 SWAP1 SSTORE POP PUSH2 0x3E6 PUSH2 0xCC7 JUMP JUMPDEST PUSH20 0xFFFFFFFFFFFFFFFFFFFFFFFFFFFFFFFFFFFFFFFF AND DUP6 PUSH32 0xE7EE74CA1F4BB1B82B14F87794C45B3E59C39E372B862FB97A6316B43355B69E DUP4 PUSH1 0x0 ADD SLOAD PUSH1 0x40 MLOAD PUSH2 0x430 SWAP2 SWAP1 PUSH2 0x1056 JUMP JUMPDEST PUSH1 0x40 MLOAD DUP1 SWAP2 SUB SWAP1 LOG3 POP POP POP POP POP JUMP JUMPDEST PUSH1 0x60 PUSH1 0x0 JUMPDEST PUSH1 0x4 DUP1 SLOAD SWAP1 POP DUP2 LT ISZERO PUSH2 0x46C JUMPI PUSH2 0x465 PUSH1 0x1 DUP3 PUSH2 0xCB1 SWAP1 SWAP2 SWAP1 PUSH4 0xFFFFFFFF AND JUMP JUMPDEST SWAP1 POP PUSH2 0x444 JUMP JUMPDEST POP SWAP1 JUMP JUMPDEST PUSH2 0x478 PUSH2 0xCC7 JUMP JUMPDEST PUSH1 0x2 PUSH1 0x0 DUP3 PUSH20 0xFFFFFFFFFFFFFFFFFFFFFFFFFFFFFFFFFFFFFFFF AND PUSH20 0xFFFFFFFFFFFFFFFFFFFFFFFFFFFFFFFFFFFFFFFF AND DUP2 MSTORE PUSH1 0x20 ADD SWAP1 DUP2 MSTORE PUSH1 0x20 ADD PUSH1 0x0 KECCAK256 PUSH1 0x1 ADD PUSH1 0x0 SWAP1 SLOAD SWAP1 PUSH2 0x100 EXP SWAP1 DIV PUSH1 0xFF AND ISZERO PUSH2 0x508 JUMPI PUSH1 0x40 MLOAD PUSH32 0x8C379A000000000000000000000000000000000000000000000000000000000 DUP2 MSTORE PUSH1 0x4 ADD PUSH2 0x4FF SWAP1 PUSH2 0xF76 JUMP JUMPDEST PUSH1 0x40 MLOAD DUP1 SWAP2 SUB SWAP1 REVERT JUMPDEST PUSH2 0x510 PUSH2 0xCC7 JUMP JUMPDEST PUSH1 0x0 PUSH1 0x2 PUSH1 0x0 DUP4 PUSH20 0xFFFFFFFFFFFFFFFFFFFFFFFFFFFFFFFFFFFFFFFF AND PUSH20 0xFFFFFFFFFFFFFFFFFFFFFFFFFFFFFFFFFFFFFFFF AND DUP2 MSTORE PUSH1 0x20 ADD SWAP1 DUP2 MSTORE PUSH1 0x20 ADD PUSH1 0x0 KECCAK256 PUSH1 0x0 ADD SLOAD GT PUSH2 0x595 JUMPI PUSH1 0x40 MLOAD PUSH32 0x8C379A000000000000000000000000000000000000000000000000000000000 DUP2 MSTORE PUSH1 0x4 ADD PUSH2 0x58C SWAP1 PUSH2 0xFB6 JUMP JUMPDEST PUSH1 0x40 MLOAD DUP1 SWAP2 SUB SWAP1 REVERT JUMPDEST PUSH1 0x0 PUSH1 0x2 PUSH1 0x0 PUSH2 0x5A3 PUSH2 0xCC7 JUMP JUMPDEST PUSH20 0xFFFFFFFFFFFFFFFFFFFFFFFFFFFFFFFFFFFFFFFF AND PUSH20 0xFFFFFFFFFFFFFFFFFFFFFFFFFFFFFFFFFFFFFFFF AND DUP2 MSTORE PUSH1 0x20 ADD SWAP1 DUP2 MSTORE PUSH1 0x20 ADD PUSH1 0x0 KECCAK256 SWAP1 POP PUSH2 0x5E7 PUSH2 0xCC7 JUMP JUMPDEST PUSH20 0xFFFFFFFFFFFFFFFFFFFFFFFFFFFFFFFFFFFFFFFF AND DUP5 PUSH20 0xFFFFFFFFFFFFFFFFFFFFFFFFFFFFFFFFFFFFFFFF AND EQ ISZERO PUSH2 0x655 JUMPI PUSH1 0x40 MLOAD PUSH32 0x8C379A000000000000000000000000000000000000000000000000000000000 DUP2 MSTORE PUSH1 0x4 ADD PUSH2 0x64C SWAP1 PUSH2 0xFD6 JUMP JUMPDEST PUSH1 0x40 MLOAD DUP1 SWAP2 SUB SWAP1 REVERT JUMPDEST JUMPDEST PUSH1 0x0 PUSH20 0xFFFFFFFFFFFFFFFFFFFFFFFFFFFFFFFFFFFFFFFF AND PUSH1 0x2 PUSH1 0x0 DUP7 PUSH20 0xFFFFFFFFFFFFFFFFFFFFFFFFFFFFFFFFFFFFFFFF AND PUSH20 0xFFFFFFFFFFFFFFFFFFFFFFFFFFFFFFFFFFFFFFFF AND DUP2 MSTORE PUSH1 0x20 ADD SWAP1 DUP2 MSTORE PUSH1 0x20 ADD PUSH1 0x0 KECCAK256 PUSH1 0x1 ADD PUSH1 0x1 SWAP1 SLOAD SWAP1 PUSH2 0x100 EXP SWAP1 DIV PUSH20 0xFFFFFFFFFFFFFFFFFFFFFFFFFFFFFFFFFFFFFFFF AND PUSH20 0xFFFFFFFFFFFFFFFFFFFFFFFFFFFFFFFFFFFFFFFF AND EQ PUSH2 0x7CC JUMPI PUSH1 0x2 PUSH1 0x0 DUP6 PUSH20 0xFFFFFFFFFFFFFFFFFFFFFFFFFFFFFFFFFFFFFFFF AND PUSH20 0xFFFFFFFFFFFFFFFFFFFFFFFFFFFFFFFFFFFFFFFF AND DUP2 MSTORE PUSH1 0x20 ADD SWAP1 DUP2 MSTORE PUSH1 0x20 ADD PUSH1 0x0 KECCAK256 PUSH1 0x1 ADD PUSH1 0x1 SWAP1 SLOAD SWAP1 PUSH2 0x100 EXP SWAP1 DIV PUSH20 0xFFFFFFFFFFFFFFFFFFFFFFFFFFFFFFFFFFFFFFFF AND SWAP4 POP PUSH2 0x759 PUSH2 0xCC7 JUMP JUMPDEST PUSH20 0xFFFFFFFFFFFFFFFFFFFFFFFFFFFFFFFFFFFFFFFF AND DUP5 PUSH20 0xFFFFFFFFFFFFFFFFFFFFFFFFFFFFFFFFFFFFFFFF AND EQ ISZERO PUSH2 0x7C7 JUMPI PUSH1 0x40 MLOAD PUSH32 0x8C379A000000000000000000000000000000000000000000000000000000000 DUP2 MSTORE PUSH1 0x4 ADD PUSH2 0x7BE SWAP1 PUSH2 0x1036 JUMP JUMPDEST PUSH1 0x40 MLOAD DUP1 SWAP2 SUB SWAP1 REVERT JUMPDEST PUSH2 0x656 JUMP JUMPDEST PUSH1 0x1 DUP2 PUSH1 0x1 ADD PUSH1 0x0 PUSH2 0x100 EXP DUP2 SLOAD DUP2 PUSH1 0xFF MUL NOT AND SWAP1 DUP4 ISZERO ISZERO MUL OR SWAP1 SSTORE POP DUP4 DUP2 PUSH1 0x1 ADD PUSH1 0x1 PUSH2 0x100 EXP DUP2 SLOAD DUP2 PUSH20 0xFFFFFFFFFFFFFFFFFFFFFFFFFFFFFFFFFFFFFFFF MUL NOT AND SWAP1 DUP4 PUSH20 0xFFFFFFFFFFFFFFFFFFFFFFFFFFFFFFFFFFFFFFFF AND MUL OR SWAP1 SSTORE POP PUSH1 0x0 PUSH1 0x2 PUSH1 0x0 DUP7 PUSH20 0xFFFFFFFFFFFFFFFFFFFFFFFFFFFFFFFFFFFFFFFF AND PUSH20 0xFFFFFFFFFFFFFFFFFFFFFFFFFFFFFFFFFFFFFFFF AND DUP2 MSTORE PUSH1 0x20 ADD SWAP1 DUP2 MSTORE PUSH1 0x20 ADD PUSH1 0x0 KECCAK256 SWAP1 POP DUP1 PUSH1 0x1 ADD PUSH1 0x0 SWAP1 SLOAD SWAP1 PUSH2 0x100 EXP SWAP1 DIV PUSH1 0xFF AND ISZERO PUSH2 0x8F8 JUMPI PUSH2 0x8C6 DUP3 PUSH1 0x0 ADD SLOAD PUSH1 0x3 DUP4 PUSH1 0x2 ADD SLOAD DUP2 SLOAD DUP2 LT PUSH2 0x8A6 JUMPI PUSH2 0x8A5 PUSH2 0x11E6 JUMP JUMPDEST JUMPDEST SWAP1 PUSH1 0x0 MSTORE PUSH1 0x20 PUSH1 0x0 KECCAK256 SWAP1 PUSH1 0x2 MUL ADD PUSH1 0x1 ADD SLOAD PUSH2 0xCB1 SWAP1 SWAP2 SWAP1 PUSH4 0xFFFFFFFF AND JUMP JUMPDEST PUSH1 0x3 DUP3 PUSH1 0x2 ADD SLOAD DUP2 SLOAD DUP2 LT PUSH2 0x8DE JUMPI PUSH2 0x8DD PUSH2 0x11E6 JUMP JUMPDEST JUMPDEST SWAP1 PUSH1 0x0 MSTORE PUSH1 0x20 PUSH1 0x0 KECCAK256 SWAP1 PUSH1 0x2 MUL ADD PUSH1 0x1 ADD DUP2 SWAP1 SSTORE POP PUSH2 0x91C JUMP JUMPDEST PUSH2 0x913 DUP3 PUSH1 0x0 ADD SLOAD DUP3 PUSH1 0x0 ADD SLOAD PUSH2 0xCB1 SWAP1 SWAP2 SWAP1 PUSH4 0xFFFFFFFF AND JUMP JUMPDEST DUP2 PUSH1 0x0 ADD DUP2 SWAP1 SSTORE POP JUMPDEST DUP5 PUSH20 0xFFFFFFFFFFFFFFFFFFFFFFFFFFFFFFFFFFFFFFFF AND PUSH2 0x93B PUSH2 0xCC7 JUMP JUMPDEST PUSH20 0xFFFFFFFFFFFFFFFFFFFFFFFFFFFFFFFFFFFFFFFF AND PUSH32 0x4CE9EF2C99D761D69230B0E3381F4C6016333B2E27D32B3E379A96B5D2C69232 PUSH1 0x40 MLOAD PUSH1 0x40 MLOAD DUP1 SWAP2 SUB SWAP1 LOG3 POP POP POP POP POP JUMP JUMPDEST PUSH1 0x1 PUSH1 0x0 SWAP1 SLOAD SWAP1 PUSH2 0x100 EXP SWAP1 DIV PUSH20 0xFFFFFFFFFFFFFFFFFFFFFFFFFFFFFFFFFFFFFFFF AND PUSH20 0xFFFFFFFFFFFFFFFFFFFFFFFFFFFFFFFFFFFFFFFF AND PUSH2 0x9C5 PUSH2 0xCC7 JUMP JUMPDEST PUSH20 0xFFFFFFFFFFFFFFFFFFFFFFFFFFFFFFFFFFFFFFFF AND EQ PUSH2 0xA1B JUMPI PUSH1 0x40 MLOAD PUSH32 0x8C379A000000000000000000000000000000000000000000000000000000000 DUP2 MSTORE PUSH1 0x4 ADD PUSH2 0xA12 SWAP1 PUSH2 0xF96 JUMP JUMPDEST PUSH1 0x40 MLOAD DUP1 SWAP2 SUB SWAP1 REVERT JUMPDEST DUP1 PUSH1 0x2 PUSH1 0x0 DUP3 PUSH20 0xFFFFFFFFFFFFFFFFFFFFFFFFFFFFFFFFFFFFFFFF AND PUSH20 0xFFFFFFFFFFFFFFFFFFFFFFFFFFFFFFFFFFFFFFFF AND DUP2 MSTORE PUSH1 0x20 ADD SWAP1 DUP2 MSTORE PUSH1 0x20 ADD PUSH1 0x0 KECCAK256 PUSH1 0x1 ADD PUSH1 0x0 SWAP1 SLOAD SWAP1 PUSH2 0x100 EXP SWAP1 DIV PUSH1 0xFF AND ISZERO PUSH2 0xAAC JUMPI PUSH1 0x40 MLOAD PUSH32 0x8C379A000000000000000000000000000000000000000000000000000000000 DUP2 MSTORE PUSH1 0x4 ADD PUSH2 0xAA3 SWAP1 PUSH2 0xF76 JUMP JUMPDEST PUSH1 0x40 MLOAD DUP1 SWAP2 SUB SWAP1 REVERT JUMPDEST PUSH1 0x0 PUSH1 0x2 PUSH1 0x0 DUP5 PUSH20 0xFFFFFFFFFFFFFFFFFFFFFFFFFFFFFFFFFFFFFFFF AND PUSH20 0xFFFFFFFFFFFFFFFFFFFFFFFFFFFFFFFFFFFFFFFF AND DUP2 MSTORE PUSH1 0x20 ADD SWAP1 DUP2 MSTORE PUSH1 0x20 ADD PUSH1 0x0 KECCAK256 PUSH1 0x0 ADD SLOAD EQ PUSH2 0xB31 JUMPI PUSH1 0x40 MLOAD PUSH32 0x8C379A000000000000000000000000000000000000000000000000000000000 DUP2 MSTORE PUSH1 0x4 ADD PUSH2 0xB28 SWAP1 PUSH2 0xFF6 JUMP JUMPDEST PUSH1 0x40 MLOAD DUP1 SWAP2 SUB SWAP1 REVERT JUMPDEST PUSH1 0x1 PUSH1 0x2 PUSH1 0x0 DUP5 PUSH20 0xFFFFFFFFFFFFFFFFFFFFFFFFFFFFFFFFFFFFFFFF AND PUSH20 0xFFFFFFFFFFFFFFFFFFFFFFFFFFFFFFFFFFFFFFFF AND DUP2 MSTORE PUSH1 0x20 ADD SWAP1 DUP2 MSTORE PUSH1 0x20 ADD PUSH1 0x0 KECCAK256 PUSH1 0x0 ADD DUP2 SWAP1 SSTORE POP POP POP JUMP JUMPDEST PUSH1 0x2 PUSH1 0x20 MSTORE DUP1 PUSH1 0x0 MSTORE PUSH1 0x40 PUSH1 0x0 KECCAK256 PUSH1 0x0 SWAP2 POP SWAP1 POP DUP1 PUSH1 0x0 ADD SLOAD SWAP1 DUP1 PUSH1 0x1 ADD PUSH1 0x0 SWAP1 SLOAD SWAP1 PUSH2 0x100 EXP SWAP1 DIV PUSH1 0xFF AND SWAP1 DUP1 PUSH1 0x1 ADD PUSH1 0x1 SWAP1 SLOAD SWAP1 PUSH2 0x100 EXP SWAP1 DIV PUSH20 0xFFFFFFFFFFFFFFFFFFFFFFFFFFFFFFFFFFFFFFFF AND SWAP1 DUP1 PUSH1 0x2 ADD SLOAD SWAP1 POP DUP5 JUMP JUMPDEST PUSH1 0x60 PUSH1 0x0 DUP3 PUSH1 0x0 SLOAD DUP2 LT PUSH2 0xC23 JUMPI PUSH1 0x40 MLOAD PUSH32 0x8C379A000000000000000000000000000000000000000000000000000000000 DUP2 MSTORE PUSH1 0x4 ADD PUSH2 0xC1A SWAP1 PUSH2 0x1016 JUMP JUMPDEST PUSH1 0x40 MLOAD DUP1 SWAP2 SUB SWAP1 REVERT JUMPDEST PUSH2 0xC51 PUSH1 0x3 DUP6 DUP2 SLOAD DUP2 LT PUSH2 0xC3A JUMPI PUSH2 0xC39 PUSH2 0x11E6 JUMP JUMPDEST JUMPDEST SWAP1 PUSH1 0x0 MSTORE PUSH1 0x20 PUSH1 0x0 KECCAK256 SWAP1 PUSH1 0x2 MUL ADD PUSH1 0x0 ADD SLOAD PUSH2 0xCCF JUMP JUMPDEST PUSH1 0x3 DUP6 DUP2 SLOAD DUP2 LT PUSH2 0xC65 JUMPI PUSH2 0xC64 PUSH2 0x11E6 JUMP JUMPDEST JUMPDEST SWAP1 PUSH1 0x0 MSTORE PUSH1 0x20 PUSH1 0x0 KECCAK256 SWAP1 PUSH1 0x2 MUL ADD PUSH1 0x1 ADD SLOAD DUP1 SWAP4 POP DUP2 SWAP5 POP POP POP POP SWAP2 POP SWAP2 JUMP JUMPDEST PUSH1 0x1 PUSH1 0x0 SWAP1 SLOAD SWAP1 PUSH2 0x100 EXP SWAP1 DIV PUSH20 0xFFFFFFFFFFFFFFFFFFFFFFFFFFFFFFFFFFFFFFFF AND DUP2 JUMP JUMPDEST PUSH1 0x0 SLOAD DUP2 JUMP JUMPDEST PUSH1 0x0 DUP2 DUP4 PUSH2 0xCBF SWAP2 SWAP1 PUSH2 0x10D2 JUMP JUMPDEST SWAP1 POP SWAP3 SWAP2 POP POP JUMP JUMPDEST PUSH1 0x0 CALLER SWAP1 POP SWAP1 JUMP JUMPDEST PUSH1 0x60 DUP2 PUSH1 0x40 MLOAD PUSH1 0x20 ADD PUSH2 0xCE2 SWAP2 SWAP1 PUSH2 0xEEE JUMP JUMPDEST PUSH1 0x40 MLOAD PUSH1 0x20 DUP2 DUP4 SUB SUB DUP2 MSTORE SWAP1 PUSH1 0x40 MSTORE SWAP1 POP SWAP2 SWAP1 POP JUMP JUMPDEST PUSH1 0x0 DUP2 CALLDATALOAD SWAP1 POP PUSH2 0xD07 DUP2 PUSH2 0x1454 JUMP JUMPDEST SWAP3 SWAP2 POP POP JUMP JUMPDEST PUSH1 0x0 DUP2 CALLDATALOAD SWAP1 POP PUSH2 0xD1C DUP2 PUSH2 0x146B JUMP JUMPDEST SWAP3 SWAP2 POP POP JUMP JUMPDEST PUSH1 0x0 PUSH1 0x20 DUP3 DUP5 SUB SLT ISZERO PUSH2 0xD38 JUMPI PUSH2 0xD37 PUSH2 0x1215 JUMP JUMPDEST JUMPDEST PUSH1 0x0 PUSH2 0xD46 DUP5 DUP3 DUP6 ADD PUSH2 0xCF8 JUMP JUMPDEST SWAP2 POP POP SWAP3 SWAP2 POP POP JUMP JUMPDEST PUSH1 0x0 PUSH1 0x20 DUP3 DUP5 SUB SLT ISZERO PUSH2 0xD65 JUMPI PUSH2 0xD64 PUSH2 0x1215 JUMP JUMPDEST JUMPDEST PUSH1 0x0 PUSH2 0xD73 DUP5 DUP3 DUP6 ADD PUSH2 0xD0D JUMP JUMPDEST SWAP2 POP POP SWAP3 SWAP2 POP POP JUMP JUMPDEST PUSH2 0xD85 DUP2 PUSH2 0x1128 JUMP JUMPDEST DUP3 MSTORE POP POP JUMP JUMPDEST PUSH2 0xD94 DUP2 PUSH2 0x113A JUMP JUMPDEST DUP3 MSTORE POP POP JUMP JUMPDEST PUSH2 0xDAB PUSH2 0xDA6 DUP3 PUSH2 0x1146 JUMP JUMPDEST PUSH2 0x11AD JUMP JUMPDEST DUP3 MSTORE POP POP JUMP JUMPDEST PUSH1 0x0 PUSH2 0xDBC DUP3 PUSH2 0x10B6 JUMP JUMPDEST PUSH2 0xDC6 DUP2 DUP6 PUSH2 0x10C1 JUMP JUMPDEST SWAP4 POP PUSH2 0xDD6 DUP2 DUP6 PUSH1 0x20 DUP7 ADD PUSH2 0x117A JUMP JUMPDEST PUSH2 0xDDF DUP2 PUSH2 0x121A JUMP JUMPDEST DUP5 ADD SWAP2 POP POP SWAP3 SWAP2 POP POP JUMP JUMPDEST PUSH1 0x0 PUSH2 0xDF7 PUSH1 0x2A DUP4 PUSH2 0x10C1 JUMP JUMPDEST SWAP2 POP PUSH2 0xE02 DUP3 PUSH2 0x122B JUMP JUMPDEST PUSH1 0x40 DUP3 ADD SWAP1 POP SWAP2 SWAP1 POP JUMP JUMPDEST PUSH1 0x0 PUSH2 0xE1A PUSH1 0x36 DUP4 PUSH2 0x10C1 JUMP JUMPDEST SWAP2 POP PUSH2 0xE25 DUP3 PUSH2 0x127A JUMP JUMPDEST PUSH1 0x40 DUP3 ADD SWAP1 POP SWAP2 SWAP1 POP JUMP JUMPDEST PUSH1 0x0 PUSH2 0xE3D PUSH1 0x31 DUP4 PUSH2 0x10C1 JUMP JUMPDEST SWAP2 POP PUSH2 0xE48 DUP3 PUSH2 0x12C9 JUMP JUMPDEST PUSH1 0x40 DUP3 ADD SWAP1 POP SWAP2 SWAP1 POP JUMP JUMPDEST PUSH1 0x0 PUSH2 0xE60 PUSH1 0x2D DUP4 PUSH2 0x10C1 JUMP JUMPDEST SWAP2 POP PUSH2 0xE6B DUP3 PUSH2 0x1318 JUMP JUMPDEST PUSH1 0x40 DUP3 ADD SWAP1 POP SWAP2 SWAP1 POP JUMP JUMPDEST PUSH1 0x0 PUSH2 0xE83 PUSH1 0x30 DUP4 PUSH2 0x10C1 JUMP JUMPDEST SWAP2 POP PUSH2 0xE8E DUP3 PUSH2 0x1367 JUMP JUMPDEST PUSH1 0x40 DUP3 ADD SWAP1 POP SWAP2 SWAP1 POP JUMP JUMPDEST PUSH1 0x0 PUSH2 0xEA6 PUSH1 0x2B DUP4 PUSH2 0x10C1 JUMP JUMPDEST SWAP2 POP PUSH2 0xEB1 DUP3 PUSH2 0x13B6 JUMP JUMPDEST PUSH1 0x40 DUP3 ADD SWAP1 POP SWAP2 SWAP1 POP JUMP JUMPDEST PUSH1 0x0 PUSH2 0xEC9 PUSH1 0x2F DUP4 PUSH2 0x10C1 JUMP JUMPDEST SWAP2 POP PUSH2 0xED4 DUP3 PUSH2 0x1405 JUMP JUMPDEST PUSH1 0x40 DUP3 ADD SWAP1 POP SWAP2 SWAP1 POP JUMP JUMPDEST PUSH2 0xEE8 DUP2 PUSH2 0x1170 JUMP JUMPDEST DUP3 MSTORE POP POP JUMP JUMPDEST PUSH1 0x0 PUSH2 0xEFA DUP3 DUP5 PUSH2 0xD9A JUMP JUMPDEST PUSH1 0x20 DUP3 ADD SWAP2 POP DUP2 SWAP1 POP SWAP3 SWAP2 POP POP JUMP JUMPDEST PUSH1 0x0 PUSH1 0x20 DUP3 ADD SWAP1 POP PUSH2 0xF1E PUSH1 0x0 DUP4 ADD DUP5 PUSH2 0xD7C JUMP JUMPDEST SWAP3 SWAP2 POP POP JUMP JUMPDEST PUSH1 0x0 PUSH1 0x20 DUP3 ADD SWAP1 POP DUP2 DUP2 SUB PUSH1 0x0 DUP4 ADD MSTORE PUSH2 0xF3E DUP2 DUP5 PUSH2 0xDB1 JUMP JUMPDEST SWAP1 POP SWAP3 SWAP2 POP POP JUMP JUMPDEST PUSH1 0x0 PUSH1 0x40 DUP3 ADD SWAP1 POP DUP2 DUP2 SUB PUSH1 0x0 DUP4 ADD MSTORE PUSH2 0xF60 DUP2 DUP6 PUSH2 0xDB1 JUMP JUMPDEST SWAP1 POP PUSH2 0xF6F PUSH1 0x20 DUP4 ADD DUP5 PUSH2 0xEDF JUMP JUMPDEST SWAP4 SWAP3 POP POP POP JUMP JUMPDEST PUSH1 0x0 PUSH1 0x20 DUP3 ADD SWAP1 POP DUP2 DUP2 SUB PUSH1 0x0 DUP4 ADD MSTORE PUSH2 0xF8F DUP2 PUSH2 0xDEA JUMP JUMPDEST SWAP1 POP SWAP2 SWAP1 POP JUMP JUMPDEST PUSH1 0x0 PUSH1 0x20 DUP3 ADD SWAP1 POP DUP2 DUP2 SUB PUSH1 0x0 DUP4 ADD MSTORE PUSH2 0xFAF DUP2 PUSH2 0xE0D JUMP JUMPDEST SWAP1 POP SWAP2 SWAP1 POP JUMP JUMPDEST PUSH1 0x0 PUSH1 0x20 DUP3 ADD SWAP1 POP DUP2 DUP2 SUB PUSH1 0x0 DUP4 ADD MSTORE PUSH2 0xFCF DUP2 PUSH2 0xE30 JUMP JUMPDEST SWAP1 POP SWAP2 SWAP1 POP JUMP JUMPDEST PUSH1 0x0 PUSH1 0x20 DUP3 ADD SWAP1 POP DUP2 DUP2 SUB PUSH1 0x0 DUP4 ADD MSTORE PUSH2 0xFEF DUP2 PUSH2 0xE53 JUMP JUMPDEST SWAP1 POP SWAP2 SWAP1 POP JUMP JUMPDEST PUSH1 0x0 PUSH1 0x20 DUP3 ADD SWAP1 POP DUP2 DUP2 SUB PUSH1 0x0 DUP4 ADD MSTORE PUSH2 0x100F DUP2 PUSH2 0xE76 JUMP JUMPDEST SWAP1 POP SWAP2 SWAP1 POP JUMP JUMPDEST PUSH1 0x0 PUSH1 0x20 DUP3 ADD SWAP1 POP DUP2 DUP2 SUB PUSH1 0x0 DUP4 ADD MSTORE PUSH2 0x102F DUP2 PUSH2 0xE99 JUMP JUMPDEST SWAP1 POP SWAP2 SWAP1 POP JUMP JUMPDEST PUSH1 0x0 PUSH1 0x20 DUP3 ADD SWAP1 POP DUP2 DUP2 SUB PUSH1 0x0 DUP4 ADD MSTORE PUSH2 0x104F DUP2 PUSH2 0xEBC JUMP JUMPDEST SWAP1 POP SWAP2 SWAP1 POP JUMP JUMPDEST PUSH1 0x0 PUSH1 0x20 DUP3 ADD SWAP1 POP PUSH2 0x106B PUSH1 0x0 DUP4 ADD DUP5 PUSH2 0xEDF JUMP JUMPDEST SWAP3 SWAP2 POP POP JUMP JUMPDEST PUSH1 0x0 PUSH1 0x80 DUP3 ADD SWAP1 POP PUSH2 0x1086 PUSH1 0x0 DUP4 ADD DUP8 PUSH2 0xEDF JUMP JUMPDEST PUSH2 0x1093 PUSH1 0x20 DUP4 ADD DUP7 PUSH2 0xD8B JUMP JUMPDEST PUSH2 0x10A0 PUSH1 0x40 DUP4 ADD DUP6 PUSH2 0xD7C JUMP JUMPDEST PUSH2 0x10AD PUSH1 0x60 DUP4 ADD DUP5 PUSH2 0xEDF JUMP JUMPDEST SWAP6 SWAP5 POP POP POP POP POP JUMP JUMPDEST PUSH1 0x0 DUP2 MLOAD SWAP1 POP SWAP2 SWAP1 POP JUMP JUMPDEST PUSH1 0x0 DUP3 DUP3 MSTORE PUSH1 0x20 DUP3 ADD SWAP1 POP SWAP3 SWAP2 POP POP JUMP JUMPDEST PUSH1 0x0 PUSH2 0x10DD DUP3 PUSH2 0x1170 JUMP JUMPDEST SWAP2 POP PUSH2 0x10E8 DUP4 PUSH2 0x1170 JUMP JUMPDEST SWAP3 POP DUP3 PUSH32 0xFFFFFFFFFFFFFFFFFFFFFFFFFFFFFFFFFFFFFFFFFFFFFFFFFFFFFFFFFFFFFFFF SUB DUP3 GT ISZERO PUSH2 0x111D JUMPI PUSH2 0x111C PUSH2 0x11B7 JUMP JUMPDEST JUMPDEST DUP3 DUP3 ADD SWAP1 POP SWAP3 SWAP2 POP POP JUMP JUMPDEST PUSH1 0x0 PUSH2 0x1133 DUP3 PUSH2 0x1150 JUMP JUMPDEST SWAP1 POP SWAP2 SWAP1 POP JUMP JUMPDEST PUSH1 0x0 DUP2 ISZERO ISZERO SWAP1 POP SWAP2 SWAP1 POP JUMP JUMPDEST PUSH1 0x0 DUP2 SWAP1 POP SWAP2 SWAP1 POP JUMP JUMPDEST PUSH1 0x0 PUSH20 0xFFFFFFFFFFFFFFFFFFFFFFFFFFFFFFFFFFFFFFFF DUP3 AND SWAP1 POP SWAP2 SWAP1 POP JUMP JUMPDEST PUSH1 0x0 DUP2 SWAP1 POP SWAP2 SWAP1 POP JUMP JUMPDEST PUSH1 0x0 JUMPDEST DUP4 DUP2 LT ISZERO PUSH2 0x1198 JUMPI DUP1 DUP3 ADD MLOAD DUP2 DUP5 ADD MSTORE PUSH1 0x20 DUP2 ADD SWAP1 POP PUSH2 0x117D JUMP JUMPDEST DUP4 DUP2 GT ISZERO PUSH2 0x11A7 JUMPI PUSH1 0x0 DUP5 DUP5 ADD MSTORE JUMPDEST POP POP POP POP JUMP JUMPDEST PUSH1 0x0 DUP2 SWAP1 POP SWAP2 SWAP1 POP JUMP JUMPDEST PUSH32 0x4E487B7100000000000000000000000000000000000000000000000000000000 PUSH1 0x0 MSTORE PUSH1 0x11 PUSH1 0x4 MSTORE PUSH1 0x24 PUSH1 0x0 REVERT JUMPDEST PUSH32 0x4E487B7100000000000000000000000000000000000000000000000000000000 PUSH1 0x0 MSTORE PUSH1 0x32 PUSH1 0x4 MSTORE PUSH1 0x24 PUSH1 0x0 REVERT JUMPDEST PUSH1 0x0 DUP1 REVERT JUMPDEST PUSH1 0x0 PUSH1 0x1F NOT PUSH1 0x1F DUP4 ADD AND SWAP1 POP SWAP2 SWAP1 POP JUMP JUMPDEST PUSH32 0x53696D706C65566F74696E673A2054686520766F7465722068617320616C7265 PUSH1 0x0 DUP3 ADD MSTORE PUSH32 0x61647920766F7465642E00000000000000000000000000000000000000000000 PUSH1 0x20 DUP3 ADD MSTORE POP JUMP JUMPDEST PUSH32 0x53696D706C65566F74696E673A204F6E6C79206368616972506572736F6E2063 PUSH1 0x0 DUP3 ADD MSTORE PUSH32 0x616E206769766520726967687420746F20766F74652E00000000000000000000 PUSH1 0x20 DUP3 ADD MSTORE POP JUMP JUMPDEST PUSH32 0x53696D706C65566F74696E673A2043616C6C657220646F6573206E6F74206861 PUSH1 0x0 DUP3 ADD MSTORE PUSH32 0x766520726967687420746F20766F74652E000000000000000000000000000000 PUSH1 0x20 DUP3 ADD MSTORE POP JUMP JUMPDEST PUSH32 0x53696D706C65566F74696E673A2053656C662D64656C65676174696F6E206973 PUSH1 0x0 DUP3 ADD MSTORE PUSH32 0x206E6F7420616C6C6F7765642E00000000000000000000000000000000000000 PUSH1 0x20 DUP3 ADD MSTORE POP JUMP JUMPDEST PUSH32 0x53696D706C65566F74696E673A204164647265737320616C7265616479206861 PUSH1 0x0 DUP3 ADD MSTORE PUSH32 0x7320726967687420746F20766F74652E00000000000000000000000000000000 PUSH1 0x20 DUP3 ADD MSTORE POP JUMP JUMPDEST PUSH32 0x53696D706C65566F74696E673A2050726F706F73616C20696E646578206F7574 PUSH1 0x0 DUP3 ADD MSTORE PUSH32 0x206F6620626F756E64732E000000000000000000000000000000000000000000 PUSH1 0x20 DUP3 ADD MSTORE POP JUMP JUMPDEST PUSH32 0x53696D706C65566F74696E673A2044656C65676174696F6E2074726163657320 PUSH1 0x0 DUP3 ADD MSTORE PUSH32 0x6261636B20746F2063616C6C65722E0000000000000000000000000000000000 PUSH1 0x20 DUP3 ADD MSTORE POP JUMP JUMPDEST PUSH2 0x145D DUP2 PUSH2 0x1128 JUMP JUMPDEST DUP2 EQ PUSH2 0x1468 JUMPI PUSH1 0x0 DUP1 REVERT JUMPDEST POP JUMP JUMPDEST PUSH2 0x1474 DUP2 PUSH2 0x1170 JUMP JUMPDEST DUP2 EQ PUSH2 0x147F JUMPI PUSH1 0x0 DUP1 REVERT JUMPDEST POP JUMP INVALID LOG2 PUSH5 0x6970667358 0x22 SLT KECCAK256 LOG0 SWAP10 0xC7 EXTCODECOPY PC COINBASE 0xCD LT 0xB9 CALLDATACOPY PUSH30 0x6E6C0FCBA0BDF7A48AA9A5FD89E09E55F2A5ACD06E64736F6C6343000807 STOP CALLER "
				},
				"gasEstimates": {
					"creation": {
						"codeDepositCost": "1060800",
						"executionCost": "infinite",
						"totalCost": "infinite"
					},
					"external": {
						"chairPerson()": "2558",
						"delegate(address)": "infinite",
						"getProposal(uint256)": "infinite",
						"giveRightToVote(address)": "29413",
						"proposalCount()": "2495",
						"vote(uint256)": "infinite",
						"voters(address)": "infinite",
						"winnerNames()": "infinite"
					},
					"internal": {
						"bytes32ToString(bytes32)": "infinite",
						"computeWinningProposals()": "infinite",
						"stringToBytes32(string memory)": "infinite"
					}
				},
				"methodIdentifiers": {
					"chairPerson()": "d4d4b5ac",
					"delegate(address)": "5c19a95c",
					"getProposal(uint256)": "c7f758a8",
					"giveRightToVote(address)": "9e7b8d61",
					"proposalCount()": "da35c664",
					"vote(uint256)": "0121b93f",
					"voters(address)": "a3ec138d",
					"winnerNames()": "28be18ee"
				}
			},
			"storageLayout": {
				"storage": [
					{
						"astId": 25,
						"contract": "contracts/SimpleVoting.sol:SimpleVoting",
						"label": "proposalCount",
						"offset": 0,
						"slot": "0",
						"type": "t_uint256"
					},
					{
						"astId": 27,
						"contract": "contracts/SimpleVoting.sol:SimpleVoting",
						"label": "chairPerson",
						"offset": 0,
						"slot": "1",
						"type": "t_address"
					},
					{
						"astId": 32,
						"contract": "contracts/SimpleVoting.sol:SimpleVoting",
						"label": "voters",
						"offset": 0,
						"slot": "2",
						"type": "t_mapping(t_address,t_struct(Voter)18_storage)"
					},
					{
						"astId": 36,
						"contract": "contracts/SimpleVoting.sol:SimpleVoting",
						"label": "proposals",
						"offset": 0,
						"slot": "3",
						"type": "t_array(t_struct(Proposal)23_storage)dyn_storage"
					},
					{
						"astId": 39,
						"contract": "contracts/SimpleVoting.sol:SimpleVoting",
						"label": "winningProposals",
						"offset": 0,
						"slot": "4",
						"type": "t_array(t_uint256)dyn_storage"
					}
				],
				"types": {
					"t_address": {
						"encoding": "inplace",
						"label": "address",
						"numberOfBytes": "20"
					},
					"t_array(t_struct(Proposal)23_storage)dyn_storage": {
						"base": "t_struct(Proposal)23_storage",
						"encoding": "dynamic_array",
						"label": "struct SimpleVoting.Proposal[]",
						"numberOfBytes": "32"
					},
					"t_array(t_uint256)dyn_storage": {
						"base": "t_uint256",
						"encoding": "dynamic_array",
						"label": "uint256[]",
						"numberOfBytes": "32"
					},
					"t_bool": {
						"encoding": "inplace",
						"label": "bool",
						"numberOfBytes": "1"
					},
					"t_bytes32": {
						"encoding": "inplace",
						"label": "bytes32",
						"numberOfBytes": "32"
					},
					"t_mapping(t_address,t_struct(Voter)18_storage)": {
						"encoding": "mapping",
						"key": "t_address",
						"label": "mapping(address => struct SimpleVoting.Voter)",
						"numberOfBytes": "32",
						"value": "t_struct(Voter)18_storage"
					},
					"t_struct(Proposal)23_storage": {
						"encoding": "inplace",
						"label": "struct SimpleVoting.Proposal",
						"members": [
							{
								"astId": 20,
								"contract": "contracts/SimpleVoting.sol:SimpleVoting",
								"label": "name",
								"offset": 0,
								"slot": "0",
								"type": "t_bytes32"
							},
							{
								"astId": 22,
								"contract": "contracts/SimpleVoting.sol:SimpleVoting",
								"label": "voteCount",
								"offset": 0,
								"slot": "1",
								"type": "t_uint256"
							}
						],
						"numberOfBytes": "64"
					},
					"t_struct(Voter)18_storage": {
						"encoding": "inplace",
						"label": "struct SimpleVoting.Voter",
						"members": [
							{
								"astId": 11,
								"contract": "contracts/SimpleVoting.sol:SimpleVoting",
								"label": "weight",
								"offset": 0,
								"slot": "0",
								"type": "t_uint256"
							},
							{
								"astId": 13,
								"contract": "contracts/SimpleVoting.sol:SimpleVoting",
								"label": "voted",
								"offset": 0,
								"slot": "1",
								"type": "t_bool"
							},
							{
								"astId": 15,
								"contract": "contracts/SimpleVoting.sol:SimpleVoting",
								"label": "delegate",
								"offset": 1,
								"slot": "1",
								"type": "t_address"
							},
							{
								"astId": 17,
								"contract": "contracts/SimpleVoting.sol:SimpleVoting",
								"label": "vote",
								"offset": 0,
								"slot": "2",
								"type": "t_uint256"
							}
						],
						"numberOfBytes": "96"
					},
					"t_uint256": {
						"encoding": "inplace",
						"label": "uint256",
						"numberOfBytes": "32"
					}
				}
			},
			"userdoc": {
				"kind": "user",
				"methods": {},
				"version": 1
			}
		}
	}
}