{
	"contracts/SimpleVoting.sol": {
		"SimpleVoting": {
			"abi": [
				{
					"inputs": [
						{
							"internalType": "string[]",
							"name": "proposalNames",
							"type": "string[]"
						}
					],
					"stateMutability": "nonpayable",
					"type": "constructor"
				},
				{
					"anonymous": false,
					"inputs": [
						{
							"indexed": true,
							"internalType": "address",
							"name": "_from",
							"type": "address"
						},
						{
							"indexed": true,
							"internalType": "address",
							"name": "_to",
							"type": "address"
						}
					],
					"name": "DelegationSuccessful",
					"type": "event"
				},
				{
					"anonymous": false,
					"inputs": [
						{
							"indexed": true,
							"internalType": "uint256",
							"name": "_proposal",
							"type": "uint256"
						},
						{
							"indexed": true,
							"internalType": "address",
							"name": "_voter",
							"type": "address"
						},
						{
							"indexed": false,
							"internalType": "uint256",
							"name": "_votesAdded",
							"type": "uint256"
						}
					],
					"name": "VoteCasted",
					"type": "event"
				},
				{
					"anonymous": false,
					"inputs": [
						{
							"indexed": false,
							"internalType": "address",
							"name": "_chairPerson",
							"type": "address"
						},
						{
							"indexed": false,
							"internalType": "uint256",
							"name": "_proposalCount",
							"type": "uint256"
						}
					],
					"name": "VotingStarted",
					"type": "event"
				},
				{
					"anonymous": false,
					"inputs": [
						{
							"indexed": true,
							"internalType": "address",
							"name": "_from",
							"type": "address"
						},
						{
							"indexed": true,
							"internalType": "address",
							"name": "_to",
							"type": "address"
						}
					],
					"name": "chairPersonChanged",
					"type": "event"
				},
				{
					"inputs": [],
					"name": "chairPerson",
					"outputs": [
						{
							"internalType": "address",
							"name": "",
							"type": "address"
						}
					],
					"stateMutability": "view",
					"type": "function"
				},
				{
					"inputs": [],
					"name": "computeWinningProposals",
					"outputs": [],
					"stateMutability": "nonpayable",
					"type": "function"
				},
				{
					"inputs": [
						{
							"internalType": "address",
							"name": "_to",
							"type": "address"
						}
					],
					"name": "delegate",
					"outputs": [],
					"stateMutability": "nonpayable",
					"type": "function"
				},
				{
					"inputs": [
						{
							"internalType": "uint256",
							"name": "_proposalIndex",
							"type": "uint256"
						}
					],
					"name": "getProposal",
					"outputs": [
						{
							"internalType": "string",
							"name": "proposalName_",
							"type": "string"
						},
						{
							"internalType": "uint256",
							"name": "voteCount_",
							"type": "uint256"
						}
					],
					"stateMutability": "view",
					"type": "function"
				},
				{
					"inputs": [],
					"name": "getWinningProposals",
					"outputs": [
						{
							"internalType": "uint256[]",
							"name": "",
							"type": "uint256[]"
						}
					],
					"stateMutability": "view",
					"type": "function"
				},
				{
					"inputs": [
						{
							"internalType": "address",
							"name": "_voter",
							"type": "address"
						}
					],
					"name": "giveRightToVote",
					"outputs": [],
					"stateMutability": "nonpayable",
					"type": "function"
				},
				{
					"inputs": [],
					"name": "proposalCount",
					"outputs": [
						{
							"internalType": "uint256",
							"name": "",
							"type": "uint256"
						}
					],
					"stateMutability": "view",
					"type": "function"
				},
				{
					"inputs": [
						{
							"internalType": "address",
							"name": "_to",
							"type": "address"
						}
					],
					"name": "transferChairpersonship",
					"outputs": [],
					"stateMutability": "nonpayable",
					"type": "function"
				},
				{
					"inputs": [
						{
							"internalType": "uint256",
							"name": "proposal",
							"type": "uint256"
						}
					],
					"name": "vote",
					"outputs": [],
					"stateMutability": "nonpayable",
					"type": "function"
				},
				{
					"inputs": [
						{
							"internalType": "address",
							"name": "",
							"type": "address"
						}
					],
					"name": "voters",
					"outputs": [
						{
							"internalType": "uint256",
							"name": "weight",
							"type": "uint256"
						},
						{
							"internalType": "bool",
							"name": "voted",
							"type": "bool"
						},
						{
							"internalType": "address",
							"name": "delegate",
							"type": "address"
						},
						{
							"internalType": "uint256",
							"name": "vote",
							"type": "uint256"
						}
					],
					"stateMutability": "view",
					"type": "function"
				},
				{
					"inputs": [],
					"name": "winnerNames",
					"outputs": [
						{
							"internalType": "string",
							"name": "winnerNames_",
							"type": "string"
						}
					],
					"stateMutability": "view",
					"type": "function"
				}
			],
			"devdoc": {
				"details": "Implements voting process along with vote delegation",
				"kind": "dev",
				"methods": {
					"computeWinningProposals()": {
						"details": "Computes the winning proposal taking all previous votes into account."
					},
					"constructor": {
						"details": "Create a new ballot to choose one of 'proposalNames'.",
						"params": {
							"proposalNames": "array of names (string) of proposals"
						}
					},
					"delegate(address)": {
						"details": "Delegate your vote to the voter 'to'.",
						"params": {
							"_to": "address to which vote is delegated"
						}
					},
					"getProposal(uint256)": {
						"details": "Returns the name(string) and vote count proposal present at the passed proposal index.",
						"params": {
							"_proposalIndex": "index of the desired proposal in the 'proposals' array."
						},
						"returns": {
							"proposalName_": "",
							"voteCount_": " "
						}
					},
					"getWinningProposals()": {
						"details": "Return ALL the winning proposals (proposals with maximum votes)",
						"returns": {
							"_0": "winningProposals [] array containing All the winning proposals"
						}
					},
					"giveRightToVote(address)": {
						"details": "Give 'voter' the right to vote on this ballot. May only be called by 'chairPerson'.",
						"params": {
							"_voter": "address of voter"
						}
					},
					"vote(uint256)": {
						"details": "Give your vote (including votes delegated to you) to proposal 'proposals[proposal].name'.",
						"params": {
							"proposal": "index of proposal in the proposals array"
						}
					},
					"winnerNames()": {
						"details": "Converts the name/s of the winning proposals from bytes32 to string and returns them",
						"returns": {
							"winnerNames_": "the name/s of the winner"
						}
					}
				},
				"title": "Ballot",
				"version": 1
			},
			"evm": {
				"assembly": "    /* \"contracts/SimpleVoting.sol\":372:9484  contract SimpleVoting is Context {... */\n  mstore(0x40, 0x80)\n    /* \"contracts/SimpleVoting.sol\":3621:4201  constructor(string[] memory proposalNames) {... */\n  callvalue\n  dup1\n  iszero\n  tag_1\n  jumpi\n  0x00\n  dup1\n  revert\ntag_1:\n  pop\n  mload(0x40)\n  sub(codesize, bytecodeSize)\n  dup1\n  bytecodeSize\n  dup4\n  codecopy\n  dup2\n  dup2\n  add\n  0x40\n  mstore\n  dup2\n  add\n  swap1\n  tag_2\n  swap2\n  swap1\n  tag_3\n  jump\t// in\ntag_2:\n    /* \"contracts/SimpleVoting.sol\":3689:3701  _msgSender() */\n  tag_6\n    /* \"contracts/SimpleVoting.sol\":3689:3699  _msgSender */\n  shl(0x20, tag_7)\n    /* \"contracts/SimpleVoting.sol\":3689:3701  _msgSender() */\n  0x20\n  shr\n  jump\t// in\ntag_6:\n    /* \"contracts/SimpleVoting.sol\":3675:3686  chairPerson */\n  0x01\n  0x00\n    /* \"contracts/SimpleVoting.sol\":3675:3701  chairPerson = _msgSender() */\n  0x0100\n  exp\n  dup2\n  sload\n  dup2\n  0xffffffffffffffffffffffffffffffffffffffff\n  mul\n  not\n  and\n  swap1\n  dup4\n  0xffffffffffffffffffffffffffffffffffffffff\n  and\n  mul\n  or\n  swap1\n  sstore\n  pop\n    /* \"contracts/SimpleVoting.sol\":3741:3742  1 */\n  0x01\n    /* \"contracts/SimpleVoting.sol\":3712:3718  voters */\n  0x02\n    /* \"contracts/SimpleVoting.sol\":3712:3731  voters[chairPerson] */\n  0x00\n    /* \"contracts/SimpleVoting.sol\":3719:3730  chairPerson */\n  0x01\n  0x00\n  swap1\n  sload\n  swap1\n  0x0100\n  exp\n  swap1\n  div\n  0xffffffffffffffffffffffffffffffffffffffff\n  and\n    /* \"contracts/SimpleVoting.sol\":3712:3731  voters[chairPerson] */\n  0xffffffffffffffffffffffffffffffffffffffff\n  and\n  0xffffffffffffffffffffffffffffffffffffffff\n  and\n  dup2\n  mstore\n  0x20\n  add\n  swap1\n  dup2\n  mstore\n  0x20\n  add\n  0x00\n  keccak256\n    /* \"contracts/SimpleVoting.sol\":3712:3738  voters[chairPerson].weight */\n  0x00\n  add\n    /* \"contracts/SimpleVoting.sol\":3712:3742  voters[chairPerson].weight = 1 */\n  dup2\n  swap1\n  sstore\n  pop\n    /* \"contracts/SimpleVoting.sol\":3769:3782  proposalNames */\n  dup1\n    /* \"contracts/SimpleVoting.sol\":3769:3789  proposalNames.length */\n  mload\n    /* \"contracts/SimpleVoting.sol\":3753:3766  proposalCount */\n  0x00\n    /* \"contracts/SimpleVoting.sol\":3753:3789  proposalCount = proposalNames.length */\n  dup2\n  swap1\n  sstore\n  pop\n    /* \"contracts/SimpleVoting.sol\":3805:3811  uint i */\n  0x00\n    /* \"contracts/SimpleVoting.sol\":3800:4114  for (uint i = 0; i < proposalCount; i = i. add(1)) {... */\ntag_8:\n    /* \"contracts/SimpleVoting.sol\":3821:3834  proposalCount */\n  sload(0x00)\n    /* \"contracts/SimpleVoting.sol\":3817:3818  i */\n  dup2\n    /* \"contracts/SimpleVoting.sol\":3817:3834  i < proposalCount */\n  lt\n    /* \"contracts/SimpleVoting.sol\":3800:4114  for (uint i = 0; i < proposalCount; i = i. add(1)) {... */\n  iszero\n  tag_9\n  jumpi\n    /* \"contracts/SimpleVoting.sol\":3989:4013  Proposal memory proposal */\n  0x00\n    /* \"contracts/SimpleVoting.sol\":4016:4063  Proposal (stringToBytes32(proposalNames[i]), 0) */\n  mload(0x40)\n  dup1\n  0x40\n  add\n  0x40\n  mstore\n  dup1\n    /* \"contracts/SimpleVoting.sol\":4026:4059  stringToBytes32(proposalNames[i]) */\n  tag_11\n    /* \"contracts/SimpleVoting.sol\":4042:4055  proposalNames */\n  dup6\n    /* \"contracts/SimpleVoting.sol\":4056:4057  i */\n  dup6\n    /* \"contracts/SimpleVoting.sol\":4042:4058  proposalNames[i] */\n  dup2\n  mload\n  dup2\n  lt\n  tag_12\n  jumpi\n  tag_13\n  tag_14\n  jump\t// in\ntag_13:\ntag_12:\n  0x20\n  mul\n  0x20\n  add\n  add\n  mload\n    /* \"contracts/SimpleVoting.sol\":4026:4041  stringToBytes32 */\n  shl(0x20, tag_15)\n    /* \"contracts/SimpleVoting.sol\":4026:4059  stringToBytes32(proposalNames[i]) */\n  0x20\n  shr\n  jump\t// in\ntag_11:\n    /* \"contracts/SimpleVoting.sol\":4016:4063  Proposal (stringToBytes32(proposalNames[i]), 0) */\n  dup2\n  mstore\n  0x20\n  add\n    /* \"contracts/SimpleVoting.sol\":4061:4062  0 */\n  0x00\n    /* \"contracts/SimpleVoting.sol\":4016:4063  Proposal (stringToBytes32(proposalNames[i]), 0) */\n  dup2\n  mstore\n  pop\n    /* \"contracts/SimpleVoting.sol\":3989:4063  Proposal memory proposal = Proposal (stringToBytes32(proposalNames[i]), 0) */\n  swap1\n  pop\n    /* \"contracts/SimpleVoting.sol\":4078:4087  proposals */\n  0x03\n    /* \"contracts/SimpleVoting.sol\":4093:4101  proposal */\n  dup2\n    /* \"contracts/SimpleVoting.sol\":4078:4102  proposals.push(proposal) */\n  swap1\n  dup1\n  0x01\n  dup2\n  sload\n  add\n  dup1\n  dup3\n  sstore\n  dup1\n  swap2\n  pop\n  pop\n  0x01\n  swap1\n  sub\n  swap1\n  0x00\n  mstore\n  keccak256(0x00, 0x20)\n  swap1\n  0x02\n  mul\n  add\n  0x00\n  swap1\n  swap2\n  swap1\n  swap2\n  swap1\n  swap2\n  pop\n  0x00\n  dup3\n  add\n  mload\n  dup2\n  0x00\n  add\n  sstore\n  0x20\n  dup3\n  add\n  mload\n  dup2\n  0x01\n  add\n  sstore\n  pop\n  pop\n    /* \"contracts/SimpleVoting.sol\":3851:4114  {... */\n  pop\n    /* \"contracts/SimpleVoting.sol\":3840:3849  i. add(1) */\n  tag_17\n    /* \"contracts/SimpleVoting.sol\":3847:3848  1 */\n  0x01\n    /* \"contracts/SimpleVoting.sol\":3840:3841  i */\n  dup3\n    /* \"contracts/SimpleVoting.sol\":3840:3846  i. add */\n  or(tag_0_57, shl(0x20, tag_18))\n  swap1\n    /* \"contracts/SimpleVoting.sol\":3840:3849  i. add(1) */\n  swap2\n  swap1\n  0x20\n  shr\n  jump\t// in\ntag_17:\n    /* \"contracts/SimpleVoting.sol\":3836:3849  i = i. add(1) */\n  swap1\n  pop\n    /* \"contracts/SimpleVoting.sol\":3800:4114  for (uint i = 0; i < proposalCount; i = i. add(1)) {... */\n  jump(tag_8)\ntag_9:\n  pop\n    /* \"contracts/SimpleVoting.sol\":4129:4171  VotingStarted (chairPerson, proposalCount) */\n  0xf318b16025413645144ed83c64d2d30f089c10bc263cab68a036c00f011827be\n    /* \"contracts/SimpleVoting.sol\":4144:4155  chairPerson */\n  0x01\n  0x00\n  swap1\n  sload\n  swap1\n  0x0100\n  exp\n  swap1\n  div\n  0xffffffffffffffffffffffffffffffffffffffff\n  and\n    /* \"contracts/SimpleVoting.sol\":4157:4170  proposalCount */\n  sload(0x00)\n    /* \"contracts/SimpleVoting.sol\":4129:4171  VotingStarted (chairPerson, proposalCount) */\n  mload(0x40)\n  tag_19\n  swap3\n  swap2\n  swap1\n  tag_20\n  jump\t// in\ntag_19:\n  mload(0x40)\n  dup1\n  swap2\n  sub\n  swap1\n  log1\n    /* \"contracts/SimpleVoting.sol\":3621:4201  constructor(string[] memory proposalNames) {... */\n  pop\n    /* \"contracts/SimpleVoting.sol\":372:9484  contract SimpleVoting is Context {... */\n  jump(tag_21)\n    /* \"https://github.com/OpenZeppelin/openzeppelin-contracts/blob/master/contracts/utils/Context.sol\":640:736  function _msgSender() internal view virtual returns (address) {... */\ntag_7:\n    /* \"https://github.com/OpenZeppelin/openzeppelin-contracts/blob/master/contracts/utils/Context.sol\":693:700  address */\n  0x00\n    /* \"https://github.com/OpenZeppelin/openzeppelin-contracts/blob/master/contracts/utils/Context.sol\":719:729  msg.sender */\n  caller\n    /* \"https://github.com/OpenZeppelin/openzeppelin-contracts/blob/master/contracts/utils/Context.sol\":712:729  return msg.sender */\n  swap1\n  pop\n    /* \"https://github.com/OpenZeppelin/openzeppelin-contracts/blob/master/contracts/utils/Context.sol\":640:736  function _msgSender() internal view virtual returns (address) {... */\n  swap1\n  jump\t// out\n    /* \"contracts/SimpleVoting.sol\":9007:9163  function stringToBytes32 (string memory str) ... */\ntag_15:\n    /* \"contracts/SimpleVoting.sol\":9092:9099  bytes32 */\n  0x00\n    /* \"contracts/SimpleVoting.sol\":9150:9153  str */\n  dup2\n    /* \"contracts/SimpleVoting.sol\":9133:9154  abi.encodePacked(str) */\n  add(0x20, mload(0x40))\n  tag_24\n  swap2\n  swap1\n  tag_25\n  jump\t// in\ntag_24:\n  mload(0x40)\n  0x20\n  dup2\n  dup4\n  sub\n  sub\n  dup2\n  mstore\n  swap1\n  0x40\n  mstore\n    /* \"contracts/SimpleVoting.sol\":9125:9155  bytes32(abi.encodePacked(str)) */\n  tag_26\n  swap1\n  tag_27\n  jump\t// in\ntag_26:\n    /* \"contracts/SimpleVoting.sol\":9118:9155  return bytes32(abi.encodePacked(str)) */\n  swap1\n  pop\n    /* \"contracts/SimpleVoting.sol\":9007:9163  function stringToBytes32 (string memory str) ... */\n  swap2\n  swap1\n  pop\n  jump\t// out\n    /* \"https://github.com/OpenZeppelin/openzeppelin-contracts/blob/master/contracts/utils/math/SafeMath.sol\":2755:2851  function add(uint256 a, uint256 b) internal pure returns (uint256) {... */\ntag_18:\n    /* \"https://github.com/OpenZeppelin/openzeppelin-contracts/blob/master/contracts/utils/math/SafeMath.sol\":2813:2820  uint256 */\n  0x00\n    /* \"https://github.com/OpenZeppelin/openzeppelin-contracts/blob/master/contracts/utils/math/SafeMath.sol\":2843:2844  b */\n  dup2\n    /* \"https://github.com/OpenZeppelin/openzeppelin-contracts/blob/master/contracts/utils/math/SafeMath.sol\":2839:2840  a */\n  dup4\n    /* \"https://github.com/OpenZeppelin/openzeppelin-contracts/blob/master/contracts/utils/math/SafeMath.sol\":2839:2844  a + b */\n  tag_29\n  swap2\n  swap1\n  tag_30\n  jump\t// in\ntag_29:\n    /* \"https://github.com/OpenZeppelin/openzeppelin-contracts/blob/master/contracts/utils/math/SafeMath.sol\":2832:2844  return a + b */\n  swap1\n  pop\n    /* \"https://github.com/OpenZeppelin/openzeppelin-contracts/blob/master/contracts/utils/math/SafeMath.sol\":2755:2851  function add(uint256 a, uint256 b) internal pure returns (uint256) {... */\n  swap3\n  swap2\n  pop\n  pop\n  jump\t// out\n    /* \"#utility.yul\":7:82   */\ntag_31:\n    /* \"#utility.yul\":40:46   */\n  0x00\n    /* \"#utility.yul\":73:75   */\n  0x40\n    /* \"#utility.yul\":67:76   */\n  mload\n    /* \"#utility.yul\":57:76   */\n  swap1\n  pop\n    /* \"#utility.yul\":7:82   */\n  swap1\n  jump\t// out\n    /* \"#utility.yul\":88:205   */\ntag_32:\n    /* \"#utility.yul\":197:198   */\n  0x00\n    /* \"#utility.yul\":194:195   */\n  dup1\n    /* \"#utility.yul\":187:199   */\n  revert\n    /* \"#utility.yul\":211:328   */\ntag_33:\n    /* \"#utility.yul\":320:321   */\n  0x00\n    /* \"#utility.yul\":317:318   */\n  dup1\n    /* \"#utility.yul\":310:322   */\n  revert\n    /* \"#utility.yul\":334:451   */\ntag_34:\n    /* \"#utility.yul\":443:444   */\n  0x00\n    /* \"#utility.yul\":440:441   */\n  dup1\n    /* \"#utility.yul\":433:445   */\n  revert\n    /* \"#utility.yul\":457:559   */\ntag_35:\n    /* \"#utility.yul\":498:504   */\n  0x00\n    /* \"#utility.yul\":549:551   */\n  0x1f\n    /* \"#utility.yul\":545:552   */\n  not\n    /* \"#utility.yul\":540:542   */\n  0x1f\n    /* \"#utility.yul\":533:538   */\n  dup4\n    /* \"#utility.yul\":529:543   */\n  add\n    /* \"#utility.yul\":525:553   */\n  and\n    /* \"#utility.yul\":515:553   */\n  swap1\n  pop\n    /* \"#utility.yul\":457:559   */\n  swap2\n  swap1\n  pop\n  jump\t// out\n    /* \"#utility.yul\":565:745   */\ntag_36:\n    /* \"#utility.yul\":613:690   */\n  0x4e487b7100000000000000000000000000000000000000000000000000000000\n    /* \"#utility.yul\":610:611   */\n  0x00\n    /* \"#utility.yul\":603:691   */\n  mstore\n    /* \"#utility.yul\":710:714   */\n  0x41\n    /* \"#utility.yul\":707:708   */\n  0x04\n    /* \"#utility.yul\":700:715   */\n  mstore\n    /* \"#utility.yul\":734:738   */\n  0x24\n    /* \"#utility.yul\":731:732   */\n  0x00\n    /* \"#utility.yul\":724:739   */\n  revert\n    /* \"#utility.yul\":751:1032   */\ntag_37:\n    /* \"#utility.yul\":834:861   */\n  tag_70\n    /* \"#utility.yul\":856:860   */\n  dup3\n    /* \"#utility.yul\":834:861   */\n  tag_35\n  jump\t// in\ntag_70:\n    /* \"#utility.yul\":826:832   */\n  dup2\n    /* \"#utility.yul\":822:862   */\n  add\n    /* \"#utility.yul\":964:970   */\n  dup2\n    /* \"#utility.yul\":952:962   */\n  dup2\n    /* \"#utility.yul\":949:971   */\n  lt\n    /* \"#utility.yul\":928:946   */\n  0xffffffffffffffff\n    /* \"#utility.yul\":916:926   */\n  dup3\n    /* \"#utility.yul\":913:947   */\n  gt\n    /* \"#utility.yul\":910:972   */\n  or\n    /* \"#utility.yul\":907:995   */\n  iszero\n  tag_71\n  jumpi\n    /* \"#utility.yul\":975:993   */\n  tag_72\n  tag_36\n  jump\t// in\ntag_72:\n    /* \"#utility.yul\":907:995   */\ntag_71:\n    /* \"#utility.yul\":1015:1025   */\n  dup1\n    /* \"#utility.yul\":1011:1013   */\n  0x40\n    /* \"#utility.yul\":1004:1026   */\n  mstore\n    /* \"#utility.yul\":794:1032   */\n  pop\n    /* \"#utility.yul\":751:1032   */\n  pop\n  pop\n  jump\t// out\n    /* \"#utility.yul\":1038:1167   */\ntag_38:\n    /* \"#utility.yul\":1072:1078   */\n  0x00\n    /* \"#utility.yul\":1099:1119   */\n  tag_74\n  tag_31\n  jump\t// in\ntag_74:\n    /* \"#utility.yul\":1089:1119   */\n  swap1\n  pop\n    /* \"#utility.yul\":1128:1161   */\n  tag_75\n    /* \"#utility.yul\":1156:1160   */\n  dup3\n    /* \"#utility.yul\":1148:1154   */\n  dup3\n    /* \"#utility.yul\":1128:1161   */\n  tag_37\n  jump\t// in\ntag_75:\n    /* \"#utility.yul\":1038:1167   */\n  swap2\n  swap1\n  pop\n  jump\t// out\n    /* \"#utility.yul\":1173:1494   */\ntag_39:\n    /* \"#utility.yul\":1260:1264   */\n  0x00\n    /* \"#utility.yul\":1350:1368   */\n  0xffffffffffffffff\n    /* \"#utility.yul\":1342:1348   */\n  dup3\n    /* \"#utility.yul\":1339:1369   */\n  gt\n    /* \"#utility.yul\":1336:1392   */\n  iszero\n  tag_77\n  jumpi\n    /* \"#utility.yul\":1372:1390   */\n  tag_78\n  tag_36\n  jump\t// in\ntag_78:\n    /* \"#utility.yul\":1336:1392   */\ntag_77:\n    /* \"#utility.yul\":1422:1426   */\n  0x20\n    /* \"#utility.yul\":1414:1420   */\n  dup3\n    /* \"#utility.yul\":1410:1427   */\n  mul\n    /* \"#utility.yul\":1402:1427   */\n  swap1\n  pop\n    /* \"#utility.yul\":1482:1486   */\n  0x20\n    /* \"#utility.yul\":1476:1480   */\n  dup2\n    /* \"#utility.yul\":1472:1487   */\n  add\n    /* \"#utility.yul\":1464:1487   */\n  swap1\n  pop\n    /* \"#utility.yul\":1173:1494   */\n  swap2\n  swap1\n  pop\n  jump\t// out\n    /* \"#utility.yul\":1500:1617   */\ntag_40:\n    /* \"#utility.yul\":1609:1610   */\n  0x00\n    /* \"#utility.yul\":1606:1607   */\n  dup1\n    /* \"#utility.yul\":1599:1611   */\n  revert\n    /* \"#utility.yul\":1623:1740   */\ntag_41:\n    /* \"#utility.yul\":1732:1733   */\n  0x00\n    /* \"#utility.yul\":1729:1730   */\n  dup1\n    /* \"#utility.yul\":1722:1734   */\n  revert\n    /* \"#utility.yul\":1746:2054   */\ntag_42:\n    /* \"#utility.yul\":1808:1812   */\n  0x00\n    /* \"#utility.yul\":1898:1916   */\n  0xffffffffffffffff\n    /* \"#utility.yul\":1890:1896   */\n  dup3\n    /* \"#utility.yul\":1887:1917   */\n  gt\n    /* \"#utility.yul\":1884:1940   */\n  iszero\n  tag_82\n  jumpi\n    /* \"#utility.yul\":1920:1938   */\n  tag_83\n  tag_36\n  jump\t// in\ntag_83:\n    /* \"#utility.yul\":1884:1940   */\ntag_82:\n    /* \"#utility.yul\":1958:1987   */\n  tag_84\n    /* \"#utility.yul\":1980:1986   */\n  dup3\n    /* \"#utility.yul\":1958:1987   */\n  tag_35\n  jump\t// in\ntag_84:\n    /* \"#utility.yul\":1950:1987   */\n  swap1\n  pop\n    /* \"#utility.yul\":2042:2046   */\n  0x20\n    /* \"#utility.yul\":2036:2040   */\n  dup2\n    /* \"#utility.yul\":2032:2047   */\n  add\n    /* \"#utility.yul\":2024:2047   */\n  swap1\n  pop\n    /* \"#utility.yul\":1746:2054   */\n  swap2\n  swap1\n  pop\n  jump\t// out\n    /* \"#utility.yul\":2060:2367   */\ntag_43:\n    /* \"#utility.yul\":2128:2129   */\n  0x00\n    /* \"#utility.yul\":2138:2251   */\ntag_86:\n    /* \"#utility.yul\":2152:2158   */\n  dup4\n    /* \"#utility.yul\":2149:2150   */\n  dup2\n    /* \"#utility.yul\":2146:2159   */\n  lt\n    /* \"#utility.yul\":2138:2251   */\n  iszero\n  tag_88\n  jumpi\n    /* \"#utility.yul\":2237:2238   */\n  dup1\n    /* \"#utility.yul\":2232:2235   */\n  dup3\n    /* \"#utility.yul\":2228:2239   */\n  add\n    /* \"#utility.yul\":2222:2240   */\n  mload\n    /* \"#utility.yul\":2218:2219   */\n  dup2\n    /* \"#utility.yul\":2213:2216   */\n  dup5\n    /* \"#utility.yul\":2209:2220   */\n  add\n    /* \"#utility.yul\":2202:2241   */\n  mstore\n    /* \"#utility.yul\":2174:2176   */\n  0x20\n    /* \"#utility.yul\":2171:2172   */\n  dup2\n    /* \"#utility.yul\":2167:2177   */\n  add\n    /* \"#utility.yul\":2162:2177   */\n  swap1\n  pop\n    /* \"#utility.yul\":2138:2251   */\n  jump(tag_86)\ntag_88:\n    /* \"#utility.yul\":2269:2275   */\n  dup4\n    /* \"#utility.yul\":2266:2267   */\n  dup2\n    /* \"#utility.yul\":2263:2276   */\n  gt\n    /* \"#utility.yul\":2260:2361   */\n  iszero\n  tag_89\n  jumpi\n    /* \"#utility.yul\":2349:2350   */\n  0x00\n    /* \"#utility.yul\":2340:2346   */\n  dup5\n    /* \"#utility.yul\":2335:2338   */\n  dup5\n    /* \"#utility.yul\":2331:2347   */\n  add\n    /* \"#utility.yul\":2324:2351   */\n  mstore\n    /* \"#utility.yul\":2260:2361   */\ntag_89:\n    /* \"#utility.yul\":2109:2367   */\n  pop\n    /* \"#utility.yul\":2060:2367   */\n  pop\n  pop\n  pop\n  jump\t// out\n    /* \"#utility.yul\":2373:2794   */\ntag_44:\n    /* \"#utility.yul\":2462:2467   */\n  0x00\n    /* \"#utility.yul\":2487:2553   */\n  tag_91\n    /* \"#utility.yul\":2503:2552   */\n  tag_92\n    /* \"#utility.yul\":2545:2551   */\n  dup5\n    /* \"#utility.yul\":2503:2552   */\n  tag_42\n  jump\t// in\ntag_92:\n    /* \"#utility.yul\":2487:2553   */\n  tag_38\n  jump\t// in\ntag_91:\n    /* \"#utility.yul\":2478:2553   */\n  swap1\n  pop\n    /* \"#utility.yul\":2576:2582   */\n  dup3\n    /* \"#utility.yul\":2569:2574   */\n  dup2\n    /* \"#utility.yul\":2562:2583   */\n  mstore\n    /* \"#utility.yul\":2614:2618   */\n  0x20\n    /* \"#utility.yul\":2607:2612   */\n  dup2\n    /* \"#utility.yul\":2603:2619   */\n  add\n    /* \"#utility.yul\":2652:2655   */\n  dup5\n    /* \"#utility.yul\":2643:2649   */\n  dup5\n    /* \"#utility.yul\":2638:2641   */\n  dup5\n    /* \"#utility.yul\":2634:2650   */\n  add\n    /* \"#utility.yul\":2631:2656   */\n  gt\n    /* \"#utility.yul\":2628:2740   */\n  iszero\n  tag_93\n  jumpi\n    /* \"#utility.yul\":2659:2738   */\n  tag_94\n  tag_41\n  jump\t// in\ntag_94:\n    /* \"#utility.yul\":2628:2740   */\ntag_93:\n    /* \"#utility.yul\":2749:2788   */\n  tag_95\n    /* \"#utility.yul\":2781:2787   */\n  dup5\n    /* \"#utility.yul\":2776:2779   */\n  dup3\n    /* \"#utility.yul\":2771:2774   */\n  dup6\n    /* \"#utility.yul\":2749:2788   */\n  tag_43\n  jump\t// in\ntag_95:\n    /* \"#utility.yul\":2468:2794   */\n  pop\n    /* \"#utility.yul\":2373:2794   */\n  swap4\n  swap3\n  pop\n  pop\n  pop\n  jump\t// out\n    /* \"#utility.yul\":2814:3169   */\ntag_45:\n    /* \"#utility.yul\":2881:2886   */\n  0x00\n    /* \"#utility.yul\":2930:2933   */\n  dup3\n    /* \"#utility.yul\":2923:2927   */\n  0x1f\n    /* \"#utility.yul\":2915:2921   */\n  dup4\n    /* \"#utility.yul\":2911:2928   */\n  add\n    /* \"#utility.yul\":2907:2934   */\n  slt\n    /* \"#utility.yul\":2897:3019   */\n  tag_97\n  jumpi\n    /* \"#utility.yul\":2938:3017   */\n  tag_98\n  tag_34\n  jump\t// in\ntag_98:\n    /* \"#utility.yul\":2897:3019   */\ntag_97:\n    /* \"#utility.yul\":3048:3054   */\n  dup2\n    /* \"#utility.yul\":3042:3055   */\n  mload\n    /* \"#utility.yul\":3073:3163   */\n  tag_99\n    /* \"#utility.yul\":3159:3162   */\n  dup5\n    /* \"#utility.yul\":3151:3157   */\n  dup3\n    /* \"#utility.yul\":3144:3148   */\n  0x20\n    /* \"#utility.yul\":3136:3142   */\n  dup7\n    /* \"#utility.yul\":3132:3149   */\n  add\n    /* \"#utility.yul\":3073:3163   */\n  tag_44\n  jump\t// in\ntag_99:\n    /* \"#utility.yul\":3064:3163   */\n  swap2\n  pop\n    /* \"#utility.yul\":2887:3169   */\n  pop\n    /* \"#utility.yul\":2814:3169   */\n  swap3\n  swap2\n  pop\n  pop\n  jump\t// out\n    /* \"#utility.yul\":3191:4151   */\ntag_46:\n    /* \"#utility.yul\":3308:3313   */\n  0x00\n    /* \"#utility.yul\":3333:3424   */\n  tag_101\n    /* \"#utility.yul\":3349:3423   */\n  tag_102\n    /* \"#utility.yul\":3416:3422   */\n  dup5\n    /* \"#utility.yul\":3349:3423   */\n  tag_39\n  jump\t// in\ntag_102:\n    /* \"#utility.yul\":3333:3424   */\n  tag_38\n  jump\t// in\ntag_101:\n    /* \"#utility.yul\":3324:3424   */\n  swap1\n  pop\n    /* \"#utility.yul\":3444:3449   */\n  dup1\n    /* \"#utility.yul\":3473:3479   */\n  dup4\n    /* \"#utility.yul\":3466:3471   */\n  dup3\n    /* \"#utility.yul\":3459:3480   */\n  mstore\n    /* \"#utility.yul\":3507:3511   */\n  0x20\n    /* \"#utility.yul\":3500:3505   */\n  dup3\n    /* \"#utility.yul\":3496:3512   */\n  add\n    /* \"#utility.yul\":3489:3512   */\n  swap1\n  pop\n    /* \"#utility.yul\":3560:3564   */\n  0x20\n    /* \"#utility.yul\":3552:3558   */\n  dup5\n    /* \"#utility.yul\":3548:3565   */\n  mul\n    /* \"#utility.yul\":3540:3546   */\n  dup4\n    /* \"#utility.yul\":3536:3566   */\n  add\n    /* \"#utility.yul\":3589:3592   */\n  dup6\n    /* \"#utility.yul\":3581:3587   */\n  dup2\n    /* \"#utility.yul\":3578:3593   */\n  gt\n    /* \"#utility.yul\":3575:3697   */\n  iszero\n  tag_103\n  jumpi\n    /* \"#utility.yul\":3608:3687   */\n  tag_104\n  tag_40\n  jump\t// in\ntag_104:\n    /* \"#utility.yul\":3575:3697   */\ntag_103:\n    /* \"#utility.yul\":3723:3729   */\n  dup4\n    /* \"#utility.yul\":3706:4145   */\ntag_105:\n    /* \"#utility.yul\":3740:3746   */\n  dup2\n    /* \"#utility.yul\":3735:3738   */\n  dup2\n    /* \"#utility.yul\":3732:3747   */\n  lt\n    /* \"#utility.yul\":3706:4145   */\n  iszero\n  tag_107\n  jumpi\n    /* \"#utility.yul\":3822:3825   */\n  dup1\n    /* \"#utility.yul\":3816:3826   */\n  mload\n    /* \"#utility.yul\":3858:3876   */\n  0xffffffffffffffff\n    /* \"#utility.yul\":3845:3856   */\n  dup2\n    /* \"#utility.yul\":3842:3877   */\n  gt\n    /* \"#utility.yul\":3839:3961   */\n  iszero\n  tag_108\n  jumpi\n    /* \"#utility.yul\":3880:3959   */\n  tag_109\n  tag_34\n  jump\t// in\ntag_109:\n    /* \"#utility.yul\":3839:3961   */\ntag_108:\n    /* \"#utility.yul\":4004:4015   */\n  dup1\n    /* \"#utility.yul\":3996:4002   */\n  dup7\n    /* \"#utility.yul\":3992:4016   */\n  add\n    /* \"#utility.yul\":4042:4100   */\n  tag_110\n    /* \"#utility.yul\":4096:4099   */\n  dup10\n    /* \"#utility.yul\":4084:4094   */\n  dup3\n    /* \"#utility.yul\":4042:4100   */\n  tag_45\n  jump\t// in\ntag_110:\n    /* \"#utility.yul\":4037:4040   */\n  dup6\n    /* \"#utility.yul\":4030:4101   */\n  mstore\n    /* \"#utility.yul\":4130:4134   */\n  0x20\n    /* \"#utility.yul\":4125:4128   */\n  dup6\n    /* \"#utility.yul\":4121:4135   */\n  add\n    /* \"#utility.yul\":4114:4135   */\n  swap5\n  pop\n    /* \"#utility.yul\":3782:4145   */\n  pop\n  pop\n    /* \"#utility.yul\":3766:3770   */\n  0x20\n    /* \"#utility.yul\":3761:3764   */\n  dup2\n    /* \"#utility.yul\":3757:3771   */\n  add\n    /* \"#utility.yul\":3750:3771   */\n  swap1\n  pop\n    /* \"#utility.yul\":3706:4145   */\n  jump(tag_105)\ntag_107:\n    /* \"#utility.yul\":3710:3731   */\n  pop\n    /* \"#utility.yul\":3314:4151   */\n  pop\n  pop\n    /* \"#utility.yul\":3191:4151   */\n  swap4\n  swap3\n  pop\n  pop\n  pop\n  jump\t// out\n    /* \"#utility.yul\":4173:4578   */\ntag_47:\n    /* \"#utility.yul\":4265:4270   */\n  0x00\n    /* \"#utility.yul\":4314:4317   */\n  dup3\n    /* \"#utility.yul\":4307:4311   */\n  0x1f\n    /* \"#utility.yul\":4299:4305   */\n  dup4\n    /* \"#utility.yul\":4295:4312   */\n  add\n    /* \"#utility.yul\":4291:4318   */\n  slt\n    /* \"#utility.yul\":4281:4403   */\n  tag_112\n  jumpi\n    /* \"#utility.yul\":4322:4401   */\n  tag_113\n  tag_34\n  jump\t// in\ntag_113:\n    /* \"#utility.yul\":4281:4403   */\ntag_112:\n    /* \"#utility.yul\":4432:4438   */\n  dup2\n    /* \"#utility.yul\":4426:4439   */\n  mload\n    /* \"#utility.yul\":4457:4572   */\n  tag_114\n    /* \"#utility.yul\":4568:4571   */\n  dup5\n    /* \"#utility.yul\":4560:4566   */\n  dup3\n    /* \"#utility.yul\":4553:4557   */\n  0x20\n    /* \"#utility.yul\":4545:4551   */\n  dup7\n    /* \"#utility.yul\":4541:4558   */\n  add\n    /* \"#utility.yul\":4457:4572   */\n  tag_46\n  jump\t// in\ntag_114:\n    /* \"#utility.yul\":4448:4572   */\n  swap2\n  pop\n    /* \"#utility.yul\":4271:4578   */\n  pop\n    /* \"#utility.yul\":4173:4578   */\n  swap3\n  swap2\n  pop\n  pop\n  jump\t// out\n    /* \"#utility.yul\":4584:5158   */\ntag_3:\n    /* \"#utility.yul\":4689:4695   */\n  0x00\n    /* \"#utility.yul\":4738:4740   */\n  0x20\n    /* \"#utility.yul\":4726:4735   */\n  dup3\n    /* \"#utility.yul\":4717:4724   */\n  dup5\n    /* \"#utility.yul\":4713:4736   */\n  sub\n    /* \"#utility.yul\":4709:4741   */\n  slt\n    /* \"#utility.yul\":4706:4825   */\n  iszero\n  tag_116\n  jumpi\n    /* \"#utility.yul\":4744:4823   */\n  tag_117\n  tag_32\n  jump\t// in\ntag_117:\n    /* \"#utility.yul\":4706:4825   */\ntag_116:\n    /* \"#utility.yul\":4885:4886   */\n  0x00\n    /* \"#utility.yul\":4874:4883   */\n  dup3\n    /* \"#utility.yul\":4870:4887   */\n  add\n    /* \"#utility.yul\":4864:4888   */\n  mload\n    /* \"#utility.yul\":4915:4933   */\n  0xffffffffffffffff\n    /* \"#utility.yul\":4907:4913   */\n  dup2\n    /* \"#utility.yul\":4904:4934   */\n  gt\n    /* \"#utility.yul\":4901:5018   */\n  iszero\n  tag_118\n  jumpi\n    /* \"#utility.yul\":4937:5016   */\n  tag_119\n  tag_33\n  jump\t// in\ntag_119:\n    /* \"#utility.yul\":4901:5018   */\ntag_118:\n    /* \"#utility.yul\":5042:5141   */\n  tag_120\n    /* \"#utility.yul\":5133:5140   */\n  dup5\n    /* \"#utility.yul\":5124:5130   */\n  dup3\n    /* \"#utility.yul\":5113:5122   */\n  dup6\n    /* \"#utility.yul\":5109:5131   */\n  add\n    /* \"#utility.yul\":5042:5141   */\n  tag_47\n  jump\t// in\ntag_120:\n    /* \"#utility.yul\":5032:5141   */\n  swap2\n  pop\n    /* \"#utility.yul\":4835:5151   */\n  pop\n    /* \"#utility.yul\":4584:5158   */\n  swap3\n  swap2\n  pop\n  pop\n  jump\t// out\n    /* \"#utility.yul\":5164:5344   */\ntag_14:\n    /* \"#utility.yul\":5212:5289   */\n  0x4e487b7100000000000000000000000000000000000000000000000000000000\n    /* \"#utility.yul\":5209:5210   */\n  0x00\n    /* \"#utility.yul\":5202:5290   */\n  mstore\n    /* \"#utility.yul\":5309:5313   */\n  0x32\n    /* \"#utility.yul\":5306:5307   */\n  0x04\n    /* \"#utility.yul\":5299:5314   */\n  mstore\n    /* \"#utility.yul\":5333:5337   */\n  0x24\n    /* \"#utility.yul\":5330:5331   */\n  0x00\n    /* \"#utility.yul\":5323:5338   */\n  revert\n    /* \"#utility.yul\":5350:5476   */\ntag_48:\n    /* \"#utility.yul\":5387:5394   */\n  0x00\n    /* \"#utility.yul\":5427:5469   */\n  0xffffffffffffffffffffffffffffffffffffffff\n    /* \"#utility.yul\":5420:5425   */\n  dup3\n    /* \"#utility.yul\":5416:5470   */\n  and\n    /* \"#utility.yul\":5405:5470   */\n  swap1\n  pop\n    /* \"#utility.yul\":5350:5476   */\n  swap2\n  swap1\n  pop\n  jump\t// out\n    /* \"#utility.yul\":5482:5578   */\ntag_49:\n    /* \"#utility.yul\":5519:5526   */\n  0x00\n    /* \"#utility.yul\":5548:5572   */\n  tag_124\n    /* \"#utility.yul\":5566:5571   */\n  dup3\n    /* \"#utility.yul\":5548:5572   */\n  tag_48\n  jump\t// in\ntag_124:\n    /* \"#utility.yul\":5537:5572   */\n  swap1\n  pop\n    /* \"#utility.yul\":5482:5578   */\n  swap2\n  swap1\n  pop\n  jump\t// out\n    /* \"#utility.yul\":5584:5702   */\ntag_50:\n    /* \"#utility.yul\":5671:5695   */\n  tag_126\n    /* \"#utility.yul\":5689:5694   */\n  dup2\n    /* \"#utility.yul\":5671:5695   */\n  tag_49\n  jump\t// in\ntag_126:\n    /* \"#utility.yul\":5666:5669   */\n  dup3\n    /* \"#utility.yul\":5659:5696   */\n  mstore\n    /* \"#utility.yul\":5584:5702   */\n  pop\n  pop\n  jump\t// out\n    /* \"#utility.yul\":5708:5785   */\ntag_51:\n    /* \"#utility.yul\":5745:5752   */\n  0x00\n    /* \"#utility.yul\":5774:5779   */\n  dup2\n    /* \"#utility.yul\":5763:5779   */\n  swap1\n  pop\n    /* \"#utility.yul\":5708:5785   */\n  swap2\n  swap1\n  pop\n  jump\t// out\n    /* \"#utility.yul\":5791:5909   */\ntag_52:\n    /* \"#utility.yul\":5878:5902   */\n  tag_129\n    /* \"#utility.yul\":5896:5901   */\n  dup2\n    /* \"#utility.yul\":5878:5902   */\n  tag_51\n  jump\t// in\ntag_129:\n    /* \"#utility.yul\":5873:5876   */\n  dup3\n    /* \"#utility.yul\":5866:5903   */\n  mstore\n    /* \"#utility.yul\":5791:5909   */\n  pop\n  pop\n  jump\t// out\n    /* \"#utility.yul\":5915:6247   */\ntag_20:\n    /* \"#utility.yul\":6036:6040   */\n  0x00\n    /* \"#utility.yul\":6074:6076   */\n  0x40\n    /* \"#utility.yul\":6063:6072   */\n  dup3\n    /* \"#utility.yul\":6059:6077   */\n  add\n    /* \"#utility.yul\":6051:6077   */\n  swap1\n  pop\n    /* \"#utility.yul\":6087:6158   */\n  tag_131\n    /* \"#utility.yul\":6155:6156   */\n  0x00\n    /* \"#utility.yul\":6144:6153   */\n  dup4\n    /* \"#utility.yul\":6140:6157   */\n  add\n    /* \"#utility.yul\":6131:6137   */\n  dup6\n    /* \"#utility.yul\":6087:6158   */\n  tag_50\n  jump\t// in\ntag_131:\n    /* \"#utility.yul\":6168:6240   */\n  tag_132\n    /* \"#utility.yul\":6236:6238   */\n  0x20\n    /* \"#utility.yul\":6225:6234   */\n  dup4\n    /* \"#utility.yul\":6221:6239   */\n  add\n    /* \"#utility.yul\":6212:6218   */\n  dup5\n    /* \"#utility.yul\":6168:6240   */\n  tag_52\n  jump\t// in\ntag_132:\n    /* \"#utility.yul\":5915:6247   */\n  swap4\n  swap3\n  pop\n  pop\n  pop\n  jump\t// out\n    /* \"#utility.yul\":6253:6352   */\ntag_53:\n    /* \"#utility.yul\":6305:6311   */\n  0x00\n    /* \"#utility.yul\":6339:6344   */\n  dup2\n    /* \"#utility.yul\":6333:6345   */\n  mload\n    /* \"#utility.yul\":6323:6345   */\n  swap1\n  pop\n    /* \"#utility.yul\":6253:6352   */\n  swap2\n  swap1\n  pop\n  jump\t// out\n    /* \"#utility.yul\":6358:6506   */\ntag_54:\n    /* \"#utility.yul\":6460:6471   */\n  0x00\n    /* \"#utility.yul\":6497:6500   */\n  dup2\n    /* \"#utility.yul\":6482:6500   */\n  swap1\n  pop\n    /* \"#utility.yul\":6358:6506   */\n  swap3\n  swap2\n  pop\n  pop\n  jump\t// out\n    /* \"#utility.yul\":6512:6889   */\ntag_55:\n    /* \"#utility.yul\":6618:6621   */\n  0x00\n    /* \"#utility.yul\":6646:6685   */\n  tag_136\n    /* \"#utility.yul\":6679:6684   */\n  dup3\n    /* \"#utility.yul\":6646:6685   */\n  tag_53\n  jump\t// in\ntag_136:\n    /* \"#utility.yul\":6701:6790   */\n  tag_137\n    /* \"#utility.yul\":6783:6789   */\n  dup2\n    /* \"#utility.yul\":6778:6781   */\n  dup6\n    /* \"#utility.yul\":6701:6790   */\n  tag_54\n  jump\t// in\ntag_137:\n    /* \"#utility.yul\":6694:6790   */\n  swap4\n  pop\n    /* \"#utility.yul\":6799:6851   */\n  tag_138\n    /* \"#utility.yul\":6844:6850   */\n  dup2\n    /* \"#utility.yul\":6839:6842   */\n  dup6\n    /* \"#utility.yul\":6832:6836   */\n  0x20\n    /* \"#utility.yul\":6825:6830   */\n  dup7\n    /* \"#utility.yul\":6821:6837   */\n  add\n    /* \"#utility.yul\":6799:6851   */\n  tag_43\n  jump\t// in\ntag_138:\n    /* \"#utility.yul\":6876:6882   */\n  dup1\n    /* \"#utility.yul\":6871:6874   */\n  dup5\n    /* \"#utility.yul\":6867:6883   */\n  add\n    /* \"#utility.yul\":6860:6883   */\n  swap2\n  pop\n    /* \"#utility.yul\":6622:6889   */\n  pop\n    /* \"#utility.yul\":6512:6889   */\n  swap3\n  swap2\n  pop\n  pop\n  jump\t// out\n    /* \"#utility.yul\":6895:7170   */\ntag_25:\n    /* \"#utility.yul\":7027:7030   */\n  0x00\n    /* \"#utility.yul\":7049:7144   */\n  tag_140\n    /* \"#utility.yul\":7140:7143   */\n  dup3\n    /* \"#utility.yul\":7131:7137   */\n  dup5\n    /* \"#utility.yul\":7049:7144   */\n  tag_55\n  jump\t// in\ntag_140:\n    /* \"#utility.yul\":7042:7144   */\n  swap2\n  pop\n    /* \"#utility.yul\":7161:7164   */\n  dup2\n    /* \"#utility.yul\":7154:7164   */\n  swap1\n  pop\n    /* \"#utility.yul\":6895:7170   */\n  swap3\n  swap2\n  pop\n  pop\n  jump\t// out\n    /* \"#utility.yul\":7176:7274   */\ntag_56:\n    /* \"#utility.yul\":7227:7233   */\n  0x00\n    /* \"#utility.yul\":7261:7266   */\n  dup2\n    /* \"#utility.yul\":7255:7267   */\n  mload\n    /* \"#utility.yul\":7245:7267   */\n  swap1\n  pop\n    /* \"#utility.yul\":7176:7274   */\n  swap2\n  swap1\n  pop\n  jump\t// out\n    /* \"#utility.yul\":7280:7396   */\ntag_57:\n    /* \"#utility.yul\":7331:7335   */\n  0x00\n    /* \"#utility.yul\":7354:7357   */\n  dup2\n    /* \"#utility.yul\":7346:7357   */\n  swap1\n  pop\n    /* \"#utility.yul\":7384:7388   */\n  0x20\n    /* \"#utility.yul\":7379:7382   */\n  dup3\n    /* \"#utility.yul\":7375:7389   */\n  add\n    /* \"#utility.yul\":7367:7389   */\n  swap1\n  pop\n    /* \"#utility.yul\":7280:7396   */\n  swap2\n  swap1\n  pop\n  jump\t// out\n    /* \"#utility.yul\":7402:7479   */\ntag_58:\n    /* \"#utility.yul\":7439:7446   */\n  0x00\n    /* \"#utility.yul\":7468:7473   */\n  dup2\n    /* \"#utility.yul\":7457:7473   */\n  swap1\n  pop\n    /* \"#utility.yul\":7402:7479   */\n  swap2\n  swap1\n  pop\n  jump\t// out\n    /* \"#utility.yul\":7485:7639   */\ntag_59:\n    /* \"#utility.yul\":7528:7539   */\n  0x00\n    /* \"#utility.yul\":7564:7593   */\n  tag_145\n    /* \"#utility.yul\":7588:7591   */\n  dup3\n    /* \"#utility.yul\":7582:7592   */\n  mload\n    /* \"#utility.yul\":7564:7593   */\n  tag_58\n  jump\t// in\ntag_145:\n    /* \"#utility.yul\":7627:7632   */\n  dup1\n    /* \"#utility.yul\":7603:7632   */\n  swap2\n  pop\n    /* \"#utility.yul\":7540:7639   */\n  pop\n    /* \"#utility.yul\":7485:7639   */\n  swap2\n  swap1\n  pop\n  jump\t// out\n    /* \"#utility.yul\":7645:7752   */\ntag_60:\n    /* \"#utility.yul\":7689:7697   */\n  0x00\n    /* \"#utility.yul\":7739:7744   */\n  dup3\n    /* \"#utility.yul\":7733:7737   */\n  dup3\n    /* \"#utility.yul\":7729:7745   */\n  shl\n    /* \"#utility.yul\":7708:7745   */\n  swap1\n  pop\n    /* \"#utility.yul\":7645:7752   */\n  swap3\n  swap2\n  pop\n  pop\n  jump\t// out\n    /* \"#utility.yul\":7758:8352   */\ntag_27:\n    /* \"#utility.yul\":7842:7847   */\n  0x00\n    /* \"#utility.yul\":7873:7911   */\n  tag_148\n    /* \"#utility.yul\":7905:7910   */\n  dup3\n    /* \"#utility.yul\":7873:7911   */\n  tag_56\n  jump\t// in\ntag_148:\n    /* \"#utility.yul\":7936:7941   */\n  dup3\n    /* \"#utility.yul\":7963:8003   */\n  tag_149\n    /* \"#utility.yul\":7997:8002   */\n  dup5\n    /* \"#utility.yul\":7963:8003   */\n  tag_57\n  jump\t// in\ntag_149:\n    /* \"#utility.yul\":7951:8003   */\n  swap1\n  pop\n    /* \"#utility.yul\":8022:8057   */\n  tag_150\n    /* \"#utility.yul\":8048:8056   */\n  dup2\n    /* \"#utility.yul\":8022:8057   */\n  tag_59\n  jump\t// in\ntag_150:\n    /* \"#utility.yul\":8013:8057   */\n  swap3\n  pop\n    /* \"#utility.yul\":8081:8083   */\n  0x20\n    /* \"#utility.yul\":8073:8079   */\n  dup3\n    /* \"#utility.yul\":8070:8084   */\n  lt\n    /* \"#utility.yul\":8067:8345   */\n  iszero\n  tag_151\n  jumpi\n    /* \"#utility.yul\":8152:8321   */\n  tag_152\n    /* \"#utility.yul\":8237:8303   */\n  0xffffffffffffffffffffffffffffffffffffffffffffffffffffffffffffffff\n    /* \"#utility.yul\":8207:8213   */\n  dup4\n    /* \"#utility.yul\":8203:8205   */\n  0x20\n    /* \"#utility.yul\":8199:8214   */\n  sub\n    /* \"#utility.yul\":8196:8197   */\n  0x08\n    /* \"#utility.yul\":8192:8215   */\n  mul\n    /* \"#utility.yul\":8152:8321   */\n  tag_60\n  jump\t// in\ntag_152:\n    /* \"#utility.yul\":8129:8134   */\n  dup4\n    /* \"#utility.yul\":8108:8335   */\n  and\n    /* \"#utility.yul\":8099:8335   */\n  swap3\n  pop\n    /* \"#utility.yul\":8067:8345   */\ntag_151:\n    /* \"#utility.yul\":7848:8352   */\n  pop\n  pop\n    /* \"#utility.yul\":7758:8352   */\n  swap2\n  swap1\n  pop\n  jump\t// out\n    /* \"#utility.yul\":8358:8538   */\ntag_61:\n    /* \"#utility.yul\":8406:8483   */\n  0x4e487b7100000000000000000000000000000000000000000000000000000000\n    /* \"#utility.yul\":8403:8404   */\n  0x00\n    /* \"#utility.yul\":8396:8484   */\n  mstore\n    /* \"#utility.yul\":8503:8507   */\n  0x11\n    /* \"#utility.yul\":8500:8501   */\n  0x04\n    /* \"#utility.yul\":8493:8508   */\n  mstore\n    /* \"#utility.yul\":8527:8531   */\n  0x24\n    /* \"#utility.yul\":8524:8525   */\n  0x00\n    /* \"#utility.yul\":8517:8532   */\n  revert\n    /* \"#utility.yul\":8544:8849   */\ntag_30:\n    /* \"#utility.yul\":8584:8587   */\n  0x00\n    /* \"#utility.yul\":8603:8623   */\n  tag_155\n    /* \"#utility.yul\":8621:8622   */\n  dup3\n    /* \"#utility.yul\":8603:8623   */\n  tag_51\n  jump\t// in\ntag_155:\n    /* \"#utility.yul\":8598:8623   */\n  swap2\n  pop\n    /* \"#utility.yul\":8637:8657   */\n  tag_156\n    /* \"#utility.yul\":8655:8656   */\n  dup4\n    /* \"#utility.yul\":8637:8657   */\n  tag_51\n  jump\t// in\ntag_156:\n    /* \"#utility.yul\":8632:8657   */\n  swap3\n  pop\n    /* \"#utility.yul\":8791:8792   */\n  dup3\n    /* \"#utility.yul\":8723:8789   */\n  0xffffffffffffffffffffffffffffffffffffffffffffffffffffffffffffffff\n    /* \"#utility.yul\":8719:8793   */\n  sub\n    /* \"#utility.yul\":8716:8717   */\n  dup3\n    /* \"#utility.yul\":8713:8794   */\n  gt\n    /* \"#utility.yul\":8710:8817   */\n  iszero\n  tag_157\n  jumpi\n    /* \"#utility.yul\":8797:8815   */\n  tag_158\n  tag_61\n  jump\t// in\ntag_158:\n    /* \"#utility.yul\":8710:8817   */\ntag_157:\n    /* \"#utility.yul\":8841:8842   */\n  dup3\n    /* \"#utility.yul\":8838:8839   */\n  dup3\n    /* \"#utility.yul\":8834:8843   */\n  add\n    /* \"#utility.yul\":8827:8843   */\n  swap1\n  pop\n    /* \"#utility.yul\":8544:8849   */\n  swap3\n  swap2\n  pop\n  pop\n  jump\t// out\n    /* \"contracts/SimpleVoting.sol\":372:9484  contract SimpleVoting is Context {... */\ntag_21:\n  dataSize(sub_0)\n  dup1\n  dataOffset(sub_0)\n  0x00\n  codecopy\n  0x00\n  return\nstop\n\nsub_0: assembly {\n        /* \"contracts/SimpleVoting.sol\":372:9484  contract SimpleVoting is Context {... */\n      mstore(0x40, 0x80)\n      callvalue\n      dup1\n      iszero\n      tag_1\n      jumpi\n      0x00\n      dup1\n      revert\n    tag_1:\n      pop\n      jumpi(tag_2, lt(calldatasize, 0x04))\n      shr(0xe0, calldataload(0x00))\n      dup1\n      0x9e7b8d61\n      gt\n      tag_14\n      jumpi\n      dup1\n      0x9e7b8d61\n      eq\n      tag_8\n      jumpi\n      dup1\n      0xa3ec138d\n      eq\n      tag_9\n      jumpi\n      dup1\n      0xc7f758a8\n      eq\n      tag_10\n      jumpi\n      dup1\n      0xd4d4b5ac\n      eq\n      tag_11\n      jumpi\n      dup1\n      0xda35c664\n      eq\n      tag_12\n      jumpi\n      dup1\n      0xef788cd5\n      eq\n      tag_13\n      jumpi\n      jump(tag_2)\n    tag_14:\n      dup1\n      0x0121b93f\n      eq\n      tag_3\n      jumpi\n      dup1\n      0x28be18ee\n      eq\n      tag_4\n      jumpi\n      dup1\n      0x5c19a95c\n      eq\n      tag_5\n      jumpi\n      dup1\n      0x5f07b961\n      eq\n      tag_6\n      jumpi\n      dup1\n      0x6d0fc3d7\n      eq\n      tag_7\n      jumpi\n    tag_2:\n      0x00\n      dup1\n      revert\n        /* \"contracts/SimpleVoting.sol\":7223:7622  function vote(uint proposal) public proposalExists(proposal) notYetVoted(_msgSender()) hasRightToVote(_msgSender()) {... */\n    tag_3:\n      tag_15\n      0x04\n      dup1\n      calldatasize\n      sub\n      dup2\n      add\n      swap1\n      tag_16\n      swap2\n      swap1\n      tag_17\n      jump\t// in\n    tag_16:\n      tag_18\n      jump\t// in\n    tag_15:\n      stop\n        /* \"contracts/SimpleVoting.sol\":8537:8845  function winnerNames() public view... */\n    tag_4:\n      tag_19\n      tag_20\n      jump\t// in\n    tag_19:\n      mload(0x40)\n      tag_21\n      swap2\n      swap1\n      tag_22\n      jump\t// in\n    tag_21:\n      mload(0x40)\n      dup1\n      swap2\n      sub\n      swap1\n      return\n        /* \"contracts/SimpleVoting.sol\":5927:7029  function delegate(address _to) public notYetVoted (_msgSender()) hasRightToVote (_msgSender()) {... */\n    tag_5:\n      tag_23\n      0x04\n      dup1\n      calldatasize\n      sub\n      dup2\n      add\n      swap1\n      tag_24\n      swap2\n      swap1\n      tag_25\n      jump\t// in\n    tag_24:\n      tag_26\n      jump\t// in\n    tag_23:\n      stop\n        /* \"contracts/SimpleVoting.sol\":7732:8358  function computeWinningProposals() public ... */\n    tag_6:\n      tag_27\n      tag_28\n      jump\t// in\n    tag_27:\n      stop\n        /* \"contracts/SimpleVoting.sol\":5667:5795  function transferChairpersonship (address _to) public onlyChairPerson() hasRightToVote(_to) {... */\n    tag_7:\n      tag_29\n      0x04\n      dup1\n      calldatasize\n      sub\n      dup2\n      add\n      swap1\n      tag_30\n      swap2\n      swap1\n      tag_25\n      jump\t// in\n    tag_30:\n      tag_31\n      jump\t// in\n    tag_29:\n      stop\n        /* \"contracts/SimpleVoting.sol\":5431:5659  function giveRightToVote(address _voter) public onlyChairPerson() notYetVoted(_voter) {... */\n    tag_8:\n      tag_32\n      0x04\n      dup1\n      calldatasize\n      sub\n      dup2\n      add\n      swap1\n      tag_33\n      swap2\n      swap1\n      tag_25\n      jump\t// in\n    tag_33:\n      tag_34\n      jump\t// in\n    tag_32:\n      stop\n        /* \"contracts/SimpleVoting.sol\":1338:1377  mapping(address => Voter) public voters */\n    tag_9:\n      tag_35\n      0x04\n      dup1\n      calldatasize\n      sub\n      dup2\n      add\n      swap1\n      tag_36\n      swap2\n      swap1\n      tag_25\n      jump\t// in\n    tag_36:\n      tag_37\n      jump\t// in\n    tag_35:\n      mload(0x40)\n      tag_38\n      swap5\n      swap4\n      swap3\n      swap2\n      swap1\n      tag_39\n      jump\t// in\n    tag_38:\n      mload(0x40)\n      dup1\n      swap2\n      sub\n      swap1\n      return\n        /* \"contracts/SimpleVoting.sol\":4474:4968  function getProposal (uint256 _proposalIndex) public view proposalExists(_proposalIndex) returns (string memory proposalName_, uint256 voteCount_) {... */\n    tag_10:\n      tag_40\n      0x04\n      dup1\n      calldatasize\n      sub\n      dup2\n      add\n      swap1\n      tag_41\n      swap2\n      swap1\n      tag_17\n      jump\t// in\n    tag_41:\n      tag_42\n      jump\t// in\n    tag_40:\n      mload(0x40)\n      tag_43\n      swap3\n      swap2\n      swap1\n      tag_44\n      jump\t// in\n    tag_43:\n      mload(0x40)\n      dup1\n      swap2\n      sub\n      swap1\n      return\n        /* \"contracts/SimpleVoting.sol\":1216:1242  address public chairPerson */\n    tag_11:\n      tag_45\n      tag_46\n      jump\t// in\n    tag_45:\n      mload(0x40)\n      tag_47\n      swap2\n      swap1\n      tag_48\n      jump\t// in\n    tag_47:\n      mload(0x40)\n      dup1\n      swap2\n      sub\n      swap1\n      return\n        /* \"contracts/SimpleVoting.sol\":1137:1165  uint256 public proposalCount */\n    tag_12:\n      tag_49\n      tag_50\n      jump\t// in\n    tag_49:\n      mload(0x40)\n      tag_51\n      swap2\n      swap1\n      tag_52\n      jump\t// in\n    tag_51:\n      mload(0x40)\n      dup1\n      swap2\n      sub\n      swap1\n      return\n        /* \"contracts/SimpleVoting.sol\":5151:5263  function getWinningProposals () public view returns (uint256[] memory){... */\n    tag_13:\n      tag_53\n      tag_54\n      jump\t// in\n    tag_53:\n      mload(0x40)\n      tag_55\n      swap2\n      swap1\n      tag_56\n      jump\t// in\n    tag_55:\n      mload(0x40)\n      dup1\n      swap2\n      sub\n      swap1\n      return\n        /* \"contracts/SimpleVoting.sol\":7223:7622  function vote(uint proposal) public proposalExists(proposal) notYetVoted(_msgSender()) hasRightToVote(_msgSender()) {... */\n    tag_18:\n        /* \"contracts/SimpleVoting.sol\":7274:7282  proposal */\n      dup1\n        /* \"contracts/SimpleVoting.sol\":3004:3017  proposalCount */\n      sload(0x00)\n        /* \"contracts/SimpleVoting.sol\":2987:3001  _proposalIndex */\n      dup2\n        /* \"contracts/SimpleVoting.sol\":2987:3017  _proposalIndex < proposalCount */\n      lt\n        /* \"contracts/SimpleVoting.sol\":2964:3089  require (... */\n      tag_59\n      jumpi\n      mload(0x40)\n      0x08c379a000000000000000000000000000000000000000000000000000000000\n      dup2\n      mstore\n      0x04\n      add\n      tag_60\n      swap1\n      tag_61\n      jump\t// in\n    tag_60:\n      mload(0x40)\n      dup1\n      swap2\n      sub\n      swap1\n      revert\n    tag_59:\n        /* \"contracts/SimpleVoting.sol\":7296:7308  _msgSender() */\n      tag_62\n        /* \"contracts/SimpleVoting.sol\":7296:7306  _msgSender */\n      tag_63\n        /* \"contracts/SimpleVoting.sol\":7296:7308  _msgSender() */\n      jump\t// in\n    tag_62:\n        /* \"contracts/SimpleVoting.sol\":2647:2653  voters */\n      0x02\n        /* \"contracts/SimpleVoting.sol\":2647:2661  voters[_voter] */\n      0x00\n        /* \"contracts/SimpleVoting.sol\":2654:2660  _voter */\n      dup3\n        /* \"contracts/SimpleVoting.sol\":2647:2661  voters[_voter] */\n      0xffffffffffffffffffffffffffffffffffffffff\n      and\n      0xffffffffffffffffffffffffffffffffffffffff\n      and\n      dup2\n      mstore\n      0x20\n      add\n      swap1\n      dup2\n      mstore\n      0x20\n      add\n      0x00\n      keccak256\n        /* \"contracts/SimpleVoting.sol\":2647:2667  voters[_voter].voted */\n      0x01\n      add\n      0x00\n      swap1\n      sload\n      swap1\n      0x0100\n      exp\n      swap1\n      div\n      0xff\n      and\n        /* \"contracts/SimpleVoting.sol\":2646:2667  !voters[_voter].voted */\n      iszero\n        /* \"contracts/SimpleVoting.sol\":2624:2737  require(... */\n      tag_65\n      jumpi\n      mload(0x40)\n      0x08c379a000000000000000000000000000000000000000000000000000000000\n      dup2\n      mstore\n      0x04\n      add\n      tag_66\n      swap1\n      tag_67\n      jump\t// in\n    tag_66:\n      mload(0x40)\n      dup1\n      swap2\n      sub\n      swap1\n      revert\n    tag_65:\n        /* \"contracts/SimpleVoting.sol\":7325:7337  _msgSender() */\n      tag_68\n        /* \"contracts/SimpleVoting.sol\":7325:7335  _msgSender */\n      tag_63\n        /* \"contracts/SimpleVoting.sol\":7325:7337  _msgSender() */\n      jump\t// in\n    tag_68:\n        /* \"contracts/SimpleVoting.sol\":3354:3355  0 */\n      0x00\n        /* \"contracts/SimpleVoting.sol\":3330:3336  voters */\n      0x02\n        /* \"contracts/SimpleVoting.sol\":3330:3344  voters[_voter] */\n      0x00\n        /* \"contracts/SimpleVoting.sol\":3337:3343  _voter */\n      dup4\n        /* \"contracts/SimpleVoting.sol\":3330:3344  voters[_voter] */\n      0xffffffffffffffffffffffffffffffffffffffff\n      and\n      0xffffffffffffffffffffffffffffffffffffffff\n      and\n      dup2\n      mstore\n      0x20\n      add\n      swap1\n      dup2\n      mstore\n      0x20\n      add\n      0x00\n      keccak256\n        /* \"contracts/SimpleVoting.sol\":3330:3351  voters[_voter].weight */\n      0x00\n      add\n      sload\n        /* \"contracts/SimpleVoting.sol\":3330:3355  voters[_voter].weight > 0 */\n      gt\n        /* \"contracts/SimpleVoting.sol\":3307:3433  require (... */\n      tag_70\n      jumpi\n      mload(0x40)\n      0x08c379a000000000000000000000000000000000000000000000000000000000\n      dup2\n      mstore\n      0x04\n      add\n      tag_71\n      swap1\n      tag_72\n      jump\t// in\n    tag_71:\n      mload(0x40)\n      dup1\n      swap2\n      sub\n      swap1\n      revert\n    tag_70:\n        /* \"contracts/SimpleVoting.sol\":7350:7370  Voter storage sender */\n      0x00\n        /* \"contracts/SimpleVoting.sol\":7373:7379  voters */\n      0x02\n        /* \"contracts/SimpleVoting.sol\":7373:7393  voters[_msgSender()] */\n      0x00\n        /* \"contracts/SimpleVoting.sol\":7380:7392  _msgSender() */\n      tag_74\n        /* \"contracts/SimpleVoting.sol\":7380:7390  _msgSender */\n      tag_63\n        /* \"contracts/SimpleVoting.sol\":7380:7392  _msgSender() */\n      jump\t// in\n    tag_74:\n        /* \"contracts/SimpleVoting.sol\":7373:7393  voters[_msgSender()] */\n      0xffffffffffffffffffffffffffffffffffffffff\n      and\n      0xffffffffffffffffffffffffffffffffffffffff\n      and\n      dup2\n      mstore\n      0x20\n      add\n      swap1\n      dup2\n      mstore\n      0x20\n      add\n      0x00\n      keccak256\n        /* \"contracts/SimpleVoting.sol\":7350:7393  Voter storage sender = voters[_msgSender()] */\n      swap1\n      pop\n        /* \"contracts/SimpleVoting.sol\":7419:7423  true */\n      0x01\n        /* \"contracts/SimpleVoting.sol\":7404:7410  sender */\n      dup2\n        /* \"contracts/SimpleVoting.sol\":7404:7416  sender.voted */\n      0x01\n      add\n      0x00\n        /* \"contracts/SimpleVoting.sol\":7404:7423  sender.voted = true */\n      0x0100\n      exp\n      dup2\n      sload\n      dup2\n      0xff\n      mul\n      not\n      and\n      swap1\n      dup4\n      iszero\n      iszero\n      mul\n      or\n      swap1\n      sstore\n      pop\n        /* \"contracts/SimpleVoting.sol\":7448:7456  proposal */\n      dup5\n        /* \"contracts/SimpleVoting.sol\":7434:7440  sender */\n      dup2\n        /* \"contracts/SimpleVoting.sol\":7434:7445  sender.vote */\n      0x02\n      add\n        /* \"contracts/SimpleVoting.sol\":7434:7456  sender.vote = proposal */\n      dup2\n      swap1\n      sstore\n      pop\n        /* \"contracts/SimpleVoting.sol\":7499:7548  proposals[proposal].voteCount. add(sender.weight) */\n      tag_75\n        /* \"contracts/SimpleVoting.sol\":7534:7540  sender */\n      dup2\n        /* \"contracts/SimpleVoting.sol\":7534:7547  sender.weight */\n      0x00\n      add\n      sload\n        /* \"contracts/SimpleVoting.sol\":7499:7508  proposals */\n      0x03\n        /* \"contracts/SimpleVoting.sol\":7509:7517  proposal */\n      dup8\n        /* \"contracts/SimpleVoting.sol\":7499:7518  proposals[proposal] */\n      dup2\n      sload\n      dup2\n      lt\n      tag_76\n      jumpi\n      tag_77\n      tag_78\n      jump\t// in\n    tag_77:\n    tag_76:\n      swap1\n      0x00\n      mstore\n      keccak256(0x00, 0x20)\n      swap1\n      0x02\n      mul\n      add\n        /* \"contracts/SimpleVoting.sol\":7499:7528  proposals[proposal].voteCount */\n      0x01\n      add\n      sload\n        /* \"contracts/SimpleVoting.sol\":7499:7533  proposals[proposal].voteCount. add */\n      tag_57\n      swap1\n        /* \"contracts/SimpleVoting.sol\":7499:7548  proposals[proposal].voteCount. add(sender.weight) */\n      swap2\n      swap1\n      0xffffffff\n      and\n      jump\t// in\n    tag_75:\n        /* \"contracts/SimpleVoting.sol\":7467:7476  proposals */\n      0x03\n        /* \"contracts/SimpleVoting.sol\":7477:7485  proposal */\n      dup7\n        /* \"contracts/SimpleVoting.sol\":7467:7486  proposals[proposal] */\n      dup2\n      sload\n      dup2\n      lt\n      tag_80\n      jumpi\n      tag_81\n      tag_78\n      jump\t// in\n    tag_81:\n    tag_80:\n      swap1\n      0x00\n      mstore\n      keccak256(0x00, 0x20)\n      swap1\n      0x02\n      mul\n      add\n        /* \"contracts/SimpleVoting.sol\":7467:7496  proposals[proposal].voteCount */\n      0x01\n      add\n        /* \"contracts/SimpleVoting.sol\":7467:7548  proposals[proposal].voteCount = proposals[proposal].voteCount. add(sender.weight) */\n      dup2\n      swap1\n      sstore\n      pop\n        /* \"contracts/SimpleVoting.sol\":7586:7598  _msgSender() */\n      tag_83\n        /* \"contracts/SimpleVoting.sol\":7586:7596  _msgSender */\n      tag_63\n        /* \"contracts/SimpleVoting.sol\":7586:7598  _msgSender() */\n      jump\t// in\n    tag_83:\n        /* \"contracts/SimpleVoting.sol\":7564:7614  VoteCasted (proposal, _msgSender(), sender.weight) */\n      0xffffffffffffffffffffffffffffffffffffffff\n      and\n        /* \"contracts/SimpleVoting.sol\":7576:7584  proposal */\n      dup6\n        /* \"contracts/SimpleVoting.sol\":7564:7614  VoteCasted (proposal, _msgSender(), sender.weight) */\n      0xe7ee74ca1f4bb1b82b14f87794c45b3e59c39e372b862fb97a6316b43355b69e\n        /* \"contracts/SimpleVoting.sol\":7600:7606  sender */\n      dup4\n        /* \"contracts/SimpleVoting.sol\":7600:7613  sender.weight */\n      0x00\n      add\n      sload\n        /* \"contracts/SimpleVoting.sol\":7564:7614  VoteCasted (proposal, _msgSender(), sender.weight) */\n      mload(0x40)\n      tag_84\n      swap2\n      swap1\n      tag_52\n      jump\t// in\n    tag_84:\n      mload(0x40)\n      dup1\n      swap2\n      sub\n      swap1\n      log3\n        /* \"contracts/SimpleVoting.sol\":7339:7622  {... */\n      pop\n        /* \"contracts/SimpleVoting.sol\":2748:2749  _ */\n      pop\n        /* \"contracts/SimpleVoting.sol\":3100:3101  _ */\n      pop\n        /* \"contracts/SimpleVoting.sol\":7223:7622  function vote(uint proposal) public proposalExists(proposal) notYetVoted(_msgSender()) hasRightToVote(_msgSender()) {... */\n      pop\n      pop\n      jump\t// out\n        /* \"contracts/SimpleVoting.sol\":8537:8845  function winnerNames() public view... */\n    tag_20:\n        /* \"contracts/SimpleVoting.sol\":8594:8620  string memory winnerNames_ */\n      0x60\n        /* \"contracts/SimpleVoting.sol\":8643:8652  uint256 i */\n      0x00\n        /* \"contracts/SimpleVoting.sol\":8638:8838  for (uint256 i = 0; i < winningProposals.length; i = i. add(1)) {... */\n    tag_86:\n        /* \"contracts/SimpleVoting.sol\":8662:8678  winningProposals */\n      0x04\n        /* \"contracts/SimpleVoting.sol\":8662:8685  winningProposals.length */\n      dup1\n      sload\n      swap1\n      pop\n        /* \"contracts/SimpleVoting.sol\":8658:8659  i */\n      dup2\n        /* \"contracts/SimpleVoting.sol\":8658:8685  i < winningProposals.length */\n      lt\n        /* \"contracts/SimpleVoting.sol\":8638:8838  for (uint256 i = 0; i < winningProposals.length; i = i. add(1)) {... */\n      iszero\n      tag_87\n      jumpi\n        /* \"contracts/SimpleVoting.sol\":8746:8758  winnerNames_ */\n      dup2\n        /* \"contracts/SimpleVoting.sol\":8788:8797  proposals */\n      0x03\n        /* \"contracts/SimpleVoting.sol\":8798:8814  winningProposals */\n      0x04\n        /* \"contracts/SimpleVoting.sol\":8815:8816  i */\n      dup4\n        /* \"contracts/SimpleVoting.sol\":8798:8817  winningProposals[i] */\n      dup2\n      sload\n      dup2\n      lt\n      tag_89\n      jumpi\n      tag_90\n      tag_78\n      jump\t// in\n    tag_90:\n    tag_89:\n      swap1\n      0x00\n      mstore\n      keccak256(0x00, 0x20)\n      add\n      sload\n        /* \"contracts/SimpleVoting.sol\":8788:8818  proposals[winningProposals[i]] */\n      dup2\n      sload\n      dup2\n      lt\n      tag_92\n      jumpi\n      tag_93\n      tag_78\n      jump\t// in\n    tag_93:\n    tag_92:\n      swap1\n      0x00\n      mstore\n      keccak256(0x00, 0x20)\n      swap1\n      0x02\n      mul\n      add\n        /* \"contracts/SimpleVoting.sol\":8788:8823  proposals[winningProposals[i]].name */\n      0x00\n      add\n      sload\n        /* \"contracts/SimpleVoting.sol\":8771:8824  abi.encodePacked(proposals[winningProposals[i]].name) */\n      add(0x20, mload(0x40))\n      tag_95\n      swap2\n      swap1\n      tag_96\n      jump\t// in\n    tag_95:\n      mload(0x40)\n      0x20\n      dup2\n      dup4\n      sub\n      sub\n      dup2\n      mstore\n      swap1\n      0x40\n      mstore\n        /* \"contracts/SimpleVoting.sol\":8732:8826  string.concat(winnerNames_,\", \",string(abi.encodePacked(proposals[winningProposals[i]].name))) */\n      add(0x20, mload(0x40))\n      tag_97\n      swap3\n      swap2\n      swap1\n      tag_98\n      jump\t// in\n    tag_97:\n      mload(0x40)\n      0x20\n      dup2\n      dup4\n      sub\n      sub\n      dup2\n      mstore\n      swap1\n      0x40\n      mstore\n        /* \"contracts/SimpleVoting.sol\":8717:8826  winnerNames_ = string.concat(winnerNames_,\", \",string(abi.encodePacked(proposals[winningProposals[i]].name))) */\n      swap2\n      pop\n        /* \"contracts/SimpleVoting.sol\":8691:8700  i. add(1) */\n      tag_99\n        /* \"contracts/SimpleVoting.sol\":8698:8699  1 */\n      0x01\n        /* \"contracts/SimpleVoting.sol\":8691:8692  i */\n      dup3\n        /* \"contracts/SimpleVoting.sol\":8691:8697  i. add */\n      tag_57\n      swap1\n        /* \"contracts/SimpleVoting.sol\":8691:8700  i. add(1) */\n      swap2\n      swap1\n      0xffffffff\n      and\n      jump\t// in\n    tag_99:\n        /* \"contracts/SimpleVoting.sol\":8687:8700  i = i. add(1) */\n      swap1\n      pop\n        /* \"contracts/SimpleVoting.sol\":8638:8838  for (uint256 i = 0; i < winningProposals.length; i = i. add(1)) {... */\n      jump(tag_86)\n    tag_87:\n      pop\n        /* \"contracts/SimpleVoting.sol\":8537:8845  function winnerNames() public view... */\n      swap1\n      jump\t// out\n        /* \"contracts/SimpleVoting.sol\":5927:7029  function delegate(address _to) public notYetVoted (_msgSender()) hasRightToVote (_msgSender()) {... */\n    tag_26:\n        /* \"contracts/SimpleVoting.sol\":5978:5990  _msgSender() */\n      tag_100\n        /* \"contracts/SimpleVoting.sol\":5978:5988  _msgSender */\n      tag_63\n        /* \"contracts/SimpleVoting.sol\":5978:5990  _msgSender() */\n      jump\t// in\n    tag_100:\n        /* \"contracts/SimpleVoting.sol\":2647:2653  voters */\n      0x02\n        /* \"contracts/SimpleVoting.sol\":2647:2661  voters[_voter] */\n      0x00\n        /* \"contracts/SimpleVoting.sol\":2654:2660  _voter */\n      dup3\n        /* \"contracts/SimpleVoting.sol\":2647:2661  voters[_voter] */\n      0xffffffffffffffffffffffffffffffffffffffff\n      and\n      0xffffffffffffffffffffffffffffffffffffffff\n      and\n      dup2\n      mstore\n      0x20\n      add\n      swap1\n      dup2\n      mstore\n      0x20\n      add\n      0x00\n      keccak256\n        /* \"contracts/SimpleVoting.sol\":2647:2667  voters[_voter].voted */\n      0x01\n      add\n      0x00\n      swap1\n      sload\n      swap1\n      0x0100\n      exp\n      swap1\n      div\n      0xff\n      and\n        /* \"contracts/SimpleVoting.sol\":2646:2667  !voters[_voter].voted */\n      iszero\n        /* \"contracts/SimpleVoting.sol\":2624:2737  require(... */\n      tag_102\n      jumpi\n      mload(0x40)\n      0x08c379a000000000000000000000000000000000000000000000000000000000\n      dup2\n      mstore\n      0x04\n      add\n      tag_103\n      swap1\n      tag_67\n      jump\t// in\n    tag_103:\n      mload(0x40)\n      dup1\n      swap2\n      sub\n      swap1\n      revert\n    tag_102:\n        /* \"contracts/SimpleVoting.sol\":6008:6020  _msgSender() */\n      tag_104\n        /* \"contracts/SimpleVoting.sol\":6008:6018  _msgSender */\n      tag_63\n        /* \"contracts/SimpleVoting.sol\":6008:6020  _msgSender() */\n      jump\t// in\n    tag_104:\n        /* \"contracts/SimpleVoting.sol\":3354:3355  0 */\n      0x00\n        /* \"contracts/SimpleVoting.sol\":3330:3336  voters */\n      0x02\n        /* \"contracts/SimpleVoting.sol\":3330:3344  voters[_voter] */\n      0x00\n        /* \"contracts/SimpleVoting.sol\":3337:3343  _voter */\n      dup4\n        /* \"contracts/SimpleVoting.sol\":3330:3344  voters[_voter] */\n      0xffffffffffffffffffffffffffffffffffffffff\n      and\n      0xffffffffffffffffffffffffffffffffffffffff\n      and\n      dup2\n      mstore\n      0x20\n      add\n      swap1\n      dup2\n      mstore\n      0x20\n      add\n      0x00\n      keccak256\n        /* \"contracts/SimpleVoting.sol\":3330:3351  voters[_voter].weight */\n      0x00\n      add\n      sload\n        /* \"contracts/SimpleVoting.sol\":3330:3355  voters[_voter].weight > 0 */\n      gt\n        /* \"contracts/SimpleVoting.sol\":3307:3433  require (... */\n      tag_106\n      jumpi\n      mload(0x40)\n      0x08c379a000000000000000000000000000000000000000000000000000000000\n      dup2\n      mstore\n      0x04\n      add\n      tag_107\n      swap1\n      tag_72\n      jump\t// in\n    tag_107:\n      mload(0x40)\n      dup1\n      swap2\n      sub\n      swap1\n      revert\n    tag_106:\n        /* \"contracts/SimpleVoting.sol\":6033:6053  Voter storage sender */\n      0x00\n        /* \"contracts/SimpleVoting.sol\":6056:6062  voters */\n      0x02\n        /* \"contracts/SimpleVoting.sol\":6056:6076  voters[_msgSender()] */\n      0x00\n        /* \"contracts/SimpleVoting.sol\":6063:6075  _msgSender() */\n      tag_109\n        /* \"contracts/SimpleVoting.sol\":6063:6073  _msgSender */\n      tag_63\n        /* \"contracts/SimpleVoting.sol\":6063:6075  _msgSender() */\n      jump\t// in\n    tag_109:\n        /* \"contracts/SimpleVoting.sol\":6056:6076  voters[_msgSender()] */\n      0xffffffffffffffffffffffffffffffffffffffff\n      and\n      0xffffffffffffffffffffffffffffffffffffffff\n      and\n      dup2\n      mstore\n      0x20\n      add\n      swap1\n      dup2\n      mstore\n      0x20\n      add\n      0x00\n      keccak256\n        /* \"contracts/SimpleVoting.sol\":6033:6076  Voter storage sender = voters[_msgSender()] */\n      swap1\n      pop\n        /* \"contracts/SimpleVoting.sol\":6103:6115  _msgSender() */\n      tag_110\n        /* \"contracts/SimpleVoting.sol\":6103:6113  _msgSender */\n      tag_63\n        /* \"contracts/SimpleVoting.sol\":6103:6115  _msgSender() */\n      jump\t// in\n    tag_110:\n        /* \"contracts/SimpleVoting.sol\":6096:6115  _to != _msgSender() */\n      0xffffffffffffffffffffffffffffffffffffffff\n      and\n        /* \"contracts/SimpleVoting.sol\":6096:6099  _to */\n      dup5\n        /* \"contracts/SimpleVoting.sol\":6096:6115  _to != _msgSender() */\n      0xffffffffffffffffffffffffffffffffffffffff\n      and\n      sub\n        /* \"contracts/SimpleVoting.sol\":6087:6165  require (_to != _msgSender(), \"SimpleVoting: Self-delegation is not allowed.\") */\n      tag_111\n      jumpi\n      mload(0x40)\n      0x08c379a000000000000000000000000000000000000000000000000000000000\n      dup2\n      mstore\n      0x04\n      add\n      tag_112\n      swap1\n      tag_113\n      jump\t// in\n    tag_112:\n      mload(0x40)\n      dup1\n      swap2\n      sub\n      swap1\n      revert\n    tag_111:\n        /* \"contracts/SimpleVoting.sol\":6178:6431  while (voters[_to].delegate != address(0)) {... */\n    tag_114:\n        /* \"contracts/SimpleVoting.sol\":6217:6218  0 */\n      0x00\n        /* \"contracts/SimpleVoting.sol\":6185:6219  voters[_to].delegate != address(0) */\n      0xffffffffffffffffffffffffffffffffffffffff\n      and\n        /* \"contracts/SimpleVoting.sol\":6185:6191  voters */\n      0x02\n        /* \"contracts/SimpleVoting.sol\":6185:6196  voters[_to] */\n      0x00\n        /* \"contracts/SimpleVoting.sol\":6192:6195  _to */\n      dup7\n        /* \"contracts/SimpleVoting.sol\":6185:6196  voters[_to] */\n      0xffffffffffffffffffffffffffffffffffffffff\n      and\n      0xffffffffffffffffffffffffffffffffffffffff\n      and\n      dup2\n      mstore\n      0x20\n      add\n      swap1\n      dup2\n      mstore\n      0x20\n      add\n      0x00\n      keccak256\n        /* \"contracts/SimpleVoting.sol\":6185:6205  voters[_to].delegate */\n      0x01\n      add\n      0x01\n      swap1\n      sload\n      swap1\n      0x0100\n      exp\n      swap1\n      div\n      0xffffffffffffffffffffffffffffffffffffffff\n      and\n        /* \"contracts/SimpleVoting.sol\":6185:6219  voters[_to].delegate != address(0) */\n      0xffffffffffffffffffffffffffffffffffffffff\n      and\n      eq\n        /* \"contracts/SimpleVoting.sol\":6178:6431  while (voters[_to].delegate != address(0)) {... */\n      tag_115\n      jumpi\n        /* \"contracts/SimpleVoting.sol\":6242:6248  voters */\n      0x02\n        /* \"contracts/SimpleVoting.sol\":6242:6253  voters[_to] */\n      0x00\n        /* \"contracts/SimpleVoting.sol\":6249:6252  _to */\n      dup6\n        /* \"contracts/SimpleVoting.sol\":6242:6253  voters[_to] */\n      0xffffffffffffffffffffffffffffffffffffffff\n      and\n      0xffffffffffffffffffffffffffffffffffffffff\n      and\n      dup2\n      mstore\n      0x20\n      add\n      swap1\n      dup2\n      mstore\n      0x20\n      add\n      0x00\n      keccak256\n        /* \"contracts/SimpleVoting.sol\":6242:6262  voters[_to].delegate */\n      0x01\n      add\n      0x01\n      swap1\n      sload\n      swap1\n      0x0100\n      exp\n      swap1\n      div\n      0xffffffffffffffffffffffffffffffffffffffff\n      and\n        /* \"contracts/SimpleVoting.sol\":6236:6262  _to = voters[_to].delegate */\n      swap4\n      pop\n        /* \"contracts/SimpleVoting.sol\":6355:6367  _msgSender() */\n      tag_116\n        /* \"contracts/SimpleVoting.sol\":6355:6365  _msgSender */\n      tag_63\n        /* \"contracts/SimpleVoting.sol\":6355:6367  _msgSender() */\n      jump\t// in\n    tag_116:\n        /* \"contracts/SimpleVoting.sol\":6348:6367  _to != _msgSender() */\n      0xffffffffffffffffffffffffffffffffffffffff\n      and\n        /* \"contracts/SimpleVoting.sol\":6348:6351  _to */\n      dup5\n        /* \"contracts/SimpleVoting.sol\":6348:6367  _to != _msgSender() */\n      0xffffffffffffffffffffffffffffffffffffffff\n      and\n      sub\n        /* \"contracts/SimpleVoting.sol\":6340:6419  require(_to != _msgSender(), \"SimpleVoting: Delegation traces back to caller.\") */\n      tag_117\n      jumpi\n      mload(0x40)\n      0x08c379a000000000000000000000000000000000000000000000000000000000\n      dup2\n      mstore\n      0x04\n      add\n      tag_118\n      swap1\n      tag_119\n      jump\t// in\n    tag_118:\n      mload(0x40)\n      dup1\n      swap2\n      sub\n      swap1\n      revert\n    tag_117:\n        /* \"contracts/SimpleVoting.sol\":6178:6431  while (voters[_to].delegate != address(0)) {... */\n      jump(tag_114)\n    tag_115:\n        /* \"contracts/SimpleVoting.sol\":6456:6460  true */\n      0x01\n        /* \"contracts/SimpleVoting.sol\":6441:6447  sender */\n      dup2\n        /* \"contracts/SimpleVoting.sol\":6441:6453  sender.voted */\n      0x01\n      add\n      0x00\n        /* \"contracts/SimpleVoting.sol\":6441:6460  sender.voted = true */\n      0x0100\n      exp\n      dup2\n      sload\n      dup2\n      0xff\n      mul\n      not\n      and\n      swap1\n      dup4\n      iszero\n      iszero\n      mul\n      or\n      swap1\n      sstore\n      pop\n        /* \"contracts/SimpleVoting.sol\":6489:6492  _to */\n      dup4\n        /* \"contracts/SimpleVoting.sol\":6471:6477  sender */\n      dup2\n        /* \"contracts/SimpleVoting.sol\":6471:6486  sender.delegate */\n      0x01\n      add\n      0x01\n        /* \"contracts/SimpleVoting.sol\":6471:6492  sender.delegate = _to */\n      0x0100\n      exp\n      dup2\n      sload\n      dup2\n      0xffffffffffffffffffffffffffffffffffffffff\n      mul\n      not\n      and\n      swap1\n      dup4\n      0xffffffffffffffffffffffffffffffffffffffff\n      and\n      mul\n      or\n      swap1\n      sstore\n      pop\n        /* \"contracts/SimpleVoting.sol\":6503:6526  Voter storage delegate_ */\n      0x00\n        /* \"contracts/SimpleVoting.sol\":6529:6535  voters */\n      0x02\n        /* \"contracts/SimpleVoting.sol\":6529:6540  voters[_to] */\n      0x00\n        /* \"contracts/SimpleVoting.sol\":6536:6539  _to */\n      dup7\n        /* \"contracts/SimpleVoting.sol\":6529:6540  voters[_to] */\n      0xffffffffffffffffffffffffffffffffffffffff\n      and\n      0xffffffffffffffffffffffffffffffffffffffff\n      and\n      dup2\n      mstore\n      0x20\n      add\n      swap1\n      dup2\n      mstore\n      0x20\n      add\n      0x00\n      keccak256\n        /* \"contracts/SimpleVoting.sol\":6503:6540  Voter storage delegate_ = voters[_to] */\n      swap1\n      pop\n        /* \"contracts/SimpleVoting.sol\":6555:6564  delegate_ */\n      dup1\n        /* \"contracts/SimpleVoting.sol\":6555:6570  delegate_.voted */\n      0x01\n      add\n      0x00\n      swap1\n      sload\n      swap1\n      0x0100\n      exp\n      swap1\n      div\n      0xff\n      and\n        /* \"contracts/SimpleVoting.sol\":6551:6964  if (delegate_.voted) {... */\n      iszero\n      tag_120\n      jumpi\n        /* \"contracts/SimpleVoting.sol\":6724:6779  proposals[delegate_.vote].voteCount. add(sender.weight) */\n      tag_121\n        /* \"contracts/SimpleVoting.sol\":6765:6771  sender */\n      dup3\n        /* \"contracts/SimpleVoting.sol\":6765:6778  sender.weight */\n      0x00\n      add\n      sload\n        /* \"contracts/SimpleVoting.sol\":6724:6733  proposals */\n      0x03\n        /* \"contracts/SimpleVoting.sol\":6734:6743  delegate_ */\n      dup4\n        /* \"contracts/SimpleVoting.sol\":6734:6748  delegate_.vote */\n      0x02\n      add\n      sload\n        /* \"contracts/SimpleVoting.sol\":6724:6749  proposals[delegate_.vote] */\n      dup2\n      sload\n      dup2\n      lt\n      tag_122\n      jumpi\n      tag_123\n      tag_78\n      jump\t// in\n    tag_123:\n    tag_122:\n      swap1\n      0x00\n      mstore\n      keccak256(0x00, 0x20)\n      swap1\n      0x02\n      mul\n      add\n        /* \"contracts/SimpleVoting.sol\":6724:6759  proposals[delegate_.vote].voteCount */\n      0x01\n      add\n      sload\n        /* \"contracts/SimpleVoting.sol\":6724:6764  proposals[delegate_.vote].voteCount. add */\n      tag_57\n      swap1\n        /* \"contracts/SimpleVoting.sol\":6724:6779  proposals[delegate_.vote].voteCount. add(sender.weight) */\n      swap2\n      swap1\n      0xffffffff\n      and\n      jump\t// in\n    tag_121:\n        /* \"contracts/SimpleVoting.sol\":6686:6695  proposals */\n      0x03\n        /* \"contracts/SimpleVoting.sol\":6696:6705  delegate_ */\n      dup3\n        /* \"contracts/SimpleVoting.sol\":6696:6710  delegate_.vote */\n      0x02\n      add\n      sload\n        /* \"contracts/SimpleVoting.sol\":6686:6711  proposals[delegate_.vote] */\n      dup2\n      sload\n      dup2\n      lt\n      tag_125\n      jumpi\n      tag_126\n      tag_78\n      jump\t// in\n    tag_126:\n    tag_125:\n      swap1\n      0x00\n      mstore\n      keccak256(0x00, 0x20)\n      swap1\n      0x02\n      mul\n      add\n        /* \"contracts/SimpleVoting.sol\":6686:6721  proposals[delegate_.vote].voteCount */\n      0x01\n      add\n        /* \"contracts/SimpleVoting.sol\":6686:6779  proposals[delegate_.vote].voteCount = proposals[delegate_.vote].voteCount. add(sender.weight) */\n      dup2\n      swap1\n      sstore\n      pop\n        /* \"contracts/SimpleVoting.sol\":6551:6964  if (delegate_.voted) {... */\n      jump(tag_128)\n    tag_120:\n        /* \"contracts/SimpleVoting.sol\":6916:6952  delegate_.weight. add(sender.weight) */\n      tag_129\n        /* \"contracts/SimpleVoting.sol\":6938:6944  sender */\n      dup3\n        /* \"contracts/SimpleVoting.sol\":6938:6951  sender.weight */\n      0x00\n      add\n      sload\n        /* \"contracts/SimpleVoting.sol\":6916:6925  delegate_ */\n      dup3\n        /* \"contracts/SimpleVoting.sol\":6916:6932  delegate_.weight */\n      0x00\n      add\n      sload\n        /* \"contracts/SimpleVoting.sol\":6916:6937  delegate_.weight. add */\n      tag_57\n      swap1\n        /* \"contracts/SimpleVoting.sol\":6916:6952  delegate_.weight. add(sender.weight) */\n      swap2\n      swap1\n      0xffffffff\n      and\n      jump\t// in\n    tag_129:\n        /* \"contracts/SimpleVoting.sol\":6897:6906  delegate_ */\n      dup2\n        /* \"contracts/SimpleVoting.sol\":6897:6913  delegate_.weight */\n      0x00\n      add\n        /* \"contracts/SimpleVoting.sol\":6897:6952  delegate_.weight = delegate_.weight. add(sender.weight) */\n      dup2\n      swap1\n      sstore\n      pop\n        /* \"contracts/SimpleVoting.sol\":6551:6964  if (delegate_.voted) {... */\n    tag_128:\n        /* \"contracts/SimpleVoting.sol\":7017:7020  _to */\n      dup5\n        /* \"contracts/SimpleVoting.sol\":6981:7021  DelegationSuccessful (_msgSender(), _to) */\n      0xffffffffffffffffffffffffffffffffffffffff\n      and\n        /* \"contracts/SimpleVoting.sol\":7003:7015  _msgSender() */\n      tag_130\n        /* \"contracts/SimpleVoting.sol\":7003:7013  _msgSender */\n      tag_63\n        /* \"contracts/SimpleVoting.sol\":7003:7015  _msgSender() */\n      jump\t// in\n    tag_130:\n        /* \"contracts/SimpleVoting.sol\":6981:7021  DelegationSuccessful (_msgSender(), _to) */\n      0xffffffffffffffffffffffffffffffffffffffff\n      and\n      0x4ce9ef2c99d761d69230b0e3381f4c6016333b2e27d32b3e379a96b5d2c69232\n      mload(0x40)\n      mload(0x40)\n      dup1\n      swap2\n      sub\n      swap1\n      log3\n        /* \"contracts/SimpleVoting.sol\":6022:7029  {... */\n      pop\n      pop\n        /* \"contracts/SimpleVoting.sol\":2748:2749  _ */\n      pop\n        /* \"contracts/SimpleVoting.sol\":5927:7029  function delegate(address _to) public notYetVoted (_msgSender()) hasRightToVote (_msgSender()) {... */\n      pop\n      pop\n      jump\t// out\n        /* \"contracts/SimpleVoting.sol\":7732:8358  function computeWinningProposals() public ... */\n    tag_28:\n        /* \"contracts/SimpleVoting.sol\":7791:7812  uint winningVoteCount */\n      0x00\n        /* \"contracts/SimpleVoting.sol\":7818:7832  uint256 winner */\n      dup1\n        /* \"contracts/SimpleVoting.sol\":7854:7870  winningProposals */\n      0x04\n      0x00\n        /* \"contracts/SimpleVoting.sol\":7847:7870  delete winningProposals */\n      tag_132\n      swap2\n      swap1\n      tag_133\n      jump\t// in\n    tag_132:\n        /* \"contracts/SimpleVoting.sol\":7886:7892  uint p */\n      0x00\n        /* \"contracts/SimpleVoting.sol\":7881:8127  for (uint p = 0; p < proposals.length; p = p. add(1)) {... */\n    tag_134:\n        /* \"contracts/SimpleVoting.sol\":7902:7911  proposals */\n      0x03\n        /* \"contracts/SimpleVoting.sol\":7902:7918  proposals.length */\n      dup1\n      sload\n      swap1\n      pop\n        /* \"contracts/SimpleVoting.sol\":7898:7899  p */\n      dup2\n        /* \"contracts/SimpleVoting.sol\":7898:7918  p < proposals.length */\n      lt\n        /* \"contracts/SimpleVoting.sol\":7881:8127  for (uint p = 0; p < proposals.length; p = p. add(1)) {... */\n      iszero\n      tag_135\n      jumpi\n        /* \"contracts/SimpleVoting.sol\":7979:7995  winningVoteCount */\n      dup3\n        /* \"contracts/SimpleVoting.sol\":7954:7963  proposals */\n      0x03\n        /* \"contracts/SimpleVoting.sol\":7964:7965  p */\n      dup3\n        /* \"contracts/SimpleVoting.sol\":7954:7966  proposals[p] */\n      dup2\n      sload\n      dup2\n      lt\n      tag_137\n      jumpi\n      tag_138\n      tag_78\n      jump\t// in\n    tag_138:\n    tag_137:\n      swap1\n      0x00\n      mstore\n      keccak256(0x00, 0x20)\n      swap1\n      0x02\n      mul\n      add\n        /* \"contracts/SimpleVoting.sol\":7954:7976  proposals[p].voteCount */\n      0x01\n      add\n      sload\n        /* \"contracts/SimpleVoting.sol\":7954:7995  proposals[p].voteCount > winningVoteCount */\n      gt\n        /* \"contracts/SimpleVoting.sol\":7950:8116  if (proposals[p].voteCount > winningVoteCount) {... */\n      iszero\n      tag_140\n      jumpi\n        /* \"contracts/SimpleVoting.sol\":8035:8044  proposals */\n      0x03\n        /* \"contracts/SimpleVoting.sol\":8045:8046  p */\n      dup2\n        /* \"contracts/SimpleVoting.sol\":8035:8047  proposals[p] */\n      dup2\n      sload\n      dup2\n      lt\n      tag_141\n      jumpi\n      tag_142\n      tag_78\n      jump\t// in\n    tag_142:\n    tag_141:\n      swap1\n      0x00\n      mstore\n      keccak256(0x00, 0x20)\n      swap1\n      0x02\n      mul\n      add\n        /* \"contracts/SimpleVoting.sol\":8035:8057  proposals[p].voteCount */\n      0x01\n      add\n      sload\n        /* \"contracts/SimpleVoting.sol\":8016:8057  winningVoteCount = proposals[p].voteCount */\n      swap3\n      pop\n        /* \"contracts/SimpleVoting.sol\":8076:8092  winningProposals */\n      0x04\n        /* \"contracts/SimpleVoting.sol\":8098:8099  p */\n      dup2\n        /* \"contracts/SimpleVoting.sol\":8076:8100  winningProposals.push(p) */\n      swap1\n      dup1\n      0x01\n      dup2\n      sload\n      add\n      dup1\n      dup3\n      sstore\n      dup1\n      swap2\n      pop\n      pop\n      0x01\n      swap1\n      sub\n      swap1\n      0x00\n      mstore\n      keccak256(0x00, 0x20)\n      add\n      0x00\n      swap1\n      swap2\n      swap1\n      swap2\n      swap1\n      swap2\n      pop\n      sstore\n        /* \"contracts/SimpleVoting.sol\":7950:8116  if (proposals[p].voteCount > winningVoteCount) {... */\n    tag_140:\n        /* \"contracts/SimpleVoting.sol\":7924:7933  p. add(1) */\n      tag_145\n        /* \"contracts/SimpleVoting.sol\":7931:7932  1 */\n      0x01\n        /* \"contracts/SimpleVoting.sol\":7924:7925  p */\n      dup3\n        /* \"contracts/SimpleVoting.sol\":7924:7930  p. add */\n      tag_57\n      swap1\n        /* \"contracts/SimpleVoting.sol\":7924:7933  p. add(1) */\n      swap2\n      swap1\n      0xffffffff\n      and\n      jump\t// in\n    tag_145:\n        /* \"contracts/SimpleVoting.sol\":7920:7933  p = p. add(1) */\n      swap1\n      pop\n        /* \"contracts/SimpleVoting.sol\":7881:8127  for (uint p = 0; p < proposals.length; p = p. add(1)) {... */\n      jump(tag_134)\n    tag_135:\n      pop\n        /* \"contracts/SimpleVoting.sol\":8142:8148  uint p */\n      0x00\n        /* \"contracts/SimpleVoting.sol\":8137:8351  for (uint p = 0; p < proposals.length; p = p. add(1)) {... */\n    tag_146:\n        /* \"contracts/SimpleVoting.sol\":8158:8167  proposals */\n      0x03\n        /* \"contracts/SimpleVoting.sol\":8158:8174  proposals.length */\n      dup1\n      sload\n      swap1\n      pop\n        /* \"contracts/SimpleVoting.sol\":8154:8155  p */\n      dup2\n        /* \"contracts/SimpleVoting.sol\":8154:8174  p < proposals.length */\n      lt\n        /* \"contracts/SimpleVoting.sol\":8137:8351  for (uint p = 0; p < proposals.length; p = p. add(1)) {... */\n      iszero\n      tag_147\n      jumpi\n        /* \"contracts/SimpleVoting.sol\":8236:8245  proposals */\n      0x03\n        /* \"contracts/SimpleVoting.sol\":8246:8252  winner */\n      dup3\n        /* \"contracts/SimpleVoting.sol\":8236:8253  proposals[winner] */\n      dup2\n      sload\n      dup2\n      lt\n      tag_149\n      jumpi\n      tag_150\n      tag_78\n      jump\t// in\n    tag_150:\n    tag_149:\n      swap1\n      0x00\n      mstore\n      keccak256(0x00, 0x20)\n      swap1\n      0x02\n      mul\n      add\n        /* \"contracts/SimpleVoting.sol\":8236:8263  proposals[winner].voteCount */\n      0x01\n      add\n      sload\n        /* \"contracts/SimpleVoting.sol\":8210:8219  proposals */\n      0x03\n        /* \"contracts/SimpleVoting.sol\":8220:8221  p */\n      dup3\n        /* \"contracts/SimpleVoting.sol\":8210:8222  proposals[p] */\n      dup2\n      sload\n      dup2\n      lt\n      tag_152\n      jumpi\n      tag_153\n      tag_78\n      jump\t// in\n    tag_153:\n    tag_152:\n      swap1\n      0x00\n      mstore\n      keccak256(0x00, 0x20)\n      swap1\n      0x02\n      mul\n      add\n        /* \"contracts/SimpleVoting.sol\":8210:8232  proposals[p].voteCount */\n      0x01\n      add\n      sload\n        /* \"contracts/SimpleVoting.sol\":8210:8263  proposals[p].voteCount == proposals[winner].voteCount */\n      eq\n        /* \"contracts/SimpleVoting.sol\":8210:8278  proposals[p].voteCount == proposals[winner].voteCount && p != winner */\n      dup1\n      iszero\n      tag_155\n      jumpi\n      pop\n        /* \"contracts/SimpleVoting.sol\":8272:8278  winner */\n      dup2\n        /* \"contracts/SimpleVoting.sol\":8267:8268  p */\n      dup2\n        /* \"contracts/SimpleVoting.sol\":8267:8278  p != winner */\n      eq\n      iszero\n        /* \"contracts/SimpleVoting.sol\":8210:8278  proposals[p].voteCount == proposals[winner].voteCount && p != winner */\n    tag_155:\n        /* \"contracts/SimpleVoting.sol\":8206:8340  if (proposals[p].voteCount == proposals[winner].voteCount && p != winner) {... */\n      iszero\n      tag_156\n      jumpi\n        /* \"contracts/SimpleVoting.sol\":8300:8316  winningProposals */\n      0x04\n        /* \"contracts/SimpleVoting.sol\":8322:8323  p */\n      dup2\n        /* \"contracts/SimpleVoting.sol\":8300:8324  winningProposals.push(p) */\n      swap1\n      dup1\n      0x01\n      dup2\n      sload\n      add\n      dup1\n      dup3\n      sstore\n      dup1\n      swap2\n      pop\n      pop\n      0x01\n      swap1\n      sub\n      swap1\n      0x00\n      mstore\n      keccak256(0x00, 0x20)\n      add\n      0x00\n      swap1\n      swap2\n      swap1\n      swap2\n      swap1\n      swap2\n      pop\n      sstore\n        /* \"contracts/SimpleVoting.sol\":8206:8340  if (proposals[p].voteCount == proposals[winner].voteCount && p != winner) {... */\n    tag_156:\n        /* \"contracts/SimpleVoting.sol\":8180:8189  p. add(1) */\n      tag_158\n        /* \"contracts/SimpleVoting.sol\":8187:8188  1 */\n      0x01\n        /* \"contracts/SimpleVoting.sol\":8180:8181  p */\n      dup3\n        /* \"contracts/SimpleVoting.sol\":8180:8186  p. add */\n      tag_57\n      swap1\n        /* \"contracts/SimpleVoting.sol\":8180:8189  p. add(1) */\n      swap2\n      swap1\n      0xffffffff\n      and\n      jump\t// in\n    tag_158:\n        /* \"contracts/SimpleVoting.sol\":8176:8189  p = p. add(1) */\n      swap1\n      pop\n        /* \"contracts/SimpleVoting.sol\":8137:8351  for (uint p = 0; p < proposals.length; p = p. add(1)) {... */\n      jump(tag_146)\n    tag_147:\n      pop\n        /* \"contracts/SimpleVoting.sol\":7780:8358  {... */\n      pop\n      pop\n        /* \"contracts/SimpleVoting.sol\":7732:8358  function computeWinningProposals() public ... */\n      jump\t// out\n        /* \"contracts/SimpleVoting.sol\":5667:5795  function transferChairpersonship (address _to) public onlyChairPerson() hasRightToVote(_to) {... */\n    tag_31:\n        /* \"contracts/SimpleVoting.sol\":2312:2323  chairPerson */\n      0x01\n      0x00\n      swap1\n      sload\n      swap1\n      0x0100\n      exp\n      swap1\n      div\n      0xffffffffffffffffffffffffffffffffffffffff\n      and\n        /* \"contracts/SimpleVoting.sol\":2296:2323  _msgSender() == chairPerson */\n      0xffffffffffffffffffffffffffffffffffffffff\n      and\n        /* \"contracts/SimpleVoting.sol\":2296:2308  _msgSender() */\n      tag_160\n        /* \"contracts/SimpleVoting.sol\":2296:2306  _msgSender */\n      tag_63\n        /* \"contracts/SimpleVoting.sol\":2296:2308  _msgSender() */\n      jump\t// in\n    tag_160:\n        /* \"contracts/SimpleVoting.sol\":2296:2323  _msgSender() == chairPerson */\n      0xffffffffffffffffffffffffffffffffffffffff\n      and\n      eq\n        /* \"contracts/SimpleVoting.sol\":2274:2405  require(... */\n      tag_161\n      jumpi\n      mload(0x40)\n      0x08c379a000000000000000000000000000000000000000000000000000000000\n      dup2\n      mstore\n      0x04\n      add\n      tag_162\n      swap1\n      tag_163\n      jump\t// in\n    tag_162:\n      mload(0x40)\n      dup1\n      swap2\n      sub\n      swap1\n      revert\n    tag_161:\n        /* \"contracts/SimpleVoting.sol\":5754:5757  _to */\n      dup1\n        /* \"contracts/SimpleVoting.sol\":3354:3355  0 */\n      0x00\n        /* \"contracts/SimpleVoting.sol\":3330:3336  voters */\n      0x02\n        /* \"contracts/SimpleVoting.sol\":3330:3344  voters[_voter] */\n      0x00\n        /* \"contracts/SimpleVoting.sol\":3337:3343  _voter */\n      dup4\n        /* \"contracts/SimpleVoting.sol\":3330:3344  voters[_voter] */\n      0xffffffffffffffffffffffffffffffffffffffff\n      and\n      0xffffffffffffffffffffffffffffffffffffffff\n      and\n      dup2\n      mstore\n      0x20\n      add\n      swap1\n      dup2\n      mstore\n      0x20\n      add\n      0x00\n      keccak256\n        /* \"contracts/SimpleVoting.sol\":3330:3351  voters[_voter].weight */\n      0x00\n      add\n      sload\n        /* \"contracts/SimpleVoting.sol\":3330:3355  voters[_voter].weight > 0 */\n      gt\n        /* \"contracts/SimpleVoting.sol\":3307:3433  require (... */\n      tag_165\n      jumpi\n      mload(0x40)\n      0x08c379a000000000000000000000000000000000000000000000000000000000\n      dup2\n      mstore\n      0x04\n      add\n      tag_166\n      swap1\n      tag_72\n      jump\t// in\n    tag_166:\n      mload(0x40)\n      dup1\n      swap2\n      sub\n      swap1\n      revert\n    tag_165:\n        /* \"contracts/SimpleVoting.sol\":5784:5787  _to */\n      dup2\n        /* \"contracts/SimpleVoting.sol\":5770:5781  chairPerson */\n      0x01\n      0x00\n        /* \"contracts/SimpleVoting.sol\":5770:5787  chairPerson = _to */\n      0x0100\n      exp\n      dup2\n      sload\n      dup2\n      0xffffffffffffffffffffffffffffffffffffffff\n      mul\n      not\n      and\n      swap1\n      dup4\n      0xffffffffffffffffffffffffffffffffffffffff\n      and\n      mul\n      or\n      swap1\n      sstore\n      pop\n        /* \"contracts/SimpleVoting.sol\":2416:2417  _ */\n      pop\n        /* \"contracts/SimpleVoting.sol\":5667:5795  function transferChairpersonship (address _to) public onlyChairPerson() hasRightToVote(_to) {... */\n      pop\n      jump\t// out\n        /* \"contracts/SimpleVoting.sol\":5431:5659  function giveRightToVote(address _voter) public onlyChairPerson() notYetVoted(_voter) {... */\n    tag_34:\n        /* \"contracts/SimpleVoting.sol\":2312:2323  chairPerson */\n      0x01\n      0x00\n      swap1\n      sload\n      swap1\n      0x0100\n      exp\n      swap1\n      div\n      0xffffffffffffffffffffffffffffffffffffffff\n      and\n        /* \"contracts/SimpleVoting.sol\":2296:2323  _msgSender() == chairPerson */\n      0xffffffffffffffffffffffffffffffffffffffff\n      and\n        /* \"contracts/SimpleVoting.sol\":2296:2308  _msgSender() */\n      tag_169\n        /* \"contracts/SimpleVoting.sol\":2296:2306  _msgSender */\n      tag_63\n        /* \"contracts/SimpleVoting.sol\":2296:2308  _msgSender() */\n      jump\t// in\n    tag_169:\n        /* \"contracts/SimpleVoting.sol\":2296:2323  _msgSender() == chairPerson */\n      0xffffffffffffffffffffffffffffffffffffffff\n      and\n      eq\n        /* \"contracts/SimpleVoting.sol\":2274:2405  require(... */\n      tag_170\n      jumpi\n      mload(0x40)\n      0x08c379a000000000000000000000000000000000000000000000000000000000\n      dup2\n      mstore\n      0x04\n      add\n      tag_171\n      swap1\n      tag_163\n      jump\t// in\n    tag_171:\n      mload(0x40)\n      dup1\n      swap2\n      sub\n      swap1\n      revert\n    tag_170:\n        /* \"contracts/SimpleVoting.sol\":5509:5515  _voter */\n      dup1\n        /* \"contracts/SimpleVoting.sol\":2647:2653  voters */\n      0x02\n        /* \"contracts/SimpleVoting.sol\":2647:2661  voters[_voter] */\n      0x00\n        /* \"contracts/SimpleVoting.sol\":2654:2660  _voter */\n      dup3\n        /* \"contracts/SimpleVoting.sol\":2647:2661  voters[_voter] */\n      0xffffffffffffffffffffffffffffffffffffffff\n      and\n      0xffffffffffffffffffffffffffffffffffffffff\n      and\n      dup2\n      mstore\n      0x20\n      add\n      swap1\n      dup2\n      mstore\n      0x20\n      add\n      0x00\n      keccak256\n        /* \"contracts/SimpleVoting.sol\":2647:2667  voters[_voter].voted */\n      0x01\n      add\n      0x00\n      swap1\n      sload\n      swap1\n      0x0100\n      exp\n      swap1\n      div\n      0xff\n      and\n        /* \"contracts/SimpleVoting.sol\":2646:2667  !voters[_voter].voted */\n      iszero\n        /* \"contracts/SimpleVoting.sol\":2624:2737  require(... */\n      tag_173\n      jumpi\n      mload(0x40)\n      0x08c379a000000000000000000000000000000000000000000000000000000000\n      dup2\n      mstore\n      0x04\n      add\n      tag_174\n      swap1\n      tag_67\n      jump\t// in\n    tag_174:\n      mload(0x40)\n      dup1\n      swap2\n      sub\n      swap1\n      revert\n    tag_173:\n        /* \"contracts/SimpleVoting.sol\":5561:5562  0 */\n      0x00\n        /* \"contracts/SimpleVoting.sol\":5536:5542  voters */\n      0x02\n        /* \"contracts/SimpleVoting.sol\":5536:5550  voters[_voter] */\n      0x00\n        /* \"contracts/SimpleVoting.sol\":5543:5549  _voter */\n      dup5\n        /* \"contracts/SimpleVoting.sol\":5536:5550  voters[_voter] */\n      0xffffffffffffffffffffffffffffffffffffffff\n      and\n      0xffffffffffffffffffffffffffffffffffffffff\n      and\n      dup2\n      mstore\n      0x20\n      add\n      swap1\n      dup2\n      mstore\n      0x20\n      add\n      0x00\n      keccak256\n        /* \"contracts/SimpleVoting.sol\":5536:5557  voters[_voter].weight */\n      0x00\n      add\n      sload\n        /* \"contracts/SimpleVoting.sol\":5536:5562  voters[_voter].weight == 0 */\n      eq\n        /* \"contracts/SimpleVoting.sol\":5528:5615  require(voters[_voter].weight == 0, \"SimpleVoting: Address already has right to vote.\") */\n      tag_176\n      jumpi\n      mload(0x40)\n      0x08c379a000000000000000000000000000000000000000000000000000000000\n      dup2\n      mstore\n      0x04\n      add\n      tag_177\n      swap1\n      tag_178\n      jump\t// in\n    tag_177:\n      mload(0x40)\n      dup1\n      swap2\n      sub\n      swap1\n      revert\n    tag_176:\n        /* \"contracts/SimpleVoting.sol\":5650:5651  1 */\n      0x01\n        /* \"contracts/SimpleVoting.sol\":5626:5632  voters */\n      0x02\n        /* \"contracts/SimpleVoting.sol\":5626:5640  voters[_voter] */\n      0x00\n        /* \"contracts/SimpleVoting.sol\":5633:5639  _voter */\n      dup5\n        /* \"contracts/SimpleVoting.sol\":5626:5640  voters[_voter] */\n      0xffffffffffffffffffffffffffffffffffffffff\n      and\n      0xffffffffffffffffffffffffffffffffffffffff\n      and\n      dup2\n      mstore\n      0x20\n      add\n      swap1\n      dup2\n      mstore\n      0x20\n      add\n      0x00\n      keccak256\n        /* \"contracts/SimpleVoting.sol\":5626:5647  voters[_voter].weight */\n      0x00\n      add\n        /* \"contracts/SimpleVoting.sol\":5626:5651  voters[_voter].weight = 1 */\n      dup2\n      swap1\n      sstore\n      pop\n        /* \"contracts/SimpleVoting.sol\":2416:2417  _ */\n      pop\n        /* \"contracts/SimpleVoting.sol\":5431:5659  function giveRightToVote(address _voter) public onlyChairPerson() notYetVoted(_voter) {... */\n      pop\n      jump\t// out\n        /* \"contracts/SimpleVoting.sol\":1338:1377  mapping(address => Voter) public voters */\n    tag_37:\n      mstore(0x20, 0x02)\n      dup1\n      0x00\n      mstore\n      keccak256(0x00, 0x40)\n      0x00\n      swap2\n      pop\n      swap1\n      pop\n      dup1\n      0x00\n      add\n      sload\n      swap1\n      dup1\n      0x01\n      add\n      0x00\n      swap1\n      sload\n      swap1\n      0x0100\n      exp\n      swap1\n      div\n      0xff\n      and\n      swap1\n      dup1\n      0x01\n      add\n      0x01\n      swap1\n      sload\n      swap1\n      0x0100\n      exp\n      swap1\n      div\n      0xffffffffffffffffffffffffffffffffffffffff\n      and\n      swap1\n      dup1\n      0x02\n      add\n      sload\n      swap1\n      pop\n      dup5\n      jump\t// out\n        /* \"contracts/SimpleVoting.sol\":4474:4968  function getProposal (uint256 _proposalIndex) public view proposalExists(_proposalIndex) returns (string memory proposalName_, uint256 voteCount_) {... */\n    tag_42:\n        /* \"contracts/SimpleVoting.sol\":4572:4599  string memory proposalName_ */\n      0x60\n        /* \"contracts/SimpleVoting.sol\":4601:4619  uint256 voteCount_ */\n      0x00\n        /* \"contracts/SimpleVoting.sol\":4547:4561  _proposalIndex */\n      dup3\n        /* \"contracts/SimpleVoting.sol\":3004:3017  proposalCount */\n      sload(0x00)\n        /* \"contracts/SimpleVoting.sol\":2987:3001  _proposalIndex */\n      dup2\n        /* \"contracts/SimpleVoting.sol\":2987:3017  _proposalIndex < proposalCount */\n      lt\n        /* \"contracts/SimpleVoting.sol\":2964:3089  require (... */\n      tag_180\n      jumpi\n      mload(0x40)\n      0x08c379a000000000000000000000000000000000000000000000000000000000\n      dup2\n      mstore\n      0x04\n      add\n      tag_181\n      swap1\n      tag_61\n      jump\t// in\n    tag_181:\n      mload(0x40)\n      dup1\n      swap2\n      sub\n      swap1\n      revert\n    tag_180:\n        /* \"contracts/SimpleVoting.sol\":4874:4922  bytes32ToString (proposals[_proposalIndex].name) */\n      tag_183\n        /* \"contracts/SimpleVoting.sol\":4891:4900  proposals */\n      0x03\n        /* \"contracts/SimpleVoting.sol\":4901:4915  _proposalIndex */\n      dup6\n        /* \"contracts/SimpleVoting.sol\":4891:4916  proposals[_proposalIndex] */\n      dup2\n      sload\n      dup2\n      lt\n      tag_184\n      jumpi\n      tag_185\n      tag_78\n      jump\t// in\n    tag_185:\n    tag_184:\n      swap1\n      0x00\n      mstore\n      keccak256(0x00, 0x20)\n      swap1\n      0x02\n      mul\n      add\n        /* \"contracts/SimpleVoting.sol\":4891:4921  proposals[_proposalIndex].name */\n      0x00\n      add\n      sload\n        /* \"contracts/SimpleVoting.sol\":4874:4889  bytes32ToString */\n      tag_187\n        /* \"contracts/SimpleVoting.sol\":4874:4922  bytes32ToString (proposals[_proposalIndex].name) */\n      jump\t// in\n    tag_183:\n        /* \"contracts/SimpleVoting.sol\":4924:4933  proposals */\n      0x03\n        /* \"contracts/SimpleVoting.sol\":4934:4948  _proposalIndex */\n      dup6\n        /* \"contracts/SimpleVoting.sol\":4924:4949  proposals[_proposalIndex] */\n      dup2\n      sload\n      dup2\n      lt\n      tag_188\n      jumpi\n      tag_189\n      tag_78\n      jump\t// in\n    tag_189:\n    tag_188:\n      swap1\n      0x00\n      mstore\n      keccak256(0x00, 0x20)\n      swap1\n      0x02\n      mul\n      add\n        /* \"contracts/SimpleVoting.sol\":4924:4959  proposals[_proposalIndex].voteCount */\n      0x01\n      add\n      sload\n        /* \"contracts/SimpleVoting.sol\":4833:4960  (proposalName_, voteCount_) = ... */\n      dup1\n      swap4\n      pop\n      dup2\n      swap5\n      pop\n      pop\n      pop\n        /* \"contracts/SimpleVoting.sol\":4474:4968  function getProposal (uint256 _proposalIndex) public view proposalExists(_proposalIndex) returns (string memory proposalName_, uint256 voteCount_) {... */\n      pop\n      swap2\n      pop\n      swap2\n      jump\t// out\n        /* \"contracts/SimpleVoting.sol\":1216:1242  address public chairPerson */\n    tag_46:\n      0x01\n      0x00\n      swap1\n      sload\n      swap1\n      0x0100\n      exp\n      swap1\n      div\n      0xffffffffffffffffffffffffffffffffffffffff\n      and\n      dup2\n      jump\t// out\n        /* \"contracts/SimpleVoting.sol\":1137:1165  uint256 public proposalCount */\n    tag_50:\n      sload(0x00)\n      dup2\n      jump\t// out\n        /* \"contracts/SimpleVoting.sol\":5151:5263  function getWinningProposals () public view returns (uint256[] memory){... */\n    tag_54:\n        /* \"contracts/SimpleVoting.sol\":5204:5220  uint256[] memory */\n      0x60\n        /* \"contracts/SimpleVoting.sol\":5239:5255  winningProposals */\n      0x04\n        /* \"contracts/SimpleVoting.sol\":5232:5255  return winningProposals */\n      dup1\n      sload\n      dup1\n      0x20\n      mul\n      0x20\n      add\n      mload(0x40)\n      swap1\n      dup2\n      add\n      0x40\n      mstore\n      dup1\n      swap3\n      swap2\n      swap1\n      dup2\n      dup2\n      mstore\n      0x20\n      add\n      dup3\n      dup1\n      sload\n      dup1\n      iszero\n      tag_192\n      jumpi\n      0x20\n      mul\n      dup3\n      add\n      swap2\n      swap1\n      0x00\n      mstore\n      keccak256(0x00, 0x20)\n      swap1\n    tag_193:\n      dup2\n      sload\n      dup2\n      mstore\n      0x20\n      add\n      swap1\n      0x01\n      add\n      swap1\n      dup1\n      dup4\n      gt\n      tag_193\n      jumpi\n    tag_192:\n      pop\n      pop\n      pop\n      pop\n      pop\n      swap1\n      pop\n        /* \"contracts/SimpleVoting.sol\":5151:5263  function getWinningProposals () public view returns (uint256[] memory){... */\n      swap1\n      jump\t// out\n        /* \"https://github.com/OpenZeppelin/openzeppelin-contracts/blob/master/contracts/utils/math/SafeMath.sol\":2755:2851  function add(uint256 a, uint256 b) internal pure returns (uint256) {... */\n    tag_57:\n        /* \"https://github.com/OpenZeppelin/openzeppelin-contracts/blob/master/contracts/utils/math/SafeMath.sol\":2813:2820  uint256 */\n      0x00\n        /* \"https://github.com/OpenZeppelin/openzeppelin-contracts/blob/master/contracts/utils/math/SafeMath.sol\":2843:2844  b */\n      dup2\n        /* \"https://github.com/OpenZeppelin/openzeppelin-contracts/blob/master/contracts/utils/math/SafeMath.sol\":2839:2840  a */\n      dup4\n        /* \"https://github.com/OpenZeppelin/openzeppelin-contracts/blob/master/contracts/utils/math/SafeMath.sol\":2839:2844  a + b */\n      tag_195\n      swap2\n      swap1\n      tag_196\n      jump\t// in\n    tag_195:\n        /* \"https://github.com/OpenZeppelin/openzeppelin-contracts/blob/master/contracts/utils/math/SafeMath.sol\":2832:2844  return a + b */\n      swap1\n      pop\n        /* \"https://github.com/OpenZeppelin/openzeppelin-contracts/blob/master/contracts/utils/math/SafeMath.sol\":2755:2851  function add(uint256 a, uint256 b) internal pure returns (uint256) {... */\n      swap3\n      swap2\n      pop\n      pop\n      jump\t// out\n        /* \"https://github.com/OpenZeppelin/openzeppelin-contracts/blob/master/contracts/utils/Context.sol\":640:736  function _msgSender() internal view virtual returns (address) {... */\n    tag_63:\n        /* \"https://github.com/OpenZeppelin/openzeppelin-contracts/blob/master/contracts/utils/Context.sol\":693:700  address */\n      0x00\n        /* \"https://github.com/OpenZeppelin/openzeppelin-contracts/blob/master/contracts/utils/Context.sol\":719:729  msg.sender */\n      caller\n        /* \"https://github.com/OpenZeppelin/openzeppelin-contracts/blob/master/contracts/utils/Context.sol\":712:729  return msg.sender */\n      swap1\n      pop\n        /* \"https://github.com/OpenZeppelin/openzeppelin-contracts/blob/master/contracts/utils/Context.sol\":640:736  function _msgSender() internal view virtual returns (address) {... */\n      swap1\n      jump\t// out\n        /* \"contracts/SimpleVoting.sol\":9331:9481  function bytes32ToString(bytes32 byt) ... */\n    tag_187:\n        /* \"contracts/SimpleVoting.sol\":9409:9422  string memory */\n      0x60\n        /* \"contracts/SimpleVoting.sol\":9468:9471  byt */\n      dup2\n        /* \"contracts/SimpleVoting.sol\":9450:9472  abi.encodePacked (byt) */\n      add(0x20, mload(0x40))\n      tag_199\n      swap2\n      swap1\n      tag_96\n      jump\t// in\n    tag_199:\n      mload(0x40)\n      0x20\n      dup2\n      dup4\n      sub\n      sub\n      dup2\n      mstore\n      swap1\n      0x40\n      mstore\n        /* \"contracts/SimpleVoting.sol\":9435:9473  return string (abi.encodePacked (byt)) */\n      swap1\n      pop\n        /* \"contracts/SimpleVoting.sol\":9331:9481  function bytes32ToString(bytes32 byt) ... */\n      swap2\n      swap1\n      pop\n      jump\t// out\n    tag_133:\n      pop\n      dup1\n      sload\n      0x00\n      dup3\n      sstore\n      swap1\n      0x00\n      mstore\n      keccak256(0x00, 0x20)\n      swap1\n      dup2\n      add\n      swap1\n      tag_201\n      swap2\n      swap1\n      tag_202\n      jump\t// in\n    tag_201:\n      pop\n      jump\t// out\n    tag_202:\n    tag_203:\n      dup1\n      dup3\n      gt\n      iszero\n      tag_204\n      jumpi\n      0x00\n      dup2\n      0x00\n      swap1\n      sstore\n      pop\n      0x01\n      add\n      jump(tag_203)\n    tag_204:\n      pop\n      swap1\n      jump\t// out\n        /* \"#utility.yul\":88:205   */\n    tag_206:\n        /* \"#utility.yul\":197:198   */\n      0x00\n        /* \"#utility.yul\":194:195   */\n      dup1\n        /* \"#utility.yul\":187:199   */\n      revert\n        /* \"#utility.yul\":334:411   */\n    tag_208:\n        /* \"#utility.yul\":371:378   */\n      0x00\n        /* \"#utility.yul\":400:405   */\n      dup2\n        /* \"#utility.yul\":389:405   */\n      swap1\n      pop\n        /* \"#utility.yul\":334:411   */\n      swap2\n      swap1\n      pop\n      jump\t// out\n        /* \"#utility.yul\":417:539   */\n    tag_209:\n        /* \"#utility.yul\":490:514   */\n      tag_258\n        /* \"#utility.yul\":508:513   */\n      dup2\n        /* \"#utility.yul\":490:514   */\n      tag_208\n      jump\t// in\n    tag_258:\n        /* \"#utility.yul\":483:488   */\n      dup2\n        /* \"#utility.yul\":480:515   */\n      eq\n        /* \"#utility.yul\":470:533   */\n      tag_259\n      jumpi\n        /* \"#utility.yul\":529:530   */\n      0x00\n        /* \"#utility.yul\":526:527   */\n      dup1\n        /* \"#utility.yul\":519:531   */\n      revert\n        /* \"#utility.yul\":470:533   */\n    tag_259:\n        /* \"#utility.yul\":417:539   */\n      pop\n      jump\t// out\n        /* \"#utility.yul\":545:684   */\n    tag_210:\n        /* \"#utility.yul\":591:596   */\n      0x00\n        /* \"#utility.yul\":629:635   */\n      dup2\n        /* \"#utility.yul\":616:636   */\n      calldataload\n        /* \"#utility.yul\":607:636   */\n      swap1\n      pop\n        /* \"#utility.yul\":645:678   */\n      tag_261\n        /* \"#utility.yul\":672:677   */\n      dup2\n        /* \"#utility.yul\":645:678   */\n      tag_209\n      jump\t// in\n    tag_261:\n        /* \"#utility.yul\":545:684   */\n      swap3\n      swap2\n      pop\n      pop\n      jump\t// out\n        /* \"#utility.yul\":690:1019   */\n    tag_17:\n        /* \"#utility.yul\":749:755   */\n      0x00\n        /* \"#utility.yul\":798:800   */\n      0x20\n        /* \"#utility.yul\":786:795   */\n      dup3\n        /* \"#utility.yul\":777:784   */\n      dup5\n        /* \"#utility.yul\":773:796   */\n      sub\n        /* \"#utility.yul\":769:801   */\n      slt\n        /* \"#utility.yul\":766:885   */\n      iszero\n      tag_263\n      jumpi\n        /* \"#utility.yul\":804:883   */\n      tag_264\n      tag_206\n      jump\t// in\n    tag_264:\n        /* \"#utility.yul\":766:885   */\n    tag_263:\n        /* \"#utility.yul\":924:925   */\n      0x00\n        /* \"#utility.yul\":949:1002   */\n      tag_265\n        /* \"#utility.yul\":994:1001   */\n      dup5\n        /* \"#utility.yul\":985:991   */\n      dup3\n        /* \"#utility.yul\":974:983   */\n      dup6\n        /* \"#utility.yul\":970:992   */\n      add\n        /* \"#utility.yul\":949:1002   */\n      tag_210\n      jump\t// in\n    tag_265:\n        /* \"#utility.yul\":939:1002   */\n      swap2\n      pop\n        /* \"#utility.yul\":895:1012   */\n      pop\n        /* \"#utility.yul\":690:1019   */\n      swap3\n      swap2\n      pop\n      pop\n      jump\t// out\n        /* \"#utility.yul\":1025:1124   */\n    tag_211:\n        /* \"#utility.yul\":1077:1083   */\n      0x00\n        /* \"#utility.yul\":1111:1116   */\n      dup2\n        /* \"#utility.yul\":1105:1117   */\n      mload\n        /* \"#utility.yul\":1095:1117   */\n      swap1\n      pop\n        /* \"#utility.yul\":1025:1124   */\n      swap2\n      swap1\n      pop\n      jump\t// out\n        /* \"#utility.yul\":1130:1299   */\n    tag_212:\n        /* \"#utility.yul\":1214:1225   */\n      0x00\n        /* \"#utility.yul\":1248:1254   */\n      dup3\n        /* \"#utility.yul\":1243:1246   */\n      dup3\n        /* \"#utility.yul\":1236:1255   */\n      mstore\n        /* \"#utility.yul\":1288:1292   */\n      0x20\n        /* \"#utility.yul\":1283:1286   */\n      dup3\n        /* \"#utility.yul\":1279:1293   */\n      add\n        /* \"#utility.yul\":1264:1293   */\n      swap1\n      pop\n        /* \"#utility.yul\":1130:1299   */\n      swap3\n      swap2\n      pop\n      pop\n      jump\t// out\n        /* \"#utility.yul\":1305:1612   */\n    tag_213:\n        /* \"#utility.yul\":1373:1374   */\n      0x00\n        /* \"#utility.yul\":1383:1496   */\n    tag_269:\n        /* \"#utility.yul\":1397:1403   */\n      dup4\n        /* \"#utility.yul\":1394:1395   */\n      dup2\n        /* \"#utility.yul\":1391:1404   */\n      lt\n        /* \"#utility.yul\":1383:1496   */\n      iszero\n      tag_271\n      jumpi\n        /* \"#utility.yul\":1482:1483   */\n      dup1\n        /* \"#utility.yul\":1477:1480   */\n      dup3\n        /* \"#utility.yul\":1473:1484   */\n      add\n        /* \"#utility.yul\":1467:1485   */\n      mload\n        /* \"#utility.yul\":1463:1464   */\n      dup2\n        /* \"#utility.yul\":1458:1461   */\n      dup5\n        /* \"#utility.yul\":1454:1465   */\n      add\n        /* \"#utility.yul\":1447:1486   */\n      mstore\n        /* \"#utility.yul\":1419:1421   */\n      0x20\n        /* \"#utility.yul\":1416:1417   */\n      dup2\n        /* \"#utility.yul\":1412:1422   */\n      add\n        /* \"#utility.yul\":1407:1422   */\n      swap1\n      pop\n        /* \"#utility.yul\":1383:1496   */\n      jump(tag_269)\n    tag_271:\n        /* \"#utility.yul\":1514:1520   */\n      dup4\n        /* \"#utility.yul\":1511:1512   */\n      dup2\n        /* \"#utility.yul\":1508:1521   */\n      gt\n        /* \"#utility.yul\":1505:1606   */\n      iszero\n      tag_272\n      jumpi\n        /* \"#utility.yul\":1594:1595   */\n      0x00\n        /* \"#utility.yul\":1585:1591   */\n      dup5\n        /* \"#utility.yul\":1580:1583   */\n      dup5\n        /* \"#utility.yul\":1576:1592   */\n      add\n        /* \"#utility.yul\":1569:1596   */\n      mstore\n        /* \"#utility.yul\":1505:1606   */\n    tag_272:\n        /* \"#utility.yul\":1354:1612   */\n      pop\n        /* \"#utility.yul\":1305:1612   */\n      pop\n      pop\n      pop\n      jump\t// out\n        /* \"#utility.yul\":1618:1720   */\n    tag_214:\n        /* \"#utility.yul\":1659:1665   */\n      0x00\n        /* \"#utility.yul\":1710:1712   */\n      0x1f\n        /* \"#utility.yul\":1706:1713   */\n      not\n        /* \"#utility.yul\":1701:1703   */\n      0x1f\n        /* \"#utility.yul\":1694:1699   */\n      dup4\n        /* \"#utility.yul\":1690:1704   */\n      add\n        /* \"#utility.yul\":1686:1714   */\n      and\n        /* \"#utility.yul\":1676:1714   */\n      swap1\n      pop\n        /* \"#utility.yul\":1618:1720   */\n      swap2\n      swap1\n      pop\n      jump\t// out\n        /* \"#utility.yul\":1726:2090   */\n    tag_215:\n        /* \"#utility.yul\":1814:1817   */\n      0x00\n        /* \"#utility.yul\":1842:1881   */\n      tag_275\n        /* \"#utility.yul\":1875:1880   */\n      dup3\n        /* \"#utility.yul\":1842:1881   */\n      tag_211\n      jump\t// in\n    tag_275:\n        /* \"#utility.yul\":1897:1968   */\n      tag_276\n        /* \"#utility.yul\":1961:1967   */\n      dup2\n        /* \"#utility.yul\":1956:1959   */\n      dup6\n        /* \"#utility.yul\":1897:1968   */\n      tag_212\n      jump\t// in\n    tag_276:\n        /* \"#utility.yul\":1890:1968   */\n      swap4\n      pop\n        /* \"#utility.yul\":1977:2029   */\n      tag_277\n        /* \"#utility.yul\":2022:2028   */\n      dup2\n        /* \"#utility.yul\":2017:2020   */\n      dup6\n        /* \"#utility.yul\":2010:2014   */\n      0x20\n        /* \"#utility.yul\":2003:2008   */\n      dup7\n        /* \"#utility.yul\":1999:2015   */\n      add\n        /* \"#utility.yul\":1977:2029   */\n      tag_213\n      jump\t// in\n    tag_277:\n        /* \"#utility.yul\":2054:2083   */\n      tag_278\n        /* \"#utility.yul\":2076:2082   */\n      dup2\n        /* \"#utility.yul\":2054:2083   */\n      tag_214\n      jump\t// in\n    tag_278:\n        /* \"#utility.yul\":2049:2052   */\n      dup5\n        /* \"#utility.yul\":2045:2084   */\n      add\n        /* \"#utility.yul\":2038:2084   */\n      swap2\n      pop\n        /* \"#utility.yul\":1818:2090   */\n      pop\n        /* \"#utility.yul\":1726:2090   */\n      swap3\n      swap2\n      pop\n      pop\n      jump\t// out\n        /* \"#utility.yul\":2096:2409   */\n    tag_22:\n        /* \"#utility.yul\":2209:2213   */\n      0x00\n        /* \"#utility.yul\":2247:2249   */\n      0x20\n        /* \"#utility.yul\":2236:2245   */\n      dup3\n        /* \"#utility.yul\":2232:2250   */\n      add\n        /* \"#utility.yul\":2224:2250   */\n      swap1\n      pop\n        /* \"#utility.yul\":2296:2305   */\n      dup2\n        /* \"#utility.yul\":2290:2294   */\n      dup2\n        /* \"#utility.yul\":2286:2306   */\n      sub\n        /* \"#utility.yul\":2282:2283   */\n      0x00\n        /* \"#utility.yul\":2271:2280   */\n      dup4\n        /* \"#utility.yul\":2267:2284   */\n      add\n        /* \"#utility.yul\":2260:2307   */\n      mstore\n        /* \"#utility.yul\":2324:2402   */\n      tag_280\n        /* \"#utility.yul\":2397:2401   */\n      dup2\n        /* \"#utility.yul\":2388:2394   */\n      dup5\n        /* \"#utility.yul\":2324:2402   */\n      tag_215\n      jump\t// in\n    tag_280:\n        /* \"#utility.yul\":2316:2402   */\n      swap1\n      pop\n        /* \"#utility.yul\":2096:2409   */\n      swap3\n      swap2\n      pop\n      pop\n      jump\t// out\n        /* \"#utility.yul\":2415:2541   */\n    tag_216:\n        /* \"#utility.yul\":2452:2459   */\n      0x00\n        /* \"#utility.yul\":2492:2534   */\n      0xffffffffffffffffffffffffffffffffffffffff\n        /* \"#utility.yul\":2485:2490   */\n      dup3\n        /* \"#utility.yul\":2481:2535   */\n      and\n        /* \"#utility.yul\":2470:2535   */\n      swap1\n      pop\n        /* \"#utility.yul\":2415:2541   */\n      swap2\n      swap1\n      pop\n      jump\t// out\n        /* \"#utility.yul\":2547:2643   */\n    tag_217:\n        /* \"#utility.yul\":2584:2591   */\n      0x00\n        /* \"#utility.yul\":2613:2637   */\n      tag_283\n        /* \"#utility.yul\":2631:2636   */\n      dup3\n        /* \"#utility.yul\":2613:2637   */\n      tag_216\n      jump\t// in\n    tag_283:\n        /* \"#utility.yul\":2602:2637   */\n      swap1\n      pop\n        /* \"#utility.yul\":2547:2643   */\n      swap2\n      swap1\n      pop\n      jump\t// out\n        /* \"#utility.yul\":2649:2771   */\n    tag_218:\n        /* \"#utility.yul\":2722:2746   */\n      tag_285\n        /* \"#utility.yul\":2740:2745   */\n      dup2\n        /* \"#utility.yul\":2722:2746   */\n      tag_217\n      jump\t// in\n    tag_285:\n        /* \"#utility.yul\":2715:2720   */\n      dup2\n        /* \"#utility.yul\":2712:2747   */\n      eq\n        /* \"#utility.yul\":2702:2765   */\n      tag_286\n      jumpi\n        /* \"#utility.yul\":2761:2762   */\n      0x00\n        /* \"#utility.yul\":2758:2759   */\n      dup1\n        /* \"#utility.yul\":2751:2763   */\n      revert\n        /* \"#utility.yul\":2702:2765   */\n    tag_286:\n        /* \"#utility.yul\":2649:2771   */\n      pop\n      jump\t// out\n        /* \"#utility.yul\":2777:2916   */\n    tag_219:\n        /* \"#utility.yul\":2823:2828   */\n      0x00\n        /* \"#utility.yul\":2861:2867   */\n      dup2\n        /* \"#utility.yul\":2848:2868   */\n      calldataload\n        /* \"#utility.yul\":2839:2868   */\n      swap1\n      pop\n        /* \"#utility.yul\":2877:2910   */\n      tag_288\n        /* \"#utility.yul\":2904:2909   */\n      dup2\n        /* \"#utility.yul\":2877:2910   */\n      tag_218\n      jump\t// in\n    tag_288:\n        /* \"#utility.yul\":2777:2916   */\n      swap3\n      swap2\n      pop\n      pop\n      jump\t// out\n        /* \"#utility.yul\":2922:3251   */\n    tag_25:\n        /* \"#utility.yul\":2981:2987   */\n      0x00\n        /* \"#utility.yul\":3030:3032   */\n      0x20\n        /* \"#utility.yul\":3018:3027   */\n      dup3\n        /* \"#utility.yul\":3009:3016   */\n      dup5\n        /* \"#utility.yul\":3005:3028   */\n      sub\n        /* \"#utility.yul\":3001:3033   */\n      slt\n        /* \"#utility.yul\":2998:3117   */\n      iszero\n      tag_290\n      jumpi\n        /* \"#utility.yul\":3036:3115   */\n      tag_291\n      tag_206\n      jump\t// in\n    tag_291:\n        /* \"#utility.yul\":2998:3117   */\n    tag_290:\n        /* \"#utility.yul\":3156:3157   */\n      0x00\n        /* \"#utility.yul\":3181:3234   */\n      tag_292\n        /* \"#utility.yul\":3226:3233   */\n      dup5\n        /* \"#utility.yul\":3217:3223   */\n      dup3\n        /* \"#utility.yul\":3206:3215   */\n      dup6\n        /* \"#utility.yul\":3202:3224   */\n      add\n        /* \"#utility.yul\":3181:3234   */\n      tag_219\n      jump\t// in\n    tag_292:\n        /* \"#utility.yul\":3171:3234   */\n      swap2\n      pop\n        /* \"#utility.yul\":3127:3244   */\n      pop\n        /* \"#utility.yul\":2922:3251   */\n      swap3\n      swap2\n      pop\n      pop\n      jump\t// out\n        /* \"#utility.yul\":3257:3375   */\n    tag_220:\n        /* \"#utility.yul\":3344:3368   */\n      tag_294\n        /* \"#utility.yul\":3362:3367   */\n      dup2\n        /* \"#utility.yul\":3344:3368   */\n      tag_208\n      jump\t// in\n    tag_294:\n        /* \"#utility.yul\":3339:3342   */\n      dup3\n        /* \"#utility.yul\":3332:3369   */\n      mstore\n        /* \"#utility.yul\":3257:3375   */\n      pop\n      pop\n      jump\t// out\n        /* \"#utility.yul\":3381:3471   */\n    tag_221:\n        /* \"#utility.yul\":3415:3422   */\n      0x00\n        /* \"#utility.yul\":3458:3463   */\n      dup2\n        /* \"#utility.yul\":3451:3464   */\n      iszero\n        /* \"#utility.yul\":3444:3465   */\n      iszero\n        /* \"#utility.yul\":3433:3465   */\n      swap1\n      pop\n        /* \"#utility.yul\":3381:3471   */\n      swap2\n      swap1\n      pop\n      jump\t// out\n        /* \"#utility.yul\":3477:3586   */\n    tag_222:\n        /* \"#utility.yul\":3558:3579   */\n      tag_297\n        /* \"#utility.yul\":3573:3578   */\n      dup2\n        /* \"#utility.yul\":3558:3579   */\n      tag_221\n      jump\t// in\n    tag_297:\n        /* \"#utility.yul\":3553:3556   */\n      dup3\n        /* \"#utility.yul\":3546:3580   */\n      mstore\n        /* \"#utility.yul\":3477:3586   */\n      pop\n      pop\n      jump\t// out\n        /* \"#utility.yul\":3592:3710   */\n    tag_223:\n        /* \"#utility.yul\":3679:3703   */\n      tag_299\n        /* \"#utility.yul\":3697:3702   */\n      dup2\n        /* \"#utility.yul\":3679:3703   */\n      tag_217\n      jump\t// in\n    tag_299:\n        /* \"#utility.yul\":3674:3677   */\n      dup3\n        /* \"#utility.yul\":3667:3704   */\n      mstore\n        /* \"#utility.yul\":3592:3710   */\n      pop\n      pop\n      jump\t// out\n        /* \"#utility.yul\":3716:4257   */\n    tag_39:\n        /* \"#utility.yul\":3887:3891   */\n      0x00\n        /* \"#utility.yul\":3925:3928   */\n      0x80\n        /* \"#utility.yul\":3914:3923   */\n      dup3\n        /* \"#utility.yul\":3910:3929   */\n      add\n        /* \"#utility.yul\":3902:3929   */\n      swap1\n      pop\n        /* \"#utility.yul\":3939:4010   */\n      tag_301\n        /* \"#utility.yul\":4007:4008   */\n      0x00\n        /* \"#utility.yul\":3996:4005   */\n      dup4\n        /* \"#utility.yul\":3992:4009   */\n      add\n        /* \"#utility.yul\":3983:3989   */\n      dup8\n        /* \"#utility.yul\":3939:4010   */\n      tag_220\n      jump\t// in\n    tag_301:\n        /* \"#utility.yul\":4020:4086   */\n      tag_302\n        /* \"#utility.yul\":4082:4084   */\n      0x20\n        /* \"#utility.yul\":4071:4080   */\n      dup4\n        /* \"#utility.yul\":4067:4085   */\n      add\n        /* \"#utility.yul\":4058:4064   */\n      dup7\n        /* \"#utility.yul\":4020:4086   */\n      tag_222\n      jump\t// in\n    tag_302:\n        /* \"#utility.yul\":4096:4168   */\n      tag_303\n        /* \"#utility.yul\":4164:4166   */\n      0x40\n        /* \"#utility.yul\":4153:4162   */\n      dup4\n        /* \"#utility.yul\":4149:4167   */\n      add\n        /* \"#utility.yul\":4140:4146   */\n      dup6\n        /* \"#utility.yul\":4096:4168   */\n      tag_223\n      jump\t// in\n    tag_303:\n        /* \"#utility.yul\":4178:4250   */\n      tag_304\n        /* \"#utility.yul\":4246:4248   */\n      0x60\n        /* \"#utility.yul\":4235:4244   */\n      dup4\n        /* \"#utility.yul\":4231:4249   */\n      add\n        /* \"#utility.yul\":4222:4228   */\n      dup5\n        /* \"#utility.yul\":4178:4250   */\n      tag_220\n      jump\t// in\n    tag_304:\n        /* \"#utility.yul\":3716:4257   */\n      swap6\n      swap5\n      pop\n      pop\n      pop\n      pop\n      pop\n      jump\t// out\n        /* \"#utility.yul\":4263:4686   */\n    tag_44:\n        /* \"#utility.yul\":4404:4408   */\n      0x00\n        /* \"#utility.yul\":4442:4444   */\n      0x40\n        /* \"#utility.yul\":4431:4440   */\n      dup3\n        /* \"#utility.yul\":4427:4445   */\n      add\n        /* \"#utility.yul\":4419:4445   */\n      swap1\n      pop\n        /* \"#utility.yul\":4491:4500   */\n      dup2\n        /* \"#utility.yul\":4485:4489   */\n      dup2\n        /* \"#utility.yul\":4481:4501   */\n      sub\n        /* \"#utility.yul\":4477:4478   */\n      0x00\n        /* \"#utility.yul\":4466:4475   */\n      dup4\n        /* \"#utility.yul\":4462:4479   */\n      add\n        /* \"#utility.yul\":4455:4502   */\n      mstore\n        /* \"#utility.yul\":4519:4597   */\n      tag_306\n        /* \"#utility.yul\":4592:4596   */\n      dup2\n        /* \"#utility.yul\":4583:4589   */\n      dup6\n        /* \"#utility.yul\":4519:4597   */\n      tag_215\n      jump\t// in\n    tag_306:\n        /* \"#utility.yul\":4511:4597   */\n      swap1\n      pop\n        /* \"#utility.yul\":4607:4679   */\n      tag_307\n        /* \"#utility.yul\":4675:4677   */\n      0x20\n        /* \"#utility.yul\":4664:4673   */\n      dup4\n        /* \"#utility.yul\":4660:4678   */\n      add\n        /* \"#utility.yul\":4651:4657   */\n      dup5\n        /* \"#utility.yul\":4607:4679   */\n      tag_220\n      jump\t// in\n    tag_307:\n        /* \"#utility.yul\":4263:4686   */\n      swap4\n      swap3\n      pop\n      pop\n      pop\n      jump\t// out\n        /* \"#utility.yul\":4692:4914   */\n    tag_48:\n        /* \"#utility.yul\":4785:4789   */\n      0x00\n        /* \"#utility.yul\":4823:4825   */\n      0x20\n        /* \"#utility.yul\":4812:4821   */\n      dup3\n        /* \"#utility.yul\":4808:4826   */\n      add\n        /* \"#utility.yul\":4800:4826   */\n      swap1\n      pop\n        /* \"#utility.yul\":4836:4907   */\n      tag_309\n        /* \"#utility.yul\":4904:4905   */\n      0x00\n        /* \"#utility.yul\":4893:4902   */\n      dup4\n        /* \"#utility.yul\":4889:4906   */\n      add\n        /* \"#utility.yul\":4880:4886   */\n      dup5\n        /* \"#utility.yul\":4836:4907   */\n      tag_223\n      jump\t// in\n    tag_309:\n        /* \"#utility.yul\":4692:4914   */\n      swap3\n      swap2\n      pop\n      pop\n      jump\t// out\n        /* \"#utility.yul\":4920:5142   */\n    tag_52:\n        /* \"#utility.yul\":5013:5017   */\n      0x00\n        /* \"#utility.yul\":5051:5053   */\n      0x20\n        /* \"#utility.yul\":5040:5049   */\n      dup3\n        /* \"#utility.yul\":5036:5054   */\n      add\n        /* \"#utility.yul\":5028:5054   */\n      swap1\n      pop\n        /* \"#utility.yul\":5064:5135   */\n      tag_311\n        /* \"#utility.yul\":5132:5133   */\n      0x00\n        /* \"#utility.yul\":5121:5130   */\n      dup4\n        /* \"#utility.yul\":5117:5134   */\n      add\n        /* \"#utility.yul\":5108:5114   */\n      dup5\n        /* \"#utility.yul\":5064:5135   */\n      tag_220\n      jump\t// in\n    tag_311:\n        /* \"#utility.yul\":4920:5142   */\n      swap3\n      swap2\n      pop\n      pop\n      jump\t// out\n        /* \"#utility.yul\":5148:5262   */\n    tag_224:\n        /* \"#utility.yul\":5215:5221   */\n      0x00\n        /* \"#utility.yul\":5249:5254   */\n      dup2\n        /* \"#utility.yul\":5243:5255   */\n      mload\n        /* \"#utility.yul\":5233:5255   */\n      swap1\n      pop\n        /* \"#utility.yul\":5148:5262   */\n      swap2\n      swap1\n      pop\n      jump\t// out\n        /* \"#utility.yul\":5268:5452   */\n    tag_225:\n        /* \"#utility.yul\":5367:5378   */\n      0x00\n        /* \"#utility.yul\":5401:5407   */\n      dup3\n        /* \"#utility.yul\":5396:5399   */\n      dup3\n        /* \"#utility.yul\":5389:5408   */\n      mstore\n        /* \"#utility.yul\":5441:5445   */\n      0x20\n        /* \"#utility.yul\":5436:5439   */\n      dup3\n        /* \"#utility.yul\":5432:5446   */\n      add\n        /* \"#utility.yul\":5417:5446   */\n      swap1\n      pop\n        /* \"#utility.yul\":5268:5452   */\n      swap3\n      swap2\n      pop\n      pop\n      jump\t// out\n        /* \"#utility.yul\":5458:5590   */\n    tag_226:\n        /* \"#utility.yul\":5525:5529   */\n      0x00\n        /* \"#utility.yul\":5548:5551   */\n      dup2\n        /* \"#utility.yul\":5540:5551   */\n      swap1\n      pop\n        /* \"#utility.yul\":5578:5582   */\n      0x20\n        /* \"#utility.yul\":5573:5576   */\n      dup3\n        /* \"#utility.yul\":5569:5583   */\n      add\n        /* \"#utility.yul\":5561:5583   */\n      swap1\n      pop\n        /* \"#utility.yul\":5458:5590   */\n      swap2\n      swap1\n      pop\n      jump\t// out\n        /* \"#utility.yul\":5596:5704   */\n    tag_227:\n        /* \"#utility.yul\":5673:5697   */\n      tag_316\n        /* \"#utility.yul\":5691:5696   */\n      dup2\n        /* \"#utility.yul\":5673:5697   */\n      tag_208\n      jump\t// in\n    tag_316:\n        /* \"#utility.yul\":5668:5671   */\n      dup3\n        /* \"#utility.yul\":5661:5698   */\n      mstore\n        /* \"#utility.yul\":5596:5704   */\n      pop\n      pop\n      jump\t// out\n        /* \"#utility.yul\":5710:5889   */\n    tag_228:\n        /* \"#utility.yul\":5779:5789   */\n      0x00\n        /* \"#utility.yul\":5800:5846   */\n      tag_318\n        /* \"#utility.yul\":5842:5845   */\n      dup4\n        /* \"#utility.yul\":5834:5840   */\n      dup4\n        /* \"#utility.yul\":5800:5846   */\n      tag_227\n      jump\t// in\n    tag_318:\n        /* \"#utility.yul\":5878:5882   */\n      0x20\n        /* \"#utility.yul\":5873:5876   */\n      dup4\n        /* \"#utility.yul\":5869:5883   */\n      add\n        /* \"#utility.yul\":5855:5883   */\n      swap1\n      pop\n        /* \"#utility.yul\":5710:5889   */\n      swap3\n      swap2\n      pop\n      pop\n      jump\t// out\n        /* \"#utility.yul\":5895:6008   */\n    tag_229:\n        /* \"#utility.yul\":5965:5969   */\n      0x00\n        /* \"#utility.yul\":5997:6001   */\n      0x20\n        /* \"#utility.yul\":5992:5995   */\n      dup3\n        /* \"#utility.yul\":5988:6002   */\n      add\n        /* \"#utility.yul\":5980:6002   */\n      swap1\n      pop\n        /* \"#utility.yul\":5895:6008   */\n      swap2\n      swap1\n      pop\n      jump\t// out\n        /* \"#utility.yul\":6044:6776   */\n    tag_230:\n        /* \"#utility.yul\":6163:6166   */\n      0x00\n        /* \"#utility.yul\":6192:6246   */\n      tag_321\n        /* \"#utility.yul\":6240:6245   */\n      dup3\n        /* \"#utility.yul\":6192:6246   */\n      tag_224\n      jump\t// in\n    tag_321:\n        /* \"#utility.yul\":6262:6348   */\n      tag_322\n        /* \"#utility.yul\":6341:6347   */\n      dup2\n        /* \"#utility.yul\":6336:6339   */\n      dup6\n        /* \"#utility.yul\":6262:6348   */\n      tag_225\n      jump\t// in\n    tag_322:\n        /* \"#utility.yul\":6255:6348   */\n      swap4\n      pop\n        /* \"#utility.yul\":6372:6428   */\n      tag_323\n        /* \"#utility.yul\":6422:6427   */\n      dup4\n        /* \"#utility.yul\":6372:6428   */\n      tag_226\n      jump\t// in\n    tag_323:\n        /* \"#utility.yul\":6451:6458   */\n      dup1\n        /* \"#utility.yul\":6482:6483   */\n      0x00\n        /* \"#utility.yul\":6467:6751   */\n    tag_324:\n        /* \"#utility.yul\":6492:6498   */\n      dup4\n        /* \"#utility.yul\":6489:6490   */\n      dup2\n        /* \"#utility.yul\":6486:6499   */\n      lt\n        /* \"#utility.yul\":6467:6751   */\n      iszero\n      tag_326\n      jumpi\n        /* \"#utility.yul\":6568:6574   */\n      dup2\n        /* \"#utility.yul\":6562:6575   */\n      mload\n        /* \"#utility.yul\":6595:6658   */\n      tag_327\n        /* \"#utility.yul\":6654:6657   */\n      dup9\n        /* \"#utility.yul\":6639:6652   */\n      dup3\n        /* \"#utility.yul\":6595:6658   */\n      tag_228\n      jump\t// in\n    tag_327:\n        /* \"#utility.yul\":6588:6658   */\n      swap8\n      pop\n        /* \"#utility.yul\":6681:6741   */\n      tag_328\n        /* \"#utility.yul\":6734:6740   */\n      dup4\n        /* \"#utility.yul\":6681:6741   */\n      tag_229\n      jump\t// in\n    tag_328:\n        /* \"#utility.yul\":6671:6741   */\n      swap3\n      pop\n        /* \"#utility.yul\":6527:6751   */\n      pop\n        /* \"#utility.yul\":6514:6515   */\n      0x01\n        /* \"#utility.yul\":6511:6512   */\n      dup2\n        /* \"#utility.yul\":6507:6516   */\n      add\n        /* \"#utility.yul\":6502:6516   */\n      swap1\n      pop\n        /* \"#utility.yul\":6467:6751   */\n      jump(tag_324)\n    tag_326:\n        /* \"#utility.yul\":6471:6485   */\n      pop\n        /* \"#utility.yul\":6767:6770   */\n      dup6\n        /* \"#utility.yul\":6760:6770   */\n      swap4\n      pop\n        /* \"#utility.yul\":6168:6776   */\n      pop\n      pop\n      pop\n        /* \"#utility.yul\":6044:6776   */\n      swap3\n      swap2\n      pop\n      pop\n      jump\t// out\n        /* \"#utility.yul\":6782:7155   */\n    tag_56:\n        /* \"#utility.yul\":6925:6929   */\n      0x00\n        /* \"#utility.yul\":6963:6965   */\n      0x20\n        /* \"#utility.yul\":6952:6961   */\n      dup3\n        /* \"#utility.yul\":6948:6966   */\n      add\n        /* \"#utility.yul\":6940:6966   */\n      swap1\n      pop\n        /* \"#utility.yul\":7012:7021   */\n      dup2\n        /* \"#utility.yul\":7006:7010   */\n      dup2\n        /* \"#utility.yul\":7002:7022   */\n      sub\n        /* \"#utility.yul\":6998:6999   */\n      0x00\n        /* \"#utility.yul\":6987:6996   */\n      dup4\n        /* \"#utility.yul\":6983:7000   */\n      add\n        /* \"#utility.yul\":6976:7023   */\n      mstore\n        /* \"#utility.yul\":7040:7148   */\n      tag_330\n        /* \"#utility.yul\":7143:7147   */\n      dup2\n        /* \"#utility.yul\":7134:7140   */\n      dup5\n        /* \"#utility.yul\":7040:7148   */\n      tag_230\n      jump\t// in\n    tag_330:\n        /* \"#utility.yul\":7032:7148   */\n      swap1\n      pop\n        /* \"#utility.yul\":6782:7155   */\n      swap3\n      swap2\n      pop\n      pop\n      jump\t// out\n        /* \"#utility.yul\":7161:7391   */\n    tag_231:\n        /* \"#utility.yul\":7301:7335   */\n      0x53696d706c65566f74696e673a2050726f706f73616c20696e646578206f7574\n        /* \"#utility.yul\":7297:7298   */\n      0x00\n        /* \"#utility.yul\":7289:7295   */\n      dup3\n        /* \"#utility.yul\":7285:7299   */\n      add\n        /* \"#utility.yul\":7278:7336   */\n      mstore\n        /* \"#utility.yul\":7370:7383   */\n      0x206f6620626f756e64732e000000000000000000000000000000000000000000\n        /* \"#utility.yul\":7365:7367   */\n      0x20\n        /* \"#utility.yul\":7357:7363   */\n      dup3\n        /* \"#utility.yul\":7353:7368   */\n      add\n        /* \"#utility.yul\":7346:7384   */\n      mstore\n        /* \"#utility.yul\":7161:7391   */\n      pop\n      jump\t// out\n        /* \"#utility.yul\":7397:7763   */\n    tag_232:\n        /* \"#utility.yul\":7539:7542   */\n      0x00\n        /* \"#utility.yul\":7560:7627   */\n      tag_333\n        /* \"#utility.yul\":7624:7626   */\n      0x2b\n        /* \"#utility.yul\":7619:7622   */\n      dup4\n        /* \"#utility.yul\":7560:7627   */\n      tag_212\n      jump\t// in\n    tag_333:\n        /* \"#utility.yul\":7553:7627   */\n      swap2\n      pop\n        /* \"#utility.yul\":7636:7729   */\n      tag_334\n        /* \"#utility.yul\":7725:7728   */\n      dup3\n        /* \"#utility.yul\":7636:7729   */\n      tag_231\n      jump\t// in\n    tag_334:\n        /* \"#utility.yul\":7754:7756   */\n      0x40\n        /* \"#utility.yul\":7749:7752   */\n      dup3\n        /* \"#utility.yul\":7745:7757   */\n      add\n        /* \"#utility.yul\":7738:7757   */\n      swap1\n      pop\n        /* \"#utility.yul\":7397:7763   */\n      swap2\n      swap1\n      pop\n      jump\t// out\n        /* \"#utility.yul\":7769:8188   */\n    tag_61:\n        /* \"#utility.yul\":7935:7939   */\n      0x00\n        /* \"#utility.yul\":7973:7975   */\n      0x20\n        /* \"#utility.yul\":7962:7971   */\n      dup3\n        /* \"#utility.yul\":7958:7976   */\n      add\n        /* \"#utility.yul\":7950:7976   */\n      swap1\n      pop\n        /* \"#utility.yul\":8022:8031   */\n      dup2\n        /* \"#utility.yul\":8016:8020   */\n      dup2\n        /* \"#utility.yul\":8012:8032   */\n      sub\n        /* \"#utility.yul\":8008:8009   */\n      0x00\n        /* \"#utility.yul\":7997:8006   */\n      dup4\n        /* \"#utility.yul\":7993:8010   */\n      add\n        /* \"#utility.yul\":7986:8033   */\n      mstore\n        /* \"#utility.yul\":8050:8181   */\n      tag_336\n        /* \"#utility.yul\":8176:8180   */\n      dup2\n        /* \"#utility.yul\":8050:8181   */\n      tag_232\n      jump\t// in\n    tag_336:\n        /* \"#utility.yul\":8042:8181   */\n      swap1\n      pop\n        /* \"#utility.yul\":7769:8188   */\n      swap2\n      swap1\n      pop\n      jump\t// out\n        /* \"#utility.yul\":8194:8423   */\n    tag_233:\n        /* \"#utility.yul\":8334:8368   */\n      0x53696d706c65566f74696e673a2054686520766f7465722068617320616c7265\n        /* \"#utility.yul\":8330:8331   */\n      0x00\n        /* \"#utility.yul\":8322:8328   */\n      dup3\n        /* \"#utility.yul\":8318:8332   */\n      add\n        /* \"#utility.yul\":8311:8369   */\n      mstore\n        /* \"#utility.yul\":8403:8415   */\n      0x61647920766f7465642e00000000000000000000000000000000000000000000\n        /* \"#utility.yul\":8398:8400   */\n      0x20\n        /* \"#utility.yul\":8390:8396   */\n      dup3\n        /* \"#utility.yul\":8386:8401   */\n      add\n        /* \"#utility.yul\":8379:8416   */\n      mstore\n        /* \"#utility.yul\":8194:8423   */\n      pop\n      jump\t// out\n        /* \"#utility.yul\":8429:8795   */\n    tag_234:\n        /* \"#utility.yul\":8571:8574   */\n      0x00\n        /* \"#utility.yul\":8592:8659   */\n      tag_339\n        /* \"#utility.yul\":8656:8658   */\n      0x2a\n        /* \"#utility.yul\":8651:8654   */\n      dup4\n        /* \"#utility.yul\":8592:8659   */\n      tag_212\n      jump\t// in\n    tag_339:\n        /* \"#utility.yul\":8585:8659   */\n      swap2\n      pop\n        /* \"#utility.yul\":8668:8761   */\n      tag_340\n        /* \"#utility.yul\":8757:8760   */\n      dup3\n        /* \"#utility.yul\":8668:8761   */\n      tag_233\n      jump\t// in\n    tag_340:\n        /* \"#utility.yul\":8786:8788   */\n      0x40\n        /* \"#utility.yul\":8781:8784   */\n      dup3\n        /* \"#utility.yul\":8777:8789   */\n      add\n        /* \"#utility.yul\":8770:8789   */\n      swap1\n      pop\n        /* \"#utility.yul\":8429:8795   */\n      swap2\n      swap1\n      pop\n      jump\t// out\n        /* \"#utility.yul\":8801:9220   */\n    tag_67:\n        /* \"#utility.yul\":8967:8971   */\n      0x00\n        /* \"#utility.yul\":9005:9007   */\n      0x20\n        /* \"#utility.yul\":8994:9003   */\n      dup3\n        /* \"#utility.yul\":8990:9008   */\n      add\n        /* \"#utility.yul\":8982:9008   */\n      swap1\n      pop\n        /* \"#utility.yul\":9054:9063   */\n      dup2\n        /* \"#utility.yul\":9048:9052   */\n      dup2\n        /* \"#utility.yul\":9044:9064   */\n      sub\n        /* \"#utility.yul\":9040:9041   */\n      0x00\n        /* \"#utility.yul\":9029:9038   */\n      dup4\n        /* \"#utility.yul\":9025:9042   */\n      add\n        /* \"#utility.yul\":9018:9065   */\n      mstore\n        /* \"#utility.yul\":9082:9213   */\n      tag_342\n        /* \"#utility.yul\":9208:9212   */\n      dup2\n        /* \"#utility.yul\":9082:9213   */\n      tag_234\n      jump\t// in\n    tag_342:\n        /* \"#utility.yul\":9074:9213   */\n      swap1\n      pop\n        /* \"#utility.yul\":8801:9220   */\n      swap2\n      swap1\n      pop\n      jump\t// out\n        /* \"#utility.yul\":9226:9463   */\n    tag_235:\n        /* \"#utility.yul\":9366:9400   */\n      0x53696d706c65566f74696e673a204164647265737320646f6573206e6f742068\n        /* \"#utility.yul\":9362:9363   */\n      0x00\n        /* \"#utility.yul\":9354:9360   */\n      dup3\n        /* \"#utility.yul\":9350:9364   */\n      add\n        /* \"#utility.yul\":9343:9401   */\n      mstore\n        /* \"#utility.yul\":9435:9455   */\n      0x61766520726967687420746f20766f74652e0000000000000000000000000000\n        /* \"#utility.yul\":9430:9432   */\n      0x20\n        /* \"#utility.yul\":9422:9428   */\n      dup3\n        /* \"#utility.yul\":9418:9433   */\n      add\n        /* \"#utility.yul\":9411:9456   */\n      mstore\n        /* \"#utility.yul\":9226:9463   */\n      pop\n      jump\t// out\n        /* \"#utility.yul\":9469:9835   */\n    tag_236:\n        /* \"#utility.yul\":9611:9614   */\n      0x00\n        /* \"#utility.yul\":9632:9699   */\n      tag_345\n        /* \"#utility.yul\":9696:9698   */\n      0x32\n        /* \"#utility.yul\":9691:9694   */\n      dup4\n        /* \"#utility.yul\":9632:9699   */\n      tag_212\n      jump\t// in\n    tag_345:\n        /* \"#utility.yul\":9625:9699   */\n      swap2\n      pop\n        /* \"#utility.yul\":9708:9801   */\n      tag_346\n        /* \"#utility.yul\":9797:9800   */\n      dup3\n        /* \"#utility.yul\":9708:9801   */\n      tag_235\n      jump\t// in\n    tag_346:\n        /* \"#utility.yul\":9826:9828   */\n      0x40\n        /* \"#utility.yul\":9821:9824   */\n      dup3\n        /* \"#utility.yul\":9817:9829   */\n      add\n        /* \"#utility.yul\":9810:9829   */\n      swap1\n      pop\n        /* \"#utility.yul\":9469:9835   */\n      swap2\n      swap1\n      pop\n      jump\t// out\n        /* \"#utility.yul\":9841:10260   */\n    tag_72:\n        /* \"#utility.yul\":10007:10011   */\n      0x00\n        /* \"#utility.yul\":10045:10047   */\n      0x20\n        /* \"#utility.yul\":10034:10043   */\n      dup3\n        /* \"#utility.yul\":10030:10048   */\n      add\n        /* \"#utility.yul\":10022:10048   */\n      swap1\n      pop\n        /* \"#utility.yul\":10094:10103   */\n      dup2\n        /* \"#utility.yul\":10088:10092   */\n      dup2\n        /* \"#utility.yul\":10084:10104   */\n      sub\n        /* \"#utility.yul\":10080:10081   */\n      0x00\n        /* \"#utility.yul\":10069:10078   */\n      dup4\n        /* \"#utility.yul\":10065:10082   */\n      add\n        /* \"#utility.yul\":10058:10105   */\n      mstore\n        /* \"#utility.yul\":10122:10253   */\n      tag_348\n        /* \"#utility.yul\":10248:10252   */\n      dup2\n        /* \"#utility.yul\":10122:10253   */\n      tag_236\n      jump\t// in\n    tag_348:\n        /* \"#utility.yul\":10114:10253   */\n      swap1\n      pop\n        /* \"#utility.yul\":9841:10260   */\n      swap2\n      swap1\n      pop\n      jump\t// out\n        /* \"#utility.yul\":10266:10446   */\n    tag_78:\n        /* \"#utility.yul\":10314:10391   */\n      0x4e487b7100000000000000000000000000000000000000000000000000000000\n        /* \"#utility.yul\":10311:10312   */\n      0x00\n        /* \"#utility.yul\":10304:10392   */\n      mstore\n        /* \"#utility.yul\":10411:10415   */\n      0x32\n        /* \"#utility.yul\":10408:10409   */\n      0x04\n        /* \"#utility.yul\":10401:10416   */\n      mstore\n        /* \"#utility.yul\":10435:10439   */\n      0x24\n        /* \"#utility.yul\":10432:10433   */\n      0x00\n        /* \"#utility.yul\":10425:10440   */\n      revert\n        /* \"#utility.yul\":10452:10529   */\n    tag_237:\n        /* \"#utility.yul\":10489:10496   */\n      0x00\n        /* \"#utility.yul\":10518:10523   */\n      dup2\n        /* \"#utility.yul\":10507:10523   */\n      swap1\n      pop\n        /* \"#utility.yul\":10452:10529   */\n      swap2\n      swap1\n      pop\n      jump\t// out\n        /* \"#utility.yul\":10535:10614   */\n    tag_238:\n        /* \"#utility.yul\":10574:10581   */\n      0x00\n        /* \"#utility.yul\":10603:10608   */\n      dup2\n        /* \"#utility.yul\":10592:10608   */\n      swap1\n      pop\n        /* \"#utility.yul\":10535:10614   */\n      swap2\n      swap1\n      pop\n      jump\t// out\n        /* \"#utility.yul\":10620:10777   */\n    tag_239:\n        /* \"#utility.yul\":10725:10770   */\n      tag_353\n        /* \"#utility.yul\":10745:10769   */\n      tag_354\n        /* \"#utility.yul\":10763:10768   */\n      dup3\n        /* \"#utility.yul\":10745:10769   */\n      tag_237\n      jump\t// in\n    tag_354:\n        /* \"#utility.yul\":10725:10770   */\n      tag_238\n      jump\t// in\n    tag_353:\n        /* \"#utility.yul\":10720:10723   */\n      dup3\n        /* \"#utility.yul\":10713:10771   */\n      mstore\n        /* \"#utility.yul\":10620:10777   */\n      pop\n      pop\n      jump\t// out\n        /* \"#utility.yul\":10783:11039   */\n    tag_96:\n        /* \"#utility.yul\":10895:10898   */\n      0x00\n        /* \"#utility.yul\":10910:10985   */\n      tag_356\n        /* \"#utility.yul\":10981:10984   */\n      dup3\n        /* \"#utility.yul\":10972:10978   */\n      dup5\n        /* \"#utility.yul\":10910:10985   */\n      tag_239\n      jump\t// in\n    tag_356:\n        /* \"#utility.yul\":11010:11012   */\n      0x20\n        /* \"#utility.yul\":11005:11008   */\n      dup3\n        /* \"#utility.yul\":11001:11013   */\n      add\n        /* \"#utility.yul\":10994:11013   */\n      swap2\n      pop\n        /* \"#utility.yul\":11030:11033   */\n      dup2\n        /* \"#utility.yul\":11023:11033   */\n      swap1\n      pop\n        /* \"#utility.yul\":10783:11039   */\n      swap3\n      swap2\n      pop\n      pop\n      jump\t// out\n        /* \"#utility.yul\":11045:11193   */\n    tag_240:\n        /* \"#utility.yul\":11147:11158   */\n      0x00\n        /* \"#utility.yul\":11184:11187   */\n      dup2\n        /* \"#utility.yul\":11169:11187   */\n      swap1\n      pop\n        /* \"#utility.yul\":11045:11193   */\n      swap3\n      swap2\n      pop\n      pop\n      jump\t// out\n        /* \"#utility.yul\":11199:11576   */\n    tag_241:\n        /* \"#utility.yul\":11305:11308   */\n      0x00\n        /* \"#utility.yul\":11333:11372   */\n      tag_359\n        /* \"#utility.yul\":11366:11371   */\n      dup3\n        /* \"#utility.yul\":11333:11372   */\n      tag_211\n      jump\t// in\n    tag_359:\n        /* \"#utility.yul\":11388:11477   */\n      tag_360\n        /* \"#utility.yul\":11470:11476   */\n      dup2\n        /* \"#utility.yul\":11465:11468   */\n      dup6\n        /* \"#utility.yul\":11388:11477   */\n      tag_240\n      jump\t// in\n    tag_360:\n        /* \"#utility.yul\":11381:11477   */\n      swap4\n      pop\n        /* \"#utility.yul\":11486:11538   */\n      tag_361\n        /* \"#utility.yul\":11531:11537   */\n      dup2\n        /* \"#utility.yul\":11526:11529   */\n      dup6\n        /* \"#utility.yul\":11519:11523   */\n      0x20\n        /* \"#utility.yul\":11512:11517   */\n      dup7\n        /* \"#utility.yul\":11508:11524   */\n      add\n        /* \"#utility.yul\":11486:11538   */\n      tag_213\n      jump\t// in\n    tag_361:\n        /* \"#utility.yul\":11563:11569   */\n      dup1\n        /* \"#utility.yul\":11558:11561   */\n      dup5\n        /* \"#utility.yul\":11554:11570   */\n      add\n        /* \"#utility.yul\":11547:11570   */\n      swap2\n      pop\n        /* \"#utility.yul\":11309:11576   */\n      pop\n        /* \"#utility.yul\":11199:11576   */\n      swap3\n      swap2\n      pop\n      pop\n      jump\t// out\n        /* \"#utility.yul\":11582:11761   */\n    tag_242:\n        /* \"#utility.yul\":11750:11754   */\n      0x2c20000000000000000000000000000000000000000000000000000000000000\n        /* \"#utility.yul\":11745:11748   */\n      dup2\n        /* \"#utility.yul\":11738:11755   */\n      mstore\n        /* \"#utility.yul\":11582:11761   */\n      pop\n      jump\t// out\n        /* \"#utility.yul\":11767:12466   */\n    tag_98:\n        /* \"#utility.yul\":12037:12040   */\n      0x00\n        /* \"#utility.yul\":12059:12154   */\n      tag_364\n        /* \"#utility.yul\":12150:12153   */\n      dup3\n        /* \"#utility.yul\":12141:12147   */\n      dup6\n        /* \"#utility.yul\":12059:12154   */\n      tag_241\n      jump\t// in\n    tag_364:\n        /* \"#utility.yul\":12052:12154   */\n      swap2\n      pop\n        /* \"#utility.yul\":12164:12301   */\n      tag_365\n        /* \"#utility.yul\":12297:12300   */\n      dup3\n        /* \"#utility.yul\":12164:12301   */\n      tag_242\n      jump\t// in\n    tag_365:\n        /* \"#utility.yul\":12326:12327   */\n      0x02\n        /* \"#utility.yul\":12321:12324   */\n      dup3\n        /* \"#utility.yul\":12317:12328   */\n      add\n        /* \"#utility.yul\":12310:12328   */\n      swap2\n      pop\n        /* \"#utility.yul\":12345:12440   */\n      tag_366\n        /* \"#utility.yul\":12436:12439   */\n      dup3\n        /* \"#utility.yul\":12427:12433   */\n      dup5\n        /* \"#utility.yul\":12345:12440   */\n      tag_241\n      jump\t// in\n    tag_366:\n        /* \"#utility.yul\":12338:12440   */\n      swap2\n      pop\n        /* \"#utility.yul\":12457:12460   */\n      dup2\n        /* \"#utility.yul\":12450:12460   */\n      swap1\n      pop\n        /* \"#utility.yul\":11767:12466   */\n      swap4\n      swap3\n      pop\n      pop\n      pop\n      jump\t// out\n        /* \"#utility.yul\":12472:12704   */\n    tag_243:\n        /* \"#utility.yul\":12612:12646   */\n      0x53696d706c65566f74696e673a2053656c662d64656c65676174696f6e206973\n        /* \"#utility.yul\":12608:12609   */\n      0x00\n        /* \"#utility.yul\":12600:12606   */\n      dup3\n        /* \"#utility.yul\":12596:12610   */\n      add\n        /* \"#utility.yul\":12589:12647   */\n      mstore\n        /* \"#utility.yul\":12681:12696   */\n      0x206e6f7420616c6c6f7765642e00000000000000000000000000000000000000\n        /* \"#utility.yul\":12676:12678   */\n      0x20\n        /* \"#utility.yul\":12668:12674   */\n      dup3\n        /* \"#utility.yul\":12664:12679   */\n      add\n        /* \"#utility.yul\":12657:12697   */\n      mstore\n        /* \"#utility.yul\":12472:12704   */\n      pop\n      jump\t// out\n        /* \"#utility.yul\":12710:13076   */\n    tag_244:\n        /* \"#utility.yul\":12852:12855   */\n      0x00\n        /* \"#utility.yul\":12873:12940   */\n      tag_369\n        /* \"#utility.yul\":12937:12939   */\n      0x2d\n        /* \"#utility.yul\":12932:12935   */\n      dup4\n        /* \"#utility.yul\":12873:12940   */\n      tag_212\n      jump\t// in\n    tag_369:\n        /* \"#utility.yul\":12866:12940   */\n      swap2\n      pop\n        /* \"#utility.yul\":12949:13042   */\n      tag_370\n        /* \"#utility.yul\":13038:13041   */\n      dup3\n        /* \"#utility.yul\":12949:13042   */\n      tag_243\n      jump\t// in\n    tag_370:\n        /* \"#utility.yul\":13067:13069   */\n      0x40\n        /* \"#utility.yul\":13062:13065   */\n      dup3\n        /* \"#utility.yul\":13058:13070   */\n      add\n        /* \"#utility.yul\":13051:13070   */\n      swap1\n      pop\n        /* \"#utility.yul\":12710:13076   */\n      swap2\n      swap1\n      pop\n      jump\t// out\n        /* \"#utility.yul\":13082:13501   */\n    tag_113:\n        /* \"#utility.yul\":13248:13252   */\n      0x00\n        /* \"#utility.yul\":13286:13288   */\n      0x20\n        /* \"#utility.yul\":13275:13284   */\n      dup3\n        /* \"#utility.yul\":13271:13289   */\n      add\n        /* \"#utility.yul\":13263:13289   */\n      swap1\n      pop\n        /* \"#utility.yul\":13335:13344   */\n      dup2\n        /* \"#utility.yul\":13329:13333   */\n      dup2\n        /* \"#utility.yul\":13325:13345   */\n      sub\n        /* \"#utility.yul\":13321:13322   */\n      0x00\n        /* \"#utility.yul\":13310:13319   */\n      dup4\n        /* \"#utility.yul\":13306:13323   */\n      add\n        /* \"#utility.yul\":13299:13346   */\n      mstore\n        /* \"#utility.yul\":13363:13494   */\n      tag_372\n        /* \"#utility.yul\":13489:13493   */\n      dup2\n        /* \"#utility.yul\":13363:13494   */\n      tag_244\n      jump\t// in\n    tag_372:\n        /* \"#utility.yul\":13355:13494   */\n      swap1\n      pop\n        /* \"#utility.yul\":13082:13501   */\n      swap2\n      swap1\n      pop\n      jump\t// out\n        /* \"#utility.yul\":13507:13741   */\n    tag_245:\n        /* \"#utility.yul\":13647:13681   */\n      0x53696d706c65566f74696e673a2044656c65676174696f6e2074726163657320\n        /* \"#utility.yul\":13643:13644   */\n      0x00\n        /* \"#utility.yul\":13635:13641   */\n      dup3\n        /* \"#utility.yul\":13631:13645   */\n      add\n        /* \"#utility.yul\":13624:13682   */\n      mstore\n        /* \"#utility.yul\":13716:13733   */\n      0x6261636b20746f2063616c6c65722e0000000000000000000000000000000000\n        /* \"#utility.yul\":13711:13713   */\n      0x20\n        /* \"#utility.yul\":13703:13709   */\n      dup3\n        /* \"#utility.yul\":13699:13714   */\n      add\n        /* \"#utility.yul\":13692:13734   */\n      mstore\n        /* \"#utility.yul\":13507:13741   */\n      pop\n      jump\t// out\n        /* \"#utility.yul\":13747:14113   */\n    tag_246:\n        /* \"#utility.yul\":13889:13892   */\n      0x00\n        /* \"#utility.yul\":13910:13977   */\n      tag_375\n        /* \"#utility.yul\":13974:13976   */\n      0x2f\n        /* \"#utility.yul\":13969:13972   */\n      dup4\n        /* \"#utility.yul\":13910:13977   */\n      tag_212\n      jump\t// in\n    tag_375:\n        /* \"#utility.yul\":13903:13977   */\n      swap2\n      pop\n        /* \"#utility.yul\":13986:14079   */\n      tag_376\n        /* \"#utility.yul\":14075:14078   */\n      dup3\n        /* \"#utility.yul\":13986:14079   */\n      tag_245\n      jump\t// in\n    tag_376:\n        /* \"#utility.yul\":14104:14106   */\n      0x40\n        /* \"#utility.yul\":14099:14102   */\n      dup3\n        /* \"#utility.yul\":14095:14107   */\n      add\n        /* \"#utility.yul\":14088:14107   */\n      swap1\n      pop\n        /* \"#utility.yul\":13747:14113   */\n      swap2\n      swap1\n      pop\n      jump\t// out\n        /* \"#utility.yul\":14119:14538   */\n    tag_119:\n        /* \"#utility.yul\":14285:14289   */\n      0x00\n        /* \"#utility.yul\":14323:14325   */\n      0x20\n        /* \"#utility.yul\":14312:14321   */\n      dup3\n        /* \"#utility.yul\":14308:14326   */\n      add\n        /* \"#utility.yul\":14300:14326   */\n      swap1\n      pop\n        /* \"#utility.yul\":14372:14381   */\n      dup2\n        /* \"#utility.yul\":14366:14370   */\n      dup2\n        /* \"#utility.yul\":14362:14382   */\n      sub\n        /* \"#utility.yul\":14358:14359   */\n      0x00\n        /* \"#utility.yul\":14347:14356   */\n      dup4\n        /* \"#utility.yul\":14343:14360   */\n      add\n        /* \"#utility.yul\":14336:14383   */\n      mstore\n        /* \"#utility.yul\":14400:14531   */\n      tag_378\n        /* \"#utility.yul\":14526:14530   */\n      dup2\n        /* \"#utility.yul\":14400:14531   */\n      tag_246\n      jump\t// in\n    tag_378:\n        /* \"#utility.yul\":14392:14531   */\n      swap1\n      pop\n        /* \"#utility.yul\":14119:14538   */\n      swap2\n      swap1\n      pop\n      jump\t// out\n        /* \"#utility.yul\":14544:14785   */\n    tag_247:\n        /* \"#utility.yul\":14684:14718   */\n      0x53696d706c65566f74696e673a204f6e6c79206368616972506572736f6e2063\n        /* \"#utility.yul\":14680:14681   */\n      0x00\n        /* \"#utility.yul\":14672:14678   */\n      dup3\n        /* \"#utility.yul\":14668:14682   */\n      add\n        /* \"#utility.yul\":14661:14719   */\n      mstore\n        /* \"#utility.yul\":14753:14777   */\n      0x616e206769766520726967687420746f20766f74652e00000000000000000000\n        /* \"#utility.yul\":14748:14750   */\n      0x20\n        /* \"#utility.yul\":14740:14746   */\n      dup3\n        /* \"#utility.yul\":14736:14751   */\n      add\n        /* \"#utility.yul\":14729:14778   */\n      mstore\n        /* \"#utility.yul\":14544:14785   */\n      pop\n      jump\t// out\n        /* \"#utility.yul\":14791:15157   */\n    tag_248:\n        /* \"#utility.yul\":14933:14936   */\n      0x00\n        /* \"#utility.yul\":14954:15021   */\n      tag_381\n        /* \"#utility.yul\":15018:15020   */\n      0x36\n        /* \"#utility.yul\":15013:15016   */\n      dup4\n        /* \"#utility.yul\":14954:15021   */\n      tag_212\n      jump\t// in\n    tag_381:\n        /* \"#utility.yul\":14947:15021   */\n      swap2\n      pop\n        /* \"#utility.yul\":15030:15123   */\n      tag_382\n        /* \"#utility.yul\":15119:15122   */\n      dup3\n        /* \"#utility.yul\":15030:15123   */\n      tag_247\n      jump\t// in\n    tag_382:\n        /* \"#utility.yul\":15148:15150   */\n      0x40\n        /* \"#utility.yul\":15143:15146   */\n      dup3\n        /* \"#utility.yul\":15139:15151   */\n      add\n        /* \"#utility.yul\":15132:15151   */\n      swap1\n      pop\n        /* \"#utility.yul\":14791:15157   */\n      swap2\n      swap1\n      pop\n      jump\t// out\n        /* \"#utility.yul\":15163:15582   */\n    tag_163:\n        /* \"#utility.yul\":15329:15333   */\n      0x00\n        /* \"#utility.yul\":15367:15369   */\n      0x20\n        /* \"#utility.yul\":15356:15365   */\n      dup3\n        /* \"#utility.yul\":15352:15370   */\n      add\n        /* \"#utility.yul\":15344:15370   */\n      swap1\n      pop\n        /* \"#utility.yul\":15416:15425   */\n      dup2\n        /* \"#utility.yul\":15410:15414   */\n      dup2\n        /* \"#utility.yul\":15406:15426   */\n      sub\n        /* \"#utility.yul\":15402:15403   */\n      0x00\n        /* \"#utility.yul\":15391:15400   */\n      dup4\n        /* \"#utility.yul\":15387:15404   */\n      add\n        /* \"#utility.yul\":15380:15427   */\n      mstore\n        /* \"#utility.yul\":15444:15575   */\n      tag_384\n        /* \"#utility.yul\":15570:15574   */\n      dup2\n        /* \"#utility.yul\":15444:15575   */\n      tag_248\n      jump\t// in\n    tag_384:\n        /* \"#utility.yul\":15436:15575   */\n      swap1\n      pop\n        /* \"#utility.yul\":15163:15582   */\n      swap2\n      swap1\n      pop\n      jump\t// out\n        /* \"#utility.yul\":15588:15823   */\n    tag_249:\n        /* \"#utility.yul\":15728:15762   */\n      0x53696d706c65566f74696e673a204164647265737320616c7265616479206861\n        /* \"#utility.yul\":15724:15725   */\n      0x00\n        /* \"#utility.yul\":15716:15722   */\n      dup3\n        /* \"#utility.yul\":15712:15726   */\n      add\n        /* \"#utility.yul\":15705:15763   */\n      mstore\n        /* \"#utility.yul\":15797:15815   */\n      0x7320726967687420746f20766f74652e00000000000000000000000000000000\n        /* \"#utility.yul\":15792:15794   */\n      0x20\n        /* \"#utility.yul\":15784:15790   */\n      dup3\n        /* \"#utility.yul\":15780:15795   */\n      add\n        /* \"#utility.yul\":15773:15816   */\n      mstore\n        /* \"#utility.yul\":15588:15823   */\n      pop\n      jump\t// out\n        /* \"#utility.yul\":15829:16195   */\n    tag_250:\n        /* \"#utility.yul\":15971:15974   */\n      0x00\n        /* \"#utility.yul\":15992:16059   */\n      tag_387\n        /* \"#utility.yul\":16056:16058   */\n      0x30\n        /* \"#utility.yul\":16051:16054   */\n      dup4\n        /* \"#utility.yul\":15992:16059   */\n      tag_212\n      jump\t// in\n    tag_387:\n        /* \"#utility.yul\":15985:16059   */\n      swap2\n      pop\n        /* \"#utility.yul\":16068:16161   */\n      tag_388\n        /* \"#utility.yul\":16157:16160   */\n      dup3\n        /* \"#utility.yul\":16068:16161   */\n      tag_249\n      jump\t// in\n    tag_388:\n        /* \"#utility.yul\":16186:16188   */\n      0x40\n        /* \"#utility.yul\":16181:16184   */\n      dup3\n        /* \"#utility.yul\":16177:16189   */\n      add\n        /* \"#utility.yul\":16170:16189   */\n      swap1\n      pop\n        /* \"#utility.yul\":15829:16195   */\n      swap2\n      swap1\n      pop\n      jump\t// out\n        /* \"#utility.yul\":16201:16620   */\n    tag_178:\n        /* \"#utility.yul\":16367:16371   */\n      0x00\n        /* \"#utility.yul\":16405:16407   */\n      0x20\n        /* \"#utility.yul\":16394:16403   */\n      dup3\n        /* \"#utility.yul\":16390:16408   */\n      add\n        /* \"#utility.yul\":16382:16408   */\n      swap1\n      pop\n        /* \"#utility.yul\":16454:16463   */\n      dup2\n        /* \"#utility.yul\":16448:16452   */\n      dup2\n        /* \"#utility.yul\":16444:16464   */\n      sub\n        /* \"#utility.yul\":16440:16441   */\n      0x00\n        /* \"#utility.yul\":16429:16438   */\n      dup4\n        /* \"#utility.yul\":16425:16442   */\n      add\n        /* \"#utility.yul\":16418:16465   */\n      mstore\n        /* \"#utility.yul\":16482:16613   */\n      tag_390\n        /* \"#utility.yul\":16608:16612   */\n      dup2\n        /* \"#utility.yul\":16482:16613   */\n      tag_250\n      jump\t// in\n    tag_390:\n        /* \"#utility.yul\":16474:16613   */\n      swap1\n      pop\n        /* \"#utility.yul\":16201:16620   */\n      swap2\n      swap1\n      pop\n      jump\t// out\n        /* \"#utility.yul\":16626:16806   */\n    tag_251:\n        /* \"#utility.yul\":16674:16751   */\n      0x4e487b7100000000000000000000000000000000000000000000000000000000\n        /* \"#utility.yul\":16671:16672   */\n      0x00\n        /* \"#utility.yul\":16664:16752   */\n      mstore\n        /* \"#utility.yul\":16771:16775   */\n      0x11\n        /* \"#utility.yul\":16768:16769   */\n      0x04\n        /* \"#utility.yul\":16761:16776   */\n      mstore\n        /* \"#utility.yul\":16795:16799   */\n      0x24\n        /* \"#utility.yul\":16792:16793   */\n      0x00\n        /* \"#utility.yul\":16785:16800   */\n      revert\n        /* \"#utility.yul\":16812:17117   */\n    tag_196:\n        /* \"#utility.yul\":16852:16855   */\n      0x00\n        /* \"#utility.yul\":16871:16891   */\n      tag_393\n        /* \"#utility.yul\":16889:16890   */\n      dup3\n        /* \"#utility.yul\":16871:16891   */\n      tag_208\n      jump\t// in\n    tag_393:\n        /* \"#utility.yul\":16866:16891   */\n      swap2\n      pop\n        /* \"#utility.yul\":16905:16925   */\n      tag_394\n        /* \"#utility.yul\":16923:16924   */\n      dup4\n        /* \"#utility.yul\":16905:16925   */\n      tag_208\n      jump\t// in\n    tag_394:\n        /* \"#utility.yul\":16900:16925   */\n      swap3\n      pop\n        /* \"#utility.yul\":17059:17060   */\n      dup3\n        /* \"#utility.yul\":16991:17057   */\n      0xffffffffffffffffffffffffffffffffffffffffffffffffffffffffffffffff\n        /* \"#utility.yul\":16987:17061   */\n      sub\n        /* \"#utility.yul\":16984:16985   */\n      dup3\n        /* \"#utility.yul\":16981:17062   */\n      gt\n        /* \"#utility.yul\":16978:17085   */\n      iszero\n      tag_395\n      jumpi\n        /* \"#utility.yul\":17065:17083   */\n      tag_396\n      tag_251\n      jump\t// in\n    tag_396:\n        /* \"#utility.yul\":16978:17085   */\n    tag_395:\n        /* \"#utility.yul\":17109:17110   */\n      dup3\n        /* \"#utility.yul\":17106:17107   */\n      dup3\n        /* \"#utility.yul\":17102:17111   */\n      add\n        /* \"#utility.yul\":17095:17111   */\n      swap1\n      pop\n        /* \"#utility.yul\":16812:17117   */\n      swap3\n      swap2\n      pop\n      pop\n      jump\t// out\n\n    auxdata: 0xa2646970667358221220eada2f2dbeb6c4630bbaa9424777ea3382654db29c215c3f654d29190afd448d64736f6c634300080d0033\n}\n",
				"bytecode": {
					"linkReferences": {},
					"object": "60806040523480156200001157600080fd5b50604051620022543803806200225483398181016040528101906200003791906200050a565b620000476200021b60201b60201c565b600160006101000a81548173ffffffffffffffffffffffffffffffffffffffff021916908373ffffffffffffffffffffffffffffffffffffffff160217905550600160026000600160009054906101000a900473ffffffffffffffffffffffffffffffffffffffff1673ffffffffffffffffffffffffffffffffffffffff1673ffffffffffffffffffffffffffffffffffffffff16815260200190815260200160002060000181905550805160008190555060005b600054811015620001b45760006040518060400160405280620001428585815181106200012e576200012d6200055b565b5b60200260200101516200022360201b60201c565b81526020016000815250905060038190806001815401808255809150506001900390600052602060002090600202016000909190919091506000820151816000015560208201518160010155505050620001ac6001826200025960201b620010c81790919060201c565b9050620000fc565b507ff318b16025413645144ed83c64d2d30f089c10bc263cab68a036c00f011827be600160009054906101000a900473ffffffffffffffffffffffffffffffffffffffff166000546040516200020c929190620005ea565b60405180910390a150620007c2565b600033905090565b60008160405160200162000238919062000664565b6040516020818303038152906040526200025290620006c6565b9050919050565b6000818362000269919062000765565b905092915050565b6000604051905090565b600080fd5b600080fd5b600080fd5b6000601f19601f8301169050919050565b7f4e487b7100000000000000000000000000000000000000000000000000000000600052604160045260246000fd5b620002d5826200028a565b810181811067ffffffffffffffff82111715620002f757620002f66200029b565b5b80604052505050565b60006200030c62000271565b90506200031a8282620002ca565b919050565b600067ffffffffffffffff8211156200033d576200033c6200029b565b5b602082029050602081019050919050565b600080fd5b600080fd5b600067ffffffffffffffff8211156200037657620003756200029b565b5b62000381826200028a565b9050602081019050919050565b60005b83811015620003ae57808201518184015260208101905062000391565b83811115620003be576000848401525b50505050565b6000620003db620003d58462000358565b62000300565b905082815260208101848484011115620003fa57620003f962000353565b5b620004078482856200038e565b509392505050565b600082601f83011262000427576200042662000285565b5b815162000439848260208601620003c4565b91505092915050565b60006200045962000453846200031f565b62000300565b905080838252602082019050602084028301858111156200047f576200047e6200034e565b5b835b81811015620004cd57805167ffffffffffffffff811115620004a857620004a762000285565b5b808601620004b789826200040f565b8552602085019450505060208101905062000481565b5050509392505050565b600082601f830112620004ef57620004ee62000285565b5b81516200050184826020860162000442565b91505092915050565b6000602082840312156200052357620005226200027b565b5b600082015167ffffffffffffffff81111562000544576200054362000280565b5b6200055284828501620004d7565b91505092915050565b7f4e487b7100000000000000000000000000000000000000000000000000000000600052603260045260246000fd5b600073ffffffffffffffffffffffffffffffffffffffff82169050919050565b6000620005b7826200058a565b9050919050565b620005c981620005aa565b82525050565b6000819050919050565b620005e481620005cf565b82525050565b6000604082019050620006016000830185620005be565b620006106020830184620005d9565b9392505050565b600081519050919050565b600081905092915050565b60006200063a8262000617565b62000646818562000622565b9350620006588185602086016200038e565b80840191505092915050565b60006200067282846200062d565b915081905092915050565b600081519050919050565b6000819050602082019050919050565b6000819050919050565b6000620006b0825162000698565b80915050919050565b600082821b905092915050565b6000620006d3826200067d565b82620006df8462000688565b9050620006ec81620006a2565b925060208210156200072f576200072a7fffffffffffffffffffffffffffffffffffffffffffffffffffffffffffffffff83602003600802620006b9565b831692505b5050919050565b7f4e487b7100000000000000000000000000000000000000000000000000000000600052601160045260246000fd5b60006200077282620005cf565b91506200077f83620005cf565b9250827fffffffffffffffffffffffffffffffffffffffffffffffffffffffffffffffff03821115620007b757620007b662000736565b5b828201905092915050565b611a8280620007d26000396000f3fe608060405234801561001057600080fd5b50600436106100a95760003560e01c80639e7b8d61116100715780639e7b8d611461012a578063a3ec138d14610146578063c7f758a814610179578063d4d4b5ac146101aa578063da35c664146101c8578063ef788cd5146101e6576100a9565b80630121b93f146100ae57806328be18ee146100ca5780635c19a95c146100e85780635f07b961146101045780636d0fc3d71461010e575b600080fd5b6100c860048036038101906100c39190611188565b610204565b005b6100d26104a4565b6040516100df919061124e565b60405180910390f35b61010260048036038101906100fd91906112ce565b61055b565b005b61010c610a6d565b005b610128600480360381019061012391906112ce565b610be1565b005b610144600480360381019061013f91906112ce565b610d43565b005b610160600480360381019061015b91906112ce565b610f3c565b6040516101709493929190611334565b60405180910390f35b610193600480360381019061018e9190611188565b610f99565b6040516101a1929190611379565b60405180910390f35b6101b2611044565b6040516101bf91906113a9565b60405180910390f35b6101d061106a565b6040516101dd91906113c4565b60405180910390f35b6101ee611070565b6040516101fb919061149d565b60405180910390f35b806000548110610249576040517f08c379a000000000000000000000000000000000000000000000000000000000815260040161024090611531565b60405180910390fd5b6102516110de565b600260008273ffffffffffffffffffffffffffffffffffffffff1673ffffffffffffffffffffffffffffffffffffffff16815260200190815260200160002060010160009054906101000a900460ff16156102e1576040517f08c379a00000000000000000000000000000000000000000000000000000000081526004016102d8906115c3565b60405180910390fd5b6102e96110de565b6000600260008373ffffffffffffffffffffffffffffffffffffffff1673ffffffffffffffffffffffffffffffffffffffff168152602001908152602001600020600001541161036e576040517f08c379a000000000000000000000000000000000000000000000000000000000815260040161036590611655565b60405180910390fd5b60006002600061037c6110de565b73ffffffffffffffffffffffffffffffffffffffff1673ffffffffffffffffffffffffffffffffffffffff168152602001908152602001600020905060018160010160006101000a81548160ff02191690831515021790555084816002018190555061041a8160000154600387815481106103fa576103f9611675565b5b9060005260206000209060020201600101546110c890919063ffffffff16565b6003868154811061042e5761042d611675565b5b90600052602060002090600202016001018190555061044b6110de565b73ffffffffffffffffffffffffffffffffffffffff16857fe7ee74ca1f4bb1b82b14f87794c45b3e59c39e372b862fb97a6316b43355b69e836000015460405161049591906113c4565b60405180910390a35050505050565b606060005b60048054905081101561055757816003600483815481106104cd576104cc611675565b5b9060005260206000200154815481106104e9576104e8611675565b5b90600052602060002090600202016000015460405160200161050b91906116cf565b60405160208183030381529060405260405160200161052b92919061174c565b60405160208183030381529060405291506105506001826110c890919063ffffffff16565b90506104a9565b5090565b6105636110de565b600260008273ffffffffffffffffffffffffffffffffffffffff1673ffffffffffffffffffffffffffffffffffffffff16815260200190815260200160002060010160009054906101000a900460ff16156105f3576040517f08c379a00000000000000000000000000000000000000000000000000000000081526004016105ea906115c3565b60405180910390fd5b6105fb6110de565b6000600260008373ffffffffffffffffffffffffffffffffffffffff1673ffffffffffffffffffffffffffffffffffffffff1681526020019081526020016000206000015411610680576040517f08c379a000000000000000000000000000000000000000000000000000000000815260040161067790611655565b60405180910390fd5b60006002600061068e6110de565b73ffffffffffffffffffffffffffffffffffffffff1673ffffffffffffffffffffffffffffffffffffffff16815260200190815260200160002090506106d26110de565b73ffffffffffffffffffffffffffffffffffffffff168473ffffffffffffffffffffffffffffffffffffffff160361073f576040517f08c379a0000000000000000000000000000000000000000000000000000000008152600401610736906117f1565b60405180910390fd5b5b600073ffffffffffffffffffffffffffffffffffffffff16600260008673ffffffffffffffffffffffffffffffffffffffff1673ffffffffffffffffffffffffffffffffffffffff16815260200190815260200160002060010160019054906101000a900473ffffffffffffffffffffffffffffffffffffffff1673ffffffffffffffffffffffffffffffffffffffff16146108b557600260008573ffffffffffffffffffffffffffffffffffffffff1673ffffffffffffffffffffffffffffffffffffffff16815260200190815260200160002060010160019054906101000a900473ffffffffffffffffffffffffffffffffffffffff1693506108436110de565b73ffffffffffffffffffffffffffffffffffffffff168473ffffffffffffffffffffffffffffffffffffffff16036108b0576040517f08c379a00000000000000000000000000000000000000000000000000000000081526004016108a790611883565b60405180910390fd5b610740565b60018160010160006101000a81548160ff021916908315150217905550838160010160016101000a81548173ffffffffffffffffffffffffffffffffffffffff021916908373ffffffffffffffffffffffffffffffffffffffff1602179055506000600260008673ffffffffffffffffffffffffffffffffffffffff1673ffffffffffffffffffffffffffffffffffffffff16815260200190815260200160002090508060010160009054906101000a900460ff16156109e1576109af8260000154600383600201548154811061098f5761098e611675565b5b9060005260206000209060020201600101546110c890919063ffffffff16565b60038260020154815481106109c7576109c6611675565b5b906000526020600020906002020160010181905550610a05565b6109fc826000015482600001546110c890919063ffffffff16565b81600001819055505b8473ffffffffffffffffffffffffffffffffffffffff16610a246110de565b73ffffffffffffffffffffffffffffffffffffffff167f4ce9ef2c99d761d69230b0e3381f4c6016333b2e27d32b3e379a96b5d2c6923260405160405180910390a35050505050565b60008060046000610a7e919061110f565b60005b600380549050811015610b28578260038281548110610aa357610aa2611675565b5b9060005260206000209060020201600101541115610b0d5760038181548110610acf57610ace611675565b5b906000526020600020906002020160010154925060048190806001815401808255809150506001900390600052602060002001600090919091909150555b610b216001826110c890919063ffffffff16565b9050610a81565b5060005b600380549050811015610bdc5760038281548110610b4d57610b4c611675565b5b90600052602060002090600202016001015460038281548110610b7357610b72611675565b5b906000526020600020906002020160010154148015610b925750818114155b15610bc15760048190806001815401808255809150506001900390600052602060002001600090919091909150555b610bd56001826110c890919063ffffffff16565b9050610b2c565b505050565b600160009054906101000a900473ffffffffffffffffffffffffffffffffffffffff1673ffffffffffffffffffffffffffffffffffffffff16610c226110de565b73ffffffffffffffffffffffffffffffffffffffff1614610c78576040517f08c379a0000000000000000000000000000000000000000000000000000000008152600401610c6f90611915565b60405180910390fd5b806000600260008373ffffffffffffffffffffffffffffffffffffffff1673ffffffffffffffffffffffffffffffffffffffff1681526020019081526020016000206000015411610cfe576040517f08c379a0000000000000000000000000000000000000000000000000000000008152600401610cf590611655565b60405180910390fd5b81600160006101000a81548173ffffffffffffffffffffffffffffffffffffffff021916908373ffffffffffffffffffffffffffffffffffffffff1602179055505050565b600160009054906101000a900473ffffffffffffffffffffffffffffffffffffffff1673ffffffffffffffffffffffffffffffffffffffff16610d846110de565b73ffffffffffffffffffffffffffffffffffffffff1614610dda576040517f08c379a0000000000000000000000000000000000000000000000000000000008152600401610dd190611915565b60405180910390fd5b80600260008273ffffffffffffffffffffffffffffffffffffffff1673ffffffffffffffffffffffffffffffffffffffff16815260200190815260200160002060010160009054906101000a900460ff1615610e6b576040517f08c379a0000000000000000000000000000000000000000000000000000000008152600401610e62906115c3565b60405180910390fd5b6000600260008473ffffffffffffffffffffffffffffffffffffffff1673ffffffffffffffffffffffffffffffffffffffff1681526020019081526020016000206000015414610ef0576040517f08c379a0000000000000000000000000000000000000000000000000000000008152600401610ee7906119a7565b60405180910390fd5b6001600260008473ffffffffffffffffffffffffffffffffffffffff1673ffffffffffffffffffffffffffffffffffffffff168152602001908152602001600020600001819055505050565b60026020528060005260406000206000915090508060000154908060010160009054906101000a900460ff16908060010160019054906101000a900473ffffffffffffffffffffffffffffffffffffffff16908060020154905084565b60606000826000548110610fe2576040517f08c379a0000000000000000000000000000000000000000000000000000000008152600401610fd990611531565b60405180910390fd5b61101060038581548110610ff957610ff8611675565b5b9060005260206000209060020201600001546110e6565b6003858154811061102457611023611675565b5b906000526020600020906002020160010154809350819450505050915091565b600160009054906101000a900473ffffffffffffffffffffffffffffffffffffffff1681565b60005481565b606060048054806020026020016040519081016040528092919081815260200182805480156110be57602002820191906000526020600020905b8154815260200190600101908083116110aa575b5050505050905090565b600081836110d691906119f6565b905092915050565b600033905090565b6060816040516020016110f991906116cf565b6040516020818303038152906040529050919050565b508054600082559060005260206000209081019061112d9190611130565b50565b5b80821115611149576000816000905550600101611131565b5090565b600080fd5b6000819050919050565b61116581611152565b811461117057600080fd5b50565b6000813590506111828161115c565b92915050565b60006020828403121561119e5761119d61114d565b5b60006111ac84828501611173565b91505092915050565b600081519050919050565b600082825260208201905092915050565b60005b838110156111ef5780820151818401526020810190506111d4565b838111156111fe576000848401525b50505050565b6000601f19601f8301169050919050565b6000611220826111b5565b61122a81856111c0565b935061123a8185602086016111d1565b61124381611204565b840191505092915050565b600060208201905081810360008301526112688184611215565b905092915050565b600073ffffffffffffffffffffffffffffffffffffffff82169050919050565b600061129b82611270565b9050919050565b6112ab81611290565b81146112b657600080fd5b50565b6000813590506112c8816112a2565b92915050565b6000602082840312156112e4576112e361114d565b5b60006112f2848285016112b9565b91505092915050565b61130481611152565b82525050565b60008115159050919050565b61131f8161130a565b82525050565b61132e81611290565b82525050565b600060808201905061134960008301876112fb565b6113566020830186611316565b6113636040830185611325565b61137060608301846112fb565b95945050505050565b600060408201905081810360008301526113938185611215565b90506113a260208301846112fb565b9392505050565b60006020820190506113be6000830184611325565b92915050565b60006020820190506113d960008301846112fb565b92915050565b600081519050919050565b600082825260208201905092915050565b6000819050602082019050919050565b61141481611152565b82525050565b6000611426838361140b565b60208301905092915050565b6000602082019050919050565b600061144a826113df565b61145481856113ea565b935061145f836113fb565b8060005b83811015611490578151611477888261141a565b975061148283611432565b925050600181019050611463565b5085935050505092915050565b600060208201905081810360008301526114b7818461143f565b905092915050565b7f53696d706c65566f74696e673a2050726f706f73616c20696e646578206f757460008201527f206f6620626f756e64732e000000000000000000000000000000000000000000602082015250565b600061151b602b836111c0565b9150611526826114bf565b604082019050919050565b6000602082019050818103600083015261154a8161150e565b9050919050565b7f53696d706c65566f74696e673a2054686520766f7465722068617320616c726560008201527f61647920766f7465642e00000000000000000000000000000000000000000000602082015250565b60006115ad602a836111c0565b91506115b882611551565b604082019050919050565b600060208201905081810360008301526115dc816115a0565b9050919050565b7f53696d706c65566f74696e673a204164647265737320646f6573206e6f74206860008201527f61766520726967687420746f20766f74652e0000000000000000000000000000602082015250565b600061163f6032836111c0565b915061164a826115e3565b604082019050919050565b6000602082019050818103600083015261166e81611632565b9050919050565b7f4e487b7100000000000000000000000000000000000000000000000000000000600052603260045260246000fd5b6000819050919050565b6000819050919050565b6116c96116c4826116a4565b6116ae565b82525050565b60006116db82846116b8565b60208201915081905092915050565b600081905092915050565b6000611700826111b5565b61170a81856116ea565b935061171a8185602086016111d1565b80840191505092915050565b7f2c20000000000000000000000000000000000000000000000000000000000000815250565b600061175882856116f5565b915061176382611726565b60028201915061177382846116f5565b91508190509392505050565b7f53696d706c65566f74696e673a2053656c662d64656c65676174696f6e20697360008201527f206e6f7420616c6c6f7765642e00000000000000000000000000000000000000602082015250565b60006117db602d836111c0565b91506117e68261177f565b604082019050919050565b6000602082019050818103600083015261180a816117ce565b9050919050565b7f53696d706c65566f74696e673a2044656c65676174696f6e207472616365732060008201527f6261636b20746f2063616c6c65722e0000000000000000000000000000000000602082015250565b600061186d602f836111c0565b915061187882611811565b604082019050919050565b6000602082019050818103600083015261189c81611860565b9050919050565b7f53696d706c65566f74696e673a204f6e6c79206368616972506572736f6e206360008201527f616e206769766520726967687420746f20766f74652e00000000000000000000602082015250565b60006118ff6036836111c0565b915061190a826118a3565b604082019050919050565b6000602082019050818103600083015261192e816118f2565b9050919050565b7f53696d706c65566f74696e673a204164647265737320616c726561647920686160008201527f7320726967687420746f20766f74652e00000000000000000000000000000000602082015250565b60006119916030836111c0565b915061199c82611935565b604082019050919050565b600060208201905081810360008301526119c081611984565b9050919050565b7f4e487b7100000000000000000000000000000000000000000000000000000000600052601160045260246000fd5b6000611a0182611152565b9150611a0c83611152565b9250827fffffffffffffffffffffffffffffffffffffffffffffffffffffffffffffffff03821115611a4157611a406119c7565b5b82820190509291505056fea2646970667358221220eada2f2dbeb6c4630bbaa9424777ea3382654db29c215c3f654d29190afd448d64736f6c634300080d0033",
					"opcodes": "PUSH1 0x80 PUSH1 0x40 MSTORE CALLVALUE DUP1 ISZERO PUSH3 0x11 JUMPI PUSH1 0x0 DUP1 REVERT JUMPDEST POP PUSH1 0x40 MLOAD PUSH3 0x2254 CODESIZE SUB DUP1 PUSH3 0x2254 DUP4 CODECOPY DUP2 DUP2 ADD PUSH1 0x40 MSTORE DUP2 ADD SWAP1 PUSH3 0x37 SWAP2 SWAP1 PUSH3 0x50A JUMP JUMPDEST PUSH3 0x47 PUSH3 0x21B PUSH1 0x20 SHL PUSH1 0x20 SHR JUMP JUMPDEST PUSH1 0x1 PUSH1 0x0 PUSH2 0x100 EXP DUP2 SLOAD DUP2 PUSH20 0xFFFFFFFFFFFFFFFFFFFFFFFFFFFFFFFFFFFFFFFF MUL NOT AND SWAP1 DUP4 PUSH20 0xFFFFFFFFFFFFFFFFFFFFFFFFFFFFFFFFFFFFFFFF AND MUL OR SWAP1 SSTORE POP PUSH1 0x1 PUSH1 0x2 PUSH1 0x0 PUSH1 0x1 PUSH1 0x0 SWAP1 SLOAD SWAP1 PUSH2 0x100 EXP SWAP1 DIV PUSH20 0xFFFFFFFFFFFFFFFFFFFFFFFFFFFFFFFFFFFFFFFF AND PUSH20 0xFFFFFFFFFFFFFFFFFFFFFFFFFFFFFFFFFFFFFFFF AND PUSH20 0xFFFFFFFFFFFFFFFFFFFFFFFFFFFFFFFFFFFFFFFF AND DUP2 MSTORE PUSH1 0x20 ADD SWAP1 DUP2 MSTORE PUSH1 0x20 ADD PUSH1 0x0 KECCAK256 PUSH1 0x0 ADD DUP2 SWAP1 SSTORE POP DUP1 MLOAD PUSH1 0x0 DUP2 SWAP1 SSTORE POP PUSH1 0x0 JUMPDEST PUSH1 0x0 SLOAD DUP2 LT ISZERO PUSH3 0x1B4 JUMPI PUSH1 0x0 PUSH1 0x40 MLOAD DUP1 PUSH1 0x40 ADD PUSH1 0x40 MSTORE DUP1 PUSH3 0x142 DUP6 DUP6 DUP2 MLOAD DUP2 LT PUSH3 0x12E JUMPI PUSH3 0x12D PUSH3 0x55B JUMP JUMPDEST JUMPDEST PUSH1 0x20 MUL PUSH1 0x20 ADD ADD MLOAD PUSH3 0x223 PUSH1 0x20 SHL PUSH1 0x20 SHR JUMP JUMPDEST DUP2 MSTORE PUSH1 0x20 ADD PUSH1 0x0 DUP2 MSTORE POP SWAP1 POP PUSH1 0x3 DUP2 SWAP1 DUP1 PUSH1 0x1 DUP2 SLOAD ADD DUP1 DUP3 SSTORE DUP1 SWAP2 POP POP PUSH1 0x1 SWAP1 SUB SWAP1 PUSH1 0x0 MSTORE PUSH1 0x20 PUSH1 0x0 KECCAK256 SWAP1 PUSH1 0x2 MUL ADD PUSH1 0x0 SWAP1 SWAP2 SWAP1 SWAP2 SWAP1 SWAP2 POP PUSH1 0x0 DUP3 ADD MLOAD DUP2 PUSH1 0x0 ADD SSTORE PUSH1 0x20 DUP3 ADD MLOAD DUP2 PUSH1 0x1 ADD SSTORE POP POP POP PUSH3 0x1AC PUSH1 0x1 DUP3 PUSH3 0x259 PUSH1 0x20 SHL PUSH3 0x10C8 OR SWAP1 SWAP2 SWAP1 PUSH1 0x20 SHR JUMP JUMPDEST SWAP1 POP PUSH3 0xFC JUMP JUMPDEST POP PUSH32 0xF318B16025413645144ED83C64D2D30F089C10BC263CAB68A036C00F011827BE PUSH1 0x1 PUSH1 0x0 SWAP1 SLOAD SWAP1 PUSH2 0x100 EXP SWAP1 DIV PUSH20 0xFFFFFFFFFFFFFFFFFFFFFFFFFFFFFFFFFFFFFFFF AND PUSH1 0x0 SLOAD PUSH1 0x40 MLOAD PUSH3 0x20C SWAP3 SWAP2 SWAP1 PUSH3 0x5EA JUMP JUMPDEST PUSH1 0x40 MLOAD DUP1 SWAP2 SUB SWAP1 LOG1 POP PUSH3 0x7C2 JUMP JUMPDEST PUSH1 0x0 CALLER SWAP1 POP SWAP1 JUMP JUMPDEST PUSH1 0x0 DUP2 PUSH1 0x40 MLOAD PUSH1 0x20 ADD PUSH3 0x238 SWAP2 SWAP1 PUSH3 0x664 JUMP JUMPDEST PUSH1 0x40 MLOAD PUSH1 0x20 DUP2 DUP4 SUB SUB DUP2 MSTORE SWAP1 PUSH1 0x40 MSTORE PUSH3 0x252 SWAP1 PUSH3 0x6C6 JUMP JUMPDEST SWAP1 POP SWAP2 SWAP1 POP JUMP JUMPDEST PUSH1 0x0 DUP2 DUP4 PUSH3 0x269 SWAP2 SWAP1 PUSH3 0x765 JUMP JUMPDEST SWAP1 POP SWAP3 SWAP2 POP POP JUMP JUMPDEST PUSH1 0x0 PUSH1 0x40 MLOAD SWAP1 POP SWAP1 JUMP JUMPDEST PUSH1 0x0 DUP1 REVERT JUMPDEST PUSH1 0x0 DUP1 REVERT JUMPDEST PUSH1 0x0 DUP1 REVERT JUMPDEST PUSH1 0x0 PUSH1 0x1F NOT PUSH1 0x1F DUP4 ADD AND SWAP1 POP SWAP2 SWAP1 POP JUMP JUMPDEST PUSH32 0x4E487B7100000000000000000000000000000000000000000000000000000000 PUSH1 0x0 MSTORE PUSH1 0x41 PUSH1 0x4 MSTORE PUSH1 0x24 PUSH1 0x0 REVERT JUMPDEST PUSH3 0x2D5 DUP3 PUSH3 0x28A JUMP JUMPDEST DUP2 ADD DUP2 DUP2 LT PUSH8 0xFFFFFFFFFFFFFFFF DUP3 GT OR ISZERO PUSH3 0x2F7 JUMPI PUSH3 0x2F6 PUSH3 0x29B JUMP JUMPDEST JUMPDEST DUP1 PUSH1 0x40 MSTORE POP POP POP JUMP JUMPDEST PUSH1 0x0 PUSH3 0x30C PUSH3 0x271 JUMP JUMPDEST SWAP1 POP PUSH3 0x31A DUP3 DUP3 PUSH3 0x2CA JUMP JUMPDEST SWAP2 SWAP1 POP JUMP JUMPDEST PUSH1 0x0 PUSH8 0xFFFFFFFFFFFFFFFF DUP3 GT ISZERO PUSH3 0x33D JUMPI PUSH3 0x33C PUSH3 0x29B JUMP JUMPDEST JUMPDEST PUSH1 0x20 DUP3 MUL SWAP1 POP PUSH1 0x20 DUP2 ADD SWAP1 POP SWAP2 SWAP1 POP JUMP JUMPDEST PUSH1 0x0 DUP1 REVERT JUMPDEST PUSH1 0x0 DUP1 REVERT JUMPDEST PUSH1 0x0 PUSH8 0xFFFFFFFFFFFFFFFF DUP3 GT ISZERO PUSH3 0x376 JUMPI PUSH3 0x375 PUSH3 0x29B JUMP JUMPDEST JUMPDEST PUSH3 0x381 DUP3 PUSH3 0x28A JUMP JUMPDEST SWAP1 POP PUSH1 0x20 DUP2 ADD SWAP1 POP SWAP2 SWAP1 POP JUMP JUMPDEST PUSH1 0x0 JUMPDEST DUP4 DUP2 LT ISZERO PUSH3 0x3AE JUMPI DUP1 DUP3 ADD MLOAD DUP2 DUP5 ADD MSTORE PUSH1 0x20 DUP2 ADD SWAP1 POP PUSH3 0x391 JUMP JUMPDEST DUP4 DUP2 GT ISZERO PUSH3 0x3BE JUMPI PUSH1 0x0 DUP5 DUP5 ADD MSTORE JUMPDEST POP POP POP POP JUMP JUMPDEST PUSH1 0x0 PUSH3 0x3DB PUSH3 0x3D5 DUP5 PUSH3 0x358 JUMP JUMPDEST PUSH3 0x300 JUMP JUMPDEST SWAP1 POP DUP3 DUP2 MSTORE PUSH1 0x20 DUP2 ADD DUP5 DUP5 DUP5 ADD GT ISZERO PUSH3 0x3FA JUMPI PUSH3 0x3F9 PUSH3 0x353 JUMP JUMPDEST JUMPDEST PUSH3 0x407 DUP5 DUP3 DUP6 PUSH3 0x38E JUMP JUMPDEST POP SWAP4 SWAP3 POP POP POP JUMP JUMPDEST PUSH1 0x0 DUP3 PUSH1 0x1F DUP4 ADD SLT PUSH3 0x427 JUMPI PUSH3 0x426 PUSH3 0x285 JUMP JUMPDEST JUMPDEST DUP2 MLOAD PUSH3 0x439 DUP5 DUP3 PUSH1 0x20 DUP7 ADD PUSH3 0x3C4 JUMP JUMPDEST SWAP2 POP POP SWAP3 SWAP2 POP POP JUMP JUMPDEST PUSH1 0x0 PUSH3 0x459 PUSH3 0x453 DUP5 PUSH3 0x31F JUMP JUMPDEST PUSH3 0x300 JUMP JUMPDEST SWAP1 POP DUP1 DUP4 DUP3 MSTORE PUSH1 0x20 DUP3 ADD SWAP1 POP PUSH1 0x20 DUP5 MUL DUP4 ADD DUP6 DUP2 GT ISZERO PUSH3 0x47F JUMPI PUSH3 0x47E PUSH3 0x34E JUMP JUMPDEST JUMPDEST DUP4 JUMPDEST DUP2 DUP2 LT ISZERO PUSH3 0x4CD JUMPI DUP1 MLOAD PUSH8 0xFFFFFFFFFFFFFFFF DUP2 GT ISZERO PUSH3 0x4A8 JUMPI PUSH3 0x4A7 PUSH3 0x285 JUMP JUMPDEST JUMPDEST DUP1 DUP7 ADD PUSH3 0x4B7 DUP10 DUP3 PUSH3 0x40F JUMP JUMPDEST DUP6 MSTORE PUSH1 0x20 DUP6 ADD SWAP5 POP POP POP PUSH1 0x20 DUP2 ADD SWAP1 POP PUSH3 0x481 JUMP JUMPDEST POP POP POP SWAP4 SWAP3 POP POP POP JUMP JUMPDEST PUSH1 0x0 DUP3 PUSH1 0x1F DUP4 ADD SLT PUSH3 0x4EF JUMPI PUSH3 0x4EE PUSH3 0x285 JUMP JUMPDEST JUMPDEST DUP2 MLOAD PUSH3 0x501 DUP5 DUP3 PUSH1 0x20 DUP7 ADD PUSH3 0x442 JUMP JUMPDEST SWAP2 POP POP SWAP3 SWAP2 POP POP JUMP JUMPDEST PUSH1 0x0 PUSH1 0x20 DUP3 DUP5 SUB SLT ISZERO PUSH3 0x523 JUMPI PUSH3 0x522 PUSH3 0x27B JUMP JUMPDEST JUMPDEST PUSH1 0x0 DUP3 ADD MLOAD PUSH8 0xFFFFFFFFFFFFFFFF DUP2 GT ISZERO PUSH3 0x544 JUMPI PUSH3 0x543 PUSH3 0x280 JUMP JUMPDEST JUMPDEST PUSH3 0x552 DUP5 DUP3 DUP6 ADD PUSH3 0x4D7 JUMP JUMPDEST SWAP2 POP POP SWAP3 SWAP2 POP POP JUMP JUMPDEST PUSH32 0x4E487B7100000000000000000000000000000000000000000000000000000000 PUSH1 0x0 MSTORE PUSH1 0x32 PUSH1 0x4 MSTORE PUSH1 0x24 PUSH1 0x0 REVERT JUMPDEST PUSH1 0x0 PUSH20 0xFFFFFFFFFFFFFFFFFFFFFFFFFFFFFFFFFFFFFFFF DUP3 AND SWAP1 POP SWAP2 SWAP1 POP JUMP JUMPDEST PUSH1 0x0 PUSH3 0x5B7 DUP3 PUSH3 0x58A JUMP JUMPDEST SWAP1 POP SWAP2 SWAP1 POP JUMP JUMPDEST PUSH3 0x5C9 DUP2 PUSH3 0x5AA JUMP JUMPDEST DUP3 MSTORE POP POP JUMP JUMPDEST PUSH1 0x0 DUP2 SWAP1 POP SWAP2 SWAP1 POP JUMP JUMPDEST PUSH3 0x5E4 DUP2 PUSH3 0x5CF JUMP JUMPDEST DUP3 MSTORE POP POP JUMP JUMPDEST PUSH1 0x0 PUSH1 0x40 DUP3 ADD SWAP1 POP PUSH3 0x601 PUSH1 0x0 DUP4 ADD DUP6 PUSH3 0x5BE JUMP JUMPDEST PUSH3 0x610 PUSH1 0x20 DUP4 ADD DUP5 PUSH3 0x5D9 JUMP JUMPDEST SWAP4 SWAP3 POP POP POP JUMP JUMPDEST PUSH1 0x0 DUP2 MLOAD SWAP1 POP SWAP2 SWAP1 POP JUMP JUMPDEST PUSH1 0x0 DUP2 SWAP1 POP SWAP3 SWAP2 POP POP JUMP JUMPDEST PUSH1 0x0 PUSH3 0x63A DUP3 PUSH3 0x617 JUMP JUMPDEST PUSH3 0x646 DUP2 DUP6 PUSH3 0x622 JUMP JUMPDEST SWAP4 POP PUSH3 0x658 DUP2 DUP6 PUSH1 0x20 DUP7 ADD PUSH3 0x38E JUMP JUMPDEST DUP1 DUP5 ADD SWAP2 POP POP SWAP3 SWAP2 POP POP JUMP JUMPDEST PUSH1 0x0 PUSH3 0x672 DUP3 DUP5 PUSH3 0x62D JUMP JUMPDEST SWAP2 POP DUP2 SWAP1 POP SWAP3 SWAP2 POP POP JUMP JUMPDEST PUSH1 0x0 DUP2 MLOAD SWAP1 POP SWAP2 SWAP1 POP JUMP JUMPDEST PUSH1 0x0 DUP2 SWAP1 POP PUSH1 0x20 DUP3 ADD SWAP1 POP SWAP2 SWAP1 POP JUMP JUMPDEST PUSH1 0x0 DUP2 SWAP1 POP SWAP2 SWAP1 POP JUMP JUMPDEST PUSH1 0x0 PUSH3 0x6B0 DUP3 MLOAD PUSH3 0x698 JUMP JUMPDEST DUP1 SWAP2 POP POP SWAP2 SWAP1 POP JUMP JUMPDEST PUSH1 0x0 DUP3 DUP3 SHL SWAP1 POP SWAP3 SWAP2 POP POP JUMP JUMPDEST PUSH1 0x0 PUSH3 0x6D3 DUP3 PUSH3 0x67D JUMP JUMPDEST DUP3 PUSH3 0x6DF DUP5 PUSH3 0x688 JUMP JUMPDEST SWAP1 POP PUSH3 0x6EC DUP2 PUSH3 0x6A2 JUMP JUMPDEST SWAP3 POP PUSH1 0x20 DUP3 LT ISZERO PUSH3 0x72F JUMPI PUSH3 0x72A PUSH32 0xFFFFFFFFFFFFFFFFFFFFFFFFFFFFFFFFFFFFFFFFFFFFFFFFFFFFFFFFFFFFFFFF DUP4 PUSH1 0x20 SUB PUSH1 0x8 MUL PUSH3 0x6B9 JUMP JUMPDEST DUP4 AND SWAP3 POP JUMPDEST POP POP SWAP2 SWAP1 POP JUMP JUMPDEST PUSH32 0x4E487B7100000000000000000000000000000000000000000000000000000000 PUSH1 0x0 MSTORE PUSH1 0x11 PUSH1 0x4 MSTORE PUSH1 0x24 PUSH1 0x0 REVERT JUMPDEST PUSH1 0x0 PUSH3 0x772 DUP3 PUSH3 0x5CF JUMP JUMPDEST SWAP2 POP PUSH3 0x77F DUP4 PUSH3 0x5CF JUMP JUMPDEST SWAP3 POP DUP3 PUSH32 0xFFFFFFFFFFFFFFFFFFFFFFFFFFFFFFFFFFFFFFFFFFFFFFFFFFFFFFFFFFFFFFFF SUB DUP3 GT ISZERO PUSH3 0x7B7 JUMPI PUSH3 0x7B6 PUSH3 0x736 JUMP JUMPDEST JUMPDEST DUP3 DUP3 ADD SWAP1 POP SWAP3 SWAP2 POP POP JUMP JUMPDEST PUSH2 0x1A82 DUP1 PUSH3 0x7D2 PUSH1 0x0 CODECOPY PUSH1 0x0 RETURN INVALID PUSH1 0x80 PUSH1 0x40 MSTORE CALLVALUE DUP1 ISZERO PUSH2 0x10 JUMPI PUSH1 0x0 DUP1 REVERT JUMPDEST POP PUSH1 0x4 CALLDATASIZE LT PUSH2 0xA9 JUMPI PUSH1 0x0 CALLDATALOAD PUSH1 0xE0 SHR DUP1 PUSH4 0x9E7B8D61 GT PUSH2 0x71 JUMPI DUP1 PUSH4 0x9E7B8D61 EQ PUSH2 0x12A JUMPI DUP1 PUSH4 0xA3EC138D EQ PUSH2 0x146 JUMPI DUP1 PUSH4 0xC7F758A8 EQ PUSH2 0x179 JUMPI DUP1 PUSH4 0xD4D4B5AC EQ PUSH2 0x1AA JUMPI DUP1 PUSH4 0xDA35C664 EQ PUSH2 0x1C8 JUMPI DUP1 PUSH4 0xEF788CD5 EQ PUSH2 0x1E6 JUMPI PUSH2 0xA9 JUMP JUMPDEST DUP1 PUSH4 0x121B93F EQ PUSH2 0xAE JUMPI DUP1 PUSH4 0x28BE18EE EQ PUSH2 0xCA JUMPI DUP1 PUSH4 0x5C19A95C EQ PUSH2 0xE8 JUMPI DUP1 PUSH4 0x5F07B961 EQ PUSH2 0x104 JUMPI DUP1 PUSH4 0x6D0FC3D7 EQ PUSH2 0x10E JUMPI JUMPDEST PUSH1 0x0 DUP1 REVERT JUMPDEST PUSH2 0xC8 PUSH1 0x4 DUP1 CALLDATASIZE SUB DUP2 ADD SWAP1 PUSH2 0xC3 SWAP2 SWAP1 PUSH2 0x1188 JUMP JUMPDEST PUSH2 0x204 JUMP JUMPDEST STOP JUMPDEST PUSH2 0xD2 PUSH2 0x4A4 JUMP JUMPDEST PUSH1 0x40 MLOAD PUSH2 0xDF SWAP2 SWAP1 PUSH2 0x124E JUMP JUMPDEST PUSH1 0x40 MLOAD DUP1 SWAP2 SUB SWAP1 RETURN JUMPDEST PUSH2 0x102 PUSH1 0x4 DUP1 CALLDATASIZE SUB DUP2 ADD SWAP1 PUSH2 0xFD SWAP2 SWAP1 PUSH2 0x12CE JUMP JUMPDEST PUSH2 0x55B JUMP JUMPDEST STOP JUMPDEST PUSH2 0x10C PUSH2 0xA6D JUMP JUMPDEST STOP JUMPDEST PUSH2 0x128 PUSH1 0x4 DUP1 CALLDATASIZE SUB DUP2 ADD SWAP1 PUSH2 0x123 SWAP2 SWAP1 PUSH2 0x12CE JUMP JUMPDEST PUSH2 0xBE1 JUMP JUMPDEST STOP JUMPDEST PUSH2 0x144 PUSH1 0x4 DUP1 CALLDATASIZE SUB DUP2 ADD SWAP1 PUSH2 0x13F SWAP2 SWAP1 PUSH2 0x12CE JUMP JUMPDEST PUSH2 0xD43 JUMP JUMPDEST STOP JUMPDEST PUSH2 0x160 PUSH1 0x4 DUP1 CALLDATASIZE SUB DUP2 ADD SWAP1 PUSH2 0x15B SWAP2 SWAP1 PUSH2 0x12CE JUMP JUMPDEST PUSH2 0xF3C JUMP JUMPDEST PUSH1 0x40 MLOAD PUSH2 0x170 SWAP5 SWAP4 SWAP3 SWAP2 SWAP1 PUSH2 0x1334 JUMP JUMPDEST PUSH1 0x40 MLOAD DUP1 SWAP2 SUB SWAP1 RETURN JUMPDEST PUSH2 0x193 PUSH1 0x4 DUP1 CALLDATASIZE SUB DUP2 ADD SWAP1 PUSH2 0x18E SWAP2 SWAP1 PUSH2 0x1188 JUMP JUMPDEST PUSH2 0xF99 JUMP JUMPDEST PUSH1 0x40 MLOAD PUSH2 0x1A1 SWAP3 SWAP2 SWAP1 PUSH2 0x1379 JUMP JUMPDEST PUSH1 0x40 MLOAD DUP1 SWAP2 SUB SWAP1 RETURN JUMPDEST PUSH2 0x1B2 PUSH2 0x1044 JUMP JUMPDEST PUSH1 0x40 MLOAD PUSH2 0x1BF SWAP2 SWAP1 PUSH2 0x13A9 JUMP JUMPDEST PUSH1 0x40 MLOAD DUP1 SWAP2 SUB SWAP1 RETURN JUMPDEST PUSH2 0x1D0 PUSH2 0x106A JUMP JUMPDEST PUSH1 0x40 MLOAD PUSH2 0x1DD SWAP2 SWAP1 PUSH2 0x13C4 JUMP JUMPDEST PUSH1 0x40 MLOAD DUP1 SWAP2 SUB SWAP1 RETURN JUMPDEST PUSH2 0x1EE PUSH2 0x1070 JUMP JUMPDEST PUSH1 0x40 MLOAD PUSH2 0x1FB SWAP2 SWAP1 PUSH2 0x149D JUMP JUMPDEST PUSH1 0x40 MLOAD DUP1 SWAP2 SUB SWAP1 RETURN JUMPDEST DUP1 PUSH1 0x0 SLOAD DUP2 LT PUSH2 0x249 JUMPI PUSH1 0x40 MLOAD PUSH32 0x8C379A000000000000000000000000000000000000000000000000000000000 DUP2 MSTORE PUSH1 0x4 ADD PUSH2 0x240 SWAP1 PUSH2 0x1531 JUMP JUMPDEST PUSH1 0x40 MLOAD DUP1 SWAP2 SUB SWAP1 REVERT JUMPDEST PUSH2 0x251 PUSH2 0x10DE JUMP JUMPDEST PUSH1 0x2 PUSH1 0x0 DUP3 PUSH20 0xFFFFFFFFFFFFFFFFFFFFFFFFFFFFFFFFFFFFFFFF AND PUSH20 0xFFFFFFFFFFFFFFFFFFFFFFFFFFFFFFFFFFFFFFFF AND DUP2 MSTORE PUSH1 0x20 ADD SWAP1 DUP2 MSTORE PUSH1 0x20 ADD PUSH1 0x0 KECCAK256 PUSH1 0x1 ADD PUSH1 0x0 SWAP1 SLOAD SWAP1 PUSH2 0x100 EXP SWAP1 DIV PUSH1 0xFF AND ISZERO PUSH2 0x2E1 JUMPI PUSH1 0x40 MLOAD PUSH32 0x8C379A000000000000000000000000000000000000000000000000000000000 DUP2 MSTORE PUSH1 0x4 ADD PUSH2 0x2D8 SWAP1 PUSH2 0x15C3 JUMP JUMPDEST PUSH1 0x40 MLOAD DUP1 SWAP2 SUB SWAP1 REVERT JUMPDEST PUSH2 0x2E9 PUSH2 0x10DE JUMP JUMPDEST PUSH1 0x0 PUSH1 0x2 PUSH1 0x0 DUP4 PUSH20 0xFFFFFFFFFFFFFFFFFFFFFFFFFFFFFFFFFFFFFFFF AND PUSH20 0xFFFFFFFFFFFFFFFFFFFFFFFFFFFFFFFFFFFFFFFF AND DUP2 MSTORE PUSH1 0x20 ADD SWAP1 DUP2 MSTORE PUSH1 0x20 ADD PUSH1 0x0 KECCAK256 PUSH1 0x0 ADD SLOAD GT PUSH2 0x36E JUMPI PUSH1 0x40 MLOAD PUSH32 0x8C379A000000000000000000000000000000000000000000000000000000000 DUP2 MSTORE PUSH1 0x4 ADD PUSH2 0x365 SWAP1 PUSH2 0x1655 JUMP JUMPDEST PUSH1 0x40 MLOAD DUP1 SWAP2 SUB SWAP1 REVERT JUMPDEST PUSH1 0x0 PUSH1 0x2 PUSH1 0x0 PUSH2 0x37C PUSH2 0x10DE JUMP JUMPDEST PUSH20 0xFFFFFFFFFFFFFFFFFFFFFFFFFFFFFFFFFFFFFFFF AND PUSH20 0xFFFFFFFFFFFFFFFFFFFFFFFFFFFFFFFFFFFFFFFF AND DUP2 MSTORE PUSH1 0x20 ADD SWAP1 DUP2 MSTORE PUSH1 0x20 ADD PUSH1 0x0 KECCAK256 SWAP1 POP PUSH1 0x1 DUP2 PUSH1 0x1 ADD PUSH1 0x0 PUSH2 0x100 EXP DUP2 SLOAD DUP2 PUSH1 0xFF MUL NOT AND SWAP1 DUP4 ISZERO ISZERO MUL OR SWAP1 SSTORE POP DUP5 DUP2 PUSH1 0x2 ADD DUP2 SWAP1 SSTORE POP PUSH2 0x41A DUP2 PUSH1 0x0 ADD SLOAD PUSH1 0x3 DUP8 DUP2 SLOAD DUP2 LT PUSH2 0x3FA JUMPI PUSH2 0x3F9 PUSH2 0x1675 JUMP JUMPDEST JUMPDEST SWAP1 PUSH1 0x0 MSTORE PUSH1 0x20 PUSH1 0x0 KECCAK256 SWAP1 PUSH1 0x2 MUL ADD PUSH1 0x1 ADD SLOAD PUSH2 0x10C8 SWAP1 SWAP2 SWAP1 PUSH4 0xFFFFFFFF AND JUMP JUMPDEST PUSH1 0x3 DUP7 DUP2 SLOAD DUP2 LT PUSH2 0x42E JUMPI PUSH2 0x42D PUSH2 0x1675 JUMP JUMPDEST JUMPDEST SWAP1 PUSH1 0x0 MSTORE PUSH1 0x20 PUSH1 0x0 KECCAK256 SWAP1 PUSH1 0x2 MUL ADD PUSH1 0x1 ADD DUP2 SWAP1 SSTORE POP PUSH2 0x44B PUSH2 0x10DE JUMP JUMPDEST PUSH20 0xFFFFFFFFFFFFFFFFFFFFFFFFFFFFFFFFFFFFFFFF AND DUP6 PUSH32 0xE7EE74CA1F4BB1B82B14F87794C45B3E59C39E372B862FB97A6316B43355B69E DUP4 PUSH1 0x0 ADD SLOAD PUSH1 0x40 MLOAD PUSH2 0x495 SWAP2 SWAP1 PUSH2 0x13C4 JUMP JUMPDEST PUSH1 0x40 MLOAD DUP1 SWAP2 SUB SWAP1 LOG3 POP POP POP POP POP JUMP JUMPDEST PUSH1 0x60 PUSH1 0x0 JUMPDEST PUSH1 0x4 DUP1 SLOAD SWAP1 POP DUP2 LT ISZERO PUSH2 0x557 JUMPI DUP2 PUSH1 0x3 PUSH1 0x4 DUP4 DUP2 SLOAD DUP2 LT PUSH2 0x4CD JUMPI PUSH2 0x4CC PUSH2 0x1675 JUMP JUMPDEST JUMPDEST SWAP1 PUSH1 0x0 MSTORE PUSH1 0x20 PUSH1 0x0 KECCAK256 ADD SLOAD DUP2 SLOAD DUP2 LT PUSH2 0x4E9 JUMPI PUSH2 0x4E8 PUSH2 0x1675 JUMP JUMPDEST JUMPDEST SWAP1 PUSH1 0x0 MSTORE PUSH1 0x20 PUSH1 0x0 KECCAK256 SWAP1 PUSH1 0x2 MUL ADD PUSH1 0x0 ADD SLOAD PUSH1 0x40 MLOAD PUSH1 0x20 ADD PUSH2 0x50B SWAP2 SWAP1 PUSH2 0x16CF JUMP JUMPDEST PUSH1 0x40 MLOAD PUSH1 0x20 DUP2 DUP4 SUB SUB DUP2 MSTORE SWAP1 PUSH1 0x40 MSTORE PUSH1 0x40 MLOAD PUSH1 0x20 ADD PUSH2 0x52B SWAP3 SWAP2 SWAP1 PUSH2 0x174C JUMP JUMPDEST PUSH1 0x40 MLOAD PUSH1 0x20 DUP2 DUP4 SUB SUB DUP2 MSTORE SWAP1 PUSH1 0x40 MSTORE SWAP2 POP PUSH2 0x550 PUSH1 0x1 DUP3 PUSH2 0x10C8 SWAP1 SWAP2 SWAP1 PUSH4 0xFFFFFFFF AND JUMP JUMPDEST SWAP1 POP PUSH2 0x4A9 JUMP JUMPDEST POP SWAP1 JUMP JUMPDEST PUSH2 0x563 PUSH2 0x10DE JUMP JUMPDEST PUSH1 0x2 PUSH1 0x0 DUP3 PUSH20 0xFFFFFFFFFFFFFFFFFFFFFFFFFFFFFFFFFFFFFFFF AND PUSH20 0xFFFFFFFFFFFFFFFFFFFFFFFFFFFFFFFFFFFFFFFF AND DUP2 MSTORE PUSH1 0x20 ADD SWAP1 DUP2 MSTORE PUSH1 0x20 ADD PUSH1 0x0 KECCAK256 PUSH1 0x1 ADD PUSH1 0x0 SWAP1 SLOAD SWAP1 PUSH2 0x100 EXP SWAP1 DIV PUSH1 0xFF AND ISZERO PUSH2 0x5F3 JUMPI PUSH1 0x40 MLOAD PUSH32 0x8C379A000000000000000000000000000000000000000000000000000000000 DUP2 MSTORE PUSH1 0x4 ADD PUSH2 0x5EA SWAP1 PUSH2 0x15C3 JUMP JUMPDEST PUSH1 0x40 MLOAD DUP1 SWAP2 SUB SWAP1 REVERT JUMPDEST PUSH2 0x5FB PUSH2 0x10DE JUMP JUMPDEST PUSH1 0x0 PUSH1 0x2 PUSH1 0x0 DUP4 PUSH20 0xFFFFFFFFFFFFFFFFFFFFFFFFFFFFFFFFFFFFFFFF AND PUSH20 0xFFFFFFFFFFFFFFFFFFFFFFFFFFFFFFFFFFFFFFFF AND DUP2 MSTORE PUSH1 0x20 ADD SWAP1 DUP2 MSTORE PUSH1 0x20 ADD PUSH1 0x0 KECCAK256 PUSH1 0x0 ADD SLOAD GT PUSH2 0x680 JUMPI PUSH1 0x40 MLOAD PUSH32 0x8C379A000000000000000000000000000000000000000000000000000000000 DUP2 MSTORE PUSH1 0x4 ADD PUSH2 0x677 SWAP1 PUSH2 0x1655 JUMP JUMPDEST PUSH1 0x40 MLOAD DUP1 SWAP2 SUB SWAP1 REVERT JUMPDEST PUSH1 0x0 PUSH1 0x2 PUSH1 0x0 PUSH2 0x68E PUSH2 0x10DE JUMP JUMPDEST PUSH20 0xFFFFFFFFFFFFFFFFFFFFFFFFFFFFFFFFFFFFFFFF AND PUSH20 0xFFFFFFFFFFFFFFFFFFFFFFFFFFFFFFFFFFFFFFFF AND DUP2 MSTORE PUSH1 0x20 ADD SWAP1 DUP2 MSTORE PUSH1 0x20 ADD PUSH1 0x0 KECCAK256 SWAP1 POP PUSH2 0x6D2 PUSH2 0x10DE JUMP JUMPDEST PUSH20 0xFFFFFFFFFFFFFFFFFFFFFFFFFFFFFFFFFFFFFFFF AND DUP5 PUSH20 0xFFFFFFFFFFFFFFFFFFFFFFFFFFFFFFFFFFFFFFFF AND SUB PUSH2 0x73F JUMPI PUSH1 0x40 MLOAD PUSH32 0x8C379A000000000000000000000000000000000000000000000000000000000 DUP2 MSTORE PUSH1 0x4 ADD PUSH2 0x736 SWAP1 PUSH2 0x17F1 JUMP JUMPDEST PUSH1 0x40 MLOAD DUP1 SWAP2 SUB SWAP1 REVERT JUMPDEST JUMPDEST PUSH1 0x0 PUSH20 0xFFFFFFFFFFFFFFFFFFFFFFFFFFFFFFFFFFFFFFFF AND PUSH1 0x2 PUSH1 0x0 DUP7 PUSH20 0xFFFFFFFFFFFFFFFFFFFFFFFFFFFFFFFFFFFFFFFF AND PUSH20 0xFFFFFFFFFFFFFFFFFFFFFFFFFFFFFFFFFFFFFFFF AND DUP2 MSTORE PUSH1 0x20 ADD SWAP1 DUP2 MSTORE PUSH1 0x20 ADD PUSH1 0x0 KECCAK256 PUSH1 0x1 ADD PUSH1 0x1 SWAP1 SLOAD SWAP1 PUSH2 0x100 EXP SWAP1 DIV PUSH20 0xFFFFFFFFFFFFFFFFFFFFFFFFFFFFFFFFFFFFFFFF AND PUSH20 0xFFFFFFFFFFFFFFFFFFFFFFFFFFFFFFFFFFFFFFFF AND EQ PUSH2 0x8B5 JUMPI PUSH1 0x2 PUSH1 0x0 DUP6 PUSH20 0xFFFFFFFFFFFFFFFFFFFFFFFFFFFFFFFFFFFFFFFF AND PUSH20 0xFFFFFFFFFFFFFFFFFFFFFFFFFFFFFFFFFFFFFFFF AND DUP2 MSTORE PUSH1 0x20 ADD SWAP1 DUP2 MSTORE PUSH1 0x20 ADD PUSH1 0x0 KECCAK256 PUSH1 0x1 ADD PUSH1 0x1 SWAP1 SLOAD SWAP1 PUSH2 0x100 EXP SWAP1 DIV PUSH20 0xFFFFFFFFFFFFFFFFFFFFFFFFFFFFFFFFFFFFFFFF AND SWAP4 POP PUSH2 0x843 PUSH2 0x10DE JUMP JUMPDEST PUSH20 0xFFFFFFFFFFFFFFFFFFFFFFFFFFFFFFFFFFFFFFFF AND DUP5 PUSH20 0xFFFFFFFFFFFFFFFFFFFFFFFFFFFFFFFFFFFFFFFF AND SUB PUSH2 0x8B0 JUMPI PUSH1 0x40 MLOAD PUSH32 0x8C379A000000000000000000000000000000000000000000000000000000000 DUP2 MSTORE PUSH1 0x4 ADD PUSH2 0x8A7 SWAP1 PUSH2 0x1883 JUMP JUMPDEST PUSH1 0x40 MLOAD DUP1 SWAP2 SUB SWAP1 REVERT JUMPDEST PUSH2 0x740 JUMP JUMPDEST PUSH1 0x1 DUP2 PUSH1 0x1 ADD PUSH1 0x0 PUSH2 0x100 EXP DUP2 SLOAD DUP2 PUSH1 0xFF MUL NOT AND SWAP1 DUP4 ISZERO ISZERO MUL OR SWAP1 SSTORE POP DUP4 DUP2 PUSH1 0x1 ADD PUSH1 0x1 PUSH2 0x100 EXP DUP2 SLOAD DUP2 PUSH20 0xFFFFFFFFFFFFFFFFFFFFFFFFFFFFFFFFFFFFFFFF MUL NOT AND SWAP1 DUP4 PUSH20 0xFFFFFFFFFFFFFFFFFFFFFFFFFFFFFFFFFFFFFFFF AND MUL OR SWAP1 SSTORE POP PUSH1 0x0 PUSH1 0x2 PUSH1 0x0 DUP7 PUSH20 0xFFFFFFFFFFFFFFFFFFFFFFFFFFFFFFFFFFFFFFFF AND PUSH20 0xFFFFFFFFFFFFFFFFFFFFFFFFFFFFFFFFFFFFFFFF AND DUP2 MSTORE PUSH1 0x20 ADD SWAP1 DUP2 MSTORE PUSH1 0x20 ADD PUSH1 0x0 KECCAK256 SWAP1 POP DUP1 PUSH1 0x1 ADD PUSH1 0x0 SWAP1 SLOAD SWAP1 PUSH2 0x100 EXP SWAP1 DIV PUSH1 0xFF AND ISZERO PUSH2 0x9E1 JUMPI PUSH2 0x9AF DUP3 PUSH1 0x0 ADD SLOAD PUSH1 0x3 DUP4 PUSH1 0x2 ADD SLOAD DUP2 SLOAD DUP2 LT PUSH2 0x98F JUMPI PUSH2 0x98E PUSH2 0x1675 JUMP JUMPDEST JUMPDEST SWAP1 PUSH1 0x0 MSTORE PUSH1 0x20 PUSH1 0x0 KECCAK256 SWAP1 PUSH1 0x2 MUL ADD PUSH1 0x1 ADD SLOAD PUSH2 0x10C8 SWAP1 SWAP2 SWAP1 PUSH4 0xFFFFFFFF AND JUMP JUMPDEST PUSH1 0x3 DUP3 PUSH1 0x2 ADD SLOAD DUP2 SLOAD DUP2 LT PUSH2 0x9C7 JUMPI PUSH2 0x9C6 PUSH2 0x1675 JUMP JUMPDEST JUMPDEST SWAP1 PUSH1 0x0 MSTORE PUSH1 0x20 PUSH1 0x0 KECCAK256 SWAP1 PUSH1 0x2 MUL ADD PUSH1 0x1 ADD DUP2 SWAP1 SSTORE POP PUSH2 0xA05 JUMP JUMPDEST PUSH2 0x9FC DUP3 PUSH1 0x0 ADD SLOAD DUP3 PUSH1 0x0 ADD SLOAD PUSH2 0x10C8 SWAP1 SWAP2 SWAP1 PUSH4 0xFFFFFFFF AND JUMP JUMPDEST DUP2 PUSH1 0x0 ADD DUP2 SWAP1 SSTORE POP JUMPDEST DUP5 PUSH20 0xFFFFFFFFFFFFFFFFFFFFFFFFFFFFFFFFFFFFFFFF AND PUSH2 0xA24 PUSH2 0x10DE JUMP JUMPDEST PUSH20 0xFFFFFFFFFFFFFFFFFFFFFFFFFFFFFFFFFFFFFFFF AND PUSH32 0x4CE9EF2C99D761D69230B0E3381F4C6016333B2E27D32B3E379A96B5D2C69232 PUSH1 0x40 MLOAD PUSH1 0x40 MLOAD DUP1 SWAP2 SUB SWAP1 LOG3 POP POP POP POP POP JUMP JUMPDEST PUSH1 0x0 DUP1 PUSH1 0x4 PUSH1 0x0 PUSH2 0xA7E SWAP2 SWAP1 PUSH2 0x110F JUMP JUMPDEST PUSH1 0x0 JUMPDEST PUSH1 0x3 DUP1 SLOAD SWAP1 POP DUP2 LT ISZERO PUSH2 0xB28 JUMPI DUP3 PUSH1 0x3 DUP3 DUP2 SLOAD DUP2 LT PUSH2 0xAA3 JUMPI PUSH2 0xAA2 PUSH2 0x1675 JUMP JUMPDEST JUMPDEST SWAP1 PUSH1 0x0 MSTORE PUSH1 0x20 PUSH1 0x0 KECCAK256 SWAP1 PUSH1 0x2 MUL ADD PUSH1 0x1 ADD SLOAD GT ISZERO PUSH2 0xB0D JUMPI PUSH1 0x3 DUP2 DUP2 SLOAD DUP2 LT PUSH2 0xACF JUMPI PUSH2 0xACE PUSH2 0x1675 JUMP JUMPDEST JUMPDEST SWAP1 PUSH1 0x0 MSTORE PUSH1 0x20 PUSH1 0x0 KECCAK256 SWAP1 PUSH1 0x2 MUL ADD PUSH1 0x1 ADD SLOAD SWAP3 POP PUSH1 0x4 DUP2 SWAP1 DUP1 PUSH1 0x1 DUP2 SLOAD ADD DUP1 DUP3 SSTORE DUP1 SWAP2 POP POP PUSH1 0x1 SWAP1 SUB SWAP1 PUSH1 0x0 MSTORE PUSH1 0x20 PUSH1 0x0 KECCAK256 ADD PUSH1 0x0 SWAP1 SWAP2 SWAP1 SWAP2 SWAP1 SWAP2 POP SSTORE JUMPDEST PUSH2 0xB21 PUSH1 0x1 DUP3 PUSH2 0x10C8 SWAP1 SWAP2 SWAP1 PUSH4 0xFFFFFFFF AND JUMP JUMPDEST SWAP1 POP PUSH2 0xA81 JUMP JUMPDEST POP PUSH1 0x0 JUMPDEST PUSH1 0x3 DUP1 SLOAD SWAP1 POP DUP2 LT ISZERO PUSH2 0xBDC JUMPI PUSH1 0x3 DUP3 DUP2 SLOAD DUP2 LT PUSH2 0xB4D JUMPI PUSH2 0xB4C PUSH2 0x1675 JUMP JUMPDEST JUMPDEST SWAP1 PUSH1 0x0 MSTORE PUSH1 0x20 PUSH1 0x0 KECCAK256 SWAP1 PUSH1 0x2 MUL ADD PUSH1 0x1 ADD SLOAD PUSH1 0x3 DUP3 DUP2 SLOAD DUP2 LT PUSH2 0xB73 JUMPI PUSH2 0xB72 PUSH2 0x1675 JUMP JUMPDEST JUMPDEST SWAP1 PUSH1 0x0 MSTORE PUSH1 0x20 PUSH1 0x0 KECCAK256 SWAP1 PUSH1 0x2 MUL ADD PUSH1 0x1 ADD SLOAD EQ DUP1 ISZERO PUSH2 0xB92 JUMPI POP DUP2 DUP2 EQ ISZERO JUMPDEST ISZERO PUSH2 0xBC1 JUMPI PUSH1 0x4 DUP2 SWAP1 DUP1 PUSH1 0x1 DUP2 SLOAD ADD DUP1 DUP3 SSTORE DUP1 SWAP2 POP POP PUSH1 0x1 SWAP1 SUB SWAP1 PUSH1 0x0 MSTORE PUSH1 0x20 PUSH1 0x0 KECCAK256 ADD PUSH1 0x0 SWAP1 SWAP2 SWAP1 SWAP2 SWAP1 SWAP2 POP SSTORE JUMPDEST PUSH2 0xBD5 PUSH1 0x1 DUP3 PUSH2 0x10C8 SWAP1 SWAP2 SWAP1 PUSH4 0xFFFFFFFF AND JUMP JUMPDEST SWAP1 POP PUSH2 0xB2C JUMP JUMPDEST POP POP POP JUMP JUMPDEST PUSH1 0x1 PUSH1 0x0 SWAP1 SLOAD SWAP1 PUSH2 0x100 EXP SWAP1 DIV PUSH20 0xFFFFFFFFFFFFFFFFFFFFFFFFFFFFFFFFFFFFFFFF AND PUSH20 0xFFFFFFFFFFFFFFFFFFFFFFFFFFFFFFFFFFFFFFFF AND PUSH2 0xC22 PUSH2 0x10DE JUMP JUMPDEST PUSH20 0xFFFFFFFFFFFFFFFFFFFFFFFFFFFFFFFFFFFFFFFF AND EQ PUSH2 0xC78 JUMPI PUSH1 0x40 MLOAD PUSH32 0x8C379A000000000000000000000000000000000000000000000000000000000 DUP2 MSTORE PUSH1 0x4 ADD PUSH2 0xC6F SWAP1 PUSH2 0x1915 JUMP JUMPDEST PUSH1 0x40 MLOAD DUP1 SWAP2 SUB SWAP1 REVERT JUMPDEST DUP1 PUSH1 0x0 PUSH1 0x2 PUSH1 0x0 DUP4 PUSH20 0xFFFFFFFFFFFFFFFFFFFFFFFFFFFFFFFFFFFFFFFF AND PUSH20 0xFFFFFFFFFFFFFFFFFFFFFFFFFFFFFFFFFFFFFFFF AND DUP2 MSTORE PUSH1 0x20 ADD SWAP1 DUP2 MSTORE PUSH1 0x20 ADD PUSH1 0x0 KECCAK256 PUSH1 0x0 ADD SLOAD GT PUSH2 0xCFE JUMPI PUSH1 0x40 MLOAD PUSH32 0x8C379A000000000000000000000000000000000000000000000000000000000 DUP2 MSTORE PUSH1 0x4 ADD PUSH2 0xCF5 SWAP1 PUSH2 0x1655 JUMP JUMPDEST PUSH1 0x40 MLOAD DUP1 SWAP2 SUB SWAP1 REVERT JUMPDEST DUP2 PUSH1 0x1 PUSH1 0x0 PUSH2 0x100 EXP DUP2 SLOAD DUP2 PUSH20 0xFFFFFFFFFFFFFFFFFFFFFFFFFFFFFFFFFFFFFFFF MUL NOT AND SWAP1 DUP4 PUSH20 0xFFFFFFFFFFFFFFFFFFFFFFFFFFFFFFFFFFFFFFFF AND MUL OR SWAP1 SSTORE POP POP POP JUMP JUMPDEST PUSH1 0x1 PUSH1 0x0 SWAP1 SLOAD SWAP1 PUSH2 0x100 EXP SWAP1 DIV PUSH20 0xFFFFFFFFFFFFFFFFFFFFFFFFFFFFFFFFFFFFFFFF AND PUSH20 0xFFFFFFFFFFFFFFFFFFFFFFFFFFFFFFFFFFFFFFFF AND PUSH2 0xD84 PUSH2 0x10DE JUMP JUMPDEST PUSH20 0xFFFFFFFFFFFFFFFFFFFFFFFFFFFFFFFFFFFFFFFF AND EQ PUSH2 0xDDA JUMPI PUSH1 0x40 MLOAD PUSH32 0x8C379A000000000000000000000000000000000000000000000000000000000 DUP2 MSTORE PUSH1 0x4 ADD PUSH2 0xDD1 SWAP1 PUSH2 0x1915 JUMP JUMPDEST PUSH1 0x40 MLOAD DUP1 SWAP2 SUB SWAP1 REVERT JUMPDEST DUP1 PUSH1 0x2 PUSH1 0x0 DUP3 PUSH20 0xFFFFFFFFFFFFFFFFFFFFFFFFFFFFFFFFFFFFFFFF AND PUSH20 0xFFFFFFFFFFFFFFFFFFFFFFFFFFFFFFFFFFFFFFFF AND DUP2 MSTORE PUSH1 0x20 ADD SWAP1 DUP2 MSTORE PUSH1 0x20 ADD PUSH1 0x0 KECCAK256 PUSH1 0x1 ADD PUSH1 0x0 SWAP1 SLOAD SWAP1 PUSH2 0x100 EXP SWAP1 DIV PUSH1 0xFF AND ISZERO PUSH2 0xE6B JUMPI PUSH1 0x40 MLOAD PUSH32 0x8C379A000000000000000000000000000000000000000000000000000000000 DUP2 MSTORE PUSH1 0x4 ADD PUSH2 0xE62 SWAP1 PUSH2 0x15C3 JUMP JUMPDEST PUSH1 0x40 MLOAD DUP1 SWAP2 SUB SWAP1 REVERT JUMPDEST PUSH1 0x0 PUSH1 0x2 PUSH1 0x0 DUP5 PUSH20 0xFFFFFFFFFFFFFFFFFFFFFFFFFFFFFFFFFFFFFFFF AND PUSH20 0xFFFFFFFFFFFFFFFFFFFFFFFFFFFFFFFFFFFFFFFF AND DUP2 MSTORE PUSH1 0x20 ADD SWAP1 DUP2 MSTORE PUSH1 0x20 ADD PUSH1 0x0 KECCAK256 PUSH1 0x0 ADD SLOAD EQ PUSH2 0xEF0 JUMPI PUSH1 0x40 MLOAD PUSH32 0x8C379A000000000000000000000000000000000000000000000000000000000 DUP2 MSTORE PUSH1 0x4 ADD PUSH2 0xEE7 SWAP1 PUSH2 0x19A7 JUMP JUMPDEST PUSH1 0x40 MLOAD DUP1 SWAP2 SUB SWAP1 REVERT JUMPDEST PUSH1 0x1 PUSH1 0x2 PUSH1 0x0 DUP5 PUSH20 0xFFFFFFFFFFFFFFFFFFFFFFFFFFFFFFFFFFFFFFFF AND PUSH20 0xFFFFFFFFFFFFFFFFFFFFFFFFFFFFFFFFFFFFFFFF AND DUP2 MSTORE PUSH1 0x20 ADD SWAP1 DUP2 MSTORE PUSH1 0x20 ADD PUSH1 0x0 KECCAK256 PUSH1 0x0 ADD DUP2 SWAP1 SSTORE POP POP POP JUMP JUMPDEST PUSH1 0x2 PUSH1 0x20 MSTORE DUP1 PUSH1 0x0 MSTORE PUSH1 0x40 PUSH1 0x0 KECCAK256 PUSH1 0x0 SWAP2 POP SWAP1 POP DUP1 PUSH1 0x0 ADD SLOAD SWAP1 DUP1 PUSH1 0x1 ADD PUSH1 0x0 SWAP1 SLOAD SWAP1 PUSH2 0x100 EXP SWAP1 DIV PUSH1 0xFF AND SWAP1 DUP1 PUSH1 0x1 ADD PUSH1 0x1 SWAP1 SLOAD SWAP1 PUSH2 0x100 EXP SWAP1 DIV PUSH20 0xFFFFFFFFFFFFFFFFFFFFFFFFFFFFFFFFFFFFFFFF AND SWAP1 DUP1 PUSH1 0x2 ADD SLOAD SWAP1 POP DUP5 JUMP JUMPDEST PUSH1 0x60 PUSH1 0x0 DUP3 PUSH1 0x0 SLOAD DUP2 LT PUSH2 0xFE2 JUMPI PUSH1 0x40 MLOAD PUSH32 0x8C379A000000000000000000000000000000000000000000000000000000000 DUP2 MSTORE PUSH1 0x4 ADD PUSH2 0xFD9 SWAP1 PUSH2 0x1531 JUMP JUMPDEST PUSH1 0x40 MLOAD DUP1 SWAP2 SUB SWAP1 REVERT JUMPDEST PUSH2 0x1010 PUSH1 0x3 DUP6 DUP2 SLOAD DUP2 LT PUSH2 0xFF9 JUMPI PUSH2 0xFF8 PUSH2 0x1675 JUMP JUMPDEST JUMPDEST SWAP1 PUSH1 0x0 MSTORE PUSH1 0x20 PUSH1 0x0 KECCAK256 SWAP1 PUSH1 0x2 MUL ADD PUSH1 0x0 ADD SLOAD PUSH2 0x10E6 JUMP JUMPDEST PUSH1 0x3 DUP6 DUP2 SLOAD DUP2 LT PUSH2 0x1024 JUMPI PUSH2 0x1023 PUSH2 0x1675 JUMP JUMPDEST JUMPDEST SWAP1 PUSH1 0x0 MSTORE PUSH1 0x20 PUSH1 0x0 KECCAK256 SWAP1 PUSH1 0x2 MUL ADD PUSH1 0x1 ADD SLOAD DUP1 SWAP4 POP DUP2 SWAP5 POP POP POP POP SWAP2 POP SWAP2 JUMP JUMPDEST PUSH1 0x1 PUSH1 0x0 SWAP1 SLOAD SWAP1 PUSH2 0x100 EXP SWAP1 DIV PUSH20 0xFFFFFFFFFFFFFFFFFFFFFFFFFFFFFFFFFFFFFFFF AND DUP2 JUMP JUMPDEST PUSH1 0x0 SLOAD DUP2 JUMP JUMPDEST PUSH1 0x60 PUSH1 0x4 DUP1 SLOAD DUP1 PUSH1 0x20 MUL PUSH1 0x20 ADD PUSH1 0x40 MLOAD SWAP1 DUP2 ADD PUSH1 0x40 MSTORE DUP1 SWAP3 SWAP2 SWAP1 DUP2 DUP2 MSTORE PUSH1 0x20 ADD DUP3 DUP1 SLOAD DUP1 ISZERO PUSH2 0x10BE JUMPI PUSH1 0x20 MUL DUP3 ADD SWAP2 SWAP1 PUSH1 0x0 MSTORE PUSH1 0x20 PUSH1 0x0 KECCAK256 SWAP1 JUMPDEST DUP2 SLOAD DUP2 MSTORE PUSH1 0x20 ADD SWAP1 PUSH1 0x1 ADD SWAP1 DUP1 DUP4 GT PUSH2 0x10AA JUMPI JUMPDEST POP POP POP POP POP SWAP1 POP SWAP1 JUMP JUMPDEST PUSH1 0x0 DUP2 DUP4 PUSH2 0x10D6 SWAP2 SWAP1 PUSH2 0x19F6 JUMP JUMPDEST SWAP1 POP SWAP3 SWAP2 POP POP JUMP JUMPDEST PUSH1 0x0 CALLER SWAP1 POP SWAP1 JUMP JUMPDEST PUSH1 0x60 DUP2 PUSH1 0x40 MLOAD PUSH1 0x20 ADD PUSH2 0x10F9 SWAP2 SWAP1 PUSH2 0x16CF JUMP JUMPDEST PUSH1 0x40 MLOAD PUSH1 0x20 DUP2 DUP4 SUB SUB DUP2 MSTORE SWAP1 PUSH1 0x40 MSTORE SWAP1 POP SWAP2 SWAP1 POP JUMP JUMPDEST POP DUP1 SLOAD PUSH1 0x0 DUP3 SSTORE SWAP1 PUSH1 0x0 MSTORE PUSH1 0x20 PUSH1 0x0 KECCAK256 SWAP1 DUP2 ADD SWAP1 PUSH2 0x112D SWAP2 SWAP1 PUSH2 0x1130 JUMP JUMPDEST POP JUMP JUMPDEST JUMPDEST DUP1 DUP3 GT ISZERO PUSH2 0x1149 JUMPI PUSH1 0x0 DUP2 PUSH1 0x0 SWAP1 SSTORE POP PUSH1 0x1 ADD PUSH2 0x1131 JUMP JUMPDEST POP SWAP1 JUMP JUMPDEST PUSH1 0x0 DUP1 REVERT JUMPDEST PUSH1 0x0 DUP2 SWAP1 POP SWAP2 SWAP1 POP JUMP JUMPDEST PUSH2 0x1165 DUP2 PUSH2 0x1152 JUMP JUMPDEST DUP2 EQ PUSH2 0x1170 JUMPI PUSH1 0x0 DUP1 REVERT JUMPDEST POP JUMP JUMPDEST PUSH1 0x0 DUP2 CALLDATALOAD SWAP1 POP PUSH2 0x1182 DUP2 PUSH2 0x115C JUMP JUMPDEST SWAP3 SWAP2 POP POP JUMP JUMPDEST PUSH1 0x0 PUSH1 0x20 DUP3 DUP5 SUB SLT ISZERO PUSH2 0x119E JUMPI PUSH2 0x119D PUSH2 0x114D JUMP JUMPDEST JUMPDEST PUSH1 0x0 PUSH2 0x11AC DUP5 DUP3 DUP6 ADD PUSH2 0x1173 JUMP JUMPDEST SWAP2 POP POP SWAP3 SWAP2 POP POP JUMP JUMPDEST PUSH1 0x0 DUP2 MLOAD SWAP1 POP SWAP2 SWAP1 POP JUMP JUMPDEST PUSH1 0x0 DUP3 DUP3 MSTORE PUSH1 0x20 DUP3 ADD SWAP1 POP SWAP3 SWAP2 POP POP JUMP JUMPDEST PUSH1 0x0 JUMPDEST DUP4 DUP2 LT ISZERO PUSH2 0x11EF JUMPI DUP1 DUP3 ADD MLOAD DUP2 DUP5 ADD MSTORE PUSH1 0x20 DUP2 ADD SWAP1 POP PUSH2 0x11D4 JUMP JUMPDEST DUP4 DUP2 GT ISZERO PUSH2 0x11FE JUMPI PUSH1 0x0 DUP5 DUP5 ADD MSTORE JUMPDEST POP POP POP POP JUMP JUMPDEST PUSH1 0x0 PUSH1 0x1F NOT PUSH1 0x1F DUP4 ADD AND SWAP1 POP SWAP2 SWAP1 POP JUMP JUMPDEST PUSH1 0x0 PUSH2 0x1220 DUP3 PUSH2 0x11B5 JUMP JUMPDEST PUSH2 0x122A DUP2 DUP6 PUSH2 0x11C0 JUMP JUMPDEST SWAP4 POP PUSH2 0x123A DUP2 DUP6 PUSH1 0x20 DUP7 ADD PUSH2 0x11D1 JUMP JUMPDEST PUSH2 0x1243 DUP2 PUSH2 0x1204 JUMP JUMPDEST DUP5 ADD SWAP2 POP POP SWAP3 SWAP2 POP POP JUMP JUMPDEST PUSH1 0x0 PUSH1 0x20 DUP3 ADD SWAP1 POP DUP2 DUP2 SUB PUSH1 0x0 DUP4 ADD MSTORE PUSH2 0x1268 DUP2 DUP5 PUSH2 0x1215 JUMP JUMPDEST SWAP1 POP SWAP3 SWAP2 POP POP JUMP JUMPDEST PUSH1 0x0 PUSH20 0xFFFFFFFFFFFFFFFFFFFFFFFFFFFFFFFFFFFFFFFF DUP3 AND SWAP1 POP SWAP2 SWAP1 POP JUMP JUMPDEST PUSH1 0x0 PUSH2 0x129B DUP3 PUSH2 0x1270 JUMP JUMPDEST SWAP1 POP SWAP2 SWAP1 POP JUMP JUMPDEST PUSH2 0x12AB DUP2 PUSH2 0x1290 JUMP JUMPDEST DUP2 EQ PUSH2 0x12B6 JUMPI PUSH1 0x0 DUP1 REVERT JUMPDEST POP JUMP JUMPDEST PUSH1 0x0 DUP2 CALLDATALOAD SWAP1 POP PUSH2 0x12C8 DUP2 PUSH2 0x12A2 JUMP JUMPDEST SWAP3 SWAP2 POP POP JUMP JUMPDEST PUSH1 0x0 PUSH1 0x20 DUP3 DUP5 SUB SLT ISZERO PUSH2 0x12E4 JUMPI PUSH2 0x12E3 PUSH2 0x114D JUMP JUMPDEST JUMPDEST PUSH1 0x0 PUSH2 0x12F2 DUP5 DUP3 DUP6 ADD PUSH2 0x12B9 JUMP JUMPDEST SWAP2 POP POP SWAP3 SWAP2 POP POP JUMP JUMPDEST PUSH2 0x1304 DUP2 PUSH2 0x1152 JUMP JUMPDEST DUP3 MSTORE POP POP JUMP JUMPDEST PUSH1 0x0 DUP2 ISZERO ISZERO SWAP1 POP SWAP2 SWAP1 POP JUMP JUMPDEST PUSH2 0x131F DUP2 PUSH2 0x130A JUMP JUMPDEST DUP3 MSTORE POP POP JUMP JUMPDEST PUSH2 0x132E DUP2 PUSH2 0x1290 JUMP JUMPDEST DUP3 MSTORE POP POP JUMP JUMPDEST PUSH1 0x0 PUSH1 0x80 DUP3 ADD SWAP1 POP PUSH2 0x1349 PUSH1 0x0 DUP4 ADD DUP8 PUSH2 0x12FB JUMP JUMPDEST PUSH2 0x1356 PUSH1 0x20 DUP4 ADD DUP7 PUSH2 0x1316 JUMP JUMPDEST PUSH2 0x1363 PUSH1 0x40 DUP4 ADD DUP6 PUSH2 0x1325 JUMP JUMPDEST PUSH2 0x1370 PUSH1 0x60 DUP4 ADD DUP5 PUSH2 0x12FB JUMP JUMPDEST SWAP6 SWAP5 POP POP POP POP POP JUMP JUMPDEST PUSH1 0x0 PUSH1 0x40 DUP3 ADD SWAP1 POP DUP2 DUP2 SUB PUSH1 0x0 DUP4 ADD MSTORE PUSH2 0x1393 DUP2 DUP6 PUSH2 0x1215 JUMP JUMPDEST SWAP1 POP PUSH2 0x13A2 PUSH1 0x20 DUP4 ADD DUP5 PUSH2 0x12FB JUMP JUMPDEST SWAP4 SWAP3 POP POP POP JUMP JUMPDEST PUSH1 0x0 PUSH1 0x20 DUP3 ADD SWAP1 POP PUSH2 0x13BE PUSH1 0x0 DUP4 ADD DUP5 PUSH2 0x1325 JUMP JUMPDEST SWAP3 SWAP2 POP POP JUMP JUMPDEST PUSH1 0x0 PUSH1 0x20 DUP3 ADD SWAP1 POP PUSH2 0x13D9 PUSH1 0x0 DUP4 ADD DUP5 PUSH2 0x12FB JUMP JUMPDEST SWAP3 SWAP2 POP POP JUMP JUMPDEST PUSH1 0x0 DUP2 MLOAD SWAP1 POP SWAP2 SWAP1 POP JUMP JUMPDEST PUSH1 0x0 DUP3 DUP3 MSTORE PUSH1 0x20 DUP3 ADD SWAP1 POP SWAP3 SWAP2 POP POP JUMP JUMPDEST PUSH1 0x0 DUP2 SWAP1 POP PUSH1 0x20 DUP3 ADD SWAP1 POP SWAP2 SWAP1 POP JUMP JUMPDEST PUSH2 0x1414 DUP2 PUSH2 0x1152 JUMP JUMPDEST DUP3 MSTORE POP POP JUMP JUMPDEST PUSH1 0x0 PUSH2 0x1426 DUP4 DUP4 PUSH2 0x140B JUMP JUMPDEST PUSH1 0x20 DUP4 ADD SWAP1 POP SWAP3 SWAP2 POP POP JUMP JUMPDEST PUSH1 0x0 PUSH1 0x20 DUP3 ADD SWAP1 POP SWAP2 SWAP1 POP JUMP JUMPDEST PUSH1 0x0 PUSH2 0x144A DUP3 PUSH2 0x13DF JUMP JUMPDEST PUSH2 0x1454 DUP2 DUP6 PUSH2 0x13EA JUMP JUMPDEST SWAP4 POP PUSH2 0x145F DUP4 PUSH2 0x13FB JUMP JUMPDEST DUP1 PUSH1 0x0 JUMPDEST DUP4 DUP2 LT ISZERO PUSH2 0x1490 JUMPI DUP2 MLOAD PUSH2 0x1477 DUP9 DUP3 PUSH2 0x141A JUMP JUMPDEST SWAP8 POP PUSH2 0x1482 DUP4 PUSH2 0x1432 JUMP JUMPDEST SWAP3 POP POP PUSH1 0x1 DUP2 ADD SWAP1 POP PUSH2 0x1463 JUMP JUMPDEST POP DUP6 SWAP4 POP POP POP POP SWAP3 SWAP2 POP POP JUMP JUMPDEST PUSH1 0x0 PUSH1 0x20 DUP3 ADD SWAP1 POP DUP2 DUP2 SUB PUSH1 0x0 DUP4 ADD MSTORE PUSH2 0x14B7 DUP2 DUP5 PUSH2 0x143F JUMP JUMPDEST SWAP1 POP SWAP3 SWAP2 POP POP JUMP JUMPDEST PUSH32 0x53696D706C65566F74696E673A2050726F706F73616C20696E646578206F7574 PUSH1 0x0 DUP3 ADD MSTORE PUSH32 0x206F6620626F756E64732E000000000000000000000000000000000000000000 PUSH1 0x20 DUP3 ADD MSTORE POP JUMP JUMPDEST PUSH1 0x0 PUSH2 0x151B PUSH1 0x2B DUP4 PUSH2 0x11C0 JUMP JUMPDEST SWAP2 POP PUSH2 0x1526 DUP3 PUSH2 0x14BF JUMP JUMPDEST PUSH1 0x40 DUP3 ADD SWAP1 POP SWAP2 SWAP1 POP JUMP JUMPDEST PUSH1 0x0 PUSH1 0x20 DUP3 ADD SWAP1 POP DUP2 DUP2 SUB PUSH1 0x0 DUP4 ADD MSTORE PUSH2 0x154A DUP2 PUSH2 0x150E JUMP JUMPDEST SWAP1 POP SWAP2 SWAP1 POP JUMP JUMPDEST PUSH32 0x53696D706C65566F74696E673A2054686520766F7465722068617320616C7265 PUSH1 0x0 DUP3 ADD MSTORE PUSH32 0x61647920766F7465642E00000000000000000000000000000000000000000000 PUSH1 0x20 DUP3 ADD MSTORE POP JUMP JUMPDEST PUSH1 0x0 PUSH2 0x15AD PUSH1 0x2A DUP4 PUSH2 0x11C0 JUMP JUMPDEST SWAP2 POP PUSH2 0x15B8 DUP3 PUSH2 0x1551 JUMP JUMPDEST PUSH1 0x40 DUP3 ADD SWAP1 POP SWAP2 SWAP1 POP JUMP JUMPDEST PUSH1 0x0 PUSH1 0x20 DUP3 ADD SWAP1 POP DUP2 DUP2 SUB PUSH1 0x0 DUP4 ADD MSTORE PUSH2 0x15DC DUP2 PUSH2 0x15A0 JUMP JUMPDEST SWAP1 POP SWAP2 SWAP1 POP JUMP JUMPDEST PUSH32 0x53696D706C65566F74696E673A204164647265737320646F6573206E6F742068 PUSH1 0x0 DUP3 ADD MSTORE PUSH32 0x61766520726967687420746F20766F74652E0000000000000000000000000000 PUSH1 0x20 DUP3 ADD MSTORE POP JUMP JUMPDEST PUSH1 0x0 PUSH2 0x163F PUSH1 0x32 DUP4 PUSH2 0x11C0 JUMP JUMPDEST SWAP2 POP PUSH2 0x164A DUP3 PUSH2 0x15E3 JUMP JUMPDEST PUSH1 0x40 DUP3 ADD SWAP1 POP SWAP2 SWAP1 POP JUMP JUMPDEST PUSH1 0x0 PUSH1 0x20 DUP3 ADD SWAP1 POP DUP2 DUP2 SUB PUSH1 0x0 DUP4 ADD MSTORE PUSH2 0x166E DUP2 PUSH2 0x1632 JUMP JUMPDEST SWAP1 POP SWAP2 SWAP1 POP JUMP JUMPDEST PUSH32 0x4E487B7100000000000000000000000000000000000000000000000000000000 PUSH1 0x0 MSTORE PUSH1 0x32 PUSH1 0x4 MSTORE PUSH1 0x24 PUSH1 0x0 REVERT JUMPDEST PUSH1 0x0 DUP2 SWAP1 POP SWAP2 SWAP1 POP JUMP JUMPDEST PUSH1 0x0 DUP2 SWAP1 POP SWAP2 SWAP1 POP JUMP JUMPDEST PUSH2 0x16C9 PUSH2 0x16C4 DUP3 PUSH2 0x16A4 JUMP JUMPDEST PUSH2 0x16AE JUMP JUMPDEST DUP3 MSTORE POP POP JUMP JUMPDEST PUSH1 0x0 PUSH2 0x16DB DUP3 DUP5 PUSH2 0x16B8 JUMP JUMPDEST PUSH1 0x20 DUP3 ADD SWAP2 POP DUP2 SWAP1 POP SWAP3 SWAP2 POP POP JUMP JUMPDEST PUSH1 0x0 DUP2 SWAP1 POP SWAP3 SWAP2 POP POP JUMP JUMPDEST PUSH1 0x0 PUSH2 0x1700 DUP3 PUSH2 0x11B5 JUMP JUMPDEST PUSH2 0x170A DUP2 DUP6 PUSH2 0x16EA JUMP JUMPDEST SWAP4 POP PUSH2 0x171A DUP2 DUP6 PUSH1 0x20 DUP7 ADD PUSH2 0x11D1 JUMP JUMPDEST DUP1 DUP5 ADD SWAP2 POP POP SWAP3 SWAP2 POP POP JUMP JUMPDEST PUSH32 0x2C20000000000000000000000000000000000000000000000000000000000000 DUP2 MSTORE POP JUMP JUMPDEST PUSH1 0x0 PUSH2 0x1758 DUP3 DUP6 PUSH2 0x16F5 JUMP JUMPDEST SWAP2 POP PUSH2 0x1763 DUP3 PUSH2 0x1726 JUMP JUMPDEST PUSH1 0x2 DUP3 ADD SWAP2 POP PUSH2 0x1773 DUP3 DUP5 PUSH2 0x16F5 JUMP JUMPDEST SWAP2 POP DUP2 SWAP1 POP SWAP4 SWAP3 POP POP POP JUMP JUMPDEST PUSH32 0x53696D706C65566F74696E673A2053656C662D64656C65676174696F6E206973 PUSH1 0x0 DUP3 ADD MSTORE PUSH32 0x206E6F7420616C6C6F7765642E00000000000000000000000000000000000000 PUSH1 0x20 DUP3 ADD MSTORE POP JUMP JUMPDEST PUSH1 0x0 PUSH2 0x17DB PUSH1 0x2D DUP4 PUSH2 0x11C0 JUMP JUMPDEST SWAP2 POP PUSH2 0x17E6 DUP3 PUSH2 0x177F JUMP JUMPDEST PUSH1 0x40 DUP3 ADD SWAP1 POP SWAP2 SWAP1 POP JUMP JUMPDEST PUSH1 0x0 PUSH1 0x20 DUP3 ADD SWAP1 POP DUP2 DUP2 SUB PUSH1 0x0 DUP4 ADD MSTORE PUSH2 0x180A DUP2 PUSH2 0x17CE JUMP JUMPDEST SWAP1 POP SWAP2 SWAP1 POP JUMP JUMPDEST PUSH32 0x53696D706C65566F74696E673A2044656C65676174696F6E2074726163657320 PUSH1 0x0 DUP3 ADD MSTORE PUSH32 0x6261636B20746F2063616C6C65722E0000000000000000000000000000000000 PUSH1 0x20 DUP3 ADD MSTORE POP JUMP JUMPDEST PUSH1 0x0 PUSH2 0x186D PUSH1 0x2F DUP4 PUSH2 0x11C0 JUMP JUMPDEST SWAP2 POP PUSH2 0x1878 DUP3 PUSH2 0x1811 JUMP JUMPDEST PUSH1 0x40 DUP3 ADD SWAP1 POP SWAP2 SWAP1 POP JUMP JUMPDEST PUSH1 0x0 PUSH1 0x20 DUP3 ADD SWAP1 POP DUP2 DUP2 SUB PUSH1 0x0 DUP4 ADD MSTORE PUSH2 0x189C DUP2 PUSH2 0x1860 JUMP JUMPDEST SWAP1 POP SWAP2 SWAP1 POP JUMP JUMPDEST PUSH32 0x53696D706C65566F74696E673A204F6E6C79206368616972506572736F6E2063 PUSH1 0x0 DUP3 ADD MSTORE PUSH32 0x616E206769766520726967687420746F20766F74652E00000000000000000000 PUSH1 0x20 DUP3 ADD MSTORE POP JUMP JUMPDEST PUSH1 0x0 PUSH2 0x18FF PUSH1 0x36 DUP4 PUSH2 0x11C0 JUMP JUMPDEST SWAP2 POP PUSH2 0x190A DUP3 PUSH2 0x18A3 JUMP JUMPDEST PUSH1 0x40 DUP3 ADD SWAP1 POP SWAP2 SWAP1 POP JUMP JUMPDEST PUSH1 0x0 PUSH1 0x20 DUP3 ADD SWAP1 POP DUP2 DUP2 SUB PUSH1 0x0 DUP4 ADD MSTORE PUSH2 0x192E DUP2 PUSH2 0x18F2 JUMP JUMPDEST SWAP1 POP SWAP2 SWAP1 POP JUMP JUMPDEST PUSH32 0x53696D706C65566F74696E673A204164647265737320616C7265616479206861 PUSH1 0x0 DUP3 ADD MSTORE PUSH32 0x7320726967687420746F20766F74652E00000000000000000000000000000000 PUSH1 0x20 DUP3 ADD MSTORE POP JUMP JUMPDEST PUSH1 0x0 PUSH2 0x1991 PUSH1 0x30 DUP4 PUSH2 0x11C0 JUMP JUMPDEST SWAP2 POP PUSH2 0x199C DUP3 PUSH2 0x1935 JUMP JUMPDEST PUSH1 0x40 DUP3 ADD SWAP1 POP SWAP2 SWAP1 POP JUMP JUMPDEST PUSH1 0x0 PUSH1 0x20 DUP3 ADD SWAP1 POP DUP2 DUP2 SUB PUSH1 0x0 DUP4 ADD MSTORE PUSH2 0x19C0 DUP2 PUSH2 0x1984 JUMP JUMPDEST SWAP1 POP SWAP2 SWAP1 POP JUMP JUMPDEST PUSH32 0x4E487B7100000000000000000000000000000000000000000000000000000000 PUSH1 0x0 MSTORE PUSH1 0x11 PUSH1 0x4 MSTORE PUSH1 0x24 PUSH1 0x0 REVERT JUMPDEST PUSH1 0x0 PUSH2 0x1A01 DUP3 PUSH2 0x1152 JUMP JUMPDEST SWAP2 POP PUSH2 0x1A0C DUP4 PUSH2 0x1152 JUMP JUMPDEST SWAP3 POP DUP3 PUSH32 0xFFFFFFFFFFFFFFFFFFFFFFFFFFFFFFFFFFFFFFFFFFFFFFFFFFFFFFFFFFFFFFFF SUB DUP3 GT ISZERO PUSH2 0x1A41 JUMPI PUSH2 0x1A40 PUSH2 0x19C7 JUMP JUMPDEST JUMPDEST DUP3 DUP3 ADD SWAP1 POP SWAP3 SWAP2 POP POP JUMP INVALID LOG2 PUSH5 0x6970667358 0x22 SLT KECCAK256 0xEA 0xDA 0x2F 0x2D 0xBE 0xB6 0xC4 PUSH4 0xBBAA942 SELFBALANCE PUSH24 0xEA3382654DB29C215C3F654D29190AFD448D64736F6C6343 STOP ADDMOD 0xD STOP CALLER "
				},
				"gasEstimates": {
					"creation": {
						"codeDepositCost": "1357200",
						"executionCost": "infinite",
						"totalCost": "infinite"
					},
					"external": {
						"chairPerson()": "2580",
						"computeWinningProposals()": "infinite",
						"delegate(address)": "infinite",
						"getProposal(uint256)": "infinite",
						"getWinningProposals()": "infinite",
						"giveRightToVote(address)": "29346",
						"proposalCount()": "2517",
						"transferChairpersonship(address)": "29240",
						"vote(uint256)": "infinite",
						"voters(address)": "infinite",
						"winnerNames()": "infinite"
					},
					"internal": {
						"bytes32ToString(bytes32)": "infinite",
						"stringToBytes32(string memory)": "infinite"
					}
				},
				"methodIdentifiers": {
					"chairPerson()": "d4d4b5ac",
					"computeWinningProposals()": "5f07b961",
					"delegate(address)": "5c19a95c",
					"getProposal(uint256)": "c7f758a8",
					"getWinningProposals()": "ef788cd5",
					"giveRightToVote(address)": "9e7b8d61",
					"proposalCount()": "da35c664",
					"transferChairpersonship(address)": "6d0fc3d7",
					"vote(uint256)": "0121b93f",
					"voters(address)": "a3ec138d",
					"winnerNames()": "28be18ee"
				}
			},
			"storageLayout": {
				"storage": [
					{
						"astId": 25,
						"contract": "contracts/SimpleVoting.sol:SimpleVoting",
						"label": "proposalCount",
						"offset": 0,
						"slot": "0",
						"type": "t_uint256"
					},
					{
						"astId": 27,
						"contract": "contracts/SimpleVoting.sol:SimpleVoting",
						"label": "chairPerson",
						"offset": 0,
						"slot": "1",
						"type": "t_address"
					},
					{
						"astId": 32,
						"contract": "contracts/SimpleVoting.sol:SimpleVoting",
						"label": "voters",
						"offset": 0,
						"slot": "2",
						"type": "t_mapping(t_address,t_struct(Voter)18_storage)"
					},
					{
						"astId": 36,
						"contract": "contracts/SimpleVoting.sol:SimpleVoting",
						"label": "proposals",
						"offset": 0,
						"slot": "3",
						"type": "t_array(t_struct(Proposal)23_storage)dyn_storage"
					},
					{
						"astId": 39,
						"contract": "contracts/SimpleVoting.sol:SimpleVoting",
						"label": "winningProposals",
						"offset": 0,
						"slot": "4",
						"type": "t_array(t_uint256)dyn_storage"
					}
				],
				"types": {
					"t_address": {
						"encoding": "inplace",
						"label": "address",
						"numberOfBytes": "20"
					},
					"t_array(t_struct(Proposal)23_storage)dyn_storage": {
						"base": "t_struct(Proposal)23_storage",
						"encoding": "dynamic_array",
						"label": "struct SimpleVoting.Proposal[]",
						"numberOfBytes": "32"
					},
					"t_array(t_uint256)dyn_storage": {
						"base": "t_uint256",
						"encoding": "dynamic_array",
						"label": "uint256[]",
						"numberOfBytes": "32"
					},
					"t_bool": {
						"encoding": "inplace",
						"label": "bool",
						"numberOfBytes": "1"
					},
					"t_bytes32": {
						"encoding": "inplace",
						"label": "bytes32",
						"numberOfBytes": "32"
					},
					"t_mapping(t_address,t_struct(Voter)18_storage)": {
						"encoding": "mapping",
						"key": "t_address",
						"label": "mapping(address => struct SimpleVoting.Voter)",
						"numberOfBytes": "32",
						"value": "t_struct(Voter)18_storage"
					},
					"t_struct(Proposal)23_storage": {
						"encoding": "inplace",
						"label": "struct SimpleVoting.Proposal",
						"members": [
							{
								"astId": 20,
								"contract": "contracts/SimpleVoting.sol:SimpleVoting",
								"label": "name",
								"offset": 0,
								"slot": "0",
								"type": "t_bytes32"
							},
							{
								"astId": 22,
								"contract": "contracts/SimpleVoting.sol:SimpleVoting",
								"label": "voteCount",
								"offset": 0,
								"slot": "1",
								"type": "t_uint256"
							}
						],
						"numberOfBytes": "64"
					},
					"t_struct(Voter)18_storage": {
						"encoding": "inplace",
						"label": "struct SimpleVoting.Voter",
						"members": [
							{
								"astId": 11,
								"contract": "contracts/SimpleVoting.sol:SimpleVoting",
								"label": "weight",
								"offset": 0,
								"slot": "0",
								"type": "t_uint256"
							},
							{
								"astId": 13,
								"contract": "contracts/SimpleVoting.sol:SimpleVoting",
								"label": "voted",
								"offset": 0,
								"slot": "1",
								"type": "t_bool"
							},
							{
								"astId": 15,
								"contract": "contracts/SimpleVoting.sol:SimpleVoting",
								"label": "delegate",
								"offset": 1,
								"slot": "1",
								"type": "t_address"
							},
							{
								"astId": 17,
								"contract": "contracts/SimpleVoting.sol:SimpleVoting",
								"label": "vote",
								"offset": 0,
								"slot": "2",
								"type": "t_uint256"
							}
						],
						"numberOfBytes": "96"
					},
					"t_uint256": {
						"encoding": "inplace",
						"label": "uint256",
						"numberOfBytes": "32"
					}
				}
			},
			"userdoc": {
				"kind": "user",
				"methods": {},
				"version": 1
			}
		}
	}
}