{
	"data": {
		"bytecode": {
			"linkReferences": {},
			"object": "60806040523480156200001157600080fd5b50604051620020cb380380620020cb83398181016040528101906200003791906200050a565b620000476200021b60201b60201c565b600160006101000a81548173ffffffffffffffffffffffffffffffffffffffff021916908373ffffffffffffffffffffffffffffffffffffffff160217905550600160026000600160009054906101000a900473ffffffffffffffffffffffffffffffffffffffff1673ffffffffffffffffffffffffffffffffffffffff1673ffffffffffffffffffffffffffffffffffffffff16815260200190815260200160002060000181905550805160008190555060005b600054811015620001b45760006040518060400160405280620001428585815181106200012e576200012d6200055b565b5b60200260200101516200022360201b60201c565b81526020016000815250905060038190806001815401808255809150506001900390600052602060002090600202016000909190919091506000820151816000015560208201518160010155505050620001ac6001826200025960201b62000f3f1790919060201c565b9050620000fc565b507ff318b16025413645144ed83c64d2d30f089c10bc263cab68a036c00f011827be600160009054906101000a900473ffffffffffffffffffffffffffffffffffffffff166000546040516200020c929190620005ea565b60405180910390a150620007c2565b600033905090565b60008160405160200162000238919062000664565b6040516020818303038152906040526200025290620006c6565b9050919050565b6000818362000269919062000765565b905092915050565b6000604051905090565b600080fd5b600080fd5b600080fd5b6000601f19601f8301169050919050565b7f4e487b7100000000000000000000000000000000000000000000000000000000600052604160045260246000fd5b620002d5826200028a565b810181811067ffffffffffffffff82111715620002f757620002f66200029b565b5b80604052505050565b60006200030c62000271565b90506200031a8282620002ca565b919050565b600067ffffffffffffffff8211156200033d576200033c6200029b565b5b602082029050602081019050919050565b600080fd5b600080fd5b600067ffffffffffffffff8211156200037657620003756200029b565b5b62000381826200028a565b9050602081019050919050565b60005b83811015620003ae57808201518184015260208101905062000391565b83811115620003be576000848401525b50505050565b6000620003db620003d58462000358565b62000300565b905082815260208101848484011115620003fa57620003f962000353565b5b620004078482856200038e565b509392505050565b600082601f83011262000427576200042662000285565b5b815162000439848260208601620003c4565b91505092915050565b60006200045962000453846200031f565b62000300565b905080838252602082019050602084028301858111156200047f576200047e6200034e565b5b835b81811015620004cd57805167ffffffffffffffff811115620004a857620004a762000285565b5b808601620004b789826200040f565b8552602085019450505060208101905062000481565b5050509392505050565b600082601f830112620004ef57620004ee62000285565b5b81516200050184826020860162000442565b91505092915050565b6000602082840312156200052357620005226200027b565b5b600082015167ffffffffffffffff81111562000544576200054362000280565b5b6200055284828501620004d7565b91505092915050565b7f4e487b7100000000000000000000000000000000000000000000000000000000600052603260045260246000fd5b600073ffffffffffffffffffffffffffffffffffffffff82169050919050565b6000620005b7826200058a565b9050919050565b620005c981620005aa565b82525050565b6000819050919050565b620005e481620005cf565b82525050565b6000604082019050620006016000830185620005be565b620006106020830184620005d9565b9392505050565b600081519050919050565b600081905092915050565b60006200063a8262000617565b62000646818562000622565b9350620006588185602086016200038e565b80840191505092915050565b60006200067282846200062d565b915081905092915050565b600081519050919050565b6000819050602082019050919050565b6000819050919050565b6000620006b0825162000698565b80915050919050565b600082821b905092915050565b6000620006d3826200067d565b82620006df8462000688565b9050620006ec81620006a2565b925060208210156200072f576200072a7fffffffffffffffffffffffffffffffffffffffffffffffffffffffffffffffff83602003600802620006b9565b831692505b5050919050565b7f4e487b7100000000000000000000000000000000000000000000000000000000600052601160045260246000fd5b60006200077282620005cf565b91506200077f83620005cf565b9250827fffffffffffffffffffffffffffffffffffffffffffffffffffffffffffffffff03821115620007b757620007b662000736565b5b828201905092915050565b6118f980620007d26000396000f3fe608060405234801561001057600080fd5b506004361061009e5760003560e01c8063a3ec138d11610066578063a3ec138d1461011f578063c7f758a814610152578063d4d4b5ac14610183578063da35c664146101a1578063ef788cd5146101bf5761009e565b80630121b93f146100a357806328be18ee146100bf5780635c19a95c146100dd5780635f07b961146100f95780639e7b8d6114610103575b600080fd5b6100bd60048036038101906100b89190610fff565b6101dd565b005b6100c761047d565b6040516100d491906110c5565b60405180910390f35b6100f760048036038101906100f29190611145565b610534565b005b610101610a46565b005b61011d60048036038101906101189190611145565b610bba565b005b61013960048036038101906101349190611145565b610db3565b60405161014994939291906111ab565b60405180910390f35b61016c60048036038101906101679190610fff565b610e10565b60405161017a9291906111f0565b60405180910390f35b61018b610ebb565b6040516101989190611220565b60405180910390f35b6101a9610ee1565b6040516101b6919061123b565b60405180910390f35b6101c7610ee7565b6040516101d49190611314565b60405180910390f35b806000548110610222576040517f08c379a0000000000000000000000000000000000000000000000000000000008152600401610219906113a8565b60405180910390fd5b61022a610f55565b600260008273ffffffffffffffffffffffffffffffffffffffff1673ffffffffffffffffffffffffffffffffffffffff16815260200190815260200160002060010160009054906101000a900460ff16156102ba576040517f08c379a00000000000000000000000000000000000000000000000000000000081526004016102b19061143a565b60405180910390fd5b6102c2610f55565b6000600260008373ffffffffffffffffffffffffffffffffffffffff1673ffffffffffffffffffffffffffffffffffffffff1681526020019081526020016000206000015411610347576040517f08c379a000000000000000000000000000000000000000000000000000000000815260040161033e906114cc565b60405180910390fd5b600060026000610355610f55565b73ffffffffffffffffffffffffffffffffffffffff1673ffffffffffffffffffffffffffffffffffffffff168152602001908152602001600020905060018160010160006101000a81548160ff0219169083151502179055508481600201819055506103f38160000154600387815481106103d3576103d26114ec565b5b906000526020600020906002020160010154610f3f90919063ffffffff16565b60038681548110610407576104066114ec565b5b906000526020600020906002020160010181905550610424610f55565b73ffffffffffffffffffffffffffffffffffffffff16857fe7ee74ca1f4bb1b82b14f87794c45b3e59c39e372b862fb97a6316b43355b69e836000015460405161046e919061123b565b60405180910390a35050505050565b606060005b60048054905081101561053057816003600483815481106104a6576104a56114ec565b5b9060005260206000200154815481106104c2576104c16114ec565b5b9060005260206000209060020201600001546040516020016104e49190611546565b6040516020818303038152906040526040516020016105049291906115c3565b6040516020818303038152906040529150610529600182610f3f90919063ffffffff16565b9050610482565b5090565b61053c610f55565b600260008273ffffffffffffffffffffffffffffffffffffffff1673ffffffffffffffffffffffffffffffffffffffff16815260200190815260200160002060010160009054906101000a900460ff16156105cc576040517f08c379a00000000000000000000000000000000000000000000000000000000081526004016105c39061143a565b60405180910390fd5b6105d4610f55565b6000600260008373ffffffffffffffffffffffffffffffffffffffff1673ffffffffffffffffffffffffffffffffffffffff1681526020019081526020016000206000015411610659576040517f08c379a0000000000000000000000000000000000000000000000000000000008152600401610650906114cc565b60405180910390fd5b600060026000610667610f55565b73ffffffffffffffffffffffffffffffffffffffff1673ffffffffffffffffffffffffffffffffffffffff16815260200190815260200160002090506106ab610f55565b73ffffffffffffffffffffffffffffffffffffffff168473ffffffffffffffffffffffffffffffffffffffff1603610718576040517f08c379a000000000000000000000000000000000000000000000000000000000815260040161070f90611668565b60405180910390fd5b5b600073ffffffffffffffffffffffffffffffffffffffff16600260008673ffffffffffffffffffffffffffffffffffffffff1673ffffffffffffffffffffffffffffffffffffffff16815260200190815260200160002060010160019054906101000a900473ffffffffffffffffffffffffffffffffffffffff1673ffffffffffffffffffffffffffffffffffffffff161461088e57600260008573ffffffffffffffffffffffffffffffffffffffff1673ffffffffffffffffffffffffffffffffffffffff16815260200190815260200160002060010160019054906101000a900473ffffffffffffffffffffffffffffffffffffffff16935061081c610f55565b73ffffffffffffffffffffffffffffffffffffffff168473ffffffffffffffffffffffffffffffffffffffff1603610889576040517f08c379a0000000000000000000000000000000000000000000000000000000008152600401610880906116fa565b60405180910390fd5b610719565b60018160010160006101000a81548160ff021916908315150217905550838160010160016101000a81548173ffffffffffffffffffffffffffffffffffffffff021916908373ffffffffffffffffffffffffffffffffffffffff1602179055506000600260008673ffffffffffffffffffffffffffffffffffffffff1673ffffffffffffffffffffffffffffffffffffffff16815260200190815260200160002090508060010160009054906101000a900460ff16156109ba5761098882600001546003836002015481548110610968576109676114ec565b5b906000526020600020906002020160010154610f3f90919063ffffffff16565b60038260020154815481106109a05761099f6114ec565b5b9060005260206000209060020201600101819055506109de565b6109d582600001548260000154610f3f90919063ffffffff16565b81600001819055505b8473ffffffffffffffffffffffffffffffffffffffff166109fd610f55565b73ffffffffffffffffffffffffffffffffffffffff167f4ce9ef2c99d761d69230b0e3381f4c6016333b2e27d32b3e379a96b5d2c6923260405160405180910390a35050505050565b60008060046000610a579190610f86565b60005b600380549050811015610b01578260038281548110610a7c57610a7b6114ec565b5b9060005260206000209060020201600101541115610ae65760038181548110610aa857610aa76114ec565b5b906000526020600020906002020160010154925060048190806001815401808255809150506001900390600052602060002001600090919091909150555b610afa600182610f3f90919063ffffffff16565b9050610a5a565b5060005b600380549050811015610bb55760038281548110610b2657610b256114ec565b5b90600052602060002090600202016001015460038281548110610b4c57610b4b6114ec565b5b906000526020600020906002020160010154148015610b6b5750818114155b15610b9a5760048190806001815401808255809150506001900390600052602060002001600090919091909150555b610bae600182610f3f90919063ffffffff16565b9050610b05565b505050565b600160009054906101000a900473ffffffffffffffffffffffffffffffffffffffff1673ffffffffffffffffffffffffffffffffffffffff16610bfb610f55565b73ffffffffffffffffffffffffffffffffffffffff1614610c51576040517f08c379a0000000000000000000000000000000000000000000000000000000008152600401610c489061178c565b60405180910390fd5b80600260008273ffffffffffffffffffffffffffffffffffffffff1673ffffffffffffffffffffffffffffffffffffffff16815260200190815260200160002060010160009054906101000a900460ff1615610ce2576040517f08c379a0000000000000000000000000000000000000000000000000000000008152600401610cd99061143a565b60405180910390fd5b6000600260008473ffffffffffffffffffffffffffffffffffffffff1673ffffffffffffffffffffffffffffffffffffffff1681526020019081526020016000206000015414610d67576040517f08c379a0000000000000000000000000000000000000000000000000000000008152600401610d5e9061181e565b60405180910390fd5b6001600260008473ffffffffffffffffffffffffffffffffffffffff1673ffffffffffffffffffffffffffffffffffffffff168152602001908152602001600020600001819055505050565b60026020528060005260406000206000915090508060000154908060010160009054906101000a900460ff16908060010160019054906101000a900473ffffffffffffffffffffffffffffffffffffffff16908060020154905084565b60606000826000548110610e59576040517f08c379a0000000000000000000000000000000000000000000000000000000008152600401610e50906113a8565b60405180910390fd5b610e8760038581548110610e7057610e6f6114ec565b5b906000526020600020906002020160000154610f5d565b60038581548110610e9b57610e9a6114ec565b5b906000526020600020906002020160010154809350819450505050915091565b600160009054906101000a900473ffffffffffffffffffffffffffffffffffffffff1681565b60005481565b60606004805480602002602001604051908101604052809291908181526020018280548015610f3557602002820191906000526020600020905b815481526020019060010190808311610f21575b5050505050905090565b60008183610f4d919061186d565b905092915050565b600033905090565b606081604051602001610f709190611546565b6040516020818303038152906040529050919050565b5080546000825590600052602060002090810190610fa49190610fa7565b50565b5b80821115610fc0576000816000905550600101610fa8565b5090565b600080fd5b6000819050919050565b610fdc81610fc9565b8114610fe757600080fd5b50565b600081359050610ff981610fd3565b92915050565b60006020828403121561101557611014610fc4565b5b600061102384828501610fea565b91505092915050565b600081519050919050565b600082825260208201905092915050565b60005b8381101561106657808201518184015260208101905061104b565b83811115611075576000848401525b50505050565b6000601f19601f8301169050919050565b60006110978261102c565b6110a18185611037565b93506110b1818560208601611048565b6110ba8161107b565b840191505092915050565b600060208201905081810360008301526110df818461108c565b905092915050565b600073ffffffffffffffffffffffffffffffffffffffff82169050919050565b6000611112826110e7565b9050919050565b61112281611107565b811461112d57600080fd5b50565b60008135905061113f81611119565b92915050565b60006020828403121561115b5761115a610fc4565b5b600061116984828501611130565b91505092915050565b61117b81610fc9565b82525050565b60008115159050919050565b61119681611181565b82525050565b6111a581611107565b82525050565b60006080820190506111c06000830187611172565b6111cd602083018661118d565b6111da604083018561119c565b6111e76060830184611172565b95945050505050565b6000604082019050818103600083015261120a818561108c565b90506112196020830184611172565b9392505050565b6000602082019050611235600083018461119c565b92915050565b60006020820190506112506000830184611172565b92915050565b600081519050919050565b600082825260208201905092915050565b6000819050602082019050919050565b61128b81610fc9565b82525050565b600061129d8383611282565b60208301905092915050565b6000602082019050919050565b60006112c182611256565b6112cb8185611261565b93506112d683611272565b8060005b838110156113075781516112ee8882611291565b97506112f9836112a9565b9250506001810190506112da565b5085935050505092915050565b6000602082019050818103600083015261132e81846112b6565b905092915050565b7f53696d706c65566f74696e673a2050726f706f73616c20696e646578206f757460008201527f206f6620626f756e64732e000000000000000000000000000000000000000000602082015250565b6000611392602b83611037565b915061139d82611336565b604082019050919050565b600060208201905081810360008301526113c181611385565b9050919050565b7f53696d706c65566f74696e673a2054686520766f7465722068617320616c726560008201527f61647920766f7465642e00000000000000000000000000000000000000000000602082015250565b6000611424602a83611037565b915061142f826113c8565b604082019050919050565b6000602082019050818103600083015261145381611417565b9050919050565b7f53696d706c65566f74696e673a2043616c6c657220646f6573206e6f7420686160008201527f766520726967687420746f20766f74652e000000000000000000000000000000602082015250565b60006114b6603183611037565b91506114c18261145a565b604082019050919050565b600060208201905081810360008301526114e5816114a9565b9050919050565b7f4e487b7100000000000000000000000000000000000000000000000000000000600052603260045260246000fd5b6000819050919050565b6000819050919050565b61154061153b8261151b565b611525565b82525050565b6000611552828461152f565b60208201915081905092915050565b600081905092915050565b60006115778261102c565b6115818185611561565b9350611591818560208601611048565b80840191505092915050565b7f2c20000000000000000000000000000000000000000000000000000000000000815250565b60006115cf828561156c565b91506115da8261159d565b6002820191506115ea828461156c565b91508190509392505050565b7f53696d706c65566f74696e673a2053656c662d64656c65676174696f6e20697360008201527f206e6f7420616c6c6f7765642e00000000000000000000000000000000000000602082015250565b6000611652602d83611037565b915061165d826115f6565b604082019050919050565b6000602082019050818103600083015261168181611645565b9050919050565b7f53696d706c65566f74696e673a2044656c65676174696f6e207472616365732060008201527f6261636b20746f2063616c6c65722e0000000000000000000000000000000000602082015250565b60006116e4602f83611037565b91506116ef82611688565b604082019050919050565b60006020820190508181036000830152611713816116d7565b9050919050565b7f53696d706c65566f74696e673a204f6e6c79206368616972506572736f6e206360008201527f616e206769766520726967687420746f20766f74652e00000000000000000000602082015250565b6000611776603683611037565b91506117818261171a565b604082019050919050565b600060208201905081810360008301526117a581611769565b9050919050565b7f53696d706c65566f74696e673a204164647265737320616c726561647920686160008201527f7320726967687420746f20766f74652e00000000000000000000000000000000602082015250565b6000611808603083611037565b9150611813826117ac565b604082019050919050565b60006020820190508181036000830152611837816117fb565b9050919050565b7f4e487b7100000000000000000000000000000000000000000000000000000000600052601160045260246000fd5b600061187882610fc9565b915061188383610fc9565b9250827fffffffffffffffffffffffffffffffffffffffffffffffffffffffffffffffff038211156118b8576118b761183e565b5b82820190509291505056fea26469706673582212209de643a7d68e335390bb44a3911e3e9f85822ea7a2a3c6938d0924a6e997cf0c64736f6c634300080d0033",
			"opcodes": "PUSH1 0x80 PUSH1 0x40 MSTORE CALLVALUE DUP1 ISZERO PUSH3 0x11 JUMPI PUSH1 0x0 DUP1 REVERT JUMPDEST POP PUSH1 0x40 MLOAD PUSH3 0x20CB CODESIZE SUB DUP1 PUSH3 0x20CB DUP4 CODECOPY DUP2 DUP2 ADD PUSH1 0x40 MSTORE DUP2 ADD SWAP1 PUSH3 0x37 SWAP2 SWAP1 PUSH3 0x50A JUMP JUMPDEST PUSH3 0x47 PUSH3 0x21B PUSH1 0x20 SHL PUSH1 0x20 SHR JUMP JUMPDEST PUSH1 0x1 PUSH1 0x0 PUSH2 0x100 EXP DUP2 SLOAD DUP2 PUSH20 0xFFFFFFFFFFFFFFFFFFFFFFFFFFFFFFFFFFFFFFFF MUL NOT AND SWAP1 DUP4 PUSH20 0xFFFFFFFFFFFFFFFFFFFFFFFFFFFFFFFFFFFFFFFF AND MUL OR SWAP1 SSTORE POP PUSH1 0x1 PUSH1 0x2 PUSH1 0x0 PUSH1 0x1 PUSH1 0x0 SWAP1 SLOAD SWAP1 PUSH2 0x100 EXP SWAP1 DIV PUSH20 0xFFFFFFFFFFFFFFFFFFFFFFFFFFFFFFFFFFFFFFFF AND PUSH20 0xFFFFFFFFFFFFFFFFFFFFFFFFFFFFFFFFFFFFFFFF AND PUSH20 0xFFFFFFFFFFFFFFFFFFFFFFFFFFFFFFFFFFFFFFFF AND DUP2 MSTORE PUSH1 0x20 ADD SWAP1 DUP2 MSTORE PUSH1 0x20 ADD PUSH1 0x0 KECCAK256 PUSH1 0x0 ADD DUP2 SWAP1 SSTORE POP DUP1 MLOAD PUSH1 0x0 DUP2 SWAP1 SSTORE POP PUSH1 0x0 JUMPDEST PUSH1 0x0 SLOAD DUP2 LT ISZERO PUSH3 0x1B4 JUMPI PUSH1 0x0 PUSH1 0x40 MLOAD DUP1 PUSH1 0x40 ADD PUSH1 0x40 MSTORE DUP1 PUSH3 0x142 DUP6 DUP6 DUP2 MLOAD DUP2 LT PUSH3 0x12E JUMPI PUSH3 0x12D PUSH3 0x55B JUMP JUMPDEST JUMPDEST PUSH1 0x20 MUL PUSH1 0x20 ADD ADD MLOAD PUSH3 0x223 PUSH1 0x20 SHL PUSH1 0x20 SHR JUMP JUMPDEST DUP2 MSTORE PUSH1 0x20 ADD PUSH1 0x0 DUP2 MSTORE POP SWAP1 POP PUSH1 0x3 DUP2 SWAP1 DUP1 PUSH1 0x1 DUP2 SLOAD ADD DUP1 DUP3 SSTORE DUP1 SWAP2 POP POP PUSH1 0x1 SWAP1 SUB SWAP1 PUSH1 0x0 MSTORE PUSH1 0x20 PUSH1 0x0 KECCAK256 SWAP1 PUSH1 0x2 MUL ADD PUSH1 0x0 SWAP1 SWAP2 SWAP1 SWAP2 SWAP1 SWAP2 POP PUSH1 0x0 DUP3 ADD MLOAD DUP2 PUSH1 0x0 ADD SSTORE PUSH1 0x20 DUP3 ADD MLOAD DUP2 PUSH1 0x1 ADD SSTORE POP POP POP PUSH3 0x1AC PUSH1 0x1 DUP3 PUSH3 0x259 PUSH1 0x20 SHL PUSH3 0xF3F OR SWAP1 SWAP2 SWAP1 PUSH1 0x20 SHR JUMP JUMPDEST SWAP1 POP PUSH3 0xFC JUMP JUMPDEST POP PUSH32 0xF318B16025413645144ED83C64D2D30F089C10BC263CAB68A036C00F011827BE PUSH1 0x1 PUSH1 0x0 SWAP1 SLOAD SWAP1 PUSH2 0x100 EXP SWAP1 DIV PUSH20 0xFFFFFFFFFFFFFFFFFFFFFFFFFFFFFFFFFFFFFFFF AND PUSH1 0x0 SLOAD PUSH1 0x40 MLOAD PUSH3 0x20C SWAP3 SWAP2 SWAP1 PUSH3 0x5EA JUMP JUMPDEST PUSH1 0x40 MLOAD DUP1 SWAP2 SUB SWAP1 LOG1 POP PUSH3 0x7C2 JUMP JUMPDEST PUSH1 0x0 CALLER SWAP1 POP SWAP1 JUMP JUMPDEST PUSH1 0x0 DUP2 PUSH1 0x40 MLOAD PUSH1 0x20 ADD PUSH3 0x238 SWAP2 SWAP1 PUSH3 0x664 JUMP JUMPDEST PUSH1 0x40 MLOAD PUSH1 0x20 DUP2 DUP4 SUB SUB DUP2 MSTORE SWAP1 PUSH1 0x40 MSTORE PUSH3 0x252 SWAP1 PUSH3 0x6C6 JUMP JUMPDEST SWAP1 POP SWAP2 SWAP1 POP JUMP JUMPDEST PUSH1 0x0 DUP2 DUP4 PUSH3 0x269 SWAP2 SWAP1 PUSH3 0x765 JUMP JUMPDEST SWAP1 POP SWAP3 SWAP2 POP POP JUMP JUMPDEST PUSH1 0x0 PUSH1 0x40 MLOAD SWAP1 POP SWAP1 JUMP JUMPDEST PUSH1 0x0 DUP1 REVERT JUMPDEST PUSH1 0x0 DUP1 REVERT JUMPDEST PUSH1 0x0 DUP1 REVERT JUMPDEST PUSH1 0x0 PUSH1 0x1F NOT PUSH1 0x1F DUP4 ADD AND SWAP1 POP SWAP2 SWAP1 POP JUMP JUMPDEST PUSH32 0x4E487B7100000000000000000000000000000000000000000000000000000000 PUSH1 0x0 MSTORE PUSH1 0x41 PUSH1 0x4 MSTORE PUSH1 0x24 PUSH1 0x0 REVERT JUMPDEST PUSH3 0x2D5 DUP3 PUSH3 0x28A JUMP JUMPDEST DUP2 ADD DUP2 DUP2 LT PUSH8 0xFFFFFFFFFFFFFFFF DUP3 GT OR ISZERO PUSH3 0x2F7 JUMPI PUSH3 0x2F6 PUSH3 0x29B JUMP JUMPDEST JUMPDEST DUP1 PUSH1 0x40 MSTORE POP POP POP JUMP JUMPDEST PUSH1 0x0 PUSH3 0x30C PUSH3 0x271 JUMP JUMPDEST SWAP1 POP PUSH3 0x31A DUP3 DUP3 PUSH3 0x2CA JUMP JUMPDEST SWAP2 SWAP1 POP JUMP JUMPDEST PUSH1 0x0 PUSH8 0xFFFFFFFFFFFFFFFF DUP3 GT ISZERO PUSH3 0x33D JUMPI PUSH3 0x33C PUSH3 0x29B JUMP JUMPDEST JUMPDEST PUSH1 0x20 DUP3 MUL SWAP1 POP PUSH1 0x20 DUP2 ADD SWAP1 POP SWAP2 SWAP1 POP JUMP JUMPDEST PUSH1 0x0 DUP1 REVERT JUMPDEST PUSH1 0x0 DUP1 REVERT JUMPDEST PUSH1 0x0 PUSH8 0xFFFFFFFFFFFFFFFF DUP3 GT ISZERO PUSH3 0x376 JUMPI PUSH3 0x375 PUSH3 0x29B JUMP JUMPDEST JUMPDEST PUSH3 0x381 DUP3 PUSH3 0x28A JUMP JUMPDEST SWAP1 POP PUSH1 0x20 DUP2 ADD SWAP1 POP SWAP2 SWAP1 POP JUMP JUMPDEST PUSH1 0x0 JUMPDEST DUP4 DUP2 LT ISZERO PUSH3 0x3AE JUMPI DUP1 DUP3 ADD MLOAD DUP2 DUP5 ADD MSTORE PUSH1 0x20 DUP2 ADD SWAP1 POP PUSH3 0x391 JUMP JUMPDEST DUP4 DUP2 GT ISZERO PUSH3 0x3BE JUMPI PUSH1 0x0 DUP5 DUP5 ADD MSTORE JUMPDEST POP POP POP POP JUMP JUMPDEST PUSH1 0x0 PUSH3 0x3DB PUSH3 0x3D5 DUP5 PUSH3 0x358 JUMP JUMPDEST PUSH3 0x300 JUMP JUMPDEST SWAP1 POP DUP3 DUP2 MSTORE PUSH1 0x20 DUP2 ADD DUP5 DUP5 DUP5 ADD GT ISZERO PUSH3 0x3FA JUMPI PUSH3 0x3F9 PUSH3 0x353 JUMP JUMPDEST JUMPDEST PUSH3 0x407 DUP5 DUP3 DUP6 PUSH3 0x38E JUMP JUMPDEST POP SWAP4 SWAP3 POP POP POP JUMP JUMPDEST PUSH1 0x0 DUP3 PUSH1 0x1F DUP4 ADD SLT PUSH3 0x427 JUMPI PUSH3 0x426 PUSH3 0x285 JUMP JUMPDEST JUMPDEST DUP2 MLOAD PUSH3 0x439 DUP5 DUP3 PUSH1 0x20 DUP7 ADD PUSH3 0x3C4 JUMP JUMPDEST SWAP2 POP POP SWAP3 SWAP2 POP POP JUMP JUMPDEST PUSH1 0x0 PUSH3 0x459 PUSH3 0x453 DUP5 PUSH3 0x31F JUMP JUMPDEST PUSH3 0x300 JUMP JUMPDEST SWAP1 POP DUP1 DUP4 DUP3 MSTORE PUSH1 0x20 DUP3 ADD SWAP1 POP PUSH1 0x20 DUP5 MUL DUP4 ADD DUP6 DUP2 GT ISZERO PUSH3 0x47F JUMPI PUSH3 0x47E PUSH3 0x34E JUMP JUMPDEST JUMPDEST DUP4 JUMPDEST DUP2 DUP2 LT ISZERO PUSH3 0x4CD JUMPI DUP1 MLOAD PUSH8 0xFFFFFFFFFFFFFFFF DUP2 GT ISZERO PUSH3 0x4A8 JUMPI PUSH3 0x4A7 PUSH3 0x285 JUMP JUMPDEST JUMPDEST DUP1 DUP7 ADD PUSH3 0x4B7 DUP10 DUP3 PUSH3 0x40F JUMP JUMPDEST DUP6 MSTORE PUSH1 0x20 DUP6 ADD SWAP5 POP POP POP PUSH1 0x20 DUP2 ADD SWAP1 POP PUSH3 0x481 JUMP JUMPDEST POP POP POP SWAP4 SWAP3 POP POP POP JUMP JUMPDEST PUSH1 0x0 DUP3 PUSH1 0x1F DUP4 ADD SLT PUSH3 0x4EF JUMPI PUSH3 0x4EE PUSH3 0x285 JUMP JUMPDEST JUMPDEST DUP2 MLOAD PUSH3 0x501 DUP5 DUP3 PUSH1 0x20 DUP7 ADD PUSH3 0x442 JUMP JUMPDEST SWAP2 POP POP SWAP3 SWAP2 POP POP JUMP JUMPDEST PUSH1 0x0 PUSH1 0x20 DUP3 DUP5 SUB SLT ISZERO PUSH3 0x523 JUMPI PUSH3 0x522 PUSH3 0x27B JUMP JUMPDEST JUMPDEST PUSH1 0x0 DUP3 ADD MLOAD PUSH8 0xFFFFFFFFFFFFFFFF DUP2 GT ISZERO PUSH3 0x544 JUMPI PUSH3 0x543 PUSH3 0x280 JUMP JUMPDEST JUMPDEST PUSH3 0x552 DUP5 DUP3 DUP6 ADD PUSH3 0x4D7 JUMP JUMPDEST SWAP2 POP POP SWAP3 SWAP2 POP POP JUMP JUMPDEST PUSH32 0x4E487B7100000000000000000000000000000000000000000000000000000000 PUSH1 0x0 MSTORE PUSH1 0x32 PUSH1 0x4 MSTORE PUSH1 0x24 PUSH1 0x0 REVERT JUMPDEST PUSH1 0x0 PUSH20 0xFFFFFFFFFFFFFFFFFFFFFFFFFFFFFFFFFFFFFFFF DUP3 AND SWAP1 POP SWAP2 SWAP1 POP JUMP JUMPDEST PUSH1 0x0 PUSH3 0x5B7 DUP3 PUSH3 0x58A JUMP JUMPDEST SWAP1 POP SWAP2 SWAP1 POP JUMP JUMPDEST PUSH3 0x5C9 DUP2 PUSH3 0x5AA JUMP JUMPDEST DUP3 MSTORE POP POP JUMP JUMPDEST PUSH1 0x0 DUP2 SWAP1 POP SWAP2 SWAP1 POP JUMP JUMPDEST PUSH3 0x5E4 DUP2 PUSH3 0x5CF JUMP JUMPDEST DUP3 MSTORE POP POP JUMP JUMPDEST PUSH1 0x0 PUSH1 0x40 DUP3 ADD SWAP1 POP PUSH3 0x601 PUSH1 0x0 DUP4 ADD DUP6 PUSH3 0x5BE JUMP JUMPDEST PUSH3 0x610 PUSH1 0x20 DUP4 ADD DUP5 PUSH3 0x5D9 JUMP JUMPDEST SWAP4 SWAP3 POP POP POP JUMP JUMPDEST PUSH1 0x0 DUP2 MLOAD SWAP1 POP SWAP2 SWAP1 POP JUMP JUMPDEST PUSH1 0x0 DUP2 SWAP1 POP SWAP3 SWAP2 POP POP JUMP JUMPDEST PUSH1 0x0 PUSH3 0x63A DUP3 PUSH3 0x617 JUMP JUMPDEST PUSH3 0x646 DUP2 DUP6 PUSH3 0x622 JUMP JUMPDEST SWAP4 POP PUSH3 0x658 DUP2 DUP6 PUSH1 0x20 DUP7 ADD PUSH3 0x38E JUMP JUMPDEST DUP1 DUP5 ADD SWAP2 POP POP SWAP3 SWAP2 POP POP JUMP JUMPDEST PUSH1 0x0 PUSH3 0x672 DUP3 DUP5 PUSH3 0x62D JUMP JUMPDEST SWAP2 POP DUP2 SWAP1 POP SWAP3 SWAP2 POP POP JUMP JUMPDEST PUSH1 0x0 DUP2 MLOAD SWAP1 POP SWAP2 SWAP1 POP JUMP JUMPDEST PUSH1 0x0 DUP2 SWAP1 POP PUSH1 0x20 DUP3 ADD SWAP1 POP SWAP2 SWAP1 POP JUMP JUMPDEST PUSH1 0x0 DUP2 SWAP1 POP SWAP2 SWAP1 POP JUMP JUMPDEST PUSH1 0x0 PUSH3 0x6B0 DUP3 MLOAD PUSH3 0x698 JUMP JUMPDEST DUP1 SWAP2 POP POP SWAP2 SWAP1 POP JUMP JUMPDEST PUSH1 0x0 DUP3 DUP3 SHL SWAP1 POP SWAP3 SWAP2 POP POP JUMP JUMPDEST PUSH1 0x0 PUSH3 0x6D3 DUP3 PUSH3 0x67D JUMP JUMPDEST DUP3 PUSH3 0x6DF DUP5 PUSH3 0x688 JUMP JUMPDEST SWAP1 POP PUSH3 0x6EC DUP2 PUSH3 0x6A2 JUMP JUMPDEST SWAP3 POP PUSH1 0x20 DUP3 LT ISZERO PUSH3 0x72F JUMPI PUSH3 0x72A PUSH32 0xFFFFFFFFFFFFFFFFFFFFFFFFFFFFFFFFFFFFFFFFFFFFFFFFFFFFFFFFFFFFFFFF DUP4 PUSH1 0x20 SUB PUSH1 0x8 MUL PUSH3 0x6B9 JUMP JUMPDEST DUP4 AND SWAP3 POP JUMPDEST POP POP SWAP2 SWAP1 POP JUMP JUMPDEST PUSH32 0x4E487B7100000000000000000000000000000000000000000000000000000000 PUSH1 0x0 MSTORE PUSH1 0x11 PUSH1 0x4 MSTORE PUSH1 0x24 PUSH1 0x0 REVERT JUMPDEST PUSH1 0x0 PUSH3 0x772 DUP3 PUSH3 0x5CF JUMP JUMPDEST SWAP2 POP PUSH3 0x77F DUP4 PUSH3 0x5CF JUMP JUMPDEST SWAP3 POP DUP3 PUSH32 0xFFFFFFFFFFFFFFFFFFFFFFFFFFFFFFFFFFFFFFFFFFFFFFFFFFFFFFFFFFFFFFFF SUB DUP3 GT ISZERO PUSH3 0x7B7 JUMPI PUSH3 0x7B6 PUSH3 0x736 JUMP JUMPDEST JUMPDEST DUP3 DUP3 ADD SWAP1 POP SWAP3 SWAP2 POP POP JUMP JUMPDEST PUSH2 0x18F9 DUP1 PUSH3 0x7D2 PUSH1 0x0 CODECOPY PUSH1 0x0 RETURN INVALID PUSH1 0x80 PUSH1 0x40 MSTORE CALLVALUE DUP1 ISZERO PUSH2 0x10 JUMPI PUSH1 0x0 DUP1 REVERT JUMPDEST POP PUSH1 0x4 CALLDATASIZE LT PUSH2 0x9E JUMPI PUSH1 0x0 CALLDATALOAD PUSH1 0xE0 SHR DUP1 PUSH4 0xA3EC138D GT PUSH2 0x66 JUMPI DUP1 PUSH4 0xA3EC138D EQ PUSH2 0x11F JUMPI DUP1 PUSH4 0xC7F758A8 EQ PUSH2 0x152 JUMPI DUP1 PUSH4 0xD4D4B5AC EQ PUSH2 0x183 JUMPI DUP1 PUSH4 0xDA35C664 EQ PUSH2 0x1A1 JUMPI DUP1 PUSH4 0xEF788CD5 EQ PUSH2 0x1BF JUMPI PUSH2 0x9E JUMP JUMPDEST DUP1 PUSH4 0x121B93F EQ PUSH2 0xA3 JUMPI DUP1 PUSH4 0x28BE18EE EQ PUSH2 0xBF JUMPI DUP1 PUSH4 0x5C19A95C EQ PUSH2 0xDD JUMPI DUP1 PUSH4 0x5F07B961 EQ PUSH2 0xF9 JUMPI DUP1 PUSH4 0x9E7B8D61 EQ PUSH2 0x103 JUMPI JUMPDEST PUSH1 0x0 DUP1 REVERT JUMPDEST PUSH2 0xBD PUSH1 0x4 DUP1 CALLDATASIZE SUB DUP2 ADD SWAP1 PUSH2 0xB8 SWAP2 SWAP1 PUSH2 0xFFF JUMP JUMPDEST PUSH2 0x1DD JUMP JUMPDEST STOP JUMPDEST PUSH2 0xC7 PUSH2 0x47D JUMP JUMPDEST PUSH1 0x40 MLOAD PUSH2 0xD4 SWAP2 SWAP1 PUSH2 0x10C5 JUMP JUMPDEST PUSH1 0x40 MLOAD DUP1 SWAP2 SUB SWAP1 RETURN JUMPDEST PUSH2 0xF7 PUSH1 0x4 DUP1 CALLDATASIZE SUB DUP2 ADD SWAP1 PUSH2 0xF2 SWAP2 SWAP1 PUSH2 0x1145 JUMP JUMPDEST PUSH2 0x534 JUMP JUMPDEST STOP JUMPDEST PUSH2 0x101 PUSH2 0xA46 JUMP JUMPDEST STOP JUMPDEST PUSH2 0x11D PUSH1 0x4 DUP1 CALLDATASIZE SUB DUP2 ADD SWAP1 PUSH2 0x118 SWAP2 SWAP1 PUSH2 0x1145 JUMP JUMPDEST PUSH2 0xBBA JUMP JUMPDEST STOP JUMPDEST PUSH2 0x139 PUSH1 0x4 DUP1 CALLDATASIZE SUB DUP2 ADD SWAP1 PUSH2 0x134 SWAP2 SWAP1 PUSH2 0x1145 JUMP JUMPDEST PUSH2 0xDB3 JUMP JUMPDEST PUSH1 0x40 MLOAD PUSH2 0x149 SWAP5 SWAP4 SWAP3 SWAP2 SWAP1 PUSH2 0x11AB JUMP JUMPDEST PUSH1 0x40 MLOAD DUP1 SWAP2 SUB SWAP1 RETURN JUMPDEST PUSH2 0x16C PUSH1 0x4 DUP1 CALLDATASIZE SUB DUP2 ADD SWAP1 PUSH2 0x167 SWAP2 SWAP1 PUSH2 0xFFF JUMP JUMPDEST PUSH2 0xE10 JUMP JUMPDEST PUSH1 0x40 MLOAD PUSH2 0x17A SWAP3 SWAP2 SWAP1 PUSH2 0x11F0 JUMP JUMPDEST PUSH1 0x40 MLOAD DUP1 SWAP2 SUB SWAP1 RETURN JUMPDEST PUSH2 0x18B PUSH2 0xEBB JUMP JUMPDEST PUSH1 0x40 MLOAD PUSH2 0x198 SWAP2 SWAP1 PUSH2 0x1220 JUMP JUMPDEST PUSH1 0x40 MLOAD DUP1 SWAP2 SUB SWAP1 RETURN JUMPDEST PUSH2 0x1A9 PUSH2 0xEE1 JUMP JUMPDEST PUSH1 0x40 MLOAD PUSH2 0x1B6 SWAP2 SWAP1 PUSH2 0x123B JUMP JUMPDEST PUSH1 0x40 MLOAD DUP1 SWAP2 SUB SWAP1 RETURN JUMPDEST PUSH2 0x1C7 PUSH2 0xEE7 JUMP JUMPDEST PUSH1 0x40 MLOAD PUSH2 0x1D4 SWAP2 SWAP1 PUSH2 0x1314 JUMP JUMPDEST PUSH1 0x40 MLOAD DUP1 SWAP2 SUB SWAP1 RETURN JUMPDEST DUP1 PUSH1 0x0 SLOAD DUP2 LT PUSH2 0x222 JUMPI PUSH1 0x40 MLOAD PUSH32 0x8C379A000000000000000000000000000000000000000000000000000000000 DUP2 MSTORE PUSH1 0x4 ADD PUSH2 0x219 SWAP1 PUSH2 0x13A8 JUMP JUMPDEST PUSH1 0x40 MLOAD DUP1 SWAP2 SUB SWAP1 REVERT JUMPDEST PUSH2 0x22A PUSH2 0xF55 JUMP JUMPDEST PUSH1 0x2 PUSH1 0x0 DUP3 PUSH20 0xFFFFFFFFFFFFFFFFFFFFFFFFFFFFFFFFFFFFFFFF AND PUSH20 0xFFFFFFFFFFFFFFFFFFFFFFFFFFFFFFFFFFFFFFFF AND DUP2 MSTORE PUSH1 0x20 ADD SWAP1 DUP2 MSTORE PUSH1 0x20 ADD PUSH1 0x0 KECCAK256 PUSH1 0x1 ADD PUSH1 0x0 SWAP1 SLOAD SWAP1 PUSH2 0x100 EXP SWAP1 DIV PUSH1 0xFF AND ISZERO PUSH2 0x2BA JUMPI PUSH1 0x40 MLOAD PUSH32 0x8C379A000000000000000000000000000000000000000000000000000000000 DUP2 MSTORE PUSH1 0x4 ADD PUSH2 0x2B1 SWAP1 PUSH2 0x143A JUMP JUMPDEST PUSH1 0x40 MLOAD DUP1 SWAP2 SUB SWAP1 REVERT JUMPDEST PUSH2 0x2C2 PUSH2 0xF55 JUMP JUMPDEST PUSH1 0x0 PUSH1 0x2 PUSH1 0x0 DUP4 PUSH20 0xFFFFFFFFFFFFFFFFFFFFFFFFFFFFFFFFFFFFFFFF AND PUSH20 0xFFFFFFFFFFFFFFFFFFFFFFFFFFFFFFFFFFFFFFFF AND DUP2 MSTORE PUSH1 0x20 ADD SWAP1 DUP2 MSTORE PUSH1 0x20 ADD PUSH1 0x0 KECCAK256 PUSH1 0x0 ADD SLOAD GT PUSH2 0x347 JUMPI PUSH1 0x40 MLOAD PUSH32 0x8C379A000000000000000000000000000000000000000000000000000000000 DUP2 MSTORE PUSH1 0x4 ADD PUSH2 0x33E SWAP1 PUSH2 0x14CC JUMP JUMPDEST PUSH1 0x40 MLOAD DUP1 SWAP2 SUB SWAP1 REVERT JUMPDEST PUSH1 0x0 PUSH1 0x2 PUSH1 0x0 PUSH2 0x355 PUSH2 0xF55 JUMP JUMPDEST PUSH20 0xFFFFFFFFFFFFFFFFFFFFFFFFFFFFFFFFFFFFFFFF AND PUSH20 0xFFFFFFFFFFFFFFFFFFFFFFFFFFFFFFFFFFFFFFFF AND DUP2 MSTORE PUSH1 0x20 ADD SWAP1 DUP2 MSTORE PUSH1 0x20 ADD PUSH1 0x0 KECCAK256 SWAP1 POP PUSH1 0x1 DUP2 PUSH1 0x1 ADD PUSH1 0x0 PUSH2 0x100 EXP DUP2 SLOAD DUP2 PUSH1 0xFF MUL NOT AND SWAP1 DUP4 ISZERO ISZERO MUL OR SWAP1 SSTORE POP DUP5 DUP2 PUSH1 0x2 ADD DUP2 SWAP1 SSTORE POP PUSH2 0x3F3 DUP2 PUSH1 0x0 ADD SLOAD PUSH1 0x3 DUP8 DUP2 SLOAD DUP2 LT PUSH2 0x3D3 JUMPI PUSH2 0x3D2 PUSH2 0x14EC JUMP JUMPDEST JUMPDEST SWAP1 PUSH1 0x0 MSTORE PUSH1 0x20 PUSH1 0x0 KECCAK256 SWAP1 PUSH1 0x2 MUL ADD PUSH1 0x1 ADD SLOAD PUSH2 0xF3F SWAP1 SWAP2 SWAP1 PUSH4 0xFFFFFFFF AND JUMP JUMPDEST PUSH1 0x3 DUP7 DUP2 SLOAD DUP2 LT PUSH2 0x407 JUMPI PUSH2 0x406 PUSH2 0x14EC JUMP JUMPDEST JUMPDEST SWAP1 PUSH1 0x0 MSTORE PUSH1 0x20 PUSH1 0x0 KECCAK256 SWAP1 PUSH1 0x2 MUL ADD PUSH1 0x1 ADD DUP2 SWAP1 SSTORE POP PUSH2 0x424 PUSH2 0xF55 JUMP JUMPDEST PUSH20 0xFFFFFFFFFFFFFFFFFFFFFFFFFFFFFFFFFFFFFFFF AND DUP6 PUSH32 0xE7EE74CA1F4BB1B82B14F87794C45B3E59C39E372B862FB97A6316B43355B69E DUP4 PUSH1 0x0 ADD SLOAD PUSH1 0x40 MLOAD PUSH2 0x46E SWAP2 SWAP1 PUSH2 0x123B JUMP JUMPDEST PUSH1 0x40 MLOAD DUP1 SWAP2 SUB SWAP1 LOG3 POP POP POP POP POP JUMP JUMPDEST PUSH1 0x60 PUSH1 0x0 JUMPDEST PUSH1 0x4 DUP1 SLOAD SWAP1 POP DUP2 LT ISZERO PUSH2 0x530 JUMPI DUP2 PUSH1 0x3 PUSH1 0x4 DUP4 DUP2 SLOAD DUP2 LT PUSH2 0x4A6 JUMPI PUSH2 0x4A5 PUSH2 0x14EC JUMP JUMPDEST JUMPDEST SWAP1 PUSH1 0x0 MSTORE PUSH1 0x20 PUSH1 0x0 KECCAK256 ADD SLOAD DUP2 SLOAD DUP2 LT PUSH2 0x4C2 JUMPI PUSH2 0x4C1 PUSH2 0x14EC JUMP JUMPDEST JUMPDEST SWAP1 PUSH1 0x0 MSTORE PUSH1 0x20 PUSH1 0x0 KECCAK256 SWAP1 PUSH1 0x2 MUL ADD PUSH1 0x0 ADD SLOAD PUSH1 0x40 MLOAD PUSH1 0x20 ADD PUSH2 0x4E4 SWAP2 SWAP1 PUSH2 0x1546 JUMP JUMPDEST PUSH1 0x40 MLOAD PUSH1 0x20 DUP2 DUP4 SUB SUB DUP2 MSTORE SWAP1 PUSH1 0x40 MSTORE PUSH1 0x40 MLOAD PUSH1 0x20 ADD PUSH2 0x504 SWAP3 SWAP2 SWAP1 PUSH2 0x15C3 JUMP JUMPDEST PUSH1 0x40 MLOAD PUSH1 0x20 DUP2 DUP4 SUB SUB DUP2 MSTORE SWAP1 PUSH1 0x40 MSTORE SWAP2 POP PUSH2 0x529 PUSH1 0x1 DUP3 PUSH2 0xF3F SWAP1 SWAP2 SWAP1 PUSH4 0xFFFFFFFF AND JUMP JUMPDEST SWAP1 POP PUSH2 0x482 JUMP JUMPDEST POP SWAP1 JUMP JUMPDEST PUSH2 0x53C PUSH2 0xF55 JUMP JUMPDEST PUSH1 0x2 PUSH1 0x0 DUP3 PUSH20 0xFFFFFFFFFFFFFFFFFFFFFFFFFFFFFFFFFFFFFFFF AND PUSH20 0xFFFFFFFFFFFFFFFFFFFFFFFFFFFFFFFFFFFFFFFF AND DUP2 MSTORE PUSH1 0x20 ADD SWAP1 DUP2 MSTORE PUSH1 0x20 ADD PUSH1 0x0 KECCAK256 PUSH1 0x1 ADD PUSH1 0x0 SWAP1 SLOAD SWAP1 PUSH2 0x100 EXP SWAP1 DIV PUSH1 0xFF AND ISZERO PUSH2 0x5CC JUMPI PUSH1 0x40 MLOAD PUSH32 0x8C379A000000000000000000000000000000000000000000000000000000000 DUP2 MSTORE PUSH1 0x4 ADD PUSH2 0x5C3 SWAP1 PUSH2 0x143A JUMP JUMPDEST PUSH1 0x40 MLOAD DUP1 SWAP2 SUB SWAP1 REVERT JUMPDEST PUSH2 0x5D4 PUSH2 0xF55 JUMP JUMPDEST PUSH1 0x0 PUSH1 0x2 PUSH1 0x0 DUP4 PUSH20 0xFFFFFFFFFFFFFFFFFFFFFFFFFFFFFFFFFFFFFFFF AND PUSH20 0xFFFFFFFFFFFFFFFFFFFFFFFFFFFFFFFFFFFFFFFF AND DUP2 MSTORE PUSH1 0x20 ADD SWAP1 DUP2 MSTORE PUSH1 0x20 ADD PUSH1 0x0 KECCAK256 PUSH1 0x0 ADD SLOAD GT PUSH2 0x659 JUMPI PUSH1 0x40 MLOAD PUSH32 0x8C379A000000000000000000000000000000000000000000000000000000000 DUP2 MSTORE PUSH1 0x4 ADD PUSH2 0x650 SWAP1 PUSH2 0x14CC JUMP JUMPDEST PUSH1 0x40 MLOAD DUP1 SWAP2 SUB SWAP1 REVERT JUMPDEST PUSH1 0x0 PUSH1 0x2 PUSH1 0x0 PUSH2 0x667 PUSH2 0xF55 JUMP JUMPDEST PUSH20 0xFFFFFFFFFFFFFFFFFFFFFFFFFFFFFFFFFFFFFFFF AND PUSH20 0xFFFFFFFFFFFFFFFFFFFFFFFFFFFFFFFFFFFFFFFF AND DUP2 MSTORE PUSH1 0x20 ADD SWAP1 DUP2 MSTORE PUSH1 0x20 ADD PUSH1 0x0 KECCAK256 SWAP1 POP PUSH2 0x6AB PUSH2 0xF55 JUMP JUMPDEST PUSH20 0xFFFFFFFFFFFFFFFFFFFFFFFFFFFFFFFFFFFFFFFF AND DUP5 PUSH20 0xFFFFFFFFFFFFFFFFFFFFFFFFFFFFFFFFFFFFFFFF AND SUB PUSH2 0x718 JUMPI PUSH1 0x40 MLOAD PUSH32 0x8C379A000000000000000000000000000000000000000000000000000000000 DUP2 MSTORE PUSH1 0x4 ADD PUSH2 0x70F SWAP1 PUSH2 0x1668 JUMP JUMPDEST PUSH1 0x40 MLOAD DUP1 SWAP2 SUB SWAP1 REVERT JUMPDEST JUMPDEST PUSH1 0x0 PUSH20 0xFFFFFFFFFFFFFFFFFFFFFFFFFFFFFFFFFFFFFFFF AND PUSH1 0x2 PUSH1 0x0 DUP7 PUSH20 0xFFFFFFFFFFFFFFFFFFFFFFFFFFFFFFFFFFFFFFFF AND PUSH20 0xFFFFFFFFFFFFFFFFFFFFFFFFFFFFFFFFFFFFFFFF AND DUP2 MSTORE PUSH1 0x20 ADD SWAP1 DUP2 MSTORE PUSH1 0x20 ADD PUSH1 0x0 KECCAK256 PUSH1 0x1 ADD PUSH1 0x1 SWAP1 SLOAD SWAP1 PUSH2 0x100 EXP SWAP1 DIV PUSH20 0xFFFFFFFFFFFFFFFFFFFFFFFFFFFFFFFFFFFFFFFF AND PUSH20 0xFFFFFFFFFFFFFFFFFFFFFFFFFFFFFFFFFFFFFFFF AND EQ PUSH2 0x88E JUMPI PUSH1 0x2 PUSH1 0x0 DUP6 PUSH20 0xFFFFFFFFFFFFFFFFFFFFFFFFFFFFFFFFFFFFFFFF AND PUSH20 0xFFFFFFFFFFFFFFFFFFFFFFFFFFFFFFFFFFFFFFFF AND DUP2 MSTORE PUSH1 0x20 ADD SWAP1 DUP2 MSTORE PUSH1 0x20 ADD PUSH1 0x0 KECCAK256 PUSH1 0x1 ADD PUSH1 0x1 SWAP1 SLOAD SWAP1 PUSH2 0x100 EXP SWAP1 DIV PUSH20 0xFFFFFFFFFFFFFFFFFFFFFFFFFFFFFFFFFFFFFFFF AND SWAP4 POP PUSH2 0x81C PUSH2 0xF55 JUMP JUMPDEST PUSH20 0xFFFFFFFFFFFFFFFFFFFFFFFFFFFFFFFFFFFFFFFF AND DUP5 PUSH20 0xFFFFFFFFFFFFFFFFFFFFFFFFFFFFFFFFFFFFFFFF AND SUB PUSH2 0x889 JUMPI PUSH1 0x40 MLOAD PUSH32 0x8C379A000000000000000000000000000000000000000000000000000000000 DUP2 MSTORE PUSH1 0x4 ADD PUSH2 0x880 SWAP1 PUSH2 0x16FA JUMP JUMPDEST PUSH1 0x40 MLOAD DUP1 SWAP2 SUB SWAP1 REVERT JUMPDEST PUSH2 0x719 JUMP JUMPDEST PUSH1 0x1 DUP2 PUSH1 0x1 ADD PUSH1 0x0 PUSH2 0x100 EXP DUP2 SLOAD DUP2 PUSH1 0xFF MUL NOT AND SWAP1 DUP4 ISZERO ISZERO MUL OR SWAP1 SSTORE POP DUP4 DUP2 PUSH1 0x1 ADD PUSH1 0x1 PUSH2 0x100 EXP DUP2 SLOAD DUP2 PUSH20 0xFFFFFFFFFFFFFFFFFFFFFFFFFFFFFFFFFFFFFFFF MUL NOT AND SWAP1 DUP4 PUSH20 0xFFFFFFFFFFFFFFFFFFFFFFFFFFFFFFFFFFFFFFFF AND MUL OR SWAP1 SSTORE POP PUSH1 0x0 PUSH1 0x2 PUSH1 0x0 DUP7 PUSH20 0xFFFFFFFFFFFFFFFFFFFFFFFFFFFFFFFFFFFFFFFF AND PUSH20 0xFFFFFFFFFFFFFFFFFFFFFFFFFFFFFFFFFFFFFFFF AND DUP2 MSTORE PUSH1 0x20 ADD SWAP1 DUP2 MSTORE PUSH1 0x20 ADD PUSH1 0x0 KECCAK256 SWAP1 POP DUP1 PUSH1 0x1 ADD PUSH1 0x0 SWAP1 SLOAD SWAP1 PUSH2 0x100 EXP SWAP1 DIV PUSH1 0xFF AND ISZERO PUSH2 0x9BA JUMPI PUSH2 0x988 DUP3 PUSH1 0x0 ADD SLOAD PUSH1 0x3 DUP4 PUSH1 0x2 ADD SLOAD DUP2 SLOAD DUP2 LT PUSH2 0x968 JUMPI PUSH2 0x967 PUSH2 0x14EC JUMP JUMPDEST JUMPDEST SWAP1 PUSH1 0x0 MSTORE PUSH1 0x20 PUSH1 0x0 KECCAK256 SWAP1 PUSH1 0x2 MUL ADD PUSH1 0x1 ADD SLOAD PUSH2 0xF3F SWAP1 SWAP2 SWAP1 PUSH4 0xFFFFFFFF AND JUMP JUMPDEST PUSH1 0x3 DUP3 PUSH1 0x2 ADD SLOAD DUP2 SLOAD DUP2 LT PUSH2 0x9A0 JUMPI PUSH2 0x99F PUSH2 0x14EC JUMP JUMPDEST JUMPDEST SWAP1 PUSH1 0x0 MSTORE PUSH1 0x20 PUSH1 0x0 KECCAK256 SWAP1 PUSH1 0x2 MUL ADD PUSH1 0x1 ADD DUP2 SWAP1 SSTORE POP PUSH2 0x9DE JUMP JUMPDEST PUSH2 0x9D5 DUP3 PUSH1 0x0 ADD SLOAD DUP3 PUSH1 0x0 ADD SLOAD PUSH2 0xF3F SWAP1 SWAP2 SWAP1 PUSH4 0xFFFFFFFF AND JUMP JUMPDEST DUP2 PUSH1 0x0 ADD DUP2 SWAP1 SSTORE POP JUMPDEST DUP5 PUSH20 0xFFFFFFFFFFFFFFFFFFFFFFFFFFFFFFFFFFFFFFFF AND PUSH2 0x9FD PUSH2 0xF55 JUMP JUMPDEST PUSH20 0xFFFFFFFFFFFFFFFFFFFFFFFFFFFFFFFFFFFFFFFF AND PUSH32 0x4CE9EF2C99D761D69230B0E3381F4C6016333B2E27D32B3E379A96B5D2C69232 PUSH1 0x40 MLOAD PUSH1 0x40 MLOAD DUP1 SWAP2 SUB SWAP1 LOG3 POP POP POP POP POP JUMP JUMPDEST PUSH1 0x0 DUP1 PUSH1 0x4 PUSH1 0x0 PUSH2 0xA57 SWAP2 SWAP1 PUSH2 0xF86 JUMP JUMPDEST PUSH1 0x0 JUMPDEST PUSH1 0x3 DUP1 SLOAD SWAP1 POP DUP2 LT ISZERO PUSH2 0xB01 JUMPI DUP3 PUSH1 0x3 DUP3 DUP2 SLOAD DUP2 LT PUSH2 0xA7C JUMPI PUSH2 0xA7B PUSH2 0x14EC JUMP JUMPDEST JUMPDEST SWAP1 PUSH1 0x0 MSTORE PUSH1 0x20 PUSH1 0x0 KECCAK256 SWAP1 PUSH1 0x2 MUL ADD PUSH1 0x1 ADD SLOAD GT ISZERO PUSH2 0xAE6 JUMPI PUSH1 0x3 DUP2 DUP2 SLOAD DUP2 LT PUSH2 0xAA8 JUMPI PUSH2 0xAA7 PUSH2 0x14EC JUMP JUMPDEST JUMPDEST SWAP1 PUSH1 0x0 MSTORE PUSH1 0x20 PUSH1 0x0 KECCAK256 SWAP1 PUSH1 0x2 MUL ADD PUSH1 0x1 ADD SLOAD SWAP3 POP PUSH1 0x4 DUP2 SWAP1 DUP1 PUSH1 0x1 DUP2 SLOAD ADD DUP1 DUP3 SSTORE DUP1 SWAP2 POP POP PUSH1 0x1 SWAP1 SUB SWAP1 PUSH1 0x0 MSTORE PUSH1 0x20 PUSH1 0x0 KECCAK256 ADD PUSH1 0x0 SWAP1 SWAP2 SWAP1 SWAP2 SWAP1 SWAP2 POP SSTORE JUMPDEST PUSH2 0xAFA PUSH1 0x1 DUP3 PUSH2 0xF3F SWAP1 SWAP2 SWAP1 PUSH4 0xFFFFFFFF AND JUMP JUMPDEST SWAP1 POP PUSH2 0xA5A JUMP JUMPDEST POP PUSH1 0x0 JUMPDEST PUSH1 0x3 DUP1 SLOAD SWAP1 POP DUP2 LT ISZERO PUSH2 0xBB5 JUMPI PUSH1 0x3 DUP3 DUP2 SLOAD DUP2 LT PUSH2 0xB26 JUMPI PUSH2 0xB25 PUSH2 0x14EC JUMP JUMPDEST JUMPDEST SWAP1 PUSH1 0x0 MSTORE PUSH1 0x20 PUSH1 0x0 KECCAK256 SWAP1 PUSH1 0x2 MUL ADD PUSH1 0x1 ADD SLOAD PUSH1 0x3 DUP3 DUP2 SLOAD DUP2 LT PUSH2 0xB4C JUMPI PUSH2 0xB4B PUSH2 0x14EC JUMP JUMPDEST JUMPDEST SWAP1 PUSH1 0x0 MSTORE PUSH1 0x20 PUSH1 0x0 KECCAK256 SWAP1 PUSH1 0x2 MUL ADD PUSH1 0x1 ADD SLOAD EQ DUP1 ISZERO PUSH2 0xB6B JUMPI POP DUP2 DUP2 EQ ISZERO JUMPDEST ISZERO PUSH2 0xB9A JUMPI PUSH1 0x4 DUP2 SWAP1 DUP1 PUSH1 0x1 DUP2 SLOAD ADD DUP1 DUP3 SSTORE DUP1 SWAP2 POP POP PUSH1 0x1 SWAP1 SUB SWAP1 PUSH1 0x0 MSTORE PUSH1 0x20 PUSH1 0x0 KECCAK256 ADD PUSH1 0x0 SWAP1 SWAP2 SWAP1 SWAP2 SWAP1 SWAP2 POP SSTORE JUMPDEST PUSH2 0xBAE PUSH1 0x1 DUP3 PUSH2 0xF3F SWAP1 SWAP2 SWAP1 PUSH4 0xFFFFFFFF AND JUMP JUMPDEST SWAP1 POP PUSH2 0xB05 JUMP JUMPDEST POP POP POP JUMP JUMPDEST PUSH1 0x1 PUSH1 0x0 SWAP1 SLOAD SWAP1 PUSH2 0x100 EXP SWAP1 DIV PUSH20 0xFFFFFFFFFFFFFFFFFFFFFFFFFFFFFFFFFFFFFFFF AND PUSH20 0xFFFFFFFFFFFFFFFFFFFFFFFFFFFFFFFFFFFFFFFF AND PUSH2 0xBFB PUSH2 0xF55 JUMP JUMPDEST PUSH20 0xFFFFFFFFFFFFFFFFFFFFFFFFFFFFFFFFFFFFFFFF AND EQ PUSH2 0xC51 JUMPI PUSH1 0x40 MLOAD PUSH32 0x8C379A000000000000000000000000000000000000000000000000000000000 DUP2 MSTORE PUSH1 0x4 ADD PUSH2 0xC48 SWAP1 PUSH2 0x178C JUMP JUMPDEST PUSH1 0x40 MLOAD DUP1 SWAP2 SUB SWAP1 REVERT JUMPDEST DUP1 PUSH1 0x2 PUSH1 0x0 DUP3 PUSH20 0xFFFFFFFFFFFFFFFFFFFFFFFFFFFFFFFFFFFFFFFF AND PUSH20 0xFFFFFFFFFFFFFFFFFFFFFFFFFFFFFFFFFFFFFFFF AND DUP2 MSTORE PUSH1 0x20 ADD SWAP1 DUP2 MSTORE PUSH1 0x20 ADD PUSH1 0x0 KECCAK256 PUSH1 0x1 ADD PUSH1 0x0 SWAP1 SLOAD SWAP1 PUSH2 0x100 EXP SWAP1 DIV PUSH1 0xFF AND ISZERO PUSH2 0xCE2 JUMPI PUSH1 0x40 MLOAD PUSH32 0x8C379A000000000000000000000000000000000000000000000000000000000 DUP2 MSTORE PUSH1 0x4 ADD PUSH2 0xCD9 SWAP1 PUSH2 0x143A JUMP JUMPDEST PUSH1 0x40 MLOAD DUP1 SWAP2 SUB SWAP1 REVERT JUMPDEST PUSH1 0x0 PUSH1 0x2 PUSH1 0x0 DUP5 PUSH20 0xFFFFFFFFFFFFFFFFFFFFFFFFFFFFFFFFFFFFFFFF AND PUSH20 0xFFFFFFFFFFFFFFFFFFFFFFFFFFFFFFFFFFFFFFFF AND DUP2 MSTORE PUSH1 0x20 ADD SWAP1 DUP2 MSTORE PUSH1 0x20 ADD PUSH1 0x0 KECCAK256 PUSH1 0x0 ADD SLOAD EQ PUSH2 0xD67 JUMPI PUSH1 0x40 MLOAD PUSH32 0x8C379A000000000000000000000000000000000000000000000000000000000 DUP2 MSTORE PUSH1 0x4 ADD PUSH2 0xD5E SWAP1 PUSH2 0x181E JUMP JUMPDEST PUSH1 0x40 MLOAD DUP1 SWAP2 SUB SWAP1 REVERT JUMPDEST PUSH1 0x1 PUSH1 0x2 PUSH1 0x0 DUP5 PUSH20 0xFFFFFFFFFFFFFFFFFFFFFFFFFFFFFFFFFFFFFFFF AND PUSH20 0xFFFFFFFFFFFFFFFFFFFFFFFFFFFFFFFFFFFFFFFF AND DUP2 MSTORE PUSH1 0x20 ADD SWAP1 DUP2 MSTORE PUSH1 0x20 ADD PUSH1 0x0 KECCAK256 PUSH1 0x0 ADD DUP2 SWAP1 SSTORE POP POP POP JUMP JUMPDEST PUSH1 0x2 PUSH1 0x20 MSTORE DUP1 PUSH1 0x0 MSTORE PUSH1 0x40 PUSH1 0x0 KECCAK256 PUSH1 0x0 SWAP2 POP SWAP1 POP DUP1 PUSH1 0x0 ADD SLOAD SWAP1 DUP1 PUSH1 0x1 ADD PUSH1 0x0 SWAP1 SLOAD SWAP1 PUSH2 0x100 EXP SWAP1 DIV PUSH1 0xFF AND SWAP1 DUP1 PUSH1 0x1 ADD PUSH1 0x1 SWAP1 SLOAD SWAP1 PUSH2 0x100 EXP SWAP1 DIV PUSH20 0xFFFFFFFFFFFFFFFFFFFFFFFFFFFFFFFFFFFFFFFF AND SWAP1 DUP1 PUSH1 0x2 ADD SLOAD SWAP1 POP DUP5 JUMP JUMPDEST PUSH1 0x60 PUSH1 0x0 DUP3 PUSH1 0x0 SLOAD DUP2 LT PUSH2 0xE59 JUMPI PUSH1 0x40 MLOAD PUSH32 0x8C379A000000000000000000000000000000000000000000000000000000000 DUP2 MSTORE PUSH1 0x4 ADD PUSH2 0xE50 SWAP1 PUSH2 0x13A8 JUMP JUMPDEST PUSH1 0x40 MLOAD DUP1 SWAP2 SUB SWAP1 REVERT JUMPDEST PUSH2 0xE87 PUSH1 0x3 DUP6 DUP2 SLOAD DUP2 LT PUSH2 0xE70 JUMPI PUSH2 0xE6F PUSH2 0x14EC JUMP JUMPDEST JUMPDEST SWAP1 PUSH1 0x0 MSTORE PUSH1 0x20 PUSH1 0x0 KECCAK256 SWAP1 PUSH1 0x2 MUL ADD PUSH1 0x0 ADD SLOAD PUSH2 0xF5D JUMP JUMPDEST PUSH1 0x3 DUP6 DUP2 SLOAD DUP2 LT PUSH2 0xE9B JUMPI PUSH2 0xE9A PUSH2 0x14EC JUMP JUMPDEST JUMPDEST SWAP1 PUSH1 0x0 MSTORE PUSH1 0x20 PUSH1 0x0 KECCAK256 SWAP1 PUSH1 0x2 MUL ADD PUSH1 0x1 ADD SLOAD DUP1 SWAP4 POP DUP2 SWAP5 POP POP POP POP SWAP2 POP SWAP2 JUMP JUMPDEST PUSH1 0x1 PUSH1 0x0 SWAP1 SLOAD SWAP1 PUSH2 0x100 EXP SWAP1 DIV PUSH20 0xFFFFFFFFFFFFFFFFFFFFFFFFFFFFFFFFFFFFFFFF AND DUP2 JUMP JUMPDEST PUSH1 0x0 SLOAD DUP2 JUMP JUMPDEST PUSH1 0x60 PUSH1 0x4 DUP1 SLOAD DUP1 PUSH1 0x20 MUL PUSH1 0x20 ADD PUSH1 0x40 MLOAD SWAP1 DUP2 ADD PUSH1 0x40 MSTORE DUP1 SWAP3 SWAP2 SWAP1 DUP2 DUP2 MSTORE PUSH1 0x20 ADD DUP3 DUP1 SLOAD DUP1 ISZERO PUSH2 0xF35 JUMPI PUSH1 0x20 MUL DUP3 ADD SWAP2 SWAP1 PUSH1 0x0 MSTORE PUSH1 0x20 PUSH1 0x0 KECCAK256 SWAP1 JUMPDEST DUP2 SLOAD DUP2 MSTORE PUSH1 0x20 ADD SWAP1 PUSH1 0x1 ADD SWAP1 DUP1 DUP4 GT PUSH2 0xF21 JUMPI JUMPDEST POP POP POP POP POP SWAP1 POP SWAP1 JUMP JUMPDEST PUSH1 0x0 DUP2 DUP4 PUSH2 0xF4D SWAP2 SWAP1 PUSH2 0x186D JUMP JUMPDEST SWAP1 POP SWAP3 SWAP2 POP POP JUMP JUMPDEST PUSH1 0x0 CALLER SWAP1 POP SWAP1 JUMP JUMPDEST PUSH1 0x60 DUP2 PUSH1 0x40 MLOAD PUSH1 0x20 ADD PUSH2 0xF70 SWAP2 SWAP1 PUSH2 0x1546 JUMP JUMPDEST PUSH1 0x40 MLOAD PUSH1 0x20 DUP2 DUP4 SUB SUB DUP2 MSTORE SWAP1 PUSH1 0x40 MSTORE SWAP1 POP SWAP2 SWAP1 POP JUMP JUMPDEST POP DUP1 SLOAD PUSH1 0x0 DUP3 SSTORE SWAP1 PUSH1 0x0 MSTORE PUSH1 0x20 PUSH1 0x0 KECCAK256 SWAP1 DUP2 ADD SWAP1 PUSH2 0xFA4 SWAP2 SWAP1 PUSH2 0xFA7 JUMP JUMPDEST POP JUMP JUMPDEST JUMPDEST DUP1 DUP3 GT ISZERO PUSH2 0xFC0 JUMPI PUSH1 0x0 DUP2 PUSH1 0x0 SWAP1 SSTORE POP PUSH1 0x1 ADD PUSH2 0xFA8 JUMP JUMPDEST POP SWAP1 JUMP JUMPDEST PUSH1 0x0 DUP1 REVERT JUMPDEST PUSH1 0x0 DUP2 SWAP1 POP SWAP2 SWAP1 POP JUMP JUMPDEST PUSH2 0xFDC DUP2 PUSH2 0xFC9 JUMP JUMPDEST DUP2 EQ PUSH2 0xFE7 JUMPI PUSH1 0x0 DUP1 REVERT JUMPDEST POP JUMP JUMPDEST PUSH1 0x0 DUP2 CALLDATALOAD SWAP1 POP PUSH2 0xFF9 DUP2 PUSH2 0xFD3 JUMP JUMPDEST SWAP3 SWAP2 POP POP JUMP JUMPDEST PUSH1 0x0 PUSH1 0x20 DUP3 DUP5 SUB SLT ISZERO PUSH2 0x1015 JUMPI PUSH2 0x1014 PUSH2 0xFC4 JUMP JUMPDEST JUMPDEST PUSH1 0x0 PUSH2 0x1023 DUP5 DUP3 DUP6 ADD PUSH2 0xFEA JUMP JUMPDEST SWAP2 POP POP SWAP3 SWAP2 POP POP JUMP JUMPDEST PUSH1 0x0 DUP2 MLOAD SWAP1 POP SWAP2 SWAP1 POP JUMP JUMPDEST PUSH1 0x0 DUP3 DUP3 MSTORE PUSH1 0x20 DUP3 ADD SWAP1 POP SWAP3 SWAP2 POP POP JUMP JUMPDEST PUSH1 0x0 JUMPDEST DUP4 DUP2 LT ISZERO PUSH2 0x1066 JUMPI DUP1 DUP3 ADD MLOAD DUP2 DUP5 ADD MSTORE PUSH1 0x20 DUP2 ADD SWAP1 POP PUSH2 0x104B JUMP JUMPDEST DUP4 DUP2 GT ISZERO PUSH2 0x1075 JUMPI PUSH1 0x0 DUP5 DUP5 ADD MSTORE JUMPDEST POP POP POP POP JUMP JUMPDEST PUSH1 0x0 PUSH1 0x1F NOT PUSH1 0x1F DUP4 ADD AND SWAP1 POP SWAP2 SWAP1 POP JUMP JUMPDEST PUSH1 0x0 PUSH2 0x1097 DUP3 PUSH2 0x102C JUMP JUMPDEST PUSH2 0x10A1 DUP2 DUP6 PUSH2 0x1037 JUMP JUMPDEST SWAP4 POP PUSH2 0x10B1 DUP2 DUP6 PUSH1 0x20 DUP7 ADD PUSH2 0x1048 JUMP JUMPDEST PUSH2 0x10BA DUP2 PUSH2 0x107B JUMP JUMPDEST DUP5 ADD SWAP2 POP POP SWAP3 SWAP2 POP POP JUMP JUMPDEST PUSH1 0x0 PUSH1 0x20 DUP3 ADD SWAP1 POP DUP2 DUP2 SUB PUSH1 0x0 DUP4 ADD MSTORE PUSH2 0x10DF DUP2 DUP5 PUSH2 0x108C JUMP JUMPDEST SWAP1 POP SWAP3 SWAP2 POP POP JUMP JUMPDEST PUSH1 0x0 PUSH20 0xFFFFFFFFFFFFFFFFFFFFFFFFFFFFFFFFFFFFFFFF DUP3 AND SWAP1 POP SWAP2 SWAP1 POP JUMP JUMPDEST PUSH1 0x0 PUSH2 0x1112 DUP3 PUSH2 0x10E7 JUMP JUMPDEST SWAP1 POP SWAP2 SWAP1 POP JUMP JUMPDEST PUSH2 0x1122 DUP2 PUSH2 0x1107 JUMP JUMPDEST DUP2 EQ PUSH2 0x112D JUMPI PUSH1 0x0 DUP1 REVERT JUMPDEST POP JUMP JUMPDEST PUSH1 0x0 DUP2 CALLDATALOAD SWAP1 POP PUSH2 0x113F DUP2 PUSH2 0x1119 JUMP JUMPDEST SWAP3 SWAP2 POP POP JUMP JUMPDEST PUSH1 0x0 PUSH1 0x20 DUP3 DUP5 SUB SLT ISZERO PUSH2 0x115B JUMPI PUSH2 0x115A PUSH2 0xFC4 JUMP JUMPDEST JUMPDEST PUSH1 0x0 PUSH2 0x1169 DUP5 DUP3 DUP6 ADD PUSH2 0x1130 JUMP JUMPDEST SWAP2 POP POP SWAP3 SWAP2 POP POP JUMP JUMPDEST PUSH2 0x117B DUP2 PUSH2 0xFC9 JUMP JUMPDEST DUP3 MSTORE POP POP JUMP JUMPDEST PUSH1 0x0 DUP2 ISZERO ISZERO SWAP1 POP SWAP2 SWAP1 POP JUMP JUMPDEST PUSH2 0x1196 DUP2 PUSH2 0x1181 JUMP JUMPDEST DUP3 MSTORE POP POP JUMP JUMPDEST PUSH2 0x11A5 DUP2 PUSH2 0x1107 JUMP JUMPDEST DUP3 MSTORE POP POP JUMP JUMPDEST PUSH1 0x0 PUSH1 0x80 DUP3 ADD SWAP1 POP PUSH2 0x11C0 PUSH1 0x0 DUP4 ADD DUP8 PUSH2 0x1172 JUMP JUMPDEST PUSH2 0x11CD PUSH1 0x20 DUP4 ADD DUP7 PUSH2 0x118D JUMP JUMPDEST PUSH2 0x11DA PUSH1 0x40 DUP4 ADD DUP6 PUSH2 0x119C JUMP JUMPDEST PUSH2 0x11E7 PUSH1 0x60 DUP4 ADD DUP5 PUSH2 0x1172 JUMP JUMPDEST SWAP6 SWAP5 POP POP POP POP POP JUMP JUMPDEST PUSH1 0x0 PUSH1 0x40 DUP3 ADD SWAP1 POP DUP2 DUP2 SUB PUSH1 0x0 DUP4 ADD MSTORE PUSH2 0x120A DUP2 DUP6 PUSH2 0x108C JUMP JUMPDEST SWAP1 POP PUSH2 0x1219 PUSH1 0x20 DUP4 ADD DUP5 PUSH2 0x1172 JUMP JUMPDEST SWAP4 SWAP3 POP POP POP JUMP JUMPDEST PUSH1 0x0 PUSH1 0x20 DUP3 ADD SWAP1 POP PUSH2 0x1235 PUSH1 0x0 DUP4 ADD DUP5 PUSH2 0x119C JUMP JUMPDEST SWAP3 SWAP2 POP POP JUMP JUMPDEST PUSH1 0x0 PUSH1 0x20 DUP3 ADD SWAP1 POP PUSH2 0x1250 PUSH1 0x0 DUP4 ADD DUP5 PUSH2 0x1172 JUMP JUMPDEST SWAP3 SWAP2 POP POP JUMP JUMPDEST PUSH1 0x0 DUP2 MLOAD SWAP1 POP SWAP2 SWAP1 POP JUMP JUMPDEST PUSH1 0x0 DUP3 DUP3 MSTORE PUSH1 0x20 DUP3 ADD SWAP1 POP SWAP3 SWAP2 POP POP JUMP JUMPDEST PUSH1 0x0 DUP2 SWAP1 POP PUSH1 0x20 DUP3 ADD SWAP1 POP SWAP2 SWAP1 POP JUMP JUMPDEST PUSH2 0x128B DUP2 PUSH2 0xFC9 JUMP JUMPDEST DUP3 MSTORE POP POP JUMP JUMPDEST PUSH1 0x0 PUSH2 0x129D DUP4 DUP4 PUSH2 0x1282 JUMP JUMPDEST PUSH1 0x20 DUP4 ADD SWAP1 POP SWAP3 SWAP2 POP POP JUMP JUMPDEST PUSH1 0x0 PUSH1 0x20 DUP3 ADD SWAP1 POP SWAP2 SWAP1 POP JUMP JUMPDEST PUSH1 0x0 PUSH2 0x12C1 DUP3 PUSH2 0x1256 JUMP JUMPDEST PUSH2 0x12CB DUP2 DUP6 PUSH2 0x1261 JUMP JUMPDEST SWAP4 POP PUSH2 0x12D6 DUP4 PUSH2 0x1272 JUMP JUMPDEST DUP1 PUSH1 0x0 JUMPDEST DUP4 DUP2 LT ISZERO PUSH2 0x1307 JUMPI DUP2 MLOAD PUSH2 0x12EE DUP9 DUP3 PUSH2 0x1291 JUMP JUMPDEST SWAP8 POP PUSH2 0x12F9 DUP4 PUSH2 0x12A9 JUMP JUMPDEST SWAP3 POP POP PUSH1 0x1 DUP2 ADD SWAP1 POP PUSH2 0x12DA JUMP JUMPDEST POP DUP6 SWAP4 POP POP POP POP SWAP3 SWAP2 POP POP JUMP JUMPDEST PUSH1 0x0 PUSH1 0x20 DUP3 ADD SWAP1 POP DUP2 DUP2 SUB PUSH1 0x0 DUP4 ADD MSTORE PUSH2 0x132E DUP2 DUP5 PUSH2 0x12B6 JUMP JUMPDEST SWAP1 POP SWAP3 SWAP2 POP POP JUMP JUMPDEST PUSH32 0x53696D706C65566F74696E673A2050726F706F73616C20696E646578206F7574 PUSH1 0x0 DUP3 ADD MSTORE PUSH32 0x206F6620626F756E64732E000000000000000000000000000000000000000000 PUSH1 0x20 DUP3 ADD MSTORE POP JUMP JUMPDEST PUSH1 0x0 PUSH2 0x1392 PUSH1 0x2B DUP4 PUSH2 0x1037 JUMP JUMPDEST SWAP2 POP PUSH2 0x139D DUP3 PUSH2 0x1336 JUMP JUMPDEST PUSH1 0x40 DUP3 ADD SWAP1 POP SWAP2 SWAP1 POP JUMP JUMPDEST PUSH1 0x0 PUSH1 0x20 DUP3 ADD SWAP1 POP DUP2 DUP2 SUB PUSH1 0x0 DUP4 ADD MSTORE PUSH2 0x13C1 DUP2 PUSH2 0x1385 JUMP JUMPDEST SWAP1 POP SWAP2 SWAP1 POP JUMP JUMPDEST PUSH32 0x53696D706C65566F74696E673A2054686520766F7465722068617320616C7265 PUSH1 0x0 DUP3 ADD MSTORE PUSH32 0x61647920766F7465642E00000000000000000000000000000000000000000000 PUSH1 0x20 DUP3 ADD MSTORE POP JUMP JUMPDEST PUSH1 0x0 PUSH2 0x1424 PUSH1 0x2A DUP4 PUSH2 0x1037 JUMP JUMPDEST SWAP2 POP PUSH2 0x142F DUP3 PUSH2 0x13C8 JUMP JUMPDEST PUSH1 0x40 DUP3 ADD SWAP1 POP SWAP2 SWAP1 POP JUMP JUMPDEST PUSH1 0x0 PUSH1 0x20 DUP3 ADD SWAP1 POP DUP2 DUP2 SUB PUSH1 0x0 DUP4 ADD MSTORE PUSH2 0x1453 DUP2 PUSH2 0x1417 JUMP JUMPDEST SWAP1 POP SWAP2 SWAP1 POP JUMP JUMPDEST PUSH32 0x53696D706C65566F74696E673A2043616C6C657220646F6573206E6F74206861 PUSH1 0x0 DUP3 ADD MSTORE PUSH32 0x766520726967687420746F20766F74652E000000000000000000000000000000 PUSH1 0x20 DUP3 ADD MSTORE POP JUMP JUMPDEST PUSH1 0x0 PUSH2 0x14B6 PUSH1 0x31 DUP4 PUSH2 0x1037 JUMP JUMPDEST SWAP2 POP PUSH2 0x14C1 DUP3 PUSH2 0x145A JUMP JUMPDEST PUSH1 0x40 DUP3 ADD SWAP1 POP SWAP2 SWAP1 POP JUMP JUMPDEST PUSH1 0x0 PUSH1 0x20 DUP3 ADD SWAP1 POP DUP2 DUP2 SUB PUSH1 0x0 DUP4 ADD MSTORE PUSH2 0x14E5 DUP2 PUSH2 0x14A9 JUMP JUMPDEST SWAP1 POP SWAP2 SWAP1 POP JUMP JUMPDEST PUSH32 0x4E487B7100000000000000000000000000000000000000000000000000000000 PUSH1 0x0 MSTORE PUSH1 0x32 PUSH1 0x4 MSTORE PUSH1 0x24 PUSH1 0x0 REVERT JUMPDEST PUSH1 0x0 DUP2 SWAP1 POP SWAP2 SWAP1 POP JUMP JUMPDEST PUSH1 0x0 DUP2 SWAP1 POP SWAP2 SWAP1 POP JUMP JUMPDEST PUSH2 0x1540 PUSH2 0x153B DUP3 PUSH2 0x151B JUMP JUMPDEST PUSH2 0x1525 JUMP JUMPDEST DUP3 MSTORE POP POP JUMP JUMPDEST PUSH1 0x0 PUSH2 0x1552 DUP3 DUP5 PUSH2 0x152F JUMP JUMPDEST PUSH1 0x20 DUP3 ADD SWAP2 POP DUP2 SWAP1 POP SWAP3 SWAP2 POP POP JUMP JUMPDEST PUSH1 0x0 DUP2 SWAP1 POP SWAP3 SWAP2 POP POP JUMP JUMPDEST PUSH1 0x0 PUSH2 0x1577 DUP3 PUSH2 0x102C JUMP JUMPDEST PUSH2 0x1581 DUP2 DUP6 PUSH2 0x1561 JUMP JUMPDEST SWAP4 POP PUSH2 0x1591 DUP2 DUP6 PUSH1 0x20 DUP7 ADD PUSH2 0x1048 JUMP JUMPDEST DUP1 DUP5 ADD SWAP2 POP POP SWAP3 SWAP2 POP POP JUMP JUMPDEST PUSH32 0x2C20000000000000000000000000000000000000000000000000000000000000 DUP2 MSTORE POP JUMP JUMPDEST PUSH1 0x0 PUSH2 0x15CF DUP3 DUP6 PUSH2 0x156C JUMP JUMPDEST SWAP2 POP PUSH2 0x15DA DUP3 PUSH2 0x159D JUMP JUMPDEST PUSH1 0x2 DUP3 ADD SWAP2 POP PUSH2 0x15EA DUP3 DUP5 PUSH2 0x156C JUMP JUMPDEST SWAP2 POP DUP2 SWAP1 POP SWAP4 SWAP3 POP POP POP JUMP JUMPDEST PUSH32 0x53696D706C65566F74696E673A2053656C662D64656C65676174696F6E206973 PUSH1 0x0 DUP3 ADD MSTORE PUSH32 0x206E6F7420616C6C6F7765642E00000000000000000000000000000000000000 PUSH1 0x20 DUP3 ADD MSTORE POP JUMP JUMPDEST PUSH1 0x0 PUSH2 0x1652 PUSH1 0x2D DUP4 PUSH2 0x1037 JUMP JUMPDEST SWAP2 POP PUSH2 0x165D DUP3 PUSH2 0x15F6 JUMP JUMPDEST PUSH1 0x40 DUP3 ADD SWAP1 POP SWAP2 SWAP1 POP JUMP JUMPDEST PUSH1 0x0 PUSH1 0x20 DUP3 ADD SWAP1 POP DUP2 DUP2 SUB PUSH1 0x0 DUP4 ADD MSTORE PUSH2 0x1681 DUP2 PUSH2 0x1645 JUMP JUMPDEST SWAP1 POP SWAP2 SWAP1 POP JUMP JUMPDEST PUSH32 0x53696D706C65566F74696E673A2044656C65676174696F6E2074726163657320 PUSH1 0x0 DUP3 ADD MSTORE PUSH32 0x6261636B20746F2063616C6C65722E0000000000000000000000000000000000 PUSH1 0x20 DUP3 ADD MSTORE POP JUMP JUMPDEST PUSH1 0x0 PUSH2 0x16E4 PUSH1 0x2F DUP4 PUSH2 0x1037 JUMP JUMPDEST SWAP2 POP PUSH2 0x16EF DUP3 PUSH2 0x1688 JUMP JUMPDEST PUSH1 0x40 DUP3 ADD SWAP1 POP SWAP2 SWAP1 POP JUMP JUMPDEST PUSH1 0x0 PUSH1 0x20 DUP3 ADD SWAP1 POP DUP2 DUP2 SUB PUSH1 0x0 DUP4 ADD MSTORE PUSH2 0x1713 DUP2 PUSH2 0x16D7 JUMP JUMPDEST SWAP1 POP SWAP2 SWAP1 POP JUMP JUMPDEST PUSH32 0x53696D706C65566F74696E673A204F6E6C79206368616972506572736F6E2063 PUSH1 0x0 DUP3 ADD MSTORE PUSH32 0x616E206769766520726967687420746F20766F74652E00000000000000000000 PUSH1 0x20 DUP3 ADD MSTORE POP JUMP JUMPDEST PUSH1 0x0 PUSH2 0x1776 PUSH1 0x36 DUP4 PUSH2 0x1037 JUMP JUMPDEST SWAP2 POP PUSH2 0x1781 DUP3 PUSH2 0x171A JUMP JUMPDEST PUSH1 0x40 DUP3 ADD SWAP1 POP SWAP2 SWAP1 POP JUMP JUMPDEST PUSH1 0x0 PUSH1 0x20 DUP3 ADD SWAP1 POP DUP2 DUP2 SUB PUSH1 0x0 DUP4 ADD MSTORE PUSH2 0x17A5 DUP2 PUSH2 0x1769 JUMP JUMPDEST SWAP1 POP SWAP2 SWAP1 POP JUMP JUMPDEST PUSH32 0x53696D706C65566F74696E673A204164647265737320616C7265616479206861 PUSH1 0x0 DUP3 ADD MSTORE PUSH32 0x7320726967687420746F20766F74652E00000000000000000000000000000000 PUSH1 0x20 DUP3 ADD MSTORE POP JUMP JUMPDEST PUSH1 0x0 PUSH2 0x1808 PUSH1 0x30 DUP4 PUSH2 0x1037 JUMP JUMPDEST SWAP2 POP PUSH2 0x1813 DUP3 PUSH2 0x17AC JUMP JUMPDEST PUSH1 0x40 DUP3 ADD SWAP1 POP SWAP2 SWAP1 POP JUMP JUMPDEST PUSH1 0x0 PUSH1 0x20 DUP3 ADD SWAP1 POP DUP2 DUP2 SUB PUSH1 0x0 DUP4 ADD MSTORE PUSH2 0x1837 DUP2 PUSH2 0x17FB JUMP JUMPDEST SWAP1 POP SWAP2 SWAP1 POP JUMP JUMPDEST PUSH32 0x4E487B7100000000000000000000000000000000000000000000000000000000 PUSH1 0x0 MSTORE PUSH1 0x11 PUSH1 0x4 MSTORE PUSH1 0x24 PUSH1 0x0 REVERT JUMPDEST PUSH1 0x0 PUSH2 0x1878 DUP3 PUSH2 0xFC9 JUMP JUMPDEST SWAP2 POP PUSH2 0x1883 DUP4 PUSH2 0xFC9 JUMP JUMPDEST SWAP3 POP DUP3 PUSH32 0xFFFFFFFFFFFFFFFFFFFFFFFFFFFFFFFFFFFFFFFFFFFFFFFFFFFFFFFFFFFFFFFF SUB DUP3 GT ISZERO PUSH2 0x18B8 JUMPI PUSH2 0x18B7 PUSH2 0x183E JUMP JUMPDEST JUMPDEST DUP3 DUP3 ADD SWAP1 POP SWAP3 SWAP2 POP POP JUMP INVALID LOG2 PUSH5 0x6970667358 0x22 SLT KECCAK256 SWAP14 0xE6 NUMBER 0xA7 0xD6 DUP15 CALLER MSTORE8 SWAP1 0xBB DIFFICULTY LOG3 SWAP2 0x1E RETURNDATACOPY SWAP16 DUP6 DUP3 0x2E 0xA7 LOG2 LOG3 0xC6 SWAP4 DUP14 MULMOD 0x24 0xA6 0xE9 SWAP8 0xCF 0xC PUSH5 0x736F6C6343 STOP ADDMOD 0xD STOP CALLER "
		},
		"gasEstimates": {
			"creation": {
				"codeDepositCost": "1278600",
				"executionCost": "infinite",
				"totalCost": "infinite"
			},
			"external": {
				"chairPerson()": "2558",
				"computeWinningProposals()": "infinite",
				"delegate(address)": "infinite",
				"getProposal(uint256)": "infinite",
				"getWinningProposals()": "infinite",
				"giveRightToVote(address)": "29435",
				"proposalCount()": "2495",
				"vote(uint256)": "infinite",
				"voters(address)": "infinite",
				"winnerNames()": "infinite"
			},
			"internal": {
				"bytes32ToString(bytes32)": "infinite",
				"stringToBytes32(string memory)": "infinite"
			}
		},
		"methodIdentifiers": {
			"chairPerson()": "d4d4b5ac",
			"computeWinningProposals()": "5f07b961",
			"delegate(address)": "5c19a95c",
			"getProposal(uint256)": "c7f758a8",
			"getWinningProposals()": "ef788cd5",
			"giveRightToVote(address)": "9e7b8d61",
			"proposalCount()": "da35c664",
			"vote(uint256)": "0121b93f",
			"voters(address)": "a3ec138d",
			"winnerNames()": "28be18ee"
		}
	},
	"abi": [
		{
			"inputs": [
				{
					"internalType": "string[]",
					"name": "proposalNames",
					"type": "string[]"
				}
			],
			"stateMutability": "nonpayable",
			"type": "constructor"
		},
		{
			"anonymous": false,
			"inputs": [
				{
					"indexed": true,
					"internalType": "address",
					"name": "_from",
					"type": "address"
				},
				{
					"indexed": true,
					"internalType": "address",
					"name": "_to",
					"type": "address"
				}
			],
			"name": "DelegationSuccessful",
			"type": "event"
		},
		{
			"anonymous": false,
			"inputs": [
				{
					"indexed": true,
					"internalType": "uint256",
					"name": "_proposal",
					"type": "uint256"
				},
				{
					"indexed": true,
					"internalType": "address",
					"name": "_voter",
					"type": "address"
				},
				{
					"indexed": false,
					"internalType": "uint256",
					"name": "_votesAdded",
					"type": "uint256"
				}
			],
			"name": "VoteCasted",
			"type": "event"
		},
		{
			"anonymous": false,
			"inputs": [
				{
					"indexed": false,
					"internalType": "address",
					"name": "_chairPerson",
					"type": "address"
				},
				{
					"indexed": false,
					"internalType": "uint256",
					"name": "_proposalCount",
					"type": "uint256"
				}
			],
			"name": "VotingStarted",
			"type": "event"
		},
		{
			"inputs": [],
			"name": "chairPerson",
			"outputs": [
				{
					"internalType": "address",
					"name": "",
					"type": "address"
				}
			],
			"stateMutability": "view",
			"type": "function"
		},
		{
			"inputs": [],
			"name": "computeWinningProposals",
			"outputs": [],
			"stateMutability": "nonpayable",
			"type": "function"
		},
		{
			"inputs": [
				{
					"internalType": "address",
					"name": "_to",
					"type": "address"
				}
			],
			"name": "delegate",
			"outputs": [],
			"stateMutability": "nonpayable",
			"type": "function"
		},
		{
			"inputs": [
				{
					"internalType": "uint256",
					"name": "_proposalIndex",
					"type": "uint256"
				}
			],
			"name": "getProposal",
			"outputs": [
				{
					"internalType": "string",
					"name": "proposalName_",
					"type": "string"
				},
				{
					"internalType": "uint256",
					"name": "voteCount_",
					"type": "uint256"
				}
			],
			"stateMutability": "view",
			"type": "function"
		},
		{
			"inputs": [],
			"name": "getWinningProposals",
			"outputs": [
				{
					"internalType": "uint256[]",
					"name": "",
					"type": "uint256[]"
				}
			],
			"stateMutability": "view",
			"type": "function"
		},
		{
			"inputs": [
				{
					"internalType": "address",
					"name": "_voter",
					"type": "address"
				}
			],
			"name": "giveRightToVote",
			"outputs": [],
			"stateMutability": "nonpayable",
			"type": "function"
		},
		{
			"inputs": [],
			"name": "proposalCount",
			"outputs": [
				{
					"internalType": "uint256",
					"name": "",
					"type": "uint256"
				}
			],
			"stateMutability": "view",
			"type": "function"
		},
		{
			"inputs": [
				{
					"internalType": "uint256",
					"name": "proposal",
					"type": "uint256"
				}
			],
			"name": "vote",
			"outputs": [],
			"stateMutability": "nonpayable",
			"type": "function"
		},
		{
			"inputs": [
				{
					"internalType": "address",
					"name": "",
					"type": "address"
				}
			],
			"name": "voters",
			"outputs": [
				{
					"internalType": "uint256",
					"name": "weight",
					"type": "uint256"
				},
				{
					"internalType": "bool",
					"name": "voted",
					"type": "bool"
				},
				{
					"internalType": "address",
					"name": "delegate",
					"type": "address"
				},
				{
					"internalType": "uint256",
					"name": "vote",
					"type": "uint256"
				}
			],
			"stateMutability": "view",
			"type": "function"
		},
		{
			"inputs": [],
			"name": "winnerNames",
			"outputs": [
				{
					"internalType": "string",
					"name": "winnerNames_",
					"type": "string"
				}
			],
			"stateMutability": "view",
			"type": "function"
		}
	]
}